{
	"contracts/ExoSupermarche.sol": {
		"supermarche": {
			"abi": [
				{
					"inputs": [
						{
							"internalType": "string",
							"name": "_nom",
							"type": "string"
						}
					],
					"name": "createClient",
					"outputs": [],
					"stateMutability": "nonpayable",
					"type": "function"
				},
				{
					"inputs": [
						{
							"internalType": "string",
							"name": "_libelle",
							"type": "string"
						},
						{
							"internalType": "int16",
							"name": "_prix",
							"type": "int16"
						}
					],
					"name": "createProduit",
					"outputs": [],
					"stateMutability": "nonpayable",
					"type": "function"
				},
				{
					"inputs": [],
					"name": "getAllClients",
					"outputs": [
						{
							"components": [
								{
									"internalType": "uint256",
									"name": "_id",
									"type": "uint256"
								},
								{
									"internalType": "string",
									"name": "_nom",
									"type": "string"
								},
								{
									"components": [
										{
											"internalType": "uint256",
											"name": "_id",
											"type": "uint256"
										},
										{
											"internalType": "string",
											"name": "_libelle",
											"type": "string"
										},
										{
											"internalType": "int16",
											"name": "_prix",
											"type": "int16"
										}
									],
									"internalType": "struct supermarche.produitData[]",
									"name": "panier",
									"type": "tuple[]"
								}
							],
							"internalType": "struct supermarche.clientData[]",
							"name": "",
							"type": "tuple[]"
						}
					],
					"stateMutability": "view",
					"type": "function"
				},
				{
					"inputs": [],
					"name": "getAllProducts",
					"outputs": [
						{
							"components": [
								{
									"internalType": "uint256",
									"name": "_id",
									"type": "uint256"
								},
								{
									"internalType": "string",
									"name": "_libelle",
									"type": "string"
								},
								{
									"internalType": "int16",
									"name": "_prix",
									"type": "int16"
								}
							],
							"internalType": "struct supermarche.produitData[]",
							"name": "",
							"type": "tuple[]"
						}
					],
					"stateMutability": "view",
					"type": "function"
				}
			],
			"devdoc": {
				"kind": "dev",
				"methods": {},
				"version": 1
			},
			"evm": {
				"assembly": "    /* \"contracts/ExoSupermarche.sol\":59:941  contract supermarche {\r... */\n  mstore(0x40, 0x80)\n  callvalue\n  dup1\n  iszero\n  tag_1\n  jumpi\n  0x00\n  dup1\n  revert\ntag_1:\n  pop\n  dataSize(sub_0)\n  dup1\n  dataOffset(sub_0)\n  0x00\n  codecopy\n  0x00\n  return\nstop\n\nsub_0: assembly {\n        /* \"contracts/ExoSupermarche.sol\":59:941  contract supermarche {\r... */\n      mstore(0x40, 0x80)\n      callvalue\n      dup1\n      iszero\n      tag_1\n      jumpi\n      0x00\n      dup1\n      revert\n    tag_1:\n      pop\n      jumpi(tag_2, lt(calldatasize, 0x04))\n      shr(0xe0, calldataload(0x00))\n      dup1\n      0x02ee3a52\n      eq\n      tag_3\n      jumpi\n      dup1\n      0x51401eef\n      eq\n      tag_4\n      jumpi\n      dup1\n      0xe4d7a3d4\n      eq\n      tag_5\n      jumpi\n      dup1\n      0xe88e9f0f\n      eq\n      tag_6\n      jumpi\n    tag_2:\n      0x00\n      dup1\n      revert\n        /* \"contracts/ExoSupermarche.sol\":644:749  function getAllProducts() public view returns(produitData[] memory) {\r... */\n    tag_3:\n      tag_7\n      tag_8\n      jump\t// in\n    tag_7:\n      mload(0x40)\n      tag_9\n      swap2\n      swap1\n      tag_10\n      jump\t// in\n    tag_9:\n      mload(0x40)\n      dup1\n      swap2\n      sub\n      swap1\n      return\n        /* \"contracts/ExoSupermarche.sol\":422:636  function createProduit(string memory _libelle, int16 _prix) public {\r... */\n    tag_4:\n      tag_11\n      0x04\n      dup1\n      calldatasize\n      sub\n      dup2\n      add\n      swap1\n      tag_12\n      swap2\n      swap1\n      tag_13\n      jump\t// in\n    tag_12:\n      tag_14\n      jump\t// in\n    tag_11:\n      stop\n        /* \"contracts/ExoSupermarche.sol\":832:934  function getAllClients() public view returns(clientData[] memory) {\r... */\n    tag_5:\n      tag_15\n      tag_16\n      jump\t// in\n    tag_15:\n      mload(0x40)\n      tag_17\n      swap2\n      swap1\n      tag_18\n      jump\t// in\n    tag_17:\n      mload(0x40)\n      dup1\n      swap2\n      sub\n      swap1\n      return\n        /* \"contracts/ExoSupermarche.sol\":757:824  function createClient(string memory _nom) public {\r... */\n    tag_6:\n      tag_19\n      0x04\n      dup1\n      calldatasize\n      sub\n      dup2\n      add\n      swap1\n      tag_20\n      swap2\n      swap1\n      tag_21\n      jump\t// in\n    tag_20:\n      tag_22\n      jump\t// in\n    tag_19:\n      stop\n        /* \"contracts/ExoSupermarche.sol\":644:749  function getAllProducts() public view returns(produitData[] memory) {\r... */\n    tag_8:\n        /* \"contracts/ExoSupermarche.sol\":690:710  produitData[] memory */\n      0x60\n        /* \"contracts/ExoSupermarche.sol\":730:741  AllProduits */\n      0x00\n        /* \"contracts/ExoSupermarche.sol\":723:741  return AllProduits */\n      dup1\n      sload\n      dup1\n      0x20\n      mul\n      0x20\n      add\n      mload(0x40)\n      swap1\n      dup2\n      add\n      0x40\n      mstore\n      dup1\n      swap3\n      swap2\n      swap1\n      dup2\n      dup2\n      mstore\n      0x20\n      add\n      0x00\n      swap1\n    tag_24:\n      dup3\n      dup3\n      lt\n      iszero\n      tag_25\n      jumpi\n      dup4\n      dup3\n      swap1\n      0x00\n      mstore\n      keccak256(0x00, 0x20)\n      swap1\n      0x03\n      mul\n      add\n      mload(0x40)\n      dup1\n      0x60\n      add\n      0x40\n      mstore\n      swap1\n      dup2\n      0x00\n      dup3\n      add\n      sload\n      dup2\n      mstore\n      0x20\n      add\n      0x01\n      dup3\n      add\n      dup1\n      sload\n      tag_27\n      swap1\n      tag_28\n      jump\t// in\n    tag_27:\n      dup1\n      0x1f\n      add\n      0x20\n      dup1\n      swap2\n      div\n      mul\n      0x20\n      add\n      mload(0x40)\n      swap1\n      dup2\n      add\n      0x40\n      mstore\n      dup1\n      swap3\n      swap2\n      swap1\n      dup2\n      dup2\n      mstore\n      0x20\n      add\n      dup3\n      dup1\n      sload\n      tag_29\n      swap1\n      tag_28\n      jump\t// in\n    tag_29:\n      dup1\n      iszero\n      tag_30\n      jumpi\n      dup1\n      0x1f\n      lt\n      tag_31\n      jumpi\n      0x0100\n      dup1\n      dup4\n      sload\n      div\n      mul\n      dup4\n      mstore\n      swap2\n      0x20\n      add\n      swap2\n      jump(tag_30)\n    tag_31:\n      dup3\n      add\n      swap2\n      swap1\n      0x00\n      mstore\n      keccak256(0x00, 0x20)\n      swap1\n    tag_32:\n      dup2\n      sload\n      dup2\n      mstore\n      swap1\n      0x01\n      add\n      swap1\n      0x20\n      add\n      dup1\n      dup4\n      gt\n      tag_32\n      jumpi\n      dup3\n      swap1\n      sub\n      0x1f\n      and\n      dup3\n      add\n      swap2\n    tag_30:\n      pop\n      pop\n      pop\n      pop\n      pop\n      dup2\n      mstore\n      0x20\n      add\n      0x02\n      dup3\n      add\n      0x00\n      swap1\n      sload\n      swap1\n      0x0100\n      exp\n      swap1\n      div\n      0x01\n      signextend\n      0x01\n      signextend\n      0x01\n      signextend\n      dup2\n      mstore\n      pop\n      pop\n      dup2\n      mstore\n      0x20\n      add\n      swap1\n      0x01\n      add\n      swap1\n      jump(tag_24)\n    tag_25:\n      pop\n      pop\n      pop\n      pop\n      swap1\n      pop\n        /* \"contracts/ExoSupermarche.sol\":644:749  function getAllProducts() public view returns(produitData[] memory) {\r... */\n      swap1\n      jump\t// out\n        /* \"contracts/ExoSupermarche.sol\":422:636  function createProduit(string memory _libelle, int16 _prix) public {\r... */\n    tag_14:\n        /* \"contracts/ExoSupermarche.sol\":500:507  uint id */\n      0x00\n        /* \"contracts/ExoSupermarche.sol\":531:532  1 */\n      0x01\n        /* \"contracts/ExoSupermarche.sol\":510:521  AllProduits */\n      0x00\n        /* \"contracts/ExoSupermarche.sol\":510:528  AllProduits.length */\n      dup1\n      sload\n      swap1\n      pop\n        /* \"contracts/ExoSupermarche.sol\":510:532  AllProduits.length + 1 */\n      tag_34\n      swap2\n      swap1\n      tag_35\n      jump\t// in\n    tag_34:\n        /* \"contracts/ExoSupermarche.sol\":500:532  uint id = AllProduits.length + 1 */\n      swap1\n      pop\n        /* \"contracts/ExoSupermarche.sol\":543:563  produitData memory p */\n      0x00\n        /* \"contracts/ExoSupermarche.sol\":566:598  produitData(id, _libelle, _prix) */\n      mload(0x40)\n      dup1\n      0x60\n      add\n      0x40\n      mstore\n      dup1\n        /* \"contracts/ExoSupermarche.sol\":578:580  id */\n      dup4\n        /* \"contracts/ExoSupermarche.sol\":566:598  produitData(id, _libelle, _prix) */\n      dup2\n      mstore\n      0x20\n      add\n        /* \"contracts/ExoSupermarche.sol\":582:590  _libelle */\n      dup6\n        /* \"contracts/ExoSupermarche.sol\":566:598  produitData(id, _libelle, _prix) */\n      dup2\n      mstore\n      0x20\n      add\n        /* \"contracts/ExoSupermarche.sol\":592:597  _prix */\n      dup5\n        /* \"contracts/ExoSupermarche.sol\":566:598  produitData(id, _libelle, _prix) */\n      0x01\n      signextend\n      dup2\n      mstore\n      pop\n        /* \"contracts/ExoSupermarche.sol\":543:598  produitData memory p = produitData(id, _libelle, _prix) */\n      swap1\n      pop\n        /* \"contracts/ExoSupermarche.sol\":609:620  AllProduits */\n      0x00\n        /* \"contracts/ExoSupermarche.sol\":626:627  p */\n      dup2\n        /* \"contracts/ExoSupermarche.sol\":609:628  AllProduits.push(p) */\n      swap1\n      dup1\n      0x01\n      dup2\n      sload\n      add\n      dup1\n      dup3\n      sstore\n      dup1\n      swap2\n      pop\n      pop\n      0x01\n      swap1\n      sub\n      swap1\n      0x00\n      mstore\n      keccak256(0x00, 0x20)\n      swap1\n      0x03\n      mul\n      add\n      0x00\n      swap1\n      swap2\n      swap1\n      swap2\n      swap1\n      swap2\n      pop\n      0x00\n      dup3\n      add\n      mload\n      dup2\n      0x00\n      add\n      sstore\n      0x20\n      dup3\n      add\n      mload\n      dup2\n      0x01\n      add\n      swap1\n      dup1\n      mload\n      swap1\n      0x20\n      add\n      swap1\n      tag_37\n      swap3\n      swap2\n      swap1\n      tag_38\n      jump\t// in\n    tag_37:\n      pop\n      0x40\n      dup3\n      add\n      mload\n      dup2\n      0x02\n      add\n      exp(0x0100, 0x00)\n      dup2\n      sload\n      dup2\n      0xffff\n      mul\n      not\n      and\n      swap1\n      dup4\n      0x01\n      signextend\n      0xffff\n      and\n      mul\n      or\n      swap1\n      sstore\n      pop\n      pop\n      pop\n        /* \"contracts/ExoSupermarche.sol\":489:636  {\r... */\n      pop\n      pop\n        /* \"contracts/ExoSupermarche.sol\":422:636  function createProduit(string memory _libelle, int16 _prix) public {\r... */\n      pop\n      pop\n      jump\t// out\n        /* \"contracts/ExoSupermarche.sol\":832:934  function getAllClients() public view returns(clientData[] memory) {\r... */\n    tag_16:\n        /* \"contracts/ExoSupermarche.sol\":877:896  clientData[] memory */\n      0x60\n        /* \"contracts/ExoSupermarche.sol\":916:926  AllClients */\n      0x01\n        /* \"contracts/ExoSupermarche.sol\":909:926  return AllClients */\n      dup1\n      sload\n      dup1\n      0x20\n      mul\n      0x20\n      add\n      mload(0x40)\n      swap1\n      dup2\n      add\n      0x40\n      mstore\n      dup1\n      swap3\n      swap2\n      swap1\n      dup2\n      dup2\n      mstore\n      0x20\n      add\n      0x00\n      swap1\n    tag_40:\n      dup3\n      dup3\n      lt\n      iszero\n      tag_41\n      jumpi\n      dup4\n      dup3\n      swap1\n      0x00\n      mstore\n      keccak256(0x00, 0x20)\n      swap1\n      0x03\n      mul\n      add\n      mload(0x40)\n      dup1\n      0x60\n      add\n      0x40\n      mstore\n      swap1\n      dup2\n      0x00\n      dup3\n      add\n      sload\n      dup2\n      mstore\n      0x20\n      add\n      0x01\n      dup3\n      add\n      dup1\n      sload\n      tag_43\n      swap1\n      tag_28\n      jump\t// in\n    tag_43:\n      dup1\n      0x1f\n      add\n      0x20\n      dup1\n      swap2\n      div\n      mul\n      0x20\n      add\n      mload(0x40)\n      swap1\n      dup2\n      add\n      0x40\n      mstore\n      dup1\n      swap3\n      swap2\n      swap1\n      dup2\n      dup2\n      mstore\n      0x20\n      add\n      dup3\n      dup1\n      sload\n      tag_44\n      swap1\n      tag_28\n      jump\t// in\n    tag_44:\n      dup1\n      iszero\n      tag_45\n      jumpi\n      dup1\n      0x1f\n      lt\n      tag_46\n      jumpi\n      0x0100\n      dup1\n      dup4\n      sload\n      div\n      mul\n      dup4\n      mstore\n      swap2\n      0x20\n      add\n      swap2\n      jump(tag_45)\n    tag_46:\n      dup3\n      add\n      swap2\n      swap1\n      0x00\n      mstore\n      keccak256(0x00, 0x20)\n      swap1\n    tag_47:\n      dup2\n      sload\n      dup2\n      mstore\n      swap1\n      0x01\n      add\n      swap1\n      0x20\n      add\n      dup1\n      dup4\n      gt\n      tag_47\n      jumpi\n      dup3\n      swap1\n      sub\n      0x1f\n      and\n      dup3\n      add\n      swap2\n    tag_45:\n      pop\n      pop\n      pop\n      pop\n      pop\n      dup2\n      mstore\n      0x20\n      add\n      0x02\n      dup3\n      add\n      dup1\n      sload\n      dup1\n      0x20\n      mul\n      0x20\n      add\n      mload(0x40)\n      swap1\n      dup2\n      add\n      0x40\n      mstore\n      dup1\n      swap3\n      swap2\n      swap1\n      dup2\n      dup2\n      mstore\n      0x20\n      add\n      0x00\n      swap1\n    tag_48:\n      dup3\n      dup3\n      lt\n      iszero\n      tag_49\n      jumpi\n      dup4\n      dup3\n      swap1\n      0x00\n      mstore\n      keccak256(0x00, 0x20)\n      swap1\n      0x03\n      mul\n      add\n      mload(0x40)\n      dup1\n      0x60\n      add\n      0x40\n      mstore\n      swap1\n      dup2\n      0x00\n      dup3\n      add\n      sload\n      dup2\n      mstore\n      0x20\n      add\n      0x01\n      dup3\n      add\n      dup1\n      sload\n      tag_51\n      swap1\n      tag_28\n      jump\t// in\n    tag_51:\n      dup1\n      0x1f\n      add\n      0x20\n      dup1\n      swap2\n      div\n      mul\n      0x20\n      add\n      mload(0x40)\n      swap1\n      dup2\n      add\n      0x40\n      mstore\n      dup1\n      swap3\n      swap2\n      swap1\n      dup2\n      dup2\n      mstore\n      0x20\n      add\n      dup3\n      dup1\n      sload\n      tag_52\n      swap1\n      tag_28\n      jump\t// in\n    tag_52:\n      dup1\n      iszero\n      tag_53\n      jumpi\n      dup1\n      0x1f\n      lt\n      tag_54\n      jumpi\n      0x0100\n      dup1\n      dup4\n      sload\n      div\n      mul\n      dup4\n      mstore\n      swap2\n      0x20\n      add\n      swap2\n      jump(tag_53)\n    tag_54:\n      dup3\n      add\n      swap2\n      swap1\n      0x00\n      mstore\n      keccak256(0x00, 0x20)\n      swap1\n    tag_55:\n      dup2\n      sload\n      dup2\n      mstore\n      swap1\n      0x01\n      add\n      swap1\n      0x20\n      add\n      dup1\n      dup4\n      gt\n      tag_55\n      jumpi\n      dup3\n      swap1\n      sub\n      0x1f\n      and\n      dup3\n      add\n      swap2\n    tag_53:\n      pop\n      pop\n      pop\n      pop\n      pop\n      dup2\n      mstore\n      0x20\n      add\n      0x02\n      dup3\n      add\n      0x00\n      swap1\n      sload\n      swap1\n      0x0100\n      exp\n      swap1\n      div\n      0x01\n      signextend\n      0x01\n      signextend\n      0x01\n      signextend\n      dup2\n      mstore\n      pop\n      pop\n      dup2\n      mstore\n      0x20\n      add\n      swap1\n      0x01\n      add\n      swap1\n      jump(tag_48)\n    tag_49:\n      pop\n      pop\n      pop\n      pop\n      dup2\n      mstore\n      pop\n      pop\n      dup2\n      mstore\n      0x20\n      add\n      swap1\n      0x01\n      add\n      swap1\n      jump(tag_40)\n    tag_41:\n      pop\n      pop\n      pop\n      pop\n      swap1\n      pop\n        /* \"contracts/ExoSupermarche.sol\":832:934  function getAllClients() public view returns(clientData[] memory) {\r... */\n      swap1\n      jump\t// out\n        /* \"contracts/ExoSupermarche.sol\":757:824  function createClient(string memory _nom) public {\r... */\n    tag_22:\n      pop\n      jump\t// out\n    tag_38:\n      dup3\n      dup1\n      sload\n      tag_57\n      swap1\n      tag_28\n      jump\t// in\n    tag_57:\n      swap1\n      0x00\n      mstore\n      keccak256(0x00, 0x20)\n      swap1\n      0x1f\n      add\n      0x20\n      swap1\n      div\n      dup2\n      add\n      swap3\n      dup3\n      tag_59\n      jumpi\n      0x00\n      dup6\n      sstore\n      jump(tag_58)\n    tag_59:\n      dup3\n      0x1f\n      lt\n      tag_60\n      jumpi\n      dup1\n      mload\n      not(0xff)\n      and\n      dup4\n      dup1\n      add\n      or\n      dup6\n      sstore\n      jump(tag_58)\n    tag_60:\n      dup3\n      dup1\n      add\n      0x01\n      add\n      dup6\n      sstore\n      dup3\n      iszero\n      tag_58\n      jumpi\n      swap2\n      dup3\n      add\n    tag_61:\n      dup3\n      dup2\n      gt\n      iszero\n      tag_62\n      jumpi\n      dup3\n      mload\n      dup3\n      sstore\n      swap2\n      0x20\n      add\n      swap2\n      swap1\n      0x01\n      add\n      swap1\n      jump(tag_61)\n    tag_62:\n    tag_58:\n      pop\n      swap1\n      pop\n      tag_63\n      swap2\n      swap1\n      tag_64\n      jump\t// in\n    tag_63:\n      pop\n      swap1\n      jump\t// out\n    tag_64:\n    tag_65:\n      dup1\n      dup3\n      gt\n      iszero\n      tag_66\n      jumpi\n      0x00\n      dup2\n      0x00\n      swap1\n      sstore\n      pop\n      0x01\n      add\n      jump(tag_65)\n    tag_66:\n      pop\n      swap1\n      jump\t// out\n        /* \"#utility.yul\":7:419   */\n    tag_68:\n        /* \"#utility.yul\":85:90   */\n      0x00\n        /* \"#utility.yul\":110:176   */\n      tag_70\n        /* \"#utility.yul\":126:175   */\n      tag_71\n        /* \"#utility.yul\":168:174   */\n      dup5\n        /* \"#utility.yul\":126:175   */\n      tag_72\n      jump\t// in\n    tag_71:\n        /* \"#utility.yul\":110:176   */\n      tag_73\n      jump\t// in\n    tag_70:\n        /* \"#utility.yul\":101:176   */\n      swap1\n      pop\n        /* \"#utility.yul\":199:205   */\n      dup3\n        /* \"#utility.yul\":192:197   */\n      dup2\n        /* \"#utility.yul\":185:206   */\n      mstore\n        /* \"#utility.yul\":237:241   */\n      0x20\n        /* \"#utility.yul\":230:235   */\n      dup2\n        /* \"#utility.yul\":226:242   */\n      add\n        /* \"#utility.yul\":275:278   */\n      dup5\n        /* \"#utility.yul\":266:272   */\n      dup5\n        /* \"#utility.yul\":261:264   */\n      dup5\n        /* \"#utility.yul\":257:273   */\n      add\n        /* \"#utility.yul\":254:279   */\n      gt\n        /* \"#utility.yul\":251:363   */\n      iszero\n      tag_74\n      jumpi\n        /* \"#utility.yul\":282:361   */\n      tag_75\n      tag_76\n      jump\t// in\n    tag_75:\n        /* \"#utility.yul\":251:363   */\n    tag_74:\n        /* \"#utility.yul\":372:413   */\n      tag_77\n        /* \"#utility.yul\":406:412   */\n      dup5\n        /* \"#utility.yul\":401:404   */\n      dup3\n        /* \"#utility.yul\":396:399   */\n      dup6\n        /* \"#utility.yul\":372:413   */\n      tag_78\n      jump\t// in\n    tag_77:\n        /* \"#utility.yul\":91:419   */\n      pop\n        /* \"#utility.yul\":7:419   */\n      swap4\n      swap3\n      pop\n      pop\n      pop\n      jump\t// out\n        /* \"#utility.yul\":425:560   */\n    tag_79:\n        /* \"#utility.yul\":469:474   */\n      0x00\n        /* \"#utility.yul\":507:513   */\n      dup2\n        /* \"#utility.yul\":494:514   */\n      calldataload\n        /* \"#utility.yul\":485:514   */\n      swap1\n      pop\n        /* \"#utility.yul\":523:554   */\n      tag_81\n        /* \"#utility.yul\":548:553   */\n      dup2\n        /* \"#utility.yul\":523:554   */\n      tag_82\n      jump\t// in\n    tag_81:\n        /* \"#utility.yul\":425:560   */\n      swap3\n      swap2\n      pop\n      pop\n      jump\t// out\n        /* \"#utility.yul\":580:920   */\n    tag_83:\n        /* \"#utility.yul\":636:641   */\n      0x00\n        /* \"#utility.yul\":685:688   */\n      dup3\n        /* \"#utility.yul\":678:682   */\n      0x1f\n        /* \"#utility.yul\":670:676   */\n      dup4\n        /* \"#utility.yul\":666:683   */\n      add\n        /* \"#utility.yul\":662:689   */\n      slt\n        /* \"#utility.yul\":652:774   */\n      tag_85\n      jumpi\n        /* \"#utility.yul\":693:772   */\n      tag_86\n      tag_87\n      jump\t// in\n    tag_86:\n        /* \"#utility.yul\":652:774   */\n    tag_85:\n        /* \"#utility.yul\":810:816   */\n      dup2\n        /* \"#utility.yul\":797:817   */\n      calldataload\n        /* \"#utility.yul\":835:914   */\n      tag_88\n        /* \"#utility.yul\":910:913   */\n      dup5\n        /* \"#utility.yul\":902:908   */\n      dup3\n        /* \"#utility.yul\":895:899   */\n      0x20\n        /* \"#utility.yul\":887:893   */\n      dup7\n        /* \"#utility.yul\":883:900   */\n      add\n        /* \"#utility.yul\":835:914   */\n      tag_68\n      jump\t// in\n    tag_88:\n        /* \"#utility.yul\":826:914   */\n      swap2\n      pop\n        /* \"#utility.yul\":642:920   */\n      pop\n        /* \"#utility.yul\":580:920   */\n      swap3\n      swap2\n      pop\n      pop\n      jump\t// out\n        /* \"#utility.yul\":926:1435   */\n    tag_21:\n        /* \"#utility.yul\":995:1001   */\n      0x00\n        /* \"#utility.yul\":1044:1046   */\n      0x20\n        /* \"#utility.yul\":1032:1041   */\n      dup3\n        /* \"#utility.yul\":1023:1030   */\n      dup5\n        /* \"#utility.yul\":1019:1042   */\n      sub\n        /* \"#utility.yul\":1015:1047   */\n      slt\n        /* \"#utility.yul\":1012:1131   */\n      iszero\n      tag_90\n      jumpi\n        /* \"#utility.yul\":1050:1129   */\n      tag_91\n      tag_92\n      jump\t// in\n    tag_91:\n        /* \"#utility.yul\":1012:1131   */\n    tag_90:\n        /* \"#utility.yul\":1198:1199   */\n      0x00\n        /* \"#utility.yul\":1187:1196   */\n      dup3\n        /* \"#utility.yul\":1183:1200   */\n      add\n        /* \"#utility.yul\":1170:1201   */\n      calldataload\n        /* \"#utility.yul\":1228:1246   */\n      0xffffffffffffffff\n        /* \"#utility.yul\":1220:1226   */\n      dup2\n        /* \"#utility.yul\":1217:1247   */\n      gt\n        /* \"#utility.yul\":1214:1331   */\n      iszero\n      tag_93\n      jumpi\n        /* \"#utility.yul\":1250:1329   */\n      tag_94\n      tag_95\n      jump\t// in\n    tag_94:\n        /* \"#utility.yul\":1214:1331   */\n    tag_93:\n        /* \"#utility.yul\":1355:1418   */\n      tag_96\n        /* \"#utility.yul\":1410:1417   */\n      dup5\n        /* \"#utility.yul\":1401:1407   */\n      dup3\n        /* \"#utility.yul\":1390:1399   */\n      dup6\n        /* \"#utility.yul\":1386:1408   */\n      add\n        /* \"#utility.yul\":1355:1418   */\n      tag_83\n      jump\t// in\n    tag_96:\n        /* \"#utility.yul\":1345:1418   */\n      swap2\n      pop\n        /* \"#utility.yul\":1141:1428   */\n      pop\n        /* \"#utility.yul\":926:1435   */\n      swap3\n      swap2\n      pop\n      pop\n      jump\t// out\n        /* \"#utility.yul\":1441:2091   */\n    tag_13:\n        /* \"#utility.yul\":1517:1523   */\n      0x00\n        /* \"#utility.yul\":1525:1531   */\n      dup1\n        /* \"#utility.yul\":1574:1576   */\n      0x40\n        /* \"#utility.yul\":1562:1571   */\n      dup4\n        /* \"#utility.yul\":1553:1560   */\n      dup6\n        /* \"#utility.yul\":1549:1572   */\n      sub\n        /* \"#utility.yul\":1545:1577   */\n      slt\n        /* \"#utility.yul\":1542:1661   */\n      iszero\n      tag_98\n      jumpi\n        /* \"#utility.yul\":1580:1659   */\n      tag_99\n      tag_92\n      jump\t// in\n    tag_99:\n        /* \"#utility.yul\":1542:1661   */\n    tag_98:\n        /* \"#utility.yul\":1728:1729   */\n      0x00\n        /* \"#utility.yul\":1717:1726   */\n      dup4\n        /* \"#utility.yul\":1713:1730   */\n      add\n        /* \"#utility.yul\":1700:1731   */\n      calldataload\n        /* \"#utility.yul\":1758:1776   */\n      0xffffffffffffffff\n        /* \"#utility.yul\":1750:1756   */\n      dup2\n        /* \"#utility.yul\":1747:1777   */\n      gt\n        /* \"#utility.yul\":1744:1861   */\n      iszero\n      tag_100\n      jumpi\n        /* \"#utility.yul\":1780:1859   */\n      tag_101\n      tag_95\n      jump\t// in\n    tag_101:\n        /* \"#utility.yul\":1744:1861   */\n    tag_100:\n        /* \"#utility.yul\":1885:1948   */\n      tag_102\n        /* \"#utility.yul\":1940:1947   */\n      dup6\n        /* \"#utility.yul\":1931:1937   */\n      dup3\n        /* \"#utility.yul\":1920:1929   */\n      dup7\n        /* \"#utility.yul\":1916:1938   */\n      add\n        /* \"#utility.yul\":1885:1948   */\n      tag_83\n      jump\t// in\n    tag_102:\n        /* \"#utility.yul\":1875:1948   */\n      swap3\n      pop\n        /* \"#utility.yul\":1671:1958   */\n      pop\n        /* \"#utility.yul\":1997:1999   */\n      0x20\n        /* \"#utility.yul\":2023:2074   */\n      tag_103\n        /* \"#utility.yul\":2066:2073   */\n      dup6\n        /* \"#utility.yul\":2057:2063   */\n      dup3\n        /* \"#utility.yul\":2046:2055   */\n      dup7\n        /* \"#utility.yul\":2042:2064   */\n      add\n        /* \"#utility.yul\":2023:2074   */\n      tag_79\n      jump\t// in\n    tag_103:\n        /* \"#utility.yul\":2013:2074   */\n      swap2\n      pop\n        /* \"#utility.yul\":1968:2084   */\n      pop\n        /* \"#utility.yul\":1441:2091   */\n      swap3\n      pop\n      swap3\n      swap1\n      pop\n      jump\t// out\n        /* \"#utility.yul\":2097:2357   */\n    tag_104:\n        /* \"#utility.yul\":2218:2228   */\n      0x00\n        /* \"#utility.yul\":2253:2351   */\n      tag_106\n        /* \"#utility.yul\":2347:2350   */\n      dup4\n        /* \"#utility.yul\":2339:2345   */\n      dup4\n        /* \"#utility.yul\":2253:2351   */\n      tag_107\n      jump\t// in\n    tag_106:\n        /* \"#utility.yul\":2239:2351   */\n      swap1\n      pop\n        /* \"#utility.yul\":2097:2357   */\n      swap3\n      swap2\n      pop\n      pop\n      jump\t// out\n        /* \"#utility.yul\":2363:2623   */\n    tag_108:\n        /* \"#utility.yul\":2484:2494   */\n      0x00\n        /* \"#utility.yul\":2519:2617   */\n      tag_110\n        /* \"#utility.yul\":2613:2616   */\n      dup4\n        /* \"#utility.yul\":2605:2611   */\n      dup4\n        /* \"#utility.yul\":2519:2617   */\n      tag_111\n      jump\t// in\n    tag_110:\n        /* \"#utility.yul\":2505:2617   */\n      swap1\n      pop\n        /* \"#utility.yul\":2363:2623   */\n      swap3\n      swap2\n      pop\n      pop\n      jump\t// out\n        /* \"#utility.yul\":2703:3822   */\n    tag_112:\n        /* \"#utility.yul\":2874:2877   */\n      0x00\n        /* \"#utility.yul\":2903:2983   */\n      tag_114\n        /* \"#utility.yul\":2977:2982   */\n      dup3\n        /* \"#utility.yul\":2903:2983   */\n      tag_115\n      jump\t// in\n    tag_114:\n        /* \"#utility.yul\":2999:3111   */\n      tag_116\n        /* \"#utility.yul\":3104:3110   */\n      dup2\n        /* \"#utility.yul\":3099:3102   */\n      dup6\n        /* \"#utility.yul\":2999:3111   */\n      tag_117\n      jump\t// in\n    tag_116:\n        /* \"#utility.yul\":2992:3111   */\n      swap4\n      pop\n        /* \"#utility.yul\":3137:3140   */\n      dup4\n        /* \"#utility.yul\":3182:3186   */\n      0x20\n        /* \"#utility.yul\":3174:3180   */\n      dup3\n        /* \"#utility.yul\":3170:3187   */\n      mul\n        /* \"#utility.yul\":3165:3168   */\n      dup6\n        /* \"#utility.yul\":3161:3188   */\n      add\n        /* \"#utility.yul\":3212:3294   */\n      tag_118\n        /* \"#utility.yul\":3288:3293   */\n      dup6\n        /* \"#utility.yul\":3212:3294   */\n      tag_119\n      jump\t// in\n    tag_118:\n        /* \"#utility.yul\":3317:3324   */\n      dup1\n        /* \"#utility.yul\":3348:3349   */\n      0x00\n        /* \"#utility.yul\":3333:3777   */\n    tag_120:\n        /* \"#utility.yul\":3358:3364   */\n      dup6\n        /* \"#utility.yul\":3355:3356   */\n      dup2\n        /* \"#utility.yul\":3352:3365   */\n      lt\n        /* \"#utility.yul\":3333:3777   */\n      iszero\n      tag_122\n      jumpi\n        /* \"#utility.yul\":3429:3438   */\n      dup5\n        /* \"#utility.yul\":3423:3427   */\n      dup5\n        /* \"#utility.yul\":3419:3439   */\n      sub\n        /* \"#utility.yul\":3414:3417   */\n      dup10\n        /* \"#utility.yul\":3407:3440   */\n      mstore\n        /* \"#utility.yul\":3480:3486   */\n      dup2\n        /* \"#utility.yul\":3474:3487   */\n      mload\n        /* \"#utility.yul\":3508:3624   */\n      tag_123\n        /* \"#utility.yul\":3619:3623   */\n      dup6\n        /* \"#utility.yul\":3604:3617   */\n      dup3\n        /* \"#utility.yul\":3508:3624   */\n      tag_104\n      jump\t// in\n    tag_123:\n        /* \"#utility.yul\":3500:3624   */\n      swap5\n      pop\n        /* \"#utility.yul\":3647:3733   */\n      tag_124\n        /* \"#utility.yul\":3726:3732   */\n      dup4\n        /* \"#utility.yul\":3647:3733   */\n      tag_125\n      jump\t// in\n    tag_124:\n        /* \"#utility.yul\":3637:3733   */\n      swap3\n      pop\n        /* \"#utility.yul\":3762:3766   */\n      0x20\n        /* \"#utility.yul\":3757:3760   */\n      dup11\n        /* \"#utility.yul\":3753:3767   */\n      add\n        /* \"#utility.yul\":3746:3767   */\n      swap10\n      pop\n        /* \"#utility.yul\":3393:3777   */\n      pop\n        /* \"#utility.yul\":3380:3381   */\n      0x01\n        /* \"#utility.yul\":3377:3378   */\n      dup2\n        /* \"#utility.yul\":3373:3382   */\n      add\n        /* \"#utility.yul\":3368:3382   */\n      swap1\n      pop\n        /* \"#utility.yul\":3333:3777   */\n      jump(tag_120)\n    tag_122:\n        /* \"#utility.yul\":3337:3351   */\n      pop\n        /* \"#utility.yul\":3793:3797   */\n      dup3\n        /* \"#utility.yul\":3786:3797   */\n      swap8\n      pop\n        /* \"#utility.yul\":3813:3816   */\n      dup8\n        /* \"#utility.yul\":3806:3816   */\n      swap6\n      pop\n        /* \"#utility.yul\":2879:3822   */\n      pop\n      pop\n      pop\n      pop\n      pop\n        /* \"#utility.yul\":2703:3822   */\n      swap3\n      swap2\n      pop\n      pop\n      jump\t// out\n        /* \"#utility.yul\":3904:5003   */\n    tag_126:\n        /* \"#utility.yul\":4065:4068   */\n      0x00\n        /* \"#utility.yul\":4094:4174   */\n      tag_128\n        /* \"#utility.yul\":4168:4173   */\n      dup3\n        /* \"#utility.yul\":4094:4174   */\n      tag_129\n      jump\t// in\n    tag_128:\n        /* \"#utility.yul\":4190:4292   */\n      tag_130\n        /* \"#utility.yul\":4285:4291   */\n      dup2\n        /* \"#utility.yul\":4280:4283   */\n      dup6\n        /* \"#utility.yul\":4190:4292   */\n      tag_131\n      jump\t// in\n    tag_130:\n        /* \"#utility.yul\":4183:4292   */\n      swap4\n      pop\n        /* \"#utility.yul\":4318:4321   */\n      dup4\n        /* \"#utility.yul\":4363:4367   */\n      0x20\n        /* \"#utility.yul\":4355:4361   */\n      dup3\n        /* \"#utility.yul\":4351:4368   */\n      mul\n        /* \"#utility.yul\":4346:4349   */\n      dup6\n        /* \"#utility.yul\":4342:4369   */\n      add\n        /* \"#utility.yul\":4393:4475   */\n      tag_132\n        /* \"#utility.yul\":4469:4474   */\n      dup6\n        /* \"#utility.yul\":4393:4475   */\n      tag_133\n      jump\t// in\n    tag_132:\n        /* \"#utility.yul\":4498:4505   */\n      dup1\n        /* \"#utility.yul\":4529:4530   */\n      0x00\n        /* \"#utility.yul\":4514:4958   */\n    tag_134:\n        /* \"#utility.yul\":4539:4545   */\n      dup6\n        /* \"#utility.yul\":4536:4537   */\n      dup2\n        /* \"#utility.yul\":4533:4546   */\n      lt\n        /* \"#utility.yul\":4514:4958   */\n      iszero\n      tag_136\n      jumpi\n        /* \"#utility.yul\":4610:4619   */\n      dup5\n        /* \"#utility.yul\":4604:4608   */\n      dup5\n        /* \"#utility.yul\":4600:4620   */\n      sub\n        /* \"#utility.yul\":4595:4598   */\n      dup10\n        /* \"#utility.yul\":4588:4621   */\n      mstore\n        /* \"#utility.yul\":4661:4667   */\n      dup2\n        /* \"#utility.yul\":4655:4668   */\n      mload\n        /* \"#utility.yul\":4689:4805   */\n      tag_137\n        /* \"#utility.yul\":4800:4804   */\n      dup6\n        /* \"#utility.yul\":4785:4798   */\n      dup3\n        /* \"#utility.yul\":4689:4805   */\n      tag_108\n      jump\t// in\n    tag_137:\n        /* \"#utility.yul\":4681:4805   */\n      swap5\n      pop\n        /* \"#utility.yul\":4828:4914   */\n      tag_138\n        /* \"#utility.yul\":4907:4913   */\n      dup4\n        /* \"#utility.yul\":4828:4914   */\n      tag_139\n      jump\t// in\n    tag_138:\n        /* \"#utility.yul\":4818:4914   */\n      swap3\n      pop\n        /* \"#utility.yul\":4943:4947   */\n      0x20\n        /* \"#utility.yul\":4938:4941   */\n      dup11\n        /* \"#utility.yul\":4934:4948   */\n      add\n        /* \"#utility.yul\":4927:4948   */\n      swap10\n      pop\n        /* \"#utility.yul\":4574:4958   */\n      pop\n        /* \"#utility.yul\":4561:4562   */\n      0x01\n        /* \"#utility.yul\":4558:4559   */\n      dup2\n        /* \"#utility.yul\":4554:4563   */\n      add\n        /* \"#utility.yul\":4549:4563   */\n      swap1\n      pop\n        /* \"#utility.yul\":4514:4958   */\n      jump(tag_134)\n    tag_136:\n        /* \"#utility.yul\":4518:4532   */\n      pop\n        /* \"#utility.yul\":4974:4978   */\n      dup3\n        /* \"#utility.yul\":4967:4978   */\n      swap8\n      pop\n        /* \"#utility.yul\":4994:4997   */\n      dup8\n        /* \"#utility.yul\":4987:4997   */\n      swap6\n      pop\n        /* \"#utility.yul\":4070:5003   */\n      pop\n      pop\n      pop\n      pop\n      pop\n        /* \"#utility.yul\":3904:5003   */\n      swap3\n      swap2\n      pop\n      pop\n      jump\t// out\n        /* \"#utility.yul\":5085:6204   */\n    tag_140:\n        /* \"#utility.yul\":5256:5259   */\n      0x00\n        /* \"#utility.yul\":5285:5365   */\n      tag_142\n        /* \"#utility.yul\":5359:5364   */\n      dup3\n        /* \"#utility.yul\":5285:5365   */\n      tag_129\n      jump\t// in\n    tag_142:\n        /* \"#utility.yul\":5381:5493   */\n      tag_143\n        /* \"#utility.yul\":5486:5492   */\n      dup2\n        /* \"#utility.yul\":5481:5484   */\n      dup6\n        /* \"#utility.yul\":5381:5493   */\n      tag_144\n      jump\t// in\n    tag_143:\n        /* \"#utility.yul\":5374:5493   */\n      swap4\n      pop\n        /* \"#utility.yul\":5519:5522   */\n      dup4\n        /* \"#utility.yul\":5564:5568   */\n      0x20\n        /* \"#utility.yul\":5556:5562   */\n      dup3\n        /* \"#utility.yul\":5552:5569   */\n      mul\n        /* \"#utility.yul\":5547:5550   */\n      dup6\n        /* \"#utility.yul\":5543:5570   */\n      add\n        /* \"#utility.yul\":5594:5676   */\n      tag_145\n        /* \"#utility.yul\":5670:5675   */\n      dup6\n        /* \"#utility.yul\":5594:5676   */\n      tag_133\n      jump\t// in\n    tag_145:\n        /* \"#utility.yul\":5699:5706   */\n      dup1\n        /* \"#utility.yul\":5730:5731   */\n      0x00\n        /* \"#utility.yul\":5715:6159   */\n    tag_146:\n        /* \"#utility.yul\":5740:5746   */\n      dup6\n        /* \"#utility.yul\":5737:5738   */\n      dup2\n        /* \"#utility.yul\":5734:5747   */\n      lt\n        /* \"#utility.yul\":5715:6159   */\n      iszero\n      tag_148\n      jumpi\n        /* \"#utility.yul\":5811:5820   */\n      dup5\n        /* \"#utility.yul\":5805:5809   */\n      dup5\n        /* \"#utility.yul\":5801:5821   */\n      sub\n        /* \"#utility.yul\":5796:5799   */\n      dup10\n        /* \"#utility.yul\":5789:5822   */\n      mstore\n        /* \"#utility.yul\":5862:5868   */\n      dup2\n        /* \"#utility.yul\":5856:5869   */\n      mload\n        /* \"#utility.yul\":5890:6006   */\n      tag_149\n        /* \"#utility.yul\":6001:6005   */\n      dup6\n        /* \"#utility.yul\":5986:5999   */\n      dup3\n        /* \"#utility.yul\":5890:6006   */\n      tag_108\n      jump\t// in\n    tag_149:\n        /* \"#utility.yul\":5882:6006   */\n      swap5\n      pop\n        /* \"#utility.yul\":6029:6115   */\n      tag_150\n        /* \"#utility.yul\":6108:6114   */\n      dup4\n        /* \"#utility.yul\":6029:6115   */\n      tag_139\n      jump\t// in\n    tag_150:\n        /* \"#utility.yul\":6019:6115   */\n      swap3\n      pop\n        /* \"#utility.yul\":6144:6148   */\n      0x20\n        /* \"#utility.yul\":6139:6142   */\n      dup11\n        /* \"#utility.yul\":6135:6149   */\n      add\n        /* \"#utility.yul\":6128:6149   */\n      swap10\n      pop\n        /* \"#utility.yul\":5775:6159   */\n      pop\n        /* \"#utility.yul\":5762:5763   */\n      0x01\n        /* \"#utility.yul\":5759:5760   */\n      dup2\n        /* \"#utility.yul\":5755:5764   */\n      add\n        /* \"#utility.yul\":5750:5764   */\n      swap1\n      pop\n        /* \"#utility.yul\":5715:6159   */\n      jump(tag_146)\n    tag_148:\n        /* \"#utility.yul\":5719:5733   */\n      pop\n        /* \"#utility.yul\":6175:6179   */\n      dup3\n        /* \"#utility.yul\":6168:6179   */\n      swap8\n      pop\n        /* \"#utility.yul\":6195:6198   */\n      dup8\n        /* \"#utility.yul\":6188:6198   */\n      swap6\n      pop\n        /* \"#utility.yul\":5261:6204   */\n      pop\n      pop\n      pop\n      pop\n      pop\n        /* \"#utility.yul\":5085:6204   */\n      swap3\n      swap2\n      pop\n      pop\n      jump\t// out\n        /* \"#utility.yul\":6210:6312   */\n    tag_151:\n        /* \"#utility.yul\":6283:6305   */\n      tag_153\n        /* \"#utility.yul\":6299:6304   */\n      dup2\n        /* \"#utility.yul\":6283:6305   */\n      tag_154\n      jump\t// in\n    tag_153:\n        /* \"#utility.yul\":6278:6281   */\n      dup3\n        /* \"#utility.yul\":6271:6306   */\n      mstore\n        /* \"#utility.yul\":6210:6312   */\n      pop\n      pop\n      jump\t// out\n        /* \"#utility.yul\":6318:6662   */\n    tag_155:\n        /* \"#utility.yul\":6396:6399   */\n      0x00\n        /* \"#utility.yul\":6424:6463   */\n      tag_157\n        /* \"#utility.yul\":6457:6462   */\n      dup3\n        /* \"#utility.yul\":6424:6463   */\n      tag_158\n      jump\t// in\n    tag_157:\n        /* \"#utility.yul\":6479:6540   */\n      tag_159\n        /* \"#utility.yul\":6533:6539   */\n      dup2\n        /* \"#utility.yul\":6528:6531   */\n      dup6\n        /* \"#utility.yul\":6479:6540   */\n      tag_160\n      jump\t// in\n    tag_159:\n        /* \"#utility.yul\":6472:6540   */\n      swap4\n      pop\n        /* \"#utility.yul\":6549:6601   */\n      tag_161\n        /* \"#utility.yul\":6594:6600   */\n      dup2\n        /* \"#utility.yul\":6589:6592   */\n      dup6\n        /* \"#utility.yul\":6582:6586   */\n      0x20\n        /* \"#utility.yul\":6575:6580   */\n      dup7\n        /* \"#utility.yul\":6571:6587   */\n      add\n        /* \"#utility.yul\":6549:6601   */\n      tag_162\n      jump\t// in\n    tag_161:\n        /* \"#utility.yul\":6626:6655   */\n      tag_163\n        /* \"#utility.yul\":6648:6654   */\n      dup2\n        /* \"#utility.yul\":6626:6655   */\n      tag_164\n      jump\t// in\n    tag_163:\n        /* \"#utility.yul\":6621:6624   */\n      dup5\n        /* \"#utility.yul\":6617:6656   */\n      add\n        /* \"#utility.yul\":6610:6656   */\n      swap2\n      pop\n        /* \"#utility.yul\":6400:6662   */\n      pop\n        /* \"#utility.yul\":6318:6662   */\n      swap3\n      swap2\n      pop\n      pop\n      jump\t// out\n        /* \"#utility.yul\":6738:7664   */\n    tag_107:\n        /* \"#utility.yul\":6849:6852   */\n      0x00\n        /* \"#utility.yul\":6885:6889   */\n      0x60\n        /* \"#utility.yul\":6880:6883   */\n      dup4\n        /* \"#utility.yul\":6876:6890   */\n      add\n        /* \"#utility.yul\":6971:6975   */\n      0x00\n        /* \"#utility.yul\":6964:6969   */\n      dup4\n        /* \"#utility.yul\":6960:6976   */\n      add\n        /* \"#utility.yul\":6954:6977   */\n      mload\n        /* \"#utility.yul\":6990:7053   */\n      tag_166\n        /* \"#utility.yul\":7047:7051   */\n      0x00\n        /* \"#utility.yul\":7042:7045   */\n      dup7\n        /* \"#utility.yul\":7038:7052   */\n      add\n        /* \"#utility.yul\":7024:7036   */\n      dup3\n        /* \"#utility.yul\":6990:7053   */\n      tag_167\n      jump\t// in\n    tag_166:\n        /* \"#utility.yul\":6900:7063   */\n      pop\n        /* \"#utility.yul\":7145:7149   */\n      0x20\n        /* \"#utility.yul\":7138:7143   */\n      dup4\n        /* \"#utility.yul\":7134:7150   */\n      add\n        /* \"#utility.yul\":7128:7151   */\n      mload\n        /* \"#utility.yul\":7198:7201   */\n      dup5\n        /* \"#utility.yul\":7192:7196   */\n      dup3\n        /* \"#utility.yul\":7188:7202   */\n      sub\n        /* \"#utility.yul\":7181:7185   */\n      0x20\n        /* \"#utility.yul\":7176:7179   */\n      dup7\n        /* \"#utility.yul\":7172:7186   */\n      add\n        /* \"#utility.yul\":7165:7203   */\n      mstore\n        /* \"#utility.yul\":7224:7297   */\n      tag_168\n        /* \"#utility.yul\":7292:7296   */\n      dup3\n        /* \"#utility.yul\":7278:7290   */\n      dup3\n        /* \"#utility.yul\":7224:7297   */\n      tag_155\n      jump\t// in\n    tag_168:\n        /* \"#utility.yul\":7216:7297   */\n      swap2\n      pop\n        /* \"#utility.yul\":7073:7308   */\n      pop\n        /* \"#utility.yul\":7392:7396   */\n      0x40\n        /* \"#utility.yul\":7385:7390   */\n      dup4\n        /* \"#utility.yul\":7381:7397   */\n      add\n        /* \"#utility.yul\":7375:7398   */\n      mload\n        /* \"#utility.yul\":7445:7448   */\n      dup5\n        /* \"#utility.yul\":7439:7443   */\n      dup3\n        /* \"#utility.yul\":7435:7449   */\n      sub\n        /* \"#utility.yul\":7428:7432   */\n      0x40\n        /* \"#utility.yul\":7423:7426   */\n      dup7\n        /* \"#utility.yul\":7419:7433   */\n      add\n        /* \"#utility.yul\":7412:7450   */\n      mstore\n        /* \"#utility.yul\":7471:7626   */\n      tag_169\n        /* \"#utility.yul\":7621:7625   */\n      dup3\n        /* \"#utility.yul\":7607:7619   */\n      dup3\n        /* \"#utility.yul\":7471:7626   */\n      tag_126\n      jump\t// in\n    tag_169:\n        /* \"#utility.yul\":7463:7626   */\n      swap2\n      pop\n        /* \"#utility.yul\":7318:7637   */\n      pop\n        /* \"#utility.yul\":7654:7658   */\n      dup1\n        /* \"#utility.yul\":7647:7658   */\n      swap2\n      pop\n        /* \"#utility.yul\":6854:7664   */\n      pop\n        /* \"#utility.yul\":6738:7664   */\n      swap3\n      swap2\n      pop\n      pop\n      jump\t// out\n        /* \"#utility.yul\":7742:8514   */\n    tag_111:\n        /* \"#utility.yul\":7853:7856   */\n      0x00\n        /* \"#utility.yul\":7889:7893   */\n      0x60\n        /* \"#utility.yul\":7884:7887   */\n      dup4\n        /* \"#utility.yul\":7880:7894   */\n      add\n        /* \"#utility.yul\":7975:7979   */\n      0x00\n        /* \"#utility.yul\":7968:7973   */\n      dup4\n        /* \"#utility.yul\":7964:7980   */\n      add\n        /* \"#utility.yul\":7958:7981   */\n      mload\n        /* \"#utility.yul\":7994:8057   */\n      tag_171\n        /* \"#utility.yul\":8051:8055   */\n      0x00\n        /* \"#utility.yul\":8046:8049   */\n      dup7\n        /* \"#utility.yul\":8042:8056   */\n      add\n        /* \"#utility.yul\":8028:8040   */\n      dup3\n        /* \"#utility.yul\":7994:8057   */\n      tag_167\n      jump\t// in\n    tag_171:\n        /* \"#utility.yul\":7904:8067   */\n      pop\n        /* \"#utility.yul\":8153:8157   */\n      0x20\n        /* \"#utility.yul\":8146:8151   */\n      dup4\n        /* \"#utility.yul\":8142:8158   */\n      add\n        /* \"#utility.yul\":8136:8159   */\n      mload\n        /* \"#utility.yul\":8206:8209   */\n      dup5\n        /* \"#utility.yul\":8200:8204   */\n      dup3\n        /* \"#utility.yul\":8196:8210   */\n      sub\n        /* \"#utility.yul\":8189:8193   */\n      0x20\n        /* \"#utility.yul\":8184:8187   */\n      dup7\n        /* \"#utility.yul\":8180:8194   */\n      add\n        /* \"#utility.yul\":8173:8211   */\n      mstore\n        /* \"#utility.yul\":8232:8305   */\n      tag_172\n        /* \"#utility.yul\":8300:8304   */\n      dup3\n        /* \"#utility.yul\":8286:8298   */\n      dup3\n        /* \"#utility.yul\":8232:8305   */\n      tag_155\n      jump\t// in\n    tag_172:\n        /* \"#utility.yul\":8224:8305   */\n      swap2\n      pop\n        /* \"#utility.yul\":8077:8316   */\n      pop\n        /* \"#utility.yul\":8399:8403   */\n      0x40\n        /* \"#utility.yul\":8392:8397   */\n      dup4\n        /* \"#utility.yul\":8388:8404   */\n      add\n        /* \"#utility.yul\":8382:8405   */\n      mload\n        /* \"#utility.yul\":8418:8477   */\n      tag_173\n        /* \"#utility.yul\":8471:8475   */\n      0x40\n        /* \"#utility.yul\":8466:8469   */\n      dup7\n        /* \"#utility.yul\":8462:8476   */\n      add\n        /* \"#utility.yul\":8448:8460   */\n      dup3\n        /* \"#utility.yul\":8418:8477   */\n      tag_151\n      jump\t// in\n    tag_173:\n        /* \"#utility.yul\":8326:8487   */\n      pop\n        /* \"#utility.yul\":8504:8508   */\n      dup1\n        /* \"#utility.yul\":8497:8508   */\n      swap2\n      pop\n        /* \"#utility.yul\":7858:8514   */\n      pop\n        /* \"#utility.yul\":7742:8514   */\n      swap3\n      swap2\n      pop\n      pop\n      jump\t// out\n        /* \"#utility.yul\":8520:8628   */\n    tag_167:\n        /* \"#utility.yul\":8597:8621   */\n      tag_175\n        /* \"#utility.yul\":8615:8620   */\n      dup2\n        /* \"#utility.yul\":8597:8621   */\n      tag_176\n      jump\t// in\n    tag_175:\n        /* \"#utility.yul\":8592:8595   */\n      dup3\n        /* \"#utility.yul\":8585:8622   */\n      mstore\n        /* \"#utility.yul\":8520:8628   */\n      pop\n      pop\n      jump\t// out\n        /* \"#utility.yul\":8634:9111   */\n    tag_18:\n        /* \"#utility.yul\":8829:8833   */\n      0x00\n        /* \"#utility.yul\":8867:8869   */\n      0x20\n        /* \"#utility.yul\":8856:8865   */\n      dup3\n        /* \"#utility.yul\":8852:8870   */\n      add\n        /* \"#utility.yul\":8844:8870   */\n      swap1\n      pop\n        /* \"#utility.yul\":8916:8925   */\n      dup2\n        /* \"#utility.yul\":8910:8914   */\n      dup2\n        /* \"#utility.yul\":8906:8926   */\n      sub\n        /* \"#utility.yul\":8902:8903   */\n      0x00\n        /* \"#utility.yul\":8891:8900   */\n      dup4\n        /* \"#utility.yul\":8887:8904   */\n      add\n        /* \"#utility.yul\":8880:8927   */\n      mstore\n        /* \"#utility.yul\":8944:9104   */\n      tag_178\n        /* \"#utility.yul\":9099:9103   */\n      dup2\n        /* \"#utility.yul\":9090:9096   */\n      dup5\n        /* \"#utility.yul\":8944:9104   */\n      tag_112\n      jump\t// in\n    tag_178:\n        /* \"#utility.yul\":8936:9104   */\n      swap1\n      pop\n        /* \"#utility.yul\":8634:9111   */\n      swap3\n      swap2\n      pop\n      pop\n      jump\t// out\n        /* \"#utility.yul\":9117:9594   */\n    tag_10:\n        /* \"#utility.yul\":9312:9316   */\n      0x00\n        /* \"#utility.yul\":9350:9352   */\n      0x20\n        /* \"#utility.yul\":9339:9348   */\n      dup3\n        /* \"#utility.yul\":9335:9353   */\n      add\n        /* \"#utility.yul\":9327:9353   */\n      swap1\n      pop\n        /* \"#utility.yul\":9399:9408   */\n      dup2\n        /* \"#utility.yul\":9393:9397   */\n      dup2\n        /* \"#utility.yul\":9389:9409   */\n      sub\n        /* \"#utility.yul\":9385:9386   */\n      0x00\n        /* \"#utility.yul\":9374:9383   */\n      dup4\n        /* \"#utility.yul\":9370:9387   */\n      add\n        /* \"#utility.yul\":9363:9410   */\n      mstore\n        /* \"#utility.yul\":9427:9587   */\n      tag_180\n        /* \"#utility.yul\":9582:9586   */\n      dup2\n        /* \"#utility.yul\":9573:9579   */\n      dup5\n        /* \"#utility.yul\":9427:9587   */\n      tag_140\n      jump\t// in\n    tag_180:\n        /* \"#utility.yul\":9419:9587   */\n      swap1\n      pop\n        /* \"#utility.yul\":9117:9594   */\n      swap3\n      swap2\n      pop\n      pop\n      jump\t// out\n        /* \"#utility.yul\":9600:9729   */\n    tag_73:\n        /* \"#utility.yul\":9634:9640   */\n      0x00\n        /* \"#utility.yul\":9661:9681   */\n      tag_182\n      tag_183\n      jump\t// in\n    tag_182:\n        /* \"#utility.yul\":9651:9681   */\n      swap1\n      pop\n        /* \"#utility.yul\":9690:9723   */\n      tag_184\n        /* \"#utility.yul\":9718:9722   */\n      dup3\n        /* \"#utility.yul\":9710:9716   */\n      dup3\n        /* \"#utility.yul\":9690:9723   */\n      tag_185\n      jump\t// in\n    tag_184:\n        /* \"#utility.yul\":9600:9729   */\n      swap2\n      swap1\n      pop\n      jump\t// out\n        /* \"#utility.yul\":9735:9810   */\n    tag_183:\n        /* \"#utility.yul\":9768:9774   */\n      0x00\n        /* \"#utility.yul\":9801:9803   */\n      0x40\n        /* \"#utility.yul\":9795:9804   */\n      mload\n        /* \"#utility.yul\":9785:9804   */\n      swap1\n      pop\n        /* \"#utility.yul\":9735:9810   */\n      swap1\n      jump\t// out\n        /* \"#utility.yul\":9816:10124   */\n    tag_72:\n        /* \"#utility.yul\":9878:9882   */\n      0x00\n        /* \"#utility.yul\":9968:9986   */\n      0xffffffffffffffff\n        /* \"#utility.yul\":9960:9966   */\n      dup3\n        /* \"#utility.yul\":9957:9987   */\n      gt\n        /* \"#utility.yul\":9954:10010   */\n      iszero\n      tag_188\n      jumpi\n        /* \"#utility.yul\":9990:10008   */\n      tag_189\n      tag_190\n      jump\t// in\n    tag_189:\n        /* \"#utility.yul\":9954:10010   */\n    tag_188:\n        /* \"#utility.yul\":10028:10057   */\n      tag_191\n        /* \"#utility.yul\":10050:10056   */\n      dup3\n        /* \"#utility.yul\":10028:10057   */\n      tag_164\n      jump\t// in\n    tag_191:\n        /* \"#utility.yul\":10020:10057   */\n      swap1\n      pop\n        /* \"#utility.yul\":10112:10116   */\n      0x20\n        /* \"#utility.yul\":10106:10110   */\n      dup2\n        /* \"#utility.yul\":10102:10117   */\n      add\n        /* \"#utility.yul\":10094:10117   */\n      swap1\n      pop\n        /* \"#utility.yul\":9816:10124   */\n      swap2\n      swap1\n      pop\n      jump\t// out\n        /* \"#utility.yul\":10130:10288   */\n    tag_119:\n        /* \"#utility.yul\":10223:10227   */\n      0x00\n        /* \"#utility.yul\":10246:10249   */\n      dup2\n        /* \"#utility.yul\":10238:10249   */\n      swap1\n      pop\n        /* \"#utility.yul\":10276:10280   */\n      0x20\n        /* \"#utility.yul\":10271:10274   */\n      dup3\n        /* \"#utility.yul\":10267:10281   */\n      add\n        /* \"#utility.yul\":10259:10281   */\n      swap1\n      pop\n        /* \"#utility.yul\":10130:10288   */\n      swap2\n      swap1\n      pop\n      jump\t// out\n        /* \"#utility.yul\":10294:10452   */\n    tag_133:\n        /* \"#utility.yul\":10387:10391   */\n      0x00\n        /* \"#utility.yul\":10410:10413   */\n      dup2\n        /* \"#utility.yul\":10402:10413   */\n      swap1\n      pop\n        /* \"#utility.yul\":10440:10444   */\n      0x20\n        /* \"#utility.yul\":10435:10438   */\n      dup3\n        /* \"#utility.yul\":10431:10445   */\n      add\n        /* \"#utility.yul\":10423:10445   */\n      swap1\n      pop\n        /* \"#utility.yul\":10294:10452   */\n      swap2\n      swap1\n      pop\n      jump\t// out\n        /* \"#utility.yul\":10458:10598   */\n    tag_115:\n        /* \"#utility.yul\":10551:10557   */\n      0x00\n        /* \"#utility.yul\":10585:10590   */\n      dup2\n        /* \"#utility.yul\":10579:10591   */\n      mload\n        /* \"#utility.yul\":10569:10591   */\n      swap1\n      pop\n        /* \"#utility.yul\":10458:10598   */\n      swap2\n      swap1\n      pop\n      jump\t// out\n        /* \"#utility.yul\":10604:10744   */\n    tag_129:\n        /* \"#utility.yul\":10697:10703   */\n      0x00\n        /* \"#utility.yul\":10731:10736   */\n      dup2\n        /* \"#utility.yul\":10725:10737   */\n      mload\n        /* \"#utility.yul\":10715:10737   */\n      swap1\n      pop\n        /* \"#utility.yul\":10604:10744   */\n      swap2\n      swap1\n      pop\n      jump\t// out\n        /* \"#utility.yul\":10750:10849   */\n    tag_158:\n        /* \"#utility.yul\":10802:10808   */\n      0x00\n        /* \"#utility.yul\":10836:10841   */\n      dup2\n        /* \"#utility.yul\":10830:10842   */\n      mload\n        /* \"#utility.yul\":10820:10842   */\n      swap1\n      pop\n        /* \"#utility.yul\":10750:10849   */\n      swap2\n      swap1\n      pop\n      jump\t// out\n        /* \"#utility.yul\":10855:10994   */\n    tag_125:\n        /* \"#utility.yul\":10951:10955   */\n      0x00\n        /* \"#utility.yul\":10983:10987   */\n      0x20\n        /* \"#utility.yul\":10978:10981   */\n      dup3\n        /* \"#utility.yul\":10974:10988   */\n      add\n        /* \"#utility.yul\":10966:10988   */\n      swap1\n      pop\n        /* \"#utility.yul\":10855:10994   */\n      swap2\n      swap1\n      pop\n      jump\t// out\n        /* \"#utility.yul\":11000:11139   */\n    tag_139:\n        /* \"#utility.yul\":11096:11100   */\n      0x00\n        /* \"#utility.yul\":11128:11132   */\n      0x20\n        /* \"#utility.yul\":11123:11126   */\n      dup3\n        /* \"#utility.yul\":11119:11133   */\n      add\n        /* \"#utility.yul\":11111:11133   */\n      swap1\n      pop\n        /* \"#utility.yul\":11000:11139   */\n      swap2\n      swap1\n      pop\n      jump\t// out\n        /* \"#utility.yul\":11145:11355   */\n    tag_117:\n        /* \"#utility.yul\":11270:11281   */\n      0x00\n        /* \"#utility.yul\":11304:11310   */\n      dup3\n        /* \"#utility.yul\":11299:11302   */\n      dup3\n        /* \"#utility.yul\":11292:11311   */\n      mstore\n        /* \"#utility.yul\":11344:11348   */\n      0x20\n        /* \"#utility.yul\":11339:11342   */\n      dup3\n        /* \"#utility.yul\":11335:11349   */\n      add\n        /* \"#utility.yul\":11320:11349   */\n      swap1\n      pop\n        /* \"#utility.yul\":11145:11355   */\n      swap3\n      swap2\n      pop\n      pop\n      jump\t// out\n        /* \"#utility.yul\":11361:11561   */\n    tag_131:\n        /* \"#utility.yul\":11476:11487   */\n      0x00\n        /* \"#utility.yul\":11510:11516   */\n      dup3\n        /* \"#utility.yul\":11505:11508   */\n      dup3\n        /* \"#utility.yul\":11498:11517   */\n      mstore\n        /* \"#utility.yul\":11550:11554   */\n      0x20\n        /* \"#utility.yul\":11545:11548   */\n      dup3\n        /* \"#utility.yul\":11541:11555   */\n      add\n        /* \"#utility.yul\":11526:11555   */\n      swap1\n      pop\n        /* \"#utility.yul\":11361:11561   */\n      swap3\n      swap2\n      pop\n      pop\n      jump\t// out\n        /* \"#utility.yul\":11567:11777   */\n    tag_144:\n        /* \"#utility.yul\":11692:11703   */\n      0x00\n        /* \"#utility.yul\":11726:11732   */\n      dup3\n        /* \"#utility.yul\":11721:11724   */\n      dup3\n        /* \"#utility.yul\":11714:11733   */\n      mstore\n        /* \"#utility.yul\":11766:11770   */\n      0x20\n        /* \"#utility.yul\":11761:11764   */\n      dup3\n        /* \"#utility.yul\":11757:11771   */\n      add\n        /* \"#utility.yul\":11742:11771   */\n      swap1\n      pop\n        /* \"#utility.yul\":11567:11777   */\n      swap3\n      swap2\n      pop\n      pop\n      jump\t// out\n        /* \"#utility.yul\":11783:11942   */\n    tag_160:\n        /* \"#utility.yul\":11857:11868   */\n      0x00\n        /* \"#utility.yul\":11891:11897   */\n      dup3\n        /* \"#utility.yul\":11886:11889   */\n      dup3\n        /* \"#utility.yul\":11879:11898   */\n      mstore\n        /* \"#utility.yul\":11931:11935   */\n      0x20\n        /* \"#utility.yul\":11926:11929   */\n      dup3\n        /* \"#utility.yul\":11922:11936   */\n      add\n        /* \"#utility.yul\":11907:11936   */\n      swap1\n      pop\n        /* \"#utility.yul\":11783:11942   */\n      swap3\n      swap2\n      pop\n      pop\n      jump\t// out\n        /* \"#utility.yul\":11948:12253   */\n    tag_35:\n        /* \"#utility.yul\":11988:11991   */\n      0x00\n        /* \"#utility.yul\":12007:12027   */\n      tag_204\n        /* \"#utility.yul\":12025:12026   */\n      dup3\n        /* \"#utility.yul\":12007:12027   */\n      tag_176\n      jump\t// in\n    tag_204:\n        /* \"#utility.yul\":12002:12027   */\n      swap2\n      pop\n        /* \"#utility.yul\":12041:12061   */\n      tag_205\n        /* \"#utility.yul\":12059:12060   */\n      dup4\n        /* \"#utility.yul\":12041:12061   */\n      tag_176\n      jump\t// in\n    tag_205:\n        /* \"#utility.yul\":12036:12061   */\n      swap3\n      pop\n        /* \"#utility.yul\":12195:12196   */\n      dup3\n        /* \"#utility.yul\":12127:12193   */\n      0xffffffffffffffffffffffffffffffffffffffffffffffffffffffffffffffff\n        /* \"#utility.yul\":12123:12197   */\n      sub\n        /* \"#utility.yul\":12120:12121   */\n      dup3\n        /* \"#utility.yul\":12117:12198   */\n      gt\n        /* \"#utility.yul\":12114:12221   */\n      iszero\n      tag_206\n      jumpi\n        /* \"#utility.yul\":12201:12219   */\n      tag_207\n      tag_208\n      jump\t// in\n    tag_207:\n        /* \"#utility.yul\":12114:12221   */\n    tag_206:\n        /* \"#utility.yul\":12245:12246   */\n      dup3\n        /* \"#utility.yul\":12242:12243   */\n      dup3\n        /* \"#utility.yul\":12238:12247   */\n      add\n        /* \"#utility.yul\":12231:12247   */\n      swap1\n      pop\n        /* \"#utility.yul\":11948:12253   */\n      swap3\n      swap2\n      pop\n      pop\n      jump\t// out\n        /* \"#utility.yul\":12259:12349   */\n    tag_154:\n        /* \"#utility.yul\":12294:12301   */\n      0x00\n        /* \"#utility.yul\":12337:12342   */\n      dup2\n        /* \"#utility.yul\":12334:12335   */\n      0x01\n        /* \"#utility.yul\":12323:12343   */\n      signextend\n        /* \"#utility.yul\":12312:12343   */\n      swap1\n      pop\n        /* \"#utility.yul\":12259:12349   */\n      swap2\n      swap1\n      pop\n      jump\t// out\n        /* \"#utility.yul\":12355:12432   */\n    tag_176:\n        /* \"#utility.yul\":12392:12399   */\n      0x00\n        /* \"#utility.yul\":12421:12426   */\n      dup2\n        /* \"#utility.yul\":12410:12426   */\n      swap1\n      pop\n        /* \"#utility.yul\":12355:12432   */\n      swap2\n      swap1\n      pop\n      jump\t// out\n        /* \"#utility.yul\":12438:12592   */\n    tag_78:\n        /* \"#utility.yul\":12522:12528   */\n      dup3\n        /* \"#utility.yul\":12517:12520   */\n      dup2\n        /* \"#utility.yul\":12512:12515   */\n      dup4\n        /* \"#utility.yul\":12499:12529   */\n      calldatacopy\n        /* \"#utility.yul\":12584:12585   */\n      0x00\n        /* \"#utility.yul\":12575:12581   */\n      dup4\n        /* \"#utility.yul\":12570:12573   */\n      dup4\n        /* \"#utility.yul\":12566:12582   */\n      add\n        /* \"#utility.yul\":12559:12586   */\n      mstore\n        /* \"#utility.yul\":12438:12592   */\n      pop\n      pop\n      pop\n      jump\t// out\n        /* \"#utility.yul\":12598:12905   */\n    tag_162:\n        /* \"#utility.yul\":12666:12667   */\n      0x00\n        /* \"#utility.yul\":12676:12789   */\n    tag_213:\n        /* \"#utility.yul\":12690:12696   */\n      dup4\n        /* \"#utility.yul\":12687:12688   */\n      dup2\n        /* \"#utility.yul\":12684:12697   */\n      lt\n        /* \"#utility.yul\":12676:12789   */\n      iszero\n      tag_215\n      jumpi\n        /* \"#utility.yul\":12775:12776   */\n      dup1\n        /* \"#utility.yul\":12770:12773   */\n      dup3\n        /* \"#utility.yul\":12766:12777   */\n      add\n        /* \"#utility.yul\":12760:12778   */\n      mload\n        /* \"#utility.yul\":12756:12757   */\n      dup2\n        /* \"#utility.yul\":12751:12754   */\n      dup5\n        /* \"#utility.yul\":12747:12758   */\n      add\n        /* \"#utility.yul\":12740:12779   */\n      mstore\n        /* \"#utility.yul\":12712:12714   */\n      0x20\n        /* \"#utility.yul\":12709:12710   */\n      dup2\n        /* \"#utility.yul\":12705:12715   */\n      add\n        /* \"#utility.yul\":12700:12715   */\n      swap1\n      pop\n        /* \"#utility.yul\":12676:12789   */\n      jump(tag_213)\n    tag_215:\n        /* \"#utility.yul\":12807:12813   */\n      dup4\n        /* \"#utility.yul\":12804:12805   */\n      dup2\n        /* \"#utility.yul\":12801:12814   */\n      gt\n        /* \"#utility.yul\":12798:12899   */\n      iszero\n      tag_216\n      jumpi\n        /* \"#utility.yul\":12887:12888   */\n      0x00\n        /* \"#utility.yul\":12878:12884   */\n      dup5\n        /* \"#utility.yul\":12873:12876   */\n      dup5\n        /* \"#utility.yul\":12869:12885   */\n      add\n        /* \"#utility.yul\":12862:12889   */\n      mstore\n        /* \"#utility.yul\":12798:12899   */\n    tag_216:\n        /* \"#utility.yul\":12647:12905   */\n      pop\n        /* \"#utility.yul\":12598:12905   */\n      pop\n      pop\n      pop\n      jump\t// out\n        /* \"#utility.yul\":12911:13231   */\n    tag_28:\n        /* \"#utility.yul\":12955:12961   */\n      0x00\n        /* \"#utility.yul\":12992:12993   */\n      0x02\n        /* \"#utility.yul\":12986:12990   */\n      dup3\n        /* \"#utility.yul\":12982:12994   */\n      div\n        /* \"#utility.yul\":12972:12994   */\n      swap1\n      pop\n        /* \"#utility.yul\":13039:13040   */\n      0x01\n        /* \"#utility.yul\":13033:13037   */\n      dup3\n        /* \"#utility.yul\":13029:13041   */\n      and\n        /* \"#utility.yul\":13060:13078   */\n      dup1\n        /* \"#utility.yul\":13050:13131   */\n      tag_218\n      jumpi\n        /* \"#utility.yul\":13116:13120   */\n      0x7f\n        /* \"#utility.yul\":13108:13114   */\n      dup3\n        /* \"#utility.yul\":13104:13121   */\n      and\n        /* \"#utility.yul\":13094:13121   */\n      swap2\n      pop\n        /* \"#utility.yul\":13050:13131   */\n    tag_218:\n        /* \"#utility.yul\":13178:13180   */\n      0x20\n        /* \"#utility.yul\":13170:13176   */\n      dup3\n        /* \"#utility.yul\":13167:13181   */\n      lt\n        /* \"#utility.yul\":13147:13165   */\n      dup2\n        /* \"#utility.yul\":13144:13182   */\n      eq\n        /* \"#utility.yul\":13141:13225   */\n      iszero\n      tag_219\n      jumpi\n        /* \"#utility.yul\":13197:13215   */\n      tag_220\n      tag_221\n      jump\t// in\n    tag_220:\n        /* \"#utility.yul\":13141:13225   */\n    tag_219:\n        /* \"#utility.yul\":12962:13231   */\n      pop\n        /* \"#utility.yul\":12911:13231   */\n      swap2\n      swap1\n      pop\n      jump\t// out\n        /* \"#utility.yul\":13237:13518   */\n    tag_185:\n        /* \"#utility.yul\":13320:13347   */\n      tag_223\n        /* \"#utility.yul\":13342:13346   */\n      dup3\n        /* \"#utility.yul\":13320:13347   */\n      tag_164\n      jump\t// in\n    tag_223:\n        /* \"#utility.yul\":13312:13318   */\n      dup2\n        /* \"#utility.yul\":13308:13348   */\n      add\n        /* \"#utility.yul\":13450:13456   */\n      dup2\n        /* \"#utility.yul\":13438:13448   */\n      dup2\n        /* \"#utility.yul\":13435:13457   */\n      lt\n        /* \"#utility.yul\":13414:13432   */\n      0xffffffffffffffff\n        /* \"#utility.yul\":13402:13412   */\n      dup3\n        /* \"#utility.yul\":13399:13433   */\n      gt\n        /* \"#utility.yul\":13396:13458   */\n      or\n        /* \"#utility.yul\":13393:13481   */\n      iszero\n      tag_224\n      jumpi\n        /* \"#utility.yul\":13461:13479   */\n      tag_225\n      tag_190\n      jump\t// in\n    tag_225:\n        /* \"#utility.yul\":13393:13481   */\n    tag_224:\n        /* \"#utility.yul\":13501:13511   */\n      dup1\n        /* \"#utility.yul\":13497:13499   */\n      0x40\n        /* \"#utility.yul\":13490:13512   */\n      mstore\n        /* \"#utility.yul\":13280:13518   */\n      pop\n        /* \"#utility.yul\":13237:13518   */\n      pop\n      pop\n      jump\t// out\n        /* \"#utility.yul\":13524:13704   */\n    tag_208:\n        /* \"#utility.yul\":13572:13649   */\n      0x4e487b7100000000000000000000000000000000000000000000000000000000\n        /* \"#utility.yul\":13569:13570   */\n      0x00\n        /* \"#utility.yul\":13562:13650   */\n      mstore\n        /* \"#utility.yul\":13669:13673   */\n      0x11\n        /* \"#utility.yul\":13666:13667   */\n      0x04\n        /* \"#utility.yul\":13659:13674   */\n      mstore\n        /* \"#utility.yul\":13693:13697   */\n      0x24\n        /* \"#utility.yul\":13690:13691   */\n      0x00\n        /* \"#utility.yul\":13683:13698   */\n      revert\n        /* \"#utility.yul\":13710:13890   */\n    tag_221:\n        /* \"#utility.yul\":13758:13835   */\n      0x4e487b7100000000000000000000000000000000000000000000000000000000\n        /* \"#utility.yul\":13755:13756   */\n      0x00\n        /* \"#utility.yul\":13748:13836   */\n      mstore\n        /* \"#utility.yul\":13855:13859   */\n      0x22\n        /* \"#utility.yul\":13852:13853   */\n      0x04\n        /* \"#utility.yul\":13845:13860   */\n      mstore\n        /* \"#utility.yul\":13879:13883   */\n      0x24\n        /* \"#utility.yul\":13876:13877   */\n      0x00\n        /* \"#utility.yul\":13869:13884   */\n      revert\n        /* \"#utility.yul\":13896:14076   */\n    tag_190:\n        /* \"#utility.yul\":13944:14021   */\n      0x4e487b7100000000000000000000000000000000000000000000000000000000\n        /* \"#utility.yul\":13941:13942   */\n      0x00\n        /* \"#utility.yul\":13934:14022   */\n      mstore\n        /* \"#utility.yul\":14041:14045   */\n      0x41\n        /* \"#utility.yul\":14038:14039   */\n      0x04\n        /* \"#utility.yul\":14031:14046   */\n      mstore\n        /* \"#utility.yul\":14065:14069   */\n      0x24\n        /* \"#utility.yul\":14062:14063   */\n      0x00\n        /* \"#utility.yul\":14055:14070   */\n      revert\n        /* \"#utility.yul\":14082:14199   */\n    tag_87:\n        /* \"#utility.yul\":14191:14192   */\n      0x00\n        /* \"#utility.yul\":14188:14189   */\n      dup1\n        /* \"#utility.yul\":14181:14193   */\n      revert\n        /* \"#utility.yul\":14205:14322   */\n    tag_76:\n        /* \"#utility.yul\":14314:14315   */\n      0x00\n        /* \"#utility.yul\":14311:14312   */\n      dup1\n        /* \"#utility.yul\":14304:14316   */\n      revert\n        /* \"#utility.yul\":14328:14445   */\n    tag_95:\n        /* \"#utility.yul\":14437:14438   */\n      0x00\n        /* \"#utility.yul\":14434:14435   */\n      dup1\n        /* \"#utility.yul\":14427:14439   */\n      revert\n        /* \"#utility.yul\":14451:14568   */\n    tag_92:\n        /* \"#utility.yul\":14560:14561   */\n      0x00\n        /* \"#utility.yul\":14557:14558   */\n      dup1\n        /* \"#utility.yul\":14550:14562   */\n      revert\n        /* \"#utility.yul\":14574:14676   */\n    tag_164:\n        /* \"#utility.yul\":14615:14621   */\n      0x00\n        /* \"#utility.yul\":14666:14668   */\n      0x1f\n        /* \"#utility.yul\":14662:14669   */\n      not\n        /* \"#utility.yul\":14657:14659   */\n      0x1f\n        /* \"#utility.yul\":14650:14655   */\n      dup4\n        /* \"#utility.yul\":14646:14660   */\n      add\n        /* \"#utility.yul\":14642:14670   */\n      and\n        /* \"#utility.yul\":14632:14670   */\n      swap1\n      pop\n        /* \"#utility.yul\":14574:14676   */\n      swap2\n      swap1\n      pop\n      jump\t// out\n        /* \"#utility.yul\":14682:14800   */\n    tag_82:\n        /* \"#utility.yul\":14753:14775   */\n      tag_235\n        /* \"#utility.yul\":14769:14774   */\n      dup2\n        /* \"#utility.yul\":14753:14775   */\n      tag_154\n      jump\t// in\n    tag_235:\n        /* \"#utility.yul\":14746:14751   */\n      dup2\n        /* \"#utility.yul\":14743:14776   */\n      eq\n        /* \"#utility.yul\":14733:14794   */\n      tag_236\n      jumpi\n        /* \"#utility.yul\":14790:14791   */\n      0x00\n        /* \"#utility.yul\":14787:14788   */\n      dup1\n        /* \"#utility.yul\":14780:14792   */\n      revert\n        /* \"#utility.yul\":14733:14794   */\n    tag_236:\n        /* \"#utility.yul\":14682:14800   */\n      pop\n      jump\t// out\n\n    auxdata: 0xa2646970667358221220210ef08004e785d2fd4d2f695e011a91978086878bf09c9e891c6f9f081207a564736f6c63430008070033\n}\n",
				"bytecode": {
					"linkReferences": {},
					"object": "608060405234801561001057600080fd5b50610c48806100206000396000f3fe608060405234801561001057600080fd5b506004361061004c5760003560e01c806302ee3a521461005157806351401eef1461006f578063e4d7a3d41461008b578063e88e9f0f146100a9575b600080fd5b6100596100c5565b6040516100669190610920565b60405180910390f35b6100896004803603810190610084919061061d565b6101dd565b005b610093610296565b6040516100a091906108fe565b60405180910390f35b6100c360048036038101906100be91906105d4565b6104a9565b005b60606000805480602002602001604051908101604052809291908181526020016000905b828210156101d457838290600052602060002090600302016040518060600160405290816000820154815260200160018201805461012690610ae6565b80601f016020809104026020016040519081016040528092919081815260200182805461015290610ae6565b801561019f5780601f106101745761010080835404028352916020019161019f565b820191906000526020600020905b81548152906001019060200180831161018257829003601f168201915b505050505081526020016002820160009054906101000a900460010b60010b60010b81525050815260200190600101906100e9565b50505050905090565b600060016000805490506101f19190610a37565b9050600060405180606001604052808381526020018581526020018460010b815250905060008190806001815401808255809150506001900390600052602060002090600302016000909190919091506000820151816000015560208201518160010190805190602001906102679291906104ac565b5060408201518160020160006101000a81548161ffff021916908360010b61ffff160217905550505050505050565b60606001805480602002602001604051908101604052809291908181526020016000905b828210156104a05783829060005260206000209060030201604051806060016040529081600082015481526020016001820180546102f790610ae6565b80601f016020809104026020016040519081016040528092919081815260200182805461032390610ae6565b80156103705780601f1061034557610100808354040283529160200191610370565b820191906000526020600020905b81548152906001019060200180831161035357829003601f168201915b5050505050815260200160028201805480602002602001604051908101604052809291908181526020016000905b828210156104895783829060005260206000209060030201604051806060016040529081600082015481526020016001820180546103db90610ae6565b80601f016020809104026020016040519081016040528092919081815260200182805461040790610ae6565b80156104545780601f1061042957610100808354040283529160200191610454565b820191906000526020600020905b81548152906001019060200180831161043757829003601f168201915b505050505081526020016002820160009054906101000a900460010b60010b60010b815250508152602001906001019061039e565b5050505081525050815260200190600101906102ba565b50505050905090565b50565b8280546104b890610ae6565b90600052602060002090601f0160209004810192826104da5760008555610521565b82601f106104f357805160ff1916838001178555610521565b82800160010185558215610521579182015b82811115610520578251825591602001919060010190610505565b5b50905061052e9190610532565b5090565b5b8082111561054b576000816000905550600101610533565b5090565b600061056261055d84610967565b610942565b90508281526020810184848401111561057e5761057d610bdb565b5b610589848285610aa4565b509392505050565b6000813590506105a081610bfb565b92915050565b600082601f8301126105bb576105ba610bd6565b5b81356105cb84826020860161054f565b91505092915050565b6000602082840312156105ea576105e9610be5565b5b600082013567ffffffffffffffff81111561060857610607610be0565b5b610614848285016105a6565b91505092915050565b6000806040838503121561063457610633610be5565b5b600083013567ffffffffffffffff81111561065257610651610be0565b5b61065e858286016105a6565b925050602061066f85828601610591565b9150509250929050565b60006106858383610848565b905092915050565b6000610699838361089f565b905092915050565b60006106ac826109b8565b6106b681856109f3565b9350836020820285016106c885610998565b8060005b8581101561070457848403895281516106e58582610679565b94506106f0836109d9565b925060208a019950506001810190506106cc565b50829750879550505050505092915050565b6000610721826109c3565b61072b8185610a04565b93508360208202850161073d856109a8565b8060005b85811015610779578484038952815161075a858261068d565b9450610765836109e6565b925060208a01995050600181019050610741565b50829750879550505050505092915050565b6000610796826109c3565b6107a08185610a15565b9350836020820285016107b2856109a8565b8060005b858110156107ee57848403895281516107cf858261068d565b94506107da836109e6565b925060208a019950506001810190506107b6565b50829750879550505050505092915050565b61080981610a8d565b82525050565b600061081a826109ce565b6108248185610a26565b9350610834818560208601610ab3565b61083d81610bea565b840191505092915050565b600060608301600083015161086060008601826108ef565b5060208301518482036020860152610878828261080f565b915050604083015184820360408601526108928282610716565b9150508091505092915050565b60006060830160008301516108b760008601826108ef565b50602083015184820360208601526108cf828261080f565b91505060408301516108e46040860182610800565b508091505092915050565b6108f881610a9a565b82525050565b6000602082019050818103600083015261091881846106a1565b905092915050565b6000602082019050818103600083015261093a818461078b565b905092915050565b600061094c61095d565b90506109588282610b18565b919050565b6000604051905090565b600067ffffffffffffffff82111561098257610981610ba7565b5b61098b82610bea565b9050602081019050919050565b6000819050602082019050919050565b6000819050602082019050919050565b600081519050919050565b600081519050919050565b600081519050919050565b6000602082019050919050565b6000602082019050919050565b600082825260208201905092915050565b600082825260208201905092915050565b600082825260208201905092915050565b600082825260208201905092915050565b6000610a4282610a9a565b9150610a4d83610a9a565b9250827fffffffffffffffffffffffffffffffffffffffffffffffffffffffffffffffff03821115610a8257610a81610b49565b5b828201905092915050565b60008160010b9050919050565b6000819050919050565b82818337600083830152505050565b60005b83811015610ad1578082015181840152602081019050610ab6565b83811115610ae0576000848401525b50505050565b60006002820490506001821680610afe57607f821691505b60208210811415610b1257610b11610b78565b5b50919050565b610b2182610bea565b810181811067ffffffffffffffff82111715610b4057610b3f610ba7565b5b80604052505050565b7f4e487b7100000000000000000000000000000000000000000000000000000000600052601160045260246000fd5b7f4e487b7100000000000000000000000000000000000000000000000000000000600052602260045260246000fd5b7f4e487b7100000000000000000000000000000000000000000000000000000000600052604160045260246000fd5b600080fd5b600080fd5b600080fd5b600080fd5b6000601f19601f8301169050919050565b610c0481610a8d565b8114610c0f57600080fd5b5056fea2646970667358221220210ef08004e785d2fd4d2f695e011a91978086878bf09c9e891c6f9f081207a564736f6c63430008070033",
					"opcodes": "PUSH1 0x80 PUSH1 0x40 MSTORE CALLVALUE DUP1 ISZERO PUSH2 0x10 JUMPI PUSH1 0x0 DUP1 REVERT JUMPDEST POP PUSH2 0xC48 DUP1 PUSH2 0x20 PUSH1 0x0 CODECOPY PUSH1 0x0 RETURN INVALID PUSH1 0x80 PUSH1 0x40 MSTORE CALLVALUE DUP1 ISZERO PUSH2 0x10 JUMPI PUSH1 0x0 DUP1 REVERT JUMPDEST POP PUSH1 0x4 CALLDATASIZE LT PUSH2 0x4C JUMPI PUSH1 0x0 CALLDATALOAD PUSH1 0xE0 SHR DUP1 PUSH4 0x2EE3A52 EQ PUSH2 0x51 JUMPI DUP1 PUSH4 0x51401EEF EQ PUSH2 0x6F JUMPI DUP1 PUSH4 0xE4D7A3D4 EQ PUSH2 0x8B JUMPI DUP1 PUSH4 0xE88E9F0F EQ PUSH2 0xA9 JUMPI JUMPDEST PUSH1 0x0 DUP1 REVERT JUMPDEST PUSH2 0x59 PUSH2 0xC5 JUMP JUMPDEST PUSH1 0x40 MLOAD PUSH2 0x66 SWAP2 SWAP1 PUSH2 0x920 JUMP JUMPDEST PUSH1 0x40 MLOAD DUP1 SWAP2 SUB SWAP1 RETURN JUMPDEST PUSH2 0x89 PUSH1 0x4 DUP1 CALLDATASIZE SUB DUP2 ADD SWAP1 PUSH2 0x84 SWAP2 SWAP1 PUSH2 0x61D JUMP JUMPDEST PUSH2 0x1DD JUMP JUMPDEST STOP JUMPDEST PUSH2 0x93 PUSH2 0x296 JUMP JUMPDEST PUSH1 0x40 MLOAD PUSH2 0xA0 SWAP2 SWAP1 PUSH2 0x8FE JUMP JUMPDEST PUSH1 0x40 MLOAD DUP1 SWAP2 SUB SWAP1 RETURN JUMPDEST PUSH2 0xC3 PUSH1 0x4 DUP1 CALLDATASIZE SUB DUP2 ADD SWAP1 PUSH2 0xBE SWAP2 SWAP1 PUSH2 0x5D4 JUMP JUMPDEST PUSH2 0x4A9 JUMP JUMPDEST STOP JUMPDEST PUSH1 0x60 PUSH1 0x0 DUP1 SLOAD DUP1 PUSH1 0x20 MUL PUSH1 0x20 ADD PUSH1 0x40 MLOAD SWAP1 DUP2 ADD PUSH1 0x40 MSTORE DUP1 SWAP3 SWAP2 SWAP1 DUP2 DUP2 MSTORE PUSH1 0x20 ADD PUSH1 0x0 SWAP1 JUMPDEST DUP3 DUP3 LT ISZERO PUSH2 0x1D4 JUMPI DUP4 DUP3 SWAP1 PUSH1 0x0 MSTORE PUSH1 0x20 PUSH1 0x0 KECCAK256 SWAP1 PUSH1 0x3 MUL ADD PUSH1 0x40 MLOAD DUP1 PUSH1 0x60 ADD PUSH1 0x40 MSTORE SWAP1 DUP2 PUSH1 0x0 DUP3 ADD SLOAD DUP2 MSTORE PUSH1 0x20 ADD PUSH1 0x1 DUP3 ADD DUP1 SLOAD PUSH2 0x126 SWAP1 PUSH2 0xAE6 JUMP JUMPDEST DUP1 PUSH1 0x1F ADD PUSH1 0x20 DUP1 SWAP2 DIV MUL PUSH1 0x20 ADD PUSH1 0x40 MLOAD SWAP1 DUP2 ADD PUSH1 0x40 MSTORE DUP1 SWAP3 SWAP2 SWAP1 DUP2 DUP2 MSTORE PUSH1 0x20 ADD DUP3 DUP1 SLOAD PUSH2 0x152 SWAP1 PUSH2 0xAE6 JUMP JUMPDEST DUP1 ISZERO PUSH2 0x19F JUMPI DUP1 PUSH1 0x1F LT PUSH2 0x174 JUMPI PUSH2 0x100 DUP1 DUP4 SLOAD DIV MUL DUP4 MSTORE SWAP2 PUSH1 0x20 ADD SWAP2 PUSH2 0x19F JUMP JUMPDEST DUP3 ADD SWAP2 SWAP1 PUSH1 0x0 MSTORE PUSH1 0x20 PUSH1 0x0 KECCAK256 SWAP1 JUMPDEST DUP2 SLOAD DUP2 MSTORE SWAP1 PUSH1 0x1 ADD SWAP1 PUSH1 0x20 ADD DUP1 DUP4 GT PUSH2 0x182 JUMPI DUP3 SWAP1 SUB PUSH1 0x1F AND DUP3 ADD SWAP2 JUMPDEST POP POP POP POP POP DUP2 MSTORE PUSH1 0x20 ADD PUSH1 0x2 DUP3 ADD PUSH1 0x0 SWAP1 SLOAD SWAP1 PUSH2 0x100 EXP SWAP1 DIV PUSH1 0x1 SIGNEXTEND PUSH1 0x1 SIGNEXTEND PUSH1 0x1 SIGNEXTEND DUP2 MSTORE POP POP DUP2 MSTORE PUSH1 0x20 ADD SWAP1 PUSH1 0x1 ADD SWAP1 PUSH2 0xE9 JUMP JUMPDEST POP POP POP POP SWAP1 POP SWAP1 JUMP JUMPDEST PUSH1 0x0 PUSH1 0x1 PUSH1 0x0 DUP1 SLOAD SWAP1 POP PUSH2 0x1F1 SWAP2 SWAP1 PUSH2 0xA37 JUMP JUMPDEST SWAP1 POP PUSH1 0x0 PUSH1 0x40 MLOAD DUP1 PUSH1 0x60 ADD PUSH1 0x40 MSTORE DUP1 DUP4 DUP2 MSTORE PUSH1 0x20 ADD DUP6 DUP2 MSTORE PUSH1 0x20 ADD DUP5 PUSH1 0x1 SIGNEXTEND DUP2 MSTORE POP SWAP1 POP PUSH1 0x0 DUP2 SWAP1 DUP1 PUSH1 0x1 DUP2 SLOAD ADD DUP1 DUP3 SSTORE DUP1 SWAP2 POP POP PUSH1 0x1 SWAP1 SUB SWAP1 PUSH1 0x0 MSTORE PUSH1 0x20 PUSH1 0x0 KECCAK256 SWAP1 PUSH1 0x3 MUL ADD PUSH1 0x0 SWAP1 SWAP2 SWAP1 SWAP2 SWAP1 SWAP2 POP PUSH1 0x0 DUP3 ADD MLOAD DUP2 PUSH1 0x0 ADD SSTORE PUSH1 0x20 DUP3 ADD MLOAD DUP2 PUSH1 0x1 ADD SWAP1 DUP1 MLOAD SWAP1 PUSH1 0x20 ADD SWAP1 PUSH2 0x267 SWAP3 SWAP2 SWAP1 PUSH2 0x4AC JUMP JUMPDEST POP PUSH1 0x40 DUP3 ADD MLOAD DUP2 PUSH1 0x2 ADD PUSH1 0x0 PUSH2 0x100 EXP DUP2 SLOAD DUP2 PUSH2 0xFFFF MUL NOT AND SWAP1 DUP4 PUSH1 0x1 SIGNEXTEND PUSH2 0xFFFF AND MUL OR SWAP1 SSTORE POP POP POP POP POP POP POP JUMP JUMPDEST PUSH1 0x60 PUSH1 0x1 DUP1 SLOAD DUP1 PUSH1 0x20 MUL PUSH1 0x20 ADD PUSH1 0x40 MLOAD SWAP1 DUP2 ADD PUSH1 0x40 MSTORE DUP1 SWAP3 SWAP2 SWAP1 DUP2 DUP2 MSTORE PUSH1 0x20 ADD PUSH1 0x0 SWAP1 JUMPDEST DUP3 DUP3 LT ISZERO PUSH2 0x4A0 JUMPI DUP4 DUP3 SWAP1 PUSH1 0x0 MSTORE PUSH1 0x20 PUSH1 0x0 KECCAK256 SWAP1 PUSH1 0x3 MUL ADD PUSH1 0x40 MLOAD DUP1 PUSH1 0x60 ADD PUSH1 0x40 MSTORE SWAP1 DUP2 PUSH1 0x0 DUP3 ADD SLOAD DUP2 MSTORE PUSH1 0x20 ADD PUSH1 0x1 DUP3 ADD DUP1 SLOAD PUSH2 0x2F7 SWAP1 PUSH2 0xAE6 JUMP JUMPDEST DUP1 PUSH1 0x1F ADD PUSH1 0x20 DUP1 SWAP2 DIV MUL PUSH1 0x20 ADD PUSH1 0x40 MLOAD SWAP1 DUP2 ADD PUSH1 0x40 MSTORE DUP1 SWAP3 SWAP2 SWAP1 DUP2 DUP2 MSTORE PUSH1 0x20 ADD DUP3 DUP1 SLOAD PUSH2 0x323 SWAP1 PUSH2 0xAE6 JUMP JUMPDEST DUP1 ISZERO PUSH2 0x370 JUMPI DUP1 PUSH1 0x1F LT PUSH2 0x345 JUMPI PUSH2 0x100 DUP1 DUP4 SLOAD DIV MUL DUP4 MSTORE SWAP2 PUSH1 0x20 ADD SWAP2 PUSH2 0x370 JUMP JUMPDEST DUP3 ADD SWAP2 SWAP1 PUSH1 0x0 MSTORE PUSH1 0x20 PUSH1 0x0 KECCAK256 SWAP1 JUMPDEST DUP2 SLOAD DUP2 MSTORE SWAP1 PUSH1 0x1 ADD SWAP1 PUSH1 0x20 ADD DUP1 DUP4 GT PUSH2 0x353 JUMPI DUP3 SWAP1 SUB PUSH1 0x1F AND DUP3 ADD SWAP2 JUMPDEST POP POP POP POP POP DUP2 MSTORE PUSH1 0x20 ADD PUSH1 0x2 DUP3 ADD DUP1 SLOAD DUP1 PUSH1 0x20 MUL PUSH1 0x20 ADD PUSH1 0x40 MLOAD SWAP1 DUP2 ADD PUSH1 0x40 MSTORE DUP1 SWAP3 SWAP2 SWAP1 DUP2 DUP2 MSTORE PUSH1 0x20 ADD PUSH1 0x0 SWAP1 JUMPDEST DUP3 DUP3 LT ISZERO PUSH2 0x489 JUMPI DUP4 DUP3 SWAP1 PUSH1 0x0 MSTORE PUSH1 0x20 PUSH1 0x0 KECCAK256 SWAP1 PUSH1 0x3 MUL ADD PUSH1 0x40 MLOAD DUP1 PUSH1 0x60 ADD PUSH1 0x40 MSTORE SWAP1 DUP2 PUSH1 0x0 DUP3 ADD SLOAD DUP2 MSTORE PUSH1 0x20 ADD PUSH1 0x1 DUP3 ADD DUP1 SLOAD PUSH2 0x3DB SWAP1 PUSH2 0xAE6 JUMP JUMPDEST DUP1 PUSH1 0x1F ADD PUSH1 0x20 DUP1 SWAP2 DIV MUL PUSH1 0x20 ADD PUSH1 0x40 MLOAD SWAP1 DUP2 ADD PUSH1 0x40 MSTORE DUP1 SWAP3 SWAP2 SWAP1 DUP2 DUP2 MSTORE PUSH1 0x20 ADD DUP3 DUP1 SLOAD PUSH2 0x407 SWAP1 PUSH2 0xAE6 JUMP JUMPDEST DUP1 ISZERO PUSH2 0x454 JUMPI DUP1 PUSH1 0x1F LT PUSH2 0x429 JUMPI PUSH2 0x100 DUP1 DUP4 SLOAD DIV MUL DUP4 MSTORE SWAP2 PUSH1 0x20 ADD SWAP2 PUSH2 0x454 JUMP JUMPDEST DUP3 ADD SWAP2 SWAP1 PUSH1 0x0 MSTORE PUSH1 0x20 PUSH1 0x0 KECCAK256 SWAP1 JUMPDEST DUP2 SLOAD DUP2 MSTORE SWAP1 PUSH1 0x1 ADD SWAP1 PUSH1 0x20 ADD DUP1 DUP4 GT PUSH2 0x437 JUMPI DUP3 SWAP1 SUB PUSH1 0x1F AND DUP3 ADD SWAP2 JUMPDEST POP POP POP POP POP DUP2 MSTORE PUSH1 0x20 ADD PUSH1 0x2 DUP3 ADD PUSH1 0x0 SWAP1 SLOAD SWAP1 PUSH2 0x100 EXP SWAP1 DIV PUSH1 0x1 SIGNEXTEND PUSH1 0x1 SIGNEXTEND PUSH1 0x1 SIGNEXTEND DUP2 MSTORE POP POP DUP2 MSTORE PUSH1 0x20 ADD SWAP1 PUSH1 0x1 ADD SWAP1 PUSH2 0x39E JUMP JUMPDEST POP POP POP POP DUP2 MSTORE POP POP DUP2 MSTORE PUSH1 0x20 ADD SWAP1 PUSH1 0x1 ADD SWAP1 PUSH2 0x2BA JUMP JUMPDEST POP POP POP POP SWAP1 POP SWAP1 JUMP JUMPDEST POP JUMP JUMPDEST DUP3 DUP1 SLOAD PUSH2 0x4B8 SWAP1 PUSH2 0xAE6 JUMP JUMPDEST SWAP1 PUSH1 0x0 MSTORE PUSH1 0x20 PUSH1 0x0 KECCAK256 SWAP1 PUSH1 0x1F ADD PUSH1 0x20 SWAP1 DIV DUP2 ADD SWAP3 DUP3 PUSH2 0x4DA JUMPI PUSH1 0x0 DUP6 SSTORE PUSH2 0x521 JUMP JUMPDEST DUP3 PUSH1 0x1F LT PUSH2 0x4F3 JUMPI DUP1 MLOAD PUSH1 0xFF NOT AND DUP4 DUP1 ADD OR DUP6 SSTORE PUSH2 0x521 JUMP JUMPDEST DUP3 DUP1 ADD PUSH1 0x1 ADD DUP6 SSTORE DUP3 ISZERO PUSH2 0x521 JUMPI SWAP2 DUP3 ADD JUMPDEST DUP3 DUP2 GT ISZERO PUSH2 0x520 JUMPI DUP3 MLOAD DUP3 SSTORE SWAP2 PUSH1 0x20 ADD SWAP2 SWAP1 PUSH1 0x1 ADD SWAP1 PUSH2 0x505 JUMP JUMPDEST JUMPDEST POP SWAP1 POP PUSH2 0x52E SWAP2 SWAP1 PUSH2 0x532 JUMP JUMPDEST POP SWAP1 JUMP JUMPDEST JUMPDEST DUP1 DUP3 GT ISZERO PUSH2 0x54B JUMPI PUSH1 0x0 DUP2 PUSH1 0x0 SWAP1 SSTORE POP PUSH1 0x1 ADD PUSH2 0x533 JUMP JUMPDEST POP SWAP1 JUMP JUMPDEST PUSH1 0x0 PUSH2 0x562 PUSH2 0x55D DUP5 PUSH2 0x967 JUMP JUMPDEST PUSH2 0x942 JUMP JUMPDEST SWAP1 POP DUP3 DUP2 MSTORE PUSH1 0x20 DUP2 ADD DUP5 DUP5 DUP5 ADD GT ISZERO PUSH2 0x57E JUMPI PUSH2 0x57D PUSH2 0xBDB JUMP JUMPDEST JUMPDEST PUSH2 0x589 DUP5 DUP3 DUP6 PUSH2 0xAA4 JUMP JUMPDEST POP SWAP4 SWAP3 POP POP POP JUMP JUMPDEST PUSH1 0x0 DUP2 CALLDATALOAD SWAP1 POP PUSH2 0x5A0 DUP2 PUSH2 0xBFB JUMP JUMPDEST SWAP3 SWAP2 POP POP JUMP JUMPDEST PUSH1 0x0 DUP3 PUSH1 0x1F DUP4 ADD SLT PUSH2 0x5BB JUMPI PUSH2 0x5BA PUSH2 0xBD6 JUMP JUMPDEST JUMPDEST DUP2 CALLDATALOAD PUSH2 0x5CB DUP5 DUP3 PUSH1 0x20 DUP7 ADD PUSH2 0x54F JUMP JUMPDEST SWAP2 POP POP SWAP3 SWAP2 POP POP JUMP JUMPDEST PUSH1 0x0 PUSH1 0x20 DUP3 DUP5 SUB SLT ISZERO PUSH2 0x5EA JUMPI PUSH2 0x5E9 PUSH2 0xBE5 JUMP JUMPDEST JUMPDEST PUSH1 0x0 DUP3 ADD CALLDATALOAD PUSH8 0xFFFFFFFFFFFFFFFF DUP2 GT ISZERO PUSH2 0x608 JUMPI PUSH2 0x607 PUSH2 0xBE0 JUMP JUMPDEST JUMPDEST PUSH2 0x614 DUP5 DUP3 DUP6 ADD PUSH2 0x5A6 JUMP JUMPDEST SWAP2 POP POP SWAP3 SWAP2 POP POP JUMP JUMPDEST PUSH1 0x0 DUP1 PUSH1 0x40 DUP4 DUP6 SUB SLT ISZERO PUSH2 0x634 JUMPI PUSH2 0x633 PUSH2 0xBE5 JUMP JUMPDEST JUMPDEST PUSH1 0x0 DUP4 ADD CALLDATALOAD PUSH8 0xFFFFFFFFFFFFFFFF DUP2 GT ISZERO PUSH2 0x652 JUMPI PUSH2 0x651 PUSH2 0xBE0 JUMP JUMPDEST JUMPDEST PUSH2 0x65E DUP6 DUP3 DUP7 ADD PUSH2 0x5A6 JUMP JUMPDEST SWAP3 POP POP PUSH1 0x20 PUSH2 0x66F DUP6 DUP3 DUP7 ADD PUSH2 0x591 JUMP JUMPDEST SWAP2 POP POP SWAP3 POP SWAP3 SWAP1 POP JUMP JUMPDEST PUSH1 0x0 PUSH2 0x685 DUP4 DUP4 PUSH2 0x848 JUMP JUMPDEST SWAP1 POP SWAP3 SWAP2 POP POP JUMP JUMPDEST PUSH1 0x0 PUSH2 0x699 DUP4 DUP4 PUSH2 0x89F JUMP JUMPDEST SWAP1 POP SWAP3 SWAP2 POP POP JUMP JUMPDEST PUSH1 0x0 PUSH2 0x6AC DUP3 PUSH2 0x9B8 JUMP JUMPDEST PUSH2 0x6B6 DUP2 DUP6 PUSH2 0x9F3 JUMP JUMPDEST SWAP4 POP DUP4 PUSH1 0x20 DUP3 MUL DUP6 ADD PUSH2 0x6C8 DUP6 PUSH2 0x998 JUMP JUMPDEST DUP1 PUSH1 0x0 JUMPDEST DUP6 DUP2 LT ISZERO PUSH2 0x704 JUMPI DUP5 DUP5 SUB DUP10 MSTORE DUP2 MLOAD PUSH2 0x6E5 DUP6 DUP3 PUSH2 0x679 JUMP JUMPDEST SWAP5 POP PUSH2 0x6F0 DUP4 PUSH2 0x9D9 JUMP JUMPDEST SWAP3 POP PUSH1 0x20 DUP11 ADD SWAP10 POP POP PUSH1 0x1 DUP2 ADD SWAP1 POP PUSH2 0x6CC JUMP JUMPDEST POP DUP3 SWAP8 POP DUP8 SWAP6 POP POP POP POP POP POP SWAP3 SWAP2 POP POP JUMP JUMPDEST PUSH1 0x0 PUSH2 0x721 DUP3 PUSH2 0x9C3 JUMP JUMPDEST PUSH2 0x72B DUP2 DUP6 PUSH2 0xA04 JUMP JUMPDEST SWAP4 POP DUP4 PUSH1 0x20 DUP3 MUL DUP6 ADD PUSH2 0x73D DUP6 PUSH2 0x9A8 JUMP JUMPDEST DUP1 PUSH1 0x0 JUMPDEST DUP6 DUP2 LT ISZERO PUSH2 0x779 JUMPI DUP5 DUP5 SUB DUP10 MSTORE DUP2 MLOAD PUSH2 0x75A DUP6 DUP3 PUSH2 0x68D JUMP JUMPDEST SWAP5 POP PUSH2 0x765 DUP4 PUSH2 0x9E6 JUMP JUMPDEST SWAP3 POP PUSH1 0x20 DUP11 ADD SWAP10 POP POP PUSH1 0x1 DUP2 ADD SWAP1 POP PUSH2 0x741 JUMP JUMPDEST POP DUP3 SWAP8 POP DUP8 SWAP6 POP POP POP POP POP POP SWAP3 SWAP2 POP POP JUMP JUMPDEST PUSH1 0x0 PUSH2 0x796 DUP3 PUSH2 0x9C3 JUMP JUMPDEST PUSH2 0x7A0 DUP2 DUP6 PUSH2 0xA15 JUMP JUMPDEST SWAP4 POP DUP4 PUSH1 0x20 DUP3 MUL DUP6 ADD PUSH2 0x7B2 DUP6 PUSH2 0x9A8 JUMP JUMPDEST DUP1 PUSH1 0x0 JUMPDEST DUP6 DUP2 LT ISZERO PUSH2 0x7EE JUMPI DUP5 DUP5 SUB DUP10 MSTORE DUP2 MLOAD PUSH2 0x7CF DUP6 DUP3 PUSH2 0x68D JUMP JUMPDEST SWAP5 POP PUSH2 0x7DA DUP4 PUSH2 0x9E6 JUMP JUMPDEST SWAP3 POP PUSH1 0x20 DUP11 ADD SWAP10 POP POP PUSH1 0x1 DUP2 ADD SWAP1 POP PUSH2 0x7B6 JUMP JUMPDEST POP DUP3 SWAP8 POP DUP8 SWAP6 POP POP POP POP POP POP SWAP3 SWAP2 POP POP JUMP JUMPDEST PUSH2 0x809 DUP2 PUSH2 0xA8D JUMP JUMPDEST DUP3 MSTORE POP POP JUMP JUMPDEST PUSH1 0x0 PUSH2 0x81A DUP3 PUSH2 0x9CE JUMP JUMPDEST PUSH2 0x824 DUP2 DUP6 PUSH2 0xA26 JUMP JUMPDEST SWAP4 POP PUSH2 0x834 DUP2 DUP6 PUSH1 0x20 DUP7 ADD PUSH2 0xAB3 JUMP JUMPDEST PUSH2 0x83D DUP2 PUSH2 0xBEA JUMP JUMPDEST DUP5 ADD SWAP2 POP POP SWAP3 SWAP2 POP POP JUMP JUMPDEST PUSH1 0x0 PUSH1 0x60 DUP4 ADD PUSH1 0x0 DUP4 ADD MLOAD PUSH2 0x860 PUSH1 0x0 DUP7 ADD DUP3 PUSH2 0x8EF JUMP JUMPDEST POP PUSH1 0x20 DUP4 ADD MLOAD DUP5 DUP3 SUB PUSH1 0x20 DUP7 ADD MSTORE PUSH2 0x878 DUP3 DUP3 PUSH2 0x80F JUMP JUMPDEST SWAP2 POP POP PUSH1 0x40 DUP4 ADD MLOAD DUP5 DUP3 SUB PUSH1 0x40 DUP7 ADD MSTORE PUSH2 0x892 DUP3 DUP3 PUSH2 0x716 JUMP JUMPDEST SWAP2 POP POP DUP1 SWAP2 POP POP SWAP3 SWAP2 POP POP JUMP JUMPDEST PUSH1 0x0 PUSH1 0x60 DUP4 ADD PUSH1 0x0 DUP4 ADD MLOAD PUSH2 0x8B7 PUSH1 0x0 DUP7 ADD DUP3 PUSH2 0x8EF JUMP JUMPDEST POP PUSH1 0x20 DUP4 ADD MLOAD DUP5 DUP3 SUB PUSH1 0x20 DUP7 ADD MSTORE PUSH2 0x8CF DUP3 DUP3 PUSH2 0x80F JUMP JUMPDEST SWAP2 POP POP PUSH1 0x40 DUP4 ADD MLOAD PUSH2 0x8E4 PUSH1 0x40 DUP7 ADD DUP3 PUSH2 0x800 JUMP JUMPDEST POP DUP1 SWAP2 POP POP SWAP3 SWAP2 POP POP JUMP JUMPDEST PUSH2 0x8F8 DUP2 PUSH2 0xA9A JUMP JUMPDEST DUP3 MSTORE POP POP JUMP JUMPDEST PUSH1 0x0 PUSH1 0x20 DUP3 ADD SWAP1 POP DUP2 DUP2 SUB PUSH1 0x0 DUP4 ADD MSTORE PUSH2 0x918 DUP2 DUP5 PUSH2 0x6A1 JUMP JUMPDEST SWAP1 POP SWAP3 SWAP2 POP POP JUMP JUMPDEST PUSH1 0x0 PUSH1 0x20 DUP3 ADD SWAP1 POP DUP2 DUP2 SUB PUSH1 0x0 DUP4 ADD MSTORE PUSH2 0x93A DUP2 DUP5 PUSH2 0x78B JUMP JUMPDEST SWAP1 POP SWAP3 SWAP2 POP POP JUMP JUMPDEST PUSH1 0x0 PUSH2 0x94C PUSH2 0x95D JUMP JUMPDEST SWAP1 POP PUSH2 0x958 DUP3 DUP3 PUSH2 0xB18 JUMP JUMPDEST SWAP2 SWAP1 POP JUMP JUMPDEST PUSH1 0x0 PUSH1 0x40 MLOAD SWAP1 POP SWAP1 JUMP JUMPDEST PUSH1 0x0 PUSH8 0xFFFFFFFFFFFFFFFF DUP3 GT ISZERO PUSH2 0x982 JUMPI PUSH2 0x981 PUSH2 0xBA7 JUMP JUMPDEST JUMPDEST PUSH2 0x98B DUP3 PUSH2 0xBEA JUMP JUMPDEST SWAP1 POP PUSH1 0x20 DUP2 ADD SWAP1 POP SWAP2 SWAP1 POP JUMP JUMPDEST PUSH1 0x0 DUP2 SWAP1 POP PUSH1 0x20 DUP3 ADD SWAP1 POP SWAP2 SWAP1 POP JUMP JUMPDEST PUSH1 0x0 DUP2 SWAP1 POP PUSH1 0x20 DUP3 ADD SWAP1 POP SWAP2 SWAP1 POP JUMP JUMPDEST PUSH1 0x0 DUP2 MLOAD SWAP1 POP SWAP2 SWAP1 POP JUMP JUMPDEST PUSH1 0x0 DUP2 MLOAD SWAP1 POP SWAP2 SWAP1 POP JUMP JUMPDEST PUSH1 0x0 DUP2 MLOAD SWAP1 POP SWAP2 SWAP1 POP JUMP JUMPDEST PUSH1 0x0 PUSH1 0x20 DUP3 ADD SWAP1 POP SWAP2 SWAP1 POP JUMP JUMPDEST PUSH1 0x0 PUSH1 0x20 DUP3 ADD SWAP1 POP SWAP2 SWAP1 POP JUMP JUMPDEST PUSH1 0x0 DUP3 DUP3 MSTORE PUSH1 0x20 DUP3 ADD SWAP1 POP SWAP3 SWAP2 POP POP JUMP JUMPDEST PUSH1 0x0 DUP3 DUP3 MSTORE PUSH1 0x20 DUP3 ADD SWAP1 POP SWAP3 SWAP2 POP POP JUMP JUMPDEST PUSH1 0x0 DUP3 DUP3 MSTORE PUSH1 0x20 DUP3 ADD SWAP1 POP SWAP3 SWAP2 POP POP JUMP JUMPDEST PUSH1 0x0 DUP3 DUP3 MSTORE PUSH1 0x20 DUP3 ADD SWAP1 POP SWAP3 SWAP2 POP POP JUMP JUMPDEST PUSH1 0x0 PUSH2 0xA42 DUP3 PUSH2 0xA9A JUMP JUMPDEST SWAP2 POP PUSH2 0xA4D DUP4 PUSH2 0xA9A JUMP JUMPDEST SWAP3 POP DUP3 PUSH32 0xFFFFFFFFFFFFFFFFFFFFFFFFFFFFFFFFFFFFFFFFFFFFFFFFFFFFFFFFFFFFFFFF SUB DUP3 GT ISZERO PUSH2 0xA82 JUMPI PUSH2 0xA81 PUSH2 0xB49 JUMP JUMPDEST JUMPDEST DUP3 DUP3 ADD SWAP1 POP SWAP3 SWAP2 POP POP JUMP JUMPDEST PUSH1 0x0 DUP2 PUSH1 0x1 SIGNEXTEND SWAP1 POP SWAP2 SWAP1 POP JUMP JUMPDEST PUSH1 0x0 DUP2 SWAP1 POP SWAP2 SWAP1 POP JUMP JUMPDEST DUP3 DUP2 DUP4 CALLDATACOPY PUSH1 0x0 DUP4 DUP4 ADD MSTORE POP POP POP JUMP JUMPDEST PUSH1 0x0 JUMPDEST DUP4 DUP2 LT ISZERO PUSH2 0xAD1 JUMPI DUP1 DUP3 ADD MLOAD DUP2 DUP5 ADD MSTORE PUSH1 0x20 DUP2 ADD SWAP1 POP PUSH2 0xAB6 JUMP JUMPDEST DUP4 DUP2 GT ISZERO PUSH2 0xAE0 JUMPI PUSH1 0x0 DUP5 DUP5 ADD MSTORE JUMPDEST POP POP POP POP JUMP JUMPDEST PUSH1 0x0 PUSH1 0x2 DUP3 DIV SWAP1 POP PUSH1 0x1 DUP3 AND DUP1 PUSH2 0xAFE JUMPI PUSH1 0x7F DUP3 AND SWAP2 POP JUMPDEST PUSH1 0x20 DUP3 LT DUP2 EQ ISZERO PUSH2 0xB12 JUMPI PUSH2 0xB11 PUSH2 0xB78 JUMP JUMPDEST JUMPDEST POP SWAP2 SWAP1 POP JUMP JUMPDEST PUSH2 0xB21 DUP3 PUSH2 0xBEA JUMP JUMPDEST DUP2 ADD DUP2 DUP2 LT PUSH8 0xFFFFFFFFFFFFFFFF DUP3 GT OR ISZERO PUSH2 0xB40 JUMPI PUSH2 0xB3F PUSH2 0xBA7 JUMP JUMPDEST JUMPDEST DUP1 PUSH1 0x40 MSTORE POP POP POP JUMP JUMPDEST PUSH32 0x4E487B7100000000000000000000000000000000000000000000000000000000 PUSH1 0x0 MSTORE PUSH1 0x11 PUSH1 0x4 MSTORE PUSH1 0x24 PUSH1 0x0 REVERT JUMPDEST PUSH32 0x4E487B7100000000000000000000000000000000000000000000000000000000 PUSH1 0x0 MSTORE PUSH1 0x22 PUSH1 0x4 MSTORE PUSH1 0x24 PUSH1 0x0 REVERT JUMPDEST PUSH32 0x4E487B7100000000000000000000000000000000000000000000000000000000 PUSH1 0x0 MSTORE PUSH1 0x41 PUSH1 0x4 MSTORE PUSH1 0x24 PUSH1 0x0 REVERT JUMPDEST PUSH1 0x0 DUP1 REVERT JUMPDEST PUSH1 0x0 DUP1 REVERT JUMPDEST PUSH1 0x0 DUP1 REVERT JUMPDEST PUSH1 0x0 DUP1 REVERT JUMPDEST PUSH1 0x0 PUSH1 0x1F NOT PUSH1 0x1F DUP4 ADD AND SWAP1 POP SWAP2 SWAP1 POP JUMP JUMPDEST PUSH2 0xC04 DUP2 PUSH2 0xA8D JUMP JUMPDEST DUP2 EQ PUSH2 0xC0F JUMPI PUSH1 0x0 DUP1 REVERT JUMPDEST POP JUMP INVALID LOG2 PUSH5 0x6970667358 0x22 SLT KECCAK256 0x21 0xE CREATE DUP1 DIV 0xE7 DUP6 0xD2 REVERT 0x4D 0x2F PUSH10 0x5E011A91978086878BF0 SWAP13 SWAP15 DUP10 SHR PUSH16 0x9F081207A564736F6C63430008070033 "
				},
				"gasEstimates": {
					"creation": {
						"codeDepositCost": "628800",
						"executionCost": "664",
						"totalCost": "629464"
					},
					"external": {
						"createClient(string)": "infinite",
						"createProduit(string,int16)": "infinite",
						"getAllClients()": "infinite",
						"getAllProducts()": "infinite"
					}
				},
				"methodIdentifiers": {
					"createClient(string)": "e88e9f0f",
					"createProduit(string,int16)": "51401eef",
					"getAllClients()": "e4d7a3d4",
					"getAllProducts()": "02ee3a52"
				}
			},
			"storageLayout": {
				"storage": [
					{
						"astId": 21,
						"contract": "contracts/ExoSupermarche.sol:supermarche",
						"label": "AllProduits",
						"offset": 0,
						"slot": "0",
						"type": "t_array(t_struct(produitData)8_storage)dyn_storage"
					},
					{
						"astId": 25,
						"contract": "contracts/ExoSupermarche.sol:supermarche",
						"label": "AllClients",
						"offset": 0,
						"slot": "1",
						"type": "t_array(t_struct(clientData)17_storage)dyn_storage"
					},
					{
						"astId": 30,
						"contract": "contracts/ExoSupermarche.sol:supermarche",
						"label": "clients",
						"offset": 0,
						"slot": "2",
						"type": "t_mapping(t_uint256,t_struct(clientData)17_storage)"
					}
				],
				"types": {
					"t_array(t_struct(clientData)17_storage)dyn_storage": {
						"base": "t_struct(clientData)17_storage",
						"encoding": "dynamic_array",
						"label": "struct supermarche.clientData[]",
						"numberOfBytes": "32"
					},
					"t_array(t_struct(produitData)8_storage)dyn_storage": {
						"base": "t_struct(produitData)8_storage",
						"encoding": "dynamic_array",
						"label": "struct supermarche.produitData[]",
						"numberOfBytes": "32"
					},
					"t_int16": {
						"encoding": "inplace",
						"label": "int16",
						"numberOfBytes": "2"
					},
					"t_mapping(t_uint256,t_struct(clientData)17_storage)": {
						"encoding": "mapping",
						"key": "t_uint256",
						"label": "mapping(uint256 => struct supermarche.clientData)",
						"numberOfBytes": "32",
						"value": "t_struct(clientData)17_storage"
					},
					"t_string_storage": {
						"encoding": "bytes",
						"label": "string",
						"numberOfBytes": "32"
					},
					"t_struct(clientData)17_storage": {
						"encoding": "inplace",
						"label": "struct supermarche.clientData",
						"members": [
							{
								"astId": 10,
								"contract": "contracts/ExoSupermarche.sol:supermarche",
								"label": "_id",
								"offset": 0,
								"slot": "0",
								"type": "t_uint256"
							},
							{
								"astId": 12,
								"contract": "contracts/ExoSupermarche.sol:supermarche",
								"label": "_nom",
								"offset": 0,
								"slot": "1",
								"type": "t_string_storage"
							},
							{
								"astId": 16,
								"contract": "contracts/ExoSupermarche.sol:supermarche",
								"label": "panier",
								"offset": 0,
								"slot": "2",
								"type": "t_array(t_struct(produitData)8_storage)dyn_storage"
							}
						],
						"numberOfBytes": "96"
					},
					"t_struct(produitData)8_storage": {
						"encoding": "inplace",
						"label": "struct supermarche.produitData",
						"members": [
							{
								"astId": 3,
								"contract": "contracts/ExoSupermarche.sol:supermarche",
								"label": "_id",
								"offset": 0,
								"slot": "0",
								"type": "t_uint256"
							},
							{
								"astId": 5,
								"contract": "contracts/ExoSupermarche.sol:supermarche",
								"label": "_libelle",
								"offset": 0,
								"slot": "1",
								"type": "t_string_storage"
							},
							{
								"astId": 7,
								"contract": "contracts/ExoSupermarche.sol:supermarche",
								"label": "_prix",
								"offset": 0,
								"slot": "2",
								"type": "t_int16"
							}
						],
						"numberOfBytes": "96"
					},
					"t_uint256": {
						"encoding": "inplace",
						"label": "uint256",
						"numberOfBytes": "32"
					}
				}
			},
			"userdoc": {
				"kind": "user",
				"methods": {},
				"version": 1
			}
		}
	}
}