{
	"contracts/ExoSupermarche.sol": {
		"supermarche": {
			"abi": [
				{
					"inputs": [],
					"stateMutability": "nonpayable",
					"type": "constructor"
				},
				{
					"inputs": [
						{
							"internalType": "string",
							"name": "_libelle",
							"type": "string"
						},
						{
							"internalType": "int16",
							"name": "_prix",
							"type": "int16"
						}
					],
					"name": "createProduit",
					"outputs": [],
					"stateMutability": "nonpayable",
					"type": "function"
				},
				{
					"inputs": [],
					"name": "getAllProducts",
					"outputs": [
						{
							"components": [
								{
									"internalType": "uint256",
									"name": "id",
									"type": "uint256"
								},
								{
									"internalType": "string",
									"name": "libelle",
									"type": "string"
								},
								{
									"internalType": "int16",
									"name": "price",
									"type": "int16"
								}
							],
							"internalType": "struct supermarche.productData[]",
							"name": "",
							"type": "tuple[]"
						}
					],
					"stateMutability": "view",
					"type": "function"
				},
				{
					"inputs": [
						{
							"internalType": "uint256",
							"name": "_id",
							"type": "uint256"
						}
					],
					"name": "getProductInfoById",
					"outputs": [
						{
							"internalType": "string",
							"name": "",
							"type": "string"
						},
						{
							"internalType": "int16",
							"name": "",
							"type": "int16"
						}
					],
					"stateMutability": "view",
					"type": "function"
				},
				{
					"inputs": [
						{
							"internalType": "string",
							"name": "_name",
							"type": "string"
						}
					],
					"name": "getProductInfoByName",
					"outputs": [
						{
							"internalType": "string",
							"name": "",
							"type": "string"
						},
						{
							"internalType": "int16",
							"name": "",
							"type": "int16"
						}
					],
					"stateMutability": "view",
					"type": "function"
				},
				{
					"inputs": [
						{
							"internalType": "uint256",
							"name": "_id",
							"type": "uint256"
						},
						{
							"internalType": "string",
							"name": "_libelle",
							"type": "string"
						}
					],
					"name": "setProductInfoName",
					"outputs": [],
					"stateMutability": "nonpayable",
					"type": "function"
				},
				{
					"inputs": [
						{
							"internalType": "uint256",
							"name": "_id",
							"type": "uint256"
						},
						{
							"internalType": "int16",
							"name": "_price",
							"type": "int16"
						}
					],
					"name": "setProductInfoPrice",
					"outputs": [],
					"stateMutability": "nonpayable",
					"type": "function"
				}
			],
			"devdoc": {
				"kind": "dev",
				"methods": {},
				"version": 1
			},
			"evm": {
				"assembly": "    /* \"contracts/ExoSupermarche.sol\":59:1744  contract supermarche {\r... */\n  mstore(0x40, 0x80)\n    /* \"contracts/ExoSupermarche.sol\":461:602  constructor() public {\r... */\n  callvalue\n  dup1\n  iszero\n  tag_1\n  jumpi\n  0x00\n  dup1\n  revert\ntag_1:\n  pop\n    /* \"contracts/ExoSupermarche.sol\":493:520  createProduit(\"banane\", 10) */\n  tag_4\n  mload(0x40)\n  dup1\n  0x40\n  add\n  0x40\n  mstore\n  dup1\n  0x06\n  dup2\n  mstore\n  0x20\n  add\n  0x62616e616e650000000000000000000000000000000000000000000000000000\n  dup2\n  mstore\n  pop\n    /* \"contracts/ExoSupermarche.sol\":517:519  10 */\n  0x0a\n    /* \"contracts/ExoSupermarche.sol\":493:506  createProduit */\n  shl(0x20, tag_5)\n    /* \"contracts/ExoSupermarche.sol\":493:520  createProduit(\"banane\", 10) */\n  0x20\n  shr\n  jump\t// in\ntag_4:\n    /* \"contracts/ExoSupermarche.sol\":531:558  createProduit(\"fraise\", 15) */\n  tag_6\n  mload(0x40)\n  dup1\n  0x40\n  add\n  0x40\n  mstore\n  dup1\n  0x06\n  dup2\n  mstore\n  0x20\n  add\n  0x6672616973650000000000000000000000000000000000000000000000000000\n  dup2\n  mstore\n  pop\n    /* \"contracts/ExoSupermarche.sol\":555:557  15 */\n  0x0f\n    /* \"contracts/ExoSupermarche.sol\":531:544  createProduit */\n  shl(0x20, tag_5)\n    /* \"contracts/ExoSupermarche.sol\":531:558  createProduit(\"fraise\", 15) */\n  0x20\n  shr\n  jump\t// in\ntag_6:\n    /* \"contracts/ExoSupermarche.sol\":569:594  createProduit(\"pomme\", 8) */\n  tag_7\n  mload(0x40)\n  dup1\n  0x40\n  add\n  0x40\n  mstore\n  dup1\n  0x05\n  dup2\n  mstore\n  0x20\n  add\n  0x706f6d6d65000000000000000000000000000000000000000000000000000000\n  dup2\n  mstore\n  pop\n    /* \"contracts/ExoSupermarche.sol\":592:593  8 */\n  0x08\n    /* \"contracts/ExoSupermarche.sol\":569:582  createProduit */\n  shl(0x20, tag_5)\n    /* \"contracts/ExoSupermarche.sol\":569:594  createProduit(\"pomme\", 8) */\n  0x20\n  shr\n  jump\t// in\ntag_7:\n    /* \"contracts/ExoSupermarche.sol\":59:1744  contract supermarche {\r... */\n  jump(tag_8)\n    /* \"contracts/ExoSupermarche.sol\":612:933  function createProduit(string memory _libelle, int16 _prix) public {\r... */\ntag_5:\n    /* \"contracts/ExoSupermarche.sol\":690:697  uint id */\n  0x00\n    /* \"contracts/ExoSupermarche.sol\":721:722  1 */\n  0x01\n    /* \"contracts/ExoSupermarche.sol\":700:711  AllProduits */\n  0x00\n    /* \"contracts/ExoSupermarche.sol\":700:718  AllProduits.length */\n  dup1\n  sload\n  swap1\n  pop\n    /* \"contracts/ExoSupermarche.sol\":700:722  AllProduits.length + 1 */\n  tag_10\n  swap2\n  swap1\n  tag_11\n  jump\t// in\ntag_10:\n    /* \"contracts/ExoSupermarche.sol\":690:722  uint id = AllProduits.length + 1 */\n  swap1\n  pop\n    /* \"contracts/ExoSupermarche.sol\":733:753  productData memory p */\n  0x00\n    /* \"contracts/ExoSupermarche.sol\":756:788  productData(id, _libelle, _prix) */\n  mload(0x40)\n  dup1\n  0x60\n  add\n  0x40\n  mstore\n  dup1\n    /* \"contracts/ExoSupermarche.sol\":768:770  id */\n  dup4\n    /* \"contracts/ExoSupermarche.sol\":756:788  productData(id, _libelle, _prix) */\n  dup2\n  mstore\n  0x20\n  add\n    /* \"contracts/ExoSupermarche.sol\":772:780  _libelle */\n  dup6\n    /* \"contracts/ExoSupermarche.sol\":756:788  productData(id, _libelle, _prix) */\n  dup2\n  mstore\n  0x20\n  add\n    /* \"contracts/ExoSupermarche.sol\":782:787  _prix */\n  dup5\n    /* \"contracts/ExoSupermarche.sol\":756:788  productData(id, _libelle, _prix) */\n  0x01\n  signextend\n  dup2\n  mstore\n  pop\n    /* \"contracts/ExoSupermarche.sol\":733:788  productData memory p = productData(id, _libelle, _prix) */\n  swap1\n  pop\n    /* \"contracts/ExoSupermarche.sol\":836:847  AllProduits */\n  0x00\n    /* \"contracts/ExoSupermarche.sol\":853:854  p */\n  dup2\n    /* \"contracts/ExoSupermarche.sol\":836:855  AllProduits.push(p) */\n  swap1\n  dup1\n  0x01\n  dup2\n  sload\n  add\n  dup1\n  dup3\n  sstore\n  dup1\n  swap2\n  pop\n  pop\n  0x01\n  swap1\n  sub\n  swap1\n  0x00\n  mstore\n  keccak256(0x00, 0x20)\n  swap1\n  0x03\n  mul\n  add\n  0x00\n  swap1\n  swap2\n  swap1\n  swap2\n  swap1\n  swap2\n  pop\n  0x00\n  dup3\n  add\n  mload\n  dup2\n  0x00\n  add\n  sstore\n  0x20\n  dup3\n  add\n  mload\n  dup2\n  0x01\n  add\n  swap1\n  dup1\n  mload\n  swap1\n  0x20\n  add\n  swap1\n  tag_13\n  swap3\n  swap2\n  swap1\n  tag_14\n  jump\t// in\ntag_13:\n  pop\n  0x40\n  dup3\n  add\n  mload\n  dup2\n  0x02\n  add\n  exp(0x0100, 0x00)\n  dup2\n  sload\n  dup2\n  0xffff\n  mul\n  not\n  and\n  swap1\n  dup4\n  0x01\n  signextend\n  0xffff\n  and\n  mul\n  or\n  swap1\n  sstore\n  pop\n  pop\n  pop\n    /* \"contracts/ExoSupermarche.sol\":885:886  p */\n  dup1\n    /* \"contracts/ExoSupermarche.sol\":866:878  productsById */\n  0x02\n    /* \"contracts/ExoSupermarche.sol\":866:882  productsById[id] */\n  0x00\n    /* \"contracts/ExoSupermarche.sol\":879:881  id */\n  dup5\n    /* \"contracts/ExoSupermarche.sol\":866:882  productsById[id] */\n  dup2\n  mstore\n  0x20\n  add\n  swap1\n  dup2\n  mstore\n  0x20\n  add\n  0x00\n  keccak256\n    /* \"contracts/ExoSupermarche.sol\":866:886  productsById[id] = p */\n  0x00\n  dup3\n  add\n  mload\n  dup2\n  0x00\n  add\n  sstore\n  0x20\n  dup3\n  add\n  mload\n  dup2\n  0x01\n  add\n  swap1\n  dup1\n  mload\n  swap1\n  0x20\n  add\n  swap1\n  tag_15\n  swap3\n  swap2\n  swap1\n  tag_14\n  jump\t// in\ntag_15:\n  pop\n  0x40\n  dup3\n  add\n  mload\n  dup2\n  0x02\n  add\n  exp(0x0100, 0x00)\n  dup2\n  sload\n  dup2\n  0xffff\n  mul\n  not\n  and\n  swap1\n  dup4\n  0x01\n  signextend\n  0xffff\n  and\n  mul\n  or\n  swap1\n  sstore\n  pop\n  swap1\n  pop\n  pop\n    /* \"contracts/ExoSupermarche.sol\":924:925  p */\n  dup1\n    /* \"contracts/ExoSupermarche.sol\":897:911  productsByName */\n  0x03\n    /* \"contracts/ExoSupermarche.sol\":912:920  _libelle */\n  dup6\n    /* \"contracts/ExoSupermarche.sol\":897:921  productsByName[_libelle] */\n  mload(0x40)\n  tag_16\n  swap2\n  swap1\n  tag_17\n  jump\t// in\ntag_16:\n  swap1\n  dup2\n  mstore\n  0x20\n  add\n  mload(0x40)\n  dup1\n  swap2\n  sub\n  swap1\n  keccak256\n    /* \"contracts/ExoSupermarche.sol\":897:925  productsByName[_libelle] = p */\n  0x00\n  dup3\n  add\n  mload\n  dup2\n  0x00\n  add\n  sstore\n  0x20\n  dup3\n  add\n  mload\n  dup2\n  0x01\n  add\n  swap1\n  dup1\n  mload\n  swap1\n  0x20\n  add\n  swap1\n  tag_18\n  swap3\n  swap2\n  swap1\n  tag_14\n  jump\t// in\ntag_18:\n  pop\n  0x40\n  dup3\n  add\n  mload\n  dup2\n  0x02\n  add\n  exp(0x0100, 0x00)\n  dup2\n  sload\n  dup2\n  0xffff\n  mul\n  not\n  and\n  swap1\n  dup4\n  0x01\n  signextend\n  0xffff\n  and\n  mul\n  or\n  swap1\n  sstore\n  pop\n  swap1\n  pop\n  pop\n    /* \"contracts/ExoSupermarche.sol\":679:933  {\r... */\n  pop\n  pop\n    /* \"contracts/ExoSupermarche.sol\":612:933  function createProduit(string memory _libelle, int16 _prix) public {\r... */\n  pop\n  pop\n  jump\t// out\n    /* \"contracts/ExoSupermarche.sol\":59:1744  contract supermarche {\r... */\ntag_14:\n  dup3\n  dup1\n  sload\n  tag_19\n  swap1\n  tag_20\n  jump\t// in\ntag_19:\n  swap1\n  0x00\n  mstore\n  keccak256(0x00, 0x20)\n  swap1\n  0x1f\n  add\n  0x20\n  swap1\n  div\n  dup2\n  add\n  swap3\n  dup3\n  tag_22\n  jumpi\n  0x00\n  dup6\n  sstore\n  jump(tag_21)\ntag_22:\n  dup3\n  0x1f\n  lt\n  tag_23\n  jumpi\n  dup1\n  mload\n  not(0xff)\n  and\n  dup4\n  dup1\n  add\n  or\n  dup6\n  sstore\n  jump(tag_21)\ntag_23:\n  dup3\n  dup1\n  add\n  0x01\n  add\n  dup6\n  sstore\n  dup3\n  iszero\n  tag_21\n  jumpi\n  swap2\n  dup3\n  add\ntag_24:\n  dup3\n  dup2\n  gt\n  iszero\n  tag_25\n  jumpi\n  dup3\n  mload\n  dup3\n  sstore\n  swap2\n  0x20\n  add\n  swap2\n  swap1\n  0x01\n  add\n  swap1\n  jump(tag_24)\ntag_25:\ntag_21:\n  pop\n  swap1\n  pop\n  tag_26\n  swap2\n  swap1\n  tag_27\n  jump\t// in\ntag_26:\n  pop\n  swap1\n  jump\t// out\ntag_27:\ntag_28:\n  dup1\n  dup3\n  gt\n  iszero\n  tag_29\n  jumpi\n  0x00\n  dup2\n  0x00\n  swap1\n  sstore\n  pop\n  0x01\n  add\n  jump(tag_28)\ntag_29:\n  pop\n  swap1\n  jump\t// out\n    /* \"#utility.yul\":7:384   */\ntag_31:\n    /* \"#utility.yul\":113:116   */\n  0x00\n    /* \"#utility.yul\":141:180   */\n  tag_33\n    /* \"#utility.yul\":174:179   */\n  dup3\n    /* \"#utility.yul\":141:180   */\n  tag_34\n  jump\t// in\ntag_33:\n    /* \"#utility.yul\":196:285   */\n  tag_35\n    /* \"#utility.yul\":278:284   */\n  dup2\n    /* \"#utility.yul\":273:276   */\n  dup6\n    /* \"#utility.yul\":196:285   */\n  tag_36\n  jump\t// in\ntag_35:\n    /* \"#utility.yul\":189:285   */\n  swap4\n  pop\n    /* \"#utility.yul\":294:346   */\n  tag_37\n    /* \"#utility.yul\":339:345   */\n  dup2\n    /* \"#utility.yul\":334:337   */\n  dup6\n    /* \"#utility.yul\":327:331   */\n  0x20\n    /* \"#utility.yul\":320:325   */\n  dup7\n    /* \"#utility.yul\":316:332   */\n  add\n    /* \"#utility.yul\":294:346   */\n  tag_38\n  jump\t// in\ntag_37:\n    /* \"#utility.yul\":371:377   */\n  dup1\n    /* \"#utility.yul\":366:369   */\n  dup5\n    /* \"#utility.yul\":362:378   */\n  add\n    /* \"#utility.yul\":355:378   */\n  swap2\n  pop\n    /* \"#utility.yul\":117:384   */\n  pop\n    /* \"#utility.yul\":7:384   */\n  swap3\n  swap2\n  pop\n  pop\n  jump\t// out\n    /* \"#utility.yul\":390:665   */\ntag_17:\n    /* \"#utility.yul\":522:525   */\n  0x00\n    /* \"#utility.yul\":544:639   */\n  tag_40\n    /* \"#utility.yul\":635:638   */\n  dup3\n    /* \"#utility.yul\":626:632   */\n  dup5\n    /* \"#utility.yul\":544:639   */\n  tag_31\n  jump\t// in\ntag_40:\n    /* \"#utility.yul\":537:639   */\n  swap2\n  pop\n    /* \"#utility.yul\":656:659   */\n  dup2\n    /* \"#utility.yul\":649:659   */\n  swap1\n  pop\n    /* \"#utility.yul\":390:665   */\n  swap3\n  swap2\n  pop\n  pop\n  jump\t// out\n    /* \"#utility.yul\":671:770   */\ntag_34:\n    /* \"#utility.yul\":723:729   */\n  0x00\n    /* \"#utility.yul\":757:762   */\n  dup2\n    /* \"#utility.yul\":751:763   */\n  mload\n    /* \"#utility.yul\":741:763   */\n  swap1\n  pop\n    /* \"#utility.yul\":671:770   */\n  swap2\n  swap1\n  pop\n  jump\t// out\n    /* \"#utility.yul\":776:924   */\ntag_36:\n    /* \"#utility.yul\":878:889   */\n  0x00\n    /* \"#utility.yul\":915:918   */\n  dup2\n    /* \"#utility.yul\":900:918   */\n  swap1\n  pop\n    /* \"#utility.yul\":776:924   */\n  swap3\n  swap2\n  pop\n  pop\n  jump\t// out\n    /* \"#utility.yul\":930:1235   */\ntag_11:\n    /* \"#utility.yul\":970:973   */\n  0x00\n    /* \"#utility.yul\":989:1009   */\n  tag_44\n    /* \"#utility.yul\":1007:1008   */\n  dup3\n    /* \"#utility.yul\":989:1009   */\n  tag_45\n  jump\t// in\ntag_44:\n    /* \"#utility.yul\":984:1009   */\n  swap2\n  pop\n    /* \"#utility.yul\":1023:1043   */\n  tag_46\n    /* \"#utility.yul\":1041:1042   */\n  dup4\n    /* \"#utility.yul\":1023:1043   */\n  tag_45\n  jump\t// in\ntag_46:\n    /* \"#utility.yul\":1018:1043   */\n  swap3\n  pop\n    /* \"#utility.yul\":1177:1178   */\n  dup3\n    /* \"#utility.yul\":1109:1175   */\n  0xffffffffffffffffffffffffffffffffffffffffffffffffffffffffffffffff\n    /* \"#utility.yul\":1105:1179   */\n  sub\n    /* \"#utility.yul\":1102:1103   */\n  dup3\n    /* \"#utility.yul\":1099:1180   */\n  gt\n    /* \"#utility.yul\":1096:1203   */\n  iszero\n  tag_47\n  jumpi\n    /* \"#utility.yul\":1183:1201   */\n  tag_48\n  tag_49\n  jump\t// in\ntag_48:\n    /* \"#utility.yul\":1096:1203   */\ntag_47:\n    /* \"#utility.yul\":1227:1228   */\n  dup3\n    /* \"#utility.yul\":1224:1225   */\n  dup3\n    /* \"#utility.yul\":1220:1229   */\n  add\n    /* \"#utility.yul\":1213:1229   */\n  swap1\n  pop\n    /* \"#utility.yul\":930:1235   */\n  swap3\n  swap2\n  pop\n  pop\n  jump\t// out\n    /* \"#utility.yul\":1241:1318   */\ntag_45:\n    /* \"#utility.yul\":1278:1285   */\n  0x00\n    /* \"#utility.yul\":1307:1312   */\n  dup2\n    /* \"#utility.yul\":1296:1312   */\n  swap1\n  pop\n    /* \"#utility.yul\":1241:1318   */\n  swap2\n  swap1\n  pop\n  jump\t// out\n    /* \"#utility.yul\":1324:1631   */\ntag_38:\n    /* \"#utility.yul\":1392:1393   */\n  0x00\n    /* \"#utility.yul\":1402:1515   */\ntag_52:\n    /* \"#utility.yul\":1416:1422   */\n  dup4\n    /* \"#utility.yul\":1413:1414   */\n  dup2\n    /* \"#utility.yul\":1410:1423   */\n  lt\n    /* \"#utility.yul\":1402:1515   */\n  iszero\n  tag_54\n  jumpi\n    /* \"#utility.yul\":1501:1502   */\n  dup1\n    /* \"#utility.yul\":1496:1499   */\n  dup3\n    /* \"#utility.yul\":1492:1503   */\n  add\n    /* \"#utility.yul\":1486:1504   */\n  mload\n    /* \"#utility.yul\":1482:1483   */\n  dup2\n    /* \"#utility.yul\":1477:1480   */\n  dup5\n    /* \"#utility.yul\":1473:1484   */\n  add\n    /* \"#utility.yul\":1466:1505   */\n  mstore\n    /* \"#utility.yul\":1438:1440   */\n  0x20\n    /* \"#utility.yul\":1435:1436   */\n  dup2\n    /* \"#utility.yul\":1431:1441   */\n  add\n    /* \"#utility.yul\":1426:1441   */\n  swap1\n  pop\n    /* \"#utility.yul\":1402:1515   */\n  jump(tag_52)\ntag_54:\n    /* \"#utility.yul\":1533:1539   */\n  dup4\n    /* \"#utility.yul\":1530:1531   */\n  dup2\n    /* \"#utility.yul\":1527:1540   */\n  gt\n    /* \"#utility.yul\":1524:1625   */\n  iszero\n  tag_55\n  jumpi\n    /* \"#utility.yul\":1613:1614   */\n  0x00\n    /* \"#utility.yul\":1604:1610   */\n  dup5\n    /* \"#utility.yul\":1599:1602   */\n  dup5\n    /* \"#utility.yul\":1595:1611   */\n  add\n    /* \"#utility.yul\":1588:1615   */\n  mstore\n    /* \"#utility.yul\":1524:1625   */\ntag_55:\n    /* \"#utility.yul\":1373:1631   */\n  pop\n    /* \"#utility.yul\":1324:1631   */\n  pop\n  pop\n  pop\n  jump\t// out\n    /* \"#utility.yul\":1637:1957   */\ntag_20:\n    /* \"#utility.yul\":1681:1687   */\n  0x00\n    /* \"#utility.yul\":1718:1719   */\n  0x02\n    /* \"#utility.yul\":1712:1716   */\n  dup3\n    /* \"#utility.yul\":1708:1720   */\n  div\n    /* \"#utility.yul\":1698:1720   */\n  swap1\n  pop\n    /* \"#utility.yul\":1765:1766   */\n  0x01\n    /* \"#utility.yul\":1759:1763   */\n  dup3\n    /* \"#utility.yul\":1755:1767   */\n  and\n    /* \"#utility.yul\":1786:1804   */\n  dup1\n    /* \"#utility.yul\":1776:1857   */\n  tag_57\n  jumpi\n    /* \"#utility.yul\":1842:1846   */\n  0x7f\n    /* \"#utility.yul\":1834:1840   */\n  dup3\n    /* \"#utility.yul\":1830:1847   */\n  and\n    /* \"#utility.yul\":1820:1847   */\n  swap2\n  pop\n    /* \"#utility.yul\":1776:1857   */\ntag_57:\n    /* \"#utility.yul\":1904:1906   */\n  0x20\n    /* \"#utility.yul\":1896:1902   */\n  dup3\n    /* \"#utility.yul\":1893:1907   */\n  lt\n    /* \"#utility.yul\":1873:1891   */\n  dup2\n    /* \"#utility.yul\":1870:1908   */\n  eq\n    /* \"#utility.yul\":1867:1951   */\n  iszero\n  tag_58\n  jumpi\n    /* \"#utility.yul\":1923:1941   */\n  tag_59\n  tag_60\n  jump\t// in\ntag_59:\n    /* \"#utility.yul\":1867:1951   */\ntag_58:\n    /* \"#utility.yul\":1688:1957   */\n  pop\n    /* \"#utility.yul\":1637:1957   */\n  swap2\n  swap1\n  pop\n  jump\t// out\n    /* \"#utility.yul\":1963:2143   */\ntag_49:\n    /* \"#utility.yul\":2011:2088   */\n  0x4e487b7100000000000000000000000000000000000000000000000000000000\n    /* \"#utility.yul\":2008:2009   */\n  0x00\n    /* \"#utility.yul\":2001:2089   */\n  mstore\n    /* \"#utility.yul\":2108:2112   */\n  0x11\n    /* \"#utility.yul\":2105:2106   */\n  0x04\n    /* \"#utility.yul\":2098:2113   */\n  mstore\n    /* \"#utility.yul\":2132:2136   */\n  0x24\n    /* \"#utility.yul\":2129:2130   */\n  0x00\n    /* \"#utility.yul\":2122:2137   */\n  revert\n    /* \"#utility.yul\":2149:2329   */\ntag_60:\n    /* \"#utility.yul\":2197:2274   */\n  0x4e487b7100000000000000000000000000000000000000000000000000000000\n    /* \"#utility.yul\":2194:2195   */\n  0x00\n    /* \"#utility.yul\":2187:2275   */\n  mstore\n    /* \"#utility.yul\":2294:2298   */\n  0x22\n    /* \"#utility.yul\":2291:2292   */\n  0x04\n    /* \"#utility.yul\":2284:2299   */\n  mstore\n    /* \"#utility.yul\":2318:2322   */\n  0x24\n    /* \"#utility.yul\":2315:2316   */\n  0x00\n    /* \"#utility.yul\":2308:2323   */\n  revert\n    /* \"contracts/ExoSupermarche.sol\":59:1744  contract supermarche {\r... */\ntag_8:\n  dataSize(sub_0)\n  dup1\n  dataOffset(sub_0)\n  0x00\n  codecopy\n  0x00\n  return\nstop\n\nsub_0: assembly {\n        /* \"contracts/ExoSupermarche.sol\":59:1744  contract supermarche {\r... */\n      mstore(0x40, 0x80)\n      callvalue\n      dup1\n      iszero\n      tag_1\n      jumpi\n      0x00\n      dup1\n      revert\n    tag_1:\n      pop\n      jumpi(tag_2, lt(calldatasize, 0x04))\n      shr(0xe0, calldataload(0x00))\n      dup1\n      0x02ee3a52\n      eq\n      tag_3\n      jumpi\n      dup1\n      0x3117b11c\n      eq\n      tag_4\n      jumpi\n      dup1\n      0x51401eef\n      eq\n      tag_5\n      jumpi\n      dup1\n      0x62c2886b\n      eq\n      tag_6\n      jumpi\n      dup1\n      0x65c3e805\n      eq\n      tag_7\n      jumpi\n      dup1\n      0xd7f4933c\n      eq\n      tag_8\n      jumpi\n    tag_2:\n      0x00\n      dup1\n      revert\n        /* \"contracts/ExoSupermarche.sol\":1625:1730  function getAllProducts() public view returns(productData[] memory) {\r... */\n    tag_3:\n      tag_9\n      tag_10\n      jump\t// in\n    tag_9:\n      mload(0x40)\n      tag_11\n      swap2\n      swap1\n      tag_12\n      jump\t// in\n    tag_11:\n      mload(0x40)\n      dup1\n      swap2\n      sub\n      swap1\n      return\n        /* \"contracts/ExoSupermarche.sol\":1372:1496  function setProductInfoName(uint _id, string memory _libelle) public {\r... */\n    tag_4:\n      tag_13\n      0x04\n      dup1\n      calldatasize\n      sub\n      dup2\n      add\n      swap1\n      tag_14\n      swap2\n      swap1\n      tag_15\n      jump\t// in\n    tag_14:\n      tag_16\n      jump\t// in\n    tag_13:\n      stop\n        /* \"contracts/ExoSupermarche.sol\":612:933  function createProduit(string memory _libelle, int16 _prix) public {\r... */\n    tag_5:\n      tag_17\n      0x04\n      dup1\n      calldatasize\n      sub\n      dup2\n      add\n      swap1\n      tag_18\n      swap2\n      swap1\n      tag_19\n      jump\t// in\n    tag_18:\n      tag_20\n      jump\t// in\n    tag_17:\n      stop\n        /* \"contracts/ExoSupermarche.sol\":1504:1615  function setProductInfoPrice(uint _id, int16 _price) public {\r... */\n    tag_6:\n      tag_21\n      0x04\n      dup1\n      calldatasize\n      sub\n      dup2\n      add\n      swap1\n      tag_22\n      swap2\n      swap1\n      tag_23\n      jump\t// in\n    tag_22:\n      tag_24\n      jump\t// in\n    tag_21:\n      stop\n        /* \"contracts/ExoSupermarche.sol\":944:1139  function getProductInfoById(uint _id) public view returns(string memory, int16) {\r... */\n    tag_7:\n      tag_25\n      0x04\n      dup1\n      calldatasize\n      sub\n      dup2\n      add\n      swap1\n      tag_26\n      swap2\n      swap1\n      tag_27\n      jump\t// in\n    tag_26:\n      tag_28\n      jump\t// in\n    tag_25:\n      mload(0x40)\n      tag_29\n      swap3\n      swap2\n      swap1\n      tag_30\n      jump\t// in\n    tag_29:\n      mload(0x40)\n      dup1\n      swap2\n      sub\n      swap1\n      return\n        /* \"contracts/ExoSupermarche.sol\":1148:1364  function getProductInfoByName(string memory _name) public view returns(string memory, int16) {\r... */\n    tag_8:\n      tag_31\n      0x04\n      dup1\n      calldatasize\n      sub\n      dup2\n      add\n      swap1\n      tag_32\n      swap2\n      swap1\n      tag_33\n      jump\t// in\n    tag_32:\n      tag_34\n      jump\t// in\n    tag_31:\n      mload(0x40)\n      tag_35\n      swap3\n      swap2\n      swap1\n      tag_30\n      jump\t// in\n    tag_35:\n      mload(0x40)\n      dup1\n      swap2\n      sub\n      swap1\n      return\n        /* \"contracts/ExoSupermarche.sol\":1625:1730  function getAllProducts() public view returns(productData[] memory) {\r... */\n    tag_10:\n        /* \"contracts/ExoSupermarche.sol\":1671:1691  productData[] memory */\n      0x60\n        /* \"contracts/ExoSupermarche.sol\":1711:1722  AllProduits */\n      0x00\n        /* \"contracts/ExoSupermarche.sol\":1704:1722  return AllProduits */\n      dup1\n      sload\n      dup1\n      0x20\n      mul\n      0x20\n      add\n      mload(0x40)\n      swap1\n      dup2\n      add\n      0x40\n      mstore\n      dup1\n      swap3\n      swap2\n      swap1\n      dup2\n      dup2\n      mstore\n      0x20\n      add\n      0x00\n      swap1\n    tag_37:\n      dup3\n      dup3\n      lt\n      iszero\n      tag_38\n      jumpi\n      dup4\n      dup3\n      swap1\n      0x00\n      mstore\n      keccak256(0x00, 0x20)\n      swap1\n      0x03\n      mul\n      add\n      mload(0x40)\n      dup1\n      0x60\n      add\n      0x40\n      mstore\n      swap1\n      dup2\n      0x00\n      dup3\n      add\n      sload\n      dup2\n      mstore\n      0x20\n      add\n      0x01\n      dup3\n      add\n      dup1\n      sload\n      tag_40\n      swap1\n      tag_41\n      jump\t// in\n    tag_40:\n      dup1\n      0x1f\n      add\n      0x20\n      dup1\n      swap2\n      div\n      mul\n      0x20\n      add\n      mload(0x40)\n      swap1\n      dup2\n      add\n      0x40\n      mstore\n      dup1\n      swap3\n      swap2\n      swap1\n      dup2\n      dup2\n      mstore\n      0x20\n      add\n      dup3\n      dup1\n      sload\n      tag_42\n      swap1\n      tag_41\n      jump\t// in\n    tag_42:\n      dup1\n      iszero\n      tag_43\n      jumpi\n      dup1\n      0x1f\n      lt\n      tag_44\n      jumpi\n      0x0100\n      dup1\n      dup4\n      sload\n      div\n      mul\n      dup4\n      mstore\n      swap2\n      0x20\n      add\n      swap2\n      jump(tag_43)\n    tag_44:\n      dup3\n      add\n      swap2\n      swap1\n      0x00\n      mstore\n      keccak256(0x00, 0x20)\n      swap1\n    tag_45:\n      dup2\n      sload\n      dup2\n      mstore\n      swap1\n      0x01\n      add\n      swap1\n      0x20\n      add\n      dup1\n      dup4\n      gt\n      tag_45\n      jumpi\n      dup3\n      swap1\n      sub\n      0x1f\n      and\n      dup3\n      add\n      swap2\n    tag_43:\n      pop\n      pop\n      pop\n      pop\n      pop\n      dup2\n      mstore\n      0x20\n      add\n      0x02\n      dup3\n      add\n      0x00\n      swap1\n      sload\n      swap1\n      0x0100\n      exp\n      swap1\n      div\n      0x01\n      signextend\n      0x01\n      signextend\n      0x01\n      signextend\n      dup2\n      mstore\n      pop\n      pop\n      dup2\n      mstore\n      0x20\n      add\n      swap1\n      0x01\n      add\n      swap1\n      jump(tag_37)\n    tag_38:\n      pop\n      pop\n      pop\n      pop\n      swap1\n      pop\n        /* \"contracts/ExoSupermarche.sol\":1625:1730  function getAllProducts() public view returns(productData[] memory) {\r... */\n      swap1\n      jump\t// out\n        /* \"contracts/ExoSupermarche.sol\":1372:1496  function setProductInfoName(uint _id, string memory _libelle) public {\r... */\n    tag_16:\n        /* \"contracts/ExoSupermarche.sol\":1480:1488  _libelle */\n      dup1\n        /* \"contracts/ExoSupermarche.sol\":1452:1464  productsById */\n      0x02\n        /* \"contracts/ExoSupermarche.sol\":1452:1469  productsById[_id] */\n      0x00\n        /* \"contracts/ExoSupermarche.sol\":1465:1468  _id */\n      dup5\n        /* \"contracts/ExoSupermarche.sol\":1452:1469  productsById[_id] */\n      dup2\n      mstore\n      0x20\n      add\n      swap1\n      dup2\n      mstore\n      0x20\n      add\n      0x00\n      keccak256\n        /* \"contracts/ExoSupermarche.sol\":1452:1477  productsById[_id].libelle */\n      0x01\n      add\n        /* \"contracts/ExoSupermarche.sol\":1452:1488  productsById[_id].libelle = _libelle */\n      swap1\n      dup1\n      mload\n      swap1\n      0x20\n      add\n      swap1\n      tag_47\n      swap3\n      swap2\n      swap1\n      tag_48\n      jump\t// in\n    tag_47:\n      pop\n        /* \"contracts/ExoSupermarche.sol\":1372:1496  function setProductInfoName(uint _id, string memory _libelle) public {\r... */\n      pop\n      pop\n      jump\t// out\n        /* \"contracts/ExoSupermarche.sol\":612:933  function createProduit(string memory _libelle, int16 _prix) public {\r... */\n    tag_20:\n        /* \"contracts/ExoSupermarche.sol\":690:697  uint id */\n      0x00\n        /* \"contracts/ExoSupermarche.sol\":721:722  1 */\n      0x01\n        /* \"contracts/ExoSupermarche.sol\":700:711  AllProduits */\n      0x00\n        /* \"contracts/ExoSupermarche.sol\":700:718  AllProduits.length */\n      dup1\n      sload\n      swap1\n      pop\n        /* \"contracts/ExoSupermarche.sol\":700:722  AllProduits.length + 1 */\n      tag_50\n      swap2\n      swap1\n      tag_51\n      jump\t// in\n    tag_50:\n        /* \"contracts/ExoSupermarche.sol\":690:722  uint id = AllProduits.length + 1 */\n      swap1\n      pop\n        /* \"contracts/ExoSupermarche.sol\":733:753  productData memory p */\n      0x00\n        /* \"contracts/ExoSupermarche.sol\":756:788  productData(id, _libelle, _prix) */\n      mload(0x40)\n      dup1\n      0x60\n      add\n      0x40\n      mstore\n      dup1\n        /* \"contracts/ExoSupermarche.sol\":768:770  id */\n      dup4\n        /* \"contracts/ExoSupermarche.sol\":756:788  productData(id, _libelle, _prix) */\n      dup2\n      mstore\n      0x20\n      add\n        /* \"contracts/ExoSupermarche.sol\":772:780  _libelle */\n      dup6\n        /* \"contracts/ExoSupermarche.sol\":756:788  productData(id, _libelle, _prix) */\n      dup2\n      mstore\n      0x20\n      add\n        /* \"contracts/ExoSupermarche.sol\":782:787  _prix */\n      dup5\n        /* \"contracts/ExoSupermarche.sol\":756:788  productData(id, _libelle, _prix) */\n      0x01\n      signextend\n      dup2\n      mstore\n      pop\n        /* \"contracts/ExoSupermarche.sol\":733:788  productData memory p = productData(id, _libelle, _prix) */\n      swap1\n      pop\n        /* \"contracts/ExoSupermarche.sol\":836:847  AllProduits */\n      0x00\n        /* \"contracts/ExoSupermarche.sol\":853:854  p */\n      dup2\n        /* \"contracts/ExoSupermarche.sol\":836:855  AllProduits.push(p) */\n      swap1\n      dup1\n      0x01\n      dup2\n      sload\n      add\n      dup1\n      dup3\n      sstore\n      dup1\n      swap2\n      pop\n      pop\n      0x01\n      swap1\n      sub\n      swap1\n      0x00\n      mstore\n      keccak256(0x00, 0x20)\n      swap1\n      0x03\n      mul\n      add\n      0x00\n      swap1\n      swap2\n      swap1\n      swap2\n      swap1\n      swap2\n      pop\n      0x00\n      dup3\n      add\n      mload\n      dup2\n      0x00\n      add\n      sstore\n      0x20\n      dup3\n      add\n      mload\n      dup2\n      0x01\n      add\n      swap1\n      dup1\n      mload\n      swap1\n      0x20\n      add\n      swap1\n      tag_53\n      swap3\n      swap2\n      swap1\n      tag_48\n      jump\t// in\n    tag_53:\n      pop\n      0x40\n      dup3\n      add\n      mload\n      dup2\n      0x02\n      add\n      exp(0x0100, 0x00)\n      dup2\n      sload\n      dup2\n      0xffff\n      mul\n      not\n      and\n      swap1\n      dup4\n      0x01\n      signextend\n      0xffff\n      and\n      mul\n      or\n      swap1\n      sstore\n      pop\n      pop\n      pop\n        /* \"contracts/ExoSupermarche.sol\":885:886  p */\n      dup1\n        /* \"contracts/ExoSupermarche.sol\":866:878  productsById */\n      0x02\n        /* \"contracts/ExoSupermarche.sol\":866:882  productsById[id] */\n      0x00\n        /* \"contracts/ExoSupermarche.sol\":879:881  id */\n      dup5\n        /* \"contracts/ExoSupermarche.sol\":866:882  productsById[id] */\n      dup2\n      mstore\n      0x20\n      add\n      swap1\n      dup2\n      mstore\n      0x20\n      add\n      0x00\n      keccak256\n        /* \"contracts/ExoSupermarche.sol\":866:886  productsById[id] = p */\n      0x00\n      dup3\n      add\n      mload\n      dup2\n      0x00\n      add\n      sstore\n      0x20\n      dup3\n      add\n      mload\n      dup2\n      0x01\n      add\n      swap1\n      dup1\n      mload\n      swap1\n      0x20\n      add\n      swap1\n      tag_54\n      swap3\n      swap2\n      swap1\n      tag_48\n      jump\t// in\n    tag_54:\n      pop\n      0x40\n      dup3\n      add\n      mload\n      dup2\n      0x02\n      add\n      exp(0x0100, 0x00)\n      dup2\n      sload\n      dup2\n      0xffff\n      mul\n      not\n      and\n      swap1\n      dup4\n      0x01\n      signextend\n      0xffff\n      and\n      mul\n      or\n      swap1\n      sstore\n      pop\n      swap1\n      pop\n      pop\n        /* \"contracts/ExoSupermarche.sol\":924:925  p */\n      dup1\n        /* \"contracts/ExoSupermarche.sol\":897:911  productsByName */\n      0x03\n        /* \"contracts/ExoSupermarche.sol\":912:920  _libelle */\n      dup6\n        /* \"contracts/ExoSupermarche.sol\":897:921  productsByName[_libelle] */\n      mload(0x40)\n      tag_55\n      swap2\n      swap1\n      tag_56\n      jump\t// in\n    tag_55:\n      swap1\n      dup2\n      mstore\n      0x20\n      add\n      mload(0x40)\n      dup1\n      swap2\n      sub\n      swap1\n      keccak256\n        /* \"contracts/ExoSupermarche.sol\":897:925  productsByName[_libelle] = p */\n      0x00\n      dup3\n      add\n      mload\n      dup2\n      0x00\n      add\n      sstore\n      0x20\n      dup3\n      add\n      mload\n      dup2\n      0x01\n      add\n      swap1\n      dup1\n      mload\n      swap1\n      0x20\n      add\n      swap1\n      tag_57\n      swap3\n      swap2\n      swap1\n      tag_48\n      jump\t// in\n    tag_57:\n      pop\n      0x40\n      dup3\n      add\n      mload\n      dup2\n      0x02\n      add\n      exp(0x0100, 0x00)\n      dup2\n      sload\n      dup2\n      0xffff\n      mul\n      not\n      and\n      swap1\n      dup4\n      0x01\n      signextend\n      0xffff\n      and\n      mul\n      or\n      swap1\n      sstore\n      pop\n      swap1\n      pop\n      pop\n        /* \"contracts/ExoSupermarche.sol\":679:933  {\r... */\n      pop\n      pop\n        /* \"contracts/ExoSupermarche.sol\":612:933  function createProduit(string memory _libelle, int16 _prix) public {\r... */\n      pop\n      pop\n      jump\t// out\n        /* \"contracts/ExoSupermarche.sol\":1504:1615  function setProductInfoPrice(uint _id, int16 _price) public {\r... */\n    tag_24:\n        /* \"contracts/ExoSupermarche.sol\":1601:1607  _price */\n      dup1\n        /* \"contracts/ExoSupermarche.sol\":1575:1587  productsById */\n      0x02\n        /* \"contracts/ExoSupermarche.sol\":1575:1592  productsById[_id] */\n      0x00\n        /* \"contracts/ExoSupermarche.sol\":1588:1591  _id */\n      dup5\n        /* \"contracts/ExoSupermarche.sol\":1575:1592  productsById[_id] */\n      dup2\n      mstore\n      0x20\n      add\n      swap1\n      dup2\n      mstore\n      0x20\n      add\n      0x00\n      keccak256\n        /* \"contracts/ExoSupermarche.sol\":1575:1598  productsById[_id].price */\n      0x02\n      add\n      0x00\n        /* \"contracts/ExoSupermarche.sol\":1575:1607  productsById[_id].price = _price */\n      0x0100\n      exp\n      dup2\n      sload\n      dup2\n      0xffff\n      mul\n      not\n      and\n      swap1\n      dup4\n      0x01\n      signextend\n      0xffff\n      and\n      mul\n      or\n      swap1\n      sstore\n      pop\n        /* \"contracts/ExoSupermarche.sol\":1504:1615  function setProductInfoPrice(uint _id, int16 _price) public {\r... */\n      pop\n      pop\n      jump\t// out\n        /* \"contracts/ExoSupermarche.sol\":944:1139  function getProductInfoById(uint _id) public view returns(string memory, int16) {\r... */\n    tag_28:\n        /* \"contracts/ExoSupermarche.sol\":1002:1015  string memory */\n      0x60\n        /* \"contracts/ExoSupermarche.sol\":1017:1022  int16 */\n      0x00\n        /* \"contracts/ExoSupermarche.sol\":1057:1069  productsById */\n      0x02\n        /* \"contracts/ExoSupermarche.sol\":1057:1074  productsById[_id] */\n      0x00\n        /* \"contracts/ExoSupermarche.sol\":1070:1073  _id */\n      dup5\n        /* \"contracts/ExoSupermarche.sol\":1057:1074  productsById[_id] */\n      dup2\n      mstore\n      0x20\n      add\n      swap1\n      dup2\n      mstore\n      0x20\n      add\n      0x00\n      keccak256\n        /* \"contracts/ExoSupermarche.sol\":1057:1082  productsById[_id].libelle */\n      0x01\n      add\n        /* \"contracts/ExoSupermarche.sol\":1097:1109  productsById */\n      0x02\n        /* \"contracts/ExoSupermarche.sol\":1097:1114  productsById[_id] */\n      0x00\n        /* \"contracts/ExoSupermarche.sol\":1110:1113  _id */\n      dup6\n        /* \"contracts/ExoSupermarche.sol\":1097:1114  productsById[_id] */\n      dup2\n      mstore\n      0x20\n      add\n      swap1\n      dup2\n      mstore\n      0x20\n      add\n      0x00\n      keccak256\n        /* \"contracts/ExoSupermarche.sol\":1097:1120  productsById[_id].price */\n      0x02\n      add\n      0x00\n      swap1\n      sload\n      swap1\n      0x0100\n      exp\n      swap1\n      div\n      0x01\n      signextend\n        /* \"contracts/ExoSupermarche.sol\":1035:1131  return (\r... */\n      dup2\n      dup1\n      sload\n      tag_60\n      swap1\n      tag_41\n      jump\t// in\n    tag_60:\n      dup1\n      0x1f\n      add\n      0x20\n      dup1\n      swap2\n      div\n      mul\n      0x20\n      add\n      mload(0x40)\n      swap1\n      dup2\n      add\n      0x40\n      mstore\n      dup1\n      swap3\n      swap2\n      swap1\n      dup2\n      dup2\n      mstore\n      0x20\n      add\n      dup3\n      dup1\n      sload\n      tag_61\n      swap1\n      tag_41\n      jump\t// in\n    tag_61:\n      dup1\n      iszero\n      tag_62\n      jumpi\n      dup1\n      0x1f\n      lt\n      tag_63\n      jumpi\n      0x0100\n      dup1\n      dup4\n      sload\n      div\n      mul\n      dup4\n      mstore\n      swap2\n      0x20\n      add\n      swap2\n      jump(tag_62)\n    tag_63:\n      dup3\n      add\n      swap2\n      swap1\n      0x00\n      mstore\n      keccak256(0x00, 0x20)\n      swap1\n    tag_64:\n      dup2\n      sload\n      dup2\n      mstore\n      swap1\n      0x01\n      add\n      swap1\n      0x20\n      add\n      dup1\n      dup4\n      gt\n      tag_64\n      jumpi\n      dup3\n      swap1\n      sub\n      0x1f\n      and\n      dup3\n      add\n      swap2\n    tag_62:\n      pop\n      pop\n      pop\n      pop\n      pop\n      swap2\n      pop\n      swap2\n      pop\n      swap2\n      pop\n        /* \"contracts/ExoSupermarche.sol\":944:1139  function getProductInfoById(uint _id) public view returns(string memory, int16) {\r... */\n      swap2\n      pop\n      swap2\n      jump\t// out\n        /* \"contracts/ExoSupermarche.sol\":1148:1364  function getProductInfoByName(string memory _name) public view returns(string memory, int16) {\r... */\n    tag_34:\n        /* \"contracts/ExoSupermarche.sol\":1219:1232  string memory */\n      0x60\n        /* \"contracts/ExoSupermarche.sol\":1234:1239  int16 */\n      0x00\n        /* \"contracts/ExoSupermarche.sol\":1274:1288  productsByName */\n      0x03\n        /* \"contracts/ExoSupermarche.sol\":1289:1294  _name */\n      dup4\n        /* \"contracts/ExoSupermarche.sol\":1274:1295  productsByName[_name] */\n      mload(0x40)\n      tag_66\n      swap2\n      swap1\n      tag_56\n      jump\t// in\n    tag_66:\n      swap1\n      dup2\n      mstore\n      0x20\n      add\n      mload(0x40)\n      dup1\n      swap2\n      sub\n      swap1\n      keccak256\n        /* \"contracts/ExoSupermarche.sol\":1274:1303  productsByName[_name].libelle */\n      0x01\n      add\n        /* \"contracts/ExoSupermarche.sol\":1318:1332  productsByName */\n      0x03\n        /* \"contracts/ExoSupermarche.sol\":1333:1338  _name */\n      dup5\n        /* \"contracts/ExoSupermarche.sol\":1318:1339  productsByName[_name] */\n      mload(0x40)\n      tag_67\n      swap2\n      swap1\n      tag_56\n      jump\t// in\n    tag_67:\n      swap1\n      dup2\n      mstore\n      0x20\n      add\n      mload(0x40)\n      dup1\n      swap2\n      sub\n      swap1\n      keccak256\n        /* \"contracts/ExoSupermarche.sol\":1318:1345  productsByName[_name].price */\n      0x02\n      add\n      0x00\n      swap1\n      sload\n      swap1\n      0x0100\n      exp\n      swap1\n      div\n      0x01\n      signextend\n        /* \"contracts/ExoSupermarche.sol\":1252:1356  return (\r... */\n      dup2\n      dup1\n      sload\n      tag_68\n      swap1\n      tag_41\n      jump\t// in\n    tag_68:\n      dup1\n      0x1f\n      add\n      0x20\n      dup1\n      swap2\n      div\n      mul\n      0x20\n      add\n      mload(0x40)\n      swap1\n      dup2\n      add\n      0x40\n      mstore\n      dup1\n      swap3\n      swap2\n      swap1\n      dup2\n      dup2\n      mstore\n      0x20\n      add\n      dup3\n      dup1\n      sload\n      tag_69\n      swap1\n      tag_41\n      jump\t// in\n    tag_69:\n      dup1\n      iszero\n      tag_70\n      jumpi\n      dup1\n      0x1f\n      lt\n      tag_71\n      jumpi\n      0x0100\n      dup1\n      dup4\n      sload\n      div\n      mul\n      dup4\n      mstore\n      swap2\n      0x20\n      add\n      swap2\n      jump(tag_70)\n    tag_71:\n      dup3\n      add\n      swap2\n      swap1\n      0x00\n      mstore\n      keccak256(0x00, 0x20)\n      swap1\n    tag_72:\n      dup2\n      sload\n      dup2\n      mstore\n      swap1\n      0x01\n      add\n      swap1\n      0x20\n      add\n      dup1\n      dup4\n      gt\n      tag_72\n      jumpi\n      dup3\n      swap1\n      sub\n      0x1f\n      and\n      dup3\n      add\n      swap2\n    tag_70:\n      pop\n      pop\n      pop\n      pop\n      pop\n      swap2\n      pop\n      swap2\n      pop\n      swap2\n      pop\n        /* \"contracts/ExoSupermarche.sol\":1148:1364  function getProductInfoByName(string memory _name) public view returns(string memory, int16) {\r... */\n      swap2\n      pop\n      swap2\n      jump\t// out\n    tag_48:\n      dup3\n      dup1\n      sload\n      tag_73\n      swap1\n      tag_41\n      jump\t// in\n    tag_73:\n      swap1\n      0x00\n      mstore\n      keccak256(0x00, 0x20)\n      swap1\n      0x1f\n      add\n      0x20\n      swap1\n      div\n      dup2\n      add\n      swap3\n      dup3\n      tag_75\n      jumpi\n      0x00\n      dup6\n      sstore\n      jump(tag_74)\n    tag_75:\n      dup3\n      0x1f\n      lt\n      tag_76\n      jumpi\n      dup1\n      mload\n      not(0xff)\n      and\n      dup4\n      dup1\n      add\n      or\n      dup6\n      sstore\n      jump(tag_74)\n    tag_76:\n      dup3\n      dup1\n      add\n      0x01\n      add\n      dup6\n      sstore\n      dup3\n      iszero\n      tag_74\n      jumpi\n      swap2\n      dup3\n      add\n    tag_77:\n      dup3\n      dup2\n      gt\n      iszero\n      tag_78\n      jumpi\n      dup3\n      mload\n      dup3\n      sstore\n      swap2\n      0x20\n      add\n      swap2\n      swap1\n      0x01\n      add\n      swap1\n      jump(tag_77)\n    tag_78:\n    tag_74:\n      pop\n      swap1\n      pop\n      tag_79\n      swap2\n      swap1\n      tag_80\n      jump\t// in\n    tag_79:\n      pop\n      swap1\n      jump\t// out\n    tag_80:\n    tag_81:\n      dup1\n      dup3\n      gt\n      iszero\n      tag_82\n      jumpi\n      0x00\n      dup2\n      0x00\n      swap1\n      sstore\n      pop\n      0x01\n      add\n      jump(tag_81)\n    tag_82:\n      pop\n      swap1\n      jump\t// out\n        /* \"#utility.yul\":7:419   */\n    tag_84:\n        /* \"#utility.yul\":85:90   */\n      0x00\n        /* \"#utility.yul\":110:176   */\n      tag_86\n        /* \"#utility.yul\":126:175   */\n      tag_87\n        /* \"#utility.yul\":168:174   */\n      dup5\n        /* \"#utility.yul\":126:175   */\n      tag_88\n      jump\t// in\n    tag_87:\n        /* \"#utility.yul\":110:176   */\n      tag_89\n      jump\t// in\n    tag_86:\n        /* \"#utility.yul\":101:176   */\n      swap1\n      pop\n        /* \"#utility.yul\":199:205   */\n      dup3\n        /* \"#utility.yul\":192:197   */\n      dup2\n        /* \"#utility.yul\":185:206   */\n      mstore\n        /* \"#utility.yul\":237:241   */\n      0x20\n        /* \"#utility.yul\":230:235   */\n      dup2\n        /* \"#utility.yul\":226:242   */\n      add\n        /* \"#utility.yul\":275:278   */\n      dup5\n        /* \"#utility.yul\":266:272   */\n      dup5\n        /* \"#utility.yul\":261:264   */\n      dup5\n        /* \"#utility.yul\":257:273   */\n      add\n        /* \"#utility.yul\":254:279   */\n      gt\n        /* \"#utility.yul\":251:363   */\n      iszero\n      tag_90\n      jumpi\n        /* \"#utility.yul\":282:361   */\n      tag_91\n      tag_92\n      jump\t// in\n    tag_91:\n        /* \"#utility.yul\":251:363   */\n    tag_90:\n        /* \"#utility.yul\":372:413   */\n      tag_93\n        /* \"#utility.yul\":406:412   */\n      dup5\n        /* \"#utility.yul\":401:404   */\n      dup3\n        /* \"#utility.yul\":396:399   */\n      dup6\n        /* \"#utility.yul\":372:413   */\n      tag_94\n      jump\t// in\n    tag_93:\n        /* \"#utility.yul\":91:419   */\n      pop\n        /* \"#utility.yul\":7:419   */\n      swap4\n      swap3\n      pop\n      pop\n      pop\n      jump\t// out\n        /* \"#utility.yul\":425:560   */\n    tag_95:\n        /* \"#utility.yul\":469:474   */\n      0x00\n        /* \"#utility.yul\":507:513   */\n      dup2\n        /* \"#utility.yul\":494:514   */\n      calldataload\n        /* \"#utility.yul\":485:514   */\n      swap1\n      pop\n        /* \"#utility.yul\":523:554   */\n      tag_97\n        /* \"#utility.yul\":548:553   */\n      dup2\n        /* \"#utility.yul\":523:554   */\n      tag_98\n      jump\t// in\n    tag_97:\n        /* \"#utility.yul\":425:560   */\n      swap3\n      swap2\n      pop\n      pop\n      jump\t// out\n        /* \"#utility.yul\":580:920   */\n    tag_99:\n        /* \"#utility.yul\":636:641   */\n      0x00\n        /* \"#utility.yul\":685:688   */\n      dup3\n        /* \"#utility.yul\":678:682   */\n      0x1f\n        /* \"#utility.yul\":670:676   */\n      dup4\n        /* \"#utility.yul\":666:683   */\n      add\n        /* \"#utility.yul\":662:689   */\n      slt\n        /* \"#utility.yul\":652:774   */\n      tag_101\n      jumpi\n        /* \"#utility.yul\":693:772   */\n      tag_102\n      tag_103\n      jump\t// in\n    tag_102:\n        /* \"#utility.yul\":652:774   */\n    tag_101:\n        /* \"#utility.yul\":810:816   */\n      dup2\n        /* \"#utility.yul\":797:817   */\n      calldataload\n        /* \"#utility.yul\":835:914   */\n      tag_104\n        /* \"#utility.yul\":910:913   */\n      dup5\n        /* \"#utility.yul\":902:908   */\n      dup3\n        /* \"#utility.yul\":895:899   */\n      0x20\n        /* \"#utility.yul\":887:893   */\n      dup7\n        /* \"#utility.yul\":883:900   */\n      add\n        /* \"#utility.yul\":835:914   */\n      tag_84\n      jump\t// in\n    tag_104:\n        /* \"#utility.yul\":826:914   */\n      swap2\n      pop\n        /* \"#utility.yul\":642:920   */\n      pop\n        /* \"#utility.yul\":580:920   */\n      swap3\n      swap2\n      pop\n      pop\n      jump\t// out\n        /* \"#utility.yul\":926:1065   */\n    tag_105:\n        /* \"#utility.yul\":972:977   */\n      0x00\n        /* \"#utility.yul\":1010:1016   */\n      dup2\n        /* \"#utility.yul\":997:1017   */\n      calldataload\n        /* \"#utility.yul\":988:1017   */\n      swap1\n      pop\n        /* \"#utility.yul\":1026:1059   */\n      tag_107\n        /* \"#utility.yul\":1053:1058   */\n      dup2\n        /* \"#utility.yul\":1026:1059   */\n      tag_108\n      jump\t// in\n    tag_107:\n        /* \"#utility.yul\":926:1065   */\n      swap3\n      swap2\n      pop\n      pop\n      jump\t// out\n        /* \"#utility.yul\":1071:1580   */\n    tag_33:\n        /* \"#utility.yul\":1140:1146   */\n      0x00\n        /* \"#utility.yul\":1189:1191   */\n      0x20\n        /* \"#utility.yul\":1177:1186   */\n      dup3\n        /* \"#utility.yul\":1168:1175   */\n      dup5\n        /* \"#utility.yul\":1164:1187   */\n      sub\n        /* \"#utility.yul\":1160:1192   */\n      slt\n        /* \"#utility.yul\":1157:1276   */\n      iszero\n      tag_110\n      jumpi\n        /* \"#utility.yul\":1195:1274   */\n      tag_111\n      tag_112\n      jump\t// in\n    tag_111:\n        /* \"#utility.yul\":1157:1276   */\n    tag_110:\n        /* \"#utility.yul\":1343:1344   */\n      0x00\n        /* \"#utility.yul\":1332:1341   */\n      dup3\n        /* \"#utility.yul\":1328:1345   */\n      add\n        /* \"#utility.yul\":1315:1346   */\n      calldataload\n        /* \"#utility.yul\":1373:1391   */\n      0xffffffffffffffff\n        /* \"#utility.yul\":1365:1371   */\n      dup2\n        /* \"#utility.yul\":1362:1392   */\n      gt\n        /* \"#utility.yul\":1359:1476   */\n      iszero\n      tag_113\n      jumpi\n        /* \"#utility.yul\":1395:1474   */\n      tag_114\n      tag_115\n      jump\t// in\n    tag_114:\n        /* \"#utility.yul\":1359:1476   */\n    tag_113:\n        /* \"#utility.yul\":1500:1563   */\n      tag_116\n        /* \"#utility.yul\":1555:1562   */\n      dup5\n        /* \"#utility.yul\":1546:1552   */\n      dup3\n        /* \"#utility.yul\":1535:1544   */\n      dup6\n        /* \"#utility.yul\":1531:1553   */\n      add\n        /* \"#utility.yul\":1500:1563   */\n      tag_99\n      jump\t// in\n    tag_116:\n        /* \"#utility.yul\":1490:1563   */\n      swap2\n      pop\n        /* \"#utility.yul\":1286:1573   */\n      pop\n        /* \"#utility.yul\":1071:1580   */\n      swap3\n      swap2\n      pop\n      pop\n      jump\t// out\n        /* \"#utility.yul\":1586:2236   */\n    tag_19:\n        /* \"#utility.yul\":1662:1668   */\n      0x00\n        /* \"#utility.yul\":1670:1676   */\n      dup1\n        /* \"#utility.yul\":1719:1721   */\n      0x40\n        /* \"#utility.yul\":1707:1716   */\n      dup4\n        /* \"#utility.yul\":1698:1705   */\n      dup6\n        /* \"#utility.yul\":1694:1717   */\n      sub\n        /* \"#utility.yul\":1690:1722   */\n      slt\n        /* \"#utility.yul\":1687:1806   */\n      iszero\n      tag_118\n      jumpi\n        /* \"#utility.yul\":1725:1804   */\n      tag_119\n      tag_112\n      jump\t// in\n    tag_119:\n        /* \"#utility.yul\":1687:1806   */\n    tag_118:\n        /* \"#utility.yul\":1873:1874   */\n      0x00\n        /* \"#utility.yul\":1862:1871   */\n      dup4\n        /* \"#utility.yul\":1858:1875   */\n      add\n        /* \"#utility.yul\":1845:1876   */\n      calldataload\n        /* \"#utility.yul\":1903:1921   */\n      0xffffffffffffffff\n        /* \"#utility.yul\":1895:1901   */\n      dup2\n        /* \"#utility.yul\":1892:1922   */\n      gt\n        /* \"#utility.yul\":1889:2006   */\n      iszero\n      tag_120\n      jumpi\n        /* \"#utility.yul\":1925:2004   */\n      tag_121\n      tag_115\n      jump\t// in\n    tag_121:\n        /* \"#utility.yul\":1889:2006   */\n    tag_120:\n        /* \"#utility.yul\":2030:2093   */\n      tag_122\n        /* \"#utility.yul\":2085:2092   */\n      dup6\n        /* \"#utility.yul\":2076:2082   */\n      dup3\n        /* \"#utility.yul\":2065:2074   */\n      dup7\n        /* \"#utility.yul\":2061:2083   */\n      add\n        /* \"#utility.yul\":2030:2093   */\n      tag_99\n      jump\t// in\n    tag_122:\n        /* \"#utility.yul\":2020:2093   */\n      swap3\n      pop\n        /* \"#utility.yul\":1816:2103   */\n      pop\n        /* \"#utility.yul\":2142:2144   */\n      0x20\n        /* \"#utility.yul\":2168:2219   */\n      tag_123\n        /* \"#utility.yul\":2211:2218   */\n      dup6\n        /* \"#utility.yul\":2202:2208   */\n      dup3\n        /* \"#utility.yul\":2191:2200   */\n      dup7\n        /* \"#utility.yul\":2187:2209   */\n      add\n        /* \"#utility.yul\":2168:2219   */\n      tag_95\n      jump\t// in\n    tag_123:\n        /* \"#utility.yul\":2158:2219   */\n      swap2\n      pop\n        /* \"#utility.yul\":2113:2229   */\n      pop\n        /* \"#utility.yul\":1586:2236   */\n      swap3\n      pop\n      swap3\n      swap1\n      pop\n      jump\t// out\n        /* \"#utility.yul\":2242:2571   */\n    tag_27:\n        /* \"#utility.yul\":2301:2307   */\n      0x00\n        /* \"#utility.yul\":2350:2352   */\n      0x20\n        /* \"#utility.yul\":2338:2347   */\n      dup3\n        /* \"#utility.yul\":2329:2336   */\n      dup5\n        /* \"#utility.yul\":2325:2348   */\n      sub\n        /* \"#utility.yul\":2321:2353   */\n      slt\n        /* \"#utility.yul\":2318:2437   */\n      iszero\n      tag_125\n      jumpi\n        /* \"#utility.yul\":2356:2435   */\n      tag_126\n      tag_112\n      jump\t// in\n    tag_126:\n        /* \"#utility.yul\":2318:2437   */\n    tag_125:\n        /* \"#utility.yul\":2476:2477   */\n      0x00\n        /* \"#utility.yul\":2501:2554   */\n      tag_127\n        /* \"#utility.yul\":2546:2553   */\n      dup5\n        /* \"#utility.yul\":2537:2543   */\n      dup3\n        /* \"#utility.yul\":2526:2535   */\n      dup6\n        /* \"#utility.yul\":2522:2544   */\n      add\n        /* \"#utility.yul\":2501:2554   */\n      tag_105\n      jump\t// in\n    tag_127:\n        /* \"#utility.yul\":2491:2554   */\n      swap2\n      pop\n        /* \"#utility.yul\":2447:2564   */\n      pop\n        /* \"#utility.yul\":2242:2571   */\n      swap3\n      swap2\n      pop\n      pop\n      jump\t// out\n        /* \"#utility.yul\":2577:3047   */\n    tag_23:\n        /* \"#utility.yul\":2643:2649   */\n      0x00\n        /* \"#utility.yul\":2651:2657   */\n      dup1\n        /* \"#utility.yul\":2700:2702   */\n      0x40\n        /* \"#utility.yul\":2688:2697   */\n      dup4\n        /* \"#utility.yul\":2679:2686   */\n      dup6\n        /* \"#utility.yul\":2675:2698   */\n      sub\n        /* \"#utility.yul\":2671:2703   */\n      slt\n        /* \"#utility.yul\":2668:2787   */\n      iszero\n      tag_129\n      jumpi\n        /* \"#utility.yul\":2706:2785   */\n      tag_130\n      tag_112\n      jump\t// in\n    tag_130:\n        /* \"#utility.yul\":2668:2787   */\n    tag_129:\n        /* \"#utility.yul\":2826:2827   */\n      0x00\n        /* \"#utility.yul\":2851:2904   */\n      tag_131\n        /* \"#utility.yul\":2896:2903   */\n      dup6\n        /* \"#utility.yul\":2887:2893   */\n      dup3\n        /* \"#utility.yul\":2876:2885   */\n      dup7\n        /* \"#utility.yul\":2872:2894   */\n      add\n        /* \"#utility.yul\":2851:2904   */\n      tag_105\n      jump\t// in\n    tag_131:\n        /* \"#utility.yul\":2841:2904   */\n      swap3\n      pop\n        /* \"#utility.yul\":2797:2914   */\n      pop\n        /* \"#utility.yul\":2953:2955   */\n      0x20\n        /* \"#utility.yul\":2979:3030   */\n      tag_132\n        /* \"#utility.yul\":3022:3029   */\n      dup6\n        /* \"#utility.yul\":3013:3019   */\n      dup3\n        /* \"#utility.yul\":3002:3011   */\n      dup7\n        /* \"#utility.yul\":2998:3020   */\n      add\n        /* \"#utility.yul\":2979:3030   */\n      tag_95\n      jump\t// in\n    tag_132:\n        /* \"#utility.yul\":2969:3030   */\n      swap2\n      pop\n        /* \"#utility.yul\":2924:3040   */\n      pop\n        /* \"#utility.yul\":2577:3047   */\n      swap3\n      pop\n      swap3\n      swap1\n      pop\n      jump\t// out\n        /* \"#utility.yul\":3053:3707   */\n    tag_15:\n        /* \"#utility.yul\":3131:3137   */\n      0x00\n        /* \"#utility.yul\":3139:3145   */\n      dup1\n        /* \"#utility.yul\":3188:3190   */\n      0x40\n        /* \"#utility.yul\":3176:3185   */\n      dup4\n        /* \"#utility.yul\":3167:3174   */\n      dup6\n        /* \"#utility.yul\":3163:3186   */\n      sub\n        /* \"#utility.yul\":3159:3191   */\n      slt\n        /* \"#utility.yul\":3156:3275   */\n      iszero\n      tag_134\n      jumpi\n        /* \"#utility.yul\":3194:3273   */\n      tag_135\n      tag_112\n      jump\t// in\n    tag_135:\n        /* \"#utility.yul\":3156:3275   */\n    tag_134:\n        /* \"#utility.yul\":3314:3315   */\n      0x00\n        /* \"#utility.yul\":3339:3392   */\n      tag_136\n        /* \"#utility.yul\":3384:3391   */\n      dup6\n        /* \"#utility.yul\":3375:3381   */\n      dup3\n        /* \"#utility.yul\":3364:3373   */\n      dup7\n        /* \"#utility.yul\":3360:3382   */\n      add\n        /* \"#utility.yul\":3339:3392   */\n      tag_105\n      jump\t// in\n    tag_136:\n        /* \"#utility.yul\":3329:3392   */\n      swap3\n      pop\n        /* \"#utility.yul\":3285:3402   */\n      pop\n        /* \"#utility.yul\":3469:3471   */\n      0x20\n        /* \"#utility.yul\":3458:3467   */\n      dup4\n        /* \"#utility.yul\":3454:3472   */\n      add\n        /* \"#utility.yul\":3441:3473   */\n      calldataload\n        /* \"#utility.yul\":3500:3518   */\n      0xffffffffffffffff\n        /* \"#utility.yul\":3492:3498   */\n      dup2\n        /* \"#utility.yul\":3489:3519   */\n      gt\n        /* \"#utility.yul\":3486:3603   */\n      iszero\n      tag_137\n      jumpi\n        /* \"#utility.yul\":3522:3601   */\n      tag_138\n      tag_115\n      jump\t// in\n    tag_138:\n        /* \"#utility.yul\":3486:3603   */\n    tag_137:\n        /* \"#utility.yul\":3627:3690   */\n      tag_139\n        /* \"#utility.yul\":3682:3689   */\n      dup6\n        /* \"#utility.yul\":3673:3679   */\n      dup3\n        /* \"#utility.yul\":3662:3671   */\n      dup7\n        /* \"#utility.yul\":3658:3680   */\n      add\n        /* \"#utility.yul\":3627:3690   */\n      tag_99\n      jump\t// in\n    tag_139:\n        /* \"#utility.yul\":3617:3690   */\n      swap2\n      pop\n        /* \"#utility.yul\":3412:3700   */\n      pop\n        /* \"#utility.yul\":3053:3707   */\n      swap3\n      pop\n      swap3\n      swap1\n      pop\n      jump\t// out\n        /* \"#utility.yul\":3713:3977   */\n    tag_140:\n        /* \"#utility.yul\":3836:3846   */\n      0x00\n        /* \"#utility.yul\":3871:3971   */\n      tag_142\n        /* \"#utility.yul\":3967:3970   */\n      dup4\n        /* \"#utility.yul\":3959:3965   */\n      dup4\n        /* \"#utility.yul\":3871:3971   */\n      tag_143\n      jump\t// in\n    tag_142:\n        /* \"#utility.yul\":3857:3971   */\n      swap1\n      pop\n        /* \"#utility.yul\":3713:3977   */\n      swap3\n      swap2\n      pop\n      pop\n      jump\t// out\n        /* \"#utility.yul\":4059:5186   */\n    tag_144:\n        /* \"#utility.yul\":4232:4235   */\n      0x00\n        /* \"#utility.yul\":4261:4342   */\n      tag_146\n        /* \"#utility.yul\":4336:4341   */\n      dup3\n        /* \"#utility.yul\":4261:4342   */\n      tag_147\n      jump\t// in\n    tag_146:\n        /* \"#utility.yul\":4358:4471   */\n      tag_148\n        /* \"#utility.yul\":4464:4470   */\n      dup2\n        /* \"#utility.yul\":4459:4462   */\n      dup6\n        /* \"#utility.yul\":4358:4471   */\n      tag_149\n      jump\t// in\n    tag_148:\n        /* \"#utility.yul\":4351:4471   */\n      swap4\n      pop\n        /* \"#utility.yul\":4497:4500   */\n      dup4\n        /* \"#utility.yul\":4542:4546   */\n      0x20\n        /* \"#utility.yul\":4534:4540   */\n      dup3\n        /* \"#utility.yul\":4530:4547   */\n      mul\n        /* \"#utility.yul\":4525:4528   */\n      dup6\n        /* \"#utility.yul\":4521:4548   */\n      add\n        /* \"#utility.yul\":4572:4655   */\n      tag_150\n        /* \"#utility.yul\":4649:4654   */\n      dup6\n        /* \"#utility.yul\":4572:4655   */\n      tag_151\n      jump\t// in\n    tag_150:\n        /* \"#utility.yul\":4678:4685   */\n      dup1\n        /* \"#utility.yul\":4709:4710   */\n      0x00\n        /* \"#utility.yul\":4694:5141   */\n    tag_152:\n        /* \"#utility.yul\":4719:4725   */\n      dup6\n        /* \"#utility.yul\":4716:4717   */\n      dup2\n        /* \"#utility.yul\":4713:4726   */\n      lt\n        /* \"#utility.yul\":4694:5141   */\n      iszero\n      tag_154\n      jumpi\n        /* \"#utility.yul\":4790:4799   */\n      dup5\n        /* \"#utility.yul\":4784:4788   */\n      dup5\n        /* \"#utility.yul\":4780:4800   */\n      sub\n        /* \"#utility.yul\":4775:4778   */\n      dup10\n        /* \"#utility.yul\":4768:4801   */\n      mstore\n        /* \"#utility.yul\":4841:4847   */\n      dup2\n        /* \"#utility.yul\":4835:4848   */\n      mload\n        /* \"#utility.yul\":4869:4987   */\n      tag_155\n        /* \"#utility.yul\":4982:4986   */\n      dup6\n        /* \"#utility.yul\":4967:4980   */\n      dup3\n        /* \"#utility.yul\":4869:4987   */\n      tag_140\n      jump\t// in\n    tag_155:\n        /* \"#utility.yul\":4861:4987   */\n      swap5\n      pop\n        /* \"#utility.yul\":5010:5097   */\n      tag_156\n        /* \"#utility.yul\":5090:5096   */\n      dup4\n        /* \"#utility.yul\":5010:5097   */\n      tag_157\n      jump\t// in\n    tag_156:\n        /* \"#utility.yul\":5000:5097   */\n      swap3\n      pop\n        /* \"#utility.yul\":5126:5130   */\n      0x20\n        /* \"#utility.yul\":5121:5124   */\n      dup11\n        /* \"#utility.yul\":5117:5131   */\n      add\n        /* \"#utility.yul\":5110:5131   */\n      swap10\n      pop\n        /* \"#utility.yul\":4754:5141   */\n      pop\n        /* \"#utility.yul\":4741:4742   */\n      0x01\n        /* \"#utility.yul\":4738:4739   */\n      dup2\n        /* \"#utility.yul\":4734:4743   */\n      add\n        /* \"#utility.yul\":4729:4743   */\n      swap1\n      pop\n        /* \"#utility.yul\":4694:5141   */\n      jump(tag_152)\n    tag_154:\n        /* \"#utility.yul\":4698:4712   */\n      pop\n        /* \"#utility.yul\":5157:5161   */\n      dup3\n        /* \"#utility.yul\":5150:5161   */\n      swap8\n      pop\n        /* \"#utility.yul\":5177:5180   */\n      dup8\n        /* \"#utility.yul\":5170:5180   */\n      swap6\n      pop\n        /* \"#utility.yul\":4237:5186   */\n      pop\n      pop\n      pop\n      pop\n      pop\n        /* \"#utility.yul\":4059:5186   */\n      swap3\n      swap2\n      pop\n      pop\n      jump\t// out\n        /* \"#utility.yul\":5192:5294   */\n    tag_158:\n        /* \"#utility.yul\":5265:5287   */\n      tag_160\n        /* \"#utility.yul\":5281:5286   */\n      dup2\n        /* \"#utility.yul\":5265:5287   */\n      tag_161\n      jump\t// in\n    tag_160:\n        /* \"#utility.yul\":5260:5263   */\n      dup3\n        /* \"#utility.yul\":5253:5288   */\n      mstore\n        /* \"#utility.yul\":5192:5294   */\n      pop\n      pop\n      jump\t// out\n        /* \"#utility.yul\":5300:5412   */\n    tag_162:\n        /* \"#utility.yul\":5383:5405   */\n      tag_164\n        /* \"#utility.yul\":5399:5404   */\n      dup2\n        /* \"#utility.yul\":5383:5405   */\n      tag_161\n      jump\t// in\n    tag_164:\n        /* \"#utility.yul\":5378:5381   */\n      dup3\n        /* \"#utility.yul\":5371:5406   */\n      mstore\n        /* \"#utility.yul\":5300:5412   */\n      pop\n      pop\n      jump\t// out\n        /* \"#utility.yul\":5418:5762   */\n    tag_165:\n        /* \"#utility.yul\":5496:5499   */\n      0x00\n        /* \"#utility.yul\":5524:5563   */\n      tag_167\n        /* \"#utility.yul\":5557:5562   */\n      dup3\n        /* \"#utility.yul\":5524:5563   */\n      tag_168\n      jump\t// in\n    tag_167:\n        /* \"#utility.yul\":5579:5640   */\n      tag_169\n        /* \"#utility.yul\":5633:5639   */\n      dup2\n        /* \"#utility.yul\":5628:5631   */\n      dup6\n        /* \"#utility.yul\":5579:5640   */\n      tag_170\n      jump\t// in\n    tag_169:\n        /* \"#utility.yul\":5572:5640   */\n      swap4\n      pop\n        /* \"#utility.yul\":5649:5701   */\n      tag_171\n        /* \"#utility.yul\":5694:5700   */\n      dup2\n        /* \"#utility.yul\":5689:5692   */\n      dup6\n        /* \"#utility.yul\":5682:5686   */\n      0x20\n        /* \"#utility.yul\":5675:5680   */\n      dup7\n        /* \"#utility.yul\":5671:5687   */\n      add\n        /* \"#utility.yul\":5649:5701   */\n      tag_172\n      jump\t// in\n    tag_171:\n        /* \"#utility.yul\":5726:5755   */\n      tag_173\n        /* \"#utility.yul\":5748:5754   */\n      dup2\n        /* \"#utility.yul\":5726:5755   */\n      tag_174\n      jump\t// in\n    tag_173:\n        /* \"#utility.yul\":5721:5724   */\n      dup5\n        /* \"#utility.yul\":5717:5756   */\n      add\n        /* \"#utility.yul\":5710:5756   */\n      swap2\n      pop\n        /* \"#utility.yul\":5500:5762   */\n      pop\n        /* \"#utility.yul\":5418:5762   */\n      swap3\n      swap2\n      pop\n      pop\n      jump\t// out\n        /* \"#utility.yul\":5768:6132   */\n    tag_175:\n        /* \"#utility.yul\":5856:5859   */\n      0x00\n        /* \"#utility.yul\":5884:5923   */\n      tag_177\n        /* \"#utility.yul\":5917:5922   */\n      dup3\n        /* \"#utility.yul\":5884:5923   */\n      tag_168\n      jump\t// in\n    tag_177:\n        /* \"#utility.yul\":5939:6010   */\n      tag_178\n        /* \"#utility.yul\":6003:6009   */\n      dup2\n        /* \"#utility.yul\":5998:6001   */\n      dup6\n        /* \"#utility.yul\":5939:6010   */\n      tag_179\n      jump\t// in\n    tag_178:\n        /* \"#utility.yul\":5932:6010   */\n      swap4\n      pop\n        /* \"#utility.yul\":6019:6071   */\n      tag_180\n        /* \"#utility.yul\":6064:6070   */\n      dup2\n        /* \"#utility.yul\":6059:6062   */\n      dup6\n        /* \"#utility.yul\":6052:6056   */\n      0x20\n        /* \"#utility.yul\":6045:6050   */\n      dup7\n        /* \"#utility.yul\":6041:6057   */\n      add\n        /* \"#utility.yul\":6019:6071   */\n      tag_172\n      jump\t// in\n    tag_180:\n        /* \"#utility.yul\":6096:6125   */\n      tag_181\n        /* \"#utility.yul\":6118:6124   */\n      dup2\n        /* \"#utility.yul\":6096:6125   */\n      tag_174\n      jump\t// in\n    tag_181:\n        /* \"#utility.yul\":6091:6094   */\n      dup5\n        /* \"#utility.yul\":6087:6126   */\n      add\n        /* \"#utility.yul\":6080:6126   */\n      swap2\n      pop\n        /* \"#utility.yul\":5860:6132   */\n      pop\n        /* \"#utility.yul\":5768:6132   */\n      swap3\n      swap2\n      pop\n      pop\n      jump\t// out\n        /* \"#utility.yul\":6138:6515   */\n    tag_182:\n        /* \"#utility.yul\":6244:6247   */\n      0x00\n        /* \"#utility.yul\":6272:6311   */\n      tag_184\n        /* \"#utility.yul\":6305:6310   */\n      dup3\n        /* \"#utility.yul\":6272:6311   */\n      tag_168\n      jump\t// in\n    tag_184:\n        /* \"#utility.yul\":6327:6416   */\n      tag_185\n        /* \"#utility.yul\":6409:6415   */\n      dup2\n        /* \"#utility.yul\":6404:6407   */\n      dup6\n        /* \"#utility.yul\":6327:6416   */\n      tag_186\n      jump\t// in\n    tag_185:\n        /* \"#utility.yul\":6320:6416   */\n      swap4\n      pop\n        /* \"#utility.yul\":6425:6477   */\n      tag_187\n        /* \"#utility.yul\":6470:6476   */\n      dup2\n        /* \"#utility.yul\":6465:6468   */\n      dup6\n        /* \"#utility.yul\":6458:6462   */\n      0x20\n        /* \"#utility.yul\":6451:6456   */\n      dup7\n        /* \"#utility.yul\":6447:6463   */\n      add\n        /* \"#utility.yul\":6425:6477   */\n      tag_172\n      jump\t// in\n    tag_187:\n        /* \"#utility.yul\":6502:6508   */\n      dup1\n        /* \"#utility.yul\":6497:6500   */\n      dup5\n        /* \"#utility.yul\":6493:6509   */\n      add\n        /* \"#utility.yul\":6486:6509   */\n      swap2\n      pop\n        /* \"#utility.yul\":6248:6515   */\n      pop\n        /* \"#utility.yul\":6138:6515   */\n      swap3\n      swap2\n      pop\n      pop\n      jump\t// out\n        /* \"#utility.yul\":6593:7365   */\n    tag_143:\n        /* \"#utility.yul\":6706:6709   */\n      0x00\n        /* \"#utility.yul\":6742:6746   */\n      0x60\n        /* \"#utility.yul\":6737:6740   */\n      dup4\n        /* \"#utility.yul\":6733:6747   */\n      add\n        /* \"#utility.yul\":6827:6831   */\n      0x00\n        /* \"#utility.yul\":6820:6825   */\n      dup4\n        /* \"#utility.yul\":6816:6832   */\n      add\n        /* \"#utility.yul\":6810:6833   */\n      mload\n        /* \"#utility.yul\":6846:6909   */\n      tag_189\n        /* \"#utility.yul\":6903:6907   */\n      0x00\n        /* \"#utility.yul\":6898:6901   */\n      dup7\n        /* \"#utility.yul\":6894:6908   */\n      add\n        /* \"#utility.yul\":6880:6892   */\n      dup3\n        /* \"#utility.yul\":6846:6909   */\n      tag_190\n      jump\t// in\n    tag_189:\n        /* \"#utility.yul\":6757:6919   */\n      pop\n        /* \"#utility.yul\":7004:7008   */\n      0x20\n        /* \"#utility.yul\":6997:7002   */\n      dup4\n        /* \"#utility.yul\":6993:7009   */\n      add\n        /* \"#utility.yul\":6987:7010   */\n      mload\n        /* \"#utility.yul\":7057:7060   */\n      dup5\n        /* \"#utility.yul\":7051:7055   */\n      dup3\n        /* \"#utility.yul\":7047:7061   */\n      sub\n        /* \"#utility.yul\":7040:7044   */\n      0x20\n        /* \"#utility.yul\":7035:7038   */\n      dup7\n        /* \"#utility.yul\":7031:7045   */\n      add\n        /* \"#utility.yul\":7024:7062   */\n      mstore\n        /* \"#utility.yul\":7083:7156   */\n      tag_191\n        /* \"#utility.yul\":7151:7155   */\n      dup3\n        /* \"#utility.yul\":7137:7149   */\n      dup3\n        /* \"#utility.yul\":7083:7156   */\n      tag_165\n      jump\t// in\n    tag_191:\n        /* \"#utility.yul\":7075:7156   */\n      swap2\n      pop\n        /* \"#utility.yul\":6929:7167   */\n      pop\n        /* \"#utility.yul\":7250:7254   */\n      0x40\n        /* \"#utility.yul\":7243:7248   */\n      dup4\n        /* \"#utility.yul\":7239:7255   */\n      add\n        /* \"#utility.yul\":7233:7256   */\n      mload\n        /* \"#utility.yul\":7269:7328   */\n      tag_192\n        /* \"#utility.yul\":7322:7326   */\n      0x40\n        /* \"#utility.yul\":7317:7320   */\n      dup7\n        /* \"#utility.yul\":7313:7327   */\n      add\n        /* \"#utility.yul\":7299:7311   */\n      dup3\n        /* \"#utility.yul\":7269:7328   */\n      tag_158\n      jump\t// in\n    tag_192:\n        /* \"#utility.yul\":7177:7338   */\n      pop\n        /* \"#utility.yul\":7355:7359   */\n      dup1\n        /* \"#utility.yul\":7348:7359   */\n      swap2\n      pop\n        /* \"#utility.yul\":6711:7365   */\n      pop\n        /* \"#utility.yul\":6593:7365   */\n      swap3\n      swap2\n      pop\n      pop\n      jump\t// out\n        /* \"#utility.yul\":7371:7479   */\n    tag_190:\n        /* \"#utility.yul\":7448:7472   */\n      tag_194\n        /* \"#utility.yul\":7466:7471   */\n      dup2\n        /* \"#utility.yul\":7448:7472   */\n      tag_195\n      jump\t// in\n    tag_194:\n        /* \"#utility.yul\":7443:7446   */\n      dup3\n        /* \"#utility.yul\":7436:7473   */\n      mstore\n        /* \"#utility.yul\":7371:7479   */\n      pop\n      pop\n      jump\t// out\n        /* \"#utility.yul\":7485:7760   */\n    tag_56:\n        /* \"#utility.yul\":7617:7620   */\n      0x00\n        /* \"#utility.yul\":7639:7734   */\n      tag_197\n        /* \"#utility.yul\":7730:7733   */\n      dup3\n        /* \"#utility.yul\":7721:7727   */\n      dup5\n        /* \"#utility.yul\":7639:7734   */\n      tag_182\n      jump\t// in\n    tag_197:\n        /* \"#utility.yul\":7632:7734   */\n      swap2\n      pop\n        /* \"#utility.yul\":7751:7754   */\n      dup2\n        /* \"#utility.yul\":7744:7754   */\n      swap1\n      pop\n        /* \"#utility.yul\":7485:7760   */\n      swap3\n      swap2\n      pop\n      pop\n      jump\t// out\n        /* \"#utility.yul\":7766:8247   */\n    tag_12:\n        /* \"#utility.yul\":7963:7967   */\n      0x00\n        /* \"#utility.yul\":8001:8003   */\n      0x20\n        /* \"#utility.yul\":7990:7999   */\n      dup3\n        /* \"#utility.yul\":7986:8004   */\n      add\n        /* \"#utility.yul\":7978:8004   */\n      swap1\n      pop\n        /* \"#utility.yul\":8050:8059   */\n      dup2\n        /* \"#utility.yul\":8044:8048   */\n      dup2\n        /* \"#utility.yul\":8040:8060   */\n      sub\n        /* \"#utility.yul\":8036:8037   */\n      0x00\n        /* \"#utility.yul\":8025:8034   */\n      dup4\n        /* \"#utility.yul\":8021:8038   */\n      add\n        /* \"#utility.yul\":8014:8061   */\n      mstore\n        /* \"#utility.yul\":8078:8240   */\n      tag_199\n        /* \"#utility.yul\":8235:8239   */\n      dup2\n        /* \"#utility.yul\":8226:8232   */\n      dup5\n        /* \"#utility.yul\":8078:8240   */\n      tag_144\n      jump\t// in\n    tag_199:\n        /* \"#utility.yul\":8070:8240   */\n      swap1\n      pop\n        /* \"#utility.yul\":7766:8247   */\n      swap3\n      swap2\n      pop\n      pop\n      jump\t// out\n        /* \"#utility.yul\":8253:8668   */\n    tag_30:\n        /* \"#utility.yul\":8390:8394   */\n      0x00\n        /* \"#utility.yul\":8428:8430   */\n      0x40\n        /* \"#utility.yul\":8417:8426   */\n      dup3\n        /* \"#utility.yul\":8413:8431   */\n      add\n        /* \"#utility.yul\":8405:8431   */\n      swap1\n      pop\n        /* \"#utility.yul\":8477:8486   */\n      dup2\n        /* \"#utility.yul\":8471:8475   */\n      dup2\n        /* \"#utility.yul\":8467:8487   */\n      sub\n        /* \"#utility.yul\":8463:8464   */\n      0x00\n        /* \"#utility.yul\":8452:8461   */\n      dup4\n        /* \"#utility.yul\":8448:8465   */\n      add\n        /* \"#utility.yul\":8441:8488   */\n      mstore\n        /* \"#utility.yul\":8505:8583   */\n      tag_201\n        /* \"#utility.yul\":8578:8582   */\n      dup2\n        /* \"#utility.yul\":8569:8575   */\n      dup6\n        /* \"#utility.yul\":8505:8583   */\n      tag_175\n      jump\t// in\n    tag_201:\n        /* \"#utility.yul\":8497:8583   */\n      swap1\n      pop\n        /* \"#utility.yul\":8593:8661   */\n      tag_202\n        /* \"#utility.yul\":8657:8659   */\n      0x20\n        /* \"#utility.yul\":8646:8655   */\n      dup4\n        /* \"#utility.yul\":8642:8660   */\n      add\n        /* \"#utility.yul\":8633:8639   */\n      dup5\n        /* \"#utility.yul\":8593:8661   */\n      tag_162\n      jump\t// in\n    tag_202:\n        /* \"#utility.yul\":8253:8668   */\n      swap4\n      swap3\n      pop\n      pop\n      pop\n      jump\t// out\n        /* \"#utility.yul\":8674:8803   */\n    tag_89:\n        /* \"#utility.yul\":8708:8714   */\n      0x00\n        /* \"#utility.yul\":8735:8755   */\n      tag_204\n      tag_205\n      jump\t// in\n    tag_204:\n        /* \"#utility.yul\":8725:8755   */\n      swap1\n      pop\n        /* \"#utility.yul\":8764:8797   */\n      tag_206\n        /* \"#utility.yul\":8792:8796   */\n      dup3\n        /* \"#utility.yul\":8784:8790   */\n      dup3\n        /* \"#utility.yul\":8764:8797   */\n      tag_207\n      jump\t// in\n    tag_206:\n        /* \"#utility.yul\":8674:8803   */\n      swap2\n      swap1\n      pop\n      jump\t// out\n        /* \"#utility.yul\":8809:8884   */\n    tag_205:\n        /* \"#utility.yul\":8842:8848   */\n      0x00\n        /* \"#utility.yul\":8875:8877   */\n      0x40\n        /* \"#utility.yul\":8869:8878   */\n      mload\n        /* \"#utility.yul\":8859:8878   */\n      swap1\n      pop\n        /* \"#utility.yul\":8809:8884   */\n      swap1\n      jump\t// out\n        /* \"#utility.yul\":8890:9198   */\n    tag_88:\n        /* \"#utility.yul\":8952:8956   */\n      0x00\n        /* \"#utility.yul\":9042:9060   */\n      0xffffffffffffffff\n        /* \"#utility.yul\":9034:9040   */\n      dup3\n        /* \"#utility.yul\":9031:9061   */\n      gt\n        /* \"#utility.yul\":9028:9084   */\n      iszero\n      tag_210\n      jumpi\n        /* \"#utility.yul\":9064:9082   */\n      tag_211\n      tag_212\n      jump\t// in\n    tag_211:\n        /* \"#utility.yul\":9028:9084   */\n    tag_210:\n        /* \"#utility.yul\":9102:9131   */\n      tag_213\n        /* \"#utility.yul\":9124:9130   */\n      dup3\n        /* \"#utility.yul\":9102:9131   */\n      tag_174\n      jump\t// in\n    tag_213:\n        /* \"#utility.yul\":9094:9131   */\n      swap1\n      pop\n        /* \"#utility.yul\":9186:9190   */\n      0x20\n        /* \"#utility.yul\":9180:9184   */\n      dup2\n        /* \"#utility.yul\":9176:9191   */\n      add\n        /* \"#utility.yul\":9168:9191   */\n      swap1\n      pop\n        /* \"#utility.yul\":8890:9198   */\n      swap2\n      swap1\n      pop\n      jump\t// out\n        /* \"#utility.yul\":9204:9363   */\n    tag_151:\n        /* \"#utility.yul\":9298:9302   */\n      0x00\n        /* \"#utility.yul\":9321:9324   */\n      dup2\n        /* \"#utility.yul\":9313:9324   */\n      swap1\n      pop\n        /* \"#utility.yul\":9351:9355   */\n      0x20\n        /* \"#utility.yul\":9346:9349   */\n      dup3\n        /* \"#utility.yul\":9342:9356   */\n      add\n        /* \"#utility.yul\":9334:9356   */\n      swap1\n      pop\n        /* \"#utility.yul\":9204:9363   */\n      swap2\n      swap1\n      pop\n      jump\t// out\n        /* \"#utility.yul\":9369:9510   */\n    tag_147:\n        /* \"#utility.yul\":9463:9469   */\n      0x00\n        /* \"#utility.yul\":9497:9502   */\n      dup2\n        /* \"#utility.yul\":9491:9503   */\n      mload\n        /* \"#utility.yul\":9481:9503   */\n      swap1\n      pop\n        /* \"#utility.yul\":9369:9510   */\n      swap2\n      swap1\n      pop\n      jump\t// out\n        /* \"#utility.yul\":9516:9615   */\n    tag_168:\n        /* \"#utility.yul\":9568:9574   */\n      0x00\n        /* \"#utility.yul\":9602:9607   */\n      dup2\n        /* \"#utility.yul\":9596:9608   */\n      mload\n        /* \"#utility.yul\":9586:9608   */\n      swap1\n      pop\n        /* \"#utility.yul\":9516:9615   */\n      swap2\n      swap1\n      pop\n      jump\t// out\n        /* \"#utility.yul\":9621:9761   */\n    tag_157:\n        /* \"#utility.yul\":9718:9722   */\n      0x00\n        /* \"#utility.yul\":9750:9754   */\n      0x20\n        /* \"#utility.yul\":9745:9748   */\n      dup3\n        /* \"#utility.yul\":9741:9755   */\n      add\n        /* \"#utility.yul\":9733:9755   */\n      swap1\n      pop\n        /* \"#utility.yul\":9621:9761   */\n      swap2\n      swap1\n      pop\n      jump\t// out\n        /* \"#utility.yul\":9767:9978   */\n    tag_149:\n        /* \"#utility.yul\":9893:9904   */\n      0x00\n        /* \"#utility.yul\":9927:9933   */\n      dup3\n        /* \"#utility.yul\":9922:9925   */\n      dup3\n        /* \"#utility.yul\":9915:9934   */\n      mstore\n        /* \"#utility.yul\":9967:9971   */\n      0x20\n        /* \"#utility.yul\":9962:9965   */\n      dup3\n        /* \"#utility.yul\":9958:9972   */\n      add\n        /* \"#utility.yul\":9943:9972   */\n      swap1\n      pop\n        /* \"#utility.yul\":9767:9978   */\n      swap3\n      swap2\n      pop\n      pop\n      jump\t// out\n        /* \"#utility.yul\":9984:10143   */\n    tag_170:\n        /* \"#utility.yul\":10058:10069   */\n      0x00\n        /* \"#utility.yul\":10092:10098   */\n      dup3\n        /* \"#utility.yul\":10087:10090   */\n      dup3\n        /* \"#utility.yul\":10080:10099   */\n      mstore\n        /* \"#utility.yul\":10132:10136   */\n      0x20\n        /* \"#utility.yul\":10127:10130   */\n      dup3\n        /* \"#utility.yul\":10123:10137   */\n      add\n        /* \"#utility.yul\":10108:10137   */\n      swap1\n      pop\n        /* \"#utility.yul\":9984:10143   */\n      swap3\n      swap2\n      pop\n      pop\n      jump\t// out\n        /* \"#utility.yul\":10149:10318   */\n    tag_179:\n        /* \"#utility.yul\":10233:10244   */\n      0x00\n        /* \"#utility.yul\":10267:10273   */\n      dup3\n        /* \"#utility.yul\":10262:10265   */\n      dup3\n        /* \"#utility.yul\":10255:10274   */\n      mstore\n        /* \"#utility.yul\":10307:10311   */\n      0x20\n        /* \"#utility.yul\":10302:10305   */\n      dup3\n        /* \"#utility.yul\":10298:10312   */\n      add\n        /* \"#utility.yul\":10283:10312   */\n      swap1\n      pop\n        /* \"#utility.yul\":10149:10318   */\n      swap3\n      swap2\n      pop\n      pop\n      jump\t// out\n        /* \"#utility.yul\":10324:10472   */\n    tag_186:\n        /* \"#utility.yul\":10426:10437   */\n      0x00\n        /* \"#utility.yul\":10463:10466   */\n      dup2\n        /* \"#utility.yul\":10448:10466   */\n      swap1\n      pop\n        /* \"#utility.yul\":10324:10472   */\n      swap3\n      swap2\n      pop\n      pop\n      jump\t// out\n        /* \"#utility.yul\":10478:10783   */\n    tag_51:\n        /* \"#utility.yul\":10518:10521   */\n      0x00\n        /* \"#utility.yul\":10537:10557   */\n      tag_223\n        /* \"#utility.yul\":10555:10556   */\n      dup3\n        /* \"#utility.yul\":10537:10557   */\n      tag_195\n      jump\t// in\n    tag_223:\n        /* \"#utility.yul\":10532:10557   */\n      swap2\n      pop\n        /* \"#utility.yul\":10571:10591   */\n      tag_224\n        /* \"#utility.yul\":10589:10590   */\n      dup4\n        /* \"#utility.yul\":10571:10591   */\n      tag_195\n      jump\t// in\n    tag_224:\n        /* \"#utility.yul\":10566:10591   */\n      swap3\n      pop\n        /* \"#utility.yul\":10725:10726   */\n      dup3\n        /* \"#utility.yul\":10657:10723   */\n      0xffffffffffffffffffffffffffffffffffffffffffffffffffffffffffffffff\n        /* \"#utility.yul\":10653:10727   */\n      sub\n        /* \"#utility.yul\":10650:10651   */\n      dup3\n        /* \"#utility.yul\":10647:10728   */\n      gt\n        /* \"#utility.yul\":10644:10751   */\n      iszero\n      tag_225\n      jumpi\n        /* \"#utility.yul\":10731:10749   */\n      tag_226\n      tag_227\n      jump\t// in\n    tag_226:\n        /* \"#utility.yul\":10644:10751   */\n    tag_225:\n        /* \"#utility.yul\":10775:10776   */\n      dup3\n        /* \"#utility.yul\":10772:10773   */\n      dup3\n        /* \"#utility.yul\":10768:10777   */\n      add\n        /* \"#utility.yul\":10761:10777   */\n      swap1\n      pop\n        /* \"#utility.yul\":10478:10783   */\n      swap3\n      swap2\n      pop\n      pop\n      jump\t// out\n        /* \"#utility.yul\":10789:10879   */\n    tag_161:\n        /* \"#utility.yul\":10824:10831   */\n      0x00\n        /* \"#utility.yul\":10867:10872   */\n      dup2\n        /* \"#utility.yul\":10864:10865   */\n      0x01\n        /* \"#utility.yul\":10853:10873   */\n      signextend\n        /* \"#utility.yul\":10842:10873   */\n      swap1\n      pop\n        /* \"#utility.yul\":10789:10879   */\n      swap2\n      swap1\n      pop\n      jump\t// out\n        /* \"#utility.yul\":10885:10962   */\n    tag_195:\n        /* \"#utility.yul\":10922:10929   */\n      0x00\n        /* \"#utility.yul\":10951:10956   */\n      dup2\n        /* \"#utility.yul\":10940:10956   */\n      swap1\n      pop\n        /* \"#utility.yul\":10885:10962   */\n      swap2\n      swap1\n      pop\n      jump\t// out\n        /* \"#utility.yul\":10968:11122   */\n    tag_94:\n        /* \"#utility.yul\":11052:11058   */\n      dup3\n        /* \"#utility.yul\":11047:11050   */\n      dup2\n        /* \"#utility.yul\":11042:11045   */\n      dup4\n        /* \"#utility.yul\":11029:11059   */\n      calldatacopy\n        /* \"#utility.yul\":11114:11115   */\n      0x00\n        /* \"#utility.yul\":11105:11111   */\n      dup4\n        /* \"#utility.yul\":11100:11103   */\n      dup4\n        /* \"#utility.yul\":11096:11112   */\n      add\n        /* \"#utility.yul\":11089:11116   */\n      mstore\n        /* \"#utility.yul\":10968:11122   */\n      pop\n      pop\n      pop\n      jump\t// out\n        /* \"#utility.yul\":11128:11435   */\n    tag_172:\n        /* \"#utility.yul\":11196:11197   */\n      0x00\n        /* \"#utility.yul\":11206:11319   */\n    tag_232:\n        /* \"#utility.yul\":11220:11226   */\n      dup4\n        /* \"#utility.yul\":11217:11218   */\n      dup2\n        /* \"#utility.yul\":11214:11227   */\n      lt\n        /* \"#utility.yul\":11206:11319   */\n      iszero\n      tag_234\n      jumpi\n        /* \"#utility.yul\":11305:11306   */\n      dup1\n        /* \"#utility.yul\":11300:11303   */\n      dup3\n        /* \"#utility.yul\":11296:11307   */\n      add\n        /* \"#utility.yul\":11290:11308   */\n      mload\n        /* \"#utility.yul\":11286:11287   */\n      dup2\n        /* \"#utility.yul\":11281:11284   */\n      dup5\n        /* \"#utility.yul\":11277:11288   */\n      add\n        /* \"#utility.yul\":11270:11309   */\n      mstore\n        /* \"#utility.yul\":11242:11244   */\n      0x20\n        /* \"#utility.yul\":11239:11240   */\n      dup2\n        /* \"#utility.yul\":11235:11245   */\n      add\n        /* \"#utility.yul\":11230:11245   */\n      swap1\n      pop\n        /* \"#utility.yul\":11206:11319   */\n      jump(tag_232)\n    tag_234:\n        /* \"#utility.yul\":11337:11343   */\n      dup4\n        /* \"#utility.yul\":11334:11335   */\n      dup2\n        /* \"#utility.yul\":11331:11344   */\n      gt\n        /* \"#utility.yul\":11328:11429   */\n      iszero\n      tag_235\n      jumpi\n        /* \"#utility.yul\":11417:11418   */\n      0x00\n        /* \"#utility.yul\":11408:11414   */\n      dup5\n        /* \"#utility.yul\":11403:11406   */\n      dup5\n        /* \"#utility.yul\":11399:11415   */\n      add\n        /* \"#utility.yul\":11392:11419   */\n      mstore\n        /* \"#utility.yul\":11328:11429   */\n    tag_235:\n        /* \"#utility.yul\":11177:11435   */\n      pop\n        /* \"#utility.yul\":11128:11435   */\n      pop\n      pop\n      pop\n      jump\t// out\n        /* \"#utility.yul\":11441:11761   */\n    tag_41:\n        /* \"#utility.yul\":11485:11491   */\n      0x00\n        /* \"#utility.yul\":11522:11523   */\n      0x02\n        /* \"#utility.yul\":11516:11520   */\n      dup3\n        /* \"#utility.yul\":11512:11524   */\n      div\n        /* \"#utility.yul\":11502:11524   */\n      swap1\n      pop\n        /* \"#utility.yul\":11569:11570   */\n      0x01\n        /* \"#utility.yul\":11563:11567   */\n      dup3\n        /* \"#utility.yul\":11559:11571   */\n      and\n        /* \"#utility.yul\":11590:11608   */\n      dup1\n        /* \"#utility.yul\":11580:11661   */\n      tag_237\n      jumpi\n        /* \"#utility.yul\":11646:11650   */\n      0x7f\n        /* \"#utility.yul\":11638:11644   */\n      dup3\n        /* \"#utility.yul\":11634:11651   */\n      and\n        /* \"#utility.yul\":11624:11651   */\n      swap2\n      pop\n        /* \"#utility.yul\":11580:11661   */\n    tag_237:\n        /* \"#utility.yul\":11708:11710   */\n      0x20\n        /* \"#utility.yul\":11700:11706   */\n      dup3\n        /* \"#utility.yul\":11697:11711   */\n      lt\n        /* \"#utility.yul\":11677:11695   */\n      dup2\n        /* \"#utility.yul\":11674:11712   */\n      eq\n        /* \"#utility.yul\":11671:11755   */\n      iszero\n      tag_238\n      jumpi\n        /* \"#utility.yul\":11727:11745   */\n      tag_239\n      tag_240\n      jump\t// in\n    tag_239:\n        /* \"#utility.yul\":11671:11755   */\n    tag_238:\n        /* \"#utility.yul\":11492:11761   */\n      pop\n        /* \"#utility.yul\":11441:11761   */\n      swap2\n      swap1\n      pop\n      jump\t// out\n        /* \"#utility.yul\":11767:12048   */\n    tag_207:\n        /* \"#utility.yul\":11850:11877   */\n      tag_242\n        /* \"#utility.yul\":11872:11876   */\n      dup3\n        /* \"#utility.yul\":11850:11877   */\n      tag_174\n      jump\t// in\n    tag_242:\n        /* \"#utility.yul\":11842:11848   */\n      dup2\n        /* \"#utility.yul\":11838:11878   */\n      add\n        /* \"#utility.yul\":11980:11986   */\n      dup2\n        /* \"#utility.yul\":11968:11978   */\n      dup2\n        /* \"#utility.yul\":11965:11987   */\n      lt\n        /* \"#utility.yul\":11944:11962   */\n      0xffffffffffffffff\n        /* \"#utility.yul\":11932:11942   */\n      dup3\n        /* \"#utility.yul\":11929:11963   */\n      gt\n        /* \"#utility.yul\":11926:11988   */\n      or\n        /* \"#utility.yul\":11923:12011   */\n      iszero\n      tag_243\n      jumpi\n        /* \"#utility.yul\":11991:12009   */\n      tag_244\n      tag_212\n      jump\t// in\n    tag_244:\n        /* \"#utility.yul\":11923:12011   */\n    tag_243:\n        /* \"#utility.yul\":12031:12041   */\n      dup1\n        /* \"#utility.yul\":12027:12029   */\n      0x40\n        /* \"#utility.yul\":12020:12042   */\n      mstore\n        /* \"#utility.yul\":11810:12048   */\n      pop\n        /* \"#utility.yul\":11767:12048   */\n      pop\n      pop\n      jump\t// out\n        /* \"#utility.yul\":12054:12234   */\n    tag_227:\n        /* \"#utility.yul\":12102:12179   */\n      0x4e487b7100000000000000000000000000000000000000000000000000000000\n        /* \"#utility.yul\":12099:12100   */\n      0x00\n        /* \"#utility.yul\":12092:12180   */\n      mstore\n        /* \"#utility.yul\":12199:12203   */\n      0x11\n        /* \"#utility.yul\":12196:12197   */\n      0x04\n        /* \"#utility.yul\":12189:12204   */\n      mstore\n        /* \"#utility.yul\":12223:12227   */\n      0x24\n        /* \"#utility.yul\":12220:12221   */\n      0x00\n        /* \"#utility.yul\":12213:12228   */\n      revert\n        /* \"#utility.yul\":12240:12420   */\n    tag_240:\n        /* \"#utility.yul\":12288:12365   */\n      0x4e487b7100000000000000000000000000000000000000000000000000000000\n        /* \"#utility.yul\":12285:12286   */\n      0x00\n        /* \"#utility.yul\":12278:12366   */\n      mstore\n        /* \"#utility.yul\":12385:12389   */\n      0x22\n        /* \"#utility.yul\":12382:12383   */\n      0x04\n        /* \"#utility.yul\":12375:12390   */\n      mstore\n        /* \"#utility.yul\":12409:12413   */\n      0x24\n        /* \"#utility.yul\":12406:12407   */\n      0x00\n        /* \"#utility.yul\":12399:12414   */\n      revert\n        /* \"#utility.yul\":12426:12606   */\n    tag_212:\n        /* \"#utility.yul\":12474:12551   */\n      0x4e487b7100000000000000000000000000000000000000000000000000000000\n        /* \"#utility.yul\":12471:12472   */\n      0x00\n        /* \"#utility.yul\":12464:12552   */\n      mstore\n        /* \"#utility.yul\":12571:12575   */\n      0x41\n        /* \"#utility.yul\":12568:12569   */\n      0x04\n        /* \"#utility.yul\":12561:12576   */\n      mstore\n        /* \"#utility.yul\":12595:12599   */\n      0x24\n        /* \"#utility.yul\":12592:12593   */\n      0x00\n        /* \"#utility.yul\":12585:12600   */\n      revert\n        /* \"#utility.yul\":12612:12729   */\n    tag_103:\n        /* \"#utility.yul\":12721:12722   */\n      0x00\n        /* \"#utility.yul\":12718:12719   */\n      dup1\n        /* \"#utility.yul\":12711:12723   */\n      revert\n        /* \"#utility.yul\":12735:12852   */\n    tag_92:\n        /* \"#utility.yul\":12844:12845   */\n      0x00\n        /* \"#utility.yul\":12841:12842   */\n      dup1\n        /* \"#utility.yul\":12834:12846   */\n      revert\n        /* \"#utility.yul\":12858:12975   */\n    tag_115:\n        /* \"#utility.yul\":12967:12968   */\n      0x00\n        /* \"#utility.yul\":12964:12965   */\n      dup1\n        /* \"#utility.yul\":12957:12969   */\n      revert\n        /* \"#utility.yul\":12981:13098   */\n    tag_112:\n        /* \"#utility.yul\":13090:13091   */\n      0x00\n        /* \"#utility.yul\":13087:13088   */\n      dup1\n        /* \"#utility.yul\":13080:13092   */\n      revert\n        /* \"#utility.yul\":13104:13206   */\n    tag_174:\n        /* \"#utility.yul\":13145:13151   */\n      0x00\n        /* \"#utility.yul\":13196:13198   */\n      0x1f\n        /* \"#utility.yul\":13192:13199   */\n      not\n        /* \"#utility.yul\":13187:13189   */\n      0x1f\n        /* \"#utility.yul\":13180:13185   */\n      dup4\n        /* \"#utility.yul\":13176:13190   */\n      add\n        /* \"#utility.yul\":13172:13200   */\n      and\n        /* \"#utility.yul\":13162:13200   */\n      swap1\n      pop\n        /* \"#utility.yul\":13104:13206   */\n      swap2\n      swap1\n      pop\n      jump\t// out\n        /* \"#utility.yul\":13212:13330   */\n    tag_98:\n        /* \"#utility.yul\":13283:13305   */\n      tag_254\n        /* \"#utility.yul\":13299:13304   */\n      dup2\n        /* \"#utility.yul\":13283:13305   */\n      tag_161\n      jump\t// in\n    tag_254:\n        /* \"#utility.yul\":13276:13281   */\n      dup2\n        /* \"#utility.yul\":13273:13306   */\n      eq\n        /* \"#utility.yul\":13263:13324   */\n      tag_255\n      jumpi\n        /* \"#utility.yul\":13320:13321   */\n      0x00\n        /* \"#utility.yul\":13317:13318   */\n      dup1\n        /* \"#utility.yul\":13310:13322   */\n      revert\n        /* \"#utility.yul\":13263:13324   */\n    tag_255:\n        /* \"#utility.yul\":13212:13330   */\n      pop\n      jump\t// out\n        /* \"#utility.yul\":13336:13458   */\n    tag_108:\n        /* \"#utility.yul\":13409:13433   */\n      tag_257\n        /* \"#utility.yul\":13427:13432   */\n      dup2\n        /* \"#utility.yul\":13409:13433   */\n      tag_195\n      jump\t// in\n    tag_257:\n        /* \"#utility.yul\":13402:13407   */\n      dup2\n        /* \"#utility.yul\":13399:13434   */\n      eq\n        /* \"#utility.yul\":13389:13452   */\n      tag_258\n      jumpi\n        /* \"#utility.yul\":13448:13449   */\n      0x00\n        /* \"#utility.yul\":13445:13446   */\n      dup1\n        /* \"#utility.yul\":13438:13450   */\n      revert\n        /* \"#utility.yul\":13389:13452   */\n    tag_258:\n        /* \"#utility.yul\":13336:13458   */\n      pop\n      jump\t// out\n\n    auxdata: 0xa26469706673582212204e916c427e7026e5307efd484afe783be358b11b96df0599443304da1b53236664736f6c63430008070033\n}\n",
				"bytecode": {
					"linkReferences": {},
					"object": "60806040523480156200001157600080fd5b506200005a6040518060400160405280600681526020017f62616e616e650000000000000000000000000000000000000000000000000000815250600a620000f060201b60201c565b620000a26040518060400160405280600681526020017f6672616973650000000000000000000000000000000000000000000000000000815250600f620000f060201b60201c565b620000ea6040518060400160405280600581526020017f706f6d6d650000000000000000000000000000000000000000000000000000008152506008620000f060201b60201c565b620004cd565b600060016000805490506200010691906200039c565b9050600060405180606001604052808381526020018581526020018460010b815250905060008190806001815401808255809150506001900390600052602060002090600302016000909190919091506000820151816000015560208201518160010190805190602001906200017e92919062000286565b5060408201518160020160006101000a81548161ffff021916908360010b61ffff16021790555050508060026000848152602001908152602001600020600082015181600001556020820151816001019080519060200190620001e392919062000286565b5060408201518160020160006101000a81548161ffff021916908360010b61ffff160217905550905050806003856040516200022091906200036d565b90815260200160405180910390206000820151816000015560208201518160010190805190602001906200025692919062000286565b5060408201518160020160006101000a81548161ffff021916908360010b61ffff16021790555090505050505050565b828054620002949062000439565b90600052602060002090601f016020900481019282620002b8576000855562000304565b82601f10620002d357805160ff191683800117855562000304565b8280016001018555821562000304579182015b8281111562000303578251825591602001919060010190620002e6565b5b50905062000313919062000317565b5090565b5b808211156200033257600081600090555060010162000318565b5090565b6000620003438262000386565b6200034f818562000391565b93506200036181856020860162000403565b80840191505092915050565b60006200037b828462000336565b915081905092915050565b600081519050919050565b600081905092915050565b6000620003a982620003f9565b9150620003b683620003f9565b9250827fffffffffffffffffffffffffffffffffffffffffffffffffffffffffffffffff03821115620003ee57620003ed6200046f565b5b828201905092915050565b6000819050919050565b60005b838110156200042357808201518184015260208101905062000406565b8381111562000433576000848401525b50505050565b600060028204905060018216806200045257607f821691505b602082108114156200046957620004686200049e565b5b50919050565b7f4e487b7100000000000000000000000000000000000000000000000000000000600052601160045260246000fd5b7f4e487b7100000000000000000000000000000000000000000000000000000000600052602260045260246000fd5b610dae80620004dd6000396000f3fe608060405234801561001057600080fd5b50600436106100625760003560e01c806302ee3a52146100675780633117b11c1461008557806351401eef146100a157806362c2886b146100bd57806365c3e805146100d9578063d7f4933c1461010a575b600080fd5b61006f61013b565b60405161007c9190610a6d565b60405180910390f35b61009f600480360381019061009a9190610851565b610253565b005b6100bb60048036038101906100b69190610788565b610282565b005b6100d760048036038101906100d29190610811565b61040e565b005b6100f360048036038101906100ee91906107e4565b610446565b604051610101929190610a8f565b60405180910390f35b610124600480360381019061011f919061073f565b610519565b604051610132929190610a8f565b60405180910390f35b60606000805480602002602001604051908101604052809291908181526020016000905b8282101561024a57838290600052602060002090600302016040518060600160405290816000820154815260200160018201805461019c90610c35565b80601f01602080910402602001604051908101604052809291908181526020018280546101c890610c35565b80156102155780601f106101ea57610100808354040283529160200191610215565b820191906000526020600020905b8154815290600101906020018083116101f857829003601f168201915b505050505081526020016002820160009054906101000a900460010b60010b60010b815250508152602001906001019061015f565b50505050905090565b8060026000848152602001908152602001600020600101908051906020019061027d929190610602565b505050565b600060016000805490506102969190610b86565b9050600060405180606001604052808381526020018581526020018460010b8152509050600081908060018154018082558091505060019003906000526020600020906003020160009091909190915060008201518160000155602082015181600101908051906020019061030c929190610602565b5060408201518160020160006101000a81548161ffff021916908360010b61ffff1602179055505050806002600084815260200190815260200160002060008201518160000155602082015181600101908051906020019061036f929190610602565b5060408201518160020160006101000a81548161ffff021916908360010b61ffff160217905550905050806003856040516103aa9190610a56565b90815260200160405180910390206000820151816000015560208201518160010190805190602001906103de929190610602565b5060408201518160020160006101000a81548161ffff021916908360010b61ffff16021790555090505050505050565b806002600084815260200190815260200160002060020160006101000a81548161ffff021916908360010b61ffff1602179055505050565b60606000600260008481526020019081526020016000206001016002600085815260200190815260200160002060020160009054906101000a900460010b81805461049090610c35565b80601f01602080910402602001604051908101604052809291908181526020018280546104bc90610c35565b80156105095780601f106104de57610100808354040283529160200191610509565b820191906000526020600020905b8154815290600101906020018083116104ec57829003601f168201915b5050505050915091509150915091565b6060600060038360405161052d9190610a56565b908152602001604051809103902060010160038460405161054e9190610a56565b908152602001604051809103902060020160009054906101000a900460010b81805461057990610c35565b80601f01602080910402602001604051908101604052809291908181526020018280546105a590610c35565b80156105f25780601f106105c7576101008083540402835291602001916105f2565b820191906000526020600020905b8154815290600101906020018083116105d557829003601f168201915b5050505050915091509150915091565b82805461060e90610c35565b90600052602060002090601f0160209004810192826106305760008555610677565b82601f1061064957805160ff1916838001178555610677565b82800160010185558215610677579182015b8281111561067657825182559160200191906001019061065b565b5b5090506106849190610688565b5090565b5b808211156106a1576000816000905550600101610689565b5090565b60006106b86106b384610ae4565b610abf565b9050828152602081018484840111156106d4576106d3610d2a565b5b6106df848285610bf3565b509392505050565b6000813590506106f681610d4a565b92915050565b600082601f83011261071157610710610d25565b5b81356107218482602086016106a5565b91505092915050565b60008135905061073981610d61565b92915050565b60006020828403121561075557610754610d34565b5b600082013567ffffffffffffffff81111561077357610772610d2f565b5b61077f848285016106fc565b91505092915050565b6000806040838503121561079f5761079e610d34565b5b600083013567ffffffffffffffff8111156107bd576107bc610d2f565b5b6107c9858286016106fc565b92505060206107da858286016106e7565b9150509250929050565b6000602082840312156107fa576107f9610d34565b5b60006108088482850161072a565b91505092915050565b6000806040838503121561082857610827610d34565b5b60006108368582860161072a565b9250506020610847858286016106e7565b9150509250929050565b6000806040838503121561086857610867610d34565b5b60006108768582860161072a565b925050602083013567ffffffffffffffff81111561089757610896610d2f565b5b6108a3858286016106fc565b9150509250929050565b60006108b983836109f7565b905092915050565b60006108cc82610b25565b6108d68185610b48565b9350836020820285016108e885610b15565b8060005b85811015610924578484038952815161090585826108ad565b945061091083610b3b565b925060208a019950506001810190506108ec565b50829750879550505050505092915050565b61093f81610bdc565b82525050565b61094e81610bdc565b82525050565b600061095f82610b30565b6109698185610b59565b9350610979818560208601610c02565b61098281610d39565b840191505092915050565b600061099882610b30565b6109a28185610b6a565b93506109b2818560208601610c02565b6109bb81610d39565b840191505092915050565b60006109d182610b30565b6109db8185610b7b565b93506109eb818560208601610c02565b80840191505092915050565b6000606083016000830151610a0f6000860182610a47565b5060208301518482036020860152610a278282610954565b9150506040830151610a3c6040860182610936565b508091505092915050565b610a5081610be9565b82525050565b6000610a6282846109c6565b915081905092915050565b60006020820190508181036000830152610a8781846108c1565b905092915050565b60006040820190508181036000830152610aa9818561098d565b9050610ab86020830184610945565b9392505050565b6000610ac9610ada565b9050610ad58282610c67565b919050565b6000604051905090565b600067ffffffffffffffff821115610aff57610afe610cf6565b5b610b0882610d39565b9050602081019050919050565b6000819050602082019050919050565b600081519050919050565b600081519050919050565b6000602082019050919050565b600082825260208201905092915050565b600082825260208201905092915050565b600082825260208201905092915050565b600081905092915050565b6000610b9182610be9565b9150610b9c83610be9565b9250827fffffffffffffffffffffffffffffffffffffffffffffffffffffffffffffffff03821115610bd157610bd0610c98565b5b828201905092915050565b60008160010b9050919050565b6000819050919050565b82818337600083830152505050565b60005b83811015610c20578082015181840152602081019050610c05565b83811115610c2f576000848401525b50505050565b60006002820490506001821680610c4d57607f821691505b60208210811415610c6157610c60610cc7565b5b50919050565b610c7082610d39565b810181811067ffffffffffffffff82111715610c8f57610c8e610cf6565b5b80604052505050565b7f4e487b7100000000000000000000000000000000000000000000000000000000600052601160045260246000fd5b7f4e487b7100000000000000000000000000000000000000000000000000000000600052602260045260246000fd5b7f4e487b7100000000000000000000000000000000000000000000000000000000600052604160045260246000fd5b600080fd5b600080fd5b600080fd5b600080fd5b6000601f19601f8301169050919050565b610d5381610bdc565b8114610d5e57600080fd5b50565b610d6a81610be9565b8114610d7557600080fd5b5056fea26469706673582212204e916c427e7026e5307efd484afe783be358b11b96df0599443304da1b53236664736f6c63430008070033",
					"opcodes": "PUSH1 0x80 PUSH1 0x40 MSTORE CALLVALUE DUP1 ISZERO PUSH3 0x11 JUMPI PUSH1 0x0 DUP1 REVERT JUMPDEST POP PUSH3 0x5A PUSH1 0x40 MLOAD DUP1 PUSH1 0x40 ADD PUSH1 0x40 MSTORE DUP1 PUSH1 0x6 DUP2 MSTORE PUSH1 0x20 ADD PUSH32 0x62616E616E650000000000000000000000000000000000000000000000000000 DUP2 MSTORE POP PUSH1 0xA PUSH3 0xF0 PUSH1 0x20 SHL PUSH1 0x20 SHR JUMP JUMPDEST PUSH3 0xA2 PUSH1 0x40 MLOAD DUP1 PUSH1 0x40 ADD PUSH1 0x40 MSTORE DUP1 PUSH1 0x6 DUP2 MSTORE PUSH1 0x20 ADD PUSH32 0x6672616973650000000000000000000000000000000000000000000000000000 DUP2 MSTORE POP PUSH1 0xF PUSH3 0xF0 PUSH1 0x20 SHL PUSH1 0x20 SHR JUMP JUMPDEST PUSH3 0xEA PUSH1 0x40 MLOAD DUP1 PUSH1 0x40 ADD PUSH1 0x40 MSTORE DUP1 PUSH1 0x5 DUP2 MSTORE PUSH1 0x20 ADD PUSH32 0x706F6D6D65000000000000000000000000000000000000000000000000000000 DUP2 MSTORE POP PUSH1 0x8 PUSH3 0xF0 PUSH1 0x20 SHL PUSH1 0x20 SHR JUMP JUMPDEST PUSH3 0x4CD JUMP JUMPDEST PUSH1 0x0 PUSH1 0x1 PUSH1 0x0 DUP1 SLOAD SWAP1 POP PUSH3 0x106 SWAP2 SWAP1 PUSH3 0x39C JUMP JUMPDEST SWAP1 POP PUSH1 0x0 PUSH1 0x40 MLOAD DUP1 PUSH1 0x60 ADD PUSH1 0x40 MSTORE DUP1 DUP4 DUP2 MSTORE PUSH1 0x20 ADD DUP6 DUP2 MSTORE PUSH1 0x20 ADD DUP5 PUSH1 0x1 SIGNEXTEND DUP2 MSTORE POP SWAP1 POP PUSH1 0x0 DUP2 SWAP1 DUP1 PUSH1 0x1 DUP2 SLOAD ADD DUP1 DUP3 SSTORE DUP1 SWAP2 POP POP PUSH1 0x1 SWAP1 SUB SWAP1 PUSH1 0x0 MSTORE PUSH1 0x20 PUSH1 0x0 KECCAK256 SWAP1 PUSH1 0x3 MUL ADD PUSH1 0x0 SWAP1 SWAP2 SWAP1 SWAP2 SWAP1 SWAP2 POP PUSH1 0x0 DUP3 ADD MLOAD DUP2 PUSH1 0x0 ADD SSTORE PUSH1 0x20 DUP3 ADD MLOAD DUP2 PUSH1 0x1 ADD SWAP1 DUP1 MLOAD SWAP1 PUSH1 0x20 ADD SWAP1 PUSH3 0x17E SWAP3 SWAP2 SWAP1 PUSH3 0x286 JUMP JUMPDEST POP PUSH1 0x40 DUP3 ADD MLOAD DUP2 PUSH1 0x2 ADD PUSH1 0x0 PUSH2 0x100 EXP DUP2 SLOAD DUP2 PUSH2 0xFFFF MUL NOT AND SWAP1 DUP4 PUSH1 0x1 SIGNEXTEND PUSH2 0xFFFF AND MUL OR SWAP1 SSTORE POP POP POP DUP1 PUSH1 0x2 PUSH1 0x0 DUP5 DUP2 MSTORE PUSH1 0x20 ADD SWAP1 DUP2 MSTORE PUSH1 0x20 ADD PUSH1 0x0 KECCAK256 PUSH1 0x0 DUP3 ADD MLOAD DUP2 PUSH1 0x0 ADD SSTORE PUSH1 0x20 DUP3 ADD MLOAD DUP2 PUSH1 0x1 ADD SWAP1 DUP1 MLOAD SWAP1 PUSH1 0x20 ADD SWAP1 PUSH3 0x1E3 SWAP3 SWAP2 SWAP1 PUSH3 0x286 JUMP JUMPDEST POP PUSH1 0x40 DUP3 ADD MLOAD DUP2 PUSH1 0x2 ADD PUSH1 0x0 PUSH2 0x100 EXP DUP2 SLOAD DUP2 PUSH2 0xFFFF MUL NOT AND SWAP1 DUP4 PUSH1 0x1 SIGNEXTEND PUSH2 0xFFFF AND MUL OR SWAP1 SSTORE POP SWAP1 POP POP DUP1 PUSH1 0x3 DUP6 PUSH1 0x40 MLOAD PUSH3 0x220 SWAP2 SWAP1 PUSH3 0x36D JUMP JUMPDEST SWAP1 DUP2 MSTORE PUSH1 0x20 ADD PUSH1 0x40 MLOAD DUP1 SWAP2 SUB SWAP1 KECCAK256 PUSH1 0x0 DUP3 ADD MLOAD DUP2 PUSH1 0x0 ADD SSTORE PUSH1 0x20 DUP3 ADD MLOAD DUP2 PUSH1 0x1 ADD SWAP1 DUP1 MLOAD SWAP1 PUSH1 0x20 ADD SWAP1 PUSH3 0x256 SWAP3 SWAP2 SWAP1 PUSH3 0x286 JUMP JUMPDEST POP PUSH1 0x40 DUP3 ADD MLOAD DUP2 PUSH1 0x2 ADD PUSH1 0x0 PUSH2 0x100 EXP DUP2 SLOAD DUP2 PUSH2 0xFFFF MUL NOT AND SWAP1 DUP4 PUSH1 0x1 SIGNEXTEND PUSH2 0xFFFF AND MUL OR SWAP1 SSTORE POP SWAP1 POP POP POP POP POP POP JUMP JUMPDEST DUP3 DUP1 SLOAD PUSH3 0x294 SWAP1 PUSH3 0x439 JUMP JUMPDEST SWAP1 PUSH1 0x0 MSTORE PUSH1 0x20 PUSH1 0x0 KECCAK256 SWAP1 PUSH1 0x1F ADD PUSH1 0x20 SWAP1 DIV DUP2 ADD SWAP3 DUP3 PUSH3 0x2B8 JUMPI PUSH1 0x0 DUP6 SSTORE PUSH3 0x304 JUMP JUMPDEST DUP3 PUSH1 0x1F LT PUSH3 0x2D3 JUMPI DUP1 MLOAD PUSH1 0xFF NOT AND DUP4 DUP1 ADD OR DUP6 SSTORE PUSH3 0x304 JUMP JUMPDEST DUP3 DUP1 ADD PUSH1 0x1 ADD DUP6 SSTORE DUP3 ISZERO PUSH3 0x304 JUMPI SWAP2 DUP3 ADD JUMPDEST DUP3 DUP2 GT ISZERO PUSH3 0x303 JUMPI DUP3 MLOAD DUP3 SSTORE SWAP2 PUSH1 0x20 ADD SWAP2 SWAP1 PUSH1 0x1 ADD SWAP1 PUSH3 0x2E6 JUMP JUMPDEST JUMPDEST POP SWAP1 POP PUSH3 0x313 SWAP2 SWAP1 PUSH3 0x317 JUMP JUMPDEST POP SWAP1 JUMP JUMPDEST JUMPDEST DUP1 DUP3 GT ISZERO PUSH3 0x332 JUMPI PUSH1 0x0 DUP2 PUSH1 0x0 SWAP1 SSTORE POP PUSH1 0x1 ADD PUSH3 0x318 JUMP JUMPDEST POP SWAP1 JUMP JUMPDEST PUSH1 0x0 PUSH3 0x343 DUP3 PUSH3 0x386 JUMP JUMPDEST PUSH3 0x34F DUP2 DUP6 PUSH3 0x391 JUMP JUMPDEST SWAP4 POP PUSH3 0x361 DUP2 DUP6 PUSH1 0x20 DUP7 ADD PUSH3 0x403 JUMP JUMPDEST DUP1 DUP5 ADD SWAP2 POP POP SWAP3 SWAP2 POP POP JUMP JUMPDEST PUSH1 0x0 PUSH3 0x37B DUP3 DUP5 PUSH3 0x336 JUMP JUMPDEST SWAP2 POP DUP2 SWAP1 POP SWAP3 SWAP2 POP POP JUMP JUMPDEST PUSH1 0x0 DUP2 MLOAD SWAP1 POP SWAP2 SWAP1 POP JUMP JUMPDEST PUSH1 0x0 DUP2 SWAP1 POP SWAP3 SWAP2 POP POP JUMP JUMPDEST PUSH1 0x0 PUSH3 0x3A9 DUP3 PUSH3 0x3F9 JUMP JUMPDEST SWAP2 POP PUSH3 0x3B6 DUP4 PUSH3 0x3F9 JUMP JUMPDEST SWAP3 POP DUP3 PUSH32 0xFFFFFFFFFFFFFFFFFFFFFFFFFFFFFFFFFFFFFFFFFFFFFFFFFFFFFFFFFFFFFFFF SUB DUP3 GT ISZERO PUSH3 0x3EE JUMPI PUSH3 0x3ED PUSH3 0x46F JUMP JUMPDEST JUMPDEST DUP3 DUP3 ADD SWAP1 POP SWAP3 SWAP2 POP POP JUMP JUMPDEST PUSH1 0x0 DUP2 SWAP1 POP SWAP2 SWAP1 POP JUMP JUMPDEST PUSH1 0x0 JUMPDEST DUP4 DUP2 LT ISZERO PUSH3 0x423 JUMPI DUP1 DUP3 ADD MLOAD DUP2 DUP5 ADD MSTORE PUSH1 0x20 DUP2 ADD SWAP1 POP PUSH3 0x406 JUMP JUMPDEST DUP4 DUP2 GT ISZERO PUSH3 0x433 JUMPI PUSH1 0x0 DUP5 DUP5 ADD MSTORE JUMPDEST POP POP POP POP JUMP JUMPDEST PUSH1 0x0 PUSH1 0x2 DUP3 DIV SWAP1 POP PUSH1 0x1 DUP3 AND DUP1 PUSH3 0x452 JUMPI PUSH1 0x7F DUP3 AND SWAP2 POP JUMPDEST PUSH1 0x20 DUP3 LT DUP2 EQ ISZERO PUSH3 0x469 JUMPI PUSH3 0x468 PUSH3 0x49E JUMP JUMPDEST JUMPDEST POP SWAP2 SWAP1 POP JUMP JUMPDEST PUSH32 0x4E487B7100000000000000000000000000000000000000000000000000000000 PUSH1 0x0 MSTORE PUSH1 0x11 PUSH1 0x4 MSTORE PUSH1 0x24 PUSH1 0x0 REVERT JUMPDEST PUSH32 0x4E487B7100000000000000000000000000000000000000000000000000000000 PUSH1 0x0 MSTORE PUSH1 0x22 PUSH1 0x4 MSTORE PUSH1 0x24 PUSH1 0x0 REVERT JUMPDEST PUSH2 0xDAE DUP1 PUSH3 0x4DD PUSH1 0x0 CODECOPY PUSH1 0x0 RETURN INVALID PUSH1 0x80 PUSH1 0x40 MSTORE CALLVALUE DUP1 ISZERO PUSH2 0x10 JUMPI PUSH1 0x0 DUP1 REVERT JUMPDEST POP PUSH1 0x4 CALLDATASIZE LT PUSH2 0x62 JUMPI PUSH1 0x0 CALLDATALOAD PUSH1 0xE0 SHR DUP1 PUSH4 0x2EE3A52 EQ PUSH2 0x67 JUMPI DUP1 PUSH4 0x3117B11C EQ PUSH2 0x85 JUMPI DUP1 PUSH4 0x51401EEF EQ PUSH2 0xA1 JUMPI DUP1 PUSH4 0x62C2886B EQ PUSH2 0xBD JUMPI DUP1 PUSH4 0x65C3E805 EQ PUSH2 0xD9 JUMPI DUP1 PUSH4 0xD7F4933C EQ PUSH2 0x10A JUMPI JUMPDEST PUSH1 0x0 DUP1 REVERT JUMPDEST PUSH2 0x6F PUSH2 0x13B JUMP JUMPDEST PUSH1 0x40 MLOAD PUSH2 0x7C SWAP2 SWAP1 PUSH2 0xA6D JUMP JUMPDEST PUSH1 0x40 MLOAD DUP1 SWAP2 SUB SWAP1 RETURN JUMPDEST PUSH2 0x9F PUSH1 0x4 DUP1 CALLDATASIZE SUB DUP2 ADD SWAP1 PUSH2 0x9A SWAP2 SWAP1 PUSH2 0x851 JUMP JUMPDEST PUSH2 0x253 JUMP JUMPDEST STOP JUMPDEST PUSH2 0xBB PUSH1 0x4 DUP1 CALLDATASIZE SUB DUP2 ADD SWAP1 PUSH2 0xB6 SWAP2 SWAP1 PUSH2 0x788 JUMP JUMPDEST PUSH2 0x282 JUMP JUMPDEST STOP JUMPDEST PUSH2 0xD7 PUSH1 0x4 DUP1 CALLDATASIZE SUB DUP2 ADD SWAP1 PUSH2 0xD2 SWAP2 SWAP1 PUSH2 0x811 JUMP JUMPDEST PUSH2 0x40E JUMP JUMPDEST STOP JUMPDEST PUSH2 0xF3 PUSH1 0x4 DUP1 CALLDATASIZE SUB DUP2 ADD SWAP1 PUSH2 0xEE SWAP2 SWAP1 PUSH2 0x7E4 JUMP JUMPDEST PUSH2 0x446 JUMP JUMPDEST PUSH1 0x40 MLOAD PUSH2 0x101 SWAP3 SWAP2 SWAP1 PUSH2 0xA8F JUMP JUMPDEST PUSH1 0x40 MLOAD DUP1 SWAP2 SUB SWAP1 RETURN JUMPDEST PUSH2 0x124 PUSH1 0x4 DUP1 CALLDATASIZE SUB DUP2 ADD SWAP1 PUSH2 0x11F SWAP2 SWAP1 PUSH2 0x73F JUMP JUMPDEST PUSH2 0x519 JUMP JUMPDEST PUSH1 0x40 MLOAD PUSH2 0x132 SWAP3 SWAP2 SWAP1 PUSH2 0xA8F JUMP JUMPDEST PUSH1 0x40 MLOAD DUP1 SWAP2 SUB SWAP1 RETURN JUMPDEST PUSH1 0x60 PUSH1 0x0 DUP1 SLOAD DUP1 PUSH1 0x20 MUL PUSH1 0x20 ADD PUSH1 0x40 MLOAD SWAP1 DUP2 ADD PUSH1 0x40 MSTORE DUP1 SWAP3 SWAP2 SWAP1 DUP2 DUP2 MSTORE PUSH1 0x20 ADD PUSH1 0x0 SWAP1 JUMPDEST DUP3 DUP3 LT ISZERO PUSH2 0x24A JUMPI DUP4 DUP3 SWAP1 PUSH1 0x0 MSTORE PUSH1 0x20 PUSH1 0x0 KECCAK256 SWAP1 PUSH1 0x3 MUL ADD PUSH1 0x40 MLOAD DUP1 PUSH1 0x60 ADD PUSH1 0x40 MSTORE SWAP1 DUP2 PUSH1 0x0 DUP3 ADD SLOAD DUP2 MSTORE PUSH1 0x20 ADD PUSH1 0x1 DUP3 ADD DUP1 SLOAD PUSH2 0x19C SWAP1 PUSH2 0xC35 JUMP JUMPDEST DUP1 PUSH1 0x1F ADD PUSH1 0x20 DUP1 SWAP2 DIV MUL PUSH1 0x20 ADD PUSH1 0x40 MLOAD SWAP1 DUP2 ADD PUSH1 0x40 MSTORE DUP1 SWAP3 SWAP2 SWAP1 DUP2 DUP2 MSTORE PUSH1 0x20 ADD DUP3 DUP1 SLOAD PUSH2 0x1C8 SWAP1 PUSH2 0xC35 JUMP JUMPDEST DUP1 ISZERO PUSH2 0x215 JUMPI DUP1 PUSH1 0x1F LT PUSH2 0x1EA JUMPI PUSH2 0x100 DUP1 DUP4 SLOAD DIV MUL DUP4 MSTORE SWAP2 PUSH1 0x20 ADD SWAP2 PUSH2 0x215 JUMP JUMPDEST DUP3 ADD SWAP2 SWAP1 PUSH1 0x0 MSTORE PUSH1 0x20 PUSH1 0x0 KECCAK256 SWAP1 JUMPDEST DUP2 SLOAD DUP2 MSTORE SWAP1 PUSH1 0x1 ADD SWAP1 PUSH1 0x20 ADD DUP1 DUP4 GT PUSH2 0x1F8 JUMPI DUP3 SWAP1 SUB PUSH1 0x1F AND DUP3 ADD SWAP2 JUMPDEST POP POP POP POP POP DUP2 MSTORE PUSH1 0x20 ADD PUSH1 0x2 DUP3 ADD PUSH1 0x0 SWAP1 SLOAD SWAP1 PUSH2 0x100 EXP SWAP1 DIV PUSH1 0x1 SIGNEXTEND PUSH1 0x1 SIGNEXTEND PUSH1 0x1 SIGNEXTEND DUP2 MSTORE POP POP DUP2 MSTORE PUSH1 0x20 ADD SWAP1 PUSH1 0x1 ADD SWAP1 PUSH2 0x15F JUMP JUMPDEST POP POP POP POP SWAP1 POP SWAP1 JUMP JUMPDEST DUP1 PUSH1 0x2 PUSH1 0x0 DUP5 DUP2 MSTORE PUSH1 0x20 ADD SWAP1 DUP2 MSTORE PUSH1 0x20 ADD PUSH1 0x0 KECCAK256 PUSH1 0x1 ADD SWAP1 DUP1 MLOAD SWAP1 PUSH1 0x20 ADD SWAP1 PUSH2 0x27D SWAP3 SWAP2 SWAP1 PUSH2 0x602 JUMP JUMPDEST POP POP POP JUMP JUMPDEST PUSH1 0x0 PUSH1 0x1 PUSH1 0x0 DUP1 SLOAD SWAP1 POP PUSH2 0x296 SWAP2 SWAP1 PUSH2 0xB86 JUMP JUMPDEST SWAP1 POP PUSH1 0x0 PUSH1 0x40 MLOAD DUP1 PUSH1 0x60 ADD PUSH1 0x40 MSTORE DUP1 DUP4 DUP2 MSTORE PUSH1 0x20 ADD DUP6 DUP2 MSTORE PUSH1 0x20 ADD DUP5 PUSH1 0x1 SIGNEXTEND DUP2 MSTORE POP SWAP1 POP PUSH1 0x0 DUP2 SWAP1 DUP1 PUSH1 0x1 DUP2 SLOAD ADD DUP1 DUP3 SSTORE DUP1 SWAP2 POP POP PUSH1 0x1 SWAP1 SUB SWAP1 PUSH1 0x0 MSTORE PUSH1 0x20 PUSH1 0x0 KECCAK256 SWAP1 PUSH1 0x3 MUL ADD PUSH1 0x0 SWAP1 SWAP2 SWAP1 SWAP2 SWAP1 SWAP2 POP PUSH1 0x0 DUP3 ADD MLOAD DUP2 PUSH1 0x0 ADD SSTORE PUSH1 0x20 DUP3 ADD MLOAD DUP2 PUSH1 0x1 ADD SWAP1 DUP1 MLOAD SWAP1 PUSH1 0x20 ADD SWAP1 PUSH2 0x30C SWAP3 SWAP2 SWAP1 PUSH2 0x602 JUMP JUMPDEST POP PUSH1 0x40 DUP3 ADD MLOAD DUP2 PUSH1 0x2 ADD PUSH1 0x0 PUSH2 0x100 EXP DUP2 SLOAD DUP2 PUSH2 0xFFFF MUL NOT AND SWAP1 DUP4 PUSH1 0x1 SIGNEXTEND PUSH2 0xFFFF AND MUL OR SWAP1 SSTORE POP POP POP DUP1 PUSH1 0x2 PUSH1 0x0 DUP5 DUP2 MSTORE PUSH1 0x20 ADD SWAP1 DUP2 MSTORE PUSH1 0x20 ADD PUSH1 0x0 KECCAK256 PUSH1 0x0 DUP3 ADD MLOAD DUP2 PUSH1 0x0 ADD SSTORE PUSH1 0x20 DUP3 ADD MLOAD DUP2 PUSH1 0x1 ADD SWAP1 DUP1 MLOAD SWAP1 PUSH1 0x20 ADD SWAP1 PUSH2 0x36F SWAP3 SWAP2 SWAP1 PUSH2 0x602 JUMP JUMPDEST POP PUSH1 0x40 DUP3 ADD MLOAD DUP2 PUSH1 0x2 ADD PUSH1 0x0 PUSH2 0x100 EXP DUP2 SLOAD DUP2 PUSH2 0xFFFF MUL NOT AND SWAP1 DUP4 PUSH1 0x1 SIGNEXTEND PUSH2 0xFFFF AND MUL OR SWAP1 SSTORE POP SWAP1 POP POP DUP1 PUSH1 0x3 DUP6 PUSH1 0x40 MLOAD PUSH2 0x3AA SWAP2 SWAP1 PUSH2 0xA56 JUMP JUMPDEST SWAP1 DUP2 MSTORE PUSH1 0x20 ADD PUSH1 0x40 MLOAD DUP1 SWAP2 SUB SWAP1 KECCAK256 PUSH1 0x0 DUP3 ADD MLOAD DUP2 PUSH1 0x0 ADD SSTORE PUSH1 0x20 DUP3 ADD MLOAD DUP2 PUSH1 0x1 ADD SWAP1 DUP1 MLOAD SWAP1 PUSH1 0x20 ADD SWAP1 PUSH2 0x3DE SWAP3 SWAP2 SWAP1 PUSH2 0x602 JUMP JUMPDEST POP PUSH1 0x40 DUP3 ADD MLOAD DUP2 PUSH1 0x2 ADD PUSH1 0x0 PUSH2 0x100 EXP DUP2 SLOAD DUP2 PUSH2 0xFFFF MUL NOT AND SWAP1 DUP4 PUSH1 0x1 SIGNEXTEND PUSH2 0xFFFF AND MUL OR SWAP1 SSTORE POP SWAP1 POP POP POP POP POP POP JUMP JUMPDEST DUP1 PUSH1 0x2 PUSH1 0x0 DUP5 DUP2 MSTORE PUSH1 0x20 ADD SWAP1 DUP2 MSTORE PUSH1 0x20 ADD PUSH1 0x0 KECCAK256 PUSH1 0x2 ADD PUSH1 0x0 PUSH2 0x100 EXP DUP2 SLOAD DUP2 PUSH2 0xFFFF MUL NOT AND SWAP1 DUP4 PUSH1 0x1 SIGNEXTEND PUSH2 0xFFFF AND MUL OR SWAP1 SSTORE POP POP POP JUMP JUMPDEST PUSH1 0x60 PUSH1 0x0 PUSH1 0x2 PUSH1 0x0 DUP5 DUP2 MSTORE PUSH1 0x20 ADD SWAP1 DUP2 MSTORE PUSH1 0x20 ADD PUSH1 0x0 KECCAK256 PUSH1 0x1 ADD PUSH1 0x2 PUSH1 0x0 DUP6 DUP2 MSTORE PUSH1 0x20 ADD SWAP1 DUP2 MSTORE PUSH1 0x20 ADD PUSH1 0x0 KECCAK256 PUSH1 0x2 ADD PUSH1 0x0 SWAP1 SLOAD SWAP1 PUSH2 0x100 EXP SWAP1 DIV PUSH1 0x1 SIGNEXTEND DUP2 DUP1 SLOAD PUSH2 0x490 SWAP1 PUSH2 0xC35 JUMP JUMPDEST DUP1 PUSH1 0x1F ADD PUSH1 0x20 DUP1 SWAP2 DIV MUL PUSH1 0x20 ADD PUSH1 0x40 MLOAD SWAP1 DUP2 ADD PUSH1 0x40 MSTORE DUP1 SWAP3 SWAP2 SWAP1 DUP2 DUP2 MSTORE PUSH1 0x20 ADD DUP3 DUP1 SLOAD PUSH2 0x4BC SWAP1 PUSH2 0xC35 JUMP JUMPDEST DUP1 ISZERO PUSH2 0x509 JUMPI DUP1 PUSH1 0x1F LT PUSH2 0x4DE JUMPI PUSH2 0x100 DUP1 DUP4 SLOAD DIV MUL DUP4 MSTORE SWAP2 PUSH1 0x20 ADD SWAP2 PUSH2 0x509 JUMP JUMPDEST DUP3 ADD SWAP2 SWAP1 PUSH1 0x0 MSTORE PUSH1 0x20 PUSH1 0x0 KECCAK256 SWAP1 JUMPDEST DUP2 SLOAD DUP2 MSTORE SWAP1 PUSH1 0x1 ADD SWAP1 PUSH1 0x20 ADD DUP1 DUP4 GT PUSH2 0x4EC JUMPI DUP3 SWAP1 SUB PUSH1 0x1F AND DUP3 ADD SWAP2 JUMPDEST POP POP POP POP POP SWAP2 POP SWAP2 POP SWAP2 POP SWAP2 POP SWAP2 JUMP JUMPDEST PUSH1 0x60 PUSH1 0x0 PUSH1 0x3 DUP4 PUSH1 0x40 MLOAD PUSH2 0x52D SWAP2 SWAP1 PUSH2 0xA56 JUMP JUMPDEST SWAP1 DUP2 MSTORE PUSH1 0x20 ADD PUSH1 0x40 MLOAD DUP1 SWAP2 SUB SWAP1 KECCAK256 PUSH1 0x1 ADD PUSH1 0x3 DUP5 PUSH1 0x40 MLOAD PUSH2 0x54E SWAP2 SWAP1 PUSH2 0xA56 JUMP JUMPDEST SWAP1 DUP2 MSTORE PUSH1 0x20 ADD PUSH1 0x40 MLOAD DUP1 SWAP2 SUB SWAP1 KECCAK256 PUSH1 0x2 ADD PUSH1 0x0 SWAP1 SLOAD SWAP1 PUSH2 0x100 EXP SWAP1 DIV PUSH1 0x1 SIGNEXTEND DUP2 DUP1 SLOAD PUSH2 0x579 SWAP1 PUSH2 0xC35 JUMP JUMPDEST DUP1 PUSH1 0x1F ADD PUSH1 0x20 DUP1 SWAP2 DIV MUL PUSH1 0x20 ADD PUSH1 0x40 MLOAD SWAP1 DUP2 ADD PUSH1 0x40 MSTORE DUP1 SWAP3 SWAP2 SWAP1 DUP2 DUP2 MSTORE PUSH1 0x20 ADD DUP3 DUP1 SLOAD PUSH2 0x5A5 SWAP1 PUSH2 0xC35 JUMP JUMPDEST DUP1 ISZERO PUSH2 0x5F2 JUMPI DUP1 PUSH1 0x1F LT PUSH2 0x5C7 JUMPI PUSH2 0x100 DUP1 DUP4 SLOAD DIV MUL DUP4 MSTORE SWAP2 PUSH1 0x20 ADD SWAP2 PUSH2 0x5F2 JUMP JUMPDEST DUP3 ADD SWAP2 SWAP1 PUSH1 0x0 MSTORE PUSH1 0x20 PUSH1 0x0 KECCAK256 SWAP1 JUMPDEST DUP2 SLOAD DUP2 MSTORE SWAP1 PUSH1 0x1 ADD SWAP1 PUSH1 0x20 ADD DUP1 DUP4 GT PUSH2 0x5D5 JUMPI DUP3 SWAP1 SUB PUSH1 0x1F AND DUP3 ADD SWAP2 JUMPDEST POP POP POP POP POP SWAP2 POP SWAP2 POP SWAP2 POP SWAP2 POP SWAP2 JUMP JUMPDEST DUP3 DUP1 SLOAD PUSH2 0x60E SWAP1 PUSH2 0xC35 JUMP JUMPDEST SWAP1 PUSH1 0x0 MSTORE PUSH1 0x20 PUSH1 0x0 KECCAK256 SWAP1 PUSH1 0x1F ADD PUSH1 0x20 SWAP1 DIV DUP2 ADD SWAP3 DUP3 PUSH2 0x630 JUMPI PUSH1 0x0 DUP6 SSTORE PUSH2 0x677 JUMP JUMPDEST DUP3 PUSH1 0x1F LT PUSH2 0x649 JUMPI DUP1 MLOAD PUSH1 0xFF NOT AND DUP4 DUP1 ADD OR DUP6 SSTORE PUSH2 0x677 JUMP JUMPDEST DUP3 DUP1 ADD PUSH1 0x1 ADD DUP6 SSTORE DUP3 ISZERO PUSH2 0x677 JUMPI SWAP2 DUP3 ADD JUMPDEST DUP3 DUP2 GT ISZERO PUSH2 0x676 JUMPI DUP3 MLOAD DUP3 SSTORE SWAP2 PUSH1 0x20 ADD SWAP2 SWAP1 PUSH1 0x1 ADD SWAP1 PUSH2 0x65B JUMP JUMPDEST JUMPDEST POP SWAP1 POP PUSH2 0x684 SWAP2 SWAP1 PUSH2 0x688 JUMP JUMPDEST POP SWAP1 JUMP JUMPDEST JUMPDEST DUP1 DUP3 GT ISZERO PUSH2 0x6A1 JUMPI PUSH1 0x0 DUP2 PUSH1 0x0 SWAP1 SSTORE POP PUSH1 0x1 ADD PUSH2 0x689 JUMP JUMPDEST POP SWAP1 JUMP JUMPDEST PUSH1 0x0 PUSH2 0x6B8 PUSH2 0x6B3 DUP5 PUSH2 0xAE4 JUMP JUMPDEST PUSH2 0xABF JUMP JUMPDEST SWAP1 POP DUP3 DUP2 MSTORE PUSH1 0x20 DUP2 ADD DUP5 DUP5 DUP5 ADD GT ISZERO PUSH2 0x6D4 JUMPI PUSH2 0x6D3 PUSH2 0xD2A JUMP JUMPDEST JUMPDEST PUSH2 0x6DF DUP5 DUP3 DUP6 PUSH2 0xBF3 JUMP JUMPDEST POP SWAP4 SWAP3 POP POP POP JUMP JUMPDEST PUSH1 0x0 DUP2 CALLDATALOAD SWAP1 POP PUSH2 0x6F6 DUP2 PUSH2 0xD4A JUMP JUMPDEST SWAP3 SWAP2 POP POP JUMP JUMPDEST PUSH1 0x0 DUP3 PUSH1 0x1F DUP4 ADD SLT PUSH2 0x711 JUMPI PUSH2 0x710 PUSH2 0xD25 JUMP JUMPDEST JUMPDEST DUP2 CALLDATALOAD PUSH2 0x721 DUP5 DUP3 PUSH1 0x20 DUP7 ADD PUSH2 0x6A5 JUMP JUMPDEST SWAP2 POP POP SWAP3 SWAP2 POP POP JUMP JUMPDEST PUSH1 0x0 DUP2 CALLDATALOAD SWAP1 POP PUSH2 0x739 DUP2 PUSH2 0xD61 JUMP JUMPDEST SWAP3 SWAP2 POP POP JUMP JUMPDEST PUSH1 0x0 PUSH1 0x20 DUP3 DUP5 SUB SLT ISZERO PUSH2 0x755 JUMPI PUSH2 0x754 PUSH2 0xD34 JUMP JUMPDEST JUMPDEST PUSH1 0x0 DUP3 ADD CALLDATALOAD PUSH8 0xFFFFFFFFFFFFFFFF DUP2 GT ISZERO PUSH2 0x773 JUMPI PUSH2 0x772 PUSH2 0xD2F JUMP JUMPDEST JUMPDEST PUSH2 0x77F DUP5 DUP3 DUP6 ADD PUSH2 0x6FC JUMP JUMPDEST SWAP2 POP POP SWAP3 SWAP2 POP POP JUMP JUMPDEST PUSH1 0x0 DUP1 PUSH1 0x40 DUP4 DUP6 SUB SLT ISZERO PUSH2 0x79F JUMPI PUSH2 0x79E PUSH2 0xD34 JUMP JUMPDEST JUMPDEST PUSH1 0x0 DUP4 ADD CALLDATALOAD PUSH8 0xFFFFFFFFFFFFFFFF DUP2 GT ISZERO PUSH2 0x7BD JUMPI PUSH2 0x7BC PUSH2 0xD2F JUMP JUMPDEST JUMPDEST PUSH2 0x7C9 DUP6 DUP3 DUP7 ADD PUSH2 0x6FC JUMP JUMPDEST SWAP3 POP POP PUSH1 0x20 PUSH2 0x7DA DUP6 DUP3 DUP7 ADD PUSH2 0x6E7 JUMP JUMPDEST SWAP2 POP POP SWAP3 POP SWAP3 SWAP1 POP JUMP JUMPDEST PUSH1 0x0 PUSH1 0x20 DUP3 DUP5 SUB SLT ISZERO PUSH2 0x7FA JUMPI PUSH2 0x7F9 PUSH2 0xD34 JUMP JUMPDEST JUMPDEST PUSH1 0x0 PUSH2 0x808 DUP5 DUP3 DUP6 ADD PUSH2 0x72A JUMP JUMPDEST SWAP2 POP POP SWAP3 SWAP2 POP POP JUMP JUMPDEST PUSH1 0x0 DUP1 PUSH1 0x40 DUP4 DUP6 SUB SLT ISZERO PUSH2 0x828 JUMPI PUSH2 0x827 PUSH2 0xD34 JUMP JUMPDEST JUMPDEST PUSH1 0x0 PUSH2 0x836 DUP6 DUP3 DUP7 ADD PUSH2 0x72A JUMP JUMPDEST SWAP3 POP POP PUSH1 0x20 PUSH2 0x847 DUP6 DUP3 DUP7 ADD PUSH2 0x6E7 JUMP JUMPDEST SWAP2 POP POP SWAP3 POP SWAP3 SWAP1 POP JUMP JUMPDEST PUSH1 0x0 DUP1 PUSH1 0x40 DUP4 DUP6 SUB SLT ISZERO PUSH2 0x868 JUMPI PUSH2 0x867 PUSH2 0xD34 JUMP JUMPDEST JUMPDEST PUSH1 0x0 PUSH2 0x876 DUP6 DUP3 DUP7 ADD PUSH2 0x72A JUMP JUMPDEST SWAP3 POP POP PUSH1 0x20 DUP4 ADD CALLDATALOAD PUSH8 0xFFFFFFFFFFFFFFFF DUP2 GT ISZERO PUSH2 0x897 JUMPI PUSH2 0x896 PUSH2 0xD2F JUMP JUMPDEST JUMPDEST PUSH2 0x8A3 DUP6 DUP3 DUP7 ADD PUSH2 0x6FC JUMP JUMPDEST SWAP2 POP POP SWAP3 POP SWAP3 SWAP1 POP JUMP JUMPDEST PUSH1 0x0 PUSH2 0x8B9 DUP4 DUP4 PUSH2 0x9F7 JUMP JUMPDEST SWAP1 POP SWAP3 SWAP2 POP POP JUMP JUMPDEST PUSH1 0x0 PUSH2 0x8CC DUP3 PUSH2 0xB25 JUMP JUMPDEST PUSH2 0x8D6 DUP2 DUP6 PUSH2 0xB48 JUMP JUMPDEST SWAP4 POP DUP4 PUSH1 0x20 DUP3 MUL DUP6 ADD PUSH2 0x8E8 DUP6 PUSH2 0xB15 JUMP JUMPDEST DUP1 PUSH1 0x0 JUMPDEST DUP6 DUP2 LT ISZERO PUSH2 0x924 JUMPI DUP5 DUP5 SUB DUP10 MSTORE DUP2 MLOAD PUSH2 0x905 DUP6 DUP3 PUSH2 0x8AD JUMP JUMPDEST SWAP5 POP PUSH2 0x910 DUP4 PUSH2 0xB3B JUMP JUMPDEST SWAP3 POP PUSH1 0x20 DUP11 ADD SWAP10 POP POP PUSH1 0x1 DUP2 ADD SWAP1 POP PUSH2 0x8EC JUMP JUMPDEST POP DUP3 SWAP8 POP DUP8 SWAP6 POP POP POP POP POP POP SWAP3 SWAP2 POP POP JUMP JUMPDEST PUSH2 0x93F DUP2 PUSH2 0xBDC JUMP JUMPDEST DUP3 MSTORE POP POP JUMP JUMPDEST PUSH2 0x94E DUP2 PUSH2 0xBDC JUMP JUMPDEST DUP3 MSTORE POP POP JUMP JUMPDEST PUSH1 0x0 PUSH2 0x95F DUP3 PUSH2 0xB30 JUMP JUMPDEST PUSH2 0x969 DUP2 DUP6 PUSH2 0xB59 JUMP JUMPDEST SWAP4 POP PUSH2 0x979 DUP2 DUP6 PUSH1 0x20 DUP7 ADD PUSH2 0xC02 JUMP JUMPDEST PUSH2 0x982 DUP2 PUSH2 0xD39 JUMP JUMPDEST DUP5 ADD SWAP2 POP POP SWAP3 SWAP2 POP POP JUMP JUMPDEST PUSH1 0x0 PUSH2 0x998 DUP3 PUSH2 0xB30 JUMP JUMPDEST PUSH2 0x9A2 DUP2 DUP6 PUSH2 0xB6A JUMP JUMPDEST SWAP4 POP PUSH2 0x9B2 DUP2 DUP6 PUSH1 0x20 DUP7 ADD PUSH2 0xC02 JUMP JUMPDEST PUSH2 0x9BB DUP2 PUSH2 0xD39 JUMP JUMPDEST DUP5 ADD SWAP2 POP POP SWAP3 SWAP2 POP POP JUMP JUMPDEST PUSH1 0x0 PUSH2 0x9D1 DUP3 PUSH2 0xB30 JUMP JUMPDEST PUSH2 0x9DB DUP2 DUP6 PUSH2 0xB7B JUMP JUMPDEST SWAP4 POP PUSH2 0x9EB DUP2 DUP6 PUSH1 0x20 DUP7 ADD PUSH2 0xC02 JUMP JUMPDEST DUP1 DUP5 ADD SWAP2 POP POP SWAP3 SWAP2 POP POP JUMP JUMPDEST PUSH1 0x0 PUSH1 0x60 DUP4 ADD PUSH1 0x0 DUP4 ADD MLOAD PUSH2 0xA0F PUSH1 0x0 DUP7 ADD DUP3 PUSH2 0xA47 JUMP JUMPDEST POP PUSH1 0x20 DUP4 ADD MLOAD DUP5 DUP3 SUB PUSH1 0x20 DUP7 ADD MSTORE PUSH2 0xA27 DUP3 DUP3 PUSH2 0x954 JUMP JUMPDEST SWAP2 POP POP PUSH1 0x40 DUP4 ADD MLOAD PUSH2 0xA3C PUSH1 0x40 DUP7 ADD DUP3 PUSH2 0x936 JUMP JUMPDEST POP DUP1 SWAP2 POP POP SWAP3 SWAP2 POP POP JUMP JUMPDEST PUSH2 0xA50 DUP2 PUSH2 0xBE9 JUMP JUMPDEST DUP3 MSTORE POP POP JUMP JUMPDEST PUSH1 0x0 PUSH2 0xA62 DUP3 DUP5 PUSH2 0x9C6 JUMP JUMPDEST SWAP2 POP DUP2 SWAP1 POP SWAP3 SWAP2 POP POP JUMP JUMPDEST PUSH1 0x0 PUSH1 0x20 DUP3 ADD SWAP1 POP DUP2 DUP2 SUB PUSH1 0x0 DUP4 ADD MSTORE PUSH2 0xA87 DUP2 DUP5 PUSH2 0x8C1 JUMP JUMPDEST SWAP1 POP SWAP3 SWAP2 POP POP JUMP JUMPDEST PUSH1 0x0 PUSH1 0x40 DUP3 ADD SWAP1 POP DUP2 DUP2 SUB PUSH1 0x0 DUP4 ADD MSTORE PUSH2 0xAA9 DUP2 DUP6 PUSH2 0x98D JUMP JUMPDEST SWAP1 POP PUSH2 0xAB8 PUSH1 0x20 DUP4 ADD DUP5 PUSH2 0x945 JUMP JUMPDEST SWAP4 SWAP3 POP POP POP JUMP JUMPDEST PUSH1 0x0 PUSH2 0xAC9 PUSH2 0xADA JUMP JUMPDEST SWAP1 POP PUSH2 0xAD5 DUP3 DUP3 PUSH2 0xC67 JUMP JUMPDEST SWAP2 SWAP1 POP JUMP JUMPDEST PUSH1 0x0 PUSH1 0x40 MLOAD SWAP1 POP SWAP1 JUMP JUMPDEST PUSH1 0x0 PUSH8 0xFFFFFFFFFFFFFFFF DUP3 GT ISZERO PUSH2 0xAFF JUMPI PUSH2 0xAFE PUSH2 0xCF6 JUMP JUMPDEST JUMPDEST PUSH2 0xB08 DUP3 PUSH2 0xD39 JUMP JUMPDEST SWAP1 POP PUSH1 0x20 DUP2 ADD SWAP1 POP SWAP2 SWAP1 POP JUMP JUMPDEST PUSH1 0x0 DUP2 SWAP1 POP PUSH1 0x20 DUP3 ADD SWAP1 POP SWAP2 SWAP1 POP JUMP JUMPDEST PUSH1 0x0 DUP2 MLOAD SWAP1 POP SWAP2 SWAP1 POP JUMP JUMPDEST PUSH1 0x0 DUP2 MLOAD SWAP1 POP SWAP2 SWAP1 POP JUMP JUMPDEST PUSH1 0x0 PUSH1 0x20 DUP3 ADD SWAP1 POP SWAP2 SWAP1 POP JUMP JUMPDEST PUSH1 0x0 DUP3 DUP3 MSTORE PUSH1 0x20 DUP3 ADD SWAP1 POP SWAP3 SWAP2 POP POP JUMP JUMPDEST PUSH1 0x0 DUP3 DUP3 MSTORE PUSH1 0x20 DUP3 ADD SWAP1 POP SWAP3 SWAP2 POP POP JUMP JUMPDEST PUSH1 0x0 DUP3 DUP3 MSTORE PUSH1 0x20 DUP3 ADD SWAP1 POP SWAP3 SWAP2 POP POP JUMP JUMPDEST PUSH1 0x0 DUP2 SWAP1 POP SWAP3 SWAP2 POP POP JUMP JUMPDEST PUSH1 0x0 PUSH2 0xB91 DUP3 PUSH2 0xBE9 JUMP JUMPDEST SWAP2 POP PUSH2 0xB9C DUP4 PUSH2 0xBE9 JUMP JUMPDEST SWAP3 POP DUP3 PUSH32 0xFFFFFFFFFFFFFFFFFFFFFFFFFFFFFFFFFFFFFFFFFFFFFFFFFFFFFFFFFFFFFFFF SUB DUP3 GT ISZERO PUSH2 0xBD1 JUMPI PUSH2 0xBD0 PUSH2 0xC98 JUMP JUMPDEST JUMPDEST DUP3 DUP3 ADD SWAP1 POP SWAP3 SWAP2 POP POP JUMP JUMPDEST PUSH1 0x0 DUP2 PUSH1 0x1 SIGNEXTEND SWAP1 POP SWAP2 SWAP1 POP JUMP JUMPDEST PUSH1 0x0 DUP2 SWAP1 POP SWAP2 SWAP1 POP JUMP JUMPDEST DUP3 DUP2 DUP4 CALLDATACOPY PUSH1 0x0 DUP4 DUP4 ADD MSTORE POP POP POP JUMP JUMPDEST PUSH1 0x0 JUMPDEST DUP4 DUP2 LT ISZERO PUSH2 0xC20 JUMPI DUP1 DUP3 ADD MLOAD DUP2 DUP5 ADD MSTORE PUSH1 0x20 DUP2 ADD SWAP1 POP PUSH2 0xC05 JUMP JUMPDEST DUP4 DUP2 GT ISZERO PUSH2 0xC2F JUMPI PUSH1 0x0 DUP5 DUP5 ADD MSTORE JUMPDEST POP POP POP POP JUMP JUMPDEST PUSH1 0x0 PUSH1 0x2 DUP3 DIV SWAP1 POP PUSH1 0x1 DUP3 AND DUP1 PUSH2 0xC4D JUMPI PUSH1 0x7F DUP3 AND SWAP2 POP JUMPDEST PUSH1 0x20 DUP3 LT DUP2 EQ ISZERO PUSH2 0xC61 JUMPI PUSH2 0xC60 PUSH2 0xCC7 JUMP JUMPDEST JUMPDEST POP SWAP2 SWAP1 POP JUMP JUMPDEST PUSH2 0xC70 DUP3 PUSH2 0xD39 JUMP JUMPDEST DUP2 ADD DUP2 DUP2 LT PUSH8 0xFFFFFFFFFFFFFFFF DUP3 GT OR ISZERO PUSH2 0xC8F JUMPI PUSH2 0xC8E PUSH2 0xCF6 JUMP JUMPDEST JUMPDEST DUP1 PUSH1 0x40 MSTORE POP POP POP JUMP JUMPDEST PUSH32 0x4E487B7100000000000000000000000000000000000000000000000000000000 PUSH1 0x0 MSTORE PUSH1 0x11 PUSH1 0x4 MSTORE PUSH1 0x24 PUSH1 0x0 REVERT JUMPDEST PUSH32 0x4E487B7100000000000000000000000000000000000000000000000000000000 PUSH1 0x0 MSTORE PUSH1 0x22 PUSH1 0x4 MSTORE PUSH1 0x24 PUSH1 0x0 REVERT JUMPDEST PUSH32 0x4E487B7100000000000000000000000000000000000000000000000000000000 PUSH1 0x0 MSTORE PUSH1 0x41 PUSH1 0x4 MSTORE PUSH1 0x24 PUSH1 0x0 REVERT JUMPDEST PUSH1 0x0 DUP1 REVERT JUMPDEST PUSH1 0x0 DUP1 REVERT JUMPDEST PUSH1 0x0 DUP1 REVERT JUMPDEST PUSH1 0x0 DUP1 REVERT JUMPDEST PUSH1 0x0 PUSH1 0x1F NOT PUSH1 0x1F DUP4 ADD AND SWAP1 POP SWAP2 SWAP1 POP JUMP JUMPDEST PUSH2 0xD53 DUP2 PUSH2 0xBDC JUMP JUMPDEST DUP2 EQ PUSH2 0xD5E JUMPI PUSH1 0x0 DUP1 REVERT JUMPDEST POP JUMP JUMPDEST PUSH2 0xD6A DUP2 PUSH2 0xBE9 JUMP JUMPDEST DUP2 EQ PUSH2 0xD75 JUMPI PUSH1 0x0 DUP1 REVERT JUMPDEST POP JUMP INVALID LOG2 PUSH5 0x6970667358 0x22 SLT KECCAK256 0x4E SWAP2 PUSH13 0x427E7026E5307EFD484AFE783B 0xE3 PC 0xB1 SHL SWAP7 0xDF SDIV SWAP10 DIFFICULTY CALLER DIV 0xDA SHL MSTORE8 0x23 PUSH7 0x64736F6C634300 ADDMOD SMOD STOP CALLER "
				},
				"gasEstimates": {
					"creation": {
						"codeDepositCost": "700400",
						"executionCost": "infinite",
						"totalCost": "infinite"
					},
					"external": {
						"createProduit(string,int16)": "infinite",
						"getAllProducts()": "infinite",
						"getProductInfoById(uint256)": "infinite",
						"getProductInfoByName(string)": "infinite",
						"setProductInfoName(uint256,string)": "infinite",
						"setProductInfoPrice(uint256,int16)": "24990"
					}
				},
				"methodIdentifiers": {
					"createProduit(string,int16)": "51401eef",
					"getAllProducts()": "02ee3a52",
					"getProductInfoById(uint256)": "65c3e805",
					"getProductInfoByName(string)": "d7f4933c",
					"setProductInfoName(uint256,string)": "3117b11c",
					"setProductInfoPrice(uint256,int16)": "62c2886b"
				}
			},
			"storageLayout": {
				"storage": [
					{
						"astId": 21,
						"contract": "contracts/ExoSupermarche.sol:supermarche",
						"label": "AllProduits",
						"offset": 0,
						"slot": "0",
						"type": "t_array(t_struct(productData)17_storage)dyn_storage"
					},
					{
						"astId": 25,
						"contract": "contracts/ExoSupermarche.sol:supermarche",
						"label": "AllClients",
						"offset": 0,
						"slot": "1",
						"type": "t_array(t_struct(clientData)10_storage)dyn_storage"
					},
					{
						"astId": 30,
						"contract": "contracts/ExoSupermarche.sol:supermarche",
						"label": "productsById",
						"offset": 0,
						"slot": "2",
						"type": "t_mapping(t_uint256,t_struct(productData)17_storage)"
					},
					{
						"astId": 35,
						"contract": "contracts/ExoSupermarche.sol:supermarche",
						"label": "productsByName",
						"offset": 0,
						"slot": "3",
						"type": "t_mapping(t_string_memory_ptr,t_struct(productData)17_storage)"
					}
				],
				"types": {
					"t_array(t_struct(clientData)10_storage)dyn_storage": {
						"base": "t_struct(clientData)10_storage",
						"encoding": "dynamic_array",
						"label": "struct supermarche.clientData[]",
						"numberOfBytes": "32"
					},
					"t_array(t_struct(productData)17_storage)dyn_storage": {
						"base": "t_struct(productData)17_storage",
						"encoding": "dynamic_array",
						"label": "struct supermarche.productData[]",
						"numberOfBytes": "32"
					},
					"t_int16": {
						"encoding": "inplace",
						"label": "int16",
						"numberOfBytes": "2"
					},
					"t_mapping(t_string_memory_ptr,t_struct(productData)17_storage)": {
						"encoding": "mapping",
						"key": "t_string_memory_ptr",
						"label": "mapping(string => struct supermarche.productData)",
						"numberOfBytes": "32",
						"value": "t_struct(productData)17_storage"
					},
					"t_mapping(t_uint256,t_struct(productData)17_storage)": {
						"encoding": "mapping",
						"key": "t_uint256",
						"label": "mapping(uint256 => struct supermarche.productData)",
						"numberOfBytes": "32",
						"value": "t_struct(productData)17_storage"
					},
					"t_string_memory_ptr": {
						"encoding": "bytes",
						"label": "string",
						"numberOfBytes": "32"
					},
					"t_string_storage": {
						"encoding": "bytes",
						"label": "string",
						"numberOfBytes": "32"
					},
					"t_struct(clientData)10_storage": {
						"encoding": "inplace",
						"label": "struct supermarche.clientData",
						"members": [
							{
								"astId": 3,
								"contract": "contracts/ExoSupermarche.sol:supermarche",
								"label": "id",
								"offset": 0,
								"slot": "0",
								"type": "t_uint256"
							},
							{
								"astId": 5,
								"contract": "contracts/ExoSupermarche.sol:supermarche",
								"label": "nom",
								"offset": 0,
								"slot": "1",
								"type": "t_string_storage"
							},
							{
								"astId": 9,
								"contract": "contracts/ExoSupermarche.sol:supermarche",
								"label": "panier",
								"offset": 0,
								"slot": "2",
								"type": "t_array(t_struct(productData)17_storage)dyn_storage"
							}
						],
						"numberOfBytes": "96"
					},
					"t_struct(productData)17_storage": {
						"encoding": "inplace",
						"label": "struct supermarche.productData",
						"members": [
							{
								"astId": 12,
								"contract": "contracts/ExoSupermarche.sol:supermarche",
								"label": "id",
								"offset": 0,
								"slot": "0",
								"type": "t_uint256"
							},
							{
								"astId": 14,
								"contract": "contracts/ExoSupermarche.sol:supermarche",
								"label": "libelle",
								"offset": 0,
								"slot": "1",
								"type": "t_string_storage"
							},
							{
								"astId": 16,
								"contract": "contracts/ExoSupermarche.sol:supermarche",
								"label": "price",
								"offset": 0,
								"slot": "2",
								"type": "t_int16"
							}
						],
						"numberOfBytes": "96"
					},
					"t_uint256": {
						"encoding": "inplace",
						"label": "uint256",
						"numberOfBytes": "32"
					}
				}
			},
			"userdoc": {
				"kind": "user",
				"methods": {},
				"version": 1
			}
		}
	}
}