{
	"contracts/ExoSupermarche.sol": {
		"supermarche": {
			"abi": [
				{
					"inputs": [
						{
							"internalType": "string",
							"name": "_libelle",
							"type": "string"
						},
						{
							"internalType": "int16",
							"name": "_prix",
							"type": "int16"
						}
					],
					"name": "createProduit",
					"outputs": [],
					"stateMutability": "nonpayable",
					"type": "function"
				},
				{
					"inputs": [],
					"name": "getAllProducts",
					"outputs": [
						{
							"components": [
								{
									"internalType": "uint256",
									"name": "_id",
									"type": "uint256"
								},
								{
									"internalType": "string",
									"name": "_libelle",
									"type": "string"
								},
								{
									"internalType": "int16",
									"name": "_prix",
									"type": "int16"
								}
							],
							"internalType": "struct supermarche.produit[]",
							"name": "",
							"type": "tuple[]"
						}
					],
					"stateMutability": "view",
					"type": "function"
				}
			],
			"devdoc": {
				"kind": "dev",
				"methods": {},
				"version": 1
			},
			"evm": {
				"assembly": "    /* \"contracts/ExoSupermarche.sol\":59:630  contract supermarche {\r... */\n  mstore(0x40, 0x80)\n  callvalue\n  dup1\n  iszero\n  tag_1\n  jumpi\n  0x00\n  dup1\n  revert\ntag_1:\n  pop\n  dataSize(sub_0)\n  dup1\n  dataOffset(sub_0)\n  0x00\n  codecopy\n  0x00\n  return\nstop\n\nsub_0: assembly {\n        /* \"contracts/ExoSupermarche.sol\":59:630  contract supermarche {\r... */\n      mstore(0x40, 0x80)\n      callvalue\n      dup1\n      iszero\n      tag_1\n      jumpi\n      0x00\n      dup1\n      revert\n    tag_1:\n      pop\n      jumpi(tag_2, lt(calldatasize, 0x04))\n      shr(0xe0, calldataload(0x00))\n      dup1\n      0x02ee3a52\n      eq\n      tag_3\n      jumpi\n      dup1\n      0x51401eef\n      eq\n      tag_4\n      jumpi\n    tag_2:\n      0x00\n      dup1\n      revert\n        /* \"contracts/ExoSupermarche.sol\":521:619  function getAllProducts() public view returns(produit[] memory) {\r... */\n    tag_3:\n      tag_5\n      tag_6\n      jump\t// in\n    tag_5:\n      mload(0x40)\n      tag_7\n      swap2\n      swap1\n      tag_8\n      jump\t// in\n    tag_7:\n      mload(0x40)\n      dup1\n      swap2\n      sub\n      swap1\n      return\n        /* \"contracts/ExoSupermarche.sol\":313:513  function createProduit(string memory _libelle, int16 _prix) public {\r... */\n    tag_4:\n      tag_9\n      0x04\n      dup1\n      calldatasize\n      sub\n      dup2\n      add\n      swap1\n      tag_10\n      swap2\n      swap1\n      tag_11\n      jump\t// in\n    tag_10:\n      tag_12\n      jump\t// in\n    tag_9:\n      stop\n        /* \"contracts/ExoSupermarche.sol\":521:619  function getAllProducts() public view returns(produit[] memory) {\r... */\n    tag_6:\n        /* \"contracts/ExoSupermarche.sol\":567:583  produit[] memory */\n      0x60\n        /* \"contracts/ExoSupermarche.sol\":603:611  produits */\n      0x00\n        /* \"contracts/ExoSupermarche.sol\":596:611  return produits */\n      dup1\n      sload\n      dup1\n      0x20\n      mul\n      0x20\n      add\n      mload(0x40)\n      swap1\n      dup2\n      add\n      0x40\n      mstore\n      dup1\n      swap3\n      swap2\n      swap1\n      dup2\n      dup2\n      mstore\n      0x20\n      add\n      0x00\n      swap1\n    tag_14:\n      dup3\n      dup3\n      lt\n      iszero\n      tag_15\n      jumpi\n      dup4\n      dup3\n      swap1\n      0x00\n      mstore\n      keccak256(0x00, 0x20)\n      swap1\n      0x03\n      mul\n      add\n      mload(0x40)\n      dup1\n      0x60\n      add\n      0x40\n      mstore\n      swap1\n      dup2\n      0x00\n      dup3\n      add\n      sload\n      dup2\n      mstore\n      0x20\n      add\n      0x01\n      dup3\n      add\n      dup1\n      sload\n      tag_17\n      swap1\n      tag_18\n      jump\t// in\n    tag_17:\n      dup1\n      0x1f\n      add\n      0x20\n      dup1\n      swap2\n      div\n      mul\n      0x20\n      add\n      mload(0x40)\n      swap1\n      dup2\n      add\n      0x40\n      mstore\n      dup1\n      swap3\n      swap2\n      swap1\n      dup2\n      dup2\n      mstore\n      0x20\n      add\n      dup3\n      dup1\n      sload\n      tag_19\n      swap1\n      tag_18\n      jump\t// in\n    tag_19:\n      dup1\n      iszero\n      tag_20\n      jumpi\n      dup1\n      0x1f\n      lt\n      tag_21\n      jumpi\n      0x0100\n      dup1\n      dup4\n      sload\n      div\n      mul\n      dup4\n      mstore\n      swap2\n      0x20\n      add\n      swap2\n      jump(tag_20)\n    tag_21:\n      dup3\n      add\n      swap2\n      swap1\n      0x00\n      mstore\n      keccak256(0x00, 0x20)\n      swap1\n    tag_22:\n      dup2\n      sload\n      dup2\n      mstore\n      swap1\n      0x01\n      add\n      swap1\n      0x20\n      add\n      dup1\n      dup4\n      gt\n      tag_22\n      jumpi\n      dup3\n      swap1\n      sub\n      0x1f\n      and\n      dup3\n      add\n      swap2\n    tag_20:\n      pop\n      pop\n      pop\n      pop\n      pop\n      dup2\n      mstore\n      0x20\n      add\n      0x02\n      dup3\n      add\n      0x00\n      swap1\n      sload\n      swap1\n      0x0100\n      exp\n      swap1\n      div\n      0x01\n      signextend\n      0x01\n      signextend\n      0x01\n      signextend\n      dup2\n      mstore\n      pop\n      pop\n      dup2\n      mstore\n      0x20\n      add\n      swap1\n      0x01\n      add\n      swap1\n      jump(tag_14)\n    tag_15:\n      pop\n      pop\n      pop\n      pop\n      swap1\n      pop\n        /* \"contracts/ExoSupermarche.sol\":521:619  function getAllProducts() public view returns(produit[] memory) {\r... */\n      swap1\n      jump\t// out\n        /* \"contracts/ExoSupermarche.sol\":313:513  function createProduit(string memory _libelle, int16 _prix) public {\r... */\n    tag_12:\n        /* \"contracts/ExoSupermarche.sol\":391:398  uint id */\n      0x00\n        /* \"contracts/ExoSupermarche.sol\":419:420  1 */\n      0x01\n        /* \"contracts/ExoSupermarche.sol\":401:409  produits */\n      0x00\n        /* \"contracts/ExoSupermarche.sol\":401:416  produits.length */\n      dup1\n      sload\n      swap1\n      pop\n        /* \"contracts/ExoSupermarche.sol\":401:420  produits.length + 1 */\n      tag_24\n      swap2\n      swap1\n      tag_25\n      jump\t// in\n    tag_24:\n        /* \"contracts/ExoSupermarche.sol\":391:420  uint id = produits.length + 1 */\n      swap1\n      pop\n        /* \"contracts/ExoSupermarche.sol\":431:447  produit memory p */\n      0x00\n        /* \"contracts/ExoSupermarche.sol\":450:478  produit(id, _libelle, _prix) */\n      mload(0x40)\n      dup1\n      0x60\n      add\n      0x40\n      mstore\n      dup1\n        /* \"contracts/ExoSupermarche.sol\":458:460  id */\n      dup4\n        /* \"contracts/ExoSupermarche.sol\":450:478  produit(id, _libelle, _prix) */\n      dup2\n      mstore\n      0x20\n      add\n        /* \"contracts/ExoSupermarche.sol\":462:470  _libelle */\n      dup6\n        /* \"contracts/ExoSupermarche.sol\":450:478  produit(id, _libelle, _prix) */\n      dup2\n      mstore\n      0x20\n      add\n        /* \"contracts/ExoSupermarche.sol\":472:477  _prix */\n      dup5\n        /* \"contracts/ExoSupermarche.sol\":450:478  produit(id, _libelle, _prix) */\n      0x01\n      signextend\n      dup2\n      mstore\n      pop\n        /* \"contracts/ExoSupermarche.sol\":431:478  produit memory p = produit(id, _libelle, _prix) */\n      swap1\n      pop\n        /* \"contracts/ExoSupermarche.sol\":489:497  produits */\n      0x00\n        /* \"contracts/ExoSupermarche.sol\":503:504  p */\n      dup2\n        /* \"contracts/ExoSupermarche.sol\":489:505  produits.push(p) */\n      swap1\n      dup1\n      0x01\n      dup2\n      sload\n      add\n      dup1\n      dup3\n      sstore\n      dup1\n      swap2\n      pop\n      pop\n      0x01\n      swap1\n      sub\n      swap1\n      0x00\n      mstore\n      keccak256(0x00, 0x20)\n      swap1\n      0x03\n      mul\n      add\n      0x00\n      swap1\n      swap2\n      swap1\n      swap2\n      swap1\n      swap2\n      pop\n      0x00\n      dup3\n      add\n      mload\n      dup2\n      0x00\n      add\n      sstore\n      0x20\n      dup3\n      add\n      mload\n      dup2\n      0x01\n      add\n      swap1\n      dup1\n      mload\n      swap1\n      0x20\n      add\n      swap1\n      tag_27\n      swap3\n      swap2\n      swap1\n      tag_28\n      jump\t// in\n    tag_27:\n      pop\n      0x40\n      dup3\n      add\n      mload\n      dup2\n      0x02\n      add\n      exp(0x0100, 0x00)\n      dup2\n      sload\n      dup2\n      0xffff\n      mul\n      not\n      and\n      swap1\n      dup4\n      0x01\n      signextend\n      0xffff\n      and\n      mul\n      or\n      swap1\n      sstore\n      pop\n      pop\n      pop\n        /* \"contracts/ExoSupermarche.sol\":380:513  {\r... */\n      pop\n      pop\n        /* \"contracts/ExoSupermarche.sol\":313:513  function createProduit(string memory _libelle, int16 _prix) public {\r... */\n      pop\n      pop\n      jump\t// out\n    tag_28:\n      dup3\n      dup1\n      sload\n      tag_29\n      swap1\n      tag_18\n      jump\t// in\n    tag_29:\n      swap1\n      0x00\n      mstore\n      keccak256(0x00, 0x20)\n      swap1\n      0x1f\n      add\n      0x20\n      swap1\n      div\n      dup2\n      add\n      swap3\n      dup3\n      tag_31\n      jumpi\n      0x00\n      dup6\n      sstore\n      jump(tag_30)\n    tag_31:\n      dup3\n      0x1f\n      lt\n      tag_32\n      jumpi\n      dup1\n      mload\n      not(0xff)\n      and\n      dup4\n      dup1\n      add\n      or\n      dup6\n      sstore\n      jump(tag_30)\n    tag_32:\n      dup3\n      dup1\n      add\n      0x01\n      add\n      dup6\n      sstore\n      dup3\n      iszero\n      tag_30\n      jumpi\n      swap2\n      dup3\n      add\n    tag_33:\n      dup3\n      dup2\n      gt\n      iszero\n      tag_34\n      jumpi\n      dup3\n      mload\n      dup3\n      sstore\n      swap2\n      0x20\n      add\n      swap2\n      swap1\n      0x01\n      add\n      swap1\n      jump(tag_33)\n    tag_34:\n    tag_30:\n      pop\n      swap1\n      pop\n      tag_35\n      swap2\n      swap1\n      tag_36\n      jump\t// in\n    tag_35:\n      pop\n      swap1\n      jump\t// out\n    tag_36:\n    tag_37:\n      dup1\n      dup3\n      gt\n      iszero\n      tag_38\n      jumpi\n      0x00\n      dup2\n      0x00\n      swap1\n      sstore\n      pop\n      0x01\n      add\n      jump(tag_37)\n    tag_38:\n      pop\n      swap1\n      jump\t// out\n        /* \"#utility.yul\":7:419   */\n    tag_40:\n        /* \"#utility.yul\":85:90   */\n      0x00\n        /* \"#utility.yul\":110:176   */\n      tag_42\n        /* \"#utility.yul\":126:175   */\n      tag_43\n        /* \"#utility.yul\":168:174   */\n      dup5\n        /* \"#utility.yul\":126:175   */\n      tag_44\n      jump\t// in\n    tag_43:\n        /* \"#utility.yul\":110:176   */\n      tag_45\n      jump\t// in\n    tag_42:\n        /* \"#utility.yul\":101:176   */\n      swap1\n      pop\n        /* \"#utility.yul\":199:205   */\n      dup3\n        /* \"#utility.yul\":192:197   */\n      dup2\n        /* \"#utility.yul\":185:206   */\n      mstore\n        /* \"#utility.yul\":237:241   */\n      0x20\n        /* \"#utility.yul\":230:235   */\n      dup2\n        /* \"#utility.yul\":226:242   */\n      add\n        /* \"#utility.yul\":275:278   */\n      dup5\n        /* \"#utility.yul\":266:272   */\n      dup5\n        /* \"#utility.yul\":261:264   */\n      dup5\n        /* \"#utility.yul\":257:273   */\n      add\n        /* \"#utility.yul\":254:279   */\n      gt\n        /* \"#utility.yul\":251:363   */\n      iszero\n      tag_46\n      jumpi\n        /* \"#utility.yul\":282:361   */\n      tag_47\n      tag_48\n      jump\t// in\n    tag_47:\n        /* \"#utility.yul\":251:363   */\n    tag_46:\n        /* \"#utility.yul\":372:413   */\n      tag_49\n        /* \"#utility.yul\":406:412   */\n      dup5\n        /* \"#utility.yul\":401:404   */\n      dup3\n        /* \"#utility.yul\":396:399   */\n      dup6\n        /* \"#utility.yul\":372:413   */\n      tag_50\n      jump\t// in\n    tag_49:\n        /* \"#utility.yul\":91:419   */\n      pop\n        /* \"#utility.yul\":7:419   */\n      swap4\n      swap3\n      pop\n      pop\n      pop\n      jump\t// out\n        /* \"#utility.yul\":425:560   */\n    tag_51:\n        /* \"#utility.yul\":469:474   */\n      0x00\n        /* \"#utility.yul\":507:513   */\n      dup2\n        /* \"#utility.yul\":494:514   */\n      calldataload\n        /* \"#utility.yul\":485:514   */\n      swap1\n      pop\n        /* \"#utility.yul\":523:554   */\n      tag_53\n        /* \"#utility.yul\":548:553   */\n      dup2\n        /* \"#utility.yul\":523:554   */\n      tag_54\n      jump\t// in\n    tag_53:\n        /* \"#utility.yul\":425:560   */\n      swap3\n      swap2\n      pop\n      pop\n      jump\t// out\n        /* \"#utility.yul\":580:920   */\n    tag_55:\n        /* \"#utility.yul\":636:641   */\n      0x00\n        /* \"#utility.yul\":685:688   */\n      dup3\n        /* \"#utility.yul\":678:682   */\n      0x1f\n        /* \"#utility.yul\":670:676   */\n      dup4\n        /* \"#utility.yul\":666:683   */\n      add\n        /* \"#utility.yul\":662:689   */\n      slt\n        /* \"#utility.yul\":652:774   */\n      tag_57\n      jumpi\n        /* \"#utility.yul\":693:772   */\n      tag_58\n      tag_59\n      jump\t// in\n    tag_58:\n        /* \"#utility.yul\":652:774   */\n    tag_57:\n        /* \"#utility.yul\":810:816   */\n      dup2\n        /* \"#utility.yul\":797:817   */\n      calldataload\n        /* \"#utility.yul\":835:914   */\n      tag_60\n        /* \"#utility.yul\":910:913   */\n      dup5\n        /* \"#utility.yul\":902:908   */\n      dup3\n        /* \"#utility.yul\":895:899   */\n      0x20\n        /* \"#utility.yul\":887:893   */\n      dup7\n        /* \"#utility.yul\":883:900   */\n      add\n        /* \"#utility.yul\":835:914   */\n      tag_40\n      jump\t// in\n    tag_60:\n        /* \"#utility.yul\":826:914   */\n      swap2\n      pop\n        /* \"#utility.yul\":642:920   */\n      pop\n        /* \"#utility.yul\":580:920   */\n      swap3\n      swap2\n      pop\n      pop\n      jump\t// out\n        /* \"#utility.yul\":926:1576   */\n    tag_11:\n        /* \"#utility.yul\":1002:1008   */\n      0x00\n        /* \"#utility.yul\":1010:1016   */\n      dup1\n        /* \"#utility.yul\":1059:1061   */\n      0x40\n        /* \"#utility.yul\":1047:1056   */\n      dup4\n        /* \"#utility.yul\":1038:1045   */\n      dup6\n        /* \"#utility.yul\":1034:1057   */\n      sub\n        /* \"#utility.yul\":1030:1062   */\n      slt\n        /* \"#utility.yul\":1027:1146   */\n      iszero\n      tag_62\n      jumpi\n        /* \"#utility.yul\":1065:1144   */\n      tag_63\n      tag_64\n      jump\t// in\n    tag_63:\n        /* \"#utility.yul\":1027:1146   */\n    tag_62:\n        /* \"#utility.yul\":1213:1214   */\n      0x00\n        /* \"#utility.yul\":1202:1211   */\n      dup4\n        /* \"#utility.yul\":1198:1215   */\n      add\n        /* \"#utility.yul\":1185:1216   */\n      calldataload\n        /* \"#utility.yul\":1243:1261   */\n      0xffffffffffffffff\n        /* \"#utility.yul\":1235:1241   */\n      dup2\n        /* \"#utility.yul\":1232:1262   */\n      gt\n        /* \"#utility.yul\":1229:1346   */\n      iszero\n      tag_65\n      jumpi\n        /* \"#utility.yul\":1265:1344   */\n      tag_66\n      tag_67\n      jump\t// in\n    tag_66:\n        /* \"#utility.yul\":1229:1346   */\n    tag_65:\n        /* \"#utility.yul\":1370:1433   */\n      tag_68\n        /* \"#utility.yul\":1425:1432   */\n      dup6\n        /* \"#utility.yul\":1416:1422   */\n      dup3\n        /* \"#utility.yul\":1405:1414   */\n      dup7\n        /* \"#utility.yul\":1401:1423   */\n      add\n        /* \"#utility.yul\":1370:1433   */\n      tag_55\n      jump\t// in\n    tag_68:\n        /* \"#utility.yul\":1360:1433   */\n      swap3\n      pop\n        /* \"#utility.yul\":1156:1443   */\n      pop\n        /* \"#utility.yul\":1482:1484   */\n      0x20\n        /* \"#utility.yul\":1508:1559   */\n      tag_69\n        /* \"#utility.yul\":1551:1558   */\n      dup6\n        /* \"#utility.yul\":1542:1548   */\n      dup3\n        /* \"#utility.yul\":1531:1540   */\n      dup7\n        /* \"#utility.yul\":1527:1549   */\n      add\n        /* \"#utility.yul\":1508:1559   */\n      tag_51\n      jump\t// in\n    tag_69:\n        /* \"#utility.yul\":1498:1559   */\n      swap2\n      pop\n        /* \"#utility.yul\":1453:1569   */\n      pop\n        /* \"#utility.yul\":926:1576   */\n      swap3\n      pop\n      swap3\n      swap1\n      pop\n      jump\t// out\n        /* \"#utility.yul\":1582:1826   */\n    tag_70:\n        /* \"#utility.yul\":1695:1705   */\n      0x00\n        /* \"#utility.yul\":1730:1820   */\n      tag_72\n        /* \"#utility.yul\":1816:1819   */\n      dup4\n        /* \"#utility.yul\":1808:1814   */\n      dup4\n        /* \"#utility.yul\":1730:1820   */\n      tag_73\n      jump\t// in\n    tag_72:\n        /* \"#utility.yul\":1716:1820   */\n      swap1\n      pop\n        /* \"#utility.yul\":1582:1826   */\n      swap3\n      swap2\n      pop\n      pop\n      jump\t// out\n        /* \"#utility.yul\":1900:2987   */\n    tag_74:\n        /* \"#utility.yul\":2063:2066   */\n      0x00\n        /* \"#utility.yul\":2092:2168   */\n      tag_76\n        /* \"#utility.yul\":2162:2167   */\n      dup3\n        /* \"#utility.yul\":2092:2168   */\n      tag_77\n      jump\t// in\n    tag_76:\n        /* \"#utility.yul\":2184:2292   */\n      tag_78\n        /* \"#utility.yul\":2285:2291   */\n      dup2\n        /* \"#utility.yul\":2280:2283   */\n      dup6\n        /* \"#utility.yul\":2184:2292   */\n      tag_79\n      jump\t// in\n    tag_78:\n        /* \"#utility.yul\":2177:2292   */\n      swap4\n      pop\n        /* \"#utility.yul\":2318:2321   */\n      dup4\n        /* \"#utility.yul\":2363:2367   */\n      0x20\n        /* \"#utility.yul\":2355:2361   */\n      dup3\n        /* \"#utility.yul\":2351:2368   */\n      mul\n        /* \"#utility.yul\":2346:2349   */\n      dup6\n        /* \"#utility.yul\":2342:2369   */\n      add\n        /* \"#utility.yul\":2393:2471   */\n      tag_80\n        /* \"#utility.yul\":2465:2470   */\n      dup6\n        /* \"#utility.yul\":2393:2471   */\n      tag_81\n      jump\t// in\n    tag_80:\n        /* \"#utility.yul\":2494:2501   */\n      dup1\n        /* \"#utility.yul\":2525:2526   */\n      0x00\n        /* \"#utility.yul\":2510:2942   */\n    tag_82:\n        /* \"#utility.yul\":2535:2541   */\n      dup6\n        /* \"#utility.yul\":2532:2533   */\n      dup2\n        /* \"#utility.yul\":2529:2542   */\n      lt\n        /* \"#utility.yul\":2510:2942   */\n      iszero\n      tag_84\n      jumpi\n        /* \"#utility.yul\":2606:2615   */\n      dup5\n        /* \"#utility.yul\":2600:2604   */\n      dup5\n        /* \"#utility.yul\":2596:2616   */\n      sub\n        /* \"#utility.yul\":2591:2594   */\n      dup10\n        /* \"#utility.yul\":2584:2617   */\n      mstore\n        /* \"#utility.yul\":2657:2663   */\n      dup2\n        /* \"#utility.yul\":2651:2664   */\n      mload\n        /* \"#utility.yul\":2685:2793   */\n      tag_85\n        /* \"#utility.yul\":2788:2792   */\n      dup6\n        /* \"#utility.yul\":2773:2786   */\n      dup3\n        /* \"#utility.yul\":2685:2793   */\n      tag_70\n      jump\t// in\n    tag_85:\n        /* \"#utility.yul\":2677:2793   */\n      swap5\n      pop\n        /* \"#utility.yul\":2816:2898   */\n      tag_86\n        /* \"#utility.yul\":2891:2897   */\n      dup4\n        /* \"#utility.yul\":2816:2898   */\n      tag_87\n      jump\t// in\n    tag_86:\n        /* \"#utility.yul\":2806:2898   */\n      swap3\n      pop\n        /* \"#utility.yul\":2927:2931   */\n      0x20\n        /* \"#utility.yul\":2922:2925   */\n      dup11\n        /* \"#utility.yul\":2918:2932   */\n      add\n        /* \"#utility.yul\":2911:2932   */\n      swap10\n      pop\n        /* \"#utility.yul\":2570:2942   */\n      pop\n        /* \"#utility.yul\":2557:2558   */\n      0x01\n        /* \"#utility.yul\":2554:2555   */\n      dup2\n        /* \"#utility.yul\":2550:2559   */\n      add\n        /* \"#utility.yul\":2545:2559   */\n      swap1\n      pop\n        /* \"#utility.yul\":2510:2942   */\n      jump(tag_82)\n    tag_84:\n        /* \"#utility.yul\":2514:2528   */\n      pop\n        /* \"#utility.yul\":2958:2962   */\n      dup3\n        /* \"#utility.yul\":2951:2962   */\n      swap8\n      pop\n        /* \"#utility.yul\":2978:2981   */\n      dup8\n        /* \"#utility.yul\":2971:2981   */\n      swap6\n      pop\n        /* \"#utility.yul\":2068:2987   */\n      pop\n      pop\n      pop\n      pop\n      pop\n        /* \"#utility.yul\":1900:2987   */\n      swap3\n      swap2\n      pop\n      pop\n      jump\t// out\n        /* \"#utility.yul\":2993:3095   */\n    tag_88:\n        /* \"#utility.yul\":3066:3088   */\n      tag_90\n        /* \"#utility.yul\":3082:3087   */\n      dup2\n        /* \"#utility.yul\":3066:3088   */\n      tag_91\n      jump\t// in\n    tag_90:\n        /* \"#utility.yul\":3061:3064   */\n      dup3\n        /* \"#utility.yul\":3054:3089   */\n      mstore\n        /* \"#utility.yul\":2993:3095   */\n      pop\n      pop\n      jump\t// out\n        /* \"#utility.yul\":3101:3445   */\n    tag_92:\n        /* \"#utility.yul\":3179:3182   */\n      0x00\n        /* \"#utility.yul\":3207:3246   */\n      tag_94\n        /* \"#utility.yul\":3240:3245   */\n      dup3\n        /* \"#utility.yul\":3207:3246   */\n      tag_95\n      jump\t// in\n    tag_94:\n        /* \"#utility.yul\":3262:3323   */\n      tag_96\n        /* \"#utility.yul\":3316:3322   */\n      dup2\n        /* \"#utility.yul\":3311:3314   */\n      dup6\n        /* \"#utility.yul\":3262:3323   */\n      tag_97\n      jump\t// in\n    tag_96:\n        /* \"#utility.yul\":3255:3323   */\n      swap4\n      pop\n        /* \"#utility.yul\":3332:3384   */\n      tag_98\n        /* \"#utility.yul\":3377:3383   */\n      dup2\n        /* \"#utility.yul\":3372:3375   */\n      dup6\n        /* \"#utility.yul\":3365:3369   */\n      0x20\n        /* \"#utility.yul\":3358:3363   */\n      dup7\n        /* \"#utility.yul\":3354:3370   */\n      add\n        /* \"#utility.yul\":3332:3384   */\n      tag_99\n      jump\t// in\n    tag_98:\n        /* \"#utility.yul\":3409:3438   */\n      tag_100\n        /* \"#utility.yul\":3431:3437   */\n      dup2\n        /* \"#utility.yul\":3409:3438   */\n      tag_101\n      jump\t// in\n    tag_100:\n        /* \"#utility.yul\":3404:3407   */\n      dup5\n        /* \"#utility.yul\":3400:3439   */\n      add\n        /* \"#utility.yul\":3393:3439   */\n      swap2\n      pop\n        /* \"#utility.yul\":3183:3445   */\n      pop\n        /* \"#utility.yul\":3101:3445   */\n      swap3\n      swap2\n      pop\n      pop\n      jump\t// out\n        /* \"#utility.yul\":3515:4279   */\n    tag_73:\n        /* \"#utility.yul\":3618:3621   */\n      0x00\n        /* \"#utility.yul\":3654:3658   */\n      0x60\n        /* \"#utility.yul\":3649:3652   */\n      dup4\n        /* \"#utility.yul\":3645:3659   */\n      add\n        /* \"#utility.yul\":3740:3744   */\n      0x00\n        /* \"#utility.yul\":3733:3738   */\n      dup4\n        /* \"#utility.yul\":3729:3745   */\n      add\n        /* \"#utility.yul\":3723:3746   */\n      mload\n        /* \"#utility.yul\":3759:3822   */\n      tag_103\n        /* \"#utility.yul\":3816:3820   */\n      0x00\n        /* \"#utility.yul\":3811:3814   */\n      dup7\n        /* \"#utility.yul\":3807:3821   */\n      add\n        /* \"#utility.yul\":3793:3805   */\n      dup3\n        /* \"#utility.yul\":3759:3822   */\n      tag_104\n      jump\t// in\n    tag_103:\n        /* \"#utility.yul\":3669:3832   */\n      pop\n        /* \"#utility.yul\":3918:3922   */\n      0x20\n        /* \"#utility.yul\":3911:3916   */\n      dup4\n        /* \"#utility.yul\":3907:3923   */\n      add\n        /* \"#utility.yul\":3901:3924   */\n      mload\n        /* \"#utility.yul\":3971:3974   */\n      dup5\n        /* \"#utility.yul\":3965:3969   */\n      dup3\n        /* \"#utility.yul\":3961:3975   */\n      sub\n        /* \"#utility.yul\":3954:3958   */\n      0x20\n        /* \"#utility.yul\":3949:3952   */\n      dup7\n        /* \"#utility.yul\":3945:3959   */\n      add\n        /* \"#utility.yul\":3938:3976   */\n      mstore\n        /* \"#utility.yul\":3997:4070   */\n      tag_105\n        /* \"#utility.yul\":4065:4069   */\n      dup3\n        /* \"#utility.yul\":4051:4063   */\n      dup3\n        /* \"#utility.yul\":3997:4070   */\n      tag_92\n      jump\t// in\n    tag_105:\n        /* \"#utility.yul\":3989:4070   */\n      swap2\n      pop\n        /* \"#utility.yul\":3842:4081   */\n      pop\n        /* \"#utility.yul\":4164:4168   */\n      0x40\n        /* \"#utility.yul\":4157:4162   */\n      dup4\n        /* \"#utility.yul\":4153:4169   */\n      add\n        /* \"#utility.yul\":4147:4170   */\n      mload\n        /* \"#utility.yul\":4183:4242   */\n      tag_106\n        /* \"#utility.yul\":4236:4240   */\n      0x40\n        /* \"#utility.yul\":4231:4234   */\n      dup7\n        /* \"#utility.yul\":4227:4241   */\n      add\n        /* \"#utility.yul\":4213:4225   */\n      dup3\n        /* \"#utility.yul\":4183:4242   */\n      tag_88\n      jump\t// in\n    tag_106:\n        /* \"#utility.yul\":4091:4252   */\n      pop\n        /* \"#utility.yul\":4269:4273   */\n      dup1\n        /* \"#utility.yul\":4262:4273   */\n      swap2\n      pop\n        /* \"#utility.yul\":3623:4279   */\n      pop\n        /* \"#utility.yul\":3515:4279   */\n      swap3\n      swap2\n      pop\n      pop\n      jump\t// out\n        /* \"#utility.yul\":4285:4393   */\n    tag_104:\n        /* \"#utility.yul\":4362:4386   */\n      tag_108\n        /* \"#utility.yul\":4380:4385   */\n      dup2\n        /* \"#utility.yul\":4362:4386   */\n      tag_109\n      jump\t// in\n    tag_108:\n        /* \"#utility.yul\":4357:4360   */\n      dup3\n        /* \"#utility.yul\":4350:4387   */\n      mstore\n        /* \"#utility.yul\":4285:4393   */\n      pop\n      pop\n      jump\t// out\n        /* \"#utility.yul\":4399:4860   */\n    tag_8:\n        /* \"#utility.yul\":4586:4590   */\n      0x00\n        /* \"#utility.yul\":4624:4626   */\n      0x20\n        /* \"#utility.yul\":4613:4622   */\n      dup3\n        /* \"#utility.yul\":4609:4627   */\n      add\n        /* \"#utility.yul\":4601:4627   */\n      swap1\n      pop\n        /* \"#utility.yul\":4673:4682   */\n      dup2\n        /* \"#utility.yul\":4667:4671   */\n      dup2\n        /* \"#utility.yul\":4663:4683   */\n      sub\n        /* \"#utility.yul\":4659:4660   */\n      0x00\n        /* \"#utility.yul\":4648:4657   */\n      dup4\n        /* \"#utility.yul\":4644:4661   */\n      add\n        /* \"#utility.yul\":4637:4684   */\n      mstore\n        /* \"#utility.yul\":4701:4853   */\n      tag_111\n        /* \"#utility.yul\":4848:4852   */\n      dup2\n        /* \"#utility.yul\":4839:4845   */\n      dup5\n        /* \"#utility.yul\":4701:4853   */\n      tag_74\n      jump\t// in\n    tag_111:\n        /* \"#utility.yul\":4693:4853   */\n      swap1\n      pop\n        /* \"#utility.yul\":4399:4860   */\n      swap3\n      swap2\n      pop\n      pop\n      jump\t// out\n        /* \"#utility.yul\":4866:4995   */\n    tag_45:\n        /* \"#utility.yul\":4900:4906   */\n      0x00\n        /* \"#utility.yul\":4927:4947   */\n      tag_113\n      tag_114\n      jump\t// in\n    tag_113:\n        /* \"#utility.yul\":4917:4947   */\n      swap1\n      pop\n        /* \"#utility.yul\":4956:4989   */\n      tag_115\n        /* \"#utility.yul\":4984:4988   */\n      dup3\n        /* \"#utility.yul\":4976:4982   */\n      dup3\n        /* \"#utility.yul\":4956:4989   */\n      tag_116\n      jump\t// in\n    tag_115:\n        /* \"#utility.yul\":4866:4995   */\n      swap2\n      swap1\n      pop\n      jump\t// out\n        /* \"#utility.yul\":5001:5076   */\n    tag_114:\n        /* \"#utility.yul\":5034:5040   */\n      0x00\n        /* \"#utility.yul\":5067:5069   */\n      0x40\n        /* \"#utility.yul\":5061:5070   */\n      mload\n        /* \"#utility.yul\":5051:5070   */\n      swap1\n      pop\n        /* \"#utility.yul\":5001:5076   */\n      swap1\n      jump\t// out\n        /* \"#utility.yul\":5082:5390   */\n    tag_44:\n        /* \"#utility.yul\":5144:5148   */\n      0x00\n        /* \"#utility.yul\":5234:5252   */\n      0xffffffffffffffff\n        /* \"#utility.yul\":5226:5232   */\n      dup3\n        /* \"#utility.yul\":5223:5253   */\n      gt\n        /* \"#utility.yul\":5220:5276   */\n      iszero\n      tag_119\n      jumpi\n        /* \"#utility.yul\":5256:5274   */\n      tag_120\n      tag_121\n      jump\t// in\n    tag_120:\n        /* \"#utility.yul\":5220:5276   */\n    tag_119:\n        /* \"#utility.yul\":5294:5323   */\n      tag_122\n        /* \"#utility.yul\":5316:5322   */\n      dup3\n        /* \"#utility.yul\":5294:5323   */\n      tag_101\n      jump\t// in\n    tag_122:\n        /* \"#utility.yul\":5286:5323   */\n      swap1\n      pop\n        /* \"#utility.yul\":5378:5382   */\n      0x20\n        /* \"#utility.yul\":5372:5376   */\n      dup2\n        /* \"#utility.yul\":5368:5383   */\n      add\n        /* \"#utility.yul\":5360:5383   */\n      swap1\n      pop\n        /* \"#utility.yul\":5082:5390   */\n      swap2\n      swap1\n      pop\n      jump\t// out\n        /* \"#utility.yul\":5396:5550   */\n    tag_81:\n        /* \"#utility.yul\":5485:5489   */\n      0x00\n        /* \"#utility.yul\":5508:5511   */\n      dup2\n        /* \"#utility.yul\":5500:5511   */\n      swap1\n      pop\n        /* \"#utility.yul\":5538:5542   */\n      0x20\n        /* \"#utility.yul\":5533:5536   */\n      dup3\n        /* \"#utility.yul\":5529:5543   */\n      add\n        /* \"#utility.yul\":5521:5543   */\n      swap1\n      pop\n        /* \"#utility.yul\":5396:5550   */\n      swap2\n      swap1\n      pop\n      jump\t// out\n        /* \"#utility.yul\":5556:5692   */\n    tag_77:\n        /* \"#utility.yul\":5645:5651   */\n      0x00\n        /* \"#utility.yul\":5679:5684   */\n      dup2\n        /* \"#utility.yul\":5673:5685   */\n      mload\n        /* \"#utility.yul\":5663:5685   */\n      swap1\n      pop\n        /* \"#utility.yul\":5556:5692   */\n      swap2\n      swap1\n      pop\n      jump\t// out\n        /* \"#utility.yul\":5698:5797   */\n    tag_95:\n        /* \"#utility.yul\":5750:5756   */\n      0x00\n        /* \"#utility.yul\":5784:5789   */\n      dup2\n        /* \"#utility.yul\":5778:5790   */\n      mload\n        /* \"#utility.yul\":5768:5790   */\n      swap1\n      pop\n        /* \"#utility.yul\":5698:5797   */\n      swap2\n      swap1\n      pop\n      jump\t// out\n        /* \"#utility.yul\":5803:5938   */\n    tag_87:\n        /* \"#utility.yul\":5895:5899   */\n      0x00\n        /* \"#utility.yul\":5927:5931   */\n      0x20\n        /* \"#utility.yul\":5922:5925   */\n      dup3\n        /* \"#utility.yul\":5918:5932   */\n      add\n        /* \"#utility.yul\":5910:5932   */\n      swap1\n      pop\n        /* \"#utility.yul\":5803:5938   */\n      swap2\n      swap1\n      pop\n      jump\t// out\n        /* \"#utility.yul\":5944:6150   */\n    tag_79:\n        /* \"#utility.yul\":6065:6076   */\n      0x00\n        /* \"#utility.yul\":6099:6105   */\n      dup3\n        /* \"#utility.yul\":6094:6097   */\n      dup3\n        /* \"#utility.yul\":6087:6106   */\n      mstore\n        /* \"#utility.yul\":6139:6143   */\n      0x20\n        /* \"#utility.yul\":6134:6137   */\n      dup3\n        /* \"#utility.yul\":6130:6144   */\n      add\n        /* \"#utility.yul\":6115:6144   */\n      swap1\n      pop\n        /* \"#utility.yul\":5944:6150   */\n      swap3\n      swap2\n      pop\n      pop\n      jump\t// out\n        /* \"#utility.yul\":6156:6315   */\n    tag_97:\n        /* \"#utility.yul\":6230:6241   */\n      0x00\n        /* \"#utility.yul\":6264:6270   */\n      dup3\n        /* \"#utility.yul\":6259:6262   */\n      dup3\n        /* \"#utility.yul\":6252:6271   */\n      mstore\n        /* \"#utility.yul\":6304:6308   */\n      0x20\n        /* \"#utility.yul\":6299:6302   */\n      dup3\n        /* \"#utility.yul\":6295:6309   */\n      add\n        /* \"#utility.yul\":6280:6309   */\n      swap1\n      pop\n        /* \"#utility.yul\":6156:6315   */\n      swap3\n      swap2\n      pop\n      pop\n      jump\t// out\n        /* \"#utility.yul\":6321:6626   */\n    tag_25:\n        /* \"#utility.yul\":6361:6364   */\n      0x00\n        /* \"#utility.yul\":6380:6400   */\n      tag_130\n        /* \"#utility.yul\":6398:6399   */\n      dup3\n        /* \"#utility.yul\":6380:6400   */\n      tag_109\n      jump\t// in\n    tag_130:\n        /* \"#utility.yul\":6375:6400   */\n      swap2\n      pop\n        /* \"#utility.yul\":6414:6434   */\n      tag_131\n        /* \"#utility.yul\":6432:6433   */\n      dup4\n        /* \"#utility.yul\":6414:6434   */\n      tag_109\n      jump\t// in\n    tag_131:\n        /* \"#utility.yul\":6409:6434   */\n      swap3\n      pop\n        /* \"#utility.yul\":6568:6569   */\n      dup3\n        /* \"#utility.yul\":6500:6566   */\n      0xffffffffffffffffffffffffffffffffffffffffffffffffffffffffffffffff\n        /* \"#utility.yul\":6496:6570   */\n      sub\n        /* \"#utility.yul\":6493:6494   */\n      dup3\n        /* \"#utility.yul\":6490:6571   */\n      gt\n        /* \"#utility.yul\":6487:6594   */\n      iszero\n      tag_132\n      jumpi\n        /* \"#utility.yul\":6574:6592   */\n      tag_133\n      tag_134\n      jump\t// in\n    tag_133:\n        /* \"#utility.yul\":6487:6594   */\n    tag_132:\n        /* \"#utility.yul\":6618:6619   */\n      dup3\n        /* \"#utility.yul\":6615:6616   */\n      dup3\n        /* \"#utility.yul\":6611:6620   */\n      add\n        /* \"#utility.yul\":6604:6620   */\n      swap1\n      pop\n        /* \"#utility.yul\":6321:6626   */\n      swap3\n      swap2\n      pop\n      pop\n      jump\t// out\n        /* \"#utility.yul\":6632:6722   */\n    tag_91:\n        /* \"#utility.yul\":6667:6674   */\n      0x00\n        /* \"#utility.yul\":6710:6715   */\n      dup2\n        /* \"#utility.yul\":6707:6708   */\n      0x01\n        /* \"#utility.yul\":6696:6716   */\n      signextend\n        /* \"#utility.yul\":6685:6716   */\n      swap1\n      pop\n        /* \"#utility.yul\":6632:6722   */\n      swap2\n      swap1\n      pop\n      jump\t// out\n        /* \"#utility.yul\":6728:6805   */\n    tag_109:\n        /* \"#utility.yul\":6765:6772   */\n      0x00\n        /* \"#utility.yul\":6794:6799   */\n      dup2\n        /* \"#utility.yul\":6783:6799   */\n      swap1\n      pop\n        /* \"#utility.yul\":6728:6805   */\n      swap2\n      swap1\n      pop\n      jump\t// out\n        /* \"#utility.yul\":6811:6965   */\n    tag_50:\n        /* \"#utility.yul\":6895:6901   */\n      dup3\n        /* \"#utility.yul\":6890:6893   */\n      dup2\n        /* \"#utility.yul\":6885:6888   */\n      dup4\n        /* \"#utility.yul\":6872:6902   */\n      calldatacopy\n        /* \"#utility.yul\":6957:6958   */\n      0x00\n        /* \"#utility.yul\":6948:6954   */\n      dup4\n        /* \"#utility.yul\":6943:6946   */\n      dup4\n        /* \"#utility.yul\":6939:6955   */\n      add\n        /* \"#utility.yul\":6932:6959   */\n      mstore\n        /* \"#utility.yul\":6811:6965   */\n      pop\n      pop\n      pop\n      jump\t// out\n        /* \"#utility.yul\":6971:7278   */\n    tag_99:\n        /* \"#utility.yul\":7039:7040   */\n      0x00\n        /* \"#utility.yul\":7049:7162   */\n    tag_139:\n        /* \"#utility.yul\":7063:7069   */\n      dup4\n        /* \"#utility.yul\":7060:7061   */\n      dup2\n        /* \"#utility.yul\":7057:7070   */\n      lt\n        /* \"#utility.yul\":7049:7162   */\n      iszero\n      tag_141\n      jumpi\n        /* \"#utility.yul\":7148:7149   */\n      dup1\n        /* \"#utility.yul\":7143:7146   */\n      dup3\n        /* \"#utility.yul\":7139:7150   */\n      add\n        /* \"#utility.yul\":7133:7151   */\n      mload\n        /* \"#utility.yul\":7129:7130   */\n      dup2\n        /* \"#utility.yul\":7124:7127   */\n      dup5\n        /* \"#utility.yul\":7120:7131   */\n      add\n        /* \"#utility.yul\":7113:7152   */\n      mstore\n        /* \"#utility.yul\":7085:7087   */\n      0x20\n        /* \"#utility.yul\":7082:7083   */\n      dup2\n        /* \"#utility.yul\":7078:7088   */\n      add\n        /* \"#utility.yul\":7073:7088   */\n      swap1\n      pop\n        /* \"#utility.yul\":7049:7162   */\n      jump(tag_139)\n    tag_141:\n        /* \"#utility.yul\":7180:7186   */\n      dup4\n        /* \"#utility.yul\":7177:7178   */\n      dup2\n        /* \"#utility.yul\":7174:7187   */\n      gt\n        /* \"#utility.yul\":7171:7272   */\n      iszero\n      tag_142\n      jumpi\n        /* \"#utility.yul\":7260:7261   */\n      0x00\n        /* \"#utility.yul\":7251:7257   */\n      dup5\n        /* \"#utility.yul\":7246:7249   */\n      dup5\n        /* \"#utility.yul\":7242:7258   */\n      add\n        /* \"#utility.yul\":7235:7262   */\n      mstore\n        /* \"#utility.yul\":7171:7272   */\n    tag_142:\n        /* \"#utility.yul\":7020:7278   */\n      pop\n        /* \"#utility.yul\":6971:7278   */\n      pop\n      pop\n      pop\n      jump\t// out\n        /* \"#utility.yul\":7284:7604   */\n    tag_18:\n        /* \"#utility.yul\":7328:7334   */\n      0x00\n        /* \"#utility.yul\":7365:7366   */\n      0x02\n        /* \"#utility.yul\":7359:7363   */\n      dup3\n        /* \"#utility.yul\":7355:7367   */\n      div\n        /* \"#utility.yul\":7345:7367   */\n      swap1\n      pop\n        /* \"#utility.yul\":7412:7413   */\n      0x01\n        /* \"#utility.yul\":7406:7410   */\n      dup3\n        /* \"#utility.yul\":7402:7414   */\n      and\n        /* \"#utility.yul\":7433:7451   */\n      dup1\n        /* \"#utility.yul\":7423:7504   */\n      tag_144\n      jumpi\n        /* \"#utility.yul\":7489:7493   */\n      0x7f\n        /* \"#utility.yul\":7481:7487   */\n      dup3\n        /* \"#utility.yul\":7477:7494   */\n      and\n        /* \"#utility.yul\":7467:7494   */\n      swap2\n      pop\n        /* \"#utility.yul\":7423:7504   */\n    tag_144:\n        /* \"#utility.yul\":7551:7553   */\n      0x20\n        /* \"#utility.yul\":7543:7549   */\n      dup3\n        /* \"#utility.yul\":7540:7554   */\n      lt\n        /* \"#utility.yul\":7520:7538   */\n      dup2\n        /* \"#utility.yul\":7517:7555   */\n      eq\n        /* \"#utility.yul\":7514:7598   */\n      iszero\n      tag_145\n      jumpi\n        /* \"#utility.yul\":7570:7588   */\n      tag_146\n      tag_147\n      jump\t// in\n    tag_146:\n        /* \"#utility.yul\":7514:7598   */\n    tag_145:\n        /* \"#utility.yul\":7335:7604   */\n      pop\n        /* \"#utility.yul\":7284:7604   */\n      swap2\n      swap1\n      pop\n      jump\t// out\n        /* \"#utility.yul\":7610:7891   */\n    tag_116:\n        /* \"#utility.yul\":7693:7720   */\n      tag_149\n        /* \"#utility.yul\":7715:7719   */\n      dup3\n        /* \"#utility.yul\":7693:7720   */\n      tag_101\n      jump\t// in\n    tag_149:\n        /* \"#utility.yul\":7685:7691   */\n      dup2\n        /* \"#utility.yul\":7681:7721   */\n      add\n        /* \"#utility.yul\":7823:7829   */\n      dup2\n        /* \"#utility.yul\":7811:7821   */\n      dup2\n        /* \"#utility.yul\":7808:7830   */\n      lt\n        /* \"#utility.yul\":7787:7805   */\n      0xffffffffffffffff\n        /* \"#utility.yul\":7775:7785   */\n      dup3\n        /* \"#utility.yul\":7772:7806   */\n      gt\n        /* \"#utility.yul\":7769:7831   */\n      or\n        /* \"#utility.yul\":7766:7854   */\n      iszero\n      tag_150\n      jumpi\n        /* \"#utility.yul\":7834:7852   */\n      tag_151\n      tag_121\n      jump\t// in\n    tag_151:\n        /* \"#utility.yul\":7766:7854   */\n    tag_150:\n        /* \"#utility.yul\":7874:7884   */\n      dup1\n        /* \"#utility.yul\":7870:7872   */\n      0x40\n        /* \"#utility.yul\":7863:7885   */\n      mstore\n        /* \"#utility.yul\":7653:7891   */\n      pop\n        /* \"#utility.yul\":7610:7891   */\n      pop\n      pop\n      jump\t// out\n        /* \"#utility.yul\":7897:8077   */\n    tag_134:\n        /* \"#utility.yul\":7945:8022   */\n      0x4e487b7100000000000000000000000000000000000000000000000000000000\n        /* \"#utility.yul\":7942:7943   */\n      0x00\n        /* \"#utility.yul\":7935:8023   */\n      mstore\n        /* \"#utility.yul\":8042:8046   */\n      0x11\n        /* \"#utility.yul\":8039:8040   */\n      0x04\n        /* \"#utility.yul\":8032:8047   */\n      mstore\n        /* \"#utility.yul\":8066:8070   */\n      0x24\n        /* \"#utility.yul\":8063:8064   */\n      0x00\n        /* \"#utility.yul\":8056:8071   */\n      revert\n        /* \"#utility.yul\":8083:8263   */\n    tag_147:\n        /* \"#utility.yul\":8131:8208   */\n      0x4e487b7100000000000000000000000000000000000000000000000000000000\n        /* \"#utility.yul\":8128:8129   */\n      0x00\n        /* \"#utility.yul\":8121:8209   */\n      mstore\n        /* \"#utility.yul\":8228:8232   */\n      0x22\n        /* \"#utility.yul\":8225:8226   */\n      0x04\n        /* \"#utility.yul\":8218:8233   */\n      mstore\n        /* \"#utility.yul\":8252:8256   */\n      0x24\n        /* \"#utility.yul\":8249:8250   */\n      0x00\n        /* \"#utility.yul\":8242:8257   */\n      revert\n        /* \"#utility.yul\":8269:8449   */\n    tag_121:\n        /* \"#utility.yul\":8317:8394   */\n      0x4e487b7100000000000000000000000000000000000000000000000000000000\n        /* \"#utility.yul\":8314:8315   */\n      0x00\n        /* \"#utility.yul\":8307:8395   */\n      mstore\n        /* \"#utility.yul\":8414:8418   */\n      0x41\n        /* \"#utility.yul\":8411:8412   */\n      0x04\n        /* \"#utility.yul\":8404:8419   */\n      mstore\n        /* \"#utility.yul\":8438:8442   */\n      0x24\n        /* \"#utility.yul\":8435:8436   */\n      0x00\n        /* \"#utility.yul\":8428:8443   */\n      revert\n        /* \"#utility.yul\":8455:8572   */\n    tag_59:\n        /* \"#utility.yul\":8564:8565   */\n      0x00\n        /* \"#utility.yul\":8561:8562   */\n      dup1\n        /* \"#utility.yul\":8554:8566   */\n      revert\n        /* \"#utility.yul\":8578:8695   */\n    tag_48:\n        /* \"#utility.yul\":8687:8688   */\n      0x00\n        /* \"#utility.yul\":8684:8685   */\n      dup1\n        /* \"#utility.yul\":8677:8689   */\n      revert\n        /* \"#utility.yul\":8701:8818   */\n    tag_67:\n        /* \"#utility.yul\":8810:8811   */\n      0x00\n        /* \"#utility.yul\":8807:8808   */\n      dup1\n        /* \"#utility.yul\":8800:8812   */\n      revert\n        /* \"#utility.yul\":8824:8941   */\n    tag_64:\n        /* \"#utility.yul\":8933:8934   */\n      0x00\n        /* \"#utility.yul\":8930:8931   */\n      dup1\n        /* \"#utility.yul\":8923:8935   */\n      revert\n        /* \"#utility.yul\":8947:9049   */\n    tag_101:\n        /* \"#utility.yul\":8988:8994   */\n      0x00\n        /* \"#utility.yul\":9039:9041   */\n      0x1f\n        /* \"#utility.yul\":9035:9042   */\n      not\n        /* \"#utility.yul\":9030:9032   */\n      0x1f\n        /* \"#utility.yul\":9023:9028   */\n      dup4\n        /* \"#utility.yul\":9019:9033   */\n      add\n        /* \"#utility.yul\":9015:9043   */\n      and\n        /* \"#utility.yul\":9005:9043   */\n      swap1\n      pop\n        /* \"#utility.yul\":8947:9049   */\n      swap2\n      swap1\n      pop\n      jump\t// out\n        /* \"#utility.yul\":9055:9173   */\n    tag_54:\n        /* \"#utility.yul\":9126:9148   */\n      tag_161\n        /* \"#utility.yul\":9142:9147   */\n      dup2\n        /* \"#utility.yul\":9126:9148   */\n      tag_91\n      jump\t// in\n    tag_161:\n        /* \"#utility.yul\":9119:9124   */\n      dup2\n        /* \"#utility.yul\":9116:9149   */\n      eq\n        /* \"#utility.yul\":9106:9167   */\n      tag_162\n      jumpi\n        /* \"#utility.yul\":9163:9164   */\n      0x00\n        /* \"#utility.yul\":9160:9161   */\n      dup1\n        /* \"#utility.yul\":9153:9165   */\n      revert\n        /* \"#utility.yul\":9106:9167   */\n    tag_162:\n        /* \"#utility.yul\":9055:9173   */\n      pop\n      jump\t// out\n\n    auxdata: 0xa2646970667358221220a24b62ca4b0b912159708e0fb7cef927db0d36a4d55516e8a4c01654e583a31c64736f6c63430008070033\n}\n",
				"bytecode": {
					"linkReferences": {},
					"object": "608060405234801561001057600080fd5b506107d8806100206000396000f3fe608060405234801561001057600080fd5b50600436106100365760003560e01c806302ee3a521461003b57806351401eef14610059575b600080fd5b610043610075565b60405161005091906104fa565b60405180910390f35b610073600480360381019061006e919061036e565b61018d565b005b60606000805480602002602001604051908101604052809291908181526020016000905b828210156101845783829060005260206000209060030201604051806060016040529081600082015481526020016001820180546100d690610676565b80601f016020809104026020016040519081016040528092919081815260200182805461010290610676565b801561014f5780601f106101245761010080835404028352916020019161014f565b820191906000526020600020905b81548152906001019060200180831161013257829003601f168201915b505050505081526020016002820160009054906101000a900460010b60010b60010b8152505081526020019060010190610099565b50505050905090565b600060016000805490506101a191906105c7565b9050600060405180606001604052808381526020018581526020018460010b81525090506000819080600181540180825580915050600190039060005260206000209060030201600090919091909150600082015181600001556020820151816001019080519060200190610217929190610246565b5060408201518160020160006101000a81548161ffff021916908360010b61ffff160217905550505050505050565b82805461025290610676565b90600052602060002090601f01602090048101928261027457600085556102bb565b82601f1061028d57805160ff19168380011785556102bb565b828001600101855582156102bb579182015b828111156102ba57825182559160200191906001019061029f565b5b5090506102c891906102cc565b5090565b5b808211156102e55760008160009055506001016102cd565b5090565b60006102fc6102f784610541565b61051c565b9050828152602081018484840111156103185761031761076b565b5b610323848285610634565b509392505050565b60008135905061033a8161078b565b92915050565b600082601f83011261035557610354610766565b5b81356103658482602086016102e9565b91505092915050565b6000806040838503121561038557610384610775565b5b600083013567ffffffffffffffff8111156103a3576103a2610770565b5b6103af85828601610340565b92505060206103c08582860161032b565b9150509250929050565b60006103d6838361049b565b905092915050565b60006103e982610582565b6103f381856105a5565b93508360208202850161040585610572565b8060005b85811015610441578484038952815161042285826103ca565b945061042d83610598565b925060208a01995050600181019050610409565b50829750879550505050505092915050565b61045c8161061d565b82525050565b600061046d8261058d565b61047781856105b6565b9350610487818560208601610643565b6104908161077a565b840191505092915050565b60006060830160008301516104b360008601826104eb565b50602083015184820360208601526104cb8282610462565b91505060408301516104e06040860182610453565b508091505092915050565b6104f48161062a565b82525050565b6000602082019050818103600083015261051481846103de565b905092915050565b6000610526610537565b905061053282826106a8565b919050565b6000604051905090565b600067ffffffffffffffff82111561055c5761055b610737565b5b6105658261077a565b9050602081019050919050565b6000819050602082019050919050565b600081519050919050565b600081519050919050565b6000602082019050919050565b600082825260208201905092915050565b600082825260208201905092915050565b60006105d28261062a565b91506105dd8361062a565b9250827fffffffffffffffffffffffffffffffffffffffffffffffffffffffffffffffff03821115610612576106116106d9565b5b828201905092915050565b60008160010b9050919050565b6000819050919050565b82818337600083830152505050565b60005b83811015610661578082015181840152602081019050610646565b83811115610670576000848401525b50505050565b6000600282049050600182168061068e57607f821691505b602082108114156106a2576106a1610708565b5b50919050565b6106b18261077a565b810181811067ffffffffffffffff821117156106d0576106cf610737565b5b80604052505050565b7f4e487b7100000000000000000000000000000000000000000000000000000000600052601160045260246000fd5b7f4e487b7100000000000000000000000000000000000000000000000000000000600052602260045260246000fd5b7f4e487b7100000000000000000000000000000000000000000000000000000000600052604160045260246000fd5b600080fd5b600080fd5b600080fd5b600080fd5b6000601f19601f8301169050919050565b6107948161061d565b811461079f57600080fd5b5056fea2646970667358221220a24b62ca4b0b912159708e0fb7cef927db0d36a4d55516e8a4c01654e583a31c64736f6c63430008070033",
					"opcodes": "PUSH1 0x80 PUSH1 0x40 MSTORE CALLVALUE DUP1 ISZERO PUSH2 0x10 JUMPI PUSH1 0x0 DUP1 REVERT JUMPDEST POP PUSH2 0x7D8 DUP1 PUSH2 0x20 PUSH1 0x0 CODECOPY PUSH1 0x0 RETURN INVALID PUSH1 0x80 PUSH1 0x40 MSTORE CALLVALUE DUP1 ISZERO PUSH2 0x10 JUMPI PUSH1 0x0 DUP1 REVERT JUMPDEST POP PUSH1 0x4 CALLDATASIZE LT PUSH2 0x36 JUMPI PUSH1 0x0 CALLDATALOAD PUSH1 0xE0 SHR DUP1 PUSH4 0x2EE3A52 EQ PUSH2 0x3B JUMPI DUP1 PUSH4 0x51401EEF EQ PUSH2 0x59 JUMPI JUMPDEST PUSH1 0x0 DUP1 REVERT JUMPDEST PUSH2 0x43 PUSH2 0x75 JUMP JUMPDEST PUSH1 0x40 MLOAD PUSH2 0x50 SWAP2 SWAP1 PUSH2 0x4FA JUMP JUMPDEST PUSH1 0x40 MLOAD DUP1 SWAP2 SUB SWAP1 RETURN JUMPDEST PUSH2 0x73 PUSH1 0x4 DUP1 CALLDATASIZE SUB DUP2 ADD SWAP1 PUSH2 0x6E SWAP2 SWAP1 PUSH2 0x36E JUMP JUMPDEST PUSH2 0x18D JUMP JUMPDEST STOP JUMPDEST PUSH1 0x60 PUSH1 0x0 DUP1 SLOAD DUP1 PUSH1 0x20 MUL PUSH1 0x20 ADD PUSH1 0x40 MLOAD SWAP1 DUP2 ADD PUSH1 0x40 MSTORE DUP1 SWAP3 SWAP2 SWAP1 DUP2 DUP2 MSTORE PUSH1 0x20 ADD PUSH1 0x0 SWAP1 JUMPDEST DUP3 DUP3 LT ISZERO PUSH2 0x184 JUMPI DUP4 DUP3 SWAP1 PUSH1 0x0 MSTORE PUSH1 0x20 PUSH1 0x0 KECCAK256 SWAP1 PUSH1 0x3 MUL ADD PUSH1 0x40 MLOAD DUP1 PUSH1 0x60 ADD PUSH1 0x40 MSTORE SWAP1 DUP2 PUSH1 0x0 DUP3 ADD SLOAD DUP2 MSTORE PUSH1 0x20 ADD PUSH1 0x1 DUP3 ADD DUP1 SLOAD PUSH2 0xD6 SWAP1 PUSH2 0x676 JUMP JUMPDEST DUP1 PUSH1 0x1F ADD PUSH1 0x20 DUP1 SWAP2 DIV MUL PUSH1 0x20 ADD PUSH1 0x40 MLOAD SWAP1 DUP2 ADD PUSH1 0x40 MSTORE DUP1 SWAP3 SWAP2 SWAP1 DUP2 DUP2 MSTORE PUSH1 0x20 ADD DUP3 DUP1 SLOAD PUSH2 0x102 SWAP1 PUSH2 0x676 JUMP JUMPDEST DUP1 ISZERO PUSH2 0x14F JUMPI DUP1 PUSH1 0x1F LT PUSH2 0x124 JUMPI PUSH2 0x100 DUP1 DUP4 SLOAD DIV MUL DUP4 MSTORE SWAP2 PUSH1 0x20 ADD SWAP2 PUSH2 0x14F JUMP JUMPDEST DUP3 ADD SWAP2 SWAP1 PUSH1 0x0 MSTORE PUSH1 0x20 PUSH1 0x0 KECCAK256 SWAP1 JUMPDEST DUP2 SLOAD DUP2 MSTORE SWAP1 PUSH1 0x1 ADD SWAP1 PUSH1 0x20 ADD DUP1 DUP4 GT PUSH2 0x132 JUMPI DUP3 SWAP1 SUB PUSH1 0x1F AND DUP3 ADD SWAP2 JUMPDEST POP POP POP POP POP DUP2 MSTORE PUSH1 0x20 ADD PUSH1 0x2 DUP3 ADD PUSH1 0x0 SWAP1 SLOAD SWAP1 PUSH2 0x100 EXP SWAP1 DIV PUSH1 0x1 SIGNEXTEND PUSH1 0x1 SIGNEXTEND PUSH1 0x1 SIGNEXTEND DUP2 MSTORE POP POP DUP2 MSTORE PUSH1 0x20 ADD SWAP1 PUSH1 0x1 ADD SWAP1 PUSH2 0x99 JUMP JUMPDEST POP POP POP POP SWAP1 POP SWAP1 JUMP JUMPDEST PUSH1 0x0 PUSH1 0x1 PUSH1 0x0 DUP1 SLOAD SWAP1 POP PUSH2 0x1A1 SWAP2 SWAP1 PUSH2 0x5C7 JUMP JUMPDEST SWAP1 POP PUSH1 0x0 PUSH1 0x40 MLOAD DUP1 PUSH1 0x60 ADD PUSH1 0x40 MSTORE DUP1 DUP4 DUP2 MSTORE PUSH1 0x20 ADD DUP6 DUP2 MSTORE PUSH1 0x20 ADD DUP5 PUSH1 0x1 SIGNEXTEND DUP2 MSTORE POP SWAP1 POP PUSH1 0x0 DUP2 SWAP1 DUP1 PUSH1 0x1 DUP2 SLOAD ADD DUP1 DUP3 SSTORE DUP1 SWAP2 POP POP PUSH1 0x1 SWAP1 SUB SWAP1 PUSH1 0x0 MSTORE PUSH1 0x20 PUSH1 0x0 KECCAK256 SWAP1 PUSH1 0x3 MUL ADD PUSH1 0x0 SWAP1 SWAP2 SWAP1 SWAP2 SWAP1 SWAP2 POP PUSH1 0x0 DUP3 ADD MLOAD DUP2 PUSH1 0x0 ADD SSTORE PUSH1 0x20 DUP3 ADD MLOAD DUP2 PUSH1 0x1 ADD SWAP1 DUP1 MLOAD SWAP1 PUSH1 0x20 ADD SWAP1 PUSH2 0x217 SWAP3 SWAP2 SWAP1 PUSH2 0x246 JUMP JUMPDEST POP PUSH1 0x40 DUP3 ADD MLOAD DUP2 PUSH1 0x2 ADD PUSH1 0x0 PUSH2 0x100 EXP DUP2 SLOAD DUP2 PUSH2 0xFFFF MUL NOT AND SWAP1 DUP4 PUSH1 0x1 SIGNEXTEND PUSH2 0xFFFF AND MUL OR SWAP1 SSTORE POP POP POP POP POP POP POP JUMP JUMPDEST DUP3 DUP1 SLOAD PUSH2 0x252 SWAP1 PUSH2 0x676 JUMP JUMPDEST SWAP1 PUSH1 0x0 MSTORE PUSH1 0x20 PUSH1 0x0 KECCAK256 SWAP1 PUSH1 0x1F ADD PUSH1 0x20 SWAP1 DIV DUP2 ADD SWAP3 DUP3 PUSH2 0x274 JUMPI PUSH1 0x0 DUP6 SSTORE PUSH2 0x2BB JUMP JUMPDEST DUP3 PUSH1 0x1F LT PUSH2 0x28D JUMPI DUP1 MLOAD PUSH1 0xFF NOT AND DUP4 DUP1 ADD OR DUP6 SSTORE PUSH2 0x2BB JUMP JUMPDEST DUP3 DUP1 ADD PUSH1 0x1 ADD DUP6 SSTORE DUP3 ISZERO PUSH2 0x2BB JUMPI SWAP2 DUP3 ADD JUMPDEST DUP3 DUP2 GT ISZERO PUSH2 0x2BA JUMPI DUP3 MLOAD DUP3 SSTORE SWAP2 PUSH1 0x20 ADD SWAP2 SWAP1 PUSH1 0x1 ADD SWAP1 PUSH2 0x29F JUMP JUMPDEST JUMPDEST POP SWAP1 POP PUSH2 0x2C8 SWAP2 SWAP1 PUSH2 0x2CC JUMP JUMPDEST POP SWAP1 JUMP JUMPDEST JUMPDEST DUP1 DUP3 GT ISZERO PUSH2 0x2E5 JUMPI PUSH1 0x0 DUP2 PUSH1 0x0 SWAP1 SSTORE POP PUSH1 0x1 ADD PUSH2 0x2CD JUMP JUMPDEST POP SWAP1 JUMP JUMPDEST PUSH1 0x0 PUSH2 0x2FC PUSH2 0x2F7 DUP5 PUSH2 0x541 JUMP JUMPDEST PUSH2 0x51C JUMP JUMPDEST SWAP1 POP DUP3 DUP2 MSTORE PUSH1 0x20 DUP2 ADD DUP5 DUP5 DUP5 ADD GT ISZERO PUSH2 0x318 JUMPI PUSH2 0x317 PUSH2 0x76B JUMP JUMPDEST JUMPDEST PUSH2 0x323 DUP5 DUP3 DUP6 PUSH2 0x634 JUMP JUMPDEST POP SWAP4 SWAP3 POP POP POP JUMP JUMPDEST PUSH1 0x0 DUP2 CALLDATALOAD SWAP1 POP PUSH2 0x33A DUP2 PUSH2 0x78B JUMP JUMPDEST SWAP3 SWAP2 POP POP JUMP JUMPDEST PUSH1 0x0 DUP3 PUSH1 0x1F DUP4 ADD SLT PUSH2 0x355 JUMPI PUSH2 0x354 PUSH2 0x766 JUMP JUMPDEST JUMPDEST DUP2 CALLDATALOAD PUSH2 0x365 DUP5 DUP3 PUSH1 0x20 DUP7 ADD PUSH2 0x2E9 JUMP JUMPDEST SWAP2 POP POP SWAP3 SWAP2 POP POP JUMP JUMPDEST PUSH1 0x0 DUP1 PUSH1 0x40 DUP4 DUP6 SUB SLT ISZERO PUSH2 0x385 JUMPI PUSH2 0x384 PUSH2 0x775 JUMP JUMPDEST JUMPDEST PUSH1 0x0 DUP4 ADD CALLDATALOAD PUSH8 0xFFFFFFFFFFFFFFFF DUP2 GT ISZERO PUSH2 0x3A3 JUMPI PUSH2 0x3A2 PUSH2 0x770 JUMP JUMPDEST JUMPDEST PUSH2 0x3AF DUP6 DUP3 DUP7 ADD PUSH2 0x340 JUMP JUMPDEST SWAP3 POP POP PUSH1 0x20 PUSH2 0x3C0 DUP6 DUP3 DUP7 ADD PUSH2 0x32B JUMP JUMPDEST SWAP2 POP POP SWAP3 POP SWAP3 SWAP1 POP JUMP JUMPDEST PUSH1 0x0 PUSH2 0x3D6 DUP4 DUP4 PUSH2 0x49B JUMP JUMPDEST SWAP1 POP SWAP3 SWAP2 POP POP JUMP JUMPDEST PUSH1 0x0 PUSH2 0x3E9 DUP3 PUSH2 0x582 JUMP JUMPDEST PUSH2 0x3F3 DUP2 DUP6 PUSH2 0x5A5 JUMP JUMPDEST SWAP4 POP DUP4 PUSH1 0x20 DUP3 MUL DUP6 ADD PUSH2 0x405 DUP6 PUSH2 0x572 JUMP JUMPDEST DUP1 PUSH1 0x0 JUMPDEST DUP6 DUP2 LT ISZERO PUSH2 0x441 JUMPI DUP5 DUP5 SUB DUP10 MSTORE DUP2 MLOAD PUSH2 0x422 DUP6 DUP3 PUSH2 0x3CA JUMP JUMPDEST SWAP5 POP PUSH2 0x42D DUP4 PUSH2 0x598 JUMP JUMPDEST SWAP3 POP PUSH1 0x20 DUP11 ADD SWAP10 POP POP PUSH1 0x1 DUP2 ADD SWAP1 POP PUSH2 0x409 JUMP JUMPDEST POP DUP3 SWAP8 POP DUP8 SWAP6 POP POP POP POP POP POP SWAP3 SWAP2 POP POP JUMP JUMPDEST PUSH2 0x45C DUP2 PUSH2 0x61D JUMP JUMPDEST DUP3 MSTORE POP POP JUMP JUMPDEST PUSH1 0x0 PUSH2 0x46D DUP3 PUSH2 0x58D JUMP JUMPDEST PUSH2 0x477 DUP2 DUP6 PUSH2 0x5B6 JUMP JUMPDEST SWAP4 POP PUSH2 0x487 DUP2 DUP6 PUSH1 0x20 DUP7 ADD PUSH2 0x643 JUMP JUMPDEST PUSH2 0x490 DUP2 PUSH2 0x77A JUMP JUMPDEST DUP5 ADD SWAP2 POP POP SWAP3 SWAP2 POP POP JUMP JUMPDEST PUSH1 0x0 PUSH1 0x60 DUP4 ADD PUSH1 0x0 DUP4 ADD MLOAD PUSH2 0x4B3 PUSH1 0x0 DUP7 ADD DUP3 PUSH2 0x4EB JUMP JUMPDEST POP PUSH1 0x20 DUP4 ADD MLOAD DUP5 DUP3 SUB PUSH1 0x20 DUP7 ADD MSTORE PUSH2 0x4CB DUP3 DUP3 PUSH2 0x462 JUMP JUMPDEST SWAP2 POP POP PUSH1 0x40 DUP4 ADD MLOAD PUSH2 0x4E0 PUSH1 0x40 DUP7 ADD DUP3 PUSH2 0x453 JUMP JUMPDEST POP DUP1 SWAP2 POP POP SWAP3 SWAP2 POP POP JUMP JUMPDEST PUSH2 0x4F4 DUP2 PUSH2 0x62A JUMP JUMPDEST DUP3 MSTORE POP POP JUMP JUMPDEST PUSH1 0x0 PUSH1 0x20 DUP3 ADD SWAP1 POP DUP2 DUP2 SUB PUSH1 0x0 DUP4 ADD MSTORE PUSH2 0x514 DUP2 DUP5 PUSH2 0x3DE JUMP JUMPDEST SWAP1 POP SWAP3 SWAP2 POP POP JUMP JUMPDEST PUSH1 0x0 PUSH2 0x526 PUSH2 0x537 JUMP JUMPDEST SWAP1 POP PUSH2 0x532 DUP3 DUP3 PUSH2 0x6A8 JUMP JUMPDEST SWAP2 SWAP1 POP JUMP JUMPDEST PUSH1 0x0 PUSH1 0x40 MLOAD SWAP1 POP SWAP1 JUMP JUMPDEST PUSH1 0x0 PUSH8 0xFFFFFFFFFFFFFFFF DUP3 GT ISZERO PUSH2 0x55C JUMPI PUSH2 0x55B PUSH2 0x737 JUMP JUMPDEST JUMPDEST PUSH2 0x565 DUP3 PUSH2 0x77A JUMP JUMPDEST SWAP1 POP PUSH1 0x20 DUP2 ADD SWAP1 POP SWAP2 SWAP1 POP JUMP JUMPDEST PUSH1 0x0 DUP2 SWAP1 POP PUSH1 0x20 DUP3 ADD SWAP1 POP SWAP2 SWAP1 POP JUMP JUMPDEST PUSH1 0x0 DUP2 MLOAD SWAP1 POP SWAP2 SWAP1 POP JUMP JUMPDEST PUSH1 0x0 DUP2 MLOAD SWAP1 POP SWAP2 SWAP1 POP JUMP JUMPDEST PUSH1 0x0 PUSH1 0x20 DUP3 ADD SWAP1 POP SWAP2 SWAP1 POP JUMP JUMPDEST PUSH1 0x0 DUP3 DUP3 MSTORE PUSH1 0x20 DUP3 ADD SWAP1 POP SWAP3 SWAP2 POP POP JUMP JUMPDEST PUSH1 0x0 DUP3 DUP3 MSTORE PUSH1 0x20 DUP3 ADD SWAP1 POP SWAP3 SWAP2 POP POP JUMP JUMPDEST PUSH1 0x0 PUSH2 0x5D2 DUP3 PUSH2 0x62A JUMP JUMPDEST SWAP2 POP PUSH2 0x5DD DUP4 PUSH2 0x62A JUMP JUMPDEST SWAP3 POP DUP3 PUSH32 0xFFFFFFFFFFFFFFFFFFFFFFFFFFFFFFFFFFFFFFFFFFFFFFFFFFFFFFFFFFFFFFFF SUB DUP3 GT ISZERO PUSH2 0x612 JUMPI PUSH2 0x611 PUSH2 0x6D9 JUMP JUMPDEST JUMPDEST DUP3 DUP3 ADD SWAP1 POP SWAP3 SWAP2 POP POP JUMP JUMPDEST PUSH1 0x0 DUP2 PUSH1 0x1 SIGNEXTEND SWAP1 POP SWAP2 SWAP1 POP JUMP JUMPDEST PUSH1 0x0 DUP2 SWAP1 POP SWAP2 SWAP1 POP JUMP JUMPDEST DUP3 DUP2 DUP4 CALLDATACOPY PUSH1 0x0 DUP4 DUP4 ADD MSTORE POP POP POP JUMP JUMPDEST PUSH1 0x0 JUMPDEST DUP4 DUP2 LT ISZERO PUSH2 0x661 JUMPI DUP1 DUP3 ADD MLOAD DUP2 DUP5 ADD MSTORE PUSH1 0x20 DUP2 ADD SWAP1 POP PUSH2 0x646 JUMP JUMPDEST DUP4 DUP2 GT ISZERO PUSH2 0x670 JUMPI PUSH1 0x0 DUP5 DUP5 ADD MSTORE JUMPDEST POP POP POP POP JUMP JUMPDEST PUSH1 0x0 PUSH1 0x2 DUP3 DIV SWAP1 POP PUSH1 0x1 DUP3 AND DUP1 PUSH2 0x68E JUMPI PUSH1 0x7F DUP3 AND SWAP2 POP JUMPDEST PUSH1 0x20 DUP3 LT DUP2 EQ ISZERO PUSH2 0x6A2 JUMPI PUSH2 0x6A1 PUSH2 0x708 JUMP JUMPDEST JUMPDEST POP SWAP2 SWAP1 POP JUMP JUMPDEST PUSH2 0x6B1 DUP3 PUSH2 0x77A JUMP JUMPDEST DUP2 ADD DUP2 DUP2 LT PUSH8 0xFFFFFFFFFFFFFFFF DUP3 GT OR ISZERO PUSH2 0x6D0 JUMPI PUSH2 0x6CF PUSH2 0x737 JUMP JUMPDEST JUMPDEST DUP1 PUSH1 0x40 MSTORE POP POP POP JUMP JUMPDEST PUSH32 0x4E487B7100000000000000000000000000000000000000000000000000000000 PUSH1 0x0 MSTORE PUSH1 0x11 PUSH1 0x4 MSTORE PUSH1 0x24 PUSH1 0x0 REVERT JUMPDEST PUSH32 0x4E487B7100000000000000000000000000000000000000000000000000000000 PUSH1 0x0 MSTORE PUSH1 0x22 PUSH1 0x4 MSTORE PUSH1 0x24 PUSH1 0x0 REVERT JUMPDEST PUSH32 0x4E487B7100000000000000000000000000000000000000000000000000000000 PUSH1 0x0 MSTORE PUSH1 0x41 PUSH1 0x4 MSTORE PUSH1 0x24 PUSH1 0x0 REVERT JUMPDEST PUSH1 0x0 DUP1 REVERT JUMPDEST PUSH1 0x0 DUP1 REVERT JUMPDEST PUSH1 0x0 DUP1 REVERT JUMPDEST PUSH1 0x0 DUP1 REVERT JUMPDEST PUSH1 0x0 PUSH1 0x1F NOT PUSH1 0x1F DUP4 ADD AND SWAP1 POP SWAP2 SWAP1 POP JUMP JUMPDEST PUSH2 0x794 DUP2 PUSH2 0x61D JUMP JUMPDEST DUP2 EQ PUSH2 0x79F JUMPI PUSH1 0x0 DUP1 REVERT JUMPDEST POP JUMP INVALID LOG2 PUSH5 0x6970667358 0x22 SLT KECCAK256 LOG2 0x4B PUSH3 0xCA4B0B SWAP2 0x21 MSIZE PUSH17 0x8E0FB7CEF927DB0D36A4D55516E8A4C016 SLOAD 0xE5 DUP4 LOG3 SHR PUSH5 0x736F6C6343 STOP ADDMOD SMOD STOP CALLER "
				},
				"gasEstimates": {
					"creation": {
						"codeDepositCost": "401600",
						"executionCost": "436",
						"totalCost": "402036"
					},
					"external": {
						"createProduit(string,int16)": "infinite",
						"getAllProducts()": "infinite"
					}
				},
				"methodIdentifiers": {
					"createProduit(string,int16)": "51401eef",
					"getAllProducts()": "02ee3a52"
				}
			},
			"storageLayout": {
				"storage": [
					{
						"astId": 21,
						"contract": "contracts/ExoSupermarche.sol:supermarche",
						"label": "produits",
						"offset": 0,
						"slot": "0",
						"type": "t_array(t_struct(produit)8_storage)dyn_storage"
					}
				],
				"types": {
					"t_array(t_struct(produit)8_storage)dyn_storage": {
						"base": "t_struct(produit)8_storage",
						"encoding": "dynamic_array",
						"label": "struct supermarche.produit[]",
						"numberOfBytes": "32"
					},
					"t_int16": {
						"encoding": "inplace",
						"label": "int16",
						"numberOfBytes": "2"
					},
					"t_string_storage": {
						"encoding": "bytes",
						"label": "string",
						"numberOfBytes": "32"
					},
					"t_struct(produit)8_storage": {
						"encoding": "inplace",
						"label": "struct supermarche.produit",
						"members": [
							{
								"astId": 3,
								"contract": "contracts/ExoSupermarche.sol:supermarche",
								"label": "_id",
								"offset": 0,
								"slot": "0",
								"type": "t_uint256"
							},
							{
								"astId": 5,
								"contract": "contracts/ExoSupermarche.sol:supermarche",
								"label": "_libelle",
								"offset": 0,
								"slot": "1",
								"type": "t_string_storage"
							},
							{
								"astId": 7,
								"contract": "contracts/ExoSupermarche.sol:supermarche",
								"label": "_prix",
								"offset": 0,
								"slot": "2",
								"type": "t_int16"
							}
						],
						"numberOfBytes": "96"
					},
					"t_uint256": {
						"encoding": "inplace",
						"label": "uint256",
						"numberOfBytes": "32"
					}
				}
			},
			"userdoc": {
				"kind": "user",
				"methods": {},
				"version": 1
			}
		}
	}
}