{
	"contracts/ExoSupermarche.sol": {
		"supermarche": {
			"abi": [
				{
					"inputs": [
						{
							"internalType": "string",
							"name": "_nom",
							"type": "string"
						}
					],
					"name": "createClient",
					"outputs": [],
					"stateMutability": "nonpayable",
					"type": "function"
				},
				{
					"inputs": [
						{
							"internalType": "string",
							"name": "_libelle",
							"type": "string"
						},
						{
							"internalType": "int16",
							"name": "_prix",
							"type": "int16"
						}
					],
					"name": "createProduit",
					"outputs": [],
					"stateMutability": "nonpayable",
					"type": "function"
				},
				{
					"inputs": [],
					"name": "getAllClients",
					"outputs": [
						{
							"components": [
								{
									"internalType": "uint256",
									"name": "_id",
									"type": "uint256"
								},
								{
									"internalType": "string",
									"name": "_nom",
									"type": "string"
								},
								{
									"components": [
										{
											"internalType": "uint256",
											"name": "_id",
											"type": "uint256"
										},
										{
											"internalType": "string",
											"name": "_libelle",
											"type": "string"
										},
										{
											"internalType": "int16",
											"name": "_prix",
											"type": "int16"
										}
									],
									"internalType": "struct supermarche.productData[]",
									"name": "panier",
									"type": "tuple[]"
								}
							],
							"internalType": "struct supermarche.clientData[]",
							"name": "",
							"type": "tuple[]"
						}
					],
					"stateMutability": "view",
					"type": "function"
				},
				{
					"inputs": [],
					"name": "getAllProducts",
					"outputs": [
						{
							"components": [
								{
									"internalType": "uint256",
									"name": "_id",
									"type": "uint256"
								},
								{
									"internalType": "string",
									"name": "_libelle",
									"type": "string"
								},
								{
									"internalType": "int16",
									"name": "_prix",
									"type": "int16"
								}
							],
							"internalType": "struct supermarche.productData[]",
							"name": "",
							"type": "tuple[]"
						}
					],
					"stateMutability": "view",
					"type": "function"
				},
				{
					"inputs": [
						{
							"internalType": "uint256",
							"name": "_id",
							"type": "uint256"
						}
					],
					"name": "getProductById",
					"outputs": [
						{
							"components": [
								{
									"internalType": "uint256",
									"name": "_id",
									"type": "uint256"
								},
								{
									"internalType": "string",
									"name": "_libelle",
									"type": "string"
								},
								{
									"internalType": "int16",
									"name": "_prix",
									"type": "int16"
								}
							],
							"internalType": "struct supermarche.productData",
							"name": "",
							"type": "tuple"
						}
					],
					"stateMutability": "view",
					"type": "function"
				},
				{
					"inputs": [
						{
							"internalType": "string",
							"name": "_name",
							"type": "string"
						}
					],
					"name": "getProductByName",
					"outputs": [
						{
							"components": [
								{
									"internalType": "uint256",
									"name": "_id",
									"type": "uint256"
								},
								{
									"internalType": "string",
									"name": "_libelle",
									"type": "string"
								},
								{
									"internalType": "int16",
									"name": "_prix",
									"type": "int16"
								}
							],
							"internalType": "struct supermarche.productData",
							"name": "",
							"type": "tuple"
						}
					],
					"stateMutability": "view",
					"type": "function"
				}
			],
			"devdoc": {
				"kind": "dev",
				"methods": {},
				"version": 1
			},
			"evm": {
				"assembly": "    /* \"contracts/ExoSupermarche.sol\":59:1339  contract supermarche {\r... */\n  mstore(0x40, 0x80)\n  callvalue\n  dup1\n  iszero\n  tag_1\n  jumpi\n  0x00\n  dup1\n  revert\ntag_1:\n  pop\n  dataSize(sub_0)\n  dup1\n  dataOffset(sub_0)\n  0x00\n  codecopy\n  0x00\n  return\nstop\n\nsub_0: assembly {\n        /* \"contracts/ExoSupermarche.sol\":59:1339  contract supermarche {\r... */\n      mstore(0x40, 0x80)\n      callvalue\n      dup1\n      iszero\n      tag_1\n      jumpi\n      0x00\n      dup1\n      revert\n    tag_1:\n      pop\n      jumpi(tag_2, lt(calldatasize, 0x04))\n      shr(0xe0, calldataload(0x00))\n      dup1\n      0x02ee3a52\n      eq\n      tag_3\n      jumpi\n      dup1\n      0x3f70c2b4\n      eq\n      tag_4\n      jumpi\n      dup1\n      0x51401eef\n      eq\n      tag_5\n      jumpi\n      dup1\n      0xd4290f83\n      eq\n      tag_6\n      jumpi\n      dup1\n      0xe4d7a3d4\n      eq\n      tag_7\n      jumpi\n      dup1\n      0xe88e9f0f\n      eq\n      tag_8\n      jumpi\n    tag_2:\n      0x00\n      dup1\n      revert\n        /* \"contracts/ExoSupermarche.sol\":1040:1145  function getAllProducts() public view returns(productData[] memory) {\r... */\n    tag_3:\n      tag_9\n      tag_10\n      jump\t// in\n    tag_9:\n      mload(0x40)\n      tag_11\n      swap2\n      swap1\n      tag_12\n      jump\t// in\n    tag_11:\n      mload(0x40)\n      dup1\n      swap2\n      sub\n      swap1\n      return\n        /* \"contracts/ExoSupermarche.sol\":775:891  function getProductById(uint _id) public view returns(productData memory) {\r... */\n    tag_4:\n      tag_13\n      0x04\n      dup1\n      calldatasize\n      sub\n      dup2\n      add\n      swap1\n      tag_14\n      swap2\n      swap1\n      tag_15\n      jump\t// in\n    tag_14:\n      tag_16\n      jump\t// in\n    tag_13:\n      mload(0x40)\n      tag_17\n      swap2\n      swap1\n      tag_18\n      jump\t// in\n    tag_17:\n      mload(0x40)\n      dup1\n      swap2\n      sub\n      swap1\n      return\n        /* \"contracts/ExoSupermarche.sol\":553:767  function createProduit(string memory _libelle, int16 _prix) public {\r... */\n    tag_5:\n      tag_19\n      0x04\n      dup1\n      calldatasize\n      sub\n      dup2\n      add\n      swap1\n      tag_20\n      swap2\n      swap1\n      tag_21\n      jump\t// in\n    tag_20:\n      tag_22\n      jump\t// in\n    tag_19:\n      stop\n        /* \"contracts/ExoSupermarche.sol\":899:1032  function getProductByName(string memory _name) public view returns(productData memory) {\r... */\n    tag_6:\n      tag_23\n      0x04\n      dup1\n      calldatasize\n      sub\n      dup2\n      add\n      swap1\n      tag_24\n      swap2\n      swap1\n      tag_25\n      jump\t// in\n    tag_24:\n      tag_26\n      jump\t// in\n    tag_23:\n      mload(0x40)\n      tag_27\n      swap2\n      swap1\n      tag_18\n      jump\t// in\n    tag_27:\n      mload(0x40)\n      dup1\n      swap2\n      sub\n      swap1\n      return\n        /* \"contracts/ExoSupermarche.sol\":1230:1332  function getAllClients() public view returns(clientData[] memory) {\r... */\n    tag_7:\n      tag_28\n      tag_29\n      jump\t// in\n    tag_28:\n      mload(0x40)\n      tag_30\n      swap2\n      swap1\n      tag_31\n      jump\t// in\n    tag_30:\n      mload(0x40)\n      dup1\n      swap2\n      sub\n      swap1\n      return\n        /* \"contracts/ExoSupermarche.sol\":1153:1222  function createClient(string memory _nom) public {\r... */\n    tag_8:\n      tag_32\n      0x04\n      dup1\n      calldatasize\n      sub\n      dup2\n      add\n      swap1\n      tag_33\n      swap2\n      swap1\n      tag_25\n      jump\t// in\n    tag_33:\n      tag_34\n      jump\t// in\n    tag_32:\n      stop\n        /* \"contracts/ExoSupermarche.sol\":1040:1145  function getAllProducts() public view returns(productData[] memory) {\r... */\n    tag_10:\n        /* \"contracts/ExoSupermarche.sol\":1086:1106  productData[] memory */\n      0x60\n        /* \"contracts/ExoSupermarche.sol\":1126:1137  AllProduits */\n      0x00\n        /* \"contracts/ExoSupermarche.sol\":1119:1137  return AllProduits */\n      dup1\n      sload\n      dup1\n      0x20\n      mul\n      0x20\n      add\n      mload(0x40)\n      swap1\n      dup2\n      add\n      0x40\n      mstore\n      dup1\n      swap3\n      swap2\n      swap1\n      dup2\n      dup2\n      mstore\n      0x20\n      add\n      0x00\n      swap1\n    tag_36:\n      dup3\n      dup3\n      lt\n      iszero\n      tag_37\n      jumpi\n      dup4\n      dup3\n      swap1\n      0x00\n      mstore\n      keccak256(0x00, 0x20)\n      swap1\n      0x03\n      mul\n      add\n      mload(0x40)\n      dup1\n      0x60\n      add\n      0x40\n      mstore\n      swap1\n      dup2\n      0x00\n      dup3\n      add\n      sload\n      dup2\n      mstore\n      0x20\n      add\n      0x01\n      dup3\n      add\n      dup1\n      sload\n      tag_39\n      swap1\n      tag_40\n      jump\t// in\n    tag_39:\n      dup1\n      0x1f\n      add\n      0x20\n      dup1\n      swap2\n      div\n      mul\n      0x20\n      add\n      mload(0x40)\n      swap1\n      dup2\n      add\n      0x40\n      mstore\n      dup1\n      swap3\n      swap2\n      swap1\n      dup2\n      dup2\n      mstore\n      0x20\n      add\n      dup3\n      dup1\n      sload\n      tag_41\n      swap1\n      tag_40\n      jump\t// in\n    tag_41:\n      dup1\n      iszero\n      tag_42\n      jumpi\n      dup1\n      0x1f\n      lt\n      tag_43\n      jumpi\n      0x0100\n      dup1\n      dup4\n      sload\n      div\n      mul\n      dup4\n      mstore\n      swap2\n      0x20\n      add\n      swap2\n      jump(tag_42)\n    tag_43:\n      dup3\n      add\n      swap2\n      swap1\n      0x00\n      mstore\n      keccak256(0x00, 0x20)\n      swap1\n    tag_44:\n      dup2\n      sload\n      dup2\n      mstore\n      swap1\n      0x01\n      add\n      swap1\n      0x20\n      add\n      dup1\n      dup4\n      gt\n      tag_44\n      jumpi\n      dup3\n      swap1\n      sub\n      0x1f\n      and\n      dup3\n      add\n      swap2\n    tag_42:\n      pop\n      pop\n      pop\n      pop\n      pop\n      dup2\n      mstore\n      0x20\n      add\n      0x02\n      dup3\n      add\n      0x00\n      swap1\n      sload\n      swap1\n      0x0100\n      exp\n      swap1\n      div\n      0x01\n      signextend\n      0x01\n      signextend\n      0x01\n      signextend\n      dup2\n      mstore\n      pop\n      pop\n      dup2\n      mstore\n      0x20\n      add\n      swap1\n      0x01\n      add\n      swap1\n      jump(tag_36)\n    tag_37:\n      pop\n      pop\n      pop\n      pop\n      swap1\n      pop\n        /* \"contracts/ExoSupermarche.sol\":1040:1145  function getAllProducts() public view returns(productData[] memory) {\r... */\n      swap1\n      jump\t// out\n        /* \"contracts/ExoSupermarche.sol\":775:891  function getProductById(uint _id) public view returns(productData memory) {\r... */\n    tag_16:\n        /* \"contracts/ExoSupermarche.sol\":829:847  productData memory */\n      tag_45\n      tag_46\n      jump\t// in\n    tag_45:\n        /* \"contracts/ExoSupermarche.sol\":867:878  produitById */\n      0x03\n        /* \"contracts/ExoSupermarche.sol\":867:883  produitById[_id] */\n      0x00\n        /* \"contracts/ExoSupermarche.sol\":879:882  _id */\n      dup4\n        /* \"contracts/ExoSupermarche.sol\":867:883  produitById[_id] */\n      dup2\n      mstore\n      0x20\n      add\n      swap1\n      dup2\n      mstore\n      0x20\n      add\n      0x00\n      keccak256\n        /* \"contracts/ExoSupermarche.sol\":860:883  return produitById[_id] */\n      mload(0x40)\n      dup1\n      0x60\n      add\n      0x40\n      mstore\n      swap1\n      dup2\n      0x00\n      dup3\n      add\n      sload\n      dup2\n      mstore\n      0x20\n      add\n      0x01\n      dup3\n      add\n      dup1\n      sload\n      tag_48\n      swap1\n      tag_40\n      jump\t// in\n    tag_48:\n      dup1\n      0x1f\n      add\n      0x20\n      dup1\n      swap2\n      div\n      mul\n      0x20\n      add\n      mload(0x40)\n      swap1\n      dup2\n      add\n      0x40\n      mstore\n      dup1\n      swap3\n      swap2\n      swap1\n      dup2\n      dup2\n      mstore\n      0x20\n      add\n      dup3\n      dup1\n      sload\n      tag_49\n      swap1\n      tag_40\n      jump\t// in\n    tag_49:\n      dup1\n      iszero\n      tag_50\n      jumpi\n      dup1\n      0x1f\n      lt\n      tag_51\n      jumpi\n      0x0100\n      dup1\n      dup4\n      sload\n      div\n      mul\n      dup4\n      mstore\n      swap2\n      0x20\n      add\n      swap2\n      jump(tag_50)\n    tag_51:\n      dup3\n      add\n      swap2\n      swap1\n      0x00\n      mstore\n      keccak256(0x00, 0x20)\n      swap1\n    tag_52:\n      dup2\n      sload\n      dup2\n      mstore\n      swap1\n      0x01\n      add\n      swap1\n      0x20\n      add\n      dup1\n      dup4\n      gt\n      tag_52\n      jumpi\n      dup3\n      swap1\n      sub\n      0x1f\n      and\n      dup3\n      add\n      swap2\n    tag_50:\n      pop\n      pop\n      pop\n      pop\n      pop\n      dup2\n      mstore\n      0x20\n      add\n      0x02\n      dup3\n      add\n      0x00\n      swap1\n      sload\n      swap1\n      0x0100\n      exp\n      swap1\n      div\n      0x01\n      signextend\n      0x01\n      signextend\n      0x01\n      signextend\n      dup2\n      mstore\n      pop\n      pop\n      swap1\n      pop\n        /* \"contracts/ExoSupermarche.sol\":775:891  function getProductById(uint _id) public view returns(productData memory) {\r... */\n      swap2\n      swap1\n      pop\n      jump\t// out\n        /* \"contracts/ExoSupermarche.sol\":553:767  function createProduit(string memory _libelle, int16 _prix) public {\r... */\n    tag_22:\n        /* \"contracts/ExoSupermarche.sol\":631:638  uint id */\n      0x00\n        /* \"contracts/ExoSupermarche.sol\":662:663  1 */\n      0x01\n        /* \"contracts/ExoSupermarche.sol\":641:652  AllProduits */\n      0x00\n        /* \"contracts/ExoSupermarche.sol\":641:659  AllProduits.length */\n      dup1\n      sload\n      swap1\n      pop\n        /* \"contracts/ExoSupermarche.sol\":641:663  AllProduits.length + 1 */\n      tag_54\n      swap2\n      swap1\n      tag_55\n      jump\t// in\n    tag_54:\n        /* \"contracts/ExoSupermarche.sol\":631:663  uint id = AllProduits.length + 1 */\n      swap1\n      pop\n        /* \"contracts/ExoSupermarche.sol\":674:694  productData memory p */\n      0x00\n        /* \"contracts/ExoSupermarche.sol\":697:729  productData(id, _libelle, _prix) */\n      mload(0x40)\n      dup1\n      0x60\n      add\n      0x40\n      mstore\n      dup1\n        /* \"contracts/ExoSupermarche.sol\":709:711  id */\n      dup4\n        /* \"contracts/ExoSupermarche.sol\":697:729  productData(id, _libelle, _prix) */\n      dup2\n      mstore\n      0x20\n      add\n        /* \"contracts/ExoSupermarche.sol\":713:721  _libelle */\n      dup6\n        /* \"contracts/ExoSupermarche.sol\":697:729  productData(id, _libelle, _prix) */\n      dup2\n      mstore\n      0x20\n      add\n        /* \"contracts/ExoSupermarche.sol\":723:728  _prix */\n      dup5\n        /* \"contracts/ExoSupermarche.sol\":697:729  productData(id, _libelle, _prix) */\n      0x01\n      signextend\n      dup2\n      mstore\n      pop\n        /* \"contracts/ExoSupermarche.sol\":674:729  productData memory p = productData(id, _libelle, _prix) */\n      swap1\n      pop\n        /* \"contracts/ExoSupermarche.sol\":740:751  AllProduits */\n      0x00\n        /* \"contracts/ExoSupermarche.sol\":757:758  p */\n      dup2\n        /* \"contracts/ExoSupermarche.sol\":740:759  AllProduits.push(p) */\n      swap1\n      dup1\n      0x01\n      dup2\n      sload\n      add\n      dup1\n      dup3\n      sstore\n      dup1\n      swap2\n      pop\n      pop\n      0x01\n      swap1\n      sub\n      swap1\n      0x00\n      mstore\n      keccak256(0x00, 0x20)\n      swap1\n      0x03\n      mul\n      add\n      0x00\n      swap1\n      swap2\n      swap1\n      swap2\n      swap1\n      swap2\n      pop\n      0x00\n      dup3\n      add\n      mload\n      dup2\n      0x00\n      add\n      sstore\n      0x20\n      dup3\n      add\n      mload\n      dup2\n      0x01\n      add\n      swap1\n      dup1\n      mload\n      swap1\n      0x20\n      add\n      swap1\n      tag_57\n      swap3\n      swap2\n      swap1\n      tag_58\n      jump\t// in\n    tag_57:\n      pop\n      0x40\n      dup3\n      add\n      mload\n      dup2\n      0x02\n      add\n      exp(0x0100, 0x00)\n      dup2\n      sload\n      dup2\n      0xffff\n      mul\n      not\n      and\n      swap1\n      dup4\n      0x01\n      signextend\n      0xffff\n      and\n      mul\n      or\n      swap1\n      sstore\n      pop\n      pop\n      pop\n        /* \"contracts/ExoSupermarche.sol\":620:767  {\r... */\n      pop\n      pop\n        /* \"contracts/ExoSupermarche.sol\":553:767  function createProduit(string memory _libelle, int16 _prix) public {\r... */\n      pop\n      pop\n      jump\t// out\n        /* \"contracts/ExoSupermarche.sol\":899:1032  function getProductByName(string memory _name) public view returns(productData memory) {\r... */\n    tag_26:\n        /* \"contracts/ExoSupermarche.sol\":966:984  productData memory */\n      tag_59\n      tag_46\n      jump\t// in\n    tag_59:\n        /* \"contracts/ExoSupermarche.sol\":1004:1017  produitByName */\n      0x04\n        /* \"contracts/ExoSupermarche.sol\":1018:1023  _name */\n      dup3\n        /* \"contracts/ExoSupermarche.sol\":1004:1024  produitByName[_name] */\n      mload(0x40)\n      tag_61\n      swap2\n      swap1\n      tag_62\n      jump\t// in\n    tag_61:\n      swap1\n      dup2\n      mstore\n      0x20\n      add\n      mload(0x40)\n      dup1\n      swap2\n      sub\n      swap1\n      keccak256\n        /* \"contracts/ExoSupermarche.sol\":997:1024  return produitByName[_name] */\n      mload(0x40)\n      dup1\n      0x60\n      add\n      0x40\n      mstore\n      swap1\n      dup2\n      0x00\n      dup3\n      add\n      sload\n      dup2\n      mstore\n      0x20\n      add\n      0x01\n      dup3\n      add\n      dup1\n      sload\n      tag_63\n      swap1\n      tag_40\n      jump\t// in\n    tag_63:\n      dup1\n      0x1f\n      add\n      0x20\n      dup1\n      swap2\n      div\n      mul\n      0x20\n      add\n      mload(0x40)\n      swap1\n      dup2\n      add\n      0x40\n      mstore\n      dup1\n      swap3\n      swap2\n      swap1\n      dup2\n      dup2\n      mstore\n      0x20\n      add\n      dup3\n      dup1\n      sload\n      tag_64\n      swap1\n      tag_40\n      jump\t// in\n    tag_64:\n      dup1\n      iszero\n      tag_65\n      jumpi\n      dup1\n      0x1f\n      lt\n      tag_66\n      jumpi\n      0x0100\n      dup1\n      dup4\n      sload\n      div\n      mul\n      dup4\n      mstore\n      swap2\n      0x20\n      add\n      swap2\n      jump(tag_65)\n    tag_66:\n      dup3\n      add\n      swap2\n      swap1\n      0x00\n      mstore\n      keccak256(0x00, 0x20)\n      swap1\n    tag_67:\n      dup2\n      sload\n      dup2\n      mstore\n      swap1\n      0x01\n      add\n      swap1\n      0x20\n      add\n      dup1\n      dup4\n      gt\n      tag_67\n      jumpi\n      dup3\n      swap1\n      sub\n      0x1f\n      and\n      dup3\n      add\n      swap2\n    tag_65:\n      pop\n      pop\n      pop\n      pop\n      pop\n      dup2\n      mstore\n      0x20\n      add\n      0x02\n      dup3\n      add\n      0x00\n      swap1\n      sload\n      swap1\n      0x0100\n      exp\n      swap1\n      div\n      0x01\n      signextend\n      0x01\n      signextend\n      0x01\n      signextend\n      dup2\n      mstore\n      pop\n      pop\n      swap1\n      pop\n        /* \"contracts/ExoSupermarche.sol\":899:1032  function getProductByName(string memory _name) public view returns(productData memory) {\r... */\n      swap2\n      swap1\n      pop\n      jump\t// out\n        /* \"contracts/ExoSupermarche.sol\":1230:1332  function getAllClients() public view returns(clientData[] memory) {\r... */\n    tag_29:\n        /* \"contracts/ExoSupermarche.sol\":1275:1294  clientData[] memory */\n      0x60\n        /* \"contracts/ExoSupermarche.sol\":1314:1324  AllClients */\n      0x01\n        /* \"contracts/ExoSupermarche.sol\":1307:1324  return AllClients */\n      dup1\n      sload\n      dup1\n      0x20\n      mul\n      0x20\n      add\n      mload(0x40)\n      swap1\n      dup2\n      add\n      0x40\n      mstore\n      dup1\n      swap3\n      swap2\n      swap1\n      dup2\n      dup2\n      mstore\n      0x20\n      add\n      0x00\n      swap1\n    tag_69:\n      dup3\n      dup3\n      lt\n      iszero\n      tag_70\n      jumpi\n      dup4\n      dup3\n      swap1\n      0x00\n      mstore\n      keccak256(0x00, 0x20)\n      swap1\n      0x03\n      mul\n      add\n      mload(0x40)\n      dup1\n      0x60\n      add\n      0x40\n      mstore\n      swap1\n      dup2\n      0x00\n      dup3\n      add\n      sload\n      dup2\n      mstore\n      0x20\n      add\n      0x01\n      dup3\n      add\n      dup1\n      sload\n      tag_72\n      swap1\n      tag_40\n      jump\t// in\n    tag_72:\n      dup1\n      0x1f\n      add\n      0x20\n      dup1\n      swap2\n      div\n      mul\n      0x20\n      add\n      mload(0x40)\n      swap1\n      dup2\n      add\n      0x40\n      mstore\n      dup1\n      swap3\n      swap2\n      swap1\n      dup2\n      dup2\n      mstore\n      0x20\n      add\n      dup3\n      dup1\n      sload\n      tag_73\n      swap1\n      tag_40\n      jump\t// in\n    tag_73:\n      dup1\n      iszero\n      tag_74\n      jumpi\n      dup1\n      0x1f\n      lt\n      tag_75\n      jumpi\n      0x0100\n      dup1\n      dup4\n      sload\n      div\n      mul\n      dup4\n      mstore\n      swap2\n      0x20\n      add\n      swap2\n      jump(tag_74)\n    tag_75:\n      dup3\n      add\n      swap2\n      swap1\n      0x00\n      mstore\n      keccak256(0x00, 0x20)\n      swap1\n    tag_76:\n      dup2\n      sload\n      dup2\n      mstore\n      swap1\n      0x01\n      add\n      swap1\n      0x20\n      add\n      dup1\n      dup4\n      gt\n      tag_76\n      jumpi\n      dup3\n      swap1\n      sub\n      0x1f\n      and\n      dup3\n      add\n      swap2\n    tag_74:\n      pop\n      pop\n      pop\n      pop\n      pop\n      dup2\n      mstore\n      0x20\n      add\n      0x02\n      dup3\n      add\n      dup1\n      sload\n      dup1\n      0x20\n      mul\n      0x20\n      add\n      mload(0x40)\n      swap1\n      dup2\n      add\n      0x40\n      mstore\n      dup1\n      swap3\n      swap2\n      swap1\n      dup2\n      dup2\n      mstore\n      0x20\n      add\n      0x00\n      swap1\n    tag_77:\n      dup3\n      dup3\n      lt\n      iszero\n      tag_78\n      jumpi\n      dup4\n      dup3\n      swap1\n      0x00\n      mstore\n      keccak256(0x00, 0x20)\n      swap1\n      0x03\n      mul\n      add\n      mload(0x40)\n      dup1\n      0x60\n      add\n      0x40\n      mstore\n      swap1\n      dup2\n      0x00\n      dup3\n      add\n      sload\n      dup2\n      mstore\n      0x20\n      add\n      0x01\n      dup3\n      add\n      dup1\n      sload\n      tag_80\n      swap1\n      tag_40\n      jump\t// in\n    tag_80:\n      dup1\n      0x1f\n      add\n      0x20\n      dup1\n      swap2\n      div\n      mul\n      0x20\n      add\n      mload(0x40)\n      swap1\n      dup2\n      add\n      0x40\n      mstore\n      dup1\n      swap3\n      swap2\n      swap1\n      dup2\n      dup2\n      mstore\n      0x20\n      add\n      dup3\n      dup1\n      sload\n      tag_81\n      swap1\n      tag_40\n      jump\t// in\n    tag_81:\n      dup1\n      iszero\n      tag_82\n      jumpi\n      dup1\n      0x1f\n      lt\n      tag_83\n      jumpi\n      0x0100\n      dup1\n      dup4\n      sload\n      div\n      mul\n      dup4\n      mstore\n      swap2\n      0x20\n      add\n      swap2\n      jump(tag_82)\n    tag_83:\n      dup3\n      add\n      swap2\n      swap1\n      0x00\n      mstore\n      keccak256(0x00, 0x20)\n      swap1\n    tag_84:\n      dup2\n      sload\n      dup2\n      mstore\n      swap1\n      0x01\n      add\n      swap1\n      0x20\n      add\n      dup1\n      dup4\n      gt\n      tag_84\n      jumpi\n      dup3\n      swap1\n      sub\n      0x1f\n      and\n      dup3\n      add\n      swap2\n    tag_82:\n      pop\n      pop\n      pop\n      pop\n      pop\n      dup2\n      mstore\n      0x20\n      add\n      0x02\n      dup3\n      add\n      0x00\n      swap1\n      sload\n      swap1\n      0x0100\n      exp\n      swap1\n      div\n      0x01\n      signextend\n      0x01\n      signextend\n      0x01\n      signextend\n      dup2\n      mstore\n      pop\n      pop\n      dup2\n      mstore\n      0x20\n      add\n      swap1\n      0x01\n      add\n      swap1\n      jump(tag_77)\n    tag_78:\n      pop\n      pop\n      pop\n      pop\n      dup2\n      mstore\n      pop\n      pop\n      dup2\n      mstore\n      0x20\n      add\n      swap1\n      0x01\n      add\n      swap1\n      jump(tag_69)\n    tag_70:\n      pop\n      pop\n      pop\n      pop\n      swap1\n      pop\n        /* \"contracts/ExoSupermarche.sol\":1230:1332  function getAllClients() public view returns(clientData[] memory) {\r... */\n      swap1\n      jump\t// out\n        /* \"contracts/ExoSupermarche.sol\":1153:1222  function createClient(string memory _nom) public {\r... */\n    tag_34:\n      pop\n      jump\t// out\n    tag_46:\n      mload(0x40)\n      dup1\n      0x60\n      add\n      0x40\n      mstore\n      dup1\n      0x00\n      dup2\n      mstore\n      0x20\n      add\n      0x60\n      dup2\n      mstore\n      0x20\n      add\n      signextend(0x01, 0x00)\n      dup2\n      mstore\n      pop\n      swap1\n      jump\t// out\n    tag_58:\n      dup3\n      dup1\n      sload\n      tag_86\n      swap1\n      tag_40\n      jump\t// in\n    tag_86:\n      swap1\n      0x00\n      mstore\n      keccak256(0x00, 0x20)\n      swap1\n      0x1f\n      add\n      0x20\n      swap1\n      div\n      dup2\n      add\n      swap3\n      dup3\n      tag_88\n      jumpi\n      0x00\n      dup6\n      sstore\n      jump(tag_87)\n    tag_88:\n      dup3\n      0x1f\n      lt\n      tag_89\n      jumpi\n      dup1\n      mload\n      not(0xff)\n      and\n      dup4\n      dup1\n      add\n      or\n      dup6\n      sstore\n      jump(tag_87)\n    tag_89:\n      dup3\n      dup1\n      add\n      0x01\n      add\n      dup6\n      sstore\n      dup3\n      iszero\n      tag_87\n      jumpi\n      swap2\n      dup3\n      add\n    tag_90:\n      dup3\n      dup2\n      gt\n      iszero\n      tag_91\n      jumpi\n      dup3\n      mload\n      dup3\n      sstore\n      swap2\n      0x20\n      add\n      swap2\n      swap1\n      0x01\n      add\n      swap1\n      jump(tag_90)\n    tag_91:\n    tag_87:\n      pop\n      swap1\n      pop\n      tag_92\n      swap2\n      swap1\n      tag_93\n      jump\t// in\n    tag_92:\n      pop\n      swap1\n      jump\t// out\n    tag_93:\n    tag_94:\n      dup1\n      dup3\n      gt\n      iszero\n      tag_95\n      jumpi\n      0x00\n      dup2\n      0x00\n      swap1\n      sstore\n      pop\n      0x01\n      add\n      jump(tag_94)\n    tag_95:\n      pop\n      swap1\n      jump\t// out\n        /* \"#utility.yul\":7:419   */\n    tag_97:\n        /* \"#utility.yul\":85:90   */\n      0x00\n        /* \"#utility.yul\":110:176   */\n      tag_99\n        /* \"#utility.yul\":126:175   */\n      tag_100\n        /* \"#utility.yul\":168:174   */\n      dup5\n        /* \"#utility.yul\":126:175   */\n      tag_101\n      jump\t// in\n    tag_100:\n        /* \"#utility.yul\":110:176   */\n      tag_102\n      jump\t// in\n    tag_99:\n        /* \"#utility.yul\":101:176   */\n      swap1\n      pop\n        /* \"#utility.yul\":199:205   */\n      dup3\n        /* \"#utility.yul\":192:197   */\n      dup2\n        /* \"#utility.yul\":185:206   */\n      mstore\n        /* \"#utility.yul\":237:241   */\n      0x20\n        /* \"#utility.yul\":230:235   */\n      dup2\n        /* \"#utility.yul\":226:242   */\n      add\n        /* \"#utility.yul\":275:278   */\n      dup5\n        /* \"#utility.yul\":266:272   */\n      dup5\n        /* \"#utility.yul\":261:264   */\n      dup5\n        /* \"#utility.yul\":257:273   */\n      add\n        /* \"#utility.yul\":254:279   */\n      gt\n        /* \"#utility.yul\":251:363   */\n      iszero\n      tag_103\n      jumpi\n        /* \"#utility.yul\":282:361   */\n      tag_104\n      tag_105\n      jump\t// in\n    tag_104:\n        /* \"#utility.yul\":251:363   */\n    tag_103:\n        /* \"#utility.yul\":372:413   */\n      tag_106\n        /* \"#utility.yul\":406:412   */\n      dup5\n        /* \"#utility.yul\":401:404   */\n      dup3\n        /* \"#utility.yul\":396:399   */\n      dup6\n        /* \"#utility.yul\":372:413   */\n      tag_107\n      jump\t// in\n    tag_106:\n        /* \"#utility.yul\":91:419   */\n      pop\n        /* \"#utility.yul\":7:419   */\n      swap4\n      swap3\n      pop\n      pop\n      pop\n      jump\t// out\n        /* \"#utility.yul\":425:560   */\n    tag_108:\n        /* \"#utility.yul\":469:474   */\n      0x00\n        /* \"#utility.yul\":507:513   */\n      dup2\n        /* \"#utility.yul\":494:514   */\n      calldataload\n        /* \"#utility.yul\":485:514   */\n      swap1\n      pop\n        /* \"#utility.yul\":523:554   */\n      tag_110\n        /* \"#utility.yul\":548:553   */\n      dup2\n        /* \"#utility.yul\":523:554   */\n      tag_111\n      jump\t// in\n    tag_110:\n        /* \"#utility.yul\":425:560   */\n      swap3\n      swap2\n      pop\n      pop\n      jump\t// out\n        /* \"#utility.yul\":580:920   */\n    tag_112:\n        /* \"#utility.yul\":636:641   */\n      0x00\n        /* \"#utility.yul\":685:688   */\n      dup3\n        /* \"#utility.yul\":678:682   */\n      0x1f\n        /* \"#utility.yul\":670:676   */\n      dup4\n        /* \"#utility.yul\":666:683   */\n      add\n        /* \"#utility.yul\":662:689   */\n      slt\n        /* \"#utility.yul\":652:774   */\n      tag_114\n      jumpi\n        /* \"#utility.yul\":693:772   */\n      tag_115\n      tag_116\n      jump\t// in\n    tag_115:\n        /* \"#utility.yul\":652:774   */\n    tag_114:\n        /* \"#utility.yul\":810:816   */\n      dup2\n        /* \"#utility.yul\":797:817   */\n      calldataload\n        /* \"#utility.yul\":835:914   */\n      tag_117\n        /* \"#utility.yul\":910:913   */\n      dup5\n        /* \"#utility.yul\":902:908   */\n      dup3\n        /* \"#utility.yul\":895:899   */\n      0x20\n        /* \"#utility.yul\":887:893   */\n      dup7\n        /* \"#utility.yul\":883:900   */\n      add\n        /* \"#utility.yul\":835:914   */\n      tag_97\n      jump\t// in\n    tag_117:\n        /* \"#utility.yul\":826:914   */\n      swap2\n      pop\n        /* \"#utility.yul\":642:920   */\n      pop\n        /* \"#utility.yul\":580:920   */\n      swap3\n      swap2\n      pop\n      pop\n      jump\t// out\n        /* \"#utility.yul\":926:1065   */\n    tag_118:\n        /* \"#utility.yul\":972:977   */\n      0x00\n        /* \"#utility.yul\":1010:1016   */\n      dup2\n        /* \"#utility.yul\":997:1017   */\n      calldataload\n        /* \"#utility.yul\":988:1017   */\n      swap1\n      pop\n        /* \"#utility.yul\":1026:1059   */\n      tag_120\n        /* \"#utility.yul\":1053:1058   */\n      dup2\n        /* \"#utility.yul\":1026:1059   */\n      tag_121\n      jump\t// in\n    tag_120:\n        /* \"#utility.yul\":926:1065   */\n      swap3\n      swap2\n      pop\n      pop\n      jump\t// out\n        /* \"#utility.yul\":1071:1580   */\n    tag_25:\n        /* \"#utility.yul\":1140:1146   */\n      0x00\n        /* \"#utility.yul\":1189:1191   */\n      0x20\n        /* \"#utility.yul\":1177:1186   */\n      dup3\n        /* \"#utility.yul\":1168:1175   */\n      dup5\n        /* \"#utility.yul\":1164:1187   */\n      sub\n        /* \"#utility.yul\":1160:1192   */\n      slt\n        /* \"#utility.yul\":1157:1276   */\n      iszero\n      tag_123\n      jumpi\n        /* \"#utility.yul\":1195:1274   */\n      tag_124\n      tag_125\n      jump\t// in\n    tag_124:\n        /* \"#utility.yul\":1157:1276   */\n    tag_123:\n        /* \"#utility.yul\":1343:1344   */\n      0x00\n        /* \"#utility.yul\":1332:1341   */\n      dup3\n        /* \"#utility.yul\":1328:1345   */\n      add\n        /* \"#utility.yul\":1315:1346   */\n      calldataload\n        /* \"#utility.yul\":1373:1391   */\n      0xffffffffffffffff\n        /* \"#utility.yul\":1365:1371   */\n      dup2\n        /* \"#utility.yul\":1362:1392   */\n      gt\n        /* \"#utility.yul\":1359:1476   */\n      iszero\n      tag_126\n      jumpi\n        /* \"#utility.yul\":1395:1474   */\n      tag_127\n      tag_128\n      jump\t// in\n    tag_127:\n        /* \"#utility.yul\":1359:1476   */\n    tag_126:\n        /* \"#utility.yul\":1500:1563   */\n      tag_129\n        /* \"#utility.yul\":1555:1562   */\n      dup5\n        /* \"#utility.yul\":1546:1552   */\n      dup3\n        /* \"#utility.yul\":1535:1544   */\n      dup6\n        /* \"#utility.yul\":1531:1553   */\n      add\n        /* \"#utility.yul\":1500:1563   */\n      tag_112\n      jump\t// in\n    tag_129:\n        /* \"#utility.yul\":1490:1563   */\n      swap2\n      pop\n        /* \"#utility.yul\":1286:1573   */\n      pop\n        /* \"#utility.yul\":1071:1580   */\n      swap3\n      swap2\n      pop\n      pop\n      jump\t// out\n        /* \"#utility.yul\":1586:2236   */\n    tag_21:\n        /* \"#utility.yul\":1662:1668   */\n      0x00\n        /* \"#utility.yul\":1670:1676   */\n      dup1\n        /* \"#utility.yul\":1719:1721   */\n      0x40\n        /* \"#utility.yul\":1707:1716   */\n      dup4\n        /* \"#utility.yul\":1698:1705   */\n      dup6\n        /* \"#utility.yul\":1694:1717   */\n      sub\n        /* \"#utility.yul\":1690:1722   */\n      slt\n        /* \"#utility.yul\":1687:1806   */\n      iszero\n      tag_131\n      jumpi\n        /* \"#utility.yul\":1725:1804   */\n      tag_132\n      tag_125\n      jump\t// in\n    tag_132:\n        /* \"#utility.yul\":1687:1806   */\n    tag_131:\n        /* \"#utility.yul\":1873:1874   */\n      0x00\n        /* \"#utility.yul\":1862:1871   */\n      dup4\n        /* \"#utility.yul\":1858:1875   */\n      add\n        /* \"#utility.yul\":1845:1876   */\n      calldataload\n        /* \"#utility.yul\":1903:1921   */\n      0xffffffffffffffff\n        /* \"#utility.yul\":1895:1901   */\n      dup2\n        /* \"#utility.yul\":1892:1922   */\n      gt\n        /* \"#utility.yul\":1889:2006   */\n      iszero\n      tag_133\n      jumpi\n        /* \"#utility.yul\":1925:2004   */\n      tag_134\n      tag_128\n      jump\t// in\n    tag_134:\n        /* \"#utility.yul\":1889:2006   */\n    tag_133:\n        /* \"#utility.yul\":2030:2093   */\n      tag_135\n        /* \"#utility.yul\":2085:2092   */\n      dup6\n        /* \"#utility.yul\":2076:2082   */\n      dup3\n        /* \"#utility.yul\":2065:2074   */\n      dup7\n        /* \"#utility.yul\":2061:2083   */\n      add\n        /* \"#utility.yul\":2030:2093   */\n      tag_112\n      jump\t// in\n    tag_135:\n        /* \"#utility.yul\":2020:2093   */\n      swap3\n      pop\n        /* \"#utility.yul\":1816:2103   */\n      pop\n        /* \"#utility.yul\":2142:2144   */\n      0x20\n        /* \"#utility.yul\":2168:2219   */\n      tag_136\n        /* \"#utility.yul\":2211:2218   */\n      dup6\n        /* \"#utility.yul\":2202:2208   */\n      dup3\n        /* \"#utility.yul\":2191:2200   */\n      dup7\n        /* \"#utility.yul\":2187:2209   */\n      add\n        /* \"#utility.yul\":2168:2219   */\n      tag_108\n      jump\t// in\n    tag_136:\n        /* \"#utility.yul\":2158:2219   */\n      swap2\n      pop\n        /* \"#utility.yul\":2113:2229   */\n      pop\n        /* \"#utility.yul\":1586:2236   */\n      swap3\n      pop\n      swap3\n      swap1\n      pop\n      jump\t// out\n        /* \"#utility.yul\":2242:2571   */\n    tag_15:\n        /* \"#utility.yul\":2301:2307   */\n      0x00\n        /* \"#utility.yul\":2350:2352   */\n      0x20\n        /* \"#utility.yul\":2338:2347   */\n      dup3\n        /* \"#utility.yul\":2329:2336   */\n      dup5\n        /* \"#utility.yul\":2325:2348   */\n      sub\n        /* \"#utility.yul\":2321:2353   */\n      slt\n        /* \"#utility.yul\":2318:2437   */\n      iszero\n      tag_138\n      jumpi\n        /* \"#utility.yul\":2356:2435   */\n      tag_139\n      tag_125\n      jump\t// in\n    tag_139:\n        /* \"#utility.yul\":2318:2437   */\n    tag_138:\n        /* \"#utility.yul\":2476:2477   */\n      0x00\n        /* \"#utility.yul\":2501:2554   */\n      tag_140\n        /* \"#utility.yul\":2546:2553   */\n      dup5\n        /* \"#utility.yul\":2537:2543   */\n      dup3\n        /* \"#utility.yul\":2526:2535   */\n      dup6\n        /* \"#utility.yul\":2522:2544   */\n      add\n        /* \"#utility.yul\":2501:2554   */\n      tag_118\n      jump\t// in\n    tag_140:\n        /* \"#utility.yul\":2491:2554   */\n      swap2\n      pop\n        /* \"#utility.yul\":2447:2564   */\n      pop\n        /* \"#utility.yul\":2242:2571   */\n      swap3\n      swap2\n      pop\n      pop\n      jump\t// out\n        /* \"#utility.yul\":2577:2837   */\n    tag_141:\n        /* \"#utility.yul\":2698:2708   */\n      0x00\n        /* \"#utility.yul\":2733:2831   */\n      tag_143\n        /* \"#utility.yul\":2827:2830   */\n      dup4\n        /* \"#utility.yul\":2819:2825   */\n      dup4\n        /* \"#utility.yul\":2733:2831   */\n      tag_144\n      jump\t// in\n    tag_143:\n        /* \"#utility.yul\":2719:2831   */\n      swap1\n      pop\n        /* \"#utility.yul\":2577:2837   */\n      swap3\n      swap2\n      pop\n      pop\n      jump\t// out\n        /* \"#utility.yul\":2843:3103   */\n    tag_145:\n        /* \"#utility.yul\":2964:2974   */\n      0x00\n        /* \"#utility.yul\":2999:3097   */\n      tag_147\n        /* \"#utility.yul\":3093:3096   */\n      dup4\n        /* \"#utility.yul\":3085:3091   */\n      dup4\n        /* \"#utility.yul\":2999:3097   */\n      tag_148\n      jump\t// in\n    tag_147:\n        /* \"#utility.yul\":2985:3097   */\n      swap1\n      pop\n        /* \"#utility.yul\":2843:3103   */\n      swap3\n      swap2\n      pop\n      pop\n      jump\t// out\n        /* \"#utility.yul\":3183:4302   */\n    tag_149:\n        /* \"#utility.yul\":3354:3357   */\n      0x00\n        /* \"#utility.yul\":3383:3463   */\n      tag_151\n        /* \"#utility.yul\":3457:3462   */\n      dup3\n        /* \"#utility.yul\":3383:3463   */\n      tag_152\n      jump\t// in\n    tag_151:\n        /* \"#utility.yul\":3479:3591   */\n      tag_153\n        /* \"#utility.yul\":3584:3590   */\n      dup2\n        /* \"#utility.yul\":3579:3582   */\n      dup6\n        /* \"#utility.yul\":3479:3591   */\n      tag_154\n      jump\t// in\n    tag_153:\n        /* \"#utility.yul\":3472:3591   */\n      swap4\n      pop\n        /* \"#utility.yul\":3617:3620   */\n      dup4\n        /* \"#utility.yul\":3662:3666   */\n      0x20\n        /* \"#utility.yul\":3654:3660   */\n      dup3\n        /* \"#utility.yul\":3650:3667   */\n      mul\n        /* \"#utility.yul\":3645:3648   */\n      dup6\n        /* \"#utility.yul\":3641:3668   */\n      add\n        /* \"#utility.yul\":3692:3774   */\n      tag_155\n        /* \"#utility.yul\":3768:3773   */\n      dup6\n        /* \"#utility.yul\":3692:3774   */\n      tag_156\n      jump\t// in\n    tag_155:\n        /* \"#utility.yul\":3797:3804   */\n      dup1\n        /* \"#utility.yul\":3828:3829   */\n      0x00\n        /* \"#utility.yul\":3813:4257   */\n    tag_157:\n        /* \"#utility.yul\":3838:3844   */\n      dup6\n        /* \"#utility.yul\":3835:3836   */\n      dup2\n        /* \"#utility.yul\":3832:3845   */\n      lt\n        /* \"#utility.yul\":3813:4257   */\n      iszero\n      tag_159\n      jumpi\n        /* \"#utility.yul\":3909:3918   */\n      dup5\n        /* \"#utility.yul\":3903:3907   */\n      dup5\n        /* \"#utility.yul\":3899:3919   */\n      sub\n        /* \"#utility.yul\":3894:3897   */\n      dup10\n        /* \"#utility.yul\":3887:3920   */\n      mstore\n        /* \"#utility.yul\":3960:3966   */\n      dup2\n        /* \"#utility.yul\":3954:3967   */\n      mload\n        /* \"#utility.yul\":3988:4104   */\n      tag_160\n        /* \"#utility.yul\":4099:4103   */\n      dup6\n        /* \"#utility.yul\":4084:4097   */\n      dup3\n        /* \"#utility.yul\":3988:4104   */\n      tag_141\n      jump\t// in\n    tag_160:\n        /* \"#utility.yul\":3980:4104   */\n      swap5\n      pop\n        /* \"#utility.yul\":4127:4213   */\n      tag_161\n        /* \"#utility.yul\":4206:4212   */\n      dup4\n        /* \"#utility.yul\":4127:4213   */\n      tag_162\n      jump\t// in\n    tag_161:\n        /* \"#utility.yul\":4117:4213   */\n      swap3\n      pop\n        /* \"#utility.yul\":4242:4246   */\n      0x20\n        /* \"#utility.yul\":4237:4240   */\n      dup11\n        /* \"#utility.yul\":4233:4247   */\n      add\n        /* \"#utility.yul\":4226:4247   */\n      swap10\n      pop\n        /* \"#utility.yul\":3873:4257   */\n      pop\n        /* \"#utility.yul\":3860:3861   */\n      0x01\n        /* \"#utility.yul\":3857:3858   */\n      dup2\n        /* \"#utility.yul\":3853:3862   */\n      add\n        /* \"#utility.yul\":3848:3862   */\n      swap1\n      pop\n        /* \"#utility.yul\":3813:4257   */\n      jump(tag_157)\n    tag_159:\n        /* \"#utility.yul\":3817:3831   */\n      pop\n        /* \"#utility.yul\":4273:4277   */\n      dup3\n        /* \"#utility.yul\":4266:4277   */\n      swap8\n      pop\n        /* \"#utility.yul\":4293:4296   */\n      dup8\n        /* \"#utility.yul\":4286:4296   */\n      swap6\n      pop\n        /* \"#utility.yul\":3359:4302   */\n      pop\n      pop\n      pop\n      pop\n      pop\n        /* \"#utility.yul\":3183:4302   */\n      swap3\n      swap2\n      pop\n      pop\n      jump\t// out\n        /* \"#utility.yul\":4384:5483   */\n    tag_163:\n        /* \"#utility.yul\":4545:4548   */\n      0x00\n        /* \"#utility.yul\":4574:4654   */\n      tag_165\n        /* \"#utility.yul\":4648:4653   */\n      dup3\n        /* \"#utility.yul\":4574:4654   */\n      tag_166\n      jump\t// in\n    tag_165:\n        /* \"#utility.yul\":4670:4772   */\n      tag_167\n        /* \"#utility.yul\":4765:4771   */\n      dup2\n        /* \"#utility.yul\":4760:4763   */\n      dup6\n        /* \"#utility.yul\":4670:4772   */\n      tag_168\n      jump\t// in\n    tag_167:\n        /* \"#utility.yul\":4663:4772   */\n      swap4\n      pop\n        /* \"#utility.yul\":4798:4801   */\n      dup4\n        /* \"#utility.yul\":4843:4847   */\n      0x20\n        /* \"#utility.yul\":4835:4841   */\n      dup3\n        /* \"#utility.yul\":4831:4848   */\n      mul\n        /* \"#utility.yul\":4826:4829   */\n      dup6\n        /* \"#utility.yul\":4822:4849   */\n      add\n        /* \"#utility.yul\":4873:4955   */\n      tag_169\n        /* \"#utility.yul\":4949:4954   */\n      dup6\n        /* \"#utility.yul\":4873:4955   */\n      tag_170\n      jump\t// in\n    tag_169:\n        /* \"#utility.yul\":4978:4985   */\n      dup1\n        /* \"#utility.yul\":5009:5010   */\n      0x00\n        /* \"#utility.yul\":4994:5438   */\n    tag_171:\n        /* \"#utility.yul\":5019:5025   */\n      dup6\n        /* \"#utility.yul\":5016:5017   */\n      dup2\n        /* \"#utility.yul\":5013:5026   */\n      lt\n        /* \"#utility.yul\":4994:5438   */\n      iszero\n      tag_173\n      jumpi\n        /* \"#utility.yul\":5090:5099   */\n      dup5\n        /* \"#utility.yul\":5084:5088   */\n      dup5\n        /* \"#utility.yul\":5080:5100   */\n      sub\n        /* \"#utility.yul\":5075:5078   */\n      dup10\n        /* \"#utility.yul\":5068:5101   */\n      mstore\n        /* \"#utility.yul\":5141:5147   */\n      dup2\n        /* \"#utility.yul\":5135:5148   */\n      mload\n        /* \"#utility.yul\":5169:5285   */\n      tag_174\n        /* \"#utility.yul\":5280:5284   */\n      dup6\n        /* \"#utility.yul\":5265:5278   */\n      dup3\n        /* \"#utility.yul\":5169:5285   */\n      tag_145\n      jump\t// in\n    tag_174:\n        /* \"#utility.yul\":5161:5285   */\n      swap5\n      pop\n        /* \"#utility.yul\":5308:5394   */\n      tag_175\n        /* \"#utility.yul\":5387:5393   */\n      dup4\n        /* \"#utility.yul\":5308:5394   */\n      tag_176\n      jump\t// in\n    tag_175:\n        /* \"#utility.yul\":5298:5394   */\n      swap3\n      pop\n        /* \"#utility.yul\":5423:5427   */\n      0x20\n        /* \"#utility.yul\":5418:5421   */\n      dup11\n        /* \"#utility.yul\":5414:5428   */\n      add\n        /* \"#utility.yul\":5407:5428   */\n      swap10\n      pop\n        /* \"#utility.yul\":5054:5438   */\n      pop\n        /* \"#utility.yul\":5041:5042   */\n      0x01\n        /* \"#utility.yul\":5038:5039   */\n      dup2\n        /* \"#utility.yul\":5034:5043   */\n      add\n        /* \"#utility.yul\":5029:5043   */\n      swap1\n      pop\n        /* \"#utility.yul\":4994:5438   */\n      jump(tag_171)\n    tag_173:\n        /* \"#utility.yul\":4998:5012   */\n      pop\n        /* \"#utility.yul\":5454:5458   */\n      dup3\n        /* \"#utility.yul\":5447:5458   */\n      swap8\n      pop\n        /* \"#utility.yul\":5474:5477   */\n      dup8\n        /* \"#utility.yul\":5467:5477   */\n      swap6\n      pop\n        /* \"#utility.yul\":4550:5483   */\n      pop\n      pop\n      pop\n      pop\n      pop\n        /* \"#utility.yul\":4384:5483   */\n      swap3\n      swap2\n      pop\n      pop\n      jump\t// out\n        /* \"#utility.yul\":5565:6684   */\n    tag_177:\n        /* \"#utility.yul\":5736:5739   */\n      0x00\n        /* \"#utility.yul\":5765:5845   */\n      tag_179\n        /* \"#utility.yul\":5839:5844   */\n      dup3\n        /* \"#utility.yul\":5765:5845   */\n      tag_166\n      jump\t// in\n    tag_179:\n        /* \"#utility.yul\":5861:5973   */\n      tag_180\n        /* \"#utility.yul\":5966:5972   */\n      dup2\n        /* \"#utility.yul\":5961:5964   */\n      dup6\n        /* \"#utility.yul\":5861:5973   */\n      tag_181\n      jump\t// in\n    tag_180:\n        /* \"#utility.yul\":5854:5973   */\n      swap4\n      pop\n        /* \"#utility.yul\":5999:6002   */\n      dup4\n        /* \"#utility.yul\":6044:6048   */\n      0x20\n        /* \"#utility.yul\":6036:6042   */\n      dup3\n        /* \"#utility.yul\":6032:6049   */\n      mul\n        /* \"#utility.yul\":6027:6030   */\n      dup6\n        /* \"#utility.yul\":6023:6050   */\n      add\n        /* \"#utility.yul\":6074:6156   */\n      tag_182\n        /* \"#utility.yul\":6150:6155   */\n      dup6\n        /* \"#utility.yul\":6074:6156   */\n      tag_170\n      jump\t// in\n    tag_182:\n        /* \"#utility.yul\":6179:6186   */\n      dup1\n        /* \"#utility.yul\":6210:6211   */\n      0x00\n        /* \"#utility.yul\":6195:6639   */\n    tag_183:\n        /* \"#utility.yul\":6220:6226   */\n      dup6\n        /* \"#utility.yul\":6217:6218   */\n      dup2\n        /* \"#utility.yul\":6214:6227   */\n      lt\n        /* \"#utility.yul\":6195:6639   */\n      iszero\n      tag_185\n      jumpi\n        /* \"#utility.yul\":6291:6300   */\n      dup5\n        /* \"#utility.yul\":6285:6289   */\n      dup5\n        /* \"#utility.yul\":6281:6301   */\n      sub\n        /* \"#utility.yul\":6276:6279   */\n      dup10\n        /* \"#utility.yul\":6269:6302   */\n      mstore\n        /* \"#utility.yul\":6342:6348   */\n      dup2\n        /* \"#utility.yul\":6336:6349   */\n      mload\n        /* \"#utility.yul\":6370:6486   */\n      tag_186\n        /* \"#utility.yul\":6481:6485   */\n      dup6\n        /* \"#utility.yul\":6466:6479   */\n      dup3\n        /* \"#utility.yul\":6370:6486   */\n      tag_145\n      jump\t// in\n    tag_186:\n        /* \"#utility.yul\":6362:6486   */\n      swap5\n      pop\n        /* \"#utility.yul\":6509:6595   */\n      tag_187\n        /* \"#utility.yul\":6588:6594   */\n      dup4\n        /* \"#utility.yul\":6509:6595   */\n      tag_176\n      jump\t// in\n    tag_187:\n        /* \"#utility.yul\":6499:6595   */\n      swap3\n      pop\n        /* \"#utility.yul\":6624:6628   */\n      0x20\n        /* \"#utility.yul\":6619:6622   */\n      dup11\n        /* \"#utility.yul\":6615:6629   */\n      add\n        /* \"#utility.yul\":6608:6629   */\n      swap10\n      pop\n        /* \"#utility.yul\":6255:6639   */\n      pop\n        /* \"#utility.yul\":6242:6243   */\n      0x01\n        /* \"#utility.yul\":6239:6240   */\n      dup2\n        /* \"#utility.yul\":6235:6244   */\n      add\n        /* \"#utility.yul\":6230:6244   */\n      swap1\n      pop\n        /* \"#utility.yul\":6195:6639   */\n      jump(tag_183)\n    tag_185:\n        /* \"#utility.yul\":6199:6213   */\n      pop\n        /* \"#utility.yul\":6655:6659   */\n      dup3\n        /* \"#utility.yul\":6648:6659   */\n      swap8\n      pop\n        /* \"#utility.yul\":6675:6678   */\n      dup8\n        /* \"#utility.yul\":6668:6678   */\n      swap6\n      pop\n        /* \"#utility.yul\":5741:6684   */\n      pop\n      pop\n      pop\n      pop\n      pop\n        /* \"#utility.yul\":5565:6684   */\n      swap3\n      swap2\n      pop\n      pop\n      jump\t// out\n        /* \"#utility.yul\":6690:6792   */\n    tag_188:\n        /* \"#utility.yul\":6763:6785   */\n      tag_190\n        /* \"#utility.yul\":6779:6784   */\n      dup2\n        /* \"#utility.yul\":6763:6785   */\n      tag_191\n      jump\t// in\n    tag_190:\n        /* \"#utility.yul\":6758:6761   */\n      dup3\n        /* \"#utility.yul\":6751:6786   */\n      mstore\n        /* \"#utility.yul\":6690:6792   */\n      pop\n      pop\n      jump\t// out\n        /* \"#utility.yul\":6798:7142   */\n    tag_192:\n        /* \"#utility.yul\":6876:6879   */\n      0x00\n        /* \"#utility.yul\":6904:6943   */\n      tag_194\n        /* \"#utility.yul\":6937:6942   */\n      dup3\n        /* \"#utility.yul\":6904:6943   */\n      tag_195\n      jump\t// in\n    tag_194:\n        /* \"#utility.yul\":6959:7020   */\n      tag_196\n        /* \"#utility.yul\":7013:7019   */\n      dup2\n        /* \"#utility.yul\":7008:7011   */\n      dup6\n        /* \"#utility.yul\":6959:7020   */\n      tag_197\n      jump\t// in\n    tag_196:\n        /* \"#utility.yul\":6952:7020   */\n      swap4\n      pop\n        /* \"#utility.yul\":7029:7081   */\n      tag_198\n        /* \"#utility.yul\":7074:7080   */\n      dup2\n        /* \"#utility.yul\":7069:7072   */\n      dup6\n        /* \"#utility.yul\":7062:7066   */\n      0x20\n        /* \"#utility.yul\":7055:7060   */\n      dup7\n        /* \"#utility.yul\":7051:7067   */\n      add\n        /* \"#utility.yul\":7029:7081   */\n      tag_199\n      jump\t// in\n    tag_198:\n        /* \"#utility.yul\":7106:7135   */\n      tag_200\n        /* \"#utility.yul\":7128:7134   */\n      dup2\n        /* \"#utility.yul\":7106:7135   */\n      tag_201\n      jump\t// in\n    tag_200:\n        /* \"#utility.yul\":7101:7104   */\n      dup5\n        /* \"#utility.yul\":7097:7136   */\n      add\n        /* \"#utility.yul\":7090:7136   */\n      swap2\n      pop\n        /* \"#utility.yul\":6880:7142   */\n      pop\n        /* \"#utility.yul\":6798:7142   */\n      swap3\n      swap2\n      pop\n      pop\n      jump\t// out\n        /* \"#utility.yul\":7148:7525   */\n    tag_202:\n        /* \"#utility.yul\":7254:7257   */\n      0x00\n        /* \"#utility.yul\":7282:7321   */\n      tag_204\n        /* \"#utility.yul\":7315:7320   */\n      dup3\n        /* \"#utility.yul\":7282:7321   */\n      tag_195\n      jump\t// in\n    tag_204:\n        /* \"#utility.yul\":7337:7426   */\n      tag_205\n        /* \"#utility.yul\":7419:7425   */\n      dup2\n        /* \"#utility.yul\":7414:7417   */\n      dup6\n        /* \"#utility.yul\":7337:7426   */\n      tag_206\n      jump\t// in\n    tag_205:\n        /* \"#utility.yul\":7330:7426   */\n      swap4\n      pop\n        /* \"#utility.yul\":7435:7487   */\n      tag_207\n        /* \"#utility.yul\":7480:7486   */\n      dup2\n        /* \"#utility.yul\":7475:7478   */\n      dup6\n        /* \"#utility.yul\":7468:7472   */\n      0x20\n        /* \"#utility.yul\":7461:7466   */\n      dup7\n        /* \"#utility.yul\":7457:7473   */\n      add\n        /* \"#utility.yul\":7435:7487   */\n      tag_199\n      jump\t// in\n    tag_207:\n        /* \"#utility.yul\":7512:7518   */\n      dup1\n        /* \"#utility.yul\":7507:7510   */\n      dup5\n        /* \"#utility.yul\":7503:7519   */\n      add\n        /* \"#utility.yul\":7496:7519   */\n      swap2\n      pop\n        /* \"#utility.yul\":7258:7525   */\n      pop\n        /* \"#utility.yul\":7148:7525   */\n      swap3\n      swap2\n      pop\n      pop\n      jump\t// out\n        /* \"#utility.yul\":7601:8527   */\n    tag_144:\n        /* \"#utility.yul\":7712:7715   */\n      0x00\n        /* \"#utility.yul\":7748:7752   */\n      0x60\n        /* \"#utility.yul\":7743:7746   */\n      dup4\n        /* \"#utility.yul\":7739:7753   */\n      add\n        /* \"#utility.yul\":7834:7838   */\n      0x00\n        /* \"#utility.yul\":7827:7832   */\n      dup4\n        /* \"#utility.yul\":7823:7839   */\n      add\n        /* \"#utility.yul\":7817:7840   */\n      mload\n        /* \"#utility.yul\":7853:7916   */\n      tag_209\n        /* \"#utility.yul\":7910:7914   */\n      0x00\n        /* \"#utility.yul\":7905:7908   */\n      dup7\n        /* \"#utility.yul\":7901:7915   */\n      add\n        /* \"#utility.yul\":7887:7899   */\n      dup3\n        /* \"#utility.yul\":7853:7916   */\n      tag_210\n      jump\t// in\n    tag_209:\n        /* \"#utility.yul\":7763:7926   */\n      pop\n        /* \"#utility.yul\":8008:8012   */\n      0x20\n        /* \"#utility.yul\":8001:8006   */\n      dup4\n        /* \"#utility.yul\":7997:8013   */\n      add\n        /* \"#utility.yul\":7991:8014   */\n      mload\n        /* \"#utility.yul\":8061:8064   */\n      dup5\n        /* \"#utility.yul\":8055:8059   */\n      dup3\n        /* \"#utility.yul\":8051:8065   */\n      sub\n        /* \"#utility.yul\":8044:8048   */\n      0x20\n        /* \"#utility.yul\":8039:8042   */\n      dup7\n        /* \"#utility.yul\":8035:8049   */\n      add\n        /* \"#utility.yul\":8028:8066   */\n      mstore\n        /* \"#utility.yul\":8087:8160   */\n      tag_211\n        /* \"#utility.yul\":8155:8159   */\n      dup3\n        /* \"#utility.yul\":8141:8153   */\n      dup3\n        /* \"#utility.yul\":8087:8160   */\n      tag_192\n      jump\t// in\n    tag_211:\n        /* \"#utility.yul\":8079:8160   */\n      swap2\n      pop\n        /* \"#utility.yul\":7936:8171   */\n      pop\n        /* \"#utility.yul\":8255:8259   */\n      0x40\n        /* \"#utility.yul\":8248:8253   */\n      dup4\n        /* \"#utility.yul\":8244:8260   */\n      add\n        /* \"#utility.yul\":8238:8261   */\n      mload\n        /* \"#utility.yul\":8308:8311   */\n      dup5\n        /* \"#utility.yul\":8302:8306   */\n      dup3\n        /* \"#utility.yul\":8298:8312   */\n      sub\n        /* \"#utility.yul\":8291:8295   */\n      0x40\n        /* \"#utility.yul\":8286:8289   */\n      dup7\n        /* \"#utility.yul\":8282:8296   */\n      add\n        /* \"#utility.yul\":8275:8313   */\n      mstore\n        /* \"#utility.yul\":8334:8489   */\n      tag_212\n        /* \"#utility.yul\":8484:8488   */\n      dup3\n        /* \"#utility.yul\":8470:8482   */\n      dup3\n        /* \"#utility.yul\":8334:8489   */\n      tag_163\n      jump\t// in\n    tag_212:\n        /* \"#utility.yul\":8326:8489   */\n      swap2\n      pop\n        /* \"#utility.yul\":8181:8500   */\n      pop\n        /* \"#utility.yul\":8517:8521   */\n      dup1\n        /* \"#utility.yul\":8510:8521   */\n      swap2\n      pop\n        /* \"#utility.yul\":7717:8527   */\n      pop\n        /* \"#utility.yul\":7601:8527   */\n      swap3\n      swap2\n      pop\n      pop\n      jump\t// out\n        /* \"#utility.yul\":8605:9377   */\n    tag_148:\n        /* \"#utility.yul\":8716:8719   */\n      0x00\n        /* \"#utility.yul\":8752:8756   */\n      0x60\n        /* \"#utility.yul\":8747:8750   */\n      dup4\n        /* \"#utility.yul\":8743:8757   */\n      add\n        /* \"#utility.yul\":8838:8842   */\n      0x00\n        /* \"#utility.yul\":8831:8836   */\n      dup4\n        /* \"#utility.yul\":8827:8843   */\n      add\n        /* \"#utility.yul\":8821:8844   */\n      mload\n        /* \"#utility.yul\":8857:8920   */\n      tag_214\n        /* \"#utility.yul\":8914:8918   */\n      0x00\n        /* \"#utility.yul\":8909:8912   */\n      dup7\n        /* \"#utility.yul\":8905:8919   */\n      add\n        /* \"#utility.yul\":8891:8903   */\n      dup3\n        /* \"#utility.yul\":8857:8920   */\n      tag_210\n      jump\t// in\n    tag_214:\n        /* \"#utility.yul\":8767:8930   */\n      pop\n        /* \"#utility.yul\":9016:9020   */\n      0x20\n        /* \"#utility.yul\":9009:9014   */\n      dup4\n        /* \"#utility.yul\":9005:9021   */\n      add\n        /* \"#utility.yul\":8999:9022   */\n      mload\n        /* \"#utility.yul\":9069:9072   */\n      dup5\n        /* \"#utility.yul\":9063:9067   */\n      dup3\n        /* \"#utility.yul\":9059:9073   */\n      sub\n        /* \"#utility.yul\":9052:9056   */\n      0x20\n        /* \"#utility.yul\":9047:9050   */\n      dup7\n        /* \"#utility.yul\":9043:9057   */\n      add\n        /* \"#utility.yul\":9036:9074   */\n      mstore\n        /* \"#utility.yul\":9095:9168   */\n      tag_215\n        /* \"#utility.yul\":9163:9167   */\n      dup3\n        /* \"#utility.yul\":9149:9161   */\n      dup3\n        /* \"#utility.yul\":9095:9168   */\n      tag_192\n      jump\t// in\n    tag_215:\n        /* \"#utility.yul\":9087:9168   */\n      swap2\n      pop\n        /* \"#utility.yul\":8940:9179   */\n      pop\n        /* \"#utility.yul\":9262:9266   */\n      0x40\n        /* \"#utility.yul\":9255:9260   */\n      dup4\n        /* \"#utility.yul\":9251:9267   */\n      add\n        /* \"#utility.yul\":9245:9268   */\n      mload\n        /* \"#utility.yul\":9281:9340   */\n      tag_216\n        /* \"#utility.yul\":9334:9338   */\n      0x40\n        /* \"#utility.yul\":9329:9332   */\n      dup7\n        /* \"#utility.yul\":9325:9339   */\n      add\n        /* \"#utility.yul\":9311:9323   */\n      dup3\n        /* \"#utility.yul\":9281:9340   */\n      tag_188\n      jump\t// in\n    tag_216:\n        /* \"#utility.yul\":9189:9350   */\n      pop\n        /* \"#utility.yul\":9367:9371   */\n      dup1\n        /* \"#utility.yul\":9360:9371   */\n      swap2\n      pop\n        /* \"#utility.yul\":8721:9377   */\n      pop\n        /* \"#utility.yul\":8605:9377   */\n      swap3\n      swap2\n      pop\n      pop\n      jump\t// out\n        /* \"#utility.yul\":9455:10237   */\n    tag_217:\n        /* \"#utility.yul\":9576:9579   */\n      0x00\n        /* \"#utility.yul\":9612:9616   */\n      0x60\n        /* \"#utility.yul\":9607:9610   */\n      dup4\n        /* \"#utility.yul\":9603:9617   */\n      add\n        /* \"#utility.yul\":9698:9702   */\n      0x00\n        /* \"#utility.yul\":9691:9696   */\n      dup4\n        /* \"#utility.yul\":9687:9703   */\n      add\n        /* \"#utility.yul\":9681:9704   */\n      mload\n        /* \"#utility.yul\":9717:9780   */\n      tag_219\n        /* \"#utility.yul\":9774:9778   */\n      0x00\n        /* \"#utility.yul\":9769:9772   */\n      dup7\n        /* \"#utility.yul\":9765:9779   */\n      add\n        /* \"#utility.yul\":9751:9763   */\n      dup3\n        /* \"#utility.yul\":9717:9780   */\n      tag_210\n      jump\t// in\n    tag_219:\n        /* \"#utility.yul\":9627:9790   */\n      pop\n        /* \"#utility.yul\":9876:9880   */\n      0x20\n        /* \"#utility.yul\":9869:9874   */\n      dup4\n        /* \"#utility.yul\":9865:9881   */\n      add\n        /* \"#utility.yul\":9859:9882   */\n      mload\n        /* \"#utility.yul\":9929:9932   */\n      dup5\n        /* \"#utility.yul\":9923:9927   */\n      dup3\n        /* \"#utility.yul\":9919:9933   */\n      sub\n        /* \"#utility.yul\":9912:9916   */\n      0x20\n        /* \"#utility.yul\":9907:9910   */\n      dup7\n        /* \"#utility.yul\":9903:9917   */\n      add\n        /* \"#utility.yul\":9896:9934   */\n      mstore\n        /* \"#utility.yul\":9955:10028   */\n      tag_220\n        /* \"#utility.yul\":10023:10027   */\n      dup3\n        /* \"#utility.yul\":10009:10021   */\n      dup3\n        /* \"#utility.yul\":9955:10028   */\n      tag_192\n      jump\t// in\n    tag_220:\n        /* \"#utility.yul\":9947:10028   */\n      swap2\n      pop\n        /* \"#utility.yul\":9800:10039   */\n      pop\n        /* \"#utility.yul\":10122:10126   */\n      0x40\n        /* \"#utility.yul\":10115:10120   */\n      dup4\n        /* \"#utility.yul\":10111:10127   */\n      add\n        /* \"#utility.yul\":10105:10128   */\n      mload\n        /* \"#utility.yul\":10141:10200   */\n      tag_221\n        /* \"#utility.yul\":10194:10198   */\n      0x40\n        /* \"#utility.yul\":10189:10192   */\n      dup7\n        /* \"#utility.yul\":10185:10199   */\n      add\n        /* \"#utility.yul\":10171:10183   */\n      dup3\n        /* \"#utility.yul\":10141:10200   */\n      tag_188\n      jump\t// in\n    tag_221:\n        /* \"#utility.yul\":10049:10210   */\n      pop\n        /* \"#utility.yul\":10227:10231   */\n      dup1\n        /* \"#utility.yul\":10220:10231   */\n      swap2\n      pop\n        /* \"#utility.yul\":9581:10237   */\n      pop\n        /* \"#utility.yul\":9455:10237   */\n      swap3\n      swap2\n      pop\n      pop\n      jump\t// out\n        /* \"#utility.yul\":10243:10351   */\n    tag_210:\n        /* \"#utility.yul\":10320:10344   */\n      tag_223\n        /* \"#utility.yul\":10338:10343   */\n      dup2\n        /* \"#utility.yul\":10320:10344   */\n      tag_224\n      jump\t// in\n    tag_223:\n        /* \"#utility.yul\":10315:10318   */\n      dup3\n        /* \"#utility.yul\":10308:10345   */\n      mstore\n        /* \"#utility.yul\":10243:10351   */\n      pop\n      pop\n      jump\t// out\n        /* \"#utility.yul\":10357:10632   */\n    tag_62:\n        /* \"#utility.yul\":10489:10492   */\n      0x00\n        /* \"#utility.yul\":10511:10606   */\n      tag_226\n        /* \"#utility.yul\":10602:10605   */\n      dup3\n        /* \"#utility.yul\":10593:10599   */\n      dup5\n        /* \"#utility.yul\":10511:10606   */\n      tag_202\n      jump\t// in\n    tag_226:\n        /* \"#utility.yul\":10504:10606   */\n      swap2\n      pop\n        /* \"#utility.yul\":10623:10626   */\n      dup2\n        /* \"#utility.yul\":10616:10626   */\n      swap1\n      pop\n        /* \"#utility.yul\":10357:10632   */\n      swap3\n      swap2\n      pop\n      pop\n      jump\t// out\n        /* \"#utility.yul\":10638:11115   */\n    tag_31:\n        /* \"#utility.yul\":10833:10837   */\n      0x00\n        /* \"#utility.yul\":10871:10873   */\n      0x20\n        /* \"#utility.yul\":10860:10869   */\n      dup3\n        /* \"#utility.yul\":10856:10874   */\n      add\n        /* \"#utility.yul\":10848:10874   */\n      swap1\n      pop\n        /* \"#utility.yul\":10920:10929   */\n      dup2\n        /* \"#utility.yul\":10914:10918   */\n      dup2\n        /* \"#utility.yul\":10910:10930   */\n      sub\n        /* \"#utility.yul\":10906:10907   */\n      0x00\n        /* \"#utility.yul\":10895:10904   */\n      dup4\n        /* \"#utility.yul\":10891:10908   */\n      add\n        /* \"#utility.yul\":10884:10931   */\n      mstore\n        /* \"#utility.yul\":10948:11108   */\n      tag_228\n        /* \"#utility.yul\":11103:11107   */\n      dup2\n        /* \"#utility.yul\":11094:11100   */\n      dup5\n        /* \"#utility.yul\":10948:11108   */\n      tag_149\n      jump\t// in\n    tag_228:\n        /* \"#utility.yul\":10940:11108   */\n      swap1\n      pop\n        /* \"#utility.yul\":10638:11115   */\n      swap3\n      swap2\n      pop\n      pop\n      jump\t// out\n        /* \"#utility.yul\":11121:11598   */\n    tag_12:\n        /* \"#utility.yul\":11316:11320   */\n      0x00\n        /* \"#utility.yul\":11354:11356   */\n      0x20\n        /* \"#utility.yul\":11343:11352   */\n      dup3\n        /* \"#utility.yul\":11339:11357   */\n      add\n        /* \"#utility.yul\":11331:11357   */\n      swap1\n      pop\n        /* \"#utility.yul\":11403:11412   */\n      dup2\n        /* \"#utility.yul\":11397:11401   */\n      dup2\n        /* \"#utility.yul\":11393:11413   */\n      sub\n        /* \"#utility.yul\":11389:11390   */\n      0x00\n        /* \"#utility.yul\":11378:11387   */\n      dup4\n        /* \"#utility.yul\":11374:11391   */\n      add\n        /* \"#utility.yul\":11367:11414   */\n      mstore\n        /* \"#utility.yul\":11431:11591   */\n      tag_230\n        /* \"#utility.yul\":11586:11590   */\n      dup2\n        /* \"#utility.yul\":11577:11583   */\n      dup5\n        /* \"#utility.yul\":11431:11591   */\n      tag_177\n      jump\t// in\n    tag_230:\n        /* \"#utility.yul\":11423:11591   */\n      swap1\n      pop\n        /* \"#utility.yul\":11121:11598   */\n      swap3\n      swap2\n      pop\n      pop\n      jump\t// out\n        /* \"#utility.yul\":11604:11981   */\n    tag_18:\n        /* \"#utility.yul\":11749:11753   */\n      0x00\n        /* \"#utility.yul\":11787:11789   */\n      0x20\n        /* \"#utility.yul\":11776:11785   */\n      dup3\n        /* \"#utility.yul\":11772:11790   */\n      add\n        /* \"#utility.yul\":11764:11790   */\n      swap1\n      pop\n        /* \"#utility.yul\":11836:11845   */\n      dup2\n        /* \"#utility.yul\":11830:11834   */\n      dup2\n        /* \"#utility.yul\":11826:11846   */\n      sub\n        /* \"#utility.yul\":11822:11823   */\n      0x00\n        /* \"#utility.yul\":11811:11820   */\n      dup4\n        /* \"#utility.yul\":11807:11824   */\n      add\n        /* \"#utility.yul\":11800:11847   */\n      mstore\n        /* \"#utility.yul\":11864:11974   */\n      tag_232\n        /* \"#utility.yul\":11969:11973   */\n      dup2\n        /* \"#utility.yul\":11960:11966   */\n      dup5\n        /* \"#utility.yul\":11864:11974   */\n      tag_217\n      jump\t// in\n    tag_232:\n        /* \"#utility.yul\":11856:11974   */\n      swap1\n      pop\n        /* \"#utility.yul\":11604:11981   */\n      swap3\n      swap2\n      pop\n      pop\n      jump\t// out\n        /* \"#utility.yul\":11987:12116   */\n    tag_102:\n        /* \"#utility.yul\":12021:12027   */\n      0x00\n        /* \"#utility.yul\":12048:12068   */\n      tag_234\n      tag_235\n      jump\t// in\n    tag_234:\n        /* \"#utility.yul\":12038:12068   */\n      swap1\n      pop\n        /* \"#utility.yul\":12077:12110   */\n      tag_236\n        /* \"#utility.yul\":12105:12109   */\n      dup3\n        /* \"#utility.yul\":12097:12103   */\n      dup3\n        /* \"#utility.yul\":12077:12110   */\n      tag_237\n      jump\t// in\n    tag_236:\n        /* \"#utility.yul\":11987:12116   */\n      swap2\n      swap1\n      pop\n      jump\t// out\n        /* \"#utility.yul\":12122:12197   */\n    tag_235:\n        /* \"#utility.yul\":12155:12161   */\n      0x00\n        /* \"#utility.yul\":12188:12190   */\n      0x40\n        /* \"#utility.yul\":12182:12191   */\n      mload\n        /* \"#utility.yul\":12172:12191   */\n      swap1\n      pop\n        /* \"#utility.yul\":12122:12197   */\n      swap1\n      jump\t// out\n        /* \"#utility.yul\":12203:12511   */\n    tag_101:\n        /* \"#utility.yul\":12265:12269   */\n      0x00\n        /* \"#utility.yul\":12355:12373   */\n      0xffffffffffffffff\n        /* \"#utility.yul\":12347:12353   */\n      dup3\n        /* \"#utility.yul\":12344:12374   */\n      gt\n        /* \"#utility.yul\":12341:12397   */\n      iszero\n      tag_240\n      jumpi\n        /* \"#utility.yul\":12377:12395   */\n      tag_241\n      tag_242\n      jump\t// in\n    tag_241:\n        /* \"#utility.yul\":12341:12397   */\n    tag_240:\n        /* \"#utility.yul\":12415:12444   */\n      tag_243\n        /* \"#utility.yul\":12437:12443   */\n      dup3\n        /* \"#utility.yul\":12415:12444   */\n      tag_201\n      jump\t// in\n    tag_243:\n        /* \"#utility.yul\":12407:12444   */\n      swap1\n      pop\n        /* \"#utility.yul\":12499:12503   */\n      0x20\n        /* \"#utility.yul\":12493:12497   */\n      dup2\n        /* \"#utility.yul\":12489:12504   */\n      add\n        /* \"#utility.yul\":12481:12504   */\n      swap1\n      pop\n        /* \"#utility.yul\":12203:12511   */\n      swap2\n      swap1\n      pop\n      jump\t// out\n        /* \"#utility.yul\":12517:12675   */\n    tag_156:\n        /* \"#utility.yul\":12610:12614   */\n      0x00\n        /* \"#utility.yul\":12633:12636   */\n      dup2\n        /* \"#utility.yul\":12625:12636   */\n      swap1\n      pop\n        /* \"#utility.yul\":12663:12667   */\n      0x20\n        /* \"#utility.yul\":12658:12661   */\n      dup3\n        /* \"#utility.yul\":12654:12668   */\n      add\n        /* \"#utility.yul\":12646:12668   */\n      swap1\n      pop\n        /* \"#utility.yul\":12517:12675   */\n      swap2\n      swap1\n      pop\n      jump\t// out\n        /* \"#utility.yul\":12681:12839   */\n    tag_170:\n        /* \"#utility.yul\":12774:12778   */\n      0x00\n        /* \"#utility.yul\":12797:12800   */\n      dup2\n        /* \"#utility.yul\":12789:12800   */\n      swap1\n      pop\n        /* \"#utility.yul\":12827:12831   */\n      0x20\n        /* \"#utility.yul\":12822:12825   */\n      dup3\n        /* \"#utility.yul\":12818:12832   */\n      add\n        /* \"#utility.yul\":12810:12832   */\n      swap1\n      pop\n        /* \"#utility.yul\":12681:12839   */\n      swap2\n      swap1\n      pop\n      jump\t// out\n        /* \"#utility.yul\":12845:12985   */\n    tag_152:\n        /* \"#utility.yul\":12938:12944   */\n      0x00\n        /* \"#utility.yul\":12972:12977   */\n      dup2\n        /* \"#utility.yul\":12966:12978   */\n      mload\n        /* \"#utility.yul\":12956:12978   */\n      swap1\n      pop\n        /* \"#utility.yul\":12845:12985   */\n      swap2\n      swap1\n      pop\n      jump\t// out\n        /* \"#utility.yul\":12991:13131   */\n    tag_166:\n        /* \"#utility.yul\":13084:13090   */\n      0x00\n        /* \"#utility.yul\":13118:13123   */\n      dup2\n        /* \"#utility.yul\":13112:13124   */\n      mload\n        /* \"#utility.yul\":13102:13124   */\n      swap1\n      pop\n        /* \"#utility.yul\":12991:13131   */\n      swap2\n      swap1\n      pop\n      jump\t// out\n        /* \"#utility.yul\":13137:13236   */\n    tag_195:\n        /* \"#utility.yul\":13189:13195   */\n      0x00\n        /* \"#utility.yul\":13223:13228   */\n      dup2\n        /* \"#utility.yul\":13217:13229   */\n      mload\n        /* \"#utility.yul\":13207:13229   */\n      swap1\n      pop\n        /* \"#utility.yul\":13137:13236   */\n      swap2\n      swap1\n      pop\n      jump\t// out\n        /* \"#utility.yul\":13242:13381   */\n    tag_162:\n        /* \"#utility.yul\":13338:13342   */\n      0x00\n        /* \"#utility.yul\":13370:13374   */\n      0x20\n        /* \"#utility.yul\":13365:13368   */\n      dup3\n        /* \"#utility.yul\":13361:13375   */\n      add\n        /* \"#utility.yul\":13353:13375   */\n      swap1\n      pop\n        /* \"#utility.yul\":13242:13381   */\n      swap2\n      swap1\n      pop\n      jump\t// out\n        /* \"#utility.yul\":13387:13526   */\n    tag_176:\n        /* \"#utility.yul\":13483:13487   */\n      0x00\n        /* \"#utility.yul\":13515:13519   */\n      0x20\n        /* \"#utility.yul\":13510:13513   */\n      dup3\n        /* \"#utility.yul\":13506:13520   */\n      add\n        /* \"#utility.yul\":13498:13520   */\n      swap1\n      pop\n        /* \"#utility.yul\":13387:13526   */\n      swap2\n      swap1\n      pop\n      jump\t// out\n        /* \"#utility.yul\":13532:13742   */\n    tag_154:\n        /* \"#utility.yul\":13657:13668   */\n      0x00\n        /* \"#utility.yul\":13691:13697   */\n      dup3\n        /* \"#utility.yul\":13686:13689   */\n      dup3\n        /* \"#utility.yul\":13679:13698   */\n      mstore\n        /* \"#utility.yul\":13731:13735   */\n      0x20\n        /* \"#utility.yul\":13726:13729   */\n      dup3\n        /* \"#utility.yul\":13722:13736   */\n      add\n        /* \"#utility.yul\":13707:13736   */\n      swap1\n      pop\n        /* \"#utility.yul\":13532:13742   */\n      swap3\n      swap2\n      pop\n      pop\n      jump\t// out\n        /* \"#utility.yul\":13748:13948   */\n    tag_168:\n        /* \"#utility.yul\":13863:13874   */\n      0x00\n        /* \"#utility.yul\":13897:13903   */\n      dup3\n        /* \"#utility.yul\":13892:13895   */\n      dup3\n        /* \"#utility.yul\":13885:13904   */\n      mstore\n        /* \"#utility.yul\":13937:13941   */\n      0x20\n        /* \"#utility.yul\":13932:13935   */\n      dup3\n        /* \"#utility.yul\":13928:13942   */\n      add\n        /* \"#utility.yul\":13913:13942   */\n      swap1\n      pop\n        /* \"#utility.yul\":13748:13948   */\n      swap3\n      swap2\n      pop\n      pop\n      jump\t// out\n        /* \"#utility.yul\":13954:14164   */\n    tag_181:\n        /* \"#utility.yul\":14079:14090   */\n      0x00\n        /* \"#utility.yul\":14113:14119   */\n      dup3\n        /* \"#utility.yul\":14108:14111   */\n      dup3\n        /* \"#utility.yul\":14101:14120   */\n      mstore\n        /* \"#utility.yul\":14153:14157   */\n      0x20\n        /* \"#utility.yul\":14148:14151   */\n      dup3\n        /* \"#utility.yul\":14144:14158   */\n      add\n        /* \"#utility.yul\":14129:14158   */\n      swap1\n      pop\n        /* \"#utility.yul\":13954:14164   */\n      swap3\n      swap2\n      pop\n      pop\n      jump\t// out\n        /* \"#utility.yul\":14170:14329   */\n    tag_197:\n        /* \"#utility.yul\":14244:14255   */\n      0x00\n        /* \"#utility.yul\":14278:14284   */\n      dup3\n        /* \"#utility.yul\":14273:14276   */\n      dup3\n        /* \"#utility.yul\":14266:14285   */\n      mstore\n        /* \"#utility.yul\":14318:14322   */\n      0x20\n        /* \"#utility.yul\":14313:14316   */\n      dup3\n        /* \"#utility.yul\":14309:14323   */\n      add\n        /* \"#utility.yul\":14294:14323   */\n      swap1\n      pop\n        /* \"#utility.yul\":14170:14329   */\n      swap3\n      swap2\n      pop\n      pop\n      jump\t// out\n        /* \"#utility.yul\":14335:14483   */\n    tag_206:\n        /* \"#utility.yul\":14437:14448   */\n      0x00\n        /* \"#utility.yul\":14474:14477   */\n      dup2\n        /* \"#utility.yul\":14459:14477   */\n      swap1\n      pop\n        /* \"#utility.yul\":14335:14483   */\n      swap3\n      swap2\n      pop\n      pop\n      jump\t// out\n        /* \"#utility.yul\":14489:14794   */\n    tag_55:\n        /* \"#utility.yul\":14529:14532   */\n      0x00\n        /* \"#utility.yul\":14548:14568   */\n      tag_257\n        /* \"#utility.yul\":14566:14567   */\n      dup3\n        /* \"#utility.yul\":14548:14568   */\n      tag_224\n      jump\t// in\n    tag_257:\n        /* \"#utility.yul\":14543:14568   */\n      swap2\n      pop\n        /* \"#utility.yul\":14582:14602   */\n      tag_258\n        /* \"#utility.yul\":14600:14601   */\n      dup4\n        /* \"#utility.yul\":14582:14602   */\n      tag_224\n      jump\t// in\n    tag_258:\n        /* \"#utility.yul\":14577:14602   */\n      swap3\n      pop\n        /* \"#utility.yul\":14736:14737   */\n      dup3\n        /* \"#utility.yul\":14668:14734   */\n      0xffffffffffffffffffffffffffffffffffffffffffffffffffffffffffffffff\n        /* \"#utility.yul\":14664:14738   */\n      sub\n        /* \"#utility.yul\":14661:14662   */\n      dup3\n        /* \"#utility.yul\":14658:14739   */\n      gt\n        /* \"#utility.yul\":14655:14762   */\n      iszero\n      tag_259\n      jumpi\n        /* \"#utility.yul\":14742:14760   */\n      tag_260\n      tag_261\n      jump\t// in\n    tag_260:\n        /* \"#utility.yul\":14655:14762   */\n    tag_259:\n        /* \"#utility.yul\":14786:14787   */\n      dup3\n        /* \"#utility.yul\":14783:14784   */\n      dup3\n        /* \"#utility.yul\":14779:14788   */\n      add\n        /* \"#utility.yul\":14772:14788   */\n      swap1\n      pop\n        /* \"#utility.yul\":14489:14794   */\n      swap3\n      swap2\n      pop\n      pop\n      jump\t// out\n        /* \"#utility.yul\":14800:14890   */\n    tag_191:\n        /* \"#utility.yul\":14835:14842   */\n      0x00\n        /* \"#utility.yul\":14878:14883   */\n      dup2\n        /* \"#utility.yul\":14875:14876   */\n      0x01\n        /* \"#utility.yul\":14864:14884   */\n      signextend\n        /* \"#utility.yul\":14853:14884   */\n      swap1\n      pop\n        /* \"#utility.yul\":14800:14890   */\n      swap2\n      swap1\n      pop\n      jump\t// out\n        /* \"#utility.yul\":14896:14973   */\n    tag_224:\n        /* \"#utility.yul\":14933:14940   */\n      0x00\n        /* \"#utility.yul\":14962:14967   */\n      dup2\n        /* \"#utility.yul\":14951:14967   */\n      swap1\n      pop\n        /* \"#utility.yul\":14896:14973   */\n      swap2\n      swap1\n      pop\n      jump\t// out\n        /* \"#utility.yul\":14979:15133   */\n    tag_107:\n        /* \"#utility.yul\":15063:15069   */\n      dup3\n        /* \"#utility.yul\":15058:15061   */\n      dup2\n        /* \"#utility.yul\":15053:15056   */\n      dup4\n        /* \"#utility.yul\":15040:15070   */\n      calldatacopy\n        /* \"#utility.yul\":15125:15126   */\n      0x00\n        /* \"#utility.yul\":15116:15122   */\n      dup4\n        /* \"#utility.yul\":15111:15114   */\n      dup4\n        /* \"#utility.yul\":15107:15123   */\n      add\n        /* \"#utility.yul\":15100:15127   */\n      mstore\n        /* \"#utility.yul\":14979:15133   */\n      pop\n      pop\n      pop\n      jump\t// out\n        /* \"#utility.yul\":15139:15446   */\n    tag_199:\n        /* \"#utility.yul\":15207:15208   */\n      0x00\n        /* \"#utility.yul\":15217:15330   */\n    tag_266:\n        /* \"#utility.yul\":15231:15237   */\n      dup4\n        /* \"#utility.yul\":15228:15229   */\n      dup2\n        /* \"#utility.yul\":15225:15238   */\n      lt\n        /* \"#utility.yul\":15217:15330   */\n      iszero\n      tag_268\n      jumpi\n        /* \"#utility.yul\":15316:15317   */\n      dup1\n        /* \"#utility.yul\":15311:15314   */\n      dup3\n        /* \"#utility.yul\":15307:15318   */\n      add\n        /* \"#utility.yul\":15301:15319   */\n      mload\n        /* \"#utility.yul\":15297:15298   */\n      dup2\n        /* \"#utility.yul\":15292:15295   */\n      dup5\n        /* \"#utility.yul\":15288:15299   */\n      add\n        /* \"#utility.yul\":15281:15320   */\n      mstore\n        /* \"#utility.yul\":15253:15255   */\n      0x20\n        /* \"#utility.yul\":15250:15251   */\n      dup2\n        /* \"#utility.yul\":15246:15256   */\n      add\n        /* \"#utility.yul\":15241:15256   */\n      swap1\n      pop\n        /* \"#utility.yul\":15217:15330   */\n      jump(tag_266)\n    tag_268:\n        /* \"#utility.yul\":15348:15354   */\n      dup4\n        /* \"#utility.yul\":15345:15346   */\n      dup2\n        /* \"#utility.yul\":15342:15355   */\n      gt\n        /* \"#utility.yul\":15339:15440   */\n      iszero\n      tag_269\n      jumpi\n        /* \"#utility.yul\":15428:15429   */\n      0x00\n        /* \"#utility.yul\":15419:15425   */\n      dup5\n        /* \"#utility.yul\":15414:15417   */\n      dup5\n        /* \"#utility.yul\":15410:15426   */\n      add\n        /* \"#utility.yul\":15403:15430   */\n      mstore\n        /* \"#utility.yul\":15339:15440   */\n    tag_269:\n        /* \"#utility.yul\":15188:15446   */\n      pop\n        /* \"#utility.yul\":15139:15446   */\n      pop\n      pop\n      pop\n      jump\t// out\n        /* \"#utility.yul\":15452:15772   */\n    tag_40:\n        /* \"#utility.yul\":15496:15502   */\n      0x00\n        /* \"#utility.yul\":15533:15534   */\n      0x02\n        /* \"#utility.yul\":15527:15531   */\n      dup3\n        /* \"#utility.yul\":15523:15535   */\n      div\n        /* \"#utility.yul\":15513:15535   */\n      swap1\n      pop\n        /* \"#utility.yul\":15580:15581   */\n      0x01\n        /* \"#utility.yul\":15574:15578   */\n      dup3\n        /* \"#utility.yul\":15570:15582   */\n      and\n        /* \"#utility.yul\":15601:15619   */\n      dup1\n        /* \"#utility.yul\":15591:15672   */\n      tag_271\n      jumpi\n        /* \"#utility.yul\":15657:15661   */\n      0x7f\n        /* \"#utility.yul\":15649:15655   */\n      dup3\n        /* \"#utility.yul\":15645:15662   */\n      and\n        /* \"#utility.yul\":15635:15662   */\n      swap2\n      pop\n        /* \"#utility.yul\":15591:15672   */\n    tag_271:\n        /* \"#utility.yul\":15719:15721   */\n      0x20\n        /* \"#utility.yul\":15711:15717   */\n      dup3\n        /* \"#utility.yul\":15708:15722   */\n      lt\n        /* \"#utility.yul\":15688:15706   */\n      dup2\n        /* \"#utility.yul\":15685:15723   */\n      eq\n        /* \"#utility.yul\":15682:15766   */\n      iszero\n      tag_272\n      jumpi\n        /* \"#utility.yul\":15738:15756   */\n      tag_273\n      tag_274\n      jump\t// in\n    tag_273:\n        /* \"#utility.yul\":15682:15766   */\n    tag_272:\n        /* \"#utility.yul\":15503:15772   */\n      pop\n        /* \"#utility.yul\":15452:15772   */\n      swap2\n      swap1\n      pop\n      jump\t// out\n        /* \"#utility.yul\":15778:16059   */\n    tag_237:\n        /* \"#utility.yul\":15861:15888   */\n      tag_276\n        /* \"#utility.yul\":15883:15887   */\n      dup3\n        /* \"#utility.yul\":15861:15888   */\n      tag_201\n      jump\t// in\n    tag_276:\n        /* \"#utility.yul\":15853:15859   */\n      dup2\n        /* \"#utility.yul\":15849:15889   */\n      add\n        /* \"#utility.yul\":15991:15997   */\n      dup2\n        /* \"#utility.yul\":15979:15989   */\n      dup2\n        /* \"#utility.yul\":15976:15998   */\n      lt\n        /* \"#utility.yul\":15955:15973   */\n      0xffffffffffffffff\n        /* \"#utility.yul\":15943:15953   */\n      dup3\n        /* \"#utility.yul\":15940:15974   */\n      gt\n        /* \"#utility.yul\":15937:15999   */\n      or\n        /* \"#utility.yul\":15934:16022   */\n      iszero\n      tag_277\n      jumpi\n        /* \"#utility.yul\":16002:16020   */\n      tag_278\n      tag_242\n      jump\t// in\n    tag_278:\n        /* \"#utility.yul\":15934:16022   */\n    tag_277:\n        /* \"#utility.yul\":16042:16052   */\n      dup1\n        /* \"#utility.yul\":16038:16040   */\n      0x40\n        /* \"#utility.yul\":16031:16053   */\n      mstore\n        /* \"#utility.yul\":15821:16059   */\n      pop\n        /* \"#utility.yul\":15778:16059   */\n      pop\n      pop\n      jump\t// out\n        /* \"#utility.yul\":16065:16245   */\n    tag_261:\n        /* \"#utility.yul\":16113:16190   */\n      0x4e487b7100000000000000000000000000000000000000000000000000000000\n        /* \"#utility.yul\":16110:16111   */\n      0x00\n        /* \"#utility.yul\":16103:16191   */\n      mstore\n        /* \"#utility.yul\":16210:16214   */\n      0x11\n        /* \"#utility.yul\":16207:16208   */\n      0x04\n        /* \"#utility.yul\":16200:16215   */\n      mstore\n        /* \"#utility.yul\":16234:16238   */\n      0x24\n        /* \"#utility.yul\":16231:16232   */\n      0x00\n        /* \"#utility.yul\":16224:16239   */\n      revert\n        /* \"#utility.yul\":16251:16431   */\n    tag_274:\n        /* \"#utility.yul\":16299:16376   */\n      0x4e487b7100000000000000000000000000000000000000000000000000000000\n        /* \"#utility.yul\":16296:16297   */\n      0x00\n        /* \"#utility.yul\":16289:16377   */\n      mstore\n        /* \"#utility.yul\":16396:16400   */\n      0x22\n        /* \"#utility.yul\":16393:16394   */\n      0x04\n        /* \"#utility.yul\":16386:16401   */\n      mstore\n        /* \"#utility.yul\":16420:16424   */\n      0x24\n        /* \"#utility.yul\":16417:16418   */\n      0x00\n        /* \"#utility.yul\":16410:16425   */\n      revert\n        /* \"#utility.yul\":16437:16617   */\n    tag_242:\n        /* \"#utility.yul\":16485:16562   */\n      0x4e487b7100000000000000000000000000000000000000000000000000000000\n        /* \"#utility.yul\":16482:16483   */\n      0x00\n        /* \"#utility.yul\":16475:16563   */\n      mstore\n        /* \"#utility.yul\":16582:16586   */\n      0x41\n        /* \"#utility.yul\":16579:16580   */\n      0x04\n        /* \"#utility.yul\":16572:16587   */\n      mstore\n        /* \"#utility.yul\":16606:16610   */\n      0x24\n        /* \"#utility.yul\":16603:16604   */\n      0x00\n        /* \"#utility.yul\":16596:16611   */\n      revert\n        /* \"#utility.yul\":16623:16740   */\n    tag_116:\n        /* \"#utility.yul\":16732:16733   */\n      0x00\n        /* \"#utility.yul\":16729:16730   */\n      dup1\n        /* \"#utility.yul\":16722:16734   */\n      revert\n        /* \"#utility.yul\":16746:16863   */\n    tag_105:\n        /* \"#utility.yul\":16855:16856   */\n      0x00\n        /* \"#utility.yul\":16852:16853   */\n      dup1\n        /* \"#utility.yul\":16845:16857   */\n      revert\n        /* \"#utility.yul\":16869:16986   */\n    tag_128:\n        /* \"#utility.yul\":16978:16979   */\n      0x00\n        /* \"#utility.yul\":16975:16976   */\n      dup1\n        /* \"#utility.yul\":16968:16980   */\n      revert\n        /* \"#utility.yul\":16992:17109   */\n    tag_125:\n        /* \"#utility.yul\":17101:17102   */\n      0x00\n        /* \"#utility.yul\":17098:17099   */\n      dup1\n        /* \"#utility.yul\":17091:17103   */\n      revert\n        /* \"#utility.yul\":17115:17217   */\n    tag_201:\n        /* \"#utility.yul\":17156:17162   */\n      0x00\n        /* \"#utility.yul\":17207:17209   */\n      0x1f\n        /* \"#utility.yul\":17203:17210   */\n      not\n        /* \"#utility.yul\":17198:17200   */\n      0x1f\n        /* \"#utility.yul\":17191:17196   */\n      dup4\n        /* \"#utility.yul\":17187:17201   */\n      add\n        /* \"#utility.yul\":17183:17211   */\n      and\n        /* \"#utility.yul\":17173:17211   */\n      swap1\n      pop\n        /* \"#utility.yul\":17115:17217   */\n      swap2\n      swap1\n      pop\n      jump\t// out\n        /* \"#utility.yul\":17223:17341   */\n    tag_111:\n        /* \"#utility.yul\":17294:17316   */\n      tag_288\n        /* \"#utility.yul\":17310:17315   */\n      dup2\n        /* \"#utility.yul\":17294:17316   */\n      tag_191\n      jump\t// in\n    tag_288:\n        /* \"#utility.yul\":17287:17292   */\n      dup2\n        /* \"#utility.yul\":17284:17317   */\n      eq\n        /* \"#utility.yul\":17274:17335   */\n      tag_289\n      jumpi\n        /* \"#utility.yul\":17331:17332   */\n      0x00\n        /* \"#utility.yul\":17328:17329   */\n      dup1\n        /* \"#utility.yul\":17321:17333   */\n      revert\n        /* \"#utility.yul\":17274:17335   */\n    tag_289:\n        /* \"#utility.yul\":17223:17341   */\n      pop\n      jump\t// out\n        /* \"#utility.yul\":17347:17469   */\n    tag_121:\n        /* \"#utility.yul\":17420:17444   */\n      tag_291\n        /* \"#utility.yul\":17438:17443   */\n      dup2\n        /* \"#utility.yul\":17420:17444   */\n      tag_224\n      jump\t// in\n    tag_291:\n        /* \"#utility.yul\":17413:17418   */\n      dup2\n        /* \"#utility.yul\":17410:17445   */\n      eq\n        /* \"#utility.yul\":17400:17463   */\n      tag_292\n      jumpi\n        /* \"#utility.yul\":17459:17460   */\n      0x00\n        /* \"#utility.yul\":17456:17457   */\n      dup1\n        /* \"#utility.yul\":17449:17461   */\n      revert\n        /* \"#utility.yul\":17400:17463   */\n    tag_292:\n        /* \"#utility.yul\":17347:17469   */\n      pop\n      jump\t// out\n\n    auxdata: 0xa264697066735822122034f9414b83d3d2140cfa56b79fa393ee5257a6cd9fd6a379b09a2f91219b824c64736f6c63430008070033\n}\n",
				"bytecode": {
					"linkReferences": {},
					"object": "608060405234801561001057600080fd5b50610fd7806100206000396000f3fe608060405234801561001057600080fd5b50600436106100625760003560e01c806302ee3a52146100675780633f70c2b41461008557806351401eef146100b5578063d4290f83146100d1578063e4d7a3d414610101578063e88e9f0f1461011f575b600080fd5b61006f61013b565b60405161007c9190610c6b565b60405180910390f35b61009f600480360381019061009a91906108ff565b610253565b6040516100ac9190610c8d565b60405180910390f35b6100cf60048036038101906100ca91906108a3565b610339565b005b6100eb60048036038101906100e6919061085a565b6103f2565b6040516100f89190610c8d565b60405180910390f35b6101096104e3565b6040516101169190610c49565b60405180910390f35b6101396004803603810190610134919061085a565b6106f6565b005b60606000805480602002602001604051908101604052809291908181526020016000905b8282101561024a57838290600052602060002090600302016040518060600160405290816000820154815260200160018201805461019c90610e5e565b80601f01602080910402602001604051908101604052809291908181526020018280546101c890610e5e565b80156102155780601f106101ea57610100808354040283529160200191610215565b820191906000526020600020905b8154815290600101906020018083116101f857829003601f168201915b505050505081526020016002820160009054906101000a900460010b60010b60010b815250508152602001906001019061015f565b50505050905090565b61025b6106f9565b600360008381526020019081526020016000206040518060600160405290816000820154815260200160018201805461029390610e5e565b80601f01602080910402602001604051908101604052809291908181526020018280546102bf90610e5e565b801561030c5780601f106102e15761010080835404028352916020019161030c565b820191906000526020600020905b8154815290600101906020018083116102ef57829003601f168201915b505050505081526020016002820160009054906101000a900460010b60010b60010b815250509050919050565b6000600160008054905061034d9190610daf565b9050600060405180606001604052808381526020018581526020018460010b815250905060008190806001815401808255809150506001900390600052602060002090600302016000909190919091506000820151816000015560208201518160010190805190602001906103c392919061071d565b5060408201518160020160006101000a81548161ffff021916908360010b61ffff160217905550505050505050565b6103fa6106f9565b60048260405161040a9190610c32565b90815260200160405180910390206040518060600160405290816000820154815260200160018201805461043d90610e5e565b80601f016020809104026020016040519081016040528092919081815260200182805461046990610e5e565b80156104b65780601f1061048b576101008083540402835291602001916104b6565b820191906000526020600020905b81548152906001019060200180831161049957829003601f168201915b505050505081526020016002820160009054906101000a900460010b60010b60010b815250509050919050565b60606001805480602002602001604051908101604052809291908181526020016000905b828210156106ed57838290600052602060002090600302016040518060600160405290816000820154815260200160018201805461054490610e5e565b80601f016020809104026020016040519081016040528092919081815260200182805461057090610e5e565b80156105bd5780601f10610592576101008083540402835291602001916105bd565b820191906000526020600020905b8154815290600101906020018083116105a057829003601f168201915b5050505050815260200160028201805480602002602001604051908101604052809291908181526020016000905b828210156106d657838290600052602060002090600302016040518060600160405290816000820154815260200160018201805461062890610e5e565b80601f016020809104026020016040519081016040528092919081815260200182805461065490610e5e565b80156106a15780601f10610676576101008083540402835291602001916106a1565b820191906000526020600020905b81548152906001019060200180831161068457829003601f168201915b505050505081526020016002820160009054906101000a900460010b60010b60010b81525050815260200190600101906105eb565b505050508152505081526020019060010190610507565b50505050905090565b50565b60405180606001604052806000815260200160608152602001600060010b81525090565b82805461072990610e5e565b90600052602060002090601f01602090048101928261074b5760008555610792565b82601f1061076457805160ff1916838001178555610792565b82800160010185558215610792579182015b82811115610791578251825591602001919060010190610776565b5b50905061079f91906107a3565b5090565b5b808211156107bc5760008160009055506001016107a4565b5090565b60006107d36107ce84610cd4565b610caf565b9050828152602081018484840111156107ef576107ee610f53565b5b6107fa848285610e1c565b509392505050565b60008135905061081181610f73565b92915050565b600082601f83011261082c5761082b610f4e565b5b813561083c8482602086016107c0565b91505092915050565b60008135905061085481610f8a565b92915050565b6000602082840312156108705761086f610f5d565b5b600082013567ffffffffffffffff81111561088e5761088d610f58565b5b61089a84828501610817565b91505092915050565b600080604083850312156108ba576108b9610f5d565b5b600083013567ffffffffffffffff8111156108d8576108d7610f58565b5b6108e485828601610817565b92505060206108f585828601610802565b9150509250929050565b60006020828403121561091557610914610f5d565b5b600061092384828501610845565b91505092915050565b60006109388383610b2c565b905092915050565b600061094c8383610b83565b905092915050565b600061095f82610d25565b6109698185610d60565b93508360208202850161097b85610d05565b8060005b858110156109b75784840389528151610998858261092c565b94506109a383610d46565b925060208a0199505060018101905061097f565b50829750879550505050505092915050565b60006109d482610d30565b6109de8185610d71565b9350836020820285016109f085610d15565b8060005b85811015610a2c5784840389528151610a0d8582610940565b9450610a1883610d53565b925060208a019950506001810190506109f4565b50829750879550505050505092915050565b6000610a4982610d30565b610a538185610d82565b935083602082028501610a6585610d15565b8060005b85811015610aa15784840389528151610a828582610940565b9450610a8d83610d53565b925060208a01995050600181019050610a69565b50829750879550505050505092915050565b610abc81610e05565b82525050565b6000610acd82610d3b565b610ad78185610d93565b9350610ae7818560208601610e2b565b610af081610f62565b840191505092915050565b6000610b0682610d3b565b610b108185610da4565b9350610b20818560208601610e2b565b80840191505092915050565b6000606083016000830151610b446000860182610c23565b5060208301518482036020860152610b5c8282610ac2565b91505060408301518482036040860152610b7682826109c9565b9150508091505092915050565b6000606083016000830151610b9b6000860182610c23565b5060208301518482036020860152610bb38282610ac2565b9150506040830151610bc86040860182610ab3565b508091505092915050565b6000606083016000830151610beb6000860182610c23565b5060208301518482036020860152610c038282610ac2565b9150506040830151610c186040860182610ab3565b508091505092915050565b610c2c81610e12565b82525050565b6000610c3e8284610afb565b915081905092915050565b60006020820190508181036000830152610c638184610954565b905092915050565b60006020820190508181036000830152610c858184610a3e565b905092915050565b60006020820190508181036000830152610ca78184610bd3565b905092915050565b6000610cb9610cca565b9050610cc58282610e90565b919050565b6000604051905090565b600067ffffffffffffffff821115610cef57610cee610f1f565b5b610cf882610f62565b9050602081019050919050565b6000819050602082019050919050565b6000819050602082019050919050565b600081519050919050565b600081519050919050565b600081519050919050565b6000602082019050919050565b6000602082019050919050565b600082825260208201905092915050565b600082825260208201905092915050565b600082825260208201905092915050565b600082825260208201905092915050565b600081905092915050565b6000610dba82610e12565b9150610dc583610e12565b9250827fffffffffffffffffffffffffffffffffffffffffffffffffffffffffffffffff03821115610dfa57610df9610ec1565b5b828201905092915050565b60008160010b9050919050565b6000819050919050565b82818337600083830152505050565b60005b83811015610e49578082015181840152602081019050610e2e565b83811115610e58576000848401525b50505050565b60006002820490506001821680610e7657607f821691505b60208210811415610e8a57610e89610ef0565b5b50919050565b610e9982610f62565b810181811067ffffffffffffffff82111715610eb857610eb7610f1f565b5b80604052505050565b7f4e487b7100000000000000000000000000000000000000000000000000000000600052601160045260246000fd5b7f4e487b7100000000000000000000000000000000000000000000000000000000600052602260045260246000fd5b7f4e487b7100000000000000000000000000000000000000000000000000000000600052604160045260246000fd5b600080fd5b600080fd5b600080fd5b600080fd5b6000601f19601f8301169050919050565b610f7c81610e05565b8114610f8757600080fd5b50565b610f9381610e12565b8114610f9e57600080fd5b5056fea264697066735822122034f9414b83d3d2140cfa56b79fa393ee5257a6cd9fd6a379b09a2f91219b824c64736f6c63430008070033",
					"opcodes": "PUSH1 0x80 PUSH1 0x40 MSTORE CALLVALUE DUP1 ISZERO PUSH2 0x10 JUMPI PUSH1 0x0 DUP1 REVERT JUMPDEST POP PUSH2 0xFD7 DUP1 PUSH2 0x20 PUSH1 0x0 CODECOPY PUSH1 0x0 RETURN INVALID PUSH1 0x80 PUSH1 0x40 MSTORE CALLVALUE DUP1 ISZERO PUSH2 0x10 JUMPI PUSH1 0x0 DUP1 REVERT JUMPDEST POP PUSH1 0x4 CALLDATASIZE LT PUSH2 0x62 JUMPI PUSH1 0x0 CALLDATALOAD PUSH1 0xE0 SHR DUP1 PUSH4 0x2EE3A52 EQ PUSH2 0x67 JUMPI DUP1 PUSH4 0x3F70C2B4 EQ PUSH2 0x85 JUMPI DUP1 PUSH4 0x51401EEF EQ PUSH2 0xB5 JUMPI DUP1 PUSH4 0xD4290F83 EQ PUSH2 0xD1 JUMPI DUP1 PUSH4 0xE4D7A3D4 EQ PUSH2 0x101 JUMPI DUP1 PUSH4 0xE88E9F0F EQ PUSH2 0x11F JUMPI JUMPDEST PUSH1 0x0 DUP1 REVERT JUMPDEST PUSH2 0x6F PUSH2 0x13B JUMP JUMPDEST PUSH1 0x40 MLOAD PUSH2 0x7C SWAP2 SWAP1 PUSH2 0xC6B JUMP JUMPDEST PUSH1 0x40 MLOAD DUP1 SWAP2 SUB SWAP1 RETURN JUMPDEST PUSH2 0x9F PUSH1 0x4 DUP1 CALLDATASIZE SUB DUP2 ADD SWAP1 PUSH2 0x9A SWAP2 SWAP1 PUSH2 0x8FF JUMP JUMPDEST PUSH2 0x253 JUMP JUMPDEST PUSH1 0x40 MLOAD PUSH2 0xAC SWAP2 SWAP1 PUSH2 0xC8D JUMP JUMPDEST PUSH1 0x40 MLOAD DUP1 SWAP2 SUB SWAP1 RETURN JUMPDEST PUSH2 0xCF PUSH1 0x4 DUP1 CALLDATASIZE SUB DUP2 ADD SWAP1 PUSH2 0xCA SWAP2 SWAP1 PUSH2 0x8A3 JUMP JUMPDEST PUSH2 0x339 JUMP JUMPDEST STOP JUMPDEST PUSH2 0xEB PUSH1 0x4 DUP1 CALLDATASIZE SUB DUP2 ADD SWAP1 PUSH2 0xE6 SWAP2 SWAP1 PUSH2 0x85A JUMP JUMPDEST PUSH2 0x3F2 JUMP JUMPDEST PUSH1 0x40 MLOAD PUSH2 0xF8 SWAP2 SWAP1 PUSH2 0xC8D JUMP JUMPDEST PUSH1 0x40 MLOAD DUP1 SWAP2 SUB SWAP1 RETURN JUMPDEST PUSH2 0x109 PUSH2 0x4E3 JUMP JUMPDEST PUSH1 0x40 MLOAD PUSH2 0x116 SWAP2 SWAP1 PUSH2 0xC49 JUMP JUMPDEST PUSH1 0x40 MLOAD DUP1 SWAP2 SUB SWAP1 RETURN JUMPDEST PUSH2 0x139 PUSH1 0x4 DUP1 CALLDATASIZE SUB DUP2 ADD SWAP1 PUSH2 0x134 SWAP2 SWAP1 PUSH2 0x85A JUMP JUMPDEST PUSH2 0x6F6 JUMP JUMPDEST STOP JUMPDEST PUSH1 0x60 PUSH1 0x0 DUP1 SLOAD DUP1 PUSH1 0x20 MUL PUSH1 0x20 ADD PUSH1 0x40 MLOAD SWAP1 DUP2 ADD PUSH1 0x40 MSTORE DUP1 SWAP3 SWAP2 SWAP1 DUP2 DUP2 MSTORE PUSH1 0x20 ADD PUSH1 0x0 SWAP1 JUMPDEST DUP3 DUP3 LT ISZERO PUSH2 0x24A JUMPI DUP4 DUP3 SWAP1 PUSH1 0x0 MSTORE PUSH1 0x20 PUSH1 0x0 KECCAK256 SWAP1 PUSH1 0x3 MUL ADD PUSH1 0x40 MLOAD DUP1 PUSH1 0x60 ADD PUSH1 0x40 MSTORE SWAP1 DUP2 PUSH1 0x0 DUP3 ADD SLOAD DUP2 MSTORE PUSH1 0x20 ADD PUSH1 0x1 DUP3 ADD DUP1 SLOAD PUSH2 0x19C SWAP1 PUSH2 0xE5E JUMP JUMPDEST DUP1 PUSH1 0x1F ADD PUSH1 0x20 DUP1 SWAP2 DIV MUL PUSH1 0x20 ADD PUSH1 0x40 MLOAD SWAP1 DUP2 ADD PUSH1 0x40 MSTORE DUP1 SWAP3 SWAP2 SWAP1 DUP2 DUP2 MSTORE PUSH1 0x20 ADD DUP3 DUP1 SLOAD PUSH2 0x1C8 SWAP1 PUSH2 0xE5E JUMP JUMPDEST DUP1 ISZERO PUSH2 0x215 JUMPI DUP1 PUSH1 0x1F LT PUSH2 0x1EA JUMPI PUSH2 0x100 DUP1 DUP4 SLOAD DIV MUL DUP4 MSTORE SWAP2 PUSH1 0x20 ADD SWAP2 PUSH2 0x215 JUMP JUMPDEST DUP3 ADD SWAP2 SWAP1 PUSH1 0x0 MSTORE PUSH1 0x20 PUSH1 0x0 KECCAK256 SWAP1 JUMPDEST DUP2 SLOAD DUP2 MSTORE SWAP1 PUSH1 0x1 ADD SWAP1 PUSH1 0x20 ADD DUP1 DUP4 GT PUSH2 0x1F8 JUMPI DUP3 SWAP1 SUB PUSH1 0x1F AND DUP3 ADD SWAP2 JUMPDEST POP POP POP POP POP DUP2 MSTORE PUSH1 0x20 ADD PUSH1 0x2 DUP3 ADD PUSH1 0x0 SWAP1 SLOAD SWAP1 PUSH2 0x100 EXP SWAP1 DIV PUSH1 0x1 SIGNEXTEND PUSH1 0x1 SIGNEXTEND PUSH1 0x1 SIGNEXTEND DUP2 MSTORE POP POP DUP2 MSTORE PUSH1 0x20 ADD SWAP1 PUSH1 0x1 ADD SWAP1 PUSH2 0x15F JUMP JUMPDEST POP POP POP POP SWAP1 POP SWAP1 JUMP JUMPDEST PUSH2 0x25B PUSH2 0x6F9 JUMP JUMPDEST PUSH1 0x3 PUSH1 0x0 DUP4 DUP2 MSTORE PUSH1 0x20 ADD SWAP1 DUP2 MSTORE PUSH1 0x20 ADD PUSH1 0x0 KECCAK256 PUSH1 0x40 MLOAD DUP1 PUSH1 0x60 ADD PUSH1 0x40 MSTORE SWAP1 DUP2 PUSH1 0x0 DUP3 ADD SLOAD DUP2 MSTORE PUSH1 0x20 ADD PUSH1 0x1 DUP3 ADD DUP1 SLOAD PUSH2 0x293 SWAP1 PUSH2 0xE5E JUMP JUMPDEST DUP1 PUSH1 0x1F ADD PUSH1 0x20 DUP1 SWAP2 DIV MUL PUSH1 0x20 ADD PUSH1 0x40 MLOAD SWAP1 DUP2 ADD PUSH1 0x40 MSTORE DUP1 SWAP3 SWAP2 SWAP1 DUP2 DUP2 MSTORE PUSH1 0x20 ADD DUP3 DUP1 SLOAD PUSH2 0x2BF SWAP1 PUSH2 0xE5E JUMP JUMPDEST DUP1 ISZERO PUSH2 0x30C JUMPI DUP1 PUSH1 0x1F LT PUSH2 0x2E1 JUMPI PUSH2 0x100 DUP1 DUP4 SLOAD DIV MUL DUP4 MSTORE SWAP2 PUSH1 0x20 ADD SWAP2 PUSH2 0x30C JUMP JUMPDEST DUP3 ADD SWAP2 SWAP1 PUSH1 0x0 MSTORE PUSH1 0x20 PUSH1 0x0 KECCAK256 SWAP1 JUMPDEST DUP2 SLOAD DUP2 MSTORE SWAP1 PUSH1 0x1 ADD SWAP1 PUSH1 0x20 ADD DUP1 DUP4 GT PUSH2 0x2EF JUMPI DUP3 SWAP1 SUB PUSH1 0x1F AND DUP3 ADD SWAP2 JUMPDEST POP POP POP POP POP DUP2 MSTORE PUSH1 0x20 ADD PUSH1 0x2 DUP3 ADD PUSH1 0x0 SWAP1 SLOAD SWAP1 PUSH2 0x100 EXP SWAP1 DIV PUSH1 0x1 SIGNEXTEND PUSH1 0x1 SIGNEXTEND PUSH1 0x1 SIGNEXTEND DUP2 MSTORE POP POP SWAP1 POP SWAP2 SWAP1 POP JUMP JUMPDEST PUSH1 0x0 PUSH1 0x1 PUSH1 0x0 DUP1 SLOAD SWAP1 POP PUSH2 0x34D SWAP2 SWAP1 PUSH2 0xDAF JUMP JUMPDEST SWAP1 POP PUSH1 0x0 PUSH1 0x40 MLOAD DUP1 PUSH1 0x60 ADD PUSH1 0x40 MSTORE DUP1 DUP4 DUP2 MSTORE PUSH1 0x20 ADD DUP6 DUP2 MSTORE PUSH1 0x20 ADD DUP5 PUSH1 0x1 SIGNEXTEND DUP2 MSTORE POP SWAP1 POP PUSH1 0x0 DUP2 SWAP1 DUP1 PUSH1 0x1 DUP2 SLOAD ADD DUP1 DUP3 SSTORE DUP1 SWAP2 POP POP PUSH1 0x1 SWAP1 SUB SWAP1 PUSH1 0x0 MSTORE PUSH1 0x20 PUSH1 0x0 KECCAK256 SWAP1 PUSH1 0x3 MUL ADD PUSH1 0x0 SWAP1 SWAP2 SWAP1 SWAP2 SWAP1 SWAP2 POP PUSH1 0x0 DUP3 ADD MLOAD DUP2 PUSH1 0x0 ADD SSTORE PUSH1 0x20 DUP3 ADD MLOAD DUP2 PUSH1 0x1 ADD SWAP1 DUP1 MLOAD SWAP1 PUSH1 0x20 ADD SWAP1 PUSH2 0x3C3 SWAP3 SWAP2 SWAP1 PUSH2 0x71D JUMP JUMPDEST POP PUSH1 0x40 DUP3 ADD MLOAD DUP2 PUSH1 0x2 ADD PUSH1 0x0 PUSH2 0x100 EXP DUP2 SLOAD DUP2 PUSH2 0xFFFF MUL NOT AND SWAP1 DUP4 PUSH1 0x1 SIGNEXTEND PUSH2 0xFFFF AND MUL OR SWAP1 SSTORE POP POP POP POP POP POP POP JUMP JUMPDEST PUSH2 0x3FA PUSH2 0x6F9 JUMP JUMPDEST PUSH1 0x4 DUP3 PUSH1 0x40 MLOAD PUSH2 0x40A SWAP2 SWAP1 PUSH2 0xC32 JUMP JUMPDEST SWAP1 DUP2 MSTORE PUSH1 0x20 ADD PUSH1 0x40 MLOAD DUP1 SWAP2 SUB SWAP1 KECCAK256 PUSH1 0x40 MLOAD DUP1 PUSH1 0x60 ADD PUSH1 0x40 MSTORE SWAP1 DUP2 PUSH1 0x0 DUP3 ADD SLOAD DUP2 MSTORE PUSH1 0x20 ADD PUSH1 0x1 DUP3 ADD DUP1 SLOAD PUSH2 0x43D SWAP1 PUSH2 0xE5E JUMP JUMPDEST DUP1 PUSH1 0x1F ADD PUSH1 0x20 DUP1 SWAP2 DIV MUL PUSH1 0x20 ADD PUSH1 0x40 MLOAD SWAP1 DUP2 ADD PUSH1 0x40 MSTORE DUP1 SWAP3 SWAP2 SWAP1 DUP2 DUP2 MSTORE PUSH1 0x20 ADD DUP3 DUP1 SLOAD PUSH2 0x469 SWAP1 PUSH2 0xE5E JUMP JUMPDEST DUP1 ISZERO PUSH2 0x4B6 JUMPI DUP1 PUSH1 0x1F LT PUSH2 0x48B JUMPI PUSH2 0x100 DUP1 DUP4 SLOAD DIV MUL DUP4 MSTORE SWAP2 PUSH1 0x20 ADD SWAP2 PUSH2 0x4B6 JUMP JUMPDEST DUP3 ADD SWAP2 SWAP1 PUSH1 0x0 MSTORE PUSH1 0x20 PUSH1 0x0 KECCAK256 SWAP1 JUMPDEST DUP2 SLOAD DUP2 MSTORE SWAP1 PUSH1 0x1 ADD SWAP1 PUSH1 0x20 ADD DUP1 DUP4 GT PUSH2 0x499 JUMPI DUP3 SWAP1 SUB PUSH1 0x1F AND DUP3 ADD SWAP2 JUMPDEST POP POP POP POP POP DUP2 MSTORE PUSH1 0x20 ADD PUSH1 0x2 DUP3 ADD PUSH1 0x0 SWAP1 SLOAD SWAP1 PUSH2 0x100 EXP SWAP1 DIV PUSH1 0x1 SIGNEXTEND PUSH1 0x1 SIGNEXTEND PUSH1 0x1 SIGNEXTEND DUP2 MSTORE POP POP SWAP1 POP SWAP2 SWAP1 POP JUMP JUMPDEST PUSH1 0x60 PUSH1 0x1 DUP1 SLOAD DUP1 PUSH1 0x20 MUL PUSH1 0x20 ADD PUSH1 0x40 MLOAD SWAP1 DUP2 ADD PUSH1 0x40 MSTORE DUP1 SWAP3 SWAP2 SWAP1 DUP2 DUP2 MSTORE PUSH1 0x20 ADD PUSH1 0x0 SWAP1 JUMPDEST DUP3 DUP3 LT ISZERO PUSH2 0x6ED JUMPI DUP4 DUP3 SWAP1 PUSH1 0x0 MSTORE PUSH1 0x20 PUSH1 0x0 KECCAK256 SWAP1 PUSH1 0x3 MUL ADD PUSH1 0x40 MLOAD DUP1 PUSH1 0x60 ADD PUSH1 0x40 MSTORE SWAP1 DUP2 PUSH1 0x0 DUP3 ADD SLOAD DUP2 MSTORE PUSH1 0x20 ADD PUSH1 0x1 DUP3 ADD DUP1 SLOAD PUSH2 0x544 SWAP1 PUSH2 0xE5E JUMP JUMPDEST DUP1 PUSH1 0x1F ADD PUSH1 0x20 DUP1 SWAP2 DIV MUL PUSH1 0x20 ADD PUSH1 0x40 MLOAD SWAP1 DUP2 ADD PUSH1 0x40 MSTORE DUP1 SWAP3 SWAP2 SWAP1 DUP2 DUP2 MSTORE PUSH1 0x20 ADD DUP3 DUP1 SLOAD PUSH2 0x570 SWAP1 PUSH2 0xE5E JUMP JUMPDEST DUP1 ISZERO PUSH2 0x5BD JUMPI DUP1 PUSH1 0x1F LT PUSH2 0x592 JUMPI PUSH2 0x100 DUP1 DUP4 SLOAD DIV MUL DUP4 MSTORE SWAP2 PUSH1 0x20 ADD SWAP2 PUSH2 0x5BD JUMP JUMPDEST DUP3 ADD SWAP2 SWAP1 PUSH1 0x0 MSTORE PUSH1 0x20 PUSH1 0x0 KECCAK256 SWAP1 JUMPDEST DUP2 SLOAD DUP2 MSTORE SWAP1 PUSH1 0x1 ADD SWAP1 PUSH1 0x20 ADD DUP1 DUP4 GT PUSH2 0x5A0 JUMPI DUP3 SWAP1 SUB PUSH1 0x1F AND DUP3 ADD SWAP2 JUMPDEST POP POP POP POP POP DUP2 MSTORE PUSH1 0x20 ADD PUSH1 0x2 DUP3 ADD DUP1 SLOAD DUP1 PUSH1 0x20 MUL PUSH1 0x20 ADD PUSH1 0x40 MLOAD SWAP1 DUP2 ADD PUSH1 0x40 MSTORE DUP1 SWAP3 SWAP2 SWAP1 DUP2 DUP2 MSTORE PUSH1 0x20 ADD PUSH1 0x0 SWAP1 JUMPDEST DUP3 DUP3 LT ISZERO PUSH2 0x6D6 JUMPI DUP4 DUP3 SWAP1 PUSH1 0x0 MSTORE PUSH1 0x20 PUSH1 0x0 KECCAK256 SWAP1 PUSH1 0x3 MUL ADD PUSH1 0x40 MLOAD DUP1 PUSH1 0x60 ADD PUSH1 0x40 MSTORE SWAP1 DUP2 PUSH1 0x0 DUP3 ADD SLOAD DUP2 MSTORE PUSH1 0x20 ADD PUSH1 0x1 DUP3 ADD DUP1 SLOAD PUSH2 0x628 SWAP1 PUSH2 0xE5E JUMP JUMPDEST DUP1 PUSH1 0x1F ADD PUSH1 0x20 DUP1 SWAP2 DIV MUL PUSH1 0x20 ADD PUSH1 0x40 MLOAD SWAP1 DUP2 ADD PUSH1 0x40 MSTORE DUP1 SWAP3 SWAP2 SWAP1 DUP2 DUP2 MSTORE PUSH1 0x20 ADD DUP3 DUP1 SLOAD PUSH2 0x654 SWAP1 PUSH2 0xE5E JUMP JUMPDEST DUP1 ISZERO PUSH2 0x6A1 JUMPI DUP1 PUSH1 0x1F LT PUSH2 0x676 JUMPI PUSH2 0x100 DUP1 DUP4 SLOAD DIV MUL DUP4 MSTORE SWAP2 PUSH1 0x20 ADD SWAP2 PUSH2 0x6A1 JUMP JUMPDEST DUP3 ADD SWAP2 SWAP1 PUSH1 0x0 MSTORE PUSH1 0x20 PUSH1 0x0 KECCAK256 SWAP1 JUMPDEST DUP2 SLOAD DUP2 MSTORE SWAP1 PUSH1 0x1 ADD SWAP1 PUSH1 0x20 ADD DUP1 DUP4 GT PUSH2 0x684 JUMPI DUP3 SWAP1 SUB PUSH1 0x1F AND DUP3 ADD SWAP2 JUMPDEST POP POP POP POP POP DUP2 MSTORE PUSH1 0x20 ADD PUSH1 0x2 DUP3 ADD PUSH1 0x0 SWAP1 SLOAD SWAP1 PUSH2 0x100 EXP SWAP1 DIV PUSH1 0x1 SIGNEXTEND PUSH1 0x1 SIGNEXTEND PUSH1 0x1 SIGNEXTEND DUP2 MSTORE POP POP DUP2 MSTORE PUSH1 0x20 ADD SWAP1 PUSH1 0x1 ADD SWAP1 PUSH2 0x5EB JUMP JUMPDEST POP POP POP POP DUP2 MSTORE POP POP DUP2 MSTORE PUSH1 0x20 ADD SWAP1 PUSH1 0x1 ADD SWAP1 PUSH2 0x507 JUMP JUMPDEST POP POP POP POP SWAP1 POP SWAP1 JUMP JUMPDEST POP JUMP JUMPDEST PUSH1 0x40 MLOAD DUP1 PUSH1 0x60 ADD PUSH1 0x40 MSTORE DUP1 PUSH1 0x0 DUP2 MSTORE PUSH1 0x20 ADD PUSH1 0x60 DUP2 MSTORE PUSH1 0x20 ADD PUSH1 0x0 PUSH1 0x1 SIGNEXTEND DUP2 MSTORE POP SWAP1 JUMP JUMPDEST DUP3 DUP1 SLOAD PUSH2 0x729 SWAP1 PUSH2 0xE5E JUMP JUMPDEST SWAP1 PUSH1 0x0 MSTORE PUSH1 0x20 PUSH1 0x0 KECCAK256 SWAP1 PUSH1 0x1F ADD PUSH1 0x20 SWAP1 DIV DUP2 ADD SWAP3 DUP3 PUSH2 0x74B JUMPI PUSH1 0x0 DUP6 SSTORE PUSH2 0x792 JUMP JUMPDEST DUP3 PUSH1 0x1F LT PUSH2 0x764 JUMPI DUP1 MLOAD PUSH1 0xFF NOT AND DUP4 DUP1 ADD OR DUP6 SSTORE PUSH2 0x792 JUMP JUMPDEST DUP3 DUP1 ADD PUSH1 0x1 ADD DUP6 SSTORE DUP3 ISZERO PUSH2 0x792 JUMPI SWAP2 DUP3 ADD JUMPDEST DUP3 DUP2 GT ISZERO PUSH2 0x791 JUMPI DUP3 MLOAD DUP3 SSTORE SWAP2 PUSH1 0x20 ADD SWAP2 SWAP1 PUSH1 0x1 ADD SWAP1 PUSH2 0x776 JUMP JUMPDEST JUMPDEST POP SWAP1 POP PUSH2 0x79F SWAP2 SWAP1 PUSH2 0x7A3 JUMP JUMPDEST POP SWAP1 JUMP JUMPDEST JUMPDEST DUP1 DUP3 GT ISZERO PUSH2 0x7BC JUMPI PUSH1 0x0 DUP2 PUSH1 0x0 SWAP1 SSTORE POP PUSH1 0x1 ADD PUSH2 0x7A4 JUMP JUMPDEST POP SWAP1 JUMP JUMPDEST PUSH1 0x0 PUSH2 0x7D3 PUSH2 0x7CE DUP5 PUSH2 0xCD4 JUMP JUMPDEST PUSH2 0xCAF JUMP JUMPDEST SWAP1 POP DUP3 DUP2 MSTORE PUSH1 0x20 DUP2 ADD DUP5 DUP5 DUP5 ADD GT ISZERO PUSH2 0x7EF JUMPI PUSH2 0x7EE PUSH2 0xF53 JUMP JUMPDEST JUMPDEST PUSH2 0x7FA DUP5 DUP3 DUP6 PUSH2 0xE1C JUMP JUMPDEST POP SWAP4 SWAP3 POP POP POP JUMP JUMPDEST PUSH1 0x0 DUP2 CALLDATALOAD SWAP1 POP PUSH2 0x811 DUP2 PUSH2 0xF73 JUMP JUMPDEST SWAP3 SWAP2 POP POP JUMP JUMPDEST PUSH1 0x0 DUP3 PUSH1 0x1F DUP4 ADD SLT PUSH2 0x82C JUMPI PUSH2 0x82B PUSH2 0xF4E JUMP JUMPDEST JUMPDEST DUP2 CALLDATALOAD PUSH2 0x83C DUP5 DUP3 PUSH1 0x20 DUP7 ADD PUSH2 0x7C0 JUMP JUMPDEST SWAP2 POP POP SWAP3 SWAP2 POP POP JUMP JUMPDEST PUSH1 0x0 DUP2 CALLDATALOAD SWAP1 POP PUSH2 0x854 DUP2 PUSH2 0xF8A JUMP JUMPDEST SWAP3 SWAP2 POP POP JUMP JUMPDEST PUSH1 0x0 PUSH1 0x20 DUP3 DUP5 SUB SLT ISZERO PUSH2 0x870 JUMPI PUSH2 0x86F PUSH2 0xF5D JUMP JUMPDEST JUMPDEST PUSH1 0x0 DUP3 ADD CALLDATALOAD PUSH8 0xFFFFFFFFFFFFFFFF DUP2 GT ISZERO PUSH2 0x88E JUMPI PUSH2 0x88D PUSH2 0xF58 JUMP JUMPDEST JUMPDEST PUSH2 0x89A DUP5 DUP3 DUP6 ADD PUSH2 0x817 JUMP JUMPDEST SWAP2 POP POP SWAP3 SWAP2 POP POP JUMP JUMPDEST PUSH1 0x0 DUP1 PUSH1 0x40 DUP4 DUP6 SUB SLT ISZERO PUSH2 0x8BA JUMPI PUSH2 0x8B9 PUSH2 0xF5D JUMP JUMPDEST JUMPDEST PUSH1 0x0 DUP4 ADD CALLDATALOAD PUSH8 0xFFFFFFFFFFFFFFFF DUP2 GT ISZERO PUSH2 0x8D8 JUMPI PUSH2 0x8D7 PUSH2 0xF58 JUMP JUMPDEST JUMPDEST PUSH2 0x8E4 DUP6 DUP3 DUP7 ADD PUSH2 0x817 JUMP JUMPDEST SWAP3 POP POP PUSH1 0x20 PUSH2 0x8F5 DUP6 DUP3 DUP7 ADD PUSH2 0x802 JUMP JUMPDEST SWAP2 POP POP SWAP3 POP SWAP3 SWAP1 POP JUMP JUMPDEST PUSH1 0x0 PUSH1 0x20 DUP3 DUP5 SUB SLT ISZERO PUSH2 0x915 JUMPI PUSH2 0x914 PUSH2 0xF5D JUMP JUMPDEST JUMPDEST PUSH1 0x0 PUSH2 0x923 DUP5 DUP3 DUP6 ADD PUSH2 0x845 JUMP JUMPDEST SWAP2 POP POP SWAP3 SWAP2 POP POP JUMP JUMPDEST PUSH1 0x0 PUSH2 0x938 DUP4 DUP4 PUSH2 0xB2C JUMP JUMPDEST SWAP1 POP SWAP3 SWAP2 POP POP JUMP JUMPDEST PUSH1 0x0 PUSH2 0x94C DUP4 DUP4 PUSH2 0xB83 JUMP JUMPDEST SWAP1 POP SWAP3 SWAP2 POP POP JUMP JUMPDEST PUSH1 0x0 PUSH2 0x95F DUP3 PUSH2 0xD25 JUMP JUMPDEST PUSH2 0x969 DUP2 DUP6 PUSH2 0xD60 JUMP JUMPDEST SWAP4 POP DUP4 PUSH1 0x20 DUP3 MUL DUP6 ADD PUSH2 0x97B DUP6 PUSH2 0xD05 JUMP JUMPDEST DUP1 PUSH1 0x0 JUMPDEST DUP6 DUP2 LT ISZERO PUSH2 0x9B7 JUMPI DUP5 DUP5 SUB DUP10 MSTORE DUP2 MLOAD PUSH2 0x998 DUP6 DUP3 PUSH2 0x92C JUMP JUMPDEST SWAP5 POP PUSH2 0x9A3 DUP4 PUSH2 0xD46 JUMP JUMPDEST SWAP3 POP PUSH1 0x20 DUP11 ADD SWAP10 POP POP PUSH1 0x1 DUP2 ADD SWAP1 POP PUSH2 0x97F JUMP JUMPDEST POP DUP3 SWAP8 POP DUP8 SWAP6 POP POP POP POP POP POP SWAP3 SWAP2 POP POP JUMP JUMPDEST PUSH1 0x0 PUSH2 0x9D4 DUP3 PUSH2 0xD30 JUMP JUMPDEST PUSH2 0x9DE DUP2 DUP6 PUSH2 0xD71 JUMP JUMPDEST SWAP4 POP DUP4 PUSH1 0x20 DUP3 MUL DUP6 ADD PUSH2 0x9F0 DUP6 PUSH2 0xD15 JUMP JUMPDEST DUP1 PUSH1 0x0 JUMPDEST DUP6 DUP2 LT ISZERO PUSH2 0xA2C JUMPI DUP5 DUP5 SUB DUP10 MSTORE DUP2 MLOAD PUSH2 0xA0D DUP6 DUP3 PUSH2 0x940 JUMP JUMPDEST SWAP5 POP PUSH2 0xA18 DUP4 PUSH2 0xD53 JUMP JUMPDEST SWAP3 POP PUSH1 0x20 DUP11 ADD SWAP10 POP POP PUSH1 0x1 DUP2 ADD SWAP1 POP PUSH2 0x9F4 JUMP JUMPDEST POP DUP3 SWAP8 POP DUP8 SWAP6 POP POP POP POP POP POP SWAP3 SWAP2 POP POP JUMP JUMPDEST PUSH1 0x0 PUSH2 0xA49 DUP3 PUSH2 0xD30 JUMP JUMPDEST PUSH2 0xA53 DUP2 DUP6 PUSH2 0xD82 JUMP JUMPDEST SWAP4 POP DUP4 PUSH1 0x20 DUP3 MUL DUP6 ADD PUSH2 0xA65 DUP6 PUSH2 0xD15 JUMP JUMPDEST DUP1 PUSH1 0x0 JUMPDEST DUP6 DUP2 LT ISZERO PUSH2 0xAA1 JUMPI DUP5 DUP5 SUB DUP10 MSTORE DUP2 MLOAD PUSH2 0xA82 DUP6 DUP3 PUSH2 0x940 JUMP JUMPDEST SWAP5 POP PUSH2 0xA8D DUP4 PUSH2 0xD53 JUMP JUMPDEST SWAP3 POP PUSH1 0x20 DUP11 ADD SWAP10 POP POP PUSH1 0x1 DUP2 ADD SWAP1 POP PUSH2 0xA69 JUMP JUMPDEST POP DUP3 SWAP8 POP DUP8 SWAP6 POP POP POP POP POP POP SWAP3 SWAP2 POP POP JUMP JUMPDEST PUSH2 0xABC DUP2 PUSH2 0xE05 JUMP JUMPDEST DUP3 MSTORE POP POP JUMP JUMPDEST PUSH1 0x0 PUSH2 0xACD DUP3 PUSH2 0xD3B JUMP JUMPDEST PUSH2 0xAD7 DUP2 DUP6 PUSH2 0xD93 JUMP JUMPDEST SWAP4 POP PUSH2 0xAE7 DUP2 DUP6 PUSH1 0x20 DUP7 ADD PUSH2 0xE2B JUMP JUMPDEST PUSH2 0xAF0 DUP2 PUSH2 0xF62 JUMP JUMPDEST DUP5 ADD SWAP2 POP POP SWAP3 SWAP2 POP POP JUMP JUMPDEST PUSH1 0x0 PUSH2 0xB06 DUP3 PUSH2 0xD3B JUMP JUMPDEST PUSH2 0xB10 DUP2 DUP6 PUSH2 0xDA4 JUMP JUMPDEST SWAP4 POP PUSH2 0xB20 DUP2 DUP6 PUSH1 0x20 DUP7 ADD PUSH2 0xE2B JUMP JUMPDEST DUP1 DUP5 ADD SWAP2 POP POP SWAP3 SWAP2 POP POP JUMP JUMPDEST PUSH1 0x0 PUSH1 0x60 DUP4 ADD PUSH1 0x0 DUP4 ADD MLOAD PUSH2 0xB44 PUSH1 0x0 DUP7 ADD DUP3 PUSH2 0xC23 JUMP JUMPDEST POP PUSH1 0x20 DUP4 ADD MLOAD DUP5 DUP3 SUB PUSH1 0x20 DUP7 ADD MSTORE PUSH2 0xB5C DUP3 DUP3 PUSH2 0xAC2 JUMP JUMPDEST SWAP2 POP POP PUSH1 0x40 DUP4 ADD MLOAD DUP5 DUP3 SUB PUSH1 0x40 DUP7 ADD MSTORE PUSH2 0xB76 DUP3 DUP3 PUSH2 0x9C9 JUMP JUMPDEST SWAP2 POP POP DUP1 SWAP2 POP POP SWAP3 SWAP2 POP POP JUMP JUMPDEST PUSH1 0x0 PUSH1 0x60 DUP4 ADD PUSH1 0x0 DUP4 ADD MLOAD PUSH2 0xB9B PUSH1 0x0 DUP7 ADD DUP3 PUSH2 0xC23 JUMP JUMPDEST POP PUSH1 0x20 DUP4 ADD MLOAD DUP5 DUP3 SUB PUSH1 0x20 DUP7 ADD MSTORE PUSH2 0xBB3 DUP3 DUP3 PUSH2 0xAC2 JUMP JUMPDEST SWAP2 POP POP PUSH1 0x40 DUP4 ADD MLOAD PUSH2 0xBC8 PUSH1 0x40 DUP7 ADD DUP3 PUSH2 0xAB3 JUMP JUMPDEST POP DUP1 SWAP2 POP POP SWAP3 SWAP2 POP POP JUMP JUMPDEST PUSH1 0x0 PUSH1 0x60 DUP4 ADD PUSH1 0x0 DUP4 ADD MLOAD PUSH2 0xBEB PUSH1 0x0 DUP7 ADD DUP3 PUSH2 0xC23 JUMP JUMPDEST POP PUSH1 0x20 DUP4 ADD MLOAD DUP5 DUP3 SUB PUSH1 0x20 DUP7 ADD MSTORE PUSH2 0xC03 DUP3 DUP3 PUSH2 0xAC2 JUMP JUMPDEST SWAP2 POP POP PUSH1 0x40 DUP4 ADD MLOAD PUSH2 0xC18 PUSH1 0x40 DUP7 ADD DUP3 PUSH2 0xAB3 JUMP JUMPDEST POP DUP1 SWAP2 POP POP SWAP3 SWAP2 POP POP JUMP JUMPDEST PUSH2 0xC2C DUP2 PUSH2 0xE12 JUMP JUMPDEST DUP3 MSTORE POP POP JUMP JUMPDEST PUSH1 0x0 PUSH2 0xC3E DUP3 DUP5 PUSH2 0xAFB JUMP JUMPDEST SWAP2 POP DUP2 SWAP1 POP SWAP3 SWAP2 POP POP JUMP JUMPDEST PUSH1 0x0 PUSH1 0x20 DUP3 ADD SWAP1 POP DUP2 DUP2 SUB PUSH1 0x0 DUP4 ADD MSTORE PUSH2 0xC63 DUP2 DUP5 PUSH2 0x954 JUMP JUMPDEST SWAP1 POP SWAP3 SWAP2 POP POP JUMP JUMPDEST PUSH1 0x0 PUSH1 0x20 DUP3 ADD SWAP1 POP DUP2 DUP2 SUB PUSH1 0x0 DUP4 ADD MSTORE PUSH2 0xC85 DUP2 DUP5 PUSH2 0xA3E JUMP JUMPDEST SWAP1 POP SWAP3 SWAP2 POP POP JUMP JUMPDEST PUSH1 0x0 PUSH1 0x20 DUP3 ADD SWAP1 POP DUP2 DUP2 SUB PUSH1 0x0 DUP4 ADD MSTORE PUSH2 0xCA7 DUP2 DUP5 PUSH2 0xBD3 JUMP JUMPDEST SWAP1 POP SWAP3 SWAP2 POP POP JUMP JUMPDEST PUSH1 0x0 PUSH2 0xCB9 PUSH2 0xCCA JUMP JUMPDEST SWAP1 POP PUSH2 0xCC5 DUP3 DUP3 PUSH2 0xE90 JUMP JUMPDEST SWAP2 SWAP1 POP JUMP JUMPDEST PUSH1 0x0 PUSH1 0x40 MLOAD SWAP1 POP SWAP1 JUMP JUMPDEST PUSH1 0x0 PUSH8 0xFFFFFFFFFFFFFFFF DUP3 GT ISZERO PUSH2 0xCEF JUMPI PUSH2 0xCEE PUSH2 0xF1F JUMP JUMPDEST JUMPDEST PUSH2 0xCF8 DUP3 PUSH2 0xF62 JUMP JUMPDEST SWAP1 POP PUSH1 0x20 DUP2 ADD SWAP1 POP SWAP2 SWAP1 POP JUMP JUMPDEST PUSH1 0x0 DUP2 SWAP1 POP PUSH1 0x20 DUP3 ADD SWAP1 POP SWAP2 SWAP1 POP JUMP JUMPDEST PUSH1 0x0 DUP2 SWAP1 POP PUSH1 0x20 DUP3 ADD SWAP1 POP SWAP2 SWAP1 POP JUMP JUMPDEST PUSH1 0x0 DUP2 MLOAD SWAP1 POP SWAP2 SWAP1 POP JUMP JUMPDEST PUSH1 0x0 DUP2 MLOAD SWAP1 POP SWAP2 SWAP1 POP JUMP JUMPDEST PUSH1 0x0 DUP2 MLOAD SWAP1 POP SWAP2 SWAP1 POP JUMP JUMPDEST PUSH1 0x0 PUSH1 0x20 DUP3 ADD SWAP1 POP SWAP2 SWAP1 POP JUMP JUMPDEST PUSH1 0x0 PUSH1 0x20 DUP3 ADD SWAP1 POP SWAP2 SWAP1 POP JUMP JUMPDEST PUSH1 0x0 DUP3 DUP3 MSTORE PUSH1 0x20 DUP3 ADD SWAP1 POP SWAP3 SWAP2 POP POP JUMP JUMPDEST PUSH1 0x0 DUP3 DUP3 MSTORE PUSH1 0x20 DUP3 ADD SWAP1 POP SWAP3 SWAP2 POP POP JUMP JUMPDEST PUSH1 0x0 DUP3 DUP3 MSTORE PUSH1 0x20 DUP3 ADD SWAP1 POP SWAP3 SWAP2 POP POP JUMP JUMPDEST PUSH1 0x0 DUP3 DUP3 MSTORE PUSH1 0x20 DUP3 ADD SWAP1 POP SWAP3 SWAP2 POP POP JUMP JUMPDEST PUSH1 0x0 DUP2 SWAP1 POP SWAP3 SWAP2 POP POP JUMP JUMPDEST PUSH1 0x0 PUSH2 0xDBA DUP3 PUSH2 0xE12 JUMP JUMPDEST SWAP2 POP PUSH2 0xDC5 DUP4 PUSH2 0xE12 JUMP JUMPDEST SWAP3 POP DUP3 PUSH32 0xFFFFFFFFFFFFFFFFFFFFFFFFFFFFFFFFFFFFFFFFFFFFFFFFFFFFFFFFFFFFFFFF SUB DUP3 GT ISZERO PUSH2 0xDFA JUMPI PUSH2 0xDF9 PUSH2 0xEC1 JUMP JUMPDEST JUMPDEST DUP3 DUP3 ADD SWAP1 POP SWAP3 SWAP2 POP POP JUMP JUMPDEST PUSH1 0x0 DUP2 PUSH1 0x1 SIGNEXTEND SWAP1 POP SWAP2 SWAP1 POP JUMP JUMPDEST PUSH1 0x0 DUP2 SWAP1 POP SWAP2 SWAP1 POP JUMP JUMPDEST DUP3 DUP2 DUP4 CALLDATACOPY PUSH1 0x0 DUP4 DUP4 ADD MSTORE POP POP POP JUMP JUMPDEST PUSH1 0x0 JUMPDEST DUP4 DUP2 LT ISZERO PUSH2 0xE49 JUMPI DUP1 DUP3 ADD MLOAD DUP2 DUP5 ADD MSTORE PUSH1 0x20 DUP2 ADD SWAP1 POP PUSH2 0xE2E JUMP JUMPDEST DUP4 DUP2 GT ISZERO PUSH2 0xE58 JUMPI PUSH1 0x0 DUP5 DUP5 ADD MSTORE JUMPDEST POP POP POP POP JUMP JUMPDEST PUSH1 0x0 PUSH1 0x2 DUP3 DIV SWAP1 POP PUSH1 0x1 DUP3 AND DUP1 PUSH2 0xE76 JUMPI PUSH1 0x7F DUP3 AND SWAP2 POP JUMPDEST PUSH1 0x20 DUP3 LT DUP2 EQ ISZERO PUSH2 0xE8A JUMPI PUSH2 0xE89 PUSH2 0xEF0 JUMP JUMPDEST JUMPDEST POP SWAP2 SWAP1 POP JUMP JUMPDEST PUSH2 0xE99 DUP3 PUSH2 0xF62 JUMP JUMPDEST DUP2 ADD DUP2 DUP2 LT PUSH8 0xFFFFFFFFFFFFFFFF DUP3 GT OR ISZERO PUSH2 0xEB8 JUMPI PUSH2 0xEB7 PUSH2 0xF1F JUMP JUMPDEST JUMPDEST DUP1 PUSH1 0x40 MSTORE POP POP POP JUMP JUMPDEST PUSH32 0x4E487B7100000000000000000000000000000000000000000000000000000000 PUSH1 0x0 MSTORE PUSH1 0x11 PUSH1 0x4 MSTORE PUSH1 0x24 PUSH1 0x0 REVERT JUMPDEST PUSH32 0x4E487B7100000000000000000000000000000000000000000000000000000000 PUSH1 0x0 MSTORE PUSH1 0x22 PUSH1 0x4 MSTORE PUSH1 0x24 PUSH1 0x0 REVERT JUMPDEST PUSH32 0x4E487B7100000000000000000000000000000000000000000000000000000000 PUSH1 0x0 MSTORE PUSH1 0x41 PUSH1 0x4 MSTORE PUSH1 0x24 PUSH1 0x0 REVERT JUMPDEST PUSH1 0x0 DUP1 REVERT JUMPDEST PUSH1 0x0 DUP1 REVERT JUMPDEST PUSH1 0x0 DUP1 REVERT JUMPDEST PUSH1 0x0 DUP1 REVERT JUMPDEST PUSH1 0x0 PUSH1 0x1F NOT PUSH1 0x1F DUP4 ADD AND SWAP1 POP SWAP2 SWAP1 POP JUMP JUMPDEST PUSH2 0xF7C DUP2 PUSH2 0xE05 JUMP JUMPDEST DUP2 EQ PUSH2 0xF87 JUMPI PUSH1 0x0 DUP1 REVERT JUMPDEST POP JUMP JUMPDEST PUSH2 0xF93 DUP2 PUSH2 0xE12 JUMP JUMPDEST DUP2 EQ PUSH2 0xF9E JUMPI PUSH1 0x0 DUP1 REVERT JUMPDEST POP JUMP INVALID LOG2 PUSH5 0x6970667358 0x22 SLT KECCAK256 CALLVALUE 0xF9 COINBASE 0x4B DUP4 0xD3 0xD2 EQ 0xC STATICCALL JUMP 0xB7 SWAP16 LOG3 SWAP4 0xEE MSTORE JUMPI 0xA6 0xCD SWAP16 0xD6 LOG3 PUSH26 0xB09A2F91219B824C64736F6C6343000807003300000000000000 "
				},
				"gasEstimates": {
					"creation": {
						"codeDepositCost": "811000",
						"executionCost": "844",
						"totalCost": "811844"
					},
					"external": {
						"createClient(string)": "infinite",
						"createProduit(string,int16)": "infinite",
						"getAllClients()": "infinite",
						"getAllProducts()": "infinite",
						"getProductById(uint256)": "infinite",
						"getProductByName(string)": "infinite"
					}
				},
				"methodIdentifiers": {
					"createClient(string)": "e88e9f0f",
					"createProduit(string,int16)": "51401eef",
					"getAllClients()": "e4d7a3d4",
					"getAllProducts()": "02ee3a52",
					"getProductById(uint256)": "3f70c2b4",
					"getProductByName(string)": "d4290f83"
				}
			},
			"storageLayout": {
				"storage": [
					{
						"astId": 21,
						"contract": "contracts/ExoSupermarche.sol:supermarche",
						"label": "AllProduits",
						"offset": 0,
						"slot": "0",
						"type": "t_array(t_struct(productData)8_storage)dyn_storage"
					},
					{
						"astId": 25,
						"contract": "contracts/ExoSupermarche.sol:supermarche",
						"label": "AllClients",
						"offset": 0,
						"slot": "1",
						"type": "t_array(t_struct(clientData)17_storage)dyn_storage"
					},
					{
						"astId": 30,
						"contract": "contracts/ExoSupermarche.sol:supermarche",
						"label": "client",
						"offset": 0,
						"slot": "2",
						"type": "t_mapping(t_uint256,t_struct(clientData)17_storage)"
					},
					{
						"astId": 35,
						"contract": "contracts/ExoSupermarche.sol:supermarche",
						"label": "produitById",
						"offset": 0,
						"slot": "3",
						"type": "t_mapping(t_uint256,t_struct(productData)8_storage)"
					},
					{
						"astId": 40,
						"contract": "contracts/ExoSupermarche.sol:supermarche",
						"label": "produitByName",
						"offset": 0,
						"slot": "4",
						"type": "t_mapping(t_string_memory_ptr,t_struct(productData)8_storage)"
					}
				],
				"types": {
					"t_array(t_struct(clientData)17_storage)dyn_storage": {
						"base": "t_struct(clientData)17_storage",
						"encoding": "dynamic_array",
						"label": "struct supermarche.clientData[]",
						"numberOfBytes": "32"
					},
					"t_array(t_struct(productData)8_storage)dyn_storage": {
						"base": "t_struct(productData)8_storage",
						"encoding": "dynamic_array",
						"label": "struct supermarche.productData[]",
						"numberOfBytes": "32"
					},
					"t_int16": {
						"encoding": "inplace",
						"label": "int16",
						"numberOfBytes": "2"
					},
					"t_mapping(t_string_memory_ptr,t_struct(productData)8_storage)": {
						"encoding": "mapping",
						"key": "t_string_memory_ptr",
						"label": "mapping(string => struct supermarche.productData)",
						"numberOfBytes": "32",
						"value": "t_struct(productData)8_storage"
					},
					"t_mapping(t_uint256,t_struct(clientData)17_storage)": {
						"encoding": "mapping",
						"key": "t_uint256",
						"label": "mapping(uint256 => struct supermarche.clientData)",
						"numberOfBytes": "32",
						"value": "t_struct(clientData)17_storage"
					},
					"t_mapping(t_uint256,t_struct(productData)8_storage)": {
						"encoding": "mapping",
						"key": "t_uint256",
						"label": "mapping(uint256 => struct supermarche.productData)",
						"numberOfBytes": "32",
						"value": "t_struct(productData)8_storage"
					},
					"t_string_memory_ptr": {
						"encoding": "bytes",
						"label": "string",
						"numberOfBytes": "32"
					},
					"t_string_storage": {
						"encoding": "bytes",
						"label": "string",
						"numberOfBytes": "32"
					},
					"t_struct(clientData)17_storage": {
						"encoding": "inplace",
						"label": "struct supermarche.clientData",
						"members": [
							{
								"astId": 10,
								"contract": "contracts/ExoSupermarche.sol:supermarche",
								"label": "_id",
								"offset": 0,
								"slot": "0",
								"type": "t_uint256"
							},
							{
								"astId": 12,
								"contract": "contracts/ExoSupermarche.sol:supermarche",
								"label": "_nom",
								"offset": 0,
								"slot": "1",
								"type": "t_string_storage"
							},
							{
								"astId": 16,
								"contract": "contracts/ExoSupermarche.sol:supermarche",
								"label": "panier",
								"offset": 0,
								"slot": "2",
								"type": "t_array(t_struct(productData)8_storage)dyn_storage"
							}
						],
						"numberOfBytes": "96"
					},
					"t_struct(productData)8_storage": {
						"encoding": "inplace",
						"label": "struct supermarche.productData",
						"members": [
							{
								"astId": 3,
								"contract": "contracts/ExoSupermarche.sol:supermarche",
								"label": "_id",
								"offset": 0,
								"slot": "0",
								"type": "t_uint256"
							},
							{
								"astId": 5,
								"contract": "contracts/ExoSupermarche.sol:supermarche",
								"label": "_libelle",
								"offset": 0,
								"slot": "1",
								"type": "t_string_storage"
							},
							{
								"astId": 7,
								"contract": "contracts/ExoSupermarche.sol:supermarche",
								"label": "_prix",
								"offset": 0,
								"slot": "2",
								"type": "t_int16"
							}
						],
						"numberOfBytes": "96"
					},
					"t_uint256": {
						"encoding": "inplace",
						"label": "uint256",
						"numberOfBytes": "32"
					}
				}
			},
			"userdoc": {
				"kind": "user",
				"methods": {},
				"version": 1
			}
		}
	}
}