{
	"contracts/struct.sol": {
		"structureExo": {
			"abi": [
				{
					"inputs": [
						{
							"internalType": "address",
							"name": "_eleveAddress",
							"type": "address"
						},
						{
							"internalType": "uint256",
							"name": "_note",
							"type": "uint256"
						}
					],
					"name": "addNote",
					"outputs": [],
					"stateMutability": "nonpayable",
					"type": "function"
				},
				{
					"inputs": [
						{
							"internalType": "address",
							"name": "_eleveAddress",
							"type": "address"
						}
					],
					"name": "getNotesPerEleve",
					"outputs": [
						{
							"internalType": "uint256[]",
							"name": "",
							"type": "uint256[]"
						}
					],
					"stateMutability": "view",
					"type": "function"
				},
				{
					"inputs": [
						{
							"internalType": "address",
							"name": "_eleveAddress",
							"type": "address"
						},
						{
							"internalType": "string",
							"name": "_nom",
							"type": "string"
						}
					],
					"name": "setNom",
					"outputs": [],
					"stateMutability": "nonpayable",
					"type": "function"
				}
			],
			"devdoc": {
				"kind": "dev",
				"methods": {},
				"version": 1
			},
			"evm": {
				"assembly": "    /* \"contracts/struct.sol\":26:549  contract structureExo {\r... */\n  mstore(0x40, 0x80)\n  callvalue\n  dup1\n  iszero\n  tag_1\n  jumpi\n  0x00\n  dup1\n  revert\ntag_1:\n  pop\n  dataSize(sub_0)\n  dup1\n  dataOffset(sub_0)\n  0x00\n  codecopy\n  0x00\n  return\nstop\n\nsub_0: assembly {\n        /* \"contracts/struct.sol\":26:549  contract structureExo {\r... */\n      mstore(0x40, 0x80)\n      callvalue\n      dup1\n      iszero\n      tag_1\n      jumpi\n      0x00\n      dup1\n      revert\n    tag_1:\n      pop\n      jumpi(tag_2, lt(calldatasize, 0x04))\n      shr(0xe0, calldataload(0x00))\n      dup1\n      0x71f55c9a\n      eq\n      tag_3\n      jumpi\n      dup1\n      0x7f8a6d1a\n      eq\n      tag_4\n      jumpi\n      dup1\n      0xce5d52e7\n      eq\n      tag_5\n      jumpi\n    tag_2:\n      0x00\n      dup1\n      revert\n        /* \"contracts/struct.sol\":462:546  function setNom(address _eleveAddress, string memory _nom) public {\r... */\n    tag_3:\n      tag_6\n      0x04\n      dup1\n      calldatasize\n      sub\n      dup2\n      add\n      swap1\n      tag_7\n      swap2\n      swap1\n      tag_8\n      jump\t// in\n    tag_7:\n      tag_9\n      jump\t// in\n    tag_6:\n      stop\n        /* \"contracts/struct.sol\":318:454  function getNotesPerEleve(address _eleveAddress) public view returns(uint[] memory){\r... */\n    tag_4:\n      tag_10\n      0x04\n      dup1\n      calldatasize\n      sub\n      dup2\n      add\n      swap1\n      tag_11\n      swap2\n      swap1\n      tag_12\n      jump\t// in\n    tag_11:\n      tag_13\n      jump\t// in\n    tag_10:\n      mload(0x40)\n      tag_14\n      swap2\n      swap1\n      tag_15\n      jump\t// in\n    tag_14:\n      mload(0x40)\n      dup1\n      swap2\n      sub\n      swap1\n      return\n        /* \"contracts/struct.sol\":193:310  function addNote(address _eleveAddress, uint _note) public {\r... */\n    tag_5:\n      tag_16\n      0x04\n      dup1\n      calldatasize\n      sub\n      dup2\n      add\n      swap1\n      tag_17\n      swap2\n      swap1\n      tag_18\n      jump\t// in\n    tag_17:\n      tag_19\n      jump\t// in\n    tag_16:\n      stop\n        /* \"contracts/struct.sol\":462:546  function setNom(address _eleveAddress, string memory _nom) public {\r... */\n    tag_9:\n      pop\n      pop\n      jump\t// out\n        /* \"contracts/struct.sol\":318:454  function getNotesPerEleve(address _eleveAddress) public view returns(uint[] memory){\r... */\n    tag_13:\n        /* \"contracts/struct.sol\":387:400  uint[] memory */\n      0x60\n        /* \"contracts/struct.sol\":419:425  Eleves */\n      0x00\n        /* \"contracts/struct.sol\":419:440  Eleves[_eleveAddress] */\n      dup1\n        /* \"contracts/struct.sol\":426:439  _eleveAddress */\n      dup4\n        /* \"contracts/struct.sol\":419:440  Eleves[_eleveAddress] */\n      0xffffffffffffffffffffffffffffffffffffffff\n      and\n      0xffffffffffffffffffffffffffffffffffffffff\n      and\n      dup2\n      mstore\n      0x20\n      add\n      swap1\n      dup2\n      mstore\n      0x20\n      add\n      0x00\n      keccak256\n        /* \"contracts/struct.sol\":419:446  Eleves[_eleveAddress].notes */\n      0x02\n      add\n        /* \"contracts/struct.sol\":412:446  return Eleves[_eleveAddress].notes */\n      dup1\n      sload\n      dup1\n      0x20\n      mul\n      0x20\n      add\n      mload(0x40)\n      swap1\n      dup2\n      add\n      0x40\n      mstore\n      dup1\n      swap3\n      swap2\n      swap1\n      dup2\n      dup2\n      mstore\n      0x20\n      add\n      dup3\n      dup1\n      sload\n      dup1\n      iszero\n      tag_22\n      jumpi\n      0x20\n      mul\n      dup3\n      add\n      swap2\n      swap1\n      0x00\n      mstore\n      keccak256(0x00, 0x20)\n      swap1\n    tag_23:\n      dup2\n      sload\n      dup2\n      mstore\n      0x20\n      add\n      swap1\n      0x01\n      add\n      swap1\n      dup1\n      dup4\n      gt\n      tag_23\n      jumpi\n    tag_22:\n      pop\n      pop\n      pop\n      pop\n      pop\n      swap1\n      pop\n        /* \"contracts/struct.sol\":318:454  function getNotesPerEleve(address _eleveAddress) public view returns(uint[] memory){\r... */\n      swap2\n      swap1\n      pop\n      jump\t// out\n        /* \"contracts/struct.sol\":193:310  function addNote(address _eleveAddress, uint _note) public {\r... */\n    tag_19:\n        /* \"contracts/struct.sol\":263:269  Eleves */\n      0x00\n        /* \"contracts/struct.sol\":263:284  Eleves[_eleveAddress] */\n      dup1\n        /* \"contracts/struct.sol\":270:283  _eleveAddress */\n      dup4\n        /* \"contracts/struct.sol\":263:284  Eleves[_eleveAddress] */\n      0xffffffffffffffffffffffffffffffffffffffff\n      and\n      0xffffffffffffffffffffffffffffffffffffffff\n      and\n      dup2\n      mstore\n      0x20\n      add\n      swap1\n      dup2\n      mstore\n      0x20\n      add\n      0x00\n      keccak256\n        /* \"contracts/struct.sol\":263:290  Eleves[_eleveAddress].notes */\n      0x02\n      add\n        /* \"contracts/struct.sol\":296:301  _note */\n      dup2\n        /* \"contracts/struct.sol\":263:302  Eleves[_eleveAddress].notes.push(_note) */\n      swap1\n      dup1\n      0x01\n      dup2\n      sload\n      add\n      dup1\n      dup3\n      sstore\n      dup1\n      swap2\n      pop\n      pop\n      0x01\n      swap1\n      sub\n      swap1\n      0x00\n      mstore\n      keccak256(0x00, 0x20)\n      add\n      0x00\n      swap1\n      swap2\n      swap1\n      swap2\n      swap1\n      swap2\n      pop\n      sstore\n        /* \"contracts/struct.sol\":193:310  function addNote(address _eleveAddress, uint _note) public {\r... */\n      pop\n      pop\n      jump\t// out\n        /* \"#utility.yul\":7:419   */\n    tag_27:\n        /* \"#utility.yul\":85:90   */\n      0x00\n        /* \"#utility.yul\":110:176   */\n      tag_29\n        /* \"#utility.yul\":126:175   */\n      tag_30\n        /* \"#utility.yul\":168:174   */\n      dup5\n        /* \"#utility.yul\":126:175   */\n      tag_31\n      jump\t// in\n    tag_30:\n        /* \"#utility.yul\":110:176   */\n      tag_32\n      jump\t// in\n    tag_29:\n        /* \"#utility.yul\":101:176   */\n      swap1\n      pop\n        /* \"#utility.yul\":199:205   */\n      dup3\n        /* \"#utility.yul\":192:197   */\n      dup2\n        /* \"#utility.yul\":185:206   */\n      mstore\n        /* \"#utility.yul\":237:241   */\n      0x20\n        /* \"#utility.yul\":230:235   */\n      dup2\n        /* \"#utility.yul\":226:242   */\n      add\n        /* \"#utility.yul\":275:278   */\n      dup5\n        /* \"#utility.yul\":266:272   */\n      dup5\n        /* \"#utility.yul\":261:264   */\n      dup5\n        /* \"#utility.yul\":257:273   */\n      add\n        /* \"#utility.yul\":254:279   */\n      gt\n        /* \"#utility.yul\":251:363   */\n      iszero\n      tag_33\n      jumpi\n        /* \"#utility.yul\":282:361   */\n      tag_34\n      tag_35\n      jump\t// in\n    tag_34:\n        /* \"#utility.yul\":251:363   */\n    tag_33:\n        /* \"#utility.yul\":372:413   */\n      tag_36\n        /* \"#utility.yul\":406:412   */\n      dup5\n        /* \"#utility.yul\":401:404   */\n      dup3\n        /* \"#utility.yul\":396:399   */\n      dup6\n        /* \"#utility.yul\":372:413   */\n      tag_37\n      jump\t// in\n    tag_36:\n        /* \"#utility.yul\":91:419   */\n      pop\n        /* \"#utility.yul\":7:419   */\n      swap4\n      swap3\n      pop\n      pop\n      pop\n      jump\t// out\n        /* \"#utility.yul\":425:564   */\n    tag_38:\n        /* \"#utility.yul\":471:476   */\n      0x00\n        /* \"#utility.yul\":509:515   */\n      dup2\n        /* \"#utility.yul\":496:516   */\n      calldataload\n        /* \"#utility.yul\":487:516   */\n      swap1\n      pop\n        /* \"#utility.yul\":525:558   */\n      tag_40\n        /* \"#utility.yul\":552:557   */\n      dup2\n        /* \"#utility.yul\":525:558   */\n      tag_41\n      jump\t// in\n    tag_40:\n        /* \"#utility.yul\":425:564   */\n      swap3\n      swap2\n      pop\n      pop\n      jump\t// out\n        /* \"#utility.yul\":584:924   */\n    tag_42:\n        /* \"#utility.yul\":640:645   */\n      0x00\n        /* \"#utility.yul\":689:692   */\n      dup3\n        /* \"#utility.yul\":682:686   */\n      0x1f\n        /* \"#utility.yul\":674:680   */\n      dup4\n        /* \"#utility.yul\":670:687   */\n      add\n        /* \"#utility.yul\":666:693   */\n      slt\n        /* \"#utility.yul\":656:778   */\n      tag_44\n      jumpi\n        /* \"#utility.yul\":697:776   */\n      tag_45\n      tag_46\n      jump\t// in\n    tag_45:\n        /* \"#utility.yul\":656:778   */\n    tag_44:\n        /* \"#utility.yul\":814:820   */\n      dup2\n        /* \"#utility.yul\":801:821   */\n      calldataload\n        /* \"#utility.yul\":839:918   */\n      tag_47\n        /* \"#utility.yul\":914:917   */\n      dup5\n        /* \"#utility.yul\":906:912   */\n      dup3\n        /* \"#utility.yul\":899:903   */\n      0x20\n        /* \"#utility.yul\":891:897   */\n      dup7\n        /* \"#utility.yul\":887:904   */\n      add\n        /* \"#utility.yul\":839:918   */\n      tag_27\n      jump\t// in\n    tag_47:\n        /* \"#utility.yul\":830:918   */\n      swap2\n      pop\n        /* \"#utility.yul\":646:924   */\n      pop\n        /* \"#utility.yul\":584:924   */\n      swap3\n      swap2\n      pop\n      pop\n      jump\t// out\n        /* \"#utility.yul\":930:1069   */\n    tag_48:\n        /* \"#utility.yul\":976:981   */\n      0x00\n        /* \"#utility.yul\":1014:1020   */\n      dup2\n        /* \"#utility.yul\":1001:1021   */\n      calldataload\n        /* \"#utility.yul\":992:1021   */\n      swap1\n      pop\n        /* \"#utility.yul\":1030:1063   */\n      tag_50\n        /* \"#utility.yul\":1057:1062   */\n      dup2\n        /* \"#utility.yul\":1030:1063   */\n      tag_51\n      jump\t// in\n    tag_50:\n        /* \"#utility.yul\":930:1069   */\n      swap3\n      swap2\n      pop\n      pop\n      jump\t// out\n        /* \"#utility.yul\":1075:1404   */\n    tag_12:\n        /* \"#utility.yul\":1134:1140   */\n      0x00\n        /* \"#utility.yul\":1183:1185   */\n      0x20\n        /* \"#utility.yul\":1171:1180   */\n      dup3\n        /* \"#utility.yul\":1162:1169   */\n      dup5\n        /* \"#utility.yul\":1158:1181   */\n      sub\n        /* \"#utility.yul\":1154:1186   */\n      slt\n        /* \"#utility.yul\":1151:1270   */\n      iszero\n      tag_53\n      jumpi\n        /* \"#utility.yul\":1189:1268   */\n      tag_54\n      tag_55\n      jump\t// in\n    tag_54:\n        /* \"#utility.yul\":1151:1270   */\n    tag_53:\n        /* \"#utility.yul\":1309:1310   */\n      0x00\n        /* \"#utility.yul\":1334:1387   */\n      tag_56\n        /* \"#utility.yul\":1379:1386   */\n      dup5\n        /* \"#utility.yul\":1370:1376   */\n      dup3\n        /* \"#utility.yul\":1359:1368   */\n      dup6\n        /* \"#utility.yul\":1355:1377   */\n      add\n        /* \"#utility.yul\":1334:1387   */\n      tag_38\n      jump\t// in\n    tag_56:\n        /* \"#utility.yul\":1324:1387   */\n      swap2\n      pop\n        /* \"#utility.yul\":1280:1397   */\n      pop\n        /* \"#utility.yul\":1075:1404   */\n      swap3\n      swap2\n      pop\n      pop\n      jump\t// out\n        /* \"#utility.yul\":1410:2064   */\n    tag_8:\n        /* \"#utility.yul\":1488:1494   */\n      0x00\n        /* \"#utility.yul\":1496:1502   */\n      dup1\n        /* \"#utility.yul\":1545:1547   */\n      0x40\n        /* \"#utility.yul\":1533:1542   */\n      dup4\n        /* \"#utility.yul\":1524:1531   */\n      dup6\n        /* \"#utility.yul\":1520:1543   */\n      sub\n        /* \"#utility.yul\":1516:1548   */\n      slt\n        /* \"#utility.yul\":1513:1632   */\n      iszero\n      tag_58\n      jumpi\n        /* \"#utility.yul\":1551:1630   */\n      tag_59\n      tag_55\n      jump\t// in\n    tag_59:\n        /* \"#utility.yul\":1513:1632   */\n    tag_58:\n        /* \"#utility.yul\":1671:1672   */\n      0x00\n        /* \"#utility.yul\":1696:1749   */\n      tag_60\n        /* \"#utility.yul\":1741:1748   */\n      dup6\n        /* \"#utility.yul\":1732:1738   */\n      dup3\n        /* \"#utility.yul\":1721:1730   */\n      dup7\n        /* \"#utility.yul\":1717:1739   */\n      add\n        /* \"#utility.yul\":1696:1749   */\n      tag_38\n      jump\t// in\n    tag_60:\n        /* \"#utility.yul\":1686:1749   */\n      swap3\n      pop\n        /* \"#utility.yul\":1642:1759   */\n      pop\n        /* \"#utility.yul\":1826:1828   */\n      0x20\n        /* \"#utility.yul\":1815:1824   */\n      dup4\n        /* \"#utility.yul\":1811:1829   */\n      add\n        /* \"#utility.yul\":1798:1830   */\n      calldataload\n        /* \"#utility.yul\":1857:1875   */\n      0xffffffffffffffff\n        /* \"#utility.yul\":1849:1855   */\n      dup2\n        /* \"#utility.yul\":1846:1876   */\n      gt\n        /* \"#utility.yul\":1843:1960   */\n      iszero\n      tag_61\n      jumpi\n        /* \"#utility.yul\":1879:1958   */\n      tag_62\n      tag_63\n      jump\t// in\n    tag_62:\n        /* \"#utility.yul\":1843:1960   */\n    tag_61:\n        /* \"#utility.yul\":1984:2047   */\n      tag_64\n        /* \"#utility.yul\":2039:2046   */\n      dup6\n        /* \"#utility.yul\":2030:2036   */\n      dup3\n        /* \"#utility.yul\":2019:2028   */\n      dup7\n        /* \"#utility.yul\":2015:2037   */\n      add\n        /* \"#utility.yul\":1984:2047   */\n      tag_42\n      jump\t// in\n    tag_64:\n        /* \"#utility.yul\":1974:2047   */\n      swap2\n      pop\n        /* \"#utility.yul\":1769:2057   */\n      pop\n        /* \"#utility.yul\":1410:2064   */\n      swap3\n      pop\n      swap3\n      swap1\n      pop\n      jump\t// out\n        /* \"#utility.yul\":2070:2544   */\n    tag_18:\n        /* \"#utility.yul\":2138:2144   */\n      0x00\n        /* \"#utility.yul\":2146:2152   */\n      dup1\n        /* \"#utility.yul\":2195:2197   */\n      0x40\n        /* \"#utility.yul\":2183:2192   */\n      dup4\n        /* \"#utility.yul\":2174:2181   */\n      dup6\n        /* \"#utility.yul\":2170:2193   */\n      sub\n        /* \"#utility.yul\":2166:2198   */\n      slt\n        /* \"#utility.yul\":2163:2282   */\n      iszero\n      tag_66\n      jumpi\n        /* \"#utility.yul\":2201:2280   */\n      tag_67\n      tag_55\n      jump\t// in\n    tag_67:\n        /* \"#utility.yul\":2163:2282   */\n    tag_66:\n        /* \"#utility.yul\":2321:2322   */\n      0x00\n        /* \"#utility.yul\":2346:2399   */\n      tag_68\n        /* \"#utility.yul\":2391:2398   */\n      dup6\n        /* \"#utility.yul\":2382:2388   */\n      dup3\n        /* \"#utility.yul\":2371:2380   */\n      dup7\n        /* \"#utility.yul\":2367:2389   */\n      add\n        /* \"#utility.yul\":2346:2399   */\n      tag_38\n      jump\t// in\n    tag_68:\n        /* \"#utility.yul\":2336:2399   */\n      swap3\n      pop\n        /* \"#utility.yul\":2292:2409   */\n      pop\n        /* \"#utility.yul\":2448:2450   */\n      0x20\n        /* \"#utility.yul\":2474:2527   */\n      tag_69\n        /* \"#utility.yul\":2519:2526   */\n      dup6\n        /* \"#utility.yul\":2510:2516   */\n      dup3\n        /* \"#utility.yul\":2499:2508   */\n      dup7\n        /* \"#utility.yul\":2495:2517   */\n      add\n        /* \"#utility.yul\":2474:2527   */\n      tag_48\n      jump\t// in\n    tag_69:\n        /* \"#utility.yul\":2464:2527   */\n      swap2\n      pop\n        /* \"#utility.yul\":2419:2537   */\n      pop\n        /* \"#utility.yul\":2070:2544   */\n      swap3\n      pop\n      swap3\n      swap1\n      pop\n      jump\t// out\n        /* \"#utility.yul\":2550:2729   */\n    tag_70:\n        /* \"#utility.yul\":2619:2629   */\n      0x00\n        /* \"#utility.yul\":2640:2686   */\n      tag_72\n        /* \"#utility.yul\":2682:2685   */\n      dup4\n        /* \"#utility.yul\":2674:2680   */\n      dup4\n        /* \"#utility.yul\":2640:2686   */\n      tag_73\n      jump\t// in\n    tag_72:\n        /* \"#utility.yul\":2718:2722   */\n      0x20\n        /* \"#utility.yul\":2713:2716   */\n      dup4\n        /* \"#utility.yul\":2709:2723   */\n      add\n        /* \"#utility.yul\":2695:2723   */\n      swap1\n      pop\n        /* \"#utility.yul\":2550:2729   */\n      swap3\n      swap2\n      pop\n      pop\n      jump\t// out\n        /* \"#utility.yul\":2765:3497   */\n    tag_74:\n        /* \"#utility.yul\":2884:2887   */\n      0x00\n        /* \"#utility.yul\":2913:2967   */\n      tag_76\n        /* \"#utility.yul\":2961:2966   */\n      dup3\n        /* \"#utility.yul\":2913:2967   */\n      tag_77\n      jump\t// in\n    tag_76:\n        /* \"#utility.yul\":2983:3069   */\n      tag_78\n        /* \"#utility.yul\":3062:3068   */\n      dup2\n        /* \"#utility.yul\":3057:3060   */\n      dup6\n        /* \"#utility.yul\":2983:3069   */\n      tag_79\n      jump\t// in\n    tag_78:\n        /* \"#utility.yul\":2976:3069   */\n      swap4\n      pop\n        /* \"#utility.yul\":3093:3149   */\n      tag_80\n        /* \"#utility.yul\":3143:3148   */\n      dup4\n        /* \"#utility.yul\":3093:3149   */\n      tag_81\n      jump\t// in\n    tag_80:\n        /* \"#utility.yul\":3172:3179   */\n      dup1\n        /* \"#utility.yul\":3203:3204   */\n      0x00\n        /* \"#utility.yul\":3188:3472   */\n    tag_82:\n        /* \"#utility.yul\":3213:3219   */\n      dup4\n        /* \"#utility.yul\":3210:3211   */\n      dup2\n        /* \"#utility.yul\":3207:3220   */\n      lt\n        /* \"#utility.yul\":3188:3472   */\n      iszero\n      tag_84\n      jumpi\n        /* \"#utility.yul\":3289:3295   */\n      dup2\n        /* \"#utility.yul\":3283:3296   */\n      mload\n        /* \"#utility.yul\":3316:3379   */\n      tag_85\n        /* \"#utility.yul\":3375:3378   */\n      dup9\n        /* \"#utility.yul\":3360:3373   */\n      dup3\n        /* \"#utility.yul\":3316:3379   */\n      tag_70\n      jump\t// in\n    tag_85:\n        /* \"#utility.yul\":3309:3379   */\n      swap8\n      pop\n        /* \"#utility.yul\":3402:3462   */\n      tag_86\n        /* \"#utility.yul\":3455:3461   */\n      dup4\n        /* \"#utility.yul\":3402:3462   */\n      tag_87\n      jump\t// in\n    tag_86:\n        /* \"#utility.yul\":3392:3462   */\n      swap3\n      pop\n        /* \"#utility.yul\":3248:3472   */\n      pop\n        /* \"#utility.yul\":3235:3236   */\n      0x01\n        /* \"#utility.yul\":3232:3233   */\n      dup2\n        /* \"#utility.yul\":3228:3237   */\n      add\n        /* \"#utility.yul\":3223:3237   */\n      swap1\n      pop\n        /* \"#utility.yul\":3188:3472   */\n      jump(tag_82)\n    tag_84:\n        /* \"#utility.yul\":3192:3206   */\n      pop\n        /* \"#utility.yul\":3488:3491   */\n      dup6\n        /* \"#utility.yul\":3481:3491   */\n      swap4\n      pop\n        /* \"#utility.yul\":2889:3497   */\n      pop\n      pop\n      pop\n        /* \"#utility.yul\":2765:3497   */\n      swap3\n      swap2\n      pop\n      pop\n      jump\t// out\n        /* \"#utility.yul\":3503:3611   */\n    tag_73:\n        /* \"#utility.yul\":3580:3604   */\n      tag_89\n        /* \"#utility.yul\":3598:3603   */\n      dup2\n        /* \"#utility.yul\":3580:3604   */\n      tag_90\n      jump\t// in\n    tag_89:\n        /* \"#utility.yul\":3575:3578   */\n      dup3\n        /* \"#utility.yul\":3568:3605   */\n      mstore\n        /* \"#utility.yul\":3503:3611   */\n      pop\n      pop\n      jump\t// out\n        /* \"#utility.yul\":3617:3990   */\n    tag_15:\n        /* \"#utility.yul\":3760:3764   */\n      0x00\n        /* \"#utility.yul\":3798:3800   */\n      0x20\n        /* \"#utility.yul\":3787:3796   */\n      dup3\n        /* \"#utility.yul\":3783:3801   */\n      add\n        /* \"#utility.yul\":3775:3801   */\n      swap1\n      pop\n        /* \"#utility.yul\":3847:3856   */\n      dup2\n        /* \"#utility.yul\":3841:3845   */\n      dup2\n        /* \"#utility.yul\":3837:3857   */\n      sub\n        /* \"#utility.yul\":3833:3834   */\n      0x00\n        /* \"#utility.yul\":3822:3831   */\n      dup4\n        /* \"#utility.yul\":3818:3835   */\n      add\n        /* \"#utility.yul\":3811:3858   */\n      mstore\n        /* \"#utility.yul\":3875:3983   */\n      tag_92\n        /* \"#utility.yul\":3978:3982   */\n      dup2\n        /* \"#utility.yul\":3969:3975   */\n      dup5\n        /* \"#utility.yul\":3875:3983   */\n      tag_74\n      jump\t// in\n    tag_92:\n        /* \"#utility.yul\":3867:3983   */\n      swap1\n      pop\n        /* \"#utility.yul\":3617:3990   */\n      swap3\n      swap2\n      pop\n      pop\n      jump\t// out\n        /* \"#utility.yul\":3996:4125   */\n    tag_32:\n        /* \"#utility.yul\":4030:4036   */\n      0x00\n        /* \"#utility.yul\":4057:4077   */\n      tag_94\n      tag_95\n      jump\t// in\n    tag_94:\n        /* \"#utility.yul\":4047:4077   */\n      swap1\n      pop\n        /* \"#utility.yul\":4086:4119   */\n      tag_96\n        /* \"#utility.yul\":4114:4118   */\n      dup3\n        /* \"#utility.yul\":4106:4112   */\n      dup3\n        /* \"#utility.yul\":4086:4119   */\n      tag_97\n      jump\t// in\n    tag_96:\n        /* \"#utility.yul\":3996:4125   */\n      swap2\n      swap1\n      pop\n      jump\t// out\n        /* \"#utility.yul\":4131:4206   */\n    tag_95:\n        /* \"#utility.yul\":4164:4170   */\n      0x00\n        /* \"#utility.yul\":4197:4199   */\n      0x40\n        /* \"#utility.yul\":4191:4200   */\n      mload\n        /* \"#utility.yul\":4181:4200   */\n      swap1\n      pop\n        /* \"#utility.yul\":4131:4206   */\n      swap1\n      jump\t// out\n        /* \"#utility.yul\":4212:4520   */\n    tag_31:\n        /* \"#utility.yul\":4274:4278   */\n      0x00\n        /* \"#utility.yul\":4364:4382   */\n      0xffffffffffffffff\n        /* \"#utility.yul\":4356:4362   */\n      dup3\n        /* \"#utility.yul\":4353:4383   */\n      gt\n        /* \"#utility.yul\":4350:4406   */\n      iszero\n      tag_100\n      jumpi\n        /* \"#utility.yul\":4386:4404   */\n      tag_101\n      tag_102\n      jump\t// in\n    tag_101:\n        /* \"#utility.yul\":4350:4406   */\n    tag_100:\n        /* \"#utility.yul\":4424:4453   */\n      tag_103\n        /* \"#utility.yul\":4446:4452   */\n      dup3\n        /* \"#utility.yul\":4424:4453   */\n      tag_104\n      jump\t// in\n    tag_103:\n        /* \"#utility.yul\":4416:4453   */\n      swap1\n      pop\n        /* \"#utility.yul\":4508:4512   */\n      0x20\n        /* \"#utility.yul\":4502:4506   */\n      dup2\n        /* \"#utility.yul\":4498:4513   */\n      add\n        /* \"#utility.yul\":4490:4513   */\n      swap1\n      pop\n        /* \"#utility.yul\":4212:4520   */\n      swap2\n      swap1\n      pop\n      jump\t// out\n        /* \"#utility.yul\":4526:4658   */\n    tag_81:\n        /* \"#utility.yul\":4593:4597   */\n      0x00\n        /* \"#utility.yul\":4616:4619   */\n      dup2\n        /* \"#utility.yul\":4608:4619   */\n      swap1\n      pop\n        /* \"#utility.yul\":4646:4650   */\n      0x20\n        /* \"#utility.yul\":4641:4644   */\n      dup3\n        /* \"#utility.yul\":4637:4651   */\n      add\n        /* \"#utility.yul\":4629:4651   */\n      swap1\n      pop\n        /* \"#utility.yul\":4526:4658   */\n      swap2\n      swap1\n      pop\n      jump\t// out\n        /* \"#utility.yul\":4664:4778   */\n    tag_77:\n        /* \"#utility.yul\":4731:4737   */\n      0x00\n        /* \"#utility.yul\":4765:4770   */\n      dup2\n        /* \"#utility.yul\":4759:4771   */\n      mload\n        /* \"#utility.yul\":4749:4771   */\n      swap1\n      pop\n        /* \"#utility.yul\":4664:4778   */\n      swap2\n      swap1\n      pop\n      jump\t// out\n        /* \"#utility.yul\":4784:4897   */\n    tag_87:\n        /* \"#utility.yul\":4854:4858   */\n      0x00\n        /* \"#utility.yul\":4886:4890   */\n      0x20\n        /* \"#utility.yul\":4881:4884   */\n      dup3\n        /* \"#utility.yul\":4877:4891   */\n      add\n        /* \"#utility.yul\":4869:4891   */\n      swap1\n      pop\n        /* \"#utility.yul\":4784:4897   */\n      swap2\n      swap1\n      pop\n      jump\t// out\n        /* \"#utility.yul\":4903:5087   */\n    tag_79:\n        /* \"#utility.yul\":5002:5013   */\n      0x00\n        /* \"#utility.yul\":5036:5042   */\n      dup3\n        /* \"#utility.yul\":5031:5034   */\n      dup3\n        /* \"#utility.yul\":5024:5043   */\n      mstore\n        /* \"#utility.yul\":5076:5080   */\n      0x20\n        /* \"#utility.yul\":5071:5074   */\n      dup3\n        /* \"#utility.yul\":5067:5081   */\n      add\n        /* \"#utility.yul\":5052:5081   */\n      swap1\n      pop\n        /* \"#utility.yul\":4903:5087   */\n      swap3\n      swap2\n      pop\n      pop\n      jump\t// out\n        /* \"#utility.yul\":5093:5189   */\n    tag_109:\n        /* \"#utility.yul\":5130:5137   */\n      0x00\n        /* \"#utility.yul\":5159:5183   */\n      tag_111\n        /* \"#utility.yul\":5177:5182   */\n      dup3\n        /* \"#utility.yul\":5159:5183   */\n      tag_112\n      jump\t// in\n    tag_111:\n        /* \"#utility.yul\":5148:5183   */\n      swap1\n      pop\n        /* \"#utility.yul\":5093:5189   */\n      swap2\n      swap1\n      pop\n      jump\t// out\n        /* \"#utility.yul\":5195:5321   */\n    tag_112:\n        /* \"#utility.yul\":5232:5239   */\n      0x00\n        /* \"#utility.yul\":5272:5314   */\n      0xffffffffffffffffffffffffffffffffffffffff\n        /* \"#utility.yul\":5265:5270   */\n      dup3\n        /* \"#utility.yul\":5261:5315   */\n      and\n        /* \"#utility.yul\":5250:5315   */\n      swap1\n      pop\n        /* \"#utility.yul\":5195:5321   */\n      swap2\n      swap1\n      pop\n      jump\t// out\n        /* \"#utility.yul\":5327:5404   */\n    tag_90:\n        /* \"#utility.yul\":5364:5371   */\n      0x00\n        /* \"#utility.yul\":5393:5398   */\n      dup2\n        /* \"#utility.yul\":5382:5398   */\n      swap1\n      pop\n        /* \"#utility.yul\":5327:5404   */\n      swap2\n      swap1\n      pop\n      jump\t// out\n        /* \"#utility.yul\":5410:5564   */\n    tag_37:\n        /* \"#utility.yul\":5494:5500   */\n      dup3\n        /* \"#utility.yul\":5489:5492   */\n      dup2\n        /* \"#utility.yul\":5484:5487   */\n      dup4\n        /* \"#utility.yul\":5471:5501   */\n      calldatacopy\n        /* \"#utility.yul\":5556:5557   */\n      0x00\n        /* \"#utility.yul\":5547:5553   */\n      dup4\n        /* \"#utility.yul\":5542:5545   */\n      dup4\n        /* \"#utility.yul\":5538:5554   */\n      add\n        /* \"#utility.yul\":5531:5558   */\n      mstore\n        /* \"#utility.yul\":5410:5564   */\n      pop\n      pop\n      pop\n      jump\t// out\n        /* \"#utility.yul\":5570:5851   */\n    tag_97:\n        /* \"#utility.yul\":5653:5680   */\n      tag_117\n        /* \"#utility.yul\":5675:5679   */\n      dup3\n        /* \"#utility.yul\":5653:5680   */\n      tag_104\n      jump\t// in\n    tag_117:\n        /* \"#utility.yul\":5645:5651   */\n      dup2\n        /* \"#utility.yul\":5641:5681   */\n      add\n        /* \"#utility.yul\":5783:5789   */\n      dup2\n        /* \"#utility.yul\":5771:5781   */\n      dup2\n        /* \"#utility.yul\":5768:5790   */\n      lt\n        /* \"#utility.yul\":5747:5765   */\n      0xffffffffffffffff\n        /* \"#utility.yul\":5735:5745   */\n      dup3\n        /* \"#utility.yul\":5732:5766   */\n      gt\n        /* \"#utility.yul\":5729:5791   */\n      or\n        /* \"#utility.yul\":5726:5814   */\n      iszero\n      tag_118\n      jumpi\n        /* \"#utility.yul\":5794:5812   */\n      tag_119\n      tag_102\n      jump\t// in\n    tag_119:\n        /* \"#utility.yul\":5726:5814   */\n    tag_118:\n        /* \"#utility.yul\":5834:5844   */\n      dup1\n        /* \"#utility.yul\":5830:5832   */\n      0x40\n        /* \"#utility.yul\":5823:5845   */\n      mstore\n        /* \"#utility.yul\":5613:5851   */\n      pop\n        /* \"#utility.yul\":5570:5851   */\n      pop\n      pop\n      jump\t// out\n        /* \"#utility.yul\":5857:6037   */\n    tag_102:\n        /* \"#utility.yul\":5905:5982   */\n      0x4e487b7100000000000000000000000000000000000000000000000000000000\n        /* \"#utility.yul\":5902:5903   */\n      0x00\n        /* \"#utility.yul\":5895:5983   */\n      mstore\n        /* \"#utility.yul\":6002:6006   */\n      0x41\n        /* \"#utility.yul\":5999:6000   */\n      0x04\n        /* \"#utility.yul\":5992:6007   */\n      mstore\n        /* \"#utility.yul\":6026:6030   */\n      0x24\n        /* \"#utility.yul\":6023:6024   */\n      0x00\n        /* \"#utility.yul\":6016:6031   */\n      revert\n        /* \"#utility.yul\":6043:6160   */\n    tag_46:\n        /* \"#utility.yul\":6152:6153   */\n      0x00\n        /* \"#utility.yul\":6149:6150   */\n      dup1\n        /* \"#utility.yul\":6142:6154   */\n      revert\n        /* \"#utility.yul\":6166:6283   */\n    tag_35:\n        /* \"#utility.yul\":6275:6276   */\n      0x00\n        /* \"#utility.yul\":6272:6273   */\n      dup1\n        /* \"#utility.yul\":6265:6277   */\n      revert\n        /* \"#utility.yul\":6289:6406   */\n    tag_63:\n        /* \"#utility.yul\":6398:6399   */\n      0x00\n        /* \"#utility.yul\":6395:6396   */\n      dup1\n        /* \"#utility.yul\":6388:6400   */\n      revert\n        /* \"#utility.yul\":6412:6529   */\n    tag_55:\n        /* \"#utility.yul\":6521:6522   */\n      0x00\n        /* \"#utility.yul\":6518:6519   */\n      dup1\n        /* \"#utility.yul\":6511:6523   */\n      revert\n        /* \"#utility.yul\":6535:6637   */\n    tag_104:\n        /* \"#utility.yul\":6576:6582   */\n      0x00\n        /* \"#utility.yul\":6627:6629   */\n      0x1f\n        /* \"#utility.yul\":6623:6630   */\n      not\n        /* \"#utility.yul\":6618:6620   */\n      0x1f\n        /* \"#utility.yul\":6611:6616   */\n      dup4\n        /* \"#utility.yul\":6607:6621   */\n      add\n        /* \"#utility.yul\":6603:6631   */\n      and\n        /* \"#utility.yul\":6593:6631   */\n      swap1\n      pop\n        /* \"#utility.yul\":6535:6637   */\n      swap2\n      swap1\n      pop\n      jump\t// out\n        /* \"#utility.yul\":6643:6765   */\n    tag_41:\n        /* \"#utility.yul\":6716:6740   */\n      tag_127\n        /* \"#utility.yul\":6734:6739   */\n      dup2\n        /* \"#utility.yul\":6716:6740   */\n      tag_109\n      jump\t// in\n    tag_127:\n        /* \"#utility.yul\":6709:6714   */\n      dup2\n        /* \"#utility.yul\":6706:6741   */\n      eq\n        /* \"#utility.yul\":6696:6759   */\n      tag_128\n      jumpi\n        /* \"#utility.yul\":6755:6756   */\n      0x00\n        /* \"#utility.yul\":6752:6753   */\n      dup1\n        /* \"#utility.yul\":6745:6757   */\n      revert\n        /* \"#utility.yul\":6696:6759   */\n    tag_128:\n        /* \"#utility.yul\":6643:6765   */\n      pop\n      jump\t// out\n        /* \"#utility.yul\":6771:6893   */\n    tag_51:\n        /* \"#utility.yul\":6844:6868   */\n      tag_130\n        /* \"#utility.yul\":6862:6867   */\n      dup2\n        /* \"#utility.yul\":6844:6868   */\n      tag_90\n      jump\t// in\n    tag_130:\n        /* \"#utility.yul\":6837:6842   */\n      dup2\n        /* \"#utility.yul\":6834:6869   */\n      eq\n        /* \"#utility.yul\":6824:6887   */\n      tag_131\n      jumpi\n        /* \"#utility.yul\":6883:6884   */\n      0x00\n        /* \"#utility.yul\":6880:6881   */\n      dup1\n        /* \"#utility.yul\":6873:6885   */\n      revert\n        /* \"#utility.yul\":6824:6887   */\n    tag_131:\n        /* \"#utility.yul\":6771:6893   */\n      pop\n      jump\t// out\n\n    auxdata: 0xa2646970667358221220eb807f3de7d0ee7afb4b5299c2c4fd1cd8cb9da1f0767439d7caec66c6066d9764736f6c63430008070033\n}\n",
				"bytecode": {
					"linkReferences": {},
					"object": "608060405234801561001057600080fd5b50610584806100206000396000f3fe608060405234801561001057600080fd5b50600436106100415760003560e01c806371f55c9a146100465780637f8a6d1a14610062578063ce5d52e714610092575b600080fd5b610060600480360381019061005b919061027e565b6100ae565b005b61007c60048036038101906100779190610251565b6100b2565b604051610089919061039f565b60405180910390f35b6100ac60048036038101906100a791906102da565b61014b565b005b5050565b60606000808373ffffffffffffffffffffffffffffffffffffffff1673ffffffffffffffffffffffffffffffffffffffff16815260200190815260200160002060020180548060200260200160405190810160405280929190818152602001828054801561013f57602002820191906000526020600020905b81548152602001906001019080831161012b575b50505050509050919050565b6000808373ffffffffffffffffffffffffffffffffffffffff1673ffffffffffffffffffffffffffffffffffffffff1681526020019081526020016000206002018190806001815401808255809150506001900390600052602060002001600090919091909150555050565b60006101ca6101c5846103e6565b6103c1565b9050828152602081018484840111156101e6576101e5610500565b5b6101f184828561048c565b509392505050565b60008135905061020881610520565b92915050565b600082601f830112610223576102226104fb565b5b81356102338482602086016101b7565b91505092915050565b60008135905061024b81610537565b92915050565b6000602082840312156102675761026661050a565b5b6000610275848285016101f9565b91505092915050565b600080604083850312156102955761029461050a565b5b60006102a3858286016101f9565b925050602083013567ffffffffffffffff8111156102c4576102c3610505565b5b6102d08582860161020e565b9150509250929050565b600080604083850312156102f1576102f061050a565b5b60006102ff858286016101f9565b92505060206103108582860161023c565b9150509250929050565b60006103268383610390565b60208301905092915050565b600061033d82610427565b610347818561043f565b935061035283610417565b8060005b8381101561038357815161036a888261031a565b975061037583610432565b925050600181019050610356565b5085935050505092915050565b61039981610482565b82525050565b600060208201905081810360008301526103b98184610332565b905092915050565b60006103cb6103dc565b90506103d7828261049b565b919050565b6000604051905090565b600067ffffffffffffffff821115610401576104006104cc565b5b61040a8261050f565b9050602081019050919050565b6000819050602082019050919050565b600081519050919050565b6000602082019050919050565b600082825260208201905092915050565b600061045b82610462565b9050919050565b600073ffffffffffffffffffffffffffffffffffffffff82169050919050565b6000819050919050565b82818337600083830152505050565b6104a48261050f565b810181811067ffffffffffffffff821117156104c3576104c26104cc565b5b80604052505050565b7f4e487b7100000000000000000000000000000000000000000000000000000000600052604160045260246000fd5b600080fd5b600080fd5b600080fd5b600080fd5b6000601f19601f8301169050919050565b61052981610450565b811461053457600080fd5b50565b61054081610482565b811461054b57600080fd5b5056fea2646970667358221220eb807f3de7d0ee7afb4b5299c2c4fd1cd8cb9da1f0767439d7caec66c6066d9764736f6c63430008070033",
					"opcodes": "PUSH1 0x80 PUSH1 0x40 MSTORE CALLVALUE DUP1 ISZERO PUSH2 0x10 JUMPI PUSH1 0x0 DUP1 REVERT JUMPDEST POP PUSH2 0x584 DUP1 PUSH2 0x20 PUSH1 0x0 CODECOPY PUSH1 0x0 RETURN INVALID PUSH1 0x80 PUSH1 0x40 MSTORE CALLVALUE DUP1 ISZERO PUSH2 0x10 JUMPI PUSH1 0x0 DUP1 REVERT JUMPDEST POP PUSH1 0x4 CALLDATASIZE LT PUSH2 0x41 JUMPI PUSH1 0x0 CALLDATALOAD PUSH1 0xE0 SHR DUP1 PUSH4 0x71F55C9A EQ PUSH2 0x46 JUMPI DUP1 PUSH4 0x7F8A6D1A EQ PUSH2 0x62 JUMPI DUP1 PUSH4 0xCE5D52E7 EQ PUSH2 0x92 JUMPI JUMPDEST PUSH1 0x0 DUP1 REVERT JUMPDEST PUSH2 0x60 PUSH1 0x4 DUP1 CALLDATASIZE SUB DUP2 ADD SWAP1 PUSH2 0x5B SWAP2 SWAP1 PUSH2 0x27E JUMP JUMPDEST PUSH2 0xAE JUMP JUMPDEST STOP JUMPDEST PUSH2 0x7C PUSH1 0x4 DUP1 CALLDATASIZE SUB DUP2 ADD SWAP1 PUSH2 0x77 SWAP2 SWAP1 PUSH2 0x251 JUMP JUMPDEST PUSH2 0xB2 JUMP JUMPDEST PUSH1 0x40 MLOAD PUSH2 0x89 SWAP2 SWAP1 PUSH2 0x39F JUMP JUMPDEST PUSH1 0x40 MLOAD DUP1 SWAP2 SUB SWAP1 RETURN JUMPDEST PUSH2 0xAC PUSH1 0x4 DUP1 CALLDATASIZE SUB DUP2 ADD SWAP1 PUSH2 0xA7 SWAP2 SWAP1 PUSH2 0x2DA JUMP JUMPDEST PUSH2 0x14B JUMP JUMPDEST STOP JUMPDEST POP POP JUMP JUMPDEST PUSH1 0x60 PUSH1 0x0 DUP1 DUP4 PUSH20 0xFFFFFFFFFFFFFFFFFFFFFFFFFFFFFFFFFFFFFFFF AND PUSH20 0xFFFFFFFFFFFFFFFFFFFFFFFFFFFFFFFFFFFFFFFF AND DUP2 MSTORE PUSH1 0x20 ADD SWAP1 DUP2 MSTORE PUSH1 0x20 ADD PUSH1 0x0 KECCAK256 PUSH1 0x2 ADD DUP1 SLOAD DUP1 PUSH1 0x20 MUL PUSH1 0x20 ADD PUSH1 0x40 MLOAD SWAP1 DUP2 ADD PUSH1 0x40 MSTORE DUP1 SWAP3 SWAP2 SWAP1 DUP2 DUP2 MSTORE PUSH1 0x20 ADD DUP3 DUP1 SLOAD DUP1 ISZERO PUSH2 0x13F JUMPI PUSH1 0x20 MUL DUP3 ADD SWAP2 SWAP1 PUSH1 0x0 MSTORE PUSH1 0x20 PUSH1 0x0 KECCAK256 SWAP1 JUMPDEST DUP2 SLOAD DUP2 MSTORE PUSH1 0x20 ADD SWAP1 PUSH1 0x1 ADD SWAP1 DUP1 DUP4 GT PUSH2 0x12B JUMPI JUMPDEST POP POP POP POP POP SWAP1 POP SWAP2 SWAP1 POP JUMP JUMPDEST PUSH1 0x0 DUP1 DUP4 PUSH20 0xFFFFFFFFFFFFFFFFFFFFFFFFFFFFFFFFFFFFFFFF AND PUSH20 0xFFFFFFFFFFFFFFFFFFFFFFFFFFFFFFFFFFFFFFFF AND DUP2 MSTORE PUSH1 0x20 ADD SWAP1 DUP2 MSTORE PUSH1 0x20 ADD PUSH1 0x0 KECCAK256 PUSH1 0x2 ADD DUP2 SWAP1 DUP1 PUSH1 0x1 DUP2 SLOAD ADD DUP1 DUP3 SSTORE DUP1 SWAP2 POP POP PUSH1 0x1 SWAP1 SUB SWAP1 PUSH1 0x0 MSTORE PUSH1 0x20 PUSH1 0x0 KECCAK256 ADD PUSH1 0x0 SWAP1 SWAP2 SWAP1 SWAP2 SWAP1 SWAP2 POP SSTORE POP POP JUMP JUMPDEST PUSH1 0x0 PUSH2 0x1CA PUSH2 0x1C5 DUP5 PUSH2 0x3E6 JUMP JUMPDEST PUSH2 0x3C1 JUMP JUMPDEST SWAP1 POP DUP3 DUP2 MSTORE PUSH1 0x20 DUP2 ADD DUP5 DUP5 DUP5 ADD GT ISZERO PUSH2 0x1E6 JUMPI PUSH2 0x1E5 PUSH2 0x500 JUMP JUMPDEST JUMPDEST PUSH2 0x1F1 DUP5 DUP3 DUP6 PUSH2 0x48C JUMP JUMPDEST POP SWAP4 SWAP3 POP POP POP JUMP JUMPDEST PUSH1 0x0 DUP2 CALLDATALOAD SWAP1 POP PUSH2 0x208 DUP2 PUSH2 0x520 JUMP JUMPDEST SWAP3 SWAP2 POP POP JUMP JUMPDEST PUSH1 0x0 DUP3 PUSH1 0x1F DUP4 ADD SLT PUSH2 0x223 JUMPI PUSH2 0x222 PUSH2 0x4FB JUMP JUMPDEST JUMPDEST DUP2 CALLDATALOAD PUSH2 0x233 DUP5 DUP3 PUSH1 0x20 DUP7 ADD PUSH2 0x1B7 JUMP JUMPDEST SWAP2 POP POP SWAP3 SWAP2 POP POP JUMP JUMPDEST PUSH1 0x0 DUP2 CALLDATALOAD SWAP1 POP PUSH2 0x24B DUP2 PUSH2 0x537 JUMP JUMPDEST SWAP3 SWAP2 POP POP JUMP JUMPDEST PUSH1 0x0 PUSH1 0x20 DUP3 DUP5 SUB SLT ISZERO PUSH2 0x267 JUMPI PUSH2 0x266 PUSH2 0x50A JUMP JUMPDEST JUMPDEST PUSH1 0x0 PUSH2 0x275 DUP5 DUP3 DUP6 ADD PUSH2 0x1F9 JUMP JUMPDEST SWAP2 POP POP SWAP3 SWAP2 POP POP JUMP JUMPDEST PUSH1 0x0 DUP1 PUSH1 0x40 DUP4 DUP6 SUB SLT ISZERO PUSH2 0x295 JUMPI PUSH2 0x294 PUSH2 0x50A JUMP JUMPDEST JUMPDEST PUSH1 0x0 PUSH2 0x2A3 DUP6 DUP3 DUP7 ADD PUSH2 0x1F9 JUMP JUMPDEST SWAP3 POP POP PUSH1 0x20 DUP4 ADD CALLDATALOAD PUSH8 0xFFFFFFFFFFFFFFFF DUP2 GT ISZERO PUSH2 0x2C4 JUMPI PUSH2 0x2C3 PUSH2 0x505 JUMP JUMPDEST JUMPDEST PUSH2 0x2D0 DUP6 DUP3 DUP7 ADD PUSH2 0x20E JUMP JUMPDEST SWAP2 POP POP SWAP3 POP SWAP3 SWAP1 POP JUMP JUMPDEST PUSH1 0x0 DUP1 PUSH1 0x40 DUP4 DUP6 SUB SLT ISZERO PUSH2 0x2F1 JUMPI PUSH2 0x2F0 PUSH2 0x50A JUMP JUMPDEST JUMPDEST PUSH1 0x0 PUSH2 0x2FF DUP6 DUP3 DUP7 ADD PUSH2 0x1F9 JUMP JUMPDEST SWAP3 POP POP PUSH1 0x20 PUSH2 0x310 DUP6 DUP3 DUP7 ADD PUSH2 0x23C JUMP JUMPDEST SWAP2 POP POP SWAP3 POP SWAP3 SWAP1 POP JUMP JUMPDEST PUSH1 0x0 PUSH2 0x326 DUP4 DUP4 PUSH2 0x390 JUMP JUMPDEST PUSH1 0x20 DUP4 ADD SWAP1 POP SWAP3 SWAP2 POP POP JUMP JUMPDEST PUSH1 0x0 PUSH2 0x33D DUP3 PUSH2 0x427 JUMP JUMPDEST PUSH2 0x347 DUP2 DUP6 PUSH2 0x43F JUMP JUMPDEST SWAP4 POP PUSH2 0x352 DUP4 PUSH2 0x417 JUMP JUMPDEST DUP1 PUSH1 0x0 JUMPDEST DUP4 DUP2 LT ISZERO PUSH2 0x383 JUMPI DUP2 MLOAD PUSH2 0x36A DUP9 DUP3 PUSH2 0x31A JUMP JUMPDEST SWAP8 POP PUSH2 0x375 DUP4 PUSH2 0x432 JUMP JUMPDEST SWAP3 POP POP PUSH1 0x1 DUP2 ADD SWAP1 POP PUSH2 0x356 JUMP JUMPDEST POP DUP6 SWAP4 POP POP POP POP SWAP3 SWAP2 POP POP JUMP JUMPDEST PUSH2 0x399 DUP2 PUSH2 0x482 JUMP JUMPDEST DUP3 MSTORE POP POP JUMP JUMPDEST PUSH1 0x0 PUSH1 0x20 DUP3 ADD SWAP1 POP DUP2 DUP2 SUB PUSH1 0x0 DUP4 ADD MSTORE PUSH2 0x3B9 DUP2 DUP5 PUSH2 0x332 JUMP JUMPDEST SWAP1 POP SWAP3 SWAP2 POP POP JUMP JUMPDEST PUSH1 0x0 PUSH2 0x3CB PUSH2 0x3DC JUMP JUMPDEST SWAP1 POP PUSH2 0x3D7 DUP3 DUP3 PUSH2 0x49B JUMP JUMPDEST SWAP2 SWAP1 POP JUMP JUMPDEST PUSH1 0x0 PUSH1 0x40 MLOAD SWAP1 POP SWAP1 JUMP JUMPDEST PUSH1 0x0 PUSH8 0xFFFFFFFFFFFFFFFF DUP3 GT ISZERO PUSH2 0x401 JUMPI PUSH2 0x400 PUSH2 0x4CC JUMP JUMPDEST JUMPDEST PUSH2 0x40A DUP3 PUSH2 0x50F JUMP JUMPDEST SWAP1 POP PUSH1 0x20 DUP2 ADD SWAP1 POP SWAP2 SWAP1 POP JUMP JUMPDEST PUSH1 0x0 DUP2 SWAP1 POP PUSH1 0x20 DUP3 ADD SWAP1 POP SWAP2 SWAP1 POP JUMP JUMPDEST PUSH1 0x0 DUP2 MLOAD SWAP1 POP SWAP2 SWAP1 POP JUMP JUMPDEST PUSH1 0x0 PUSH1 0x20 DUP3 ADD SWAP1 POP SWAP2 SWAP1 POP JUMP JUMPDEST PUSH1 0x0 DUP3 DUP3 MSTORE PUSH1 0x20 DUP3 ADD SWAP1 POP SWAP3 SWAP2 POP POP JUMP JUMPDEST PUSH1 0x0 PUSH2 0x45B DUP3 PUSH2 0x462 JUMP JUMPDEST SWAP1 POP SWAP2 SWAP1 POP JUMP JUMPDEST PUSH1 0x0 PUSH20 0xFFFFFFFFFFFFFFFFFFFFFFFFFFFFFFFFFFFFFFFF DUP3 AND SWAP1 POP SWAP2 SWAP1 POP JUMP JUMPDEST PUSH1 0x0 DUP2 SWAP1 POP SWAP2 SWAP1 POP JUMP JUMPDEST DUP3 DUP2 DUP4 CALLDATACOPY PUSH1 0x0 DUP4 DUP4 ADD MSTORE POP POP POP JUMP JUMPDEST PUSH2 0x4A4 DUP3 PUSH2 0x50F JUMP JUMPDEST DUP2 ADD DUP2 DUP2 LT PUSH8 0xFFFFFFFFFFFFFFFF DUP3 GT OR ISZERO PUSH2 0x4C3 JUMPI PUSH2 0x4C2 PUSH2 0x4CC JUMP JUMPDEST JUMPDEST DUP1 PUSH1 0x40 MSTORE POP POP POP JUMP JUMPDEST PUSH32 0x4E487B7100000000000000000000000000000000000000000000000000000000 PUSH1 0x0 MSTORE PUSH1 0x41 PUSH1 0x4 MSTORE PUSH1 0x24 PUSH1 0x0 REVERT JUMPDEST PUSH1 0x0 DUP1 REVERT JUMPDEST PUSH1 0x0 DUP1 REVERT JUMPDEST PUSH1 0x0 DUP1 REVERT JUMPDEST PUSH1 0x0 DUP1 REVERT JUMPDEST PUSH1 0x0 PUSH1 0x1F NOT PUSH1 0x1F DUP4 ADD AND SWAP1 POP SWAP2 SWAP1 POP JUMP JUMPDEST PUSH2 0x529 DUP2 PUSH2 0x450 JUMP JUMPDEST DUP2 EQ PUSH2 0x534 JUMPI PUSH1 0x0 DUP1 REVERT JUMPDEST POP JUMP JUMPDEST PUSH2 0x540 DUP2 PUSH2 0x482 JUMP JUMPDEST DUP2 EQ PUSH2 0x54B JUMPI PUSH1 0x0 DUP1 REVERT JUMPDEST POP JUMP INVALID LOG2 PUSH5 0x6970667358 0x22 SLT KECCAK256 0xEB DUP1 PUSH32 0x3DE7D0EE7AFB4B5299C2C4FD1CD8CB9DA1F0767439D7CAEC66C6066D9764736F PUSH13 0x63430008070033000000000000 "
				},
				"gasEstimates": {
					"creation": {
						"codeDepositCost": "282400",
						"executionCost": "324",
						"totalCost": "282724"
					},
					"external": {
						"addNote(address,uint256)": "47169",
						"getNotesPerEleve(address)": "infinite",
						"setNom(address,string)": "infinite"
					}
				},
				"methodIdentifiers": {
					"addNote(address,uint256)": "ce5d52e7",
					"getNotesPerEleve(address)": "7f8a6d1a",
					"setNom(address,string)": "71f55c9a"
				}
			},
			"storageLayout": {
				"storage": [
					{
						"astId": 14,
						"contract": "contracts/struct.sol:structureExo",
						"label": "Eleves",
						"offset": 0,
						"slot": "0",
						"type": "t_mapping(t_address,t_struct(Eleve)9_storage)"
					}
				],
				"types": {
					"t_address": {
						"encoding": "inplace",
						"label": "address",
						"numberOfBytes": "20"
					},
					"t_array(t_uint256)dyn_storage": {
						"base": "t_uint256",
						"encoding": "dynamic_array",
						"label": "uint256[]",
						"numberOfBytes": "32"
					},
					"t_mapping(t_address,t_struct(Eleve)9_storage)": {
						"encoding": "mapping",
						"key": "t_address",
						"label": "mapping(address => struct structureExo.Eleve)",
						"numberOfBytes": "32",
						"value": "t_struct(Eleve)9_storage"
					},
					"t_string_storage": {
						"encoding": "bytes",
						"label": "string",
						"numberOfBytes": "32"
					},
					"t_struct(Eleve)9_storage": {
						"encoding": "inplace",
						"label": "struct structureExo.Eleve",
						"members": [
							{
								"astId": 3,
								"contract": "contracts/struct.sol:structureExo",
								"label": "nom",
								"offset": 0,
								"slot": "0",
								"type": "t_string_storage"
							},
							{
								"astId": 5,
								"contract": "contracts/struct.sol:structureExo",
								"label": "prenom",
								"offset": 0,
								"slot": "1",
								"type": "t_string_storage"
							},
							{
								"astId": 8,
								"contract": "contracts/struct.sol:structureExo",
								"label": "notes",
								"offset": 0,
								"slot": "2",
								"type": "t_array(t_uint256)dyn_storage"
							}
						],
						"numberOfBytes": "96"
					},
					"t_uint256": {
						"encoding": "inplace",
						"label": "uint256",
						"numberOfBytes": "32"
					}
				}
			},
			"userdoc": {
				"kind": "user",
				"methods": {},
				"version": 1
			}
		}
	}
}