{
	"contracts/ExoSupermarche.sol": {
		"supermarche": {
			"abi": [
				{
					"inputs": [
						{
							"internalType": "string",
							"name": "_libelle",
							"type": "string"
						},
						{
							"internalType": "int16",
							"name": "_prix",
							"type": "int16"
						}
					],
					"name": "createProduit",
					"outputs": [],
					"stateMutability": "nonpayable",
					"type": "function"
				}
			],
			"devdoc": {
				"kind": "dev",
				"methods": {},
				"version": 1
			},
			"evm": {
				"assembly": "    /* \"contracts/ExoSupermarche.sol\":59:524  contract supermarche {\r... */\n  mstore(0x40, 0x80)\n  callvalue\n  dup1\n  iszero\n  tag_1\n  jumpi\n  0x00\n  dup1\n  revert\ntag_1:\n  pop\n  dataSize(sub_0)\n  dup1\n  dataOffset(sub_0)\n  0x00\n  codecopy\n  0x00\n  return\nstop\n\nsub_0: assembly {\n        /* \"contracts/ExoSupermarche.sol\":59:524  contract supermarche {\r... */\n      mstore(0x40, 0x80)\n      callvalue\n      dup1\n      iszero\n      tag_1\n      jumpi\n      0x00\n      dup1\n      revert\n    tag_1:\n      pop\n      jumpi(tag_2, lt(calldatasize, 0x04))\n      shr(0xe0, calldataload(0x00))\n      dup1\n      0x51401eef\n      eq\n      tag_3\n      jumpi\n    tag_2:\n      0x00\n      dup1\n      revert\n        /* \"contracts/ExoSupermarche.sol\":313:513  function createProduit(string memory _libelle, int16 _prix) public {\r... */\n    tag_3:\n      tag_4\n      0x04\n      dup1\n      calldatasize\n      sub\n      dup2\n      add\n      swap1\n      tag_5\n      swap2\n      swap1\n      tag_6\n      jump\t// in\n    tag_5:\n      tag_7\n      jump\t// in\n    tag_4:\n      stop\n    tag_7:\n        /* \"contracts/ExoSupermarche.sol\":391:398  uint id */\n      0x00\n        /* \"contracts/ExoSupermarche.sol\":419:420  1 */\n      0x01\n        /* \"contracts/ExoSupermarche.sol\":401:409  produits */\n      0x00\n        /* \"contracts/ExoSupermarche.sol\":401:416  produits.length */\n      dup1\n      sload\n      swap1\n      pop\n        /* \"contracts/ExoSupermarche.sol\":401:420  produits.length + 1 */\n      tag_9\n      swap2\n      swap1\n      tag_10\n      jump\t// in\n    tag_9:\n        /* \"contracts/ExoSupermarche.sol\":391:420  uint id = produits.length + 1 */\n      swap1\n      pop\n        /* \"contracts/ExoSupermarche.sol\":431:447  produit memory p */\n      0x00\n        /* \"contracts/ExoSupermarche.sol\":450:478  produit(id, _libelle, _prix) */\n      mload(0x40)\n      dup1\n      0x60\n      add\n      0x40\n      mstore\n      dup1\n        /* \"contracts/ExoSupermarche.sol\":458:460  id */\n      dup4\n        /* \"contracts/ExoSupermarche.sol\":450:478  produit(id, _libelle, _prix) */\n      dup2\n      mstore\n      0x20\n      add\n        /* \"contracts/ExoSupermarche.sol\":462:470  _libelle */\n      dup6\n        /* \"contracts/ExoSupermarche.sol\":450:478  produit(id, _libelle, _prix) */\n      dup2\n      mstore\n      0x20\n      add\n        /* \"contracts/ExoSupermarche.sol\":472:477  _prix */\n      dup5\n        /* \"contracts/ExoSupermarche.sol\":450:478  produit(id, _libelle, _prix) */\n      0x01\n      signextend\n      dup2\n      mstore\n      pop\n        /* \"contracts/ExoSupermarche.sol\":431:478  produit memory p = produit(id, _libelle, _prix) */\n      swap1\n      pop\n        /* \"contracts/ExoSupermarche.sol\":489:497  produits */\n      0x00\n        /* \"contracts/ExoSupermarche.sol\":503:504  p */\n      dup2\n        /* \"contracts/ExoSupermarche.sol\":489:505  produits.push(p) */\n      swap1\n      dup1\n      0x01\n      dup2\n      sload\n      add\n      dup1\n      dup3\n      sstore\n      dup1\n      swap2\n      pop\n      pop\n      0x01\n      swap1\n      sub\n      swap1\n      0x00\n      mstore\n      keccak256(0x00, 0x20)\n      swap1\n      0x03\n      mul\n      add\n      0x00\n      swap1\n      swap2\n      swap1\n      swap2\n      swap1\n      swap2\n      pop\n      0x00\n      dup3\n      add\n      mload\n      dup2\n      0x00\n      add\n      sstore\n      0x20\n      dup3\n      add\n      mload\n      dup2\n      0x01\n      add\n      swap1\n      dup1\n      mload\n      swap1\n      0x20\n      add\n      swap1\n      tag_12\n      swap3\n      swap2\n      swap1\n      tag_13\n      jump\t// in\n    tag_12:\n      pop\n      0x40\n      dup3\n      add\n      mload\n      dup2\n      0x02\n      add\n      exp(0x0100, 0x00)\n      dup2\n      sload\n      dup2\n      0xffff\n      mul\n      not\n      and\n      swap1\n      dup4\n      0x01\n      signextend\n      0xffff\n      and\n      mul\n      or\n      swap1\n      sstore\n      pop\n      pop\n      pop\n        /* \"contracts/ExoSupermarche.sol\":380:513  {\r... */\n      pop\n      pop\n        /* \"contracts/ExoSupermarche.sol\":313:513  function createProduit(string memory _libelle, int16 _prix) public {\r... */\n      pop\n      pop\n      jump\t// out\n    tag_13:\n      dup3\n      dup1\n      sload\n      tag_14\n      swap1\n      tag_15\n      jump\t// in\n    tag_14:\n      swap1\n      0x00\n      mstore\n      keccak256(0x00, 0x20)\n      swap1\n      0x1f\n      add\n      0x20\n      swap1\n      div\n      dup2\n      add\n      swap3\n      dup3\n      tag_17\n      jumpi\n      0x00\n      dup6\n      sstore\n      jump(tag_16)\n    tag_17:\n      dup3\n      0x1f\n      lt\n      tag_18\n      jumpi\n      dup1\n      mload\n      not(0xff)\n      and\n      dup4\n      dup1\n      add\n      or\n      dup6\n      sstore\n      jump(tag_16)\n    tag_18:\n      dup3\n      dup1\n      add\n      0x01\n      add\n      dup6\n      sstore\n      dup3\n      iszero\n      tag_16\n      jumpi\n      swap2\n      dup3\n      add\n    tag_19:\n      dup3\n      dup2\n      gt\n      iszero\n      tag_20\n      jumpi\n      dup3\n      mload\n      dup3\n      sstore\n      swap2\n      0x20\n      add\n      swap2\n      swap1\n      0x01\n      add\n      swap1\n      jump(tag_19)\n    tag_20:\n    tag_16:\n      pop\n      swap1\n      pop\n      tag_21\n      swap2\n      swap1\n      tag_22\n      jump\t// in\n    tag_21:\n      pop\n      swap1\n      jump\t// out\n    tag_22:\n    tag_23:\n      dup1\n      dup3\n      gt\n      iszero\n      tag_24\n      jumpi\n      0x00\n      dup2\n      0x00\n      swap1\n      sstore\n      pop\n      0x01\n      add\n      jump(tag_23)\n    tag_24:\n      pop\n      swap1\n      jump\t// out\n        /* \"#utility.yul\":7:419   */\n    tag_26:\n        /* \"#utility.yul\":85:90   */\n      0x00\n        /* \"#utility.yul\":110:176   */\n      tag_28\n        /* \"#utility.yul\":126:175   */\n      tag_29\n        /* \"#utility.yul\":168:174   */\n      dup5\n        /* \"#utility.yul\":126:175   */\n      tag_30\n      jump\t// in\n    tag_29:\n        /* \"#utility.yul\":110:176   */\n      tag_31\n      jump\t// in\n    tag_28:\n        /* \"#utility.yul\":101:176   */\n      swap1\n      pop\n        /* \"#utility.yul\":199:205   */\n      dup3\n        /* \"#utility.yul\":192:197   */\n      dup2\n        /* \"#utility.yul\":185:206   */\n      mstore\n        /* \"#utility.yul\":237:241   */\n      0x20\n        /* \"#utility.yul\":230:235   */\n      dup2\n        /* \"#utility.yul\":226:242   */\n      add\n        /* \"#utility.yul\":275:278   */\n      dup5\n        /* \"#utility.yul\":266:272   */\n      dup5\n        /* \"#utility.yul\":261:264   */\n      dup5\n        /* \"#utility.yul\":257:273   */\n      add\n        /* \"#utility.yul\":254:279   */\n      gt\n        /* \"#utility.yul\":251:363   */\n      iszero\n      tag_32\n      jumpi\n        /* \"#utility.yul\":282:361   */\n      tag_33\n      tag_34\n      jump\t// in\n    tag_33:\n        /* \"#utility.yul\":251:363   */\n    tag_32:\n        /* \"#utility.yul\":372:413   */\n      tag_35\n        /* \"#utility.yul\":406:412   */\n      dup5\n        /* \"#utility.yul\":401:404   */\n      dup3\n        /* \"#utility.yul\":396:399   */\n      dup6\n        /* \"#utility.yul\":372:413   */\n      tag_36\n      jump\t// in\n    tag_35:\n        /* \"#utility.yul\":91:419   */\n      pop\n        /* \"#utility.yul\":7:419   */\n      swap4\n      swap3\n      pop\n      pop\n      pop\n      jump\t// out\n        /* \"#utility.yul\":425:560   */\n    tag_37:\n        /* \"#utility.yul\":469:474   */\n      0x00\n        /* \"#utility.yul\":507:513   */\n      dup2\n        /* \"#utility.yul\":494:514   */\n      calldataload\n        /* \"#utility.yul\":485:514   */\n      swap1\n      pop\n        /* \"#utility.yul\":523:554   */\n      tag_39\n        /* \"#utility.yul\":548:553   */\n      dup2\n        /* \"#utility.yul\":523:554   */\n      tag_40\n      jump\t// in\n    tag_39:\n        /* \"#utility.yul\":425:560   */\n      swap3\n      swap2\n      pop\n      pop\n      jump\t// out\n        /* \"#utility.yul\":580:920   */\n    tag_41:\n        /* \"#utility.yul\":636:641   */\n      0x00\n        /* \"#utility.yul\":685:688   */\n      dup3\n        /* \"#utility.yul\":678:682   */\n      0x1f\n        /* \"#utility.yul\":670:676   */\n      dup4\n        /* \"#utility.yul\":666:683   */\n      add\n        /* \"#utility.yul\":662:689   */\n      slt\n        /* \"#utility.yul\":652:774   */\n      tag_43\n      jumpi\n        /* \"#utility.yul\":693:772   */\n      tag_44\n      tag_45\n      jump\t// in\n    tag_44:\n        /* \"#utility.yul\":652:774   */\n    tag_43:\n        /* \"#utility.yul\":810:816   */\n      dup2\n        /* \"#utility.yul\":797:817   */\n      calldataload\n        /* \"#utility.yul\":835:914   */\n      tag_46\n        /* \"#utility.yul\":910:913   */\n      dup5\n        /* \"#utility.yul\":902:908   */\n      dup3\n        /* \"#utility.yul\":895:899   */\n      0x20\n        /* \"#utility.yul\":887:893   */\n      dup7\n        /* \"#utility.yul\":883:900   */\n      add\n        /* \"#utility.yul\":835:914   */\n      tag_26\n      jump\t// in\n    tag_46:\n        /* \"#utility.yul\":826:914   */\n      swap2\n      pop\n        /* \"#utility.yul\":642:920   */\n      pop\n        /* \"#utility.yul\":580:920   */\n      swap3\n      swap2\n      pop\n      pop\n      jump\t// out\n        /* \"#utility.yul\":926:1576   */\n    tag_6:\n        /* \"#utility.yul\":1002:1008   */\n      0x00\n        /* \"#utility.yul\":1010:1016   */\n      dup1\n        /* \"#utility.yul\":1059:1061   */\n      0x40\n        /* \"#utility.yul\":1047:1056   */\n      dup4\n        /* \"#utility.yul\":1038:1045   */\n      dup6\n        /* \"#utility.yul\":1034:1057   */\n      sub\n        /* \"#utility.yul\":1030:1062   */\n      slt\n        /* \"#utility.yul\":1027:1146   */\n      iszero\n      tag_48\n      jumpi\n        /* \"#utility.yul\":1065:1144   */\n      tag_49\n      tag_50\n      jump\t// in\n    tag_49:\n        /* \"#utility.yul\":1027:1146   */\n    tag_48:\n        /* \"#utility.yul\":1213:1214   */\n      0x00\n        /* \"#utility.yul\":1202:1211   */\n      dup4\n        /* \"#utility.yul\":1198:1215   */\n      add\n        /* \"#utility.yul\":1185:1216   */\n      calldataload\n        /* \"#utility.yul\":1243:1261   */\n      0xffffffffffffffff\n        /* \"#utility.yul\":1235:1241   */\n      dup2\n        /* \"#utility.yul\":1232:1262   */\n      gt\n        /* \"#utility.yul\":1229:1346   */\n      iszero\n      tag_51\n      jumpi\n        /* \"#utility.yul\":1265:1344   */\n      tag_52\n      tag_53\n      jump\t// in\n    tag_52:\n        /* \"#utility.yul\":1229:1346   */\n    tag_51:\n        /* \"#utility.yul\":1370:1433   */\n      tag_54\n        /* \"#utility.yul\":1425:1432   */\n      dup6\n        /* \"#utility.yul\":1416:1422   */\n      dup3\n        /* \"#utility.yul\":1405:1414   */\n      dup7\n        /* \"#utility.yul\":1401:1423   */\n      add\n        /* \"#utility.yul\":1370:1433   */\n      tag_41\n      jump\t// in\n    tag_54:\n        /* \"#utility.yul\":1360:1433   */\n      swap3\n      pop\n        /* \"#utility.yul\":1156:1443   */\n      pop\n        /* \"#utility.yul\":1482:1484   */\n      0x20\n        /* \"#utility.yul\":1508:1559   */\n      tag_55\n        /* \"#utility.yul\":1551:1558   */\n      dup6\n        /* \"#utility.yul\":1542:1548   */\n      dup3\n        /* \"#utility.yul\":1531:1540   */\n      dup7\n        /* \"#utility.yul\":1527:1549   */\n      add\n        /* \"#utility.yul\":1508:1559   */\n      tag_37\n      jump\t// in\n    tag_55:\n        /* \"#utility.yul\":1498:1559   */\n      swap2\n      pop\n        /* \"#utility.yul\":1453:1569   */\n      pop\n        /* \"#utility.yul\":926:1576   */\n      swap3\n      pop\n      swap3\n      swap1\n      pop\n      jump\t// out\n        /* \"#utility.yul\":1582:1711   */\n    tag_31:\n        /* \"#utility.yul\":1616:1622   */\n      0x00\n        /* \"#utility.yul\":1643:1663   */\n      tag_57\n      tag_58\n      jump\t// in\n    tag_57:\n        /* \"#utility.yul\":1633:1663   */\n      swap1\n      pop\n        /* \"#utility.yul\":1672:1705   */\n      tag_59\n        /* \"#utility.yul\":1700:1704   */\n      dup3\n        /* \"#utility.yul\":1692:1698   */\n      dup3\n        /* \"#utility.yul\":1672:1705   */\n      tag_60\n      jump\t// in\n    tag_59:\n        /* \"#utility.yul\":1582:1711   */\n      swap2\n      swap1\n      pop\n      jump\t// out\n        /* \"#utility.yul\":1717:1792   */\n    tag_58:\n        /* \"#utility.yul\":1750:1756   */\n      0x00\n        /* \"#utility.yul\":1783:1785   */\n      0x40\n        /* \"#utility.yul\":1777:1786   */\n      mload\n        /* \"#utility.yul\":1767:1786   */\n      swap1\n      pop\n        /* \"#utility.yul\":1717:1792   */\n      swap1\n      jump\t// out\n        /* \"#utility.yul\":1798:2106   */\n    tag_30:\n        /* \"#utility.yul\":1860:1864   */\n      0x00\n        /* \"#utility.yul\":1950:1968   */\n      0xffffffffffffffff\n        /* \"#utility.yul\":1942:1948   */\n      dup3\n        /* \"#utility.yul\":1939:1969   */\n      gt\n        /* \"#utility.yul\":1936:1992   */\n      iszero\n      tag_63\n      jumpi\n        /* \"#utility.yul\":1972:1990   */\n      tag_64\n      tag_65\n      jump\t// in\n    tag_64:\n        /* \"#utility.yul\":1936:1992   */\n    tag_63:\n        /* \"#utility.yul\":2010:2039   */\n      tag_66\n        /* \"#utility.yul\":2032:2038   */\n      dup3\n        /* \"#utility.yul\":2010:2039   */\n      tag_67\n      jump\t// in\n    tag_66:\n        /* \"#utility.yul\":2002:2039   */\n      swap1\n      pop\n        /* \"#utility.yul\":2094:2098   */\n      0x20\n        /* \"#utility.yul\":2088:2092   */\n      dup2\n        /* \"#utility.yul\":2084:2099   */\n      add\n        /* \"#utility.yul\":2076:2099   */\n      swap1\n      pop\n        /* \"#utility.yul\":1798:2106   */\n      swap2\n      swap1\n      pop\n      jump\t// out\n        /* \"#utility.yul\":2112:2417   */\n    tag_10:\n        /* \"#utility.yul\":2152:2155   */\n      0x00\n        /* \"#utility.yul\":2171:2191   */\n      tag_69\n        /* \"#utility.yul\":2189:2190   */\n      dup3\n        /* \"#utility.yul\":2171:2191   */\n      tag_70\n      jump\t// in\n    tag_69:\n        /* \"#utility.yul\":2166:2191   */\n      swap2\n      pop\n        /* \"#utility.yul\":2205:2225   */\n      tag_71\n        /* \"#utility.yul\":2223:2224   */\n      dup4\n        /* \"#utility.yul\":2205:2225   */\n      tag_70\n      jump\t// in\n    tag_71:\n        /* \"#utility.yul\":2200:2225   */\n      swap3\n      pop\n        /* \"#utility.yul\":2359:2360   */\n      dup3\n        /* \"#utility.yul\":2291:2357   */\n      0xffffffffffffffffffffffffffffffffffffffffffffffffffffffffffffffff\n        /* \"#utility.yul\":2287:2361   */\n      sub\n        /* \"#utility.yul\":2284:2285   */\n      dup3\n        /* \"#utility.yul\":2281:2362   */\n      gt\n        /* \"#utility.yul\":2278:2385   */\n      iszero\n      tag_72\n      jumpi\n        /* \"#utility.yul\":2365:2383   */\n      tag_73\n      tag_74\n      jump\t// in\n    tag_73:\n        /* \"#utility.yul\":2278:2385   */\n    tag_72:\n        /* \"#utility.yul\":2409:2410   */\n      dup3\n        /* \"#utility.yul\":2406:2407   */\n      dup3\n        /* \"#utility.yul\":2402:2411   */\n      add\n        /* \"#utility.yul\":2395:2411   */\n      swap1\n      pop\n        /* \"#utility.yul\":2112:2417   */\n      swap3\n      swap2\n      pop\n      pop\n      jump\t// out\n        /* \"#utility.yul\":2423:2513   */\n    tag_75:\n        /* \"#utility.yul\":2458:2465   */\n      0x00\n        /* \"#utility.yul\":2501:2506   */\n      dup2\n        /* \"#utility.yul\":2498:2499   */\n      0x01\n        /* \"#utility.yul\":2487:2507   */\n      signextend\n        /* \"#utility.yul\":2476:2507   */\n      swap1\n      pop\n        /* \"#utility.yul\":2423:2513   */\n      swap2\n      swap1\n      pop\n      jump\t// out\n        /* \"#utility.yul\":2519:2596   */\n    tag_70:\n        /* \"#utility.yul\":2556:2563   */\n      0x00\n        /* \"#utility.yul\":2585:2590   */\n      dup2\n        /* \"#utility.yul\":2574:2590   */\n      swap1\n      pop\n        /* \"#utility.yul\":2519:2596   */\n      swap2\n      swap1\n      pop\n      jump\t// out\n        /* \"#utility.yul\":2602:2756   */\n    tag_36:\n        /* \"#utility.yul\":2686:2692   */\n      dup3\n        /* \"#utility.yul\":2681:2684   */\n      dup2\n        /* \"#utility.yul\":2676:2679   */\n      dup4\n        /* \"#utility.yul\":2663:2693   */\n      calldatacopy\n        /* \"#utility.yul\":2748:2749   */\n      0x00\n        /* \"#utility.yul\":2739:2745   */\n      dup4\n        /* \"#utility.yul\":2734:2737   */\n      dup4\n        /* \"#utility.yul\":2730:2746   */\n      add\n        /* \"#utility.yul\":2723:2750   */\n      mstore\n        /* \"#utility.yul\":2602:2756   */\n      pop\n      pop\n      pop\n      jump\t// out\n        /* \"#utility.yul\":2762:3082   */\n    tag_15:\n        /* \"#utility.yul\":2806:2812   */\n      0x00\n        /* \"#utility.yul\":2843:2844   */\n      0x02\n        /* \"#utility.yul\":2837:2841   */\n      dup3\n        /* \"#utility.yul\":2833:2845   */\n      div\n        /* \"#utility.yul\":2823:2845   */\n      swap1\n      pop\n        /* \"#utility.yul\":2890:2891   */\n      0x01\n        /* \"#utility.yul\":2884:2888   */\n      dup3\n        /* \"#utility.yul\":2880:2892   */\n      and\n        /* \"#utility.yul\":2911:2929   */\n      dup1\n        /* \"#utility.yul\":2901:2982   */\n      tag_80\n      jumpi\n        /* \"#utility.yul\":2967:2971   */\n      0x7f\n        /* \"#utility.yul\":2959:2965   */\n      dup3\n        /* \"#utility.yul\":2955:2972   */\n      and\n        /* \"#utility.yul\":2945:2972   */\n      swap2\n      pop\n        /* \"#utility.yul\":2901:2982   */\n    tag_80:\n        /* \"#utility.yul\":3029:3031   */\n      0x20\n        /* \"#utility.yul\":3021:3027   */\n      dup3\n        /* \"#utility.yul\":3018:3032   */\n      lt\n        /* \"#utility.yul\":2998:3016   */\n      dup2\n        /* \"#utility.yul\":2995:3033   */\n      eq\n        /* \"#utility.yul\":2992:3076   */\n      iszero\n      tag_81\n      jumpi\n        /* \"#utility.yul\":3048:3066   */\n      tag_82\n      tag_83\n      jump\t// in\n    tag_82:\n        /* \"#utility.yul\":2992:3076   */\n    tag_81:\n        /* \"#utility.yul\":2813:3082   */\n      pop\n        /* \"#utility.yul\":2762:3082   */\n      swap2\n      swap1\n      pop\n      jump\t// out\n        /* \"#utility.yul\":3088:3369   */\n    tag_60:\n        /* \"#utility.yul\":3171:3198   */\n      tag_85\n        /* \"#utility.yul\":3193:3197   */\n      dup3\n        /* \"#utility.yul\":3171:3198   */\n      tag_67\n      jump\t// in\n    tag_85:\n        /* \"#utility.yul\":3163:3169   */\n      dup2\n        /* \"#utility.yul\":3159:3199   */\n      add\n        /* \"#utility.yul\":3301:3307   */\n      dup2\n        /* \"#utility.yul\":3289:3299   */\n      dup2\n        /* \"#utility.yul\":3286:3308   */\n      lt\n        /* \"#utility.yul\":3265:3283   */\n      0xffffffffffffffff\n        /* \"#utility.yul\":3253:3263   */\n      dup3\n        /* \"#utility.yul\":3250:3284   */\n      gt\n        /* \"#utility.yul\":3247:3309   */\n      or\n        /* \"#utility.yul\":3244:3332   */\n      iszero\n      tag_86\n      jumpi\n        /* \"#utility.yul\":3312:3330   */\n      tag_87\n      tag_65\n      jump\t// in\n    tag_87:\n        /* \"#utility.yul\":3244:3332   */\n    tag_86:\n        /* \"#utility.yul\":3352:3362   */\n      dup1\n        /* \"#utility.yul\":3348:3350   */\n      0x40\n        /* \"#utility.yul\":3341:3363   */\n      mstore\n        /* \"#utility.yul\":3131:3369   */\n      pop\n        /* \"#utility.yul\":3088:3369   */\n      pop\n      pop\n      jump\t// out\n        /* \"#utility.yul\":3375:3555   */\n    tag_74:\n        /* \"#utility.yul\":3423:3500   */\n      0x4e487b7100000000000000000000000000000000000000000000000000000000\n        /* \"#utility.yul\":3420:3421   */\n      0x00\n        /* \"#utility.yul\":3413:3501   */\n      mstore\n        /* \"#utility.yul\":3520:3524   */\n      0x11\n        /* \"#utility.yul\":3517:3518   */\n      0x04\n        /* \"#utility.yul\":3510:3525   */\n      mstore\n        /* \"#utility.yul\":3544:3548   */\n      0x24\n        /* \"#utility.yul\":3541:3542   */\n      0x00\n        /* \"#utility.yul\":3534:3549   */\n      revert\n        /* \"#utility.yul\":3561:3741   */\n    tag_83:\n        /* \"#utility.yul\":3609:3686   */\n      0x4e487b7100000000000000000000000000000000000000000000000000000000\n        /* \"#utility.yul\":3606:3607   */\n      0x00\n        /* \"#utility.yul\":3599:3687   */\n      mstore\n        /* \"#utility.yul\":3706:3710   */\n      0x22\n        /* \"#utility.yul\":3703:3704   */\n      0x04\n        /* \"#utility.yul\":3696:3711   */\n      mstore\n        /* \"#utility.yul\":3730:3734   */\n      0x24\n        /* \"#utility.yul\":3727:3728   */\n      0x00\n        /* \"#utility.yul\":3720:3735   */\n      revert\n        /* \"#utility.yul\":3747:3927   */\n    tag_65:\n        /* \"#utility.yul\":3795:3872   */\n      0x4e487b7100000000000000000000000000000000000000000000000000000000\n        /* \"#utility.yul\":3792:3793   */\n      0x00\n        /* \"#utility.yul\":3785:3873   */\n      mstore\n        /* \"#utility.yul\":3892:3896   */\n      0x41\n        /* \"#utility.yul\":3889:3890   */\n      0x04\n        /* \"#utility.yul\":3882:3897   */\n      mstore\n        /* \"#utility.yul\":3916:3920   */\n      0x24\n        /* \"#utility.yul\":3913:3914   */\n      0x00\n        /* \"#utility.yul\":3906:3921   */\n      revert\n        /* \"#utility.yul\":3933:4050   */\n    tag_45:\n        /* \"#utility.yul\":4042:4043   */\n      0x00\n        /* \"#utility.yul\":4039:4040   */\n      dup1\n        /* \"#utility.yul\":4032:4044   */\n      revert\n        /* \"#utility.yul\":4056:4173   */\n    tag_34:\n        /* \"#utility.yul\":4165:4166   */\n      0x00\n        /* \"#utility.yul\":4162:4163   */\n      dup1\n        /* \"#utility.yul\":4155:4167   */\n      revert\n        /* \"#utility.yul\":4179:4296   */\n    tag_53:\n        /* \"#utility.yul\":4288:4289   */\n      0x00\n        /* \"#utility.yul\":4285:4286   */\n      dup1\n        /* \"#utility.yul\":4278:4290   */\n      revert\n        /* \"#utility.yul\":4302:4419   */\n    tag_50:\n        /* \"#utility.yul\":4411:4412   */\n      0x00\n        /* \"#utility.yul\":4408:4409   */\n      dup1\n        /* \"#utility.yul\":4401:4413   */\n      revert\n        /* \"#utility.yul\":4425:4527   */\n    tag_67:\n        /* \"#utility.yul\":4466:4472   */\n      0x00\n        /* \"#utility.yul\":4517:4519   */\n      0x1f\n        /* \"#utility.yul\":4513:4520   */\n      not\n        /* \"#utility.yul\":4508:4510   */\n      0x1f\n        /* \"#utility.yul\":4501:4506   */\n      dup4\n        /* \"#utility.yul\":4497:4511   */\n      add\n        /* \"#utility.yul\":4493:4521   */\n      and\n        /* \"#utility.yul\":4483:4521   */\n      swap1\n      pop\n        /* \"#utility.yul\":4425:4527   */\n      swap2\n      swap1\n      pop\n      jump\t// out\n        /* \"#utility.yul\":4533:4651   */\n    tag_40:\n        /* \"#utility.yul\":4604:4626   */\n      tag_97\n        /* \"#utility.yul\":4620:4625   */\n      dup2\n        /* \"#utility.yul\":4604:4626   */\n      tag_75\n      jump\t// in\n    tag_97:\n        /* \"#utility.yul\":4597:4602   */\n      dup2\n        /* \"#utility.yul\":4594:4627   */\n      eq\n        /* \"#utility.yul\":4584:4645   */\n      tag_98\n      jumpi\n        /* \"#utility.yul\":4641:4642   */\n      0x00\n        /* \"#utility.yul\":4638:4639   */\n      dup1\n        /* \"#utility.yul\":4631:4643   */\n      revert\n        /* \"#utility.yul\":4584:4645   */\n    tag_98:\n        /* \"#utility.yul\":4533:4651   */\n      pop\n      jump\t// out\n\n    auxdata: 0xa264697066735822122011b9986c143d49db19bde87bb57ba97d5537357c60e561ca1c18c6df257376b564736f6c63430008070033\n}\n",
				"bytecode": {
					"linkReferences": {},
					"object": "608060405234801561001057600080fd5b506104bd806100206000396000f3fe608060405234801561001057600080fd5b506004361061002b5760003560e01c806351401eef14610030575b600080fd5b61004a6004803603810190610045919061022d565b61004c565b005b6000600160008054905061006091906102df565b9050600060405180606001604052808381526020018581526020018460010b815250905060008190806001815401808255809150506001900390600052602060002090600302016000909190919091506000820151816000015560208201518160010190805190602001906100d6929190610105565b5060408201518160020160006101000a81548161ffff021916908360010b61ffff160217905550505050505050565b8280546101119061035b565b90600052602060002090601f016020900481019282610133576000855561017a565b82601f1061014c57805160ff191683800117855561017a565b8280016001018555821561017a579182015b8281111561017957825182559160200191906001019061015e565b5b509050610187919061018b565b5090565b5b808211156101a457600081600090555060010161018c565b5090565b60006101bb6101b6846102ae565b610289565b9050828152602081018484840111156101d7576101d6610450565b5b6101e284828561034c565b509392505050565b6000813590506101f981610470565b92915050565b600082601f8301126102145761021361044b565b5b81356102248482602086016101a8565b91505092915050565b600080604083850312156102445761024361045a565b5b600083013567ffffffffffffffff81111561026257610261610455565b5b61026e858286016101ff565b925050602061027f858286016101ea565b9150509250929050565b60006102936102a4565b905061029f828261038d565b919050565b6000604051905090565b600067ffffffffffffffff8211156102c9576102c861041c565b5b6102d28261045f565b9050602081019050919050565b60006102ea82610342565b91506102f583610342565b9250827fffffffffffffffffffffffffffffffffffffffffffffffffffffffffffffffff0382111561032a576103296103be565b5b828201905092915050565b60008160010b9050919050565b6000819050919050565b82818337600083830152505050565b6000600282049050600182168061037357607f821691505b60208210811415610387576103866103ed565b5b50919050565b6103968261045f565b810181811067ffffffffffffffff821117156103b5576103b461041c565b5b80604052505050565b7f4e487b7100000000000000000000000000000000000000000000000000000000600052601160045260246000fd5b7f4e487b7100000000000000000000000000000000000000000000000000000000600052602260045260246000fd5b7f4e487b7100000000000000000000000000000000000000000000000000000000600052604160045260246000fd5b600080fd5b600080fd5b600080fd5b600080fd5b6000601f19601f8301169050919050565b61047981610335565b811461048457600080fd5b5056fea264697066735822122011b9986c143d49db19bde87bb57ba97d5537357c60e561ca1c18c6df257376b564736f6c63430008070033",
					"opcodes": "PUSH1 0x80 PUSH1 0x40 MSTORE CALLVALUE DUP1 ISZERO PUSH2 0x10 JUMPI PUSH1 0x0 DUP1 REVERT JUMPDEST POP PUSH2 0x4BD DUP1 PUSH2 0x20 PUSH1 0x0 CODECOPY PUSH1 0x0 RETURN INVALID PUSH1 0x80 PUSH1 0x40 MSTORE CALLVALUE DUP1 ISZERO PUSH2 0x10 JUMPI PUSH1 0x0 DUP1 REVERT JUMPDEST POP PUSH1 0x4 CALLDATASIZE LT PUSH2 0x2B JUMPI PUSH1 0x0 CALLDATALOAD PUSH1 0xE0 SHR DUP1 PUSH4 0x51401EEF EQ PUSH2 0x30 JUMPI JUMPDEST PUSH1 0x0 DUP1 REVERT JUMPDEST PUSH2 0x4A PUSH1 0x4 DUP1 CALLDATASIZE SUB DUP2 ADD SWAP1 PUSH2 0x45 SWAP2 SWAP1 PUSH2 0x22D JUMP JUMPDEST PUSH2 0x4C JUMP JUMPDEST STOP JUMPDEST PUSH1 0x0 PUSH1 0x1 PUSH1 0x0 DUP1 SLOAD SWAP1 POP PUSH2 0x60 SWAP2 SWAP1 PUSH2 0x2DF JUMP JUMPDEST SWAP1 POP PUSH1 0x0 PUSH1 0x40 MLOAD DUP1 PUSH1 0x60 ADD PUSH1 0x40 MSTORE DUP1 DUP4 DUP2 MSTORE PUSH1 0x20 ADD DUP6 DUP2 MSTORE PUSH1 0x20 ADD DUP5 PUSH1 0x1 SIGNEXTEND DUP2 MSTORE POP SWAP1 POP PUSH1 0x0 DUP2 SWAP1 DUP1 PUSH1 0x1 DUP2 SLOAD ADD DUP1 DUP3 SSTORE DUP1 SWAP2 POP POP PUSH1 0x1 SWAP1 SUB SWAP1 PUSH1 0x0 MSTORE PUSH1 0x20 PUSH1 0x0 KECCAK256 SWAP1 PUSH1 0x3 MUL ADD PUSH1 0x0 SWAP1 SWAP2 SWAP1 SWAP2 SWAP1 SWAP2 POP PUSH1 0x0 DUP3 ADD MLOAD DUP2 PUSH1 0x0 ADD SSTORE PUSH1 0x20 DUP3 ADD MLOAD DUP2 PUSH1 0x1 ADD SWAP1 DUP1 MLOAD SWAP1 PUSH1 0x20 ADD SWAP1 PUSH2 0xD6 SWAP3 SWAP2 SWAP1 PUSH2 0x105 JUMP JUMPDEST POP PUSH1 0x40 DUP3 ADD MLOAD DUP2 PUSH1 0x2 ADD PUSH1 0x0 PUSH2 0x100 EXP DUP2 SLOAD DUP2 PUSH2 0xFFFF MUL NOT AND SWAP1 DUP4 PUSH1 0x1 SIGNEXTEND PUSH2 0xFFFF AND MUL OR SWAP1 SSTORE POP POP POP POP POP POP POP JUMP JUMPDEST DUP3 DUP1 SLOAD PUSH2 0x111 SWAP1 PUSH2 0x35B JUMP JUMPDEST SWAP1 PUSH1 0x0 MSTORE PUSH1 0x20 PUSH1 0x0 KECCAK256 SWAP1 PUSH1 0x1F ADD PUSH1 0x20 SWAP1 DIV DUP2 ADD SWAP3 DUP3 PUSH2 0x133 JUMPI PUSH1 0x0 DUP6 SSTORE PUSH2 0x17A JUMP JUMPDEST DUP3 PUSH1 0x1F LT PUSH2 0x14C JUMPI DUP1 MLOAD PUSH1 0xFF NOT AND DUP4 DUP1 ADD OR DUP6 SSTORE PUSH2 0x17A JUMP JUMPDEST DUP3 DUP1 ADD PUSH1 0x1 ADD DUP6 SSTORE DUP3 ISZERO PUSH2 0x17A JUMPI SWAP2 DUP3 ADD JUMPDEST DUP3 DUP2 GT ISZERO PUSH2 0x179 JUMPI DUP3 MLOAD DUP3 SSTORE SWAP2 PUSH1 0x20 ADD SWAP2 SWAP1 PUSH1 0x1 ADD SWAP1 PUSH2 0x15E JUMP JUMPDEST JUMPDEST POP SWAP1 POP PUSH2 0x187 SWAP2 SWAP1 PUSH2 0x18B JUMP JUMPDEST POP SWAP1 JUMP JUMPDEST JUMPDEST DUP1 DUP3 GT ISZERO PUSH2 0x1A4 JUMPI PUSH1 0x0 DUP2 PUSH1 0x0 SWAP1 SSTORE POP PUSH1 0x1 ADD PUSH2 0x18C JUMP JUMPDEST POP SWAP1 JUMP JUMPDEST PUSH1 0x0 PUSH2 0x1BB PUSH2 0x1B6 DUP5 PUSH2 0x2AE JUMP JUMPDEST PUSH2 0x289 JUMP JUMPDEST SWAP1 POP DUP3 DUP2 MSTORE PUSH1 0x20 DUP2 ADD DUP5 DUP5 DUP5 ADD GT ISZERO PUSH2 0x1D7 JUMPI PUSH2 0x1D6 PUSH2 0x450 JUMP JUMPDEST JUMPDEST PUSH2 0x1E2 DUP5 DUP3 DUP6 PUSH2 0x34C JUMP JUMPDEST POP SWAP4 SWAP3 POP POP POP JUMP JUMPDEST PUSH1 0x0 DUP2 CALLDATALOAD SWAP1 POP PUSH2 0x1F9 DUP2 PUSH2 0x470 JUMP JUMPDEST SWAP3 SWAP2 POP POP JUMP JUMPDEST PUSH1 0x0 DUP3 PUSH1 0x1F DUP4 ADD SLT PUSH2 0x214 JUMPI PUSH2 0x213 PUSH2 0x44B JUMP JUMPDEST JUMPDEST DUP2 CALLDATALOAD PUSH2 0x224 DUP5 DUP3 PUSH1 0x20 DUP7 ADD PUSH2 0x1A8 JUMP JUMPDEST SWAP2 POP POP SWAP3 SWAP2 POP POP JUMP JUMPDEST PUSH1 0x0 DUP1 PUSH1 0x40 DUP4 DUP6 SUB SLT ISZERO PUSH2 0x244 JUMPI PUSH2 0x243 PUSH2 0x45A JUMP JUMPDEST JUMPDEST PUSH1 0x0 DUP4 ADD CALLDATALOAD PUSH8 0xFFFFFFFFFFFFFFFF DUP2 GT ISZERO PUSH2 0x262 JUMPI PUSH2 0x261 PUSH2 0x455 JUMP JUMPDEST JUMPDEST PUSH2 0x26E DUP6 DUP3 DUP7 ADD PUSH2 0x1FF JUMP JUMPDEST SWAP3 POP POP PUSH1 0x20 PUSH2 0x27F DUP6 DUP3 DUP7 ADD PUSH2 0x1EA JUMP JUMPDEST SWAP2 POP POP SWAP3 POP SWAP3 SWAP1 POP JUMP JUMPDEST PUSH1 0x0 PUSH2 0x293 PUSH2 0x2A4 JUMP JUMPDEST SWAP1 POP PUSH2 0x29F DUP3 DUP3 PUSH2 0x38D JUMP JUMPDEST SWAP2 SWAP1 POP JUMP JUMPDEST PUSH1 0x0 PUSH1 0x40 MLOAD SWAP1 POP SWAP1 JUMP JUMPDEST PUSH1 0x0 PUSH8 0xFFFFFFFFFFFFFFFF DUP3 GT ISZERO PUSH2 0x2C9 JUMPI PUSH2 0x2C8 PUSH2 0x41C JUMP JUMPDEST JUMPDEST PUSH2 0x2D2 DUP3 PUSH2 0x45F JUMP JUMPDEST SWAP1 POP PUSH1 0x20 DUP2 ADD SWAP1 POP SWAP2 SWAP1 POP JUMP JUMPDEST PUSH1 0x0 PUSH2 0x2EA DUP3 PUSH2 0x342 JUMP JUMPDEST SWAP2 POP PUSH2 0x2F5 DUP4 PUSH2 0x342 JUMP JUMPDEST SWAP3 POP DUP3 PUSH32 0xFFFFFFFFFFFFFFFFFFFFFFFFFFFFFFFFFFFFFFFFFFFFFFFFFFFFFFFFFFFFFFFF SUB DUP3 GT ISZERO PUSH2 0x32A JUMPI PUSH2 0x329 PUSH2 0x3BE JUMP JUMPDEST JUMPDEST DUP3 DUP3 ADD SWAP1 POP SWAP3 SWAP2 POP POP JUMP JUMPDEST PUSH1 0x0 DUP2 PUSH1 0x1 SIGNEXTEND SWAP1 POP SWAP2 SWAP1 POP JUMP JUMPDEST PUSH1 0x0 DUP2 SWAP1 POP SWAP2 SWAP1 POP JUMP JUMPDEST DUP3 DUP2 DUP4 CALLDATACOPY PUSH1 0x0 DUP4 DUP4 ADD MSTORE POP POP POP JUMP JUMPDEST PUSH1 0x0 PUSH1 0x2 DUP3 DIV SWAP1 POP PUSH1 0x1 DUP3 AND DUP1 PUSH2 0x373 JUMPI PUSH1 0x7F DUP3 AND SWAP2 POP JUMPDEST PUSH1 0x20 DUP3 LT DUP2 EQ ISZERO PUSH2 0x387 JUMPI PUSH2 0x386 PUSH2 0x3ED JUMP JUMPDEST JUMPDEST POP SWAP2 SWAP1 POP JUMP JUMPDEST PUSH2 0x396 DUP3 PUSH2 0x45F JUMP JUMPDEST DUP2 ADD DUP2 DUP2 LT PUSH8 0xFFFFFFFFFFFFFFFF DUP3 GT OR ISZERO PUSH2 0x3B5 JUMPI PUSH2 0x3B4 PUSH2 0x41C JUMP JUMPDEST JUMPDEST DUP1 PUSH1 0x40 MSTORE POP POP POP JUMP JUMPDEST PUSH32 0x4E487B7100000000000000000000000000000000000000000000000000000000 PUSH1 0x0 MSTORE PUSH1 0x11 PUSH1 0x4 MSTORE PUSH1 0x24 PUSH1 0x0 REVERT JUMPDEST PUSH32 0x4E487B7100000000000000000000000000000000000000000000000000000000 PUSH1 0x0 MSTORE PUSH1 0x22 PUSH1 0x4 MSTORE PUSH1 0x24 PUSH1 0x0 REVERT JUMPDEST PUSH32 0x4E487B7100000000000000000000000000000000000000000000000000000000 PUSH1 0x0 MSTORE PUSH1 0x41 PUSH1 0x4 MSTORE PUSH1 0x24 PUSH1 0x0 REVERT JUMPDEST PUSH1 0x0 DUP1 REVERT JUMPDEST PUSH1 0x0 DUP1 REVERT JUMPDEST PUSH1 0x0 DUP1 REVERT JUMPDEST PUSH1 0x0 DUP1 REVERT JUMPDEST PUSH1 0x0 PUSH1 0x1F NOT PUSH1 0x1F DUP4 ADD AND SWAP1 POP SWAP2 SWAP1 POP JUMP JUMPDEST PUSH2 0x479 DUP2 PUSH2 0x335 JUMP JUMPDEST DUP2 EQ PUSH2 0x484 JUMPI PUSH1 0x0 DUP1 REVERT JUMPDEST POP JUMP INVALID LOG2 PUSH5 0x6970667358 0x22 SLT KECCAK256 GT 0xB9 SWAP9 PUSH13 0x143D49DB19BDE87BB57BA97D55 CALLDATACOPY CALLDATALOAD PUSH29 0x60E561CA1C18C6DF257376B564736F6C63430008070033000000000000 "
				},
				"gasEstimates": {
					"creation": {
						"codeDepositCost": "242600",
						"executionCost": "281",
						"totalCost": "242881"
					},
					"external": {
						"createProduit(string,int16)": "infinite"
					}
				},
				"methodIdentifiers": {
					"createProduit(string,int16)": "51401eef"
				}
			},
			"storageLayout": {
				"storage": [
					{
						"astId": 21,
						"contract": "contracts/ExoSupermarche.sol:supermarche",
						"label": "produits",
						"offset": 0,
						"slot": "0",
						"type": "t_array(t_struct(produit)8_storage)dyn_storage"
					}
				],
				"types": {
					"t_array(t_struct(produit)8_storage)dyn_storage": {
						"base": "t_struct(produit)8_storage",
						"encoding": "dynamic_array",
						"label": "struct supermarche.produit[]",
						"numberOfBytes": "32"
					},
					"t_int16": {
						"encoding": "inplace",
						"label": "int16",
						"numberOfBytes": "2"
					},
					"t_string_storage": {
						"encoding": "bytes",
						"label": "string",
						"numberOfBytes": "32"
					},
					"t_struct(produit)8_storage": {
						"encoding": "inplace",
						"label": "struct supermarche.produit",
						"members": [
							{
								"astId": 3,
								"contract": "contracts/ExoSupermarche.sol:supermarche",
								"label": "_id",
								"offset": 0,
								"slot": "0",
								"type": "t_uint256"
							},
							{
								"astId": 5,
								"contract": "contracts/ExoSupermarche.sol:supermarche",
								"label": "_libelle",
								"offset": 0,
								"slot": "1",
								"type": "t_string_storage"
							},
							{
								"astId": 7,
								"contract": "contracts/ExoSupermarche.sol:supermarche",
								"label": "_prix",
								"offset": 0,
								"slot": "2",
								"type": "t_int16"
							}
						],
						"numberOfBytes": "96"
					},
					"t_uint256": {
						"encoding": "inplace",
						"label": "uint256",
						"numberOfBytes": "32"
					}
				}
			},
			"userdoc": {
				"kind": "user",
				"methods": {},
				"version": 1
			}
		}
	}
}