{
	"contracts/ExoSupermarche.sol": {
		"supermarche": {
			"abi": [
				{
					"inputs": [
						{
							"internalType": "string",
							"name": "_nom",
							"type": "string"
						}
					],
					"name": "createClient",
					"outputs": [],
					"stateMutability": "nonpayable",
					"type": "function"
				},
				{
					"inputs": [
						{
							"internalType": "string",
							"name": "_libelle",
							"type": "string"
						},
						{
							"internalType": "int16",
							"name": "_prix",
							"type": "int16"
						}
					],
					"name": "createProduit",
					"outputs": [],
					"stateMutability": "nonpayable",
					"type": "function"
				},
				{
					"inputs": [],
					"name": "getAllClients",
					"outputs": [
						{
							"components": [
								{
									"internalType": "uint256",
									"name": "_id",
									"type": "uint256"
								},
								{
									"internalType": "string",
									"name": "_nom",
									"type": "string"
								},
								{
									"components": [
										{
											"internalType": "uint256",
											"name": "_id",
											"type": "uint256"
										},
										{
											"internalType": "string",
											"name": "_libelle",
											"type": "string"
										},
										{
											"internalType": "int16",
											"name": "_prix",
											"type": "int16"
										}
									],
									"internalType": "struct supermarche.productData[]",
									"name": "panier",
									"type": "tuple[]"
								}
							],
							"internalType": "struct supermarche.clientData[]",
							"name": "",
							"type": "tuple[]"
						}
					],
					"stateMutability": "view",
					"type": "function"
				},
				{
					"inputs": [],
					"name": "getAllProducts",
					"outputs": [
						{
							"components": [
								{
									"internalType": "uint256",
									"name": "_id",
									"type": "uint256"
								},
								{
									"internalType": "string",
									"name": "_libelle",
									"type": "string"
								},
								{
									"internalType": "int16",
									"name": "_prix",
									"type": "int16"
								}
							],
							"internalType": "struct supermarche.productData[]",
							"name": "",
							"type": "tuple[]"
						}
					],
					"stateMutability": "view",
					"type": "function"
				},
				{
					"inputs": [
						{
							"internalType": "uint256",
							"name": "_id",
							"type": "uint256"
						}
					],
					"name": "getProductById",
					"outputs": [
						{
							"components": [
								{
									"internalType": "uint256",
									"name": "_id",
									"type": "uint256"
								},
								{
									"internalType": "string",
									"name": "_libelle",
									"type": "string"
								},
								{
									"internalType": "int16",
									"name": "_prix",
									"type": "int16"
								}
							],
							"internalType": "struct supermarche.productData",
							"name": "",
							"type": "tuple"
						}
					],
					"stateMutability": "view",
					"type": "function"
				},
				{
					"inputs": [
						{
							"internalType": "string",
							"name": "_name",
							"type": "string"
						}
					],
					"name": "getProductByName",
					"outputs": [
						{
							"components": [
								{
									"internalType": "uint256",
									"name": "_id",
									"type": "uint256"
								},
								{
									"internalType": "string",
									"name": "_libelle",
									"type": "string"
								},
								{
									"internalType": "int16",
									"name": "_prix",
									"type": "int16"
								}
							],
							"internalType": "struct supermarche.productData",
							"name": "",
							"type": "tuple"
						}
					],
					"stateMutability": "view",
					"type": "function"
				},
				{
					"inputs": [
						{
							"internalType": "uint256",
							"name": "",
							"type": "uint256"
						}
					],
					"name": "produitById",
					"outputs": [
						{
							"internalType": "uint256",
							"name": "_id",
							"type": "uint256"
						},
						{
							"internalType": "string",
							"name": "_libelle",
							"type": "string"
						},
						{
							"internalType": "int16",
							"name": "_prix",
							"type": "int16"
						}
					],
					"stateMutability": "view",
					"type": "function"
				},
				{
					"inputs": [
						{
							"internalType": "uint256",
							"name": "_id",
							"type": "uint256"
						},
						{
							"internalType": "string",
							"name": "_libelle",
							"type": "string"
						},
						{
							"internalType": "int16",
							"name": "_prix",
							"type": "int16"
						}
					],
					"name": "setProduct",
					"outputs": [],
					"stateMutability": "nonpayable",
					"type": "function"
				}
			],
			"devdoc": {
				"kind": "dev",
				"methods": {},
				"version": 1
			},
			"evm": {
				"assembly": "    /* \"contracts/ExoSupermarche.sol\":59:1446  contract supermarche {\r... */\n  mstore(0x40, 0x80)\n  callvalue\n  dup1\n  iszero\n  tag_1\n  jumpi\n  0x00\n  dup1\n  revert\ntag_1:\n  pop\n  dataSize(sub_0)\n  dup1\n  dataOffset(sub_0)\n  0x00\n  codecopy\n  0x00\n  return\nstop\n\nsub_0: assembly {\n        /* \"contracts/ExoSupermarche.sol\":59:1446  contract supermarche {\r... */\n      mstore(0x40, 0x80)\n      callvalue\n      dup1\n      iszero\n      tag_1\n      jumpi\n      0x00\n      dup1\n      revert\n    tag_1:\n      pop\n      jumpi(tag_2, lt(calldatasize, 0x04))\n      shr(0xe0, calldataload(0x00))\n      dup1\n      0xd4290f83\n      gt\n      tag_11\n      jumpi\n      dup1\n      0xd4290f83\n      eq\n      tag_7\n      jumpi\n      dup1\n      0xe4d7a3d4\n      eq\n      tag_8\n      jumpi\n      dup1\n      0xe88e9f0f\n      eq\n      tag_9\n      jumpi\n      dup1\n      0xf1cfa6a5\n      eq\n      tag_10\n      jumpi\n      jump(tag_2)\n    tag_11:\n      dup1\n      0x02ee3a52\n      eq\n      tag_3\n      jumpi\n      dup1\n      0x3f48d969\n      eq\n      tag_4\n      jumpi\n      dup1\n      0x3f70c2b4\n      eq\n      tag_5\n      jumpi\n      dup1\n      0x51401eef\n      eq\n      tag_6\n      jumpi\n    tag_2:\n      0x00\n      dup1\n      revert\n        /* \"contracts/ExoSupermarche.sol\":1147:1252  function getAllProducts() public view returns(productData[] memory) {\r... */\n    tag_3:\n      tag_12\n      tag_13\n      jump\t// in\n    tag_12:\n      mload(0x40)\n      tag_14\n      swap2\n      swap1\n      tag_15\n      jump\t// in\n    tag_14:\n      mload(0x40)\n      dup1\n      swap2\n      sub\n      swap1\n      return\n        /* \"contracts/ExoSupermarche.sol\":417:464  mapping(uint => productData) public produitById */\n    tag_4:\n      tag_16\n      0x04\n      dup1\n      calldatasize\n      sub\n      dup2\n      add\n      swap1\n      tag_17\n      swap2\n      swap1\n      tag_18\n      jump\t// in\n    tag_17:\n      tag_19\n      jump\t// in\n    tag_16:\n      mload(0x40)\n      tag_20\n      swap4\n      swap3\n      swap2\n      swap1\n      tag_21\n      jump\t// in\n    tag_20:\n      mload(0x40)\n      dup1\n      swap2\n      sub\n      swap1\n      return\n        /* \"contracts/ExoSupermarche.sol\":882:998  function getProductById(uint _id) public view returns(productData memory) {\r... */\n    tag_5:\n      tag_22\n      0x04\n      dup1\n      calldatasize\n      sub\n      dup2\n      add\n      swap1\n      tag_23\n      swap2\n      swap1\n      tag_18\n      jump\t// in\n    tag_23:\n      tag_24\n      jump\t// in\n    tag_22:\n      mload(0x40)\n      tag_25\n      swap2\n      swap1\n      tag_26\n      jump\t// in\n    tag_25:\n      mload(0x40)\n      dup1\n      swap2\n      sub\n      swap1\n      return\n        /* \"contracts/ExoSupermarche.sol\":560:774  function createProduit(string memory _libelle, int16 _prix) public {\r... */\n    tag_6:\n      tag_27\n      0x04\n      dup1\n      calldatasize\n      sub\n      dup2\n      add\n      swap1\n      tag_28\n      swap2\n      swap1\n      tag_29\n      jump\t// in\n    tag_28:\n      tag_30\n      jump\t// in\n    tag_27:\n      stop\n        /* \"contracts/ExoSupermarche.sol\":1006:1139  function getProductByName(string memory _name) public view returns(productData memory) {\r... */\n    tag_7:\n      tag_31\n      0x04\n      dup1\n      calldatasize\n      sub\n      dup2\n      add\n      swap1\n      tag_32\n      swap2\n      swap1\n      tag_33\n      jump\t// in\n    tag_32:\n      tag_34\n      jump\t// in\n    tag_31:\n      mload(0x40)\n      tag_35\n      swap2\n      swap1\n      tag_26\n      jump\t// in\n    tag_35:\n      mload(0x40)\n      dup1\n      swap2\n      sub\n      swap1\n      return\n        /* \"contracts/ExoSupermarche.sol\":1337:1439  function getAllClients() public view returns(clientData[] memory) {\r... */\n    tag_8:\n      tag_36\n      tag_37\n      jump\t// in\n    tag_36:\n      mload(0x40)\n      tag_38\n      swap2\n      swap1\n      tag_39\n      jump\t// in\n    tag_38:\n      mload(0x40)\n      dup1\n      swap2\n      sub\n      swap1\n      return\n        /* \"contracts/ExoSupermarche.sol\":1260:1329  function createClient(string memory _nom) public {\r... */\n    tag_9:\n      tag_40\n      0x04\n      dup1\n      calldatasize\n      sub\n      dup2\n      add\n      swap1\n      tag_41\n      swap2\n      swap1\n      tag_33\n      jump\t// in\n    tag_41:\n      tag_42\n      jump\t// in\n    tag_40:\n      stop\n        /* \"contracts/ExoSupermarche.sol\":782:874  function setProduct(uint _id, string memory _libelle, int16 _prix) public {\r... */\n    tag_10:\n      tag_43\n      0x04\n      dup1\n      calldatasize\n      sub\n      dup2\n      add\n      swap1\n      tag_44\n      swap2\n      swap1\n      tag_45\n      jump\t// in\n    tag_44:\n      tag_46\n      jump\t// in\n    tag_43:\n      stop\n        /* \"contracts/ExoSupermarche.sol\":1147:1252  function getAllProducts() public view returns(productData[] memory) {\r... */\n    tag_13:\n        /* \"contracts/ExoSupermarche.sol\":1193:1213  productData[] memory */\n      0x60\n        /* \"contracts/ExoSupermarche.sol\":1233:1244  AllProduits */\n      0x00\n        /* \"contracts/ExoSupermarche.sol\":1226:1244  return AllProduits */\n      dup1\n      sload\n      dup1\n      0x20\n      mul\n      0x20\n      add\n      mload(0x40)\n      swap1\n      dup2\n      add\n      0x40\n      mstore\n      dup1\n      swap3\n      swap2\n      swap1\n      dup2\n      dup2\n      mstore\n      0x20\n      add\n      0x00\n      swap1\n    tag_48:\n      dup3\n      dup3\n      lt\n      iszero\n      tag_49\n      jumpi\n      dup4\n      dup3\n      swap1\n      0x00\n      mstore\n      keccak256(0x00, 0x20)\n      swap1\n      0x03\n      mul\n      add\n      mload(0x40)\n      dup1\n      0x60\n      add\n      0x40\n      mstore\n      swap1\n      dup2\n      0x00\n      dup3\n      add\n      sload\n      dup2\n      mstore\n      0x20\n      add\n      0x01\n      dup3\n      add\n      dup1\n      sload\n      tag_51\n      swap1\n      tag_52\n      jump\t// in\n    tag_51:\n      dup1\n      0x1f\n      add\n      0x20\n      dup1\n      swap2\n      div\n      mul\n      0x20\n      add\n      mload(0x40)\n      swap1\n      dup2\n      add\n      0x40\n      mstore\n      dup1\n      swap3\n      swap2\n      swap1\n      dup2\n      dup2\n      mstore\n      0x20\n      add\n      dup3\n      dup1\n      sload\n      tag_53\n      swap1\n      tag_52\n      jump\t// in\n    tag_53:\n      dup1\n      iszero\n      tag_54\n      jumpi\n      dup1\n      0x1f\n      lt\n      tag_55\n      jumpi\n      0x0100\n      dup1\n      dup4\n      sload\n      div\n      mul\n      dup4\n      mstore\n      swap2\n      0x20\n      add\n      swap2\n      jump(tag_54)\n    tag_55:\n      dup3\n      add\n      swap2\n      swap1\n      0x00\n      mstore\n      keccak256(0x00, 0x20)\n      swap1\n    tag_56:\n      dup2\n      sload\n      dup2\n      mstore\n      swap1\n      0x01\n      add\n      swap1\n      0x20\n      add\n      dup1\n      dup4\n      gt\n      tag_56\n      jumpi\n      dup3\n      swap1\n      sub\n      0x1f\n      and\n      dup3\n      add\n      swap2\n    tag_54:\n      pop\n      pop\n      pop\n      pop\n      pop\n      dup2\n      mstore\n      0x20\n      add\n      0x02\n      dup3\n      add\n      0x00\n      swap1\n      sload\n      swap1\n      0x0100\n      exp\n      swap1\n      div\n      0x01\n      signextend\n      0x01\n      signextend\n      0x01\n      signextend\n      dup2\n      mstore\n      pop\n      pop\n      dup2\n      mstore\n      0x20\n      add\n      swap1\n      0x01\n      add\n      swap1\n      jump(tag_48)\n    tag_49:\n      pop\n      pop\n      pop\n      pop\n      swap1\n      pop\n        /* \"contracts/ExoSupermarche.sol\":1147:1252  function getAllProducts() public view returns(productData[] memory) {\r... */\n      swap1\n      jump\t// out\n        /* \"contracts/ExoSupermarche.sol\":417:464  mapping(uint => productData) public produitById */\n    tag_19:\n      mstore(0x20, 0x03)\n      dup1\n      0x00\n      mstore\n      keccak256(0x00, 0x40)\n      0x00\n      swap2\n      pop\n      swap1\n      pop\n      dup1\n      0x00\n      add\n      sload\n      swap1\n      dup1\n      0x01\n      add\n      dup1\n      sload\n      tag_57\n      swap1\n      tag_52\n      jump\t// in\n    tag_57:\n      dup1\n      0x1f\n      add\n      0x20\n      dup1\n      swap2\n      div\n      mul\n      0x20\n      add\n      mload(0x40)\n      swap1\n      dup2\n      add\n      0x40\n      mstore\n      dup1\n      swap3\n      swap2\n      swap1\n      dup2\n      dup2\n      mstore\n      0x20\n      add\n      dup3\n      dup1\n      sload\n      tag_58\n      swap1\n      tag_52\n      jump\t// in\n    tag_58:\n      dup1\n      iszero\n      tag_59\n      jumpi\n      dup1\n      0x1f\n      lt\n      tag_60\n      jumpi\n      0x0100\n      dup1\n      dup4\n      sload\n      div\n      mul\n      dup4\n      mstore\n      swap2\n      0x20\n      add\n      swap2\n      jump(tag_59)\n    tag_60:\n      dup3\n      add\n      swap2\n      swap1\n      0x00\n      mstore\n      keccak256(0x00, 0x20)\n      swap1\n    tag_61:\n      dup2\n      sload\n      dup2\n      mstore\n      swap1\n      0x01\n      add\n      swap1\n      0x20\n      add\n      dup1\n      dup4\n      gt\n      tag_61\n      jumpi\n      dup3\n      swap1\n      sub\n      0x1f\n      and\n      dup3\n      add\n      swap2\n    tag_59:\n      pop\n      pop\n      pop\n      pop\n      pop\n      swap1\n      dup1\n      0x02\n      add\n      0x00\n      swap1\n      sload\n      swap1\n      0x0100\n      exp\n      swap1\n      div\n      0x01\n      signextend\n      swap1\n      pop\n      dup4\n      jump\t// out\n        /* \"contracts/ExoSupermarche.sol\":882:998  function getProductById(uint _id) public view returns(productData memory) {\r... */\n    tag_24:\n        /* \"contracts/ExoSupermarche.sol\":936:954  productData memory */\n      tag_62\n      tag_63\n      jump\t// in\n    tag_62:\n        /* \"contracts/ExoSupermarche.sol\":974:985  produitById */\n      0x03\n        /* \"contracts/ExoSupermarche.sol\":974:990  produitById[_id] */\n      0x00\n        /* \"contracts/ExoSupermarche.sol\":986:989  _id */\n      dup4\n        /* \"contracts/ExoSupermarche.sol\":974:990  produitById[_id] */\n      dup2\n      mstore\n      0x20\n      add\n      swap1\n      dup2\n      mstore\n      0x20\n      add\n      0x00\n      keccak256\n        /* \"contracts/ExoSupermarche.sol\":967:990  return produitById[_id] */\n      mload(0x40)\n      dup1\n      0x60\n      add\n      0x40\n      mstore\n      swap1\n      dup2\n      0x00\n      dup3\n      add\n      sload\n      dup2\n      mstore\n      0x20\n      add\n      0x01\n      dup3\n      add\n      dup1\n      sload\n      tag_65\n      swap1\n      tag_52\n      jump\t// in\n    tag_65:\n      dup1\n      0x1f\n      add\n      0x20\n      dup1\n      swap2\n      div\n      mul\n      0x20\n      add\n      mload(0x40)\n      swap1\n      dup2\n      add\n      0x40\n      mstore\n      dup1\n      swap3\n      swap2\n      swap1\n      dup2\n      dup2\n      mstore\n      0x20\n      add\n      dup3\n      dup1\n      sload\n      tag_66\n      swap1\n      tag_52\n      jump\t// in\n    tag_66:\n      dup1\n      iszero\n      tag_67\n      jumpi\n      dup1\n      0x1f\n      lt\n      tag_68\n      jumpi\n      0x0100\n      dup1\n      dup4\n      sload\n      div\n      mul\n      dup4\n      mstore\n      swap2\n      0x20\n      add\n      swap2\n      jump(tag_67)\n    tag_68:\n      dup3\n      add\n      swap2\n      swap1\n      0x00\n      mstore\n      keccak256(0x00, 0x20)\n      swap1\n    tag_69:\n      dup2\n      sload\n      dup2\n      mstore\n      swap1\n      0x01\n      add\n      swap1\n      0x20\n      add\n      dup1\n      dup4\n      gt\n      tag_69\n      jumpi\n      dup3\n      swap1\n      sub\n      0x1f\n      and\n      dup3\n      add\n      swap2\n    tag_67:\n      pop\n      pop\n      pop\n      pop\n      pop\n      dup2\n      mstore\n      0x20\n      add\n      0x02\n      dup3\n      add\n      0x00\n      swap1\n      sload\n      swap1\n      0x0100\n      exp\n      swap1\n      div\n      0x01\n      signextend\n      0x01\n      signextend\n      0x01\n      signextend\n      dup2\n      mstore\n      pop\n      pop\n      swap1\n      pop\n        /* \"contracts/ExoSupermarche.sol\":882:998  function getProductById(uint _id) public view returns(productData memory) {\r... */\n      swap2\n      swap1\n      pop\n      jump\t// out\n        /* \"contracts/ExoSupermarche.sol\":560:774  function createProduit(string memory _libelle, int16 _prix) public {\r... */\n    tag_30:\n        /* \"contracts/ExoSupermarche.sol\":638:645  uint id */\n      0x00\n        /* \"contracts/ExoSupermarche.sol\":669:670  1 */\n      0x01\n        /* \"contracts/ExoSupermarche.sol\":648:659  AllProduits */\n      0x00\n        /* \"contracts/ExoSupermarche.sol\":648:666  AllProduits.length */\n      dup1\n      sload\n      swap1\n      pop\n        /* \"contracts/ExoSupermarche.sol\":648:670  AllProduits.length + 1 */\n      tag_71\n      swap2\n      swap1\n      tag_72\n      jump\t// in\n    tag_71:\n        /* \"contracts/ExoSupermarche.sol\":638:670  uint id = AllProduits.length + 1 */\n      swap1\n      pop\n        /* \"contracts/ExoSupermarche.sol\":681:701  productData memory p */\n      0x00\n        /* \"contracts/ExoSupermarche.sol\":704:736  productData(id, _libelle, _prix) */\n      mload(0x40)\n      dup1\n      0x60\n      add\n      0x40\n      mstore\n      dup1\n        /* \"contracts/ExoSupermarche.sol\":716:718  id */\n      dup4\n        /* \"contracts/ExoSupermarche.sol\":704:736  productData(id, _libelle, _prix) */\n      dup2\n      mstore\n      0x20\n      add\n        /* \"contracts/ExoSupermarche.sol\":720:728  _libelle */\n      dup6\n        /* \"contracts/ExoSupermarche.sol\":704:736  productData(id, _libelle, _prix) */\n      dup2\n      mstore\n      0x20\n      add\n        /* \"contracts/ExoSupermarche.sol\":730:735  _prix */\n      dup5\n        /* \"contracts/ExoSupermarche.sol\":704:736  productData(id, _libelle, _prix) */\n      0x01\n      signextend\n      dup2\n      mstore\n      pop\n        /* \"contracts/ExoSupermarche.sol\":681:736  productData memory p = productData(id, _libelle, _prix) */\n      swap1\n      pop\n        /* \"contracts/ExoSupermarche.sol\":747:758  AllProduits */\n      0x00\n        /* \"contracts/ExoSupermarche.sol\":764:765  p */\n      dup2\n        /* \"contracts/ExoSupermarche.sol\":747:766  AllProduits.push(p) */\n      swap1\n      dup1\n      0x01\n      dup2\n      sload\n      add\n      dup1\n      dup3\n      sstore\n      dup1\n      swap2\n      pop\n      pop\n      0x01\n      swap1\n      sub\n      swap1\n      0x00\n      mstore\n      keccak256(0x00, 0x20)\n      swap1\n      0x03\n      mul\n      add\n      0x00\n      swap1\n      swap2\n      swap1\n      swap2\n      swap1\n      swap2\n      pop\n      0x00\n      dup3\n      add\n      mload\n      dup2\n      0x00\n      add\n      sstore\n      0x20\n      dup3\n      add\n      mload\n      dup2\n      0x01\n      add\n      swap1\n      dup1\n      mload\n      swap1\n      0x20\n      add\n      swap1\n      tag_74\n      swap3\n      swap2\n      swap1\n      tag_75\n      jump\t// in\n    tag_74:\n      pop\n      0x40\n      dup3\n      add\n      mload\n      dup2\n      0x02\n      add\n      exp(0x0100, 0x00)\n      dup2\n      sload\n      dup2\n      0xffff\n      mul\n      not\n      and\n      swap1\n      dup4\n      0x01\n      signextend\n      0xffff\n      and\n      mul\n      or\n      swap1\n      sstore\n      pop\n      pop\n      pop\n        /* \"contracts/ExoSupermarche.sol\":627:774  {\r... */\n      pop\n      pop\n        /* \"contracts/ExoSupermarche.sol\":560:774  function createProduit(string memory _libelle, int16 _prix) public {\r... */\n      pop\n      pop\n      jump\t// out\n        /* \"contracts/ExoSupermarche.sol\":1006:1139  function getProductByName(string memory _name) public view returns(productData memory) {\r... */\n    tag_34:\n        /* \"contracts/ExoSupermarche.sol\":1073:1091  productData memory */\n      tag_76\n      tag_63\n      jump\t// in\n    tag_76:\n        /* \"contracts/ExoSupermarche.sol\":1111:1124  produitByName */\n      0x04\n        /* \"contracts/ExoSupermarche.sol\":1125:1130  _name */\n      dup3\n        /* \"contracts/ExoSupermarche.sol\":1111:1131  produitByName[_name] */\n      mload(0x40)\n      tag_78\n      swap2\n      swap1\n      tag_79\n      jump\t// in\n    tag_78:\n      swap1\n      dup2\n      mstore\n      0x20\n      add\n      mload(0x40)\n      dup1\n      swap2\n      sub\n      swap1\n      keccak256\n        /* \"contracts/ExoSupermarche.sol\":1104:1131  return produitByName[_name] */\n      mload(0x40)\n      dup1\n      0x60\n      add\n      0x40\n      mstore\n      swap1\n      dup2\n      0x00\n      dup3\n      add\n      sload\n      dup2\n      mstore\n      0x20\n      add\n      0x01\n      dup3\n      add\n      dup1\n      sload\n      tag_80\n      swap1\n      tag_52\n      jump\t// in\n    tag_80:\n      dup1\n      0x1f\n      add\n      0x20\n      dup1\n      swap2\n      div\n      mul\n      0x20\n      add\n      mload(0x40)\n      swap1\n      dup2\n      add\n      0x40\n      mstore\n      dup1\n      swap3\n      swap2\n      swap1\n      dup2\n      dup2\n      mstore\n      0x20\n      add\n      dup3\n      dup1\n      sload\n      tag_81\n      swap1\n      tag_52\n      jump\t// in\n    tag_81:\n      dup1\n      iszero\n      tag_82\n      jumpi\n      dup1\n      0x1f\n      lt\n      tag_83\n      jumpi\n      0x0100\n      dup1\n      dup4\n      sload\n      div\n      mul\n      dup4\n      mstore\n      swap2\n      0x20\n      add\n      swap2\n      jump(tag_82)\n    tag_83:\n      dup3\n      add\n      swap2\n      swap1\n      0x00\n      mstore\n      keccak256(0x00, 0x20)\n      swap1\n    tag_84:\n      dup2\n      sload\n      dup2\n      mstore\n      swap1\n      0x01\n      add\n      swap1\n      0x20\n      add\n      dup1\n      dup4\n      gt\n      tag_84\n      jumpi\n      dup3\n      swap1\n      sub\n      0x1f\n      and\n      dup3\n      add\n      swap2\n    tag_82:\n      pop\n      pop\n      pop\n      pop\n      pop\n      dup2\n      mstore\n      0x20\n      add\n      0x02\n      dup3\n      add\n      0x00\n      swap1\n      sload\n      swap1\n      0x0100\n      exp\n      swap1\n      div\n      0x01\n      signextend\n      0x01\n      signextend\n      0x01\n      signextend\n      dup2\n      mstore\n      pop\n      pop\n      swap1\n      pop\n        /* \"contracts/ExoSupermarche.sol\":1006:1139  function getProductByName(string memory _name) public view returns(productData memory) {\r... */\n      swap2\n      swap1\n      pop\n      jump\t// out\n        /* \"contracts/ExoSupermarche.sol\":1337:1439  function getAllClients() public view returns(clientData[] memory) {\r... */\n    tag_37:\n        /* \"contracts/ExoSupermarche.sol\":1382:1401  clientData[] memory */\n      0x60\n        /* \"contracts/ExoSupermarche.sol\":1421:1431  AllClients */\n      0x01\n        /* \"contracts/ExoSupermarche.sol\":1414:1431  return AllClients */\n      dup1\n      sload\n      dup1\n      0x20\n      mul\n      0x20\n      add\n      mload(0x40)\n      swap1\n      dup2\n      add\n      0x40\n      mstore\n      dup1\n      swap3\n      swap2\n      swap1\n      dup2\n      dup2\n      mstore\n      0x20\n      add\n      0x00\n      swap1\n    tag_86:\n      dup3\n      dup3\n      lt\n      iszero\n      tag_87\n      jumpi\n      dup4\n      dup3\n      swap1\n      0x00\n      mstore\n      keccak256(0x00, 0x20)\n      swap1\n      0x03\n      mul\n      add\n      mload(0x40)\n      dup1\n      0x60\n      add\n      0x40\n      mstore\n      swap1\n      dup2\n      0x00\n      dup3\n      add\n      sload\n      dup2\n      mstore\n      0x20\n      add\n      0x01\n      dup3\n      add\n      dup1\n      sload\n      tag_89\n      swap1\n      tag_52\n      jump\t// in\n    tag_89:\n      dup1\n      0x1f\n      add\n      0x20\n      dup1\n      swap2\n      div\n      mul\n      0x20\n      add\n      mload(0x40)\n      swap1\n      dup2\n      add\n      0x40\n      mstore\n      dup1\n      swap3\n      swap2\n      swap1\n      dup2\n      dup2\n      mstore\n      0x20\n      add\n      dup3\n      dup1\n      sload\n      tag_90\n      swap1\n      tag_52\n      jump\t// in\n    tag_90:\n      dup1\n      iszero\n      tag_91\n      jumpi\n      dup1\n      0x1f\n      lt\n      tag_92\n      jumpi\n      0x0100\n      dup1\n      dup4\n      sload\n      div\n      mul\n      dup4\n      mstore\n      swap2\n      0x20\n      add\n      swap2\n      jump(tag_91)\n    tag_92:\n      dup3\n      add\n      swap2\n      swap1\n      0x00\n      mstore\n      keccak256(0x00, 0x20)\n      swap1\n    tag_93:\n      dup2\n      sload\n      dup2\n      mstore\n      swap1\n      0x01\n      add\n      swap1\n      0x20\n      add\n      dup1\n      dup4\n      gt\n      tag_93\n      jumpi\n      dup3\n      swap1\n      sub\n      0x1f\n      and\n      dup3\n      add\n      swap2\n    tag_91:\n      pop\n      pop\n      pop\n      pop\n      pop\n      dup2\n      mstore\n      0x20\n      add\n      0x02\n      dup3\n      add\n      dup1\n      sload\n      dup1\n      0x20\n      mul\n      0x20\n      add\n      mload(0x40)\n      swap1\n      dup2\n      add\n      0x40\n      mstore\n      dup1\n      swap3\n      swap2\n      swap1\n      dup2\n      dup2\n      mstore\n      0x20\n      add\n      0x00\n      swap1\n    tag_94:\n      dup3\n      dup3\n      lt\n      iszero\n      tag_95\n      jumpi\n      dup4\n      dup3\n      swap1\n      0x00\n      mstore\n      keccak256(0x00, 0x20)\n      swap1\n      0x03\n      mul\n      add\n      mload(0x40)\n      dup1\n      0x60\n      add\n      0x40\n      mstore\n      swap1\n      dup2\n      0x00\n      dup3\n      add\n      sload\n      dup2\n      mstore\n      0x20\n      add\n      0x01\n      dup3\n      add\n      dup1\n      sload\n      tag_97\n      swap1\n      tag_52\n      jump\t// in\n    tag_97:\n      dup1\n      0x1f\n      add\n      0x20\n      dup1\n      swap2\n      div\n      mul\n      0x20\n      add\n      mload(0x40)\n      swap1\n      dup2\n      add\n      0x40\n      mstore\n      dup1\n      swap3\n      swap2\n      swap1\n      dup2\n      dup2\n      mstore\n      0x20\n      add\n      dup3\n      dup1\n      sload\n      tag_98\n      swap1\n      tag_52\n      jump\t// in\n    tag_98:\n      dup1\n      iszero\n      tag_99\n      jumpi\n      dup1\n      0x1f\n      lt\n      tag_100\n      jumpi\n      0x0100\n      dup1\n      dup4\n      sload\n      div\n      mul\n      dup4\n      mstore\n      swap2\n      0x20\n      add\n      swap2\n      jump(tag_99)\n    tag_100:\n      dup3\n      add\n      swap2\n      swap1\n      0x00\n      mstore\n      keccak256(0x00, 0x20)\n      swap1\n    tag_101:\n      dup2\n      sload\n      dup2\n      mstore\n      swap1\n      0x01\n      add\n      swap1\n      0x20\n      add\n      dup1\n      dup4\n      gt\n      tag_101\n      jumpi\n      dup3\n      swap1\n      sub\n      0x1f\n      and\n      dup3\n      add\n      swap2\n    tag_99:\n      pop\n      pop\n      pop\n      pop\n      pop\n      dup2\n      mstore\n      0x20\n      add\n      0x02\n      dup3\n      add\n      0x00\n      swap1\n      sload\n      swap1\n      0x0100\n      exp\n      swap1\n      div\n      0x01\n      signextend\n      0x01\n      signextend\n      0x01\n      signextend\n      dup2\n      mstore\n      pop\n      pop\n      dup2\n      mstore\n      0x20\n      add\n      swap1\n      0x01\n      add\n      swap1\n      jump(tag_94)\n    tag_95:\n      pop\n      pop\n      pop\n      pop\n      dup2\n      mstore\n      pop\n      pop\n      dup2\n      mstore\n      0x20\n      add\n      swap1\n      0x01\n      add\n      swap1\n      jump(tag_86)\n    tag_87:\n      pop\n      pop\n      pop\n      pop\n      swap1\n      pop\n        /* \"contracts/ExoSupermarche.sol\":1337:1439  function getAllClients() public view returns(clientData[] memory) {\r... */\n      swap1\n      jump\t// out\n        /* \"contracts/ExoSupermarche.sol\":1260:1329  function createClient(string memory _nom) public {\r... */\n    tag_42:\n      pop\n      jump\t// out\n        /* \"contracts/ExoSupermarche.sol\":782:874  function setProduct(uint _id, string memory _libelle, int16 _prix) public {\r... */\n    tag_46:\n      pop\n      pop\n      pop\n      jump\t// out\n    tag_63:\n      mload(0x40)\n      dup1\n      0x60\n      add\n      0x40\n      mstore\n      dup1\n      0x00\n      dup2\n      mstore\n      0x20\n      add\n      0x60\n      dup2\n      mstore\n      0x20\n      add\n      signextend(0x01, 0x00)\n      dup2\n      mstore\n      pop\n      swap1\n      jump\t// out\n    tag_75:\n      dup3\n      dup1\n      sload\n      tag_104\n      swap1\n      tag_52\n      jump\t// in\n    tag_104:\n      swap1\n      0x00\n      mstore\n      keccak256(0x00, 0x20)\n      swap1\n      0x1f\n      add\n      0x20\n      swap1\n      div\n      dup2\n      add\n      swap3\n      dup3\n      tag_106\n      jumpi\n      0x00\n      dup6\n      sstore\n      jump(tag_105)\n    tag_106:\n      dup3\n      0x1f\n      lt\n      tag_107\n      jumpi\n      dup1\n      mload\n      not(0xff)\n      and\n      dup4\n      dup1\n      add\n      or\n      dup6\n      sstore\n      jump(tag_105)\n    tag_107:\n      dup3\n      dup1\n      add\n      0x01\n      add\n      dup6\n      sstore\n      dup3\n      iszero\n      tag_105\n      jumpi\n      swap2\n      dup3\n      add\n    tag_108:\n      dup3\n      dup2\n      gt\n      iszero\n      tag_109\n      jumpi\n      dup3\n      mload\n      dup3\n      sstore\n      swap2\n      0x20\n      add\n      swap2\n      swap1\n      0x01\n      add\n      swap1\n      jump(tag_108)\n    tag_109:\n    tag_105:\n      pop\n      swap1\n      pop\n      tag_110\n      swap2\n      swap1\n      tag_111\n      jump\t// in\n    tag_110:\n      pop\n      swap1\n      jump\t// out\n    tag_111:\n    tag_112:\n      dup1\n      dup3\n      gt\n      iszero\n      tag_113\n      jumpi\n      0x00\n      dup2\n      0x00\n      swap1\n      sstore\n      pop\n      0x01\n      add\n      jump(tag_112)\n    tag_113:\n      pop\n      swap1\n      jump\t// out\n        /* \"#utility.yul\":7:419   */\n    tag_115:\n        /* \"#utility.yul\":85:90   */\n      0x00\n        /* \"#utility.yul\":110:176   */\n      tag_117\n        /* \"#utility.yul\":126:175   */\n      tag_118\n        /* \"#utility.yul\":168:174   */\n      dup5\n        /* \"#utility.yul\":126:175   */\n      tag_119\n      jump\t// in\n    tag_118:\n        /* \"#utility.yul\":110:176   */\n      tag_120\n      jump\t// in\n    tag_117:\n        /* \"#utility.yul\":101:176   */\n      swap1\n      pop\n        /* \"#utility.yul\":199:205   */\n      dup3\n        /* \"#utility.yul\":192:197   */\n      dup2\n        /* \"#utility.yul\":185:206   */\n      mstore\n        /* \"#utility.yul\":237:241   */\n      0x20\n        /* \"#utility.yul\":230:235   */\n      dup2\n        /* \"#utility.yul\":226:242   */\n      add\n        /* \"#utility.yul\":275:278   */\n      dup5\n        /* \"#utility.yul\":266:272   */\n      dup5\n        /* \"#utility.yul\":261:264   */\n      dup5\n        /* \"#utility.yul\":257:273   */\n      add\n        /* \"#utility.yul\":254:279   */\n      gt\n        /* \"#utility.yul\":251:363   */\n      iszero\n      tag_121\n      jumpi\n        /* \"#utility.yul\":282:361   */\n      tag_122\n      tag_123\n      jump\t// in\n    tag_122:\n        /* \"#utility.yul\":251:363   */\n    tag_121:\n        /* \"#utility.yul\":372:413   */\n      tag_124\n        /* \"#utility.yul\":406:412   */\n      dup5\n        /* \"#utility.yul\":401:404   */\n      dup3\n        /* \"#utility.yul\":396:399   */\n      dup6\n        /* \"#utility.yul\":372:413   */\n      tag_125\n      jump\t// in\n    tag_124:\n        /* \"#utility.yul\":91:419   */\n      pop\n        /* \"#utility.yul\":7:419   */\n      swap4\n      swap3\n      pop\n      pop\n      pop\n      jump\t// out\n        /* \"#utility.yul\":425:560   */\n    tag_126:\n        /* \"#utility.yul\":469:474   */\n      0x00\n        /* \"#utility.yul\":507:513   */\n      dup2\n        /* \"#utility.yul\":494:514   */\n      calldataload\n        /* \"#utility.yul\":485:514   */\n      swap1\n      pop\n        /* \"#utility.yul\":523:554   */\n      tag_128\n        /* \"#utility.yul\":548:553   */\n      dup2\n        /* \"#utility.yul\":523:554   */\n      tag_129\n      jump\t// in\n    tag_128:\n        /* \"#utility.yul\":425:560   */\n      swap3\n      swap2\n      pop\n      pop\n      jump\t// out\n        /* \"#utility.yul\":580:920   */\n    tag_130:\n        /* \"#utility.yul\":636:641   */\n      0x00\n        /* \"#utility.yul\":685:688   */\n      dup3\n        /* \"#utility.yul\":678:682   */\n      0x1f\n        /* \"#utility.yul\":670:676   */\n      dup4\n        /* \"#utility.yul\":666:683   */\n      add\n        /* \"#utility.yul\":662:689   */\n      slt\n        /* \"#utility.yul\":652:774   */\n      tag_132\n      jumpi\n        /* \"#utility.yul\":693:772   */\n      tag_133\n      tag_134\n      jump\t// in\n    tag_133:\n        /* \"#utility.yul\":652:774   */\n    tag_132:\n        /* \"#utility.yul\":810:816   */\n      dup2\n        /* \"#utility.yul\":797:817   */\n      calldataload\n        /* \"#utility.yul\":835:914   */\n      tag_135\n        /* \"#utility.yul\":910:913   */\n      dup5\n        /* \"#utility.yul\":902:908   */\n      dup3\n        /* \"#utility.yul\":895:899   */\n      0x20\n        /* \"#utility.yul\":887:893   */\n      dup7\n        /* \"#utility.yul\":883:900   */\n      add\n        /* \"#utility.yul\":835:914   */\n      tag_115\n      jump\t// in\n    tag_135:\n        /* \"#utility.yul\":826:914   */\n      swap2\n      pop\n        /* \"#utility.yul\":642:920   */\n      pop\n        /* \"#utility.yul\":580:920   */\n      swap3\n      swap2\n      pop\n      pop\n      jump\t// out\n        /* \"#utility.yul\":926:1065   */\n    tag_136:\n        /* \"#utility.yul\":972:977   */\n      0x00\n        /* \"#utility.yul\":1010:1016   */\n      dup2\n        /* \"#utility.yul\":997:1017   */\n      calldataload\n        /* \"#utility.yul\":988:1017   */\n      swap1\n      pop\n        /* \"#utility.yul\":1026:1059   */\n      tag_138\n        /* \"#utility.yul\":1053:1058   */\n      dup2\n        /* \"#utility.yul\":1026:1059   */\n      tag_139\n      jump\t// in\n    tag_138:\n        /* \"#utility.yul\":926:1065   */\n      swap3\n      swap2\n      pop\n      pop\n      jump\t// out\n        /* \"#utility.yul\":1071:1580   */\n    tag_33:\n        /* \"#utility.yul\":1140:1146   */\n      0x00\n        /* \"#utility.yul\":1189:1191   */\n      0x20\n        /* \"#utility.yul\":1177:1186   */\n      dup3\n        /* \"#utility.yul\":1168:1175   */\n      dup5\n        /* \"#utility.yul\":1164:1187   */\n      sub\n        /* \"#utility.yul\":1160:1192   */\n      slt\n        /* \"#utility.yul\":1157:1276   */\n      iszero\n      tag_141\n      jumpi\n        /* \"#utility.yul\":1195:1274   */\n      tag_142\n      tag_143\n      jump\t// in\n    tag_142:\n        /* \"#utility.yul\":1157:1276   */\n    tag_141:\n        /* \"#utility.yul\":1343:1344   */\n      0x00\n        /* \"#utility.yul\":1332:1341   */\n      dup3\n        /* \"#utility.yul\":1328:1345   */\n      add\n        /* \"#utility.yul\":1315:1346   */\n      calldataload\n        /* \"#utility.yul\":1373:1391   */\n      0xffffffffffffffff\n        /* \"#utility.yul\":1365:1371   */\n      dup2\n        /* \"#utility.yul\":1362:1392   */\n      gt\n        /* \"#utility.yul\":1359:1476   */\n      iszero\n      tag_144\n      jumpi\n        /* \"#utility.yul\":1395:1474   */\n      tag_145\n      tag_146\n      jump\t// in\n    tag_145:\n        /* \"#utility.yul\":1359:1476   */\n    tag_144:\n        /* \"#utility.yul\":1500:1563   */\n      tag_147\n        /* \"#utility.yul\":1555:1562   */\n      dup5\n        /* \"#utility.yul\":1546:1552   */\n      dup3\n        /* \"#utility.yul\":1535:1544   */\n      dup6\n        /* \"#utility.yul\":1531:1553   */\n      add\n        /* \"#utility.yul\":1500:1563   */\n      tag_130\n      jump\t// in\n    tag_147:\n        /* \"#utility.yul\":1490:1563   */\n      swap2\n      pop\n        /* \"#utility.yul\":1286:1573   */\n      pop\n        /* \"#utility.yul\":1071:1580   */\n      swap3\n      swap2\n      pop\n      pop\n      jump\t// out\n        /* \"#utility.yul\":1586:2236   */\n    tag_29:\n        /* \"#utility.yul\":1662:1668   */\n      0x00\n        /* \"#utility.yul\":1670:1676   */\n      dup1\n        /* \"#utility.yul\":1719:1721   */\n      0x40\n        /* \"#utility.yul\":1707:1716   */\n      dup4\n        /* \"#utility.yul\":1698:1705   */\n      dup6\n        /* \"#utility.yul\":1694:1717   */\n      sub\n        /* \"#utility.yul\":1690:1722   */\n      slt\n        /* \"#utility.yul\":1687:1806   */\n      iszero\n      tag_149\n      jumpi\n        /* \"#utility.yul\":1725:1804   */\n      tag_150\n      tag_143\n      jump\t// in\n    tag_150:\n        /* \"#utility.yul\":1687:1806   */\n    tag_149:\n        /* \"#utility.yul\":1873:1874   */\n      0x00\n        /* \"#utility.yul\":1862:1871   */\n      dup4\n        /* \"#utility.yul\":1858:1875   */\n      add\n        /* \"#utility.yul\":1845:1876   */\n      calldataload\n        /* \"#utility.yul\":1903:1921   */\n      0xffffffffffffffff\n        /* \"#utility.yul\":1895:1901   */\n      dup2\n        /* \"#utility.yul\":1892:1922   */\n      gt\n        /* \"#utility.yul\":1889:2006   */\n      iszero\n      tag_151\n      jumpi\n        /* \"#utility.yul\":1925:2004   */\n      tag_152\n      tag_146\n      jump\t// in\n    tag_152:\n        /* \"#utility.yul\":1889:2006   */\n    tag_151:\n        /* \"#utility.yul\":2030:2093   */\n      tag_153\n        /* \"#utility.yul\":2085:2092   */\n      dup6\n        /* \"#utility.yul\":2076:2082   */\n      dup3\n        /* \"#utility.yul\":2065:2074   */\n      dup7\n        /* \"#utility.yul\":2061:2083   */\n      add\n        /* \"#utility.yul\":2030:2093   */\n      tag_130\n      jump\t// in\n    tag_153:\n        /* \"#utility.yul\":2020:2093   */\n      swap3\n      pop\n        /* \"#utility.yul\":1816:2103   */\n      pop\n        /* \"#utility.yul\":2142:2144   */\n      0x20\n        /* \"#utility.yul\":2168:2219   */\n      tag_154\n        /* \"#utility.yul\":2211:2218   */\n      dup6\n        /* \"#utility.yul\":2202:2208   */\n      dup3\n        /* \"#utility.yul\":2191:2200   */\n      dup7\n        /* \"#utility.yul\":2187:2209   */\n      add\n        /* \"#utility.yul\":2168:2219   */\n      tag_126\n      jump\t// in\n    tag_154:\n        /* \"#utility.yul\":2158:2219   */\n      swap2\n      pop\n        /* \"#utility.yul\":2113:2229   */\n      pop\n        /* \"#utility.yul\":1586:2236   */\n      swap3\n      pop\n      swap3\n      swap1\n      pop\n      jump\t// out\n        /* \"#utility.yul\":2242:2571   */\n    tag_18:\n        /* \"#utility.yul\":2301:2307   */\n      0x00\n        /* \"#utility.yul\":2350:2352   */\n      0x20\n        /* \"#utility.yul\":2338:2347   */\n      dup3\n        /* \"#utility.yul\":2329:2336   */\n      dup5\n        /* \"#utility.yul\":2325:2348   */\n      sub\n        /* \"#utility.yul\":2321:2353   */\n      slt\n        /* \"#utility.yul\":2318:2437   */\n      iszero\n      tag_156\n      jumpi\n        /* \"#utility.yul\":2356:2435   */\n      tag_157\n      tag_143\n      jump\t// in\n    tag_157:\n        /* \"#utility.yul\":2318:2437   */\n    tag_156:\n        /* \"#utility.yul\":2476:2477   */\n      0x00\n        /* \"#utility.yul\":2501:2554   */\n      tag_158\n        /* \"#utility.yul\":2546:2553   */\n      dup5\n        /* \"#utility.yul\":2537:2543   */\n      dup3\n        /* \"#utility.yul\":2526:2535   */\n      dup6\n        /* \"#utility.yul\":2522:2544   */\n      add\n        /* \"#utility.yul\":2501:2554   */\n      tag_136\n      jump\t// in\n    tag_158:\n        /* \"#utility.yul\":2491:2554   */\n      swap2\n      pop\n        /* \"#utility.yul\":2447:2564   */\n      pop\n        /* \"#utility.yul\":2242:2571   */\n      swap3\n      swap2\n      pop\n      pop\n      jump\t// out\n        /* \"#utility.yul\":2577:3372   */\n    tag_45:\n        /* \"#utility.yul\":2662:2668   */\n      0x00\n        /* \"#utility.yul\":2670:2676   */\n      dup1\n        /* \"#utility.yul\":2678:2684   */\n      0x00\n        /* \"#utility.yul\":2727:2729   */\n      0x60\n        /* \"#utility.yul\":2715:2724   */\n      dup5\n        /* \"#utility.yul\":2706:2713   */\n      dup7\n        /* \"#utility.yul\":2702:2725   */\n      sub\n        /* \"#utility.yul\":2698:2730   */\n      slt\n        /* \"#utility.yul\":2695:2814   */\n      iszero\n      tag_160\n      jumpi\n        /* \"#utility.yul\":2733:2812   */\n      tag_161\n      tag_143\n      jump\t// in\n    tag_161:\n        /* \"#utility.yul\":2695:2814   */\n    tag_160:\n        /* \"#utility.yul\":2853:2854   */\n      0x00\n        /* \"#utility.yul\":2878:2931   */\n      tag_162\n        /* \"#utility.yul\":2923:2930   */\n      dup7\n        /* \"#utility.yul\":2914:2920   */\n      dup3\n        /* \"#utility.yul\":2903:2912   */\n      dup8\n        /* \"#utility.yul\":2899:2921   */\n      add\n        /* \"#utility.yul\":2878:2931   */\n      tag_136\n      jump\t// in\n    tag_162:\n        /* \"#utility.yul\":2868:2931   */\n      swap4\n      pop\n        /* \"#utility.yul\":2824:2941   */\n      pop\n        /* \"#utility.yul\":3008:3010   */\n      0x20\n        /* \"#utility.yul\":2997:3006   */\n      dup5\n        /* \"#utility.yul\":2993:3011   */\n      add\n        /* \"#utility.yul\":2980:3012   */\n      calldataload\n        /* \"#utility.yul\":3039:3057   */\n      0xffffffffffffffff\n        /* \"#utility.yul\":3031:3037   */\n      dup2\n        /* \"#utility.yul\":3028:3058   */\n      gt\n        /* \"#utility.yul\":3025:3142   */\n      iszero\n      tag_163\n      jumpi\n        /* \"#utility.yul\":3061:3140   */\n      tag_164\n      tag_146\n      jump\t// in\n    tag_164:\n        /* \"#utility.yul\":3025:3142   */\n    tag_163:\n        /* \"#utility.yul\":3166:3229   */\n      tag_165\n        /* \"#utility.yul\":3221:3228   */\n      dup7\n        /* \"#utility.yul\":3212:3218   */\n      dup3\n        /* \"#utility.yul\":3201:3210   */\n      dup8\n        /* \"#utility.yul\":3197:3219   */\n      add\n        /* \"#utility.yul\":3166:3229   */\n      tag_130\n      jump\t// in\n    tag_165:\n        /* \"#utility.yul\":3156:3229   */\n      swap3\n      pop\n        /* \"#utility.yul\":2951:3239   */\n      pop\n        /* \"#utility.yul\":3278:3280   */\n      0x40\n        /* \"#utility.yul\":3304:3355   */\n      tag_166\n        /* \"#utility.yul\":3347:3354   */\n      dup7\n        /* \"#utility.yul\":3338:3344   */\n      dup3\n        /* \"#utility.yul\":3327:3336   */\n      dup8\n        /* \"#utility.yul\":3323:3345   */\n      add\n        /* \"#utility.yul\":3304:3355   */\n      tag_126\n      jump\t// in\n    tag_166:\n        /* \"#utility.yul\":3294:3355   */\n      swap2\n      pop\n        /* \"#utility.yul\":3249:3365   */\n      pop\n        /* \"#utility.yul\":2577:3372   */\n      swap3\n      pop\n      swap3\n      pop\n      swap3\n      jump\t// out\n        /* \"#utility.yul\":3378:3638   */\n    tag_167:\n        /* \"#utility.yul\":3499:3509   */\n      0x00\n        /* \"#utility.yul\":3534:3632   */\n      tag_169\n        /* \"#utility.yul\":3628:3631   */\n      dup4\n        /* \"#utility.yul\":3620:3626   */\n      dup4\n        /* \"#utility.yul\":3534:3632   */\n      tag_170\n      jump\t// in\n    tag_169:\n        /* \"#utility.yul\":3520:3632   */\n      swap1\n      pop\n        /* \"#utility.yul\":3378:3638   */\n      swap3\n      swap2\n      pop\n      pop\n      jump\t// out\n        /* \"#utility.yul\":3644:3904   */\n    tag_171:\n        /* \"#utility.yul\":3765:3775   */\n      0x00\n        /* \"#utility.yul\":3800:3898   */\n      tag_173\n        /* \"#utility.yul\":3894:3897   */\n      dup4\n        /* \"#utility.yul\":3886:3892   */\n      dup4\n        /* \"#utility.yul\":3800:3898   */\n      tag_174\n      jump\t// in\n    tag_173:\n        /* \"#utility.yul\":3786:3898   */\n      swap1\n      pop\n        /* \"#utility.yul\":3644:3904   */\n      swap3\n      swap2\n      pop\n      pop\n      jump\t// out\n        /* \"#utility.yul\":3984:5103   */\n    tag_175:\n        /* \"#utility.yul\":4155:4158   */\n      0x00\n        /* \"#utility.yul\":4184:4264   */\n      tag_177\n        /* \"#utility.yul\":4258:4263   */\n      dup3\n        /* \"#utility.yul\":4184:4264   */\n      tag_178\n      jump\t// in\n    tag_177:\n        /* \"#utility.yul\":4280:4392   */\n      tag_179\n        /* \"#utility.yul\":4385:4391   */\n      dup2\n        /* \"#utility.yul\":4380:4383   */\n      dup6\n        /* \"#utility.yul\":4280:4392   */\n      tag_180\n      jump\t// in\n    tag_179:\n        /* \"#utility.yul\":4273:4392   */\n      swap4\n      pop\n        /* \"#utility.yul\":4418:4421   */\n      dup4\n        /* \"#utility.yul\":4463:4467   */\n      0x20\n        /* \"#utility.yul\":4455:4461   */\n      dup3\n        /* \"#utility.yul\":4451:4468   */\n      mul\n        /* \"#utility.yul\":4446:4449   */\n      dup6\n        /* \"#utility.yul\":4442:4469   */\n      add\n        /* \"#utility.yul\":4493:4575   */\n      tag_181\n        /* \"#utility.yul\":4569:4574   */\n      dup6\n        /* \"#utility.yul\":4493:4575   */\n      tag_182\n      jump\t// in\n    tag_181:\n        /* \"#utility.yul\":4598:4605   */\n      dup1\n        /* \"#utility.yul\":4629:4630   */\n      0x00\n        /* \"#utility.yul\":4614:5058   */\n    tag_183:\n        /* \"#utility.yul\":4639:4645   */\n      dup6\n        /* \"#utility.yul\":4636:4637   */\n      dup2\n        /* \"#utility.yul\":4633:4646   */\n      lt\n        /* \"#utility.yul\":4614:5058   */\n      iszero\n      tag_185\n      jumpi\n        /* \"#utility.yul\":4710:4719   */\n      dup5\n        /* \"#utility.yul\":4704:4708   */\n      dup5\n        /* \"#utility.yul\":4700:4720   */\n      sub\n        /* \"#utility.yul\":4695:4698   */\n      dup10\n        /* \"#utility.yul\":4688:4721   */\n      mstore\n        /* \"#utility.yul\":4761:4767   */\n      dup2\n        /* \"#utility.yul\":4755:4768   */\n      mload\n        /* \"#utility.yul\":4789:4905   */\n      tag_186\n        /* \"#utility.yul\":4900:4904   */\n      dup6\n        /* \"#utility.yul\":4885:4898   */\n      dup3\n        /* \"#utility.yul\":4789:4905   */\n      tag_167\n      jump\t// in\n    tag_186:\n        /* \"#utility.yul\":4781:4905   */\n      swap5\n      pop\n        /* \"#utility.yul\":4928:5014   */\n      tag_187\n        /* \"#utility.yul\":5007:5013   */\n      dup4\n        /* \"#utility.yul\":4928:5014   */\n      tag_188\n      jump\t// in\n    tag_187:\n        /* \"#utility.yul\":4918:5014   */\n      swap3\n      pop\n        /* \"#utility.yul\":5043:5047   */\n      0x20\n        /* \"#utility.yul\":5038:5041   */\n      dup11\n        /* \"#utility.yul\":5034:5048   */\n      add\n        /* \"#utility.yul\":5027:5048   */\n      swap10\n      pop\n        /* \"#utility.yul\":4674:5058   */\n      pop\n        /* \"#utility.yul\":4661:4662   */\n      0x01\n        /* \"#utility.yul\":4658:4659   */\n      dup2\n        /* \"#utility.yul\":4654:4663   */\n      add\n        /* \"#utility.yul\":4649:4663   */\n      swap1\n      pop\n        /* \"#utility.yul\":4614:5058   */\n      jump(tag_183)\n    tag_185:\n        /* \"#utility.yul\":4618:4632   */\n      pop\n        /* \"#utility.yul\":5074:5078   */\n      dup3\n        /* \"#utility.yul\":5067:5078   */\n      swap8\n      pop\n        /* \"#utility.yul\":5094:5097   */\n      dup8\n        /* \"#utility.yul\":5087:5097   */\n      swap6\n      pop\n        /* \"#utility.yul\":4160:5103   */\n      pop\n      pop\n      pop\n      pop\n      pop\n        /* \"#utility.yul\":3984:5103   */\n      swap3\n      swap2\n      pop\n      pop\n      jump\t// out\n        /* \"#utility.yul\":5185:6284   */\n    tag_189:\n        /* \"#utility.yul\":5346:5349   */\n      0x00\n        /* \"#utility.yul\":5375:5455   */\n      tag_191\n        /* \"#utility.yul\":5449:5454   */\n      dup3\n        /* \"#utility.yul\":5375:5455   */\n      tag_192\n      jump\t// in\n    tag_191:\n        /* \"#utility.yul\":5471:5573   */\n      tag_193\n        /* \"#utility.yul\":5566:5572   */\n      dup2\n        /* \"#utility.yul\":5561:5564   */\n      dup6\n        /* \"#utility.yul\":5471:5573   */\n      tag_194\n      jump\t// in\n    tag_193:\n        /* \"#utility.yul\":5464:5573   */\n      swap4\n      pop\n        /* \"#utility.yul\":5599:5602   */\n      dup4\n        /* \"#utility.yul\":5644:5648   */\n      0x20\n        /* \"#utility.yul\":5636:5642   */\n      dup3\n        /* \"#utility.yul\":5632:5649   */\n      mul\n        /* \"#utility.yul\":5627:5630   */\n      dup6\n        /* \"#utility.yul\":5623:5650   */\n      add\n        /* \"#utility.yul\":5674:5756   */\n      tag_195\n        /* \"#utility.yul\":5750:5755   */\n      dup6\n        /* \"#utility.yul\":5674:5756   */\n      tag_196\n      jump\t// in\n    tag_195:\n        /* \"#utility.yul\":5779:5786   */\n      dup1\n        /* \"#utility.yul\":5810:5811   */\n      0x00\n        /* \"#utility.yul\":5795:6239   */\n    tag_197:\n        /* \"#utility.yul\":5820:5826   */\n      dup6\n        /* \"#utility.yul\":5817:5818   */\n      dup2\n        /* \"#utility.yul\":5814:5827   */\n      lt\n        /* \"#utility.yul\":5795:6239   */\n      iszero\n      tag_199\n      jumpi\n        /* \"#utility.yul\":5891:5900   */\n      dup5\n        /* \"#utility.yul\":5885:5889   */\n      dup5\n        /* \"#utility.yul\":5881:5901   */\n      sub\n        /* \"#utility.yul\":5876:5879   */\n      dup10\n        /* \"#utility.yul\":5869:5902   */\n      mstore\n        /* \"#utility.yul\":5942:5948   */\n      dup2\n        /* \"#utility.yul\":5936:5949   */\n      mload\n        /* \"#utility.yul\":5970:6086   */\n      tag_200\n        /* \"#utility.yul\":6081:6085   */\n      dup6\n        /* \"#utility.yul\":6066:6079   */\n      dup3\n        /* \"#utility.yul\":5970:6086   */\n      tag_171\n      jump\t// in\n    tag_200:\n        /* \"#utility.yul\":5962:6086   */\n      swap5\n      pop\n        /* \"#utility.yul\":6109:6195   */\n      tag_201\n        /* \"#utility.yul\":6188:6194   */\n      dup4\n        /* \"#utility.yul\":6109:6195   */\n      tag_202\n      jump\t// in\n    tag_201:\n        /* \"#utility.yul\":6099:6195   */\n      swap3\n      pop\n        /* \"#utility.yul\":6224:6228   */\n      0x20\n        /* \"#utility.yul\":6219:6222   */\n      dup11\n        /* \"#utility.yul\":6215:6229   */\n      add\n        /* \"#utility.yul\":6208:6229   */\n      swap10\n      pop\n        /* \"#utility.yul\":5855:6239   */\n      pop\n        /* \"#utility.yul\":5842:5843   */\n      0x01\n        /* \"#utility.yul\":5839:5840   */\n      dup2\n        /* \"#utility.yul\":5835:5844   */\n      add\n        /* \"#utility.yul\":5830:5844   */\n      swap1\n      pop\n        /* \"#utility.yul\":5795:6239   */\n      jump(tag_197)\n    tag_199:\n        /* \"#utility.yul\":5799:5813   */\n      pop\n        /* \"#utility.yul\":6255:6259   */\n      dup3\n        /* \"#utility.yul\":6248:6259   */\n      swap8\n      pop\n        /* \"#utility.yul\":6275:6278   */\n      dup8\n        /* \"#utility.yul\":6268:6278   */\n      swap6\n      pop\n        /* \"#utility.yul\":5351:6284   */\n      pop\n      pop\n      pop\n      pop\n      pop\n        /* \"#utility.yul\":5185:6284   */\n      swap3\n      swap2\n      pop\n      pop\n      jump\t// out\n        /* \"#utility.yul\":6366:7485   */\n    tag_203:\n        /* \"#utility.yul\":6537:6540   */\n      0x00\n        /* \"#utility.yul\":6566:6646   */\n      tag_205\n        /* \"#utility.yul\":6640:6645   */\n      dup3\n        /* \"#utility.yul\":6566:6646   */\n      tag_192\n      jump\t// in\n    tag_205:\n        /* \"#utility.yul\":6662:6774   */\n      tag_206\n        /* \"#utility.yul\":6767:6773   */\n      dup2\n        /* \"#utility.yul\":6762:6765   */\n      dup6\n        /* \"#utility.yul\":6662:6774   */\n      tag_207\n      jump\t// in\n    tag_206:\n        /* \"#utility.yul\":6655:6774   */\n      swap4\n      pop\n        /* \"#utility.yul\":6800:6803   */\n      dup4\n        /* \"#utility.yul\":6845:6849   */\n      0x20\n        /* \"#utility.yul\":6837:6843   */\n      dup3\n        /* \"#utility.yul\":6833:6850   */\n      mul\n        /* \"#utility.yul\":6828:6831   */\n      dup6\n        /* \"#utility.yul\":6824:6851   */\n      add\n        /* \"#utility.yul\":6875:6957   */\n      tag_208\n        /* \"#utility.yul\":6951:6956   */\n      dup6\n        /* \"#utility.yul\":6875:6957   */\n      tag_196\n      jump\t// in\n    tag_208:\n        /* \"#utility.yul\":6980:6987   */\n      dup1\n        /* \"#utility.yul\":7011:7012   */\n      0x00\n        /* \"#utility.yul\":6996:7440   */\n    tag_209:\n        /* \"#utility.yul\":7021:7027   */\n      dup6\n        /* \"#utility.yul\":7018:7019   */\n      dup2\n        /* \"#utility.yul\":7015:7028   */\n      lt\n        /* \"#utility.yul\":6996:7440   */\n      iszero\n      tag_211\n      jumpi\n        /* \"#utility.yul\":7092:7101   */\n      dup5\n        /* \"#utility.yul\":7086:7090   */\n      dup5\n        /* \"#utility.yul\":7082:7102   */\n      sub\n        /* \"#utility.yul\":7077:7080   */\n      dup10\n        /* \"#utility.yul\":7070:7103   */\n      mstore\n        /* \"#utility.yul\":7143:7149   */\n      dup2\n        /* \"#utility.yul\":7137:7150   */\n      mload\n        /* \"#utility.yul\":7171:7287   */\n      tag_212\n        /* \"#utility.yul\":7282:7286   */\n      dup6\n        /* \"#utility.yul\":7267:7280   */\n      dup3\n        /* \"#utility.yul\":7171:7287   */\n      tag_171\n      jump\t// in\n    tag_212:\n        /* \"#utility.yul\":7163:7287   */\n      swap5\n      pop\n        /* \"#utility.yul\":7310:7396   */\n      tag_213\n        /* \"#utility.yul\":7389:7395   */\n      dup4\n        /* \"#utility.yul\":7310:7396   */\n      tag_202\n      jump\t// in\n    tag_213:\n        /* \"#utility.yul\":7300:7396   */\n      swap3\n      pop\n        /* \"#utility.yul\":7425:7429   */\n      0x20\n        /* \"#utility.yul\":7420:7423   */\n      dup11\n        /* \"#utility.yul\":7416:7430   */\n      add\n        /* \"#utility.yul\":7409:7430   */\n      swap10\n      pop\n        /* \"#utility.yul\":7056:7440   */\n      pop\n        /* \"#utility.yul\":7043:7044   */\n      0x01\n        /* \"#utility.yul\":7040:7041   */\n      dup2\n        /* \"#utility.yul\":7036:7045   */\n      add\n        /* \"#utility.yul\":7031:7045   */\n      swap1\n      pop\n        /* \"#utility.yul\":6996:7440   */\n      jump(tag_209)\n    tag_211:\n        /* \"#utility.yul\":7000:7014   */\n      pop\n        /* \"#utility.yul\":7456:7460   */\n      dup3\n        /* \"#utility.yul\":7449:7460   */\n      swap8\n      pop\n        /* \"#utility.yul\":7476:7479   */\n      dup8\n        /* \"#utility.yul\":7469:7479   */\n      swap6\n      pop\n        /* \"#utility.yul\":6542:7485   */\n      pop\n      pop\n      pop\n      pop\n      pop\n        /* \"#utility.yul\":6366:7485   */\n      swap3\n      swap2\n      pop\n      pop\n      jump\t// out\n        /* \"#utility.yul\":7491:7593   */\n    tag_214:\n        /* \"#utility.yul\":7564:7586   */\n      tag_216\n        /* \"#utility.yul\":7580:7585   */\n      dup2\n        /* \"#utility.yul\":7564:7586   */\n      tag_217\n      jump\t// in\n    tag_216:\n        /* \"#utility.yul\":7559:7562   */\n      dup3\n        /* \"#utility.yul\":7552:7587   */\n      mstore\n        /* \"#utility.yul\":7491:7593   */\n      pop\n      pop\n      jump\t// out\n        /* \"#utility.yul\":7599:7711   */\n    tag_218:\n        /* \"#utility.yul\":7682:7704   */\n      tag_220\n        /* \"#utility.yul\":7698:7703   */\n      dup2\n        /* \"#utility.yul\":7682:7704   */\n      tag_217\n      jump\t// in\n    tag_220:\n        /* \"#utility.yul\":7677:7680   */\n      dup3\n        /* \"#utility.yul\":7670:7705   */\n      mstore\n        /* \"#utility.yul\":7599:7711   */\n      pop\n      pop\n      jump\t// out\n        /* \"#utility.yul\":7717:8061   */\n    tag_221:\n        /* \"#utility.yul\":7795:7798   */\n      0x00\n        /* \"#utility.yul\":7823:7862   */\n      tag_223\n        /* \"#utility.yul\":7856:7861   */\n      dup3\n        /* \"#utility.yul\":7823:7862   */\n      tag_224\n      jump\t// in\n    tag_223:\n        /* \"#utility.yul\":7878:7939   */\n      tag_225\n        /* \"#utility.yul\":7932:7938   */\n      dup2\n        /* \"#utility.yul\":7927:7930   */\n      dup6\n        /* \"#utility.yul\":7878:7939   */\n      tag_226\n      jump\t// in\n    tag_225:\n        /* \"#utility.yul\":7871:7939   */\n      swap4\n      pop\n        /* \"#utility.yul\":7948:8000   */\n      tag_227\n        /* \"#utility.yul\":7993:7999   */\n      dup2\n        /* \"#utility.yul\":7988:7991   */\n      dup6\n        /* \"#utility.yul\":7981:7985   */\n      0x20\n        /* \"#utility.yul\":7974:7979   */\n      dup7\n        /* \"#utility.yul\":7970:7986   */\n      add\n        /* \"#utility.yul\":7948:8000   */\n      tag_228\n      jump\t// in\n    tag_227:\n        /* \"#utility.yul\":8025:8054   */\n      tag_229\n        /* \"#utility.yul\":8047:8053   */\n      dup2\n        /* \"#utility.yul\":8025:8054   */\n      tag_230\n      jump\t// in\n    tag_229:\n        /* \"#utility.yul\":8020:8023   */\n      dup5\n        /* \"#utility.yul\":8016:8055   */\n      add\n        /* \"#utility.yul\":8009:8055   */\n      swap2\n      pop\n        /* \"#utility.yul\":7799:8061   */\n      pop\n        /* \"#utility.yul\":7717:8061   */\n      swap3\n      swap2\n      pop\n      pop\n      jump\t// out\n        /* \"#utility.yul\":8067:8431   */\n    tag_231:\n        /* \"#utility.yul\":8155:8158   */\n      0x00\n        /* \"#utility.yul\":8183:8222   */\n      tag_233\n        /* \"#utility.yul\":8216:8221   */\n      dup3\n        /* \"#utility.yul\":8183:8222   */\n      tag_224\n      jump\t// in\n    tag_233:\n        /* \"#utility.yul\":8238:8309   */\n      tag_234\n        /* \"#utility.yul\":8302:8308   */\n      dup2\n        /* \"#utility.yul\":8297:8300   */\n      dup6\n        /* \"#utility.yul\":8238:8309   */\n      tag_235\n      jump\t// in\n    tag_234:\n        /* \"#utility.yul\":8231:8309   */\n      swap4\n      pop\n        /* \"#utility.yul\":8318:8370   */\n      tag_236\n        /* \"#utility.yul\":8363:8369   */\n      dup2\n        /* \"#utility.yul\":8358:8361   */\n      dup6\n        /* \"#utility.yul\":8351:8355   */\n      0x20\n        /* \"#utility.yul\":8344:8349   */\n      dup7\n        /* \"#utility.yul\":8340:8356   */\n      add\n        /* \"#utility.yul\":8318:8370   */\n      tag_228\n      jump\t// in\n    tag_236:\n        /* \"#utility.yul\":8395:8424   */\n      tag_237\n        /* \"#utility.yul\":8417:8423   */\n      dup2\n        /* \"#utility.yul\":8395:8424   */\n      tag_230\n      jump\t// in\n    tag_237:\n        /* \"#utility.yul\":8390:8393   */\n      dup5\n        /* \"#utility.yul\":8386:8425   */\n      add\n        /* \"#utility.yul\":8379:8425   */\n      swap2\n      pop\n        /* \"#utility.yul\":8159:8431   */\n      pop\n        /* \"#utility.yul\":8067:8431   */\n      swap3\n      swap2\n      pop\n      pop\n      jump\t// out\n        /* \"#utility.yul\":8437:8814   */\n    tag_238:\n        /* \"#utility.yul\":8543:8546   */\n      0x00\n        /* \"#utility.yul\":8571:8610   */\n      tag_240\n        /* \"#utility.yul\":8604:8609   */\n      dup3\n        /* \"#utility.yul\":8571:8610   */\n      tag_224\n      jump\t// in\n    tag_240:\n        /* \"#utility.yul\":8626:8715   */\n      tag_241\n        /* \"#utility.yul\":8708:8714   */\n      dup2\n        /* \"#utility.yul\":8703:8706   */\n      dup6\n        /* \"#utility.yul\":8626:8715   */\n      tag_242\n      jump\t// in\n    tag_241:\n        /* \"#utility.yul\":8619:8715   */\n      swap4\n      pop\n        /* \"#utility.yul\":8724:8776   */\n      tag_243\n        /* \"#utility.yul\":8769:8775   */\n      dup2\n        /* \"#utility.yul\":8764:8767   */\n      dup6\n        /* \"#utility.yul\":8757:8761   */\n      0x20\n        /* \"#utility.yul\":8750:8755   */\n      dup7\n        /* \"#utility.yul\":8746:8762   */\n      add\n        /* \"#utility.yul\":8724:8776   */\n      tag_228\n      jump\t// in\n    tag_243:\n        /* \"#utility.yul\":8801:8807   */\n      dup1\n        /* \"#utility.yul\":8796:8799   */\n      dup5\n        /* \"#utility.yul\":8792:8808   */\n      add\n        /* \"#utility.yul\":8785:8808   */\n      swap2\n      pop\n        /* \"#utility.yul\":8547:8814   */\n      pop\n        /* \"#utility.yul\":8437:8814   */\n      swap3\n      swap2\n      pop\n      pop\n      jump\t// out\n        /* \"#utility.yul\":8890:9816   */\n    tag_170:\n        /* \"#utility.yul\":9001:9004   */\n      0x00\n        /* \"#utility.yul\":9037:9041   */\n      0x60\n        /* \"#utility.yul\":9032:9035   */\n      dup4\n        /* \"#utility.yul\":9028:9042   */\n      add\n        /* \"#utility.yul\":9123:9127   */\n      0x00\n        /* \"#utility.yul\":9116:9121   */\n      dup4\n        /* \"#utility.yul\":9112:9128   */\n      add\n        /* \"#utility.yul\":9106:9129   */\n      mload\n        /* \"#utility.yul\":9142:9205   */\n      tag_245\n        /* \"#utility.yul\":9199:9203   */\n      0x00\n        /* \"#utility.yul\":9194:9197   */\n      dup7\n        /* \"#utility.yul\":9190:9204   */\n      add\n        /* \"#utility.yul\":9176:9188   */\n      dup3\n        /* \"#utility.yul\":9142:9205   */\n      tag_246\n      jump\t// in\n    tag_245:\n        /* \"#utility.yul\":9052:9215   */\n      pop\n        /* \"#utility.yul\":9297:9301   */\n      0x20\n        /* \"#utility.yul\":9290:9295   */\n      dup4\n        /* \"#utility.yul\":9286:9302   */\n      add\n        /* \"#utility.yul\":9280:9303   */\n      mload\n        /* \"#utility.yul\":9350:9353   */\n      dup5\n        /* \"#utility.yul\":9344:9348   */\n      dup3\n        /* \"#utility.yul\":9340:9354   */\n      sub\n        /* \"#utility.yul\":9333:9337   */\n      0x20\n        /* \"#utility.yul\":9328:9331   */\n      dup7\n        /* \"#utility.yul\":9324:9338   */\n      add\n        /* \"#utility.yul\":9317:9355   */\n      mstore\n        /* \"#utility.yul\":9376:9449   */\n      tag_247\n        /* \"#utility.yul\":9444:9448   */\n      dup3\n        /* \"#utility.yul\":9430:9442   */\n      dup3\n        /* \"#utility.yul\":9376:9449   */\n      tag_221\n      jump\t// in\n    tag_247:\n        /* \"#utility.yul\":9368:9449   */\n      swap2\n      pop\n        /* \"#utility.yul\":9225:9460   */\n      pop\n        /* \"#utility.yul\":9544:9548   */\n      0x40\n        /* \"#utility.yul\":9537:9542   */\n      dup4\n        /* \"#utility.yul\":9533:9549   */\n      add\n        /* \"#utility.yul\":9527:9550   */\n      mload\n        /* \"#utility.yul\":9597:9600   */\n      dup5\n        /* \"#utility.yul\":9591:9595   */\n      dup3\n        /* \"#utility.yul\":9587:9601   */\n      sub\n        /* \"#utility.yul\":9580:9584   */\n      0x40\n        /* \"#utility.yul\":9575:9578   */\n      dup7\n        /* \"#utility.yul\":9571:9585   */\n      add\n        /* \"#utility.yul\":9564:9602   */\n      mstore\n        /* \"#utility.yul\":9623:9778   */\n      tag_248\n        /* \"#utility.yul\":9773:9777   */\n      dup3\n        /* \"#utility.yul\":9759:9771   */\n      dup3\n        /* \"#utility.yul\":9623:9778   */\n      tag_189\n      jump\t// in\n    tag_248:\n        /* \"#utility.yul\":9615:9778   */\n      swap2\n      pop\n        /* \"#utility.yul\":9470:9789   */\n      pop\n        /* \"#utility.yul\":9806:9810   */\n      dup1\n        /* \"#utility.yul\":9799:9810   */\n      swap2\n      pop\n        /* \"#utility.yul\":9006:9816   */\n      pop\n        /* \"#utility.yul\":8890:9816   */\n      swap3\n      swap2\n      pop\n      pop\n      jump\t// out\n        /* \"#utility.yul\":9894:10666   */\n    tag_174:\n        /* \"#utility.yul\":10005:10008   */\n      0x00\n        /* \"#utility.yul\":10041:10045   */\n      0x60\n        /* \"#utility.yul\":10036:10039   */\n      dup4\n        /* \"#utility.yul\":10032:10046   */\n      add\n        /* \"#utility.yul\":10127:10131   */\n      0x00\n        /* \"#utility.yul\":10120:10125   */\n      dup4\n        /* \"#utility.yul\":10116:10132   */\n      add\n        /* \"#utility.yul\":10110:10133   */\n      mload\n        /* \"#utility.yul\":10146:10209   */\n      tag_250\n        /* \"#utility.yul\":10203:10207   */\n      0x00\n        /* \"#utility.yul\":10198:10201   */\n      dup7\n        /* \"#utility.yul\":10194:10208   */\n      add\n        /* \"#utility.yul\":10180:10192   */\n      dup3\n        /* \"#utility.yul\":10146:10209   */\n      tag_246\n      jump\t// in\n    tag_250:\n        /* \"#utility.yul\":10056:10219   */\n      pop\n        /* \"#utility.yul\":10305:10309   */\n      0x20\n        /* \"#utility.yul\":10298:10303   */\n      dup4\n        /* \"#utility.yul\":10294:10310   */\n      add\n        /* \"#utility.yul\":10288:10311   */\n      mload\n        /* \"#utility.yul\":10358:10361   */\n      dup5\n        /* \"#utility.yul\":10352:10356   */\n      dup3\n        /* \"#utility.yul\":10348:10362   */\n      sub\n        /* \"#utility.yul\":10341:10345   */\n      0x20\n        /* \"#utility.yul\":10336:10339   */\n      dup7\n        /* \"#utility.yul\":10332:10346   */\n      add\n        /* \"#utility.yul\":10325:10363   */\n      mstore\n        /* \"#utility.yul\":10384:10457   */\n      tag_251\n        /* \"#utility.yul\":10452:10456   */\n      dup3\n        /* \"#utility.yul\":10438:10450   */\n      dup3\n        /* \"#utility.yul\":10384:10457   */\n      tag_221\n      jump\t// in\n    tag_251:\n        /* \"#utility.yul\":10376:10457   */\n      swap2\n      pop\n        /* \"#utility.yul\":10229:10468   */\n      pop\n        /* \"#utility.yul\":10551:10555   */\n      0x40\n        /* \"#utility.yul\":10544:10549   */\n      dup4\n        /* \"#utility.yul\":10540:10556   */\n      add\n        /* \"#utility.yul\":10534:10557   */\n      mload\n        /* \"#utility.yul\":10570:10629   */\n      tag_252\n        /* \"#utility.yul\":10623:10627   */\n      0x40\n        /* \"#utility.yul\":10618:10621   */\n      dup7\n        /* \"#utility.yul\":10614:10628   */\n      add\n        /* \"#utility.yul\":10600:10612   */\n      dup3\n        /* \"#utility.yul\":10570:10629   */\n      tag_214\n      jump\t// in\n    tag_252:\n        /* \"#utility.yul\":10478:10639   */\n      pop\n        /* \"#utility.yul\":10656:10660   */\n      dup1\n        /* \"#utility.yul\":10649:10660   */\n      swap2\n      pop\n        /* \"#utility.yul\":10010:10666   */\n      pop\n        /* \"#utility.yul\":9894:10666   */\n      swap3\n      swap2\n      pop\n      pop\n      jump\t// out\n        /* \"#utility.yul\":10744:11526   */\n    tag_253:\n        /* \"#utility.yul\":10865:10868   */\n      0x00\n        /* \"#utility.yul\":10901:10905   */\n      0x60\n        /* \"#utility.yul\":10896:10899   */\n      dup4\n        /* \"#utility.yul\":10892:10906   */\n      add\n        /* \"#utility.yul\":10987:10991   */\n      0x00\n        /* \"#utility.yul\":10980:10985   */\n      dup4\n        /* \"#utility.yul\":10976:10992   */\n      add\n        /* \"#utility.yul\":10970:10993   */\n      mload\n        /* \"#utility.yul\":11006:11069   */\n      tag_255\n        /* \"#utility.yul\":11063:11067   */\n      0x00\n        /* \"#utility.yul\":11058:11061   */\n      dup7\n        /* \"#utility.yul\":11054:11068   */\n      add\n        /* \"#utility.yul\":11040:11052   */\n      dup3\n        /* \"#utility.yul\":11006:11069   */\n      tag_246\n      jump\t// in\n    tag_255:\n        /* \"#utility.yul\":10916:11079   */\n      pop\n        /* \"#utility.yul\":11165:11169   */\n      0x20\n        /* \"#utility.yul\":11158:11163   */\n      dup4\n        /* \"#utility.yul\":11154:11170   */\n      add\n        /* \"#utility.yul\":11148:11171   */\n      mload\n        /* \"#utility.yul\":11218:11221   */\n      dup5\n        /* \"#utility.yul\":11212:11216   */\n      dup3\n        /* \"#utility.yul\":11208:11222   */\n      sub\n        /* \"#utility.yul\":11201:11205   */\n      0x20\n        /* \"#utility.yul\":11196:11199   */\n      dup7\n        /* \"#utility.yul\":11192:11206   */\n      add\n        /* \"#utility.yul\":11185:11223   */\n      mstore\n        /* \"#utility.yul\":11244:11317   */\n      tag_256\n        /* \"#utility.yul\":11312:11316   */\n      dup3\n        /* \"#utility.yul\":11298:11310   */\n      dup3\n        /* \"#utility.yul\":11244:11317   */\n      tag_221\n      jump\t// in\n    tag_256:\n        /* \"#utility.yul\":11236:11317   */\n      swap2\n      pop\n        /* \"#utility.yul\":11089:11328   */\n      pop\n        /* \"#utility.yul\":11411:11415   */\n      0x40\n        /* \"#utility.yul\":11404:11409   */\n      dup4\n        /* \"#utility.yul\":11400:11416   */\n      add\n        /* \"#utility.yul\":11394:11417   */\n      mload\n        /* \"#utility.yul\":11430:11489   */\n      tag_257\n        /* \"#utility.yul\":11483:11487   */\n      0x40\n        /* \"#utility.yul\":11478:11481   */\n      dup7\n        /* \"#utility.yul\":11474:11488   */\n      add\n        /* \"#utility.yul\":11460:11472   */\n      dup3\n        /* \"#utility.yul\":11430:11489   */\n      tag_214\n      jump\t// in\n    tag_257:\n        /* \"#utility.yul\":11338:11499   */\n      pop\n        /* \"#utility.yul\":11516:11520   */\n      dup1\n        /* \"#utility.yul\":11509:11520   */\n      swap2\n      pop\n        /* \"#utility.yul\":10870:11526   */\n      pop\n        /* \"#utility.yul\":10744:11526   */\n      swap3\n      swap2\n      pop\n      pop\n      jump\t// out\n        /* \"#utility.yul\":11532:11640   */\n    tag_246:\n        /* \"#utility.yul\":11609:11633   */\n      tag_259\n        /* \"#utility.yul\":11627:11632   */\n      dup2\n        /* \"#utility.yul\":11609:11633   */\n      tag_260\n      jump\t// in\n    tag_259:\n        /* \"#utility.yul\":11604:11607   */\n      dup3\n        /* \"#utility.yul\":11597:11634   */\n      mstore\n        /* \"#utility.yul\":11532:11640   */\n      pop\n      pop\n      jump\t// out\n        /* \"#utility.yul\":11646:11764   */\n    tag_261:\n        /* \"#utility.yul\":11733:11757   */\n      tag_263\n        /* \"#utility.yul\":11751:11756   */\n      dup2\n        /* \"#utility.yul\":11733:11757   */\n      tag_260\n      jump\t// in\n    tag_263:\n        /* \"#utility.yul\":11728:11731   */\n      dup3\n        /* \"#utility.yul\":11721:11758   */\n      mstore\n        /* \"#utility.yul\":11646:11764   */\n      pop\n      pop\n      jump\t// out\n        /* \"#utility.yul\":11770:12045   */\n    tag_79:\n        /* \"#utility.yul\":11902:11905   */\n      0x00\n        /* \"#utility.yul\":11924:12019   */\n      tag_265\n        /* \"#utility.yul\":12015:12018   */\n      dup3\n        /* \"#utility.yul\":12006:12012   */\n      dup5\n        /* \"#utility.yul\":11924:12019   */\n      tag_238\n      jump\t// in\n    tag_265:\n        /* \"#utility.yul\":11917:12019   */\n      swap2\n      pop\n        /* \"#utility.yul\":12036:12039   */\n      dup2\n        /* \"#utility.yul\":12029:12039   */\n      swap1\n      pop\n        /* \"#utility.yul\":11770:12045   */\n      swap3\n      swap2\n      pop\n      pop\n      jump\t// out\n        /* \"#utility.yul\":12051:12528   */\n    tag_39:\n        /* \"#utility.yul\":12246:12250   */\n      0x00\n        /* \"#utility.yul\":12284:12286   */\n      0x20\n        /* \"#utility.yul\":12273:12282   */\n      dup3\n        /* \"#utility.yul\":12269:12287   */\n      add\n        /* \"#utility.yul\":12261:12287   */\n      swap1\n      pop\n        /* \"#utility.yul\":12333:12342   */\n      dup2\n        /* \"#utility.yul\":12327:12331   */\n      dup2\n        /* \"#utility.yul\":12323:12343   */\n      sub\n        /* \"#utility.yul\":12319:12320   */\n      0x00\n        /* \"#utility.yul\":12308:12317   */\n      dup4\n        /* \"#utility.yul\":12304:12321   */\n      add\n        /* \"#utility.yul\":12297:12344   */\n      mstore\n        /* \"#utility.yul\":12361:12521   */\n      tag_267\n        /* \"#utility.yul\":12516:12520   */\n      dup2\n        /* \"#utility.yul\":12507:12513   */\n      dup5\n        /* \"#utility.yul\":12361:12521   */\n      tag_175\n      jump\t// in\n    tag_267:\n        /* \"#utility.yul\":12353:12521   */\n      swap1\n      pop\n        /* \"#utility.yul\":12051:12528   */\n      swap3\n      swap2\n      pop\n      pop\n      jump\t// out\n        /* \"#utility.yul\":12534:13011   */\n    tag_15:\n        /* \"#utility.yul\":12729:12733   */\n      0x00\n        /* \"#utility.yul\":12767:12769   */\n      0x20\n        /* \"#utility.yul\":12756:12765   */\n      dup3\n        /* \"#utility.yul\":12752:12770   */\n      add\n        /* \"#utility.yul\":12744:12770   */\n      swap1\n      pop\n        /* \"#utility.yul\":12816:12825   */\n      dup2\n        /* \"#utility.yul\":12810:12814   */\n      dup2\n        /* \"#utility.yul\":12806:12826   */\n      sub\n        /* \"#utility.yul\":12802:12803   */\n      0x00\n        /* \"#utility.yul\":12791:12800   */\n      dup4\n        /* \"#utility.yul\":12787:12804   */\n      add\n        /* \"#utility.yul\":12780:12827   */\n      mstore\n        /* \"#utility.yul\":12844:13004   */\n      tag_269\n        /* \"#utility.yul\":12999:13003   */\n      dup2\n        /* \"#utility.yul\":12990:12996   */\n      dup5\n        /* \"#utility.yul\":12844:13004   */\n      tag_203\n      jump\t// in\n    tag_269:\n        /* \"#utility.yul\":12836:13004   */\n      swap1\n      pop\n        /* \"#utility.yul\":12534:13011   */\n      swap3\n      swap2\n      pop\n      pop\n      jump\t// out\n        /* \"#utility.yul\":13017:13394   */\n    tag_26:\n        /* \"#utility.yul\":13162:13166   */\n      0x00\n        /* \"#utility.yul\":13200:13202   */\n      0x20\n        /* \"#utility.yul\":13189:13198   */\n      dup3\n        /* \"#utility.yul\":13185:13203   */\n      add\n        /* \"#utility.yul\":13177:13203   */\n      swap1\n      pop\n        /* \"#utility.yul\":13249:13258   */\n      dup2\n        /* \"#utility.yul\":13243:13247   */\n      dup2\n        /* \"#utility.yul\":13239:13259   */\n      sub\n        /* \"#utility.yul\":13235:13236   */\n      0x00\n        /* \"#utility.yul\":13224:13233   */\n      dup4\n        /* \"#utility.yul\":13220:13237   */\n      add\n        /* \"#utility.yul\":13213:13260   */\n      mstore\n        /* \"#utility.yul\":13277:13387   */\n      tag_271\n        /* \"#utility.yul\":13382:13386   */\n      dup2\n        /* \"#utility.yul\":13373:13379   */\n      dup5\n        /* \"#utility.yul\":13277:13387   */\n      tag_253\n      jump\t// in\n    tag_271:\n        /* \"#utility.yul\":13269:13387   */\n      swap1\n      pop\n        /* \"#utility.yul\":13017:13394   */\n      swap3\n      swap2\n      pop\n      pop\n      jump\t// out\n        /* \"#utility.yul\":13400:13925   */\n    tag_21:\n        /* \"#utility.yul\":13565:13569   */\n      0x00\n        /* \"#utility.yul\":13603:13605   */\n      0x60\n        /* \"#utility.yul\":13592:13601   */\n      dup3\n        /* \"#utility.yul\":13588:13606   */\n      add\n        /* \"#utility.yul\":13580:13606   */\n      swap1\n      pop\n        /* \"#utility.yul\":13616:13687   */\n      tag_273\n        /* \"#utility.yul\":13684:13685   */\n      0x00\n        /* \"#utility.yul\":13673:13682   */\n      dup4\n        /* \"#utility.yul\":13669:13686   */\n      add\n        /* \"#utility.yul\":13660:13666   */\n      dup7\n        /* \"#utility.yul\":13616:13687   */\n      tag_261\n      jump\t// in\n    tag_273:\n        /* \"#utility.yul\":13734:13743   */\n      dup2\n        /* \"#utility.yul\":13728:13732   */\n      dup2\n        /* \"#utility.yul\":13724:13744   */\n      sub\n        /* \"#utility.yul\":13719:13721   */\n      0x20\n        /* \"#utility.yul\":13708:13717   */\n      dup4\n        /* \"#utility.yul\":13704:13722   */\n      add\n        /* \"#utility.yul\":13697:13745   */\n      mstore\n        /* \"#utility.yul\":13762:13840   */\n      tag_274\n        /* \"#utility.yul\":13835:13839   */\n      dup2\n        /* \"#utility.yul\":13826:13832   */\n      dup6\n        /* \"#utility.yul\":13762:13840   */\n      tag_231\n      jump\t// in\n    tag_274:\n        /* \"#utility.yul\":13754:13840   */\n      swap1\n      pop\n        /* \"#utility.yul\":13850:13918   */\n      tag_275\n        /* \"#utility.yul\":13914:13916   */\n      0x40\n        /* \"#utility.yul\":13903:13912   */\n      dup4\n        /* \"#utility.yul\":13899:13917   */\n      add\n        /* \"#utility.yul\":13890:13896   */\n      dup5\n        /* \"#utility.yul\":13850:13918   */\n      tag_218\n      jump\t// in\n    tag_275:\n        /* \"#utility.yul\":13400:13925   */\n      swap5\n      swap4\n      pop\n      pop\n      pop\n      pop\n      jump\t// out\n        /* \"#utility.yul\":13931:14060   */\n    tag_120:\n        /* \"#utility.yul\":13965:13971   */\n      0x00\n        /* \"#utility.yul\":13992:14012   */\n      tag_277\n      tag_278\n      jump\t// in\n    tag_277:\n        /* \"#utility.yul\":13982:14012   */\n      swap1\n      pop\n        /* \"#utility.yul\":14021:14054   */\n      tag_279\n        /* \"#utility.yul\":14049:14053   */\n      dup3\n        /* \"#utility.yul\":14041:14047   */\n      dup3\n        /* \"#utility.yul\":14021:14054   */\n      tag_280\n      jump\t// in\n    tag_279:\n        /* \"#utility.yul\":13931:14060   */\n      swap2\n      swap1\n      pop\n      jump\t// out\n        /* \"#utility.yul\":14066:14141   */\n    tag_278:\n        /* \"#utility.yul\":14099:14105   */\n      0x00\n        /* \"#utility.yul\":14132:14134   */\n      0x40\n        /* \"#utility.yul\":14126:14135   */\n      mload\n        /* \"#utility.yul\":14116:14135   */\n      swap1\n      pop\n        /* \"#utility.yul\":14066:14141   */\n      swap1\n      jump\t// out\n        /* \"#utility.yul\":14147:14455   */\n    tag_119:\n        /* \"#utility.yul\":14209:14213   */\n      0x00\n        /* \"#utility.yul\":14299:14317   */\n      0xffffffffffffffff\n        /* \"#utility.yul\":14291:14297   */\n      dup3\n        /* \"#utility.yul\":14288:14318   */\n      gt\n        /* \"#utility.yul\":14285:14341   */\n      iszero\n      tag_283\n      jumpi\n        /* \"#utility.yul\":14321:14339   */\n      tag_284\n      tag_285\n      jump\t// in\n    tag_284:\n        /* \"#utility.yul\":14285:14341   */\n    tag_283:\n        /* \"#utility.yul\":14359:14388   */\n      tag_286\n        /* \"#utility.yul\":14381:14387   */\n      dup3\n        /* \"#utility.yul\":14359:14388   */\n      tag_230\n      jump\t// in\n    tag_286:\n        /* \"#utility.yul\":14351:14388   */\n      swap1\n      pop\n        /* \"#utility.yul\":14443:14447   */\n      0x20\n        /* \"#utility.yul\":14437:14441   */\n      dup2\n        /* \"#utility.yul\":14433:14448   */\n      add\n        /* \"#utility.yul\":14425:14448   */\n      swap1\n      pop\n        /* \"#utility.yul\":14147:14455   */\n      swap2\n      swap1\n      pop\n      jump\t// out\n        /* \"#utility.yul\":14461:14619   */\n    tag_182:\n        /* \"#utility.yul\":14554:14558   */\n      0x00\n        /* \"#utility.yul\":14577:14580   */\n      dup2\n        /* \"#utility.yul\":14569:14580   */\n      swap1\n      pop\n        /* \"#utility.yul\":14607:14611   */\n      0x20\n        /* \"#utility.yul\":14602:14605   */\n      dup3\n        /* \"#utility.yul\":14598:14612   */\n      add\n        /* \"#utility.yul\":14590:14612   */\n      swap1\n      pop\n        /* \"#utility.yul\":14461:14619   */\n      swap2\n      swap1\n      pop\n      jump\t// out\n        /* \"#utility.yul\":14625:14783   */\n    tag_196:\n        /* \"#utility.yul\":14718:14722   */\n      0x00\n        /* \"#utility.yul\":14741:14744   */\n      dup2\n        /* \"#utility.yul\":14733:14744   */\n      swap1\n      pop\n        /* \"#utility.yul\":14771:14775   */\n      0x20\n        /* \"#utility.yul\":14766:14769   */\n      dup3\n        /* \"#utility.yul\":14762:14776   */\n      add\n        /* \"#utility.yul\":14754:14776   */\n      swap1\n      pop\n        /* \"#utility.yul\":14625:14783   */\n      swap2\n      swap1\n      pop\n      jump\t// out\n        /* \"#utility.yul\":14789:14929   */\n    tag_178:\n        /* \"#utility.yul\":14882:14888   */\n      0x00\n        /* \"#utility.yul\":14916:14921   */\n      dup2\n        /* \"#utility.yul\":14910:14922   */\n      mload\n        /* \"#utility.yul\":14900:14922   */\n      swap1\n      pop\n        /* \"#utility.yul\":14789:14929   */\n      swap2\n      swap1\n      pop\n      jump\t// out\n        /* \"#utility.yul\":14935:15075   */\n    tag_192:\n        /* \"#utility.yul\":15028:15034   */\n      0x00\n        /* \"#utility.yul\":15062:15067   */\n      dup2\n        /* \"#utility.yul\":15056:15068   */\n      mload\n        /* \"#utility.yul\":15046:15068   */\n      swap1\n      pop\n        /* \"#utility.yul\":14935:15075   */\n      swap2\n      swap1\n      pop\n      jump\t// out\n        /* \"#utility.yul\":15081:15180   */\n    tag_224:\n        /* \"#utility.yul\":15133:15139   */\n      0x00\n        /* \"#utility.yul\":15167:15172   */\n      dup2\n        /* \"#utility.yul\":15161:15173   */\n      mload\n        /* \"#utility.yul\":15151:15173   */\n      swap1\n      pop\n        /* \"#utility.yul\":15081:15180   */\n      swap2\n      swap1\n      pop\n      jump\t// out\n        /* \"#utility.yul\":15186:15325   */\n    tag_188:\n        /* \"#utility.yul\":15282:15286   */\n      0x00\n        /* \"#utility.yul\":15314:15318   */\n      0x20\n        /* \"#utility.yul\":15309:15312   */\n      dup3\n        /* \"#utility.yul\":15305:15319   */\n      add\n        /* \"#utility.yul\":15297:15319   */\n      swap1\n      pop\n        /* \"#utility.yul\":15186:15325   */\n      swap2\n      swap1\n      pop\n      jump\t// out\n        /* \"#utility.yul\":15331:15470   */\n    tag_202:\n        /* \"#utility.yul\":15427:15431   */\n      0x00\n        /* \"#utility.yul\":15459:15463   */\n      0x20\n        /* \"#utility.yul\":15454:15457   */\n      dup3\n        /* \"#utility.yul\":15450:15464   */\n      add\n        /* \"#utility.yul\":15442:15464   */\n      swap1\n      pop\n        /* \"#utility.yul\":15331:15470   */\n      swap2\n      swap1\n      pop\n      jump\t// out\n        /* \"#utility.yul\":15476:15686   */\n    tag_180:\n        /* \"#utility.yul\":15601:15612   */\n      0x00\n        /* \"#utility.yul\":15635:15641   */\n      dup3\n        /* \"#utility.yul\":15630:15633   */\n      dup3\n        /* \"#utility.yul\":15623:15642   */\n      mstore\n        /* \"#utility.yul\":15675:15679   */\n      0x20\n        /* \"#utility.yul\":15670:15673   */\n      dup3\n        /* \"#utility.yul\":15666:15680   */\n      add\n        /* \"#utility.yul\":15651:15680   */\n      swap1\n      pop\n        /* \"#utility.yul\":15476:15686   */\n      swap3\n      swap2\n      pop\n      pop\n      jump\t// out\n        /* \"#utility.yul\":15692:15892   */\n    tag_194:\n        /* \"#utility.yul\":15807:15818   */\n      0x00\n        /* \"#utility.yul\":15841:15847   */\n      dup3\n        /* \"#utility.yul\":15836:15839   */\n      dup3\n        /* \"#utility.yul\":15829:15848   */\n      mstore\n        /* \"#utility.yul\":15881:15885   */\n      0x20\n        /* \"#utility.yul\":15876:15879   */\n      dup3\n        /* \"#utility.yul\":15872:15886   */\n      add\n        /* \"#utility.yul\":15857:15886   */\n      swap1\n      pop\n        /* \"#utility.yul\":15692:15892   */\n      swap3\n      swap2\n      pop\n      pop\n      jump\t// out\n        /* \"#utility.yul\":15898:16108   */\n    tag_207:\n        /* \"#utility.yul\":16023:16034   */\n      0x00\n        /* \"#utility.yul\":16057:16063   */\n      dup3\n        /* \"#utility.yul\":16052:16055   */\n      dup3\n        /* \"#utility.yul\":16045:16064   */\n      mstore\n        /* \"#utility.yul\":16097:16101   */\n      0x20\n        /* \"#utility.yul\":16092:16095   */\n      dup3\n        /* \"#utility.yul\":16088:16102   */\n      add\n        /* \"#utility.yul\":16073:16102   */\n      swap1\n      pop\n        /* \"#utility.yul\":15898:16108   */\n      swap3\n      swap2\n      pop\n      pop\n      jump\t// out\n        /* \"#utility.yul\":16114:16273   */\n    tag_226:\n        /* \"#utility.yul\":16188:16199   */\n      0x00\n        /* \"#utility.yul\":16222:16228   */\n      dup3\n        /* \"#utility.yul\":16217:16220   */\n      dup3\n        /* \"#utility.yul\":16210:16229   */\n      mstore\n        /* \"#utility.yul\":16262:16266   */\n      0x20\n        /* \"#utility.yul\":16257:16260   */\n      dup3\n        /* \"#utility.yul\":16253:16267   */\n      add\n        /* \"#utility.yul\":16238:16267   */\n      swap1\n      pop\n        /* \"#utility.yul\":16114:16273   */\n      swap3\n      swap2\n      pop\n      pop\n      jump\t// out\n        /* \"#utility.yul\":16279:16448   */\n    tag_235:\n        /* \"#utility.yul\":16363:16374   */\n      0x00\n        /* \"#utility.yul\":16397:16403   */\n      dup3\n        /* \"#utility.yul\":16392:16395   */\n      dup3\n        /* \"#utility.yul\":16385:16404   */\n      mstore\n        /* \"#utility.yul\":16437:16441   */\n      0x20\n        /* \"#utility.yul\":16432:16435   */\n      dup3\n        /* \"#utility.yul\":16428:16442   */\n      add\n        /* \"#utility.yul\":16413:16442   */\n      swap1\n      pop\n        /* \"#utility.yul\":16279:16448   */\n      swap3\n      swap2\n      pop\n      pop\n      jump\t// out\n        /* \"#utility.yul\":16454:16602   */\n    tag_242:\n        /* \"#utility.yul\":16556:16567   */\n      0x00\n        /* \"#utility.yul\":16593:16596   */\n      dup2\n        /* \"#utility.yul\":16578:16596   */\n      swap1\n      pop\n        /* \"#utility.yul\":16454:16602   */\n      swap3\n      swap2\n      pop\n      pop\n      jump\t// out\n        /* \"#utility.yul\":16608:16913   */\n    tag_72:\n        /* \"#utility.yul\":16648:16651   */\n      0x00\n        /* \"#utility.yul\":16667:16687   */\n      tag_301\n        /* \"#utility.yul\":16685:16686   */\n      dup3\n        /* \"#utility.yul\":16667:16687   */\n      tag_260\n      jump\t// in\n    tag_301:\n        /* \"#utility.yul\":16662:16687   */\n      swap2\n      pop\n        /* \"#utility.yul\":16701:16721   */\n      tag_302\n        /* \"#utility.yul\":16719:16720   */\n      dup4\n        /* \"#utility.yul\":16701:16721   */\n      tag_260\n      jump\t// in\n    tag_302:\n        /* \"#utility.yul\":16696:16721   */\n      swap3\n      pop\n        /* \"#utility.yul\":16855:16856   */\n      dup3\n        /* \"#utility.yul\":16787:16853   */\n      0xffffffffffffffffffffffffffffffffffffffffffffffffffffffffffffffff\n        /* \"#utility.yul\":16783:16857   */\n      sub\n        /* \"#utility.yul\":16780:16781   */\n      dup3\n        /* \"#utility.yul\":16777:16858   */\n      gt\n        /* \"#utility.yul\":16774:16881   */\n      iszero\n      tag_303\n      jumpi\n        /* \"#utility.yul\":16861:16879   */\n      tag_304\n      tag_305\n      jump\t// in\n    tag_304:\n        /* \"#utility.yul\":16774:16881   */\n    tag_303:\n        /* \"#utility.yul\":16905:16906   */\n      dup3\n        /* \"#utility.yul\":16902:16903   */\n      dup3\n        /* \"#utility.yul\":16898:16907   */\n      add\n        /* \"#utility.yul\":16891:16907   */\n      swap1\n      pop\n        /* \"#utility.yul\":16608:16913   */\n      swap3\n      swap2\n      pop\n      pop\n      jump\t// out\n        /* \"#utility.yul\":16919:17009   */\n    tag_217:\n        /* \"#utility.yul\":16954:16961   */\n      0x00\n        /* \"#utility.yul\":16997:17002   */\n      dup2\n        /* \"#utility.yul\":16994:16995   */\n      0x01\n        /* \"#utility.yul\":16983:17003   */\n      signextend\n        /* \"#utility.yul\":16972:17003   */\n      swap1\n      pop\n        /* \"#utility.yul\":16919:17009   */\n      swap2\n      swap1\n      pop\n      jump\t// out\n        /* \"#utility.yul\":17015:17092   */\n    tag_260:\n        /* \"#utility.yul\":17052:17059   */\n      0x00\n        /* \"#utility.yul\":17081:17086   */\n      dup2\n        /* \"#utility.yul\":17070:17086   */\n      swap1\n      pop\n        /* \"#utility.yul\":17015:17092   */\n      swap2\n      swap1\n      pop\n      jump\t// out\n        /* \"#utility.yul\":17098:17252   */\n    tag_125:\n        /* \"#utility.yul\":17182:17188   */\n      dup3\n        /* \"#utility.yul\":17177:17180   */\n      dup2\n        /* \"#utility.yul\":17172:17175   */\n      dup4\n        /* \"#utility.yul\":17159:17189   */\n      calldatacopy\n        /* \"#utility.yul\":17244:17245   */\n      0x00\n        /* \"#utility.yul\":17235:17241   */\n      dup4\n        /* \"#utility.yul\":17230:17233   */\n      dup4\n        /* \"#utility.yul\":17226:17242   */\n      add\n        /* \"#utility.yul\":17219:17246   */\n      mstore\n        /* \"#utility.yul\":17098:17252   */\n      pop\n      pop\n      pop\n      jump\t// out\n        /* \"#utility.yul\":17258:17565   */\n    tag_228:\n        /* \"#utility.yul\":17326:17327   */\n      0x00\n        /* \"#utility.yul\":17336:17449   */\n    tag_310:\n        /* \"#utility.yul\":17350:17356   */\n      dup4\n        /* \"#utility.yul\":17347:17348   */\n      dup2\n        /* \"#utility.yul\":17344:17357   */\n      lt\n        /* \"#utility.yul\":17336:17449   */\n      iszero\n      tag_312\n      jumpi\n        /* \"#utility.yul\":17435:17436   */\n      dup1\n        /* \"#utility.yul\":17430:17433   */\n      dup3\n        /* \"#utility.yul\":17426:17437   */\n      add\n        /* \"#utility.yul\":17420:17438   */\n      mload\n        /* \"#utility.yul\":17416:17417   */\n      dup2\n        /* \"#utility.yul\":17411:17414   */\n      dup5\n        /* \"#utility.yul\":17407:17418   */\n      add\n        /* \"#utility.yul\":17400:17439   */\n      mstore\n        /* \"#utility.yul\":17372:17374   */\n      0x20\n        /* \"#utility.yul\":17369:17370   */\n      dup2\n        /* \"#utility.yul\":17365:17375   */\n      add\n        /* \"#utility.yul\":17360:17375   */\n      swap1\n      pop\n        /* \"#utility.yul\":17336:17449   */\n      jump(tag_310)\n    tag_312:\n        /* \"#utility.yul\":17467:17473   */\n      dup4\n        /* \"#utility.yul\":17464:17465   */\n      dup2\n        /* \"#utility.yul\":17461:17474   */\n      gt\n        /* \"#utility.yul\":17458:17559   */\n      iszero\n      tag_313\n      jumpi\n        /* \"#utility.yul\":17547:17548   */\n      0x00\n        /* \"#utility.yul\":17538:17544   */\n      dup5\n        /* \"#utility.yul\":17533:17536   */\n      dup5\n        /* \"#utility.yul\":17529:17545   */\n      add\n        /* \"#utility.yul\":17522:17549   */\n      mstore\n        /* \"#utility.yul\":17458:17559   */\n    tag_313:\n        /* \"#utility.yul\":17307:17565   */\n      pop\n        /* \"#utility.yul\":17258:17565   */\n      pop\n      pop\n      pop\n      jump\t// out\n        /* \"#utility.yul\":17571:17891   */\n    tag_52:\n        /* \"#utility.yul\":17615:17621   */\n      0x00\n        /* \"#utility.yul\":17652:17653   */\n      0x02\n        /* \"#utility.yul\":17646:17650   */\n      dup3\n        /* \"#utility.yul\":17642:17654   */\n      div\n        /* \"#utility.yul\":17632:17654   */\n      swap1\n      pop\n        /* \"#utility.yul\":17699:17700   */\n      0x01\n        /* \"#utility.yul\":17693:17697   */\n      dup3\n        /* \"#utility.yul\":17689:17701   */\n      and\n        /* \"#utility.yul\":17720:17738   */\n      dup1\n        /* \"#utility.yul\":17710:17791   */\n      tag_315\n      jumpi\n        /* \"#utility.yul\":17776:17780   */\n      0x7f\n        /* \"#utility.yul\":17768:17774   */\n      dup3\n        /* \"#utility.yul\":17764:17781   */\n      and\n        /* \"#utility.yul\":17754:17781   */\n      swap2\n      pop\n        /* \"#utility.yul\":17710:17791   */\n    tag_315:\n        /* \"#utility.yul\":17838:17840   */\n      0x20\n        /* \"#utility.yul\":17830:17836   */\n      dup3\n        /* \"#utility.yul\":17827:17841   */\n      lt\n        /* \"#utility.yul\":17807:17825   */\n      dup2\n        /* \"#utility.yul\":17804:17842   */\n      eq\n        /* \"#utility.yul\":17801:17885   */\n      iszero\n      tag_316\n      jumpi\n        /* \"#utility.yul\":17857:17875   */\n      tag_317\n      tag_318\n      jump\t// in\n    tag_317:\n        /* \"#utility.yul\":17801:17885   */\n    tag_316:\n        /* \"#utility.yul\":17622:17891   */\n      pop\n        /* \"#utility.yul\":17571:17891   */\n      swap2\n      swap1\n      pop\n      jump\t// out\n        /* \"#utility.yul\":17897:18178   */\n    tag_280:\n        /* \"#utility.yul\":17980:18007   */\n      tag_320\n        /* \"#utility.yul\":18002:18006   */\n      dup3\n        /* \"#utility.yul\":17980:18007   */\n      tag_230\n      jump\t// in\n    tag_320:\n        /* \"#utility.yul\":17972:17978   */\n      dup2\n        /* \"#utility.yul\":17968:18008   */\n      add\n        /* \"#utility.yul\":18110:18116   */\n      dup2\n        /* \"#utility.yul\":18098:18108   */\n      dup2\n        /* \"#utility.yul\":18095:18117   */\n      lt\n        /* \"#utility.yul\":18074:18092   */\n      0xffffffffffffffff\n        /* \"#utility.yul\":18062:18072   */\n      dup3\n        /* \"#utility.yul\":18059:18093   */\n      gt\n        /* \"#utility.yul\":18056:18118   */\n      or\n        /* \"#utility.yul\":18053:18141   */\n      iszero\n      tag_321\n      jumpi\n        /* \"#utility.yul\":18121:18139   */\n      tag_322\n      tag_285\n      jump\t// in\n    tag_322:\n        /* \"#utility.yul\":18053:18141   */\n    tag_321:\n        /* \"#utility.yul\":18161:18171   */\n      dup1\n        /* \"#utility.yul\":18157:18159   */\n      0x40\n        /* \"#utility.yul\":18150:18172   */\n      mstore\n        /* \"#utility.yul\":17940:18178   */\n      pop\n        /* \"#utility.yul\":17897:18178   */\n      pop\n      pop\n      jump\t// out\n        /* \"#utility.yul\":18184:18364   */\n    tag_305:\n        /* \"#utility.yul\":18232:18309   */\n      0x4e487b7100000000000000000000000000000000000000000000000000000000\n        /* \"#utility.yul\":18229:18230   */\n      0x00\n        /* \"#utility.yul\":18222:18310   */\n      mstore\n        /* \"#utility.yul\":18329:18333   */\n      0x11\n        /* \"#utility.yul\":18326:18327   */\n      0x04\n        /* \"#utility.yul\":18319:18334   */\n      mstore\n        /* \"#utility.yul\":18353:18357   */\n      0x24\n        /* \"#utility.yul\":18350:18351   */\n      0x00\n        /* \"#utility.yul\":18343:18358   */\n      revert\n        /* \"#utility.yul\":18370:18550   */\n    tag_318:\n        /* \"#utility.yul\":18418:18495   */\n      0x4e487b7100000000000000000000000000000000000000000000000000000000\n        /* \"#utility.yul\":18415:18416   */\n      0x00\n        /* \"#utility.yul\":18408:18496   */\n      mstore\n        /* \"#utility.yul\":18515:18519   */\n      0x22\n        /* \"#utility.yul\":18512:18513   */\n      0x04\n        /* \"#utility.yul\":18505:18520   */\n      mstore\n        /* \"#utility.yul\":18539:18543   */\n      0x24\n        /* \"#utility.yul\":18536:18537   */\n      0x00\n        /* \"#utility.yul\":18529:18544   */\n      revert\n        /* \"#utility.yul\":18556:18736   */\n    tag_285:\n        /* \"#utility.yul\":18604:18681   */\n      0x4e487b7100000000000000000000000000000000000000000000000000000000\n        /* \"#utility.yul\":18601:18602   */\n      0x00\n        /* \"#utility.yul\":18594:18682   */\n      mstore\n        /* \"#utility.yul\":18701:18705   */\n      0x41\n        /* \"#utility.yul\":18698:18699   */\n      0x04\n        /* \"#utility.yul\":18691:18706   */\n      mstore\n        /* \"#utility.yul\":18725:18729   */\n      0x24\n        /* \"#utility.yul\":18722:18723   */\n      0x00\n        /* \"#utility.yul\":18715:18730   */\n      revert\n        /* \"#utility.yul\":18742:18859   */\n    tag_134:\n        /* \"#utility.yul\":18851:18852   */\n      0x00\n        /* \"#utility.yul\":18848:18849   */\n      dup1\n        /* \"#utility.yul\":18841:18853   */\n      revert\n        /* \"#utility.yul\":18865:18982   */\n    tag_123:\n        /* \"#utility.yul\":18974:18975   */\n      0x00\n        /* \"#utility.yul\":18971:18972   */\n      dup1\n        /* \"#utility.yul\":18964:18976   */\n      revert\n        /* \"#utility.yul\":18988:19105   */\n    tag_146:\n        /* \"#utility.yul\":19097:19098   */\n      0x00\n        /* \"#utility.yul\":19094:19095   */\n      dup1\n        /* \"#utility.yul\":19087:19099   */\n      revert\n        /* \"#utility.yul\":19111:19228   */\n    tag_143:\n        /* \"#utility.yul\":19220:19221   */\n      0x00\n        /* \"#utility.yul\":19217:19218   */\n      dup1\n        /* \"#utility.yul\":19210:19222   */\n      revert\n        /* \"#utility.yul\":19234:19336   */\n    tag_230:\n        /* \"#utility.yul\":19275:19281   */\n      0x00\n        /* \"#utility.yul\":19326:19328   */\n      0x1f\n        /* \"#utility.yul\":19322:19329   */\n      not\n        /* \"#utility.yul\":19317:19319   */\n      0x1f\n        /* \"#utility.yul\":19310:19315   */\n      dup4\n        /* \"#utility.yul\":19306:19320   */\n      add\n        /* \"#utility.yul\":19302:19330   */\n      and\n        /* \"#utility.yul\":19292:19330   */\n      swap1\n      pop\n        /* \"#utility.yul\":19234:19336   */\n      swap2\n      swap1\n      pop\n      jump\t// out\n        /* \"#utility.yul\":19342:19460   */\n    tag_129:\n        /* \"#utility.yul\":19413:19435   */\n      tag_332\n        /* \"#utility.yul\":19429:19434   */\n      dup2\n        /* \"#utility.yul\":19413:19435   */\n      tag_217\n      jump\t// in\n    tag_332:\n        /* \"#utility.yul\":19406:19411   */\n      dup2\n        /* \"#utility.yul\":19403:19436   */\n      eq\n        /* \"#utility.yul\":19393:19454   */\n      tag_333\n      jumpi\n        /* \"#utility.yul\":19450:19451   */\n      0x00\n        /* \"#utility.yul\":19447:19448   */\n      dup1\n        /* \"#utility.yul\":19440:19452   */\n      revert\n        /* \"#utility.yul\":19393:19454   */\n    tag_333:\n        /* \"#utility.yul\":19342:19460   */\n      pop\n      jump\t// out\n        /* \"#utility.yul\":19466:19588   */\n    tag_139:\n        /* \"#utility.yul\":19539:19563   */\n      tag_335\n        /* \"#utility.yul\":19557:19562   */\n      dup2\n        /* \"#utility.yul\":19539:19563   */\n      tag_260\n      jump\t// in\n    tag_335:\n        /* \"#utility.yul\":19532:19537   */\n      dup2\n        /* \"#utility.yul\":19529:19564   */\n      eq\n        /* \"#utility.yul\":19519:19582   */\n      tag_336\n      jumpi\n        /* \"#utility.yul\":19578:19579   */\n      0x00\n        /* \"#utility.yul\":19575:19576   */\n      dup1\n        /* \"#utility.yul\":19568:19580   */\n      revert\n        /* \"#utility.yul\":19519:19582   */\n    tag_336:\n        /* \"#utility.yul\":19466:19588   */\n      pop\n      jump\t// out\n\n    auxdata: 0xa264697066735822122087e3e69325adf9d2db4178969c7ebef86da2761b184233340403cff2e18fdcc364736f6c63430008070033\n}\n",
				"bytecode": {
					"linkReferences": {},
					"object": "608060405234801561001057600080fd5b50611224806100206000396000f3fe608060405234801561001057600080fd5b50600436106100885760003560e01c8063d4290f831161005b578063d4290f8314610129578063e4d7a3d414610159578063e88e9f0f14610177578063f1cfa6a51461019357610088565b806302ee3a521461008d5780633f48d969146100ab5780633f70c2b4146100dd57806351401eef1461010d575b600080fd5b6100956101af565b6040516100a29190610e69565b60405180910390f35b6100c560048036038101906100c09190610a37565b6102c7565b6040516100d493929190610ead565b60405180910390f35b6100f760048036038101906100f29190610a37565b610386565b6040516101049190610e8b565b60405180910390f35b610127600480360381019061012291906109db565b61046c565b005b610143600480360381019061013e9190610992565b610525565b6040516101509190610e8b565b60405180910390f35b610161610616565b60405161016e9190610e47565b60405180910390f35b610191600480360381019061018c9190610992565b610829565b005b6101ad60048036038101906101a89190610a64565b61082c565b005b60606000805480602002602001604051908101604052809291908181526020016000905b828210156102be578382906000526020600020906003020160405180606001604052908160008201548152602001600182018054610210906110ab565b80601f016020809104026020016040519081016040528092919081815260200182805461023c906110ab565b80156102895780601f1061025e57610100808354040283529160200191610289565b820191906000526020600020905b81548152906001019060200180831161026c57829003601f168201915b505050505081526020016002820160009054906101000a900460010b60010b60010b81525050815260200190600101906101d3565b50505050905090565b60036020528060005260406000206000915090508060000154908060010180546102f0906110ab565b80601f016020809104026020016040519081016040528092919081815260200182805461031c906110ab565b80156103695780601f1061033e57610100808354040283529160200191610369565b820191906000526020600020905b81548152906001019060200180831161034c57829003601f168201915b5050505050908060020160009054906101000a900460010b905083565b61038e610831565b60036000838152602001908152602001600020604051806060016040529081600082015481526020016001820180546103c6906110ab565b80601f01602080910402602001604051908101604052809291908181526020018280546103f2906110ab565b801561043f5780601f106104145761010080835404028352916020019161043f565b820191906000526020600020905b81548152906001019060200180831161042257829003601f168201915b505050505081526020016002820160009054906101000a900460010b60010b60010b815250509050919050565b600060016000805490506104809190610ffc565b9050600060405180606001604052808381526020018581526020018460010b815250905060008190806001815401808255809150506001900390600052602060002090600302016000909190919091506000820151816000015560208201518160010190805190602001906104f6929190610855565b5060408201518160020160006101000a81548161ffff021916908360010b61ffff160217905550505050505050565b61052d610831565b60048260405161053d9190610e30565b908152602001604051809103902060405180606001604052908160008201548152602001600182018054610570906110ab565b80601f016020809104026020016040519081016040528092919081815260200182805461059c906110ab565b80156105e95780601f106105be576101008083540402835291602001916105e9565b820191906000526020600020905b8154815290600101906020018083116105cc57829003601f168201915b505050505081526020016002820160009054906101000a900460010b60010b60010b815250509050919050565b60606001805480602002602001604051908101604052809291908181526020016000905b82821015610820578382906000526020600020906003020160405180606001604052908160008201548152602001600182018054610677906110ab565b80601f01602080910402602001604051908101604052809291908181526020018280546106a3906110ab565b80156106f05780601f106106c5576101008083540402835291602001916106f0565b820191906000526020600020905b8154815290600101906020018083116106d357829003601f168201915b5050505050815260200160028201805480602002602001604051908101604052809291908181526020016000905b8282101561080957838290600052602060002090600302016040518060600160405290816000820154815260200160018201805461075b906110ab565b80601f0160208091040260200160405190810160405280929190818152602001828054610787906110ab565b80156107d45780601f106107a9576101008083540402835291602001916107d4565b820191906000526020600020905b8154815290600101906020018083116107b757829003601f168201915b505050505081526020016002820160009054906101000a900460010b60010b60010b815250508152602001906001019061071e565b50505050815250508152602001906001019061063a565b50505050905090565b50565b505050565b60405180606001604052806000815260200160608152602001600060010b81525090565b828054610861906110ab565b90600052602060002090601f01602090048101928261088357600085556108ca565b82601f1061089c57805160ff19168380011785556108ca565b828001600101855582156108ca579182015b828111156108c95782518255916020019190600101906108ae565b5b5090506108d791906108db565b5090565b5b808211156108f45760008160009055506001016108dc565b5090565b600061090b61090684610f10565b610eeb565b905082815260208101848484011115610927576109266111a0565b5b610932848285611069565b509392505050565b600081359050610949816111c0565b92915050565b600082601f8301126109645761096361119b565b5b81356109748482602086016108f8565b91505092915050565b60008135905061098c816111d7565b92915050565b6000602082840312156109a8576109a76111aa565b5b600082013567ffffffffffffffff8111156109c6576109c56111a5565b5b6109d28482850161094f565b91505092915050565b600080604083850312156109f2576109f16111aa565b5b600083013567ffffffffffffffff811115610a1057610a0f6111a5565b5b610a1c8582860161094f565b9250506020610a2d8582860161093a565b9150509250929050565b600060208284031215610a4d57610a4c6111aa565b5b6000610a5b8482850161097d565b91505092915050565b600080600060608486031215610a7d57610a7c6111aa565b5b6000610a8b8682870161097d565b935050602084013567ffffffffffffffff811115610aac57610aab6111a5565b5b610ab88682870161094f565b9250506040610ac98682870161093a565b9150509250925092565b6000610adf8383610d1b565b905092915050565b6000610af38383610d72565b905092915050565b6000610b0682610f61565b610b108185610f9c565b935083602082028501610b2285610f41565b8060005b85811015610b5e5784840389528151610b3f8582610ad3565b9450610b4a83610f82565b925060208a01995050600181019050610b26565b50829750879550505050505092915050565b6000610b7b82610f6c565b610b858185610fad565b935083602082028501610b9785610f51565b8060005b85811015610bd35784840389528151610bb48582610ae7565b9450610bbf83610f8f565b925060208a01995050600181019050610b9b565b50829750879550505050505092915050565b6000610bf082610f6c565b610bfa8185610fbe565b935083602082028501610c0c85610f51565b8060005b85811015610c485784840389528151610c298582610ae7565b9450610c3483610f8f565b925060208a01995050600181019050610c10565b50829750879550505050505092915050565b610c6381611052565b82525050565b610c7281611052565b82525050565b6000610c8382610f77565b610c8d8185610fcf565b9350610c9d818560208601611078565b610ca6816111af565b840191505092915050565b6000610cbc82610f77565b610cc68185610fe0565b9350610cd6818560208601611078565b610cdf816111af565b840191505092915050565b6000610cf582610f77565b610cff8185610ff1565b9350610d0f818560208601611078565b80840191505092915050565b6000606083016000830151610d336000860182610e12565b5060208301518482036020860152610d4b8282610c78565b91505060408301518482036040860152610d658282610b70565b9150508091505092915050565b6000606083016000830151610d8a6000860182610e12565b5060208301518482036020860152610da28282610c78565b9150506040830151610db76040860182610c5a565b508091505092915050565b6000606083016000830151610dda6000860182610e12565b5060208301518482036020860152610df28282610c78565b9150506040830151610e076040860182610c5a565b508091505092915050565b610e1b8161105f565b82525050565b610e2a8161105f565b82525050565b6000610e3c8284610cea565b915081905092915050565b60006020820190508181036000830152610e618184610afb565b905092915050565b60006020820190508181036000830152610e838184610be5565b905092915050565b60006020820190508181036000830152610ea58184610dc2565b905092915050565b6000606082019050610ec26000830186610e21565b8181036020830152610ed48185610cb1565b9050610ee36040830184610c69565b949350505050565b6000610ef5610f06565b9050610f0182826110dd565b919050565b6000604051905090565b600067ffffffffffffffff821115610f2b57610f2a61116c565b5b610f34826111af565b9050602081019050919050565b6000819050602082019050919050565b6000819050602082019050919050565b600081519050919050565b600081519050919050565b600081519050919050565b6000602082019050919050565b6000602082019050919050565b600082825260208201905092915050565b600082825260208201905092915050565b600082825260208201905092915050565b600082825260208201905092915050565b600082825260208201905092915050565b600081905092915050565b60006110078261105f565b91506110128361105f565b9250827fffffffffffffffffffffffffffffffffffffffffffffffffffffffffffffffff038211156110475761104661110e565b5b828201905092915050565b60008160010b9050919050565b6000819050919050565b82818337600083830152505050565b60005b8381101561109657808201518184015260208101905061107b565b838111156110a5576000848401525b50505050565b600060028204905060018216806110c357607f821691505b602082108114156110d7576110d661113d565b5b50919050565b6110e6826111af565b810181811067ffffffffffffffff821117156111055761110461116c565b5b80604052505050565b7f4e487b7100000000000000000000000000000000000000000000000000000000600052601160045260246000fd5b7f4e487b7100000000000000000000000000000000000000000000000000000000600052602260045260246000fd5b7f4e487b7100000000000000000000000000000000000000000000000000000000600052604160045260246000fd5b600080fd5b600080fd5b600080fd5b600080fd5b6000601f19601f8301169050919050565b6111c981611052565b81146111d457600080fd5b50565b6111e08161105f565b81146111eb57600080fd5b5056fea264697066735822122087e3e69325adf9d2db4178969c7ebef86da2761b184233340403cff2e18fdcc364736f6c63430008070033",
					"opcodes": "PUSH1 0x80 PUSH1 0x40 MSTORE CALLVALUE DUP1 ISZERO PUSH2 0x10 JUMPI PUSH1 0x0 DUP1 REVERT JUMPDEST POP PUSH2 0x1224 DUP1 PUSH2 0x20 PUSH1 0x0 CODECOPY PUSH1 0x0 RETURN INVALID PUSH1 0x80 PUSH1 0x40 MSTORE CALLVALUE DUP1 ISZERO PUSH2 0x10 JUMPI PUSH1 0x0 DUP1 REVERT JUMPDEST POP PUSH1 0x4 CALLDATASIZE LT PUSH2 0x88 JUMPI PUSH1 0x0 CALLDATALOAD PUSH1 0xE0 SHR DUP1 PUSH4 0xD4290F83 GT PUSH2 0x5B JUMPI DUP1 PUSH4 0xD4290F83 EQ PUSH2 0x129 JUMPI DUP1 PUSH4 0xE4D7A3D4 EQ PUSH2 0x159 JUMPI DUP1 PUSH4 0xE88E9F0F EQ PUSH2 0x177 JUMPI DUP1 PUSH4 0xF1CFA6A5 EQ PUSH2 0x193 JUMPI PUSH2 0x88 JUMP JUMPDEST DUP1 PUSH4 0x2EE3A52 EQ PUSH2 0x8D JUMPI DUP1 PUSH4 0x3F48D969 EQ PUSH2 0xAB JUMPI DUP1 PUSH4 0x3F70C2B4 EQ PUSH2 0xDD JUMPI DUP1 PUSH4 0x51401EEF EQ PUSH2 0x10D JUMPI JUMPDEST PUSH1 0x0 DUP1 REVERT JUMPDEST PUSH2 0x95 PUSH2 0x1AF JUMP JUMPDEST PUSH1 0x40 MLOAD PUSH2 0xA2 SWAP2 SWAP1 PUSH2 0xE69 JUMP JUMPDEST PUSH1 0x40 MLOAD DUP1 SWAP2 SUB SWAP1 RETURN JUMPDEST PUSH2 0xC5 PUSH1 0x4 DUP1 CALLDATASIZE SUB DUP2 ADD SWAP1 PUSH2 0xC0 SWAP2 SWAP1 PUSH2 0xA37 JUMP JUMPDEST PUSH2 0x2C7 JUMP JUMPDEST PUSH1 0x40 MLOAD PUSH2 0xD4 SWAP4 SWAP3 SWAP2 SWAP1 PUSH2 0xEAD JUMP JUMPDEST PUSH1 0x40 MLOAD DUP1 SWAP2 SUB SWAP1 RETURN JUMPDEST PUSH2 0xF7 PUSH1 0x4 DUP1 CALLDATASIZE SUB DUP2 ADD SWAP1 PUSH2 0xF2 SWAP2 SWAP1 PUSH2 0xA37 JUMP JUMPDEST PUSH2 0x386 JUMP JUMPDEST PUSH1 0x40 MLOAD PUSH2 0x104 SWAP2 SWAP1 PUSH2 0xE8B JUMP JUMPDEST PUSH1 0x40 MLOAD DUP1 SWAP2 SUB SWAP1 RETURN JUMPDEST PUSH2 0x127 PUSH1 0x4 DUP1 CALLDATASIZE SUB DUP2 ADD SWAP1 PUSH2 0x122 SWAP2 SWAP1 PUSH2 0x9DB JUMP JUMPDEST PUSH2 0x46C JUMP JUMPDEST STOP JUMPDEST PUSH2 0x143 PUSH1 0x4 DUP1 CALLDATASIZE SUB DUP2 ADD SWAP1 PUSH2 0x13E SWAP2 SWAP1 PUSH2 0x992 JUMP JUMPDEST PUSH2 0x525 JUMP JUMPDEST PUSH1 0x40 MLOAD PUSH2 0x150 SWAP2 SWAP1 PUSH2 0xE8B JUMP JUMPDEST PUSH1 0x40 MLOAD DUP1 SWAP2 SUB SWAP1 RETURN JUMPDEST PUSH2 0x161 PUSH2 0x616 JUMP JUMPDEST PUSH1 0x40 MLOAD PUSH2 0x16E SWAP2 SWAP1 PUSH2 0xE47 JUMP JUMPDEST PUSH1 0x40 MLOAD DUP1 SWAP2 SUB SWAP1 RETURN JUMPDEST PUSH2 0x191 PUSH1 0x4 DUP1 CALLDATASIZE SUB DUP2 ADD SWAP1 PUSH2 0x18C SWAP2 SWAP1 PUSH2 0x992 JUMP JUMPDEST PUSH2 0x829 JUMP JUMPDEST STOP JUMPDEST PUSH2 0x1AD PUSH1 0x4 DUP1 CALLDATASIZE SUB DUP2 ADD SWAP1 PUSH2 0x1A8 SWAP2 SWAP1 PUSH2 0xA64 JUMP JUMPDEST PUSH2 0x82C JUMP JUMPDEST STOP JUMPDEST PUSH1 0x60 PUSH1 0x0 DUP1 SLOAD DUP1 PUSH1 0x20 MUL PUSH1 0x20 ADD PUSH1 0x40 MLOAD SWAP1 DUP2 ADD PUSH1 0x40 MSTORE DUP1 SWAP3 SWAP2 SWAP1 DUP2 DUP2 MSTORE PUSH1 0x20 ADD PUSH1 0x0 SWAP1 JUMPDEST DUP3 DUP3 LT ISZERO PUSH2 0x2BE JUMPI DUP4 DUP3 SWAP1 PUSH1 0x0 MSTORE PUSH1 0x20 PUSH1 0x0 KECCAK256 SWAP1 PUSH1 0x3 MUL ADD PUSH1 0x40 MLOAD DUP1 PUSH1 0x60 ADD PUSH1 0x40 MSTORE SWAP1 DUP2 PUSH1 0x0 DUP3 ADD SLOAD DUP2 MSTORE PUSH1 0x20 ADD PUSH1 0x1 DUP3 ADD DUP1 SLOAD PUSH2 0x210 SWAP1 PUSH2 0x10AB JUMP JUMPDEST DUP1 PUSH1 0x1F ADD PUSH1 0x20 DUP1 SWAP2 DIV MUL PUSH1 0x20 ADD PUSH1 0x40 MLOAD SWAP1 DUP2 ADD PUSH1 0x40 MSTORE DUP1 SWAP3 SWAP2 SWAP1 DUP2 DUP2 MSTORE PUSH1 0x20 ADD DUP3 DUP1 SLOAD PUSH2 0x23C SWAP1 PUSH2 0x10AB JUMP JUMPDEST DUP1 ISZERO PUSH2 0x289 JUMPI DUP1 PUSH1 0x1F LT PUSH2 0x25E JUMPI PUSH2 0x100 DUP1 DUP4 SLOAD DIV MUL DUP4 MSTORE SWAP2 PUSH1 0x20 ADD SWAP2 PUSH2 0x289 JUMP JUMPDEST DUP3 ADD SWAP2 SWAP1 PUSH1 0x0 MSTORE PUSH1 0x20 PUSH1 0x0 KECCAK256 SWAP1 JUMPDEST DUP2 SLOAD DUP2 MSTORE SWAP1 PUSH1 0x1 ADD SWAP1 PUSH1 0x20 ADD DUP1 DUP4 GT PUSH2 0x26C JUMPI DUP3 SWAP1 SUB PUSH1 0x1F AND DUP3 ADD SWAP2 JUMPDEST POP POP POP POP POP DUP2 MSTORE PUSH1 0x20 ADD PUSH1 0x2 DUP3 ADD PUSH1 0x0 SWAP1 SLOAD SWAP1 PUSH2 0x100 EXP SWAP1 DIV PUSH1 0x1 SIGNEXTEND PUSH1 0x1 SIGNEXTEND PUSH1 0x1 SIGNEXTEND DUP2 MSTORE POP POP DUP2 MSTORE PUSH1 0x20 ADD SWAP1 PUSH1 0x1 ADD SWAP1 PUSH2 0x1D3 JUMP JUMPDEST POP POP POP POP SWAP1 POP SWAP1 JUMP JUMPDEST PUSH1 0x3 PUSH1 0x20 MSTORE DUP1 PUSH1 0x0 MSTORE PUSH1 0x40 PUSH1 0x0 KECCAK256 PUSH1 0x0 SWAP2 POP SWAP1 POP DUP1 PUSH1 0x0 ADD SLOAD SWAP1 DUP1 PUSH1 0x1 ADD DUP1 SLOAD PUSH2 0x2F0 SWAP1 PUSH2 0x10AB JUMP JUMPDEST DUP1 PUSH1 0x1F ADD PUSH1 0x20 DUP1 SWAP2 DIV MUL PUSH1 0x20 ADD PUSH1 0x40 MLOAD SWAP1 DUP2 ADD PUSH1 0x40 MSTORE DUP1 SWAP3 SWAP2 SWAP1 DUP2 DUP2 MSTORE PUSH1 0x20 ADD DUP3 DUP1 SLOAD PUSH2 0x31C SWAP1 PUSH2 0x10AB JUMP JUMPDEST DUP1 ISZERO PUSH2 0x369 JUMPI DUP1 PUSH1 0x1F LT PUSH2 0x33E JUMPI PUSH2 0x100 DUP1 DUP4 SLOAD DIV MUL DUP4 MSTORE SWAP2 PUSH1 0x20 ADD SWAP2 PUSH2 0x369 JUMP JUMPDEST DUP3 ADD SWAP2 SWAP1 PUSH1 0x0 MSTORE PUSH1 0x20 PUSH1 0x0 KECCAK256 SWAP1 JUMPDEST DUP2 SLOAD DUP2 MSTORE SWAP1 PUSH1 0x1 ADD SWAP1 PUSH1 0x20 ADD DUP1 DUP4 GT PUSH2 0x34C JUMPI DUP3 SWAP1 SUB PUSH1 0x1F AND DUP3 ADD SWAP2 JUMPDEST POP POP POP POP POP SWAP1 DUP1 PUSH1 0x2 ADD PUSH1 0x0 SWAP1 SLOAD SWAP1 PUSH2 0x100 EXP SWAP1 DIV PUSH1 0x1 SIGNEXTEND SWAP1 POP DUP4 JUMP JUMPDEST PUSH2 0x38E PUSH2 0x831 JUMP JUMPDEST PUSH1 0x3 PUSH1 0x0 DUP4 DUP2 MSTORE PUSH1 0x20 ADD SWAP1 DUP2 MSTORE PUSH1 0x20 ADD PUSH1 0x0 KECCAK256 PUSH1 0x40 MLOAD DUP1 PUSH1 0x60 ADD PUSH1 0x40 MSTORE SWAP1 DUP2 PUSH1 0x0 DUP3 ADD SLOAD DUP2 MSTORE PUSH1 0x20 ADD PUSH1 0x1 DUP3 ADD DUP1 SLOAD PUSH2 0x3C6 SWAP1 PUSH2 0x10AB JUMP JUMPDEST DUP1 PUSH1 0x1F ADD PUSH1 0x20 DUP1 SWAP2 DIV MUL PUSH1 0x20 ADD PUSH1 0x40 MLOAD SWAP1 DUP2 ADD PUSH1 0x40 MSTORE DUP1 SWAP3 SWAP2 SWAP1 DUP2 DUP2 MSTORE PUSH1 0x20 ADD DUP3 DUP1 SLOAD PUSH2 0x3F2 SWAP1 PUSH2 0x10AB JUMP JUMPDEST DUP1 ISZERO PUSH2 0x43F JUMPI DUP1 PUSH1 0x1F LT PUSH2 0x414 JUMPI PUSH2 0x100 DUP1 DUP4 SLOAD DIV MUL DUP4 MSTORE SWAP2 PUSH1 0x20 ADD SWAP2 PUSH2 0x43F JUMP JUMPDEST DUP3 ADD SWAP2 SWAP1 PUSH1 0x0 MSTORE PUSH1 0x20 PUSH1 0x0 KECCAK256 SWAP1 JUMPDEST DUP2 SLOAD DUP2 MSTORE SWAP1 PUSH1 0x1 ADD SWAP1 PUSH1 0x20 ADD DUP1 DUP4 GT PUSH2 0x422 JUMPI DUP3 SWAP1 SUB PUSH1 0x1F AND DUP3 ADD SWAP2 JUMPDEST POP POP POP POP POP DUP2 MSTORE PUSH1 0x20 ADD PUSH1 0x2 DUP3 ADD PUSH1 0x0 SWAP1 SLOAD SWAP1 PUSH2 0x100 EXP SWAP1 DIV PUSH1 0x1 SIGNEXTEND PUSH1 0x1 SIGNEXTEND PUSH1 0x1 SIGNEXTEND DUP2 MSTORE POP POP SWAP1 POP SWAP2 SWAP1 POP JUMP JUMPDEST PUSH1 0x0 PUSH1 0x1 PUSH1 0x0 DUP1 SLOAD SWAP1 POP PUSH2 0x480 SWAP2 SWAP1 PUSH2 0xFFC JUMP JUMPDEST SWAP1 POP PUSH1 0x0 PUSH1 0x40 MLOAD DUP1 PUSH1 0x60 ADD PUSH1 0x40 MSTORE DUP1 DUP4 DUP2 MSTORE PUSH1 0x20 ADD DUP6 DUP2 MSTORE PUSH1 0x20 ADD DUP5 PUSH1 0x1 SIGNEXTEND DUP2 MSTORE POP SWAP1 POP PUSH1 0x0 DUP2 SWAP1 DUP1 PUSH1 0x1 DUP2 SLOAD ADD DUP1 DUP3 SSTORE DUP1 SWAP2 POP POP PUSH1 0x1 SWAP1 SUB SWAP1 PUSH1 0x0 MSTORE PUSH1 0x20 PUSH1 0x0 KECCAK256 SWAP1 PUSH1 0x3 MUL ADD PUSH1 0x0 SWAP1 SWAP2 SWAP1 SWAP2 SWAP1 SWAP2 POP PUSH1 0x0 DUP3 ADD MLOAD DUP2 PUSH1 0x0 ADD SSTORE PUSH1 0x20 DUP3 ADD MLOAD DUP2 PUSH1 0x1 ADD SWAP1 DUP1 MLOAD SWAP1 PUSH1 0x20 ADD SWAP1 PUSH2 0x4F6 SWAP3 SWAP2 SWAP1 PUSH2 0x855 JUMP JUMPDEST POP PUSH1 0x40 DUP3 ADD MLOAD DUP2 PUSH1 0x2 ADD PUSH1 0x0 PUSH2 0x100 EXP DUP2 SLOAD DUP2 PUSH2 0xFFFF MUL NOT AND SWAP1 DUP4 PUSH1 0x1 SIGNEXTEND PUSH2 0xFFFF AND MUL OR SWAP1 SSTORE POP POP POP POP POP POP POP JUMP JUMPDEST PUSH2 0x52D PUSH2 0x831 JUMP JUMPDEST PUSH1 0x4 DUP3 PUSH1 0x40 MLOAD PUSH2 0x53D SWAP2 SWAP1 PUSH2 0xE30 JUMP JUMPDEST SWAP1 DUP2 MSTORE PUSH1 0x20 ADD PUSH1 0x40 MLOAD DUP1 SWAP2 SUB SWAP1 KECCAK256 PUSH1 0x40 MLOAD DUP1 PUSH1 0x60 ADD PUSH1 0x40 MSTORE SWAP1 DUP2 PUSH1 0x0 DUP3 ADD SLOAD DUP2 MSTORE PUSH1 0x20 ADD PUSH1 0x1 DUP3 ADD DUP1 SLOAD PUSH2 0x570 SWAP1 PUSH2 0x10AB JUMP JUMPDEST DUP1 PUSH1 0x1F ADD PUSH1 0x20 DUP1 SWAP2 DIV MUL PUSH1 0x20 ADD PUSH1 0x40 MLOAD SWAP1 DUP2 ADD PUSH1 0x40 MSTORE DUP1 SWAP3 SWAP2 SWAP1 DUP2 DUP2 MSTORE PUSH1 0x20 ADD DUP3 DUP1 SLOAD PUSH2 0x59C SWAP1 PUSH2 0x10AB JUMP JUMPDEST DUP1 ISZERO PUSH2 0x5E9 JUMPI DUP1 PUSH1 0x1F LT PUSH2 0x5BE JUMPI PUSH2 0x100 DUP1 DUP4 SLOAD DIV MUL DUP4 MSTORE SWAP2 PUSH1 0x20 ADD SWAP2 PUSH2 0x5E9 JUMP JUMPDEST DUP3 ADD SWAP2 SWAP1 PUSH1 0x0 MSTORE PUSH1 0x20 PUSH1 0x0 KECCAK256 SWAP1 JUMPDEST DUP2 SLOAD DUP2 MSTORE SWAP1 PUSH1 0x1 ADD SWAP1 PUSH1 0x20 ADD DUP1 DUP4 GT PUSH2 0x5CC JUMPI DUP3 SWAP1 SUB PUSH1 0x1F AND DUP3 ADD SWAP2 JUMPDEST POP POP POP POP POP DUP2 MSTORE PUSH1 0x20 ADD PUSH1 0x2 DUP3 ADD PUSH1 0x0 SWAP1 SLOAD SWAP1 PUSH2 0x100 EXP SWAP1 DIV PUSH1 0x1 SIGNEXTEND PUSH1 0x1 SIGNEXTEND PUSH1 0x1 SIGNEXTEND DUP2 MSTORE POP POP SWAP1 POP SWAP2 SWAP1 POP JUMP JUMPDEST PUSH1 0x60 PUSH1 0x1 DUP1 SLOAD DUP1 PUSH1 0x20 MUL PUSH1 0x20 ADD PUSH1 0x40 MLOAD SWAP1 DUP2 ADD PUSH1 0x40 MSTORE DUP1 SWAP3 SWAP2 SWAP1 DUP2 DUP2 MSTORE PUSH1 0x20 ADD PUSH1 0x0 SWAP1 JUMPDEST DUP3 DUP3 LT ISZERO PUSH2 0x820 JUMPI DUP4 DUP3 SWAP1 PUSH1 0x0 MSTORE PUSH1 0x20 PUSH1 0x0 KECCAK256 SWAP1 PUSH1 0x3 MUL ADD PUSH1 0x40 MLOAD DUP1 PUSH1 0x60 ADD PUSH1 0x40 MSTORE SWAP1 DUP2 PUSH1 0x0 DUP3 ADD SLOAD DUP2 MSTORE PUSH1 0x20 ADD PUSH1 0x1 DUP3 ADD DUP1 SLOAD PUSH2 0x677 SWAP1 PUSH2 0x10AB JUMP JUMPDEST DUP1 PUSH1 0x1F ADD PUSH1 0x20 DUP1 SWAP2 DIV MUL PUSH1 0x20 ADD PUSH1 0x40 MLOAD SWAP1 DUP2 ADD PUSH1 0x40 MSTORE DUP1 SWAP3 SWAP2 SWAP1 DUP2 DUP2 MSTORE PUSH1 0x20 ADD DUP3 DUP1 SLOAD PUSH2 0x6A3 SWAP1 PUSH2 0x10AB JUMP JUMPDEST DUP1 ISZERO PUSH2 0x6F0 JUMPI DUP1 PUSH1 0x1F LT PUSH2 0x6C5 JUMPI PUSH2 0x100 DUP1 DUP4 SLOAD DIV MUL DUP4 MSTORE SWAP2 PUSH1 0x20 ADD SWAP2 PUSH2 0x6F0 JUMP JUMPDEST DUP3 ADD SWAP2 SWAP1 PUSH1 0x0 MSTORE PUSH1 0x20 PUSH1 0x0 KECCAK256 SWAP1 JUMPDEST DUP2 SLOAD DUP2 MSTORE SWAP1 PUSH1 0x1 ADD SWAP1 PUSH1 0x20 ADD DUP1 DUP4 GT PUSH2 0x6D3 JUMPI DUP3 SWAP1 SUB PUSH1 0x1F AND DUP3 ADD SWAP2 JUMPDEST POP POP POP POP POP DUP2 MSTORE PUSH1 0x20 ADD PUSH1 0x2 DUP3 ADD DUP1 SLOAD DUP1 PUSH1 0x20 MUL PUSH1 0x20 ADD PUSH1 0x40 MLOAD SWAP1 DUP2 ADD PUSH1 0x40 MSTORE DUP1 SWAP3 SWAP2 SWAP1 DUP2 DUP2 MSTORE PUSH1 0x20 ADD PUSH1 0x0 SWAP1 JUMPDEST DUP3 DUP3 LT ISZERO PUSH2 0x809 JUMPI DUP4 DUP3 SWAP1 PUSH1 0x0 MSTORE PUSH1 0x20 PUSH1 0x0 KECCAK256 SWAP1 PUSH1 0x3 MUL ADD PUSH1 0x40 MLOAD DUP1 PUSH1 0x60 ADD PUSH1 0x40 MSTORE SWAP1 DUP2 PUSH1 0x0 DUP3 ADD SLOAD DUP2 MSTORE PUSH1 0x20 ADD PUSH1 0x1 DUP3 ADD DUP1 SLOAD PUSH2 0x75B SWAP1 PUSH2 0x10AB JUMP JUMPDEST DUP1 PUSH1 0x1F ADD PUSH1 0x20 DUP1 SWAP2 DIV MUL PUSH1 0x20 ADD PUSH1 0x40 MLOAD SWAP1 DUP2 ADD PUSH1 0x40 MSTORE DUP1 SWAP3 SWAP2 SWAP1 DUP2 DUP2 MSTORE PUSH1 0x20 ADD DUP3 DUP1 SLOAD PUSH2 0x787 SWAP1 PUSH2 0x10AB JUMP JUMPDEST DUP1 ISZERO PUSH2 0x7D4 JUMPI DUP1 PUSH1 0x1F LT PUSH2 0x7A9 JUMPI PUSH2 0x100 DUP1 DUP4 SLOAD DIV MUL DUP4 MSTORE SWAP2 PUSH1 0x20 ADD SWAP2 PUSH2 0x7D4 JUMP JUMPDEST DUP3 ADD SWAP2 SWAP1 PUSH1 0x0 MSTORE PUSH1 0x20 PUSH1 0x0 KECCAK256 SWAP1 JUMPDEST DUP2 SLOAD DUP2 MSTORE SWAP1 PUSH1 0x1 ADD SWAP1 PUSH1 0x20 ADD DUP1 DUP4 GT PUSH2 0x7B7 JUMPI DUP3 SWAP1 SUB PUSH1 0x1F AND DUP3 ADD SWAP2 JUMPDEST POP POP POP POP POP DUP2 MSTORE PUSH1 0x20 ADD PUSH1 0x2 DUP3 ADD PUSH1 0x0 SWAP1 SLOAD SWAP1 PUSH2 0x100 EXP SWAP1 DIV PUSH1 0x1 SIGNEXTEND PUSH1 0x1 SIGNEXTEND PUSH1 0x1 SIGNEXTEND DUP2 MSTORE POP POP DUP2 MSTORE PUSH1 0x20 ADD SWAP1 PUSH1 0x1 ADD SWAP1 PUSH2 0x71E JUMP JUMPDEST POP POP POP POP DUP2 MSTORE POP POP DUP2 MSTORE PUSH1 0x20 ADD SWAP1 PUSH1 0x1 ADD SWAP1 PUSH2 0x63A JUMP JUMPDEST POP POP POP POP SWAP1 POP SWAP1 JUMP JUMPDEST POP JUMP JUMPDEST POP POP POP JUMP JUMPDEST PUSH1 0x40 MLOAD DUP1 PUSH1 0x60 ADD PUSH1 0x40 MSTORE DUP1 PUSH1 0x0 DUP2 MSTORE PUSH1 0x20 ADD PUSH1 0x60 DUP2 MSTORE PUSH1 0x20 ADD PUSH1 0x0 PUSH1 0x1 SIGNEXTEND DUP2 MSTORE POP SWAP1 JUMP JUMPDEST DUP3 DUP1 SLOAD PUSH2 0x861 SWAP1 PUSH2 0x10AB JUMP JUMPDEST SWAP1 PUSH1 0x0 MSTORE PUSH1 0x20 PUSH1 0x0 KECCAK256 SWAP1 PUSH1 0x1F ADD PUSH1 0x20 SWAP1 DIV DUP2 ADD SWAP3 DUP3 PUSH2 0x883 JUMPI PUSH1 0x0 DUP6 SSTORE PUSH2 0x8CA JUMP JUMPDEST DUP3 PUSH1 0x1F LT PUSH2 0x89C JUMPI DUP1 MLOAD PUSH1 0xFF NOT AND DUP4 DUP1 ADD OR DUP6 SSTORE PUSH2 0x8CA JUMP JUMPDEST DUP3 DUP1 ADD PUSH1 0x1 ADD DUP6 SSTORE DUP3 ISZERO PUSH2 0x8CA JUMPI SWAP2 DUP3 ADD JUMPDEST DUP3 DUP2 GT ISZERO PUSH2 0x8C9 JUMPI DUP3 MLOAD DUP3 SSTORE SWAP2 PUSH1 0x20 ADD SWAP2 SWAP1 PUSH1 0x1 ADD SWAP1 PUSH2 0x8AE JUMP JUMPDEST JUMPDEST POP SWAP1 POP PUSH2 0x8D7 SWAP2 SWAP1 PUSH2 0x8DB JUMP JUMPDEST POP SWAP1 JUMP JUMPDEST JUMPDEST DUP1 DUP3 GT ISZERO PUSH2 0x8F4 JUMPI PUSH1 0x0 DUP2 PUSH1 0x0 SWAP1 SSTORE POP PUSH1 0x1 ADD PUSH2 0x8DC JUMP JUMPDEST POP SWAP1 JUMP JUMPDEST PUSH1 0x0 PUSH2 0x90B PUSH2 0x906 DUP5 PUSH2 0xF10 JUMP JUMPDEST PUSH2 0xEEB JUMP JUMPDEST SWAP1 POP DUP3 DUP2 MSTORE PUSH1 0x20 DUP2 ADD DUP5 DUP5 DUP5 ADD GT ISZERO PUSH2 0x927 JUMPI PUSH2 0x926 PUSH2 0x11A0 JUMP JUMPDEST JUMPDEST PUSH2 0x932 DUP5 DUP3 DUP6 PUSH2 0x1069 JUMP JUMPDEST POP SWAP4 SWAP3 POP POP POP JUMP JUMPDEST PUSH1 0x0 DUP2 CALLDATALOAD SWAP1 POP PUSH2 0x949 DUP2 PUSH2 0x11C0 JUMP JUMPDEST SWAP3 SWAP2 POP POP JUMP JUMPDEST PUSH1 0x0 DUP3 PUSH1 0x1F DUP4 ADD SLT PUSH2 0x964 JUMPI PUSH2 0x963 PUSH2 0x119B JUMP JUMPDEST JUMPDEST DUP2 CALLDATALOAD PUSH2 0x974 DUP5 DUP3 PUSH1 0x20 DUP7 ADD PUSH2 0x8F8 JUMP JUMPDEST SWAP2 POP POP SWAP3 SWAP2 POP POP JUMP JUMPDEST PUSH1 0x0 DUP2 CALLDATALOAD SWAP1 POP PUSH2 0x98C DUP2 PUSH2 0x11D7 JUMP JUMPDEST SWAP3 SWAP2 POP POP JUMP JUMPDEST PUSH1 0x0 PUSH1 0x20 DUP3 DUP5 SUB SLT ISZERO PUSH2 0x9A8 JUMPI PUSH2 0x9A7 PUSH2 0x11AA JUMP JUMPDEST JUMPDEST PUSH1 0x0 DUP3 ADD CALLDATALOAD PUSH8 0xFFFFFFFFFFFFFFFF DUP2 GT ISZERO PUSH2 0x9C6 JUMPI PUSH2 0x9C5 PUSH2 0x11A5 JUMP JUMPDEST JUMPDEST PUSH2 0x9D2 DUP5 DUP3 DUP6 ADD PUSH2 0x94F JUMP JUMPDEST SWAP2 POP POP SWAP3 SWAP2 POP POP JUMP JUMPDEST PUSH1 0x0 DUP1 PUSH1 0x40 DUP4 DUP6 SUB SLT ISZERO PUSH2 0x9F2 JUMPI PUSH2 0x9F1 PUSH2 0x11AA JUMP JUMPDEST JUMPDEST PUSH1 0x0 DUP4 ADD CALLDATALOAD PUSH8 0xFFFFFFFFFFFFFFFF DUP2 GT ISZERO PUSH2 0xA10 JUMPI PUSH2 0xA0F PUSH2 0x11A5 JUMP JUMPDEST JUMPDEST PUSH2 0xA1C DUP6 DUP3 DUP7 ADD PUSH2 0x94F JUMP JUMPDEST SWAP3 POP POP PUSH1 0x20 PUSH2 0xA2D DUP6 DUP3 DUP7 ADD PUSH2 0x93A JUMP JUMPDEST SWAP2 POP POP SWAP3 POP SWAP3 SWAP1 POP JUMP JUMPDEST PUSH1 0x0 PUSH1 0x20 DUP3 DUP5 SUB SLT ISZERO PUSH2 0xA4D JUMPI PUSH2 0xA4C PUSH2 0x11AA JUMP JUMPDEST JUMPDEST PUSH1 0x0 PUSH2 0xA5B DUP5 DUP3 DUP6 ADD PUSH2 0x97D JUMP JUMPDEST SWAP2 POP POP SWAP3 SWAP2 POP POP JUMP JUMPDEST PUSH1 0x0 DUP1 PUSH1 0x0 PUSH1 0x60 DUP5 DUP7 SUB SLT ISZERO PUSH2 0xA7D JUMPI PUSH2 0xA7C PUSH2 0x11AA JUMP JUMPDEST JUMPDEST PUSH1 0x0 PUSH2 0xA8B DUP7 DUP3 DUP8 ADD PUSH2 0x97D JUMP JUMPDEST SWAP4 POP POP PUSH1 0x20 DUP5 ADD CALLDATALOAD PUSH8 0xFFFFFFFFFFFFFFFF DUP2 GT ISZERO PUSH2 0xAAC JUMPI PUSH2 0xAAB PUSH2 0x11A5 JUMP JUMPDEST JUMPDEST PUSH2 0xAB8 DUP7 DUP3 DUP8 ADD PUSH2 0x94F JUMP JUMPDEST SWAP3 POP POP PUSH1 0x40 PUSH2 0xAC9 DUP7 DUP3 DUP8 ADD PUSH2 0x93A JUMP JUMPDEST SWAP2 POP POP SWAP3 POP SWAP3 POP SWAP3 JUMP JUMPDEST PUSH1 0x0 PUSH2 0xADF DUP4 DUP4 PUSH2 0xD1B JUMP JUMPDEST SWAP1 POP SWAP3 SWAP2 POP POP JUMP JUMPDEST PUSH1 0x0 PUSH2 0xAF3 DUP4 DUP4 PUSH2 0xD72 JUMP JUMPDEST SWAP1 POP SWAP3 SWAP2 POP POP JUMP JUMPDEST PUSH1 0x0 PUSH2 0xB06 DUP3 PUSH2 0xF61 JUMP JUMPDEST PUSH2 0xB10 DUP2 DUP6 PUSH2 0xF9C JUMP JUMPDEST SWAP4 POP DUP4 PUSH1 0x20 DUP3 MUL DUP6 ADD PUSH2 0xB22 DUP6 PUSH2 0xF41 JUMP JUMPDEST DUP1 PUSH1 0x0 JUMPDEST DUP6 DUP2 LT ISZERO PUSH2 0xB5E JUMPI DUP5 DUP5 SUB DUP10 MSTORE DUP2 MLOAD PUSH2 0xB3F DUP6 DUP3 PUSH2 0xAD3 JUMP JUMPDEST SWAP5 POP PUSH2 0xB4A DUP4 PUSH2 0xF82 JUMP JUMPDEST SWAP3 POP PUSH1 0x20 DUP11 ADD SWAP10 POP POP PUSH1 0x1 DUP2 ADD SWAP1 POP PUSH2 0xB26 JUMP JUMPDEST POP DUP3 SWAP8 POP DUP8 SWAP6 POP POP POP POP POP POP SWAP3 SWAP2 POP POP JUMP JUMPDEST PUSH1 0x0 PUSH2 0xB7B DUP3 PUSH2 0xF6C JUMP JUMPDEST PUSH2 0xB85 DUP2 DUP6 PUSH2 0xFAD JUMP JUMPDEST SWAP4 POP DUP4 PUSH1 0x20 DUP3 MUL DUP6 ADD PUSH2 0xB97 DUP6 PUSH2 0xF51 JUMP JUMPDEST DUP1 PUSH1 0x0 JUMPDEST DUP6 DUP2 LT ISZERO PUSH2 0xBD3 JUMPI DUP5 DUP5 SUB DUP10 MSTORE DUP2 MLOAD PUSH2 0xBB4 DUP6 DUP3 PUSH2 0xAE7 JUMP JUMPDEST SWAP5 POP PUSH2 0xBBF DUP4 PUSH2 0xF8F JUMP JUMPDEST SWAP3 POP PUSH1 0x20 DUP11 ADD SWAP10 POP POP PUSH1 0x1 DUP2 ADD SWAP1 POP PUSH2 0xB9B JUMP JUMPDEST POP DUP3 SWAP8 POP DUP8 SWAP6 POP POP POP POP POP POP SWAP3 SWAP2 POP POP JUMP JUMPDEST PUSH1 0x0 PUSH2 0xBF0 DUP3 PUSH2 0xF6C JUMP JUMPDEST PUSH2 0xBFA DUP2 DUP6 PUSH2 0xFBE JUMP JUMPDEST SWAP4 POP DUP4 PUSH1 0x20 DUP3 MUL DUP6 ADD PUSH2 0xC0C DUP6 PUSH2 0xF51 JUMP JUMPDEST DUP1 PUSH1 0x0 JUMPDEST DUP6 DUP2 LT ISZERO PUSH2 0xC48 JUMPI DUP5 DUP5 SUB DUP10 MSTORE DUP2 MLOAD PUSH2 0xC29 DUP6 DUP3 PUSH2 0xAE7 JUMP JUMPDEST SWAP5 POP PUSH2 0xC34 DUP4 PUSH2 0xF8F JUMP JUMPDEST SWAP3 POP PUSH1 0x20 DUP11 ADD SWAP10 POP POP PUSH1 0x1 DUP2 ADD SWAP1 POP PUSH2 0xC10 JUMP JUMPDEST POP DUP3 SWAP8 POP DUP8 SWAP6 POP POP POP POP POP POP SWAP3 SWAP2 POP POP JUMP JUMPDEST PUSH2 0xC63 DUP2 PUSH2 0x1052 JUMP JUMPDEST DUP3 MSTORE POP POP JUMP JUMPDEST PUSH2 0xC72 DUP2 PUSH2 0x1052 JUMP JUMPDEST DUP3 MSTORE POP POP JUMP JUMPDEST PUSH1 0x0 PUSH2 0xC83 DUP3 PUSH2 0xF77 JUMP JUMPDEST PUSH2 0xC8D DUP2 DUP6 PUSH2 0xFCF JUMP JUMPDEST SWAP4 POP PUSH2 0xC9D DUP2 DUP6 PUSH1 0x20 DUP7 ADD PUSH2 0x1078 JUMP JUMPDEST PUSH2 0xCA6 DUP2 PUSH2 0x11AF JUMP JUMPDEST DUP5 ADD SWAP2 POP POP SWAP3 SWAP2 POP POP JUMP JUMPDEST PUSH1 0x0 PUSH2 0xCBC DUP3 PUSH2 0xF77 JUMP JUMPDEST PUSH2 0xCC6 DUP2 DUP6 PUSH2 0xFE0 JUMP JUMPDEST SWAP4 POP PUSH2 0xCD6 DUP2 DUP6 PUSH1 0x20 DUP7 ADD PUSH2 0x1078 JUMP JUMPDEST PUSH2 0xCDF DUP2 PUSH2 0x11AF JUMP JUMPDEST DUP5 ADD SWAP2 POP POP SWAP3 SWAP2 POP POP JUMP JUMPDEST PUSH1 0x0 PUSH2 0xCF5 DUP3 PUSH2 0xF77 JUMP JUMPDEST PUSH2 0xCFF DUP2 DUP6 PUSH2 0xFF1 JUMP JUMPDEST SWAP4 POP PUSH2 0xD0F DUP2 DUP6 PUSH1 0x20 DUP7 ADD PUSH2 0x1078 JUMP JUMPDEST DUP1 DUP5 ADD SWAP2 POP POP SWAP3 SWAP2 POP POP JUMP JUMPDEST PUSH1 0x0 PUSH1 0x60 DUP4 ADD PUSH1 0x0 DUP4 ADD MLOAD PUSH2 0xD33 PUSH1 0x0 DUP7 ADD DUP3 PUSH2 0xE12 JUMP JUMPDEST POP PUSH1 0x20 DUP4 ADD MLOAD DUP5 DUP3 SUB PUSH1 0x20 DUP7 ADD MSTORE PUSH2 0xD4B DUP3 DUP3 PUSH2 0xC78 JUMP JUMPDEST SWAP2 POP POP PUSH1 0x40 DUP4 ADD MLOAD DUP5 DUP3 SUB PUSH1 0x40 DUP7 ADD MSTORE PUSH2 0xD65 DUP3 DUP3 PUSH2 0xB70 JUMP JUMPDEST SWAP2 POP POP DUP1 SWAP2 POP POP SWAP3 SWAP2 POP POP JUMP JUMPDEST PUSH1 0x0 PUSH1 0x60 DUP4 ADD PUSH1 0x0 DUP4 ADD MLOAD PUSH2 0xD8A PUSH1 0x0 DUP7 ADD DUP3 PUSH2 0xE12 JUMP JUMPDEST POP PUSH1 0x20 DUP4 ADD MLOAD DUP5 DUP3 SUB PUSH1 0x20 DUP7 ADD MSTORE PUSH2 0xDA2 DUP3 DUP3 PUSH2 0xC78 JUMP JUMPDEST SWAP2 POP POP PUSH1 0x40 DUP4 ADD MLOAD PUSH2 0xDB7 PUSH1 0x40 DUP7 ADD DUP3 PUSH2 0xC5A JUMP JUMPDEST POP DUP1 SWAP2 POP POP SWAP3 SWAP2 POP POP JUMP JUMPDEST PUSH1 0x0 PUSH1 0x60 DUP4 ADD PUSH1 0x0 DUP4 ADD MLOAD PUSH2 0xDDA PUSH1 0x0 DUP7 ADD DUP3 PUSH2 0xE12 JUMP JUMPDEST POP PUSH1 0x20 DUP4 ADD MLOAD DUP5 DUP3 SUB PUSH1 0x20 DUP7 ADD MSTORE PUSH2 0xDF2 DUP3 DUP3 PUSH2 0xC78 JUMP JUMPDEST SWAP2 POP POP PUSH1 0x40 DUP4 ADD MLOAD PUSH2 0xE07 PUSH1 0x40 DUP7 ADD DUP3 PUSH2 0xC5A JUMP JUMPDEST POP DUP1 SWAP2 POP POP SWAP3 SWAP2 POP POP JUMP JUMPDEST PUSH2 0xE1B DUP2 PUSH2 0x105F JUMP JUMPDEST DUP3 MSTORE POP POP JUMP JUMPDEST PUSH2 0xE2A DUP2 PUSH2 0x105F JUMP JUMPDEST DUP3 MSTORE POP POP JUMP JUMPDEST PUSH1 0x0 PUSH2 0xE3C DUP3 DUP5 PUSH2 0xCEA JUMP JUMPDEST SWAP2 POP DUP2 SWAP1 POP SWAP3 SWAP2 POP POP JUMP JUMPDEST PUSH1 0x0 PUSH1 0x20 DUP3 ADD SWAP1 POP DUP2 DUP2 SUB PUSH1 0x0 DUP4 ADD MSTORE PUSH2 0xE61 DUP2 DUP5 PUSH2 0xAFB JUMP JUMPDEST SWAP1 POP SWAP3 SWAP2 POP POP JUMP JUMPDEST PUSH1 0x0 PUSH1 0x20 DUP3 ADD SWAP1 POP DUP2 DUP2 SUB PUSH1 0x0 DUP4 ADD MSTORE PUSH2 0xE83 DUP2 DUP5 PUSH2 0xBE5 JUMP JUMPDEST SWAP1 POP SWAP3 SWAP2 POP POP JUMP JUMPDEST PUSH1 0x0 PUSH1 0x20 DUP3 ADD SWAP1 POP DUP2 DUP2 SUB PUSH1 0x0 DUP4 ADD MSTORE PUSH2 0xEA5 DUP2 DUP5 PUSH2 0xDC2 JUMP JUMPDEST SWAP1 POP SWAP3 SWAP2 POP POP JUMP JUMPDEST PUSH1 0x0 PUSH1 0x60 DUP3 ADD SWAP1 POP PUSH2 0xEC2 PUSH1 0x0 DUP4 ADD DUP7 PUSH2 0xE21 JUMP JUMPDEST DUP2 DUP2 SUB PUSH1 0x20 DUP4 ADD MSTORE PUSH2 0xED4 DUP2 DUP6 PUSH2 0xCB1 JUMP JUMPDEST SWAP1 POP PUSH2 0xEE3 PUSH1 0x40 DUP4 ADD DUP5 PUSH2 0xC69 JUMP JUMPDEST SWAP5 SWAP4 POP POP POP POP JUMP JUMPDEST PUSH1 0x0 PUSH2 0xEF5 PUSH2 0xF06 JUMP JUMPDEST SWAP1 POP PUSH2 0xF01 DUP3 DUP3 PUSH2 0x10DD JUMP JUMPDEST SWAP2 SWAP1 POP JUMP JUMPDEST PUSH1 0x0 PUSH1 0x40 MLOAD SWAP1 POP SWAP1 JUMP JUMPDEST PUSH1 0x0 PUSH8 0xFFFFFFFFFFFFFFFF DUP3 GT ISZERO PUSH2 0xF2B JUMPI PUSH2 0xF2A PUSH2 0x116C JUMP JUMPDEST JUMPDEST PUSH2 0xF34 DUP3 PUSH2 0x11AF JUMP JUMPDEST SWAP1 POP PUSH1 0x20 DUP2 ADD SWAP1 POP SWAP2 SWAP1 POP JUMP JUMPDEST PUSH1 0x0 DUP2 SWAP1 POP PUSH1 0x20 DUP3 ADD SWAP1 POP SWAP2 SWAP1 POP JUMP JUMPDEST PUSH1 0x0 DUP2 SWAP1 POP PUSH1 0x20 DUP3 ADD SWAP1 POP SWAP2 SWAP1 POP JUMP JUMPDEST PUSH1 0x0 DUP2 MLOAD SWAP1 POP SWAP2 SWAP1 POP JUMP JUMPDEST PUSH1 0x0 DUP2 MLOAD SWAP1 POP SWAP2 SWAP1 POP JUMP JUMPDEST PUSH1 0x0 DUP2 MLOAD SWAP1 POP SWAP2 SWAP1 POP JUMP JUMPDEST PUSH1 0x0 PUSH1 0x20 DUP3 ADD SWAP1 POP SWAP2 SWAP1 POP JUMP JUMPDEST PUSH1 0x0 PUSH1 0x20 DUP3 ADD SWAP1 POP SWAP2 SWAP1 POP JUMP JUMPDEST PUSH1 0x0 DUP3 DUP3 MSTORE PUSH1 0x20 DUP3 ADD SWAP1 POP SWAP3 SWAP2 POP POP JUMP JUMPDEST PUSH1 0x0 DUP3 DUP3 MSTORE PUSH1 0x20 DUP3 ADD SWAP1 POP SWAP3 SWAP2 POP POP JUMP JUMPDEST PUSH1 0x0 DUP3 DUP3 MSTORE PUSH1 0x20 DUP3 ADD SWAP1 POP SWAP3 SWAP2 POP POP JUMP JUMPDEST PUSH1 0x0 DUP3 DUP3 MSTORE PUSH1 0x20 DUP3 ADD SWAP1 POP SWAP3 SWAP2 POP POP JUMP JUMPDEST PUSH1 0x0 DUP3 DUP3 MSTORE PUSH1 0x20 DUP3 ADD SWAP1 POP SWAP3 SWAP2 POP POP JUMP JUMPDEST PUSH1 0x0 DUP2 SWAP1 POP SWAP3 SWAP2 POP POP JUMP JUMPDEST PUSH1 0x0 PUSH2 0x1007 DUP3 PUSH2 0x105F JUMP JUMPDEST SWAP2 POP PUSH2 0x1012 DUP4 PUSH2 0x105F JUMP JUMPDEST SWAP3 POP DUP3 PUSH32 0xFFFFFFFFFFFFFFFFFFFFFFFFFFFFFFFFFFFFFFFFFFFFFFFFFFFFFFFFFFFFFFFF SUB DUP3 GT ISZERO PUSH2 0x1047 JUMPI PUSH2 0x1046 PUSH2 0x110E JUMP JUMPDEST JUMPDEST DUP3 DUP3 ADD SWAP1 POP SWAP3 SWAP2 POP POP JUMP JUMPDEST PUSH1 0x0 DUP2 PUSH1 0x1 SIGNEXTEND SWAP1 POP SWAP2 SWAP1 POP JUMP JUMPDEST PUSH1 0x0 DUP2 SWAP1 POP SWAP2 SWAP1 POP JUMP JUMPDEST DUP3 DUP2 DUP4 CALLDATACOPY PUSH1 0x0 DUP4 DUP4 ADD MSTORE POP POP POP JUMP JUMPDEST PUSH1 0x0 JUMPDEST DUP4 DUP2 LT ISZERO PUSH2 0x1096 JUMPI DUP1 DUP3 ADD MLOAD DUP2 DUP5 ADD MSTORE PUSH1 0x20 DUP2 ADD SWAP1 POP PUSH2 0x107B JUMP JUMPDEST DUP4 DUP2 GT ISZERO PUSH2 0x10A5 JUMPI PUSH1 0x0 DUP5 DUP5 ADD MSTORE JUMPDEST POP POP POP POP JUMP JUMPDEST PUSH1 0x0 PUSH1 0x2 DUP3 DIV SWAP1 POP PUSH1 0x1 DUP3 AND DUP1 PUSH2 0x10C3 JUMPI PUSH1 0x7F DUP3 AND SWAP2 POP JUMPDEST PUSH1 0x20 DUP3 LT DUP2 EQ ISZERO PUSH2 0x10D7 JUMPI PUSH2 0x10D6 PUSH2 0x113D JUMP JUMPDEST JUMPDEST POP SWAP2 SWAP1 POP JUMP JUMPDEST PUSH2 0x10E6 DUP3 PUSH2 0x11AF JUMP JUMPDEST DUP2 ADD DUP2 DUP2 LT PUSH8 0xFFFFFFFFFFFFFFFF DUP3 GT OR ISZERO PUSH2 0x1105 JUMPI PUSH2 0x1104 PUSH2 0x116C JUMP JUMPDEST JUMPDEST DUP1 PUSH1 0x40 MSTORE POP POP POP JUMP JUMPDEST PUSH32 0x4E487B7100000000000000000000000000000000000000000000000000000000 PUSH1 0x0 MSTORE PUSH1 0x11 PUSH1 0x4 MSTORE PUSH1 0x24 PUSH1 0x0 REVERT JUMPDEST PUSH32 0x4E487B7100000000000000000000000000000000000000000000000000000000 PUSH1 0x0 MSTORE PUSH1 0x22 PUSH1 0x4 MSTORE PUSH1 0x24 PUSH1 0x0 REVERT JUMPDEST PUSH32 0x4E487B7100000000000000000000000000000000000000000000000000000000 PUSH1 0x0 MSTORE PUSH1 0x41 PUSH1 0x4 MSTORE PUSH1 0x24 PUSH1 0x0 REVERT JUMPDEST PUSH1 0x0 DUP1 REVERT JUMPDEST PUSH1 0x0 DUP1 REVERT JUMPDEST PUSH1 0x0 DUP1 REVERT JUMPDEST PUSH1 0x0 DUP1 REVERT JUMPDEST PUSH1 0x0 PUSH1 0x1F NOT PUSH1 0x1F DUP4 ADD AND SWAP1 POP SWAP2 SWAP1 POP JUMP JUMPDEST PUSH2 0x11C9 DUP2 PUSH2 0x1052 JUMP JUMPDEST DUP2 EQ PUSH2 0x11D4 JUMPI PUSH1 0x0 DUP1 REVERT JUMPDEST POP JUMP JUMPDEST PUSH2 0x11E0 DUP2 PUSH2 0x105F JUMP JUMPDEST DUP2 EQ PUSH2 0x11EB JUMPI PUSH1 0x0 DUP1 REVERT JUMPDEST POP JUMP INVALID LOG2 PUSH5 0x6970667358 0x22 SLT KECCAK256 DUP8 0xE3 0xE6 SWAP4 0x25 0xAD 0xF9 0xD2 0xDB COINBASE PUSH25 0x969C7EBEF86DA2761B184233340403CFF2E18FDCC364736F6C PUSH4 0x43000807 STOP CALLER "
				},
				"gasEstimates": {
					"creation": {
						"codeDepositCost": "928800",
						"executionCost": "968",
						"totalCost": "929768"
					},
					"external": {
						"createClient(string)": "infinite",
						"createProduit(string,int16)": "infinite",
						"getAllClients()": "infinite",
						"getAllProducts()": "infinite",
						"getProductById(uint256)": "infinite",
						"getProductByName(string)": "infinite",
						"produitById(uint256)": "infinite",
						"setProduct(uint256,string,int16)": "infinite"
					}
				},
				"methodIdentifiers": {
					"createClient(string)": "e88e9f0f",
					"createProduit(string,int16)": "51401eef",
					"getAllClients()": "e4d7a3d4",
					"getAllProducts()": "02ee3a52",
					"getProductById(uint256)": "3f70c2b4",
					"getProductByName(string)": "d4290f83",
					"produitById(uint256)": "3f48d969",
					"setProduct(uint256,string,int16)": "f1cfa6a5"
				}
			},
			"storageLayout": {
				"storage": [
					{
						"astId": 21,
						"contract": "contracts/ExoSupermarche.sol:supermarche",
						"label": "AllProduits",
						"offset": 0,
						"slot": "0",
						"type": "t_array(t_struct(productData)8_storage)dyn_storage"
					},
					{
						"astId": 25,
						"contract": "contracts/ExoSupermarche.sol:supermarche",
						"label": "AllClients",
						"offset": 0,
						"slot": "1",
						"type": "t_array(t_struct(clientData)17_storage)dyn_storage"
					},
					{
						"astId": 30,
						"contract": "contracts/ExoSupermarche.sol:supermarche",
						"label": "client",
						"offset": 0,
						"slot": "2",
						"type": "t_mapping(t_uint256,t_struct(clientData)17_storage)"
					},
					{
						"astId": 35,
						"contract": "contracts/ExoSupermarche.sol:supermarche",
						"label": "produitById",
						"offset": 0,
						"slot": "3",
						"type": "t_mapping(t_uint256,t_struct(productData)8_storage)"
					},
					{
						"astId": 40,
						"contract": "contracts/ExoSupermarche.sol:supermarche",
						"label": "produitByName",
						"offset": 0,
						"slot": "4",
						"type": "t_mapping(t_string_memory_ptr,t_struct(productData)8_storage)"
					}
				],
				"types": {
					"t_array(t_struct(clientData)17_storage)dyn_storage": {
						"base": "t_struct(clientData)17_storage",
						"encoding": "dynamic_array",
						"label": "struct supermarche.clientData[]",
						"numberOfBytes": "32"
					},
					"t_array(t_struct(productData)8_storage)dyn_storage": {
						"base": "t_struct(productData)8_storage",
						"encoding": "dynamic_array",
						"label": "struct supermarche.productData[]",
						"numberOfBytes": "32"
					},
					"t_int16": {
						"encoding": "inplace",
						"label": "int16",
						"numberOfBytes": "2"
					},
					"t_mapping(t_string_memory_ptr,t_struct(productData)8_storage)": {
						"encoding": "mapping",
						"key": "t_string_memory_ptr",
						"label": "mapping(string => struct supermarche.productData)",
						"numberOfBytes": "32",
						"value": "t_struct(productData)8_storage"
					},
					"t_mapping(t_uint256,t_struct(clientData)17_storage)": {
						"encoding": "mapping",
						"key": "t_uint256",
						"label": "mapping(uint256 => struct supermarche.clientData)",
						"numberOfBytes": "32",
						"value": "t_struct(clientData)17_storage"
					},
					"t_mapping(t_uint256,t_struct(productData)8_storage)": {
						"encoding": "mapping",
						"key": "t_uint256",
						"label": "mapping(uint256 => struct supermarche.productData)",
						"numberOfBytes": "32",
						"value": "t_struct(productData)8_storage"
					},
					"t_string_memory_ptr": {
						"encoding": "bytes",
						"label": "string",
						"numberOfBytes": "32"
					},
					"t_string_storage": {
						"encoding": "bytes",
						"label": "string",
						"numberOfBytes": "32"
					},
					"t_struct(clientData)17_storage": {
						"encoding": "inplace",
						"label": "struct supermarche.clientData",
						"members": [
							{
								"astId": 10,
								"contract": "contracts/ExoSupermarche.sol:supermarche",
								"label": "_id",
								"offset": 0,
								"slot": "0",
								"type": "t_uint256"
							},
							{
								"astId": 12,
								"contract": "contracts/ExoSupermarche.sol:supermarche",
								"label": "_nom",
								"offset": 0,
								"slot": "1",
								"type": "t_string_storage"
							},
							{
								"astId": 16,
								"contract": "contracts/ExoSupermarche.sol:supermarche",
								"label": "panier",
								"offset": 0,
								"slot": "2",
								"type": "t_array(t_struct(productData)8_storage)dyn_storage"
							}
						],
						"numberOfBytes": "96"
					},
					"t_struct(productData)8_storage": {
						"encoding": "inplace",
						"label": "struct supermarche.productData",
						"members": [
							{
								"astId": 3,
								"contract": "contracts/ExoSupermarche.sol:supermarche",
								"label": "_id",
								"offset": 0,
								"slot": "0",
								"type": "t_uint256"
							},
							{
								"astId": 5,
								"contract": "contracts/ExoSupermarche.sol:supermarche",
								"label": "_libelle",
								"offset": 0,
								"slot": "1",
								"type": "t_string_storage"
							},
							{
								"astId": 7,
								"contract": "contracts/ExoSupermarche.sol:supermarche",
								"label": "_prix",
								"offset": 0,
								"slot": "2",
								"type": "t_int16"
							}
						],
						"numberOfBytes": "96"
					},
					"t_uint256": {
						"encoding": "inplace",
						"label": "uint256",
						"numberOfBytes": "32"
					}
				}
			},
			"userdoc": {
				"kind": "user",
				"methods": {},
				"version": 1
			}
		}
	}
}