{
	"contracts/ExoSupermarche.sol": {
		"supermarche": {
			"abi": [
				{
					"inputs": [
						{
							"internalType": "uint256",
							"name": "",
							"type": "uint256"
						}
					],
					"name": "client",
					"outputs": [
						{
							"internalType": "uint256",
							"name": "_id",
							"type": "uint256"
						},
						{
							"internalType": "string",
							"name": "_nom",
							"type": "string"
						}
					],
					"stateMutability": "view",
					"type": "function"
				},
				{
					"inputs": [
						{
							"internalType": "string",
							"name": "_nom",
							"type": "string"
						}
					],
					"name": "createClient",
					"outputs": [],
					"stateMutability": "nonpayable",
					"type": "function"
				},
				{
					"inputs": [
						{
							"internalType": "string",
							"name": "_libelle",
							"type": "string"
						},
						{
							"internalType": "int16",
							"name": "_prix",
							"type": "int16"
						}
					],
					"name": "createProduit",
					"outputs": [],
					"stateMutability": "nonpayable",
					"type": "function"
				},
				{
					"inputs": [],
					"name": "getAllClients",
					"outputs": [
						{
							"components": [
								{
									"internalType": "uint256",
									"name": "_id",
									"type": "uint256"
								},
								{
									"internalType": "string",
									"name": "_nom",
									"type": "string"
								},
								{
									"components": [
										{
											"internalType": "uint256",
											"name": "_id",
											"type": "uint256"
										},
										{
											"internalType": "string",
											"name": "_libelle",
											"type": "string"
										},
										{
											"internalType": "int16",
											"name": "_prix",
											"type": "int16"
										}
									],
									"internalType": "struct supermarche.productData[]",
									"name": "panier",
									"type": "tuple[]"
								}
							],
							"internalType": "struct supermarche.clientData[]",
							"name": "",
							"type": "tuple[]"
						}
					],
					"stateMutability": "view",
					"type": "function"
				},
				{
					"inputs": [],
					"name": "getAllProducts",
					"outputs": [
						{
							"components": [
								{
									"internalType": "uint256",
									"name": "_id",
									"type": "uint256"
								},
								{
									"internalType": "string",
									"name": "_libelle",
									"type": "string"
								},
								{
									"internalType": "int16",
									"name": "_prix",
									"type": "int16"
								}
							],
							"internalType": "struct supermarche.productData[]",
							"name": "",
							"type": "tuple[]"
						}
					],
					"stateMutability": "view",
					"type": "function"
				},
				{
					"inputs": [
						{
							"internalType": "uint256",
							"name": "",
							"type": "uint256"
						}
					],
					"name": "produit",
					"outputs": [
						{
							"internalType": "uint256",
							"name": "_id",
							"type": "uint256"
						},
						{
							"internalType": "string",
							"name": "_libelle",
							"type": "string"
						},
						{
							"internalType": "int16",
							"name": "_prix",
							"type": "int16"
						}
					],
					"stateMutability": "view",
					"type": "function"
				}
			],
			"devdoc": {
				"kind": "dev",
				"methods": {},
				"version": 1
			},
			"evm": {
				"assembly": "    /* \"contracts/ExoSupermarche.sol\":59:1015  contract supermarche {\r... */\n  mstore(0x40, 0x80)\n  callvalue\n  dup1\n  iszero\n  tag_1\n  jumpi\n  0x00\n  dup1\n  revert\ntag_1:\n  pop\n  dataSize(sub_0)\n  dup1\n  dataOffset(sub_0)\n  0x00\n  codecopy\n  0x00\n  return\nstop\n\nsub_0: assembly {\n        /* \"contracts/ExoSupermarche.sol\":59:1015  contract supermarche {\r... */\n      mstore(0x40, 0x80)\n      callvalue\n      dup1\n      iszero\n      tag_1\n      jumpi\n      0x00\n      dup1\n      revert\n    tag_1:\n      pop\n      jumpi(tag_2, lt(calldatasize, 0x04))\n      shr(0xe0, calldataload(0x00))\n      dup1\n      0x02ee3a52\n      eq\n      tag_3\n      jumpi\n      dup1\n      0x51401eef\n      eq\n      tag_4\n      jumpi\n      dup1\n      0x812e3219\n      eq\n      tag_5\n      jumpi\n      dup1\n      0x87fbef89\n      eq\n      tag_6\n      jumpi\n      dup1\n      0xe4d7a3d4\n      eq\n      tag_7\n      jumpi\n      dup1\n      0xe88e9f0f\n      eq\n      tag_8\n      jumpi\n    tag_2:\n      0x00\n      dup1\n      revert\n        /* \"contracts/ExoSupermarche.sol\":716:821  function getAllProducts() public view returns(productData[] memory) {\r... */\n    tag_3:\n      tag_9\n      tag_10\n      jump\t// in\n    tag_9:\n      mload(0x40)\n      tag_11\n      swap2\n      swap1\n      tag_12\n      jump\t// in\n    tag_11:\n      mload(0x40)\n      dup1\n      swap2\n      sub\n      swap1\n      return\n        /* \"contracts/ExoSupermarche.sol\":494:708  function createProduit(string memory _libelle, int16 _prix) public {\r... */\n    tag_4:\n      tag_13\n      0x04\n      dup1\n      calldatasize\n      sub\n      dup2\n      add\n      swap1\n      tag_14\n      swap2\n      swap1\n      tag_15\n      jump\t// in\n    tag_14:\n      tag_16\n      jump\t// in\n    tag_13:\n      stop\n        /* \"contracts/ExoSupermarche.sol\":361:402  mapping(uint => clientData) public client */\n    tag_5:\n      tag_17\n      0x04\n      dup1\n      calldatasize\n      sub\n      dup2\n      add\n      swap1\n      tag_18\n      swap2\n      swap1\n      tag_19\n      jump\t// in\n    tag_18:\n      tag_20\n      jump\t// in\n    tag_17:\n      mload(0x40)\n      tag_21\n      swap3\n      swap2\n      swap1\n      tag_22\n      jump\t// in\n    tag_21:\n      mload(0x40)\n      dup1\n      swap2\n      sub\n      swap1\n      return\n        /* \"contracts/ExoSupermarche.sol\":424:467  mapping(uint => productData) public produit */\n    tag_6:\n      tag_23\n      0x04\n      dup1\n      calldatasize\n      sub\n      dup2\n      add\n      swap1\n      tag_24\n      swap2\n      swap1\n      tag_19\n      jump\t// in\n    tag_24:\n      tag_25\n      jump\t// in\n    tag_23:\n      mload(0x40)\n      tag_26\n      swap4\n      swap3\n      swap2\n      swap1\n      tag_27\n      jump\t// in\n    tag_26:\n      mload(0x40)\n      dup1\n      swap2\n      sub\n      swap1\n      return\n        /* \"contracts/ExoSupermarche.sol\":906:1008  function getAllClients() public view returns(clientData[] memory) {\r... */\n    tag_7:\n      tag_28\n      tag_29\n      jump\t// in\n    tag_28:\n      mload(0x40)\n      tag_30\n      swap2\n      swap1\n      tag_31\n      jump\t// in\n    tag_30:\n      mload(0x40)\n      dup1\n      swap2\n      sub\n      swap1\n      return\n        /* \"contracts/ExoSupermarche.sol\":829:898  function createClient(string memory _nom) public {\r... */\n    tag_8:\n      tag_32\n      0x04\n      dup1\n      calldatasize\n      sub\n      dup2\n      add\n      swap1\n      tag_33\n      swap2\n      swap1\n      tag_34\n      jump\t// in\n    tag_33:\n      tag_35\n      jump\t// in\n    tag_32:\n      stop\n        /* \"contracts/ExoSupermarche.sol\":716:821  function getAllProducts() public view returns(productData[] memory) {\r... */\n    tag_10:\n        /* \"contracts/ExoSupermarche.sol\":762:782  productData[] memory */\n      0x60\n        /* \"contracts/ExoSupermarche.sol\":802:813  AllProduits */\n      0x00\n        /* \"contracts/ExoSupermarche.sol\":795:813  return AllProduits */\n      dup1\n      sload\n      dup1\n      0x20\n      mul\n      0x20\n      add\n      mload(0x40)\n      swap1\n      dup2\n      add\n      0x40\n      mstore\n      dup1\n      swap3\n      swap2\n      swap1\n      dup2\n      dup2\n      mstore\n      0x20\n      add\n      0x00\n      swap1\n    tag_37:\n      dup3\n      dup3\n      lt\n      iszero\n      tag_38\n      jumpi\n      dup4\n      dup3\n      swap1\n      0x00\n      mstore\n      keccak256(0x00, 0x20)\n      swap1\n      0x03\n      mul\n      add\n      mload(0x40)\n      dup1\n      0x60\n      add\n      0x40\n      mstore\n      swap1\n      dup2\n      0x00\n      dup3\n      add\n      sload\n      dup2\n      mstore\n      0x20\n      add\n      0x01\n      dup3\n      add\n      dup1\n      sload\n      tag_40\n      swap1\n      tag_41\n      jump\t// in\n    tag_40:\n      dup1\n      0x1f\n      add\n      0x20\n      dup1\n      swap2\n      div\n      mul\n      0x20\n      add\n      mload(0x40)\n      swap1\n      dup2\n      add\n      0x40\n      mstore\n      dup1\n      swap3\n      swap2\n      swap1\n      dup2\n      dup2\n      mstore\n      0x20\n      add\n      dup3\n      dup1\n      sload\n      tag_42\n      swap1\n      tag_41\n      jump\t// in\n    tag_42:\n      dup1\n      iszero\n      tag_43\n      jumpi\n      dup1\n      0x1f\n      lt\n      tag_44\n      jumpi\n      0x0100\n      dup1\n      dup4\n      sload\n      div\n      mul\n      dup4\n      mstore\n      swap2\n      0x20\n      add\n      swap2\n      jump(tag_43)\n    tag_44:\n      dup3\n      add\n      swap2\n      swap1\n      0x00\n      mstore\n      keccak256(0x00, 0x20)\n      swap1\n    tag_45:\n      dup2\n      sload\n      dup2\n      mstore\n      swap1\n      0x01\n      add\n      swap1\n      0x20\n      add\n      dup1\n      dup4\n      gt\n      tag_45\n      jumpi\n      dup3\n      swap1\n      sub\n      0x1f\n      and\n      dup3\n      add\n      swap2\n    tag_43:\n      pop\n      pop\n      pop\n      pop\n      pop\n      dup2\n      mstore\n      0x20\n      add\n      0x02\n      dup3\n      add\n      0x00\n      swap1\n      sload\n      swap1\n      0x0100\n      exp\n      swap1\n      div\n      0x01\n      signextend\n      0x01\n      signextend\n      0x01\n      signextend\n      dup2\n      mstore\n      pop\n      pop\n      dup2\n      mstore\n      0x20\n      add\n      swap1\n      0x01\n      add\n      swap1\n      jump(tag_37)\n    tag_38:\n      pop\n      pop\n      pop\n      pop\n      swap1\n      pop\n        /* \"contracts/ExoSupermarche.sol\":716:821  function getAllProducts() public view returns(productData[] memory) {\r... */\n      swap1\n      jump\t// out\n        /* \"contracts/ExoSupermarche.sol\":494:708  function createProduit(string memory _libelle, int16 _prix) public {\r... */\n    tag_16:\n        /* \"contracts/ExoSupermarche.sol\":572:579  uint id */\n      0x00\n        /* \"contracts/ExoSupermarche.sol\":603:604  1 */\n      0x01\n        /* \"contracts/ExoSupermarche.sol\":582:593  AllProduits */\n      0x00\n        /* \"contracts/ExoSupermarche.sol\":582:600  AllProduits.length */\n      dup1\n      sload\n      swap1\n      pop\n        /* \"contracts/ExoSupermarche.sol\":582:604  AllProduits.length + 1 */\n      tag_47\n      swap2\n      swap1\n      tag_48\n      jump\t// in\n    tag_47:\n        /* \"contracts/ExoSupermarche.sol\":572:604  uint id = AllProduits.length + 1 */\n      swap1\n      pop\n        /* \"contracts/ExoSupermarche.sol\":615:635  productData memory p */\n      0x00\n        /* \"contracts/ExoSupermarche.sol\":638:670  productData(id, _libelle, _prix) */\n      mload(0x40)\n      dup1\n      0x60\n      add\n      0x40\n      mstore\n      dup1\n        /* \"contracts/ExoSupermarche.sol\":650:652  id */\n      dup4\n        /* \"contracts/ExoSupermarche.sol\":638:670  productData(id, _libelle, _prix) */\n      dup2\n      mstore\n      0x20\n      add\n        /* \"contracts/ExoSupermarche.sol\":654:662  _libelle */\n      dup6\n        /* \"contracts/ExoSupermarche.sol\":638:670  productData(id, _libelle, _prix) */\n      dup2\n      mstore\n      0x20\n      add\n        /* \"contracts/ExoSupermarche.sol\":664:669  _prix */\n      dup5\n        /* \"contracts/ExoSupermarche.sol\":638:670  productData(id, _libelle, _prix) */\n      0x01\n      signextend\n      dup2\n      mstore\n      pop\n        /* \"contracts/ExoSupermarche.sol\":615:670  productData memory p = productData(id, _libelle, _prix) */\n      swap1\n      pop\n        /* \"contracts/ExoSupermarche.sol\":681:692  AllProduits */\n      0x00\n        /* \"contracts/ExoSupermarche.sol\":698:699  p */\n      dup2\n        /* \"contracts/ExoSupermarche.sol\":681:700  AllProduits.push(p) */\n      swap1\n      dup1\n      0x01\n      dup2\n      sload\n      add\n      dup1\n      dup3\n      sstore\n      dup1\n      swap2\n      pop\n      pop\n      0x01\n      swap1\n      sub\n      swap1\n      0x00\n      mstore\n      keccak256(0x00, 0x20)\n      swap1\n      0x03\n      mul\n      add\n      0x00\n      swap1\n      swap2\n      swap1\n      swap2\n      swap1\n      swap2\n      pop\n      0x00\n      dup3\n      add\n      mload\n      dup2\n      0x00\n      add\n      sstore\n      0x20\n      dup3\n      add\n      mload\n      dup2\n      0x01\n      add\n      swap1\n      dup1\n      mload\n      swap1\n      0x20\n      add\n      swap1\n      tag_50\n      swap3\n      swap2\n      swap1\n      tag_51\n      jump\t// in\n    tag_50:\n      pop\n      0x40\n      dup3\n      add\n      mload\n      dup2\n      0x02\n      add\n      exp(0x0100, 0x00)\n      dup2\n      sload\n      dup2\n      0xffff\n      mul\n      not\n      and\n      swap1\n      dup4\n      0x01\n      signextend\n      0xffff\n      and\n      mul\n      or\n      swap1\n      sstore\n      pop\n      pop\n      pop\n        /* \"contracts/ExoSupermarche.sol\":561:708  {\r... */\n      pop\n      pop\n        /* \"contracts/ExoSupermarche.sol\":494:708  function createProduit(string memory _libelle, int16 _prix) public {\r... */\n      pop\n      pop\n      jump\t// out\n        /* \"contracts/ExoSupermarche.sol\":361:402  mapping(uint => clientData) public client */\n    tag_20:\n      mstore(0x20, 0x02)\n      dup1\n      0x00\n      mstore\n      keccak256(0x00, 0x40)\n      0x00\n      swap2\n      pop\n      swap1\n      pop\n      dup1\n      0x00\n      add\n      sload\n      swap1\n      dup1\n      0x01\n      add\n      dup1\n      sload\n      tag_52\n      swap1\n      tag_41\n      jump\t// in\n    tag_52:\n      dup1\n      0x1f\n      add\n      0x20\n      dup1\n      swap2\n      div\n      mul\n      0x20\n      add\n      mload(0x40)\n      swap1\n      dup2\n      add\n      0x40\n      mstore\n      dup1\n      swap3\n      swap2\n      swap1\n      dup2\n      dup2\n      mstore\n      0x20\n      add\n      dup3\n      dup1\n      sload\n      tag_53\n      swap1\n      tag_41\n      jump\t// in\n    tag_53:\n      dup1\n      iszero\n      tag_54\n      jumpi\n      dup1\n      0x1f\n      lt\n      tag_55\n      jumpi\n      0x0100\n      dup1\n      dup4\n      sload\n      div\n      mul\n      dup4\n      mstore\n      swap2\n      0x20\n      add\n      swap2\n      jump(tag_54)\n    tag_55:\n      dup3\n      add\n      swap2\n      swap1\n      0x00\n      mstore\n      keccak256(0x00, 0x20)\n      swap1\n    tag_56:\n      dup2\n      sload\n      dup2\n      mstore\n      swap1\n      0x01\n      add\n      swap1\n      0x20\n      add\n      dup1\n      dup4\n      gt\n      tag_56\n      jumpi\n      dup3\n      swap1\n      sub\n      0x1f\n      and\n      dup3\n      add\n      swap2\n    tag_54:\n      pop\n      pop\n      pop\n      pop\n      pop\n      swap1\n      pop\n      dup3\n      jump\t// out\n        /* \"contracts/ExoSupermarche.sol\":424:467  mapping(uint => productData) public produit */\n    tag_25:\n      mstore(0x20, 0x03)\n      dup1\n      0x00\n      mstore\n      keccak256(0x00, 0x40)\n      0x00\n      swap2\n      pop\n      swap1\n      pop\n      dup1\n      0x00\n      add\n      sload\n      swap1\n      dup1\n      0x01\n      add\n      dup1\n      sload\n      tag_57\n      swap1\n      tag_41\n      jump\t// in\n    tag_57:\n      dup1\n      0x1f\n      add\n      0x20\n      dup1\n      swap2\n      div\n      mul\n      0x20\n      add\n      mload(0x40)\n      swap1\n      dup2\n      add\n      0x40\n      mstore\n      dup1\n      swap3\n      swap2\n      swap1\n      dup2\n      dup2\n      mstore\n      0x20\n      add\n      dup3\n      dup1\n      sload\n      tag_58\n      swap1\n      tag_41\n      jump\t// in\n    tag_58:\n      dup1\n      iszero\n      tag_59\n      jumpi\n      dup1\n      0x1f\n      lt\n      tag_60\n      jumpi\n      0x0100\n      dup1\n      dup4\n      sload\n      div\n      mul\n      dup4\n      mstore\n      swap2\n      0x20\n      add\n      swap2\n      jump(tag_59)\n    tag_60:\n      dup3\n      add\n      swap2\n      swap1\n      0x00\n      mstore\n      keccak256(0x00, 0x20)\n      swap1\n    tag_61:\n      dup2\n      sload\n      dup2\n      mstore\n      swap1\n      0x01\n      add\n      swap1\n      0x20\n      add\n      dup1\n      dup4\n      gt\n      tag_61\n      jumpi\n      dup3\n      swap1\n      sub\n      0x1f\n      and\n      dup3\n      add\n      swap2\n    tag_59:\n      pop\n      pop\n      pop\n      pop\n      pop\n      swap1\n      dup1\n      0x02\n      add\n      0x00\n      swap1\n      sload\n      swap1\n      0x0100\n      exp\n      swap1\n      div\n      0x01\n      signextend\n      swap1\n      pop\n      dup4\n      jump\t// out\n        /* \"contracts/ExoSupermarche.sol\":906:1008  function getAllClients() public view returns(clientData[] memory) {\r... */\n    tag_29:\n        /* \"contracts/ExoSupermarche.sol\":951:970  clientData[] memory */\n      0x60\n        /* \"contracts/ExoSupermarche.sol\":990:1000  AllClients */\n      0x01\n        /* \"contracts/ExoSupermarche.sol\":983:1000  return AllClients */\n      dup1\n      sload\n      dup1\n      0x20\n      mul\n      0x20\n      add\n      mload(0x40)\n      swap1\n      dup2\n      add\n      0x40\n      mstore\n      dup1\n      swap3\n      swap2\n      swap1\n      dup2\n      dup2\n      mstore\n      0x20\n      add\n      0x00\n      swap1\n    tag_63:\n      dup3\n      dup3\n      lt\n      iszero\n      tag_64\n      jumpi\n      dup4\n      dup3\n      swap1\n      0x00\n      mstore\n      keccak256(0x00, 0x20)\n      swap1\n      0x03\n      mul\n      add\n      mload(0x40)\n      dup1\n      0x60\n      add\n      0x40\n      mstore\n      swap1\n      dup2\n      0x00\n      dup3\n      add\n      sload\n      dup2\n      mstore\n      0x20\n      add\n      0x01\n      dup3\n      add\n      dup1\n      sload\n      tag_66\n      swap1\n      tag_41\n      jump\t// in\n    tag_66:\n      dup1\n      0x1f\n      add\n      0x20\n      dup1\n      swap2\n      div\n      mul\n      0x20\n      add\n      mload(0x40)\n      swap1\n      dup2\n      add\n      0x40\n      mstore\n      dup1\n      swap3\n      swap2\n      swap1\n      dup2\n      dup2\n      mstore\n      0x20\n      add\n      dup3\n      dup1\n      sload\n      tag_67\n      swap1\n      tag_41\n      jump\t// in\n    tag_67:\n      dup1\n      iszero\n      tag_68\n      jumpi\n      dup1\n      0x1f\n      lt\n      tag_69\n      jumpi\n      0x0100\n      dup1\n      dup4\n      sload\n      div\n      mul\n      dup4\n      mstore\n      swap2\n      0x20\n      add\n      swap2\n      jump(tag_68)\n    tag_69:\n      dup3\n      add\n      swap2\n      swap1\n      0x00\n      mstore\n      keccak256(0x00, 0x20)\n      swap1\n    tag_70:\n      dup2\n      sload\n      dup2\n      mstore\n      swap1\n      0x01\n      add\n      swap1\n      0x20\n      add\n      dup1\n      dup4\n      gt\n      tag_70\n      jumpi\n      dup3\n      swap1\n      sub\n      0x1f\n      and\n      dup3\n      add\n      swap2\n    tag_68:\n      pop\n      pop\n      pop\n      pop\n      pop\n      dup2\n      mstore\n      0x20\n      add\n      0x02\n      dup3\n      add\n      dup1\n      sload\n      dup1\n      0x20\n      mul\n      0x20\n      add\n      mload(0x40)\n      swap1\n      dup2\n      add\n      0x40\n      mstore\n      dup1\n      swap3\n      swap2\n      swap1\n      dup2\n      dup2\n      mstore\n      0x20\n      add\n      0x00\n      swap1\n    tag_71:\n      dup3\n      dup3\n      lt\n      iszero\n      tag_72\n      jumpi\n      dup4\n      dup3\n      swap1\n      0x00\n      mstore\n      keccak256(0x00, 0x20)\n      swap1\n      0x03\n      mul\n      add\n      mload(0x40)\n      dup1\n      0x60\n      add\n      0x40\n      mstore\n      swap1\n      dup2\n      0x00\n      dup3\n      add\n      sload\n      dup2\n      mstore\n      0x20\n      add\n      0x01\n      dup3\n      add\n      dup1\n      sload\n      tag_74\n      swap1\n      tag_41\n      jump\t// in\n    tag_74:\n      dup1\n      0x1f\n      add\n      0x20\n      dup1\n      swap2\n      div\n      mul\n      0x20\n      add\n      mload(0x40)\n      swap1\n      dup2\n      add\n      0x40\n      mstore\n      dup1\n      swap3\n      swap2\n      swap1\n      dup2\n      dup2\n      mstore\n      0x20\n      add\n      dup3\n      dup1\n      sload\n      tag_75\n      swap1\n      tag_41\n      jump\t// in\n    tag_75:\n      dup1\n      iszero\n      tag_76\n      jumpi\n      dup1\n      0x1f\n      lt\n      tag_77\n      jumpi\n      0x0100\n      dup1\n      dup4\n      sload\n      div\n      mul\n      dup4\n      mstore\n      swap2\n      0x20\n      add\n      swap2\n      jump(tag_76)\n    tag_77:\n      dup3\n      add\n      swap2\n      swap1\n      0x00\n      mstore\n      keccak256(0x00, 0x20)\n      swap1\n    tag_78:\n      dup2\n      sload\n      dup2\n      mstore\n      swap1\n      0x01\n      add\n      swap1\n      0x20\n      add\n      dup1\n      dup4\n      gt\n      tag_78\n      jumpi\n      dup3\n      swap1\n      sub\n      0x1f\n      and\n      dup3\n      add\n      swap2\n    tag_76:\n      pop\n      pop\n      pop\n      pop\n      pop\n      dup2\n      mstore\n      0x20\n      add\n      0x02\n      dup3\n      add\n      0x00\n      swap1\n      sload\n      swap1\n      0x0100\n      exp\n      swap1\n      div\n      0x01\n      signextend\n      0x01\n      signextend\n      0x01\n      signextend\n      dup2\n      mstore\n      pop\n      pop\n      dup2\n      mstore\n      0x20\n      add\n      swap1\n      0x01\n      add\n      swap1\n      jump(tag_71)\n    tag_72:\n      pop\n      pop\n      pop\n      pop\n      dup2\n      mstore\n      pop\n      pop\n      dup2\n      mstore\n      0x20\n      add\n      swap1\n      0x01\n      add\n      swap1\n      jump(tag_63)\n    tag_64:\n      pop\n      pop\n      pop\n      pop\n      swap1\n      pop\n        /* \"contracts/ExoSupermarche.sol\":906:1008  function getAllClients() public view returns(clientData[] memory) {\r... */\n      swap1\n      jump\t// out\n        /* \"contracts/ExoSupermarche.sol\":829:898  function createClient(string memory _nom) public {\r... */\n    tag_35:\n      pop\n      jump\t// out\n    tag_51:\n      dup3\n      dup1\n      sload\n      tag_80\n      swap1\n      tag_41\n      jump\t// in\n    tag_80:\n      swap1\n      0x00\n      mstore\n      keccak256(0x00, 0x20)\n      swap1\n      0x1f\n      add\n      0x20\n      swap1\n      div\n      dup2\n      add\n      swap3\n      dup3\n      tag_82\n      jumpi\n      0x00\n      dup6\n      sstore\n      jump(tag_81)\n    tag_82:\n      dup3\n      0x1f\n      lt\n      tag_83\n      jumpi\n      dup1\n      mload\n      not(0xff)\n      and\n      dup4\n      dup1\n      add\n      or\n      dup6\n      sstore\n      jump(tag_81)\n    tag_83:\n      dup3\n      dup1\n      add\n      0x01\n      add\n      dup6\n      sstore\n      dup3\n      iszero\n      tag_81\n      jumpi\n      swap2\n      dup3\n      add\n    tag_84:\n      dup3\n      dup2\n      gt\n      iszero\n      tag_85\n      jumpi\n      dup3\n      mload\n      dup3\n      sstore\n      swap2\n      0x20\n      add\n      swap2\n      swap1\n      0x01\n      add\n      swap1\n      jump(tag_84)\n    tag_85:\n    tag_81:\n      pop\n      swap1\n      pop\n      tag_86\n      swap2\n      swap1\n      tag_87\n      jump\t// in\n    tag_86:\n      pop\n      swap1\n      jump\t// out\n    tag_87:\n    tag_88:\n      dup1\n      dup3\n      gt\n      iszero\n      tag_89\n      jumpi\n      0x00\n      dup2\n      0x00\n      swap1\n      sstore\n      pop\n      0x01\n      add\n      jump(tag_88)\n    tag_89:\n      pop\n      swap1\n      jump\t// out\n        /* \"#utility.yul\":7:419   */\n    tag_91:\n        /* \"#utility.yul\":85:90   */\n      0x00\n        /* \"#utility.yul\":110:176   */\n      tag_93\n        /* \"#utility.yul\":126:175   */\n      tag_94\n        /* \"#utility.yul\":168:174   */\n      dup5\n        /* \"#utility.yul\":126:175   */\n      tag_95\n      jump\t// in\n    tag_94:\n        /* \"#utility.yul\":110:176   */\n      tag_96\n      jump\t// in\n    tag_93:\n        /* \"#utility.yul\":101:176   */\n      swap1\n      pop\n        /* \"#utility.yul\":199:205   */\n      dup3\n        /* \"#utility.yul\":192:197   */\n      dup2\n        /* \"#utility.yul\":185:206   */\n      mstore\n        /* \"#utility.yul\":237:241   */\n      0x20\n        /* \"#utility.yul\":230:235   */\n      dup2\n        /* \"#utility.yul\":226:242   */\n      add\n        /* \"#utility.yul\":275:278   */\n      dup5\n        /* \"#utility.yul\":266:272   */\n      dup5\n        /* \"#utility.yul\":261:264   */\n      dup5\n        /* \"#utility.yul\":257:273   */\n      add\n        /* \"#utility.yul\":254:279   */\n      gt\n        /* \"#utility.yul\":251:363   */\n      iszero\n      tag_97\n      jumpi\n        /* \"#utility.yul\":282:361   */\n      tag_98\n      tag_99\n      jump\t// in\n    tag_98:\n        /* \"#utility.yul\":251:363   */\n    tag_97:\n        /* \"#utility.yul\":372:413   */\n      tag_100\n        /* \"#utility.yul\":406:412   */\n      dup5\n        /* \"#utility.yul\":401:404   */\n      dup3\n        /* \"#utility.yul\":396:399   */\n      dup6\n        /* \"#utility.yul\":372:413   */\n      tag_101\n      jump\t// in\n    tag_100:\n        /* \"#utility.yul\":91:419   */\n      pop\n        /* \"#utility.yul\":7:419   */\n      swap4\n      swap3\n      pop\n      pop\n      pop\n      jump\t// out\n        /* \"#utility.yul\":425:560   */\n    tag_102:\n        /* \"#utility.yul\":469:474   */\n      0x00\n        /* \"#utility.yul\":507:513   */\n      dup2\n        /* \"#utility.yul\":494:514   */\n      calldataload\n        /* \"#utility.yul\":485:514   */\n      swap1\n      pop\n        /* \"#utility.yul\":523:554   */\n      tag_104\n        /* \"#utility.yul\":548:553   */\n      dup2\n        /* \"#utility.yul\":523:554   */\n      tag_105\n      jump\t// in\n    tag_104:\n        /* \"#utility.yul\":425:560   */\n      swap3\n      swap2\n      pop\n      pop\n      jump\t// out\n        /* \"#utility.yul\":580:920   */\n    tag_106:\n        /* \"#utility.yul\":636:641   */\n      0x00\n        /* \"#utility.yul\":685:688   */\n      dup3\n        /* \"#utility.yul\":678:682   */\n      0x1f\n        /* \"#utility.yul\":670:676   */\n      dup4\n        /* \"#utility.yul\":666:683   */\n      add\n        /* \"#utility.yul\":662:689   */\n      slt\n        /* \"#utility.yul\":652:774   */\n      tag_108\n      jumpi\n        /* \"#utility.yul\":693:772   */\n      tag_109\n      tag_110\n      jump\t// in\n    tag_109:\n        /* \"#utility.yul\":652:774   */\n    tag_108:\n        /* \"#utility.yul\":810:816   */\n      dup2\n        /* \"#utility.yul\":797:817   */\n      calldataload\n        /* \"#utility.yul\":835:914   */\n      tag_111\n        /* \"#utility.yul\":910:913   */\n      dup5\n        /* \"#utility.yul\":902:908   */\n      dup3\n        /* \"#utility.yul\":895:899   */\n      0x20\n        /* \"#utility.yul\":887:893   */\n      dup7\n        /* \"#utility.yul\":883:900   */\n      add\n        /* \"#utility.yul\":835:914   */\n      tag_91\n      jump\t// in\n    tag_111:\n        /* \"#utility.yul\":826:914   */\n      swap2\n      pop\n        /* \"#utility.yul\":642:920   */\n      pop\n        /* \"#utility.yul\":580:920   */\n      swap3\n      swap2\n      pop\n      pop\n      jump\t// out\n        /* \"#utility.yul\":926:1065   */\n    tag_112:\n        /* \"#utility.yul\":972:977   */\n      0x00\n        /* \"#utility.yul\":1010:1016   */\n      dup2\n        /* \"#utility.yul\":997:1017   */\n      calldataload\n        /* \"#utility.yul\":988:1017   */\n      swap1\n      pop\n        /* \"#utility.yul\":1026:1059   */\n      tag_114\n        /* \"#utility.yul\":1053:1058   */\n      dup2\n        /* \"#utility.yul\":1026:1059   */\n      tag_115\n      jump\t// in\n    tag_114:\n        /* \"#utility.yul\":926:1065   */\n      swap3\n      swap2\n      pop\n      pop\n      jump\t// out\n        /* \"#utility.yul\":1071:1580   */\n    tag_34:\n        /* \"#utility.yul\":1140:1146   */\n      0x00\n        /* \"#utility.yul\":1189:1191   */\n      0x20\n        /* \"#utility.yul\":1177:1186   */\n      dup3\n        /* \"#utility.yul\":1168:1175   */\n      dup5\n        /* \"#utility.yul\":1164:1187   */\n      sub\n        /* \"#utility.yul\":1160:1192   */\n      slt\n        /* \"#utility.yul\":1157:1276   */\n      iszero\n      tag_117\n      jumpi\n        /* \"#utility.yul\":1195:1274   */\n      tag_118\n      tag_119\n      jump\t// in\n    tag_118:\n        /* \"#utility.yul\":1157:1276   */\n    tag_117:\n        /* \"#utility.yul\":1343:1344   */\n      0x00\n        /* \"#utility.yul\":1332:1341   */\n      dup3\n        /* \"#utility.yul\":1328:1345   */\n      add\n        /* \"#utility.yul\":1315:1346   */\n      calldataload\n        /* \"#utility.yul\":1373:1391   */\n      0xffffffffffffffff\n        /* \"#utility.yul\":1365:1371   */\n      dup2\n        /* \"#utility.yul\":1362:1392   */\n      gt\n        /* \"#utility.yul\":1359:1476   */\n      iszero\n      tag_120\n      jumpi\n        /* \"#utility.yul\":1395:1474   */\n      tag_121\n      tag_122\n      jump\t// in\n    tag_121:\n        /* \"#utility.yul\":1359:1476   */\n    tag_120:\n        /* \"#utility.yul\":1500:1563   */\n      tag_123\n        /* \"#utility.yul\":1555:1562   */\n      dup5\n        /* \"#utility.yul\":1546:1552   */\n      dup3\n        /* \"#utility.yul\":1535:1544   */\n      dup6\n        /* \"#utility.yul\":1531:1553   */\n      add\n        /* \"#utility.yul\":1500:1563   */\n      tag_106\n      jump\t// in\n    tag_123:\n        /* \"#utility.yul\":1490:1563   */\n      swap2\n      pop\n        /* \"#utility.yul\":1286:1573   */\n      pop\n        /* \"#utility.yul\":1071:1580   */\n      swap3\n      swap2\n      pop\n      pop\n      jump\t// out\n        /* \"#utility.yul\":1586:2236   */\n    tag_15:\n        /* \"#utility.yul\":1662:1668   */\n      0x00\n        /* \"#utility.yul\":1670:1676   */\n      dup1\n        /* \"#utility.yul\":1719:1721   */\n      0x40\n        /* \"#utility.yul\":1707:1716   */\n      dup4\n        /* \"#utility.yul\":1698:1705   */\n      dup6\n        /* \"#utility.yul\":1694:1717   */\n      sub\n        /* \"#utility.yul\":1690:1722   */\n      slt\n        /* \"#utility.yul\":1687:1806   */\n      iszero\n      tag_125\n      jumpi\n        /* \"#utility.yul\":1725:1804   */\n      tag_126\n      tag_119\n      jump\t// in\n    tag_126:\n        /* \"#utility.yul\":1687:1806   */\n    tag_125:\n        /* \"#utility.yul\":1873:1874   */\n      0x00\n        /* \"#utility.yul\":1862:1871   */\n      dup4\n        /* \"#utility.yul\":1858:1875   */\n      add\n        /* \"#utility.yul\":1845:1876   */\n      calldataload\n        /* \"#utility.yul\":1903:1921   */\n      0xffffffffffffffff\n        /* \"#utility.yul\":1895:1901   */\n      dup2\n        /* \"#utility.yul\":1892:1922   */\n      gt\n        /* \"#utility.yul\":1889:2006   */\n      iszero\n      tag_127\n      jumpi\n        /* \"#utility.yul\":1925:2004   */\n      tag_128\n      tag_122\n      jump\t// in\n    tag_128:\n        /* \"#utility.yul\":1889:2006   */\n    tag_127:\n        /* \"#utility.yul\":2030:2093   */\n      tag_129\n        /* \"#utility.yul\":2085:2092   */\n      dup6\n        /* \"#utility.yul\":2076:2082   */\n      dup3\n        /* \"#utility.yul\":2065:2074   */\n      dup7\n        /* \"#utility.yul\":2061:2083   */\n      add\n        /* \"#utility.yul\":2030:2093   */\n      tag_106\n      jump\t// in\n    tag_129:\n        /* \"#utility.yul\":2020:2093   */\n      swap3\n      pop\n        /* \"#utility.yul\":1816:2103   */\n      pop\n        /* \"#utility.yul\":2142:2144   */\n      0x20\n        /* \"#utility.yul\":2168:2219   */\n      tag_130\n        /* \"#utility.yul\":2211:2218   */\n      dup6\n        /* \"#utility.yul\":2202:2208   */\n      dup3\n        /* \"#utility.yul\":2191:2200   */\n      dup7\n        /* \"#utility.yul\":2187:2209   */\n      add\n        /* \"#utility.yul\":2168:2219   */\n      tag_102\n      jump\t// in\n    tag_130:\n        /* \"#utility.yul\":2158:2219   */\n      swap2\n      pop\n        /* \"#utility.yul\":2113:2229   */\n      pop\n        /* \"#utility.yul\":1586:2236   */\n      swap3\n      pop\n      swap3\n      swap1\n      pop\n      jump\t// out\n        /* \"#utility.yul\":2242:2571   */\n    tag_19:\n        /* \"#utility.yul\":2301:2307   */\n      0x00\n        /* \"#utility.yul\":2350:2352   */\n      0x20\n        /* \"#utility.yul\":2338:2347   */\n      dup3\n        /* \"#utility.yul\":2329:2336   */\n      dup5\n        /* \"#utility.yul\":2325:2348   */\n      sub\n        /* \"#utility.yul\":2321:2353   */\n      slt\n        /* \"#utility.yul\":2318:2437   */\n      iszero\n      tag_132\n      jumpi\n        /* \"#utility.yul\":2356:2435   */\n      tag_133\n      tag_119\n      jump\t// in\n    tag_133:\n        /* \"#utility.yul\":2318:2437   */\n    tag_132:\n        /* \"#utility.yul\":2476:2477   */\n      0x00\n        /* \"#utility.yul\":2501:2554   */\n      tag_134\n        /* \"#utility.yul\":2546:2553   */\n      dup5\n        /* \"#utility.yul\":2537:2543   */\n      dup3\n        /* \"#utility.yul\":2526:2535   */\n      dup6\n        /* \"#utility.yul\":2522:2544   */\n      add\n        /* \"#utility.yul\":2501:2554   */\n      tag_112\n      jump\t// in\n    tag_134:\n        /* \"#utility.yul\":2491:2554   */\n      swap2\n      pop\n        /* \"#utility.yul\":2447:2564   */\n      pop\n        /* \"#utility.yul\":2242:2571   */\n      swap3\n      swap2\n      pop\n      pop\n      jump\t// out\n        /* \"#utility.yul\":2577:2837   */\n    tag_135:\n        /* \"#utility.yul\":2698:2708   */\n      0x00\n        /* \"#utility.yul\":2733:2831   */\n      tag_137\n        /* \"#utility.yul\":2827:2830   */\n      dup4\n        /* \"#utility.yul\":2819:2825   */\n      dup4\n        /* \"#utility.yul\":2733:2831   */\n      tag_138\n      jump\t// in\n    tag_137:\n        /* \"#utility.yul\":2719:2831   */\n      swap1\n      pop\n        /* \"#utility.yul\":2577:2837   */\n      swap3\n      swap2\n      pop\n      pop\n      jump\t// out\n        /* \"#utility.yul\":2843:3103   */\n    tag_139:\n        /* \"#utility.yul\":2964:2974   */\n      0x00\n        /* \"#utility.yul\":2999:3097   */\n      tag_141\n        /* \"#utility.yul\":3093:3096   */\n      dup4\n        /* \"#utility.yul\":3085:3091   */\n      dup4\n        /* \"#utility.yul\":2999:3097   */\n      tag_142\n      jump\t// in\n    tag_141:\n        /* \"#utility.yul\":2985:3097   */\n      swap1\n      pop\n        /* \"#utility.yul\":2843:3103   */\n      swap3\n      swap2\n      pop\n      pop\n      jump\t// out\n        /* \"#utility.yul\":3183:4302   */\n    tag_143:\n        /* \"#utility.yul\":3354:3357   */\n      0x00\n        /* \"#utility.yul\":3383:3463   */\n      tag_145\n        /* \"#utility.yul\":3457:3462   */\n      dup3\n        /* \"#utility.yul\":3383:3463   */\n      tag_146\n      jump\t// in\n    tag_145:\n        /* \"#utility.yul\":3479:3591   */\n      tag_147\n        /* \"#utility.yul\":3584:3590   */\n      dup2\n        /* \"#utility.yul\":3579:3582   */\n      dup6\n        /* \"#utility.yul\":3479:3591   */\n      tag_148\n      jump\t// in\n    tag_147:\n        /* \"#utility.yul\":3472:3591   */\n      swap4\n      pop\n        /* \"#utility.yul\":3617:3620   */\n      dup4\n        /* \"#utility.yul\":3662:3666   */\n      0x20\n        /* \"#utility.yul\":3654:3660   */\n      dup3\n        /* \"#utility.yul\":3650:3667   */\n      mul\n        /* \"#utility.yul\":3645:3648   */\n      dup6\n        /* \"#utility.yul\":3641:3668   */\n      add\n        /* \"#utility.yul\":3692:3774   */\n      tag_149\n        /* \"#utility.yul\":3768:3773   */\n      dup6\n        /* \"#utility.yul\":3692:3774   */\n      tag_150\n      jump\t// in\n    tag_149:\n        /* \"#utility.yul\":3797:3804   */\n      dup1\n        /* \"#utility.yul\":3828:3829   */\n      0x00\n        /* \"#utility.yul\":3813:4257   */\n    tag_151:\n        /* \"#utility.yul\":3838:3844   */\n      dup6\n        /* \"#utility.yul\":3835:3836   */\n      dup2\n        /* \"#utility.yul\":3832:3845   */\n      lt\n        /* \"#utility.yul\":3813:4257   */\n      iszero\n      tag_153\n      jumpi\n        /* \"#utility.yul\":3909:3918   */\n      dup5\n        /* \"#utility.yul\":3903:3907   */\n      dup5\n        /* \"#utility.yul\":3899:3919   */\n      sub\n        /* \"#utility.yul\":3894:3897   */\n      dup10\n        /* \"#utility.yul\":3887:3920   */\n      mstore\n        /* \"#utility.yul\":3960:3966   */\n      dup2\n        /* \"#utility.yul\":3954:3967   */\n      mload\n        /* \"#utility.yul\":3988:4104   */\n      tag_154\n        /* \"#utility.yul\":4099:4103   */\n      dup6\n        /* \"#utility.yul\":4084:4097   */\n      dup3\n        /* \"#utility.yul\":3988:4104   */\n      tag_135\n      jump\t// in\n    tag_154:\n        /* \"#utility.yul\":3980:4104   */\n      swap5\n      pop\n        /* \"#utility.yul\":4127:4213   */\n      tag_155\n        /* \"#utility.yul\":4206:4212   */\n      dup4\n        /* \"#utility.yul\":4127:4213   */\n      tag_156\n      jump\t// in\n    tag_155:\n        /* \"#utility.yul\":4117:4213   */\n      swap3\n      pop\n        /* \"#utility.yul\":4242:4246   */\n      0x20\n        /* \"#utility.yul\":4237:4240   */\n      dup11\n        /* \"#utility.yul\":4233:4247   */\n      add\n        /* \"#utility.yul\":4226:4247   */\n      swap10\n      pop\n        /* \"#utility.yul\":3873:4257   */\n      pop\n        /* \"#utility.yul\":3860:3861   */\n      0x01\n        /* \"#utility.yul\":3857:3858   */\n      dup2\n        /* \"#utility.yul\":3853:3862   */\n      add\n        /* \"#utility.yul\":3848:3862   */\n      swap1\n      pop\n        /* \"#utility.yul\":3813:4257   */\n      jump(tag_151)\n    tag_153:\n        /* \"#utility.yul\":3817:3831   */\n      pop\n        /* \"#utility.yul\":4273:4277   */\n      dup3\n        /* \"#utility.yul\":4266:4277   */\n      swap8\n      pop\n        /* \"#utility.yul\":4293:4296   */\n      dup8\n        /* \"#utility.yul\":4286:4296   */\n      swap6\n      pop\n        /* \"#utility.yul\":3359:4302   */\n      pop\n      pop\n      pop\n      pop\n      pop\n        /* \"#utility.yul\":3183:4302   */\n      swap3\n      swap2\n      pop\n      pop\n      jump\t// out\n        /* \"#utility.yul\":4384:5483   */\n    tag_157:\n        /* \"#utility.yul\":4545:4548   */\n      0x00\n        /* \"#utility.yul\":4574:4654   */\n      tag_159\n        /* \"#utility.yul\":4648:4653   */\n      dup3\n        /* \"#utility.yul\":4574:4654   */\n      tag_160\n      jump\t// in\n    tag_159:\n        /* \"#utility.yul\":4670:4772   */\n      tag_161\n        /* \"#utility.yul\":4765:4771   */\n      dup2\n        /* \"#utility.yul\":4760:4763   */\n      dup6\n        /* \"#utility.yul\":4670:4772   */\n      tag_162\n      jump\t// in\n    tag_161:\n        /* \"#utility.yul\":4663:4772   */\n      swap4\n      pop\n        /* \"#utility.yul\":4798:4801   */\n      dup4\n        /* \"#utility.yul\":4843:4847   */\n      0x20\n        /* \"#utility.yul\":4835:4841   */\n      dup3\n        /* \"#utility.yul\":4831:4848   */\n      mul\n        /* \"#utility.yul\":4826:4829   */\n      dup6\n        /* \"#utility.yul\":4822:4849   */\n      add\n        /* \"#utility.yul\":4873:4955   */\n      tag_163\n        /* \"#utility.yul\":4949:4954   */\n      dup6\n        /* \"#utility.yul\":4873:4955   */\n      tag_164\n      jump\t// in\n    tag_163:\n        /* \"#utility.yul\":4978:4985   */\n      dup1\n        /* \"#utility.yul\":5009:5010   */\n      0x00\n        /* \"#utility.yul\":4994:5438   */\n    tag_165:\n        /* \"#utility.yul\":5019:5025   */\n      dup6\n        /* \"#utility.yul\":5016:5017   */\n      dup2\n        /* \"#utility.yul\":5013:5026   */\n      lt\n        /* \"#utility.yul\":4994:5438   */\n      iszero\n      tag_167\n      jumpi\n        /* \"#utility.yul\":5090:5099   */\n      dup5\n        /* \"#utility.yul\":5084:5088   */\n      dup5\n        /* \"#utility.yul\":5080:5100   */\n      sub\n        /* \"#utility.yul\":5075:5078   */\n      dup10\n        /* \"#utility.yul\":5068:5101   */\n      mstore\n        /* \"#utility.yul\":5141:5147   */\n      dup2\n        /* \"#utility.yul\":5135:5148   */\n      mload\n        /* \"#utility.yul\":5169:5285   */\n      tag_168\n        /* \"#utility.yul\":5280:5284   */\n      dup6\n        /* \"#utility.yul\":5265:5278   */\n      dup3\n        /* \"#utility.yul\":5169:5285   */\n      tag_139\n      jump\t// in\n    tag_168:\n        /* \"#utility.yul\":5161:5285   */\n      swap5\n      pop\n        /* \"#utility.yul\":5308:5394   */\n      tag_169\n        /* \"#utility.yul\":5387:5393   */\n      dup4\n        /* \"#utility.yul\":5308:5394   */\n      tag_170\n      jump\t// in\n    tag_169:\n        /* \"#utility.yul\":5298:5394   */\n      swap3\n      pop\n        /* \"#utility.yul\":5423:5427   */\n      0x20\n        /* \"#utility.yul\":5418:5421   */\n      dup11\n        /* \"#utility.yul\":5414:5428   */\n      add\n        /* \"#utility.yul\":5407:5428   */\n      swap10\n      pop\n        /* \"#utility.yul\":5054:5438   */\n      pop\n        /* \"#utility.yul\":5041:5042   */\n      0x01\n        /* \"#utility.yul\":5038:5039   */\n      dup2\n        /* \"#utility.yul\":5034:5043   */\n      add\n        /* \"#utility.yul\":5029:5043   */\n      swap1\n      pop\n        /* \"#utility.yul\":4994:5438   */\n      jump(tag_165)\n    tag_167:\n        /* \"#utility.yul\":4998:5012   */\n      pop\n        /* \"#utility.yul\":5454:5458   */\n      dup3\n        /* \"#utility.yul\":5447:5458   */\n      swap8\n      pop\n        /* \"#utility.yul\":5474:5477   */\n      dup8\n        /* \"#utility.yul\":5467:5477   */\n      swap6\n      pop\n        /* \"#utility.yul\":4550:5483   */\n      pop\n      pop\n      pop\n      pop\n      pop\n        /* \"#utility.yul\":4384:5483   */\n      swap3\n      swap2\n      pop\n      pop\n      jump\t// out\n        /* \"#utility.yul\":5565:6684   */\n    tag_171:\n        /* \"#utility.yul\":5736:5739   */\n      0x00\n        /* \"#utility.yul\":5765:5845   */\n      tag_173\n        /* \"#utility.yul\":5839:5844   */\n      dup3\n        /* \"#utility.yul\":5765:5845   */\n      tag_160\n      jump\t// in\n    tag_173:\n        /* \"#utility.yul\":5861:5973   */\n      tag_174\n        /* \"#utility.yul\":5966:5972   */\n      dup2\n        /* \"#utility.yul\":5961:5964   */\n      dup6\n        /* \"#utility.yul\":5861:5973   */\n      tag_175\n      jump\t// in\n    tag_174:\n        /* \"#utility.yul\":5854:5973   */\n      swap4\n      pop\n        /* \"#utility.yul\":5999:6002   */\n      dup4\n        /* \"#utility.yul\":6044:6048   */\n      0x20\n        /* \"#utility.yul\":6036:6042   */\n      dup3\n        /* \"#utility.yul\":6032:6049   */\n      mul\n        /* \"#utility.yul\":6027:6030   */\n      dup6\n        /* \"#utility.yul\":6023:6050   */\n      add\n        /* \"#utility.yul\":6074:6156   */\n      tag_176\n        /* \"#utility.yul\":6150:6155   */\n      dup6\n        /* \"#utility.yul\":6074:6156   */\n      tag_164\n      jump\t// in\n    tag_176:\n        /* \"#utility.yul\":6179:6186   */\n      dup1\n        /* \"#utility.yul\":6210:6211   */\n      0x00\n        /* \"#utility.yul\":6195:6639   */\n    tag_177:\n        /* \"#utility.yul\":6220:6226   */\n      dup6\n        /* \"#utility.yul\":6217:6218   */\n      dup2\n        /* \"#utility.yul\":6214:6227   */\n      lt\n        /* \"#utility.yul\":6195:6639   */\n      iszero\n      tag_179\n      jumpi\n        /* \"#utility.yul\":6291:6300   */\n      dup5\n        /* \"#utility.yul\":6285:6289   */\n      dup5\n        /* \"#utility.yul\":6281:6301   */\n      sub\n        /* \"#utility.yul\":6276:6279   */\n      dup10\n        /* \"#utility.yul\":6269:6302   */\n      mstore\n        /* \"#utility.yul\":6342:6348   */\n      dup2\n        /* \"#utility.yul\":6336:6349   */\n      mload\n        /* \"#utility.yul\":6370:6486   */\n      tag_180\n        /* \"#utility.yul\":6481:6485   */\n      dup6\n        /* \"#utility.yul\":6466:6479   */\n      dup3\n        /* \"#utility.yul\":6370:6486   */\n      tag_139\n      jump\t// in\n    tag_180:\n        /* \"#utility.yul\":6362:6486   */\n      swap5\n      pop\n        /* \"#utility.yul\":6509:6595   */\n      tag_181\n        /* \"#utility.yul\":6588:6594   */\n      dup4\n        /* \"#utility.yul\":6509:6595   */\n      tag_170\n      jump\t// in\n    tag_181:\n        /* \"#utility.yul\":6499:6595   */\n      swap3\n      pop\n        /* \"#utility.yul\":6624:6628   */\n      0x20\n        /* \"#utility.yul\":6619:6622   */\n      dup11\n        /* \"#utility.yul\":6615:6629   */\n      add\n        /* \"#utility.yul\":6608:6629   */\n      swap10\n      pop\n        /* \"#utility.yul\":6255:6639   */\n      pop\n        /* \"#utility.yul\":6242:6243   */\n      0x01\n        /* \"#utility.yul\":6239:6240   */\n      dup2\n        /* \"#utility.yul\":6235:6244   */\n      add\n        /* \"#utility.yul\":6230:6244   */\n      swap1\n      pop\n        /* \"#utility.yul\":6195:6639   */\n      jump(tag_177)\n    tag_179:\n        /* \"#utility.yul\":6199:6213   */\n      pop\n        /* \"#utility.yul\":6655:6659   */\n      dup3\n        /* \"#utility.yul\":6648:6659   */\n      swap8\n      pop\n        /* \"#utility.yul\":6675:6678   */\n      dup8\n        /* \"#utility.yul\":6668:6678   */\n      swap6\n      pop\n        /* \"#utility.yul\":5741:6684   */\n      pop\n      pop\n      pop\n      pop\n      pop\n        /* \"#utility.yul\":5565:6684   */\n      swap3\n      swap2\n      pop\n      pop\n      jump\t// out\n        /* \"#utility.yul\":6690:6792   */\n    tag_182:\n        /* \"#utility.yul\":6763:6785   */\n      tag_184\n        /* \"#utility.yul\":6779:6784   */\n      dup2\n        /* \"#utility.yul\":6763:6785   */\n      tag_185\n      jump\t// in\n    tag_184:\n        /* \"#utility.yul\":6758:6761   */\n      dup3\n        /* \"#utility.yul\":6751:6786   */\n      mstore\n        /* \"#utility.yul\":6690:6792   */\n      pop\n      pop\n      jump\t// out\n        /* \"#utility.yul\":6798:6910   */\n    tag_186:\n        /* \"#utility.yul\":6881:6903   */\n      tag_188\n        /* \"#utility.yul\":6897:6902   */\n      dup2\n        /* \"#utility.yul\":6881:6903   */\n      tag_185\n      jump\t// in\n    tag_188:\n        /* \"#utility.yul\":6876:6879   */\n      dup3\n        /* \"#utility.yul\":6869:6904   */\n      mstore\n        /* \"#utility.yul\":6798:6910   */\n      pop\n      pop\n      jump\t// out\n        /* \"#utility.yul\":6916:7260   */\n    tag_189:\n        /* \"#utility.yul\":6994:6997   */\n      0x00\n        /* \"#utility.yul\":7022:7061   */\n      tag_191\n        /* \"#utility.yul\":7055:7060   */\n      dup3\n        /* \"#utility.yul\":7022:7061   */\n      tag_192\n      jump\t// in\n    tag_191:\n        /* \"#utility.yul\":7077:7138   */\n      tag_193\n        /* \"#utility.yul\":7131:7137   */\n      dup2\n        /* \"#utility.yul\":7126:7129   */\n      dup6\n        /* \"#utility.yul\":7077:7138   */\n      tag_194\n      jump\t// in\n    tag_193:\n        /* \"#utility.yul\":7070:7138   */\n      swap4\n      pop\n        /* \"#utility.yul\":7147:7199   */\n      tag_195\n        /* \"#utility.yul\":7192:7198   */\n      dup2\n        /* \"#utility.yul\":7187:7190   */\n      dup6\n        /* \"#utility.yul\":7180:7184   */\n      0x20\n        /* \"#utility.yul\":7173:7178   */\n      dup7\n        /* \"#utility.yul\":7169:7185   */\n      add\n        /* \"#utility.yul\":7147:7199   */\n      tag_196\n      jump\t// in\n    tag_195:\n        /* \"#utility.yul\":7224:7253   */\n      tag_197\n        /* \"#utility.yul\":7246:7252   */\n      dup2\n        /* \"#utility.yul\":7224:7253   */\n      tag_198\n      jump\t// in\n    tag_197:\n        /* \"#utility.yul\":7219:7222   */\n      dup5\n        /* \"#utility.yul\":7215:7254   */\n      add\n        /* \"#utility.yul\":7208:7254   */\n      swap2\n      pop\n        /* \"#utility.yul\":6998:7260   */\n      pop\n        /* \"#utility.yul\":6916:7260   */\n      swap3\n      swap2\n      pop\n      pop\n      jump\t// out\n        /* \"#utility.yul\":7266:7630   */\n    tag_199:\n        /* \"#utility.yul\":7354:7357   */\n      0x00\n        /* \"#utility.yul\":7382:7421   */\n      tag_201\n        /* \"#utility.yul\":7415:7420   */\n      dup3\n        /* \"#utility.yul\":7382:7421   */\n      tag_192\n      jump\t// in\n    tag_201:\n        /* \"#utility.yul\":7437:7508   */\n      tag_202\n        /* \"#utility.yul\":7501:7507   */\n      dup2\n        /* \"#utility.yul\":7496:7499   */\n      dup6\n        /* \"#utility.yul\":7437:7508   */\n      tag_203\n      jump\t// in\n    tag_202:\n        /* \"#utility.yul\":7430:7508   */\n      swap4\n      pop\n        /* \"#utility.yul\":7517:7569   */\n      tag_204\n        /* \"#utility.yul\":7562:7568   */\n      dup2\n        /* \"#utility.yul\":7557:7560   */\n      dup6\n        /* \"#utility.yul\":7550:7554   */\n      0x20\n        /* \"#utility.yul\":7543:7548   */\n      dup7\n        /* \"#utility.yul\":7539:7555   */\n      add\n        /* \"#utility.yul\":7517:7569   */\n      tag_196\n      jump\t// in\n    tag_204:\n        /* \"#utility.yul\":7594:7623   */\n      tag_205\n        /* \"#utility.yul\":7616:7622   */\n      dup2\n        /* \"#utility.yul\":7594:7623   */\n      tag_198\n      jump\t// in\n    tag_205:\n        /* \"#utility.yul\":7589:7592   */\n      dup5\n        /* \"#utility.yul\":7585:7624   */\n      add\n        /* \"#utility.yul\":7578:7624   */\n      swap2\n      pop\n        /* \"#utility.yul\":7358:7630   */\n      pop\n        /* \"#utility.yul\":7266:7630   */\n      swap3\n      swap2\n      pop\n      pop\n      jump\t// out\n        /* \"#utility.yul\":7706:8632   */\n    tag_138:\n        /* \"#utility.yul\":7817:7820   */\n      0x00\n        /* \"#utility.yul\":7853:7857   */\n      0x60\n        /* \"#utility.yul\":7848:7851   */\n      dup4\n        /* \"#utility.yul\":7844:7858   */\n      add\n        /* \"#utility.yul\":7939:7943   */\n      0x00\n        /* \"#utility.yul\":7932:7937   */\n      dup4\n        /* \"#utility.yul\":7928:7944   */\n      add\n        /* \"#utility.yul\":7922:7945   */\n      mload\n        /* \"#utility.yul\":7958:8021   */\n      tag_207\n        /* \"#utility.yul\":8015:8019   */\n      0x00\n        /* \"#utility.yul\":8010:8013   */\n      dup7\n        /* \"#utility.yul\":8006:8020   */\n      add\n        /* \"#utility.yul\":7992:8004   */\n      dup3\n        /* \"#utility.yul\":7958:8021   */\n      tag_208\n      jump\t// in\n    tag_207:\n        /* \"#utility.yul\":7868:8031   */\n      pop\n        /* \"#utility.yul\":8113:8117   */\n      0x20\n        /* \"#utility.yul\":8106:8111   */\n      dup4\n        /* \"#utility.yul\":8102:8118   */\n      add\n        /* \"#utility.yul\":8096:8119   */\n      mload\n        /* \"#utility.yul\":8166:8169   */\n      dup5\n        /* \"#utility.yul\":8160:8164   */\n      dup3\n        /* \"#utility.yul\":8156:8170   */\n      sub\n        /* \"#utility.yul\":8149:8153   */\n      0x20\n        /* \"#utility.yul\":8144:8147   */\n      dup7\n        /* \"#utility.yul\":8140:8154   */\n      add\n        /* \"#utility.yul\":8133:8171   */\n      mstore\n        /* \"#utility.yul\":8192:8265   */\n      tag_209\n        /* \"#utility.yul\":8260:8264   */\n      dup3\n        /* \"#utility.yul\":8246:8258   */\n      dup3\n        /* \"#utility.yul\":8192:8265   */\n      tag_189\n      jump\t// in\n    tag_209:\n        /* \"#utility.yul\":8184:8265   */\n      swap2\n      pop\n        /* \"#utility.yul\":8041:8276   */\n      pop\n        /* \"#utility.yul\":8360:8364   */\n      0x40\n        /* \"#utility.yul\":8353:8358   */\n      dup4\n        /* \"#utility.yul\":8349:8365   */\n      add\n        /* \"#utility.yul\":8343:8366   */\n      mload\n        /* \"#utility.yul\":8413:8416   */\n      dup5\n        /* \"#utility.yul\":8407:8411   */\n      dup3\n        /* \"#utility.yul\":8403:8417   */\n      sub\n        /* \"#utility.yul\":8396:8400   */\n      0x40\n        /* \"#utility.yul\":8391:8394   */\n      dup7\n        /* \"#utility.yul\":8387:8401   */\n      add\n        /* \"#utility.yul\":8380:8418   */\n      mstore\n        /* \"#utility.yul\":8439:8594   */\n      tag_210\n        /* \"#utility.yul\":8589:8593   */\n      dup3\n        /* \"#utility.yul\":8575:8587   */\n      dup3\n        /* \"#utility.yul\":8439:8594   */\n      tag_157\n      jump\t// in\n    tag_210:\n        /* \"#utility.yul\":8431:8594   */\n      swap2\n      pop\n        /* \"#utility.yul\":8286:8605   */\n      pop\n        /* \"#utility.yul\":8622:8626   */\n      dup1\n        /* \"#utility.yul\":8615:8626   */\n      swap2\n      pop\n        /* \"#utility.yul\":7822:8632   */\n      pop\n        /* \"#utility.yul\":7706:8632   */\n      swap3\n      swap2\n      pop\n      pop\n      jump\t// out\n        /* \"#utility.yul\":8710:9482   */\n    tag_142:\n        /* \"#utility.yul\":8821:8824   */\n      0x00\n        /* \"#utility.yul\":8857:8861   */\n      0x60\n        /* \"#utility.yul\":8852:8855   */\n      dup4\n        /* \"#utility.yul\":8848:8862   */\n      add\n        /* \"#utility.yul\":8943:8947   */\n      0x00\n        /* \"#utility.yul\":8936:8941   */\n      dup4\n        /* \"#utility.yul\":8932:8948   */\n      add\n        /* \"#utility.yul\":8926:8949   */\n      mload\n        /* \"#utility.yul\":8962:9025   */\n      tag_212\n        /* \"#utility.yul\":9019:9023   */\n      0x00\n        /* \"#utility.yul\":9014:9017   */\n      dup7\n        /* \"#utility.yul\":9010:9024   */\n      add\n        /* \"#utility.yul\":8996:9008   */\n      dup3\n        /* \"#utility.yul\":8962:9025   */\n      tag_208\n      jump\t// in\n    tag_212:\n        /* \"#utility.yul\":8872:9035   */\n      pop\n        /* \"#utility.yul\":9121:9125   */\n      0x20\n        /* \"#utility.yul\":9114:9119   */\n      dup4\n        /* \"#utility.yul\":9110:9126   */\n      add\n        /* \"#utility.yul\":9104:9127   */\n      mload\n        /* \"#utility.yul\":9174:9177   */\n      dup5\n        /* \"#utility.yul\":9168:9172   */\n      dup3\n        /* \"#utility.yul\":9164:9178   */\n      sub\n        /* \"#utility.yul\":9157:9161   */\n      0x20\n        /* \"#utility.yul\":9152:9155   */\n      dup7\n        /* \"#utility.yul\":9148:9162   */\n      add\n        /* \"#utility.yul\":9141:9179   */\n      mstore\n        /* \"#utility.yul\":9200:9273   */\n      tag_213\n        /* \"#utility.yul\":9268:9272   */\n      dup3\n        /* \"#utility.yul\":9254:9266   */\n      dup3\n        /* \"#utility.yul\":9200:9273   */\n      tag_189\n      jump\t// in\n    tag_213:\n        /* \"#utility.yul\":9192:9273   */\n      swap2\n      pop\n        /* \"#utility.yul\":9045:9284   */\n      pop\n        /* \"#utility.yul\":9367:9371   */\n      0x40\n        /* \"#utility.yul\":9360:9365   */\n      dup4\n        /* \"#utility.yul\":9356:9372   */\n      add\n        /* \"#utility.yul\":9350:9373   */\n      mload\n        /* \"#utility.yul\":9386:9445   */\n      tag_214\n        /* \"#utility.yul\":9439:9443   */\n      0x40\n        /* \"#utility.yul\":9434:9437   */\n      dup7\n        /* \"#utility.yul\":9430:9444   */\n      add\n        /* \"#utility.yul\":9416:9428   */\n      dup3\n        /* \"#utility.yul\":9386:9445   */\n      tag_182\n      jump\t// in\n    tag_214:\n        /* \"#utility.yul\":9294:9455   */\n      pop\n        /* \"#utility.yul\":9472:9476   */\n      dup1\n        /* \"#utility.yul\":9465:9476   */\n      swap2\n      pop\n        /* \"#utility.yul\":8826:9482   */\n      pop\n        /* \"#utility.yul\":8710:9482   */\n      swap3\n      swap2\n      pop\n      pop\n      jump\t// out\n        /* \"#utility.yul\":9488:9596   */\n    tag_208:\n        /* \"#utility.yul\":9565:9589   */\n      tag_216\n        /* \"#utility.yul\":9583:9588   */\n      dup2\n        /* \"#utility.yul\":9565:9589   */\n      tag_217\n      jump\t// in\n    tag_216:\n        /* \"#utility.yul\":9560:9563   */\n      dup3\n        /* \"#utility.yul\":9553:9590   */\n      mstore\n        /* \"#utility.yul\":9488:9596   */\n      pop\n      pop\n      jump\t// out\n        /* \"#utility.yul\":9602:9720   */\n    tag_218:\n        /* \"#utility.yul\":9689:9713   */\n      tag_220\n        /* \"#utility.yul\":9707:9712   */\n      dup2\n        /* \"#utility.yul\":9689:9713   */\n      tag_217\n      jump\t// in\n    tag_220:\n        /* \"#utility.yul\":9684:9687   */\n      dup3\n        /* \"#utility.yul\":9677:9714   */\n      mstore\n        /* \"#utility.yul\":9602:9720   */\n      pop\n      pop\n      jump\t// out\n        /* \"#utility.yul\":9726:10203   */\n    tag_31:\n        /* \"#utility.yul\":9921:9925   */\n      0x00\n        /* \"#utility.yul\":9959:9961   */\n      0x20\n        /* \"#utility.yul\":9948:9957   */\n      dup3\n        /* \"#utility.yul\":9944:9962   */\n      add\n        /* \"#utility.yul\":9936:9962   */\n      swap1\n      pop\n        /* \"#utility.yul\":10008:10017   */\n      dup2\n        /* \"#utility.yul\":10002:10006   */\n      dup2\n        /* \"#utility.yul\":9998:10018   */\n      sub\n        /* \"#utility.yul\":9994:9995   */\n      0x00\n        /* \"#utility.yul\":9983:9992   */\n      dup4\n        /* \"#utility.yul\":9979:9996   */\n      add\n        /* \"#utility.yul\":9972:10019   */\n      mstore\n        /* \"#utility.yul\":10036:10196   */\n      tag_222\n        /* \"#utility.yul\":10191:10195   */\n      dup2\n        /* \"#utility.yul\":10182:10188   */\n      dup5\n        /* \"#utility.yul\":10036:10196   */\n      tag_143\n      jump\t// in\n    tag_222:\n        /* \"#utility.yul\":10028:10196   */\n      swap1\n      pop\n        /* \"#utility.yul\":9726:10203   */\n      swap3\n      swap2\n      pop\n      pop\n      jump\t// out\n        /* \"#utility.yul\":10209:10686   */\n    tag_12:\n        /* \"#utility.yul\":10404:10408   */\n      0x00\n        /* \"#utility.yul\":10442:10444   */\n      0x20\n        /* \"#utility.yul\":10431:10440   */\n      dup3\n        /* \"#utility.yul\":10427:10445   */\n      add\n        /* \"#utility.yul\":10419:10445   */\n      swap1\n      pop\n        /* \"#utility.yul\":10491:10500   */\n      dup2\n        /* \"#utility.yul\":10485:10489   */\n      dup2\n        /* \"#utility.yul\":10481:10501   */\n      sub\n        /* \"#utility.yul\":10477:10478   */\n      0x00\n        /* \"#utility.yul\":10466:10475   */\n      dup4\n        /* \"#utility.yul\":10462:10479   */\n      add\n        /* \"#utility.yul\":10455:10502   */\n      mstore\n        /* \"#utility.yul\":10519:10679   */\n      tag_224\n        /* \"#utility.yul\":10674:10678   */\n      dup2\n        /* \"#utility.yul\":10665:10671   */\n      dup5\n        /* \"#utility.yul\":10519:10679   */\n      tag_171\n      jump\t// in\n    tag_224:\n        /* \"#utility.yul\":10511:10679   */\n      swap1\n      pop\n        /* \"#utility.yul\":10209:10686   */\n      swap3\n      swap2\n      pop\n      pop\n      jump\t// out\n        /* \"#utility.yul\":10692:11115   */\n    tag_22:\n        /* \"#utility.yul\":10833:10837   */\n      0x00\n        /* \"#utility.yul\":10871:10873   */\n      0x40\n        /* \"#utility.yul\":10860:10869   */\n      dup3\n        /* \"#utility.yul\":10856:10874   */\n      add\n        /* \"#utility.yul\":10848:10874   */\n      swap1\n      pop\n        /* \"#utility.yul\":10884:10955   */\n      tag_226\n        /* \"#utility.yul\":10952:10953   */\n      0x00\n        /* \"#utility.yul\":10941:10950   */\n      dup4\n        /* \"#utility.yul\":10937:10954   */\n      add\n        /* \"#utility.yul\":10928:10934   */\n      dup6\n        /* \"#utility.yul\":10884:10955   */\n      tag_218\n      jump\t// in\n    tag_226:\n        /* \"#utility.yul\":11002:11011   */\n      dup2\n        /* \"#utility.yul\":10996:11000   */\n      dup2\n        /* \"#utility.yul\":10992:11012   */\n      sub\n        /* \"#utility.yul\":10987:10989   */\n      0x20\n        /* \"#utility.yul\":10976:10985   */\n      dup4\n        /* \"#utility.yul\":10972:10990   */\n      add\n        /* \"#utility.yul\":10965:11013   */\n      mstore\n        /* \"#utility.yul\":11030:11108   */\n      tag_227\n        /* \"#utility.yul\":11103:11107   */\n      dup2\n        /* \"#utility.yul\":11094:11100   */\n      dup5\n        /* \"#utility.yul\":11030:11108   */\n      tag_199\n      jump\t// in\n    tag_227:\n        /* \"#utility.yul\":11022:11108   */\n      swap1\n      pop\n        /* \"#utility.yul\":10692:11115   */\n      swap4\n      swap3\n      pop\n      pop\n      pop\n      jump\t// out\n        /* \"#utility.yul\":11121:11646   */\n    tag_27:\n        /* \"#utility.yul\":11286:11290   */\n      0x00\n        /* \"#utility.yul\":11324:11326   */\n      0x60\n        /* \"#utility.yul\":11313:11322   */\n      dup3\n        /* \"#utility.yul\":11309:11327   */\n      add\n        /* \"#utility.yul\":11301:11327   */\n      swap1\n      pop\n        /* \"#utility.yul\":11337:11408   */\n      tag_229\n        /* \"#utility.yul\":11405:11406   */\n      0x00\n        /* \"#utility.yul\":11394:11403   */\n      dup4\n        /* \"#utility.yul\":11390:11407   */\n      add\n        /* \"#utility.yul\":11381:11387   */\n      dup7\n        /* \"#utility.yul\":11337:11408   */\n      tag_218\n      jump\t// in\n    tag_229:\n        /* \"#utility.yul\":11455:11464   */\n      dup2\n        /* \"#utility.yul\":11449:11453   */\n      dup2\n        /* \"#utility.yul\":11445:11465   */\n      sub\n        /* \"#utility.yul\":11440:11442   */\n      0x20\n        /* \"#utility.yul\":11429:11438   */\n      dup4\n        /* \"#utility.yul\":11425:11443   */\n      add\n        /* \"#utility.yul\":11418:11466   */\n      mstore\n        /* \"#utility.yul\":11483:11561   */\n      tag_230\n        /* \"#utility.yul\":11556:11560   */\n      dup2\n        /* \"#utility.yul\":11547:11553   */\n      dup6\n        /* \"#utility.yul\":11483:11561   */\n      tag_199\n      jump\t// in\n    tag_230:\n        /* \"#utility.yul\":11475:11561   */\n      swap1\n      pop\n        /* \"#utility.yul\":11571:11639   */\n      tag_231\n        /* \"#utility.yul\":11635:11637   */\n      0x40\n        /* \"#utility.yul\":11624:11633   */\n      dup4\n        /* \"#utility.yul\":11620:11638   */\n      add\n        /* \"#utility.yul\":11611:11617   */\n      dup5\n        /* \"#utility.yul\":11571:11639   */\n      tag_186\n      jump\t// in\n    tag_231:\n        /* \"#utility.yul\":11121:11646   */\n      swap5\n      swap4\n      pop\n      pop\n      pop\n      pop\n      jump\t// out\n        /* \"#utility.yul\":11652:11781   */\n    tag_96:\n        /* \"#utility.yul\":11686:11692   */\n      0x00\n        /* \"#utility.yul\":11713:11733   */\n      tag_233\n      tag_234\n      jump\t// in\n    tag_233:\n        /* \"#utility.yul\":11703:11733   */\n      swap1\n      pop\n        /* \"#utility.yul\":11742:11775   */\n      tag_235\n        /* \"#utility.yul\":11770:11774   */\n      dup3\n        /* \"#utility.yul\":11762:11768   */\n      dup3\n        /* \"#utility.yul\":11742:11775   */\n      tag_236\n      jump\t// in\n    tag_235:\n        /* \"#utility.yul\":11652:11781   */\n      swap2\n      swap1\n      pop\n      jump\t// out\n        /* \"#utility.yul\":11787:11862   */\n    tag_234:\n        /* \"#utility.yul\":11820:11826   */\n      0x00\n        /* \"#utility.yul\":11853:11855   */\n      0x40\n        /* \"#utility.yul\":11847:11856   */\n      mload\n        /* \"#utility.yul\":11837:11856   */\n      swap1\n      pop\n        /* \"#utility.yul\":11787:11862   */\n      swap1\n      jump\t// out\n        /* \"#utility.yul\":11868:12176   */\n    tag_95:\n        /* \"#utility.yul\":11930:11934   */\n      0x00\n        /* \"#utility.yul\":12020:12038   */\n      0xffffffffffffffff\n        /* \"#utility.yul\":12012:12018   */\n      dup3\n        /* \"#utility.yul\":12009:12039   */\n      gt\n        /* \"#utility.yul\":12006:12062   */\n      iszero\n      tag_239\n      jumpi\n        /* \"#utility.yul\":12042:12060   */\n      tag_240\n      tag_241\n      jump\t// in\n    tag_240:\n        /* \"#utility.yul\":12006:12062   */\n    tag_239:\n        /* \"#utility.yul\":12080:12109   */\n      tag_242\n        /* \"#utility.yul\":12102:12108   */\n      dup3\n        /* \"#utility.yul\":12080:12109   */\n      tag_198\n      jump\t// in\n    tag_242:\n        /* \"#utility.yul\":12072:12109   */\n      swap1\n      pop\n        /* \"#utility.yul\":12164:12168   */\n      0x20\n        /* \"#utility.yul\":12158:12162   */\n      dup2\n        /* \"#utility.yul\":12154:12169   */\n      add\n        /* \"#utility.yul\":12146:12169   */\n      swap1\n      pop\n        /* \"#utility.yul\":11868:12176   */\n      swap2\n      swap1\n      pop\n      jump\t// out\n        /* \"#utility.yul\":12182:12340   */\n    tag_150:\n        /* \"#utility.yul\":12275:12279   */\n      0x00\n        /* \"#utility.yul\":12298:12301   */\n      dup2\n        /* \"#utility.yul\":12290:12301   */\n      swap1\n      pop\n        /* \"#utility.yul\":12328:12332   */\n      0x20\n        /* \"#utility.yul\":12323:12326   */\n      dup3\n        /* \"#utility.yul\":12319:12333   */\n      add\n        /* \"#utility.yul\":12311:12333   */\n      swap1\n      pop\n        /* \"#utility.yul\":12182:12340   */\n      swap2\n      swap1\n      pop\n      jump\t// out\n        /* \"#utility.yul\":12346:12504   */\n    tag_164:\n        /* \"#utility.yul\":12439:12443   */\n      0x00\n        /* \"#utility.yul\":12462:12465   */\n      dup2\n        /* \"#utility.yul\":12454:12465   */\n      swap1\n      pop\n        /* \"#utility.yul\":12492:12496   */\n      0x20\n        /* \"#utility.yul\":12487:12490   */\n      dup3\n        /* \"#utility.yul\":12483:12497   */\n      add\n        /* \"#utility.yul\":12475:12497   */\n      swap1\n      pop\n        /* \"#utility.yul\":12346:12504   */\n      swap2\n      swap1\n      pop\n      jump\t// out\n        /* \"#utility.yul\":12510:12650   */\n    tag_146:\n        /* \"#utility.yul\":12603:12609   */\n      0x00\n        /* \"#utility.yul\":12637:12642   */\n      dup2\n        /* \"#utility.yul\":12631:12643   */\n      mload\n        /* \"#utility.yul\":12621:12643   */\n      swap1\n      pop\n        /* \"#utility.yul\":12510:12650   */\n      swap2\n      swap1\n      pop\n      jump\t// out\n        /* \"#utility.yul\":12656:12796   */\n    tag_160:\n        /* \"#utility.yul\":12749:12755   */\n      0x00\n        /* \"#utility.yul\":12783:12788   */\n      dup2\n        /* \"#utility.yul\":12777:12789   */\n      mload\n        /* \"#utility.yul\":12767:12789   */\n      swap1\n      pop\n        /* \"#utility.yul\":12656:12796   */\n      swap2\n      swap1\n      pop\n      jump\t// out\n        /* \"#utility.yul\":12802:12901   */\n    tag_192:\n        /* \"#utility.yul\":12854:12860   */\n      0x00\n        /* \"#utility.yul\":12888:12893   */\n      dup2\n        /* \"#utility.yul\":12882:12894   */\n      mload\n        /* \"#utility.yul\":12872:12894   */\n      swap1\n      pop\n        /* \"#utility.yul\":12802:12901   */\n      swap2\n      swap1\n      pop\n      jump\t// out\n        /* \"#utility.yul\":12907:13046   */\n    tag_156:\n        /* \"#utility.yul\":13003:13007   */\n      0x00\n        /* \"#utility.yul\":13035:13039   */\n      0x20\n        /* \"#utility.yul\":13030:13033   */\n      dup3\n        /* \"#utility.yul\":13026:13040   */\n      add\n        /* \"#utility.yul\":13018:13040   */\n      swap1\n      pop\n        /* \"#utility.yul\":12907:13046   */\n      swap2\n      swap1\n      pop\n      jump\t// out\n        /* \"#utility.yul\":13052:13191   */\n    tag_170:\n        /* \"#utility.yul\":13148:13152   */\n      0x00\n        /* \"#utility.yul\":13180:13184   */\n      0x20\n        /* \"#utility.yul\":13175:13178   */\n      dup3\n        /* \"#utility.yul\":13171:13185   */\n      add\n        /* \"#utility.yul\":13163:13185   */\n      swap1\n      pop\n        /* \"#utility.yul\":13052:13191   */\n      swap2\n      swap1\n      pop\n      jump\t// out\n        /* \"#utility.yul\":13197:13407   */\n    tag_148:\n        /* \"#utility.yul\":13322:13333   */\n      0x00\n        /* \"#utility.yul\":13356:13362   */\n      dup3\n        /* \"#utility.yul\":13351:13354   */\n      dup3\n        /* \"#utility.yul\":13344:13363   */\n      mstore\n        /* \"#utility.yul\":13396:13400   */\n      0x20\n        /* \"#utility.yul\":13391:13394   */\n      dup3\n        /* \"#utility.yul\":13387:13401   */\n      add\n        /* \"#utility.yul\":13372:13401   */\n      swap1\n      pop\n        /* \"#utility.yul\":13197:13407   */\n      swap3\n      swap2\n      pop\n      pop\n      jump\t// out\n        /* \"#utility.yul\":13413:13613   */\n    tag_162:\n        /* \"#utility.yul\":13528:13539   */\n      0x00\n        /* \"#utility.yul\":13562:13568   */\n      dup3\n        /* \"#utility.yul\":13557:13560   */\n      dup3\n        /* \"#utility.yul\":13550:13569   */\n      mstore\n        /* \"#utility.yul\":13602:13606   */\n      0x20\n        /* \"#utility.yul\":13597:13600   */\n      dup3\n        /* \"#utility.yul\":13593:13607   */\n      add\n        /* \"#utility.yul\":13578:13607   */\n      swap1\n      pop\n        /* \"#utility.yul\":13413:13613   */\n      swap3\n      swap2\n      pop\n      pop\n      jump\t// out\n        /* \"#utility.yul\":13619:13829   */\n    tag_175:\n        /* \"#utility.yul\":13744:13755   */\n      0x00\n        /* \"#utility.yul\":13778:13784   */\n      dup3\n        /* \"#utility.yul\":13773:13776   */\n      dup3\n        /* \"#utility.yul\":13766:13785   */\n      mstore\n        /* \"#utility.yul\":13818:13822   */\n      0x20\n        /* \"#utility.yul\":13813:13816   */\n      dup3\n        /* \"#utility.yul\":13809:13823   */\n      add\n        /* \"#utility.yul\":13794:13823   */\n      swap1\n      pop\n        /* \"#utility.yul\":13619:13829   */\n      swap3\n      swap2\n      pop\n      pop\n      jump\t// out\n        /* \"#utility.yul\":13835:13994   */\n    tag_194:\n        /* \"#utility.yul\":13909:13920   */\n      0x00\n        /* \"#utility.yul\":13943:13949   */\n      dup3\n        /* \"#utility.yul\":13938:13941   */\n      dup3\n        /* \"#utility.yul\":13931:13950   */\n      mstore\n        /* \"#utility.yul\":13983:13987   */\n      0x20\n        /* \"#utility.yul\":13978:13981   */\n      dup3\n        /* \"#utility.yul\":13974:13988   */\n      add\n        /* \"#utility.yul\":13959:13988   */\n      swap1\n      pop\n        /* \"#utility.yul\":13835:13994   */\n      swap3\n      swap2\n      pop\n      pop\n      jump\t// out\n        /* \"#utility.yul\":14000:14169   */\n    tag_203:\n        /* \"#utility.yul\":14084:14095   */\n      0x00\n        /* \"#utility.yul\":14118:14124   */\n      dup3\n        /* \"#utility.yul\":14113:14116   */\n      dup3\n        /* \"#utility.yul\":14106:14125   */\n      mstore\n        /* \"#utility.yul\":14158:14162   */\n      0x20\n        /* \"#utility.yul\":14153:14156   */\n      dup3\n        /* \"#utility.yul\":14149:14163   */\n      add\n        /* \"#utility.yul\":14134:14163   */\n      swap1\n      pop\n        /* \"#utility.yul\":14000:14169   */\n      swap3\n      swap2\n      pop\n      pop\n      jump\t// out\n        /* \"#utility.yul\":14175:14480   */\n    tag_48:\n        /* \"#utility.yul\":14215:14218   */\n      0x00\n        /* \"#utility.yul\":14234:14254   */\n      tag_256\n        /* \"#utility.yul\":14252:14253   */\n      dup3\n        /* \"#utility.yul\":14234:14254   */\n      tag_217\n      jump\t// in\n    tag_256:\n        /* \"#utility.yul\":14229:14254   */\n      swap2\n      pop\n        /* \"#utility.yul\":14268:14288   */\n      tag_257\n        /* \"#utility.yul\":14286:14287   */\n      dup4\n        /* \"#utility.yul\":14268:14288   */\n      tag_217\n      jump\t// in\n    tag_257:\n        /* \"#utility.yul\":14263:14288   */\n      swap3\n      pop\n        /* \"#utility.yul\":14422:14423   */\n      dup3\n        /* \"#utility.yul\":14354:14420   */\n      0xffffffffffffffffffffffffffffffffffffffffffffffffffffffffffffffff\n        /* \"#utility.yul\":14350:14424   */\n      sub\n        /* \"#utility.yul\":14347:14348   */\n      dup3\n        /* \"#utility.yul\":14344:14425   */\n      gt\n        /* \"#utility.yul\":14341:14448   */\n      iszero\n      tag_258\n      jumpi\n        /* \"#utility.yul\":14428:14446   */\n      tag_259\n      tag_260\n      jump\t// in\n    tag_259:\n        /* \"#utility.yul\":14341:14448   */\n    tag_258:\n        /* \"#utility.yul\":14472:14473   */\n      dup3\n        /* \"#utility.yul\":14469:14470   */\n      dup3\n        /* \"#utility.yul\":14465:14474   */\n      add\n        /* \"#utility.yul\":14458:14474   */\n      swap1\n      pop\n        /* \"#utility.yul\":14175:14480   */\n      swap3\n      swap2\n      pop\n      pop\n      jump\t// out\n        /* \"#utility.yul\":14486:14576   */\n    tag_185:\n        /* \"#utility.yul\":14521:14528   */\n      0x00\n        /* \"#utility.yul\":14564:14569   */\n      dup2\n        /* \"#utility.yul\":14561:14562   */\n      0x01\n        /* \"#utility.yul\":14550:14570   */\n      signextend\n        /* \"#utility.yul\":14539:14570   */\n      swap1\n      pop\n        /* \"#utility.yul\":14486:14576   */\n      swap2\n      swap1\n      pop\n      jump\t// out\n        /* \"#utility.yul\":14582:14659   */\n    tag_217:\n        /* \"#utility.yul\":14619:14626   */\n      0x00\n        /* \"#utility.yul\":14648:14653   */\n      dup2\n        /* \"#utility.yul\":14637:14653   */\n      swap1\n      pop\n        /* \"#utility.yul\":14582:14659   */\n      swap2\n      swap1\n      pop\n      jump\t// out\n        /* \"#utility.yul\":14665:14819   */\n    tag_101:\n        /* \"#utility.yul\":14749:14755   */\n      dup3\n        /* \"#utility.yul\":14744:14747   */\n      dup2\n        /* \"#utility.yul\":14739:14742   */\n      dup4\n        /* \"#utility.yul\":14726:14756   */\n      calldatacopy\n        /* \"#utility.yul\":14811:14812   */\n      0x00\n        /* \"#utility.yul\":14802:14808   */\n      dup4\n        /* \"#utility.yul\":14797:14800   */\n      dup4\n        /* \"#utility.yul\":14793:14809   */\n      add\n        /* \"#utility.yul\":14786:14813   */\n      mstore\n        /* \"#utility.yul\":14665:14819   */\n      pop\n      pop\n      pop\n      jump\t// out\n        /* \"#utility.yul\":14825:15132   */\n    tag_196:\n        /* \"#utility.yul\":14893:14894   */\n      0x00\n        /* \"#utility.yul\":14903:15016   */\n    tag_265:\n        /* \"#utility.yul\":14917:14923   */\n      dup4\n        /* \"#utility.yul\":14914:14915   */\n      dup2\n        /* \"#utility.yul\":14911:14924   */\n      lt\n        /* \"#utility.yul\":14903:15016   */\n      iszero\n      tag_267\n      jumpi\n        /* \"#utility.yul\":15002:15003   */\n      dup1\n        /* \"#utility.yul\":14997:15000   */\n      dup3\n        /* \"#utility.yul\":14993:15004   */\n      add\n        /* \"#utility.yul\":14987:15005   */\n      mload\n        /* \"#utility.yul\":14983:14984   */\n      dup2\n        /* \"#utility.yul\":14978:14981   */\n      dup5\n        /* \"#utility.yul\":14974:14985   */\n      add\n        /* \"#utility.yul\":14967:15006   */\n      mstore\n        /* \"#utility.yul\":14939:14941   */\n      0x20\n        /* \"#utility.yul\":14936:14937   */\n      dup2\n        /* \"#utility.yul\":14932:14942   */\n      add\n        /* \"#utility.yul\":14927:14942   */\n      swap1\n      pop\n        /* \"#utility.yul\":14903:15016   */\n      jump(tag_265)\n    tag_267:\n        /* \"#utility.yul\":15034:15040   */\n      dup4\n        /* \"#utility.yul\":15031:15032   */\n      dup2\n        /* \"#utility.yul\":15028:15041   */\n      gt\n        /* \"#utility.yul\":15025:15126   */\n      iszero\n      tag_268\n      jumpi\n        /* \"#utility.yul\":15114:15115   */\n      0x00\n        /* \"#utility.yul\":15105:15111   */\n      dup5\n        /* \"#utility.yul\":15100:15103   */\n      dup5\n        /* \"#utility.yul\":15096:15112   */\n      add\n        /* \"#utility.yul\":15089:15116   */\n      mstore\n        /* \"#utility.yul\":15025:15126   */\n    tag_268:\n        /* \"#utility.yul\":14874:15132   */\n      pop\n        /* \"#utility.yul\":14825:15132   */\n      pop\n      pop\n      pop\n      jump\t// out\n        /* \"#utility.yul\":15138:15458   */\n    tag_41:\n        /* \"#utility.yul\":15182:15188   */\n      0x00\n        /* \"#utility.yul\":15219:15220   */\n      0x02\n        /* \"#utility.yul\":15213:15217   */\n      dup3\n        /* \"#utility.yul\":15209:15221   */\n      div\n        /* \"#utility.yul\":15199:15221   */\n      swap1\n      pop\n        /* \"#utility.yul\":15266:15267   */\n      0x01\n        /* \"#utility.yul\":15260:15264   */\n      dup3\n        /* \"#utility.yul\":15256:15268   */\n      and\n        /* \"#utility.yul\":15287:15305   */\n      dup1\n        /* \"#utility.yul\":15277:15358   */\n      tag_270\n      jumpi\n        /* \"#utility.yul\":15343:15347   */\n      0x7f\n        /* \"#utility.yul\":15335:15341   */\n      dup3\n        /* \"#utility.yul\":15331:15348   */\n      and\n        /* \"#utility.yul\":15321:15348   */\n      swap2\n      pop\n        /* \"#utility.yul\":15277:15358   */\n    tag_270:\n        /* \"#utility.yul\":15405:15407   */\n      0x20\n        /* \"#utility.yul\":15397:15403   */\n      dup3\n        /* \"#utility.yul\":15394:15408   */\n      lt\n        /* \"#utility.yul\":15374:15392   */\n      dup2\n        /* \"#utility.yul\":15371:15409   */\n      eq\n        /* \"#utility.yul\":15368:15452   */\n      iszero\n      tag_271\n      jumpi\n        /* \"#utility.yul\":15424:15442   */\n      tag_272\n      tag_273\n      jump\t// in\n    tag_272:\n        /* \"#utility.yul\":15368:15452   */\n    tag_271:\n        /* \"#utility.yul\":15189:15458   */\n      pop\n        /* \"#utility.yul\":15138:15458   */\n      swap2\n      swap1\n      pop\n      jump\t// out\n        /* \"#utility.yul\":15464:15745   */\n    tag_236:\n        /* \"#utility.yul\":15547:15574   */\n      tag_275\n        /* \"#utility.yul\":15569:15573   */\n      dup3\n        /* \"#utility.yul\":15547:15574   */\n      tag_198\n      jump\t// in\n    tag_275:\n        /* \"#utility.yul\":15539:15545   */\n      dup2\n        /* \"#utility.yul\":15535:15575   */\n      add\n        /* \"#utility.yul\":15677:15683   */\n      dup2\n        /* \"#utility.yul\":15665:15675   */\n      dup2\n        /* \"#utility.yul\":15662:15684   */\n      lt\n        /* \"#utility.yul\":15641:15659   */\n      0xffffffffffffffff\n        /* \"#utility.yul\":15629:15639   */\n      dup3\n        /* \"#utility.yul\":15626:15660   */\n      gt\n        /* \"#utility.yul\":15623:15685   */\n      or\n        /* \"#utility.yul\":15620:15708   */\n      iszero\n      tag_276\n      jumpi\n        /* \"#utility.yul\":15688:15706   */\n      tag_277\n      tag_241\n      jump\t// in\n    tag_277:\n        /* \"#utility.yul\":15620:15708   */\n    tag_276:\n        /* \"#utility.yul\":15728:15738   */\n      dup1\n        /* \"#utility.yul\":15724:15726   */\n      0x40\n        /* \"#utility.yul\":15717:15739   */\n      mstore\n        /* \"#utility.yul\":15507:15745   */\n      pop\n        /* \"#utility.yul\":15464:15745   */\n      pop\n      pop\n      jump\t// out\n        /* \"#utility.yul\":15751:15931   */\n    tag_260:\n        /* \"#utility.yul\":15799:15876   */\n      0x4e487b7100000000000000000000000000000000000000000000000000000000\n        /* \"#utility.yul\":15796:15797   */\n      0x00\n        /* \"#utility.yul\":15789:15877   */\n      mstore\n        /* \"#utility.yul\":15896:15900   */\n      0x11\n        /* \"#utility.yul\":15893:15894   */\n      0x04\n        /* \"#utility.yul\":15886:15901   */\n      mstore\n        /* \"#utility.yul\":15920:15924   */\n      0x24\n        /* \"#utility.yul\":15917:15918   */\n      0x00\n        /* \"#utility.yul\":15910:15925   */\n      revert\n        /* \"#utility.yul\":15937:16117   */\n    tag_273:\n        /* \"#utility.yul\":15985:16062   */\n      0x4e487b7100000000000000000000000000000000000000000000000000000000\n        /* \"#utility.yul\":15982:15983   */\n      0x00\n        /* \"#utility.yul\":15975:16063   */\n      mstore\n        /* \"#utility.yul\":16082:16086   */\n      0x22\n        /* \"#utility.yul\":16079:16080   */\n      0x04\n        /* \"#utility.yul\":16072:16087   */\n      mstore\n        /* \"#utility.yul\":16106:16110   */\n      0x24\n        /* \"#utility.yul\":16103:16104   */\n      0x00\n        /* \"#utility.yul\":16096:16111   */\n      revert\n        /* \"#utility.yul\":16123:16303   */\n    tag_241:\n        /* \"#utility.yul\":16171:16248   */\n      0x4e487b7100000000000000000000000000000000000000000000000000000000\n        /* \"#utility.yul\":16168:16169   */\n      0x00\n        /* \"#utility.yul\":16161:16249   */\n      mstore\n        /* \"#utility.yul\":16268:16272   */\n      0x41\n        /* \"#utility.yul\":16265:16266   */\n      0x04\n        /* \"#utility.yul\":16258:16273   */\n      mstore\n        /* \"#utility.yul\":16292:16296   */\n      0x24\n        /* \"#utility.yul\":16289:16290   */\n      0x00\n        /* \"#utility.yul\":16282:16297   */\n      revert\n        /* \"#utility.yul\":16309:16426   */\n    tag_110:\n        /* \"#utility.yul\":16418:16419   */\n      0x00\n        /* \"#utility.yul\":16415:16416   */\n      dup1\n        /* \"#utility.yul\":16408:16420   */\n      revert\n        /* \"#utility.yul\":16432:16549   */\n    tag_99:\n        /* \"#utility.yul\":16541:16542   */\n      0x00\n        /* \"#utility.yul\":16538:16539   */\n      dup1\n        /* \"#utility.yul\":16531:16543   */\n      revert\n        /* \"#utility.yul\":16555:16672   */\n    tag_122:\n        /* \"#utility.yul\":16664:16665   */\n      0x00\n        /* \"#utility.yul\":16661:16662   */\n      dup1\n        /* \"#utility.yul\":16654:16666   */\n      revert\n        /* \"#utility.yul\":16678:16795   */\n    tag_119:\n        /* \"#utility.yul\":16787:16788   */\n      0x00\n        /* \"#utility.yul\":16784:16785   */\n      dup1\n        /* \"#utility.yul\":16777:16789   */\n      revert\n        /* \"#utility.yul\":16801:16903   */\n    tag_198:\n        /* \"#utility.yul\":16842:16848   */\n      0x00\n        /* \"#utility.yul\":16893:16895   */\n      0x1f\n        /* \"#utility.yul\":16889:16896   */\n      not\n        /* \"#utility.yul\":16884:16886   */\n      0x1f\n        /* \"#utility.yul\":16877:16882   */\n      dup4\n        /* \"#utility.yul\":16873:16887   */\n      add\n        /* \"#utility.yul\":16869:16897   */\n      and\n        /* \"#utility.yul\":16859:16897   */\n      swap1\n      pop\n        /* \"#utility.yul\":16801:16903   */\n      swap2\n      swap1\n      pop\n      jump\t// out\n        /* \"#utility.yul\":16909:17027   */\n    tag_105:\n        /* \"#utility.yul\":16980:17002   */\n      tag_287\n        /* \"#utility.yul\":16996:17001   */\n      dup2\n        /* \"#utility.yul\":16980:17002   */\n      tag_185\n      jump\t// in\n    tag_287:\n        /* \"#utility.yul\":16973:16978   */\n      dup2\n        /* \"#utility.yul\":16970:17003   */\n      eq\n        /* \"#utility.yul\":16960:17021   */\n      tag_288\n      jumpi\n        /* \"#utility.yul\":17017:17018   */\n      0x00\n        /* \"#utility.yul\":17014:17015   */\n      dup1\n        /* \"#utility.yul\":17007:17019   */\n      revert\n        /* \"#utility.yul\":16960:17021   */\n    tag_288:\n        /* \"#utility.yul\":16909:17027   */\n      pop\n      jump\t// out\n        /* \"#utility.yul\":17033:17155   */\n    tag_115:\n        /* \"#utility.yul\":17106:17130   */\n      tag_290\n        /* \"#utility.yul\":17124:17129   */\n      dup2\n        /* \"#utility.yul\":17106:17130   */\n      tag_217\n      jump\t// in\n    tag_290:\n        /* \"#utility.yul\":17099:17104   */\n      dup2\n        /* \"#utility.yul\":17096:17131   */\n      eq\n        /* \"#utility.yul\":17086:17149   */\n      tag_291\n      jumpi\n        /* \"#utility.yul\":17145:17146   */\n      0x00\n        /* \"#utility.yul\":17142:17143   */\n      dup1\n        /* \"#utility.yul\":17135:17147   */\n      revert\n        /* \"#utility.yul\":17086:17149   */\n    tag_291:\n        /* \"#utility.yul\":17033:17155   */\n      pop\n      jump\t// out\n\n    auxdata: 0xa2646970667358221220d557f3512ac6334fb1e14cf1ff01b106d101a49a11c602d014e1fba1b06c191564736f6c63430008070033\n}\n",
				"bytecode": {
					"linkReferences": {},
					"object": "608060405234801561001057600080fd5b50610f5b806100206000396000f3fe608060405234801561001057600080fd5b50600436106100625760003560e01c806302ee3a521461006757806351401eef14610085578063812e3219146100a157806387fbef89146100d2578063e4d7a3d414610104578063e88e9f0f14610122575b600080fd5b61006f61013e565b60405161007c9190610b9d565b60405180910390f35b61009f600480360381019061009a9190610816565b610256565b005b6100bb60048036038101906100b69190610872565b61030f565b6040516100c9929190610bbf565b60405180910390f35b6100ec60048036038101906100e79190610872565b6103bb565b6040516100fb93929190610bef565b60405180910390f35b61010c61047a565b6040516101199190610b7b565b60405180910390f35b61013c600480360381019061013791906107cd565b61068d565b005b60606000805480602002602001604051908101604052809291908181526020016000905b8282101561024d57838290600052602060002090600302016040518060600160405290816000820154815260200160018201805461019f90610de2565b80601f01602080910402602001604051908101604052809291908181526020018280546101cb90610de2565b80156102185780601f106101ed57610100808354040283529160200191610218565b820191906000526020600020905b8154815290600101906020018083116101fb57829003601f168201915b505050505081526020016002820160009054906101000a900460010b60010b60010b8152505081526020019060010190610162565b50505050905090565b6000600160008054905061026a9190610d33565b9050600060405180606001604052808381526020018581526020018460010b815250905060008190806001815401808255809150506001900390600052602060002090600302016000909190919091506000820151816000015560208201518160010190805190602001906102e0929190610690565b5060408201518160020160006101000a81548161ffff021916908360010b61ffff160217905550505050505050565b600260205280600052604060002060009150905080600001549080600101805461033890610de2565b80601f016020809104026020016040519081016040528092919081815260200182805461036490610de2565b80156103b15780601f10610386576101008083540402835291602001916103b1565b820191906000526020600020905b81548152906001019060200180831161039457829003601f168201915b5050505050905082565b60036020528060005260406000206000915090508060000154908060010180546103e490610de2565b80601f016020809104026020016040519081016040528092919081815260200182805461041090610de2565b801561045d5780601f106104325761010080835404028352916020019161045d565b820191906000526020600020905b81548152906001019060200180831161044057829003601f168201915b5050505050908060020160009054906101000a900460010b905083565b60606001805480602002602001604051908101604052809291908181526020016000905b828210156106845783829060005260206000209060030201604051806060016040529081600082015481526020016001820180546104db90610de2565b80601f016020809104026020016040519081016040528092919081815260200182805461050790610de2565b80156105545780601f1061052957610100808354040283529160200191610554565b820191906000526020600020905b81548152906001019060200180831161053757829003601f168201915b5050505050815260200160028201805480602002602001604051908101604052809291908181526020016000905b8282101561066d5783829060005260206000209060030201604051806060016040529081600082015481526020016001820180546105bf90610de2565b80601f01602080910402602001604051908101604052809291908181526020018280546105eb90610de2565b80156106385780601f1061060d57610100808354040283529160200191610638565b820191906000526020600020905b81548152906001019060200180831161061b57829003601f168201915b505050505081526020016002820160009054906101000a900460010b60010b60010b8152505081526020019060010190610582565b50505050815250508152602001906001019061049e565b50505050905090565b50565b82805461069c90610de2565b90600052602060002090601f0160209004810192826106be5760008555610705565b82601f106106d757805160ff1916838001178555610705565b82800160010185558215610705579182015b828111156107045782518255916020019190600101906106e9565b5b5090506107129190610716565b5090565b5b8082111561072f576000816000905550600101610717565b5090565b600061074661074184610c52565b610c2d565b90508281526020810184848401111561076257610761610ed7565b5b61076d848285610da0565b509392505050565b60008135905061078481610ef7565b92915050565b600082601f83011261079f5761079e610ed2565b5b81356107af848260208601610733565b91505092915050565b6000813590506107c781610f0e565b92915050565b6000602082840312156107e3576107e2610ee1565b5b600082013567ffffffffffffffff81111561080157610800610edc565b5b61080d8482850161078a565b91505092915050565b6000806040838503121561082d5761082c610ee1565b5b600083013567ffffffffffffffff81111561084b5761084a610edc565b5b6108578582860161078a565b925050602061086885828601610775565b9150509250929050565b60006020828403121561088857610887610ee1565b5b6000610896848285016107b8565b91505092915050565b60006108ab8383610ab6565b905092915050565b60006108bf8383610b0d565b905092915050565b60006108d282610ca3565b6108dc8185610cde565b9350836020820285016108ee85610c83565b8060005b8581101561092a578484038952815161090b858261089f565b945061091683610cc4565b925060208a019950506001810190506108f2565b50829750879550505050505092915050565b600061094782610cae565b6109518185610cef565b93508360208202850161096385610c93565b8060005b8581101561099f578484038952815161098085826108b3565b945061098b83610cd1565b925060208a01995050600181019050610967565b50829750879550505050505092915050565b60006109bc82610cae565b6109c68185610d00565b9350836020820285016109d885610c93565b8060005b85811015610a1457848403895281516109f585826108b3565b9450610a0083610cd1565b925060208a019950506001810190506109dc565b50829750879550505050505092915050565b610a2f81610d89565b82525050565b610a3e81610d89565b82525050565b6000610a4f82610cb9565b610a598185610d11565b9350610a69818560208601610daf565b610a7281610ee6565b840191505092915050565b6000610a8882610cb9565b610a928185610d22565b9350610aa2818560208601610daf565b610aab81610ee6565b840191505092915050565b6000606083016000830151610ace6000860182610b5d565b5060208301518482036020860152610ae68282610a44565b91505060408301518482036040860152610b00828261093c565b9150508091505092915050565b6000606083016000830151610b256000860182610b5d565b5060208301518482036020860152610b3d8282610a44565b9150506040830151610b526040860182610a26565b508091505092915050565b610b6681610d96565b82525050565b610b7581610d96565b82525050565b60006020820190508181036000830152610b9581846108c7565b905092915050565b60006020820190508181036000830152610bb781846109b1565b905092915050565b6000604082019050610bd46000830185610b6c565b8181036020830152610be68184610a7d565b90509392505050565b6000606082019050610c046000830186610b6c565b8181036020830152610c168185610a7d565b9050610c256040830184610a35565b949350505050565b6000610c37610c48565b9050610c438282610e14565b919050565b6000604051905090565b600067ffffffffffffffff821115610c6d57610c6c610ea3565b5b610c7682610ee6565b9050602081019050919050565b6000819050602082019050919050565b6000819050602082019050919050565b600081519050919050565b600081519050919050565b600081519050919050565b6000602082019050919050565b6000602082019050919050565b600082825260208201905092915050565b600082825260208201905092915050565b600082825260208201905092915050565b600082825260208201905092915050565b600082825260208201905092915050565b6000610d3e82610d96565b9150610d4983610d96565b9250827fffffffffffffffffffffffffffffffffffffffffffffffffffffffffffffffff03821115610d7e57610d7d610e45565b5b828201905092915050565b60008160010b9050919050565b6000819050919050565b82818337600083830152505050565b60005b83811015610dcd578082015181840152602081019050610db2565b83811115610ddc576000848401525b50505050565b60006002820490506001821680610dfa57607f821691505b60208210811415610e0e57610e0d610e74565b5b50919050565b610e1d82610ee6565b810181811067ffffffffffffffff82111715610e3c57610e3b610ea3565b5b80604052505050565b7f4e487b7100000000000000000000000000000000000000000000000000000000600052601160045260246000fd5b7f4e487b7100000000000000000000000000000000000000000000000000000000600052602260045260246000fd5b7f4e487b7100000000000000000000000000000000000000000000000000000000600052604160045260246000fd5b600080fd5b600080fd5b600080fd5b600080fd5b6000601f19601f8301169050919050565b610f0081610d89565b8114610f0b57600080fd5b50565b610f1781610d96565b8114610f2257600080fd5b5056fea2646970667358221220d557f3512ac6334fb1e14cf1ff01b106d101a49a11c602d014e1fba1b06c191564736f6c63430008070033",
					"opcodes": "PUSH1 0x80 PUSH1 0x40 MSTORE CALLVALUE DUP1 ISZERO PUSH2 0x10 JUMPI PUSH1 0x0 DUP1 REVERT JUMPDEST POP PUSH2 0xF5B DUP1 PUSH2 0x20 PUSH1 0x0 CODECOPY PUSH1 0x0 RETURN INVALID PUSH1 0x80 PUSH1 0x40 MSTORE CALLVALUE DUP1 ISZERO PUSH2 0x10 JUMPI PUSH1 0x0 DUP1 REVERT JUMPDEST POP PUSH1 0x4 CALLDATASIZE LT PUSH2 0x62 JUMPI PUSH1 0x0 CALLDATALOAD PUSH1 0xE0 SHR DUP1 PUSH4 0x2EE3A52 EQ PUSH2 0x67 JUMPI DUP1 PUSH4 0x51401EEF EQ PUSH2 0x85 JUMPI DUP1 PUSH4 0x812E3219 EQ PUSH2 0xA1 JUMPI DUP1 PUSH4 0x87FBEF89 EQ PUSH2 0xD2 JUMPI DUP1 PUSH4 0xE4D7A3D4 EQ PUSH2 0x104 JUMPI DUP1 PUSH4 0xE88E9F0F EQ PUSH2 0x122 JUMPI JUMPDEST PUSH1 0x0 DUP1 REVERT JUMPDEST PUSH2 0x6F PUSH2 0x13E JUMP JUMPDEST PUSH1 0x40 MLOAD PUSH2 0x7C SWAP2 SWAP1 PUSH2 0xB9D JUMP JUMPDEST PUSH1 0x40 MLOAD DUP1 SWAP2 SUB SWAP1 RETURN JUMPDEST PUSH2 0x9F PUSH1 0x4 DUP1 CALLDATASIZE SUB DUP2 ADD SWAP1 PUSH2 0x9A SWAP2 SWAP1 PUSH2 0x816 JUMP JUMPDEST PUSH2 0x256 JUMP JUMPDEST STOP JUMPDEST PUSH2 0xBB PUSH1 0x4 DUP1 CALLDATASIZE SUB DUP2 ADD SWAP1 PUSH2 0xB6 SWAP2 SWAP1 PUSH2 0x872 JUMP JUMPDEST PUSH2 0x30F JUMP JUMPDEST PUSH1 0x40 MLOAD PUSH2 0xC9 SWAP3 SWAP2 SWAP1 PUSH2 0xBBF JUMP JUMPDEST PUSH1 0x40 MLOAD DUP1 SWAP2 SUB SWAP1 RETURN JUMPDEST PUSH2 0xEC PUSH1 0x4 DUP1 CALLDATASIZE SUB DUP2 ADD SWAP1 PUSH2 0xE7 SWAP2 SWAP1 PUSH2 0x872 JUMP JUMPDEST PUSH2 0x3BB JUMP JUMPDEST PUSH1 0x40 MLOAD PUSH2 0xFB SWAP4 SWAP3 SWAP2 SWAP1 PUSH2 0xBEF JUMP JUMPDEST PUSH1 0x40 MLOAD DUP1 SWAP2 SUB SWAP1 RETURN JUMPDEST PUSH2 0x10C PUSH2 0x47A JUMP JUMPDEST PUSH1 0x40 MLOAD PUSH2 0x119 SWAP2 SWAP1 PUSH2 0xB7B JUMP JUMPDEST PUSH1 0x40 MLOAD DUP1 SWAP2 SUB SWAP1 RETURN JUMPDEST PUSH2 0x13C PUSH1 0x4 DUP1 CALLDATASIZE SUB DUP2 ADD SWAP1 PUSH2 0x137 SWAP2 SWAP1 PUSH2 0x7CD JUMP JUMPDEST PUSH2 0x68D JUMP JUMPDEST STOP JUMPDEST PUSH1 0x60 PUSH1 0x0 DUP1 SLOAD DUP1 PUSH1 0x20 MUL PUSH1 0x20 ADD PUSH1 0x40 MLOAD SWAP1 DUP2 ADD PUSH1 0x40 MSTORE DUP1 SWAP3 SWAP2 SWAP1 DUP2 DUP2 MSTORE PUSH1 0x20 ADD PUSH1 0x0 SWAP1 JUMPDEST DUP3 DUP3 LT ISZERO PUSH2 0x24D JUMPI DUP4 DUP3 SWAP1 PUSH1 0x0 MSTORE PUSH1 0x20 PUSH1 0x0 KECCAK256 SWAP1 PUSH1 0x3 MUL ADD PUSH1 0x40 MLOAD DUP1 PUSH1 0x60 ADD PUSH1 0x40 MSTORE SWAP1 DUP2 PUSH1 0x0 DUP3 ADD SLOAD DUP2 MSTORE PUSH1 0x20 ADD PUSH1 0x1 DUP3 ADD DUP1 SLOAD PUSH2 0x19F SWAP1 PUSH2 0xDE2 JUMP JUMPDEST DUP1 PUSH1 0x1F ADD PUSH1 0x20 DUP1 SWAP2 DIV MUL PUSH1 0x20 ADD PUSH1 0x40 MLOAD SWAP1 DUP2 ADD PUSH1 0x40 MSTORE DUP1 SWAP3 SWAP2 SWAP1 DUP2 DUP2 MSTORE PUSH1 0x20 ADD DUP3 DUP1 SLOAD PUSH2 0x1CB SWAP1 PUSH2 0xDE2 JUMP JUMPDEST DUP1 ISZERO PUSH2 0x218 JUMPI DUP1 PUSH1 0x1F LT PUSH2 0x1ED JUMPI PUSH2 0x100 DUP1 DUP4 SLOAD DIV MUL DUP4 MSTORE SWAP2 PUSH1 0x20 ADD SWAP2 PUSH2 0x218 JUMP JUMPDEST DUP3 ADD SWAP2 SWAP1 PUSH1 0x0 MSTORE PUSH1 0x20 PUSH1 0x0 KECCAK256 SWAP1 JUMPDEST DUP2 SLOAD DUP2 MSTORE SWAP1 PUSH1 0x1 ADD SWAP1 PUSH1 0x20 ADD DUP1 DUP4 GT PUSH2 0x1FB JUMPI DUP3 SWAP1 SUB PUSH1 0x1F AND DUP3 ADD SWAP2 JUMPDEST POP POP POP POP POP DUP2 MSTORE PUSH1 0x20 ADD PUSH1 0x2 DUP3 ADD PUSH1 0x0 SWAP1 SLOAD SWAP1 PUSH2 0x100 EXP SWAP1 DIV PUSH1 0x1 SIGNEXTEND PUSH1 0x1 SIGNEXTEND PUSH1 0x1 SIGNEXTEND DUP2 MSTORE POP POP DUP2 MSTORE PUSH1 0x20 ADD SWAP1 PUSH1 0x1 ADD SWAP1 PUSH2 0x162 JUMP JUMPDEST POP POP POP POP SWAP1 POP SWAP1 JUMP JUMPDEST PUSH1 0x0 PUSH1 0x1 PUSH1 0x0 DUP1 SLOAD SWAP1 POP PUSH2 0x26A SWAP2 SWAP1 PUSH2 0xD33 JUMP JUMPDEST SWAP1 POP PUSH1 0x0 PUSH1 0x40 MLOAD DUP1 PUSH1 0x60 ADD PUSH1 0x40 MSTORE DUP1 DUP4 DUP2 MSTORE PUSH1 0x20 ADD DUP6 DUP2 MSTORE PUSH1 0x20 ADD DUP5 PUSH1 0x1 SIGNEXTEND DUP2 MSTORE POP SWAP1 POP PUSH1 0x0 DUP2 SWAP1 DUP1 PUSH1 0x1 DUP2 SLOAD ADD DUP1 DUP3 SSTORE DUP1 SWAP2 POP POP PUSH1 0x1 SWAP1 SUB SWAP1 PUSH1 0x0 MSTORE PUSH1 0x20 PUSH1 0x0 KECCAK256 SWAP1 PUSH1 0x3 MUL ADD PUSH1 0x0 SWAP1 SWAP2 SWAP1 SWAP2 SWAP1 SWAP2 POP PUSH1 0x0 DUP3 ADD MLOAD DUP2 PUSH1 0x0 ADD SSTORE PUSH1 0x20 DUP3 ADD MLOAD DUP2 PUSH1 0x1 ADD SWAP1 DUP1 MLOAD SWAP1 PUSH1 0x20 ADD SWAP1 PUSH2 0x2E0 SWAP3 SWAP2 SWAP1 PUSH2 0x690 JUMP JUMPDEST POP PUSH1 0x40 DUP3 ADD MLOAD DUP2 PUSH1 0x2 ADD PUSH1 0x0 PUSH2 0x100 EXP DUP2 SLOAD DUP2 PUSH2 0xFFFF MUL NOT AND SWAP1 DUP4 PUSH1 0x1 SIGNEXTEND PUSH2 0xFFFF AND MUL OR SWAP1 SSTORE POP POP POP POP POP POP POP JUMP JUMPDEST PUSH1 0x2 PUSH1 0x20 MSTORE DUP1 PUSH1 0x0 MSTORE PUSH1 0x40 PUSH1 0x0 KECCAK256 PUSH1 0x0 SWAP2 POP SWAP1 POP DUP1 PUSH1 0x0 ADD SLOAD SWAP1 DUP1 PUSH1 0x1 ADD DUP1 SLOAD PUSH2 0x338 SWAP1 PUSH2 0xDE2 JUMP JUMPDEST DUP1 PUSH1 0x1F ADD PUSH1 0x20 DUP1 SWAP2 DIV MUL PUSH1 0x20 ADD PUSH1 0x40 MLOAD SWAP1 DUP2 ADD PUSH1 0x40 MSTORE DUP1 SWAP3 SWAP2 SWAP1 DUP2 DUP2 MSTORE PUSH1 0x20 ADD DUP3 DUP1 SLOAD PUSH2 0x364 SWAP1 PUSH2 0xDE2 JUMP JUMPDEST DUP1 ISZERO PUSH2 0x3B1 JUMPI DUP1 PUSH1 0x1F LT PUSH2 0x386 JUMPI PUSH2 0x100 DUP1 DUP4 SLOAD DIV MUL DUP4 MSTORE SWAP2 PUSH1 0x20 ADD SWAP2 PUSH2 0x3B1 JUMP JUMPDEST DUP3 ADD SWAP2 SWAP1 PUSH1 0x0 MSTORE PUSH1 0x20 PUSH1 0x0 KECCAK256 SWAP1 JUMPDEST DUP2 SLOAD DUP2 MSTORE SWAP1 PUSH1 0x1 ADD SWAP1 PUSH1 0x20 ADD DUP1 DUP4 GT PUSH2 0x394 JUMPI DUP3 SWAP1 SUB PUSH1 0x1F AND DUP3 ADD SWAP2 JUMPDEST POP POP POP POP POP SWAP1 POP DUP3 JUMP JUMPDEST PUSH1 0x3 PUSH1 0x20 MSTORE DUP1 PUSH1 0x0 MSTORE PUSH1 0x40 PUSH1 0x0 KECCAK256 PUSH1 0x0 SWAP2 POP SWAP1 POP DUP1 PUSH1 0x0 ADD SLOAD SWAP1 DUP1 PUSH1 0x1 ADD DUP1 SLOAD PUSH2 0x3E4 SWAP1 PUSH2 0xDE2 JUMP JUMPDEST DUP1 PUSH1 0x1F ADD PUSH1 0x20 DUP1 SWAP2 DIV MUL PUSH1 0x20 ADD PUSH1 0x40 MLOAD SWAP1 DUP2 ADD PUSH1 0x40 MSTORE DUP1 SWAP3 SWAP2 SWAP1 DUP2 DUP2 MSTORE PUSH1 0x20 ADD DUP3 DUP1 SLOAD PUSH2 0x410 SWAP1 PUSH2 0xDE2 JUMP JUMPDEST DUP1 ISZERO PUSH2 0x45D JUMPI DUP1 PUSH1 0x1F LT PUSH2 0x432 JUMPI PUSH2 0x100 DUP1 DUP4 SLOAD DIV MUL DUP4 MSTORE SWAP2 PUSH1 0x20 ADD SWAP2 PUSH2 0x45D JUMP JUMPDEST DUP3 ADD SWAP2 SWAP1 PUSH1 0x0 MSTORE PUSH1 0x20 PUSH1 0x0 KECCAK256 SWAP1 JUMPDEST DUP2 SLOAD DUP2 MSTORE SWAP1 PUSH1 0x1 ADD SWAP1 PUSH1 0x20 ADD DUP1 DUP4 GT PUSH2 0x440 JUMPI DUP3 SWAP1 SUB PUSH1 0x1F AND DUP3 ADD SWAP2 JUMPDEST POP POP POP POP POP SWAP1 DUP1 PUSH1 0x2 ADD PUSH1 0x0 SWAP1 SLOAD SWAP1 PUSH2 0x100 EXP SWAP1 DIV PUSH1 0x1 SIGNEXTEND SWAP1 POP DUP4 JUMP JUMPDEST PUSH1 0x60 PUSH1 0x1 DUP1 SLOAD DUP1 PUSH1 0x20 MUL PUSH1 0x20 ADD PUSH1 0x40 MLOAD SWAP1 DUP2 ADD PUSH1 0x40 MSTORE DUP1 SWAP3 SWAP2 SWAP1 DUP2 DUP2 MSTORE PUSH1 0x20 ADD PUSH1 0x0 SWAP1 JUMPDEST DUP3 DUP3 LT ISZERO PUSH2 0x684 JUMPI DUP4 DUP3 SWAP1 PUSH1 0x0 MSTORE PUSH1 0x20 PUSH1 0x0 KECCAK256 SWAP1 PUSH1 0x3 MUL ADD PUSH1 0x40 MLOAD DUP1 PUSH1 0x60 ADD PUSH1 0x40 MSTORE SWAP1 DUP2 PUSH1 0x0 DUP3 ADD SLOAD DUP2 MSTORE PUSH1 0x20 ADD PUSH1 0x1 DUP3 ADD DUP1 SLOAD PUSH2 0x4DB SWAP1 PUSH2 0xDE2 JUMP JUMPDEST DUP1 PUSH1 0x1F ADD PUSH1 0x20 DUP1 SWAP2 DIV MUL PUSH1 0x20 ADD PUSH1 0x40 MLOAD SWAP1 DUP2 ADD PUSH1 0x40 MSTORE DUP1 SWAP3 SWAP2 SWAP1 DUP2 DUP2 MSTORE PUSH1 0x20 ADD DUP3 DUP1 SLOAD PUSH2 0x507 SWAP1 PUSH2 0xDE2 JUMP JUMPDEST DUP1 ISZERO PUSH2 0x554 JUMPI DUP1 PUSH1 0x1F LT PUSH2 0x529 JUMPI PUSH2 0x100 DUP1 DUP4 SLOAD DIV MUL DUP4 MSTORE SWAP2 PUSH1 0x20 ADD SWAP2 PUSH2 0x554 JUMP JUMPDEST DUP3 ADD SWAP2 SWAP1 PUSH1 0x0 MSTORE PUSH1 0x20 PUSH1 0x0 KECCAK256 SWAP1 JUMPDEST DUP2 SLOAD DUP2 MSTORE SWAP1 PUSH1 0x1 ADD SWAP1 PUSH1 0x20 ADD DUP1 DUP4 GT PUSH2 0x537 JUMPI DUP3 SWAP1 SUB PUSH1 0x1F AND DUP3 ADD SWAP2 JUMPDEST POP POP POP POP POP DUP2 MSTORE PUSH1 0x20 ADD PUSH1 0x2 DUP3 ADD DUP1 SLOAD DUP1 PUSH1 0x20 MUL PUSH1 0x20 ADD PUSH1 0x40 MLOAD SWAP1 DUP2 ADD PUSH1 0x40 MSTORE DUP1 SWAP3 SWAP2 SWAP1 DUP2 DUP2 MSTORE PUSH1 0x20 ADD PUSH1 0x0 SWAP1 JUMPDEST DUP3 DUP3 LT ISZERO PUSH2 0x66D JUMPI DUP4 DUP3 SWAP1 PUSH1 0x0 MSTORE PUSH1 0x20 PUSH1 0x0 KECCAK256 SWAP1 PUSH1 0x3 MUL ADD PUSH1 0x40 MLOAD DUP1 PUSH1 0x60 ADD PUSH1 0x40 MSTORE SWAP1 DUP2 PUSH1 0x0 DUP3 ADD SLOAD DUP2 MSTORE PUSH1 0x20 ADD PUSH1 0x1 DUP3 ADD DUP1 SLOAD PUSH2 0x5BF SWAP1 PUSH2 0xDE2 JUMP JUMPDEST DUP1 PUSH1 0x1F ADD PUSH1 0x20 DUP1 SWAP2 DIV MUL PUSH1 0x20 ADD PUSH1 0x40 MLOAD SWAP1 DUP2 ADD PUSH1 0x40 MSTORE DUP1 SWAP3 SWAP2 SWAP1 DUP2 DUP2 MSTORE PUSH1 0x20 ADD DUP3 DUP1 SLOAD PUSH2 0x5EB SWAP1 PUSH2 0xDE2 JUMP JUMPDEST DUP1 ISZERO PUSH2 0x638 JUMPI DUP1 PUSH1 0x1F LT PUSH2 0x60D JUMPI PUSH2 0x100 DUP1 DUP4 SLOAD DIV MUL DUP4 MSTORE SWAP2 PUSH1 0x20 ADD SWAP2 PUSH2 0x638 JUMP JUMPDEST DUP3 ADD SWAP2 SWAP1 PUSH1 0x0 MSTORE PUSH1 0x20 PUSH1 0x0 KECCAK256 SWAP1 JUMPDEST DUP2 SLOAD DUP2 MSTORE SWAP1 PUSH1 0x1 ADD SWAP1 PUSH1 0x20 ADD DUP1 DUP4 GT PUSH2 0x61B JUMPI DUP3 SWAP1 SUB PUSH1 0x1F AND DUP3 ADD SWAP2 JUMPDEST POP POP POP POP POP DUP2 MSTORE PUSH1 0x20 ADD PUSH1 0x2 DUP3 ADD PUSH1 0x0 SWAP1 SLOAD SWAP1 PUSH2 0x100 EXP SWAP1 DIV PUSH1 0x1 SIGNEXTEND PUSH1 0x1 SIGNEXTEND PUSH1 0x1 SIGNEXTEND DUP2 MSTORE POP POP DUP2 MSTORE PUSH1 0x20 ADD SWAP1 PUSH1 0x1 ADD SWAP1 PUSH2 0x582 JUMP JUMPDEST POP POP POP POP DUP2 MSTORE POP POP DUP2 MSTORE PUSH1 0x20 ADD SWAP1 PUSH1 0x1 ADD SWAP1 PUSH2 0x49E JUMP JUMPDEST POP POP POP POP SWAP1 POP SWAP1 JUMP JUMPDEST POP JUMP JUMPDEST DUP3 DUP1 SLOAD PUSH2 0x69C SWAP1 PUSH2 0xDE2 JUMP JUMPDEST SWAP1 PUSH1 0x0 MSTORE PUSH1 0x20 PUSH1 0x0 KECCAK256 SWAP1 PUSH1 0x1F ADD PUSH1 0x20 SWAP1 DIV DUP2 ADD SWAP3 DUP3 PUSH2 0x6BE JUMPI PUSH1 0x0 DUP6 SSTORE PUSH2 0x705 JUMP JUMPDEST DUP3 PUSH1 0x1F LT PUSH2 0x6D7 JUMPI DUP1 MLOAD PUSH1 0xFF NOT AND DUP4 DUP1 ADD OR DUP6 SSTORE PUSH2 0x705 JUMP JUMPDEST DUP3 DUP1 ADD PUSH1 0x1 ADD DUP6 SSTORE DUP3 ISZERO PUSH2 0x705 JUMPI SWAP2 DUP3 ADD JUMPDEST DUP3 DUP2 GT ISZERO PUSH2 0x704 JUMPI DUP3 MLOAD DUP3 SSTORE SWAP2 PUSH1 0x20 ADD SWAP2 SWAP1 PUSH1 0x1 ADD SWAP1 PUSH2 0x6E9 JUMP JUMPDEST JUMPDEST POP SWAP1 POP PUSH2 0x712 SWAP2 SWAP1 PUSH2 0x716 JUMP JUMPDEST POP SWAP1 JUMP JUMPDEST JUMPDEST DUP1 DUP3 GT ISZERO PUSH2 0x72F JUMPI PUSH1 0x0 DUP2 PUSH1 0x0 SWAP1 SSTORE POP PUSH1 0x1 ADD PUSH2 0x717 JUMP JUMPDEST POP SWAP1 JUMP JUMPDEST PUSH1 0x0 PUSH2 0x746 PUSH2 0x741 DUP5 PUSH2 0xC52 JUMP JUMPDEST PUSH2 0xC2D JUMP JUMPDEST SWAP1 POP DUP3 DUP2 MSTORE PUSH1 0x20 DUP2 ADD DUP5 DUP5 DUP5 ADD GT ISZERO PUSH2 0x762 JUMPI PUSH2 0x761 PUSH2 0xED7 JUMP JUMPDEST JUMPDEST PUSH2 0x76D DUP5 DUP3 DUP6 PUSH2 0xDA0 JUMP JUMPDEST POP SWAP4 SWAP3 POP POP POP JUMP JUMPDEST PUSH1 0x0 DUP2 CALLDATALOAD SWAP1 POP PUSH2 0x784 DUP2 PUSH2 0xEF7 JUMP JUMPDEST SWAP3 SWAP2 POP POP JUMP JUMPDEST PUSH1 0x0 DUP3 PUSH1 0x1F DUP4 ADD SLT PUSH2 0x79F JUMPI PUSH2 0x79E PUSH2 0xED2 JUMP JUMPDEST JUMPDEST DUP2 CALLDATALOAD PUSH2 0x7AF DUP5 DUP3 PUSH1 0x20 DUP7 ADD PUSH2 0x733 JUMP JUMPDEST SWAP2 POP POP SWAP3 SWAP2 POP POP JUMP JUMPDEST PUSH1 0x0 DUP2 CALLDATALOAD SWAP1 POP PUSH2 0x7C7 DUP2 PUSH2 0xF0E JUMP JUMPDEST SWAP3 SWAP2 POP POP JUMP JUMPDEST PUSH1 0x0 PUSH1 0x20 DUP3 DUP5 SUB SLT ISZERO PUSH2 0x7E3 JUMPI PUSH2 0x7E2 PUSH2 0xEE1 JUMP JUMPDEST JUMPDEST PUSH1 0x0 DUP3 ADD CALLDATALOAD PUSH8 0xFFFFFFFFFFFFFFFF DUP2 GT ISZERO PUSH2 0x801 JUMPI PUSH2 0x800 PUSH2 0xEDC JUMP JUMPDEST JUMPDEST PUSH2 0x80D DUP5 DUP3 DUP6 ADD PUSH2 0x78A JUMP JUMPDEST SWAP2 POP POP SWAP3 SWAP2 POP POP JUMP JUMPDEST PUSH1 0x0 DUP1 PUSH1 0x40 DUP4 DUP6 SUB SLT ISZERO PUSH2 0x82D JUMPI PUSH2 0x82C PUSH2 0xEE1 JUMP JUMPDEST JUMPDEST PUSH1 0x0 DUP4 ADD CALLDATALOAD PUSH8 0xFFFFFFFFFFFFFFFF DUP2 GT ISZERO PUSH2 0x84B JUMPI PUSH2 0x84A PUSH2 0xEDC JUMP JUMPDEST JUMPDEST PUSH2 0x857 DUP6 DUP3 DUP7 ADD PUSH2 0x78A JUMP JUMPDEST SWAP3 POP POP PUSH1 0x20 PUSH2 0x868 DUP6 DUP3 DUP7 ADD PUSH2 0x775 JUMP JUMPDEST SWAP2 POP POP SWAP3 POP SWAP3 SWAP1 POP JUMP JUMPDEST PUSH1 0x0 PUSH1 0x20 DUP3 DUP5 SUB SLT ISZERO PUSH2 0x888 JUMPI PUSH2 0x887 PUSH2 0xEE1 JUMP JUMPDEST JUMPDEST PUSH1 0x0 PUSH2 0x896 DUP5 DUP3 DUP6 ADD PUSH2 0x7B8 JUMP JUMPDEST SWAP2 POP POP SWAP3 SWAP2 POP POP JUMP JUMPDEST PUSH1 0x0 PUSH2 0x8AB DUP4 DUP4 PUSH2 0xAB6 JUMP JUMPDEST SWAP1 POP SWAP3 SWAP2 POP POP JUMP JUMPDEST PUSH1 0x0 PUSH2 0x8BF DUP4 DUP4 PUSH2 0xB0D JUMP JUMPDEST SWAP1 POP SWAP3 SWAP2 POP POP JUMP JUMPDEST PUSH1 0x0 PUSH2 0x8D2 DUP3 PUSH2 0xCA3 JUMP JUMPDEST PUSH2 0x8DC DUP2 DUP6 PUSH2 0xCDE JUMP JUMPDEST SWAP4 POP DUP4 PUSH1 0x20 DUP3 MUL DUP6 ADD PUSH2 0x8EE DUP6 PUSH2 0xC83 JUMP JUMPDEST DUP1 PUSH1 0x0 JUMPDEST DUP6 DUP2 LT ISZERO PUSH2 0x92A JUMPI DUP5 DUP5 SUB DUP10 MSTORE DUP2 MLOAD PUSH2 0x90B DUP6 DUP3 PUSH2 0x89F JUMP JUMPDEST SWAP5 POP PUSH2 0x916 DUP4 PUSH2 0xCC4 JUMP JUMPDEST SWAP3 POP PUSH1 0x20 DUP11 ADD SWAP10 POP POP PUSH1 0x1 DUP2 ADD SWAP1 POP PUSH2 0x8F2 JUMP JUMPDEST POP DUP3 SWAP8 POP DUP8 SWAP6 POP POP POP POP POP POP SWAP3 SWAP2 POP POP JUMP JUMPDEST PUSH1 0x0 PUSH2 0x947 DUP3 PUSH2 0xCAE JUMP JUMPDEST PUSH2 0x951 DUP2 DUP6 PUSH2 0xCEF JUMP JUMPDEST SWAP4 POP DUP4 PUSH1 0x20 DUP3 MUL DUP6 ADD PUSH2 0x963 DUP6 PUSH2 0xC93 JUMP JUMPDEST DUP1 PUSH1 0x0 JUMPDEST DUP6 DUP2 LT ISZERO PUSH2 0x99F JUMPI DUP5 DUP5 SUB DUP10 MSTORE DUP2 MLOAD PUSH2 0x980 DUP6 DUP3 PUSH2 0x8B3 JUMP JUMPDEST SWAP5 POP PUSH2 0x98B DUP4 PUSH2 0xCD1 JUMP JUMPDEST SWAP3 POP PUSH1 0x20 DUP11 ADD SWAP10 POP POP PUSH1 0x1 DUP2 ADD SWAP1 POP PUSH2 0x967 JUMP JUMPDEST POP DUP3 SWAP8 POP DUP8 SWAP6 POP POP POP POP POP POP SWAP3 SWAP2 POP POP JUMP JUMPDEST PUSH1 0x0 PUSH2 0x9BC DUP3 PUSH2 0xCAE JUMP JUMPDEST PUSH2 0x9C6 DUP2 DUP6 PUSH2 0xD00 JUMP JUMPDEST SWAP4 POP DUP4 PUSH1 0x20 DUP3 MUL DUP6 ADD PUSH2 0x9D8 DUP6 PUSH2 0xC93 JUMP JUMPDEST DUP1 PUSH1 0x0 JUMPDEST DUP6 DUP2 LT ISZERO PUSH2 0xA14 JUMPI DUP5 DUP5 SUB DUP10 MSTORE DUP2 MLOAD PUSH2 0x9F5 DUP6 DUP3 PUSH2 0x8B3 JUMP JUMPDEST SWAP5 POP PUSH2 0xA00 DUP4 PUSH2 0xCD1 JUMP JUMPDEST SWAP3 POP PUSH1 0x20 DUP11 ADD SWAP10 POP POP PUSH1 0x1 DUP2 ADD SWAP1 POP PUSH2 0x9DC JUMP JUMPDEST POP DUP3 SWAP8 POP DUP8 SWAP6 POP POP POP POP POP POP SWAP3 SWAP2 POP POP JUMP JUMPDEST PUSH2 0xA2F DUP2 PUSH2 0xD89 JUMP JUMPDEST DUP3 MSTORE POP POP JUMP JUMPDEST PUSH2 0xA3E DUP2 PUSH2 0xD89 JUMP JUMPDEST DUP3 MSTORE POP POP JUMP JUMPDEST PUSH1 0x0 PUSH2 0xA4F DUP3 PUSH2 0xCB9 JUMP JUMPDEST PUSH2 0xA59 DUP2 DUP6 PUSH2 0xD11 JUMP JUMPDEST SWAP4 POP PUSH2 0xA69 DUP2 DUP6 PUSH1 0x20 DUP7 ADD PUSH2 0xDAF JUMP JUMPDEST PUSH2 0xA72 DUP2 PUSH2 0xEE6 JUMP JUMPDEST DUP5 ADD SWAP2 POP POP SWAP3 SWAP2 POP POP JUMP JUMPDEST PUSH1 0x0 PUSH2 0xA88 DUP3 PUSH2 0xCB9 JUMP JUMPDEST PUSH2 0xA92 DUP2 DUP6 PUSH2 0xD22 JUMP JUMPDEST SWAP4 POP PUSH2 0xAA2 DUP2 DUP6 PUSH1 0x20 DUP7 ADD PUSH2 0xDAF JUMP JUMPDEST PUSH2 0xAAB DUP2 PUSH2 0xEE6 JUMP JUMPDEST DUP5 ADD SWAP2 POP POP SWAP3 SWAP2 POP POP JUMP JUMPDEST PUSH1 0x0 PUSH1 0x60 DUP4 ADD PUSH1 0x0 DUP4 ADD MLOAD PUSH2 0xACE PUSH1 0x0 DUP7 ADD DUP3 PUSH2 0xB5D JUMP JUMPDEST POP PUSH1 0x20 DUP4 ADD MLOAD DUP5 DUP3 SUB PUSH1 0x20 DUP7 ADD MSTORE PUSH2 0xAE6 DUP3 DUP3 PUSH2 0xA44 JUMP JUMPDEST SWAP2 POP POP PUSH1 0x40 DUP4 ADD MLOAD DUP5 DUP3 SUB PUSH1 0x40 DUP7 ADD MSTORE PUSH2 0xB00 DUP3 DUP3 PUSH2 0x93C JUMP JUMPDEST SWAP2 POP POP DUP1 SWAP2 POP POP SWAP3 SWAP2 POP POP JUMP JUMPDEST PUSH1 0x0 PUSH1 0x60 DUP4 ADD PUSH1 0x0 DUP4 ADD MLOAD PUSH2 0xB25 PUSH1 0x0 DUP7 ADD DUP3 PUSH2 0xB5D JUMP JUMPDEST POP PUSH1 0x20 DUP4 ADD MLOAD DUP5 DUP3 SUB PUSH1 0x20 DUP7 ADD MSTORE PUSH2 0xB3D DUP3 DUP3 PUSH2 0xA44 JUMP JUMPDEST SWAP2 POP POP PUSH1 0x40 DUP4 ADD MLOAD PUSH2 0xB52 PUSH1 0x40 DUP7 ADD DUP3 PUSH2 0xA26 JUMP JUMPDEST POP DUP1 SWAP2 POP POP SWAP3 SWAP2 POP POP JUMP JUMPDEST PUSH2 0xB66 DUP2 PUSH2 0xD96 JUMP JUMPDEST DUP3 MSTORE POP POP JUMP JUMPDEST PUSH2 0xB75 DUP2 PUSH2 0xD96 JUMP JUMPDEST DUP3 MSTORE POP POP JUMP JUMPDEST PUSH1 0x0 PUSH1 0x20 DUP3 ADD SWAP1 POP DUP2 DUP2 SUB PUSH1 0x0 DUP4 ADD MSTORE PUSH2 0xB95 DUP2 DUP5 PUSH2 0x8C7 JUMP JUMPDEST SWAP1 POP SWAP3 SWAP2 POP POP JUMP JUMPDEST PUSH1 0x0 PUSH1 0x20 DUP3 ADD SWAP1 POP DUP2 DUP2 SUB PUSH1 0x0 DUP4 ADD MSTORE PUSH2 0xBB7 DUP2 DUP5 PUSH2 0x9B1 JUMP JUMPDEST SWAP1 POP SWAP3 SWAP2 POP POP JUMP JUMPDEST PUSH1 0x0 PUSH1 0x40 DUP3 ADD SWAP1 POP PUSH2 0xBD4 PUSH1 0x0 DUP4 ADD DUP6 PUSH2 0xB6C JUMP JUMPDEST DUP2 DUP2 SUB PUSH1 0x20 DUP4 ADD MSTORE PUSH2 0xBE6 DUP2 DUP5 PUSH2 0xA7D JUMP JUMPDEST SWAP1 POP SWAP4 SWAP3 POP POP POP JUMP JUMPDEST PUSH1 0x0 PUSH1 0x60 DUP3 ADD SWAP1 POP PUSH2 0xC04 PUSH1 0x0 DUP4 ADD DUP7 PUSH2 0xB6C JUMP JUMPDEST DUP2 DUP2 SUB PUSH1 0x20 DUP4 ADD MSTORE PUSH2 0xC16 DUP2 DUP6 PUSH2 0xA7D JUMP JUMPDEST SWAP1 POP PUSH2 0xC25 PUSH1 0x40 DUP4 ADD DUP5 PUSH2 0xA35 JUMP JUMPDEST SWAP5 SWAP4 POP POP POP POP JUMP JUMPDEST PUSH1 0x0 PUSH2 0xC37 PUSH2 0xC48 JUMP JUMPDEST SWAP1 POP PUSH2 0xC43 DUP3 DUP3 PUSH2 0xE14 JUMP JUMPDEST SWAP2 SWAP1 POP JUMP JUMPDEST PUSH1 0x0 PUSH1 0x40 MLOAD SWAP1 POP SWAP1 JUMP JUMPDEST PUSH1 0x0 PUSH8 0xFFFFFFFFFFFFFFFF DUP3 GT ISZERO PUSH2 0xC6D JUMPI PUSH2 0xC6C PUSH2 0xEA3 JUMP JUMPDEST JUMPDEST PUSH2 0xC76 DUP3 PUSH2 0xEE6 JUMP JUMPDEST SWAP1 POP PUSH1 0x20 DUP2 ADD SWAP1 POP SWAP2 SWAP1 POP JUMP JUMPDEST PUSH1 0x0 DUP2 SWAP1 POP PUSH1 0x20 DUP3 ADD SWAP1 POP SWAP2 SWAP1 POP JUMP JUMPDEST PUSH1 0x0 DUP2 SWAP1 POP PUSH1 0x20 DUP3 ADD SWAP1 POP SWAP2 SWAP1 POP JUMP JUMPDEST PUSH1 0x0 DUP2 MLOAD SWAP1 POP SWAP2 SWAP1 POP JUMP JUMPDEST PUSH1 0x0 DUP2 MLOAD SWAP1 POP SWAP2 SWAP1 POP JUMP JUMPDEST PUSH1 0x0 DUP2 MLOAD SWAP1 POP SWAP2 SWAP1 POP JUMP JUMPDEST PUSH1 0x0 PUSH1 0x20 DUP3 ADD SWAP1 POP SWAP2 SWAP1 POP JUMP JUMPDEST PUSH1 0x0 PUSH1 0x20 DUP3 ADD SWAP1 POP SWAP2 SWAP1 POP JUMP JUMPDEST PUSH1 0x0 DUP3 DUP3 MSTORE PUSH1 0x20 DUP3 ADD SWAP1 POP SWAP3 SWAP2 POP POP JUMP JUMPDEST PUSH1 0x0 DUP3 DUP3 MSTORE PUSH1 0x20 DUP3 ADD SWAP1 POP SWAP3 SWAP2 POP POP JUMP JUMPDEST PUSH1 0x0 DUP3 DUP3 MSTORE PUSH1 0x20 DUP3 ADD SWAP1 POP SWAP3 SWAP2 POP POP JUMP JUMPDEST PUSH1 0x0 DUP3 DUP3 MSTORE PUSH1 0x20 DUP3 ADD SWAP1 POP SWAP3 SWAP2 POP POP JUMP JUMPDEST PUSH1 0x0 DUP3 DUP3 MSTORE PUSH1 0x20 DUP3 ADD SWAP1 POP SWAP3 SWAP2 POP POP JUMP JUMPDEST PUSH1 0x0 PUSH2 0xD3E DUP3 PUSH2 0xD96 JUMP JUMPDEST SWAP2 POP PUSH2 0xD49 DUP4 PUSH2 0xD96 JUMP JUMPDEST SWAP3 POP DUP3 PUSH32 0xFFFFFFFFFFFFFFFFFFFFFFFFFFFFFFFFFFFFFFFFFFFFFFFFFFFFFFFFFFFFFFFF SUB DUP3 GT ISZERO PUSH2 0xD7E JUMPI PUSH2 0xD7D PUSH2 0xE45 JUMP JUMPDEST JUMPDEST DUP3 DUP3 ADD SWAP1 POP SWAP3 SWAP2 POP POP JUMP JUMPDEST PUSH1 0x0 DUP2 PUSH1 0x1 SIGNEXTEND SWAP1 POP SWAP2 SWAP1 POP JUMP JUMPDEST PUSH1 0x0 DUP2 SWAP1 POP SWAP2 SWAP1 POP JUMP JUMPDEST DUP3 DUP2 DUP4 CALLDATACOPY PUSH1 0x0 DUP4 DUP4 ADD MSTORE POP POP POP JUMP JUMPDEST PUSH1 0x0 JUMPDEST DUP4 DUP2 LT ISZERO PUSH2 0xDCD JUMPI DUP1 DUP3 ADD MLOAD DUP2 DUP5 ADD MSTORE PUSH1 0x20 DUP2 ADD SWAP1 POP PUSH2 0xDB2 JUMP JUMPDEST DUP4 DUP2 GT ISZERO PUSH2 0xDDC JUMPI PUSH1 0x0 DUP5 DUP5 ADD MSTORE JUMPDEST POP POP POP POP JUMP JUMPDEST PUSH1 0x0 PUSH1 0x2 DUP3 DIV SWAP1 POP PUSH1 0x1 DUP3 AND DUP1 PUSH2 0xDFA JUMPI PUSH1 0x7F DUP3 AND SWAP2 POP JUMPDEST PUSH1 0x20 DUP3 LT DUP2 EQ ISZERO PUSH2 0xE0E JUMPI PUSH2 0xE0D PUSH2 0xE74 JUMP JUMPDEST JUMPDEST POP SWAP2 SWAP1 POP JUMP JUMPDEST PUSH2 0xE1D DUP3 PUSH2 0xEE6 JUMP JUMPDEST DUP2 ADD DUP2 DUP2 LT PUSH8 0xFFFFFFFFFFFFFFFF DUP3 GT OR ISZERO PUSH2 0xE3C JUMPI PUSH2 0xE3B PUSH2 0xEA3 JUMP JUMPDEST JUMPDEST DUP1 PUSH1 0x40 MSTORE POP POP POP JUMP JUMPDEST PUSH32 0x4E487B7100000000000000000000000000000000000000000000000000000000 PUSH1 0x0 MSTORE PUSH1 0x11 PUSH1 0x4 MSTORE PUSH1 0x24 PUSH1 0x0 REVERT JUMPDEST PUSH32 0x4E487B7100000000000000000000000000000000000000000000000000000000 PUSH1 0x0 MSTORE PUSH1 0x22 PUSH1 0x4 MSTORE PUSH1 0x24 PUSH1 0x0 REVERT JUMPDEST PUSH32 0x4E487B7100000000000000000000000000000000000000000000000000000000 PUSH1 0x0 MSTORE PUSH1 0x41 PUSH1 0x4 MSTORE PUSH1 0x24 PUSH1 0x0 REVERT JUMPDEST PUSH1 0x0 DUP1 REVERT JUMPDEST PUSH1 0x0 DUP1 REVERT JUMPDEST PUSH1 0x0 DUP1 REVERT JUMPDEST PUSH1 0x0 DUP1 REVERT JUMPDEST PUSH1 0x0 PUSH1 0x1F NOT PUSH1 0x1F DUP4 ADD AND SWAP1 POP SWAP2 SWAP1 POP JUMP JUMPDEST PUSH2 0xF00 DUP2 PUSH2 0xD89 JUMP JUMPDEST DUP2 EQ PUSH2 0xF0B JUMPI PUSH1 0x0 DUP1 REVERT JUMPDEST POP JUMP JUMPDEST PUSH2 0xF17 DUP2 PUSH2 0xD96 JUMP JUMPDEST DUP2 EQ PUSH2 0xF22 JUMPI PUSH1 0x0 DUP1 REVERT JUMPDEST POP JUMP INVALID LOG2 PUSH5 0x6970667358 0x22 SLT KECCAK256 0xD5 JUMPI RETURN MLOAD 0x2A 0xC6 CALLER 0x4F 0xB1 0xE1 0x4C CALL SELFDESTRUCT ADD 0xB1 MOD 0xD1 ADD LOG4 SWAP11 GT 0xC6 MUL 0xD0 EQ 0xE1 0xFB LOG1 0xB0 PUSH13 0x191564736F6C63430008070033 "
				},
				"gasEstimates": {
					"creation": {
						"codeDepositCost": "786200",
						"executionCost": "818",
						"totalCost": "787018"
					},
					"external": {
						"client(uint256)": "infinite",
						"createClient(string)": "infinite",
						"createProduit(string,int16)": "infinite",
						"getAllClients()": "infinite",
						"getAllProducts()": "infinite",
						"produit(uint256)": "infinite"
					}
				},
				"methodIdentifiers": {
					"client(uint256)": "812e3219",
					"createClient(string)": "e88e9f0f",
					"createProduit(string,int16)": "51401eef",
					"getAllClients()": "e4d7a3d4",
					"getAllProducts()": "02ee3a52",
					"produit(uint256)": "87fbef89"
				}
			},
			"storageLayout": {
				"storage": [
					{
						"astId": 21,
						"contract": "contracts/ExoSupermarche.sol:supermarche",
						"label": "AllProduits",
						"offset": 0,
						"slot": "0",
						"type": "t_array(t_struct(productData)8_storage)dyn_storage"
					},
					{
						"astId": 25,
						"contract": "contracts/ExoSupermarche.sol:supermarche",
						"label": "AllClients",
						"offset": 0,
						"slot": "1",
						"type": "t_array(t_struct(clientData)17_storage)dyn_storage"
					},
					{
						"astId": 30,
						"contract": "contracts/ExoSupermarche.sol:supermarche",
						"label": "client",
						"offset": 0,
						"slot": "2",
						"type": "t_mapping(t_uint256,t_struct(clientData)17_storage)"
					},
					{
						"astId": 35,
						"contract": "contracts/ExoSupermarche.sol:supermarche",
						"label": "produit",
						"offset": 0,
						"slot": "3",
						"type": "t_mapping(t_uint256,t_struct(productData)8_storage)"
					}
				],
				"types": {
					"t_array(t_struct(clientData)17_storage)dyn_storage": {
						"base": "t_struct(clientData)17_storage",
						"encoding": "dynamic_array",
						"label": "struct supermarche.clientData[]",
						"numberOfBytes": "32"
					},
					"t_array(t_struct(productData)8_storage)dyn_storage": {
						"base": "t_struct(productData)8_storage",
						"encoding": "dynamic_array",
						"label": "struct supermarche.productData[]",
						"numberOfBytes": "32"
					},
					"t_int16": {
						"encoding": "inplace",
						"label": "int16",
						"numberOfBytes": "2"
					},
					"t_mapping(t_uint256,t_struct(clientData)17_storage)": {
						"encoding": "mapping",
						"key": "t_uint256",
						"label": "mapping(uint256 => struct supermarche.clientData)",
						"numberOfBytes": "32",
						"value": "t_struct(clientData)17_storage"
					},
					"t_mapping(t_uint256,t_struct(productData)8_storage)": {
						"encoding": "mapping",
						"key": "t_uint256",
						"label": "mapping(uint256 => struct supermarche.productData)",
						"numberOfBytes": "32",
						"value": "t_struct(productData)8_storage"
					},
					"t_string_storage": {
						"encoding": "bytes",
						"label": "string",
						"numberOfBytes": "32"
					},
					"t_struct(clientData)17_storage": {
						"encoding": "inplace",
						"label": "struct supermarche.clientData",
						"members": [
							{
								"astId": 10,
								"contract": "contracts/ExoSupermarche.sol:supermarche",
								"label": "_id",
								"offset": 0,
								"slot": "0",
								"type": "t_uint256"
							},
							{
								"astId": 12,
								"contract": "contracts/ExoSupermarche.sol:supermarche",
								"label": "_nom",
								"offset": 0,
								"slot": "1",
								"type": "t_string_storage"
							},
							{
								"astId": 16,
								"contract": "contracts/ExoSupermarche.sol:supermarche",
								"label": "panier",
								"offset": 0,
								"slot": "2",
								"type": "t_array(t_struct(productData)8_storage)dyn_storage"
							}
						],
						"numberOfBytes": "96"
					},
					"t_struct(productData)8_storage": {
						"encoding": "inplace",
						"label": "struct supermarche.productData",
						"members": [
							{
								"astId": 3,
								"contract": "contracts/ExoSupermarche.sol:supermarche",
								"label": "_id",
								"offset": 0,
								"slot": "0",
								"type": "t_uint256"
							},
							{
								"astId": 5,
								"contract": "contracts/ExoSupermarche.sol:supermarche",
								"label": "_libelle",
								"offset": 0,
								"slot": "1",
								"type": "t_string_storage"
							},
							{
								"astId": 7,
								"contract": "contracts/ExoSupermarche.sol:supermarche",
								"label": "_prix",
								"offset": 0,
								"slot": "2",
								"type": "t_int16"
							}
						],
						"numberOfBytes": "96"
					},
					"t_uint256": {
						"encoding": "inplace",
						"label": "uint256",
						"numberOfBytes": "32"
					}
				}
			},
			"userdoc": {
				"kind": "user",
				"methods": {},
				"version": 1
			}
		}
	}
}