{
	"contracts/ExoSupermarche.sol": {
		"supermarche": {
			"abi": [
				{
					"inputs": [
						{
							"internalType": "string",
							"name": "_nom",
							"type": "string"
						}
					],
					"name": "createClient",
					"outputs": [],
					"stateMutability": "nonpayable",
					"type": "function"
				},
				{
					"inputs": [
						{
							"internalType": "string",
							"name": "_libelle",
							"type": "string"
						},
						{
							"internalType": "int16",
							"name": "_prix",
							"type": "int16"
						}
					],
					"name": "createProduit",
					"outputs": [],
					"stateMutability": "nonpayable",
					"type": "function"
				},
				{
					"inputs": [],
					"name": "getAllClients",
					"outputs": [
						{
							"components": [
								{
									"internalType": "uint256",
									"name": "id",
									"type": "uint256"
								},
								{
									"internalType": "string",
									"name": "nom",
									"type": "string"
								},
								{
									"components": [
										{
											"internalType": "uint256",
											"name": "id",
											"type": "uint256"
										},
										{
											"internalType": "string",
											"name": "libelle",
											"type": "string"
										},
										{
											"internalType": "int16",
											"name": "prix",
											"type": "int16"
										}
									],
									"internalType": "struct supermarche.productData[]",
									"name": "panier",
									"type": "tuple[]"
								}
							],
							"internalType": "struct supermarche.clientData[]",
							"name": "",
							"type": "tuple[]"
						}
					],
					"stateMutability": "view",
					"type": "function"
				},
				{
					"inputs": [],
					"name": "getAllProducts",
					"outputs": [
						{
							"components": [
								{
									"internalType": "uint256",
									"name": "id",
									"type": "uint256"
								},
								{
									"internalType": "string",
									"name": "libelle",
									"type": "string"
								},
								{
									"internalType": "int16",
									"name": "prix",
									"type": "int16"
								}
							],
							"internalType": "struct supermarche.productData[]",
							"name": "",
							"type": "tuple[]"
						}
					],
					"stateMutability": "view",
					"type": "function"
				},
				{
					"inputs": [
						{
							"internalType": "string",
							"name": "_name",
							"type": "string"
						}
					],
					"name": "getProductByName",
					"outputs": [
						{
							"components": [
								{
									"internalType": "uint256",
									"name": "id",
									"type": "uint256"
								},
								{
									"internalType": "string",
									"name": "libelle",
									"type": "string"
								},
								{
									"internalType": "int16",
									"name": "prix",
									"type": "int16"
								}
							],
							"internalType": "struct supermarche.productData",
							"name": "",
							"type": "tuple"
						}
					],
					"stateMutability": "view",
					"type": "function"
				},
				{
					"inputs": [
						{
							"internalType": "uint256",
							"name": "_id",
							"type": "uint256"
						}
					],
					"name": "getProductInfo",
					"outputs": [
						{
							"internalType": "string",
							"name": "",
							"type": "string"
						},
						{
							"internalType": "int16",
							"name": "",
							"type": "int16"
						}
					],
					"stateMutability": "view",
					"type": "function"
				},
				{
					"inputs": [
						{
							"internalType": "uint256",
							"name": "_id",
							"type": "uint256"
						},
						{
							"internalType": "string",
							"name": "_libelle",
							"type": "string"
						},
						{
							"internalType": "int16",
							"name": "_prix",
							"type": "int16"
						}
					],
					"name": "setProduct",
					"outputs": [],
					"stateMutability": "nonpayable",
					"type": "function"
				}
			],
			"devdoc": {
				"kind": "dev",
				"methods": {},
				"version": 1
			},
			"evm": {
				"assembly": "    /* \"contracts/ExoSupermarche.sol\":59:1323  contract supermarche {\r... */\n  mstore(0x40, 0x80)\n  callvalue\n  dup1\n  iszero\n  tag_1\n  jumpi\n  0x00\n  dup1\n  revert\ntag_1:\n  pop\n  dataSize(sub_0)\n  dup1\n  dataOffset(sub_0)\n  0x00\n  codecopy\n  0x00\n  return\nstop\n\nsub_0: assembly {\n        /* \"contracts/ExoSupermarche.sol\":59:1323  contract supermarche {\r... */\n      mstore(0x40, 0x80)\n      callvalue\n      dup1\n      iszero\n      tag_1\n      jumpi\n      0x00\n      dup1\n      revert\n    tag_1:\n      pop\n      jumpi(tag_2, lt(calldatasize, 0x04))\n      shr(0xe0, calldataload(0x00))\n      dup1\n      0xd4290f83\n      gt\n      tag_10\n      jumpi\n      dup1\n      0xd4290f83\n      eq\n      tag_6\n      jumpi\n      dup1\n      0xe4d7a3d4\n      eq\n      tag_7\n      jumpi\n      dup1\n      0xe88e9f0f\n      eq\n      tag_8\n      jumpi\n      dup1\n      0xf1cfa6a5\n      eq\n      tag_9\n      jumpi\n      jump(tag_2)\n    tag_10:\n      dup1\n      0x02ee3a52\n      eq\n      tag_3\n      jumpi\n      dup1\n      0x51401eef\n      eq\n      tag_4\n      jumpi\n      dup1\n      0x79a85e6c\n      eq\n      tag_5\n      jumpi\n    tag_2:\n      0x00\n      dup1\n      revert\n        /* \"contracts/ExoSupermarche.sol\":1024:1129  function getAllProducts() public view returns(productData[] memory) {\r... */\n    tag_3:\n      tag_11\n      tag_12\n      jump\t// in\n    tag_11:\n      mload(0x40)\n      tag_13\n      swap2\n      swap1\n      tag_14\n      jump\t// in\n    tag_13:\n      mload(0x40)\n      dup1\n      swap2\n      sub\n      swap1\n      return\n        /* \"contracts/ExoSupermarche.sol\":407:621  function createProduit(string memory _libelle, int16 _prix) public {\r... */\n    tag_4:\n      tag_15\n      0x04\n      dup1\n      calldatasize\n      sub\n      dup2\n      add\n      swap1\n      tag_16\n      swap2\n      swap1\n      tag_17\n      jump\t// in\n    tag_16:\n      tag_18\n      jump\t// in\n    tag_15:\n      stop\n        /* \"contracts/ExoSupermarche.sol\":721:903  function getProductInfo(uint _id) public view returns(string memory, int16) {\r... */\n    tag_5:\n      tag_19\n      0x04\n      dup1\n      calldatasize\n      sub\n      dup2\n      add\n      swap1\n      tag_20\n      swap2\n      swap1\n      tag_21\n      jump\t// in\n    tag_20:\n      tag_22\n      jump\t// in\n    tag_19:\n      mload(0x40)\n      tag_23\n      swap3\n      swap2\n      swap1\n      tag_24\n      jump\t// in\n    tag_23:\n      mload(0x40)\n      dup1\n      swap2\n      sub\n      swap1\n      return\n        /* \"contracts/ExoSupermarche.sol\":911:1016  function getProductByName(string memory _name) public view returns(productData memory) {\r... */\n    tag_6:\n      tag_25\n      0x04\n      dup1\n      calldatasize\n      sub\n      dup2\n      add\n      swap1\n      tag_26\n      swap2\n      swap1\n      tag_27\n      jump\t// in\n    tag_26:\n      tag_28\n      jump\t// in\n    tag_25:\n      mload(0x40)\n      tag_29\n      swap2\n      swap1\n      tag_30\n      jump\t// in\n    tag_29:\n      mload(0x40)\n      dup1\n      swap2\n      sub\n      swap1\n      return\n        /* \"contracts/ExoSupermarche.sol\":1214:1316  function getAllClients() public view returns(clientData[] memory) {\r... */\n    tag_7:\n      tag_31\n      tag_32\n      jump\t// in\n    tag_31:\n      mload(0x40)\n      tag_33\n      swap2\n      swap1\n      tag_34\n      jump\t// in\n    tag_33:\n      mload(0x40)\n      dup1\n      swap2\n      sub\n      swap1\n      return\n        /* \"contracts/ExoSupermarche.sol\":1137:1206  function createClient(string memory _nom) public {\r... */\n    tag_8:\n      tag_35\n      0x04\n      dup1\n      calldatasize\n      sub\n      dup2\n      add\n      swap1\n      tag_36\n      swap2\n      swap1\n      tag_27\n      jump\t// in\n    tag_36:\n      tag_37\n      jump\t// in\n    tag_35:\n      stop\n        /* \"contracts/ExoSupermarche.sol\":629:713  function setProduct(uint _id, string memory _libelle, int16 _prix) public {\r... */\n    tag_9:\n      tag_38\n      0x04\n      dup1\n      calldatasize\n      sub\n      dup2\n      add\n      swap1\n      tag_39\n      swap2\n      swap1\n      tag_40\n      jump\t// in\n    tag_39:\n      tag_41\n      jump\t// in\n    tag_38:\n      stop\n        /* \"contracts/ExoSupermarche.sol\":1024:1129  function getAllProducts() public view returns(productData[] memory) {\r... */\n    tag_12:\n        /* \"contracts/ExoSupermarche.sol\":1070:1090  productData[] memory */\n      0x60\n        /* \"contracts/ExoSupermarche.sol\":1110:1121  AllProduits */\n      0x00\n        /* \"contracts/ExoSupermarche.sol\":1103:1121  return AllProduits */\n      dup1\n      sload\n      dup1\n      0x20\n      mul\n      0x20\n      add\n      mload(0x40)\n      swap1\n      dup2\n      add\n      0x40\n      mstore\n      dup1\n      swap3\n      swap2\n      swap1\n      dup2\n      dup2\n      mstore\n      0x20\n      add\n      0x00\n      swap1\n    tag_43:\n      dup3\n      dup3\n      lt\n      iszero\n      tag_44\n      jumpi\n      dup4\n      dup3\n      swap1\n      0x00\n      mstore\n      keccak256(0x00, 0x20)\n      swap1\n      0x03\n      mul\n      add\n      mload(0x40)\n      dup1\n      0x60\n      add\n      0x40\n      mstore\n      swap1\n      dup2\n      0x00\n      dup3\n      add\n      sload\n      dup2\n      mstore\n      0x20\n      add\n      0x01\n      dup3\n      add\n      dup1\n      sload\n      tag_46\n      swap1\n      tag_47\n      jump\t// in\n    tag_46:\n      dup1\n      0x1f\n      add\n      0x20\n      dup1\n      swap2\n      div\n      mul\n      0x20\n      add\n      mload(0x40)\n      swap1\n      dup2\n      add\n      0x40\n      mstore\n      dup1\n      swap3\n      swap2\n      swap1\n      dup2\n      dup2\n      mstore\n      0x20\n      add\n      dup3\n      dup1\n      sload\n      tag_48\n      swap1\n      tag_47\n      jump\t// in\n    tag_48:\n      dup1\n      iszero\n      tag_49\n      jumpi\n      dup1\n      0x1f\n      lt\n      tag_50\n      jumpi\n      0x0100\n      dup1\n      dup4\n      sload\n      div\n      mul\n      dup4\n      mstore\n      swap2\n      0x20\n      add\n      swap2\n      jump(tag_49)\n    tag_50:\n      dup3\n      add\n      swap2\n      swap1\n      0x00\n      mstore\n      keccak256(0x00, 0x20)\n      swap1\n    tag_51:\n      dup2\n      sload\n      dup2\n      mstore\n      swap1\n      0x01\n      add\n      swap1\n      0x20\n      add\n      dup1\n      dup4\n      gt\n      tag_51\n      jumpi\n      dup3\n      swap1\n      sub\n      0x1f\n      and\n      dup3\n      add\n      swap2\n    tag_49:\n      pop\n      pop\n      pop\n      pop\n      pop\n      dup2\n      mstore\n      0x20\n      add\n      0x02\n      dup3\n      add\n      0x00\n      swap1\n      sload\n      swap1\n      0x0100\n      exp\n      swap1\n      div\n      0x01\n      signextend\n      0x01\n      signextend\n      0x01\n      signextend\n      dup2\n      mstore\n      pop\n      pop\n      dup2\n      mstore\n      0x20\n      add\n      swap1\n      0x01\n      add\n      swap1\n      jump(tag_43)\n    tag_44:\n      pop\n      pop\n      pop\n      pop\n      swap1\n      pop\n        /* \"contracts/ExoSupermarche.sol\":1024:1129  function getAllProducts() public view returns(productData[] memory) {\r... */\n      swap1\n      jump\t// out\n        /* \"contracts/ExoSupermarche.sol\":407:621  function createProduit(string memory _libelle, int16 _prix) public {\r... */\n    tag_18:\n        /* \"contracts/ExoSupermarche.sol\":485:492  uint id */\n      0x00\n        /* \"contracts/ExoSupermarche.sol\":516:517  1 */\n      0x01\n        /* \"contracts/ExoSupermarche.sol\":495:506  AllProduits */\n      0x00\n        /* \"contracts/ExoSupermarche.sol\":495:513  AllProduits.length */\n      dup1\n      sload\n      swap1\n      pop\n        /* \"contracts/ExoSupermarche.sol\":495:517  AllProduits.length + 1 */\n      tag_53\n      swap2\n      swap1\n      tag_54\n      jump\t// in\n    tag_53:\n        /* \"contracts/ExoSupermarche.sol\":485:517  uint id = AllProduits.length + 1 */\n      swap1\n      pop\n        /* \"contracts/ExoSupermarche.sol\":528:548  productData memory p */\n      0x00\n        /* \"contracts/ExoSupermarche.sol\":551:583  productData(id, _libelle, _prix) */\n      mload(0x40)\n      dup1\n      0x60\n      add\n      0x40\n      mstore\n      dup1\n        /* \"contracts/ExoSupermarche.sol\":563:565  id */\n      dup4\n        /* \"contracts/ExoSupermarche.sol\":551:583  productData(id, _libelle, _prix) */\n      dup2\n      mstore\n      0x20\n      add\n        /* \"contracts/ExoSupermarche.sol\":567:575  _libelle */\n      dup6\n        /* \"contracts/ExoSupermarche.sol\":551:583  productData(id, _libelle, _prix) */\n      dup2\n      mstore\n      0x20\n      add\n        /* \"contracts/ExoSupermarche.sol\":577:582  _prix */\n      dup5\n        /* \"contracts/ExoSupermarche.sol\":551:583  productData(id, _libelle, _prix) */\n      0x01\n      signextend\n      dup2\n      mstore\n      pop\n        /* \"contracts/ExoSupermarche.sol\":528:583  productData memory p = productData(id, _libelle, _prix) */\n      swap1\n      pop\n        /* \"contracts/ExoSupermarche.sol\":594:605  AllProduits */\n      0x00\n        /* \"contracts/ExoSupermarche.sol\":611:612  p */\n      dup2\n        /* \"contracts/ExoSupermarche.sol\":594:613  AllProduits.push(p) */\n      swap1\n      dup1\n      0x01\n      dup2\n      sload\n      add\n      dup1\n      dup3\n      sstore\n      dup1\n      swap2\n      pop\n      pop\n      0x01\n      swap1\n      sub\n      swap1\n      0x00\n      mstore\n      keccak256(0x00, 0x20)\n      swap1\n      0x03\n      mul\n      add\n      0x00\n      swap1\n      swap2\n      swap1\n      swap2\n      swap1\n      swap2\n      pop\n      0x00\n      dup3\n      add\n      mload\n      dup2\n      0x00\n      add\n      sstore\n      0x20\n      dup3\n      add\n      mload\n      dup2\n      0x01\n      add\n      swap1\n      dup1\n      mload\n      swap1\n      0x20\n      add\n      swap1\n      tag_56\n      swap3\n      swap2\n      swap1\n      tag_57\n      jump\t// in\n    tag_56:\n      pop\n      0x40\n      dup3\n      add\n      mload\n      dup2\n      0x02\n      add\n      exp(0x0100, 0x00)\n      dup2\n      sload\n      dup2\n      0xffff\n      mul\n      not\n      and\n      swap1\n      dup4\n      0x01\n      signextend\n      0xffff\n      and\n      mul\n      or\n      swap1\n      sstore\n      pop\n      pop\n      pop\n        /* \"contracts/ExoSupermarche.sol\":474:621  {\r... */\n      pop\n      pop\n        /* \"contracts/ExoSupermarche.sol\":407:621  function createProduit(string memory _libelle, int16 _prix) public {\r... */\n      pop\n      pop\n      jump\t// out\n        /* \"contracts/ExoSupermarche.sol\":721:903  function getProductInfo(uint _id) public view returns(string memory, int16) {\r... */\n    tag_22:\n        /* \"contracts/ExoSupermarche.sol\":775:788  string memory */\n      0x60\n        /* \"contracts/ExoSupermarche.sol\":790:795  int16 */\n      0x00\n        /* \"contracts/ExoSupermarche.sol\":830:838  products */\n      0x02\n        /* \"contracts/ExoSupermarche.sol\":830:843  products[_id] */\n      0x00\n        /* \"contracts/ExoSupermarche.sol\":839:842  _id */\n      dup5\n        /* \"contracts/ExoSupermarche.sol\":830:843  products[_id] */\n      dup2\n      mstore\n      0x20\n      add\n      swap1\n      dup2\n      mstore\n      0x20\n      add\n      0x00\n      keccak256\n        /* \"contracts/ExoSupermarche.sol\":830:851  products[_id].libelle */\n      0x01\n      add\n        /* \"contracts/ExoSupermarche.sol\":866:874  products */\n      0x02\n        /* \"contracts/ExoSupermarche.sol\":866:879  products[_id] */\n      0x00\n        /* \"contracts/ExoSupermarche.sol\":875:878  _id */\n      dup6\n        /* \"contracts/ExoSupermarche.sol\":866:879  products[_id] */\n      dup2\n      mstore\n      0x20\n      add\n      swap1\n      dup2\n      mstore\n      0x20\n      add\n      0x00\n      keccak256\n        /* \"contracts/ExoSupermarche.sol\":866:884  products[_id].prix */\n      0x02\n      add\n      0x00\n      swap1\n      sload\n      swap1\n      0x0100\n      exp\n      swap1\n      div\n      0x01\n      signextend\n        /* \"contracts/ExoSupermarche.sol\":808:895  return (\r... */\n      dup2\n      dup1\n      sload\n      tag_59\n      swap1\n      tag_47\n      jump\t// in\n    tag_59:\n      dup1\n      0x1f\n      add\n      0x20\n      dup1\n      swap2\n      div\n      mul\n      0x20\n      add\n      mload(0x40)\n      swap1\n      dup2\n      add\n      0x40\n      mstore\n      dup1\n      swap3\n      swap2\n      swap1\n      dup2\n      dup2\n      mstore\n      0x20\n      add\n      dup3\n      dup1\n      sload\n      tag_60\n      swap1\n      tag_47\n      jump\t// in\n    tag_60:\n      dup1\n      iszero\n      tag_61\n      jumpi\n      dup1\n      0x1f\n      lt\n      tag_62\n      jumpi\n      0x0100\n      dup1\n      dup4\n      sload\n      div\n      mul\n      dup4\n      mstore\n      swap2\n      0x20\n      add\n      swap2\n      jump(tag_61)\n    tag_62:\n      dup3\n      add\n      swap2\n      swap1\n      0x00\n      mstore\n      keccak256(0x00, 0x20)\n      swap1\n    tag_63:\n      dup2\n      sload\n      dup2\n      mstore\n      swap1\n      0x01\n      add\n      swap1\n      0x20\n      add\n      dup1\n      dup4\n      gt\n      tag_63\n      jumpi\n      dup3\n      swap1\n      sub\n      0x1f\n      and\n      dup3\n      add\n      swap2\n    tag_61:\n      pop\n      pop\n      pop\n      pop\n      pop\n      swap2\n      pop\n      swap2\n      pop\n      swap2\n      pop\n        /* \"contracts/ExoSupermarche.sol\":721:903  function getProductInfo(uint _id) public view returns(string memory, int16) {\r... */\n      swap2\n      pop\n      swap2\n      jump\t// out\n        /* \"contracts/ExoSupermarche.sol\":911:1016  function getProductByName(string memory _name) public view returns(productData memory) {\r... */\n    tag_28:\n        /* \"contracts/ExoSupermarche.sol\":978:996  productData memory */\n      tag_64\n      tag_65\n      jump\t// in\n    tag_64:\n        /* \"contracts/ExoSupermarche.sol\":911:1016  function getProductByName(string memory _name) public view returns(productData memory) {\r... */\n      swap2\n      swap1\n      pop\n      jump\t// out\n        /* \"contracts/ExoSupermarche.sol\":1214:1316  function getAllClients() public view returns(clientData[] memory) {\r... */\n    tag_32:\n        /* \"contracts/ExoSupermarche.sol\":1259:1278  clientData[] memory */\n      0x60\n        /* \"contracts/ExoSupermarche.sol\":1298:1308  AllClients */\n      0x01\n        /* \"contracts/ExoSupermarche.sol\":1291:1308  return AllClients */\n      dup1\n      sload\n      dup1\n      0x20\n      mul\n      0x20\n      add\n      mload(0x40)\n      swap1\n      dup2\n      add\n      0x40\n      mstore\n      dup1\n      swap3\n      swap2\n      swap1\n      dup2\n      dup2\n      mstore\n      0x20\n      add\n      0x00\n      swap1\n    tag_68:\n      dup3\n      dup3\n      lt\n      iszero\n      tag_69\n      jumpi\n      dup4\n      dup3\n      swap1\n      0x00\n      mstore\n      keccak256(0x00, 0x20)\n      swap1\n      0x03\n      mul\n      add\n      mload(0x40)\n      dup1\n      0x60\n      add\n      0x40\n      mstore\n      swap1\n      dup2\n      0x00\n      dup3\n      add\n      sload\n      dup2\n      mstore\n      0x20\n      add\n      0x01\n      dup3\n      add\n      dup1\n      sload\n      tag_71\n      swap1\n      tag_47\n      jump\t// in\n    tag_71:\n      dup1\n      0x1f\n      add\n      0x20\n      dup1\n      swap2\n      div\n      mul\n      0x20\n      add\n      mload(0x40)\n      swap1\n      dup2\n      add\n      0x40\n      mstore\n      dup1\n      swap3\n      swap2\n      swap1\n      dup2\n      dup2\n      mstore\n      0x20\n      add\n      dup3\n      dup1\n      sload\n      tag_72\n      swap1\n      tag_47\n      jump\t// in\n    tag_72:\n      dup1\n      iszero\n      tag_73\n      jumpi\n      dup1\n      0x1f\n      lt\n      tag_74\n      jumpi\n      0x0100\n      dup1\n      dup4\n      sload\n      div\n      mul\n      dup4\n      mstore\n      swap2\n      0x20\n      add\n      swap2\n      jump(tag_73)\n    tag_74:\n      dup3\n      add\n      swap2\n      swap1\n      0x00\n      mstore\n      keccak256(0x00, 0x20)\n      swap1\n    tag_75:\n      dup2\n      sload\n      dup2\n      mstore\n      swap1\n      0x01\n      add\n      swap1\n      0x20\n      add\n      dup1\n      dup4\n      gt\n      tag_75\n      jumpi\n      dup3\n      swap1\n      sub\n      0x1f\n      and\n      dup3\n      add\n      swap2\n    tag_73:\n      pop\n      pop\n      pop\n      pop\n      pop\n      dup2\n      mstore\n      0x20\n      add\n      0x02\n      dup3\n      add\n      dup1\n      sload\n      dup1\n      0x20\n      mul\n      0x20\n      add\n      mload(0x40)\n      swap1\n      dup2\n      add\n      0x40\n      mstore\n      dup1\n      swap3\n      swap2\n      swap1\n      dup2\n      dup2\n      mstore\n      0x20\n      add\n      0x00\n      swap1\n    tag_76:\n      dup3\n      dup3\n      lt\n      iszero\n      tag_77\n      jumpi\n      dup4\n      dup3\n      swap1\n      0x00\n      mstore\n      keccak256(0x00, 0x20)\n      swap1\n      0x03\n      mul\n      add\n      mload(0x40)\n      dup1\n      0x60\n      add\n      0x40\n      mstore\n      swap1\n      dup2\n      0x00\n      dup3\n      add\n      sload\n      dup2\n      mstore\n      0x20\n      add\n      0x01\n      dup3\n      add\n      dup1\n      sload\n      tag_79\n      swap1\n      tag_47\n      jump\t// in\n    tag_79:\n      dup1\n      0x1f\n      add\n      0x20\n      dup1\n      swap2\n      div\n      mul\n      0x20\n      add\n      mload(0x40)\n      swap1\n      dup2\n      add\n      0x40\n      mstore\n      dup1\n      swap3\n      swap2\n      swap1\n      dup2\n      dup2\n      mstore\n      0x20\n      add\n      dup3\n      dup1\n      sload\n      tag_80\n      swap1\n      tag_47\n      jump\t// in\n    tag_80:\n      dup1\n      iszero\n      tag_81\n      jumpi\n      dup1\n      0x1f\n      lt\n      tag_82\n      jumpi\n      0x0100\n      dup1\n      dup4\n      sload\n      div\n      mul\n      dup4\n      mstore\n      swap2\n      0x20\n      add\n      swap2\n      jump(tag_81)\n    tag_82:\n      dup3\n      add\n      swap2\n      swap1\n      0x00\n      mstore\n      keccak256(0x00, 0x20)\n      swap1\n    tag_83:\n      dup2\n      sload\n      dup2\n      mstore\n      swap1\n      0x01\n      add\n      swap1\n      0x20\n      add\n      dup1\n      dup4\n      gt\n      tag_83\n      jumpi\n      dup3\n      swap1\n      sub\n      0x1f\n      and\n      dup3\n      add\n      swap2\n    tag_81:\n      pop\n      pop\n      pop\n      pop\n      pop\n      dup2\n      mstore\n      0x20\n      add\n      0x02\n      dup3\n      add\n      0x00\n      swap1\n      sload\n      swap1\n      0x0100\n      exp\n      swap1\n      div\n      0x01\n      signextend\n      0x01\n      signextend\n      0x01\n      signextend\n      dup2\n      mstore\n      pop\n      pop\n      dup2\n      mstore\n      0x20\n      add\n      swap1\n      0x01\n      add\n      swap1\n      jump(tag_76)\n    tag_77:\n      pop\n      pop\n      pop\n      pop\n      dup2\n      mstore\n      pop\n      pop\n      dup2\n      mstore\n      0x20\n      add\n      swap1\n      0x01\n      add\n      swap1\n      jump(tag_68)\n    tag_69:\n      pop\n      pop\n      pop\n      pop\n      swap1\n      pop\n        /* \"contracts/ExoSupermarche.sol\":1214:1316  function getAllClients() public view returns(clientData[] memory) {\r... */\n      swap1\n      jump\t// out\n        /* \"contracts/ExoSupermarche.sol\":1137:1206  function createClient(string memory _nom) public {\r... */\n    tag_37:\n      pop\n      jump\t// out\n        /* \"contracts/ExoSupermarche.sol\":629:713  function setProduct(uint _id, string memory _libelle, int16 _prix) public {\r... */\n    tag_41:\n      pop\n      pop\n      pop\n      jump\t// out\n    tag_57:\n      dup3\n      dup1\n      sload\n      tag_86\n      swap1\n      tag_47\n      jump\t// in\n    tag_86:\n      swap1\n      0x00\n      mstore\n      keccak256(0x00, 0x20)\n      swap1\n      0x1f\n      add\n      0x20\n      swap1\n      div\n      dup2\n      add\n      swap3\n      dup3\n      tag_88\n      jumpi\n      0x00\n      dup6\n      sstore\n      jump(tag_87)\n    tag_88:\n      dup3\n      0x1f\n      lt\n      tag_89\n      jumpi\n      dup1\n      mload\n      not(0xff)\n      and\n      dup4\n      dup1\n      add\n      or\n      dup6\n      sstore\n      jump(tag_87)\n    tag_89:\n      dup3\n      dup1\n      add\n      0x01\n      add\n      dup6\n      sstore\n      dup3\n      iszero\n      tag_87\n      jumpi\n      swap2\n      dup3\n      add\n    tag_90:\n      dup3\n      dup2\n      gt\n      iszero\n      tag_91\n      jumpi\n      dup3\n      mload\n      dup3\n      sstore\n      swap2\n      0x20\n      add\n      swap2\n      swap1\n      0x01\n      add\n      swap1\n      jump(tag_90)\n    tag_91:\n    tag_87:\n      pop\n      swap1\n      pop\n      tag_92\n      swap2\n      swap1\n      tag_93\n      jump\t// in\n    tag_92:\n      pop\n      swap1\n      jump\t// out\n    tag_65:\n      mload(0x40)\n      dup1\n      0x60\n      add\n      0x40\n      mstore\n      dup1\n      0x00\n      dup2\n      mstore\n      0x20\n      add\n      0x60\n      dup2\n      mstore\n      0x20\n      add\n      signextend(0x01, 0x00)\n      dup2\n      mstore\n      pop\n      swap1\n      jump\t// out\n    tag_93:\n    tag_94:\n      dup1\n      dup3\n      gt\n      iszero\n      tag_95\n      jumpi\n      0x00\n      dup2\n      0x00\n      swap1\n      sstore\n      pop\n      0x01\n      add\n      jump(tag_94)\n    tag_95:\n      pop\n      swap1\n      jump\t// out\n        /* \"#utility.yul\":7:419   */\n    tag_97:\n        /* \"#utility.yul\":85:90   */\n      0x00\n        /* \"#utility.yul\":110:176   */\n      tag_99\n        /* \"#utility.yul\":126:175   */\n      tag_100\n        /* \"#utility.yul\":168:174   */\n      dup5\n        /* \"#utility.yul\":126:175   */\n      tag_101\n      jump\t// in\n    tag_100:\n        /* \"#utility.yul\":110:176   */\n      tag_102\n      jump\t// in\n    tag_99:\n        /* \"#utility.yul\":101:176   */\n      swap1\n      pop\n        /* \"#utility.yul\":199:205   */\n      dup3\n        /* \"#utility.yul\":192:197   */\n      dup2\n        /* \"#utility.yul\":185:206   */\n      mstore\n        /* \"#utility.yul\":237:241   */\n      0x20\n        /* \"#utility.yul\":230:235   */\n      dup2\n        /* \"#utility.yul\":226:242   */\n      add\n        /* \"#utility.yul\":275:278   */\n      dup5\n        /* \"#utility.yul\":266:272   */\n      dup5\n        /* \"#utility.yul\":261:264   */\n      dup5\n        /* \"#utility.yul\":257:273   */\n      add\n        /* \"#utility.yul\":254:279   */\n      gt\n        /* \"#utility.yul\":251:363   */\n      iszero\n      tag_103\n      jumpi\n        /* \"#utility.yul\":282:361   */\n      tag_104\n      tag_105\n      jump\t// in\n    tag_104:\n        /* \"#utility.yul\":251:363   */\n    tag_103:\n        /* \"#utility.yul\":372:413   */\n      tag_106\n        /* \"#utility.yul\":406:412   */\n      dup5\n        /* \"#utility.yul\":401:404   */\n      dup3\n        /* \"#utility.yul\":396:399   */\n      dup6\n        /* \"#utility.yul\":372:413   */\n      tag_107\n      jump\t// in\n    tag_106:\n        /* \"#utility.yul\":91:419   */\n      pop\n        /* \"#utility.yul\":7:419   */\n      swap4\n      swap3\n      pop\n      pop\n      pop\n      jump\t// out\n        /* \"#utility.yul\":425:560   */\n    tag_108:\n        /* \"#utility.yul\":469:474   */\n      0x00\n        /* \"#utility.yul\":507:513   */\n      dup2\n        /* \"#utility.yul\":494:514   */\n      calldataload\n        /* \"#utility.yul\":485:514   */\n      swap1\n      pop\n        /* \"#utility.yul\":523:554   */\n      tag_110\n        /* \"#utility.yul\":548:553   */\n      dup2\n        /* \"#utility.yul\":523:554   */\n      tag_111\n      jump\t// in\n    tag_110:\n        /* \"#utility.yul\":425:560   */\n      swap3\n      swap2\n      pop\n      pop\n      jump\t// out\n        /* \"#utility.yul\":580:920   */\n    tag_112:\n        /* \"#utility.yul\":636:641   */\n      0x00\n        /* \"#utility.yul\":685:688   */\n      dup3\n        /* \"#utility.yul\":678:682   */\n      0x1f\n        /* \"#utility.yul\":670:676   */\n      dup4\n        /* \"#utility.yul\":666:683   */\n      add\n        /* \"#utility.yul\":662:689   */\n      slt\n        /* \"#utility.yul\":652:774   */\n      tag_114\n      jumpi\n        /* \"#utility.yul\":693:772   */\n      tag_115\n      tag_116\n      jump\t// in\n    tag_115:\n        /* \"#utility.yul\":652:774   */\n    tag_114:\n        /* \"#utility.yul\":810:816   */\n      dup2\n        /* \"#utility.yul\":797:817   */\n      calldataload\n        /* \"#utility.yul\":835:914   */\n      tag_117\n        /* \"#utility.yul\":910:913   */\n      dup5\n        /* \"#utility.yul\":902:908   */\n      dup3\n        /* \"#utility.yul\":895:899   */\n      0x20\n        /* \"#utility.yul\":887:893   */\n      dup7\n        /* \"#utility.yul\":883:900   */\n      add\n        /* \"#utility.yul\":835:914   */\n      tag_97\n      jump\t// in\n    tag_117:\n        /* \"#utility.yul\":826:914   */\n      swap2\n      pop\n        /* \"#utility.yul\":642:920   */\n      pop\n        /* \"#utility.yul\":580:920   */\n      swap3\n      swap2\n      pop\n      pop\n      jump\t// out\n        /* \"#utility.yul\":926:1065   */\n    tag_118:\n        /* \"#utility.yul\":972:977   */\n      0x00\n        /* \"#utility.yul\":1010:1016   */\n      dup2\n        /* \"#utility.yul\":997:1017   */\n      calldataload\n        /* \"#utility.yul\":988:1017   */\n      swap1\n      pop\n        /* \"#utility.yul\":1026:1059   */\n      tag_120\n        /* \"#utility.yul\":1053:1058   */\n      dup2\n        /* \"#utility.yul\":1026:1059   */\n      tag_121\n      jump\t// in\n    tag_120:\n        /* \"#utility.yul\":926:1065   */\n      swap3\n      swap2\n      pop\n      pop\n      jump\t// out\n        /* \"#utility.yul\":1071:1580   */\n    tag_27:\n        /* \"#utility.yul\":1140:1146   */\n      0x00\n        /* \"#utility.yul\":1189:1191   */\n      0x20\n        /* \"#utility.yul\":1177:1186   */\n      dup3\n        /* \"#utility.yul\":1168:1175   */\n      dup5\n        /* \"#utility.yul\":1164:1187   */\n      sub\n        /* \"#utility.yul\":1160:1192   */\n      slt\n        /* \"#utility.yul\":1157:1276   */\n      iszero\n      tag_123\n      jumpi\n        /* \"#utility.yul\":1195:1274   */\n      tag_124\n      tag_125\n      jump\t// in\n    tag_124:\n        /* \"#utility.yul\":1157:1276   */\n    tag_123:\n        /* \"#utility.yul\":1343:1344   */\n      0x00\n        /* \"#utility.yul\":1332:1341   */\n      dup3\n        /* \"#utility.yul\":1328:1345   */\n      add\n        /* \"#utility.yul\":1315:1346   */\n      calldataload\n        /* \"#utility.yul\":1373:1391   */\n      0xffffffffffffffff\n        /* \"#utility.yul\":1365:1371   */\n      dup2\n        /* \"#utility.yul\":1362:1392   */\n      gt\n        /* \"#utility.yul\":1359:1476   */\n      iszero\n      tag_126\n      jumpi\n        /* \"#utility.yul\":1395:1474   */\n      tag_127\n      tag_128\n      jump\t// in\n    tag_127:\n        /* \"#utility.yul\":1359:1476   */\n    tag_126:\n        /* \"#utility.yul\":1500:1563   */\n      tag_129\n        /* \"#utility.yul\":1555:1562   */\n      dup5\n        /* \"#utility.yul\":1546:1552   */\n      dup3\n        /* \"#utility.yul\":1535:1544   */\n      dup6\n        /* \"#utility.yul\":1531:1553   */\n      add\n        /* \"#utility.yul\":1500:1563   */\n      tag_112\n      jump\t// in\n    tag_129:\n        /* \"#utility.yul\":1490:1563   */\n      swap2\n      pop\n        /* \"#utility.yul\":1286:1573   */\n      pop\n        /* \"#utility.yul\":1071:1580   */\n      swap3\n      swap2\n      pop\n      pop\n      jump\t// out\n        /* \"#utility.yul\":1586:2236   */\n    tag_17:\n        /* \"#utility.yul\":1662:1668   */\n      0x00\n        /* \"#utility.yul\":1670:1676   */\n      dup1\n        /* \"#utility.yul\":1719:1721   */\n      0x40\n        /* \"#utility.yul\":1707:1716   */\n      dup4\n        /* \"#utility.yul\":1698:1705   */\n      dup6\n        /* \"#utility.yul\":1694:1717   */\n      sub\n        /* \"#utility.yul\":1690:1722   */\n      slt\n        /* \"#utility.yul\":1687:1806   */\n      iszero\n      tag_131\n      jumpi\n        /* \"#utility.yul\":1725:1804   */\n      tag_132\n      tag_125\n      jump\t// in\n    tag_132:\n        /* \"#utility.yul\":1687:1806   */\n    tag_131:\n        /* \"#utility.yul\":1873:1874   */\n      0x00\n        /* \"#utility.yul\":1862:1871   */\n      dup4\n        /* \"#utility.yul\":1858:1875   */\n      add\n        /* \"#utility.yul\":1845:1876   */\n      calldataload\n        /* \"#utility.yul\":1903:1921   */\n      0xffffffffffffffff\n        /* \"#utility.yul\":1895:1901   */\n      dup2\n        /* \"#utility.yul\":1892:1922   */\n      gt\n        /* \"#utility.yul\":1889:2006   */\n      iszero\n      tag_133\n      jumpi\n        /* \"#utility.yul\":1925:2004   */\n      tag_134\n      tag_128\n      jump\t// in\n    tag_134:\n        /* \"#utility.yul\":1889:2006   */\n    tag_133:\n        /* \"#utility.yul\":2030:2093   */\n      tag_135\n        /* \"#utility.yul\":2085:2092   */\n      dup6\n        /* \"#utility.yul\":2076:2082   */\n      dup3\n        /* \"#utility.yul\":2065:2074   */\n      dup7\n        /* \"#utility.yul\":2061:2083   */\n      add\n        /* \"#utility.yul\":2030:2093   */\n      tag_112\n      jump\t// in\n    tag_135:\n        /* \"#utility.yul\":2020:2093   */\n      swap3\n      pop\n        /* \"#utility.yul\":1816:2103   */\n      pop\n        /* \"#utility.yul\":2142:2144   */\n      0x20\n        /* \"#utility.yul\":2168:2219   */\n      tag_136\n        /* \"#utility.yul\":2211:2218   */\n      dup6\n        /* \"#utility.yul\":2202:2208   */\n      dup3\n        /* \"#utility.yul\":2191:2200   */\n      dup7\n        /* \"#utility.yul\":2187:2209   */\n      add\n        /* \"#utility.yul\":2168:2219   */\n      tag_108\n      jump\t// in\n    tag_136:\n        /* \"#utility.yul\":2158:2219   */\n      swap2\n      pop\n        /* \"#utility.yul\":2113:2229   */\n      pop\n        /* \"#utility.yul\":1586:2236   */\n      swap3\n      pop\n      swap3\n      swap1\n      pop\n      jump\t// out\n        /* \"#utility.yul\":2242:2571   */\n    tag_21:\n        /* \"#utility.yul\":2301:2307   */\n      0x00\n        /* \"#utility.yul\":2350:2352   */\n      0x20\n        /* \"#utility.yul\":2338:2347   */\n      dup3\n        /* \"#utility.yul\":2329:2336   */\n      dup5\n        /* \"#utility.yul\":2325:2348   */\n      sub\n        /* \"#utility.yul\":2321:2353   */\n      slt\n        /* \"#utility.yul\":2318:2437   */\n      iszero\n      tag_138\n      jumpi\n        /* \"#utility.yul\":2356:2435   */\n      tag_139\n      tag_125\n      jump\t// in\n    tag_139:\n        /* \"#utility.yul\":2318:2437   */\n    tag_138:\n        /* \"#utility.yul\":2476:2477   */\n      0x00\n        /* \"#utility.yul\":2501:2554   */\n      tag_140\n        /* \"#utility.yul\":2546:2553   */\n      dup5\n        /* \"#utility.yul\":2537:2543   */\n      dup3\n        /* \"#utility.yul\":2526:2535   */\n      dup6\n        /* \"#utility.yul\":2522:2544   */\n      add\n        /* \"#utility.yul\":2501:2554   */\n      tag_118\n      jump\t// in\n    tag_140:\n        /* \"#utility.yul\":2491:2554   */\n      swap2\n      pop\n        /* \"#utility.yul\":2447:2564   */\n      pop\n        /* \"#utility.yul\":2242:2571   */\n      swap3\n      swap2\n      pop\n      pop\n      jump\t// out\n        /* \"#utility.yul\":2577:3372   */\n    tag_40:\n        /* \"#utility.yul\":2662:2668   */\n      0x00\n        /* \"#utility.yul\":2670:2676   */\n      dup1\n        /* \"#utility.yul\":2678:2684   */\n      0x00\n        /* \"#utility.yul\":2727:2729   */\n      0x60\n        /* \"#utility.yul\":2715:2724   */\n      dup5\n        /* \"#utility.yul\":2706:2713   */\n      dup7\n        /* \"#utility.yul\":2702:2725   */\n      sub\n        /* \"#utility.yul\":2698:2730   */\n      slt\n        /* \"#utility.yul\":2695:2814   */\n      iszero\n      tag_142\n      jumpi\n        /* \"#utility.yul\":2733:2812   */\n      tag_143\n      tag_125\n      jump\t// in\n    tag_143:\n        /* \"#utility.yul\":2695:2814   */\n    tag_142:\n        /* \"#utility.yul\":2853:2854   */\n      0x00\n        /* \"#utility.yul\":2878:2931   */\n      tag_144\n        /* \"#utility.yul\":2923:2930   */\n      dup7\n        /* \"#utility.yul\":2914:2920   */\n      dup3\n        /* \"#utility.yul\":2903:2912   */\n      dup8\n        /* \"#utility.yul\":2899:2921   */\n      add\n        /* \"#utility.yul\":2878:2931   */\n      tag_118\n      jump\t// in\n    tag_144:\n        /* \"#utility.yul\":2868:2931   */\n      swap4\n      pop\n        /* \"#utility.yul\":2824:2941   */\n      pop\n        /* \"#utility.yul\":3008:3010   */\n      0x20\n        /* \"#utility.yul\":2997:3006   */\n      dup5\n        /* \"#utility.yul\":2993:3011   */\n      add\n        /* \"#utility.yul\":2980:3012   */\n      calldataload\n        /* \"#utility.yul\":3039:3057   */\n      0xffffffffffffffff\n        /* \"#utility.yul\":3031:3037   */\n      dup2\n        /* \"#utility.yul\":3028:3058   */\n      gt\n        /* \"#utility.yul\":3025:3142   */\n      iszero\n      tag_145\n      jumpi\n        /* \"#utility.yul\":3061:3140   */\n      tag_146\n      tag_128\n      jump\t// in\n    tag_146:\n        /* \"#utility.yul\":3025:3142   */\n    tag_145:\n        /* \"#utility.yul\":3166:3229   */\n      tag_147\n        /* \"#utility.yul\":3221:3228   */\n      dup7\n        /* \"#utility.yul\":3212:3218   */\n      dup3\n        /* \"#utility.yul\":3201:3210   */\n      dup8\n        /* \"#utility.yul\":3197:3219   */\n      add\n        /* \"#utility.yul\":3166:3229   */\n      tag_112\n      jump\t// in\n    tag_147:\n        /* \"#utility.yul\":3156:3229   */\n      swap3\n      pop\n        /* \"#utility.yul\":2951:3239   */\n      pop\n        /* \"#utility.yul\":3278:3280   */\n      0x40\n        /* \"#utility.yul\":3304:3355   */\n      tag_148\n        /* \"#utility.yul\":3347:3354   */\n      dup7\n        /* \"#utility.yul\":3338:3344   */\n      dup3\n        /* \"#utility.yul\":3327:3336   */\n      dup8\n        /* \"#utility.yul\":3323:3345   */\n      add\n        /* \"#utility.yul\":3304:3355   */\n      tag_108\n      jump\t// in\n    tag_148:\n        /* \"#utility.yul\":3294:3355   */\n      swap2\n      pop\n        /* \"#utility.yul\":3249:3365   */\n      pop\n        /* \"#utility.yul\":2577:3372   */\n      swap3\n      pop\n      swap3\n      pop\n      swap3\n      jump\t// out\n        /* \"#utility.yul\":3378:3638   */\n    tag_149:\n        /* \"#utility.yul\":3499:3509   */\n      0x00\n        /* \"#utility.yul\":3534:3632   */\n      tag_151\n        /* \"#utility.yul\":3628:3631   */\n      dup4\n        /* \"#utility.yul\":3620:3626   */\n      dup4\n        /* \"#utility.yul\":3534:3632   */\n      tag_152\n      jump\t// in\n    tag_151:\n        /* \"#utility.yul\":3520:3632   */\n      swap1\n      pop\n        /* \"#utility.yul\":3378:3638   */\n      swap3\n      swap2\n      pop\n      pop\n      jump\t// out\n        /* \"#utility.yul\":3644:3908   */\n    tag_153:\n        /* \"#utility.yul\":3767:3777   */\n      0x00\n        /* \"#utility.yul\":3802:3902   */\n      tag_155\n        /* \"#utility.yul\":3898:3901   */\n      dup4\n        /* \"#utility.yul\":3890:3896   */\n      dup4\n        /* \"#utility.yul\":3802:3902   */\n      tag_156\n      jump\t// in\n    tag_155:\n        /* \"#utility.yul\":3788:3902   */\n      swap1\n      pop\n        /* \"#utility.yul\":3644:3908   */\n      swap3\n      swap2\n      pop\n      pop\n      jump\t// out\n        /* \"#utility.yul\":3988:5107   */\n    tag_157:\n        /* \"#utility.yul\":4159:4162   */\n      0x00\n        /* \"#utility.yul\":4188:4268   */\n      tag_159\n        /* \"#utility.yul\":4262:4267   */\n      dup3\n        /* \"#utility.yul\":4188:4268   */\n      tag_160\n      jump\t// in\n    tag_159:\n        /* \"#utility.yul\":4284:4396   */\n      tag_161\n        /* \"#utility.yul\":4389:4395   */\n      dup2\n        /* \"#utility.yul\":4384:4387   */\n      dup6\n        /* \"#utility.yul\":4284:4396   */\n      tag_162\n      jump\t// in\n    tag_161:\n        /* \"#utility.yul\":4277:4396   */\n      swap4\n      pop\n        /* \"#utility.yul\":4422:4425   */\n      dup4\n        /* \"#utility.yul\":4467:4471   */\n      0x20\n        /* \"#utility.yul\":4459:4465   */\n      dup3\n        /* \"#utility.yul\":4455:4472   */\n      mul\n        /* \"#utility.yul\":4450:4453   */\n      dup6\n        /* \"#utility.yul\":4446:4473   */\n      add\n        /* \"#utility.yul\":4497:4579   */\n      tag_163\n        /* \"#utility.yul\":4573:4578   */\n      dup6\n        /* \"#utility.yul\":4497:4579   */\n      tag_164\n      jump\t// in\n    tag_163:\n        /* \"#utility.yul\":4602:4609   */\n      dup1\n        /* \"#utility.yul\":4633:4634   */\n      0x00\n        /* \"#utility.yul\":4618:5062   */\n    tag_165:\n        /* \"#utility.yul\":4643:4649   */\n      dup6\n        /* \"#utility.yul\":4640:4641   */\n      dup2\n        /* \"#utility.yul\":4637:4650   */\n      lt\n        /* \"#utility.yul\":4618:5062   */\n      iszero\n      tag_167\n      jumpi\n        /* \"#utility.yul\":4714:4723   */\n      dup5\n        /* \"#utility.yul\":4708:4712   */\n      dup5\n        /* \"#utility.yul\":4704:4724   */\n      sub\n        /* \"#utility.yul\":4699:4702   */\n      dup10\n        /* \"#utility.yul\":4692:4725   */\n      mstore\n        /* \"#utility.yul\":4765:4771   */\n      dup2\n        /* \"#utility.yul\":4759:4772   */\n      mload\n        /* \"#utility.yul\":4793:4909   */\n      tag_168\n        /* \"#utility.yul\":4904:4908   */\n      dup6\n        /* \"#utility.yul\":4889:4902   */\n      dup3\n        /* \"#utility.yul\":4793:4909   */\n      tag_149\n      jump\t// in\n    tag_168:\n        /* \"#utility.yul\":4785:4909   */\n      swap5\n      pop\n        /* \"#utility.yul\":4932:5018   */\n      tag_169\n        /* \"#utility.yul\":5011:5017   */\n      dup4\n        /* \"#utility.yul\":4932:5018   */\n      tag_170\n      jump\t// in\n    tag_169:\n        /* \"#utility.yul\":4922:5018   */\n      swap3\n      pop\n        /* \"#utility.yul\":5047:5051   */\n      0x20\n        /* \"#utility.yul\":5042:5045   */\n      dup11\n        /* \"#utility.yul\":5038:5052   */\n      add\n        /* \"#utility.yul\":5031:5052   */\n      swap10\n      pop\n        /* \"#utility.yul\":4678:5062   */\n      pop\n        /* \"#utility.yul\":4665:4666   */\n      0x01\n        /* \"#utility.yul\":4662:4663   */\n      dup2\n        /* \"#utility.yul\":4658:4667   */\n      add\n        /* \"#utility.yul\":4653:4667   */\n      swap1\n      pop\n        /* \"#utility.yul\":4618:5062   */\n      jump(tag_165)\n    tag_167:\n        /* \"#utility.yul\":4622:4636   */\n      pop\n        /* \"#utility.yul\":5078:5082   */\n      dup3\n        /* \"#utility.yul\":5071:5082   */\n      swap8\n      pop\n        /* \"#utility.yul\":5098:5101   */\n      dup8\n        /* \"#utility.yul\":5091:5101   */\n      swap6\n      pop\n        /* \"#utility.yul\":4164:5107   */\n      pop\n      pop\n      pop\n      pop\n      pop\n        /* \"#utility.yul\":3988:5107   */\n      swap3\n      swap2\n      pop\n      pop\n      jump\t// out\n        /* \"#utility.yul\":5189:6296   */\n    tag_171:\n        /* \"#utility.yul\":5352:5355   */\n      0x00\n        /* \"#utility.yul\":5381:5462   */\n      tag_173\n        /* \"#utility.yul\":5456:5461   */\n      dup3\n        /* \"#utility.yul\":5381:5462   */\n      tag_174\n      jump\t// in\n    tag_173:\n        /* \"#utility.yul\":5478:5581   */\n      tag_175\n        /* \"#utility.yul\":5574:5580   */\n      dup2\n        /* \"#utility.yul\":5569:5572   */\n      dup6\n        /* \"#utility.yul\":5478:5581   */\n      tag_176\n      jump\t// in\n    tag_175:\n        /* \"#utility.yul\":5471:5581   */\n      swap4\n      pop\n        /* \"#utility.yul\":5607:5610   */\n      dup4\n        /* \"#utility.yul\":5652:5656   */\n      0x20\n        /* \"#utility.yul\":5644:5650   */\n      dup3\n        /* \"#utility.yul\":5640:5657   */\n      mul\n        /* \"#utility.yul\":5635:5638   */\n      dup6\n        /* \"#utility.yul\":5631:5658   */\n      add\n        /* \"#utility.yul\":5682:5765   */\n      tag_177\n        /* \"#utility.yul\":5759:5764   */\n      dup6\n        /* \"#utility.yul\":5682:5765   */\n      tag_178\n      jump\t// in\n    tag_177:\n        /* \"#utility.yul\":5788:5795   */\n      dup1\n        /* \"#utility.yul\":5819:5820   */\n      0x00\n        /* \"#utility.yul\":5804:6251   */\n    tag_179:\n        /* \"#utility.yul\":5829:5835   */\n      dup6\n        /* \"#utility.yul\":5826:5827   */\n      dup2\n        /* \"#utility.yul\":5823:5836   */\n      lt\n        /* \"#utility.yul\":5804:6251   */\n      iszero\n      tag_181\n      jumpi\n        /* \"#utility.yul\":5900:5909   */\n      dup5\n        /* \"#utility.yul\":5894:5898   */\n      dup5\n        /* \"#utility.yul\":5890:5910   */\n      sub\n        /* \"#utility.yul\":5885:5888   */\n      dup10\n        /* \"#utility.yul\":5878:5911   */\n      mstore\n        /* \"#utility.yul\":5951:5957   */\n      dup2\n        /* \"#utility.yul\":5945:5958   */\n      mload\n        /* \"#utility.yul\":5979:6097   */\n      tag_182\n        /* \"#utility.yul\":6092:6096   */\n      dup6\n        /* \"#utility.yul\":6077:6090   */\n      dup3\n        /* \"#utility.yul\":5979:6097   */\n      tag_153\n      jump\t// in\n    tag_182:\n        /* \"#utility.yul\":5971:6097   */\n      swap5\n      pop\n        /* \"#utility.yul\":6120:6207   */\n      tag_183\n        /* \"#utility.yul\":6200:6206   */\n      dup4\n        /* \"#utility.yul\":6120:6207   */\n      tag_184\n      jump\t// in\n    tag_183:\n        /* \"#utility.yul\":6110:6207   */\n      swap3\n      pop\n        /* \"#utility.yul\":6236:6240   */\n      0x20\n        /* \"#utility.yul\":6231:6234   */\n      dup11\n        /* \"#utility.yul\":6227:6241   */\n      add\n        /* \"#utility.yul\":6220:6241   */\n      swap10\n      pop\n        /* \"#utility.yul\":5864:6251   */\n      pop\n        /* \"#utility.yul\":5851:5852   */\n      0x01\n        /* \"#utility.yul\":5848:5849   */\n      dup2\n        /* \"#utility.yul\":5844:5853   */\n      add\n        /* \"#utility.yul\":5839:5853   */\n      swap1\n      pop\n        /* \"#utility.yul\":5804:6251   */\n      jump(tag_179)\n    tag_181:\n        /* \"#utility.yul\":5808:5822   */\n      pop\n        /* \"#utility.yul\":6267:6271   */\n      dup3\n        /* \"#utility.yul\":6260:6271   */\n      swap8\n      pop\n        /* \"#utility.yul\":6287:6290   */\n      dup8\n        /* \"#utility.yul\":6280:6290   */\n      swap6\n      pop\n        /* \"#utility.yul\":5357:6296   */\n      pop\n      pop\n      pop\n      pop\n      pop\n        /* \"#utility.yul\":5189:6296   */\n      swap3\n      swap2\n      pop\n      pop\n      jump\t// out\n        /* \"#utility.yul\":6378:7505   */\n    tag_185:\n        /* \"#utility.yul\":6551:6554   */\n      0x00\n        /* \"#utility.yul\":6580:6661   */\n      tag_187\n        /* \"#utility.yul\":6655:6660   */\n      dup3\n        /* \"#utility.yul\":6580:6661   */\n      tag_174\n      jump\t// in\n    tag_187:\n        /* \"#utility.yul\":6677:6790   */\n      tag_188\n        /* \"#utility.yul\":6783:6789   */\n      dup2\n        /* \"#utility.yul\":6778:6781   */\n      dup6\n        /* \"#utility.yul\":6677:6790   */\n      tag_189\n      jump\t// in\n    tag_188:\n        /* \"#utility.yul\":6670:6790   */\n      swap4\n      pop\n        /* \"#utility.yul\":6816:6819   */\n      dup4\n        /* \"#utility.yul\":6861:6865   */\n      0x20\n        /* \"#utility.yul\":6853:6859   */\n      dup3\n        /* \"#utility.yul\":6849:6866   */\n      mul\n        /* \"#utility.yul\":6844:6847   */\n      dup6\n        /* \"#utility.yul\":6840:6867   */\n      add\n        /* \"#utility.yul\":6891:6974   */\n      tag_190\n        /* \"#utility.yul\":6968:6973   */\n      dup6\n        /* \"#utility.yul\":6891:6974   */\n      tag_178\n      jump\t// in\n    tag_190:\n        /* \"#utility.yul\":6997:7004   */\n      dup1\n        /* \"#utility.yul\":7028:7029   */\n      0x00\n        /* \"#utility.yul\":7013:7460   */\n    tag_191:\n        /* \"#utility.yul\":7038:7044   */\n      dup6\n        /* \"#utility.yul\":7035:7036   */\n      dup2\n        /* \"#utility.yul\":7032:7045   */\n      lt\n        /* \"#utility.yul\":7013:7460   */\n      iszero\n      tag_193\n      jumpi\n        /* \"#utility.yul\":7109:7118   */\n      dup5\n        /* \"#utility.yul\":7103:7107   */\n      dup5\n        /* \"#utility.yul\":7099:7119   */\n      sub\n        /* \"#utility.yul\":7094:7097   */\n      dup10\n        /* \"#utility.yul\":7087:7120   */\n      mstore\n        /* \"#utility.yul\":7160:7166   */\n      dup2\n        /* \"#utility.yul\":7154:7167   */\n      mload\n        /* \"#utility.yul\":7188:7306   */\n      tag_194\n        /* \"#utility.yul\":7301:7305   */\n      dup6\n        /* \"#utility.yul\":7286:7299   */\n      dup3\n        /* \"#utility.yul\":7188:7306   */\n      tag_153\n      jump\t// in\n    tag_194:\n        /* \"#utility.yul\":7180:7306   */\n      swap5\n      pop\n        /* \"#utility.yul\":7329:7416   */\n      tag_195\n        /* \"#utility.yul\":7409:7415   */\n      dup4\n        /* \"#utility.yul\":7329:7416   */\n      tag_184\n      jump\t// in\n    tag_195:\n        /* \"#utility.yul\":7319:7416   */\n      swap3\n      pop\n        /* \"#utility.yul\":7445:7449   */\n      0x20\n        /* \"#utility.yul\":7440:7443   */\n      dup11\n        /* \"#utility.yul\":7436:7450   */\n      add\n        /* \"#utility.yul\":7429:7450   */\n      swap10\n      pop\n        /* \"#utility.yul\":7073:7460   */\n      pop\n        /* \"#utility.yul\":7060:7061   */\n      0x01\n        /* \"#utility.yul\":7057:7058   */\n      dup2\n        /* \"#utility.yul\":7053:7062   */\n      add\n        /* \"#utility.yul\":7048:7062   */\n      swap1\n      pop\n        /* \"#utility.yul\":7013:7460   */\n      jump(tag_191)\n    tag_193:\n        /* \"#utility.yul\":7017:7031   */\n      pop\n        /* \"#utility.yul\":7476:7480   */\n      dup3\n        /* \"#utility.yul\":7469:7480   */\n      swap8\n      pop\n        /* \"#utility.yul\":7496:7499   */\n      dup8\n        /* \"#utility.yul\":7489:7499   */\n      swap6\n      pop\n        /* \"#utility.yul\":6556:7505   */\n      pop\n      pop\n      pop\n      pop\n      pop\n        /* \"#utility.yul\":6378:7505   */\n      swap3\n      swap2\n      pop\n      pop\n      jump\t// out\n        /* \"#utility.yul\":7511:7613   */\n    tag_196:\n        /* \"#utility.yul\":7584:7606   */\n      tag_198\n        /* \"#utility.yul\":7600:7605   */\n      dup2\n        /* \"#utility.yul\":7584:7606   */\n      tag_199\n      jump\t// in\n    tag_198:\n        /* \"#utility.yul\":7579:7582   */\n      dup3\n        /* \"#utility.yul\":7572:7607   */\n      mstore\n        /* \"#utility.yul\":7511:7613   */\n      pop\n      pop\n      jump\t// out\n        /* \"#utility.yul\":7619:7731   */\n    tag_200:\n        /* \"#utility.yul\":7702:7724   */\n      tag_202\n        /* \"#utility.yul\":7718:7723   */\n      dup2\n        /* \"#utility.yul\":7702:7724   */\n      tag_199\n      jump\t// in\n    tag_202:\n        /* \"#utility.yul\":7697:7700   */\n      dup3\n        /* \"#utility.yul\":7690:7725   */\n      mstore\n        /* \"#utility.yul\":7619:7731   */\n      pop\n      pop\n      jump\t// out\n        /* \"#utility.yul\":7737:8081   */\n    tag_203:\n        /* \"#utility.yul\":7815:7818   */\n      0x00\n        /* \"#utility.yul\":7843:7882   */\n      tag_205\n        /* \"#utility.yul\":7876:7881   */\n      dup3\n        /* \"#utility.yul\":7843:7882   */\n      tag_206\n      jump\t// in\n    tag_205:\n        /* \"#utility.yul\":7898:7959   */\n      tag_207\n        /* \"#utility.yul\":7952:7958   */\n      dup2\n        /* \"#utility.yul\":7947:7950   */\n      dup6\n        /* \"#utility.yul\":7898:7959   */\n      tag_208\n      jump\t// in\n    tag_207:\n        /* \"#utility.yul\":7891:7959   */\n      swap4\n      pop\n        /* \"#utility.yul\":7968:8020   */\n      tag_209\n        /* \"#utility.yul\":8013:8019   */\n      dup2\n        /* \"#utility.yul\":8008:8011   */\n      dup6\n        /* \"#utility.yul\":8001:8005   */\n      0x20\n        /* \"#utility.yul\":7994:7999   */\n      dup7\n        /* \"#utility.yul\":7990:8006   */\n      add\n        /* \"#utility.yul\":7968:8020   */\n      tag_210\n      jump\t// in\n    tag_209:\n        /* \"#utility.yul\":8045:8074   */\n      tag_211\n        /* \"#utility.yul\":8067:8073   */\n      dup2\n        /* \"#utility.yul\":8045:8074   */\n      tag_212\n      jump\t// in\n    tag_211:\n        /* \"#utility.yul\":8040:8043   */\n      dup5\n        /* \"#utility.yul\":8036:8075   */\n      add\n        /* \"#utility.yul\":8029:8075   */\n      swap2\n      pop\n        /* \"#utility.yul\":7819:8081   */\n      pop\n        /* \"#utility.yul\":7737:8081   */\n      swap3\n      swap2\n      pop\n      pop\n      jump\t// out\n        /* \"#utility.yul\":8087:8451   */\n    tag_213:\n        /* \"#utility.yul\":8175:8178   */\n      0x00\n        /* \"#utility.yul\":8203:8242   */\n      tag_215\n        /* \"#utility.yul\":8236:8241   */\n      dup3\n        /* \"#utility.yul\":8203:8242   */\n      tag_206\n      jump\t// in\n    tag_215:\n        /* \"#utility.yul\":8258:8329   */\n      tag_216\n        /* \"#utility.yul\":8322:8328   */\n      dup2\n        /* \"#utility.yul\":8317:8320   */\n      dup6\n        /* \"#utility.yul\":8258:8329   */\n      tag_217\n      jump\t// in\n    tag_216:\n        /* \"#utility.yul\":8251:8329   */\n      swap4\n      pop\n        /* \"#utility.yul\":8338:8390   */\n      tag_218\n        /* \"#utility.yul\":8383:8389   */\n      dup2\n        /* \"#utility.yul\":8378:8381   */\n      dup6\n        /* \"#utility.yul\":8371:8375   */\n      0x20\n        /* \"#utility.yul\":8364:8369   */\n      dup7\n        /* \"#utility.yul\":8360:8376   */\n      add\n        /* \"#utility.yul\":8338:8390   */\n      tag_210\n      jump\t// in\n    tag_218:\n        /* \"#utility.yul\":8415:8444   */\n      tag_219\n        /* \"#utility.yul\":8437:8443   */\n      dup2\n        /* \"#utility.yul\":8415:8444   */\n      tag_212\n      jump\t// in\n    tag_219:\n        /* \"#utility.yul\":8410:8413   */\n      dup5\n        /* \"#utility.yul\":8406:8445   */\n      add\n        /* \"#utility.yul\":8399:8445   */\n      swap2\n      pop\n        /* \"#utility.yul\":8179:8451   */\n      pop\n        /* \"#utility.yul\":8087:8451   */\n      swap3\n      swap2\n      pop\n      pop\n      jump\t// out\n        /* \"#utility.yul\":8527:9453   */\n    tag_152:\n        /* \"#utility.yul\":8638:8641   */\n      0x00\n        /* \"#utility.yul\":8674:8678   */\n      0x60\n        /* \"#utility.yul\":8669:8672   */\n      dup4\n        /* \"#utility.yul\":8665:8679   */\n      add\n        /* \"#utility.yul\":8759:8763   */\n      0x00\n        /* \"#utility.yul\":8752:8757   */\n      dup4\n        /* \"#utility.yul\":8748:8764   */\n      add\n        /* \"#utility.yul\":8742:8765   */\n      mload\n        /* \"#utility.yul\":8778:8841   */\n      tag_221\n        /* \"#utility.yul\":8835:8839   */\n      0x00\n        /* \"#utility.yul\":8830:8833   */\n      dup7\n        /* \"#utility.yul\":8826:8840   */\n      add\n        /* \"#utility.yul\":8812:8824   */\n      dup3\n        /* \"#utility.yul\":8778:8841   */\n      tag_222\n      jump\t// in\n    tag_221:\n        /* \"#utility.yul\":8689:8851   */\n      pop\n        /* \"#utility.yul\":8932:8936   */\n      0x20\n        /* \"#utility.yul\":8925:8930   */\n      dup4\n        /* \"#utility.yul\":8921:8937   */\n      add\n        /* \"#utility.yul\":8915:8938   */\n      mload\n        /* \"#utility.yul\":8985:8988   */\n      dup5\n        /* \"#utility.yul\":8979:8983   */\n      dup3\n        /* \"#utility.yul\":8975:8989   */\n      sub\n        /* \"#utility.yul\":8968:8972   */\n      0x20\n        /* \"#utility.yul\":8963:8966   */\n      dup7\n        /* \"#utility.yul\":8959:8973   */\n      add\n        /* \"#utility.yul\":8952:8990   */\n      mstore\n        /* \"#utility.yul\":9011:9084   */\n      tag_223\n        /* \"#utility.yul\":9079:9083   */\n      dup3\n        /* \"#utility.yul\":9065:9077   */\n      dup3\n        /* \"#utility.yul\":9011:9084   */\n      tag_203\n      jump\t// in\n    tag_223:\n        /* \"#utility.yul\":9003:9084   */\n      swap2\n      pop\n        /* \"#utility.yul\":8861:9095   */\n      pop\n        /* \"#utility.yul\":9179:9183   */\n      0x40\n        /* \"#utility.yul\":9172:9177   */\n      dup4\n        /* \"#utility.yul\":9168:9184   */\n      add\n        /* \"#utility.yul\":9162:9185   */\n      mload\n        /* \"#utility.yul\":9232:9235   */\n      dup5\n        /* \"#utility.yul\":9226:9230   */\n      dup3\n        /* \"#utility.yul\":9222:9236   */\n      sub\n        /* \"#utility.yul\":9215:9219   */\n      0x40\n        /* \"#utility.yul\":9210:9213   */\n      dup7\n        /* \"#utility.yul\":9206:9220   */\n      add\n        /* \"#utility.yul\":9199:9237   */\n      mstore\n        /* \"#utility.yul\":9258:9415   */\n      tag_224\n        /* \"#utility.yul\":9410:9414   */\n      dup3\n        /* \"#utility.yul\":9396:9408   */\n      dup3\n        /* \"#utility.yul\":9258:9415   */\n      tag_171\n      jump\t// in\n    tag_224:\n        /* \"#utility.yul\":9250:9415   */\n      swap2\n      pop\n        /* \"#utility.yul\":9105:9426   */\n      pop\n        /* \"#utility.yul\":9443:9447   */\n      dup1\n        /* \"#utility.yul\":9436:9447   */\n      swap2\n      pop\n        /* \"#utility.yul\":8643:9453   */\n      pop\n        /* \"#utility.yul\":8527:9453   */\n      swap3\n      swap2\n      pop\n      pop\n      jump\t// out\n        /* \"#utility.yul\":9531:10302   */\n    tag_156:\n        /* \"#utility.yul\":9644:9647   */\n      0x00\n        /* \"#utility.yul\":9680:9684   */\n      0x60\n        /* \"#utility.yul\":9675:9678   */\n      dup4\n        /* \"#utility.yul\":9671:9685   */\n      add\n        /* \"#utility.yul\":9765:9769   */\n      0x00\n        /* \"#utility.yul\":9758:9763   */\n      dup4\n        /* \"#utility.yul\":9754:9770   */\n      add\n        /* \"#utility.yul\":9748:9771   */\n      mload\n        /* \"#utility.yul\":9784:9847   */\n      tag_226\n        /* \"#utility.yul\":9841:9845   */\n      0x00\n        /* \"#utility.yul\":9836:9839   */\n      dup7\n        /* \"#utility.yul\":9832:9846   */\n      add\n        /* \"#utility.yul\":9818:9830   */\n      dup3\n        /* \"#utility.yul\":9784:9847   */\n      tag_222\n      jump\t// in\n    tag_226:\n        /* \"#utility.yul\":9695:9857   */\n      pop\n        /* \"#utility.yul\":9942:9946   */\n      0x20\n        /* \"#utility.yul\":9935:9940   */\n      dup4\n        /* \"#utility.yul\":9931:9947   */\n      add\n        /* \"#utility.yul\":9925:9948   */\n      mload\n        /* \"#utility.yul\":9995:9998   */\n      dup5\n        /* \"#utility.yul\":9989:9993   */\n      dup3\n        /* \"#utility.yul\":9985:9999   */\n      sub\n        /* \"#utility.yul\":9978:9982   */\n      0x20\n        /* \"#utility.yul\":9973:9976   */\n      dup7\n        /* \"#utility.yul\":9969:9983   */\n      add\n        /* \"#utility.yul\":9962:10000   */\n      mstore\n        /* \"#utility.yul\":10021:10094   */\n      tag_227\n        /* \"#utility.yul\":10089:10093   */\n      dup3\n        /* \"#utility.yul\":10075:10087   */\n      dup3\n        /* \"#utility.yul\":10021:10094   */\n      tag_203\n      jump\t// in\n    tag_227:\n        /* \"#utility.yul\":10013:10094   */\n      swap2\n      pop\n        /* \"#utility.yul\":9867:10105   */\n      pop\n        /* \"#utility.yul\":10187:10191   */\n      0x40\n        /* \"#utility.yul\":10180:10185   */\n      dup4\n        /* \"#utility.yul\":10176:10192   */\n      add\n        /* \"#utility.yul\":10170:10193   */\n      mload\n        /* \"#utility.yul\":10206:10265   */\n      tag_228\n        /* \"#utility.yul\":10259:10263   */\n      0x40\n        /* \"#utility.yul\":10254:10257   */\n      dup7\n        /* \"#utility.yul\":10250:10264   */\n      add\n        /* \"#utility.yul\":10236:10248   */\n      dup3\n        /* \"#utility.yul\":10206:10265   */\n      tag_196\n      jump\t// in\n    tag_228:\n        /* \"#utility.yul\":10115:10275   */\n      pop\n        /* \"#utility.yul\":10292:10296   */\n      dup1\n        /* \"#utility.yul\":10285:10296   */\n      swap2\n      pop\n        /* \"#utility.yul\":9649:10302   */\n      pop\n        /* \"#utility.yul\":9531:10302   */\n      swap3\n      swap2\n      pop\n      pop\n      jump\t// out\n        /* \"#utility.yul\":10380:11161   */\n    tag_229:\n        /* \"#utility.yul\":10503:10506   */\n      0x00\n        /* \"#utility.yul\":10539:10543   */\n      0x60\n        /* \"#utility.yul\":10534:10537   */\n      dup4\n        /* \"#utility.yul\":10530:10544   */\n      add\n        /* \"#utility.yul\":10624:10628   */\n      0x00\n        /* \"#utility.yul\":10617:10622   */\n      dup4\n        /* \"#utility.yul\":10613:10629   */\n      add\n        /* \"#utility.yul\":10607:10630   */\n      mload\n        /* \"#utility.yul\":10643:10706   */\n      tag_231\n        /* \"#utility.yul\":10700:10704   */\n      0x00\n        /* \"#utility.yul\":10695:10698   */\n      dup7\n        /* \"#utility.yul\":10691:10705   */\n      add\n        /* \"#utility.yul\":10677:10689   */\n      dup3\n        /* \"#utility.yul\":10643:10706   */\n      tag_222\n      jump\t// in\n    tag_231:\n        /* \"#utility.yul\":10554:10716   */\n      pop\n        /* \"#utility.yul\":10801:10805   */\n      0x20\n        /* \"#utility.yul\":10794:10799   */\n      dup4\n        /* \"#utility.yul\":10790:10806   */\n      add\n        /* \"#utility.yul\":10784:10807   */\n      mload\n        /* \"#utility.yul\":10854:10857   */\n      dup5\n        /* \"#utility.yul\":10848:10852   */\n      dup3\n        /* \"#utility.yul\":10844:10858   */\n      sub\n        /* \"#utility.yul\":10837:10841   */\n      0x20\n        /* \"#utility.yul\":10832:10835   */\n      dup7\n        /* \"#utility.yul\":10828:10842   */\n      add\n        /* \"#utility.yul\":10821:10859   */\n      mstore\n        /* \"#utility.yul\":10880:10953   */\n      tag_232\n        /* \"#utility.yul\":10948:10952   */\n      dup3\n        /* \"#utility.yul\":10934:10946   */\n      dup3\n        /* \"#utility.yul\":10880:10953   */\n      tag_203\n      jump\t// in\n    tag_232:\n        /* \"#utility.yul\":10872:10953   */\n      swap2\n      pop\n        /* \"#utility.yul\":10726:10964   */\n      pop\n        /* \"#utility.yul\":11046:11050   */\n      0x40\n        /* \"#utility.yul\":11039:11044   */\n      dup4\n        /* \"#utility.yul\":11035:11051   */\n      add\n        /* \"#utility.yul\":11029:11052   */\n      mload\n        /* \"#utility.yul\":11065:11124   */\n      tag_233\n        /* \"#utility.yul\":11118:11122   */\n      0x40\n        /* \"#utility.yul\":11113:11116   */\n      dup7\n        /* \"#utility.yul\":11109:11123   */\n      add\n        /* \"#utility.yul\":11095:11107   */\n      dup3\n        /* \"#utility.yul\":11065:11124   */\n      tag_196\n      jump\t// in\n    tag_233:\n        /* \"#utility.yul\":10974:11134   */\n      pop\n        /* \"#utility.yul\":11151:11155   */\n      dup1\n        /* \"#utility.yul\":11144:11155   */\n      swap2\n      pop\n        /* \"#utility.yul\":10508:11161   */\n      pop\n        /* \"#utility.yul\":10380:11161   */\n      swap3\n      swap2\n      pop\n      pop\n      jump\t// out\n        /* \"#utility.yul\":11167:11275   */\n    tag_222:\n        /* \"#utility.yul\":11244:11268   */\n      tag_235\n        /* \"#utility.yul\":11262:11267   */\n      dup2\n        /* \"#utility.yul\":11244:11268   */\n      tag_236\n      jump\t// in\n    tag_235:\n        /* \"#utility.yul\":11239:11242   */\n      dup3\n        /* \"#utility.yul\":11232:11269   */\n      mstore\n        /* \"#utility.yul\":11167:11275   */\n      pop\n      pop\n      jump\t// out\n        /* \"#utility.yul\":11281:11758   */\n    tag_34:\n        /* \"#utility.yul\":11476:11480   */\n      0x00\n        /* \"#utility.yul\":11514:11516   */\n      0x20\n        /* \"#utility.yul\":11503:11512   */\n      dup3\n        /* \"#utility.yul\":11499:11517   */\n      add\n        /* \"#utility.yul\":11491:11517   */\n      swap1\n      pop\n        /* \"#utility.yul\":11563:11572   */\n      dup2\n        /* \"#utility.yul\":11557:11561   */\n      dup2\n        /* \"#utility.yul\":11553:11573   */\n      sub\n        /* \"#utility.yul\":11549:11550   */\n      0x00\n        /* \"#utility.yul\":11538:11547   */\n      dup4\n        /* \"#utility.yul\":11534:11551   */\n      add\n        /* \"#utility.yul\":11527:11574   */\n      mstore\n        /* \"#utility.yul\":11591:11751   */\n      tag_238\n        /* \"#utility.yul\":11746:11750   */\n      dup2\n        /* \"#utility.yul\":11737:11743   */\n      dup5\n        /* \"#utility.yul\":11591:11751   */\n      tag_157\n      jump\t// in\n    tag_238:\n        /* \"#utility.yul\":11583:11751   */\n      swap1\n      pop\n        /* \"#utility.yul\":11281:11758   */\n      swap3\n      swap2\n      pop\n      pop\n      jump\t// out\n        /* \"#utility.yul\":11764:12245   */\n    tag_14:\n        /* \"#utility.yul\":11961:11965   */\n      0x00\n        /* \"#utility.yul\":11999:12001   */\n      0x20\n        /* \"#utility.yul\":11988:11997   */\n      dup3\n        /* \"#utility.yul\":11984:12002   */\n      add\n        /* \"#utility.yul\":11976:12002   */\n      swap1\n      pop\n        /* \"#utility.yul\":12048:12057   */\n      dup2\n        /* \"#utility.yul\":12042:12046   */\n      dup2\n        /* \"#utility.yul\":12038:12058   */\n      sub\n        /* \"#utility.yul\":12034:12035   */\n      0x00\n        /* \"#utility.yul\":12023:12032   */\n      dup4\n        /* \"#utility.yul\":12019:12036   */\n      add\n        /* \"#utility.yul\":12012:12059   */\n      mstore\n        /* \"#utility.yul\":12076:12238   */\n      tag_240\n        /* \"#utility.yul\":12233:12237   */\n      dup2\n        /* \"#utility.yul\":12224:12230   */\n      dup5\n        /* \"#utility.yul\":12076:12238   */\n      tag_185\n      jump\t// in\n    tag_240:\n        /* \"#utility.yul\":12068:12238   */\n      swap1\n      pop\n        /* \"#utility.yul\":11764:12245   */\n      swap3\n      swap2\n      pop\n      pop\n      jump\t// out\n        /* \"#utility.yul\":12251:12666   */\n    tag_24:\n        /* \"#utility.yul\":12388:12392   */\n      0x00\n        /* \"#utility.yul\":12426:12428   */\n      0x40\n        /* \"#utility.yul\":12415:12424   */\n      dup3\n        /* \"#utility.yul\":12411:12429   */\n      add\n        /* \"#utility.yul\":12403:12429   */\n      swap1\n      pop\n        /* \"#utility.yul\":12475:12484   */\n      dup2\n        /* \"#utility.yul\":12469:12473   */\n      dup2\n        /* \"#utility.yul\":12465:12485   */\n      sub\n        /* \"#utility.yul\":12461:12462   */\n      0x00\n        /* \"#utility.yul\":12450:12459   */\n      dup4\n        /* \"#utility.yul\":12446:12463   */\n      add\n        /* \"#utility.yul\":12439:12486   */\n      mstore\n        /* \"#utility.yul\":12503:12581   */\n      tag_242\n        /* \"#utility.yul\":12576:12580   */\n      dup2\n        /* \"#utility.yul\":12567:12573   */\n      dup6\n        /* \"#utility.yul\":12503:12581   */\n      tag_213\n      jump\t// in\n    tag_242:\n        /* \"#utility.yul\":12495:12581   */\n      swap1\n      pop\n        /* \"#utility.yul\":12591:12659   */\n      tag_243\n        /* \"#utility.yul\":12655:12657   */\n      0x20\n        /* \"#utility.yul\":12644:12653   */\n      dup4\n        /* \"#utility.yul\":12640:12658   */\n      add\n        /* \"#utility.yul\":12631:12637   */\n      dup5\n        /* \"#utility.yul\":12591:12659   */\n      tag_200\n      jump\t// in\n    tag_243:\n        /* \"#utility.yul\":12251:12666   */\n      swap4\n      swap3\n      pop\n      pop\n      pop\n      jump\t// out\n        /* \"#utility.yul\":12672:13053   */\n    tag_30:\n        /* \"#utility.yul\":12819:12823   */\n      0x00\n        /* \"#utility.yul\":12857:12859   */\n      0x20\n        /* \"#utility.yul\":12846:12855   */\n      dup3\n        /* \"#utility.yul\":12842:12860   */\n      add\n        /* \"#utility.yul\":12834:12860   */\n      swap1\n      pop\n        /* \"#utility.yul\":12906:12915   */\n      dup2\n        /* \"#utility.yul\":12900:12904   */\n      dup2\n        /* \"#utility.yul\":12896:12916   */\n      sub\n        /* \"#utility.yul\":12892:12893   */\n      0x00\n        /* \"#utility.yul\":12881:12890   */\n      dup4\n        /* \"#utility.yul\":12877:12894   */\n      add\n        /* \"#utility.yul\":12870:12917   */\n      mstore\n        /* \"#utility.yul\":12934:13046   */\n      tag_245\n        /* \"#utility.yul\":13041:13045   */\n      dup2\n        /* \"#utility.yul\":13032:13038   */\n      dup5\n        /* \"#utility.yul\":12934:13046   */\n      tag_229\n      jump\t// in\n    tag_245:\n        /* \"#utility.yul\":12926:13046   */\n      swap1\n      pop\n        /* \"#utility.yul\":12672:13053   */\n      swap3\n      swap2\n      pop\n      pop\n      jump\t// out\n        /* \"#utility.yul\":13059:13188   */\n    tag_102:\n        /* \"#utility.yul\":13093:13099   */\n      0x00\n        /* \"#utility.yul\":13120:13140   */\n      tag_247\n      tag_248\n      jump\t// in\n    tag_247:\n        /* \"#utility.yul\":13110:13140   */\n      swap1\n      pop\n        /* \"#utility.yul\":13149:13182   */\n      tag_249\n        /* \"#utility.yul\":13177:13181   */\n      dup3\n        /* \"#utility.yul\":13169:13175   */\n      dup3\n        /* \"#utility.yul\":13149:13182   */\n      tag_250\n      jump\t// in\n    tag_249:\n        /* \"#utility.yul\":13059:13188   */\n      swap2\n      swap1\n      pop\n      jump\t// out\n        /* \"#utility.yul\":13194:13269   */\n    tag_248:\n        /* \"#utility.yul\":13227:13233   */\n      0x00\n        /* \"#utility.yul\":13260:13262   */\n      0x40\n        /* \"#utility.yul\":13254:13263   */\n      mload\n        /* \"#utility.yul\":13244:13263   */\n      swap1\n      pop\n        /* \"#utility.yul\":13194:13269   */\n      swap1\n      jump\t// out\n        /* \"#utility.yul\":13275:13583   */\n    tag_101:\n        /* \"#utility.yul\":13337:13341   */\n      0x00\n        /* \"#utility.yul\":13427:13445   */\n      0xffffffffffffffff\n        /* \"#utility.yul\":13419:13425   */\n      dup3\n        /* \"#utility.yul\":13416:13446   */\n      gt\n        /* \"#utility.yul\":13413:13469   */\n      iszero\n      tag_253\n      jumpi\n        /* \"#utility.yul\":13449:13467   */\n      tag_254\n      tag_255\n      jump\t// in\n    tag_254:\n        /* \"#utility.yul\":13413:13469   */\n    tag_253:\n        /* \"#utility.yul\":13487:13516   */\n      tag_256\n        /* \"#utility.yul\":13509:13515   */\n      dup3\n        /* \"#utility.yul\":13487:13516   */\n      tag_212\n      jump\t// in\n    tag_256:\n        /* \"#utility.yul\":13479:13516   */\n      swap1\n      pop\n        /* \"#utility.yul\":13571:13575   */\n      0x20\n        /* \"#utility.yul\":13565:13569   */\n      dup2\n        /* \"#utility.yul\":13561:13576   */\n      add\n        /* \"#utility.yul\":13553:13576   */\n      swap1\n      pop\n        /* \"#utility.yul\":13275:13583   */\n      swap2\n      swap1\n      pop\n      jump\t// out\n        /* \"#utility.yul\":13589:13747   */\n    tag_164:\n        /* \"#utility.yul\":13682:13686   */\n      0x00\n        /* \"#utility.yul\":13705:13708   */\n      dup2\n        /* \"#utility.yul\":13697:13708   */\n      swap1\n      pop\n        /* \"#utility.yul\":13735:13739   */\n      0x20\n        /* \"#utility.yul\":13730:13733   */\n      dup3\n        /* \"#utility.yul\":13726:13740   */\n      add\n        /* \"#utility.yul\":13718:13740   */\n      swap1\n      pop\n        /* \"#utility.yul\":13589:13747   */\n      swap2\n      swap1\n      pop\n      jump\t// out\n        /* \"#utility.yul\":13753:13912   */\n    tag_178:\n        /* \"#utility.yul\":13847:13851   */\n      0x00\n        /* \"#utility.yul\":13870:13873   */\n      dup2\n        /* \"#utility.yul\":13862:13873   */\n      swap1\n      pop\n        /* \"#utility.yul\":13900:13904   */\n      0x20\n        /* \"#utility.yul\":13895:13898   */\n      dup3\n        /* \"#utility.yul\":13891:13905   */\n      add\n        /* \"#utility.yul\":13883:13905   */\n      swap1\n      pop\n        /* \"#utility.yul\":13753:13912   */\n      swap2\n      swap1\n      pop\n      jump\t// out\n        /* \"#utility.yul\":13918:14058   */\n    tag_160:\n        /* \"#utility.yul\":14011:14017   */\n      0x00\n        /* \"#utility.yul\":14045:14050   */\n      dup2\n        /* \"#utility.yul\":14039:14051   */\n      mload\n        /* \"#utility.yul\":14029:14051   */\n      swap1\n      pop\n        /* \"#utility.yul\":13918:14058   */\n      swap2\n      swap1\n      pop\n      jump\t// out\n        /* \"#utility.yul\":14064:14205   */\n    tag_174:\n        /* \"#utility.yul\":14158:14164   */\n      0x00\n        /* \"#utility.yul\":14192:14197   */\n      dup2\n        /* \"#utility.yul\":14186:14198   */\n      mload\n        /* \"#utility.yul\":14176:14198   */\n      swap1\n      pop\n        /* \"#utility.yul\":14064:14205   */\n      swap2\n      swap1\n      pop\n      jump\t// out\n        /* \"#utility.yul\":14211:14310   */\n    tag_206:\n        /* \"#utility.yul\":14263:14269   */\n      0x00\n        /* \"#utility.yul\":14297:14302   */\n      dup2\n        /* \"#utility.yul\":14291:14303   */\n      mload\n        /* \"#utility.yul\":14281:14303   */\n      swap1\n      pop\n        /* \"#utility.yul\":14211:14310   */\n      swap2\n      swap1\n      pop\n      jump\t// out\n        /* \"#utility.yul\":14316:14455   */\n    tag_170:\n        /* \"#utility.yul\":14412:14416   */\n      0x00\n        /* \"#utility.yul\":14444:14448   */\n      0x20\n        /* \"#utility.yul\":14439:14442   */\n      dup3\n        /* \"#utility.yul\":14435:14449   */\n      add\n        /* \"#utility.yul\":14427:14449   */\n      swap1\n      pop\n        /* \"#utility.yul\":14316:14455   */\n      swap2\n      swap1\n      pop\n      jump\t// out\n        /* \"#utility.yul\":14461:14601   */\n    tag_184:\n        /* \"#utility.yul\":14558:14562   */\n      0x00\n        /* \"#utility.yul\":14590:14594   */\n      0x20\n        /* \"#utility.yul\":14585:14588   */\n      dup3\n        /* \"#utility.yul\":14581:14595   */\n      add\n        /* \"#utility.yul\":14573:14595   */\n      swap1\n      pop\n        /* \"#utility.yul\":14461:14601   */\n      swap2\n      swap1\n      pop\n      jump\t// out\n        /* \"#utility.yul\":14607:14817   */\n    tag_162:\n        /* \"#utility.yul\":14732:14743   */\n      0x00\n        /* \"#utility.yul\":14766:14772   */\n      dup3\n        /* \"#utility.yul\":14761:14764   */\n      dup3\n        /* \"#utility.yul\":14754:14773   */\n      mstore\n        /* \"#utility.yul\":14806:14810   */\n      0x20\n        /* \"#utility.yul\":14801:14804   */\n      dup3\n        /* \"#utility.yul\":14797:14811   */\n      add\n        /* \"#utility.yul\":14782:14811   */\n      swap1\n      pop\n        /* \"#utility.yul\":14607:14817   */\n      swap3\n      swap2\n      pop\n      pop\n      jump\t// out\n        /* \"#utility.yul\":14823:15024   */\n    tag_176:\n        /* \"#utility.yul\":14939:14950   */\n      0x00\n        /* \"#utility.yul\":14973:14979   */\n      dup3\n        /* \"#utility.yul\":14968:14971   */\n      dup3\n        /* \"#utility.yul\":14961:14980   */\n      mstore\n        /* \"#utility.yul\":15013:15017   */\n      0x20\n        /* \"#utility.yul\":15008:15011   */\n      dup3\n        /* \"#utility.yul\":15004:15018   */\n      add\n        /* \"#utility.yul\":14989:15018   */\n      swap1\n      pop\n        /* \"#utility.yul\":14823:15024   */\n      swap3\n      swap2\n      pop\n      pop\n      jump\t// out\n        /* \"#utility.yul\":15030:15241   */\n    tag_189:\n        /* \"#utility.yul\":15156:15167   */\n      0x00\n        /* \"#utility.yul\":15190:15196   */\n      dup3\n        /* \"#utility.yul\":15185:15188   */\n      dup3\n        /* \"#utility.yul\":15178:15197   */\n      mstore\n        /* \"#utility.yul\":15230:15234   */\n      0x20\n        /* \"#utility.yul\":15225:15228   */\n      dup3\n        /* \"#utility.yul\":15221:15235   */\n      add\n        /* \"#utility.yul\":15206:15235   */\n      swap1\n      pop\n        /* \"#utility.yul\":15030:15241   */\n      swap3\n      swap2\n      pop\n      pop\n      jump\t// out\n        /* \"#utility.yul\":15247:15406   */\n    tag_208:\n        /* \"#utility.yul\":15321:15332   */\n      0x00\n        /* \"#utility.yul\":15355:15361   */\n      dup3\n        /* \"#utility.yul\":15350:15353   */\n      dup3\n        /* \"#utility.yul\":15343:15362   */\n      mstore\n        /* \"#utility.yul\":15395:15399   */\n      0x20\n        /* \"#utility.yul\":15390:15393   */\n      dup3\n        /* \"#utility.yul\":15386:15400   */\n      add\n        /* \"#utility.yul\":15371:15400   */\n      swap1\n      pop\n        /* \"#utility.yul\":15247:15406   */\n      swap3\n      swap2\n      pop\n      pop\n      jump\t// out\n        /* \"#utility.yul\":15412:15581   */\n    tag_217:\n        /* \"#utility.yul\":15496:15507   */\n      0x00\n        /* \"#utility.yul\":15530:15536   */\n      dup3\n        /* \"#utility.yul\":15525:15528   */\n      dup3\n        /* \"#utility.yul\":15518:15537   */\n      mstore\n        /* \"#utility.yul\":15570:15574   */\n      0x20\n        /* \"#utility.yul\":15565:15568   */\n      dup3\n        /* \"#utility.yul\":15561:15575   */\n      add\n        /* \"#utility.yul\":15546:15575   */\n      swap1\n      pop\n        /* \"#utility.yul\":15412:15581   */\n      swap3\n      swap2\n      pop\n      pop\n      jump\t// out\n        /* \"#utility.yul\":15587:15892   */\n    tag_54:\n        /* \"#utility.yul\":15627:15630   */\n      0x00\n        /* \"#utility.yul\":15646:15666   */\n      tag_270\n        /* \"#utility.yul\":15664:15665   */\n      dup3\n        /* \"#utility.yul\":15646:15666   */\n      tag_236\n      jump\t// in\n    tag_270:\n        /* \"#utility.yul\":15641:15666   */\n      swap2\n      pop\n        /* \"#utility.yul\":15680:15700   */\n      tag_271\n        /* \"#utility.yul\":15698:15699   */\n      dup4\n        /* \"#utility.yul\":15680:15700   */\n      tag_236\n      jump\t// in\n    tag_271:\n        /* \"#utility.yul\":15675:15700   */\n      swap3\n      pop\n        /* \"#utility.yul\":15834:15835   */\n      dup3\n        /* \"#utility.yul\":15766:15832   */\n      0xffffffffffffffffffffffffffffffffffffffffffffffffffffffffffffffff\n        /* \"#utility.yul\":15762:15836   */\n      sub\n        /* \"#utility.yul\":15759:15760   */\n      dup3\n        /* \"#utility.yul\":15756:15837   */\n      gt\n        /* \"#utility.yul\":15753:15860   */\n      iszero\n      tag_272\n      jumpi\n        /* \"#utility.yul\":15840:15858   */\n      tag_273\n      tag_274\n      jump\t// in\n    tag_273:\n        /* \"#utility.yul\":15753:15860   */\n    tag_272:\n        /* \"#utility.yul\":15884:15885   */\n      dup3\n        /* \"#utility.yul\":15881:15882   */\n      dup3\n        /* \"#utility.yul\":15877:15886   */\n      add\n        /* \"#utility.yul\":15870:15886   */\n      swap1\n      pop\n        /* \"#utility.yul\":15587:15892   */\n      swap3\n      swap2\n      pop\n      pop\n      jump\t// out\n        /* \"#utility.yul\":15898:15988   */\n    tag_199:\n        /* \"#utility.yul\":15933:15940   */\n      0x00\n        /* \"#utility.yul\":15976:15981   */\n      dup2\n        /* \"#utility.yul\":15973:15974   */\n      0x01\n        /* \"#utility.yul\":15962:15982   */\n      signextend\n        /* \"#utility.yul\":15951:15982   */\n      swap1\n      pop\n        /* \"#utility.yul\":15898:15988   */\n      swap2\n      swap1\n      pop\n      jump\t// out\n        /* \"#utility.yul\":15994:16071   */\n    tag_236:\n        /* \"#utility.yul\":16031:16038   */\n      0x00\n        /* \"#utility.yul\":16060:16065   */\n      dup2\n        /* \"#utility.yul\":16049:16065   */\n      swap1\n      pop\n        /* \"#utility.yul\":15994:16071   */\n      swap2\n      swap1\n      pop\n      jump\t// out\n        /* \"#utility.yul\":16077:16231   */\n    tag_107:\n        /* \"#utility.yul\":16161:16167   */\n      dup3\n        /* \"#utility.yul\":16156:16159   */\n      dup2\n        /* \"#utility.yul\":16151:16154   */\n      dup4\n        /* \"#utility.yul\":16138:16168   */\n      calldatacopy\n        /* \"#utility.yul\":16223:16224   */\n      0x00\n        /* \"#utility.yul\":16214:16220   */\n      dup4\n        /* \"#utility.yul\":16209:16212   */\n      dup4\n        /* \"#utility.yul\":16205:16221   */\n      add\n        /* \"#utility.yul\":16198:16225   */\n      mstore\n        /* \"#utility.yul\":16077:16231   */\n      pop\n      pop\n      pop\n      jump\t// out\n        /* \"#utility.yul\":16237:16544   */\n    tag_210:\n        /* \"#utility.yul\":16305:16306   */\n      0x00\n        /* \"#utility.yul\":16315:16428   */\n    tag_279:\n        /* \"#utility.yul\":16329:16335   */\n      dup4\n        /* \"#utility.yul\":16326:16327   */\n      dup2\n        /* \"#utility.yul\":16323:16336   */\n      lt\n        /* \"#utility.yul\":16315:16428   */\n      iszero\n      tag_281\n      jumpi\n        /* \"#utility.yul\":16414:16415   */\n      dup1\n        /* \"#utility.yul\":16409:16412   */\n      dup3\n        /* \"#utility.yul\":16405:16416   */\n      add\n        /* \"#utility.yul\":16399:16417   */\n      mload\n        /* \"#utility.yul\":16395:16396   */\n      dup2\n        /* \"#utility.yul\":16390:16393   */\n      dup5\n        /* \"#utility.yul\":16386:16397   */\n      add\n        /* \"#utility.yul\":16379:16418   */\n      mstore\n        /* \"#utility.yul\":16351:16353   */\n      0x20\n        /* \"#utility.yul\":16348:16349   */\n      dup2\n        /* \"#utility.yul\":16344:16354   */\n      add\n        /* \"#utility.yul\":16339:16354   */\n      swap1\n      pop\n        /* \"#utility.yul\":16315:16428   */\n      jump(tag_279)\n    tag_281:\n        /* \"#utility.yul\":16446:16452   */\n      dup4\n        /* \"#utility.yul\":16443:16444   */\n      dup2\n        /* \"#utility.yul\":16440:16453   */\n      gt\n        /* \"#utility.yul\":16437:16538   */\n      iszero\n      tag_282\n      jumpi\n        /* \"#utility.yul\":16526:16527   */\n      0x00\n        /* \"#utility.yul\":16517:16523   */\n      dup5\n        /* \"#utility.yul\":16512:16515   */\n      dup5\n        /* \"#utility.yul\":16508:16524   */\n      add\n        /* \"#utility.yul\":16501:16528   */\n      mstore\n        /* \"#utility.yul\":16437:16538   */\n    tag_282:\n        /* \"#utility.yul\":16286:16544   */\n      pop\n        /* \"#utility.yul\":16237:16544   */\n      pop\n      pop\n      pop\n      jump\t// out\n        /* \"#utility.yul\":16550:16870   */\n    tag_47:\n        /* \"#utility.yul\":16594:16600   */\n      0x00\n        /* \"#utility.yul\":16631:16632   */\n      0x02\n        /* \"#utility.yul\":16625:16629   */\n      dup3\n        /* \"#utility.yul\":16621:16633   */\n      div\n        /* \"#utility.yul\":16611:16633   */\n      swap1\n      pop\n        /* \"#utility.yul\":16678:16679   */\n      0x01\n        /* \"#utility.yul\":16672:16676   */\n      dup3\n        /* \"#utility.yul\":16668:16680   */\n      and\n        /* \"#utility.yul\":16699:16717   */\n      dup1\n        /* \"#utility.yul\":16689:16770   */\n      tag_284\n      jumpi\n        /* \"#utility.yul\":16755:16759   */\n      0x7f\n        /* \"#utility.yul\":16747:16753   */\n      dup3\n        /* \"#utility.yul\":16743:16760   */\n      and\n        /* \"#utility.yul\":16733:16760   */\n      swap2\n      pop\n        /* \"#utility.yul\":16689:16770   */\n    tag_284:\n        /* \"#utility.yul\":16817:16819   */\n      0x20\n        /* \"#utility.yul\":16809:16815   */\n      dup3\n        /* \"#utility.yul\":16806:16820   */\n      lt\n        /* \"#utility.yul\":16786:16804   */\n      dup2\n        /* \"#utility.yul\":16783:16821   */\n      eq\n        /* \"#utility.yul\":16780:16864   */\n      iszero\n      tag_285\n      jumpi\n        /* \"#utility.yul\":16836:16854   */\n      tag_286\n      tag_287\n      jump\t// in\n    tag_286:\n        /* \"#utility.yul\":16780:16864   */\n    tag_285:\n        /* \"#utility.yul\":16601:16870   */\n      pop\n        /* \"#utility.yul\":16550:16870   */\n      swap2\n      swap1\n      pop\n      jump\t// out\n        /* \"#utility.yul\":16876:17157   */\n    tag_250:\n        /* \"#utility.yul\":16959:16986   */\n      tag_289\n        /* \"#utility.yul\":16981:16985   */\n      dup3\n        /* \"#utility.yul\":16959:16986   */\n      tag_212\n      jump\t// in\n    tag_289:\n        /* \"#utility.yul\":16951:16957   */\n      dup2\n        /* \"#utility.yul\":16947:16987   */\n      add\n        /* \"#utility.yul\":17089:17095   */\n      dup2\n        /* \"#utility.yul\":17077:17087   */\n      dup2\n        /* \"#utility.yul\":17074:17096   */\n      lt\n        /* \"#utility.yul\":17053:17071   */\n      0xffffffffffffffff\n        /* \"#utility.yul\":17041:17051   */\n      dup3\n        /* \"#utility.yul\":17038:17072   */\n      gt\n        /* \"#utility.yul\":17035:17097   */\n      or\n        /* \"#utility.yul\":17032:17120   */\n      iszero\n      tag_290\n      jumpi\n        /* \"#utility.yul\":17100:17118   */\n      tag_291\n      tag_255\n      jump\t// in\n    tag_291:\n        /* \"#utility.yul\":17032:17120   */\n    tag_290:\n        /* \"#utility.yul\":17140:17150   */\n      dup1\n        /* \"#utility.yul\":17136:17138   */\n      0x40\n        /* \"#utility.yul\":17129:17151   */\n      mstore\n        /* \"#utility.yul\":16919:17157   */\n      pop\n        /* \"#utility.yul\":16876:17157   */\n      pop\n      pop\n      jump\t// out\n        /* \"#utility.yul\":17163:17343   */\n    tag_274:\n        /* \"#utility.yul\":17211:17288   */\n      0x4e487b7100000000000000000000000000000000000000000000000000000000\n        /* \"#utility.yul\":17208:17209   */\n      0x00\n        /* \"#utility.yul\":17201:17289   */\n      mstore\n        /* \"#utility.yul\":17308:17312   */\n      0x11\n        /* \"#utility.yul\":17305:17306   */\n      0x04\n        /* \"#utility.yul\":17298:17313   */\n      mstore\n        /* \"#utility.yul\":17332:17336   */\n      0x24\n        /* \"#utility.yul\":17329:17330   */\n      0x00\n        /* \"#utility.yul\":17322:17337   */\n      revert\n        /* \"#utility.yul\":17349:17529   */\n    tag_287:\n        /* \"#utility.yul\":17397:17474   */\n      0x4e487b7100000000000000000000000000000000000000000000000000000000\n        /* \"#utility.yul\":17394:17395   */\n      0x00\n        /* \"#utility.yul\":17387:17475   */\n      mstore\n        /* \"#utility.yul\":17494:17498   */\n      0x22\n        /* \"#utility.yul\":17491:17492   */\n      0x04\n        /* \"#utility.yul\":17484:17499   */\n      mstore\n        /* \"#utility.yul\":17518:17522   */\n      0x24\n        /* \"#utility.yul\":17515:17516   */\n      0x00\n        /* \"#utility.yul\":17508:17523   */\n      revert\n        /* \"#utility.yul\":17535:17715   */\n    tag_255:\n        /* \"#utility.yul\":17583:17660   */\n      0x4e487b7100000000000000000000000000000000000000000000000000000000\n        /* \"#utility.yul\":17580:17581   */\n      0x00\n        /* \"#utility.yul\":17573:17661   */\n      mstore\n        /* \"#utility.yul\":17680:17684   */\n      0x41\n        /* \"#utility.yul\":17677:17678   */\n      0x04\n        /* \"#utility.yul\":17670:17685   */\n      mstore\n        /* \"#utility.yul\":17704:17708   */\n      0x24\n        /* \"#utility.yul\":17701:17702   */\n      0x00\n        /* \"#utility.yul\":17694:17709   */\n      revert\n        /* \"#utility.yul\":17721:17838   */\n    tag_116:\n        /* \"#utility.yul\":17830:17831   */\n      0x00\n        /* \"#utility.yul\":17827:17828   */\n      dup1\n        /* \"#utility.yul\":17820:17832   */\n      revert\n        /* \"#utility.yul\":17844:17961   */\n    tag_105:\n        /* \"#utility.yul\":17953:17954   */\n      0x00\n        /* \"#utility.yul\":17950:17951   */\n      dup1\n        /* \"#utility.yul\":17943:17955   */\n      revert\n        /* \"#utility.yul\":17967:18084   */\n    tag_128:\n        /* \"#utility.yul\":18076:18077   */\n      0x00\n        /* \"#utility.yul\":18073:18074   */\n      dup1\n        /* \"#utility.yul\":18066:18078   */\n      revert\n        /* \"#utility.yul\":18090:18207   */\n    tag_125:\n        /* \"#utility.yul\":18199:18200   */\n      0x00\n        /* \"#utility.yul\":18196:18197   */\n      dup1\n        /* \"#utility.yul\":18189:18201   */\n      revert\n        /* \"#utility.yul\":18213:18315   */\n    tag_212:\n        /* \"#utility.yul\":18254:18260   */\n      0x00\n        /* \"#utility.yul\":18305:18307   */\n      0x1f\n        /* \"#utility.yul\":18301:18308   */\n      not\n        /* \"#utility.yul\":18296:18298   */\n      0x1f\n        /* \"#utility.yul\":18289:18294   */\n      dup4\n        /* \"#utility.yul\":18285:18299   */\n      add\n        /* \"#utility.yul\":18281:18309   */\n      and\n        /* \"#utility.yul\":18271:18309   */\n      swap1\n      pop\n        /* \"#utility.yul\":18213:18315   */\n      swap2\n      swap1\n      pop\n      jump\t// out\n        /* \"#utility.yul\":18321:18439   */\n    tag_111:\n        /* \"#utility.yul\":18392:18414   */\n      tag_301\n        /* \"#utility.yul\":18408:18413   */\n      dup2\n        /* \"#utility.yul\":18392:18414   */\n      tag_199\n      jump\t// in\n    tag_301:\n        /* \"#utility.yul\":18385:18390   */\n      dup2\n        /* \"#utility.yul\":18382:18415   */\n      eq\n        /* \"#utility.yul\":18372:18433   */\n      tag_302\n      jumpi\n        /* \"#utility.yul\":18429:18430   */\n      0x00\n        /* \"#utility.yul\":18426:18427   */\n      dup1\n        /* \"#utility.yul\":18419:18431   */\n      revert\n        /* \"#utility.yul\":18372:18433   */\n    tag_302:\n        /* \"#utility.yul\":18321:18439   */\n      pop\n      jump\t// out\n        /* \"#utility.yul\":18445:18567   */\n    tag_121:\n        /* \"#utility.yul\":18518:18542   */\n      tag_304\n        /* \"#utility.yul\":18536:18541   */\n      dup2\n        /* \"#utility.yul\":18518:18542   */\n      tag_236\n      jump\t// in\n    tag_304:\n        /* \"#utility.yul\":18511:18516   */\n      dup2\n        /* \"#utility.yul\":18508:18543   */\n      eq\n        /* \"#utility.yul\":18498:18561   */\n      tag_305\n      jumpi\n        /* \"#utility.yul\":18557:18558   */\n      0x00\n        /* \"#utility.yul\":18554:18555   */\n      dup1\n        /* \"#utility.yul\":18547:18559   */\n      revert\n        /* \"#utility.yul\":18498:18561   */\n    tag_305:\n        /* \"#utility.yul\":18445:18567   */\n      pop\n      jump\t// out\n\n    auxdata: 0xa264697066735822122026b3ca5cf89ce01403c7f7b4d8593c0322c69ad5c766c8c3aadb4d76cfc6d2aa64736f6c63430008070033\n}\n",
				"bytecode": {
					"linkReferences": {},
					"object": "608060405234801561001057600080fd5b50610fc2806100206000396000f3fe608060405234801561001057600080fd5b506004361061007d5760003560e01c8063d4290f831161005b578063d4290f83146100ed578063e4d7a3d41461011d578063e88e9f0f1461013b578063f1cfa6a5146101575761007d565b806302ee3a521461008257806351401eef146100a057806379a85e6c146100bc575b600080fd5b61008a610173565b6040516100979190610c20565b60405180910390f35b6100ba60048036038101906100b591906107e9565b61028b565b005b6100d660048036038101906100d19190610845565b610344565b6040516100e4929190610c42565b60405180910390f35b610107600480360381019061010291906107a0565b610417565b6040516101149190610c72565b60405180910390f35b610125610424565b6040516101329190610bfe565b60405180910390f35b610155600480360381019061015091906107a0565b610637565b005b610171600480360381019061016c9190610872565b61063a565b005b60606000805480602002602001604051908101604052809291908181526020016000905b828210156102825783829060005260206000209060030201604051806060016040529081600082015481526020016001820180546101d490610e49565b80601f016020809104026020016040519081016040528092919081815260200182805461020090610e49565b801561024d5780601f106102225761010080835404028352916020019161024d565b820191906000526020600020905b81548152906001019060200180831161023057829003601f168201915b505050505081526020016002820160009054906101000a900460010b60010b60010b8152505081526020019060010190610197565b50505050905090565b6000600160008054905061029f9190610d9a565b9050600060405180606001604052808381526020018581526020018460010b8152509050600081908060018154018082558091505060019003906000526020600020906003020160009091909190915060008201518160000155602082015181600101908051906020019061031592919061063f565b5060408201518160020160006101000a81548161ffff021916908360010b61ffff160217905550505050505050565b60606000600260008481526020019081526020016000206001016002600085815260200190815260200160002060020160009054906101000a900460010b81805461038e90610e49565b80601f01602080910402602001604051908101604052809291908181526020018280546103ba90610e49565b80156104075780601f106103dc57610100808354040283529160200191610407565b820191906000526020600020905b8154815290600101906020018083116103ea57829003601f168201915b5050505050915091509150915091565b61041f6106c5565b919050565b60606001805480602002602001604051908101604052809291908181526020016000905b8282101561062e57838290600052602060002090600302016040518060600160405290816000820154815260200160018201805461048590610e49565b80601f01602080910402602001604051908101604052809291908181526020018280546104b190610e49565b80156104fe5780601f106104d3576101008083540402835291602001916104fe565b820191906000526020600020905b8154815290600101906020018083116104e157829003601f168201915b5050505050815260200160028201805480602002602001604051908101604052809291908181526020016000905b8282101561061757838290600052602060002090600302016040518060600160405290816000820154815260200160018201805461056990610e49565b80601f016020809104026020016040519081016040528092919081815260200182805461059590610e49565b80156105e25780601f106105b7576101008083540402835291602001916105e2565b820191906000526020600020905b8154815290600101906020018083116105c557829003601f168201915b505050505081526020016002820160009054906101000a900460010b60010b60010b815250508152602001906001019061052c565b505050508152505081526020019060010190610448565b50505050905090565b50565b505050565b82805461064b90610e49565b90600052602060002090601f01602090048101928261066d57600085556106b4565b82601f1061068657805160ff19168380011785556106b4565b828001600101855582156106b4579182015b828111156106b3578251825591602001919060010190610698565b5b5090506106c191906106e9565b5090565b60405180606001604052806000815260200160608152602001600060010b81525090565b5b808211156107025760008160009055506001016106ea565b5090565b600061071961071484610cb9565b610c94565b90508281526020810184848401111561073557610734610f3e565b5b610740848285610e07565b509392505050565b60008135905061075781610f5e565b92915050565b600082601f83011261077257610771610f39565b5b8135610782848260208601610706565b91505092915050565b60008135905061079a81610f75565b92915050565b6000602082840312156107b6576107b5610f48565b5b600082013567ffffffffffffffff8111156107d4576107d3610f43565b5b6107e08482850161075d565b91505092915050565b60008060408385031215610800576107ff610f48565b5b600083013567ffffffffffffffff81111561081e5761081d610f43565b5b61082a8582860161075d565b925050602061083b85828601610748565b9150509250929050565b60006020828403121561085b5761085a610f48565b5b60006108698482850161078b565b91505092915050565b60008060006060848603121561088b5761088a610f48565b5b60006108998682870161078b565b935050602084013567ffffffffffffffff8111156108ba576108b9610f43565b5b6108c68682870161075d565b92505060406108d786828701610748565b9150509250925092565b60006108ed8383610af8565b905092915050565b60006109018383610b4f565b905092915050565b600061091482610d0a565b61091e8185610d45565b93508360208202850161093085610cea565b8060005b8581101561096c578484038952815161094d85826108e1565b945061095883610d2b565b925060208a01995050600181019050610934565b50829750879550505050505092915050565b600061098982610d15565b6109938185610d56565b9350836020820285016109a585610cfa565b8060005b858110156109e157848403895281516109c285826108f5565b94506109cd83610d38565b925060208a019950506001810190506109a9565b50829750879550505050505092915050565b60006109fe82610d15565b610a088185610d67565b935083602082028501610a1a85610cfa565b8060005b85811015610a565784840389528151610a3785826108f5565b9450610a4283610d38565b925060208a01995050600181019050610a1e565b50829750879550505050505092915050565b610a7181610df0565b82525050565b610a8081610df0565b82525050565b6000610a9182610d20565b610a9b8185610d78565b9350610aab818560208601610e16565b610ab481610f4d565b840191505092915050565b6000610aca82610d20565b610ad48185610d89565b9350610ae4818560208601610e16565b610aed81610f4d565b840191505092915050565b6000606083016000830151610b106000860182610bef565b5060208301518482036020860152610b288282610a86565b91505060408301518482036040860152610b42828261097e565b9150508091505092915050565b6000606083016000830151610b676000860182610bef565b5060208301518482036020860152610b7f8282610a86565b9150506040830151610b946040860182610a68565b508091505092915050565b6000606083016000830151610bb76000860182610bef565b5060208301518482036020860152610bcf8282610a86565b9150506040830151610be46040860182610a68565b508091505092915050565b610bf881610dfd565b82525050565b60006020820190508181036000830152610c188184610909565b905092915050565b60006020820190508181036000830152610c3a81846109f3565b905092915050565b60006040820190508181036000830152610c5c8185610abf565b9050610c6b6020830184610a77565b9392505050565b60006020820190508181036000830152610c8c8184610b9f565b905092915050565b6000610c9e610caf565b9050610caa8282610e7b565b919050565b6000604051905090565b600067ffffffffffffffff821115610cd457610cd3610f0a565b5b610cdd82610f4d565b9050602081019050919050565b6000819050602082019050919050565b6000819050602082019050919050565b600081519050919050565b600081519050919050565b600081519050919050565b6000602082019050919050565b6000602082019050919050565b600082825260208201905092915050565b600082825260208201905092915050565b600082825260208201905092915050565b600082825260208201905092915050565b600082825260208201905092915050565b6000610da582610dfd565b9150610db083610dfd565b9250827fffffffffffffffffffffffffffffffffffffffffffffffffffffffffffffffff03821115610de557610de4610eac565b5b828201905092915050565b60008160010b9050919050565b6000819050919050565b82818337600083830152505050565b60005b83811015610e34578082015181840152602081019050610e19565b83811115610e43576000848401525b50505050565b60006002820490506001821680610e6157607f821691505b60208210811415610e7557610e74610edb565b5b50919050565b610e8482610f4d565b810181811067ffffffffffffffff82111715610ea357610ea2610f0a565b5b80604052505050565b7f4e487b7100000000000000000000000000000000000000000000000000000000600052601160045260246000fd5b7f4e487b7100000000000000000000000000000000000000000000000000000000600052602260045260246000fd5b7f4e487b7100000000000000000000000000000000000000000000000000000000600052604160045260246000fd5b600080fd5b600080fd5b600080fd5b600080fd5b6000601f19601f8301169050919050565b610f6781610df0565b8114610f7257600080fd5b50565b610f7e81610dfd565b8114610f8957600080fd5b5056fea264697066735822122026b3ca5cf89ce01403c7f7b4d8593c0322c69ad5c766c8c3aadb4d76cfc6d2aa64736f6c63430008070033",
					"opcodes": "PUSH1 0x80 PUSH1 0x40 MSTORE CALLVALUE DUP1 ISZERO PUSH2 0x10 JUMPI PUSH1 0x0 DUP1 REVERT JUMPDEST POP PUSH2 0xFC2 DUP1 PUSH2 0x20 PUSH1 0x0 CODECOPY PUSH1 0x0 RETURN INVALID PUSH1 0x80 PUSH1 0x40 MSTORE CALLVALUE DUP1 ISZERO PUSH2 0x10 JUMPI PUSH1 0x0 DUP1 REVERT JUMPDEST POP PUSH1 0x4 CALLDATASIZE LT PUSH2 0x7D JUMPI PUSH1 0x0 CALLDATALOAD PUSH1 0xE0 SHR DUP1 PUSH4 0xD4290F83 GT PUSH2 0x5B JUMPI DUP1 PUSH4 0xD4290F83 EQ PUSH2 0xED JUMPI DUP1 PUSH4 0xE4D7A3D4 EQ PUSH2 0x11D JUMPI DUP1 PUSH4 0xE88E9F0F EQ PUSH2 0x13B JUMPI DUP1 PUSH4 0xF1CFA6A5 EQ PUSH2 0x157 JUMPI PUSH2 0x7D JUMP JUMPDEST DUP1 PUSH4 0x2EE3A52 EQ PUSH2 0x82 JUMPI DUP1 PUSH4 0x51401EEF EQ PUSH2 0xA0 JUMPI DUP1 PUSH4 0x79A85E6C EQ PUSH2 0xBC JUMPI JUMPDEST PUSH1 0x0 DUP1 REVERT JUMPDEST PUSH2 0x8A PUSH2 0x173 JUMP JUMPDEST PUSH1 0x40 MLOAD PUSH2 0x97 SWAP2 SWAP1 PUSH2 0xC20 JUMP JUMPDEST PUSH1 0x40 MLOAD DUP1 SWAP2 SUB SWAP1 RETURN JUMPDEST PUSH2 0xBA PUSH1 0x4 DUP1 CALLDATASIZE SUB DUP2 ADD SWAP1 PUSH2 0xB5 SWAP2 SWAP1 PUSH2 0x7E9 JUMP JUMPDEST PUSH2 0x28B JUMP JUMPDEST STOP JUMPDEST PUSH2 0xD6 PUSH1 0x4 DUP1 CALLDATASIZE SUB DUP2 ADD SWAP1 PUSH2 0xD1 SWAP2 SWAP1 PUSH2 0x845 JUMP JUMPDEST PUSH2 0x344 JUMP JUMPDEST PUSH1 0x40 MLOAD PUSH2 0xE4 SWAP3 SWAP2 SWAP1 PUSH2 0xC42 JUMP JUMPDEST PUSH1 0x40 MLOAD DUP1 SWAP2 SUB SWAP1 RETURN JUMPDEST PUSH2 0x107 PUSH1 0x4 DUP1 CALLDATASIZE SUB DUP2 ADD SWAP1 PUSH2 0x102 SWAP2 SWAP1 PUSH2 0x7A0 JUMP JUMPDEST PUSH2 0x417 JUMP JUMPDEST PUSH1 0x40 MLOAD PUSH2 0x114 SWAP2 SWAP1 PUSH2 0xC72 JUMP JUMPDEST PUSH1 0x40 MLOAD DUP1 SWAP2 SUB SWAP1 RETURN JUMPDEST PUSH2 0x125 PUSH2 0x424 JUMP JUMPDEST PUSH1 0x40 MLOAD PUSH2 0x132 SWAP2 SWAP1 PUSH2 0xBFE JUMP JUMPDEST PUSH1 0x40 MLOAD DUP1 SWAP2 SUB SWAP1 RETURN JUMPDEST PUSH2 0x155 PUSH1 0x4 DUP1 CALLDATASIZE SUB DUP2 ADD SWAP1 PUSH2 0x150 SWAP2 SWAP1 PUSH2 0x7A0 JUMP JUMPDEST PUSH2 0x637 JUMP JUMPDEST STOP JUMPDEST PUSH2 0x171 PUSH1 0x4 DUP1 CALLDATASIZE SUB DUP2 ADD SWAP1 PUSH2 0x16C SWAP2 SWAP1 PUSH2 0x872 JUMP JUMPDEST PUSH2 0x63A JUMP JUMPDEST STOP JUMPDEST PUSH1 0x60 PUSH1 0x0 DUP1 SLOAD DUP1 PUSH1 0x20 MUL PUSH1 0x20 ADD PUSH1 0x40 MLOAD SWAP1 DUP2 ADD PUSH1 0x40 MSTORE DUP1 SWAP3 SWAP2 SWAP1 DUP2 DUP2 MSTORE PUSH1 0x20 ADD PUSH1 0x0 SWAP1 JUMPDEST DUP3 DUP3 LT ISZERO PUSH2 0x282 JUMPI DUP4 DUP3 SWAP1 PUSH1 0x0 MSTORE PUSH1 0x20 PUSH1 0x0 KECCAK256 SWAP1 PUSH1 0x3 MUL ADD PUSH1 0x40 MLOAD DUP1 PUSH1 0x60 ADD PUSH1 0x40 MSTORE SWAP1 DUP2 PUSH1 0x0 DUP3 ADD SLOAD DUP2 MSTORE PUSH1 0x20 ADD PUSH1 0x1 DUP3 ADD DUP1 SLOAD PUSH2 0x1D4 SWAP1 PUSH2 0xE49 JUMP JUMPDEST DUP1 PUSH1 0x1F ADD PUSH1 0x20 DUP1 SWAP2 DIV MUL PUSH1 0x20 ADD PUSH1 0x40 MLOAD SWAP1 DUP2 ADD PUSH1 0x40 MSTORE DUP1 SWAP3 SWAP2 SWAP1 DUP2 DUP2 MSTORE PUSH1 0x20 ADD DUP3 DUP1 SLOAD PUSH2 0x200 SWAP1 PUSH2 0xE49 JUMP JUMPDEST DUP1 ISZERO PUSH2 0x24D JUMPI DUP1 PUSH1 0x1F LT PUSH2 0x222 JUMPI PUSH2 0x100 DUP1 DUP4 SLOAD DIV MUL DUP4 MSTORE SWAP2 PUSH1 0x20 ADD SWAP2 PUSH2 0x24D JUMP JUMPDEST DUP3 ADD SWAP2 SWAP1 PUSH1 0x0 MSTORE PUSH1 0x20 PUSH1 0x0 KECCAK256 SWAP1 JUMPDEST DUP2 SLOAD DUP2 MSTORE SWAP1 PUSH1 0x1 ADD SWAP1 PUSH1 0x20 ADD DUP1 DUP4 GT PUSH2 0x230 JUMPI DUP3 SWAP1 SUB PUSH1 0x1F AND DUP3 ADD SWAP2 JUMPDEST POP POP POP POP POP DUP2 MSTORE PUSH1 0x20 ADD PUSH1 0x2 DUP3 ADD PUSH1 0x0 SWAP1 SLOAD SWAP1 PUSH2 0x100 EXP SWAP1 DIV PUSH1 0x1 SIGNEXTEND PUSH1 0x1 SIGNEXTEND PUSH1 0x1 SIGNEXTEND DUP2 MSTORE POP POP DUP2 MSTORE PUSH1 0x20 ADD SWAP1 PUSH1 0x1 ADD SWAP1 PUSH2 0x197 JUMP JUMPDEST POP POP POP POP SWAP1 POP SWAP1 JUMP JUMPDEST PUSH1 0x0 PUSH1 0x1 PUSH1 0x0 DUP1 SLOAD SWAP1 POP PUSH2 0x29F SWAP2 SWAP1 PUSH2 0xD9A JUMP JUMPDEST SWAP1 POP PUSH1 0x0 PUSH1 0x40 MLOAD DUP1 PUSH1 0x60 ADD PUSH1 0x40 MSTORE DUP1 DUP4 DUP2 MSTORE PUSH1 0x20 ADD DUP6 DUP2 MSTORE PUSH1 0x20 ADD DUP5 PUSH1 0x1 SIGNEXTEND DUP2 MSTORE POP SWAP1 POP PUSH1 0x0 DUP2 SWAP1 DUP1 PUSH1 0x1 DUP2 SLOAD ADD DUP1 DUP3 SSTORE DUP1 SWAP2 POP POP PUSH1 0x1 SWAP1 SUB SWAP1 PUSH1 0x0 MSTORE PUSH1 0x20 PUSH1 0x0 KECCAK256 SWAP1 PUSH1 0x3 MUL ADD PUSH1 0x0 SWAP1 SWAP2 SWAP1 SWAP2 SWAP1 SWAP2 POP PUSH1 0x0 DUP3 ADD MLOAD DUP2 PUSH1 0x0 ADD SSTORE PUSH1 0x20 DUP3 ADD MLOAD DUP2 PUSH1 0x1 ADD SWAP1 DUP1 MLOAD SWAP1 PUSH1 0x20 ADD SWAP1 PUSH2 0x315 SWAP3 SWAP2 SWAP1 PUSH2 0x63F JUMP JUMPDEST POP PUSH1 0x40 DUP3 ADD MLOAD DUP2 PUSH1 0x2 ADD PUSH1 0x0 PUSH2 0x100 EXP DUP2 SLOAD DUP2 PUSH2 0xFFFF MUL NOT AND SWAP1 DUP4 PUSH1 0x1 SIGNEXTEND PUSH2 0xFFFF AND MUL OR SWAP1 SSTORE POP POP POP POP POP POP POP JUMP JUMPDEST PUSH1 0x60 PUSH1 0x0 PUSH1 0x2 PUSH1 0x0 DUP5 DUP2 MSTORE PUSH1 0x20 ADD SWAP1 DUP2 MSTORE PUSH1 0x20 ADD PUSH1 0x0 KECCAK256 PUSH1 0x1 ADD PUSH1 0x2 PUSH1 0x0 DUP6 DUP2 MSTORE PUSH1 0x20 ADD SWAP1 DUP2 MSTORE PUSH1 0x20 ADD PUSH1 0x0 KECCAK256 PUSH1 0x2 ADD PUSH1 0x0 SWAP1 SLOAD SWAP1 PUSH2 0x100 EXP SWAP1 DIV PUSH1 0x1 SIGNEXTEND DUP2 DUP1 SLOAD PUSH2 0x38E SWAP1 PUSH2 0xE49 JUMP JUMPDEST DUP1 PUSH1 0x1F ADD PUSH1 0x20 DUP1 SWAP2 DIV MUL PUSH1 0x20 ADD PUSH1 0x40 MLOAD SWAP1 DUP2 ADD PUSH1 0x40 MSTORE DUP1 SWAP3 SWAP2 SWAP1 DUP2 DUP2 MSTORE PUSH1 0x20 ADD DUP3 DUP1 SLOAD PUSH2 0x3BA SWAP1 PUSH2 0xE49 JUMP JUMPDEST DUP1 ISZERO PUSH2 0x407 JUMPI DUP1 PUSH1 0x1F LT PUSH2 0x3DC JUMPI PUSH2 0x100 DUP1 DUP4 SLOAD DIV MUL DUP4 MSTORE SWAP2 PUSH1 0x20 ADD SWAP2 PUSH2 0x407 JUMP JUMPDEST DUP3 ADD SWAP2 SWAP1 PUSH1 0x0 MSTORE PUSH1 0x20 PUSH1 0x0 KECCAK256 SWAP1 JUMPDEST DUP2 SLOAD DUP2 MSTORE SWAP1 PUSH1 0x1 ADD SWAP1 PUSH1 0x20 ADD DUP1 DUP4 GT PUSH2 0x3EA JUMPI DUP3 SWAP1 SUB PUSH1 0x1F AND DUP3 ADD SWAP2 JUMPDEST POP POP POP POP POP SWAP2 POP SWAP2 POP SWAP2 POP SWAP2 POP SWAP2 JUMP JUMPDEST PUSH2 0x41F PUSH2 0x6C5 JUMP JUMPDEST SWAP2 SWAP1 POP JUMP JUMPDEST PUSH1 0x60 PUSH1 0x1 DUP1 SLOAD DUP1 PUSH1 0x20 MUL PUSH1 0x20 ADD PUSH1 0x40 MLOAD SWAP1 DUP2 ADD PUSH1 0x40 MSTORE DUP1 SWAP3 SWAP2 SWAP1 DUP2 DUP2 MSTORE PUSH1 0x20 ADD PUSH1 0x0 SWAP1 JUMPDEST DUP3 DUP3 LT ISZERO PUSH2 0x62E JUMPI DUP4 DUP3 SWAP1 PUSH1 0x0 MSTORE PUSH1 0x20 PUSH1 0x0 KECCAK256 SWAP1 PUSH1 0x3 MUL ADD PUSH1 0x40 MLOAD DUP1 PUSH1 0x60 ADD PUSH1 0x40 MSTORE SWAP1 DUP2 PUSH1 0x0 DUP3 ADD SLOAD DUP2 MSTORE PUSH1 0x20 ADD PUSH1 0x1 DUP3 ADD DUP1 SLOAD PUSH2 0x485 SWAP1 PUSH2 0xE49 JUMP JUMPDEST DUP1 PUSH1 0x1F ADD PUSH1 0x20 DUP1 SWAP2 DIV MUL PUSH1 0x20 ADD PUSH1 0x40 MLOAD SWAP1 DUP2 ADD PUSH1 0x40 MSTORE DUP1 SWAP3 SWAP2 SWAP1 DUP2 DUP2 MSTORE PUSH1 0x20 ADD DUP3 DUP1 SLOAD PUSH2 0x4B1 SWAP1 PUSH2 0xE49 JUMP JUMPDEST DUP1 ISZERO PUSH2 0x4FE JUMPI DUP1 PUSH1 0x1F LT PUSH2 0x4D3 JUMPI PUSH2 0x100 DUP1 DUP4 SLOAD DIV MUL DUP4 MSTORE SWAP2 PUSH1 0x20 ADD SWAP2 PUSH2 0x4FE JUMP JUMPDEST DUP3 ADD SWAP2 SWAP1 PUSH1 0x0 MSTORE PUSH1 0x20 PUSH1 0x0 KECCAK256 SWAP1 JUMPDEST DUP2 SLOAD DUP2 MSTORE SWAP1 PUSH1 0x1 ADD SWAP1 PUSH1 0x20 ADD DUP1 DUP4 GT PUSH2 0x4E1 JUMPI DUP3 SWAP1 SUB PUSH1 0x1F AND DUP3 ADD SWAP2 JUMPDEST POP POP POP POP POP DUP2 MSTORE PUSH1 0x20 ADD PUSH1 0x2 DUP3 ADD DUP1 SLOAD DUP1 PUSH1 0x20 MUL PUSH1 0x20 ADD PUSH1 0x40 MLOAD SWAP1 DUP2 ADD PUSH1 0x40 MSTORE DUP1 SWAP3 SWAP2 SWAP1 DUP2 DUP2 MSTORE PUSH1 0x20 ADD PUSH1 0x0 SWAP1 JUMPDEST DUP3 DUP3 LT ISZERO PUSH2 0x617 JUMPI DUP4 DUP3 SWAP1 PUSH1 0x0 MSTORE PUSH1 0x20 PUSH1 0x0 KECCAK256 SWAP1 PUSH1 0x3 MUL ADD PUSH1 0x40 MLOAD DUP1 PUSH1 0x60 ADD PUSH1 0x40 MSTORE SWAP1 DUP2 PUSH1 0x0 DUP3 ADD SLOAD DUP2 MSTORE PUSH1 0x20 ADD PUSH1 0x1 DUP3 ADD DUP1 SLOAD PUSH2 0x569 SWAP1 PUSH2 0xE49 JUMP JUMPDEST DUP1 PUSH1 0x1F ADD PUSH1 0x20 DUP1 SWAP2 DIV MUL PUSH1 0x20 ADD PUSH1 0x40 MLOAD SWAP1 DUP2 ADD PUSH1 0x40 MSTORE DUP1 SWAP3 SWAP2 SWAP1 DUP2 DUP2 MSTORE PUSH1 0x20 ADD DUP3 DUP1 SLOAD PUSH2 0x595 SWAP1 PUSH2 0xE49 JUMP JUMPDEST DUP1 ISZERO PUSH2 0x5E2 JUMPI DUP1 PUSH1 0x1F LT PUSH2 0x5B7 JUMPI PUSH2 0x100 DUP1 DUP4 SLOAD DIV MUL DUP4 MSTORE SWAP2 PUSH1 0x20 ADD SWAP2 PUSH2 0x5E2 JUMP JUMPDEST DUP3 ADD SWAP2 SWAP1 PUSH1 0x0 MSTORE PUSH1 0x20 PUSH1 0x0 KECCAK256 SWAP1 JUMPDEST DUP2 SLOAD DUP2 MSTORE SWAP1 PUSH1 0x1 ADD SWAP1 PUSH1 0x20 ADD DUP1 DUP4 GT PUSH2 0x5C5 JUMPI DUP3 SWAP1 SUB PUSH1 0x1F AND DUP3 ADD SWAP2 JUMPDEST POP POP POP POP POP DUP2 MSTORE PUSH1 0x20 ADD PUSH1 0x2 DUP3 ADD PUSH1 0x0 SWAP1 SLOAD SWAP1 PUSH2 0x100 EXP SWAP1 DIV PUSH1 0x1 SIGNEXTEND PUSH1 0x1 SIGNEXTEND PUSH1 0x1 SIGNEXTEND DUP2 MSTORE POP POP DUP2 MSTORE PUSH1 0x20 ADD SWAP1 PUSH1 0x1 ADD SWAP1 PUSH2 0x52C JUMP JUMPDEST POP POP POP POP DUP2 MSTORE POP POP DUP2 MSTORE PUSH1 0x20 ADD SWAP1 PUSH1 0x1 ADD SWAP1 PUSH2 0x448 JUMP JUMPDEST POP POP POP POP SWAP1 POP SWAP1 JUMP JUMPDEST POP JUMP JUMPDEST POP POP POP JUMP JUMPDEST DUP3 DUP1 SLOAD PUSH2 0x64B SWAP1 PUSH2 0xE49 JUMP JUMPDEST SWAP1 PUSH1 0x0 MSTORE PUSH1 0x20 PUSH1 0x0 KECCAK256 SWAP1 PUSH1 0x1F ADD PUSH1 0x20 SWAP1 DIV DUP2 ADD SWAP3 DUP3 PUSH2 0x66D JUMPI PUSH1 0x0 DUP6 SSTORE PUSH2 0x6B4 JUMP JUMPDEST DUP3 PUSH1 0x1F LT PUSH2 0x686 JUMPI DUP1 MLOAD PUSH1 0xFF NOT AND DUP4 DUP1 ADD OR DUP6 SSTORE PUSH2 0x6B4 JUMP JUMPDEST DUP3 DUP1 ADD PUSH1 0x1 ADD DUP6 SSTORE DUP3 ISZERO PUSH2 0x6B4 JUMPI SWAP2 DUP3 ADD JUMPDEST DUP3 DUP2 GT ISZERO PUSH2 0x6B3 JUMPI DUP3 MLOAD DUP3 SSTORE SWAP2 PUSH1 0x20 ADD SWAP2 SWAP1 PUSH1 0x1 ADD SWAP1 PUSH2 0x698 JUMP JUMPDEST JUMPDEST POP SWAP1 POP PUSH2 0x6C1 SWAP2 SWAP1 PUSH2 0x6E9 JUMP JUMPDEST POP SWAP1 JUMP JUMPDEST PUSH1 0x40 MLOAD DUP1 PUSH1 0x60 ADD PUSH1 0x40 MSTORE DUP1 PUSH1 0x0 DUP2 MSTORE PUSH1 0x20 ADD PUSH1 0x60 DUP2 MSTORE PUSH1 0x20 ADD PUSH1 0x0 PUSH1 0x1 SIGNEXTEND DUP2 MSTORE POP SWAP1 JUMP JUMPDEST JUMPDEST DUP1 DUP3 GT ISZERO PUSH2 0x702 JUMPI PUSH1 0x0 DUP2 PUSH1 0x0 SWAP1 SSTORE POP PUSH1 0x1 ADD PUSH2 0x6EA JUMP JUMPDEST POP SWAP1 JUMP JUMPDEST PUSH1 0x0 PUSH2 0x719 PUSH2 0x714 DUP5 PUSH2 0xCB9 JUMP JUMPDEST PUSH2 0xC94 JUMP JUMPDEST SWAP1 POP DUP3 DUP2 MSTORE PUSH1 0x20 DUP2 ADD DUP5 DUP5 DUP5 ADD GT ISZERO PUSH2 0x735 JUMPI PUSH2 0x734 PUSH2 0xF3E JUMP JUMPDEST JUMPDEST PUSH2 0x740 DUP5 DUP3 DUP6 PUSH2 0xE07 JUMP JUMPDEST POP SWAP4 SWAP3 POP POP POP JUMP JUMPDEST PUSH1 0x0 DUP2 CALLDATALOAD SWAP1 POP PUSH2 0x757 DUP2 PUSH2 0xF5E JUMP JUMPDEST SWAP3 SWAP2 POP POP JUMP JUMPDEST PUSH1 0x0 DUP3 PUSH1 0x1F DUP4 ADD SLT PUSH2 0x772 JUMPI PUSH2 0x771 PUSH2 0xF39 JUMP JUMPDEST JUMPDEST DUP2 CALLDATALOAD PUSH2 0x782 DUP5 DUP3 PUSH1 0x20 DUP7 ADD PUSH2 0x706 JUMP JUMPDEST SWAP2 POP POP SWAP3 SWAP2 POP POP JUMP JUMPDEST PUSH1 0x0 DUP2 CALLDATALOAD SWAP1 POP PUSH2 0x79A DUP2 PUSH2 0xF75 JUMP JUMPDEST SWAP3 SWAP2 POP POP JUMP JUMPDEST PUSH1 0x0 PUSH1 0x20 DUP3 DUP5 SUB SLT ISZERO PUSH2 0x7B6 JUMPI PUSH2 0x7B5 PUSH2 0xF48 JUMP JUMPDEST JUMPDEST PUSH1 0x0 DUP3 ADD CALLDATALOAD PUSH8 0xFFFFFFFFFFFFFFFF DUP2 GT ISZERO PUSH2 0x7D4 JUMPI PUSH2 0x7D3 PUSH2 0xF43 JUMP JUMPDEST JUMPDEST PUSH2 0x7E0 DUP5 DUP3 DUP6 ADD PUSH2 0x75D JUMP JUMPDEST SWAP2 POP POP SWAP3 SWAP2 POP POP JUMP JUMPDEST PUSH1 0x0 DUP1 PUSH1 0x40 DUP4 DUP6 SUB SLT ISZERO PUSH2 0x800 JUMPI PUSH2 0x7FF PUSH2 0xF48 JUMP JUMPDEST JUMPDEST PUSH1 0x0 DUP4 ADD CALLDATALOAD PUSH8 0xFFFFFFFFFFFFFFFF DUP2 GT ISZERO PUSH2 0x81E JUMPI PUSH2 0x81D PUSH2 0xF43 JUMP JUMPDEST JUMPDEST PUSH2 0x82A DUP6 DUP3 DUP7 ADD PUSH2 0x75D JUMP JUMPDEST SWAP3 POP POP PUSH1 0x20 PUSH2 0x83B DUP6 DUP3 DUP7 ADD PUSH2 0x748 JUMP JUMPDEST SWAP2 POP POP SWAP3 POP SWAP3 SWAP1 POP JUMP JUMPDEST PUSH1 0x0 PUSH1 0x20 DUP3 DUP5 SUB SLT ISZERO PUSH2 0x85B JUMPI PUSH2 0x85A PUSH2 0xF48 JUMP JUMPDEST JUMPDEST PUSH1 0x0 PUSH2 0x869 DUP5 DUP3 DUP6 ADD PUSH2 0x78B JUMP JUMPDEST SWAP2 POP POP SWAP3 SWAP2 POP POP JUMP JUMPDEST PUSH1 0x0 DUP1 PUSH1 0x0 PUSH1 0x60 DUP5 DUP7 SUB SLT ISZERO PUSH2 0x88B JUMPI PUSH2 0x88A PUSH2 0xF48 JUMP JUMPDEST JUMPDEST PUSH1 0x0 PUSH2 0x899 DUP7 DUP3 DUP8 ADD PUSH2 0x78B JUMP JUMPDEST SWAP4 POP POP PUSH1 0x20 DUP5 ADD CALLDATALOAD PUSH8 0xFFFFFFFFFFFFFFFF DUP2 GT ISZERO PUSH2 0x8BA JUMPI PUSH2 0x8B9 PUSH2 0xF43 JUMP JUMPDEST JUMPDEST PUSH2 0x8C6 DUP7 DUP3 DUP8 ADD PUSH2 0x75D JUMP JUMPDEST SWAP3 POP POP PUSH1 0x40 PUSH2 0x8D7 DUP7 DUP3 DUP8 ADD PUSH2 0x748 JUMP JUMPDEST SWAP2 POP POP SWAP3 POP SWAP3 POP SWAP3 JUMP JUMPDEST PUSH1 0x0 PUSH2 0x8ED DUP4 DUP4 PUSH2 0xAF8 JUMP JUMPDEST SWAP1 POP SWAP3 SWAP2 POP POP JUMP JUMPDEST PUSH1 0x0 PUSH2 0x901 DUP4 DUP4 PUSH2 0xB4F JUMP JUMPDEST SWAP1 POP SWAP3 SWAP2 POP POP JUMP JUMPDEST PUSH1 0x0 PUSH2 0x914 DUP3 PUSH2 0xD0A JUMP JUMPDEST PUSH2 0x91E DUP2 DUP6 PUSH2 0xD45 JUMP JUMPDEST SWAP4 POP DUP4 PUSH1 0x20 DUP3 MUL DUP6 ADD PUSH2 0x930 DUP6 PUSH2 0xCEA JUMP JUMPDEST DUP1 PUSH1 0x0 JUMPDEST DUP6 DUP2 LT ISZERO PUSH2 0x96C JUMPI DUP5 DUP5 SUB DUP10 MSTORE DUP2 MLOAD PUSH2 0x94D DUP6 DUP3 PUSH2 0x8E1 JUMP JUMPDEST SWAP5 POP PUSH2 0x958 DUP4 PUSH2 0xD2B JUMP JUMPDEST SWAP3 POP PUSH1 0x20 DUP11 ADD SWAP10 POP POP PUSH1 0x1 DUP2 ADD SWAP1 POP PUSH2 0x934 JUMP JUMPDEST POP DUP3 SWAP8 POP DUP8 SWAP6 POP POP POP POP POP POP SWAP3 SWAP2 POP POP JUMP JUMPDEST PUSH1 0x0 PUSH2 0x989 DUP3 PUSH2 0xD15 JUMP JUMPDEST PUSH2 0x993 DUP2 DUP6 PUSH2 0xD56 JUMP JUMPDEST SWAP4 POP DUP4 PUSH1 0x20 DUP3 MUL DUP6 ADD PUSH2 0x9A5 DUP6 PUSH2 0xCFA JUMP JUMPDEST DUP1 PUSH1 0x0 JUMPDEST DUP6 DUP2 LT ISZERO PUSH2 0x9E1 JUMPI DUP5 DUP5 SUB DUP10 MSTORE DUP2 MLOAD PUSH2 0x9C2 DUP6 DUP3 PUSH2 0x8F5 JUMP JUMPDEST SWAP5 POP PUSH2 0x9CD DUP4 PUSH2 0xD38 JUMP JUMPDEST SWAP3 POP PUSH1 0x20 DUP11 ADD SWAP10 POP POP PUSH1 0x1 DUP2 ADD SWAP1 POP PUSH2 0x9A9 JUMP JUMPDEST POP DUP3 SWAP8 POP DUP8 SWAP6 POP POP POP POP POP POP SWAP3 SWAP2 POP POP JUMP JUMPDEST PUSH1 0x0 PUSH2 0x9FE DUP3 PUSH2 0xD15 JUMP JUMPDEST PUSH2 0xA08 DUP2 DUP6 PUSH2 0xD67 JUMP JUMPDEST SWAP4 POP DUP4 PUSH1 0x20 DUP3 MUL DUP6 ADD PUSH2 0xA1A DUP6 PUSH2 0xCFA JUMP JUMPDEST DUP1 PUSH1 0x0 JUMPDEST DUP6 DUP2 LT ISZERO PUSH2 0xA56 JUMPI DUP5 DUP5 SUB DUP10 MSTORE DUP2 MLOAD PUSH2 0xA37 DUP6 DUP3 PUSH2 0x8F5 JUMP JUMPDEST SWAP5 POP PUSH2 0xA42 DUP4 PUSH2 0xD38 JUMP JUMPDEST SWAP3 POP PUSH1 0x20 DUP11 ADD SWAP10 POP POP PUSH1 0x1 DUP2 ADD SWAP1 POP PUSH2 0xA1E JUMP JUMPDEST POP DUP3 SWAP8 POP DUP8 SWAP6 POP POP POP POP POP POP SWAP3 SWAP2 POP POP JUMP JUMPDEST PUSH2 0xA71 DUP2 PUSH2 0xDF0 JUMP JUMPDEST DUP3 MSTORE POP POP JUMP JUMPDEST PUSH2 0xA80 DUP2 PUSH2 0xDF0 JUMP JUMPDEST DUP3 MSTORE POP POP JUMP JUMPDEST PUSH1 0x0 PUSH2 0xA91 DUP3 PUSH2 0xD20 JUMP JUMPDEST PUSH2 0xA9B DUP2 DUP6 PUSH2 0xD78 JUMP JUMPDEST SWAP4 POP PUSH2 0xAAB DUP2 DUP6 PUSH1 0x20 DUP7 ADD PUSH2 0xE16 JUMP JUMPDEST PUSH2 0xAB4 DUP2 PUSH2 0xF4D JUMP JUMPDEST DUP5 ADD SWAP2 POP POP SWAP3 SWAP2 POP POP JUMP JUMPDEST PUSH1 0x0 PUSH2 0xACA DUP3 PUSH2 0xD20 JUMP JUMPDEST PUSH2 0xAD4 DUP2 DUP6 PUSH2 0xD89 JUMP JUMPDEST SWAP4 POP PUSH2 0xAE4 DUP2 DUP6 PUSH1 0x20 DUP7 ADD PUSH2 0xE16 JUMP JUMPDEST PUSH2 0xAED DUP2 PUSH2 0xF4D JUMP JUMPDEST DUP5 ADD SWAP2 POP POP SWAP3 SWAP2 POP POP JUMP JUMPDEST PUSH1 0x0 PUSH1 0x60 DUP4 ADD PUSH1 0x0 DUP4 ADD MLOAD PUSH2 0xB10 PUSH1 0x0 DUP7 ADD DUP3 PUSH2 0xBEF JUMP JUMPDEST POP PUSH1 0x20 DUP4 ADD MLOAD DUP5 DUP3 SUB PUSH1 0x20 DUP7 ADD MSTORE PUSH2 0xB28 DUP3 DUP3 PUSH2 0xA86 JUMP JUMPDEST SWAP2 POP POP PUSH1 0x40 DUP4 ADD MLOAD DUP5 DUP3 SUB PUSH1 0x40 DUP7 ADD MSTORE PUSH2 0xB42 DUP3 DUP3 PUSH2 0x97E JUMP JUMPDEST SWAP2 POP POP DUP1 SWAP2 POP POP SWAP3 SWAP2 POP POP JUMP JUMPDEST PUSH1 0x0 PUSH1 0x60 DUP4 ADD PUSH1 0x0 DUP4 ADD MLOAD PUSH2 0xB67 PUSH1 0x0 DUP7 ADD DUP3 PUSH2 0xBEF JUMP JUMPDEST POP PUSH1 0x20 DUP4 ADD MLOAD DUP5 DUP3 SUB PUSH1 0x20 DUP7 ADD MSTORE PUSH2 0xB7F DUP3 DUP3 PUSH2 0xA86 JUMP JUMPDEST SWAP2 POP POP PUSH1 0x40 DUP4 ADD MLOAD PUSH2 0xB94 PUSH1 0x40 DUP7 ADD DUP3 PUSH2 0xA68 JUMP JUMPDEST POP DUP1 SWAP2 POP POP SWAP3 SWAP2 POP POP JUMP JUMPDEST PUSH1 0x0 PUSH1 0x60 DUP4 ADD PUSH1 0x0 DUP4 ADD MLOAD PUSH2 0xBB7 PUSH1 0x0 DUP7 ADD DUP3 PUSH2 0xBEF JUMP JUMPDEST POP PUSH1 0x20 DUP4 ADD MLOAD DUP5 DUP3 SUB PUSH1 0x20 DUP7 ADD MSTORE PUSH2 0xBCF DUP3 DUP3 PUSH2 0xA86 JUMP JUMPDEST SWAP2 POP POP PUSH1 0x40 DUP4 ADD MLOAD PUSH2 0xBE4 PUSH1 0x40 DUP7 ADD DUP3 PUSH2 0xA68 JUMP JUMPDEST POP DUP1 SWAP2 POP POP SWAP3 SWAP2 POP POP JUMP JUMPDEST PUSH2 0xBF8 DUP2 PUSH2 0xDFD JUMP JUMPDEST DUP3 MSTORE POP POP JUMP JUMPDEST PUSH1 0x0 PUSH1 0x20 DUP3 ADD SWAP1 POP DUP2 DUP2 SUB PUSH1 0x0 DUP4 ADD MSTORE PUSH2 0xC18 DUP2 DUP5 PUSH2 0x909 JUMP JUMPDEST SWAP1 POP SWAP3 SWAP2 POP POP JUMP JUMPDEST PUSH1 0x0 PUSH1 0x20 DUP3 ADD SWAP1 POP DUP2 DUP2 SUB PUSH1 0x0 DUP4 ADD MSTORE PUSH2 0xC3A DUP2 DUP5 PUSH2 0x9F3 JUMP JUMPDEST SWAP1 POP SWAP3 SWAP2 POP POP JUMP JUMPDEST PUSH1 0x0 PUSH1 0x40 DUP3 ADD SWAP1 POP DUP2 DUP2 SUB PUSH1 0x0 DUP4 ADD MSTORE PUSH2 0xC5C DUP2 DUP6 PUSH2 0xABF JUMP JUMPDEST SWAP1 POP PUSH2 0xC6B PUSH1 0x20 DUP4 ADD DUP5 PUSH2 0xA77 JUMP JUMPDEST SWAP4 SWAP3 POP POP POP JUMP JUMPDEST PUSH1 0x0 PUSH1 0x20 DUP3 ADD SWAP1 POP DUP2 DUP2 SUB PUSH1 0x0 DUP4 ADD MSTORE PUSH2 0xC8C DUP2 DUP5 PUSH2 0xB9F JUMP JUMPDEST SWAP1 POP SWAP3 SWAP2 POP POP JUMP JUMPDEST PUSH1 0x0 PUSH2 0xC9E PUSH2 0xCAF JUMP JUMPDEST SWAP1 POP PUSH2 0xCAA DUP3 DUP3 PUSH2 0xE7B JUMP JUMPDEST SWAP2 SWAP1 POP JUMP JUMPDEST PUSH1 0x0 PUSH1 0x40 MLOAD SWAP1 POP SWAP1 JUMP JUMPDEST PUSH1 0x0 PUSH8 0xFFFFFFFFFFFFFFFF DUP3 GT ISZERO PUSH2 0xCD4 JUMPI PUSH2 0xCD3 PUSH2 0xF0A JUMP JUMPDEST JUMPDEST PUSH2 0xCDD DUP3 PUSH2 0xF4D JUMP JUMPDEST SWAP1 POP PUSH1 0x20 DUP2 ADD SWAP1 POP SWAP2 SWAP1 POP JUMP JUMPDEST PUSH1 0x0 DUP2 SWAP1 POP PUSH1 0x20 DUP3 ADD SWAP1 POP SWAP2 SWAP1 POP JUMP JUMPDEST PUSH1 0x0 DUP2 SWAP1 POP PUSH1 0x20 DUP3 ADD SWAP1 POP SWAP2 SWAP1 POP JUMP JUMPDEST PUSH1 0x0 DUP2 MLOAD SWAP1 POP SWAP2 SWAP1 POP JUMP JUMPDEST PUSH1 0x0 DUP2 MLOAD SWAP1 POP SWAP2 SWAP1 POP JUMP JUMPDEST PUSH1 0x0 DUP2 MLOAD SWAP1 POP SWAP2 SWAP1 POP JUMP JUMPDEST PUSH1 0x0 PUSH1 0x20 DUP3 ADD SWAP1 POP SWAP2 SWAP1 POP JUMP JUMPDEST PUSH1 0x0 PUSH1 0x20 DUP3 ADD SWAP1 POP SWAP2 SWAP1 POP JUMP JUMPDEST PUSH1 0x0 DUP3 DUP3 MSTORE PUSH1 0x20 DUP3 ADD SWAP1 POP SWAP3 SWAP2 POP POP JUMP JUMPDEST PUSH1 0x0 DUP3 DUP3 MSTORE PUSH1 0x20 DUP3 ADD SWAP1 POP SWAP3 SWAP2 POP POP JUMP JUMPDEST PUSH1 0x0 DUP3 DUP3 MSTORE PUSH1 0x20 DUP3 ADD SWAP1 POP SWAP3 SWAP2 POP POP JUMP JUMPDEST PUSH1 0x0 DUP3 DUP3 MSTORE PUSH1 0x20 DUP3 ADD SWAP1 POP SWAP3 SWAP2 POP POP JUMP JUMPDEST PUSH1 0x0 DUP3 DUP3 MSTORE PUSH1 0x20 DUP3 ADD SWAP1 POP SWAP3 SWAP2 POP POP JUMP JUMPDEST PUSH1 0x0 PUSH2 0xDA5 DUP3 PUSH2 0xDFD JUMP JUMPDEST SWAP2 POP PUSH2 0xDB0 DUP4 PUSH2 0xDFD JUMP JUMPDEST SWAP3 POP DUP3 PUSH32 0xFFFFFFFFFFFFFFFFFFFFFFFFFFFFFFFFFFFFFFFFFFFFFFFFFFFFFFFFFFFFFFFF SUB DUP3 GT ISZERO PUSH2 0xDE5 JUMPI PUSH2 0xDE4 PUSH2 0xEAC JUMP JUMPDEST JUMPDEST DUP3 DUP3 ADD SWAP1 POP SWAP3 SWAP2 POP POP JUMP JUMPDEST PUSH1 0x0 DUP2 PUSH1 0x1 SIGNEXTEND SWAP1 POP SWAP2 SWAP1 POP JUMP JUMPDEST PUSH1 0x0 DUP2 SWAP1 POP SWAP2 SWAP1 POP JUMP JUMPDEST DUP3 DUP2 DUP4 CALLDATACOPY PUSH1 0x0 DUP4 DUP4 ADD MSTORE POP POP POP JUMP JUMPDEST PUSH1 0x0 JUMPDEST DUP4 DUP2 LT ISZERO PUSH2 0xE34 JUMPI DUP1 DUP3 ADD MLOAD DUP2 DUP5 ADD MSTORE PUSH1 0x20 DUP2 ADD SWAP1 POP PUSH2 0xE19 JUMP JUMPDEST DUP4 DUP2 GT ISZERO PUSH2 0xE43 JUMPI PUSH1 0x0 DUP5 DUP5 ADD MSTORE JUMPDEST POP POP POP POP JUMP JUMPDEST PUSH1 0x0 PUSH1 0x2 DUP3 DIV SWAP1 POP PUSH1 0x1 DUP3 AND DUP1 PUSH2 0xE61 JUMPI PUSH1 0x7F DUP3 AND SWAP2 POP JUMPDEST PUSH1 0x20 DUP3 LT DUP2 EQ ISZERO PUSH2 0xE75 JUMPI PUSH2 0xE74 PUSH2 0xEDB JUMP JUMPDEST JUMPDEST POP SWAP2 SWAP1 POP JUMP JUMPDEST PUSH2 0xE84 DUP3 PUSH2 0xF4D JUMP JUMPDEST DUP2 ADD DUP2 DUP2 LT PUSH8 0xFFFFFFFFFFFFFFFF DUP3 GT OR ISZERO PUSH2 0xEA3 JUMPI PUSH2 0xEA2 PUSH2 0xF0A JUMP JUMPDEST JUMPDEST DUP1 PUSH1 0x40 MSTORE POP POP POP JUMP JUMPDEST PUSH32 0x4E487B7100000000000000000000000000000000000000000000000000000000 PUSH1 0x0 MSTORE PUSH1 0x11 PUSH1 0x4 MSTORE PUSH1 0x24 PUSH1 0x0 REVERT JUMPDEST PUSH32 0x4E487B7100000000000000000000000000000000000000000000000000000000 PUSH1 0x0 MSTORE PUSH1 0x22 PUSH1 0x4 MSTORE PUSH1 0x24 PUSH1 0x0 REVERT JUMPDEST PUSH32 0x4E487B7100000000000000000000000000000000000000000000000000000000 PUSH1 0x0 MSTORE PUSH1 0x41 PUSH1 0x4 MSTORE PUSH1 0x24 PUSH1 0x0 REVERT JUMPDEST PUSH1 0x0 DUP1 REVERT JUMPDEST PUSH1 0x0 DUP1 REVERT JUMPDEST PUSH1 0x0 DUP1 REVERT JUMPDEST PUSH1 0x0 DUP1 REVERT JUMPDEST PUSH1 0x0 PUSH1 0x1F NOT PUSH1 0x1F DUP4 ADD AND SWAP1 POP SWAP2 SWAP1 POP JUMP JUMPDEST PUSH2 0xF67 DUP2 PUSH2 0xDF0 JUMP JUMPDEST DUP2 EQ PUSH2 0xF72 JUMPI PUSH1 0x0 DUP1 REVERT JUMPDEST POP JUMP JUMPDEST PUSH2 0xF7E DUP2 PUSH2 0xDFD JUMP JUMPDEST DUP2 EQ PUSH2 0xF89 JUMPI PUSH1 0x0 DUP1 REVERT JUMPDEST POP JUMP INVALID LOG2 PUSH5 0x6970667358 0x22 SLT KECCAK256 0x26 0xB3 0xCA 0x5C 0xF8 SWAP13 0xE0 EQ SUB 0xC7 0xF7 0xB4 0xD8 MSIZE EXTCODECOPY SUB 0x22 0xC6 SWAP11 0xD5 0xC7 PUSH7 0xC8C3AADB4D76CF 0xC6 0xD2 0xAA PUSH5 0x736F6C6343 STOP ADDMOD SMOD STOP CALLER "
				},
				"gasEstimates": {
					"creation": {
						"codeDepositCost": "806800",
						"executionCost": "844",
						"totalCost": "807644"
					},
					"external": {
						"createClient(string)": "infinite",
						"createProduit(string,int16)": "infinite",
						"getAllClients()": "infinite",
						"getAllProducts()": "infinite",
						"getProductByName(string)": "infinite",
						"getProductInfo(uint256)": "infinite",
						"setProduct(uint256,string,int16)": "infinite"
					}
				},
				"methodIdentifiers": {
					"createClient(string)": "e88e9f0f",
					"createProduit(string,int16)": "51401eef",
					"getAllClients()": "e4d7a3d4",
					"getAllProducts()": "02ee3a52",
					"getProductByName(string)": "d4290f83",
					"getProductInfo(uint256)": "79a85e6c",
					"setProduct(uint256,string,int16)": "f1cfa6a5"
				}
			},
			"storageLayout": {
				"storage": [
					{
						"astId": 21,
						"contract": "contracts/ExoSupermarche.sol:supermarche",
						"label": "AllProduits",
						"offset": 0,
						"slot": "0",
						"type": "t_array(t_struct(productData)17_storage)dyn_storage"
					},
					{
						"astId": 25,
						"contract": "contracts/ExoSupermarche.sol:supermarche",
						"label": "AllClients",
						"offset": 0,
						"slot": "1",
						"type": "t_array(t_struct(clientData)10_storage)dyn_storage"
					},
					{
						"astId": 30,
						"contract": "contracts/ExoSupermarche.sol:supermarche",
						"label": "products",
						"offset": 0,
						"slot": "2",
						"type": "t_mapping(t_uint256,t_struct(productData)17_storage)"
					}
				],
				"types": {
					"t_array(t_struct(clientData)10_storage)dyn_storage": {
						"base": "t_struct(clientData)10_storage",
						"encoding": "dynamic_array",
						"label": "struct supermarche.clientData[]",
						"numberOfBytes": "32"
					},
					"t_array(t_struct(productData)17_storage)dyn_storage": {
						"base": "t_struct(productData)17_storage",
						"encoding": "dynamic_array",
						"label": "struct supermarche.productData[]",
						"numberOfBytes": "32"
					},
					"t_int16": {
						"encoding": "inplace",
						"label": "int16",
						"numberOfBytes": "2"
					},
					"t_mapping(t_uint256,t_struct(productData)17_storage)": {
						"encoding": "mapping",
						"key": "t_uint256",
						"label": "mapping(uint256 => struct supermarche.productData)",
						"numberOfBytes": "32",
						"value": "t_struct(productData)17_storage"
					},
					"t_string_storage": {
						"encoding": "bytes",
						"label": "string",
						"numberOfBytes": "32"
					},
					"t_struct(clientData)10_storage": {
						"encoding": "inplace",
						"label": "struct supermarche.clientData",
						"members": [
							{
								"astId": 3,
								"contract": "contracts/ExoSupermarche.sol:supermarche",
								"label": "id",
								"offset": 0,
								"slot": "0",
								"type": "t_uint256"
							},
							{
								"astId": 5,
								"contract": "contracts/ExoSupermarche.sol:supermarche",
								"label": "nom",
								"offset": 0,
								"slot": "1",
								"type": "t_string_storage"
							},
							{
								"astId": 9,
								"contract": "contracts/ExoSupermarche.sol:supermarche",
								"label": "panier",
								"offset": 0,
								"slot": "2",
								"type": "t_array(t_struct(productData)17_storage)dyn_storage"
							}
						],
						"numberOfBytes": "96"
					},
					"t_struct(productData)17_storage": {
						"encoding": "inplace",
						"label": "struct supermarche.productData",
						"members": [
							{
								"astId": 12,
								"contract": "contracts/ExoSupermarche.sol:supermarche",
								"label": "id",
								"offset": 0,
								"slot": "0",
								"type": "t_uint256"
							},
							{
								"astId": 14,
								"contract": "contracts/ExoSupermarche.sol:supermarche",
								"label": "libelle",
								"offset": 0,
								"slot": "1",
								"type": "t_string_storage"
							},
							{
								"astId": 16,
								"contract": "contracts/ExoSupermarche.sol:supermarche",
								"label": "prix",
								"offset": 0,
								"slot": "2",
								"type": "t_int16"
							}
						],
						"numberOfBytes": "96"
					},
					"t_uint256": {
						"encoding": "inplace",
						"label": "uint256",
						"numberOfBytes": "32"
					}
				}
			},
			"userdoc": {
				"kind": "user",
				"methods": {},
				"version": 1
			}
		}
	}
}