{
	"contracts/struct.sol": {
		"structureExo": {
			"abi": [
				{
					"inputs": [
						{
							"internalType": "address",
							"name": "_eleveAddress",
							"type": "address"
						},
						{
							"internalType": "uint256",
							"name": "_note",
							"type": "uint256"
						}
					],
					"name": "addNote",
					"outputs": [],
					"stateMutability": "nonpayable",
					"type": "function"
				},
				{
					"inputs": [
						{
							"internalType": "address",
							"name": "_eleveAddress",
							"type": "address"
						}
					],
					"name": "getNotesPerEleve",
					"outputs": [
						{
							"internalType": "uint256[]",
							"name": "",
							"type": "uint256[]"
						}
					],
					"stateMutability": "view",
					"type": "function"
				}
			],
			"devdoc": {
				"kind": "dev",
				"methods": {},
				"version": 1
			},
			"evm": {
				"assembly": "    /* \"contracts/struct.sol\":26:457  contract structureExo {\r... */\n  mstore(0x40, 0x80)\n  callvalue\n  dup1\n  iszero\n  tag_1\n  jumpi\n  0x00\n  dup1\n  revert\ntag_1:\n  pop\n  dataSize(sub_0)\n  dup1\n  dataOffset(sub_0)\n  0x00\n  codecopy\n  0x00\n  return\nstop\n\nsub_0: assembly {\n        /* \"contracts/struct.sol\":26:457  contract structureExo {\r... */\n      mstore(0x40, 0x80)\n      callvalue\n      dup1\n      iszero\n      tag_1\n      jumpi\n      0x00\n      dup1\n      revert\n    tag_1:\n      pop\n      jumpi(tag_2, lt(calldatasize, 0x04))\n      shr(0xe0, calldataload(0x00))\n      dup1\n      0x7f8a6d1a\n      eq\n      tag_3\n      jumpi\n      dup1\n      0xce5d52e7\n      eq\n      tag_4\n      jumpi\n    tag_2:\n      0x00\n      dup1\n      revert\n        /* \"contracts/struct.sol\":318:454  function getNotesPerEleve(address _eleveAddress) public view returns(uint[] memory){\r... */\n    tag_3:\n      tag_5\n      0x04\n      dup1\n      calldatasize\n      sub\n      dup2\n      add\n      swap1\n      tag_6\n      swap2\n      swap1\n      tag_7\n      jump\t// in\n    tag_6:\n      tag_8\n      jump\t// in\n    tag_5:\n      mload(0x40)\n      tag_9\n      swap2\n      swap1\n      tag_10\n      jump\t// in\n    tag_9:\n      mload(0x40)\n      dup1\n      swap2\n      sub\n      swap1\n      return\n        /* \"contracts/struct.sol\":193:310  function addNote(address _eleveAddress, uint _note) public {\r... */\n    tag_4:\n      tag_11\n      0x04\n      dup1\n      calldatasize\n      sub\n      dup2\n      add\n      swap1\n      tag_12\n      swap2\n      swap1\n      tag_13\n      jump\t// in\n    tag_12:\n      tag_14\n      jump\t// in\n    tag_11:\n      stop\n        /* \"contracts/struct.sol\":318:454  function getNotesPerEleve(address _eleveAddress) public view returns(uint[] memory){\r... */\n    tag_8:\n        /* \"contracts/struct.sol\":387:400  uint[] memory */\n      0x60\n        /* \"contracts/struct.sol\":419:425  Eleves */\n      0x00\n        /* \"contracts/struct.sol\":419:440  Eleves[_eleveAddress] */\n      dup1\n        /* \"contracts/struct.sol\":426:439  _eleveAddress */\n      dup4\n        /* \"contracts/struct.sol\":419:440  Eleves[_eleveAddress] */\n      0xffffffffffffffffffffffffffffffffffffffff\n      and\n      0xffffffffffffffffffffffffffffffffffffffff\n      and\n      dup2\n      mstore\n      0x20\n      add\n      swap1\n      dup2\n      mstore\n      0x20\n      add\n      0x00\n      keccak256\n        /* \"contracts/struct.sol\":419:446  Eleves[_eleveAddress].notes */\n      0x02\n      add\n        /* \"contracts/struct.sol\":412:446  return Eleves[_eleveAddress].notes */\n      dup1\n      sload\n      dup1\n      0x20\n      mul\n      0x20\n      add\n      mload(0x40)\n      swap1\n      dup2\n      add\n      0x40\n      mstore\n      dup1\n      swap3\n      swap2\n      swap1\n      dup2\n      dup2\n      mstore\n      0x20\n      add\n      dup3\n      dup1\n      sload\n      dup1\n      iszero\n      tag_16\n      jumpi\n      0x20\n      mul\n      dup3\n      add\n      swap2\n      swap1\n      0x00\n      mstore\n      keccak256(0x00, 0x20)\n      swap1\n    tag_17:\n      dup2\n      sload\n      dup2\n      mstore\n      0x20\n      add\n      swap1\n      0x01\n      add\n      swap1\n      dup1\n      dup4\n      gt\n      tag_17\n      jumpi\n    tag_16:\n      pop\n      pop\n      pop\n      pop\n      pop\n      swap1\n      pop\n        /* \"contracts/struct.sol\":318:454  function getNotesPerEleve(address _eleveAddress) public view returns(uint[] memory){\r... */\n      swap2\n      swap1\n      pop\n      jump\t// out\n        /* \"contracts/struct.sol\":193:310  function addNote(address _eleveAddress, uint _note) public {\r... */\n    tag_14:\n        /* \"contracts/struct.sol\":263:269  Eleves */\n      0x00\n        /* \"contracts/struct.sol\":263:284  Eleves[_eleveAddress] */\n      dup1\n        /* \"contracts/struct.sol\":270:283  _eleveAddress */\n      dup4\n        /* \"contracts/struct.sol\":263:284  Eleves[_eleveAddress] */\n      0xffffffffffffffffffffffffffffffffffffffff\n      and\n      0xffffffffffffffffffffffffffffffffffffffff\n      and\n      dup2\n      mstore\n      0x20\n      add\n      swap1\n      dup2\n      mstore\n      0x20\n      add\n      0x00\n      keccak256\n        /* \"contracts/struct.sol\":263:290  Eleves[_eleveAddress].notes */\n      0x02\n      add\n        /* \"contracts/struct.sol\":296:301  _note */\n      dup2\n        /* \"contracts/struct.sol\":263:302  Eleves[_eleveAddress].notes.push(_note) */\n      swap1\n      dup1\n      0x01\n      dup2\n      sload\n      add\n      dup1\n      dup3\n      sstore\n      dup1\n      swap2\n      pop\n      pop\n      0x01\n      swap1\n      sub\n      swap1\n      0x00\n      mstore\n      keccak256(0x00, 0x20)\n      add\n      0x00\n      swap1\n      swap2\n      swap1\n      swap2\n      swap1\n      swap2\n      pop\n      sstore\n        /* \"contracts/struct.sol\":193:310  function addNote(address _eleveAddress, uint _note) public {\r... */\n      pop\n      pop\n      jump\t// out\n        /* \"#utility.yul\":7:146   */\n    tag_21:\n        /* \"#utility.yul\":53:58   */\n      0x00\n        /* \"#utility.yul\":91:97   */\n      dup2\n        /* \"#utility.yul\":78:98   */\n      calldataload\n        /* \"#utility.yul\":69:98   */\n      swap1\n      pop\n        /* \"#utility.yul\":107:140   */\n      tag_23\n        /* \"#utility.yul\":134:139   */\n      dup2\n        /* \"#utility.yul\":107:140   */\n      tag_24\n      jump\t// in\n    tag_23:\n        /* \"#utility.yul\":7:146   */\n      swap3\n      swap2\n      pop\n      pop\n      jump\t// out\n        /* \"#utility.yul\":152:291   */\n    tag_25:\n        /* \"#utility.yul\":198:203   */\n      0x00\n        /* \"#utility.yul\":236:242   */\n      dup2\n        /* \"#utility.yul\":223:243   */\n      calldataload\n        /* \"#utility.yul\":214:243   */\n      swap1\n      pop\n        /* \"#utility.yul\":252:285   */\n      tag_27\n        /* \"#utility.yul\":279:284   */\n      dup2\n        /* \"#utility.yul\":252:285   */\n      tag_28\n      jump\t// in\n    tag_27:\n        /* \"#utility.yul\":152:291   */\n      swap3\n      swap2\n      pop\n      pop\n      jump\t// out\n        /* \"#utility.yul\":297:626   */\n    tag_7:\n        /* \"#utility.yul\":356:362   */\n      0x00\n        /* \"#utility.yul\":405:407   */\n      0x20\n        /* \"#utility.yul\":393:402   */\n      dup3\n        /* \"#utility.yul\":384:391   */\n      dup5\n        /* \"#utility.yul\":380:403   */\n      sub\n        /* \"#utility.yul\":376:408   */\n      slt\n        /* \"#utility.yul\":373:492   */\n      iszero\n      tag_30\n      jumpi\n        /* \"#utility.yul\":411:490   */\n      tag_31\n      tag_32\n      jump\t// in\n    tag_31:\n        /* \"#utility.yul\":373:492   */\n    tag_30:\n        /* \"#utility.yul\":531:532   */\n      0x00\n        /* \"#utility.yul\":556:609   */\n      tag_33\n        /* \"#utility.yul\":601:608   */\n      dup5\n        /* \"#utility.yul\":592:598   */\n      dup3\n        /* \"#utility.yul\":581:590   */\n      dup6\n        /* \"#utility.yul\":577:599   */\n      add\n        /* \"#utility.yul\":556:609   */\n      tag_21\n      jump\t// in\n    tag_33:\n        /* \"#utility.yul\":546:609   */\n      swap2\n      pop\n        /* \"#utility.yul\":502:619   */\n      pop\n        /* \"#utility.yul\":297:626   */\n      swap3\n      swap2\n      pop\n      pop\n      jump\t// out\n        /* \"#utility.yul\":632:1106   */\n    tag_13:\n        /* \"#utility.yul\":700:706   */\n      0x00\n        /* \"#utility.yul\":708:714   */\n      dup1\n        /* \"#utility.yul\":757:759   */\n      0x40\n        /* \"#utility.yul\":745:754   */\n      dup4\n        /* \"#utility.yul\":736:743   */\n      dup6\n        /* \"#utility.yul\":732:755   */\n      sub\n        /* \"#utility.yul\":728:760   */\n      slt\n        /* \"#utility.yul\":725:844   */\n      iszero\n      tag_35\n      jumpi\n        /* \"#utility.yul\":763:842   */\n      tag_36\n      tag_32\n      jump\t// in\n    tag_36:\n        /* \"#utility.yul\":725:844   */\n    tag_35:\n        /* \"#utility.yul\":883:884   */\n      0x00\n        /* \"#utility.yul\":908:961   */\n      tag_37\n        /* \"#utility.yul\":953:960   */\n      dup6\n        /* \"#utility.yul\":944:950   */\n      dup3\n        /* \"#utility.yul\":933:942   */\n      dup7\n        /* \"#utility.yul\":929:951   */\n      add\n        /* \"#utility.yul\":908:961   */\n      tag_21\n      jump\t// in\n    tag_37:\n        /* \"#utility.yul\":898:961   */\n      swap3\n      pop\n        /* \"#utility.yul\":854:971   */\n      pop\n        /* \"#utility.yul\":1010:1012   */\n      0x20\n        /* \"#utility.yul\":1036:1089   */\n      tag_38\n        /* \"#utility.yul\":1081:1088   */\n      dup6\n        /* \"#utility.yul\":1072:1078   */\n      dup3\n        /* \"#utility.yul\":1061:1070   */\n      dup7\n        /* \"#utility.yul\":1057:1079   */\n      add\n        /* \"#utility.yul\":1036:1089   */\n      tag_25\n      jump\t// in\n    tag_38:\n        /* \"#utility.yul\":1026:1089   */\n      swap2\n      pop\n        /* \"#utility.yul\":981:1099   */\n      pop\n        /* \"#utility.yul\":632:1106   */\n      swap3\n      pop\n      swap3\n      swap1\n      pop\n      jump\t// out\n        /* \"#utility.yul\":1112:1291   */\n    tag_39:\n        /* \"#utility.yul\":1181:1191   */\n      0x00\n        /* \"#utility.yul\":1202:1248   */\n      tag_41\n        /* \"#utility.yul\":1244:1247   */\n      dup4\n        /* \"#utility.yul\":1236:1242   */\n      dup4\n        /* \"#utility.yul\":1202:1248   */\n      tag_42\n      jump\t// in\n    tag_41:\n        /* \"#utility.yul\":1280:1284   */\n      0x20\n        /* \"#utility.yul\":1275:1278   */\n      dup4\n        /* \"#utility.yul\":1271:1285   */\n      add\n        /* \"#utility.yul\":1257:1285   */\n      swap1\n      pop\n        /* \"#utility.yul\":1112:1291   */\n      swap3\n      swap2\n      pop\n      pop\n      jump\t// out\n        /* \"#utility.yul\":1327:2059   */\n    tag_43:\n        /* \"#utility.yul\":1446:1449   */\n      0x00\n        /* \"#utility.yul\":1475:1529   */\n      tag_45\n        /* \"#utility.yul\":1523:1528   */\n      dup3\n        /* \"#utility.yul\":1475:1529   */\n      tag_46\n      jump\t// in\n    tag_45:\n        /* \"#utility.yul\":1545:1631   */\n      tag_47\n        /* \"#utility.yul\":1624:1630   */\n      dup2\n        /* \"#utility.yul\":1619:1622   */\n      dup6\n        /* \"#utility.yul\":1545:1631   */\n      tag_48\n      jump\t// in\n    tag_47:\n        /* \"#utility.yul\":1538:1631   */\n      swap4\n      pop\n        /* \"#utility.yul\":1655:1711   */\n      tag_49\n        /* \"#utility.yul\":1705:1710   */\n      dup4\n        /* \"#utility.yul\":1655:1711   */\n      tag_50\n      jump\t// in\n    tag_49:\n        /* \"#utility.yul\":1734:1741   */\n      dup1\n        /* \"#utility.yul\":1765:1766   */\n      0x00\n        /* \"#utility.yul\":1750:2034   */\n    tag_51:\n        /* \"#utility.yul\":1775:1781   */\n      dup4\n        /* \"#utility.yul\":1772:1773   */\n      dup2\n        /* \"#utility.yul\":1769:1782   */\n      lt\n        /* \"#utility.yul\":1750:2034   */\n      iszero\n      tag_53\n      jumpi\n        /* \"#utility.yul\":1851:1857   */\n      dup2\n        /* \"#utility.yul\":1845:1858   */\n      mload\n        /* \"#utility.yul\":1878:1941   */\n      tag_54\n        /* \"#utility.yul\":1937:1940   */\n      dup9\n        /* \"#utility.yul\":1922:1935   */\n      dup3\n        /* \"#utility.yul\":1878:1941   */\n      tag_39\n      jump\t// in\n    tag_54:\n        /* \"#utility.yul\":1871:1941   */\n      swap8\n      pop\n        /* \"#utility.yul\":1964:2024   */\n      tag_55\n        /* \"#utility.yul\":2017:2023   */\n      dup4\n        /* \"#utility.yul\":1964:2024   */\n      tag_56\n      jump\t// in\n    tag_55:\n        /* \"#utility.yul\":1954:2024   */\n      swap3\n      pop\n        /* \"#utility.yul\":1810:2034   */\n      pop\n        /* \"#utility.yul\":1797:1798   */\n      0x01\n        /* \"#utility.yul\":1794:1795   */\n      dup2\n        /* \"#utility.yul\":1790:1799   */\n      add\n        /* \"#utility.yul\":1785:1799   */\n      swap1\n      pop\n        /* \"#utility.yul\":1750:2034   */\n      jump(tag_51)\n    tag_53:\n        /* \"#utility.yul\":1754:1768   */\n      pop\n        /* \"#utility.yul\":2050:2053   */\n      dup6\n        /* \"#utility.yul\":2043:2053   */\n      swap4\n      pop\n        /* \"#utility.yul\":1451:2059   */\n      pop\n      pop\n      pop\n        /* \"#utility.yul\":1327:2059   */\n      swap3\n      swap2\n      pop\n      pop\n      jump\t// out\n        /* \"#utility.yul\":2065:2173   */\n    tag_42:\n        /* \"#utility.yul\":2142:2166   */\n      tag_58\n        /* \"#utility.yul\":2160:2165   */\n      dup2\n        /* \"#utility.yul\":2142:2166   */\n      tag_59\n      jump\t// in\n    tag_58:\n        /* \"#utility.yul\":2137:2140   */\n      dup3\n        /* \"#utility.yul\":2130:2167   */\n      mstore\n        /* \"#utility.yul\":2065:2173   */\n      pop\n      pop\n      jump\t// out\n        /* \"#utility.yul\":2179:2552   */\n    tag_10:\n        /* \"#utility.yul\":2322:2326   */\n      0x00\n        /* \"#utility.yul\":2360:2362   */\n      0x20\n        /* \"#utility.yul\":2349:2358   */\n      dup3\n        /* \"#utility.yul\":2345:2363   */\n      add\n        /* \"#utility.yul\":2337:2363   */\n      swap1\n      pop\n        /* \"#utility.yul\":2409:2418   */\n      dup2\n        /* \"#utility.yul\":2403:2407   */\n      dup2\n        /* \"#utility.yul\":2399:2419   */\n      sub\n        /* \"#utility.yul\":2395:2396   */\n      0x00\n        /* \"#utility.yul\":2384:2393   */\n      dup4\n        /* \"#utility.yul\":2380:2397   */\n      add\n        /* \"#utility.yul\":2373:2420   */\n      mstore\n        /* \"#utility.yul\":2437:2545   */\n      tag_61\n        /* \"#utility.yul\":2540:2544   */\n      dup2\n        /* \"#utility.yul\":2531:2537   */\n      dup5\n        /* \"#utility.yul\":2437:2545   */\n      tag_43\n      jump\t// in\n    tag_61:\n        /* \"#utility.yul\":2429:2545   */\n      swap1\n      pop\n        /* \"#utility.yul\":2179:2552   */\n      swap3\n      swap2\n      pop\n      pop\n      jump\t// out\n        /* \"#utility.yul\":2639:2771   */\n    tag_50:\n        /* \"#utility.yul\":2706:2710   */\n      0x00\n        /* \"#utility.yul\":2729:2732   */\n      dup2\n        /* \"#utility.yul\":2721:2732   */\n      swap1\n      pop\n        /* \"#utility.yul\":2759:2763   */\n      0x20\n        /* \"#utility.yul\":2754:2757   */\n      dup3\n        /* \"#utility.yul\":2750:2764   */\n      add\n        /* \"#utility.yul\":2742:2764   */\n      swap1\n      pop\n        /* \"#utility.yul\":2639:2771   */\n      swap2\n      swap1\n      pop\n      jump\t// out\n        /* \"#utility.yul\":2777:2891   */\n    tag_46:\n        /* \"#utility.yul\":2844:2850   */\n      0x00\n        /* \"#utility.yul\":2878:2883   */\n      dup2\n        /* \"#utility.yul\":2872:2884   */\n      mload\n        /* \"#utility.yul\":2862:2884   */\n      swap1\n      pop\n        /* \"#utility.yul\":2777:2891   */\n      swap2\n      swap1\n      pop\n      jump\t// out\n        /* \"#utility.yul\":2897:3010   */\n    tag_56:\n        /* \"#utility.yul\":2967:2971   */\n      0x00\n        /* \"#utility.yul\":2999:3003   */\n      0x20\n        /* \"#utility.yul\":2994:2997   */\n      dup3\n        /* \"#utility.yul\":2990:3004   */\n      add\n        /* \"#utility.yul\":2982:3004   */\n      swap1\n      pop\n        /* \"#utility.yul\":2897:3010   */\n      swap2\n      swap1\n      pop\n      jump\t// out\n        /* \"#utility.yul\":3016:3200   */\n    tag_48:\n        /* \"#utility.yul\":3115:3126   */\n      0x00\n        /* \"#utility.yul\":3149:3155   */\n      dup3\n        /* \"#utility.yul\":3144:3147   */\n      dup3\n        /* \"#utility.yul\":3137:3156   */\n      mstore\n        /* \"#utility.yul\":3189:3193   */\n      0x20\n        /* \"#utility.yul\":3184:3187   */\n      dup3\n        /* \"#utility.yul\":3180:3194   */\n      add\n        /* \"#utility.yul\":3165:3194   */\n      swap1\n      pop\n        /* \"#utility.yul\":3016:3200   */\n      swap3\n      swap2\n      pop\n      pop\n      jump\t// out\n        /* \"#utility.yul\":3206:3302   */\n    tag_68:\n        /* \"#utility.yul\":3243:3250   */\n      0x00\n        /* \"#utility.yul\":3272:3296   */\n      tag_70\n        /* \"#utility.yul\":3290:3295   */\n      dup3\n        /* \"#utility.yul\":3272:3296   */\n      tag_71\n      jump\t// in\n    tag_70:\n        /* \"#utility.yul\":3261:3296   */\n      swap1\n      pop\n        /* \"#utility.yul\":3206:3302   */\n      swap2\n      swap1\n      pop\n      jump\t// out\n        /* \"#utility.yul\":3308:3434   */\n    tag_71:\n        /* \"#utility.yul\":3345:3352   */\n      0x00\n        /* \"#utility.yul\":3385:3427   */\n      0xffffffffffffffffffffffffffffffffffffffff\n        /* \"#utility.yul\":3378:3383   */\n      dup3\n        /* \"#utility.yul\":3374:3428   */\n      and\n        /* \"#utility.yul\":3363:3428   */\n      swap1\n      pop\n        /* \"#utility.yul\":3308:3434   */\n      swap2\n      swap1\n      pop\n      jump\t// out\n        /* \"#utility.yul\":3440:3517   */\n    tag_59:\n        /* \"#utility.yul\":3477:3484   */\n      0x00\n        /* \"#utility.yul\":3506:3511   */\n      dup2\n        /* \"#utility.yul\":3495:3511   */\n      swap1\n      pop\n        /* \"#utility.yul\":3440:3517   */\n      swap2\n      swap1\n      pop\n      jump\t// out\n        /* \"#utility.yul\":3646:3763   */\n    tag_32:\n        /* \"#utility.yul\":3755:3756   */\n      0x00\n        /* \"#utility.yul\":3752:3753   */\n      dup1\n        /* \"#utility.yul\":3745:3757   */\n      revert\n        /* \"#utility.yul\":3769:3891   */\n    tag_24:\n        /* \"#utility.yul\":3842:3866   */\n      tag_78\n        /* \"#utility.yul\":3860:3865   */\n      dup2\n        /* \"#utility.yul\":3842:3866   */\n      tag_68\n      jump\t// in\n    tag_78:\n        /* \"#utility.yul\":3835:3840   */\n      dup2\n        /* \"#utility.yul\":3832:3867   */\n      eq\n        /* \"#utility.yul\":3822:3885   */\n      tag_79\n      jumpi\n        /* \"#utility.yul\":3881:3882   */\n      0x00\n        /* \"#utility.yul\":3878:3879   */\n      dup1\n        /* \"#utility.yul\":3871:3883   */\n      revert\n        /* \"#utility.yul\":3822:3885   */\n    tag_79:\n        /* \"#utility.yul\":3769:3891   */\n      pop\n      jump\t// out\n        /* \"#utility.yul\":3897:4019   */\n    tag_28:\n        /* \"#utility.yul\":3970:3994   */\n      tag_81\n        /* \"#utility.yul\":3988:3993   */\n      dup2\n        /* \"#utility.yul\":3970:3994   */\n      tag_59\n      jump\t// in\n    tag_81:\n        /* \"#utility.yul\":3963:3968   */\n      dup2\n        /* \"#utility.yul\":3960:3995   */\n      eq\n        /* \"#utility.yul\":3950:4013   */\n      tag_82\n      jumpi\n        /* \"#utility.yul\":4009:4010   */\n      0x00\n        /* \"#utility.yul\":4006:4007   */\n      dup1\n        /* \"#utility.yul\":3999:4011   */\n      revert\n        /* \"#utility.yul\":3950:4013   */\n    tag_82:\n        /* \"#utility.yul\":3897:4019   */\n      pop\n      jump\t// out\n\n    auxdata: 0xa2646970667358221220b16449ef72d900038d09bcac4822a13f8372e0e681125e80bfb552bdee5b87b764736f6c63430008070033\n}\n",
				"bytecode": {
					"linkReferences": {},
					"object": "608060405234801561001057600080fd5b506103a8806100206000396000f3fe608060405234801561001057600080fd5b50600436106100365760003560e01c80637f8a6d1a1461003b578063ce5d52e71461006b575b600080fd5b610055600480360381019061005091906101b6565b610087565b60405161006291906102a8565b60405180910390f35b610085600480360381019061008091906101e3565b610120565b005b60606000808373ffffffffffffffffffffffffffffffffffffffff1673ffffffffffffffffffffffffffffffffffffffff16815260200190815260200160002060020180548060200260200160405190810160405280929190818152602001828054801561011457602002820191906000526020600020905b815481526020019060010190808311610100575b50505050509050919050565b6000808373ffffffffffffffffffffffffffffffffffffffff1673ffffffffffffffffffffffffffffffffffffffff1681526020019081526020016000206002018190806001815401808255809150506001900390600052602060002001600090919091909150555050565b60008135905061019b81610344565b92915050565b6000813590506101b08161035b565b92915050565b6000602082840312156101cc576101cb61033f565b5b60006101da8482850161018c565b91505092915050565b600080604083850312156101fa576101f961033f565b5b60006102088582860161018c565b9250506020610219858286016101a1565b9150509250929050565b600061022f8383610299565b60208301905092915050565b6000610246826102da565b61025081856102f2565b935061025b836102ca565b8060005b8381101561028c5781516102738882610223565b975061027e836102e5565b92505060018101905061025f565b5085935050505092915050565b6102a281610335565b82525050565b600060208201905081810360008301526102c2818461023b565b905092915050565b6000819050602082019050919050565b600081519050919050565b6000602082019050919050565b600082825260208201905092915050565b600061030e82610315565b9050919050565b600073ffffffffffffffffffffffffffffffffffffffff82169050919050565b6000819050919050565b600080fd5b61034d81610303565b811461035857600080fd5b50565b61036481610335565b811461036f57600080fd5b5056fea2646970667358221220b16449ef72d900038d09bcac4822a13f8372e0e681125e80bfb552bdee5b87b764736f6c63430008070033",
					"opcodes": "PUSH1 0x80 PUSH1 0x40 MSTORE CALLVALUE DUP1 ISZERO PUSH2 0x10 JUMPI PUSH1 0x0 DUP1 REVERT JUMPDEST POP PUSH2 0x3A8 DUP1 PUSH2 0x20 PUSH1 0x0 CODECOPY PUSH1 0x0 RETURN INVALID PUSH1 0x80 PUSH1 0x40 MSTORE CALLVALUE DUP1 ISZERO PUSH2 0x10 JUMPI PUSH1 0x0 DUP1 REVERT JUMPDEST POP PUSH1 0x4 CALLDATASIZE LT PUSH2 0x36 JUMPI PUSH1 0x0 CALLDATALOAD PUSH1 0xE0 SHR DUP1 PUSH4 0x7F8A6D1A EQ PUSH2 0x3B JUMPI DUP1 PUSH4 0xCE5D52E7 EQ PUSH2 0x6B JUMPI JUMPDEST PUSH1 0x0 DUP1 REVERT JUMPDEST PUSH2 0x55 PUSH1 0x4 DUP1 CALLDATASIZE SUB DUP2 ADD SWAP1 PUSH2 0x50 SWAP2 SWAP1 PUSH2 0x1B6 JUMP JUMPDEST PUSH2 0x87 JUMP JUMPDEST PUSH1 0x40 MLOAD PUSH2 0x62 SWAP2 SWAP1 PUSH2 0x2A8 JUMP JUMPDEST PUSH1 0x40 MLOAD DUP1 SWAP2 SUB SWAP1 RETURN JUMPDEST PUSH2 0x85 PUSH1 0x4 DUP1 CALLDATASIZE SUB DUP2 ADD SWAP1 PUSH2 0x80 SWAP2 SWAP1 PUSH2 0x1E3 JUMP JUMPDEST PUSH2 0x120 JUMP JUMPDEST STOP JUMPDEST PUSH1 0x60 PUSH1 0x0 DUP1 DUP4 PUSH20 0xFFFFFFFFFFFFFFFFFFFFFFFFFFFFFFFFFFFFFFFF AND PUSH20 0xFFFFFFFFFFFFFFFFFFFFFFFFFFFFFFFFFFFFFFFF AND DUP2 MSTORE PUSH1 0x20 ADD SWAP1 DUP2 MSTORE PUSH1 0x20 ADD PUSH1 0x0 KECCAK256 PUSH1 0x2 ADD DUP1 SLOAD DUP1 PUSH1 0x20 MUL PUSH1 0x20 ADD PUSH1 0x40 MLOAD SWAP1 DUP2 ADD PUSH1 0x40 MSTORE DUP1 SWAP3 SWAP2 SWAP1 DUP2 DUP2 MSTORE PUSH1 0x20 ADD DUP3 DUP1 SLOAD DUP1 ISZERO PUSH2 0x114 JUMPI PUSH1 0x20 MUL DUP3 ADD SWAP2 SWAP1 PUSH1 0x0 MSTORE PUSH1 0x20 PUSH1 0x0 KECCAK256 SWAP1 JUMPDEST DUP2 SLOAD DUP2 MSTORE PUSH1 0x20 ADD SWAP1 PUSH1 0x1 ADD SWAP1 DUP1 DUP4 GT PUSH2 0x100 JUMPI JUMPDEST POP POP POP POP POP SWAP1 POP SWAP2 SWAP1 POP JUMP JUMPDEST PUSH1 0x0 DUP1 DUP4 PUSH20 0xFFFFFFFFFFFFFFFFFFFFFFFFFFFFFFFFFFFFFFFF AND PUSH20 0xFFFFFFFFFFFFFFFFFFFFFFFFFFFFFFFFFFFFFFFF AND DUP2 MSTORE PUSH1 0x20 ADD SWAP1 DUP2 MSTORE PUSH1 0x20 ADD PUSH1 0x0 KECCAK256 PUSH1 0x2 ADD DUP2 SWAP1 DUP1 PUSH1 0x1 DUP2 SLOAD ADD DUP1 DUP3 SSTORE DUP1 SWAP2 POP POP PUSH1 0x1 SWAP1 SUB SWAP1 PUSH1 0x0 MSTORE PUSH1 0x20 PUSH1 0x0 KECCAK256 ADD PUSH1 0x0 SWAP1 SWAP2 SWAP1 SWAP2 SWAP1 SWAP2 POP SSTORE POP POP JUMP JUMPDEST PUSH1 0x0 DUP2 CALLDATALOAD SWAP1 POP PUSH2 0x19B DUP2 PUSH2 0x344 JUMP JUMPDEST SWAP3 SWAP2 POP POP JUMP JUMPDEST PUSH1 0x0 DUP2 CALLDATALOAD SWAP1 POP PUSH2 0x1B0 DUP2 PUSH2 0x35B JUMP JUMPDEST SWAP3 SWAP2 POP POP JUMP JUMPDEST PUSH1 0x0 PUSH1 0x20 DUP3 DUP5 SUB SLT ISZERO PUSH2 0x1CC JUMPI PUSH2 0x1CB PUSH2 0x33F JUMP JUMPDEST JUMPDEST PUSH1 0x0 PUSH2 0x1DA DUP5 DUP3 DUP6 ADD PUSH2 0x18C JUMP JUMPDEST SWAP2 POP POP SWAP3 SWAP2 POP POP JUMP JUMPDEST PUSH1 0x0 DUP1 PUSH1 0x40 DUP4 DUP6 SUB SLT ISZERO PUSH2 0x1FA JUMPI PUSH2 0x1F9 PUSH2 0x33F JUMP JUMPDEST JUMPDEST PUSH1 0x0 PUSH2 0x208 DUP6 DUP3 DUP7 ADD PUSH2 0x18C JUMP JUMPDEST SWAP3 POP POP PUSH1 0x20 PUSH2 0x219 DUP6 DUP3 DUP7 ADD PUSH2 0x1A1 JUMP JUMPDEST SWAP2 POP POP SWAP3 POP SWAP3 SWAP1 POP JUMP JUMPDEST PUSH1 0x0 PUSH2 0x22F DUP4 DUP4 PUSH2 0x299 JUMP JUMPDEST PUSH1 0x20 DUP4 ADD SWAP1 POP SWAP3 SWAP2 POP POP JUMP JUMPDEST PUSH1 0x0 PUSH2 0x246 DUP3 PUSH2 0x2DA JUMP JUMPDEST PUSH2 0x250 DUP2 DUP6 PUSH2 0x2F2 JUMP JUMPDEST SWAP4 POP PUSH2 0x25B DUP4 PUSH2 0x2CA JUMP JUMPDEST DUP1 PUSH1 0x0 JUMPDEST DUP4 DUP2 LT ISZERO PUSH2 0x28C JUMPI DUP2 MLOAD PUSH2 0x273 DUP9 DUP3 PUSH2 0x223 JUMP JUMPDEST SWAP8 POP PUSH2 0x27E DUP4 PUSH2 0x2E5 JUMP JUMPDEST SWAP3 POP POP PUSH1 0x1 DUP2 ADD SWAP1 POP PUSH2 0x25F JUMP JUMPDEST POP DUP6 SWAP4 POP POP POP POP SWAP3 SWAP2 POP POP JUMP JUMPDEST PUSH2 0x2A2 DUP2 PUSH2 0x335 JUMP JUMPDEST DUP3 MSTORE POP POP JUMP JUMPDEST PUSH1 0x0 PUSH1 0x20 DUP3 ADD SWAP1 POP DUP2 DUP2 SUB PUSH1 0x0 DUP4 ADD MSTORE PUSH2 0x2C2 DUP2 DUP5 PUSH2 0x23B JUMP JUMPDEST SWAP1 POP SWAP3 SWAP2 POP POP JUMP JUMPDEST PUSH1 0x0 DUP2 SWAP1 POP PUSH1 0x20 DUP3 ADD SWAP1 POP SWAP2 SWAP1 POP JUMP JUMPDEST PUSH1 0x0 DUP2 MLOAD SWAP1 POP SWAP2 SWAP1 POP JUMP JUMPDEST PUSH1 0x0 PUSH1 0x20 DUP3 ADD SWAP1 POP SWAP2 SWAP1 POP JUMP JUMPDEST PUSH1 0x0 DUP3 DUP3 MSTORE PUSH1 0x20 DUP3 ADD SWAP1 POP SWAP3 SWAP2 POP POP JUMP JUMPDEST PUSH1 0x0 PUSH2 0x30E DUP3 PUSH2 0x315 JUMP JUMPDEST SWAP1 POP SWAP2 SWAP1 POP JUMP JUMPDEST PUSH1 0x0 PUSH20 0xFFFFFFFFFFFFFFFFFFFFFFFFFFFFFFFFFFFFFFFF DUP3 AND SWAP1 POP SWAP2 SWAP1 POP JUMP JUMPDEST PUSH1 0x0 DUP2 SWAP1 POP SWAP2 SWAP1 POP JUMP JUMPDEST PUSH1 0x0 DUP1 REVERT JUMPDEST PUSH2 0x34D DUP2 PUSH2 0x303 JUMP JUMPDEST DUP2 EQ PUSH2 0x358 JUMPI PUSH1 0x0 DUP1 REVERT JUMPDEST POP JUMP JUMPDEST PUSH2 0x364 DUP2 PUSH2 0x335 JUMP JUMPDEST DUP2 EQ PUSH2 0x36F JUMPI PUSH1 0x0 DUP1 REVERT JUMPDEST POP JUMP INVALID LOG2 PUSH5 0x6970667358 0x22 SLT KECCAK256 0xB1 PUSH5 0x49EF72D900 SUB DUP14 MULMOD 0xBC 0xAC BASEFEE 0x22 LOG1 EXTCODEHASH DUP4 PUSH19 0xE0E681125E80BFB552BDEE5B87B764736F6C63 NUMBER STOP ADDMOD SMOD STOP CALLER "
				},
				"gasEstimates": {
					"creation": {
						"codeDepositCost": "187200",
						"executionCost": "232",
						"totalCost": "187432"
					},
					"external": {
						"addNote(address,uint256)": "47147",
						"getNotesPerEleve(address)": "infinite"
					}
				},
				"methodIdentifiers": {
					"addNote(address,uint256)": "ce5d52e7",
					"getNotesPerEleve(address)": "7f8a6d1a"
				}
			},
			"storageLayout": {
				"storage": [
					{
						"astId": 14,
						"contract": "contracts/struct.sol:structureExo",
						"label": "Eleves",
						"offset": 0,
						"slot": "0",
						"type": "t_mapping(t_address,t_struct(Eleve)9_storage)"
					}
				],
				"types": {
					"t_address": {
						"encoding": "inplace",
						"label": "address",
						"numberOfBytes": "20"
					},
					"t_array(t_uint256)dyn_storage": {
						"base": "t_uint256",
						"encoding": "dynamic_array",
						"label": "uint256[]",
						"numberOfBytes": "32"
					},
					"t_mapping(t_address,t_struct(Eleve)9_storage)": {
						"encoding": "mapping",
						"key": "t_address",
						"label": "mapping(address => struct structureExo.Eleve)",
						"numberOfBytes": "32",
						"value": "t_struct(Eleve)9_storage"
					},
					"t_string_storage": {
						"encoding": "bytes",
						"label": "string",
						"numberOfBytes": "32"
					},
					"t_struct(Eleve)9_storage": {
						"encoding": "inplace",
						"label": "struct structureExo.Eleve",
						"members": [
							{
								"astId": 3,
								"contract": "contracts/struct.sol:structureExo",
								"label": "nom",
								"offset": 0,
								"slot": "0",
								"type": "t_string_storage"
							},
							{
								"astId": 5,
								"contract": "contracts/struct.sol:structureExo",
								"label": "prenom",
								"offset": 0,
								"slot": "1",
								"type": "t_string_storage"
							},
							{
								"astId": 8,
								"contract": "contracts/struct.sol:structureExo",
								"label": "notes",
								"offset": 0,
								"slot": "2",
								"type": "t_array(t_uint256)dyn_storage"
							}
						],
						"numberOfBytes": "96"
					},
					"t_uint256": {
						"encoding": "inplace",
						"label": "uint256",
						"numberOfBytes": "32"
					}
				}
			},
			"userdoc": {
				"kind": "user",
				"methods": {},
				"version": 1
			}
		}
	}
}