{
	"contracts/ExoSupermarche.sol": {
		"supermarche": {
			"abi": [
				{
					"inputs": [
						{
							"internalType": "string",
							"name": "_libelle",
							"type": "string"
						},
						{
							"internalType": "int16",
							"name": "_prix",
							"type": "int16"
						}
					],
					"name": "createProduit",
					"outputs": [],
					"stateMutability": "nonpayable",
					"type": "function"
				},
				{
					"inputs": [],
					"name": "getAllProducts",
					"outputs": [
						{
							"components": [
								{
									"internalType": "uint256",
									"name": "id",
									"type": "uint256"
								},
								{
									"internalType": "string",
									"name": "libelle",
									"type": "string"
								},
								{
									"internalType": "int16",
									"name": "price",
									"type": "int16"
								}
							],
							"internalType": "struct supermarche.productData[]",
							"name": "",
							"type": "tuple[]"
						}
					],
					"stateMutability": "view",
					"type": "function"
				},
				{
					"inputs": [
						{
							"internalType": "uint256",
							"name": "_id",
							"type": "uint256"
						}
					],
					"name": "getProductInfoById",
					"outputs": [
						{
							"internalType": "string",
							"name": "",
							"type": "string"
						},
						{
							"internalType": "int16",
							"name": "",
							"type": "int16"
						}
					],
					"stateMutability": "view",
					"type": "function"
				},
				{
					"inputs": [
						{
							"internalType": "string",
							"name": "_name",
							"type": "string"
						}
					],
					"name": "getProductInfoByName",
					"outputs": [
						{
							"internalType": "string",
							"name": "",
							"type": "string"
						},
						{
							"internalType": "int16",
							"name": "",
							"type": "int16"
						}
					],
					"stateMutability": "view",
					"type": "function"
				}
			],
			"devdoc": {
				"kind": "dev",
				"methods": {},
				"version": 1
			},
			"evm": {
				"assembly": "    /* \"contracts/ExoSupermarche.sol\":59:1307  contract supermarche {\r... */\n  mstore(0x40, 0x80)\n  callvalue\n  dup1\n  iszero\n  tag_1\n  jumpi\n  0x00\n  dup1\n  revert\ntag_1:\n  pop\n  dataSize(sub_0)\n  dup1\n  dataOffset(sub_0)\n  0x00\n  codecopy\n  0x00\n  return\nstop\n\nsub_0: assembly {\n        /* \"contracts/ExoSupermarche.sol\":59:1307  contract supermarche {\r... */\n      mstore(0x40, 0x80)\n      callvalue\n      dup1\n      iszero\n      tag_1\n      jumpi\n      0x00\n      dup1\n      revert\n    tag_1:\n      pop\n      jumpi(tag_2, lt(calldatasize, 0x04))\n      shr(0xe0, calldataload(0x00))\n      dup1\n      0x02ee3a52\n      eq\n      tag_3\n      jumpi\n      dup1\n      0x51401eef\n      eq\n      tag_4\n      jumpi\n      dup1\n      0x65c3e805\n      eq\n      tag_5\n      jumpi\n      dup1\n      0xd7f4933c\n      eq\n      tag_6\n      jumpi\n    tag_2:\n      0x00\n      dup1\n      revert\n        /* \"contracts/ExoSupermarche.sol\":1188:1293  function getAllProducts() public view returns(productData[] memory) {\r... */\n    tag_3:\n      tag_7\n      tag_8\n      jump\t// in\n    tag_7:\n      mload(0x40)\n      tag_9\n      swap2\n      swap1\n      tag_10\n      jump\t// in\n    tag_9:\n      mload(0x40)\n      dup1\n      swap2\n      sub\n      swap1\n      return\n        /* \"contracts/ExoSupermarche.sol\":463:747  function createProduit(string memory _libelle, int16 _prix) public {\r... */\n    tag_4:\n      tag_11\n      0x04\n      dup1\n      calldatasize\n      sub\n      dup2\n      add\n      swap1\n      tag_12\n      swap2\n      swap1\n      tag_13\n      jump\t// in\n    tag_12:\n      tag_14\n      jump\t// in\n    tag_11:\n      stop\n        /* \"contracts/ExoSupermarche.sol\":758:953  function getProductInfoById(uint _id) public view returns(string memory, int16) {\r... */\n    tag_5:\n      tag_15\n      0x04\n      dup1\n      calldatasize\n      sub\n      dup2\n      add\n      swap1\n      tag_16\n      swap2\n      swap1\n      tag_17\n      jump\t// in\n    tag_16:\n      tag_18\n      jump\t// in\n    tag_15:\n      mload(0x40)\n      tag_19\n      swap3\n      swap2\n      swap1\n      tag_20\n      jump\t// in\n    tag_19:\n      mload(0x40)\n      dup1\n      swap2\n      sub\n      swap1\n      return\n        /* \"contracts/ExoSupermarche.sol\":962:1178  function getProductInfoByName(string memory _name) public view returns(string memory, int16) {\r... */\n    tag_6:\n      tag_21\n      0x04\n      dup1\n      calldatasize\n      sub\n      dup2\n      add\n      swap1\n      tag_22\n      swap2\n      swap1\n      tag_23\n      jump\t// in\n    tag_22:\n      tag_24\n      jump\t// in\n    tag_21:\n      mload(0x40)\n      tag_25\n      swap3\n      swap2\n      swap1\n      tag_20\n      jump\t// in\n    tag_25:\n      mload(0x40)\n      dup1\n      swap2\n      sub\n      swap1\n      return\n        /* \"contracts/ExoSupermarche.sol\":1188:1293  function getAllProducts() public view returns(productData[] memory) {\r... */\n    tag_8:\n        /* \"contracts/ExoSupermarche.sol\":1234:1254  productData[] memory */\n      0x60\n        /* \"contracts/ExoSupermarche.sol\":1274:1285  AllProduits */\n      0x00\n        /* \"contracts/ExoSupermarche.sol\":1267:1285  return AllProduits */\n      dup1\n      sload\n      dup1\n      0x20\n      mul\n      0x20\n      add\n      mload(0x40)\n      swap1\n      dup2\n      add\n      0x40\n      mstore\n      dup1\n      swap3\n      swap2\n      swap1\n      dup2\n      dup2\n      mstore\n      0x20\n      add\n      0x00\n      swap1\n    tag_27:\n      dup3\n      dup3\n      lt\n      iszero\n      tag_28\n      jumpi\n      dup4\n      dup3\n      swap1\n      0x00\n      mstore\n      keccak256(0x00, 0x20)\n      swap1\n      0x03\n      mul\n      add\n      mload(0x40)\n      dup1\n      0x60\n      add\n      0x40\n      mstore\n      swap1\n      dup2\n      0x00\n      dup3\n      add\n      sload\n      dup2\n      mstore\n      0x20\n      add\n      0x01\n      dup3\n      add\n      dup1\n      sload\n      tag_30\n      swap1\n      tag_31\n      jump\t// in\n    tag_30:\n      dup1\n      0x1f\n      add\n      0x20\n      dup1\n      swap2\n      div\n      mul\n      0x20\n      add\n      mload(0x40)\n      swap1\n      dup2\n      add\n      0x40\n      mstore\n      dup1\n      swap3\n      swap2\n      swap1\n      dup2\n      dup2\n      mstore\n      0x20\n      add\n      dup3\n      dup1\n      sload\n      tag_32\n      swap1\n      tag_31\n      jump\t// in\n    tag_32:\n      dup1\n      iszero\n      tag_33\n      jumpi\n      dup1\n      0x1f\n      lt\n      tag_34\n      jumpi\n      0x0100\n      dup1\n      dup4\n      sload\n      div\n      mul\n      dup4\n      mstore\n      swap2\n      0x20\n      add\n      swap2\n      jump(tag_33)\n    tag_34:\n      dup3\n      add\n      swap2\n      swap1\n      0x00\n      mstore\n      keccak256(0x00, 0x20)\n      swap1\n    tag_35:\n      dup2\n      sload\n      dup2\n      mstore\n      swap1\n      0x01\n      add\n      swap1\n      0x20\n      add\n      dup1\n      dup4\n      gt\n      tag_35\n      jumpi\n      dup3\n      swap1\n      sub\n      0x1f\n      and\n      dup3\n      add\n      swap2\n    tag_33:\n      pop\n      pop\n      pop\n      pop\n      pop\n      dup2\n      mstore\n      0x20\n      add\n      0x02\n      dup3\n      add\n      0x00\n      swap1\n      sload\n      swap1\n      0x0100\n      exp\n      swap1\n      div\n      0x01\n      signextend\n      0x01\n      signextend\n      0x01\n      signextend\n      dup2\n      mstore\n      pop\n      pop\n      dup2\n      mstore\n      0x20\n      add\n      swap1\n      0x01\n      add\n      swap1\n      jump(tag_27)\n    tag_28:\n      pop\n      pop\n      pop\n      pop\n      swap1\n      pop\n        /* \"contracts/ExoSupermarche.sol\":1188:1293  function getAllProducts() public view returns(productData[] memory) {\r... */\n      swap1\n      jump\t// out\n        /* \"contracts/ExoSupermarche.sol\":463:747  function createProduit(string memory _libelle, int16 _prix) public {\r... */\n    tag_14:\n        /* \"contracts/ExoSupermarche.sol\":541:548  uint id */\n      0x00\n        /* \"contracts/ExoSupermarche.sol\":572:573  1 */\n      0x01\n        /* \"contracts/ExoSupermarche.sol\":551:562  AllProduits */\n      0x00\n        /* \"contracts/ExoSupermarche.sol\":551:569  AllProduits.length */\n      dup1\n      sload\n      swap1\n      pop\n        /* \"contracts/ExoSupermarche.sol\":551:573  AllProduits.length + 1 */\n      tag_37\n      swap2\n      swap1\n      tag_38\n      jump\t// in\n    tag_37:\n        /* \"contracts/ExoSupermarche.sol\":541:573  uint id = AllProduits.length + 1 */\n      swap1\n      pop\n        /* \"contracts/ExoSupermarche.sol\":584:604  productData memory p */\n      0x00\n        /* \"contracts/ExoSupermarche.sol\":607:639  productData(id, _libelle, _prix) */\n      mload(0x40)\n      dup1\n      0x60\n      add\n      0x40\n      mstore\n      dup1\n        /* \"contracts/ExoSupermarche.sol\":619:621  id */\n      dup4\n        /* \"contracts/ExoSupermarche.sol\":607:639  productData(id, _libelle, _prix) */\n      dup2\n      mstore\n      0x20\n      add\n        /* \"contracts/ExoSupermarche.sol\":623:631  _libelle */\n      dup6\n        /* \"contracts/ExoSupermarche.sol\":607:639  productData(id, _libelle, _prix) */\n      dup2\n      mstore\n      0x20\n      add\n        /* \"contracts/ExoSupermarche.sol\":633:638  _prix */\n      dup5\n        /* \"contracts/ExoSupermarche.sol\":607:639  productData(id, _libelle, _prix) */\n      0x01\n      signextend\n      dup2\n      mstore\n      pop\n        /* \"contracts/ExoSupermarche.sol\":584:639  productData memory p = productData(id, _libelle, _prix) */\n      swap1\n      pop\n        /* \"contracts/ExoSupermarche.sol\":650:661  AllProduits */\n      0x00\n        /* \"contracts/ExoSupermarche.sol\":667:668  p */\n      dup2\n        /* \"contracts/ExoSupermarche.sol\":650:669  AllProduits.push(p) */\n      swap1\n      dup1\n      0x01\n      dup2\n      sload\n      add\n      dup1\n      dup3\n      sstore\n      dup1\n      swap2\n      pop\n      pop\n      0x01\n      swap1\n      sub\n      swap1\n      0x00\n      mstore\n      keccak256(0x00, 0x20)\n      swap1\n      0x03\n      mul\n      add\n      0x00\n      swap1\n      swap2\n      swap1\n      swap2\n      swap1\n      swap2\n      pop\n      0x00\n      dup3\n      add\n      mload\n      dup2\n      0x00\n      add\n      sstore\n      0x20\n      dup3\n      add\n      mload\n      dup2\n      0x01\n      add\n      swap1\n      dup1\n      mload\n      swap1\n      0x20\n      add\n      swap1\n      tag_40\n      swap3\n      swap2\n      swap1\n      tag_41\n      jump\t// in\n    tag_40:\n      pop\n      0x40\n      dup3\n      add\n      mload\n      dup2\n      0x02\n      add\n      exp(0x0100, 0x00)\n      dup2\n      sload\n      dup2\n      0xffff\n      mul\n      not\n      and\n      swap1\n      dup4\n      0x01\n      signextend\n      0xffff\n      and\n      mul\n      or\n      swap1\n      sstore\n      pop\n      pop\n      pop\n        /* \"contracts/ExoSupermarche.sol\":699:700  p */\n      dup1\n        /* \"contracts/ExoSupermarche.sol\":680:692  productsById */\n      0x02\n        /* \"contracts/ExoSupermarche.sol\":680:696  productsById[id] */\n      0x00\n        /* \"contracts/ExoSupermarche.sol\":693:695  id */\n      dup5\n        /* \"contracts/ExoSupermarche.sol\":680:696  productsById[id] */\n      dup2\n      mstore\n      0x20\n      add\n      swap1\n      dup2\n      mstore\n      0x20\n      add\n      0x00\n      keccak256\n        /* \"contracts/ExoSupermarche.sol\":680:700  productsById[id] = p */\n      0x00\n      dup3\n      add\n      mload\n      dup2\n      0x00\n      add\n      sstore\n      0x20\n      dup3\n      add\n      mload\n      dup2\n      0x01\n      add\n      swap1\n      dup1\n      mload\n      swap1\n      0x20\n      add\n      swap1\n      tag_42\n      swap3\n      swap2\n      swap1\n      tag_41\n      jump\t// in\n    tag_42:\n      pop\n      0x40\n      dup3\n      add\n      mload\n      dup2\n      0x02\n      add\n      exp(0x0100, 0x00)\n      dup2\n      sload\n      dup2\n      0xffff\n      mul\n      not\n      and\n      swap1\n      dup4\n      0x01\n      signextend\n      0xffff\n      and\n      mul\n      or\n      swap1\n      sstore\n      pop\n      swap1\n      pop\n      pop\n        /* \"contracts/ExoSupermarche.sol\":738:739  p */\n      dup1\n        /* \"contracts/ExoSupermarche.sol\":711:725  productsByName */\n      0x03\n        /* \"contracts/ExoSupermarche.sol\":726:734  _libelle */\n      dup6\n        /* \"contracts/ExoSupermarche.sol\":711:735  productsByName[_libelle] */\n      mload(0x40)\n      tag_43\n      swap2\n      swap1\n      tag_44\n      jump\t// in\n    tag_43:\n      swap1\n      dup2\n      mstore\n      0x20\n      add\n      mload(0x40)\n      dup1\n      swap2\n      sub\n      swap1\n      keccak256\n        /* \"contracts/ExoSupermarche.sol\":711:739  productsByName[_libelle] = p */\n      0x00\n      dup3\n      add\n      mload\n      dup2\n      0x00\n      add\n      sstore\n      0x20\n      dup3\n      add\n      mload\n      dup2\n      0x01\n      add\n      swap1\n      dup1\n      mload\n      swap1\n      0x20\n      add\n      swap1\n      tag_45\n      swap3\n      swap2\n      swap1\n      tag_41\n      jump\t// in\n    tag_45:\n      pop\n      0x40\n      dup3\n      add\n      mload\n      dup2\n      0x02\n      add\n      exp(0x0100, 0x00)\n      dup2\n      sload\n      dup2\n      0xffff\n      mul\n      not\n      and\n      swap1\n      dup4\n      0x01\n      signextend\n      0xffff\n      and\n      mul\n      or\n      swap1\n      sstore\n      pop\n      swap1\n      pop\n      pop\n        /* \"contracts/ExoSupermarche.sol\":530:747  {\r... */\n      pop\n      pop\n        /* \"contracts/ExoSupermarche.sol\":463:747  function createProduit(string memory _libelle, int16 _prix) public {\r... */\n      pop\n      pop\n      jump\t// out\n        /* \"contracts/ExoSupermarche.sol\":758:953  function getProductInfoById(uint _id) public view returns(string memory, int16) {\r... */\n    tag_18:\n        /* \"contracts/ExoSupermarche.sol\":816:829  string memory */\n      0x60\n        /* \"contracts/ExoSupermarche.sol\":831:836  int16 */\n      0x00\n        /* \"contracts/ExoSupermarche.sol\":871:883  productsById */\n      0x02\n        /* \"contracts/ExoSupermarche.sol\":871:888  productsById[_id] */\n      0x00\n        /* \"contracts/ExoSupermarche.sol\":884:887  _id */\n      dup5\n        /* \"contracts/ExoSupermarche.sol\":871:888  productsById[_id] */\n      dup2\n      mstore\n      0x20\n      add\n      swap1\n      dup2\n      mstore\n      0x20\n      add\n      0x00\n      keccak256\n        /* \"contracts/ExoSupermarche.sol\":871:896  productsById[_id].libelle */\n      0x01\n      add\n        /* \"contracts/ExoSupermarche.sol\":911:923  productsById */\n      0x02\n        /* \"contracts/ExoSupermarche.sol\":911:928  productsById[_id] */\n      0x00\n        /* \"contracts/ExoSupermarche.sol\":924:927  _id */\n      dup6\n        /* \"contracts/ExoSupermarche.sol\":911:928  productsById[_id] */\n      dup2\n      mstore\n      0x20\n      add\n      swap1\n      dup2\n      mstore\n      0x20\n      add\n      0x00\n      keccak256\n        /* \"contracts/ExoSupermarche.sol\":911:934  productsById[_id].price */\n      0x02\n      add\n      0x00\n      swap1\n      sload\n      swap1\n      0x0100\n      exp\n      swap1\n      div\n      0x01\n      signextend\n        /* \"contracts/ExoSupermarche.sol\":849:945  return (\r... */\n      dup2\n      dup1\n      sload\n      tag_47\n      swap1\n      tag_31\n      jump\t// in\n    tag_47:\n      dup1\n      0x1f\n      add\n      0x20\n      dup1\n      swap2\n      div\n      mul\n      0x20\n      add\n      mload(0x40)\n      swap1\n      dup2\n      add\n      0x40\n      mstore\n      dup1\n      swap3\n      swap2\n      swap1\n      dup2\n      dup2\n      mstore\n      0x20\n      add\n      dup3\n      dup1\n      sload\n      tag_48\n      swap1\n      tag_31\n      jump\t// in\n    tag_48:\n      dup1\n      iszero\n      tag_49\n      jumpi\n      dup1\n      0x1f\n      lt\n      tag_50\n      jumpi\n      0x0100\n      dup1\n      dup4\n      sload\n      div\n      mul\n      dup4\n      mstore\n      swap2\n      0x20\n      add\n      swap2\n      jump(tag_49)\n    tag_50:\n      dup3\n      add\n      swap2\n      swap1\n      0x00\n      mstore\n      keccak256(0x00, 0x20)\n      swap1\n    tag_51:\n      dup2\n      sload\n      dup2\n      mstore\n      swap1\n      0x01\n      add\n      swap1\n      0x20\n      add\n      dup1\n      dup4\n      gt\n      tag_51\n      jumpi\n      dup3\n      swap1\n      sub\n      0x1f\n      and\n      dup3\n      add\n      swap2\n    tag_49:\n      pop\n      pop\n      pop\n      pop\n      pop\n      swap2\n      pop\n      swap2\n      pop\n      swap2\n      pop\n        /* \"contracts/ExoSupermarche.sol\":758:953  function getProductInfoById(uint _id) public view returns(string memory, int16) {\r... */\n      swap2\n      pop\n      swap2\n      jump\t// out\n        /* \"contracts/ExoSupermarche.sol\":962:1178  function getProductInfoByName(string memory _name) public view returns(string memory, int16) {\r... */\n    tag_24:\n        /* \"contracts/ExoSupermarche.sol\":1033:1046  string memory */\n      0x60\n        /* \"contracts/ExoSupermarche.sol\":1048:1053  int16 */\n      0x00\n        /* \"contracts/ExoSupermarche.sol\":1088:1102  productsByName */\n      0x03\n        /* \"contracts/ExoSupermarche.sol\":1103:1108  _name */\n      dup4\n        /* \"contracts/ExoSupermarche.sol\":1088:1109  productsByName[_name] */\n      mload(0x40)\n      tag_53\n      swap2\n      swap1\n      tag_44\n      jump\t// in\n    tag_53:\n      swap1\n      dup2\n      mstore\n      0x20\n      add\n      mload(0x40)\n      dup1\n      swap2\n      sub\n      swap1\n      keccak256\n        /* \"contracts/ExoSupermarche.sol\":1088:1117  productsByName[_name].libelle */\n      0x01\n      add\n        /* \"contracts/ExoSupermarche.sol\":1132:1146  productsByName */\n      0x03\n        /* \"contracts/ExoSupermarche.sol\":1147:1152  _name */\n      dup5\n        /* \"contracts/ExoSupermarche.sol\":1132:1153  productsByName[_name] */\n      mload(0x40)\n      tag_54\n      swap2\n      swap1\n      tag_44\n      jump\t// in\n    tag_54:\n      swap1\n      dup2\n      mstore\n      0x20\n      add\n      mload(0x40)\n      dup1\n      swap2\n      sub\n      swap1\n      keccak256\n        /* \"contracts/ExoSupermarche.sol\":1132:1159  productsByName[_name].price */\n      0x02\n      add\n      0x00\n      swap1\n      sload\n      swap1\n      0x0100\n      exp\n      swap1\n      div\n      0x01\n      signextend\n        /* \"contracts/ExoSupermarche.sol\":1066:1170  return (\r... */\n      dup2\n      dup1\n      sload\n      tag_55\n      swap1\n      tag_31\n      jump\t// in\n    tag_55:\n      dup1\n      0x1f\n      add\n      0x20\n      dup1\n      swap2\n      div\n      mul\n      0x20\n      add\n      mload(0x40)\n      swap1\n      dup2\n      add\n      0x40\n      mstore\n      dup1\n      swap3\n      swap2\n      swap1\n      dup2\n      dup2\n      mstore\n      0x20\n      add\n      dup3\n      dup1\n      sload\n      tag_56\n      swap1\n      tag_31\n      jump\t// in\n    tag_56:\n      dup1\n      iszero\n      tag_57\n      jumpi\n      dup1\n      0x1f\n      lt\n      tag_58\n      jumpi\n      0x0100\n      dup1\n      dup4\n      sload\n      div\n      mul\n      dup4\n      mstore\n      swap2\n      0x20\n      add\n      swap2\n      jump(tag_57)\n    tag_58:\n      dup3\n      add\n      swap2\n      swap1\n      0x00\n      mstore\n      keccak256(0x00, 0x20)\n      swap1\n    tag_59:\n      dup2\n      sload\n      dup2\n      mstore\n      swap1\n      0x01\n      add\n      swap1\n      0x20\n      add\n      dup1\n      dup4\n      gt\n      tag_59\n      jumpi\n      dup3\n      swap1\n      sub\n      0x1f\n      and\n      dup3\n      add\n      swap2\n    tag_57:\n      pop\n      pop\n      pop\n      pop\n      pop\n      swap2\n      pop\n      swap2\n      pop\n      swap2\n      pop\n        /* \"contracts/ExoSupermarche.sol\":962:1178  function getProductInfoByName(string memory _name) public view returns(string memory, int16) {\r... */\n      swap2\n      pop\n      swap2\n      jump\t// out\n    tag_41:\n      dup3\n      dup1\n      sload\n      tag_60\n      swap1\n      tag_31\n      jump\t// in\n    tag_60:\n      swap1\n      0x00\n      mstore\n      keccak256(0x00, 0x20)\n      swap1\n      0x1f\n      add\n      0x20\n      swap1\n      div\n      dup2\n      add\n      swap3\n      dup3\n      tag_62\n      jumpi\n      0x00\n      dup6\n      sstore\n      jump(tag_61)\n    tag_62:\n      dup3\n      0x1f\n      lt\n      tag_63\n      jumpi\n      dup1\n      mload\n      not(0xff)\n      and\n      dup4\n      dup1\n      add\n      or\n      dup6\n      sstore\n      jump(tag_61)\n    tag_63:\n      dup3\n      dup1\n      add\n      0x01\n      add\n      dup6\n      sstore\n      dup3\n      iszero\n      tag_61\n      jumpi\n      swap2\n      dup3\n      add\n    tag_64:\n      dup3\n      dup2\n      gt\n      iszero\n      tag_65\n      jumpi\n      dup3\n      mload\n      dup3\n      sstore\n      swap2\n      0x20\n      add\n      swap2\n      swap1\n      0x01\n      add\n      swap1\n      jump(tag_64)\n    tag_65:\n    tag_61:\n      pop\n      swap1\n      pop\n      tag_66\n      swap2\n      swap1\n      tag_67\n      jump\t// in\n    tag_66:\n      pop\n      swap1\n      jump\t// out\n    tag_67:\n    tag_68:\n      dup1\n      dup3\n      gt\n      iszero\n      tag_69\n      jumpi\n      0x00\n      dup2\n      0x00\n      swap1\n      sstore\n      pop\n      0x01\n      add\n      jump(tag_68)\n    tag_69:\n      pop\n      swap1\n      jump\t// out\n        /* \"#utility.yul\":7:419   */\n    tag_71:\n        /* \"#utility.yul\":85:90   */\n      0x00\n        /* \"#utility.yul\":110:176   */\n      tag_73\n        /* \"#utility.yul\":126:175   */\n      tag_74\n        /* \"#utility.yul\":168:174   */\n      dup5\n        /* \"#utility.yul\":126:175   */\n      tag_75\n      jump\t// in\n    tag_74:\n        /* \"#utility.yul\":110:176   */\n      tag_76\n      jump\t// in\n    tag_73:\n        /* \"#utility.yul\":101:176   */\n      swap1\n      pop\n        /* \"#utility.yul\":199:205   */\n      dup3\n        /* \"#utility.yul\":192:197   */\n      dup2\n        /* \"#utility.yul\":185:206   */\n      mstore\n        /* \"#utility.yul\":237:241   */\n      0x20\n        /* \"#utility.yul\":230:235   */\n      dup2\n        /* \"#utility.yul\":226:242   */\n      add\n        /* \"#utility.yul\":275:278   */\n      dup5\n        /* \"#utility.yul\":266:272   */\n      dup5\n        /* \"#utility.yul\":261:264   */\n      dup5\n        /* \"#utility.yul\":257:273   */\n      add\n        /* \"#utility.yul\":254:279   */\n      gt\n        /* \"#utility.yul\":251:363   */\n      iszero\n      tag_77\n      jumpi\n        /* \"#utility.yul\":282:361   */\n      tag_78\n      tag_79\n      jump\t// in\n    tag_78:\n        /* \"#utility.yul\":251:363   */\n    tag_77:\n        /* \"#utility.yul\":372:413   */\n      tag_80\n        /* \"#utility.yul\":406:412   */\n      dup5\n        /* \"#utility.yul\":401:404   */\n      dup3\n        /* \"#utility.yul\":396:399   */\n      dup6\n        /* \"#utility.yul\":372:413   */\n      tag_81\n      jump\t// in\n    tag_80:\n        /* \"#utility.yul\":91:419   */\n      pop\n        /* \"#utility.yul\":7:419   */\n      swap4\n      swap3\n      pop\n      pop\n      pop\n      jump\t// out\n        /* \"#utility.yul\":425:560   */\n    tag_82:\n        /* \"#utility.yul\":469:474   */\n      0x00\n        /* \"#utility.yul\":507:513   */\n      dup2\n        /* \"#utility.yul\":494:514   */\n      calldataload\n        /* \"#utility.yul\":485:514   */\n      swap1\n      pop\n        /* \"#utility.yul\":523:554   */\n      tag_84\n        /* \"#utility.yul\":548:553   */\n      dup2\n        /* \"#utility.yul\":523:554   */\n      tag_85\n      jump\t// in\n    tag_84:\n        /* \"#utility.yul\":425:560   */\n      swap3\n      swap2\n      pop\n      pop\n      jump\t// out\n        /* \"#utility.yul\":580:920   */\n    tag_86:\n        /* \"#utility.yul\":636:641   */\n      0x00\n        /* \"#utility.yul\":685:688   */\n      dup3\n        /* \"#utility.yul\":678:682   */\n      0x1f\n        /* \"#utility.yul\":670:676   */\n      dup4\n        /* \"#utility.yul\":666:683   */\n      add\n        /* \"#utility.yul\":662:689   */\n      slt\n        /* \"#utility.yul\":652:774   */\n      tag_88\n      jumpi\n        /* \"#utility.yul\":693:772   */\n      tag_89\n      tag_90\n      jump\t// in\n    tag_89:\n        /* \"#utility.yul\":652:774   */\n    tag_88:\n        /* \"#utility.yul\":810:816   */\n      dup2\n        /* \"#utility.yul\":797:817   */\n      calldataload\n        /* \"#utility.yul\":835:914   */\n      tag_91\n        /* \"#utility.yul\":910:913   */\n      dup5\n        /* \"#utility.yul\":902:908   */\n      dup3\n        /* \"#utility.yul\":895:899   */\n      0x20\n        /* \"#utility.yul\":887:893   */\n      dup7\n        /* \"#utility.yul\":883:900   */\n      add\n        /* \"#utility.yul\":835:914   */\n      tag_71\n      jump\t// in\n    tag_91:\n        /* \"#utility.yul\":826:914   */\n      swap2\n      pop\n        /* \"#utility.yul\":642:920   */\n      pop\n        /* \"#utility.yul\":580:920   */\n      swap3\n      swap2\n      pop\n      pop\n      jump\t// out\n        /* \"#utility.yul\":926:1065   */\n    tag_92:\n        /* \"#utility.yul\":972:977   */\n      0x00\n        /* \"#utility.yul\":1010:1016   */\n      dup2\n        /* \"#utility.yul\":997:1017   */\n      calldataload\n        /* \"#utility.yul\":988:1017   */\n      swap1\n      pop\n        /* \"#utility.yul\":1026:1059   */\n      tag_94\n        /* \"#utility.yul\":1053:1058   */\n      dup2\n        /* \"#utility.yul\":1026:1059   */\n      tag_95\n      jump\t// in\n    tag_94:\n        /* \"#utility.yul\":926:1065   */\n      swap3\n      swap2\n      pop\n      pop\n      jump\t// out\n        /* \"#utility.yul\":1071:1580   */\n    tag_23:\n        /* \"#utility.yul\":1140:1146   */\n      0x00\n        /* \"#utility.yul\":1189:1191   */\n      0x20\n        /* \"#utility.yul\":1177:1186   */\n      dup3\n        /* \"#utility.yul\":1168:1175   */\n      dup5\n        /* \"#utility.yul\":1164:1187   */\n      sub\n        /* \"#utility.yul\":1160:1192   */\n      slt\n        /* \"#utility.yul\":1157:1276   */\n      iszero\n      tag_97\n      jumpi\n        /* \"#utility.yul\":1195:1274   */\n      tag_98\n      tag_99\n      jump\t// in\n    tag_98:\n        /* \"#utility.yul\":1157:1276   */\n    tag_97:\n        /* \"#utility.yul\":1343:1344   */\n      0x00\n        /* \"#utility.yul\":1332:1341   */\n      dup3\n        /* \"#utility.yul\":1328:1345   */\n      add\n        /* \"#utility.yul\":1315:1346   */\n      calldataload\n        /* \"#utility.yul\":1373:1391   */\n      0xffffffffffffffff\n        /* \"#utility.yul\":1365:1371   */\n      dup2\n        /* \"#utility.yul\":1362:1392   */\n      gt\n        /* \"#utility.yul\":1359:1476   */\n      iszero\n      tag_100\n      jumpi\n        /* \"#utility.yul\":1395:1474   */\n      tag_101\n      tag_102\n      jump\t// in\n    tag_101:\n        /* \"#utility.yul\":1359:1476   */\n    tag_100:\n        /* \"#utility.yul\":1500:1563   */\n      tag_103\n        /* \"#utility.yul\":1555:1562   */\n      dup5\n        /* \"#utility.yul\":1546:1552   */\n      dup3\n        /* \"#utility.yul\":1535:1544   */\n      dup6\n        /* \"#utility.yul\":1531:1553   */\n      add\n        /* \"#utility.yul\":1500:1563   */\n      tag_86\n      jump\t// in\n    tag_103:\n        /* \"#utility.yul\":1490:1563   */\n      swap2\n      pop\n        /* \"#utility.yul\":1286:1573   */\n      pop\n        /* \"#utility.yul\":1071:1580   */\n      swap3\n      swap2\n      pop\n      pop\n      jump\t// out\n        /* \"#utility.yul\":1586:2236   */\n    tag_13:\n        /* \"#utility.yul\":1662:1668   */\n      0x00\n        /* \"#utility.yul\":1670:1676   */\n      dup1\n        /* \"#utility.yul\":1719:1721   */\n      0x40\n        /* \"#utility.yul\":1707:1716   */\n      dup4\n        /* \"#utility.yul\":1698:1705   */\n      dup6\n        /* \"#utility.yul\":1694:1717   */\n      sub\n        /* \"#utility.yul\":1690:1722   */\n      slt\n        /* \"#utility.yul\":1687:1806   */\n      iszero\n      tag_105\n      jumpi\n        /* \"#utility.yul\":1725:1804   */\n      tag_106\n      tag_99\n      jump\t// in\n    tag_106:\n        /* \"#utility.yul\":1687:1806   */\n    tag_105:\n        /* \"#utility.yul\":1873:1874   */\n      0x00\n        /* \"#utility.yul\":1862:1871   */\n      dup4\n        /* \"#utility.yul\":1858:1875   */\n      add\n        /* \"#utility.yul\":1845:1876   */\n      calldataload\n        /* \"#utility.yul\":1903:1921   */\n      0xffffffffffffffff\n        /* \"#utility.yul\":1895:1901   */\n      dup2\n        /* \"#utility.yul\":1892:1922   */\n      gt\n        /* \"#utility.yul\":1889:2006   */\n      iszero\n      tag_107\n      jumpi\n        /* \"#utility.yul\":1925:2004   */\n      tag_108\n      tag_102\n      jump\t// in\n    tag_108:\n        /* \"#utility.yul\":1889:2006   */\n    tag_107:\n        /* \"#utility.yul\":2030:2093   */\n      tag_109\n        /* \"#utility.yul\":2085:2092   */\n      dup6\n        /* \"#utility.yul\":2076:2082   */\n      dup3\n        /* \"#utility.yul\":2065:2074   */\n      dup7\n        /* \"#utility.yul\":2061:2083   */\n      add\n        /* \"#utility.yul\":2030:2093   */\n      tag_86\n      jump\t// in\n    tag_109:\n        /* \"#utility.yul\":2020:2093   */\n      swap3\n      pop\n        /* \"#utility.yul\":1816:2103   */\n      pop\n        /* \"#utility.yul\":2142:2144   */\n      0x20\n        /* \"#utility.yul\":2168:2219   */\n      tag_110\n        /* \"#utility.yul\":2211:2218   */\n      dup6\n        /* \"#utility.yul\":2202:2208   */\n      dup3\n        /* \"#utility.yul\":2191:2200   */\n      dup7\n        /* \"#utility.yul\":2187:2209   */\n      add\n        /* \"#utility.yul\":2168:2219   */\n      tag_82\n      jump\t// in\n    tag_110:\n        /* \"#utility.yul\":2158:2219   */\n      swap2\n      pop\n        /* \"#utility.yul\":2113:2229   */\n      pop\n        /* \"#utility.yul\":1586:2236   */\n      swap3\n      pop\n      swap3\n      swap1\n      pop\n      jump\t// out\n        /* \"#utility.yul\":2242:2571   */\n    tag_17:\n        /* \"#utility.yul\":2301:2307   */\n      0x00\n        /* \"#utility.yul\":2350:2352   */\n      0x20\n        /* \"#utility.yul\":2338:2347   */\n      dup3\n        /* \"#utility.yul\":2329:2336   */\n      dup5\n        /* \"#utility.yul\":2325:2348   */\n      sub\n        /* \"#utility.yul\":2321:2353   */\n      slt\n        /* \"#utility.yul\":2318:2437   */\n      iszero\n      tag_112\n      jumpi\n        /* \"#utility.yul\":2356:2435   */\n      tag_113\n      tag_99\n      jump\t// in\n    tag_113:\n        /* \"#utility.yul\":2318:2437   */\n    tag_112:\n        /* \"#utility.yul\":2476:2477   */\n      0x00\n        /* \"#utility.yul\":2501:2554   */\n      tag_114\n        /* \"#utility.yul\":2546:2553   */\n      dup5\n        /* \"#utility.yul\":2537:2543   */\n      dup3\n        /* \"#utility.yul\":2526:2535   */\n      dup6\n        /* \"#utility.yul\":2522:2544   */\n      add\n        /* \"#utility.yul\":2501:2554   */\n      tag_92\n      jump\t// in\n    tag_114:\n        /* \"#utility.yul\":2491:2554   */\n      swap2\n      pop\n        /* \"#utility.yul\":2447:2564   */\n      pop\n        /* \"#utility.yul\":2242:2571   */\n      swap3\n      swap2\n      pop\n      pop\n      jump\t// out\n        /* \"#utility.yul\":2577:2841   */\n    tag_115:\n        /* \"#utility.yul\":2700:2710   */\n      0x00\n        /* \"#utility.yul\":2735:2835   */\n      tag_117\n        /* \"#utility.yul\":2831:2834   */\n      dup4\n        /* \"#utility.yul\":2823:2829   */\n      dup4\n        /* \"#utility.yul\":2735:2835   */\n      tag_118\n      jump\t// in\n    tag_117:\n        /* \"#utility.yul\":2721:2835   */\n      swap1\n      pop\n        /* \"#utility.yul\":2577:2841   */\n      swap3\n      swap2\n      pop\n      pop\n      jump\t// out\n        /* \"#utility.yul\":2923:4050   */\n    tag_119:\n        /* \"#utility.yul\":3096:3099   */\n      0x00\n        /* \"#utility.yul\":3125:3206   */\n      tag_121\n        /* \"#utility.yul\":3200:3205   */\n      dup3\n        /* \"#utility.yul\":3125:3206   */\n      tag_122\n      jump\t// in\n    tag_121:\n        /* \"#utility.yul\":3222:3335   */\n      tag_123\n        /* \"#utility.yul\":3328:3334   */\n      dup2\n        /* \"#utility.yul\":3323:3326   */\n      dup6\n        /* \"#utility.yul\":3222:3335   */\n      tag_124\n      jump\t// in\n    tag_123:\n        /* \"#utility.yul\":3215:3335   */\n      swap4\n      pop\n        /* \"#utility.yul\":3361:3364   */\n      dup4\n        /* \"#utility.yul\":3406:3410   */\n      0x20\n        /* \"#utility.yul\":3398:3404   */\n      dup3\n        /* \"#utility.yul\":3394:3411   */\n      mul\n        /* \"#utility.yul\":3389:3392   */\n      dup6\n        /* \"#utility.yul\":3385:3412   */\n      add\n        /* \"#utility.yul\":3436:3519   */\n      tag_125\n        /* \"#utility.yul\":3513:3518   */\n      dup6\n        /* \"#utility.yul\":3436:3519   */\n      tag_126\n      jump\t// in\n    tag_125:\n        /* \"#utility.yul\":3542:3549   */\n      dup1\n        /* \"#utility.yul\":3573:3574   */\n      0x00\n        /* \"#utility.yul\":3558:4005   */\n    tag_127:\n        /* \"#utility.yul\":3583:3589   */\n      dup6\n        /* \"#utility.yul\":3580:3581   */\n      dup2\n        /* \"#utility.yul\":3577:3590   */\n      lt\n        /* \"#utility.yul\":3558:4005   */\n      iszero\n      tag_129\n      jumpi\n        /* \"#utility.yul\":3654:3663   */\n      dup5\n        /* \"#utility.yul\":3648:3652   */\n      dup5\n        /* \"#utility.yul\":3644:3664   */\n      sub\n        /* \"#utility.yul\":3639:3642   */\n      dup10\n        /* \"#utility.yul\":3632:3665   */\n      mstore\n        /* \"#utility.yul\":3705:3711   */\n      dup2\n        /* \"#utility.yul\":3699:3712   */\n      mload\n        /* \"#utility.yul\":3733:3851   */\n      tag_130\n        /* \"#utility.yul\":3846:3850   */\n      dup6\n        /* \"#utility.yul\":3831:3844   */\n      dup3\n        /* \"#utility.yul\":3733:3851   */\n      tag_115\n      jump\t// in\n    tag_130:\n        /* \"#utility.yul\":3725:3851   */\n      swap5\n      pop\n        /* \"#utility.yul\":3874:3961   */\n      tag_131\n        /* \"#utility.yul\":3954:3960   */\n      dup4\n        /* \"#utility.yul\":3874:3961   */\n      tag_132\n      jump\t// in\n    tag_131:\n        /* \"#utility.yul\":3864:3961   */\n      swap3\n      pop\n        /* \"#utility.yul\":3990:3994   */\n      0x20\n        /* \"#utility.yul\":3985:3988   */\n      dup11\n        /* \"#utility.yul\":3981:3995   */\n      add\n        /* \"#utility.yul\":3974:3995   */\n      swap10\n      pop\n        /* \"#utility.yul\":3618:4005   */\n      pop\n        /* \"#utility.yul\":3605:3606   */\n      0x01\n        /* \"#utility.yul\":3602:3603   */\n      dup2\n        /* \"#utility.yul\":3598:3607   */\n      add\n        /* \"#utility.yul\":3593:3607   */\n      swap1\n      pop\n        /* \"#utility.yul\":3558:4005   */\n      jump(tag_127)\n    tag_129:\n        /* \"#utility.yul\":3562:3576   */\n      pop\n        /* \"#utility.yul\":4021:4025   */\n      dup3\n        /* \"#utility.yul\":4014:4025   */\n      swap8\n      pop\n        /* \"#utility.yul\":4041:4044   */\n      dup8\n        /* \"#utility.yul\":4034:4044   */\n      swap6\n      pop\n        /* \"#utility.yul\":3101:4050   */\n      pop\n      pop\n      pop\n      pop\n      pop\n        /* \"#utility.yul\":2923:4050   */\n      swap3\n      swap2\n      pop\n      pop\n      jump\t// out\n        /* \"#utility.yul\":4056:4158   */\n    tag_133:\n        /* \"#utility.yul\":4129:4151   */\n      tag_135\n        /* \"#utility.yul\":4145:4150   */\n      dup2\n        /* \"#utility.yul\":4129:4151   */\n      tag_136\n      jump\t// in\n    tag_135:\n        /* \"#utility.yul\":4124:4127   */\n      dup3\n        /* \"#utility.yul\":4117:4152   */\n      mstore\n        /* \"#utility.yul\":4056:4158   */\n      pop\n      pop\n      jump\t// out\n        /* \"#utility.yul\":4164:4276   */\n    tag_137:\n        /* \"#utility.yul\":4247:4269   */\n      tag_139\n        /* \"#utility.yul\":4263:4268   */\n      dup2\n        /* \"#utility.yul\":4247:4269   */\n      tag_136\n      jump\t// in\n    tag_139:\n        /* \"#utility.yul\":4242:4245   */\n      dup3\n        /* \"#utility.yul\":4235:4270   */\n      mstore\n        /* \"#utility.yul\":4164:4276   */\n      pop\n      pop\n      jump\t// out\n        /* \"#utility.yul\":4282:4626   */\n    tag_140:\n        /* \"#utility.yul\":4360:4363   */\n      0x00\n        /* \"#utility.yul\":4388:4427   */\n      tag_142\n        /* \"#utility.yul\":4421:4426   */\n      dup3\n        /* \"#utility.yul\":4388:4427   */\n      tag_143\n      jump\t// in\n    tag_142:\n        /* \"#utility.yul\":4443:4504   */\n      tag_144\n        /* \"#utility.yul\":4497:4503   */\n      dup2\n        /* \"#utility.yul\":4492:4495   */\n      dup6\n        /* \"#utility.yul\":4443:4504   */\n      tag_145\n      jump\t// in\n    tag_144:\n        /* \"#utility.yul\":4436:4504   */\n      swap4\n      pop\n        /* \"#utility.yul\":4513:4565   */\n      tag_146\n        /* \"#utility.yul\":4558:4564   */\n      dup2\n        /* \"#utility.yul\":4553:4556   */\n      dup6\n        /* \"#utility.yul\":4546:4550   */\n      0x20\n        /* \"#utility.yul\":4539:4544   */\n      dup7\n        /* \"#utility.yul\":4535:4551   */\n      add\n        /* \"#utility.yul\":4513:4565   */\n      tag_147\n      jump\t// in\n    tag_146:\n        /* \"#utility.yul\":4590:4619   */\n      tag_148\n        /* \"#utility.yul\":4612:4618   */\n      dup2\n        /* \"#utility.yul\":4590:4619   */\n      tag_149\n      jump\t// in\n    tag_148:\n        /* \"#utility.yul\":4585:4588   */\n      dup5\n        /* \"#utility.yul\":4581:4620   */\n      add\n        /* \"#utility.yul\":4574:4620   */\n      swap2\n      pop\n        /* \"#utility.yul\":4364:4626   */\n      pop\n        /* \"#utility.yul\":4282:4626   */\n      swap3\n      swap2\n      pop\n      pop\n      jump\t// out\n        /* \"#utility.yul\":4632:4996   */\n    tag_150:\n        /* \"#utility.yul\":4720:4723   */\n      0x00\n        /* \"#utility.yul\":4748:4787   */\n      tag_152\n        /* \"#utility.yul\":4781:4786   */\n      dup3\n        /* \"#utility.yul\":4748:4787   */\n      tag_143\n      jump\t// in\n    tag_152:\n        /* \"#utility.yul\":4803:4874   */\n      tag_153\n        /* \"#utility.yul\":4867:4873   */\n      dup2\n        /* \"#utility.yul\":4862:4865   */\n      dup6\n        /* \"#utility.yul\":4803:4874   */\n      tag_154\n      jump\t// in\n    tag_153:\n        /* \"#utility.yul\":4796:4874   */\n      swap4\n      pop\n        /* \"#utility.yul\":4883:4935   */\n      tag_155\n        /* \"#utility.yul\":4928:4934   */\n      dup2\n        /* \"#utility.yul\":4923:4926   */\n      dup6\n        /* \"#utility.yul\":4916:4920   */\n      0x20\n        /* \"#utility.yul\":4909:4914   */\n      dup7\n        /* \"#utility.yul\":4905:4921   */\n      add\n        /* \"#utility.yul\":4883:4935   */\n      tag_147\n      jump\t// in\n    tag_155:\n        /* \"#utility.yul\":4960:4989   */\n      tag_156\n        /* \"#utility.yul\":4982:4988   */\n      dup2\n        /* \"#utility.yul\":4960:4989   */\n      tag_149\n      jump\t// in\n    tag_156:\n        /* \"#utility.yul\":4955:4958   */\n      dup5\n        /* \"#utility.yul\":4951:4990   */\n      add\n        /* \"#utility.yul\":4944:4990   */\n      swap2\n      pop\n        /* \"#utility.yul\":4724:4996   */\n      pop\n        /* \"#utility.yul\":4632:4996   */\n      swap3\n      swap2\n      pop\n      pop\n      jump\t// out\n        /* \"#utility.yul\":5002:5379   */\n    tag_157:\n        /* \"#utility.yul\":5108:5111   */\n      0x00\n        /* \"#utility.yul\":5136:5175   */\n      tag_159\n        /* \"#utility.yul\":5169:5174   */\n      dup3\n        /* \"#utility.yul\":5136:5175   */\n      tag_143\n      jump\t// in\n    tag_159:\n        /* \"#utility.yul\":5191:5280   */\n      tag_160\n        /* \"#utility.yul\":5273:5279   */\n      dup2\n        /* \"#utility.yul\":5268:5271   */\n      dup6\n        /* \"#utility.yul\":5191:5280   */\n      tag_161\n      jump\t// in\n    tag_160:\n        /* \"#utility.yul\":5184:5280   */\n      swap4\n      pop\n        /* \"#utility.yul\":5289:5341   */\n      tag_162\n        /* \"#utility.yul\":5334:5340   */\n      dup2\n        /* \"#utility.yul\":5329:5332   */\n      dup6\n        /* \"#utility.yul\":5322:5326   */\n      0x20\n        /* \"#utility.yul\":5315:5320   */\n      dup7\n        /* \"#utility.yul\":5311:5327   */\n      add\n        /* \"#utility.yul\":5289:5341   */\n      tag_147\n      jump\t// in\n    tag_162:\n        /* \"#utility.yul\":5366:5372   */\n      dup1\n        /* \"#utility.yul\":5361:5364   */\n      dup5\n        /* \"#utility.yul\":5357:5373   */\n      add\n        /* \"#utility.yul\":5350:5373   */\n      swap2\n      pop\n        /* \"#utility.yul\":5112:5379   */\n      pop\n        /* \"#utility.yul\":5002:5379   */\n      swap3\n      swap2\n      pop\n      pop\n      jump\t// out\n        /* \"#utility.yul\":5457:6229   */\n    tag_118:\n        /* \"#utility.yul\":5570:5573   */\n      0x00\n        /* \"#utility.yul\":5606:5610   */\n      0x60\n        /* \"#utility.yul\":5601:5604   */\n      dup4\n        /* \"#utility.yul\":5597:5611   */\n      add\n        /* \"#utility.yul\":5691:5695   */\n      0x00\n        /* \"#utility.yul\":5684:5689   */\n      dup4\n        /* \"#utility.yul\":5680:5696   */\n      add\n        /* \"#utility.yul\":5674:5697   */\n      mload\n        /* \"#utility.yul\":5710:5773   */\n      tag_164\n        /* \"#utility.yul\":5767:5771   */\n      0x00\n        /* \"#utility.yul\":5762:5765   */\n      dup7\n        /* \"#utility.yul\":5758:5772   */\n      add\n        /* \"#utility.yul\":5744:5756   */\n      dup3\n        /* \"#utility.yul\":5710:5773   */\n      tag_165\n      jump\t// in\n    tag_164:\n        /* \"#utility.yul\":5621:5783   */\n      pop\n        /* \"#utility.yul\":5868:5872   */\n      0x20\n        /* \"#utility.yul\":5861:5866   */\n      dup4\n        /* \"#utility.yul\":5857:5873   */\n      add\n        /* \"#utility.yul\":5851:5874   */\n      mload\n        /* \"#utility.yul\":5921:5924   */\n      dup5\n        /* \"#utility.yul\":5915:5919   */\n      dup3\n        /* \"#utility.yul\":5911:5925   */\n      sub\n        /* \"#utility.yul\":5904:5908   */\n      0x20\n        /* \"#utility.yul\":5899:5902   */\n      dup7\n        /* \"#utility.yul\":5895:5909   */\n      add\n        /* \"#utility.yul\":5888:5926   */\n      mstore\n        /* \"#utility.yul\":5947:6020   */\n      tag_166\n        /* \"#utility.yul\":6015:6019   */\n      dup3\n        /* \"#utility.yul\":6001:6013   */\n      dup3\n        /* \"#utility.yul\":5947:6020   */\n      tag_140\n      jump\t// in\n    tag_166:\n        /* \"#utility.yul\":5939:6020   */\n      swap2\n      pop\n        /* \"#utility.yul\":5793:6031   */\n      pop\n        /* \"#utility.yul\":6114:6118   */\n      0x40\n        /* \"#utility.yul\":6107:6112   */\n      dup4\n        /* \"#utility.yul\":6103:6119   */\n      add\n        /* \"#utility.yul\":6097:6120   */\n      mload\n        /* \"#utility.yul\":6133:6192   */\n      tag_167\n        /* \"#utility.yul\":6186:6190   */\n      0x40\n        /* \"#utility.yul\":6181:6184   */\n      dup7\n        /* \"#utility.yul\":6177:6191   */\n      add\n        /* \"#utility.yul\":6163:6175   */\n      dup3\n        /* \"#utility.yul\":6133:6192   */\n      tag_133\n      jump\t// in\n    tag_167:\n        /* \"#utility.yul\":6041:6202   */\n      pop\n        /* \"#utility.yul\":6219:6223   */\n      dup1\n        /* \"#utility.yul\":6212:6223   */\n      swap2\n      pop\n        /* \"#utility.yul\":5575:6229   */\n      pop\n        /* \"#utility.yul\":5457:6229   */\n      swap3\n      swap2\n      pop\n      pop\n      jump\t// out\n        /* \"#utility.yul\":6235:6343   */\n    tag_165:\n        /* \"#utility.yul\":6312:6336   */\n      tag_169\n        /* \"#utility.yul\":6330:6335   */\n      dup2\n        /* \"#utility.yul\":6312:6336   */\n      tag_170\n      jump\t// in\n    tag_169:\n        /* \"#utility.yul\":6307:6310   */\n      dup3\n        /* \"#utility.yul\":6300:6337   */\n      mstore\n        /* \"#utility.yul\":6235:6343   */\n      pop\n      pop\n      jump\t// out\n        /* \"#utility.yul\":6349:6624   */\n    tag_44:\n        /* \"#utility.yul\":6481:6484   */\n      0x00\n        /* \"#utility.yul\":6503:6598   */\n      tag_172\n        /* \"#utility.yul\":6594:6597   */\n      dup3\n        /* \"#utility.yul\":6585:6591   */\n      dup5\n        /* \"#utility.yul\":6503:6598   */\n      tag_157\n      jump\t// in\n    tag_172:\n        /* \"#utility.yul\":6496:6598   */\n      swap2\n      pop\n        /* \"#utility.yul\":6615:6618   */\n      dup2\n        /* \"#utility.yul\":6608:6618   */\n      swap1\n      pop\n        /* \"#utility.yul\":6349:6624   */\n      swap3\n      swap2\n      pop\n      pop\n      jump\t// out\n        /* \"#utility.yul\":6630:7111   */\n    tag_10:\n        /* \"#utility.yul\":6827:6831   */\n      0x00\n        /* \"#utility.yul\":6865:6867   */\n      0x20\n        /* \"#utility.yul\":6854:6863   */\n      dup3\n        /* \"#utility.yul\":6850:6868   */\n      add\n        /* \"#utility.yul\":6842:6868   */\n      swap1\n      pop\n        /* \"#utility.yul\":6914:6923   */\n      dup2\n        /* \"#utility.yul\":6908:6912   */\n      dup2\n        /* \"#utility.yul\":6904:6924   */\n      sub\n        /* \"#utility.yul\":6900:6901   */\n      0x00\n        /* \"#utility.yul\":6889:6898   */\n      dup4\n        /* \"#utility.yul\":6885:6902   */\n      add\n        /* \"#utility.yul\":6878:6925   */\n      mstore\n        /* \"#utility.yul\":6942:7104   */\n      tag_174\n        /* \"#utility.yul\":7099:7103   */\n      dup2\n        /* \"#utility.yul\":7090:7096   */\n      dup5\n        /* \"#utility.yul\":6942:7104   */\n      tag_119\n      jump\t// in\n    tag_174:\n        /* \"#utility.yul\":6934:7104   */\n      swap1\n      pop\n        /* \"#utility.yul\":6630:7111   */\n      swap3\n      swap2\n      pop\n      pop\n      jump\t// out\n        /* \"#utility.yul\":7117:7532   */\n    tag_20:\n        /* \"#utility.yul\":7254:7258   */\n      0x00\n        /* \"#utility.yul\":7292:7294   */\n      0x40\n        /* \"#utility.yul\":7281:7290   */\n      dup3\n        /* \"#utility.yul\":7277:7295   */\n      add\n        /* \"#utility.yul\":7269:7295   */\n      swap1\n      pop\n        /* \"#utility.yul\":7341:7350   */\n      dup2\n        /* \"#utility.yul\":7335:7339   */\n      dup2\n        /* \"#utility.yul\":7331:7351   */\n      sub\n        /* \"#utility.yul\":7327:7328   */\n      0x00\n        /* \"#utility.yul\":7316:7325   */\n      dup4\n        /* \"#utility.yul\":7312:7329   */\n      add\n        /* \"#utility.yul\":7305:7352   */\n      mstore\n        /* \"#utility.yul\":7369:7447   */\n      tag_176\n        /* \"#utility.yul\":7442:7446   */\n      dup2\n        /* \"#utility.yul\":7433:7439   */\n      dup6\n        /* \"#utility.yul\":7369:7447   */\n      tag_150\n      jump\t// in\n    tag_176:\n        /* \"#utility.yul\":7361:7447   */\n      swap1\n      pop\n        /* \"#utility.yul\":7457:7525   */\n      tag_177\n        /* \"#utility.yul\":7521:7523   */\n      0x20\n        /* \"#utility.yul\":7510:7519   */\n      dup4\n        /* \"#utility.yul\":7506:7524   */\n      add\n        /* \"#utility.yul\":7497:7503   */\n      dup5\n        /* \"#utility.yul\":7457:7525   */\n      tag_137\n      jump\t// in\n    tag_177:\n        /* \"#utility.yul\":7117:7532   */\n      swap4\n      swap3\n      pop\n      pop\n      pop\n      jump\t// out\n        /* \"#utility.yul\":7538:7667   */\n    tag_76:\n        /* \"#utility.yul\":7572:7578   */\n      0x00\n        /* \"#utility.yul\":7599:7619   */\n      tag_179\n      tag_180\n      jump\t// in\n    tag_179:\n        /* \"#utility.yul\":7589:7619   */\n      swap1\n      pop\n        /* \"#utility.yul\":7628:7661   */\n      tag_181\n        /* \"#utility.yul\":7656:7660   */\n      dup3\n        /* \"#utility.yul\":7648:7654   */\n      dup3\n        /* \"#utility.yul\":7628:7661   */\n      tag_182\n      jump\t// in\n    tag_181:\n        /* \"#utility.yul\":7538:7667   */\n      swap2\n      swap1\n      pop\n      jump\t// out\n        /* \"#utility.yul\":7673:7748   */\n    tag_180:\n        /* \"#utility.yul\":7706:7712   */\n      0x00\n        /* \"#utility.yul\":7739:7741   */\n      0x40\n        /* \"#utility.yul\":7733:7742   */\n      mload\n        /* \"#utility.yul\":7723:7742   */\n      swap1\n      pop\n        /* \"#utility.yul\":7673:7748   */\n      swap1\n      jump\t// out\n        /* \"#utility.yul\":7754:8062   */\n    tag_75:\n        /* \"#utility.yul\":7816:7820   */\n      0x00\n        /* \"#utility.yul\":7906:7924   */\n      0xffffffffffffffff\n        /* \"#utility.yul\":7898:7904   */\n      dup3\n        /* \"#utility.yul\":7895:7925   */\n      gt\n        /* \"#utility.yul\":7892:7948   */\n      iszero\n      tag_185\n      jumpi\n        /* \"#utility.yul\":7928:7946   */\n      tag_186\n      tag_187\n      jump\t// in\n    tag_186:\n        /* \"#utility.yul\":7892:7948   */\n    tag_185:\n        /* \"#utility.yul\":7966:7995   */\n      tag_188\n        /* \"#utility.yul\":7988:7994   */\n      dup3\n        /* \"#utility.yul\":7966:7995   */\n      tag_149\n      jump\t// in\n    tag_188:\n        /* \"#utility.yul\":7958:7995   */\n      swap1\n      pop\n        /* \"#utility.yul\":8050:8054   */\n      0x20\n        /* \"#utility.yul\":8044:8048   */\n      dup2\n        /* \"#utility.yul\":8040:8055   */\n      add\n        /* \"#utility.yul\":8032:8055   */\n      swap1\n      pop\n        /* \"#utility.yul\":7754:8062   */\n      swap2\n      swap1\n      pop\n      jump\t// out\n        /* \"#utility.yul\":8068:8227   */\n    tag_126:\n        /* \"#utility.yul\":8162:8166   */\n      0x00\n        /* \"#utility.yul\":8185:8188   */\n      dup2\n        /* \"#utility.yul\":8177:8188   */\n      swap1\n      pop\n        /* \"#utility.yul\":8215:8219   */\n      0x20\n        /* \"#utility.yul\":8210:8213   */\n      dup3\n        /* \"#utility.yul\":8206:8220   */\n      add\n        /* \"#utility.yul\":8198:8220   */\n      swap1\n      pop\n        /* \"#utility.yul\":8068:8227   */\n      swap2\n      swap1\n      pop\n      jump\t// out\n        /* \"#utility.yul\":8233:8374   */\n    tag_122:\n        /* \"#utility.yul\":8327:8333   */\n      0x00\n        /* \"#utility.yul\":8361:8366   */\n      dup2\n        /* \"#utility.yul\":8355:8367   */\n      mload\n        /* \"#utility.yul\":8345:8367   */\n      swap1\n      pop\n        /* \"#utility.yul\":8233:8374   */\n      swap2\n      swap1\n      pop\n      jump\t// out\n        /* \"#utility.yul\":8380:8479   */\n    tag_143:\n        /* \"#utility.yul\":8432:8438   */\n      0x00\n        /* \"#utility.yul\":8466:8471   */\n      dup2\n        /* \"#utility.yul\":8460:8472   */\n      mload\n        /* \"#utility.yul\":8450:8472   */\n      swap1\n      pop\n        /* \"#utility.yul\":8380:8479   */\n      swap2\n      swap1\n      pop\n      jump\t// out\n        /* \"#utility.yul\":8485:8625   */\n    tag_132:\n        /* \"#utility.yul\":8582:8586   */\n      0x00\n        /* \"#utility.yul\":8614:8618   */\n      0x20\n        /* \"#utility.yul\":8609:8612   */\n      dup3\n        /* \"#utility.yul\":8605:8619   */\n      add\n        /* \"#utility.yul\":8597:8619   */\n      swap1\n      pop\n        /* \"#utility.yul\":8485:8625   */\n      swap2\n      swap1\n      pop\n      jump\t// out\n        /* \"#utility.yul\":8631:8842   */\n    tag_124:\n        /* \"#utility.yul\":8757:8768   */\n      0x00\n        /* \"#utility.yul\":8791:8797   */\n      dup3\n        /* \"#utility.yul\":8786:8789   */\n      dup3\n        /* \"#utility.yul\":8779:8798   */\n      mstore\n        /* \"#utility.yul\":8831:8835   */\n      0x20\n        /* \"#utility.yul\":8826:8829   */\n      dup3\n        /* \"#utility.yul\":8822:8836   */\n      add\n        /* \"#utility.yul\":8807:8836   */\n      swap1\n      pop\n        /* \"#utility.yul\":8631:8842   */\n      swap3\n      swap2\n      pop\n      pop\n      jump\t// out\n        /* \"#utility.yul\":8848:9007   */\n    tag_145:\n        /* \"#utility.yul\":8922:8933   */\n      0x00\n        /* \"#utility.yul\":8956:8962   */\n      dup3\n        /* \"#utility.yul\":8951:8954   */\n      dup3\n        /* \"#utility.yul\":8944:8963   */\n      mstore\n        /* \"#utility.yul\":8996:9000   */\n      0x20\n        /* \"#utility.yul\":8991:8994   */\n      dup3\n        /* \"#utility.yul\":8987:9001   */\n      add\n        /* \"#utility.yul\":8972:9001   */\n      swap1\n      pop\n        /* \"#utility.yul\":8848:9007   */\n      swap3\n      swap2\n      pop\n      pop\n      jump\t// out\n        /* \"#utility.yul\":9013:9182   */\n    tag_154:\n        /* \"#utility.yul\":9097:9108   */\n      0x00\n        /* \"#utility.yul\":9131:9137   */\n      dup3\n        /* \"#utility.yul\":9126:9129   */\n      dup3\n        /* \"#utility.yul\":9119:9138   */\n      mstore\n        /* \"#utility.yul\":9171:9175   */\n      0x20\n        /* \"#utility.yul\":9166:9169   */\n      dup3\n        /* \"#utility.yul\":9162:9176   */\n      add\n        /* \"#utility.yul\":9147:9176   */\n      swap1\n      pop\n        /* \"#utility.yul\":9013:9182   */\n      swap3\n      swap2\n      pop\n      pop\n      jump\t// out\n        /* \"#utility.yul\":9188:9336   */\n    tag_161:\n        /* \"#utility.yul\":9290:9301   */\n      0x00\n        /* \"#utility.yul\":9327:9330   */\n      dup2\n        /* \"#utility.yul\":9312:9330   */\n      swap1\n      pop\n        /* \"#utility.yul\":9188:9336   */\n      swap3\n      swap2\n      pop\n      pop\n      jump\t// out\n        /* \"#utility.yul\":9342:9647   */\n    tag_38:\n        /* \"#utility.yul\":9382:9385   */\n      0x00\n        /* \"#utility.yul\":9401:9421   */\n      tag_198\n        /* \"#utility.yul\":9419:9420   */\n      dup3\n        /* \"#utility.yul\":9401:9421   */\n      tag_170\n      jump\t// in\n    tag_198:\n        /* \"#utility.yul\":9396:9421   */\n      swap2\n      pop\n        /* \"#utility.yul\":9435:9455   */\n      tag_199\n        /* \"#utility.yul\":9453:9454   */\n      dup4\n        /* \"#utility.yul\":9435:9455   */\n      tag_170\n      jump\t// in\n    tag_199:\n        /* \"#utility.yul\":9430:9455   */\n      swap3\n      pop\n        /* \"#utility.yul\":9589:9590   */\n      dup3\n        /* \"#utility.yul\":9521:9587   */\n      0xffffffffffffffffffffffffffffffffffffffffffffffffffffffffffffffff\n        /* \"#utility.yul\":9517:9591   */\n      sub\n        /* \"#utility.yul\":9514:9515   */\n      dup3\n        /* \"#utility.yul\":9511:9592   */\n      gt\n        /* \"#utility.yul\":9508:9615   */\n      iszero\n      tag_200\n      jumpi\n        /* \"#utility.yul\":9595:9613   */\n      tag_201\n      tag_202\n      jump\t// in\n    tag_201:\n        /* \"#utility.yul\":9508:9615   */\n    tag_200:\n        /* \"#utility.yul\":9639:9640   */\n      dup3\n        /* \"#utility.yul\":9636:9637   */\n      dup3\n        /* \"#utility.yul\":9632:9641   */\n      add\n        /* \"#utility.yul\":9625:9641   */\n      swap1\n      pop\n        /* \"#utility.yul\":9342:9647   */\n      swap3\n      swap2\n      pop\n      pop\n      jump\t// out\n        /* \"#utility.yul\":9653:9743   */\n    tag_136:\n        /* \"#utility.yul\":9688:9695   */\n      0x00\n        /* \"#utility.yul\":9731:9736   */\n      dup2\n        /* \"#utility.yul\":9728:9729   */\n      0x01\n        /* \"#utility.yul\":9717:9737   */\n      signextend\n        /* \"#utility.yul\":9706:9737   */\n      swap1\n      pop\n        /* \"#utility.yul\":9653:9743   */\n      swap2\n      swap1\n      pop\n      jump\t// out\n        /* \"#utility.yul\":9749:9826   */\n    tag_170:\n        /* \"#utility.yul\":9786:9793   */\n      0x00\n        /* \"#utility.yul\":9815:9820   */\n      dup2\n        /* \"#utility.yul\":9804:9820   */\n      swap1\n      pop\n        /* \"#utility.yul\":9749:9826   */\n      swap2\n      swap1\n      pop\n      jump\t// out\n        /* \"#utility.yul\":9832:9986   */\n    tag_81:\n        /* \"#utility.yul\":9916:9922   */\n      dup3\n        /* \"#utility.yul\":9911:9914   */\n      dup2\n        /* \"#utility.yul\":9906:9909   */\n      dup4\n        /* \"#utility.yul\":9893:9923   */\n      calldatacopy\n        /* \"#utility.yul\":9978:9979   */\n      0x00\n        /* \"#utility.yul\":9969:9975   */\n      dup4\n        /* \"#utility.yul\":9964:9967   */\n      dup4\n        /* \"#utility.yul\":9960:9976   */\n      add\n        /* \"#utility.yul\":9953:9980   */\n      mstore\n        /* \"#utility.yul\":9832:9986   */\n      pop\n      pop\n      pop\n      jump\t// out\n        /* \"#utility.yul\":9992:10299   */\n    tag_147:\n        /* \"#utility.yul\":10060:10061   */\n      0x00\n        /* \"#utility.yul\":10070:10183   */\n    tag_207:\n        /* \"#utility.yul\":10084:10090   */\n      dup4\n        /* \"#utility.yul\":10081:10082   */\n      dup2\n        /* \"#utility.yul\":10078:10091   */\n      lt\n        /* \"#utility.yul\":10070:10183   */\n      iszero\n      tag_209\n      jumpi\n        /* \"#utility.yul\":10169:10170   */\n      dup1\n        /* \"#utility.yul\":10164:10167   */\n      dup3\n        /* \"#utility.yul\":10160:10171   */\n      add\n        /* \"#utility.yul\":10154:10172   */\n      mload\n        /* \"#utility.yul\":10150:10151   */\n      dup2\n        /* \"#utility.yul\":10145:10148   */\n      dup5\n        /* \"#utility.yul\":10141:10152   */\n      add\n        /* \"#utility.yul\":10134:10173   */\n      mstore\n        /* \"#utility.yul\":10106:10108   */\n      0x20\n        /* \"#utility.yul\":10103:10104   */\n      dup2\n        /* \"#utility.yul\":10099:10109   */\n      add\n        /* \"#utility.yul\":10094:10109   */\n      swap1\n      pop\n        /* \"#utility.yul\":10070:10183   */\n      jump(tag_207)\n    tag_209:\n        /* \"#utility.yul\":10201:10207   */\n      dup4\n        /* \"#utility.yul\":10198:10199   */\n      dup2\n        /* \"#utility.yul\":10195:10208   */\n      gt\n        /* \"#utility.yul\":10192:10293   */\n      iszero\n      tag_210\n      jumpi\n        /* \"#utility.yul\":10281:10282   */\n      0x00\n        /* \"#utility.yul\":10272:10278   */\n      dup5\n        /* \"#utility.yul\":10267:10270   */\n      dup5\n        /* \"#utility.yul\":10263:10279   */\n      add\n        /* \"#utility.yul\":10256:10283   */\n      mstore\n        /* \"#utility.yul\":10192:10293   */\n    tag_210:\n        /* \"#utility.yul\":10041:10299   */\n      pop\n        /* \"#utility.yul\":9992:10299   */\n      pop\n      pop\n      pop\n      jump\t// out\n        /* \"#utility.yul\":10305:10625   */\n    tag_31:\n        /* \"#utility.yul\":10349:10355   */\n      0x00\n        /* \"#utility.yul\":10386:10387   */\n      0x02\n        /* \"#utility.yul\":10380:10384   */\n      dup3\n        /* \"#utility.yul\":10376:10388   */\n      div\n        /* \"#utility.yul\":10366:10388   */\n      swap1\n      pop\n        /* \"#utility.yul\":10433:10434   */\n      0x01\n        /* \"#utility.yul\":10427:10431   */\n      dup3\n        /* \"#utility.yul\":10423:10435   */\n      and\n        /* \"#utility.yul\":10454:10472   */\n      dup1\n        /* \"#utility.yul\":10444:10525   */\n      tag_212\n      jumpi\n        /* \"#utility.yul\":10510:10514   */\n      0x7f\n        /* \"#utility.yul\":10502:10508   */\n      dup3\n        /* \"#utility.yul\":10498:10515   */\n      and\n        /* \"#utility.yul\":10488:10515   */\n      swap2\n      pop\n        /* \"#utility.yul\":10444:10525   */\n    tag_212:\n        /* \"#utility.yul\":10572:10574   */\n      0x20\n        /* \"#utility.yul\":10564:10570   */\n      dup3\n        /* \"#utility.yul\":10561:10575   */\n      lt\n        /* \"#utility.yul\":10541:10559   */\n      dup2\n        /* \"#utility.yul\":10538:10576   */\n      eq\n        /* \"#utility.yul\":10535:10619   */\n      iszero\n      tag_213\n      jumpi\n        /* \"#utility.yul\":10591:10609   */\n      tag_214\n      tag_215\n      jump\t// in\n    tag_214:\n        /* \"#utility.yul\":10535:10619   */\n    tag_213:\n        /* \"#utility.yul\":10356:10625   */\n      pop\n        /* \"#utility.yul\":10305:10625   */\n      swap2\n      swap1\n      pop\n      jump\t// out\n        /* \"#utility.yul\":10631:10912   */\n    tag_182:\n        /* \"#utility.yul\":10714:10741   */\n      tag_217\n        /* \"#utility.yul\":10736:10740   */\n      dup3\n        /* \"#utility.yul\":10714:10741   */\n      tag_149\n      jump\t// in\n    tag_217:\n        /* \"#utility.yul\":10706:10712   */\n      dup2\n        /* \"#utility.yul\":10702:10742   */\n      add\n        /* \"#utility.yul\":10844:10850   */\n      dup2\n        /* \"#utility.yul\":10832:10842   */\n      dup2\n        /* \"#utility.yul\":10829:10851   */\n      lt\n        /* \"#utility.yul\":10808:10826   */\n      0xffffffffffffffff\n        /* \"#utility.yul\":10796:10806   */\n      dup3\n        /* \"#utility.yul\":10793:10827   */\n      gt\n        /* \"#utility.yul\":10790:10852   */\n      or\n        /* \"#utility.yul\":10787:10875   */\n      iszero\n      tag_218\n      jumpi\n        /* \"#utility.yul\":10855:10873   */\n      tag_219\n      tag_187\n      jump\t// in\n    tag_219:\n        /* \"#utility.yul\":10787:10875   */\n    tag_218:\n        /* \"#utility.yul\":10895:10905   */\n      dup1\n        /* \"#utility.yul\":10891:10893   */\n      0x40\n        /* \"#utility.yul\":10884:10906   */\n      mstore\n        /* \"#utility.yul\":10674:10912   */\n      pop\n        /* \"#utility.yul\":10631:10912   */\n      pop\n      pop\n      jump\t// out\n        /* \"#utility.yul\":10918:11098   */\n    tag_202:\n        /* \"#utility.yul\":10966:11043   */\n      0x4e487b7100000000000000000000000000000000000000000000000000000000\n        /* \"#utility.yul\":10963:10964   */\n      0x00\n        /* \"#utility.yul\":10956:11044   */\n      mstore\n        /* \"#utility.yul\":11063:11067   */\n      0x11\n        /* \"#utility.yul\":11060:11061   */\n      0x04\n        /* \"#utility.yul\":11053:11068   */\n      mstore\n        /* \"#utility.yul\":11087:11091   */\n      0x24\n        /* \"#utility.yul\":11084:11085   */\n      0x00\n        /* \"#utility.yul\":11077:11092   */\n      revert\n        /* \"#utility.yul\":11104:11284   */\n    tag_215:\n        /* \"#utility.yul\":11152:11229   */\n      0x4e487b7100000000000000000000000000000000000000000000000000000000\n        /* \"#utility.yul\":11149:11150   */\n      0x00\n        /* \"#utility.yul\":11142:11230   */\n      mstore\n        /* \"#utility.yul\":11249:11253   */\n      0x22\n        /* \"#utility.yul\":11246:11247   */\n      0x04\n        /* \"#utility.yul\":11239:11254   */\n      mstore\n        /* \"#utility.yul\":11273:11277   */\n      0x24\n        /* \"#utility.yul\":11270:11271   */\n      0x00\n        /* \"#utility.yul\":11263:11278   */\n      revert\n        /* \"#utility.yul\":11290:11470   */\n    tag_187:\n        /* \"#utility.yul\":11338:11415   */\n      0x4e487b7100000000000000000000000000000000000000000000000000000000\n        /* \"#utility.yul\":11335:11336   */\n      0x00\n        /* \"#utility.yul\":11328:11416   */\n      mstore\n        /* \"#utility.yul\":11435:11439   */\n      0x41\n        /* \"#utility.yul\":11432:11433   */\n      0x04\n        /* \"#utility.yul\":11425:11440   */\n      mstore\n        /* \"#utility.yul\":11459:11463   */\n      0x24\n        /* \"#utility.yul\":11456:11457   */\n      0x00\n        /* \"#utility.yul\":11449:11464   */\n      revert\n        /* \"#utility.yul\":11476:11593   */\n    tag_90:\n        /* \"#utility.yul\":11585:11586   */\n      0x00\n        /* \"#utility.yul\":11582:11583   */\n      dup1\n        /* \"#utility.yul\":11575:11587   */\n      revert\n        /* \"#utility.yul\":11599:11716   */\n    tag_79:\n        /* \"#utility.yul\":11708:11709   */\n      0x00\n        /* \"#utility.yul\":11705:11706   */\n      dup1\n        /* \"#utility.yul\":11698:11710   */\n      revert\n        /* \"#utility.yul\":11722:11839   */\n    tag_102:\n        /* \"#utility.yul\":11831:11832   */\n      0x00\n        /* \"#utility.yul\":11828:11829   */\n      dup1\n        /* \"#utility.yul\":11821:11833   */\n      revert\n        /* \"#utility.yul\":11845:11962   */\n    tag_99:\n        /* \"#utility.yul\":11954:11955   */\n      0x00\n        /* \"#utility.yul\":11951:11952   */\n      dup1\n        /* \"#utility.yul\":11944:11956   */\n      revert\n        /* \"#utility.yul\":11968:12070   */\n    tag_149:\n        /* \"#utility.yul\":12009:12015   */\n      0x00\n        /* \"#utility.yul\":12060:12062   */\n      0x1f\n        /* \"#utility.yul\":12056:12063   */\n      not\n        /* \"#utility.yul\":12051:12053   */\n      0x1f\n        /* \"#utility.yul\":12044:12049   */\n      dup4\n        /* \"#utility.yul\":12040:12054   */\n      add\n        /* \"#utility.yul\":12036:12064   */\n      and\n        /* \"#utility.yul\":12026:12064   */\n      swap1\n      pop\n        /* \"#utility.yul\":11968:12070   */\n      swap2\n      swap1\n      pop\n      jump\t// out\n        /* \"#utility.yul\":12076:12194   */\n    tag_85:\n        /* \"#utility.yul\":12147:12169   */\n      tag_229\n        /* \"#utility.yul\":12163:12168   */\n      dup2\n        /* \"#utility.yul\":12147:12169   */\n      tag_136\n      jump\t// in\n    tag_229:\n        /* \"#utility.yul\":12140:12145   */\n      dup2\n        /* \"#utility.yul\":12137:12170   */\n      eq\n        /* \"#utility.yul\":12127:12188   */\n      tag_230\n      jumpi\n        /* \"#utility.yul\":12184:12185   */\n      0x00\n        /* \"#utility.yul\":12181:12182   */\n      dup1\n        /* \"#utility.yul\":12174:12186   */\n      revert\n        /* \"#utility.yul\":12127:12188   */\n    tag_230:\n        /* \"#utility.yul\":12076:12194   */\n      pop\n      jump\t// out\n        /* \"#utility.yul\":12200:12322   */\n    tag_95:\n        /* \"#utility.yul\":12273:12297   */\n      tag_232\n        /* \"#utility.yul\":12291:12296   */\n      dup2\n        /* \"#utility.yul\":12273:12297   */\n      tag_170\n      jump\t// in\n    tag_232:\n        /* \"#utility.yul\":12266:12271   */\n      dup2\n        /* \"#utility.yul\":12263:12298   */\n      eq\n        /* \"#utility.yul\":12253:12316   */\n      tag_233\n      jumpi\n        /* \"#utility.yul\":12312:12313   */\n      0x00\n        /* \"#utility.yul\":12309:12310   */\n      dup1\n        /* \"#utility.yul\":12302:12314   */\n      revert\n        /* \"#utility.yul\":12253:12316   */\n    tag_233:\n        /* \"#utility.yul\":12200:12322   */\n      pop\n      jump\t// out\n\n    auxdata: 0xa2646970667358221220398140e391d92b139af6efa04caa0309ac4c73880c832e5805413f05a9061abd64736f6c63430008070033\n}\n",
				"bytecode": {
					"linkReferences": {},
					"object": "608060405234801561001057600080fd5b50610c5d806100206000396000f3fe608060405234801561001057600080fd5b506004361061004c5760003560e01c806302ee3a521461005157806351401eef1461006f57806365c3e8051461008b578063d7f4933c146100bc575b600080fd5b6100596100ed565b604051610066919061091c565b60405180910390f35b610089600480360381019061008491906106d3565b610205565b005b6100a560048036038101906100a0919061072f565b610391565b6040516100b392919061093e565b60405180910390f35b6100d660048036038101906100d1919061068a565b610464565b6040516100e492919061093e565b60405180910390f35b60606000805480602002602001604051908101604052809291908181526020016000905b828210156101fc57838290600052602060002090600302016040518060600160405290816000820154815260200160018201805461014e90610ae4565b80601f016020809104026020016040519081016040528092919081815260200182805461017a90610ae4565b80156101c75780601f1061019c576101008083540402835291602001916101c7565b820191906000526020600020905b8154815290600101906020018083116101aa57829003601f168201915b505050505081526020016002820160009054906101000a900460010b60010b60010b8152505081526020019060010190610111565b50505050905090565b600060016000805490506102199190610a35565b9050600060405180606001604052808381526020018581526020018460010b8152509050600081908060018154018082558091505060019003906000526020600020906003020160009091909190915060008201518160000155602082015181600101908051906020019061028f92919061054d565b5060408201518160020160006101000a81548161ffff021916908360010b61ffff160217905550505080600260008481526020019081526020016000206000820151816000015560208201518160010190805190602001906102f292919061054d565b5060408201518160020160006101000a81548161ffff021916908360010b61ffff1602179055509050508060038560405161032d9190610905565b908152602001604051809103902060008201518160000155602082015181600101908051906020019061036192919061054d565b5060408201518160020160006101000a81548161ffff021916908360010b61ffff16021790555090505050505050565b60606000600260008481526020019081526020016000206001016002600085815260200190815260200160002060020160009054906101000a900460010b8180546103db90610ae4565b80601f016020809104026020016040519081016040528092919081815260200182805461040790610ae4565b80156104545780601f1061042957610100808354040283529160200191610454565b820191906000526020600020905b81548152906001019060200180831161043757829003601f168201915b5050505050915091509150915091565b606060006003836040516104789190610905565b90815260200160405180910390206001016003846040516104999190610905565b908152602001604051809103902060020160009054906101000a900460010b8180546104c490610ae4565b80601f01602080910402602001604051908101604052809291908181526020018280546104f090610ae4565b801561053d5780601f106105125761010080835404028352916020019161053d565b820191906000526020600020905b81548152906001019060200180831161052057829003601f168201915b5050505050915091509150915091565b82805461055990610ae4565b90600052602060002090601f01602090048101928261057b57600085556105c2565b82601f1061059457805160ff19168380011785556105c2565b828001600101855582156105c2579182015b828111156105c15782518255916020019190600101906105a6565b5b5090506105cf91906105d3565b5090565b5b808211156105ec5760008160009055506001016105d4565b5090565b60006106036105fe84610993565b61096e565b90508281526020810184848401111561061f5761061e610bd9565b5b61062a848285610aa2565b509392505050565b60008135905061064181610bf9565b92915050565b600082601f83011261065c5761065b610bd4565b5b813561066c8482602086016105f0565b91505092915050565b60008135905061068481610c10565b92915050565b6000602082840312156106a05761069f610be3565b5b600082013567ffffffffffffffff8111156106be576106bd610bde565b5b6106ca84828501610647565b91505092915050565b600080604083850312156106ea576106e9610be3565b5b600083013567ffffffffffffffff81111561070857610707610bde565b5b61071485828601610647565b925050602061072585828601610632565b9150509250929050565b60006020828403121561074557610744610be3565b5b600061075384828501610675565b91505092915050565b600061076883836108a6565b905092915050565b600061077b826109d4565b61078581856109f7565b935083602082028501610797856109c4565b8060005b858110156107d357848403895281516107b4858261075c565b94506107bf836109ea565b925060208a0199505060018101905061079b565b50829750879550505050505092915050565b6107ee81610a8b565b82525050565b6107fd81610a8b565b82525050565b600061080e826109df565b6108188185610a08565b9350610828818560208601610ab1565b61083181610be8565b840191505092915050565b6000610847826109df565b6108518185610a19565b9350610861818560208601610ab1565b61086a81610be8565b840191505092915050565b6000610880826109df565b61088a8185610a2a565b935061089a818560208601610ab1565b80840191505092915050565b60006060830160008301516108be60008601826108f6565b50602083015184820360208601526108d68282610803565b91505060408301516108eb60408601826107e5565b508091505092915050565b6108ff81610a98565b82525050565b60006109118284610875565b915081905092915050565b600060208201905081810360008301526109368184610770565b905092915050565b60006040820190508181036000830152610958818561083c565b905061096760208301846107f4565b9392505050565b6000610978610989565b90506109848282610b16565b919050565b6000604051905090565b600067ffffffffffffffff8211156109ae576109ad610ba5565b5b6109b782610be8565b9050602081019050919050565b6000819050602082019050919050565b600081519050919050565b600081519050919050565b6000602082019050919050565b600082825260208201905092915050565b600082825260208201905092915050565b600082825260208201905092915050565b600081905092915050565b6000610a4082610a98565b9150610a4b83610a98565b9250827fffffffffffffffffffffffffffffffffffffffffffffffffffffffffffffffff03821115610a8057610a7f610b47565b5b828201905092915050565b60008160010b9050919050565b6000819050919050565b82818337600083830152505050565b60005b83811015610acf578082015181840152602081019050610ab4565b83811115610ade576000848401525b50505050565b60006002820490506001821680610afc57607f821691505b60208210811415610b1057610b0f610b76565b5b50919050565b610b1f82610be8565b810181811067ffffffffffffffff82111715610b3e57610b3d610ba5565b5b80604052505050565b7f4e487b7100000000000000000000000000000000000000000000000000000000600052601160045260246000fd5b7f4e487b7100000000000000000000000000000000000000000000000000000000600052602260045260246000fd5b7f4e487b7100000000000000000000000000000000000000000000000000000000600052604160045260246000fd5b600080fd5b600080fd5b600080fd5b600080fd5b6000601f19601f8301169050919050565b610c0281610a8b565b8114610c0d57600080fd5b50565b610c1981610a98565b8114610c2457600080fd5b5056fea2646970667358221220398140e391d92b139af6efa04caa0309ac4c73880c832e5805413f05a9061abd64736f6c63430008070033",
					"opcodes": "PUSH1 0x80 PUSH1 0x40 MSTORE CALLVALUE DUP1 ISZERO PUSH2 0x10 JUMPI PUSH1 0x0 DUP1 REVERT JUMPDEST POP PUSH2 0xC5D DUP1 PUSH2 0x20 PUSH1 0x0 CODECOPY PUSH1 0x0 RETURN INVALID PUSH1 0x80 PUSH1 0x40 MSTORE CALLVALUE DUP1 ISZERO PUSH2 0x10 JUMPI PUSH1 0x0 DUP1 REVERT JUMPDEST POP PUSH1 0x4 CALLDATASIZE LT PUSH2 0x4C JUMPI PUSH1 0x0 CALLDATALOAD PUSH1 0xE0 SHR DUP1 PUSH4 0x2EE3A52 EQ PUSH2 0x51 JUMPI DUP1 PUSH4 0x51401EEF EQ PUSH2 0x6F JUMPI DUP1 PUSH4 0x65C3E805 EQ PUSH2 0x8B JUMPI DUP1 PUSH4 0xD7F4933C EQ PUSH2 0xBC JUMPI JUMPDEST PUSH1 0x0 DUP1 REVERT JUMPDEST PUSH2 0x59 PUSH2 0xED JUMP JUMPDEST PUSH1 0x40 MLOAD PUSH2 0x66 SWAP2 SWAP1 PUSH2 0x91C JUMP JUMPDEST PUSH1 0x40 MLOAD DUP1 SWAP2 SUB SWAP1 RETURN JUMPDEST PUSH2 0x89 PUSH1 0x4 DUP1 CALLDATASIZE SUB DUP2 ADD SWAP1 PUSH2 0x84 SWAP2 SWAP1 PUSH2 0x6D3 JUMP JUMPDEST PUSH2 0x205 JUMP JUMPDEST STOP JUMPDEST PUSH2 0xA5 PUSH1 0x4 DUP1 CALLDATASIZE SUB DUP2 ADD SWAP1 PUSH2 0xA0 SWAP2 SWAP1 PUSH2 0x72F JUMP JUMPDEST PUSH2 0x391 JUMP JUMPDEST PUSH1 0x40 MLOAD PUSH2 0xB3 SWAP3 SWAP2 SWAP1 PUSH2 0x93E JUMP JUMPDEST PUSH1 0x40 MLOAD DUP1 SWAP2 SUB SWAP1 RETURN JUMPDEST PUSH2 0xD6 PUSH1 0x4 DUP1 CALLDATASIZE SUB DUP2 ADD SWAP1 PUSH2 0xD1 SWAP2 SWAP1 PUSH2 0x68A JUMP JUMPDEST PUSH2 0x464 JUMP JUMPDEST PUSH1 0x40 MLOAD PUSH2 0xE4 SWAP3 SWAP2 SWAP1 PUSH2 0x93E JUMP JUMPDEST PUSH1 0x40 MLOAD DUP1 SWAP2 SUB SWAP1 RETURN JUMPDEST PUSH1 0x60 PUSH1 0x0 DUP1 SLOAD DUP1 PUSH1 0x20 MUL PUSH1 0x20 ADD PUSH1 0x40 MLOAD SWAP1 DUP2 ADD PUSH1 0x40 MSTORE DUP1 SWAP3 SWAP2 SWAP1 DUP2 DUP2 MSTORE PUSH1 0x20 ADD PUSH1 0x0 SWAP1 JUMPDEST DUP3 DUP3 LT ISZERO PUSH2 0x1FC JUMPI DUP4 DUP3 SWAP1 PUSH1 0x0 MSTORE PUSH1 0x20 PUSH1 0x0 KECCAK256 SWAP1 PUSH1 0x3 MUL ADD PUSH1 0x40 MLOAD DUP1 PUSH1 0x60 ADD PUSH1 0x40 MSTORE SWAP1 DUP2 PUSH1 0x0 DUP3 ADD SLOAD DUP2 MSTORE PUSH1 0x20 ADD PUSH1 0x1 DUP3 ADD DUP1 SLOAD PUSH2 0x14E SWAP1 PUSH2 0xAE4 JUMP JUMPDEST DUP1 PUSH1 0x1F ADD PUSH1 0x20 DUP1 SWAP2 DIV MUL PUSH1 0x20 ADD PUSH1 0x40 MLOAD SWAP1 DUP2 ADD PUSH1 0x40 MSTORE DUP1 SWAP3 SWAP2 SWAP1 DUP2 DUP2 MSTORE PUSH1 0x20 ADD DUP3 DUP1 SLOAD PUSH2 0x17A SWAP1 PUSH2 0xAE4 JUMP JUMPDEST DUP1 ISZERO PUSH2 0x1C7 JUMPI DUP1 PUSH1 0x1F LT PUSH2 0x19C JUMPI PUSH2 0x100 DUP1 DUP4 SLOAD DIV MUL DUP4 MSTORE SWAP2 PUSH1 0x20 ADD SWAP2 PUSH2 0x1C7 JUMP JUMPDEST DUP3 ADD SWAP2 SWAP1 PUSH1 0x0 MSTORE PUSH1 0x20 PUSH1 0x0 KECCAK256 SWAP1 JUMPDEST DUP2 SLOAD DUP2 MSTORE SWAP1 PUSH1 0x1 ADD SWAP1 PUSH1 0x20 ADD DUP1 DUP4 GT PUSH2 0x1AA JUMPI DUP3 SWAP1 SUB PUSH1 0x1F AND DUP3 ADD SWAP2 JUMPDEST POP POP POP POP POP DUP2 MSTORE PUSH1 0x20 ADD PUSH1 0x2 DUP3 ADD PUSH1 0x0 SWAP1 SLOAD SWAP1 PUSH2 0x100 EXP SWAP1 DIV PUSH1 0x1 SIGNEXTEND PUSH1 0x1 SIGNEXTEND PUSH1 0x1 SIGNEXTEND DUP2 MSTORE POP POP DUP2 MSTORE PUSH1 0x20 ADD SWAP1 PUSH1 0x1 ADD SWAP1 PUSH2 0x111 JUMP JUMPDEST POP POP POP POP SWAP1 POP SWAP1 JUMP JUMPDEST PUSH1 0x0 PUSH1 0x1 PUSH1 0x0 DUP1 SLOAD SWAP1 POP PUSH2 0x219 SWAP2 SWAP1 PUSH2 0xA35 JUMP JUMPDEST SWAP1 POP PUSH1 0x0 PUSH1 0x40 MLOAD DUP1 PUSH1 0x60 ADD PUSH1 0x40 MSTORE DUP1 DUP4 DUP2 MSTORE PUSH1 0x20 ADD DUP6 DUP2 MSTORE PUSH1 0x20 ADD DUP5 PUSH1 0x1 SIGNEXTEND DUP2 MSTORE POP SWAP1 POP PUSH1 0x0 DUP2 SWAP1 DUP1 PUSH1 0x1 DUP2 SLOAD ADD DUP1 DUP3 SSTORE DUP1 SWAP2 POP POP PUSH1 0x1 SWAP1 SUB SWAP1 PUSH1 0x0 MSTORE PUSH1 0x20 PUSH1 0x0 KECCAK256 SWAP1 PUSH1 0x3 MUL ADD PUSH1 0x0 SWAP1 SWAP2 SWAP1 SWAP2 SWAP1 SWAP2 POP PUSH1 0x0 DUP3 ADD MLOAD DUP2 PUSH1 0x0 ADD SSTORE PUSH1 0x20 DUP3 ADD MLOAD DUP2 PUSH1 0x1 ADD SWAP1 DUP1 MLOAD SWAP1 PUSH1 0x20 ADD SWAP1 PUSH2 0x28F SWAP3 SWAP2 SWAP1 PUSH2 0x54D JUMP JUMPDEST POP PUSH1 0x40 DUP3 ADD MLOAD DUP2 PUSH1 0x2 ADD PUSH1 0x0 PUSH2 0x100 EXP DUP2 SLOAD DUP2 PUSH2 0xFFFF MUL NOT AND SWAP1 DUP4 PUSH1 0x1 SIGNEXTEND PUSH2 0xFFFF AND MUL OR SWAP1 SSTORE POP POP POP DUP1 PUSH1 0x2 PUSH1 0x0 DUP5 DUP2 MSTORE PUSH1 0x20 ADD SWAP1 DUP2 MSTORE PUSH1 0x20 ADD PUSH1 0x0 KECCAK256 PUSH1 0x0 DUP3 ADD MLOAD DUP2 PUSH1 0x0 ADD SSTORE PUSH1 0x20 DUP3 ADD MLOAD DUP2 PUSH1 0x1 ADD SWAP1 DUP1 MLOAD SWAP1 PUSH1 0x20 ADD SWAP1 PUSH2 0x2F2 SWAP3 SWAP2 SWAP1 PUSH2 0x54D JUMP JUMPDEST POP PUSH1 0x40 DUP3 ADD MLOAD DUP2 PUSH1 0x2 ADD PUSH1 0x0 PUSH2 0x100 EXP DUP2 SLOAD DUP2 PUSH2 0xFFFF MUL NOT AND SWAP1 DUP4 PUSH1 0x1 SIGNEXTEND PUSH2 0xFFFF AND MUL OR SWAP1 SSTORE POP SWAP1 POP POP DUP1 PUSH1 0x3 DUP6 PUSH1 0x40 MLOAD PUSH2 0x32D SWAP2 SWAP1 PUSH2 0x905 JUMP JUMPDEST SWAP1 DUP2 MSTORE PUSH1 0x20 ADD PUSH1 0x40 MLOAD DUP1 SWAP2 SUB SWAP1 KECCAK256 PUSH1 0x0 DUP3 ADD MLOAD DUP2 PUSH1 0x0 ADD SSTORE PUSH1 0x20 DUP3 ADD MLOAD DUP2 PUSH1 0x1 ADD SWAP1 DUP1 MLOAD SWAP1 PUSH1 0x20 ADD SWAP1 PUSH2 0x361 SWAP3 SWAP2 SWAP1 PUSH2 0x54D JUMP JUMPDEST POP PUSH1 0x40 DUP3 ADD MLOAD DUP2 PUSH1 0x2 ADD PUSH1 0x0 PUSH2 0x100 EXP DUP2 SLOAD DUP2 PUSH2 0xFFFF MUL NOT AND SWAP1 DUP4 PUSH1 0x1 SIGNEXTEND PUSH2 0xFFFF AND MUL OR SWAP1 SSTORE POP SWAP1 POP POP POP POP POP POP JUMP JUMPDEST PUSH1 0x60 PUSH1 0x0 PUSH1 0x2 PUSH1 0x0 DUP5 DUP2 MSTORE PUSH1 0x20 ADD SWAP1 DUP2 MSTORE PUSH1 0x20 ADD PUSH1 0x0 KECCAK256 PUSH1 0x1 ADD PUSH1 0x2 PUSH1 0x0 DUP6 DUP2 MSTORE PUSH1 0x20 ADD SWAP1 DUP2 MSTORE PUSH1 0x20 ADD PUSH1 0x0 KECCAK256 PUSH1 0x2 ADD PUSH1 0x0 SWAP1 SLOAD SWAP1 PUSH2 0x100 EXP SWAP1 DIV PUSH1 0x1 SIGNEXTEND DUP2 DUP1 SLOAD PUSH2 0x3DB SWAP1 PUSH2 0xAE4 JUMP JUMPDEST DUP1 PUSH1 0x1F ADD PUSH1 0x20 DUP1 SWAP2 DIV MUL PUSH1 0x20 ADD PUSH1 0x40 MLOAD SWAP1 DUP2 ADD PUSH1 0x40 MSTORE DUP1 SWAP3 SWAP2 SWAP1 DUP2 DUP2 MSTORE PUSH1 0x20 ADD DUP3 DUP1 SLOAD PUSH2 0x407 SWAP1 PUSH2 0xAE4 JUMP JUMPDEST DUP1 ISZERO PUSH2 0x454 JUMPI DUP1 PUSH1 0x1F LT PUSH2 0x429 JUMPI PUSH2 0x100 DUP1 DUP4 SLOAD DIV MUL DUP4 MSTORE SWAP2 PUSH1 0x20 ADD SWAP2 PUSH2 0x454 JUMP JUMPDEST DUP3 ADD SWAP2 SWAP1 PUSH1 0x0 MSTORE PUSH1 0x20 PUSH1 0x0 KECCAK256 SWAP1 JUMPDEST DUP2 SLOAD DUP2 MSTORE SWAP1 PUSH1 0x1 ADD SWAP1 PUSH1 0x20 ADD DUP1 DUP4 GT PUSH2 0x437 JUMPI DUP3 SWAP1 SUB PUSH1 0x1F AND DUP3 ADD SWAP2 JUMPDEST POP POP POP POP POP SWAP2 POP SWAP2 POP SWAP2 POP SWAP2 POP SWAP2 JUMP JUMPDEST PUSH1 0x60 PUSH1 0x0 PUSH1 0x3 DUP4 PUSH1 0x40 MLOAD PUSH2 0x478 SWAP2 SWAP1 PUSH2 0x905 JUMP JUMPDEST SWAP1 DUP2 MSTORE PUSH1 0x20 ADD PUSH1 0x40 MLOAD DUP1 SWAP2 SUB SWAP1 KECCAK256 PUSH1 0x1 ADD PUSH1 0x3 DUP5 PUSH1 0x40 MLOAD PUSH2 0x499 SWAP2 SWAP1 PUSH2 0x905 JUMP JUMPDEST SWAP1 DUP2 MSTORE PUSH1 0x20 ADD PUSH1 0x40 MLOAD DUP1 SWAP2 SUB SWAP1 KECCAK256 PUSH1 0x2 ADD PUSH1 0x0 SWAP1 SLOAD SWAP1 PUSH2 0x100 EXP SWAP1 DIV PUSH1 0x1 SIGNEXTEND DUP2 DUP1 SLOAD PUSH2 0x4C4 SWAP1 PUSH2 0xAE4 JUMP JUMPDEST DUP1 PUSH1 0x1F ADD PUSH1 0x20 DUP1 SWAP2 DIV MUL PUSH1 0x20 ADD PUSH1 0x40 MLOAD SWAP1 DUP2 ADD PUSH1 0x40 MSTORE DUP1 SWAP3 SWAP2 SWAP1 DUP2 DUP2 MSTORE PUSH1 0x20 ADD DUP3 DUP1 SLOAD PUSH2 0x4F0 SWAP1 PUSH2 0xAE4 JUMP JUMPDEST DUP1 ISZERO PUSH2 0x53D JUMPI DUP1 PUSH1 0x1F LT PUSH2 0x512 JUMPI PUSH2 0x100 DUP1 DUP4 SLOAD DIV MUL DUP4 MSTORE SWAP2 PUSH1 0x20 ADD SWAP2 PUSH2 0x53D JUMP JUMPDEST DUP3 ADD SWAP2 SWAP1 PUSH1 0x0 MSTORE PUSH1 0x20 PUSH1 0x0 KECCAK256 SWAP1 JUMPDEST DUP2 SLOAD DUP2 MSTORE SWAP1 PUSH1 0x1 ADD SWAP1 PUSH1 0x20 ADD DUP1 DUP4 GT PUSH2 0x520 JUMPI DUP3 SWAP1 SUB PUSH1 0x1F AND DUP3 ADD SWAP2 JUMPDEST POP POP POP POP POP SWAP2 POP SWAP2 POP SWAP2 POP SWAP2 POP SWAP2 JUMP JUMPDEST DUP3 DUP1 SLOAD PUSH2 0x559 SWAP1 PUSH2 0xAE4 JUMP JUMPDEST SWAP1 PUSH1 0x0 MSTORE PUSH1 0x20 PUSH1 0x0 KECCAK256 SWAP1 PUSH1 0x1F ADD PUSH1 0x20 SWAP1 DIV DUP2 ADD SWAP3 DUP3 PUSH2 0x57B JUMPI PUSH1 0x0 DUP6 SSTORE PUSH2 0x5C2 JUMP JUMPDEST DUP3 PUSH1 0x1F LT PUSH2 0x594 JUMPI DUP1 MLOAD PUSH1 0xFF NOT AND DUP4 DUP1 ADD OR DUP6 SSTORE PUSH2 0x5C2 JUMP JUMPDEST DUP3 DUP1 ADD PUSH1 0x1 ADD DUP6 SSTORE DUP3 ISZERO PUSH2 0x5C2 JUMPI SWAP2 DUP3 ADD JUMPDEST DUP3 DUP2 GT ISZERO PUSH2 0x5C1 JUMPI DUP3 MLOAD DUP3 SSTORE SWAP2 PUSH1 0x20 ADD SWAP2 SWAP1 PUSH1 0x1 ADD SWAP1 PUSH2 0x5A6 JUMP JUMPDEST JUMPDEST POP SWAP1 POP PUSH2 0x5CF SWAP2 SWAP1 PUSH2 0x5D3 JUMP JUMPDEST POP SWAP1 JUMP JUMPDEST JUMPDEST DUP1 DUP3 GT ISZERO PUSH2 0x5EC JUMPI PUSH1 0x0 DUP2 PUSH1 0x0 SWAP1 SSTORE POP PUSH1 0x1 ADD PUSH2 0x5D4 JUMP JUMPDEST POP SWAP1 JUMP JUMPDEST PUSH1 0x0 PUSH2 0x603 PUSH2 0x5FE DUP5 PUSH2 0x993 JUMP JUMPDEST PUSH2 0x96E JUMP JUMPDEST SWAP1 POP DUP3 DUP2 MSTORE PUSH1 0x20 DUP2 ADD DUP5 DUP5 DUP5 ADD GT ISZERO PUSH2 0x61F JUMPI PUSH2 0x61E PUSH2 0xBD9 JUMP JUMPDEST JUMPDEST PUSH2 0x62A DUP5 DUP3 DUP6 PUSH2 0xAA2 JUMP JUMPDEST POP SWAP4 SWAP3 POP POP POP JUMP JUMPDEST PUSH1 0x0 DUP2 CALLDATALOAD SWAP1 POP PUSH2 0x641 DUP2 PUSH2 0xBF9 JUMP JUMPDEST SWAP3 SWAP2 POP POP JUMP JUMPDEST PUSH1 0x0 DUP3 PUSH1 0x1F DUP4 ADD SLT PUSH2 0x65C JUMPI PUSH2 0x65B PUSH2 0xBD4 JUMP JUMPDEST JUMPDEST DUP2 CALLDATALOAD PUSH2 0x66C DUP5 DUP3 PUSH1 0x20 DUP7 ADD PUSH2 0x5F0 JUMP JUMPDEST SWAP2 POP POP SWAP3 SWAP2 POP POP JUMP JUMPDEST PUSH1 0x0 DUP2 CALLDATALOAD SWAP1 POP PUSH2 0x684 DUP2 PUSH2 0xC10 JUMP JUMPDEST SWAP3 SWAP2 POP POP JUMP JUMPDEST PUSH1 0x0 PUSH1 0x20 DUP3 DUP5 SUB SLT ISZERO PUSH2 0x6A0 JUMPI PUSH2 0x69F PUSH2 0xBE3 JUMP JUMPDEST JUMPDEST PUSH1 0x0 DUP3 ADD CALLDATALOAD PUSH8 0xFFFFFFFFFFFFFFFF DUP2 GT ISZERO PUSH2 0x6BE JUMPI PUSH2 0x6BD PUSH2 0xBDE JUMP JUMPDEST JUMPDEST PUSH2 0x6CA DUP5 DUP3 DUP6 ADD PUSH2 0x647 JUMP JUMPDEST SWAP2 POP POP SWAP3 SWAP2 POP POP JUMP JUMPDEST PUSH1 0x0 DUP1 PUSH1 0x40 DUP4 DUP6 SUB SLT ISZERO PUSH2 0x6EA JUMPI PUSH2 0x6E9 PUSH2 0xBE3 JUMP JUMPDEST JUMPDEST PUSH1 0x0 DUP4 ADD CALLDATALOAD PUSH8 0xFFFFFFFFFFFFFFFF DUP2 GT ISZERO PUSH2 0x708 JUMPI PUSH2 0x707 PUSH2 0xBDE JUMP JUMPDEST JUMPDEST PUSH2 0x714 DUP6 DUP3 DUP7 ADD PUSH2 0x647 JUMP JUMPDEST SWAP3 POP POP PUSH1 0x20 PUSH2 0x725 DUP6 DUP3 DUP7 ADD PUSH2 0x632 JUMP JUMPDEST SWAP2 POP POP SWAP3 POP SWAP3 SWAP1 POP JUMP JUMPDEST PUSH1 0x0 PUSH1 0x20 DUP3 DUP5 SUB SLT ISZERO PUSH2 0x745 JUMPI PUSH2 0x744 PUSH2 0xBE3 JUMP JUMPDEST JUMPDEST PUSH1 0x0 PUSH2 0x753 DUP5 DUP3 DUP6 ADD PUSH2 0x675 JUMP JUMPDEST SWAP2 POP POP SWAP3 SWAP2 POP POP JUMP JUMPDEST PUSH1 0x0 PUSH2 0x768 DUP4 DUP4 PUSH2 0x8A6 JUMP JUMPDEST SWAP1 POP SWAP3 SWAP2 POP POP JUMP JUMPDEST PUSH1 0x0 PUSH2 0x77B DUP3 PUSH2 0x9D4 JUMP JUMPDEST PUSH2 0x785 DUP2 DUP6 PUSH2 0x9F7 JUMP JUMPDEST SWAP4 POP DUP4 PUSH1 0x20 DUP3 MUL DUP6 ADD PUSH2 0x797 DUP6 PUSH2 0x9C4 JUMP JUMPDEST DUP1 PUSH1 0x0 JUMPDEST DUP6 DUP2 LT ISZERO PUSH2 0x7D3 JUMPI DUP5 DUP5 SUB DUP10 MSTORE DUP2 MLOAD PUSH2 0x7B4 DUP6 DUP3 PUSH2 0x75C JUMP JUMPDEST SWAP5 POP PUSH2 0x7BF DUP4 PUSH2 0x9EA JUMP JUMPDEST SWAP3 POP PUSH1 0x20 DUP11 ADD SWAP10 POP POP PUSH1 0x1 DUP2 ADD SWAP1 POP PUSH2 0x79B JUMP JUMPDEST POP DUP3 SWAP8 POP DUP8 SWAP6 POP POP POP POP POP POP SWAP3 SWAP2 POP POP JUMP JUMPDEST PUSH2 0x7EE DUP2 PUSH2 0xA8B JUMP JUMPDEST DUP3 MSTORE POP POP JUMP JUMPDEST PUSH2 0x7FD DUP2 PUSH2 0xA8B JUMP JUMPDEST DUP3 MSTORE POP POP JUMP JUMPDEST PUSH1 0x0 PUSH2 0x80E DUP3 PUSH2 0x9DF JUMP JUMPDEST PUSH2 0x818 DUP2 DUP6 PUSH2 0xA08 JUMP JUMPDEST SWAP4 POP PUSH2 0x828 DUP2 DUP6 PUSH1 0x20 DUP7 ADD PUSH2 0xAB1 JUMP JUMPDEST PUSH2 0x831 DUP2 PUSH2 0xBE8 JUMP JUMPDEST DUP5 ADD SWAP2 POP POP SWAP3 SWAP2 POP POP JUMP JUMPDEST PUSH1 0x0 PUSH2 0x847 DUP3 PUSH2 0x9DF JUMP JUMPDEST PUSH2 0x851 DUP2 DUP6 PUSH2 0xA19 JUMP JUMPDEST SWAP4 POP PUSH2 0x861 DUP2 DUP6 PUSH1 0x20 DUP7 ADD PUSH2 0xAB1 JUMP JUMPDEST PUSH2 0x86A DUP2 PUSH2 0xBE8 JUMP JUMPDEST DUP5 ADD SWAP2 POP POP SWAP3 SWAP2 POP POP JUMP JUMPDEST PUSH1 0x0 PUSH2 0x880 DUP3 PUSH2 0x9DF JUMP JUMPDEST PUSH2 0x88A DUP2 DUP6 PUSH2 0xA2A JUMP JUMPDEST SWAP4 POP PUSH2 0x89A DUP2 DUP6 PUSH1 0x20 DUP7 ADD PUSH2 0xAB1 JUMP JUMPDEST DUP1 DUP5 ADD SWAP2 POP POP SWAP3 SWAP2 POP POP JUMP JUMPDEST PUSH1 0x0 PUSH1 0x60 DUP4 ADD PUSH1 0x0 DUP4 ADD MLOAD PUSH2 0x8BE PUSH1 0x0 DUP7 ADD DUP3 PUSH2 0x8F6 JUMP JUMPDEST POP PUSH1 0x20 DUP4 ADD MLOAD DUP5 DUP3 SUB PUSH1 0x20 DUP7 ADD MSTORE PUSH2 0x8D6 DUP3 DUP3 PUSH2 0x803 JUMP JUMPDEST SWAP2 POP POP PUSH1 0x40 DUP4 ADD MLOAD PUSH2 0x8EB PUSH1 0x40 DUP7 ADD DUP3 PUSH2 0x7E5 JUMP JUMPDEST POP DUP1 SWAP2 POP POP SWAP3 SWAP2 POP POP JUMP JUMPDEST PUSH2 0x8FF DUP2 PUSH2 0xA98 JUMP JUMPDEST DUP3 MSTORE POP POP JUMP JUMPDEST PUSH1 0x0 PUSH2 0x911 DUP3 DUP5 PUSH2 0x875 JUMP JUMPDEST SWAP2 POP DUP2 SWAP1 POP SWAP3 SWAP2 POP POP JUMP JUMPDEST PUSH1 0x0 PUSH1 0x20 DUP3 ADD SWAP1 POP DUP2 DUP2 SUB PUSH1 0x0 DUP4 ADD MSTORE PUSH2 0x936 DUP2 DUP5 PUSH2 0x770 JUMP JUMPDEST SWAP1 POP SWAP3 SWAP2 POP POP JUMP JUMPDEST PUSH1 0x0 PUSH1 0x40 DUP3 ADD SWAP1 POP DUP2 DUP2 SUB PUSH1 0x0 DUP4 ADD MSTORE PUSH2 0x958 DUP2 DUP6 PUSH2 0x83C JUMP JUMPDEST SWAP1 POP PUSH2 0x967 PUSH1 0x20 DUP4 ADD DUP5 PUSH2 0x7F4 JUMP JUMPDEST SWAP4 SWAP3 POP POP POP JUMP JUMPDEST PUSH1 0x0 PUSH2 0x978 PUSH2 0x989 JUMP JUMPDEST SWAP1 POP PUSH2 0x984 DUP3 DUP3 PUSH2 0xB16 JUMP JUMPDEST SWAP2 SWAP1 POP JUMP JUMPDEST PUSH1 0x0 PUSH1 0x40 MLOAD SWAP1 POP SWAP1 JUMP JUMPDEST PUSH1 0x0 PUSH8 0xFFFFFFFFFFFFFFFF DUP3 GT ISZERO PUSH2 0x9AE JUMPI PUSH2 0x9AD PUSH2 0xBA5 JUMP JUMPDEST JUMPDEST PUSH2 0x9B7 DUP3 PUSH2 0xBE8 JUMP JUMPDEST SWAP1 POP PUSH1 0x20 DUP2 ADD SWAP1 POP SWAP2 SWAP1 POP JUMP JUMPDEST PUSH1 0x0 DUP2 SWAP1 POP PUSH1 0x20 DUP3 ADD SWAP1 POP SWAP2 SWAP1 POP JUMP JUMPDEST PUSH1 0x0 DUP2 MLOAD SWAP1 POP SWAP2 SWAP1 POP JUMP JUMPDEST PUSH1 0x0 DUP2 MLOAD SWAP1 POP SWAP2 SWAP1 POP JUMP JUMPDEST PUSH1 0x0 PUSH1 0x20 DUP3 ADD SWAP1 POP SWAP2 SWAP1 POP JUMP JUMPDEST PUSH1 0x0 DUP3 DUP3 MSTORE PUSH1 0x20 DUP3 ADD SWAP1 POP SWAP3 SWAP2 POP POP JUMP JUMPDEST PUSH1 0x0 DUP3 DUP3 MSTORE PUSH1 0x20 DUP3 ADD SWAP1 POP SWAP3 SWAP2 POP POP JUMP JUMPDEST PUSH1 0x0 DUP3 DUP3 MSTORE PUSH1 0x20 DUP3 ADD SWAP1 POP SWAP3 SWAP2 POP POP JUMP JUMPDEST PUSH1 0x0 DUP2 SWAP1 POP SWAP3 SWAP2 POP POP JUMP JUMPDEST PUSH1 0x0 PUSH2 0xA40 DUP3 PUSH2 0xA98 JUMP JUMPDEST SWAP2 POP PUSH2 0xA4B DUP4 PUSH2 0xA98 JUMP JUMPDEST SWAP3 POP DUP3 PUSH32 0xFFFFFFFFFFFFFFFFFFFFFFFFFFFFFFFFFFFFFFFFFFFFFFFFFFFFFFFFFFFFFFFF SUB DUP3 GT ISZERO PUSH2 0xA80 JUMPI PUSH2 0xA7F PUSH2 0xB47 JUMP JUMPDEST JUMPDEST DUP3 DUP3 ADD SWAP1 POP SWAP3 SWAP2 POP POP JUMP JUMPDEST PUSH1 0x0 DUP2 PUSH1 0x1 SIGNEXTEND SWAP1 POP SWAP2 SWAP1 POP JUMP JUMPDEST PUSH1 0x0 DUP2 SWAP1 POP SWAP2 SWAP1 POP JUMP JUMPDEST DUP3 DUP2 DUP4 CALLDATACOPY PUSH1 0x0 DUP4 DUP4 ADD MSTORE POP POP POP JUMP JUMPDEST PUSH1 0x0 JUMPDEST DUP4 DUP2 LT ISZERO PUSH2 0xACF JUMPI DUP1 DUP3 ADD MLOAD DUP2 DUP5 ADD MSTORE PUSH1 0x20 DUP2 ADD SWAP1 POP PUSH2 0xAB4 JUMP JUMPDEST DUP4 DUP2 GT ISZERO PUSH2 0xADE JUMPI PUSH1 0x0 DUP5 DUP5 ADD MSTORE JUMPDEST POP POP POP POP JUMP JUMPDEST PUSH1 0x0 PUSH1 0x2 DUP3 DIV SWAP1 POP PUSH1 0x1 DUP3 AND DUP1 PUSH2 0xAFC JUMPI PUSH1 0x7F DUP3 AND SWAP2 POP JUMPDEST PUSH1 0x20 DUP3 LT DUP2 EQ ISZERO PUSH2 0xB10 JUMPI PUSH2 0xB0F PUSH2 0xB76 JUMP JUMPDEST JUMPDEST POP SWAP2 SWAP1 POP JUMP JUMPDEST PUSH2 0xB1F DUP3 PUSH2 0xBE8 JUMP JUMPDEST DUP2 ADD DUP2 DUP2 LT PUSH8 0xFFFFFFFFFFFFFFFF DUP3 GT OR ISZERO PUSH2 0xB3E JUMPI PUSH2 0xB3D PUSH2 0xBA5 JUMP JUMPDEST JUMPDEST DUP1 PUSH1 0x40 MSTORE POP POP POP JUMP JUMPDEST PUSH32 0x4E487B7100000000000000000000000000000000000000000000000000000000 PUSH1 0x0 MSTORE PUSH1 0x11 PUSH1 0x4 MSTORE PUSH1 0x24 PUSH1 0x0 REVERT JUMPDEST PUSH32 0x4E487B7100000000000000000000000000000000000000000000000000000000 PUSH1 0x0 MSTORE PUSH1 0x22 PUSH1 0x4 MSTORE PUSH1 0x24 PUSH1 0x0 REVERT JUMPDEST PUSH32 0x4E487B7100000000000000000000000000000000000000000000000000000000 PUSH1 0x0 MSTORE PUSH1 0x41 PUSH1 0x4 MSTORE PUSH1 0x24 PUSH1 0x0 REVERT JUMPDEST PUSH1 0x0 DUP1 REVERT JUMPDEST PUSH1 0x0 DUP1 REVERT JUMPDEST PUSH1 0x0 DUP1 REVERT JUMPDEST PUSH1 0x0 DUP1 REVERT JUMPDEST PUSH1 0x0 PUSH1 0x1F NOT PUSH1 0x1F DUP4 ADD AND SWAP1 POP SWAP2 SWAP1 POP JUMP JUMPDEST PUSH2 0xC02 DUP2 PUSH2 0xA8B JUMP JUMPDEST DUP2 EQ PUSH2 0xC0D JUMPI PUSH1 0x0 DUP1 REVERT JUMPDEST POP JUMP JUMPDEST PUSH2 0xC19 DUP2 PUSH2 0xA98 JUMP JUMPDEST DUP2 EQ PUSH2 0xC24 JUMPI PUSH1 0x0 DUP1 REVERT JUMPDEST POP JUMP INVALID LOG2 PUSH5 0x6970667358 0x22 SLT KECCAK256 CODECOPY DUP2 BLOCKHASH 0xE3 SWAP2 0xD9 0x2B SGT SWAP11 0xF6 0xEF LOG0 0x4C 0xAA SUB MULMOD 0xAC 0x4C PUSH20 0x880C832E5805413F05A9061ABD64736F6C634300 ADDMOD SMOD STOP CALLER "
				},
				"gasEstimates": {
					"creation": {
						"codeDepositCost": "633000",
						"executionCost": "664",
						"totalCost": "633664"
					},
					"external": {
						"createProduit(string,int16)": "infinite",
						"getAllProducts()": "infinite",
						"getProductInfoById(uint256)": "infinite",
						"getProductInfoByName(string)": "infinite"
					}
				},
				"methodIdentifiers": {
					"createProduit(string,int16)": "51401eef",
					"getAllProducts()": "02ee3a52",
					"getProductInfoById(uint256)": "65c3e805",
					"getProductInfoByName(string)": "d7f4933c"
				}
			},
			"storageLayout": {
				"storage": [
					{
						"astId": 21,
						"contract": "contracts/ExoSupermarche.sol:supermarche",
						"label": "AllProduits",
						"offset": 0,
						"slot": "0",
						"type": "t_array(t_struct(productData)17_storage)dyn_storage"
					},
					{
						"astId": 25,
						"contract": "contracts/ExoSupermarche.sol:supermarche",
						"label": "AllClients",
						"offset": 0,
						"slot": "1",
						"type": "t_array(t_struct(clientData)10_storage)dyn_storage"
					},
					{
						"astId": 30,
						"contract": "contracts/ExoSupermarche.sol:supermarche",
						"label": "productsById",
						"offset": 0,
						"slot": "2",
						"type": "t_mapping(t_uint256,t_struct(productData)17_storage)"
					},
					{
						"astId": 35,
						"contract": "contracts/ExoSupermarche.sol:supermarche",
						"label": "productsByName",
						"offset": 0,
						"slot": "3",
						"type": "t_mapping(t_string_memory_ptr,t_struct(productData)17_storage)"
					}
				],
				"types": {
					"t_array(t_struct(clientData)10_storage)dyn_storage": {
						"base": "t_struct(clientData)10_storage",
						"encoding": "dynamic_array",
						"label": "struct supermarche.clientData[]",
						"numberOfBytes": "32"
					},
					"t_array(t_struct(productData)17_storage)dyn_storage": {
						"base": "t_struct(productData)17_storage",
						"encoding": "dynamic_array",
						"label": "struct supermarche.productData[]",
						"numberOfBytes": "32"
					},
					"t_int16": {
						"encoding": "inplace",
						"label": "int16",
						"numberOfBytes": "2"
					},
					"t_mapping(t_string_memory_ptr,t_struct(productData)17_storage)": {
						"encoding": "mapping",
						"key": "t_string_memory_ptr",
						"label": "mapping(string => struct supermarche.productData)",
						"numberOfBytes": "32",
						"value": "t_struct(productData)17_storage"
					},
					"t_mapping(t_uint256,t_struct(productData)17_storage)": {
						"encoding": "mapping",
						"key": "t_uint256",
						"label": "mapping(uint256 => struct supermarche.productData)",
						"numberOfBytes": "32",
						"value": "t_struct(productData)17_storage"
					},
					"t_string_memory_ptr": {
						"encoding": "bytes",
						"label": "string",
						"numberOfBytes": "32"
					},
					"t_string_storage": {
						"encoding": "bytes",
						"label": "string",
						"numberOfBytes": "32"
					},
					"t_struct(clientData)10_storage": {
						"encoding": "inplace",
						"label": "struct supermarche.clientData",
						"members": [
							{
								"astId": 3,
								"contract": "contracts/ExoSupermarche.sol:supermarche",
								"label": "id",
								"offset": 0,
								"slot": "0",
								"type": "t_uint256"
							},
							{
								"astId": 5,
								"contract": "contracts/ExoSupermarche.sol:supermarche",
								"label": "nom",
								"offset": 0,
								"slot": "1",
								"type": "t_string_storage"
							},
							{
								"astId": 9,
								"contract": "contracts/ExoSupermarche.sol:supermarche",
								"label": "panier",
								"offset": 0,
								"slot": "2",
								"type": "t_array(t_struct(productData)17_storage)dyn_storage"
							}
						],
						"numberOfBytes": "96"
					},
					"t_struct(productData)17_storage": {
						"encoding": "inplace",
						"label": "struct supermarche.productData",
						"members": [
							{
								"astId": 12,
								"contract": "contracts/ExoSupermarche.sol:supermarche",
								"label": "id",
								"offset": 0,
								"slot": "0",
								"type": "t_uint256"
							},
							{
								"astId": 14,
								"contract": "contracts/ExoSupermarche.sol:supermarche",
								"label": "libelle",
								"offset": 0,
								"slot": "1",
								"type": "t_string_storage"
							},
							{
								"astId": 16,
								"contract": "contracts/ExoSupermarche.sol:supermarche",
								"label": "price",
								"offset": 0,
								"slot": "2",
								"type": "t_int16"
							}
						],
						"numberOfBytes": "96"
					},
					"t_uint256": {
						"encoding": "inplace",
						"label": "uint256",
						"numberOfBytes": "32"
					}
				}
			},
			"userdoc": {
				"kind": "user",
				"methods": {},
				"version": 1
			}
		}
	}
}