{
	"contracts/ExoSupermarche.sol": {
		"supermarche": {
			"abi": [
				{
					"inputs": [
						{
							"internalType": "string",
							"name": "_nom",
							"type": "string"
						}
					],
					"name": "createClient",
					"outputs": [],
					"stateMutability": "nonpayable",
					"type": "function"
				},
				{
					"inputs": [
						{
							"internalType": "string",
							"name": "_libelle",
							"type": "string"
						},
						{
							"internalType": "int16",
							"name": "_prix",
							"type": "int16"
						}
					],
					"name": "createProduit",
					"outputs": [],
					"stateMutability": "nonpayable",
					"type": "function"
				},
				{
					"inputs": [],
					"name": "getAllClients",
					"outputs": [
						{
							"components": [
								{
									"internalType": "uint256",
									"name": "_id",
									"type": "uint256"
								},
								{
									"internalType": "string",
									"name": "_nom",
									"type": "string"
								},
								{
									"components": [
										{
											"internalType": "uint256",
											"name": "_id",
											"type": "uint256"
										},
										{
											"internalType": "string",
											"name": "_libelle",
											"type": "string"
										},
										{
											"internalType": "int16",
											"name": "_prix",
											"type": "int16"
										}
									],
									"internalType": "struct supermarche.produit",
									"name": "panier",
									"type": "tuple"
								}
							],
							"internalType": "struct supermarche.client[]",
							"name": "",
							"type": "tuple[]"
						}
					],
					"stateMutability": "view",
					"type": "function"
				},
				{
					"inputs": [],
					"name": "getAllProducts",
					"outputs": [
						{
							"components": [
								{
									"internalType": "uint256",
									"name": "_id",
									"type": "uint256"
								},
								{
									"internalType": "string",
									"name": "_libelle",
									"type": "string"
								},
								{
									"internalType": "int16",
									"name": "_prix",
									"type": "int16"
								}
							],
							"internalType": "struct supermarche.produit[]",
							"name": "",
							"type": "tuple[]"
						}
					],
					"stateMutability": "view",
					"type": "function"
				}
			],
			"devdoc": {
				"kind": "dev",
				"methods": {},
				"version": 1
			},
			"evm": {
				"assembly": "    /* \"contracts/ExoSupermarche.sol\":59:994  contract supermarche {\r... */\n  mstore(0x40, 0x80)\n  callvalue\n  dup1\n  iszero\n  tag_1\n  jumpi\n  0x00\n  dup1\n  revert\ntag_1:\n  pop\n  dataSize(sub_0)\n  dup1\n  dataOffset(sub_0)\n  0x00\n  codecopy\n  0x00\n  return\nstop\n\nsub_0: assembly {\n        /* \"contracts/ExoSupermarche.sol\":59:994  contract supermarche {\r... */\n      mstore(0x40, 0x80)\n      callvalue\n      dup1\n      iszero\n      tag_1\n      jumpi\n      0x00\n      dup1\n      revert\n    tag_1:\n      pop\n      jumpi(tag_2, lt(calldatasize, 0x04))\n      shr(0xe0, calldataload(0x00))\n      dup1\n      0x02ee3a52\n      eq\n      tag_3\n      jumpi\n      dup1\n      0x51401eef\n      eq\n      tag_4\n      jumpi\n      dup1\n      0xe4d7a3d4\n      eq\n      tag_5\n      jumpi\n      dup1\n      0xe88e9f0f\n      eq\n      tag_6\n      jumpi\n    tag_2:\n      0x00\n      dup1\n      revert\n        /* \"contracts/ExoSupermarche.sol\":543:641  function getAllProducts() public view returns(produit[] memory) {\r... */\n    tag_3:\n      tag_7\n      tag_8\n      jump\t// in\n    tag_7:\n      mload(0x40)\n      tag_9\n      swap2\n      swap1\n      tag_10\n      jump\t// in\n    tag_9:\n      mload(0x40)\n      dup1\n      swap2\n      sub\n      swap1\n      return\n        /* \"contracts/ExoSupermarche.sol\":335:535  function createProduit(string memory _libelle, int16 _prix) public {\r... */\n    tag_4:\n      tag_11\n      0x04\n      dup1\n      calldatasize\n      sub\n      dup2\n      add\n      swap1\n      tag_12\n      swap2\n      swap1\n      tag_13\n      jump\t// in\n    tag_12:\n      tag_14\n      jump\t// in\n    tag_11:\n      stop\n        /* \"contracts/ExoSupermarche.sol\":892:987  function getAllClients() public view returns(client[] memory) {\r... */\n    tag_5:\n      tag_15\n      tag_16\n      jump\t// in\n    tag_15:\n      mload(0x40)\n      tag_17\n      swap2\n      swap1\n      tag_18\n      jump\t// in\n    tag_17:\n      mload(0x40)\n      dup1\n      swap2\n      sub\n      swap1\n      return\n        /* \"contracts/ExoSupermarche.sol\":649:884  function createClient(string memory _nom) public {\r... */\n    tag_6:\n      tag_19\n      0x04\n      dup1\n      calldatasize\n      sub\n      dup2\n      add\n      swap1\n      tag_20\n      swap2\n      swap1\n      tag_21\n      jump\t// in\n    tag_20:\n      tag_22\n      jump\t// in\n    tag_19:\n      stop\n        /* \"contracts/ExoSupermarche.sol\":543:641  function getAllProducts() public view returns(produit[] memory) {\r... */\n    tag_8:\n        /* \"contracts/ExoSupermarche.sol\":589:605  produit[] memory */\n      0x60\n        /* \"contracts/ExoSupermarche.sol\":625:633  produits */\n      0x00\n        /* \"contracts/ExoSupermarche.sol\":618:633  return produits */\n      dup1\n      sload\n      dup1\n      0x20\n      mul\n      0x20\n      add\n      mload(0x40)\n      swap1\n      dup2\n      add\n      0x40\n      mstore\n      dup1\n      swap3\n      swap2\n      swap1\n      dup2\n      dup2\n      mstore\n      0x20\n      add\n      0x00\n      swap1\n    tag_24:\n      dup3\n      dup3\n      lt\n      iszero\n      tag_25\n      jumpi\n      dup4\n      dup3\n      swap1\n      0x00\n      mstore\n      keccak256(0x00, 0x20)\n      swap1\n      0x03\n      mul\n      add\n      mload(0x40)\n      dup1\n      0x60\n      add\n      0x40\n      mstore\n      swap1\n      dup2\n      0x00\n      dup3\n      add\n      sload\n      dup2\n      mstore\n      0x20\n      add\n      0x01\n      dup3\n      add\n      dup1\n      sload\n      tag_27\n      swap1\n      tag_28\n      jump\t// in\n    tag_27:\n      dup1\n      0x1f\n      add\n      0x20\n      dup1\n      swap2\n      div\n      mul\n      0x20\n      add\n      mload(0x40)\n      swap1\n      dup2\n      add\n      0x40\n      mstore\n      dup1\n      swap3\n      swap2\n      swap1\n      dup2\n      dup2\n      mstore\n      0x20\n      add\n      dup3\n      dup1\n      sload\n      tag_29\n      swap1\n      tag_28\n      jump\t// in\n    tag_29:\n      dup1\n      iszero\n      tag_30\n      jumpi\n      dup1\n      0x1f\n      lt\n      tag_31\n      jumpi\n      0x0100\n      dup1\n      dup4\n      sload\n      div\n      mul\n      dup4\n      mstore\n      swap2\n      0x20\n      add\n      swap2\n      jump(tag_30)\n    tag_31:\n      dup3\n      add\n      swap2\n      swap1\n      0x00\n      mstore\n      keccak256(0x00, 0x20)\n      swap1\n    tag_32:\n      dup2\n      sload\n      dup2\n      mstore\n      swap1\n      0x01\n      add\n      swap1\n      0x20\n      add\n      dup1\n      dup4\n      gt\n      tag_32\n      jumpi\n      dup3\n      swap1\n      sub\n      0x1f\n      and\n      dup3\n      add\n      swap2\n    tag_30:\n      pop\n      pop\n      pop\n      pop\n      pop\n      dup2\n      mstore\n      0x20\n      add\n      0x02\n      dup3\n      add\n      0x00\n      swap1\n      sload\n      swap1\n      0x0100\n      exp\n      swap1\n      div\n      0x01\n      signextend\n      0x01\n      signextend\n      0x01\n      signextend\n      dup2\n      mstore\n      pop\n      pop\n      dup2\n      mstore\n      0x20\n      add\n      swap1\n      0x01\n      add\n      swap1\n      jump(tag_24)\n    tag_25:\n      pop\n      pop\n      pop\n      pop\n      swap1\n      pop\n        /* \"contracts/ExoSupermarche.sol\":543:641  function getAllProducts() public view returns(produit[] memory) {\r... */\n      swap1\n      jump\t// out\n        /* \"contracts/ExoSupermarche.sol\":335:535  function createProduit(string memory _libelle, int16 _prix) public {\r... */\n    tag_14:\n        /* \"contracts/ExoSupermarche.sol\":413:420  uint id */\n      0x00\n        /* \"contracts/ExoSupermarche.sol\":441:442  1 */\n      0x01\n        /* \"contracts/ExoSupermarche.sol\":423:431  produits */\n      0x00\n        /* \"contracts/ExoSupermarche.sol\":423:438  produits.length */\n      dup1\n      sload\n      swap1\n      pop\n        /* \"contracts/ExoSupermarche.sol\":423:442  produits.length + 1 */\n      tag_34\n      swap2\n      swap1\n      tag_35\n      jump\t// in\n    tag_34:\n        /* \"contracts/ExoSupermarche.sol\":413:442  uint id = produits.length + 1 */\n      swap1\n      pop\n        /* \"contracts/ExoSupermarche.sol\":453:469  produit memory p */\n      0x00\n        /* \"contracts/ExoSupermarche.sol\":472:500  produit(id, _libelle, _prix) */\n      mload(0x40)\n      dup1\n      0x60\n      add\n      0x40\n      mstore\n      dup1\n        /* \"contracts/ExoSupermarche.sol\":480:482  id */\n      dup4\n        /* \"contracts/ExoSupermarche.sol\":472:500  produit(id, _libelle, _prix) */\n      dup2\n      mstore\n      0x20\n      add\n        /* \"contracts/ExoSupermarche.sol\":484:492  _libelle */\n      dup6\n        /* \"contracts/ExoSupermarche.sol\":472:500  produit(id, _libelle, _prix) */\n      dup2\n      mstore\n      0x20\n      add\n        /* \"contracts/ExoSupermarche.sol\":494:499  _prix */\n      dup5\n        /* \"contracts/ExoSupermarche.sol\":472:500  produit(id, _libelle, _prix) */\n      0x01\n      signextend\n      dup2\n      mstore\n      pop\n        /* \"contracts/ExoSupermarche.sol\":453:500  produit memory p = produit(id, _libelle, _prix) */\n      swap1\n      pop\n        /* \"contracts/ExoSupermarche.sol\":511:519  produits */\n      0x00\n        /* \"contracts/ExoSupermarche.sol\":525:526  p */\n      dup2\n        /* \"contracts/ExoSupermarche.sol\":511:527  produits.push(p) */\n      swap1\n      dup1\n      0x01\n      dup2\n      sload\n      add\n      dup1\n      dup3\n      sstore\n      dup1\n      swap2\n      pop\n      pop\n      0x01\n      swap1\n      sub\n      swap1\n      0x00\n      mstore\n      keccak256(0x00, 0x20)\n      swap1\n      0x03\n      mul\n      add\n      0x00\n      swap1\n      swap2\n      swap1\n      swap2\n      swap1\n      swap2\n      pop\n      0x00\n      dup3\n      add\n      mload\n      dup2\n      0x00\n      add\n      sstore\n      0x20\n      dup3\n      add\n      mload\n      dup2\n      0x01\n      add\n      swap1\n      dup1\n      mload\n      swap1\n      0x20\n      add\n      swap1\n      tag_37\n      swap3\n      swap2\n      swap1\n      tag_38\n      jump\t// in\n    tag_37:\n      pop\n      0x40\n      dup3\n      add\n      mload\n      dup2\n      0x02\n      add\n      exp(0x0100, 0x00)\n      dup2\n      sload\n      dup2\n      0xffff\n      mul\n      not\n      and\n      swap1\n      dup4\n      0x01\n      signextend\n      0xffff\n      and\n      mul\n      or\n      swap1\n      sstore\n      pop\n      pop\n      pop\n        /* \"contracts/ExoSupermarche.sol\":402:535  {\r... */\n      pop\n      pop\n        /* \"contracts/ExoSupermarche.sol\":335:535  function createProduit(string memory _libelle, int16 _prix) public {\r... */\n      pop\n      pop\n      jump\t// out\n        /* \"contracts/ExoSupermarche.sol\":892:987  function getAllClients() public view returns(client[] memory) {\r... */\n    tag_16:\n        /* \"contracts/ExoSupermarche.sol\":937:952  client[] memory */\n      0x60\n        /* \"contracts/ExoSupermarche.sol\":972:979  clients */\n      0x01\n        /* \"contracts/ExoSupermarche.sol\":965:979  return clients */\n      dup1\n      sload\n      dup1\n      0x20\n      mul\n      0x20\n      add\n      mload(0x40)\n      swap1\n      dup2\n      add\n      0x40\n      mstore\n      dup1\n      swap3\n      swap2\n      swap1\n      dup2\n      dup2\n      mstore\n      0x20\n      add\n      0x00\n      swap1\n    tag_40:\n      dup3\n      dup3\n      lt\n      iszero\n      tag_41\n      jumpi\n      dup4\n      dup3\n      swap1\n      0x00\n      mstore\n      keccak256(0x00, 0x20)\n      swap1\n      0x05\n      mul\n      add\n      mload(0x40)\n      dup1\n      0x60\n      add\n      0x40\n      mstore\n      swap1\n      dup2\n      0x00\n      dup3\n      add\n      sload\n      dup2\n      mstore\n      0x20\n      add\n      0x01\n      dup3\n      add\n      dup1\n      sload\n      tag_43\n      swap1\n      tag_28\n      jump\t// in\n    tag_43:\n      dup1\n      0x1f\n      add\n      0x20\n      dup1\n      swap2\n      div\n      mul\n      0x20\n      add\n      mload(0x40)\n      swap1\n      dup2\n      add\n      0x40\n      mstore\n      dup1\n      swap3\n      swap2\n      swap1\n      dup2\n      dup2\n      mstore\n      0x20\n      add\n      dup3\n      dup1\n      sload\n      tag_44\n      swap1\n      tag_28\n      jump\t// in\n    tag_44:\n      dup1\n      iszero\n      tag_45\n      jumpi\n      dup1\n      0x1f\n      lt\n      tag_46\n      jumpi\n      0x0100\n      dup1\n      dup4\n      sload\n      div\n      mul\n      dup4\n      mstore\n      swap2\n      0x20\n      add\n      swap2\n      jump(tag_45)\n    tag_46:\n      dup3\n      add\n      swap2\n      swap1\n      0x00\n      mstore\n      keccak256(0x00, 0x20)\n      swap1\n    tag_47:\n      dup2\n      sload\n      dup2\n      mstore\n      swap1\n      0x01\n      add\n      swap1\n      0x20\n      add\n      dup1\n      dup4\n      gt\n      tag_47\n      jumpi\n      dup3\n      swap1\n      sub\n      0x1f\n      and\n      dup3\n      add\n      swap2\n    tag_45:\n      pop\n      pop\n      pop\n      pop\n      pop\n      dup2\n      mstore\n      0x20\n      add\n      0x02\n      dup3\n      add\n      mload(0x40)\n      dup1\n      0x60\n      add\n      0x40\n      mstore\n      swap1\n      dup2\n      0x00\n      dup3\n      add\n      sload\n      dup2\n      mstore\n      0x20\n      add\n      0x01\n      dup3\n      add\n      dup1\n      sload\n      tag_48\n      swap1\n      tag_28\n      jump\t// in\n    tag_48:\n      dup1\n      0x1f\n      add\n      0x20\n      dup1\n      swap2\n      div\n      mul\n      0x20\n      add\n      mload(0x40)\n      swap1\n      dup2\n      add\n      0x40\n      mstore\n      dup1\n      swap3\n      swap2\n      swap1\n      dup2\n      dup2\n      mstore\n      0x20\n      add\n      dup3\n      dup1\n      sload\n      tag_49\n      swap1\n      tag_28\n      jump\t// in\n    tag_49:\n      dup1\n      iszero\n      tag_50\n      jumpi\n      dup1\n      0x1f\n      lt\n      tag_51\n      jumpi\n      0x0100\n      dup1\n      dup4\n      sload\n      div\n      mul\n      dup4\n      mstore\n      swap2\n      0x20\n      add\n      swap2\n      jump(tag_50)\n    tag_51:\n      dup3\n      add\n      swap2\n      swap1\n      0x00\n      mstore\n      keccak256(0x00, 0x20)\n      swap1\n    tag_52:\n      dup2\n      sload\n      dup2\n      mstore\n      swap1\n      0x01\n      add\n      swap1\n      0x20\n      add\n      dup1\n      dup4\n      gt\n      tag_52\n      jumpi\n      dup3\n      swap1\n      sub\n      0x1f\n      and\n      dup3\n      add\n      swap2\n    tag_50:\n      pop\n      pop\n      pop\n      pop\n      pop\n      dup2\n      mstore\n      0x20\n      add\n      0x02\n      dup3\n      add\n      0x00\n      swap1\n      sload\n      swap1\n      0x0100\n      exp\n      swap1\n      div\n      0x01\n      signextend\n      0x01\n      signextend\n      0x01\n      signextend\n      dup2\n      mstore\n      pop\n      pop\n      dup2\n      mstore\n      pop\n      pop\n      dup2\n      mstore\n      0x20\n      add\n      swap1\n      0x01\n      add\n      swap1\n      jump(tag_40)\n    tag_41:\n      pop\n      pop\n      pop\n      pop\n      swap1\n      pop\n        /* \"contracts/ExoSupermarche.sol\":892:987  function getAllClients() public view returns(client[] memory) {\r... */\n      swap1\n      jump\t// out\n        /* \"contracts/ExoSupermarche.sol\":649:884  function createClient(string memory _nom) public {\r... */\n    tag_22:\n        /* \"contracts/ExoSupermarche.sol\":709:717  uint _id */\n      0x00\n        /* \"contracts/ExoSupermarche.sol\":737:738  1 */\n      0x01\n        /* \"contracts/ExoSupermarche.sol\":720:727  clients */\n      dup1\n        /* \"contracts/ExoSupermarche.sol\":720:734  clients.length */\n      dup1\n      sload\n      swap1\n      pop\n        /* \"contracts/ExoSupermarche.sol\":720:738  clients.length + 1 */\n      tag_54\n      swap2\n      swap1\n      tag_35\n      jump\t// in\n    tag_54:\n        /* \"contracts/ExoSupermarche.sol\":709:738  uint _id = clients.length + 1 */\n      swap1\n      pop\n        /* \"contracts/ExoSupermarche.sol\":749:766  produit memory _p */\n      0x00\n        /* \"contracts/ExoSupermarche.sol\":769:790  produit(0, \"toto\", 5) */\n      mload(0x40)\n      dup1\n      0x60\n      add\n      0x40\n      mstore\n      dup1\n        /* \"contracts/ExoSupermarche.sol\":777:778  0 */\n      0x00\n        /* \"contracts/ExoSupermarche.sol\":769:790  produit(0, \"toto\", 5) */\n      dup2\n      mstore\n      0x20\n      add\n      mload(0x40)\n      dup1\n      0x40\n      add\n      0x40\n      mstore\n      dup1\n      0x04\n      dup2\n      mstore\n      0x20\n      add\n      0x746f746f00000000000000000000000000000000000000000000000000000000\n      dup2\n      mstore\n      pop\n      dup2\n      mstore\n      0x20\n      add\n        /* \"contracts/ExoSupermarche.sol\":788:789  5 */\n      0x05\n        /* \"contracts/ExoSupermarche.sol\":769:790  produit(0, \"toto\", 5) */\n      0x01\n      signextend\n      dup2\n      mstore\n      pop\n        /* \"contracts/ExoSupermarche.sol\":749:790  produit memory _p = produit(0, \"toto\", 5) */\n      swap1\n      pop\n        /* \"contracts/ExoSupermarche.sol\":811:826  client memory c */\n      0x00\n        /* \"contracts/ExoSupermarche.sol\":829:850  client(_id, _nom, _p) */\n      mload(0x40)\n      dup1\n      0x60\n      add\n      0x40\n      mstore\n      dup1\n        /* \"contracts/ExoSupermarche.sol\":836:839  _id */\n      dup5\n        /* \"contracts/ExoSupermarche.sol\":829:850  client(_id, _nom, _p) */\n      dup2\n      mstore\n      0x20\n      add\n        /* \"contracts/ExoSupermarche.sol\":841:845  _nom */\n      dup6\n        /* \"contracts/ExoSupermarche.sol\":829:850  client(_id, _nom, _p) */\n      dup2\n      mstore\n      0x20\n      add\n        /* \"contracts/ExoSupermarche.sol\":847:849  _p */\n      dup4\n        /* \"contracts/ExoSupermarche.sol\":829:850  client(_id, _nom, _p) */\n      dup2\n      mstore\n      pop\n        /* \"contracts/ExoSupermarche.sol\":811:850  client memory c = client(_id, _nom, _p) */\n      swap1\n      pop\n        /* \"contracts/ExoSupermarche.sol\":861:868  clients */\n      0x01\n        /* \"contracts/ExoSupermarche.sol\":874:875  c */\n      dup2\n        /* \"contracts/ExoSupermarche.sol\":861:876  clients.push(c) */\n      swap1\n      dup1\n      0x01\n      dup2\n      sload\n      add\n      dup1\n      dup3\n      sstore\n      dup1\n      swap2\n      pop\n      pop\n      0x01\n      swap1\n      sub\n      swap1\n      0x00\n      mstore\n      keccak256(0x00, 0x20)\n      swap1\n      0x05\n      mul\n      add\n      0x00\n      swap1\n      swap2\n      swap1\n      swap2\n      swap1\n      swap2\n      pop\n      0x00\n      dup3\n      add\n      mload\n      dup2\n      0x00\n      add\n      sstore\n      0x20\n      dup3\n      add\n      mload\n      dup2\n      0x01\n      add\n      swap1\n      dup1\n      mload\n      swap1\n      0x20\n      add\n      swap1\n      tag_56\n      swap3\n      swap2\n      swap1\n      tag_38\n      jump\t// in\n    tag_56:\n      pop\n      0x40\n      dup3\n      add\n      mload\n      dup2\n      0x02\n      add\n      0x00\n      dup3\n      add\n      mload\n      dup2\n      0x00\n      add\n      sstore\n      0x20\n      dup3\n      add\n      mload\n      dup2\n      0x01\n      add\n      swap1\n      dup1\n      mload\n      swap1\n      0x20\n      add\n      swap1\n      tag_57\n      swap3\n      swap2\n      swap1\n      tag_38\n      jump\t// in\n    tag_57:\n      pop\n      0x40\n      dup3\n      add\n      mload\n      dup2\n      0x02\n      add\n      exp(0x0100, 0x00)\n      dup2\n      sload\n      dup2\n      0xffff\n      mul\n      not\n      and\n      swap1\n      dup4\n      0x01\n      signextend\n      0xffff\n      and\n      mul\n      or\n      swap1\n      sstore\n      pop\n      pop\n      pop\n      pop\n      pop\n        /* \"contracts/ExoSupermarche.sol\":698:884  {\r... */\n      pop\n      pop\n      pop\n        /* \"contracts/ExoSupermarche.sol\":649:884  function createClient(string memory _nom) public {\r... */\n      pop\n      jump\t// out\n    tag_38:\n      dup3\n      dup1\n      sload\n      tag_58\n      swap1\n      tag_28\n      jump\t// in\n    tag_58:\n      swap1\n      0x00\n      mstore\n      keccak256(0x00, 0x20)\n      swap1\n      0x1f\n      add\n      0x20\n      swap1\n      div\n      dup2\n      add\n      swap3\n      dup3\n      tag_60\n      jumpi\n      0x00\n      dup6\n      sstore\n      jump(tag_59)\n    tag_60:\n      dup3\n      0x1f\n      lt\n      tag_61\n      jumpi\n      dup1\n      mload\n      not(0xff)\n      and\n      dup4\n      dup1\n      add\n      or\n      dup6\n      sstore\n      jump(tag_59)\n    tag_61:\n      dup3\n      dup1\n      add\n      0x01\n      add\n      dup6\n      sstore\n      dup3\n      iszero\n      tag_59\n      jumpi\n      swap2\n      dup3\n      add\n    tag_62:\n      dup3\n      dup2\n      gt\n      iszero\n      tag_63\n      jumpi\n      dup3\n      mload\n      dup3\n      sstore\n      swap2\n      0x20\n      add\n      swap2\n      swap1\n      0x01\n      add\n      swap1\n      jump(tag_62)\n    tag_63:\n    tag_59:\n      pop\n      swap1\n      pop\n      tag_64\n      swap2\n      swap1\n      tag_65\n      jump\t// in\n    tag_64:\n      pop\n      swap1\n      jump\t// out\n    tag_65:\n    tag_66:\n      dup1\n      dup3\n      gt\n      iszero\n      tag_67\n      jumpi\n      0x00\n      dup2\n      0x00\n      swap1\n      sstore\n      pop\n      0x01\n      add\n      jump(tag_66)\n    tag_67:\n      pop\n      swap1\n      jump\t// out\n        /* \"#utility.yul\":7:419   */\n    tag_69:\n        /* \"#utility.yul\":85:90   */\n      0x00\n        /* \"#utility.yul\":110:176   */\n      tag_71\n        /* \"#utility.yul\":126:175   */\n      tag_72\n        /* \"#utility.yul\":168:174   */\n      dup5\n        /* \"#utility.yul\":126:175   */\n      tag_73\n      jump\t// in\n    tag_72:\n        /* \"#utility.yul\":110:176   */\n      tag_74\n      jump\t// in\n    tag_71:\n        /* \"#utility.yul\":101:176   */\n      swap1\n      pop\n        /* \"#utility.yul\":199:205   */\n      dup3\n        /* \"#utility.yul\":192:197   */\n      dup2\n        /* \"#utility.yul\":185:206   */\n      mstore\n        /* \"#utility.yul\":237:241   */\n      0x20\n        /* \"#utility.yul\":230:235   */\n      dup2\n        /* \"#utility.yul\":226:242   */\n      add\n        /* \"#utility.yul\":275:278   */\n      dup5\n        /* \"#utility.yul\":266:272   */\n      dup5\n        /* \"#utility.yul\":261:264   */\n      dup5\n        /* \"#utility.yul\":257:273   */\n      add\n        /* \"#utility.yul\":254:279   */\n      gt\n        /* \"#utility.yul\":251:363   */\n      iszero\n      tag_75\n      jumpi\n        /* \"#utility.yul\":282:361   */\n      tag_76\n      tag_77\n      jump\t// in\n    tag_76:\n        /* \"#utility.yul\":251:363   */\n    tag_75:\n        /* \"#utility.yul\":372:413   */\n      tag_78\n        /* \"#utility.yul\":406:412   */\n      dup5\n        /* \"#utility.yul\":401:404   */\n      dup3\n        /* \"#utility.yul\":396:399   */\n      dup6\n        /* \"#utility.yul\":372:413   */\n      tag_79\n      jump\t// in\n    tag_78:\n        /* \"#utility.yul\":91:419   */\n      pop\n        /* \"#utility.yul\":7:419   */\n      swap4\n      swap3\n      pop\n      pop\n      pop\n      jump\t// out\n        /* \"#utility.yul\":425:560   */\n    tag_80:\n        /* \"#utility.yul\":469:474   */\n      0x00\n        /* \"#utility.yul\":507:513   */\n      dup2\n        /* \"#utility.yul\":494:514   */\n      calldataload\n        /* \"#utility.yul\":485:514   */\n      swap1\n      pop\n        /* \"#utility.yul\":523:554   */\n      tag_82\n        /* \"#utility.yul\":548:553   */\n      dup2\n        /* \"#utility.yul\":523:554   */\n      tag_83\n      jump\t// in\n    tag_82:\n        /* \"#utility.yul\":425:560   */\n      swap3\n      swap2\n      pop\n      pop\n      jump\t// out\n        /* \"#utility.yul\":580:920   */\n    tag_84:\n        /* \"#utility.yul\":636:641   */\n      0x00\n        /* \"#utility.yul\":685:688   */\n      dup3\n        /* \"#utility.yul\":678:682   */\n      0x1f\n        /* \"#utility.yul\":670:676   */\n      dup4\n        /* \"#utility.yul\":666:683   */\n      add\n        /* \"#utility.yul\":662:689   */\n      slt\n        /* \"#utility.yul\":652:774   */\n      tag_86\n      jumpi\n        /* \"#utility.yul\":693:772   */\n      tag_87\n      tag_88\n      jump\t// in\n    tag_87:\n        /* \"#utility.yul\":652:774   */\n    tag_86:\n        /* \"#utility.yul\":810:816   */\n      dup2\n        /* \"#utility.yul\":797:817   */\n      calldataload\n        /* \"#utility.yul\":835:914   */\n      tag_89\n        /* \"#utility.yul\":910:913   */\n      dup5\n        /* \"#utility.yul\":902:908   */\n      dup3\n        /* \"#utility.yul\":895:899   */\n      0x20\n        /* \"#utility.yul\":887:893   */\n      dup7\n        /* \"#utility.yul\":883:900   */\n      add\n        /* \"#utility.yul\":835:914   */\n      tag_69\n      jump\t// in\n    tag_89:\n        /* \"#utility.yul\":826:914   */\n      swap2\n      pop\n        /* \"#utility.yul\":642:920   */\n      pop\n        /* \"#utility.yul\":580:920   */\n      swap3\n      swap2\n      pop\n      pop\n      jump\t// out\n        /* \"#utility.yul\":926:1435   */\n    tag_21:\n        /* \"#utility.yul\":995:1001   */\n      0x00\n        /* \"#utility.yul\":1044:1046   */\n      0x20\n        /* \"#utility.yul\":1032:1041   */\n      dup3\n        /* \"#utility.yul\":1023:1030   */\n      dup5\n        /* \"#utility.yul\":1019:1042   */\n      sub\n        /* \"#utility.yul\":1015:1047   */\n      slt\n        /* \"#utility.yul\":1012:1131   */\n      iszero\n      tag_91\n      jumpi\n        /* \"#utility.yul\":1050:1129   */\n      tag_92\n      tag_93\n      jump\t// in\n    tag_92:\n        /* \"#utility.yul\":1012:1131   */\n    tag_91:\n        /* \"#utility.yul\":1198:1199   */\n      0x00\n        /* \"#utility.yul\":1187:1196   */\n      dup3\n        /* \"#utility.yul\":1183:1200   */\n      add\n        /* \"#utility.yul\":1170:1201   */\n      calldataload\n        /* \"#utility.yul\":1228:1246   */\n      0xffffffffffffffff\n        /* \"#utility.yul\":1220:1226   */\n      dup2\n        /* \"#utility.yul\":1217:1247   */\n      gt\n        /* \"#utility.yul\":1214:1331   */\n      iszero\n      tag_94\n      jumpi\n        /* \"#utility.yul\":1250:1329   */\n      tag_95\n      tag_96\n      jump\t// in\n    tag_95:\n        /* \"#utility.yul\":1214:1331   */\n    tag_94:\n        /* \"#utility.yul\":1355:1418   */\n      tag_97\n        /* \"#utility.yul\":1410:1417   */\n      dup5\n        /* \"#utility.yul\":1401:1407   */\n      dup3\n        /* \"#utility.yul\":1390:1399   */\n      dup6\n        /* \"#utility.yul\":1386:1408   */\n      add\n        /* \"#utility.yul\":1355:1418   */\n      tag_84\n      jump\t// in\n    tag_97:\n        /* \"#utility.yul\":1345:1418   */\n      swap2\n      pop\n        /* \"#utility.yul\":1141:1428   */\n      pop\n        /* \"#utility.yul\":926:1435   */\n      swap3\n      swap2\n      pop\n      pop\n      jump\t// out\n        /* \"#utility.yul\":1441:2091   */\n    tag_13:\n        /* \"#utility.yul\":1517:1523   */\n      0x00\n        /* \"#utility.yul\":1525:1531   */\n      dup1\n        /* \"#utility.yul\":1574:1576   */\n      0x40\n        /* \"#utility.yul\":1562:1571   */\n      dup4\n        /* \"#utility.yul\":1553:1560   */\n      dup6\n        /* \"#utility.yul\":1549:1572   */\n      sub\n        /* \"#utility.yul\":1545:1577   */\n      slt\n        /* \"#utility.yul\":1542:1661   */\n      iszero\n      tag_99\n      jumpi\n        /* \"#utility.yul\":1580:1659   */\n      tag_100\n      tag_93\n      jump\t// in\n    tag_100:\n        /* \"#utility.yul\":1542:1661   */\n    tag_99:\n        /* \"#utility.yul\":1728:1729   */\n      0x00\n        /* \"#utility.yul\":1717:1726   */\n      dup4\n        /* \"#utility.yul\":1713:1730   */\n      add\n        /* \"#utility.yul\":1700:1731   */\n      calldataload\n        /* \"#utility.yul\":1758:1776   */\n      0xffffffffffffffff\n        /* \"#utility.yul\":1750:1756   */\n      dup2\n        /* \"#utility.yul\":1747:1777   */\n      gt\n        /* \"#utility.yul\":1744:1861   */\n      iszero\n      tag_101\n      jumpi\n        /* \"#utility.yul\":1780:1859   */\n      tag_102\n      tag_96\n      jump\t// in\n    tag_102:\n        /* \"#utility.yul\":1744:1861   */\n    tag_101:\n        /* \"#utility.yul\":1885:1948   */\n      tag_103\n        /* \"#utility.yul\":1940:1947   */\n      dup6\n        /* \"#utility.yul\":1931:1937   */\n      dup3\n        /* \"#utility.yul\":1920:1929   */\n      dup7\n        /* \"#utility.yul\":1916:1938   */\n      add\n        /* \"#utility.yul\":1885:1948   */\n      tag_84\n      jump\t// in\n    tag_103:\n        /* \"#utility.yul\":1875:1948   */\n      swap3\n      pop\n        /* \"#utility.yul\":1671:1958   */\n      pop\n        /* \"#utility.yul\":1997:1999   */\n      0x20\n        /* \"#utility.yul\":2023:2074   */\n      tag_104\n        /* \"#utility.yul\":2066:2073   */\n      dup6\n        /* \"#utility.yul\":2057:2063   */\n      dup3\n        /* \"#utility.yul\":2046:2055   */\n      dup7\n        /* \"#utility.yul\":2042:2064   */\n      add\n        /* \"#utility.yul\":2023:2074   */\n      tag_80\n      jump\t// in\n    tag_104:\n        /* \"#utility.yul\":2013:2074   */\n      swap2\n      pop\n        /* \"#utility.yul\":1968:2084   */\n      pop\n        /* \"#utility.yul\":1441:2091   */\n      swap3\n      pop\n      swap3\n      swap1\n      pop\n      jump\t// out\n        /* \"#utility.yul\":2097:2341   */\n    tag_105:\n        /* \"#utility.yul\":2210:2220   */\n      0x00\n        /* \"#utility.yul\":2245:2335   */\n      tag_107\n        /* \"#utility.yul\":2331:2334   */\n      dup4\n        /* \"#utility.yul\":2323:2329   */\n      dup4\n        /* \"#utility.yul\":2245:2335   */\n      tag_108\n      jump\t// in\n    tag_107:\n        /* \"#utility.yul\":2231:2335   */\n      swap1\n      pop\n        /* \"#utility.yul\":2097:2341   */\n      swap3\n      swap2\n      pop\n      pop\n      jump\t// out\n        /* \"#utility.yul\":2347:2591   */\n    tag_109:\n        /* \"#utility.yul\":2460:2470   */\n      0x00\n        /* \"#utility.yul\":2495:2585   */\n      tag_111\n        /* \"#utility.yul\":2581:2584   */\n      dup4\n        /* \"#utility.yul\":2573:2579   */\n      dup4\n        /* \"#utility.yul\":2495:2585   */\n      tag_112\n      jump\t// in\n    tag_111:\n        /* \"#utility.yul\":2481:2585   */\n      swap1\n      pop\n        /* \"#utility.yul\":2347:2591   */\n      swap3\n      swap2\n      pop\n      pop\n      jump\t// out\n        /* \"#utility.yul\":2663:3750   */\n    tag_113:\n        /* \"#utility.yul\":2826:2829   */\n      0x00\n        /* \"#utility.yul\":2855:2931   */\n      tag_115\n        /* \"#utility.yul\":2925:2930   */\n      dup3\n        /* \"#utility.yul\":2855:2931   */\n      tag_116\n      jump\t// in\n    tag_115:\n        /* \"#utility.yul\":2947:3055   */\n      tag_117\n        /* \"#utility.yul\":3048:3054   */\n      dup2\n        /* \"#utility.yul\":3043:3046   */\n      dup6\n        /* \"#utility.yul\":2947:3055   */\n      tag_118\n      jump\t// in\n    tag_117:\n        /* \"#utility.yul\":2940:3055   */\n      swap4\n      pop\n        /* \"#utility.yul\":3081:3084   */\n      dup4\n        /* \"#utility.yul\":3126:3130   */\n      0x20\n        /* \"#utility.yul\":3118:3124   */\n      dup3\n        /* \"#utility.yul\":3114:3131   */\n      mul\n        /* \"#utility.yul\":3109:3112   */\n      dup6\n        /* \"#utility.yul\":3105:3132   */\n      add\n        /* \"#utility.yul\":3156:3234   */\n      tag_119\n        /* \"#utility.yul\":3228:3233   */\n      dup6\n        /* \"#utility.yul\":3156:3234   */\n      tag_120\n      jump\t// in\n    tag_119:\n        /* \"#utility.yul\":3257:3264   */\n      dup1\n        /* \"#utility.yul\":3288:3289   */\n      0x00\n        /* \"#utility.yul\":3273:3705   */\n    tag_121:\n        /* \"#utility.yul\":3298:3304   */\n      dup6\n        /* \"#utility.yul\":3295:3296   */\n      dup2\n        /* \"#utility.yul\":3292:3305   */\n      lt\n        /* \"#utility.yul\":3273:3705   */\n      iszero\n      tag_123\n      jumpi\n        /* \"#utility.yul\":3369:3378   */\n      dup5\n        /* \"#utility.yul\":3363:3367   */\n      dup5\n        /* \"#utility.yul\":3359:3379   */\n      sub\n        /* \"#utility.yul\":3354:3357   */\n      dup10\n        /* \"#utility.yul\":3347:3380   */\n      mstore\n        /* \"#utility.yul\":3420:3426   */\n      dup2\n        /* \"#utility.yul\":3414:3427   */\n      mload\n        /* \"#utility.yul\":3448:3556   */\n      tag_124\n        /* \"#utility.yul\":3551:3555   */\n      dup6\n        /* \"#utility.yul\":3536:3549   */\n      dup3\n        /* \"#utility.yul\":3448:3556   */\n      tag_105\n      jump\t// in\n    tag_124:\n        /* \"#utility.yul\":3440:3556   */\n      swap5\n      pop\n        /* \"#utility.yul\":3579:3661   */\n      tag_125\n        /* \"#utility.yul\":3654:3660   */\n      dup4\n        /* \"#utility.yul\":3579:3661   */\n      tag_126\n      jump\t// in\n    tag_125:\n        /* \"#utility.yul\":3569:3661   */\n      swap3\n      pop\n        /* \"#utility.yul\":3690:3694   */\n      0x20\n        /* \"#utility.yul\":3685:3688   */\n      dup11\n        /* \"#utility.yul\":3681:3695   */\n      add\n        /* \"#utility.yul\":3674:3695   */\n      swap10\n      pop\n        /* \"#utility.yul\":3333:3705   */\n      pop\n        /* \"#utility.yul\":3320:3321   */\n      0x01\n        /* \"#utility.yul\":3317:3318   */\n      dup2\n        /* \"#utility.yul\":3313:3322   */\n      add\n        /* \"#utility.yul\":3308:3322   */\n      swap1\n      pop\n        /* \"#utility.yul\":3273:3705   */\n      jump(tag_121)\n    tag_123:\n        /* \"#utility.yul\":3277:3291   */\n      pop\n        /* \"#utility.yul\":3721:3725   */\n      dup3\n        /* \"#utility.yul\":3714:3725   */\n      swap8\n      pop\n        /* \"#utility.yul\":3741:3744   */\n      dup8\n        /* \"#utility.yul\":3734:3744   */\n      swap6\n      pop\n        /* \"#utility.yul\":2831:3750   */\n      pop\n      pop\n      pop\n      pop\n      pop\n        /* \"#utility.yul\":2663:3750   */\n      swap3\n      swap2\n      pop\n      pop\n      jump\t// out\n        /* \"#utility.yul\":3824:4911   */\n    tag_127:\n        /* \"#utility.yul\":3987:3990   */\n      0x00\n        /* \"#utility.yul\":4016:4092   */\n      tag_129\n        /* \"#utility.yul\":4086:4091   */\n      dup3\n        /* \"#utility.yul\":4016:4092   */\n      tag_130\n      jump\t// in\n    tag_129:\n        /* \"#utility.yul\":4108:4216   */\n      tag_131\n        /* \"#utility.yul\":4209:4215   */\n      dup2\n        /* \"#utility.yul\":4204:4207   */\n      dup6\n        /* \"#utility.yul\":4108:4216   */\n      tag_132\n      jump\t// in\n    tag_131:\n        /* \"#utility.yul\":4101:4216   */\n      swap4\n      pop\n        /* \"#utility.yul\":4242:4245   */\n      dup4\n        /* \"#utility.yul\":4287:4291   */\n      0x20\n        /* \"#utility.yul\":4279:4285   */\n      dup3\n        /* \"#utility.yul\":4275:4292   */\n      mul\n        /* \"#utility.yul\":4270:4273   */\n      dup6\n        /* \"#utility.yul\":4266:4293   */\n      add\n        /* \"#utility.yul\":4317:4395   */\n      tag_133\n        /* \"#utility.yul\":4389:4394   */\n      dup6\n        /* \"#utility.yul\":4317:4395   */\n      tag_134\n      jump\t// in\n    tag_133:\n        /* \"#utility.yul\":4418:4425   */\n      dup1\n        /* \"#utility.yul\":4449:4450   */\n      0x00\n        /* \"#utility.yul\":4434:4866   */\n    tag_135:\n        /* \"#utility.yul\":4459:4465   */\n      dup6\n        /* \"#utility.yul\":4456:4457   */\n      dup2\n        /* \"#utility.yul\":4453:4466   */\n      lt\n        /* \"#utility.yul\":4434:4866   */\n      iszero\n      tag_137\n      jumpi\n        /* \"#utility.yul\":4530:4539   */\n      dup5\n        /* \"#utility.yul\":4524:4528   */\n      dup5\n        /* \"#utility.yul\":4520:4540   */\n      sub\n        /* \"#utility.yul\":4515:4518   */\n      dup10\n        /* \"#utility.yul\":4508:4541   */\n      mstore\n        /* \"#utility.yul\":4581:4587   */\n      dup2\n        /* \"#utility.yul\":4575:4588   */\n      mload\n        /* \"#utility.yul\":4609:4717   */\n      tag_138\n        /* \"#utility.yul\":4712:4716   */\n      dup6\n        /* \"#utility.yul\":4697:4710   */\n      dup3\n        /* \"#utility.yul\":4609:4717   */\n      tag_109\n      jump\t// in\n    tag_138:\n        /* \"#utility.yul\":4601:4717   */\n      swap5\n      pop\n        /* \"#utility.yul\":4740:4822   */\n      tag_139\n        /* \"#utility.yul\":4815:4821   */\n      dup4\n        /* \"#utility.yul\":4740:4822   */\n      tag_140\n      jump\t// in\n    tag_139:\n        /* \"#utility.yul\":4730:4822   */\n      swap3\n      pop\n        /* \"#utility.yul\":4851:4855   */\n      0x20\n        /* \"#utility.yul\":4846:4849   */\n      dup11\n        /* \"#utility.yul\":4842:4856   */\n      add\n        /* \"#utility.yul\":4835:4856   */\n      swap10\n      pop\n        /* \"#utility.yul\":4494:4866   */\n      pop\n        /* \"#utility.yul\":4481:4482   */\n      0x01\n        /* \"#utility.yul\":4478:4479   */\n      dup2\n        /* \"#utility.yul\":4474:4483   */\n      add\n        /* \"#utility.yul\":4469:4483   */\n      swap1\n      pop\n        /* \"#utility.yul\":4434:4866   */\n      jump(tag_135)\n    tag_137:\n        /* \"#utility.yul\":4438:4452   */\n      pop\n        /* \"#utility.yul\":4882:4886   */\n      dup3\n        /* \"#utility.yul\":4875:4886   */\n      swap8\n      pop\n        /* \"#utility.yul\":4902:4905   */\n      dup8\n        /* \"#utility.yul\":4895:4905   */\n      swap6\n      pop\n        /* \"#utility.yul\":3992:4911   */\n      pop\n      pop\n      pop\n      pop\n      pop\n        /* \"#utility.yul\":3824:4911   */\n      swap3\n      swap2\n      pop\n      pop\n      jump\t// out\n        /* \"#utility.yul\":4917:5019   */\n    tag_141:\n        /* \"#utility.yul\":4990:5012   */\n      tag_143\n        /* \"#utility.yul\":5006:5011   */\n      dup2\n        /* \"#utility.yul\":4990:5012   */\n      tag_144\n      jump\t// in\n    tag_143:\n        /* \"#utility.yul\":4985:4988   */\n      dup3\n        /* \"#utility.yul\":4978:5013   */\n      mstore\n        /* \"#utility.yul\":4917:5019   */\n      pop\n      pop\n      jump\t// out\n        /* \"#utility.yul\":5025:5369   */\n    tag_145:\n        /* \"#utility.yul\":5103:5106   */\n      0x00\n        /* \"#utility.yul\":5131:5170   */\n      tag_147\n        /* \"#utility.yul\":5164:5169   */\n      dup3\n        /* \"#utility.yul\":5131:5170   */\n      tag_148\n      jump\t// in\n    tag_147:\n        /* \"#utility.yul\":5186:5247   */\n      tag_149\n        /* \"#utility.yul\":5240:5246   */\n      dup2\n        /* \"#utility.yul\":5235:5238   */\n      dup6\n        /* \"#utility.yul\":5186:5247   */\n      tag_150\n      jump\t// in\n    tag_149:\n        /* \"#utility.yul\":5179:5247   */\n      swap4\n      pop\n        /* \"#utility.yul\":5256:5308   */\n      tag_151\n        /* \"#utility.yul\":5301:5307   */\n      dup2\n        /* \"#utility.yul\":5296:5299   */\n      dup6\n        /* \"#utility.yul\":5289:5293   */\n      0x20\n        /* \"#utility.yul\":5282:5287   */\n      dup7\n        /* \"#utility.yul\":5278:5294   */\n      add\n        /* \"#utility.yul\":5256:5308   */\n      tag_152\n      jump\t// in\n    tag_151:\n        /* \"#utility.yul\":5333:5362   */\n      tag_153\n        /* \"#utility.yul\":5355:5361   */\n      dup2\n        /* \"#utility.yul\":5333:5362   */\n      tag_154\n      jump\t// in\n    tag_153:\n        /* \"#utility.yul\":5328:5331   */\n      dup5\n        /* \"#utility.yul\":5324:5363   */\n      add\n        /* \"#utility.yul\":5317:5363   */\n      swap2\n      pop\n        /* \"#utility.yul\":5107:5369   */\n      pop\n        /* \"#utility.yul\":5025:5369   */\n      swap3\n      swap2\n      pop\n      pop\n      jump\t// out\n        /* \"#utility.yul\":5437:6297   */\n    tag_108:\n        /* \"#utility.yul\":5540:5543   */\n      0x00\n        /* \"#utility.yul\":5576:5580   */\n      0x60\n        /* \"#utility.yul\":5571:5574   */\n      dup4\n        /* \"#utility.yul\":5567:5581   */\n      add\n        /* \"#utility.yul\":5662:5666   */\n      0x00\n        /* \"#utility.yul\":5655:5660   */\n      dup4\n        /* \"#utility.yul\":5651:5667   */\n      add\n        /* \"#utility.yul\":5645:5668   */\n      mload\n        /* \"#utility.yul\":5681:5744   */\n      tag_156\n        /* \"#utility.yul\":5738:5742   */\n      0x00\n        /* \"#utility.yul\":5733:5736   */\n      dup7\n        /* \"#utility.yul\":5729:5743   */\n      add\n        /* \"#utility.yul\":5715:5727   */\n      dup3\n        /* \"#utility.yul\":5681:5744   */\n      tag_157\n      jump\t// in\n    tag_156:\n        /* \"#utility.yul\":5591:5754   */\n      pop\n        /* \"#utility.yul\":5836:5840   */\n      0x20\n        /* \"#utility.yul\":5829:5834   */\n      dup4\n        /* \"#utility.yul\":5825:5841   */\n      add\n        /* \"#utility.yul\":5819:5842   */\n      mload\n        /* \"#utility.yul\":5889:5892   */\n      dup5\n        /* \"#utility.yul\":5883:5887   */\n      dup3\n        /* \"#utility.yul\":5879:5893   */\n      sub\n        /* \"#utility.yul\":5872:5876   */\n      0x20\n        /* \"#utility.yul\":5867:5870   */\n      dup7\n        /* \"#utility.yul\":5863:5877   */\n      add\n        /* \"#utility.yul\":5856:5894   */\n      mstore\n        /* \"#utility.yul\":5915:5988   */\n      tag_158\n        /* \"#utility.yul\":5983:5987   */\n      dup3\n        /* \"#utility.yul\":5969:5981   */\n      dup3\n        /* \"#utility.yul\":5915:5988   */\n      tag_145\n      jump\t// in\n    tag_158:\n        /* \"#utility.yul\":5907:5988   */\n      swap2\n      pop\n        /* \"#utility.yul\":5764:5999   */\n      pop\n        /* \"#utility.yul\":6083:6087   */\n      0x40\n        /* \"#utility.yul\":6076:6081   */\n      dup4\n        /* \"#utility.yul\":6072:6088   */\n      add\n        /* \"#utility.yul\":6066:6089   */\n      mload\n        /* \"#utility.yul\":6136:6139   */\n      dup5\n        /* \"#utility.yul\":6130:6134   */\n      dup3\n        /* \"#utility.yul\":6126:6140   */\n      sub\n        /* \"#utility.yul\":6119:6123   */\n      0x40\n        /* \"#utility.yul\":6114:6117   */\n      dup7\n        /* \"#utility.yul\":6110:6124   */\n      add\n        /* \"#utility.yul\":6103:6141   */\n      mstore\n        /* \"#utility.yul\":6162:6259   */\n      tag_159\n        /* \"#utility.yul\":6254:6258   */\n      dup3\n        /* \"#utility.yul\":6240:6252   */\n      dup3\n        /* \"#utility.yul\":6162:6259   */\n      tag_112\n      jump\t// in\n    tag_159:\n        /* \"#utility.yul\":6154:6259   */\n      swap2\n      pop\n        /* \"#utility.yul\":6009:6270   */\n      pop\n        /* \"#utility.yul\":6287:6291   */\n      dup1\n        /* \"#utility.yul\":6280:6291   */\n      swap2\n      pop\n        /* \"#utility.yul\":5545:6297   */\n      pop\n        /* \"#utility.yul\":5437:6297   */\n      swap3\n      swap2\n      pop\n      pop\n      jump\t// out\n        /* \"#utility.yul\":6367:7131   */\n    tag_112:\n        /* \"#utility.yul\":6470:6473   */\n      0x00\n        /* \"#utility.yul\":6506:6510   */\n      0x60\n        /* \"#utility.yul\":6501:6504   */\n      dup4\n        /* \"#utility.yul\":6497:6511   */\n      add\n        /* \"#utility.yul\":6592:6596   */\n      0x00\n        /* \"#utility.yul\":6585:6590   */\n      dup4\n        /* \"#utility.yul\":6581:6597   */\n      add\n        /* \"#utility.yul\":6575:6598   */\n      mload\n        /* \"#utility.yul\":6611:6674   */\n      tag_161\n        /* \"#utility.yul\":6668:6672   */\n      0x00\n        /* \"#utility.yul\":6663:6666   */\n      dup7\n        /* \"#utility.yul\":6659:6673   */\n      add\n        /* \"#utility.yul\":6645:6657   */\n      dup3\n        /* \"#utility.yul\":6611:6674   */\n      tag_157\n      jump\t// in\n    tag_161:\n        /* \"#utility.yul\":6521:6684   */\n      pop\n        /* \"#utility.yul\":6770:6774   */\n      0x20\n        /* \"#utility.yul\":6763:6768   */\n      dup4\n        /* \"#utility.yul\":6759:6775   */\n      add\n        /* \"#utility.yul\":6753:6776   */\n      mload\n        /* \"#utility.yul\":6823:6826   */\n      dup5\n        /* \"#utility.yul\":6817:6821   */\n      dup3\n        /* \"#utility.yul\":6813:6827   */\n      sub\n        /* \"#utility.yul\":6806:6810   */\n      0x20\n        /* \"#utility.yul\":6801:6804   */\n      dup7\n        /* \"#utility.yul\":6797:6811   */\n      add\n        /* \"#utility.yul\":6790:6828   */\n      mstore\n        /* \"#utility.yul\":6849:6922   */\n      tag_162\n        /* \"#utility.yul\":6917:6921   */\n      dup3\n        /* \"#utility.yul\":6903:6915   */\n      dup3\n        /* \"#utility.yul\":6849:6922   */\n      tag_145\n      jump\t// in\n    tag_162:\n        /* \"#utility.yul\":6841:6922   */\n      swap2\n      pop\n        /* \"#utility.yul\":6694:6933   */\n      pop\n        /* \"#utility.yul\":7016:7020   */\n      0x40\n        /* \"#utility.yul\":7009:7014   */\n      dup4\n        /* \"#utility.yul\":7005:7021   */\n      add\n        /* \"#utility.yul\":6999:7022   */\n      mload\n        /* \"#utility.yul\":7035:7094   */\n      tag_163\n        /* \"#utility.yul\":7088:7092   */\n      0x40\n        /* \"#utility.yul\":7083:7086   */\n      dup7\n        /* \"#utility.yul\":7079:7093   */\n      add\n        /* \"#utility.yul\":7065:7077   */\n      dup3\n        /* \"#utility.yul\":7035:7094   */\n      tag_141\n      jump\t// in\n    tag_163:\n        /* \"#utility.yul\":6943:7104   */\n      pop\n        /* \"#utility.yul\":7121:7125   */\n      dup1\n        /* \"#utility.yul\":7114:7125   */\n      swap2\n      pop\n        /* \"#utility.yul\":6475:7131   */\n      pop\n        /* \"#utility.yul\":6367:7131   */\n      swap3\n      swap2\n      pop\n      pop\n      jump\t// out\n        /* \"#utility.yul\":7137:7245   */\n    tag_157:\n        /* \"#utility.yul\":7214:7238   */\n      tag_165\n        /* \"#utility.yul\":7232:7237   */\n      dup2\n        /* \"#utility.yul\":7214:7238   */\n      tag_166\n      jump\t// in\n    tag_165:\n        /* \"#utility.yul\":7209:7212   */\n      dup3\n        /* \"#utility.yul\":7202:7239   */\n      mstore\n        /* \"#utility.yul\":7137:7245   */\n      pop\n      pop\n      jump\t// out\n        /* \"#utility.yul\":7251:7712   */\n    tag_18:\n        /* \"#utility.yul\":7438:7442   */\n      0x00\n        /* \"#utility.yul\":7476:7478   */\n      0x20\n        /* \"#utility.yul\":7465:7474   */\n      dup3\n        /* \"#utility.yul\":7461:7479   */\n      add\n        /* \"#utility.yul\":7453:7479   */\n      swap1\n      pop\n        /* \"#utility.yul\":7525:7534   */\n      dup2\n        /* \"#utility.yul\":7519:7523   */\n      dup2\n        /* \"#utility.yul\":7515:7535   */\n      sub\n        /* \"#utility.yul\":7511:7512   */\n      0x00\n        /* \"#utility.yul\":7500:7509   */\n      dup4\n        /* \"#utility.yul\":7496:7513   */\n      add\n        /* \"#utility.yul\":7489:7536   */\n      mstore\n        /* \"#utility.yul\":7553:7705   */\n      tag_168\n        /* \"#utility.yul\":7700:7704   */\n      dup2\n        /* \"#utility.yul\":7691:7697   */\n      dup5\n        /* \"#utility.yul\":7553:7705   */\n      tag_113\n      jump\t// in\n    tag_168:\n        /* \"#utility.yul\":7545:7705   */\n      swap1\n      pop\n        /* \"#utility.yul\":7251:7712   */\n      swap3\n      swap2\n      pop\n      pop\n      jump\t// out\n        /* \"#utility.yul\":7718:8179   */\n    tag_10:\n        /* \"#utility.yul\":7905:7909   */\n      0x00\n        /* \"#utility.yul\":7943:7945   */\n      0x20\n        /* \"#utility.yul\":7932:7941   */\n      dup3\n        /* \"#utility.yul\":7928:7946   */\n      add\n        /* \"#utility.yul\":7920:7946   */\n      swap1\n      pop\n        /* \"#utility.yul\":7992:8001   */\n      dup2\n        /* \"#utility.yul\":7986:7990   */\n      dup2\n        /* \"#utility.yul\":7982:8002   */\n      sub\n        /* \"#utility.yul\":7978:7979   */\n      0x00\n        /* \"#utility.yul\":7967:7976   */\n      dup4\n        /* \"#utility.yul\":7963:7980   */\n      add\n        /* \"#utility.yul\":7956:8003   */\n      mstore\n        /* \"#utility.yul\":8020:8172   */\n      tag_170\n        /* \"#utility.yul\":8167:8171   */\n      dup2\n        /* \"#utility.yul\":8158:8164   */\n      dup5\n        /* \"#utility.yul\":8020:8172   */\n      tag_127\n      jump\t// in\n    tag_170:\n        /* \"#utility.yul\":8012:8172   */\n      swap1\n      pop\n        /* \"#utility.yul\":7718:8179   */\n      swap3\n      swap2\n      pop\n      pop\n      jump\t// out\n        /* \"#utility.yul\":8185:8314   */\n    tag_74:\n        /* \"#utility.yul\":8219:8225   */\n      0x00\n        /* \"#utility.yul\":8246:8266   */\n      tag_172\n      tag_173\n      jump\t// in\n    tag_172:\n        /* \"#utility.yul\":8236:8266   */\n      swap1\n      pop\n        /* \"#utility.yul\":8275:8308   */\n      tag_174\n        /* \"#utility.yul\":8303:8307   */\n      dup3\n        /* \"#utility.yul\":8295:8301   */\n      dup3\n        /* \"#utility.yul\":8275:8308   */\n      tag_175\n      jump\t// in\n    tag_174:\n        /* \"#utility.yul\":8185:8314   */\n      swap2\n      swap1\n      pop\n      jump\t// out\n        /* \"#utility.yul\":8320:8395   */\n    tag_173:\n        /* \"#utility.yul\":8353:8359   */\n      0x00\n        /* \"#utility.yul\":8386:8388   */\n      0x40\n        /* \"#utility.yul\":8380:8389   */\n      mload\n        /* \"#utility.yul\":8370:8389   */\n      swap1\n      pop\n        /* \"#utility.yul\":8320:8395   */\n      swap1\n      jump\t// out\n        /* \"#utility.yul\":8401:8709   */\n    tag_73:\n        /* \"#utility.yul\":8463:8467   */\n      0x00\n        /* \"#utility.yul\":8553:8571   */\n      0xffffffffffffffff\n        /* \"#utility.yul\":8545:8551   */\n      dup3\n        /* \"#utility.yul\":8542:8572   */\n      gt\n        /* \"#utility.yul\":8539:8595   */\n      iszero\n      tag_178\n      jumpi\n        /* \"#utility.yul\":8575:8593   */\n      tag_179\n      tag_180\n      jump\t// in\n    tag_179:\n        /* \"#utility.yul\":8539:8595   */\n    tag_178:\n        /* \"#utility.yul\":8613:8642   */\n      tag_181\n        /* \"#utility.yul\":8635:8641   */\n      dup3\n        /* \"#utility.yul\":8613:8642   */\n      tag_154\n      jump\t// in\n    tag_181:\n        /* \"#utility.yul\":8605:8642   */\n      swap1\n      pop\n        /* \"#utility.yul\":8697:8701   */\n      0x20\n        /* \"#utility.yul\":8691:8695   */\n      dup2\n        /* \"#utility.yul\":8687:8702   */\n      add\n        /* \"#utility.yul\":8679:8702   */\n      swap1\n      pop\n        /* \"#utility.yul\":8401:8709   */\n      swap2\n      swap1\n      pop\n      jump\t// out\n        /* \"#utility.yul\":8715:8869   */\n    tag_120:\n        /* \"#utility.yul\":8804:8808   */\n      0x00\n        /* \"#utility.yul\":8827:8830   */\n      dup2\n        /* \"#utility.yul\":8819:8830   */\n      swap1\n      pop\n        /* \"#utility.yul\":8857:8861   */\n      0x20\n        /* \"#utility.yul\":8852:8855   */\n      dup3\n        /* \"#utility.yul\":8848:8862   */\n      add\n        /* \"#utility.yul\":8840:8862   */\n      swap1\n      pop\n        /* \"#utility.yul\":8715:8869   */\n      swap2\n      swap1\n      pop\n      jump\t// out\n        /* \"#utility.yul\":8875:9029   */\n    tag_134:\n        /* \"#utility.yul\":8964:8968   */\n      0x00\n        /* \"#utility.yul\":8987:8990   */\n      dup2\n        /* \"#utility.yul\":8979:8990   */\n      swap1\n      pop\n        /* \"#utility.yul\":9017:9021   */\n      0x20\n        /* \"#utility.yul\":9012:9015   */\n      dup3\n        /* \"#utility.yul\":9008:9022   */\n      add\n        /* \"#utility.yul\":9000:9022   */\n      swap1\n      pop\n        /* \"#utility.yul\":8875:9029   */\n      swap2\n      swap1\n      pop\n      jump\t// out\n        /* \"#utility.yul\":9035:9171   */\n    tag_116:\n        /* \"#utility.yul\":9124:9130   */\n      0x00\n        /* \"#utility.yul\":9158:9163   */\n      dup2\n        /* \"#utility.yul\":9152:9164   */\n      mload\n        /* \"#utility.yul\":9142:9164   */\n      swap1\n      pop\n        /* \"#utility.yul\":9035:9171   */\n      swap2\n      swap1\n      pop\n      jump\t// out\n        /* \"#utility.yul\":9177:9313   */\n    tag_130:\n        /* \"#utility.yul\":9266:9272   */\n      0x00\n        /* \"#utility.yul\":9300:9305   */\n      dup2\n        /* \"#utility.yul\":9294:9306   */\n      mload\n        /* \"#utility.yul\":9284:9306   */\n      swap1\n      pop\n        /* \"#utility.yul\":9177:9313   */\n      swap2\n      swap1\n      pop\n      jump\t// out\n        /* \"#utility.yul\":9319:9418   */\n    tag_148:\n        /* \"#utility.yul\":9371:9377   */\n      0x00\n        /* \"#utility.yul\":9405:9410   */\n      dup2\n        /* \"#utility.yul\":9399:9411   */\n      mload\n        /* \"#utility.yul\":9389:9411   */\n      swap1\n      pop\n        /* \"#utility.yul\":9319:9418   */\n      swap2\n      swap1\n      pop\n      jump\t// out\n        /* \"#utility.yul\":9424:9559   */\n    tag_126:\n        /* \"#utility.yul\":9516:9520   */\n      0x00\n        /* \"#utility.yul\":9548:9552   */\n      0x20\n        /* \"#utility.yul\":9543:9546   */\n      dup3\n        /* \"#utility.yul\":9539:9553   */\n      add\n        /* \"#utility.yul\":9531:9553   */\n      swap1\n      pop\n        /* \"#utility.yul\":9424:9559   */\n      swap2\n      swap1\n      pop\n      jump\t// out\n        /* \"#utility.yul\":9565:9700   */\n    tag_140:\n        /* \"#utility.yul\":9657:9661   */\n      0x00\n        /* \"#utility.yul\":9689:9693   */\n      0x20\n        /* \"#utility.yul\":9684:9687   */\n      dup3\n        /* \"#utility.yul\":9680:9694   */\n      add\n        /* \"#utility.yul\":9672:9694   */\n      swap1\n      pop\n        /* \"#utility.yul\":9565:9700   */\n      swap2\n      swap1\n      pop\n      jump\t// out\n        /* \"#utility.yul\":9706:9912   */\n    tag_118:\n        /* \"#utility.yul\":9827:9838   */\n      0x00\n        /* \"#utility.yul\":9861:9867   */\n      dup3\n        /* \"#utility.yul\":9856:9859   */\n      dup3\n        /* \"#utility.yul\":9849:9868   */\n      mstore\n        /* \"#utility.yul\":9901:9905   */\n      0x20\n        /* \"#utility.yul\":9896:9899   */\n      dup3\n        /* \"#utility.yul\":9892:9906   */\n      add\n        /* \"#utility.yul\":9877:9906   */\n      swap1\n      pop\n        /* \"#utility.yul\":9706:9912   */\n      swap3\n      swap2\n      pop\n      pop\n      jump\t// out\n        /* \"#utility.yul\":9918:10124   */\n    tag_132:\n        /* \"#utility.yul\":10039:10050   */\n      0x00\n        /* \"#utility.yul\":10073:10079   */\n      dup3\n        /* \"#utility.yul\":10068:10071   */\n      dup3\n        /* \"#utility.yul\":10061:10080   */\n      mstore\n        /* \"#utility.yul\":10113:10117   */\n      0x20\n        /* \"#utility.yul\":10108:10111   */\n      dup3\n        /* \"#utility.yul\":10104:10118   */\n      add\n        /* \"#utility.yul\":10089:10118   */\n      swap1\n      pop\n        /* \"#utility.yul\":9918:10124   */\n      swap3\n      swap2\n      pop\n      pop\n      jump\t// out\n        /* \"#utility.yul\":10130:10289   */\n    tag_150:\n        /* \"#utility.yul\":10204:10215   */\n      0x00\n        /* \"#utility.yul\":10238:10244   */\n      dup3\n        /* \"#utility.yul\":10233:10236   */\n      dup3\n        /* \"#utility.yul\":10226:10245   */\n      mstore\n        /* \"#utility.yul\":10278:10282   */\n      0x20\n        /* \"#utility.yul\":10273:10276   */\n      dup3\n        /* \"#utility.yul\":10269:10283   */\n      add\n        /* \"#utility.yul\":10254:10283   */\n      swap1\n      pop\n        /* \"#utility.yul\":10130:10289   */\n      swap3\n      swap2\n      pop\n      pop\n      jump\t// out\n        /* \"#utility.yul\":10295:10600   */\n    tag_35:\n        /* \"#utility.yul\":10335:10338   */\n      0x00\n        /* \"#utility.yul\":10354:10374   */\n      tag_193\n        /* \"#utility.yul\":10372:10373   */\n      dup3\n        /* \"#utility.yul\":10354:10374   */\n      tag_166\n      jump\t// in\n    tag_193:\n        /* \"#utility.yul\":10349:10374   */\n      swap2\n      pop\n        /* \"#utility.yul\":10388:10408   */\n      tag_194\n        /* \"#utility.yul\":10406:10407   */\n      dup4\n        /* \"#utility.yul\":10388:10408   */\n      tag_166\n      jump\t// in\n    tag_194:\n        /* \"#utility.yul\":10383:10408   */\n      swap3\n      pop\n        /* \"#utility.yul\":10542:10543   */\n      dup3\n        /* \"#utility.yul\":10474:10540   */\n      0xffffffffffffffffffffffffffffffffffffffffffffffffffffffffffffffff\n        /* \"#utility.yul\":10470:10544   */\n      sub\n        /* \"#utility.yul\":10467:10468   */\n      dup3\n        /* \"#utility.yul\":10464:10545   */\n      gt\n        /* \"#utility.yul\":10461:10568   */\n      iszero\n      tag_195\n      jumpi\n        /* \"#utility.yul\":10548:10566   */\n      tag_196\n      tag_197\n      jump\t// in\n    tag_196:\n        /* \"#utility.yul\":10461:10568   */\n    tag_195:\n        /* \"#utility.yul\":10592:10593   */\n      dup3\n        /* \"#utility.yul\":10589:10590   */\n      dup3\n        /* \"#utility.yul\":10585:10594   */\n      add\n        /* \"#utility.yul\":10578:10594   */\n      swap1\n      pop\n        /* \"#utility.yul\":10295:10600   */\n      swap3\n      swap2\n      pop\n      pop\n      jump\t// out\n        /* \"#utility.yul\":10606:10696   */\n    tag_144:\n        /* \"#utility.yul\":10641:10648   */\n      0x00\n        /* \"#utility.yul\":10684:10689   */\n      dup2\n        /* \"#utility.yul\":10681:10682   */\n      0x01\n        /* \"#utility.yul\":10670:10690   */\n      signextend\n        /* \"#utility.yul\":10659:10690   */\n      swap1\n      pop\n        /* \"#utility.yul\":10606:10696   */\n      swap2\n      swap1\n      pop\n      jump\t// out\n        /* \"#utility.yul\":10702:10779   */\n    tag_166:\n        /* \"#utility.yul\":10739:10746   */\n      0x00\n        /* \"#utility.yul\":10768:10773   */\n      dup2\n        /* \"#utility.yul\":10757:10773   */\n      swap1\n      pop\n        /* \"#utility.yul\":10702:10779   */\n      swap2\n      swap1\n      pop\n      jump\t// out\n        /* \"#utility.yul\":10785:10939   */\n    tag_79:\n        /* \"#utility.yul\":10869:10875   */\n      dup3\n        /* \"#utility.yul\":10864:10867   */\n      dup2\n        /* \"#utility.yul\":10859:10862   */\n      dup4\n        /* \"#utility.yul\":10846:10876   */\n      calldatacopy\n        /* \"#utility.yul\":10931:10932   */\n      0x00\n        /* \"#utility.yul\":10922:10928   */\n      dup4\n        /* \"#utility.yul\":10917:10920   */\n      dup4\n        /* \"#utility.yul\":10913:10929   */\n      add\n        /* \"#utility.yul\":10906:10933   */\n      mstore\n        /* \"#utility.yul\":10785:10939   */\n      pop\n      pop\n      pop\n      jump\t// out\n        /* \"#utility.yul\":10945:11252   */\n    tag_152:\n        /* \"#utility.yul\":11013:11014   */\n      0x00\n        /* \"#utility.yul\":11023:11136   */\n    tag_202:\n        /* \"#utility.yul\":11037:11043   */\n      dup4\n        /* \"#utility.yul\":11034:11035   */\n      dup2\n        /* \"#utility.yul\":11031:11044   */\n      lt\n        /* \"#utility.yul\":11023:11136   */\n      iszero\n      tag_204\n      jumpi\n        /* \"#utility.yul\":11122:11123   */\n      dup1\n        /* \"#utility.yul\":11117:11120   */\n      dup3\n        /* \"#utility.yul\":11113:11124   */\n      add\n        /* \"#utility.yul\":11107:11125   */\n      mload\n        /* \"#utility.yul\":11103:11104   */\n      dup2\n        /* \"#utility.yul\":11098:11101   */\n      dup5\n        /* \"#utility.yul\":11094:11105   */\n      add\n        /* \"#utility.yul\":11087:11126   */\n      mstore\n        /* \"#utility.yul\":11059:11061   */\n      0x20\n        /* \"#utility.yul\":11056:11057   */\n      dup2\n        /* \"#utility.yul\":11052:11062   */\n      add\n        /* \"#utility.yul\":11047:11062   */\n      swap1\n      pop\n        /* \"#utility.yul\":11023:11136   */\n      jump(tag_202)\n    tag_204:\n        /* \"#utility.yul\":11154:11160   */\n      dup4\n        /* \"#utility.yul\":11151:11152   */\n      dup2\n        /* \"#utility.yul\":11148:11161   */\n      gt\n        /* \"#utility.yul\":11145:11246   */\n      iszero\n      tag_205\n      jumpi\n        /* \"#utility.yul\":11234:11235   */\n      0x00\n        /* \"#utility.yul\":11225:11231   */\n      dup5\n        /* \"#utility.yul\":11220:11223   */\n      dup5\n        /* \"#utility.yul\":11216:11232   */\n      add\n        /* \"#utility.yul\":11209:11236   */\n      mstore\n        /* \"#utility.yul\":11145:11246   */\n    tag_205:\n        /* \"#utility.yul\":10994:11252   */\n      pop\n        /* \"#utility.yul\":10945:11252   */\n      pop\n      pop\n      pop\n      jump\t// out\n        /* \"#utility.yul\":11258:11578   */\n    tag_28:\n        /* \"#utility.yul\":11302:11308   */\n      0x00\n        /* \"#utility.yul\":11339:11340   */\n      0x02\n        /* \"#utility.yul\":11333:11337   */\n      dup3\n        /* \"#utility.yul\":11329:11341   */\n      div\n        /* \"#utility.yul\":11319:11341   */\n      swap1\n      pop\n        /* \"#utility.yul\":11386:11387   */\n      0x01\n        /* \"#utility.yul\":11380:11384   */\n      dup3\n        /* \"#utility.yul\":11376:11388   */\n      and\n        /* \"#utility.yul\":11407:11425   */\n      dup1\n        /* \"#utility.yul\":11397:11478   */\n      tag_207\n      jumpi\n        /* \"#utility.yul\":11463:11467   */\n      0x7f\n        /* \"#utility.yul\":11455:11461   */\n      dup3\n        /* \"#utility.yul\":11451:11468   */\n      and\n        /* \"#utility.yul\":11441:11468   */\n      swap2\n      pop\n        /* \"#utility.yul\":11397:11478   */\n    tag_207:\n        /* \"#utility.yul\":11525:11527   */\n      0x20\n        /* \"#utility.yul\":11517:11523   */\n      dup3\n        /* \"#utility.yul\":11514:11528   */\n      lt\n        /* \"#utility.yul\":11494:11512   */\n      dup2\n        /* \"#utility.yul\":11491:11529   */\n      eq\n        /* \"#utility.yul\":11488:11572   */\n      iszero\n      tag_208\n      jumpi\n        /* \"#utility.yul\":11544:11562   */\n      tag_209\n      tag_210\n      jump\t// in\n    tag_209:\n        /* \"#utility.yul\":11488:11572   */\n    tag_208:\n        /* \"#utility.yul\":11309:11578   */\n      pop\n        /* \"#utility.yul\":11258:11578   */\n      swap2\n      swap1\n      pop\n      jump\t// out\n        /* \"#utility.yul\":11584:11865   */\n    tag_175:\n        /* \"#utility.yul\":11667:11694   */\n      tag_212\n        /* \"#utility.yul\":11689:11693   */\n      dup3\n        /* \"#utility.yul\":11667:11694   */\n      tag_154\n      jump\t// in\n    tag_212:\n        /* \"#utility.yul\":11659:11665   */\n      dup2\n        /* \"#utility.yul\":11655:11695   */\n      add\n        /* \"#utility.yul\":11797:11803   */\n      dup2\n        /* \"#utility.yul\":11785:11795   */\n      dup2\n        /* \"#utility.yul\":11782:11804   */\n      lt\n        /* \"#utility.yul\":11761:11779   */\n      0xffffffffffffffff\n        /* \"#utility.yul\":11749:11759   */\n      dup3\n        /* \"#utility.yul\":11746:11780   */\n      gt\n        /* \"#utility.yul\":11743:11805   */\n      or\n        /* \"#utility.yul\":11740:11828   */\n      iszero\n      tag_213\n      jumpi\n        /* \"#utility.yul\":11808:11826   */\n      tag_214\n      tag_180\n      jump\t// in\n    tag_214:\n        /* \"#utility.yul\":11740:11828   */\n    tag_213:\n        /* \"#utility.yul\":11848:11858   */\n      dup1\n        /* \"#utility.yul\":11844:11846   */\n      0x40\n        /* \"#utility.yul\":11837:11859   */\n      mstore\n        /* \"#utility.yul\":11627:11865   */\n      pop\n        /* \"#utility.yul\":11584:11865   */\n      pop\n      pop\n      jump\t// out\n        /* \"#utility.yul\":11871:12051   */\n    tag_197:\n        /* \"#utility.yul\":11919:11996   */\n      0x4e487b7100000000000000000000000000000000000000000000000000000000\n        /* \"#utility.yul\":11916:11917   */\n      0x00\n        /* \"#utility.yul\":11909:11997   */\n      mstore\n        /* \"#utility.yul\":12016:12020   */\n      0x11\n        /* \"#utility.yul\":12013:12014   */\n      0x04\n        /* \"#utility.yul\":12006:12021   */\n      mstore\n        /* \"#utility.yul\":12040:12044   */\n      0x24\n        /* \"#utility.yul\":12037:12038   */\n      0x00\n        /* \"#utility.yul\":12030:12045   */\n      revert\n        /* \"#utility.yul\":12057:12237   */\n    tag_210:\n        /* \"#utility.yul\":12105:12182   */\n      0x4e487b7100000000000000000000000000000000000000000000000000000000\n        /* \"#utility.yul\":12102:12103   */\n      0x00\n        /* \"#utility.yul\":12095:12183   */\n      mstore\n        /* \"#utility.yul\":12202:12206   */\n      0x22\n        /* \"#utility.yul\":12199:12200   */\n      0x04\n        /* \"#utility.yul\":12192:12207   */\n      mstore\n        /* \"#utility.yul\":12226:12230   */\n      0x24\n        /* \"#utility.yul\":12223:12224   */\n      0x00\n        /* \"#utility.yul\":12216:12231   */\n      revert\n        /* \"#utility.yul\":12243:12423   */\n    tag_180:\n        /* \"#utility.yul\":12291:12368   */\n      0x4e487b7100000000000000000000000000000000000000000000000000000000\n        /* \"#utility.yul\":12288:12289   */\n      0x00\n        /* \"#utility.yul\":12281:12369   */\n      mstore\n        /* \"#utility.yul\":12388:12392   */\n      0x41\n        /* \"#utility.yul\":12385:12386   */\n      0x04\n        /* \"#utility.yul\":12378:12393   */\n      mstore\n        /* \"#utility.yul\":12412:12416   */\n      0x24\n        /* \"#utility.yul\":12409:12410   */\n      0x00\n        /* \"#utility.yul\":12402:12417   */\n      revert\n        /* \"#utility.yul\":12429:12546   */\n    tag_88:\n        /* \"#utility.yul\":12538:12539   */\n      0x00\n        /* \"#utility.yul\":12535:12536   */\n      dup1\n        /* \"#utility.yul\":12528:12540   */\n      revert\n        /* \"#utility.yul\":12552:12669   */\n    tag_77:\n        /* \"#utility.yul\":12661:12662   */\n      0x00\n        /* \"#utility.yul\":12658:12659   */\n      dup1\n        /* \"#utility.yul\":12651:12663   */\n      revert\n        /* \"#utility.yul\":12675:12792   */\n    tag_96:\n        /* \"#utility.yul\":12784:12785   */\n      0x00\n        /* \"#utility.yul\":12781:12782   */\n      dup1\n        /* \"#utility.yul\":12774:12786   */\n      revert\n        /* \"#utility.yul\":12798:12915   */\n    tag_93:\n        /* \"#utility.yul\":12907:12908   */\n      0x00\n        /* \"#utility.yul\":12904:12905   */\n      dup1\n        /* \"#utility.yul\":12897:12909   */\n      revert\n        /* \"#utility.yul\":12921:13023   */\n    tag_154:\n        /* \"#utility.yul\":12962:12968   */\n      0x00\n        /* \"#utility.yul\":13013:13015   */\n      0x1f\n        /* \"#utility.yul\":13009:13016   */\n      not\n        /* \"#utility.yul\":13004:13006   */\n      0x1f\n        /* \"#utility.yul\":12997:13002   */\n      dup4\n        /* \"#utility.yul\":12993:13007   */\n      add\n        /* \"#utility.yul\":12989:13017   */\n      and\n        /* \"#utility.yul\":12979:13017   */\n      swap1\n      pop\n        /* \"#utility.yul\":12921:13023   */\n      swap2\n      swap1\n      pop\n      jump\t// out\n        /* \"#utility.yul\":13029:13147   */\n    tag_83:\n        /* \"#utility.yul\":13100:13122   */\n      tag_224\n        /* \"#utility.yul\":13116:13121   */\n      dup2\n        /* \"#utility.yul\":13100:13122   */\n      tag_144\n      jump\t// in\n    tag_224:\n        /* \"#utility.yul\":13093:13098   */\n      dup2\n        /* \"#utility.yul\":13090:13123   */\n      eq\n        /* \"#utility.yul\":13080:13141   */\n      tag_225\n      jumpi\n        /* \"#utility.yul\":13137:13138   */\n      0x00\n        /* \"#utility.yul\":13134:13135   */\n      dup1\n        /* \"#utility.yul\":13127:13139   */\n      revert\n        /* \"#utility.yul\":13080:13141   */\n    tag_225:\n        /* \"#utility.yul\":13029:13147   */\n      pop\n      jump\t// out\n\n    auxdata: 0xa26469706673582212204716da07eec0639e823c23ed6d4afde053d2e308596846ed7c9d3a22f7e6fad564736f6c63430008070033\n}\n",
				"bytecode": {
					"linkReferences": {},
					"object": "608060405234801561001057600080fd5b50610cb4806100206000396000f3fe608060405234801561001057600080fd5b506004361061004c5760003560e01c806302ee3a521461005157806351401eef1461006f578063e4d7a3d41461008b578063e88e9f0f146100a9575b600080fd5b6100596100c5565b604051610066919061099d565b60405180910390f35b6100896004803603810190610084919061070f565b6101dd565b005b610093610296565b6040516100a0919061097b565b60405180910390f35b6100c360048036038101906100be91906106c6565b61045e565b005b60606000805480602002602001604051908101604052809291908181526020016000905b828210156101d457838290600052602060002090600302016040518060600160405290816000820154815260200160018201805461012690610b52565b80601f016020809104026020016040519081016040528092919081815260200182805461015290610b52565b801561019f5780601f106101745761010080835404028352916020019161019f565b820191906000526020600020905b81548152906001019060200180831161018257829003601f168201915b505050505081526020016002820160009054906101000a900460010b60010b60010b81525050815260200190600101906100e9565b50505050905090565b600060016000805490506101f19190610aa3565b9050600060405180606001604052808381526020018581526020018460010b8152509050600081908060018154018082558091505060019003906000526020600020906003020160009091909190915060008201518160000155602082015181600101908051906020019061026792919061059e565b5060408201518160020160006101000a81548161ffff021916908360010b61ffff160217905550505050505050565b60606001805480602002602001604051908101604052809291908181526020016000905b828210156104555783829060005260206000209060050201604051806060016040529081600082015481526020016001820180546102f790610b52565b80601f016020809104026020016040519081016040528092919081815260200182805461032390610b52565b80156103705780601f1061034557610100808354040283529160200191610370565b820191906000526020600020905b81548152906001019060200180831161035357829003601f168201915b5050505050815260200160028201604051806060016040529081600082015481526020016001820180546103a390610b52565b80601f01602080910402602001604051908101604052809291908181526020018280546103cf90610b52565b801561041c5780601f106103f15761010080835404028352916020019161041c565b820191906000526020600020905b8154815290600101906020018083116103ff57829003601f168201915b505050505081526020016002820160009054906101000a900460010b60010b60010b8152505081525050815260200190600101906102ba565b50505050905090565b6000600180805490506104719190610aa3565b905060006040518060600160405280600081526020016040518060400160405280600481526020017f746f746f000000000000000000000000000000000000000000000000000000008152508152602001600560010b815250905060006040518060600160405280848152602001858152602001838152509050600181908060018154018082558091505060019003906000526020600020906005020160009091909190915060008201518160000155602082015181600101908051906020019061053d92919061059e565b5060408201518160020160008201518160000155602082015181600101908051906020019061056d92919061059e565b5060408201518160020160006101000a81548161ffff021916908360010b61ffff1602179055505050505050505050565b8280546105aa90610b52565b90600052602060002090601f0160209004810192826105cc5760008555610613565b82601f106105e557805160ff1916838001178555610613565b82800160010185558215610613579182015b828111156106125782518255916020019190600101906105f7565b5b5090506106209190610624565b5090565b5b8082111561063d576000816000905550600101610625565b5090565b600061065461064f846109e4565b6109bf565b9050828152602081018484840111156106705761066f610c47565b5b61067b848285610b10565b509392505050565b60008135905061069281610c67565b92915050565b600082601f8301126106ad576106ac610c42565b5b81356106bd848260208601610641565b91505092915050565b6000602082840312156106dc576106db610c51565b5b600082013567ffffffffffffffff8111156106fa576106f9610c4c565b5b61070684828501610698565b91505092915050565b6000806040838503121561072657610725610c51565b5b600083013567ffffffffffffffff81111561074457610743610c4c565b5b61075085828601610698565b925050602061076185828601610683565b9150509250929050565b600061077783836108c5565b905092915050565b600061078b838361091c565b905092915050565b600061079e82610a35565b6107a88185610a70565b9350836020820285016107ba85610a15565b8060005b858110156107f657848403895281516107d7858261076b565b94506107e283610a56565b925060208a019950506001810190506107be565b50829750879550505050505092915050565b600061081382610a40565b61081d8185610a81565b93508360208202850161082f85610a25565b8060005b8581101561086b578484038952815161084c858261077f565b945061085783610a63565b925060208a01995050600181019050610833565b50829750879550505050505092915050565b61088681610af9565b82525050565b600061089782610a4b565b6108a18185610a92565b93506108b1818560208601610b1f565b6108ba81610c56565b840191505092915050565b60006060830160008301516108dd600086018261096c565b50602083015184820360208601526108f5828261088c565b9150506040830151848203604086015261090f828261091c565b9150508091505092915050565b6000606083016000830151610934600086018261096c565b506020830151848203602086015261094c828261088c565b9150506040830151610961604086018261087d565b508091505092915050565b61097581610b06565b82525050565b600060208201905081810360008301526109958184610793565b905092915050565b600060208201905081810360008301526109b78184610808565b905092915050565b60006109c96109da565b90506109d58282610b84565b919050565b6000604051905090565b600067ffffffffffffffff8211156109ff576109fe610c13565b5b610a0882610c56565b9050602081019050919050565b6000819050602082019050919050565b6000819050602082019050919050565b600081519050919050565b600081519050919050565b600081519050919050565b6000602082019050919050565b6000602082019050919050565b600082825260208201905092915050565b600082825260208201905092915050565b600082825260208201905092915050565b6000610aae82610b06565b9150610ab983610b06565b9250827fffffffffffffffffffffffffffffffffffffffffffffffffffffffffffffffff03821115610aee57610aed610bb5565b5b828201905092915050565b60008160010b9050919050565b6000819050919050565b82818337600083830152505050565b60005b83811015610b3d578082015181840152602081019050610b22565b83811115610b4c576000848401525b50505050565b60006002820490506001821680610b6a57607f821691505b60208210811415610b7e57610b7d610be4565b5b50919050565b610b8d82610c56565b810181811067ffffffffffffffff82111715610bac57610bab610c13565b5b80604052505050565b7f4e487b7100000000000000000000000000000000000000000000000000000000600052601160045260246000fd5b7f4e487b7100000000000000000000000000000000000000000000000000000000600052602260045260246000fd5b7f4e487b7100000000000000000000000000000000000000000000000000000000600052604160045260246000fd5b600080fd5b600080fd5b600080fd5b600080fd5b6000601f19601f8301169050919050565b610c7081610af9565b8114610c7b57600080fd5b5056fea26469706673582212204716da07eec0639e823c23ed6d4afde053d2e308596846ed7c9d3a22f7e6fad564736f6c63430008070033",
					"opcodes": "PUSH1 0x80 PUSH1 0x40 MSTORE CALLVALUE DUP1 ISZERO PUSH2 0x10 JUMPI PUSH1 0x0 DUP1 REVERT JUMPDEST POP PUSH2 0xCB4 DUP1 PUSH2 0x20 PUSH1 0x0 CODECOPY PUSH1 0x0 RETURN INVALID PUSH1 0x80 PUSH1 0x40 MSTORE CALLVALUE DUP1 ISZERO PUSH2 0x10 JUMPI PUSH1 0x0 DUP1 REVERT JUMPDEST POP PUSH1 0x4 CALLDATASIZE LT PUSH2 0x4C JUMPI PUSH1 0x0 CALLDATALOAD PUSH1 0xE0 SHR DUP1 PUSH4 0x2EE3A52 EQ PUSH2 0x51 JUMPI DUP1 PUSH4 0x51401EEF EQ PUSH2 0x6F JUMPI DUP1 PUSH4 0xE4D7A3D4 EQ PUSH2 0x8B JUMPI DUP1 PUSH4 0xE88E9F0F EQ PUSH2 0xA9 JUMPI JUMPDEST PUSH1 0x0 DUP1 REVERT JUMPDEST PUSH2 0x59 PUSH2 0xC5 JUMP JUMPDEST PUSH1 0x40 MLOAD PUSH2 0x66 SWAP2 SWAP1 PUSH2 0x99D JUMP JUMPDEST PUSH1 0x40 MLOAD DUP1 SWAP2 SUB SWAP1 RETURN JUMPDEST PUSH2 0x89 PUSH1 0x4 DUP1 CALLDATASIZE SUB DUP2 ADD SWAP1 PUSH2 0x84 SWAP2 SWAP1 PUSH2 0x70F JUMP JUMPDEST PUSH2 0x1DD JUMP JUMPDEST STOP JUMPDEST PUSH2 0x93 PUSH2 0x296 JUMP JUMPDEST PUSH1 0x40 MLOAD PUSH2 0xA0 SWAP2 SWAP1 PUSH2 0x97B JUMP JUMPDEST PUSH1 0x40 MLOAD DUP1 SWAP2 SUB SWAP1 RETURN JUMPDEST PUSH2 0xC3 PUSH1 0x4 DUP1 CALLDATASIZE SUB DUP2 ADD SWAP1 PUSH2 0xBE SWAP2 SWAP1 PUSH2 0x6C6 JUMP JUMPDEST PUSH2 0x45E JUMP JUMPDEST STOP JUMPDEST PUSH1 0x60 PUSH1 0x0 DUP1 SLOAD DUP1 PUSH1 0x20 MUL PUSH1 0x20 ADD PUSH1 0x40 MLOAD SWAP1 DUP2 ADD PUSH1 0x40 MSTORE DUP1 SWAP3 SWAP2 SWAP1 DUP2 DUP2 MSTORE PUSH1 0x20 ADD PUSH1 0x0 SWAP1 JUMPDEST DUP3 DUP3 LT ISZERO PUSH2 0x1D4 JUMPI DUP4 DUP3 SWAP1 PUSH1 0x0 MSTORE PUSH1 0x20 PUSH1 0x0 KECCAK256 SWAP1 PUSH1 0x3 MUL ADD PUSH1 0x40 MLOAD DUP1 PUSH1 0x60 ADD PUSH1 0x40 MSTORE SWAP1 DUP2 PUSH1 0x0 DUP3 ADD SLOAD DUP2 MSTORE PUSH1 0x20 ADD PUSH1 0x1 DUP3 ADD DUP1 SLOAD PUSH2 0x126 SWAP1 PUSH2 0xB52 JUMP JUMPDEST DUP1 PUSH1 0x1F ADD PUSH1 0x20 DUP1 SWAP2 DIV MUL PUSH1 0x20 ADD PUSH1 0x40 MLOAD SWAP1 DUP2 ADD PUSH1 0x40 MSTORE DUP1 SWAP3 SWAP2 SWAP1 DUP2 DUP2 MSTORE PUSH1 0x20 ADD DUP3 DUP1 SLOAD PUSH2 0x152 SWAP1 PUSH2 0xB52 JUMP JUMPDEST DUP1 ISZERO PUSH2 0x19F JUMPI DUP1 PUSH1 0x1F LT PUSH2 0x174 JUMPI PUSH2 0x100 DUP1 DUP4 SLOAD DIV MUL DUP4 MSTORE SWAP2 PUSH1 0x20 ADD SWAP2 PUSH2 0x19F JUMP JUMPDEST DUP3 ADD SWAP2 SWAP1 PUSH1 0x0 MSTORE PUSH1 0x20 PUSH1 0x0 KECCAK256 SWAP1 JUMPDEST DUP2 SLOAD DUP2 MSTORE SWAP1 PUSH1 0x1 ADD SWAP1 PUSH1 0x20 ADD DUP1 DUP4 GT PUSH2 0x182 JUMPI DUP3 SWAP1 SUB PUSH1 0x1F AND DUP3 ADD SWAP2 JUMPDEST POP POP POP POP POP DUP2 MSTORE PUSH1 0x20 ADD PUSH1 0x2 DUP3 ADD PUSH1 0x0 SWAP1 SLOAD SWAP1 PUSH2 0x100 EXP SWAP1 DIV PUSH1 0x1 SIGNEXTEND PUSH1 0x1 SIGNEXTEND PUSH1 0x1 SIGNEXTEND DUP2 MSTORE POP POP DUP2 MSTORE PUSH1 0x20 ADD SWAP1 PUSH1 0x1 ADD SWAP1 PUSH2 0xE9 JUMP JUMPDEST POP POP POP POP SWAP1 POP SWAP1 JUMP JUMPDEST PUSH1 0x0 PUSH1 0x1 PUSH1 0x0 DUP1 SLOAD SWAP1 POP PUSH2 0x1F1 SWAP2 SWAP1 PUSH2 0xAA3 JUMP JUMPDEST SWAP1 POP PUSH1 0x0 PUSH1 0x40 MLOAD DUP1 PUSH1 0x60 ADD PUSH1 0x40 MSTORE DUP1 DUP4 DUP2 MSTORE PUSH1 0x20 ADD DUP6 DUP2 MSTORE PUSH1 0x20 ADD DUP5 PUSH1 0x1 SIGNEXTEND DUP2 MSTORE POP SWAP1 POP PUSH1 0x0 DUP2 SWAP1 DUP1 PUSH1 0x1 DUP2 SLOAD ADD DUP1 DUP3 SSTORE DUP1 SWAP2 POP POP PUSH1 0x1 SWAP1 SUB SWAP1 PUSH1 0x0 MSTORE PUSH1 0x20 PUSH1 0x0 KECCAK256 SWAP1 PUSH1 0x3 MUL ADD PUSH1 0x0 SWAP1 SWAP2 SWAP1 SWAP2 SWAP1 SWAP2 POP PUSH1 0x0 DUP3 ADD MLOAD DUP2 PUSH1 0x0 ADD SSTORE PUSH1 0x20 DUP3 ADD MLOAD DUP2 PUSH1 0x1 ADD SWAP1 DUP1 MLOAD SWAP1 PUSH1 0x20 ADD SWAP1 PUSH2 0x267 SWAP3 SWAP2 SWAP1 PUSH2 0x59E JUMP JUMPDEST POP PUSH1 0x40 DUP3 ADD MLOAD DUP2 PUSH1 0x2 ADD PUSH1 0x0 PUSH2 0x100 EXP DUP2 SLOAD DUP2 PUSH2 0xFFFF MUL NOT AND SWAP1 DUP4 PUSH1 0x1 SIGNEXTEND PUSH2 0xFFFF AND MUL OR SWAP1 SSTORE POP POP POP POP POP POP POP JUMP JUMPDEST PUSH1 0x60 PUSH1 0x1 DUP1 SLOAD DUP1 PUSH1 0x20 MUL PUSH1 0x20 ADD PUSH1 0x40 MLOAD SWAP1 DUP2 ADD PUSH1 0x40 MSTORE DUP1 SWAP3 SWAP2 SWAP1 DUP2 DUP2 MSTORE PUSH1 0x20 ADD PUSH1 0x0 SWAP1 JUMPDEST DUP3 DUP3 LT ISZERO PUSH2 0x455 JUMPI DUP4 DUP3 SWAP1 PUSH1 0x0 MSTORE PUSH1 0x20 PUSH1 0x0 KECCAK256 SWAP1 PUSH1 0x5 MUL ADD PUSH1 0x40 MLOAD DUP1 PUSH1 0x60 ADD PUSH1 0x40 MSTORE SWAP1 DUP2 PUSH1 0x0 DUP3 ADD SLOAD DUP2 MSTORE PUSH1 0x20 ADD PUSH1 0x1 DUP3 ADD DUP1 SLOAD PUSH2 0x2F7 SWAP1 PUSH2 0xB52 JUMP JUMPDEST DUP1 PUSH1 0x1F ADD PUSH1 0x20 DUP1 SWAP2 DIV MUL PUSH1 0x20 ADD PUSH1 0x40 MLOAD SWAP1 DUP2 ADD PUSH1 0x40 MSTORE DUP1 SWAP3 SWAP2 SWAP1 DUP2 DUP2 MSTORE PUSH1 0x20 ADD DUP3 DUP1 SLOAD PUSH2 0x323 SWAP1 PUSH2 0xB52 JUMP JUMPDEST DUP1 ISZERO PUSH2 0x370 JUMPI DUP1 PUSH1 0x1F LT PUSH2 0x345 JUMPI PUSH2 0x100 DUP1 DUP4 SLOAD DIV MUL DUP4 MSTORE SWAP2 PUSH1 0x20 ADD SWAP2 PUSH2 0x370 JUMP JUMPDEST DUP3 ADD SWAP2 SWAP1 PUSH1 0x0 MSTORE PUSH1 0x20 PUSH1 0x0 KECCAK256 SWAP1 JUMPDEST DUP2 SLOAD DUP2 MSTORE SWAP1 PUSH1 0x1 ADD SWAP1 PUSH1 0x20 ADD DUP1 DUP4 GT PUSH2 0x353 JUMPI DUP3 SWAP1 SUB PUSH1 0x1F AND DUP3 ADD SWAP2 JUMPDEST POP POP POP POP POP DUP2 MSTORE PUSH1 0x20 ADD PUSH1 0x2 DUP3 ADD PUSH1 0x40 MLOAD DUP1 PUSH1 0x60 ADD PUSH1 0x40 MSTORE SWAP1 DUP2 PUSH1 0x0 DUP3 ADD SLOAD DUP2 MSTORE PUSH1 0x20 ADD PUSH1 0x1 DUP3 ADD DUP1 SLOAD PUSH2 0x3A3 SWAP1 PUSH2 0xB52 JUMP JUMPDEST DUP1 PUSH1 0x1F ADD PUSH1 0x20 DUP1 SWAP2 DIV MUL PUSH1 0x20 ADD PUSH1 0x40 MLOAD SWAP1 DUP2 ADD PUSH1 0x40 MSTORE DUP1 SWAP3 SWAP2 SWAP1 DUP2 DUP2 MSTORE PUSH1 0x20 ADD DUP3 DUP1 SLOAD PUSH2 0x3CF SWAP1 PUSH2 0xB52 JUMP JUMPDEST DUP1 ISZERO PUSH2 0x41C JUMPI DUP1 PUSH1 0x1F LT PUSH2 0x3F1 JUMPI PUSH2 0x100 DUP1 DUP4 SLOAD DIV MUL DUP4 MSTORE SWAP2 PUSH1 0x20 ADD SWAP2 PUSH2 0x41C JUMP JUMPDEST DUP3 ADD SWAP2 SWAP1 PUSH1 0x0 MSTORE PUSH1 0x20 PUSH1 0x0 KECCAK256 SWAP1 JUMPDEST DUP2 SLOAD DUP2 MSTORE SWAP1 PUSH1 0x1 ADD SWAP1 PUSH1 0x20 ADD DUP1 DUP4 GT PUSH2 0x3FF JUMPI DUP3 SWAP1 SUB PUSH1 0x1F AND DUP3 ADD SWAP2 JUMPDEST POP POP POP POP POP DUP2 MSTORE PUSH1 0x20 ADD PUSH1 0x2 DUP3 ADD PUSH1 0x0 SWAP1 SLOAD SWAP1 PUSH2 0x100 EXP SWAP1 DIV PUSH1 0x1 SIGNEXTEND PUSH1 0x1 SIGNEXTEND PUSH1 0x1 SIGNEXTEND DUP2 MSTORE POP POP DUP2 MSTORE POP POP DUP2 MSTORE PUSH1 0x20 ADD SWAP1 PUSH1 0x1 ADD SWAP1 PUSH2 0x2BA JUMP JUMPDEST POP POP POP POP SWAP1 POP SWAP1 JUMP JUMPDEST PUSH1 0x0 PUSH1 0x1 DUP1 DUP1 SLOAD SWAP1 POP PUSH2 0x471 SWAP2 SWAP1 PUSH2 0xAA3 JUMP JUMPDEST SWAP1 POP PUSH1 0x0 PUSH1 0x40 MLOAD DUP1 PUSH1 0x60 ADD PUSH1 0x40 MSTORE DUP1 PUSH1 0x0 DUP2 MSTORE PUSH1 0x20 ADD PUSH1 0x40 MLOAD DUP1 PUSH1 0x40 ADD PUSH1 0x40 MSTORE DUP1 PUSH1 0x4 DUP2 MSTORE PUSH1 0x20 ADD PUSH32 0x746F746F00000000000000000000000000000000000000000000000000000000 DUP2 MSTORE POP DUP2 MSTORE PUSH1 0x20 ADD PUSH1 0x5 PUSH1 0x1 SIGNEXTEND DUP2 MSTORE POP SWAP1 POP PUSH1 0x0 PUSH1 0x40 MLOAD DUP1 PUSH1 0x60 ADD PUSH1 0x40 MSTORE DUP1 DUP5 DUP2 MSTORE PUSH1 0x20 ADD DUP6 DUP2 MSTORE PUSH1 0x20 ADD DUP4 DUP2 MSTORE POP SWAP1 POP PUSH1 0x1 DUP2 SWAP1 DUP1 PUSH1 0x1 DUP2 SLOAD ADD DUP1 DUP3 SSTORE DUP1 SWAP2 POP POP PUSH1 0x1 SWAP1 SUB SWAP1 PUSH1 0x0 MSTORE PUSH1 0x20 PUSH1 0x0 KECCAK256 SWAP1 PUSH1 0x5 MUL ADD PUSH1 0x0 SWAP1 SWAP2 SWAP1 SWAP2 SWAP1 SWAP2 POP PUSH1 0x0 DUP3 ADD MLOAD DUP2 PUSH1 0x0 ADD SSTORE PUSH1 0x20 DUP3 ADD MLOAD DUP2 PUSH1 0x1 ADD SWAP1 DUP1 MLOAD SWAP1 PUSH1 0x20 ADD SWAP1 PUSH2 0x53D SWAP3 SWAP2 SWAP1 PUSH2 0x59E JUMP JUMPDEST POP PUSH1 0x40 DUP3 ADD MLOAD DUP2 PUSH1 0x2 ADD PUSH1 0x0 DUP3 ADD MLOAD DUP2 PUSH1 0x0 ADD SSTORE PUSH1 0x20 DUP3 ADD MLOAD DUP2 PUSH1 0x1 ADD SWAP1 DUP1 MLOAD SWAP1 PUSH1 0x20 ADD SWAP1 PUSH2 0x56D SWAP3 SWAP2 SWAP1 PUSH2 0x59E JUMP JUMPDEST POP PUSH1 0x40 DUP3 ADD MLOAD DUP2 PUSH1 0x2 ADD PUSH1 0x0 PUSH2 0x100 EXP DUP2 SLOAD DUP2 PUSH2 0xFFFF MUL NOT AND SWAP1 DUP4 PUSH1 0x1 SIGNEXTEND PUSH2 0xFFFF AND MUL OR SWAP1 SSTORE POP POP POP POP POP POP POP POP POP JUMP JUMPDEST DUP3 DUP1 SLOAD PUSH2 0x5AA SWAP1 PUSH2 0xB52 JUMP JUMPDEST SWAP1 PUSH1 0x0 MSTORE PUSH1 0x20 PUSH1 0x0 KECCAK256 SWAP1 PUSH1 0x1F ADD PUSH1 0x20 SWAP1 DIV DUP2 ADD SWAP3 DUP3 PUSH2 0x5CC JUMPI PUSH1 0x0 DUP6 SSTORE PUSH2 0x613 JUMP JUMPDEST DUP3 PUSH1 0x1F LT PUSH2 0x5E5 JUMPI DUP1 MLOAD PUSH1 0xFF NOT AND DUP4 DUP1 ADD OR DUP6 SSTORE PUSH2 0x613 JUMP JUMPDEST DUP3 DUP1 ADD PUSH1 0x1 ADD DUP6 SSTORE DUP3 ISZERO PUSH2 0x613 JUMPI SWAP2 DUP3 ADD JUMPDEST DUP3 DUP2 GT ISZERO PUSH2 0x612 JUMPI DUP3 MLOAD DUP3 SSTORE SWAP2 PUSH1 0x20 ADD SWAP2 SWAP1 PUSH1 0x1 ADD SWAP1 PUSH2 0x5F7 JUMP JUMPDEST JUMPDEST POP SWAP1 POP PUSH2 0x620 SWAP2 SWAP1 PUSH2 0x624 JUMP JUMPDEST POP SWAP1 JUMP JUMPDEST JUMPDEST DUP1 DUP3 GT ISZERO PUSH2 0x63D JUMPI PUSH1 0x0 DUP2 PUSH1 0x0 SWAP1 SSTORE POP PUSH1 0x1 ADD PUSH2 0x625 JUMP JUMPDEST POP SWAP1 JUMP JUMPDEST PUSH1 0x0 PUSH2 0x654 PUSH2 0x64F DUP5 PUSH2 0x9E4 JUMP JUMPDEST PUSH2 0x9BF JUMP JUMPDEST SWAP1 POP DUP3 DUP2 MSTORE PUSH1 0x20 DUP2 ADD DUP5 DUP5 DUP5 ADD GT ISZERO PUSH2 0x670 JUMPI PUSH2 0x66F PUSH2 0xC47 JUMP JUMPDEST JUMPDEST PUSH2 0x67B DUP5 DUP3 DUP6 PUSH2 0xB10 JUMP JUMPDEST POP SWAP4 SWAP3 POP POP POP JUMP JUMPDEST PUSH1 0x0 DUP2 CALLDATALOAD SWAP1 POP PUSH2 0x692 DUP2 PUSH2 0xC67 JUMP JUMPDEST SWAP3 SWAP2 POP POP JUMP JUMPDEST PUSH1 0x0 DUP3 PUSH1 0x1F DUP4 ADD SLT PUSH2 0x6AD JUMPI PUSH2 0x6AC PUSH2 0xC42 JUMP JUMPDEST JUMPDEST DUP2 CALLDATALOAD PUSH2 0x6BD DUP5 DUP3 PUSH1 0x20 DUP7 ADD PUSH2 0x641 JUMP JUMPDEST SWAP2 POP POP SWAP3 SWAP2 POP POP JUMP JUMPDEST PUSH1 0x0 PUSH1 0x20 DUP3 DUP5 SUB SLT ISZERO PUSH2 0x6DC JUMPI PUSH2 0x6DB PUSH2 0xC51 JUMP JUMPDEST JUMPDEST PUSH1 0x0 DUP3 ADD CALLDATALOAD PUSH8 0xFFFFFFFFFFFFFFFF DUP2 GT ISZERO PUSH2 0x6FA JUMPI PUSH2 0x6F9 PUSH2 0xC4C JUMP JUMPDEST JUMPDEST PUSH2 0x706 DUP5 DUP3 DUP6 ADD PUSH2 0x698 JUMP JUMPDEST SWAP2 POP POP SWAP3 SWAP2 POP POP JUMP JUMPDEST PUSH1 0x0 DUP1 PUSH1 0x40 DUP4 DUP6 SUB SLT ISZERO PUSH2 0x726 JUMPI PUSH2 0x725 PUSH2 0xC51 JUMP JUMPDEST JUMPDEST PUSH1 0x0 DUP4 ADD CALLDATALOAD PUSH8 0xFFFFFFFFFFFFFFFF DUP2 GT ISZERO PUSH2 0x744 JUMPI PUSH2 0x743 PUSH2 0xC4C JUMP JUMPDEST JUMPDEST PUSH2 0x750 DUP6 DUP3 DUP7 ADD PUSH2 0x698 JUMP JUMPDEST SWAP3 POP POP PUSH1 0x20 PUSH2 0x761 DUP6 DUP3 DUP7 ADD PUSH2 0x683 JUMP JUMPDEST SWAP2 POP POP SWAP3 POP SWAP3 SWAP1 POP JUMP JUMPDEST PUSH1 0x0 PUSH2 0x777 DUP4 DUP4 PUSH2 0x8C5 JUMP JUMPDEST SWAP1 POP SWAP3 SWAP2 POP POP JUMP JUMPDEST PUSH1 0x0 PUSH2 0x78B DUP4 DUP4 PUSH2 0x91C JUMP JUMPDEST SWAP1 POP SWAP3 SWAP2 POP POP JUMP JUMPDEST PUSH1 0x0 PUSH2 0x79E DUP3 PUSH2 0xA35 JUMP JUMPDEST PUSH2 0x7A8 DUP2 DUP6 PUSH2 0xA70 JUMP JUMPDEST SWAP4 POP DUP4 PUSH1 0x20 DUP3 MUL DUP6 ADD PUSH2 0x7BA DUP6 PUSH2 0xA15 JUMP JUMPDEST DUP1 PUSH1 0x0 JUMPDEST DUP6 DUP2 LT ISZERO PUSH2 0x7F6 JUMPI DUP5 DUP5 SUB DUP10 MSTORE DUP2 MLOAD PUSH2 0x7D7 DUP6 DUP3 PUSH2 0x76B JUMP JUMPDEST SWAP5 POP PUSH2 0x7E2 DUP4 PUSH2 0xA56 JUMP JUMPDEST SWAP3 POP PUSH1 0x20 DUP11 ADD SWAP10 POP POP PUSH1 0x1 DUP2 ADD SWAP1 POP PUSH2 0x7BE JUMP JUMPDEST POP DUP3 SWAP8 POP DUP8 SWAP6 POP POP POP POP POP POP SWAP3 SWAP2 POP POP JUMP JUMPDEST PUSH1 0x0 PUSH2 0x813 DUP3 PUSH2 0xA40 JUMP JUMPDEST PUSH2 0x81D DUP2 DUP6 PUSH2 0xA81 JUMP JUMPDEST SWAP4 POP DUP4 PUSH1 0x20 DUP3 MUL DUP6 ADD PUSH2 0x82F DUP6 PUSH2 0xA25 JUMP JUMPDEST DUP1 PUSH1 0x0 JUMPDEST DUP6 DUP2 LT ISZERO PUSH2 0x86B JUMPI DUP5 DUP5 SUB DUP10 MSTORE DUP2 MLOAD PUSH2 0x84C DUP6 DUP3 PUSH2 0x77F JUMP JUMPDEST SWAP5 POP PUSH2 0x857 DUP4 PUSH2 0xA63 JUMP JUMPDEST SWAP3 POP PUSH1 0x20 DUP11 ADD SWAP10 POP POP PUSH1 0x1 DUP2 ADD SWAP1 POP PUSH2 0x833 JUMP JUMPDEST POP DUP3 SWAP8 POP DUP8 SWAP6 POP POP POP POP POP POP SWAP3 SWAP2 POP POP JUMP JUMPDEST PUSH2 0x886 DUP2 PUSH2 0xAF9 JUMP JUMPDEST DUP3 MSTORE POP POP JUMP JUMPDEST PUSH1 0x0 PUSH2 0x897 DUP3 PUSH2 0xA4B JUMP JUMPDEST PUSH2 0x8A1 DUP2 DUP6 PUSH2 0xA92 JUMP JUMPDEST SWAP4 POP PUSH2 0x8B1 DUP2 DUP6 PUSH1 0x20 DUP7 ADD PUSH2 0xB1F JUMP JUMPDEST PUSH2 0x8BA DUP2 PUSH2 0xC56 JUMP JUMPDEST DUP5 ADD SWAP2 POP POP SWAP3 SWAP2 POP POP JUMP JUMPDEST PUSH1 0x0 PUSH1 0x60 DUP4 ADD PUSH1 0x0 DUP4 ADD MLOAD PUSH2 0x8DD PUSH1 0x0 DUP7 ADD DUP3 PUSH2 0x96C JUMP JUMPDEST POP PUSH1 0x20 DUP4 ADD MLOAD DUP5 DUP3 SUB PUSH1 0x20 DUP7 ADD MSTORE PUSH2 0x8F5 DUP3 DUP3 PUSH2 0x88C JUMP JUMPDEST SWAP2 POP POP PUSH1 0x40 DUP4 ADD MLOAD DUP5 DUP3 SUB PUSH1 0x40 DUP7 ADD MSTORE PUSH2 0x90F DUP3 DUP3 PUSH2 0x91C JUMP JUMPDEST SWAP2 POP POP DUP1 SWAP2 POP POP SWAP3 SWAP2 POP POP JUMP JUMPDEST PUSH1 0x0 PUSH1 0x60 DUP4 ADD PUSH1 0x0 DUP4 ADD MLOAD PUSH2 0x934 PUSH1 0x0 DUP7 ADD DUP3 PUSH2 0x96C JUMP JUMPDEST POP PUSH1 0x20 DUP4 ADD MLOAD DUP5 DUP3 SUB PUSH1 0x20 DUP7 ADD MSTORE PUSH2 0x94C DUP3 DUP3 PUSH2 0x88C JUMP JUMPDEST SWAP2 POP POP PUSH1 0x40 DUP4 ADD MLOAD PUSH2 0x961 PUSH1 0x40 DUP7 ADD DUP3 PUSH2 0x87D JUMP JUMPDEST POP DUP1 SWAP2 POP POP SWAP3 SWAP2 POP POP JUMP JUMPDEST PUSH2 0x975 DUP2 PUSH2 0xB06 JUMP JUMPDEST DUP3 MSTORE POP POP JUMP JUMPDEST PUSH1 0x0 PUSH1 0x20 DUP3 ADD SWAP1 POP DUP2 DUP2 SUB PUSH1 0x0 DUP4 ADD MSTORE PUSH2 0x995 DUP2 DUP5 PUSH2 0x793 JUMP JUMPDEST SWAP1 POP SWAP3 SWAP2 POP POP JUMP JUMPDEST PUSH1 0x0 PUSH1 0x20 DUP3 ADD SWAP1 POP DUP2 DUP2 SUB PUSH1 0x0 DUP4 ADD MSTORE PUSH2 0x9B7 DUP2 DUP5 PUSH2 0x808 JUMP JUMPDEST SWAP1 POP SWAP3 SWAP2 POP POP JUMP JUMPDEST PUSH1 0x0 PUSH2 0x9C9 PUSH2 0x9DA JUMP JUMPDEST SWAP1 POP PUSH2 0x9D5 DUP3 DUP3 PUSH2 0xB84 JUMP JUMPDEST SWAP2 SWAP1 POP JUMP JUMPDEST PUSH1 0x0 PUSH1 0x40 MLOAD SWAP1 POP SWAP1 JUMP JUMPDEST PUSH1 0x0 PUSH8 0xFFFFFFFFFFFFFFFF DUP3 GT ISZERO PUSH2 0x9FF JUMPI PUSH2 0x9FE PUSH2 0xC13 JUMP JUMPDEST JUMPDEST PUSH2 0xA08 DUP3 PUSH2 0xC56 JUMP JUMPDEST SWAP1 POP PUSH1 0x20 DUP2 ADD SWAP1 POP SWAP2 SWAP1 POP JUMP JUMPDEST PUSH1 0x0 DUP2 SWAP1 POP PUSH1 0x20 DUP3 ADD SWAP1 POP SWAP2 SWAP1 POP JUMP JUMPDEST PUSH1 0x0 DUP2 SWAP1 POP PUSH1 0x20 DUP3 ADD SWAP1 POP SWAP2 SWAP1 POP JUMP JUMPDEST PUSH1 0x0 DUP2 MLOAD SWAP1 POP SWAP2 SWAP1 POP JUMP JUMPDEST PUSH1 0x0 DUP2 MLOAD SWAP1 POP SWAP2 SWAP1 POP JUMP JUMPDEST PUSH1 0x0 DUP2 MLOAD SWAP1 POP SWAP2 SWAP1 POP JUMP JUMPDEST PUSH1 0x0 PUSH1 0x20 DUP3 ADD SWAP1 POP SWAP2 SWAP1 POP JUMP JUMPDEST PUSH1 0x0 PUSH1 0x20 DUP3 ADD SWAP1 POP SWAP2 SWAP1 POP JUMP JUMPDEST PUSH1 0x0 DUP3 DUP3 MSTORE PUSH1 0x20 DUP3 ADD SWAP1 POP SWAP3 SWAP2 POP POP JUMP JUMPDEST PUSH1 0x0 DUP3 DUP3 MSTORE PUSH1 0x20 DUP3 ADD SWAP1 POP SWAP3 SWAP2 POP POP JUMP JUMPDEST PUSH1 0x0 DUP3 DUP3 MSTORE PUSH1 0x20 DUP3 ADD SWAP1 POP SWAP3 SWAP2 POP POP JUMP JUMPDEST PUSH1 0x0 PUSH2 0xAAE DUP3 PUSH2 0xB06 JUMP JUMPDEST SWAP2 POP PUSH2 0xAB9 DUP4 PUSH2 0xB06 JUMP JUMPDEST SWAP3 POP DUP3 PUSH32 0xFFFFFFFFFFFFFFFFFFFFFFFFFFFFFFFFFFFFFFFFFFFFFFFFFFFFFFFFFFFFFFFF SUB DUP3 GT ISZERO PUSH2 0xAEE JUMPI PUSH2 0xAED PUSH2 0xBB5 JUMP JUMPDEST JUMPDEST DUP3 DUP3 ADD SWAP1 POP SWAP3 SWAP2 POP POP JUMP JUMPDEST PUSH1 0x0 DUP2 PUSH1 0x1 SIGNEXTEND SWAP1 POP SWAP2 SWAP1 POP JUMP JUMPDEST PUSH1 0x0 DUP2 SWAP1 POP SWAP2 SWAP1 POP JUMP JUMPDEST DUP3 DUP2 DUP4 CALLDATACOPY PUSH1 0x0 DUP4 DUP4 ADD MSTORE POP POP POP JUMP JUMPDEST PUSH1 0x0 JUMPDEST DUP4 DUP2 LT ISZERO PUSH2 0xB3D JUMPI DUP1 DUP3 ADD MLOAD DUP2 DUP5 ADD MSTORE PUSH1 0x20 DUP2 ADD SWAP1 POP PUSH2 0xB22 JUMP JUMPDEST DUP4 DUP2 GT ISZERO PUSH2 0xB4C JUMPI PUSH1 0x0 DUP5 DUP5 ADD MSTORE JUMPDEST POP POP POP POP JUMP JUMPDEST PUSH1 0x0 PUSH1 0x2 DUP3 DIV SWAP1 POP PUSH1 0x1 DUP3 AND DUP1 PUSH2 0xB6A JUMPI PUSH1 0x7F DUP3 AND SWAP2 POP JUMPDEST PUSH1 0x20 DUP3 LT DUP2 EQ ISZERO PUSH2 0xB7E JUMPI PUSH2 0xB7D PUSH2 0xBE4 JUMP JUMPDEST JUMPDEST POP SWAP2 SWAP1 POP JUMP JUMPDEST PUSH2 0xB8D DUP3 PUSH2 0xC56 JUMP JUMPDEST DUP2 ADD DUP2 DUP2 LT PUSH8 0xFFFFFFFFFFFFFFFF DUP3 GT OR ISZERO PUSH2 0xBAC JUMPI PUSH2 0xBAB PUSH2 0xC13 JUMP JUMPDEST JUMPDEST DUP1 PUSH1 0x40 MSTORE POP POP POP JUMP JUMPDEST PUSH32 0x4E487B7100000000000000000000000000000000000000000000000000000000 PUSH1 0x0 MSTORE PUSH1 0x11 PUSH1 0x4 MSTORE PUSH1 0x24 PUSH1 0x0 REVERT JUMPDEST PUSH32 0x4E487B7100000000000000000000000000000000000000000000000000000000 PUSH1 0x0 MSTORE PUSH1 0x22 PUSH1 0x4 MSTORE PUSH1 0x24 PUSH1 0x0 REVERT JUMPDEST PUSH32 0x4E487B7100000000000000000000000000000000000000000000000000000000 PUSH1 0x0 MSTORE PUSH1 0x41 PUSH1 0x4 MSTORE PUSH1 0x24 PUSH1 0x0 REVERT JUMPDEST PUSH1 0x0 DUP1 REVERT JUMPDEST PUSH1 0x0 DUP1 REVERT JUMPDEST PUSH1 0x0 DUP1 REVERT JUMPDEST PUSH1 0x0 DUP1 REVERT JUMPDEST PUSH1 0x0 PUSH1 0x1F NOT PUSH1 0x1F DUP4 ADD AND SWAP1 POP SWAP2 SWAP1 POP JUMP JUMPDEST PUSH2 0xC70 DUP2 PUSH2 0xAF9 JUMP JUMPDEST DUP2 EQ PUSH2 0xC7B JUMPI PUSH1 0x0 DUP1 REVERT JUMPDEST POP JUMP INVALID LOG2 PUSH5 0x6970667358 0x22 SLT KECCAK256 SELFBALANCE AND 0xDA SMOD 0xEE 0xC0 PUSH4 0x9E823C23 0xED PUSH14 0x4AFDE053D2E308596846ED7C9D3A 0x22 0xF7 0xE6 STATICCALL 0xD5 PUSH5 0x736F6C6343 STOP ADDMOD SMOD STOP CALLER "
				},
				"gasEstimates": {
					"creation": {
						"codeDepositCost": "650400",
						"executionCost": "683",
						"totalCost": "651083"
					},
					"external": {
						"createClient(string)": "infinite",
						"createProduit(string,int16)": "infinite",
						"getAllClients()": "infinite",
						"getAllProducts()": "infinite"
					}
				},
				"methodIdentifiers": {
					"createClient(string)": "e88e9f0f",
					"createProduit(string,int16)": "51401eef",
					"getAllClients()": "e4d7a3d4",
					"getAllProducts()": "02ee3a52"
				}
			},
			"storageLayout": {
				"storage": [
					{
						"astId": 20,
						"contract": "contracts/ExoSupermarche.sol:supermarche",
						"label": "produits",
						"offset": 0,
						"slot": "0",
						"type": "t_array(t_struct(produit)8_storage)dyn_storage"
					},
					{
						"astId": 24,
						"contract": "contracts/ExoSupermarche.sol:supermarche",
						"label": "clients",
						"offset": 0,
						"slot": "1",
						"type": "t_array(t_struct(client)16_storage)dyn_storage"
					}
				],
				"types": {
					"t_array(t_struct(client)16_storage)dyn_storage": {
						"base": "t_struct(client)16_storage",
						"encoding": "dynamic_array",
						"label": "struct supermarche.client[]",
						"numberOfBytes": "32"
					},
					"t_array(t_struct(produit)8_storage)dyn_storage": {
						"base": "t_struct(produit)8_storage",
						"encoding": "dynamic_array",
						"label": "struct supermarche.produit[]",
						"numberOfBytes": "32"
					},
					"t_int16": {
						"encoding": "inplace",
						"label": "int16",
						"numberOfBytes": "2"
					},
					"t_string_storage": {
						"encoding": "bytes",
						"label": "string",
						"numberOfBytes": "32"
					},
					"t_struct(client)16_storage": {
						"encoding": "inplace",
						"label": "struct supermarche.client",
						"members": [
							{
								"astId": 10,
								"contract": "contracts/ExoSupermarche.sol:supermarche",
								"label": "_id",
								"offset": 0,
								"slot": "0",
								"type": "t_uint256"
							},
							{
								"astId": 12,
								"contract": "contracts/ExoSupermarche.sol:supermarche",
								"label": "_nom",
								"offset": 0,
								"slot": "1",
								"type": "t_string_storage"
							},
							{
								"astId": 15,
								"contract": "contracts/ExoSupermarche.sol:supermarche",
								"label": "panier",
								"offset": 0,
								"slot": "2",
								"type": "t_struct(produit)8_storage"
							}
						],
						"numberOfBytes": "160"
					},
					"t_struct(produit)8_storage": {
						"encoding": "inplace",
						"label": "struct supermarche.produit",
						"members": [
							{
								"astId": 3,
								"contract": "contracts/ExoSupermarche.sol:supermarche",
								"label": "_id",
								"offset": 0,
								"slot": "0",
								"type": "t_uint256"
							},
							{
								"astId": 5,
								"contract": "contracts/ExoSupermarche.sol:supermarche",
								"label": "_libelle",
								"offset": 0,
								"slot": "1",
								"type": "t_string_storage"
							},
							{
								"astId": 7,
								"contract": "contracts/ExoSupermarche.sol:supermarche",
								"label": "_prix",
								"offset": 0,
								"slot": "2",
								"type": "t_int16"
							}
						],
						"numberOfBytes": "96"
					},
					"t_uint256": {
						"encoding": "inplace",
						"label": "uint256",
						"numberOfBytes": "32"
					}
				}
			},
			"userdoc": {
				"kind": "user",
				"methods": {},
				"version": 1
			}
		}
	}
}