{
	"contracts/ExoSupermarche.sol": {
		"supermarche": {
			"abi": [
				{
					"inputs": [
						{
							"internalType": "string",
							"name": "_nom",
							"type": "string"
						}
					],
					"name": "createClient",
					"outputs": [],
					"stateMutability": "nonpayable",
					"type": "function"
				},
				{
					"inputs": [
						{
							"internalType": "string",
							"name": "_libelle",
							"type": "string"
						},
						{
							"internalType": "int16",
							"name": "_prix",
							"type": "int16"
						}
					],
					"name": "createProduit",
					"outputs": [],
					"stateMutability": "nonpayable",
					"type": "function"
				},
				{
					"inputs": [],
					"name": "getAllProducts",
					"outputs": [
						{
							"components": [
								{
									"internalType": "uint256",
									"name": "_id",
									"type": "uint256"
								},
								{
									"internalType": "string",
									"name": "_libelle",
									"type": "string"
								},
								{
									"internalType": "int16",
									"name": "_prix",
									"type": "int16"
								}
							],
							"internalType": "struct supermarche.produit[]",
							"name": "",
							"type": "tuple[]"
						}
					],
					"stateMutability": "view",
					"type": "function"
				}
			],
			"devdoc": {
				"kind": "dev",
				"methods": {},
				"version": 1
			},
			"evm": {
				"assembly": "    /* \"contracts/ExoSupermarche.sol\":59:756  contract supermarche {\r... */\n  mstore(0x40, 0x80)\n  callvalue\n  dup1\n  iszero\n  tag_1\n  jumpi\n  0x00\n  dup1\n  revert\ntag_1:\n  pop\n  dataSize(sub_0)\n  dup1\n  dataOffset(sub_0)\n  0x00\n  codecopy\n  0x00\n  return\nstop\n\nsub_0: assembly {\n        /* \"contracts/ExoSupermarche.sol\":59:756  contract supermarche {\r... */\n      mstore(0x40, 0x80)\n      callvalue\n      dup1\n      iszero\n      tag_1\n      jumpi\n      0x00\n      dup1\n      revert\n    tag_1:\n      pop\n      jumpi(tag_2, lt(calldatasize, 0x04))\n      shr(0xe0, calldataload(0x00))\n      dup1\n      0x02ee3a52\n      eq\n      tag_3\n      jumpi\n      dup1\n      0x51401eef\n      eq\n      tag_4\n      jumpi\n      dup1\n      0xe88e9f0f\n      eq\n      tag_5\n      jumpi\n    tag_2:\n      0x00\n      dup1\n      revert\n        /* \"contracts/ExoSupermarche.sol\":546:644  function getAllProducts() public view returns(produit[] memory) {\r... */\n    tag_3:\n      tag_6\n      tag_7\n      jump\t// in\n    tag_6:\n      mload(0x40)\n      tag_8\n      swap2\n      swap1\n      tag_9\n      jump\t// in\n    tag_8:\n      mload(0x40)\n      dup1\n      swap2\n      sub\n      swap1\n      return\n        /* \"contracts/ExoSupermarche.sol\":338:538  function createProduit(string memory _libelle, int16 _prix) public {\r... */\n    tag_4:\n      tag_10\n      0x04\n      dup1\n      calldatasize\n      sub\n      dup2\n      add\n      swap1\n      tag_11\n      swap2\n      swap1\n      tag_12\n      jump\t// in\n    tag_11:\n      tag_13\n      jump\t// in\n    tag_10:\n      stop\n        /* \"contracts/ExoSupermarche.sol\":652:749  function createClient(string memory _nom) public {\r... */\n    tag_5:\n      tag_14\n      0x04\n      dup1\n      calldatasize\n      sub\n      dup2\n      add\n      swap1\n      tag_15\n      swap2\n      swap1\n      tag_16\n      jump\t// in\n    tag_15:\n      tag_17\n      jump\t// in\n    tag_14:\n      stop\n        /* \"contracts/ExoSupermarche.sol\":546:644  function getAllProducts() public view returns(produit[] memory) {\r... */\n    tag_7:\n        /* \"contracts/ExoSupermarche.sol\":592:608  produit[] memory */\n      0x60\n        /* \"contracts/ExoSupermarche.sol\":628:636  produits */\n      0x00\n        /* \"contracts/ExoSupermarche.sol\":621:636  return produits */\n      dup1\n      sload\n      dup1\n      0x20\n      mul\n      0x20\n      add\n      mload(0x40)\n      swap1\n      dup2\n      add\n      0x40\n      mstore\n      dup1\n      swap3\n      swap2\n      swap1\n      dup2\n      dup2\n      mstore\n      0x20\n      add\n      0x00\n      swap1\n    tag_19:\n      dup3\n      dup3\n      lt\n      iszero\n      tag_20\n      jumpi\n      dup4\n      dup3\n      swap1\n      0x00\n      mstore\n      keccak256(0x00, 0x20)\n      swap1\n      0x03\n      mul\n      add\n      mload(0x40)\n      dup1\n      0x60\n      add\n      0x40\n      mstore\n      swap1\n      dup2\n      0x00\n      dup3\n      add\n      sload\n      dup2\n      mstore\n      0x20\n      add\n      0x01\n      dup3\n      add\n      dup1\n      sload\n      tag_22\n      swap1\n      tag_23\n      jump\t// in\n    tag_22:\n      dup1\n      0x1f\n      add\n      0x20\n      dup1\n      swap2\n      div\n      mul\n      0x20\n      add\n      mload(0x40)\n      swap1\n      dup2\n      add\n      0x40\n      mstore\n      dup1\n      swap3\n      swap2\n      swap1\n      dup2\n      dup2\n      mstore\n      0x20\n      add\n      dup3\n      dup1\n      sload\n      tag_24\n      swap1\n      tag_23\n      jump\t// in\n    tag_24:\n      dup1\n      iszero\n      tag_25\n      jumpi\n      dup1\n      0x1f\n      lt\n      tag_26\n      jumpi\n      0x0100\n      dup1\n      dup4\n      sload\n      div\n      mul\n      dup4\n      mstore\n      swap2\n      0x20\n      add\n      swap2\n      jump(tag_25)\n    tag_26:\n      dup3\n      add\n      swap2\n      swap1\n      0x00\n      mstore\n      keccak256(0x00, 0x20)\n      swap1\n    tag_27:\n      dup2\n      sload\n      dup2\n      mstore\n      swap1\n      0x01\n      add\n      swap1\n      0x20\n      add\n      dup1\n      dup4\n      gt\n      tag_27\n      jumpi\n      dup3\n      swap1\n      sub\n      0x1f\n      and\n      dup3\n      add\n      swap2\n    tag_25:\n      pop\n      pop\n      pop\n      pop\n      pop\n      dup2\n      mstore\n      0x20\n      add\n      0x02\n      dup3\n      add\n      0x00\n      swap1\n      sload\n      swap1\n      0x0100\n      exp\n      swap1\n      div\n      0x01\n      signextend\n      0x01\n      signextend\n      0x01\n      signextend\n      dup2\n      mstore\n      pop\n      pop\n      dup2\n      mstore\n      0x20\n      add\n      swap1\n      0x01\n      add\n      swap1\n      jump(tag_19)\n    tag_20:\n      pop\n      pop\n      pop\n      pop\n      swap1\n      pop\n        /* \"contracts/ExoSupermarche.sol\":546:644  function getAllProducts() public view returns(produit[] memory) {\r... */\n      swap1\n      jump\t// out\n        /* \"contracts/ExoSupermarche.sol\":338:538  function createProduit(string memory _libelle, int16 _prix) public {\r... */\n    tag_13:\n        /* \"contracts/ExoSupermarche.sol\":416:423  uint id */\n      0x00\n        /* \"contracts/ExoSupermarche.sol\":444:445  1 */\n      0x01\n        /* \"contracts/ExoSupermarche.sol\":426:434  produits */\n      0x00\n        /* \"contracts/ExoSupermarche.sol\":426:441  produits.length */\n      dup1\n      sload\n      swap1\n      pop\n        /* \"contracts/ExoSupermarche.sol\":426:445  produits.length + 1 */\n      tag_29\n      swap2\n      swap1\n      tag_30\n      jump\t// in\n    tag_29:\n        /* \"contracts/ExoSupermarche.sol\":416:445  uint id = produits.length + 1 */\n      swap1\n      pop\n        /* \"contracts/ExoSupermarche.sol\":456:472  produit memory p */\n      0x00\n        /* \"contracts/ExoSupermarche.sol\":475:503  produit(id, _libelle, _prix) */\n      mload(0x40)\n      dup1\n      0x60\n      add\n      0x40\n      mstore\n      dup1\n        /* \"contracts/ExoSupermarche.sol\":483:485  id */\n      dup4\n        /* \"contracts/ExoSupermarche.sol\":475:503  produit(id, _libelle, _prix) */\n      dup2\n      mstore\n      0x20\n      add\n        /* \"contracts/ExoSupermarche.sol\":487:495  _libelle */\n      dup6\n        /* \"contracts/ExoSupermarche.sol\":475:503  produit(id, _libelle, _prix) */\n      dup2\n      mstore\n      0x20\n      add\n        /* \"contracts/ExoSupermarche.sol\":497:502  _prix */\n      dup5\n        /* \"contracts/ExoSupermarche.sol\":475:503  produit(id, _libelle, _prix) */\n      0x01\n      signextend\n      dup2\n      mstore\n      pop\n        /* \"contracts/ExoSupermarche.sol\":456:503  produit memory p = produit(id, _libelle, _prix) */\n      swap1\n      pop\n        /* \"contracts/ExoSupermarche.sol\":514:522  produits */\n      0x00\n        /* \"contracts/ExoSupermarche.sol\":528:529  p */\n      dup2\n        /* \"contracts/ExoSupermarche.sol\":514:530  produits.push(p) */\n      swap1\n      dup1\n      0x01\n      dup2\n      sload\n      add\n      dup1\n      dup3\n      sstore\n      dup1\n      swap2\n      pop\n      pop\n      0x01\n      swap1\n      sub\n      swap1\n      0x00\n      mstore\n      keccak256(0x00, 0x20)\n      swap1\n      0x03\n      mul\n      add\n      0x00\n      swap1\n      swap2\n      swap1\n      swap2\n      swap1\n      swap2\n      pop\n      0x00\n      dup3\n      add\n      mload\n      dup2\n      0x00\n      add\n      sstore\n      0x20\n      dup3\n      add\n      mload\n      dup2\n      0x01\n      add\n      swap1\n      dup1\n      mload\n      swap1\n      0x20\n      add\n      swap1\n      tag_32\n      swap3\n      swap2\n      swap1\n      tag_33\n      jump\t// in\n    tag_32:\n      pop\n      0x40\n      dup3\n      add\n      mload\n      dup2\n      0x02\n      add\n      exp(0x0100, 0x00)\n      dup2\n      sload\n      dup2\n      0xffff\n      mul\n      not\n      and\n      swap1\n      dup4\n      0x01\n      signextend\n      0xffff\n      and\n      mul\n      or\n      swap1\n      sstore\n      pop\n      pop\n      pop\n        /* \"contracts/ExoSupermarche.sol\":405:538  {\r... */\n      pop\n      pop\n        /* \"contracts/ExoSupermarche.sol\":338:538  function createProduit(string memory _libelle, int16 _prix) public {\r... */\n      pop\n      pop\n      jump\t// out\n        /* \"contracts/ExoSupermarche.sol\":652:749  function createClient(string memory _nom) public {\r... */\n    tag_17:\n        /* \"contracts/ExoSupermarche.sol\":712:719  uint id */\n      0x00\n        /* \"contracts/ExoSupermarche.sol\":740:741  1 */\n      0x01\n        /* \"contracts/ExoSupermarche.sol\":722:730  produits */\n      0x00\n        /* \"contracts/ExoSupermarche.sol\":722:737  produits.length */\n      dup1\n      sload\n      swap1\n      pop\n        /* \"contracts/ExoSupermarche.sol\":722:741  produits.length + 1 */\n      tag_35\n      swap2\n      swap1\n      tag_30\n      jump\t// in\n    tag_35:\n        /* \"contracts/ExoSupermarche.sol\":712:741  uint id = produits.length + 1 */\n      swap1\n      pop\n        /* \"contracts/ExoSupermarche.sol\":701:749  {\r... */\n      pop\n        /* \"contracts/ExoSupermarche.sol\":652:749  function createClient(string memory _nom) public {\r... */\n      pop\n      jump\t// out\n    tag_33:\n      dup3\n      dup1\n      sload\n      tag_36\n      swap1\n      tag_23\n      jump\t// in\n    tag_36:\n      swap1\n      0x00\n      mstore\n      keccak256(0x00, 0x20)\n      swap1\n      0x1f\n      add\n      0x20\n      swap1\n      div\n      dup2\n      add\n      swap3\n      dup3\n      tag_38\n      jumpi\n      0x00\n      dup6\n      sstore\n      jump(tag_37)\n    tag_38:\n      dup3\n      0x1f\n      lt\n      tag_39\n      jumpi\n      dup1\n      mload\n      not(0xff)\n      and\n      dup4\n      dup1\n      add\n      or\n      dup6\n      sstore\n      jump(tag_37)\n    tag_39:\n      dup3\n      dup1\n      add\n      0x01\n      add\n      dup6\n      sstore\n      dup3\n      iszero\n      tag_37\n      jumpi\n      swap2\n      dup3\n      add\n    tag_40:\n      dup3\n      dup2\n      gt\n      iszero\n      tag_41\n      jumpi\n      dup3\n      mload\n      dup3\n      sstore\n      swap2\n      0x20\n      add\n      swap2\n      swap1\n      0x01\n      add\n      swap1\n      jump(tag_40)\n    tag_41:\n    tag_37:\n      pop\n      swap1\n      pop\n      tag_42\n      swap2\n      swap1\n      tag_43\n      jump\t// in\n    tag_42:\n      pop\n      swap1\n      jump\t// out\n    tag_43:\n    tag_44:\n      dup1\n      dup3\n      gt\n      iszero\n      tag_45\n      jumpi\n      0x00\n      dup2\n      0x00\n      swap1\n      sstore\n      pop\n      0x01\n      add\n      jump(tag_44)\n    tag_45:\n      pop\n      swap1\n      jump\t// out\n        /* \"#utility.yul\":7:419   */\n    tag_47:\n        /* \"#utility.yul\":85:90   */\n      0x00\n        /* \"#utility.yul\":110:176   */\n      tag_49\n        /* \"#utility.yul\":126:175   */\n      tag_50\n        /* \"#utility.yul\":168:174   */\n      dup5\n        /* \"#utility.yul\":126:175   */\n      tag_51\n      jump\t// in\n    tag_50:\n        /* \"#utility.yul\":110:176   */\n      tag_52\n      jump\t// in\n    tag_49:\n        /* \"#utility.yul\":101:176   */\n      swap1\n      pop\n        /* \"#utility.yul\":199:205   */\n      dup3\n        /* \"#utility.yul\":192:197   */\n      dup2\n        /* \"#utility.yul\":185:206   */\n      mstore\n        /* \"#utility.yul\":237:241   */\n      0x20\n        /* \"#utility.yul\":230:235   */\n      dup2\n        /* \"#utility.yul\":226:242   */\n      add\n        /* \"#utility.yul\":275:278   */\n      dup5\n        /* \"#utility.yul\":266:272   */\n      dup5\n        /* \"#utility.yul\":261:264   */\n      dup5\n        /* \"#utility.yul\":257:273   */\n      add\n        /* \"#utility.yul\":254:279   */\n      gt\n        /* \"#utility.yul\":251:363   */\n      iszero\n      tag_53\n      jumpi\n        /* \"#utility.yul\":282:361   */\n      tag_54\n      tag_55\n      jump\t// in\n    tag_54:\n        /* \"#utility.yul\":251:363   */\n    tag_53:\n        /* \"#utility.yul\":372:413   */\n      tag_56\n        /* \"#utility.yul\":406:412   */\n      dup5\n        /* \"#utility.yul\":401:404   */\n      dup3\n        /* \"#utility.yul\":396:399   */\n      dup6\n        /* \"#utility.yul\":372:413   */\n      tag_57\n      jump\t// in\n    tag_56:\n        /* \"#utility.yul\":91:419   */\n      pop\n        /* \"#utility.yul\":7:419   */\n      swap4\n      swap3\n      pop\n      pop\n      pop\n      jump\t// out\n        /* \"#utility.yul\":425:560   */\n    tag_58:\n        /* \"#utility.yul\":469:474   */\n      0x00\n        /* \"#utility.yul\":507:513   */\n      dup2\n        /* \"#utility.yul\":494:514   */\n      calldataload\n        /* \"#utility.yul\":485:514   */\n      swap1\n      pop\n        /* \"#utility.yul\":523:554   */\n      tag_60\n        /* \"#utility.yul\":548:553   */\n      dup2\n        /* \"#utility.yul\":523:554   */\n      tag_61\n      jump\t// in\n    tag_60:\n        /* \"#utility.yul\":425:560   */\n      swap3\n      swap2\n      pop\n      pop\n      jump\t// out\n        /* \"#utility.yul\":580:920   */\n    tag_62:\n        /* \"#utility.yul\":636:641   */\n      0x00\n        /* \"#utility.yul\":685:688   */\n      dup3\n        /* \"#utility.yul\":678:682   */\n      0x1f\n        /* \"#utility.yul\":670:676   */\n      dup4\n        /* \"#utility.yul\":666:683   */\n      add\n        /* \"#utility.yul\":662:689   */\n      slt\n        /* \"#utility.yul\":652:774   */\n      tag_64\n      jumpi\n        /* \"#utility.yul\":693:772   */\n      tag_65\n      tag_66\n      jump\t// in\n    tag_65:\n        /* \"#utility.yul\":652:774   */\n    tag_64:\n        /* \"#utility.yul\":810:816   */\n      dup2\n        /* \"#utility.yul\":797:817   */\n      calldataload\n        /* \"#utility.yul\":835:914   */\n      tag_67\n        /* \"#utility.yul\":910:913   */\n      dup5\n        /* \"#utility.yul\":902:908   */\n      dup3\n        /* \"#utility.yul\":895:899   */\n      0x20\n        /* \"#utility.yul\":887:893   */\n      dup7\n        /* \"#utility.yul\":883:900   */\n      add\n        /* \"#utility.yul\":835:914   */\n      tag_47\n      jump\t// in\n    tag_67:\n        /* \"#utility.yul\":826:914   */\n      swap2\n      pop\n        /* \"#utility.yul\":642:920   */\n      pop\n        /* \"#utility.yul\":580:920   */\n      swap3\n      swap2\n      pop\n      pop\n      jump\t// out\n        /* \"#utility.yul\":926:1435   */\n    tag_16:\n        /* \"#utility.yul\":995:1001   */\n      0x00\n        /* \"#utility.yul\":1044:1046   */\n      0x20\n        /* \"#utility.yul\":1032:1041   */\n      dup3\n        /* \"#utility.yul\":1023:1030   */\n      dup5\n        /* \"#utility.yul\":1019:1042   */\n      sub\n        /* \"#utility.yul\":1015:1047   */\n      slt\n        /* \"#utility.yul\":1012:1131   */\n      iszero\n      tag_69\n      jumpi\n        /* \"#utility.yul\":1050:1129   */\n      tag_70\n      tag_71\n      jump\t// in\n    tag_70:\n        /* \"#utility.yul\":1012:1131   */\n    tag_69:\n        /* \"#utility.yul\":1198:1199   */\n      0x00\n        /* \"#utility.yul\":1187:1196   */\n      dup3\n        /* \"#utility.yul\":1183:1200   */\n      add\n        /* \"#utility.yul\":1170:1201   */\n      calldataload\n        /* \"#utility.yul\":1228:1246   */\n      0xffffffffffffffff\n        /* \"#utility.yul\":1220:1226   */\n      dup2\n        /* \"#utility.yul\":1217:1247   */\n      gt\n        /* \"#utility.yul\":1214:1331   */\n      iszero\n      tag_72\n      jumpi\n        /* \"#utility.yul\":1250:1329   */\n      tag_73\n      tag_74\n      jump\t// in\n    tag_73:\n        /* \"#utility.yul\":1214:1331   */\n    tag_72:\n        /* \"#utility.yul\":1355:1418   */\n      tag_75\n        /* \"#utility.yul\":1410:1417   */\n      dup5\n        /* \"#utility.yul\":1401:1407   */\n      dup3\n        /* \"#utility.yul\":1390:1399   */\n      dup6\n        /* \"#utility.yul\":1386:1408   */\n      add\n        /* \"#utility.yul\":1355:1418   */\n      tag_62\n      jump\t// in\n    tag_75:\n        /* \"#utility.yul\":1345:1418   */\n      swap2\n      pop\n        /* \"#utility.yul\":1141:1428   */\n      pop\n        /* \"#utility.yul\":926:1435   */\n      swap3\n      swap2\n      pop\n      pop\n      jump\t// out\n        /* \"#utility.yul\":1441:2091   */\n    tag_12:\n        /* \"#utility.yul\":1517:1523   */\n      0x00\n        /* \"#utility.yul\":1525:1531   */\n      dup1\n        /* \"#utility.yul\":1574:1576   */\n      0x40\n        /* \"#utility.yul\":1562:1571   */\n      dup4\n        /* \"#utility.yul\":1553:1560   */\n      dup6\n        /* \"#utility.yul\":1549:1572   */\n      sub\n        /* \"#utility.yul\":1545:1577   */\n      slt\n        /* \"#utility.yul\":1542:1661   */\n      iszero\n      tag_77\n      jumpi\n        /* \"#utility.yul\":1580:1659   */\n      tag_78\n      tag_71\n      jump\t// in\n    tag_78:\n        /* \"#utility.yul\":1542:1661   */\n    tag_77:\n        /* \"#utility.yul\":1728:1729   */\n      0x00\n        /* \"#utility.yul\":1717:1726   */\n      dup4\n        /* \"#utility.yul\":1713:1730   */\n      add\n        /* \"#utility.yul\":1700:1731   */\n      calldataload\n        /* \"#utility.yul\":1758:1776   */\n      0xffffffffffffffff\n        /* \"#utility.yul\":1750:1756   */\n      dup2\n        /* \"#utility.yul\":1747:1777   */\n      gt\n        /* \"#utility.yul\":1744:1861   */\n      iszero\n      tag_79\n      jumpi\n        /* \"#utility.yul\":1780:1859   */\n      tag_80\n      tag_74\n      jump\t// in\n    tag_80:\n        /* \"#utility.yul\":1744:1861   */\n    tag_79:\n        /* \"#utility.yul\":1885:1948   */\n      tag_81\n        /* \"#utility.yul\":1940:1947   */\n      dup6\n        /* \"#utility.yul\":1931:1937   */\n      dup3\n        /* \"#utility.yul\":1920:1929   */\n      dup7\n        /* \"#utility.yul\":1916:1938   */\n      add\n        /* \"#utility.yul\":1885:1948   */\n      tag_62\n      jump\t// in\n    tag_81:\n        /* \"#utility.yul\":1875:1948   */\n      swap3\n      pop\n        /* \"#utility.yul\":1671:1958   */\n      pop\n        /* \"#utility.yul\":1997:1999   */\n      0x20\n        /* \"#utility.yul\":2023:2074   */\n      tag_82\n        /* \"#utility.yul\":2066:2073   */\n      dup6\n        /* \"#utility.yul\":2057:2063   */\n      dup3\n        /* \"#utility.yul\":2046:2055   */\n      dup7\n        /* \"#utility.yul\":2042:2064   */\n      add\n        /* \"#utility.yul\":2023:2074   */\n      tag_58\n      jump\t// in\n    tag_82:\n        /* \"#utility.yul\":2013:2074   */\n      swap2\n      pop\n        /* \"#utility.yul\":1968:2084   */\n      pop\n        /* \"#utility.yul\":1441:2091   */\n      swap3\n      pop\n      swap3\n      swap1\n      pop\n      jump\t// out\n        /* \"#utility.yul\":2097:2341   */\n    tag_83:\n        /* \"#utility.yul\":2210:2220   */\n      0x00\n        /* \"#utility.yul\":2245:2335   */\n      tag_85\n        /* \"#utility.yul\":2331:2334   */\n      dup4\n        /* \"#utility.yul\":2323:2329   */\n      dup4\n        /* \"#utility.yul\":2245:2335   */\n      tag_86\n      jump\t// in\n    tag_85:\n        /* \"#utility.yul\":2231:2335   */\n      swap1\n      pop\n        /* \"#utility.yul\":2097:2341   */\n      swap3\n      swap2\n      pop\n      pop\n      jump\t// out\n        /* \"#utility.yul\":2415:3502   */\n    tag_87:\n        /* \"#utility.yul\":2578:2581   */\n      0x00\n        /* \"#utility.yul\":2607:2683   */\n      tag_89\n        /* \"#utility.yul\":2677:2682   */\n      dup3\n        /* \"#utility.yul\":2607:2683   */\n      tag_90\n      jump\t// in\n    tag_89:\n        /* \"#utility.yul\":2699:2807   */\n      tag_91\n        /* \"#utility.yul\":2800:2806   */\n      dup2\n        /* \"#utility.yul\":2795:2798   */\n      dup6\n        /* \"#utility.yul\":2699:2807   */\n      tag_92\n      jump\t// in\n    tag_91:\n        /* \"#utility.yul\":2692:2807   */\n      swap4\n      pop\n        /* \"#utility.yul\":2833:2836   */\n      dup4\n        /* \"#utility.yul\":2878:2882   */\n      0x20\n        /* \"#utility.yul\":2870:2876   */\n      dup3\n        /* \"#utility.yul\":2866:2883   */\n      mul\n        /* \"#utility.yul\":2861:2864   */\n      dup6\n        /* \"#utility.yul\":2857:2884   */\n      add\n        /* \"#utility.yul\":2908:2986   */\n      tag_93\n        /* \"#utility.yul\":2980:2985   */\n      dup6\n        /* \"#utility.yul\":2908:2986   */\n      tag_94\n      jump\t// in\n    tag_93:\n        /* \"#utility.yul\":3009:3016   */\n      dup1\n        /* \"#utility.yul\":3040:3041   */\n      0x00\n        /* \"#utility.yul\":3025:3457   */\n    tag_95:\n        /* \"#utility.yul\":3050:3056   */\n      dup6\n        /* \"#utility.yul\":3047:3048   */\n      dup2\n        /* \"#utility.yul\":3044:3057   */\n      lt\n        /* \"#utility.yul\":3025:3457   */\n      iszero\n      tag_97\n      jumpi\n        /* \"#utility.yul\":3121:3130   */\n      dup5\n        /* \"#utility.yul\":3115:3119   */\n      dup5\n        /* \"#utility.yul\":3111:3131   */\n      sub\n        /* \"#utility.yul\":3106:3109   */\n      dup10\n        /* \"#utility.yul\":3099:3132   */\n      mstore\n        /* \"#utility.yul\":3172:3178   */\n      dup2\n        /* \"#utility.yul\":3166:3179   */\n      mload\n        /* \"#utility.yul\":3200:3308   */\n      tag_98\n        /* \"#utility.yul\":3303:3307   */\n      dup6\n        /* \"#utility.yul\":3288:3301   */\n      dup3\n        /* \"#utility.yul\":3200:3308   */\n      tag_83\n      jump\t// in\n    tag_98:\n        /* \"#utility.yul\":3192:3308   */\n      swap5\n      pop\n        /* \"#utility.yul\":3331:3413   */\n      tag_99\n        /* \"#utility.yul\":3406:3412   */\n      dup4\n        /* \"#utility.yul\":3331:3413   */\n      tag_100\n      jump\t// in\n    tag_99:\n        /* \"#utility.yul\":3321:3413   */\n      swap3\n      pop\n        /* \"#utility.yul\":3442:3446   */\n      0x20\n        /* \"#utility.yul\":3437:3440   */\n      dup11\n        /* \"#utility.yul\":3433:3447   */\n      add\n        /* \"#utility.yul\":3426:3447   */\n      swap10\n      pop\n        /* \"#utility.yul\":3085:3457   */\n      pop\n        /* \"#utility.yul\":3072:3073   */\n      0x01\n        /* \"#utility.yul\":3069:3070   */\n      dup2\n        /* \"#utility.yul\":3065:3074   */\n      add\n        /* \"#utility.yul\":3060:3074   */\n      swap1\n      pop\n        /* \"#utility.yul\":3025:3457   */\n      jump(tag_95)\n    tag_97:\n        /* \"#utility.yul\":3029:3043   */\n      pop\n        /* \"#utility.yul\":3473:3477   */\n      dup3\n        /* \"#utility.yul\":3466:3477   */\n      swap8\n      pop\n        /* \"#utility.yul\":3493:3496   */\n      dup8\n        /* \"#utility.yul\":3486:3496   */\n      swap6\n      pop\n        /* \"#utility.yul\":2583:3502   */\n      pop\n      pop\n      pop\n      pop\n      pop\n        /* \"#utility.yul\":2415:3502   */\n      swap3\n      swap2\n      pop\n      pop\n      jump\t// out\n        /* \"#utility.yul\":3508:3610   */\n    tag_101:\n        /* \"#utility.yul\":3581:3603   */\n      tag_103\n        /* \"#utility.yul\":3597:3602   */\n      dup2\n        /* \"#utility.yul\":3581:3603   */\n      tag_104\n      jump\t// in\n    tag_103:\n        /* \"#utility.yul\":3576:3579   */\n      dup3\n        /* \"#utility.yul\":3569:3604   */\n      mstore\n        /* \"#utility.yul\":3508:3610   */\n      pop\n      pop\n      jump\t// out\n        /* \"#utility.yul\":3616:3960   */\n    tag_105:\n        /* \"#utility.yul\":3694:3697   */\n      0x00\n        /* \"#utility.yul\":3722:3761   */\n      tag_107\n        /* \"#utility.yul\":3755:3760   */\n      dup3\n        /* \"#utility.yul\":3722:3761   */\n      tag_108\n      jump\t// in\n    tag_107:\n        /* \"#utility.yul\":3777:3838   */\n      tag_109\n        /* \"#utility.yul\":3831:3837   */\n      dup2\n        /* \"#utility.yul\":3826:3829   */\n      dup6\n        /* \"#utility.yul\":3777:3838   */\n      tag_110\n      jump\t// in\n    tag_109:\n        /* \"#utility.yul\":3770:3838   */\n      swap4\n      pop\n        /* \"#utility.yul\":3847:3899   */\n      tag_111\n        /* \"#utility.yul\":3892:3898   */\n      dup2\n        /* \"#utility.yul\":3887:3890   */\n      dup6\n        /* \"#utility.yul\":3880:3884   */\n      0x20\n        /* \"#utility.yul\":3873:3878   */\n      dup7\n        /* \"#utility.yul\":3869:3885   */\n      add\n        /* \"#utility.yul\":3847:3899   */\n      tag_112\n      jump\t// in\n    tag_111:\n        /* \"#utility.yul\":3924:3953   */\n      tag_113\n        /* \"#utility.yul\":3946:3952   */\n      dup2\n        /* \"#utility.yul\":3924:3953   */\n      tag_114\n      jump\t// in\n    tag_113:\n        /* \"#utility.yul\":3919:3922   */\n      dup5\n        /* \"#utility.yul\":3915:3954   */\n      add\n        /* \"#utility.yul\":3908:3954   */\n      swap2\n      pop\n        /* \"#utility.yul\":3698:3960   */\n      pop\n        /* \"#utility.yul\":3616:3960   */\n      swap3\n      swap2\n      pop\n      pop\n      jump\t// out\n        /* \"#utility.yul\":4030:4794   */\n    tag_86:\n        /* \"#utility.yul\":4133:4136   */\n      0x00\n        /* \"#utility.yul\":4169:4173   */\n      0x60\n        /* \"#utility.yul\":4164:4167   */\n      dup4\n        /* \"#utility.yul\":4160:4174   */\n      add\n        /* \"#utility.yul\":4255:4259   */\n      0x00\n        /* \"#utility.yul\":4248:4253   */\n      dup4\n        /* \"#utility.yul\":4244:4260   */\n      add\n        /* \"#utility.yul\":4238:4261   */\n      mload\n        /* \"#utility.yul\":4274:4337   */\n      tag_116\n        /* \"#utility.yul\":4331:4335   */\n      0x00\n        /* \"#utility.yul\":4326:4329   */\n      dup7\n        /* \"#utility.yul\":4322:4336   */\n      add\n        /* \"#utility.yul\":4308:4320   */\n      dup3\n        /* \"#utility.yul\":4274:4337   */\n      tag_117\n      jump\t// in\n    tag_116:\n        /* \"#utility.yul\":4184:4347   */\n      pop\n        /* \"#utility.yul\":4433:4437   */\n      0x20\n        /* \"#utility.yul\":4426:4431   */\n      dup4\n        /* \"#utility.yul\":4422:4438   */\n      add\n        /* \"#utility.yul\":4416:4439   */\n      mload\n        /* \"#utility.yul\":4486:4489   */\n      dup5\n        /* \"#utility.yul\":4480:4484   */\n      dup3\n        /* \"#utility.yul\":4476:4490   */\n      sub\n        /* \"#utility.yul\":4469:4473   */\n      0x20\n        /* \"#utility.yul\":4464:4467   */\n      dup7\n        /* \"#utility.yul\":4460:4474   */\n      add\n        /* \"#utility.yul\":4453:4491   */\n      mstore\n        /* \"#utility.yul\":4512:4585   */\n      tag_118\n        /* \"#utility.yul\":4580:4584   */\n      dup3\n        /* \"#utility.yul\":4566:4578   */\n      dup3\n        /* \"#utility.yul\":4512:4585   */\n      tag_105\n      jump\t// in\n    tag_118:\n        /* \"#utility.yul\":4504:4585   */\n      swap2\n      pop\n        /* \"#utility.yul\":4357:4596   */\n      pop\n        /* \"#utility.yul\":4679:4683   */\n      0x40\n        /* \"#utility.yul\":4672:4677   */\n      dup4\n        /* \"#utility.yul\":4668:4684   */\n      add\n        /* \"#utility.yul\":4662:4685   */\n      mload\n        /* \"#utility.yul\":4698:4757   */\n      tag_119\n        /* \"#utility.yul\":4751:4755   */\n      0x40\n        /* \"#utility.yul\":4746:4749   */\n      dup7\n        /* \"#utility.yul\":4742:4756   */\n      add\n        /* \"#utility.yul\":4728:4740   */\n      dup3\n        /* \"#utility.yul\":4698:4757   */\n      tag_101\n      jump\t// in\n    tag_119:\n        /* \"#utility.yul\":4606:4767   */\n      pop\n        /* \"#utility.yul\":4784:4788   */\n      dup1\n        /* \"#utility.yul\":4777:4788   */\n      swap2\n      pop\n        /* \"#utility.yul\":4138:4794   */\n      pop\n        /* \"#utility.yul\":4030:4794   */\n      swap3\n      swap2\n      pop\n      pop\n      jump\t// out\n        /* \"#utility.yul\":4800:4908   */\n    tag_117:\n        /* \"#utility.yul\":4877:4901   */\n      tag_121\n        /* \"#utility.yul\":4895:4900   */\n      dup2\n        /* \"#utility.yul\":4877:4901   */\n      tag_122\n      jump\t// in\n    tag_121:\n        /* \"#utility.yul\":4872:4875   */\n      dup3\n        /* \"#utility.yul\":4865:4902   */\n      mstore\n        /* \"#utility.yul\":4800:4908   */\n      pop\n      pop\n      jump\t// out\n        /* \"#utility.yul\":4914:5375   */\n    tag_9:\n        /* \"#utility.yul\":5101:5105   */\n      0x00\n        /* \"#utility.yul\":5139:5141   */\n      0x20\n        /* \"#utility.yul\":5128:5137   */\n      dup3\n        /* \"#utility.yul\":5124:5142   */\n      add\n        /* \"#utility.yul\":5116:5142   */\n      swap1\n      pop\n        /* \"#utility.yul\":5188:5197   */\n      dup2\n        /* \"#utility.yul\":5182:5186   */\n      dup2\n        /* \"#utility.yul\":5178:5198   */\n      sub\n        /* \"#utility.yul\":5174:5175   */\n      0x00\n        /* \"#utility.yul\":5163:5172   */\n      dup4\n        /* \"#utility.yul\":5159:5176   */\n      add\n        /* \"#utility.yul\":5152:5199   */\n      mstore\n        /* \"#utility.yul\":5216:5368   */\n      tag_124\n        /* \"#utility.yul\":5363:5367   */\n      dup2\n        /* \"#utility.yul\":5354:5360   */\n      dup5\n        /* \"#utility.yul\":5216:5368   */\n      tag_87\n      jump\t// in\n    tag_124:\n        /* \"#utility.yul\":5208:5368   */\n      swap1\n      pop\n        /* \"#utility.yul\":4914:5375   */\n      swap3\n      swap2\n      pop\n      pop\n      jump\t// out\n        /* \"#utility.yul\":5381:5510   */\n    tag_52:\n        /* \"#utility.yul\":5415:5421   */\n      0x00\n        /* \"#utility.yul\":5442:5462   */\n      tag_126\n      tag_127\n      jump\t// in\n    tag_126:\n        /* \"#utility.yul\":5432:5462   */\n      swap1\n      pop\n        /* \"#utility.yul\":5471:5504   */\n      tag_128\n        /* \"#utility.yul\":5499:5503   */\n      dup3\n        /* \"#utility.yul\":5491:5497   */\n      dup3\n        /* \"#utility.yul\":5471:5504   */\n      tag_129\n      jump\t// in\n    tag_128:\n        /* \"#utility.yul\":5381:5510   */\n      swap2\n      swap1\n      pop\n      jump\t// out\n        /* \"#utility.yul\":5516:5591   */\n    tag_127:\n        /* \"#utility.yul\":5549:5555   */\n      0x00\n        /* \"#utility.yul\":5582:5584   */\n      0x40\n        /* \"#utility.yul\":5576:5585   */\n      mload\n        /* \"#utility.yul\":5566:5585   */\n      swap1\n      pop\n        /* \"#utility.yul\":5516:5591   */\n      swap1\n      jump\t// out\n        /* \"#utility.yul\":5597:5905   */\n    tag_51:\n        /* \"#utility.yul\":5659:5663   */\n      0x00\n        /* \"#utility.yul\":5749:5767   */\n      0xffffffffffffffff\n        /* \"#utility.yul\":5741:5747   */\n      dup3\n        /* \"#utility.yul\":5738:5768   */\n      gt\n        /* \"#utility.yul\":5735:5791   */\n      iszero\n      tag_132\n      jumpi\n        /* \"#utility.yul\":5771:5789   */\n      tag_133\n      tag_134\n      jump\t// in\n    tag_133:\n        /* \"#utility.yul\":5735:5791   */\n    tag_132:\n        /* \"#utility.yul\":5809:5838   */\n      tag_135\n        /* \"#utility.yul\":5831:5837   */\n      dup3\n        /* \"#utility.yul\":5809:5838   */\n      tag_114\n      jump\t// in\n    tag_135:\n        /* \"#utility.yul\":5801:5838   */\n      swap1\n      pop\n        /* \"#utility.yul\":5893:5897   */\n      0x20\n        /* \"#utility.yul\":5887:5891   */\n      dup2\n        /* \"#utility.yul\":5883:5898   */\n      add\n        /* \"#utility.yul\":5875:5898   */\n      swap1\n      pop\n        /* \"#utility.yul\":5597:5905   */\n      swap2\n      swap1\n      pop\n      jump\t// out\n        /* \"#utility.yul\":5911:6065   */\n    tag_94:\n        /* \"#utility.yul\":6000:6004   */\n      0x00\n        /* \"#utility.yul\":6023:6026   */\n      dup2\n        /* \"#utility.yul\":6015:6026   */\n      swap1\n      pop\n        /* \"#utility.yul\":6053:6057   */\n      0x20\n        /* \"#utility.yul\":6048:6051   */\n      dup3\n        /* \"#utility.yul\":6044:6058   */\n      add\n        /* \"#utility.yul\":6036:6058   */\n      swap1\n      pop\n        /* \"#utility.yul\":5911:6065   */\n      swap2\n      swap1\n      pop\n      jump\t// out\n        /* \"#utility.yul\":6071:6207   */\n    tag_90:\n        /* \"#utility.yul\":6160:6166   */\n      0x00\n        /* \"#utility.yul\":6194:6199   */\n      dup2\n        /* \"#utility.yul\":6188:6200   */\n      mload\n        /* \"#utility.yul\":6178:6200   */\n      swap1\n      pop\n        /* \"#utility.yul\":6071:6207   */\n      swap2\n      swap1\n      pop\n      jump\t// out\n        /* \"#utility.yul\":6213:6312   */\n    tag_108:\n        /* \"#utility.yul\":6265:6271   */\n      0x00\n        /* \"#utility.yul\":6299:6304   */\n      dup2\n        /* \"#utility.yul\":6293:6305   */\n      mload\n        /* \"#utility.yul\":6283:6305   */\n      swap1\n      pop\n        /* \"#utility.yul\":6213:6312   */\n      swap2\n      swap1\n      pop\n      jump\t// out\n        /* \"#utility.yul\":6318:6453   */\n    tag_100:\n        /* \"#utility.yul\":6410:6414   */\n      0x00\n        /* \"#utility.yul\":6442:6446   */\n      0x20\n        /* \"#utility.yul\":6437:6440   */\n      dup3\n        /* \"#utility.yul\":6433:6447   */\n      add\n        /* \"#utility.yul\":6425:6447   */\n      swap1\n      pop\n        /* \"#utility.yul\":6318:6453   */\n      swap2\n      swap1\n      pop\n      jump\t// out\n        /* \"#utility.yul\":6459:6665   */\n    tag_92:\n        /* \"#utility.yul\":6580:6591   */\n      0x00\n        /* \"#utility.yul\":6614:6620   */\n      dup3\n        /* \"#utility.yul\":6609:6612   */\n      dup3\n        /* \"#utility.yul\":6602:6621   */\n      mstore\n        /* \"#utility.yul\":6654:6658   */\n      0x20\n        /* \"#utility.yul\":6649:6652   */\n      dup3\n        /* \"#utility.yul\":6645:6659   */\n      add\n        /* \"#utility.yul\":6630:6659   */\n      swap1\n      pop\n        /* \"#utility.yul\":6459:6665   */\n      swap3\n      swap2\n      pop\n      pop\n      jump\t// out\n        /* \"#utility.yul\":6671:6830   */\n    tag_110:\n        /* \"#utility.yul\":6745:6756   */\n      0x00\n        /* \"#utility.yul\":6779:6785   */\n      dup3\n        /* \"#utility.yul\":6774:6777   */\n      dup3\n        /* \"#utility.yul\":6767:6786   */\n      mstore\n        /* \"#utility.yul\":6819:6823   */\n      0x20\n        /* \"#utility.yul\":6814:6817   */\n      dup3\n        /* \"#utility.yul\":6810:6824   */\n      add\n        /* \"#utility.yul\":6795:6824   */\n      swap1\n      pop\n        /* \"#utility.yul\":6671:6830   */\n      swap3\n      swap2\n      pop\n      pop\n      jump\t// out\n        /* \"#utility.yul\":6836:7141   */\n    tag_30:\n        /* \"#utility.yul\":6876:6879   */\n      0x00\n        /* \"#utility.yul\":6895:6915   */\n      tag_143\n        /* \"#utility.yul\":6913:6914   */\n      dup3\n        /* \"#utility.yul\":6895:6915   */\n      tag_122\n      jump\t// in\n    tag_143:\n        /* \"#utility.yul\":6890:6915   */\n      swap2\n      pop\n        /* \"#utility.yul\":6929:6949   */\n      tag_144\n        /* \"#utility.yul\":6947:6948   */\n      dup4\n        /* \"#utility.yul\":6929:6949   */\n      tag_122\n      jump\t// in\n    tag_144:\n        /* \"#utility.yul\":6924:6949   */\n      swap3\n      pop\n        /* \"#utility.yul\":7083:7084   */\n      dup3\n        /* \"#utility.yul\":7015:7081   */\n      0xffffffffffffffffffffffffffffffffffffffffffffffffffffffffffffffff\n        /* \"#utility.yul\":7011:7085   */\n      sub\n        /* \"#utility.yul\":7008:7009   */\n      dup3\n        /* \"#utility.yul\":7005:7086   */\n      gt\n        /* \"#utility.yul\":7002:7109   */\n      iszero\n      tag_145\n      jumpi\n        /* \"#utility.yul\":7089:7107   */\n      tag_146\n      tag_147\n      jump\t// in\n    tag_146:\n        /* \"#utility.yul\":7002:7109   */\n    tag_145:\n        /* \"#utility.yul\":7133:7134   */\n      dup3\n        /* \"#utility.yul\":7130:7131   */\n      dup3\n        /* \"#utility.yul\":7126:7135   */\n      add\n        /* \"#utility.yul\":7119:7135   */\n      swap1\n      pop\n        /* \"#utility.yul\":6836:7141   */\n      swap3\n      swap2\n      pop\n      pop\n      jump\t// out\n        /* \"#utility.yul\":7147:7237   */\n    tag_104:\n        /* \"#utility.yul\":7182:7189   */\n      0x00\n        /* \"#utility.yul\":7225:7230   */\n      dup2\n        /* \"#utility.yul\":7222:7223   */\n      0x01\n        /* \"#utility.yul\":7211:7231   */\n      signextend\n        /* \"#utility.yul\":7200:7231   */\n      swap1\n      pop\n        /* \"#utility.yul\":7147:7237   */\n      swap2\n      swap1\n      pop\n      jump\t// out\n        /* \"#utility.yul\":7243:7320   */\n    tag_122:\n        /* \"#utility.yul\":7280:7287   */\n      0x00\n        /* \"#utility.yul\":7309:7314   */\n      dup2\n        /* \"#utility.yul\":7298:7314   */\n      swap1\n      pop\n        /* \"#utility.yul\":7243:7320   */\n      swap2\n      swap1\n      pop\n      jump\t// out\n        /* \"#utility.yul\":7326:7480   */\n    tag_57:\n        /* \"#utility.yul\":7410:7416   */\n      dup3\n        /* \"#utility.yul\":7405:7408   */\n      dup2\n        /* \"#utility.yul\":7400:7403   */\n      dup4\n        /* \"#utility.yul\":7387:7417   */\n      calldatacopy\n        /* \"#utility.yul\":7472:7473   */\n      0x00\n        /* \"#utility.yul\":7463:7469   */\n      dup4\n        /* \"#utility.yul\":7458:7461   */\n      dup4\n        /* \"#utility.yul\":7454:7470   */\n      add\n        /* \"#utility.yul\":7447:7474   */\n      mstore\n        /* \"#utility.yul\":7326:7480   */\n      pop\n      pop\n      pop\n      jump\t// out\n        /* \"#utility.yul\":7486:7793   */\n    tag_112:\n        /* \"#utility.yul\":7554:7555   */\n      0x00\n        /* \"#utility.yul\":7564:7677   */\n    tag_152:\n        /* \"#utility.yul\":7578:7584   */\n      dup4\n        /* \"#utility.yul\":7575:7576   */\n      dup2\n        /* \"#utility.yul\":7572:7585   */\n      lt\n        /* \"#utility.yul\":7564:7677   */\n      iszero\n      tag_154\n      jumpi\n        /* \"#utility.yul\":7663:7664   */\n      dup1\n        /* \"#utility.yul\":7658:7661   */\n      dup3\n        /* \"#utility.yul\":7654:7665   */\n      add\n        /* \"#utility.yul\":7648:7666   */\n      mload\n        /* \"#utility.yul\":7644:7645   */\n      dup2\n        /* \"#utility.yul\":7639:7642   */\n      dup5\n        /* \"#utility.yul\":7635:7646   */\n      add\n        /* \"#utility.yul\":7628:7667   */\n      mstore\n        /* \"#utility.yul\":7600:7602   */\n      0x20\n        /* \"#utility.yul\":7597:7598   */\n      dup2\n        /* \"#utility.yul\":7593:7603   */\n      add\n        /* \"#utility.yul\":7588:7603   */\n      swap1\n      pop\n        /* \"#utility.yul\":7564:7677   */\n      jump(tag_152)\n    tag_154:\n        /* \"#utility.yul\":7695:7701   */\n      dup4\n        /* \"#utility.yul\":7692:7693   */\n      dup2\n        /* \"#utility.yul\":7689:7702   */\n      gt\n        /* \"#utility.yul\":7686:7787   */\n      iszero\n      tag_155\n      jumpi\n        /* \"#utility.yul\":7775:7776   */\n      0x00\n        /* \"#utility.yul\":7766:7772   */\n      dup5\n        /* \"#utility.yul\":7761:7764   */\n      dup5\n        /* \"#utility.yul\":7757:7773   */\n      add\n        /* \"#utility.yul\":7750:7777   */\n      mstore\n        /* \"#utility.yul\":7686:7787   */\n    tag_155:\n        /* \"#utility.yul\":7535:7793   */\n      pop\n        /* \"#utility.yul\":7486:7793   */\n      pop\n      pop\n      pop\n      jump\t// out\n        /* \"#utility.yul\":7799:8119   */\n    tag_23:\n        /* \"#utility.yul\":7843:7849   */\n      0x00\n        /* \"#utility.yul\":7880:7881   */\n      0x02\n        /* \"#utility.yul\":7874:7878   */\n      dup3\n        /* \"#utility.yul\":7870:7882   */\n      div\n        /* \"#utility.yul\":7860:7882   */\n      swap1\n      pop\n        /* \"#utility.yul\":7927:7928   */\n      0x01\n        /* \"#utility.yul\":7921:7925   */\n      dup3\n        /* \"#utility.yul\":7917:7929   */\n      and\n        /* \"#utility.yul\":7948:7966   */\n      dup1\n        /* \"#utility.yul\":7938:8019   */\n      tag_157\n      jumpi\n        /* \"#utility.yul\":8004:8008   */\n      0x7f\n        /* \"#utility.yul\":7996:8002   */\n      dup3\n        /* \"#utility.yul\":7992:8009   */\n      and\n        /* \"#utility.yul\":7982:8009   */\n      swap2\n      pop\n        /* \"#utility.yul\":7938:8019   */\n    tag_157:\n        /* \"#utility.yul\":8066:8068   */\n      0x20\n        /* \"#utility.yul\":8058:8064   */\n      dup3\n        /* \"#utility.yul\":8055:8069   */\n      lt\n        /* \"#utility.yul\":8035:8053   */\n      dup2\n        /* \"#utility.yul\":8032:8070   */\n      eq\n        /* \"#utility.yul\":8029:8113   */\n      iszero\n      tag_158\n      jumpi\n        /* \"#utility.yul\":8085:8103   */\n      tag_159\n      tag_160\n      jump\t// in\n    tag_159:\n        /* \"#utility.yul\":8029:8113   */\n    tag_158:\n        /* \"#utility.yul\":7850:8119   */\n      pop\n        /* \"#utility.yul\":7799:8119   */\n      swap2\n      swap1\n      pop\n      jump\t// out\n        /* \"#utility.yul\":8125:8406   */\n    tag_129:\n        /* \"#utility.yul\":8208:8235   */\n      tag_162\n        /* \"#utility.yul\":8230:8234   */\n      dup3\n        /* \"#utility.yul\":8208:8235   */\n      tag_114\n      jump\t// in\n    tag_162:\n        /* \"#utility.yul\":8200:8206   */\n      dup2\n        /* \"#utility.yul\":8196:8236   */\n      add\n        /* \"#utility.yul\":8338:8344   */\n      dup2\n        /* \"#utility.yul\":8326:8336   */\n      dup2\n        /* \"#utility.yul\":8323:8345   */\n      lt\n        /* \"#utility.yul\":8302:8320   */\n      0xffffffffffffffff\n        /* \"#utility.yul\":8290:8300   */\n      dup3\n        /* \"#utility.yul\":8287:8321   */\n      gt\n        /* \"#utility.yul\":8284:8346   */\n      or\n        /* \"#utility.yul\":8281:8369   */\n      iszero\n      tag_163\n      jumpi\n        /* \"#utility.yul\":8349:8367   */\n      tag_164\n      tag_134\n      jump\t// in\n    tag_164:\n        /* \"#utility.yul\":8281:8369   */\n    tag_163:\n        /* \"#utility.yul\":8389:8399   */\n      dup1\n        /* \"#utility.yul\":8385:8387   */\n      0x40\n        /* \"#utility.yul\":8378:8400   */\n      mstore\n        /* \"#utility.yul\":8168:8406   */\n      pop\n        /* \"#utility.yul\":8125:8406   */\n      pop\n      pop\n      jump\t// out\n        /* \"#utility.yul\":8412:8592   */\n    tag_147:\n        /* \"#utility.yul\":8460:8537   */\n      0x4e487b7100000000000000000000000000000000000000000000000000000000\n        /* \"#utility.yul\":8457:8458   */\n      0x00\n        /* \"#utility.yul\":8450:8538   */\n      mstore\n        /* \"#utility.yul\":8557:8561   */\n      0x11\n        /* \"#utility.yul\":8554:8555   */\n      0x04\n        /* \"#utility.yul\":8547:8562   */\n      mstore\n        /* \"#utility.yul\":8581:8585   */\n      0x24\n        /* \"#utility.yul\":8578:8579   */\n      0x00\n        /* \"#utility.yul\":8571:8586   */\n      revert\n        /* \"#utility.yul\":8598:8778   */\n    tag_160:\n        /* \"#utility.yul\":8646:8723   */\n      0x4e487b7100000000000000000000000000000000000000000000000000000000\n        /* \"#utility.yul\":8643:8644   */\n      0x00\n        /* \"#utility.yul\":8636:8724   */\n      mstore\n        /* \"#utility.yul\":8743:8747   */\n      0x22\n        /* \"#utility.yul\":8740:8741   */\n      0x04\n        /* \"#utility.yul\":8733:8748   */\n      mstore\n        /* \"#utility.yul\":8767:8771   */\n      0x24\n        /* \"#utility.yul\":8764:8765   */\n      0x00\n        /* \"#utility.yul\":8757:8772   */\n      revert\n        /* \"#utility.yul\":8784:8964   */\n    tag_134:\n        /* \"#utility.yul\":8832:8909   */\n      0x4e487b7100000000000000000000000000000000000000000000000000000000\n        /* \"#utility.yul\":8829:8830   */\n      0x00\n        /* \"#utility.yul\":8822:8910   */\n      mstore\n        /* \"#utility.yul\":8929:8933   */\n      0x41\n        /* \"#utility.yul\":8926:8927   */\n      0x04\n        /* \"#utility.yul\":8919:8934   */\n      mstore\n        /* \"#utility.yul\":8953:8957   */\n      0x24\n        /* \"#utility.yul\":8950:8951   */\n      0x00\n        /* \"#utility.yul\":8943:8958   */\n      revert\n        /* \"#utility.yul\":8970:9087   */\n    tag_66:\n        /* \"#utility.yul\":9079:9080   */\n      0x00\n        /* \"#utility.yul\":9076:9077   */\n      dup1\n        /* \"#utility.yul\":9069:9081   */\n      revert\n        /* \"#utility.yul\":9093:9210   */\n    tag_55:\n        /* \"#utility.yul\":9202:9203   */\n      0x00\n        /* \"#utility.yul\":9199:9200   */\n      dup1\n        /* \"#utility.yul\":9192:9204   */\n      revert\n        /* \"#utility.yul\":9216:9333   */\n    tag_74:\n        /* \"#utility.yul\":9325:9326   */\n      0x00\n        /* \"#utility.yul\":9322:9323   */\n      dup1\n        /* \"#utility.yul\":9315:9327   */\n      revert\n        /* \"#utility.yul\":9339:9456   */\n    tag_71:\n        /* \"#utility.yul\":9448:9449   */\n      0x00\n        /* \"#utility.yul\":9445:9446   */\n      dup1\n        /* \"#utility.yul\":9438:9450   */\n      revert\n        /* \"#utility.yul\":9462:9564   */\n    tag_114:\n        /* \"#utility.yul\":9503:9509   */\n      0x00\n        /* \"#utility.yul\":9554:9556   */\n      0x1f\n        /* \"#utility.yul\":9550:9557   */\n      not\n        /* \"#utility.yul\":9545:9547   */\n      0x1f\n        /* \"#utility.yul\":9538:9543   */\n      dup4\n        /* \"#utility.yul\":9534:9548   */\n      add\n        /* \"#utility.yul\":9530:9558   */\n      and\n        /* \"#utility.yul\":9520:9558   */\n      swap1\n      pop\n        /* \"#utility.yul\":9462:9564   */\n      swap2\n      swap1\n      pop\n      jump\t// out\n        /* \"#utility.yul\":9570:9688   */\n    tag_61:\n        /* \"#utility.yul\":9641:9663   */\n      tag_174\n        /* \"#utility.yul\":9657:9662   */\n      dup2\n        /* \"#utility.yul\":9641:9663   */\n      tag_104\n      jump\t// in\n    tag_174:\n        /* \"#utility.yul\":9634:9639   */\n      dup2\n        /* \"#utility.yul\":9631:9664   */\n      eq\n        /* \"#utility.yul\":9621:9682   */\n      tag_175\n      jumpi\n        /* \"#utility.yul\":9678:9679   */\n      0x00\n        /* \"#utility.yul\":9675:9676   */\n      dup1\n        /* \"#utility.yul\":9668:9680   */\n      revert\n        /* \"#utility.yul\":9621:9682   */\n    tag_175:\n        /* \"#utility.yul\":9570:9688   */\n      pop\n      jump\t// out\n\n    auxdata: 0xa26469706673582212204fb0e0d5831ccccb970031799228815150447779a658de023cc1145955f263dc64736f6c63430008070033\n}\n",
				"bytecode": {
					"linkReferences": {},
					"object": "608060405234801561001057600080fd5b50610862806100206000396000f3fe608060405234801561001057600080fd5b50600436106100415760003560e01c806302ee3a521461004657806351401eef14610064578063e88e9f0f14610080575b600080fd5b61004e61009c565b60405161005b9190610584565b60405180910390f35b61007e600480360381019061007991906103f8565b6101b4565b005b61009a600480360381019061009591906103af565b61026d565b005b60606000805480602002602001604051908101604052809291908181526020016000905b828210156101ab5783829060005260206000209060030201604051806060016040529081600082015481526020016001820180546100fd90610700565b80601f016020809104026020016040519081016040528092919081815260200182805461012990610700565b80156101765780601f1061014b57610100808354040283529160200191610176565b820191906000526020600020905b81548152906001019060200180831161015957829003601f168201915b505050505081526020016002820160009054906101000a900460010b60010b60010b81525050815260200190600101906100c0565b50505050905090565b600060016000805490506101c89190610651565b9050600060405180606001604052808381526020018581526020018460010b8152509050600081908060018154018082558091505060019003906000526020600020906003020160009091909190915060008201518160000155602082015181600101908051906020019061023e929190610287565b5060408201518160020160006101000a81548161ffff021916908360010b61ffff160217905550505050505050565b600060016000805490506102819190610651565b90505050565b82805461029390610700565b90600052602060002090601f0160209004810192826102b557600085556102fc565b82601f106102ce57805160ff19168380011785556102fc565b828001600101855582156102fc579182015b828111156102fb5782518255916020019190600101906102e0565b5b509050610309919061030d565b5090565b5b8082111561032657600081600090555060010161030e565b5090565b600061033d610338846105cb565b6105a6565b905082815260208101848484011115610359576103586107f5565b5b6103648482856106be565b509392505050565b60008135905061037b81610815565b92915050565b600082601f830112610396576103956107f0565b5b81356103a684826020860161032a565b91505092915050565b6000602082840312156103c5576103c46107ff565b5b600082013567ffffffffffffffff8111156103e3576103e26107fa565b5b6103ef84828501610381565b91505092915050565b6000806040838503121561040f5761040e6107ff565b5b600083013567ffffffffffffffff81111561042d5761042c6107fa565b5b61043985828601610381565b925050602061044a8582860161036c565b9150509250929050565b60006104608383610525565b905092915050565b60006104738261060c565b61047d818561062f565b93508360208202850161048f856105fc565b8060005b858110156104cb57848403895281516104ac8582610454565b94506104b783610622565b925060208a01995050600181019050610493565b50829750879550505050505092915050565b6104e6816106a7565b82525050565b60006104f782610617565b6105018185610640565b93506105118185602086016106cd565b61051a81610804565b840191505092915050565b600060608301600083015161053d6000860182610575565b506020830151848203602086015261055582826104ec565b915050604083015161056a60408601826104dd565b508091505092915050565b61057e816106b4565b82525050565b6000602082019050818103600083015261059e8184610468565b905092915050565b60006105b06105c1565b90506105bc8282610732565b919050565b6000604051905090565b600067ffffffffffffffff8211156105e6576105e56107c1565b5b6105ef82610804565b9050602081019050919050565b6000819050602082019050919050565b600081519050919050565b600081519050919050565b6000602082019050919050565b600082825260208201905092915050565b600082825260208201905092915050565b600061065c826106b4565b9150610667836106b4565b9250827fffffffffffffffffffffffffffffffffffffffffffffffffffffffffffffffff0382111561069c5761069b610763565b5b828201905092915050565b60008160010b9050919050565b6000819050919050565b82818337600083830152505050565b60005b838110156106eb5780820151818401526020810190506106d0565b838111156106fa576000848401525b50505050565b6000600282049050600182168061071857607f821691505b6020821081141561072c5761072b610792565b5b50919050565b61073b82610804565b810181811067ffffffffffffffff8211171561075a576107596107c1565b5b80604052505050565b7f4e487b7100000000000000000000000000000000000000000000000000000000600052601160045260246000fd5b7f4e487b7100000000000000000000000000000000000000000000000000000000600052602260045260246000fd5b7f4e487b7100000000000000000000000000000000000000000000000000000000600052604160045260246000fd5b600080fd5b600080fd5b600080fd5b600080fd5b6000601f19601f8301169050919050565b61081e816106a7565b811461082957600080fd5b5056fea26469706673582212204fb0e0d5831ccccb970031799228815150447779a658de023cc1145955f263dc64736f6c63430008070033",
					"opcodes": "PUSH1 0x80 PUSH1 0x40 MSTORE CALLVALUE DUP1 ISZERO PUSH2 0x10 JUMPI PUSH1 0x0 DUP1 REVERT JUMPDEST POP PUSH2 0x862 DUP1 PUSH2 0x20 PUSH1 0x0 CODECOPY PUSH1 0x0 RETURN INVALID PUSH1 0x80 PUSH1 0x40 MSTORE CALLVALUE DUP1 ISZERO PUSH2 0x10 JUMPI PUSH1 0x0 DUP1 REVERT JUMPDEST POP PUSH1 0x4 CALLDATASIZE LT PUSH2 0x41 JUMPI PUSH1 0x0 CALLDATALOAD PUSH1 0xE0 SHR DUP1 PUSH4 0x2EE3A52 EQ PUSH2 0x46 JUMPI DUP1 PUSH4 0x51401EEF EQ PUSH2 0x64 JUMPI DUP1 PUSH4 0xE88E9F0F EQ PUSH2 0x80 JUMPI JUMPDEST PUSH1 0x0 DUP1 REVERT JUMPDEST PUSH2 0x4E PUSH2 0x9C JUMP JUMPDEST PUSH1 0x40 MLOAD PUSH2 0x5B SWAP2 SWAP1 PUSH2 0x584 JUMP JUMPDEST PUSH1 0x40 MLOAD DUP1 SWAP2 SUB SWAP1 RETURN JUMPDEST PUSH2 0x7E PUSH1 0x4 DUP1 CALLDATASIZE SUB DUP2 ADD SWAP1 PUSH2 0x79 SWAP2 SWAP1 PUSH2 0x3F8 JUMP JUMPDEST PUSH2 0x1B4 JUMP JUMPDEST STOP JUMPDEST PUSH2 0x9A PUSH1 0x4 DUP1 CALLDATASIZE SUB DUP2 ADD SWAP1 PUSH2 0x95 SWAP2 SWAP1 PUSH2 0x3AF JUMP JUMPDEST PUSH2 0x26D JUMP JUMPDEST STOP JUMPDEST PUSH1 0x60 PUSH1 0x0 DUP1 SLOAD DUP1 PUSH1 0x20 MUL PUSH1 0x20 ADD PUSH1 0x40 MLOAD SWAP1 DUP2 ADD PUSH1 0x40 MSTORE DUP1 SWAP3 SWAP2 SWAP1 DUP2 DUP2 MSTORE PUSH1 0x20 ADD PUSH1 0x0 SWAP1 JUMPDEST DUP3 DUP3 LT ISZERO PUSH2 0x1AB JUMPI DUP4 DUP3 SWAP1 PUSH1 0x0 MSTORE PUSH1 0x20 PUSH1 0x0 KECCAK256 SWAP1 PUSH1 0x3 MUL ADD PUSH1 0x40 MLOAD DUP1 PUSH1 0x60 ADD PUSH1 0x40 MSTORE SWAP1 DUP2 PUSH1 0x0 DUP3 ADD SLOAD DUP2 MSTORE PUSH1 0x20 ADD PUSH1 0x1 DUP3 ADD DUP1 SLOAD PUSH2 0xFD SWAP1 PUSH2 0x700 JUMP JUMPDEST DUP1 PUSH1 0x1F ADD PUSH1 0x20 DUP1 SWAP2 DIV MUL PUSH1 0x20 ADD PUSH1 0x40 MLOAD SWAP1 DUP2 ADD PUSH1 0x40 MSTORE DUP1 SWAP3 SWAP2 SWAP1 DUP2 DUP2 MSTORE PUSH1 0x20 ADD DUP3 DUP1 SLOAD PUSH2 0x129 SWAP1 PUSH2 0x700 JUMP JUMPDEST DUP1 ISZERO PUSH2 0x176 JUMPI DUP1 PUSH1 0x1F LT PUSH2 0x14B JUMPI PUSH2 0x100 DUP1 DUP4 SLOAD DIV MUL DUP4 MSTORE SWAP2 PUSH1 0x20 ADD SWAP2 PUSH2 0x176 JUMP JUMPDEST DUP3 ADD SWAP2 SWAP1 PUSH1 0x0 MSTORE PUSH1 0x20 PUSH1 0x0 KECCAK256 SWAP1 JUMPDEST DUP2 SLOAD DUP2 MSTORE SWAP1 PUSH1 0x1 ADD SWAP1 PUSH1 0x20 ADD DUP1 DUP4 GT PUSH2 0x159 JUMPI DUP3 SWAP1 SUB PUSH1 0x1F AND DUP3 ADD SWAP2 JUMPDEST POP POP POP POP POP DUP2 MSTORE PUSH1 0x20 ADD PUSH1 0x2 DUP3 ADD PUSH1 0x0 SWAP1 SLOAD SWAP1 PUSH2 0x100 EXP SWAP1 DIV PUSH1 0x1 SIGNEXTEND PUSH1 0x1 SIGNEXTEND PUSH1 0x1 SIGNEXTEND DUP2 MSTORE POP POP DUP2 MSTORE PUSH1 0x20 ADD SWAP1 PUSH1 0x1 ADD SWAP1 PUSH2 0xC0 JUMP JUMPDEST POP POP POP POP SWAP1 POP SWAP1 JUMP JUMPDEST PUSH1 0x0 PUSH1 0x1 PUSH1 0x0 DUP1 SLOAD SWAP1 POP PUSH2 0x1C8 SWAP2 SWAP1 PUSH2 0x651 JUMP JUMPDEST SWAP1 POP PUSH1 0x0 PUSH1 0x40 MLOAD DUP1 PUSH1 0x60 ADD PUSH1 0x40 MSTORE DUP1 DUP4 DUP2 MSTORE PUSH1 0x20 ADD DUP6 DUP2 MSTORE PUSH1 0x20 ADD DUP5 PUSH1 0x1 SIGNEXTEND DUP2 MSTORE POP SWAP1 POP PUSH1 0x0 DUP2 SWAP1 DUP1 PUSH1 0x1 DUP2 SLOAD ADD DUP1 DUP3 SSTORE DUP1 SWAP2 POP POP PUSH1 0x1 SWAP1 SUB SWAP1 PUSH1 0x0 MSTORE PUSH1 0x20 PUSH1 0x0 KECCAK256 SWAP1 PUSH1 0x3 MUL ADD PUSH1 0x0 SWAP1 SWAP2 SWAP1 SWAP2 SWAP1 SWAP2 POP PUSH1 0x0 DUP3 ADD MLOAD DUP2 PUSH1 0x0 ADD SSTORE PUSH1 0x20 DUP3 ADD MLOAD DUP2 PUSH1 0x1 ADD SWAP1 DUP1 MLOAD SWAP1 PUSH1 0x20 ADD SWAP1 PUSH2 0x23E SWAP3 SWAP2 SWAP1 PUSH2 0x287 JUMP JUMPDEST POP PUSH1 0x40 DUP3 ADD MLOAD DUP2 PUSH1 0x2 ADD PUSH1 0x0 PUSH2 0x100 EXP DUP2 SLOAD DUP2 PUSH2 0xFFFF MUL NOT AND SWAP1 DUP4 PUSH1 0x1 SIGNEXTEND PUSH2 0xFFFF AND MUL OR SWAP1 SSTORE POP POP POP POP POP POP POP JUMP JUMPDEST PUSH1 0x0 PUSH1 0x1 PUSH1 0x0 DUP1 SLOAD SWAP1 POP PUSH2 0x281 SWAP2 SWAP1 PUSH2 0x651 JUMP JUMPDEST SWAP1 POP POP POP JUMP JUMPDEST DUP3 DUP1 SLOAD PUSH2 0x293 SWAP1 PUSH2 0x700 JUMP JUMPDEST SWAP1 PUSH1 0x0 MSTORE PUSH1 0x20 PUSH1 0x0 KECCAK256 SWAP1 PUSH1 0x1F ADD PUSH1 0x20 SWAP1 DIV DUP2 ADD SWAP3 DUP3 PUSH2 0x2B5 JUMPI PUSH1 0x0 DUP6 SSTORE PUSH2 0x2FC JUMP JUMPDEST DUP3 PUSH1 0x1F LT PUSH2 0x2CE JUMPI DUP1 MLOAD PUSH1 0xFF NOT AND DUP4 DUP1 ADD OR DUP6 SSTORE PUSH2 0x2FC JUMP JUMPDEST DUP3 DUP1 ADD PUSH1 0x1 ADD DUP6 SSTORE DUP3 ISZERO PUSH2 0x2FC JUMPI SWAP2 DUP3 ADD JUMPDEST DUP3 DUP2 GT ISZERO PUSH2 0x2FB JUMPI DUP3 MLOAD DUP3 SSTORE SWAP2 PUSH1 0x20 ADD SWAP2 SWAP1 PUSH1 0x1 ADD SWAP1 PUSH2 0x2E0 JUMP JUMPDEST JUMPDEST POP SWAP1 POP PUSH2 0x309 SWAP2 SWAP1 PUSH2 0x30D JUMP JUMPDEST POP SWAP1 JUMP JUMPDEST JUMPDEST DUP1 DUP3 GT ISZERO PUSH2 0x326 JUMPI PUSH1 0x0 DUP2 PUSH1 0x0 SWAP1 SSTORE POP PUSH1 0x1 ADD PUSH2 0x30E JUMP JUMPDEST POP SWAP1 JUMP JUMPDEST PUSH1 0x0 PUSH2 0x33D PUSH2 0x338 DUP5 PUSH2 0x5CB JUMP JUMPDEST PUSH2 0x5A6 JUMP JUMPDEST SWAP1 POP DUP3 DUP2 MSTORE PUSH1 0x20 DUP2 ADD DUP5 DUP5 DUP5 ADD GT ISZERO PUSH2 0x359 JUMPI PUSH2 0x358 PUSH2 0x7F5 JUMP JUMPDEST JUMPDEST PUSH2 0x364 DUP5 DUP3 DUP6 PUSH2 0x6BE JUMP JUMPDEST POP SWAP4 SWAP3 POP POP POP JUMP JUMPDEST PUSH1 0x0 DUP2 CALLDATALOAD SWAP1 POP PUSH2 0x37B DUP2 PUSH2 0x815 JUMP JUMPDEST SWAP3 SWAP2 POP POP JUMP JUMPDEST PUSH1 0x0 DUP3 PUSH1 0x1F DUP4 ADD SLT PUSH2 0x396 JUMPI PUSH2 0x395 PUSH2 0x7F0 JUMP JUMPDEST JUMPDEST DUP2 CALLDATALOAD PUSH2 0x3A6 DUP5 DUP3 PUSH1 0x20 DUP7 ADD PUSH2 0x32A JUMP JUMPDEST SWAP2 POP POP SWAP3 SWAP2 POP POP JUMP JUMPDEST PUSH1 0x0 PUSH1 0x20 DUP3 DUP5 SUB SLT ISZERO PUSH2 0x3C5 JUMPI PUSH2 0x3C4 PUSH2 0x7FF JUMP JUMPDEST JUMPDEST PUSH1 0x0 DUP3 ADD CALLDATALOAD PUSH8 0xFFFFFFFFFFFFFFFF DUP2 GT ISZERO PUSH2 0x3E3 JUMPI PUSH2 0x3E2 PUSH2 0x7FA JUMP JUMPDEST JUMPDEST PUSH2 0x3EF DUP5 DUP3 DUP6 ADD PUSH2 0x381 JUMP JUMPDEST SWAP2 POP POP SWAP3 SWAP2 POP POP JUMP JUMPDEST PUSH1 0x0 DUP1 PUSH1 0x40 DUP4 DUP6 SUB SLT ISZERO PUSH2 0x40F JUMPI PUSH2 0x40E PUSH2 0x7FF JUMP JUMPDEST JUMPDEST PUSH1 0x0 DUP4 ADD CALLDATALOAD PUSH8 0xFFFFFFFFFFFFFFFF DUP2 GT ISZERO PUSH2 0x42D JUMPI PUSH2 0x42C PUSH2 0x7FA JUMP JUMPDEST JUMPDEST PUSH2 0x439 DUP6 DUP3 DUP7 ADD PUSH2 0x381 JUMP JUMPDEST SWAP3 POP POP PUSH1 0x20 PUSH2 0x44A DUP6 DUP3 DUP7 ADD PUSH2 0x36C JUMP JUMPDEST SWAP2 POP POP SWAP3 POP SWAP3 SWAP1 POP JUMP JUMPDEST PUSH1 0x0 PUSH2 0x460 DUP4 DUP4 PUSH2 0x525 JUMP JUMPDEST SWAP1 POP SWAP3 SWAP2 POP POP JUMP JUMPDEST PUSH1 0x0 PUSH2 0x473 DUP3 PUSH2 0x60C JUMP JUMPDEST PUSH2 0x47D DUP2 DUP6 PUSH2 0x62F JUMP JUMPDEST SWAP4 POP DUP4 PUSH1 0x20 DUP3 MUL DUP6 ADD PUSH2 0x48F DUP6 PUSH2 0x5FC JUMP JUMPDEST DUP1 PUSH1 0x0 JUMPDEST DUP6 DUP2 LT ISZERO PUSH2 0x4CB JUMPI DUP5 DUP5 SUB DUP10 MSTORE DUP2 MLOAD PUSH2 0x4AC DUP6 DUP3 PUSH2 0x454 JUMP JUMPDEST SWAP5 POP PUSH2 0x4B7 DUP4 PUSH2 0x622 JUMP JUMPDEST SWAP3 POP PUSH1 0x20 DUP11 ADD SWAP10 POP POP PUSH1 0x1 DUP2 ADD SWAP1 POP PUSH2 0x493 JUMP JUMPDEST POP DUP3 SWAP8 POP DUP8 SWAP6 POP POP POP POP POP POP SWAP3 SWAP2 POP POP JUMP JUMPDEST PUSH2 0x4E6 DUP2 PUSH2 0x6A7 JUMP JUMPDEST DUP3 MSTORE POP POP JUMP JUMPDEST PUSH1 0x0 PUSH2 0x4F7 DUP3 PUSH2 0x617 JUMP JUMPDEST PUSH2 0x501 DUP2 DUP6 PUSH2 0x640 JUMP JUMPDEST SWAP4 POP PUSH2 0x511 DUP2 DUP6 PUSH1 0x20 DUP7 ADD PUSH2 0x6CD JUMP JUMPDEST PUSH2 0x51A DUP2 PUSH2 0x804 JUMP JUMPDEST DUP5 ADD SWAP2 POP POP SWAP3 SWAP2 POP POP JUMP JUMPDEST PUSH1 0x0 PUSH1 0x60 DUP4 ADD PUSH1 0x0 DUP4 ADD MLOAD PUSH2 0x53D PUSH1 0x0 DUP7 ADD DUP3 PUSH2 0x575 JUMP JUMPDEST POP PUSH1 0x20 DUP4 ADD MLOAD DUP5 DUP3 SUB PUSH1 0x20 DUP7 ADD MSTORE PUSH2 0x555 DUP3 DUP3 PUSH2 0x4EC JUMP JUMPDEST SWAP2 POP POP PUSH1 0x40 DUP4 ADD MLOAD PUSH2 0x56A PUSH1 0x40 DUP7 ADD DUP3 PUSH2 0x4DD JUMP JUMPDEST POP DUP1 SWAP2 POP POP SWAP3 SWAP2 POP POP JUMP JUMPDEST PUSH2 0x57E DUP2 PUSH2 0x6B4 JUMP JUMPDEST DUP3 MSTORE POP POP JUMP JUMPDEST PUSH1 0x0 PUSH1 0x20 DUP3 ADD SWAP1 POP DUP2 DUP2 SUB PUSH1 0x0 DUP4 ADD MSTORE PUSH2 0x59E DUP2 DUP5 PUSH2 0x468 JUMP JUMPDEST SWAP1 POP SWAP3 SWAP2 POP POP JUMP JUMPDEST PUSH1 0x0 PUSH2 0x5B0 PUSH2 0x5C1 JUMP JUMPDEST SWAP1 POP PUSH2 0x5BC DUP3 DUP3 PUSH2 0x732 JUMP JUMPDEST SWAP2 SWAP1 POP JUMP JUMPDEST PUSH1 0x0 PUSH1 0x40 MLOAD SWAP1 POP SWAP1 JUMP JUMPDEST PUSH1 0x0 PUSH8 0xFFFFFFFFFFFFFFFF DUP3 GT ISZERO PUSH2 0x5E6 JUMPI PUSH2 0x5E5 PUSH2 0x7C1 JUMP JUMPDEST JUMPDEST PUSH2 0x5EF DUP3 PUSH2 0x804 JUMP JUMPDEST SWAP1 POP PUSH1 0x20 DUP2 ADD SWAP1 POP SWAP2 SWAP1 POP JUMP JUMPDEST PUSH1 0x0 DUP2 SWAP1 POP PUSH1 0x20 DUP3 ADD SWAP1 POP SWAP2 SWAP1 POP JUMP JUMPDEST PUSH1 0x0 DUP2 MLOAD SWAP1 POP SWAP2 SWAP1 POP JUMP JUMPDEST PUSH1 0x0 DUP2 MLOAD SWAP1 POP SWAP2 SWAP1 POP JUMP JUMPDEST PUSH1 0x0 PUSH1 0x20 DUP3 ADD SWAP1 POP SWAP2 SWAP1 POP JUMP JUMPDEST PUSH1 0x0 DUP3 DUP3 MSTORE PUSH1 0x20 DUP3 ADD SWAP1 POP SWAP3 SWAP2 POP POP JUMP JUMPDEST PUSH1 0x0 DUP3 DUP3 MSTORE PUSH1 0x20 DUP3 ADD SWAP1 POP SWAP3 SWAP2 POP POP JUMP JUMPDEST PUSH1 0x0 PUSH2 0x65C DUP3 PUSH2 0x6B4 JUMP JUMPDEST SWAP2 POP PUSH2 0x667 DUP4 PUSH2 0x6B4 JUMP JUMPDEST SWAP3 POP DUP3 PUSH32 0xFFFFFFFFFFFFFFFFFFFFFFFFFFFFFFFFFFFFFFFFFFFFFFFFFFFFFFFFFFFFFFFF SUB DUP3 GT ISZERO PUSH2 0x69C JUMPI PUSH2 0x69B PUSH2 0x763 JUMP JUMPDEST JUMPDEST DUP3 DUP3 ADD SWAP1 POP SWAP3 SWAP2 POP POP JUMP JUMPDEST PUSH1 0x0 DUP2 PUSH1 0x1 SIGNEXTEND SWAP1 POP SWAP2 SWAP1 POP JUMP JUMPDEST PUSH1 0x0 DUP2 SWAP1 POP SWAP2 SWAP1 POP JUMP JUMPDEST DUP3 DUP2 DUP4 CALLDATACOPY PUSH1 0x0 DUP4 DUP4 ADD MSTORE POP POP POP JUMP JUMPDEST PUSH1 0x0 JUMPDEST DUP4 DUP2 LT ISZERO PUSH2 0x6EB JUMPI DUP1 DUP3 ADD MLOAD DUP2 DUP5 ADD MSTORE PUSH1 0x20 DUP2 ADD SWAP1 POP PUSH2 0x6D0 JUMP JUMPDEST DUP4 DUP2 GT ISZERO PUSH2 0x6FA JUMPI PUSH1 0x0 DUP5 DUP5 ADD MSTORE JUMPDEST POP POP POP POP JUMP JUMPDEST PUSH1 0x0 PUSH1 0x2 DUP3 DIV SWAP1 POP PUSH1 0x1 DUP3 AND DUP1 PUSH2 0x718 JUMPI PUSH1 0x7F DUP3 AND SWAP2 POP JUMPDEST PUSH1 0x20 DUP3 LT DUP2 EQ ISZERO PUSH2 0x72C JUMPI PUSH2 0x72B PUSH2 0x792 JUMP JUMPDEST JUMPDEST POP SWAP2 SWAP1 POP JUMP JUMPDEST PUSH2 0x73B DUP3 PUSH2 0x804 JUMP JUMPDEST DUP2 ADD DUP2 DUP2 LT PUSH8 0xFFFFFFFFFFFFFFFF DUP3 GT OR ISZERO PUSH2 0x75A JUMPI PUSH2 0x759 PUSH2 0x7C1 JUMP JUMPDEST JUMPDEST DUP1 PUSH1 0x40 MSTORE POP POP POP JUMP JUMPDEST PUSH32 0x4E487B7100000000000000000000000000000000000000000000000000000000 PUSH1 0x0 MSTORE PUSH1 0x11 PUSH1 0x4 MSTORE PUSH1 0x24 PUSH1 0x0 REVERT JUMPDEST PUSH32 0x4E487B7100000000000000000000000000000000000000000000000000000000 PUSH1 0x0 MSTORE PUSH1 0x22 PUSH1 0x4 MSTORE PUSH1 0x24 PUSH1 0x0 REVERT JUMPDEST PUSH32 0x4E487B7100000000000000000000000000000000000000000000000000000000 PUSH1 0x0 MSTORE PUSH1 0x41 PUSH1 0x4 MSTORE PUSH1 0x24 PUSH1 0x0 REVERT JUMPDEST PUSH1 0x0 DUP1 REVERT JUMPDEST PUSH1 0x0 DUP1 REVERT JUMPDEST PUSH1 0x0 DUP1 REVERT JUMPDEST PUSH1 0x0 DUP1 REVERT JUMPDEST PUSH1 0x0 PUSH1 0x1F NOT PUSH1 0x1F DUP4 ADD AND SWAP1 POP SWAP2 SWAP1 POP JUMP JUMPDEST PUSH2 0x81E DUP2 PUSH2 0x6A7 JUMP JUMPDEST DUP2 EQ PUSH2 0x829 JUMPI PUSH1 0x0 DUP1 REVERT JUMPDEST POP JUMP INVALID LOG2 PUSH5 0x6970667358 0x22 SLT KECCAK256 0x4F 0xB0 0xE0 0xD5 DUP4 SHR 0xCC 0xCB SWAP8 STOP BALANCE PUSH26 0x9228815150447779A658DE023CC1145955F263DC64736F6C6343 STOP ADDMOD SMOD STOP CALLER "
				},
				"gasEstimates": {
					"creation": {
						"codeDepositCost": "429200",
						"executionCost": "468",
						"totalCost": "429668"
					},
					"external": {
						"createClient(string)": "infinite",
						"createProduit(string,int16)": "infinite",
						"getAllProducts()": "infinite"
					}
				},
				"methodIdentifiers": {
					"createClient(string)": "e88e9f0f",
					"createProduit(string,int16)": "51401eef",
					"getAllProducts()": "02ee3a52"
				}
			},
			"storageLayout": {
				"storage": [
					{
						"astId": 21,
						"contract": "contracts/ExoSupermarche.sol:supermarche",
						"label": "produits",
						"offset": 0,
						"slot": "0",
						"type": "t_array(t_struct(produit)8_storage)dyn_storage"
					},
					{
						"astId": 25,
						"contract": "contracts/ExoSupermarche.sol:supermarche",
						"label": "clients",
						"offset": 0,
						"slot": "1",
						"type": "t_array(t_struct(client)17_storage)dyn_storage"
					}
				],
				"types": {
					"t_array(t_struct(client)17_storage)dyn_storage": {
						"base": "t_struct(client)17_storage",
						"encoding": "dynamic_array",
						"label": "struct supermarche.client[]",
						"numberOfBytes": "32"
					},
					"t_array(t_struct(produit)8_storage)dyn_storage": {
						"base": "t_struct(produit)8_storage",
						"encoding": "dynamic_array",
						"label": "struct supermarche.produit[]",
						"numberOfBytes": "32"
					},
					"t_int16": {
						"encoding": "inplace",
						"label": "int16",
						"numberOfBytes": "2"
					},
					"t_string_storage": {
						"encoding": "bytes",
						"label": "string",
						"numberOfBytes": "32"
					},
					"t_struct(client)17_storage": {
						"encoding": "inplace",
						"label": "struct supermarche.client",
						"members": [
							{
								"astId": 10,
								"contract": "contracts/ExoSupermarche.sol:supermarche",
								"label": "_id",
								"offset": 0,
								"slot": "0",
								"type": "t_uint256"
							},
							{
								"astId": 12,
								"contract": "contracts/ExoSupermarche.sol:supermarche",
								"label": "_nom",
								"offset": 0,
								"slot": "1",
								"type": "t_string_storage"
							},
							{
								"astId": 16,
								"contract": "contracts/ExoSupermarche.sol:supermarche",
								"label": "_panier",
								"offset": 0,
								"slot": "2",
								"type": "t_array(t_struct(produit)8_storage)dyn_storage"
							}
						],
						"numberOfBytes": "96"
					},
					"t_struct(produit)8_storage": {
						"encoding": "inplace",
						"label": "struct supermarche.produit",
						"members": [
							{
								"astId": 3,
								"contract": "contracts/ExoSupermarche.sol:supermarche",
								"label": "_id",
								"offset": 0,
								"slot": "0",
								"type": "t_uint256"
							},
							{
								"astId": 5,
								"contract": "contracts/ExoSupermarche.sol:supermarche",
								"label": "_libelle",
								"offset": 0,
								"slot": "1",
								"type": "t_string_storage"
							},
							{
								"astId": 7,
								"contract": "contracts/ExoSupermarche.sol:supermarche",
								"label": "_prix",
								"offset": 0,
								"slot": "2",
								"type": "t_int16"
							}
						],
						"numberOfBytes": "96"
					},
					"t_uint256": {
						"encoding": "inplace",
						"label": "uint256",
						"numberOfBytes": "32"
					}
				}
			},
			"userdoc": {
				"kind": "user",
				"methods": {},
				"version": 1
			}
		}
	}
}