{
	"contracts/ExoSupermarche.sol": {
		"supermarche": {
			"abi": [
				{
					"inputs": [],
					"stateMutability": "nonpayable",
					"type": "constructor"
				},
				{
					"inputs": [
						{
							"internalType": "string",
							"name": "_libelle",
							"type": "string"
						},
						{
							"internalType": "int16",
							"name": "_prix",
							"type": "int16"
						}
					],
					"name": "createProduit",
					"outputs": [],
					"stateMutability": "nonpayable",
					"type": "function"
				},
				{
					"inputs": [
						{
							"internalType": "uint256",
							"name": "_id",
							"type": "uint256"
						}
					],
					"name": "getProductInfoById",
					"outputs": [
						{
							"internalType": "string",
							"name": "",
							"type": "string"
						},
						{
							"internalType": "int16",
							"name": "",
							"type": "int16"
						}
					],
					"stateMutability": "view",
					"type": "function"
				},
				{
					"inputs": [
						{
							"internalType": "string",
							"name": "_name",
							"type": "string"
						}
					],
					"name": "getProductInfoByName",
					"outputs": [
						{
							"internalType": "string",
							"name": "",
							"type": "string"
						},
						{
							"internalType": "int16",
							"name": "",
							"type": "int16"
						}
					],
					"stateMutability": "view",
					"type": "function"
				},
				{
					"inputs": [
						{
							"internalType": "uint256",
							"name": "_id",
							"type": "uint256"
						},
						{
							"internalType": "string",
							"name": "_libelle",
							"type": "string"
						}
					],
					"name": "setProductInfoName",
					"outputs": [],
					"stateMutability": "nonpayable",
					"type": "function"
				},
				{
					"inputs": [
						{
							"internalType": "uint256",
							"name": "_id",
							"type": "uint256"
						},
						{
							"internalType": "int16",
							"name": "_price",
							"type": "int16"
						}
					],
					"name": "setProductInfoPrice",
					"outputs": [],
					"stateMutability": "nonpayable",
					"type": "function"
				}
			],
			"devdoc": {
				"kind": "dev",
				"methods": {},
				"version": 1
			},
			"evm": {
				"assembly": "    /* \"contracts/ExoSupermarche.sol\":59:1577  contract supermarche {\r... */\n  mstore(0x40, 0x80)\n    /* \"contracts/ExoSupermarche.sol\":316:317  0 */\n  0x00\n    /* \"contracts/ExoSupermarche.sol\":293:317  uint numberOfProduct = 0 */\n  dup1\n  sstore\n    /* \"contracts/ExoSupermarche.sol\":430:564  constructor() {\r... */\n  callvalue\n  dup1\n  iszero\n  tag_1\n  jumpi\n  0x00\n  dup1\n  revert\ntag_1:\n  pop\n    /* \"contracts/ExoSupermarche.sol\":455:482  createProduit(\"banane\", 10) */\n  tag_4\n  mload(0x40)\n  dup1\n  0x40\n  add\n  0x40\n  mstore\n  dup1\n  0x06\n  dup2\n  mstore\n  0x20\n  add\n  0x62616e616e650000000000000000000000000000000000000000000000000000\n  dup2\n  mstore\n  pop\n    /* \"contracts/ExoSupermarche.sol\":479:481  10 */\n  0x0a\n    /* \"contracts/ExoSupermarche.sol\":455:468  createProduit */\n  shl(0x20, tag_5)\n    /* \"contracts/ExoSupermarche.sol\":455:482  createProduit(\"banane\", 10) */\n  0x20\n  shr\n  jump\t// in\ntag_4:\n    /* \"contracts/ExoSupermarche.sol\":493:520  createProduit(\"fraise\", 15) */\n  tag_6\n  mload(0x40)\n  dup1\n  0x40\n  add\n  0x40\n  mstore\n  dup1\n  0x06\n  dup2\n  mstore\n  0x20\n  add\n  0x6672616973650000000000000000000000000000000000000000000000000000\n  dup2\n  mstore\n  pop\n    /* \"contracts/ExoSupermarche.sol\":517:519  15 */\n  0x0f\n    /* \"contracts/ExoSupermarche.sol\":493:506  createProduit */\n  shl(0x20, tag_5)\n    /* \"contracts/ExoSupermarche.sol\":493:520  createProduit(\"fraise\", 15) */\n  0x20\n  shr\n  jump\t// in\ntag_6:\n    /* \"contracts/ExoSupermarche.sol\":531:556  createProduit(\"pomme\", 8) */\n  tag_7\n  mload(0x40)\n  dup1\n  0x40\n  add\n  0x40\n  mstore\n  dup1\n  0x05\n  dup2\n  mstore\n  0x20\n  add\n  0x706f6d6d65000000000000000000000000000000000000000000000000000000\n  dup2\n  mstore\n  pop\n    /* \"contracts/ExoSupermarche.sol\":554:555  8 */\n  0x08\n    /* \"contracts/ExoSupermarche.sol\":531:544  createProduit */\n  shl(0x20, tag_5)\n    /* \"contracts/ExoSupermarche.sol\":531:556  createProduit(\"pomme\", 8) */\n  0x20\n  shr\n  jump\t// in\ntag_7:\n    /* \"contracts/ExoSupermarche.sol\":59:1577  contract supermarche {\r... */\n  jump(tag_8)\n    /* \"contracts/ExoSupermarche.sol\":574:890  function createProduit(string memory _libelle, int16 _prix) public {\r... */\ntag_5:\n    /* \"contracts/ExoSupermarche.sol\":652:659  uint id */\n  0x00\n    /* \"contracts/ExoSupermarche.sol\":680:681  1 */\n  0x01\n    /* \"contracts/ExoSupermarche.sol\":662:677  numberOfProduct */\n  sload(0x00)\n    /* \"contracts/ExoSupermarche.sol\":662:681  numberOfProduct + 1 */\n  tag_10\n  swap2\n  swap1\n  tag_11\n  jump\t// in\ntag_10:\n    /* \"contracts/ExoSupermarche.sol\":652:681  uint id = numberOfProduct + 1 */\n  swap1\n  pop\n    /* \"contracts/ExoSupermarche.sol\":692:707  numberOfProduct */\n  0x00\n  dup1\n    /* \"contracts/ExoSupermarche.sol\":692:709  numberOfProduct++ */\n  dup2\n  sload\n  dup1\n  swap3\n  swap2\n  swap1\n  tag_12\n  swap1\n  tag_13\n  jump\t// in\ntag_12:\n  swap2\n  swap1\n  pop\n  sstore\n  pop\n    /* \"contracts/ExoSupermarche.sol\":720:740  productData memory p */\n  0x00\n    /* \"contracts/ExoSupermarche.sol\":743:775  productData(id, _libelle, _prix) */\n  mload(0x40)\n  dup1\n  0x60\n  add\n  0x40\n  mstore\n  dup1\n    /* \"contracts/ExoSupermarche.sol\":755:757  id */\n  dup4\n    /* \"contracts/ExoSupermarche.sol\":743:775  productData(id, _libelle, _prix) */\n  dup2\n  mstore\n  0x20\n  add\n    /* \"contracts/ExoSupermarche.sol\":759:767  _libelle */\n  dup6\n    /* \"contracts/ExoSupermarche.sol\":743:775  productData(id, _libelle, _prix) */\n  dup2\n  mstore\n  0x20\n  add\n    /* \"contracts/ExoSupermarche.sol\":769:774  _prix */\n  dup5\n    /* \"contracts/ExoSupermarche.sol\":743:775  productData(id, _libelle, _prix) */\n  0x01\n  signextend\n  dup2\n  mstore\n  pop\n    /* \"contracts/ExoSupermarche.sol\":720:775  productData memory p = productData(id, _libelle, _prix) */\n  swap1\n  pop\n    /* \"contracts/ExoSupermarche.sol\":842:843  p */\n  dup1\n    /* \"contracts/ExoSupermarche.sol\":823:835  productsById */\n  0x01\n    /* \"contracts/ExoSupermarche.sol\":823:839  productsById[id] */\n  0x00\n    /* \"contracts/ExoSupermarche.sol\":836:838  id */\n  dup5\n    /* \"contracts/ExoSupermarche.sol\":823:839  productsById[id] */\n  dup2\n  mstore\n  0x20\n  add\n  swap1\n  dup2\n  mstore\n  0x20\n  add\n  0x00\n  keccak256\n    /* \"contracts/ExoSupermarche.sol\":823:843  productsById[id] = p */\n  0x00\n  dup3\n  add\n  mload\n  dup2\n  0x00\n  add\n  sstore\n  0x20\n  dup3\n  add\n  mload\n  dup2\n  0x01\n  add\n  swap1\n  dup1\n  mload\n  swap1\n  0x20\n  add\n  swap1\n  tag_14\n  swap3\n  swap2\n  swap1\n  tag_15\n  jump\t// in\ntag_14:\n  pop\n  0x40\n  dup3\n  add\n  mload\n  dup2\n  0x02\n  add\n  exp(0x0100, 0x00)\n  dup2\n  sload\n  dup2\n  0xffff\n  mul\n  not\n  and\n  swap1\n  dup4\n  0x01\n  signextend\n  0xffff\n  and\n  mul\n  or\n  swap1\n  sstore\n  pop\n  swap1\n  pop\n  pop\n    /* \"contracts/ExoSupermarche.sol\":881:882  p */\n  dup1\n    /* \"contracts/ExoSupermarche.sol\":854:868  productsByName */\n  0x02\n    /* \"contracts/ExoSupermarche.sol\":869:877  _libelle */\n  dup6\n    /* \"contracts/ExoSupermarche.sol\":854:878  productsByName[_libelle] */\n  mload(0x40)\n  tag_16\n  swap2\n  swap1\n  tag_17\n  jump\t// in\ntag_16:\n  swap1\n  dup2\n  mstore\n  0x20\n  add\n  mload(0x40)\n  dup1\n  swap2\n  sub\n  swap1\n  keccak256\n    /* \"contracts/ExoSupermarche.sol\":854:882  productsByName[_libelle] = p */\n  0x00\n  dup3\n  add\n  mload\n  dup2\n  0x00\n  add\n  sstore\n  0x20\n  dup3\n  add\n  mload\n  dup2\n  0x01\n  add\n  swap1\n  dup1\n  mload\n  swap1\n  0x20\n  add\n  swap1\n  tag_18\n  swap3\n  swap2\n  swap1\n  tag_15\n  jump\t// in\ntag_18:\n  pop\n  0x40\n  dup3\n  add\n  mload\n  dup2\n  0x02\n  add\n  exp(0x0100, 0x00)\n  dup2\n  sload\n  dup2\n  0xffff\n  mul\n  not\n  and\n  swap1\n  dup4\n  0x01\n  signextend\n  0xffff\n  and\n  mul\n  or\n  swap1\n  sstore\n  pop\n  swap1\n  pop\n  pop\n    /* \"contracts/ExoSupermarche.sol\":641:890  {\r... */\n  pop\n  pop\n    /* \"contracts/ExoSupermarche.sol\":574:890  function createProduit(string memory _libelle, int16 _prix) public {\r... */\n  pop\n  pop\n  jump\t// out\n    /* \"contracts/ExoSupermarche.sol\":59:1577  contract supermarche {\r... */\ntag_15:\n  dup3\n  dup1\n  sload\n  tag_19\n  swap1\n  tag_20\n  jump\t// in\ntag_19:\n  swap1\n  0x00\n  mstore\n  keccak256(0x00, 0x20)\n  swap1\n  0x1f\n  add\n  0x20\n  swap1\n  div\n  dup2\n  add\n  swap3\n  dup3\n  tag_22\n  jumpi\n  0x00\n  dup6\n  sstore\n  jump(tag_21)\ntag_22:\n  dup3\n  0x1f\n  lt\n  tag_23\n  jumpi\n  dup1\n  mload\n  not(0xff)\n  and\n  dup4\n  dup1\n  add\n  or\n  dup6\n  sstore\n  jump(tag_21)\ntag_23:\n  dup3\n  dup1\n  add\n  0x01\n  add\n  dup6\n  sstore\n  dup3\n  iszero\n  tag_21\n  jumpi\n  swap2\n  dup3\n  add\ntag_24:\n  dup3\n  dup2\n  gt\n  iszero\n  tag_25\n  jumpi\n  dup3\n  mload\n  dup3\n  sstore\n  swap2\n  0x20\n  add\n  swap2\n  swap1\n  0x01\n  add\n  swap1\n  jump(tag_24)\ntag_25:\ntag_21:\n  pop\n  swap1\n  pop\n  tag_26\n  swap2\n  swap1\n  tag_27\n  jump\t// in\ntag_26:\n  pop\n  swap1\n  jump\t// out\ntag_27:\ntag_28:\n  dup1\n  dup3\n  gt\n  iszero\n  tag_29\n  jumpi\n  0x00\n  dup2\n  0x00\n  swap1\n  sstore\n  pop\n  0x01\n  add\n  jump(tag_28)\ntag_29:\n  pop\n  swap1\n  jump\t// out\n    /* \"#utility.yul\":7:384   */\ntag_31:\n    /* \"#utility.yul\":113:116   */\n  0x00\n    /* \"#utility.yul\":141:180   */\n  tag_33\n    /* \"#utility.yul\":174:179   */\n  dup3\n    /* \"#utility.yul\":141:180   */\n  tag_34\n  jump\t// in\ntag_33:\n    /* \"#utility.yul\":196:285   */\n  tag_35\n    /* \"#utility.yul\":278:284   */\n  dup2\n    /* \"#utility.yul\":273:276   */\n  dup6\n    /* \"#utility.yul\":196:285   */\n  tag_36\n  jump\t// in\ntag_35:\n    /* \"#utility.yul\":189:285   */\n  swap4\n  pop\n    /* \"#utility.yul\":294:346   */\n  tag_37\n    /* \"#utility.yul\":339:345   */\n  dup2\n    /* \"#utility.yul\":334:337   */\n  dup6\n    /* \"#utility.yul\":327:331   */\n  0x20\n    /* \"#utility.yul\":320:325   */\n  dup7\n    /* \"#utility.yul\":316:332   */\n  add\n    /* \"#utility.yul\":294:346   */\n  tag_38\n  jump\t// in\ntag_37:\n    /* \"#utility.yul\":371:377   */\n  dup1\n    /* \"#utility.yul\":366:369   */\n  dup5\n    /* \"#utility.yul\":362:378   */\n  add\n    /* \"#utility.yul\":355:378   */\n  swap2\n  pop\n    /* \"#utility.yul\":117:384   */\n  pop\n    /* \"#utility.yul\":7:384   */\n  swap3\n  swap2\n  pop\n  pop\n  jump\t// out\n    /* \"#utility.yul\":390:665   */\ntag_17:\n    /* \"#utility.yul\":522:525   */\n  0x00\n    /* \"#utility.yul\":544:639   */\n  tag_40\n    /* \"#utility.yul\":635:638   */\n  dup3\n    /* \"#utility.yul\":626:632   */\n  dup5\n    /* \"#utility.yul\":544:639   */\n  tag_31\n  jump\t// in\ntag_40:\n    /* \"#utility.yul\":537:639   */\n  swap2\n  pop\n    /* \"#utility.yul\":656:659   */\n  dup2\n    /* \"#utility.yul\":649:659   */\n  swap1\n  pop\n    /* \"#utility.yul\":390:665   */\n  swap3\n  swap2\n  pop\n  pop\n  jump\t// out\n    /* \"#utility.yul\":671:770   */\ntag_34:\n    /* \"#utility.yul\":723:729   */\n  0x00\n    /* \"#utility.yul\":757:762   */\n  dup2\n    /* \"#utility.yul\":751:763   */\n  mload\n    /* \"#utility.yul\":741:763   */\n  swap1\n  pop\n    /* \"#utility.yul\":671:770   */\n  swap2\n  swap1\n  pop\n  jump\t// out\n    /* \"#utility.yul\":776:924   */\ntag_36:\n    /* \"#utility.yul\":878:889   */\n  0x00\n    /* \"#utility.yul\":915:918   */\n  dup2\n    /* \"#utility.yul\":900:918   */\n  swap1\n  pop\n    /* \"#utility.yul\":776:924   */\n  swap3\n  swap2\n  pop\n  pop\n  jump\t// out\n    /* \"#utility.yul\":930:1235   */\ntag_11:\n    /* \"#utility.yul\":970:973   */\n  0x00\n    /* \"#utility.yul\":989:1009   */\n  tag_44\n    /* \"#utility.yul\":1007:1008   */\n  dup3\n    /* \"#utility.yul\":989:1009   */\n  tag_45\n  jump\t// in\ntag_44:\n    /* \"#utility.yul\":984:1009   */\n  swap2\n  pop\n    /* \"#utility.yul\":1023:1043   */\n  tag_46\n    /* \"#utility.yul\":1041:1042   */\n  dup4\n    /* \"#utility.yul\":1023:1043   */\n  tag_45\n  jump\t// in\ntag_46:\n    /* \"#utility.yul\":1018:1043   */\n  swap3\n  pop\n    /* \"#utility.yul\":1177:1178   */\n  dup3\n    /* \"#utility.yul\":1109:1175   */\n  0xffffffffffffffffffffffffffffffffffffffffffffffffffffffffffffffff\n    /* \"#utility.yul\":1105:1179   */\n  sub\n    /* \"#utility.yul\":1102:1103   */\n  dup3\n    /* \"#utility.yul\":1099:1180   */\n  gt\n    /* \"#utility.yul\":1096:1203   */\n  iszero\n  tag_47\n  jumpi\n    /* \"#utility.yul\":1183:1201   */\n  tag_48\n  tag_49\n  jump\t// in\ntag_48:\n    /* \"#utility.yul\":1096:1203   */\ntag_47:\n    /* \"#utility.yul\":1227:1228   */\n  dup3\n    /* \"#utility.yul\":1224:1225   */\n  dup3\n    /* \"#utility.yul\":1220:1229   */\n  add\n    /* \"#utility.yul\":1213:1229   */\n  swap1\n  pop\n    /* \"#utility.yul\":930:1235   */\n  swap3\n  swap2\n  pop\n  pop\n  jump\t// out\n    /* \"#utility.yul\":1241:1318   */\ntag_45:\n    /* \"#utility.yul\":1278:1285   */\n  0x00\n    /* \"#utility.yul\":1307:1312   */\n  dup2\n    /* \"#utility.yul\":1296:1312   */\n  swap1\n  pop\n    /* \"#utility.yul\":1241:1318   */\n  swap2\n  swap1\n  pop\n  jump\t// out\n    /* \"#utility.yul\":1324:1631   */\ntag_38:\n    /* \"#utility.yul\":1392:1393   */\n  0x00\n    /* \"#utility.yul\":1402:1515   */\ntag_52:\n    /* \"#utility.yul\":1416:1422   */\n  dup4\n    /* \"#utility.yul\":1413:1414   */\n  dup2\n    /* \"#utility.yul\":1410:1423   */\n  lt\n    /* \"#utility.yul\":1402:1515   */\n  iszero\n  tag_54\n  jumpi\n    /* \"#utility.yul\":1501:1502   */\n  dup1\n    /* \"#utility.yul\":1496:1499   */\n  dup3\n    /* \"#utility.yul\":1492:1503   */\n  add\n    /* \"#utility.yul\":1486:1504   */\n  mload\n    /* \"#utility.yul\":1482:1483   */\n  dup2\n    /* \"#utility.yul\":1477:1480   */\n  dup5\n    /* \"#utility.yul\":1473:1484   */\n  add\n    /* \"#utility.yul\":1466:1505   */\n  mstore\n    /* \"#utility.yul\":1438:1440   */\n  0x20\n    /* \"#utility.yul\":1435:1436   */\n  dup2\n    /* \"#utility.yul\":1431:1441   */\n  add\n    /* \"#utility.yul\":1426:1441   */\n  swap1\n  pop\n    /* \"#utility.yul\":1402:1515   */\n  jump(tag_52)\ntag_54:\n    /* \"#utility.yul\":1533:1539   */\n  dup4\n    /* \"#utility.yul\":1530:1531   */\n  dup2\n    /* \"#utility.yul\":1527:1540   */\n  gt\n    /* \"#utility.yul\":1524:1625   */\n  iszero\n  tag_55\n  jumpi\n    /* \"#utility.yul\":1613:1614   */\n  0x00\n    /* \"#utility.yul\":1604:1610   */\n  dup5\n    /* \"#utility.yul\":1599:1602   */\n  dup5\n    /* \"#utility.yul\":1595:1611   */\n  add\n    /* \"#utility.yul\":1588:1615   */\n  mstore\n    /* \"#utility.yul\":1524:1625   */\ntag_55:\n    /* \"#utility.yul\":1373:1631   */\n  pop\n    /* \"#utility.yul\":1324:1631   */\n  pop\n  pop\n  pop\n  jump\t// out\n    /* \"#utility.yul\":1637:1957   */\ntag_20:\n    /* \"#utility.yul\":1681:1687   */\n  0x00\n    /* \"#utility.yul\":1718:1719   */\n  0x02\n    /* \"#utility.yul\":1712:1716   */\n  dup3\n    /* \"#utility.yul\":1708:1720   */\n  div\n    /* \"#utility.yul\":1698:1720   */\n  swap1\n  pop\n    /* \"#utility.yul\":1765:1766   */\n  0x01\n    /* \"#utility.yul\":1759:1763   */\n  dup3\n    /* \"#utility.yul\":1755:1767   */\n  and\n    /* \"#utility.yul\":1786:1804   */\n  dup1\n    /* \"#utility.yul\":1776:1857   */\n  tag_57\n  jumpi\n    /* \"#utility.yul\":1842:1846   */\n  0x7f\n    /* \"#utility.yul\":1834:1840   */\n  dup3\n    /* \"#utility.yul\":1830:1847   */\n  and\n    /* \"#utility.yul\":1820:1847   */\n  swap2\n  pop\n    /* \"#utility.yul\":1776:1857   */\ntag_57:\n    /* \"#utility.yul\":1904:1906   */\n  0x20\n    /* \"#utility.yul\":1896:1902   */\n  dup3\n    /* \"#utility.yul\":1893:1907   */\n  lt\n    /* \"#utility.yul\":1873:1891   */\n  dup2\n    /* \"#utility.yul\":1870:1908   */\n  eq\n    /* \"#utility.yul\":1867:1951   */\n  iszero\n  tag_58\n  jumpi\n    /* \"#utility.yul\":1923:1941   */\n  tag_59\n  tag_60\n  jump\t// in\ntag_59:\n    /* \"#utility.yul\":1867:1951   */\ntag_58:\n    /* \"#utility.yul\":1688:1957   */\n  pop\n    /* \"#utility.yul\":1637:1957   */\n  swap2\n  swap1\n  pop\n  jump\t// out\n    /* \"#utility.yul\":1963:2196   */\ntag_13:\n    /* \"#utility.yul\":2002:2005   */\n  0x00\n    /* \"#utility.yul\":2025:2049   */\n  tag_62\n    /* \"#utility.yul\":2043:2048   */\n  dup3\n    /* \"#utility.yul\":2025:2049   */\n  tag_45\n  jump\t// in\ntag_62:\n    /* \"#utility.yul\":2016:2049   */\n  swap2\n  pop\n    /* \"#utility.yul\":2071:2137   */\n  0xffffffffffffffffffffffffffffffffffffffffffffffffffffffffffffffff\n    /* \"#utility.yul\":2064:2069   */\n  dup3\n    /* \"#utility.yul\":2061:2138   */\n  eq\n    /* \"#utility.yul\":2058:2161   */\n  iszero\n  tag_63\n  jumpi\n    /* \"#utility.yul\":2141:2159   */\n  tag_64\n  tag_49\n  jump\t// in\ntag_64:\n    /* \"#utility.yul\":2058:2161   */\ntag_63:\n    /* \"#utility.yul\":2188:2189   */\n  0x01\n    /* \"#utility.yul\":2181:2186   */\n  dup3\n    /* \"#utility.yul\":2177:2190   */\n  add\n    /* \"#utility.yul\":2170:2190   */\n  swap1\n  pop\n    /* \"#utility.yul\":1963:2196   */\n  swap2\n  swap1\n  pop\n  jump\t// out\n    /* \"#utility.yul\":2202:2382   */\ntag_49:\n    /* \"#utility.yul\":2250:2327   */\n  0x4e487b7100000000000000000000000000000000000000000000000000000000\n    /* \"#utility.yul\":2247:2248   */\n  0x00\n    /* \"#utility.yul\":2240:2328   */\n  mstore\n    /* \"#utility.yul\":2347:2351   */\n  0x11\n    /* \"#utility.yul\":2344:2345   */\n  0x04\n    /* \"#utility.yul\":2337:2352   */\n  mstore\n    /* \"#utility.yul\":2371:2375   */\n  0x24\n    /* \"#utility.yul\":2368:2369   */\n  0x00\n    /* \"#utility.yul\":2361:2376   */\n  revert\n    /* \"#utility.yul\":2388:2568   */\ntag_60:\n    /* \"#utility.yul\":2436:2513   */\n  0x4e487b7100000000000000000000000000000000000000000000000000000000\n    /* \"#utility.yul\":2433:2434   */\n  0x00\n    /* \"#utility.yul\":2426:2514   */\n  mstore\n    /* \"#utility.yul\":2533:2537   */\n  0x22\n    /* \"#utility.yul\":2530:2531   */\n  0x04\n    /* \"#utility.yul\":2523:2538   */\n  mstore\n    /* \"#utility.yul\":2557:2561   */\n  0x24\n    /* \"#utility.yul\":2554:2555   */\n  0x00\n    /* \"#utility.yul\":2547:2562   */\n  revert\n    /* \"contracts/ExoSupermarche.sol\":59:1577  contract supermarche {\r... */\ntag_8:\n  dataSize(sub_0)\n  dup1\n  dataOffset(sub_0)\n  0x00\n  codecopy\n  0x00\n  return\nstop\n\nsub_0: assembly {\n        /* \"contracts/ExoSupermarche.sol\":59:1577  contract supermarche {\r... */\n      mstore(0x40, 0x80)\n      callvalue\n      dup1\n      iszero\n      tag_1\n      jumpi\n      0x00\n      dup1\n      revert\n    tag_1:\n      pop\n      jumpi(tag_2, lt(calldatasize, 0x04))\n      shr(0xe0, calldataload(0x00))\n      dup1\n      0x3117b11c\n      eq\n      tag_3\n      jumpi\n      dup1\n      0x51401eef\n      eq\n      tag_4\n      jumpi\n      dup1\n      0x62c2886b\n      eq\n      tag_5\n      jumpi\n      dup1\n      0x65c3e805\n      eq\n      tag_6\n      jumpi\n      dup1\n      0xd7f4933c\n      eq\n      tag_7\n      jumpi\n    tag_2:\n      0x00\n      dup1\n      revert\n        /* \"contracts/ExoSupermarche.sol\":1329:1453  function setProductInfoName(uint _id, string memory _libelle) public {\r... */\n    tag_3:\n      tag_8\n      0x04\n      dup1\n      calldatasize\n      sub\n      dup2\n      add\n      swap1\n      tag_9\n      swap2\n      swap1\n      tag_10\n      jump\t// in\n    tag_9:\n      tag_11\n      jump\t// in\n    tag_8:\n      stop\n        /* \"contracts/ExoSupermarche.sol\":574:890  function createProduit(string memory _libelle, int16 _prix) public {\r... */\n    tag_4:\n      tag_12\n      0x04\n      dup1\n      calldatasize\n      sub\n      dup2\n      add\n      swap1\n      tag_13\n      swap2\n      swap1\n      tag_14\n      jump\t// in\n    tag_13:\n      tag_15\n      jump\t// in\n    tag_12:\n      stop\n        /* \"contracts/ExoSupermarche.sol\":1461:1572  function setProductInfoPrice(uint _id, int16 _price) public {\r... */\n    tag_5:\n      tag_16\n      0x04\n      dup1\n      calldatasize\n      sub\n      dup2\n      add\n      swap1\n      tag_17\n      swap2\n      swap1\n      tag_18\n      jump\t// in\n    tag_17:\n      tag_19\n      jump\t// in\n    tag_16:\n      stop\n        /* \"contracts/ExoSupermarche.sol\":901:1096  function getProductInfoById(uint _id) public view returns(string memory, int16) {\r... */\n    tag_6:\n      tag_20\n      0x04\n      dup1\n      calldatasize\n      sub\n      dup2\n      add\n      swap1\n      tag_21\n      swap2\n      swap1\n      tag_22\n      jump\t// in\n    tag_21:\n      tag_23\n      jump\t// in\n    tag_20:\n      mload(0x40)\n      tag_24\n      swap3\n      swap2\n      swap1\n      tag_25\n      jump\t// in\n    tag_24:\n      mload(0x40)\n      dup1\n      swap2\n      sub\n      swap1\n      return\n        /* \"contracts/ExoSupermarche.sol\":1105:1321  function getProductInfoByName(string memory _name) public view returns(string memory, int16) {\r... */\n    tag_7:\n      tag_26\n      0x04\n      dup1\n      calldatasize\n      sub\n      dup2\n      add\n      swap1\n      tag_27\n      swap2\n      swap1\n      tag_28\n      jump\t// in\n    tag_27:\n      tag_29\n      jump\t// in\n    tag_26:\n      mload(0x40)\n      tag_30\n      swap3\n      swap2\n      swap1\n      tag_25\n      jump\t// in\n    tag_30:\n      mload(0x40)\n      dup1\n      swap2\n      sub\n      swap1\n      return\n        /* \"contracts/ExoSupermarche.sol\":1329:1453  function setProductInfoName(uint _id, string memory _libelle) public {\r... */\n    tag_11:\n        /* \"contracts/ExoSupermarche.sol\":1437:1445  _libelle */\n      dup1\n        /* \"contracts/ExoSupermarche.sol\":1409:1421  productsById */\n      0x01\n        /* \"contracts/ExoSupermarche.sol\":1409:1426  productsById[_id] */\n      0x00\n        /* \"contracts/ExoSupermarche.sol\":1422:1425  _id */\n      dup5\n        /* \"contracts/ExoSupermarche.sol\":1409:1426  productsById[_id] */\n      dup2\n      mstore\n      0x20\n      add\n      swap1\n      dup2\n      mstore\n      0x20\n      add\n      0x00\n      keccak256\n        /* \"contracts/ExoSupermarche.sol\":1409:1434  productsById[_id].libelle */\n      0x01\n      add\n        /* \"contracts/ExoSupermarche.sol\":1409:1445  productsById[_id].libelle = _libelle */\n      swap1\n      dup1\n      mload\n      swap1\n      0x20\n      add\n      swap1\n      tag_32\n      swap3\n      swap2\n      swap1\n      tag_33\n      jump\t// in\n    tag_32:\n      pop\n        /* \"contracts/ExoSupermarche.sol\":1329:1453  function setProductInfoName(uint _id, string memory _libelle) public {\r... */\n      pop\n      pop\n      jump\t// out\n        /* \"contracts/ExoSupermarche.sol\":574:890  function createProduit(string memory _libelle, int16 _prix) public {\r... */\n    tag_15:\n        /* \"contracts/ExoSupermarche.sol\":652:659  uint id */\n      0x00\n        /* \"contracts/ExoSupermarche.sol\":680:681  1 */\n      0x01\n        /* \"contracts/ExoSupermarche.sol\":662:677  numberOfProduct */\n      sload(0x00)\n        /* \"contracts/ExoSupermarche.sol\":662:681  numberOfProduct + 1 */\n      tag_35\n      swap2\n      swap1\n      tag_36\n      jump\t// in\n    tag_35:\n        /* \"contracts/ExoSupermarche.sol\":652:681  uint id = numberOfProduct + 1 */\n      swap1\n      pop\n        /* \"contracts/ExoSupermarche.sol\":692:707  numberOfProduct */\n      0x00\n      dup1\n        /* \"contracts/ExoSupermarche.sol\":692:709  numberOfProduct++ */\n      dup2\n      sload\n      dup1\n      swap3\n      swap2\n      swap1\n      tag_37\n      swap1\n      tag_38\n      jump\t// in\n    tag_37:\n      swap2\n      swap1\n      pop\n      sstore\n      pop\n        /* \"contracts/ExoSupermarche.sol\":720:740  productData memory p */\n      0x00\n        /* \"contracts/ExoSupermarche.sol\":743:775  productData(id, _libelle, _prix) */\n      mload(0x40)\n      dup1\n      0x60\n      add\n      0x40\n      mstore\n      dup1\n        /* \"contracts/ExoSupermarche.sol\":755:757  id */\n      dup4\n        /* \"contracts/ExoSupermarche.sol\":743:775  productData(id, _libelle, _prix) */\n      dup2\n      mstore\n      0x20\n      add\n        /* \"contracts/ExoSupermarche.sol\":759:767  _libelle */\n      dup6\n        /* \"contracts/ExoSupermarche.sol\":743:775  productData(id, _libelle, _prix) */\n      dup2\n      mstore\n      0x20\n      add\n        /* \"contracts/ExoSupermarche.sol\":769:774  _prix */\n      dup5\n        /* \"contracts/ExoSupermarche.sol\":743:775  productData(id, _libelle, _prix) */\n      0x01\n      signextend\n      dup2\n      mstore\n      pop\n        /* \"contracts/ExoSupermarche.sol\":720:775  productData memory p = productData(id, _libelle, _prix) */\n      swap1\n      pop\n        /* \"contracts/ExoSupermarche.sol\":842:843  p */\n      dup1\n        /* \"contracts/ExoSupermarche.sol\":823:835  productsById */\n      0x01\n        /* \"contracts/ExoSupermarche.sol\":823:839  productsById[id] */\n      0x00\n        /* \"contracts/ExoSupermarche.sol\":836:838  id */\n      dup5\n        /* \"contracts/ExoSupermarche.sol\":823:839  productsById[id] */\n      dup2\n      mstore\n      0x20\n      add\n      swap1\n      dup2\n      mstore\n      0x20\n      add\n      0x00\n      keccak256\n        /* \"contracts/ExoSupermarche.sol\":823:843  productsById[id] = p */\n      0x00\n      dup3\n      add\n      mload\n      dup2\n      0x00\n      add\n      sstore\n      0x20\n      dup3\n      add\n      mload\n      dup2\n      0x01\n      add\n      swap1\n      dup1\n      mload\n      swap1\n      0x20\n      add\n      swap1\n      tag_39\n      swap3\n      swap2\n      swap1\n      tag_33\n      jump\t// in\n    tag_39:\n      pop\n      0x40\n      dup3\n      add\n      mload\n      dup2\n      0x02\n      add\n      exp(0x0100, 0x00)\n      dup2\n      sload\n      dup2\n      0xffff\n      mul\n      not\n      and\n      swap1\n      dup4\n      0x01\n      signextend\n      0xffff\n      and\n      mul\n      or\n      swap1\n      sstore\n      pop\n      swap1\n      pop\n      pop\n        /* \"contracts/ExoSupermarche.sol\":881:882  p */\n      dup1\n        /* \"contracts/ExoSupermarche.sol\":854:868  productsByName */\n      0x02\n        /* \"contracts/ExoSupermarche.sol\":869:877  _libelle */\n      dup6\n        /* \"contracts/ExoSupermarche.sol\":854:878  productsByName[_libelle] */\n      mload(0x40)\n      tag_40\n      swap2\n      swap1\n      tag_41\n      jump\t// in\n    tag_40:\n      swap1\n      dup2\n      mstore\n      0x20\n      add\n      mload(0x40)\n      dup1\n      swap2\n      sub\n      swap1\n      keccak256\n        /* \"contracts/ExoSupermarche.sol\":854:882  productsByName[_libelle] = p */\n      0x00\n      dup3\n      add\n      mload\n      dup2\n      0x00\n      add\n      sstore\n      0x20\n      dup3\n      add\n      mload\n      dup2\n      0x01\n      add\n      swap1\n      dup1\n      mload\n      swap1\n      0x20\n      add\n      swap1\n      tag_42\n      swap3\n      swap2\n      swap1\n      tag_33\n      jump\t// in\n    tag_42:\n      pop\n      0x40\n      dup3\n      add\n      mload\n      dup2\n      0x02\n      add\n      exp(0x0100, 0x00)\n      dup2\n      sload\n      dup2\n      0xffff\n      mul\n      not\n      and\n      swap1\n      dup4\n      0x01\n      signextend\n      0xffff\n      and\n      mul\n      or\n      swap1\n      sstore\n      pop\n      swap1\n      pop\n      pop\n        /* \"contracts/ExoSupermarche.sol\":641:890  {\r... */\n      pop\n      pop\n        /* \"contracts/ExoSupermarche.sol\":574:890  function createProduit(string memory _libelle, int16 _prix) public {\r... */\n      pop\n      pop\n      jump\t// out\n        /* \"contracts/ExoSupermarche.sol\":1461:1572  function setProductInfoPrice(uint _id, int16 _price) public {\r... */\n    tag_19:\n        /* \"contracts/ExoSupermarche.sol\":1558:1564  _price */\n      dup1\n        /* \"contracts/ExoSupermarche.sol\":1532:1544  productsById */\n      0x01\n        /* \"contracts/ExoSupermarche.sol\":1532:1549  productsById[_id] */\n      0x00\n        /* \"contracts/ExoSupermarche.sol\":1545:1548  _id */\n      dup5\n        /* \"contracts/ExoSupermarche.sol\":1532:1549  productsById[_id] */\n      dup2\n      mstore\n      0x20\n      add\n      swap1\n      dup2\n      mstore\n      0x20\n      add\n      0x00\n      keccak256\n        /* \"contracts/ExoSupermarche.sol\":1532:1555  productsById[_id].price */\n      0x02\n      add\n      0x00\n        /* \"contracts/ExoSupermarche.sol\":1532:1564  productsById[_id].price = _price */\n      0x0100\n      exp\n      dup2\n      sload\n      dup2\n      0xffff\n      mul\n      not\n      and\n      swap1\n      dup4\n      0x01\n      signextend\n      0xffff\n      and\n      mul\n      or\n      swap1\n      sstore\n      pop\n        /* \"contracts/ExoSupermarche.sol\":1461:1572  function setProductInfoPrice(uint _id, int16 _price) public {\r... */\n      pop\n      pop\n      jump\t// out\n        /* \"contracts/ExoSupermarche.sol\":901:1096  function getProductInfoById(uint _id) public view returns(string memory, int16) {\r... */\n    tag_23:\n        /* \"contracts/ExoSupermarche.sol\":959:972  string memory */\n      0x60\n        /* \"contracts/ExoSupermarche.sol\":974:979  int16 */\n      0x00\n        /* \"contracts/ExoSupermarche.sol\":1014:1026  productsById */\n      0x01\n        /* \"contracts/ExoSupermarche.sol\":1014:1031  productsById[_id] */\n      0x00\n        /* \"contracts/ExoSupermarche.sol\":1027:1030  _id */\n      dup5\n        /* \"contracts/ExoSupermarche.sol\":1014:1031  productsById[_id] */\n      dup2\n      mstore\n      0x20\n      add\n      swap1\n      dup2\n      mstore\n      0x20\n      add\n      0x00\n      keccak256\n        /* \"contracts/ExoSupermarche.sol\":1014:1039  productsById[_id].libelle */\n      0x01\n      add\n        /* \"contracts/ExoSupermarche.sol\":1054:1066  productsById */\n      0x01\n        /* \"contracts/ExoSupermarche.sol\":1054:1071  productsById[_id] */\n      0x00\n        /* \"contracts/ExoSupermarche.sol\":1067:1070  _id */\n      dup6\n        /* \"contracts/ExoSupermarche.sol\":1054:1071  productsById[_id] */\n      dup2\n      mstore\n      0x20\n      add\n      swap1\n      dup2\n      mstore\n      0x20\n      add\n      0x00\n      keccak256\n        /* \"contracts/ExoSupermarche.sol\":1054:1077  productsById[_id].price */\n      0x02\n      add\n      0x00\n      swap1\n      sload\n      swap1\n      0x0100\n      exp\n      swap1\n      div\n      0x01\n      signextend\n        /* \"contracts/ExoSupermarche.sol\":992:1088  return (\r... */\n      dup2\n      dup1\n      sload\n      tag_45\n      swap1\n      tag_46\n      jump\t// in\n    tag_45:\n      dup1\n      0x1f\n      add\n      0x20\n      dup1\n      swap2\n      div\n      mul\n      0x20\n      add\n      mload(0x40)\n      swap1\n      dup2\n      add\n      0x40\n      mstore\n      dup1\n      swap3\n      swap2\n      swap1\n      dup2\n      dup2\n      mstore\n      0x20\n      add\n      dup3\n      dup1\n      sload\n      tag_47\n      swap1\n      tag_46\n      jump\t// in\n    tag_47:\n      dup1\n      iszero\n      tag_48\n      jumpi\n      dup1\n      0x1f\n      lt\n      tag_49\n      jumpi\n      0x0100\n      dup1\n      dup4\n      sload\n      div\n      mul\n      dup4\n      mstore\n      swap2\n      0x20\n      add\n      swap2\n      jump(tag_48)\n    tag_49:\n      dup3\n      add\n      swap2\n      swap1\n      0x00\n      mstore\n      keccak256(0x00, 0x20)\n      swap1\n    tag_50:\n      dup2\n      sload\n      dup2\n      mstore\n      swap1\n      0x01\n      add\n      swap1\n      0x20\n      add\n      dup1\n      dup4\n      gt\n      tag_50\n      jumpi\n      dup3\n      swap1\n      sub\n      0x1f\n      and\n      dup3\n      add\n      swap2\n    tag_48:\n      pop\n      pop\n      pop\n      pop\n      pop\n      swap2\n      pop\n      swap2\n      pop\n      swap2\n      pop\n        /* \"contracts/ExoSupermarche.sol\":901:1096  function getProductInfoById(uint _id) public view returns(string memory, int16) {\r... */\n      swap2\n      pop\n      swap2\n      jump\t// out\n        /* \"contracts/ExoSupermarche.sol\":1105:1321  function getProductInfoByName(string memory _name) public view returns(string memory, int16) {\r... */\n    tag_29:\n        /* \"contracts/ExoSupermarche.sol\":1176:1189  string memory */\n      0x60\n        /* \"contracts/ExoSupermarche.sol\":1191:1196  int16 */\n      0x00\n        /* \"contracts/ExoSupermarche.sol\":1231:1245  productsByName */\n      0x02\n        /* \"contracts/ExoSupermarche.sol\":1246:1251  _name */\n      dup4\n        /* \"contracts/ExoSupermarche.sol\":1231:1252  productsByName[_name] */\n      mload(0x40)\n      tag_52\n      swap2\n      swap1\n      tag_41\n      jump\t// in\n    tag_52:\n      swap1\n      dup2\n      mstore\n      0x20\n      add\n      mload(0x40)\n      dup1\n      swap2\n      sub\n      swap1\n      keccak256\n        /* \"contracts/ExoSupermarche.sol\":1231:1260  productsByName[_name].libelle */\n      0x01\n      add\n        /* \"contracts/ExoSupermarche.sol\":1275:1289  productsByName */\n      0x02\n        /* \"contracts/ExoSupermarche.sol\":1290:1295  _name */\n      dup5\n        /* \"contracts/ExoSupermarche.sol\":1275:1296  productsByName[_name] */\n      mload(0x40)\n      tag_53\n      swap2\n      swap1\n      tag_41\n      jump\t// in\n    tag_53:\n      swap1\n      dup2\n      mstore\n      0x20\n      add\n      mload(0x40)\n      dup1\n      swap2\n      sub\n      swap1\n      keccak256\n        /* \"contracts/ExoSupermarche.sol\":1275:1302  productsByName[_name].price */\n      0x02\n      add\n      0x00\n      swap1\n      sload\n      swap1\n      0x0100\n      exp\n      swap1\n      div\n      0x01\n      signextend\n        /* \"contracts/ExoSupermarche.sol\":1209:1313  return (\r... */\n      dup2\n      dup1\n      sload\n      tag_54\n      swap1\n      tag_46\n      jump\t// in\n    tag_54:\n      dup1\n      0x1f\n      add\n      0x20\n      dup1\n      swap2\n      div\n      mul\n      0x20\n      add\n      mload(0x40)\n      swap1\n      dup2\n      add\n      0x40\n      mstore\n      dup1\n      swap3\n      swap2\n      swap1\n      dup2\n      dup2\n      mstore\n      0x20\n      add\n      dup3\n      dup1\n      sload\n      tag_55\n      swap1\n      tag_46\n      jump\t// in\n    tag_55:\n      dup1\n      iszero\n      tag_56\n      jumpi\n      dup1\n      0x1f\n      lt\n      tag_57\n      jumpi\n      0x0100\n      dup1\n      dup4\n      sload\n      div\n      mul\n      dup4\n      mstore\n      swap2\n      0x20\n      add\n      swap2\n      jump(tag_56)\n    tag_57:\n      dup3\n      add\n      swap2\n      swap1\n      0x00\n      mstore\n      keccak256(0x00, 0x20)\n      swap1\n    tag_58:\n      dup2\n      sload\n      dup2\n      mstore\n      swap1\n      0x01\n      add\n      swap1\n      0x20\n      add\n      dup1\n      dup4\n      gt\n      tag_58\n      jumpi\n      dup3\n      swap1\n      sub\n      0x1f\n      and\n      dup3\n      add\n      swap2\n    tag_56:\n      pop\n      pop\n      pop\n      pop\n      pop\n      swap2\n      pop\n      swap2\n      pop\n      swap2\n      pop\n        /* \"contracts/ExoSupermarche.sol\":1105:1321  function getProductInfoByName(string memory _name) public view returns(string memory, int16) {\r... */\n      swap2\n      pop\n      swap2\n      jump\t// out\n    tag_33:\n      dup3\n      dup1\n      sload\n      tag_59\n      swap1\n      tag_46\n      jump\t// in\n    tag_59:\n      swap1\n      0x00\n      mstore\n      keccak256(0x00, 0x20)\n      swap1\n      0x1f\n      add\n      0x20\n      swap1\n      div\n      dup2\n      add\n      swap3\n      dup3\n      tag_61\n      jumpi\n      0x00\n      dup6\n      sstore\n      jump(tag_60)\n    tag_61:\n      dup3\n      0x1f\n      lt\n      tag_62\n      jumpi\n      dup1\n      mload\n      not(0xff)\n      and\n      dup4\n      dup1\n      add\n      or\n      dup6\n      sstore\n      jump(tag_60)\n    tag_62:\n      dup3\n      dup1\n      add\n      0x01\n      add\n      dup6\n      sstore\n      dup3\n      iszero\n      tag_60\n      jumpi\n      swap2\n      dup3\n      add\n    tag_63:\n      dup3\n      dup2\n      gt\n      iszero\n      tag_64\n      jumpi\n      dup3\n      mload\n      dup3\n      sstore\n      swap2\n      0x20\n      add\n      swap2\n      swap1\n      0x01\n      add\n      swap1\n      jump(tag_63)\n    tag_64:\n    tag_60:\n      pop\n      swap1\n      pop\n      tag_65\n      swap2\n      swap1\n      tag_66\n      jump\t// in\n    tag_65:\n      pop\n      swap1\n      jump\t// out\n    tag_66:\n    tag_67:\n      dup1\n      dup3\n      gt\n      iszero\n      tag_68\n      jumpi\n      0x00\n      dup2\n      0x00\n      swap1\n      sstore\n      pop\n      0x01\n      add\n      jump(tag_67)\n    tag_68:\n      pop\n      swap1\n      jump\t// out\n        /* \"#utility.yul\":7:419   */\n    tag_70:\n        /* \"#utility.yul\":85:90   */\n      0x00\n        /* \"#utility.yul\":110:176   */\n      tag_72\n        /* \"#utility.yul\":126:175   */\n      tag_73\n        /* \"#utility.yul\":168:174   */\n      dup5\n        /* \"#utility.yul\":126:175   */\n      tag_74\n      jump\t// in\n    tag_73:\n        /* \"#utility.yul\":110:176   */\n      tag_75\n      jump\t// in\n    tag_72:\n        /* \"#utility.yul\":101:176   */\n      swap1\n      pop\n        /* \"#utility.yul\":199:205   */\n      dup3\n        /* \"#utility.yul\":192:197   */\n      dup2\n        /* \"#utility.yul\":185:206   */\n      mstore\n        /* \"#utility.yul\":237:241   */\n      0x20\n        /* \"#utility.yul\":230:235   */\n      dup2\n        /* \"#utility.yul\":226:242   */\n      add\n        /* \"#utility.yul\":275:278   */\n      dup5\n        /* \"#utility.yul\":266:272   */\n      dup5\n        /* \"#utility.yul\":261:264   */\n      dup5\n        /* \"#utility.yul\":257:273   */\n      add\n        /* \"#utility.yul\":254:279   */\n      gt\n        /* \"#utility.yul\":251:363   */\n      iszero\n      tag_76\n      jumpi\n        /* \"#utility.yul\":282:361   */\n      tag_77\n      tag_78\n      jump\t// in\n    tag_77:\n        /* \"#utility.yul\":251:363   */\n    tag_76:\n        /* \"#utility.yul\":372:413   */\n      tag_79\n        /* \"#utility.yul\":406:412   */\n      dup5\n        /* \"#utility.yul\":401:404   */\n      dup3\n        /* \"#utility.yul\":396:399   */\n      dup6\n        /* \"#utility.yul\":372:413   */\n      tag_80\n      jump\t// in\n    tag_79:\n        /* \"#utility.yul\":91:419   */\n      pop\n        /* \"#utility.yul\":7:419   */\n      swap4\n      swap3\n      pop\n      pop\n      pop\n      jump\t// out\n        /* \"#utility.yul\":425:560   */\n    tag_81:\n        /* \"#utility.yul\":469:474   */\n      0x00\n        /* \"#utility.yul\":507:513   */\n      dup2\n        /* \"#utility.yul\":494:514   */\n      calldataload\n        /* \"#utility.yul\":485:514   */\n      swap1\n      pop\n        /* \"#utility.yul\":523:554   */\n      tag_83\n        /* \"#utility.yul\":548:553   */\n      dup2\n        /* \"#utility.yul\":523:554   */\n      tag_84\n      jump\t// in\n    tag_83:\n        /* \"#utility.yul\":425:560   */\n      swap3\n      swap2\n      pop\n      pop\n      jump\t// out\n        /* \"#utility.yul\":580:920   */\n    tag_85:\n        /* \"#utility.yul\":636:641   */\n      0x00\n        /* \"#utility.yul\":685:688   */\n      dup3\n        /* \"#utility.yul\":678:682   */\n      0x1f\n        /* \"#utility.yul\":670:676   */\n      dup4\n        /* \"#utility.yul\":666:683   */\n      add\n        /* \"#utility.yul\":662:689   */\n      slt\n        /* \"#utility.yul\":652:774   */\n      tag_87\n      jumpi\n        /* \"#utility.yul\":693:772   */\n      tag_88\n      tag_89\n      jump\t// in\n    tag_88:\n        /* \"#utility.yul\":652:774   */\n    tag_87:\n        /* \"#utility.yul\":810:816   */\n      dup2\n        /* \"#utility.yul\":797:817   */\n      calldataload\n        /* \"#utility.yul\":835:914   */\n      tag_90\n        /* \"#utility.yul\":910:913   */\n      dup5\n        /* \"#utility.yul\":902:908   */\n      dup3\n        /* \"#utility.yul\":895:899   */\n      0x20\n        /* \"#utility.yul\":887:893   */\n      dup7\n        /* \"#utility.yul\":883:900   */\n      add\n        /* \"#utility.yul\":835:914   */\n      tag_70\n      jump\t// in\n    tag_90:\n        /* \"#utility.yul\":826:914   */\n      swap2\n      pop\n        /* \"#utility.yul\":642:920   */\n      pop\n        /* \"#utility.yul\":580:920   */\n      swap3\n      swap2\n      pop\n      pop\n      jump\t// out\n        /* \"#utility.yul\":926:1065   */\n    tag_91:\n        /* \"#utility.yul\":972:977   */\n      0x00\n        /* \"#utility.yul\":1010:1016   */\n      dup2\n        /* \"#utility.yul\":997:1017   */\n      calldataload\n        /* \"#utility.yul\":988:1017   */\n      swap1\n      pop\n        /* \"#utility.yul\":1026:1059   */\n      tag_93\n        /* \"#utility.yul\":1053:1058   */\n      dup2\n        /* \"#utility.yul\":1026:1059   */\n      tag_94\n      jump\t// in\n    tag_93:\n        /* \"#utility.yul\":926:1065   */\n      swap3\n      swap2\n      pop\n      pop\n      jump\t// out\n        /* \"#utility.yul\":1071:1580   */\n    tag_28:\n        /* \"#utility.yul\":1140:1146   */\n      0x00\n        /* \"#utility.yul\":1189:1191   */\n      0x20\n        /* \"#utility.yul\":1177:1186   */\n      dup3\n        /* \"#utility.yul\":1168:1175   */\n      dup5\n        /* \"#utility.yul\":1164:1187   */\n      sub\n        /* \"#utility.yul\":1160:1192   */\n      slt\n        /* \"#utility.yul\":1157:1276   */\n      iszero\n      tag_96\n      jumpi\n        /* \"#utility.yul\":1195:1274   */\n      tag_97\n      tag_98\n      jump\t// in\n    tag_97:\n        /* \"#utility.yul\":1157:1276   */\n    tag_96:\n        /* \"#utility.yul\":1343:1344   */\n      0x00\n        /* \"#utility.yul\":1332:1341   */\n      dup3\n        /* \"#utility.yul\":1328:1345   */\n      add\n        /* \"#utility.yul\":1315:1346   */\n      calldataload\n        /* \"#utility.yul\":1373:1391   */\n      0xffffffffffffffff\n        /* \"#utility.yul\":1365:1371   */\n      dup2\n        /* \"#utility.yul\":1362:1392   */\n      gt\n        /* \"#utility.yul\":1359:1476   */\n      iszero\n      tag_99\n      jumpi\n        /* \"#utility.yul\":1395:1474   */\n      tag_100\n      tag_101\n      jump\t// in\n    tag_100:\n        /* \"#utility.yul\":1359:1476   */\n    tag_99:\n        /* \"#utility.yul\":1500:1563   */\n      tag_102\n        /* \"#utility.yul\":1555:1562   */\n      dup5\n        /* \"#utility.yul\":1546:1552   */\n      dup3\n        /* \"#utility.yul\":1535:1544   */\n      dup6\n        /* \"#utility.yul\":1531:1553   */\n      add\n        /* \"#utility.yul\":1500:1563   */\n      tag_85\n      jump\t// in\n    tag_102:\n        /* \"#utility.yul\":1490:1563   */\n      swap2\n      pop\n        /* \"#utility.yul\":1286:1573   */\n      pop\n        /* \"#utility.yul\":1071:1580   */\n      swap3\n      swap2\n      pop\n      pop\n      jump\t// out\n        /* \"#utility.yul\":1586:2236   */\n    tag_14:\n        /* \"#utility.yul\":1662:1668   */\n      0x00\n        /* \"#utility.yul\":1670:1676   */\n      dup1\n        /* \"#utility.yul\":1719:1721   */\n      0x40\n        /* \"#utility.yul\":1707:1716   */\n      dup4\n        /* \"#utility.yul\":1698:1705   */\n      dup6\n        /* \"#utility.yul\":1694:1717   */\n      sub\n        /* \"#utility.yul\":1690:1722   */\n      slt\n        /* \"#utility.yul\":1687:1806   */\n      iszero\n      tag_104\n      jumpi\n        /* \"#utility.yul\":1725:1804   */\n      tag_105\n      tag_98\n      jump\t// in\n    tag_105:\n        /* \"#utility.yul\":1687:1806   */\n    tag_104:\n        /* \"#utility.yul\":1873:1874   */\n      0x00\n        /* \"#utility.yul\":1862:1871   */\n      dup4\n        /* \"#utility.yul\":1858:1875   */\n      add\n        /* \"#utility.yul\":1845:1876   */\n      calldataload\n        /* \"#utility.yul\":1903:1921   */\n      0xffffffffffffffff\n        /* \"#utility.yul\":1895:1901   */\n      dup2\n        /* \"#utility.yul\":1892:1922   */\n      gt\n        /* \"#utility.yul\":1889:2006   */\n      iszero\n      tag_106\n      jumpi\n        /* \"#utility.yul\":1925:2004   */\n      tag_107\n      tag_101\n      jump\t// in\n    tag_107:\n        /* \"#utility.yul\":1889:2006   */\n    tag_106:\n        /* \"#utility.yul\":2030:2093   */\n      tag_108\n        /* \"#utility.yul\":2085:2092   */\n      dup6\n        /* \"#utility.yul\":2076:2082   */\n      dup3\n        /* \"#utility.yul\":2065:2074   */\n      dup7\n        /* \"#utility.yul\":2061:2083   */\n      add\n        /* \"#utility.yul\":2030:2093   */\n      tag_85\n      jump\t// in\n    tag_108:\n        /* \"#utility.yul\":2020:2093   */\n      swap3\n      pop\n        /* \"#utility.yul\":1816:2103   */\n      pop\n        /* \"#utility.yul\":2142:2144   */\n      0x20\n        /* \"#utility.yul\":2168:2219   */\n      tag_109\n        /* \"#utility.yul\":2211:2218   */\n      dup6\n        /* \"#utility.yul\":2202:2208   */\n      dup3\n        /* \"#utility.yul\":2191:2200   */\n      dup7\n        /* \"#utility.yul\":2187:2209   */\n      add\n        /* \"#utility.yul\":2168:2219   */\n      tag_81\n      jump\t// in\n    tag_109:\n        /* \"#utility.yul\":2158:2219   */\n      swap2\n      pop\n        /* \"#utility.yul\":2113:2229   */\n      pop\n        /* \"#utility.yul\":1586:2236   */\n      swap3\n      pop\n      swap3\n      swap1\n      pop\n      jump\t// out\n        /* \"#utility.yul\":2242:2571   */\n    tag_22:\n        /* \"#utility.yul\":2301:2307   */\n      0x00\n        /* \"#utility.yul\":2350:2352   */\n      0x20\n        /* \"#utility.yul\":2338:2347   */\n      dup3\n        /* \"#utility.yul\":2329:2336   */\n      dup5\n        /* \"#utility.yul\":2325:2348   */\n      sub\n        /* \"#utility.yul\":2321:2353   */\n      slt\n        /* \"#utility.yul\":2318:2437   */\n      iszero\n      tag_111\n      jumpi\n        /* \"#utility.yul\":2356:2435   */\n      tag_112\n      tag_98\n      jump\t// in\n    tag_112:\n        /* \"#utility.yul\":2318:2437   */\n    tag_111:\n        /* \"#utility.yul\":2476:2477   */\n      0x00\n        /* \"#utility.yul\":2501:2554   */\n      tag_113\n        /* \"#utility.yul\":2546:2553   */\n      dup5\n        /* \"#utility.yul\":2537:2543   */\n      dup3\n        /* \"#utility.yul\":2526:2535   */\n      dup6\n        /* \"#utility.yul\":2522:2544   */\n      add\n        /* \"#utility.yul\":2501:2554   */\n      tag_91\n      jump\t// in\n    tag_113:\n        /* \"#utility.yul\":2491:2554   */\n      swap2\n      pop\n        /* \"#utility.yul\":2447:2564   */\n      pop\n        /* \"#utility.yul\":2242:2571   */\n      swap3\n      swap2\n      pop\n      pop\n      jump\t// out\n        /* \"#utility.yul\":2577:3047   */\n    tag_18:\n        /* \"#utility.yul\":2643:2649   */\n      0x00\n        /* \"#utility.yul\":2651:2657   */\n      dup1\n        /* \"#utility.yul\":2700:2702   */\n      0x40\n        /* \"#utility.yul\":2688:2697   */\n      dup4\n        /* \"#utility.yul\":2679:2686   */\n      dup6\n        /* \"#utility.yul\":2675:2698   */\n      sub\n        /* \"#utility.yul\":2671:2703   */\n      slt\n        /* \"#utility.yul\":2668:2787   */\n      iszero\n      tag_115\n      jumpi\n        /* \"#utility.yul\":2706:2785   */\n      tag_116\n      tag_98\n      jump\t// in\n    tag_116:\n        /* \"#utility.yul\":2668:2787   */\n    tag_115:\n        /* \"#utility.yul\":2826:2827   */\n      0x00\n        /* \"#utility.yul\":2851:2904   */\n      tag_117\n        /* \"#utility.yul\":2896:2903   */\n      dup6\n        /* \"#utility.yul\":2887:2893   */\n      dup3\n        /* \"#utility.yul\":2876:2885   */\n      dup7\n        /* \"#utility.yul\":2872:2894   */\n      add\n        /* \"#utility.yul\":2851:2904   */\n      tag_91\n      jump\t// in\n    tag_117:\n        /* \"#utility.yul\":2841:2904   */\n      swap3\n      pop\n        /* \"#utility.yul\":2797:2914   */\n      pop\n        /* \"#utility.yul\":2953:2955   */\n      0x20\n        /* \"#utility.yul\":2979:3030   */\n      tag_118\n        /* \"#utility.yul\":3022:3029   */\n      dup6\n        /* \"#utility.yul\":3013:3019   */\n      dup3\n        /* \"#utility.yul\":3002:3011   */\n      dup7\n        /* \"#utility.yul\":2998:3020   */\n      add\n        /* \"#utility.yul\":2979:3030   */\n      tag_81\n      jump\t// in\n    tag_118:\n        /* \"#utility.yul\":2969:3030   */\n      swap2\n      pop\n        /* \"#utility.yul\":2924:3040   */\n      pop\n        /* \"#utility.yul\":2577:3047   */\n      swap3\n      pop\n      swap3\n      swap1\n      pop\n      jump\t// out\n        /* \"#utility.yul\":3053:3707   */\n    tag_10:\n        /* \"#utility.yul\":3131:3137   */\n      0x00\n        /* \"#utility.yul\":3139:3145   */\n      dup1\n        /* \"#utility.yul\":3188:3190   */\n      0x40\n        /* \"#utility.yul\":3176:3185   */\n      dup4\n        /* \"#utility.yul\":3167:3174   */\n      dup6\n        /* \"#utility.yul\":3163:3186   */\n      sub\n        /* \"#utility.yul\":3159:3191   */\n      slt\n        /* \"#utility.yul\":3156:3275   */\n      iszero\n      tag_120\n      jumpi\n        /* \"#utility.yul\":3194:3273   */\n      tag_121\n      tag_98\n      jump\t// in\n    tag_121:\n        /* \"#utility.yul\":3156:3275   */\n    tag_120:\n        /* \"#utility.yul\":3314:3315   */\n      0x00\n        /* \"#utility.yul\":3339:3392   */\n      tag_122\n        /* \"#utility.yul\":3384:3391   */\n      dup6\n        /* \"#utility.yul\":3375:3381   */\n      dup3\n        /* \"#utility.yul\":3364:3373   */\n      dup7\n        /* \"#utility.yul\":3360:3382   */\n      add\n        /* \"#utility.yul\":3339:3392   */\n      tag_91\n      jump\t// in\n    tag_122:\n        /* \"#utility.yul\":3329:3392   */\n      swap3\n      pop\n        /* \"#utility.yul\":3285:3402   */\n      pop\n        /* \"#utility.yul\":3469:3471   */\n      0x20\n        /* \"#utility.yul\":3458:3467   */\n      dup4\n        /* \"#utility.yul\":3454:3472   */\n      add\n        /* \"#utility.yul\":3441:3473   */\n      calldataload\n        /* \"#utility.yul\":3500:3518   */\n      0xffffffffffffffff\n        /* \"#utility.yul\":3492:3498   */\n      dup2\n        /* \"#utility.yul\":3489:3519   */\n      gt\n        /* \"#utility.yul\":3486:3603   */\n      iszero\n      tag_123\n      jumpi\n        /* \"#utility.yul\":3522:3601   */\n      tag_124\n      tag_101\n      jump\t// in\n    tag_124:\n        /* \"#utility.yul\":3486:3603   */\n    tag_123:\n        /* \"#utility.yul\":3627:3690   */\n      tag_125\n        /* \"#utility.yul\":3682:3689   */\n      dup6\n        /* \"#utility.yul\":3673:3679   */\n      dup3\n        /* \"#utility.yul\":3662:3671   */\n      dup7\n        /* \"#utility.yul\":3658:3680   */\n      add\n        /* \"#utility.yul\":3627:3690   */\n      tag_85\n      jump\t// in\n    tag_125:\n        /* \"#utility.yul\":3617:3690   */\n      swap2\n      pop\n        /* \"#utility.yul\":3412:3700   */\n      pop\n        /* \"#utility.yul\":3053:3707   */\n      swap3\n      pop\n      swap3\n      swap1\n      pop\n      jump\t// out\n        /* \"#utility.yul\":3713:3825   */\n    tag_126:\n        /* \"#utility.yul\":3796:3818   */\n      tag_128\n        /* \"#utility.yul\":3812:3817   */\n      dup2\n        /* \"#utility.yul\":3796:3818   */\n      tag_129\n      jump\t// in\n    tag_128:\n        /* \"#utility.yul\":3791:3794   */\n      dup3\n        /* \"#utility.yul\":3784:3819   */\n      mstore\n        /* \"#utility.yul\":3713:3825   */\n      pop\n      pop\n      jump\t// out\n        /* \"#utility.yul\":3831:4195   */\n    tag_130:\n        /* \"#utility.yul\":3919:3922   */\n      0x00\n        /* \"#utility.yul\":3947:3986   */\n      tag_132\n        /* \"#utility.yul\":3980:3985   */\n      dup3\n        /* \"#utility.yul\":3947:3986   */\n      tag_133\n      jump\t// in\n    tag_132:\n        /* \"#utility.yul\":4002:4073   */\n      tag_134\n        /* \"#utility.yul\":4066:4072   */\n      dup2\n        /* \"#utility.yul\":4061:4064   */\n      dup6\n        /* \"#utility.yul\":4002:4073   */\n      tag_135\n      jump\t// in\n    tag_134:\n        /* \"#utility.yul\":3995:4073   */\n      swap4\n      pop\n        /* \"#utility.yul\":4082:4134   */\n      tag_136\n        /* \"#utility.yul\":4127:4133   */\n      dup2\n        /* \"#utility.yul\":4122:4125   */\n      dup6\n        /* \"#utility.yul\":4115:4119   */\n      0x20\n        /* \"#utility.yul\":4108:4113   */\n      dup7\n        /* \"#utility.yul\":4104:4120   */\n      add\n        /* \"#utility.yul\":4082:4134   */\n      tag_137\n      jump\t// in\n    tag_136:\n        /* \"#utility.yul\":4159:4188   */\n      tag_138\n        /* \"#utility.yul\":4181:4187   */\n      dup2\n        /* \"#utility.yul\":4159:4188   */\n      tag_139\n      jump\t// in\n    tag_138:\n        /* \"#utility.yul\":4154:4157   */\n      dup5\n        /* \"#utility.yul\":4150:4189   */\n      add\n        /* \"#utility.yul\":4143:4189   */\n      swap2\n      pop\n        /* \"#utility.yul\":3923:4195   */\n      pop\n        /* \"#utility.yul\":3831:4195   */\n      swap3\n      swap2\n      pop\n      pop\n      jump\t// out\n        /* \"#utility.yul\":4201:4578   */\n    tag_140:\n        /* \"#utility.yul\":4307:4310   */\n      0x00\n        /* \"#utility.yul\":4335:4374   */\n      tag_142\n        /* \"#utility.yul\":4368:4373   */\n      dup3\n        /* \"#utility.yul\":4335:4374   */\n      tag_133\n      jump\t// in\n    tag_142:\n        /* \"#utility.yul\":4390:4479   */\n      tag_143\n        /* \"#utility.yul\":4472:4478   */\n      dup2\n        /* \"#utility.yul\":4467:4470   */\n      dup6\n        /* \"#utility.yul\":4390:4479   */\n      tag_144\n      jump\t// in\n    tag_143:\n        /* \"#utility.yul\":4383:4479   */\n      swap4\n      pop\n        /* \"#utility.yul\":4488:4540   */\n      tag_145\n        /* \"#utility.yul\":4533:4539   */\n      dup2\n        /* \"#utility.yul\":4528:4531   */\n      dup6\n        /* \"#utility.yul\":4521:4525   */\n      0x20\n        /* \"#utility.yul\":4514:4519   */\n      dup7\n        /* \"#utility.yul\":4510:4526   */\n      add\n        /* \"#utility.yul\":4488:4540   */\n      tag_137\n      jump\t// in\n    tag_145:\n        /* \"#utility.yul\":4565:4571   */\n      dup1\n        /* \"#utility.yul\":4560:4563   */\n      dup5\n        /* \"#utility.yul\":4556:4572   */\n      add\n        /* \"#utility.yul\":4549:4572   */\n      swap2\n      pop\n        /* \"#utility.yul\":4311:4578   */\n      pop\n        /* \"#utility.yul\":4201:4578   */\n      swap3\n      swap2\n      pop\n      pop\n      jump\t// out\n        /* \"#utility.yul\":4584:4859   */\n    tag_41:\n        /* \"#utility.yul\":4716:4719   */\n      0x00\n        /* \"#utility.yul\":4738:4833   */\n      tag_147\n        /* \"#utility.yul\":4829:4832   */\n      dup3\n        /* \"#utility.yul\":4820:4826   */\n      dup5\n        /* \"#utility.yul\":4738:4833   */\n      tag_140\n      jump\t// in\n    tag_147:\n        /* \"#utility.yul\":4731:4833   */\n      swap2\n      pop\n        /* \"#utility.yul\":4850:4853   */\n      dup2\n        /* \"#utility.yul\":4843:4853   */\n      swap1\n      pop\n        /* \"#utility.yul\":4584:4859   */\n      swap3\n      swap2\n      pop\n      pop\n      jump\t// out\n        /* \"#utility.yul\":4865:5280   */\n    tag_25:\n        /* \"#utility.yul\":5002:5006   */\n      0x00\n        /* \"#utility.yul\":5040:5042   */\n      0x40\n        /* \"#utility.yul\":5029:5038   */\n      dup3\n        /* \"#utility.yul\":5025:5043   */\n      add\n        /* \"#utility.yul\":5017:5043   */\n      swap1\n      pop\n        /* \"#utility.yul\":5089:5098   */\n      dup2\n        /* \"#utility.yul\":5083:5087   */\n      dup2\n        /* \"#utility.yul\":5079:5099   */\n      sub\n        /* \"#utility.yul\":5075:5076   */\n      0x00\n        /* \"#utility.yul\":5064:5073   */\n      dup4\n        /* \"#utility.yul\":5060:5077   */\n      add\n        /* \"#utility.yul\":5053:5100   */\n      mstore\n        /* \"#utility.yul\":5117:5195   */\n      tag_149\n        /* \"#utility.yul\":5190:5194   */\n      dup2\n        /* \"#utility.yul\":5181:5187   */\n      dup6\n        /* \"#utility.yul\":5117:5195   */\n      tag_130\n      jump\t// in\n    tag_149:\n        /* \"#utility.yul\":5109:5195   */\n      swap1\n      pop\n        /* \"#utility.yul\":5205:5273   */\n      tag_150\n        /* \"#utility.yul\":5269:5271   */\n      0x20\n        /* \"#utility.yul\":5258:5267   */\n      dup4\n        /* \"#utility.yul\":5254:5272   */\n      add\n        /* \"#utility.yul\":5245:5251   */\n      dup5\n        /* \"#utility.yul\":5205:5273   */\n      tag_126\n      jump\t// in\n    tag_150:\n        /* \"#utility.yul\":4865:5280   */\n      swap4\n      swap3\n      pop\n      pop\n      pop\n      jump\t// out\n        /* \"#utility.yul\":5286:5415   */\n    tag_75:\n        /* \"#utility.yul\":5320:5326   */\n      0x00\n        /* \"#utility.yul\":5347:5367   */\n      tag_152\n      tag_153\n      jump\t// in\n    tag_152:\n        /* \"#utility.yul\":5337:5367   */\n      swap1\n      pop\n        /* \"#utility.yul\":5376:5409   */\n      tag_154\n        /* \"#utility.yul\":5404:5408   */\n      dup3\n        /* \"#utility.yul\":5396:5402   */\n      dup3\n        /* \"#utility.yul\":5376:5409   */\n      tag_155\n      jump\t// in\n    tag_154:\n        /* \"#utility.yul\":5286:5415   */\n      swap2\n      swap1\n      pop\n      jump\t// out\n        /* \"#utility.yul\":5421:5496   */\n    tag_153:\n        /* \"#utility.yul\":5454:5460   */\n      0x00\n        /* \"#utility.yul\":5487:5489   */\n      0x40\n        /* \"#utility.yul\":5481:5490   */\n      mload\n        /* \"#utility.yul\":5471:5490   */\n      swap1\n      pop\n        /* \"#utility.yul\":5421:5496   */\n      swap1\n      jump\t// out\n        /* \"#utility.yul\":5502:5810   */\n    tag_74:\n        /* \"#utility.yul\":5564:5568   */\n      0x00\n        /* \"#utility.yul\":5654:5672   */\n      0xffffffffffffffff\n        /* \"#utility.yul\":5646:5652   */\n      dup3\n        /* \"#utility.yul\":5643:5673   */\n      gt\n        /* \"#utility.yul\":5640:5696   */\n      iszero\n      tag_158\n      jumpi\n        /* \"#utility.yul\":5676:5694   */\n      tag_159\n      tag_160\n      jump\t// in\n    tag_159:\n        /* \"#utility.yul\":5640:5696   */\n    tag_158:\n        /* \"#utility.yul\":5714:5743   */\n      tag_161\n        /* \"#utility.yul\":5736:5742   */\n      dup3\n        /* \"#utility.yul\":5714:5743   */\n      tag_139\n      jump\t// in\n    tag_161:\n        /* \"#utility.yul\":5706:5743   */\n      swap1\n      pop\n        /* \"#utility.yul\":5798:5802   */\n      0x20\n        /* \"#utility.yul\":5792:5796   */\n      dup2\n        /* \"#utility.yul\":5788:5803   */\n      add\n        /* \"#utility.yul\":5780:5803   */\n      swap1\n      pop\n        /* \"#utility.yul\":5502:5810   */\n      swap2\n      swap1\n      pop\n      jump\t// out\n        /* \"#utility.yul\":5816:5915   */\n    tag_133:\n        /* \"#utility.yul\":5868:5874   */\n      0x00\n        /* \"#utility.yul\":5902:5907   */\n      dup2\n        /* \"#utility.yul\":5896:5908   */\n      mload\n        /* \"#utility.yul\":5886:5908   */\n      swap1\n      pop\n        /* \"#utility.yul\":5816:5915   */\n      swap2\n      swap1\n      pop\n      jump\t// out\n        /* \"#utility.yul\":5921:6090   */\n    tag_135:\n        /* \"#utility.yul\":6005:6016   */\n      0x00\n        /* \"#utility.yul\":6039:6045   */\n      dup3\n        /* \"#utility.yul\":6034:6037   */\n      dup3\n        /* \"#utility.yul\":6027:6046   */\n      mstore\n        /* \"#utility.yul\":6079:6083   */\n      0x20\n        /* \"#utility.yul\":6074:6077   */\n      dup3\n        /* \"#utility.yul\":6070:6084   */\n      add\n        /* \"#utility.yul\":6055:6084   */\n      swap1\n      pop\n        /* \"#utility.yul\":5921:6090   */\n      swap3\n      swap2\n      pop\n      pop\n      jump\t// out\n        /* \"#utility.yul\":6096:6244   */\n    tag_144:\n        /* \"#utility.yul\":6198:6209   */\n      0x00\n        /* \"#utility.yul\":6235:6238   */\n      dup2\n        /* \"#utility.yul\":6220:6238   */\n      swap1\n      pop\n        /* \"#utility.yul\":6096:6244   */\n      swap3\n      swap2\n      pop\n      pop\n      jump\t// out\n        /* \"#utility.yul\":6250:6555   */\n    tag_36:\n        /* \"#utility.yul\":6290:6293   */\n      0x00\n        /* \"#utility.yul\":6309:6329   */\n      tag_166\n        /* \"#utility.yul\":6327:6328   */\n      dup3\n        /* \"#utility.yul\":6309:6329   */\n      tag_167\n      jump\t// in\n    tag_166:\n        /* \"#utility.yul\":6304:6329   */\n      swap2\n      pop\n        /* \"#utility.yul\":6343:6363   */\n      tag_168\n        /* \"#utility.yul\":6361:6362   */\n      dup4\n        /* \"#utility.yul\":6343:6363   */\n      tag_167\n      jump\t// in\n    tag_168:\n        /* \"#utility.yul\":6338:6363   */\n      swap3\n      pop\n        /* \"#utility.yul\":6497:6498   */\n      dup3\n        /* \"#utility.yul\":6429:6495   */\n      0xffffffffffffffffffffffffffffffffffffffffffffffffffffffffffffffff\n        /* \"#utility.yul\":6425:6499   */\n      sub\n        /* \"#utility.yul\":6422:6423   */\n      dup3\n        /* \"#utility.yul\":6419:6500   */\n      gt\n        /* \"#utility.yul\":6416:6523   */\n      iszero\n      tag_169\n      jumpi\n        /* \"#utility.yul\":6503:6521   */\n      tag_170\n      tag_171\n      jump\t// in\n    tag_170:\n        /* \"#utility.yul\":6416:6523   */\n    tag_169:\n        /* \"#utility.yul\":6547:6548   */\n      dup3\n        /* \"#utility.yul\":6544:6545   */\n      dup3\n        /* \"#utility.yul\":6540:6549   */\n      add\n        /* \"#utility.yul\":6533:6549   */\n      swap1\n      pop\n        /* \"#utility.yul\":6250:6555   */\n      swap3\n      swap2\n      pop\n      pop\n      jump\t// out\n        /* \"#utility.yul\":6561:6651   */\n    tag_129:\n        /* \"#utility.yul\":6596:6603   */\n      0x00\n        /* \"#utility.yul\":6639:6644   */\n      dup2\n        /* \"#utility.yul\":6636:6637   */\n      0x01\n        /* \"#utility.yul\":6625:6645   */\n      signextend\n        /* \"#utility.yul\":6614:6645   */\n      swap1\n      pop\n        /* \"#utility.yul\":6561:6651   */\n      swap2\n      swap1\n      pop\n      jump\t// out\n        /* \"#utility.yul\":6657:6734   */\n    tag_167:\n        /* \"#utility.yul\":6694:6701   */\n      0x00\n        /* \"#utility.yul\":6723:6728   */\n      dup2\n        /* \"#utility.yul\":6712:6728   */\n      swap1\n      pop\n        /* \"#utility.yul\":6657:6734   */\n      swap2\n      swap1\n      pop\n      jump\t// out\n        /* \"#utility.yul\":6740:6894   */\n    tag_80:\n        /* \"#utility.yul\":6824:6830   */\n      dup3\n        /* \"#utility.yul\":6819:6822   */\n      dup2\n        /* \"#utility.yul\":6814:6817   */\n      dup4\n        /* \"#utility.yul\":6801:6831   */\n      calldatacopy\n        /* \"#utility.yul\":6886:6887   */\n      0x00\n        /* \"#utility.yul\":6877:6883   */\n      dup4\n        /* \"#utility.yul\":6872:6875   */\n      dup4\n        /* \"#utility.yul\":6868:6884   */\n      add\n        /* \"#utility.yul\":6861:6888   */\n      mstore\n        /* \"#utility.yul\":6740:6894   */\n      pop\n      pop\n      pop\n      jump\t// out\n        /* \"#utility.yul\":6900:7207   */\n    tag_137:\n        /* \"#utility.yul\":6968:6969   */\n      0x00\n        /* \"#utility.yul\":6978:7091   */\n    tag_176:\n        /* \"#utility.yul\":6992:6998   */\n      dup4\n        /* \"#utility.yul\":6989:6990   */\n      dup2\n        /* \"#utility.yul\":6986:6999   */\n      lt\n        /* \"#utility.yul\":6978:7091   */\n      iszero\n      tag_178\n      jumpi\n        /* \"#utility.yul\":7077:7078   */\n      dup1\n        /* \"#utility.yul\":7072:7075   */\n      dup3\n        /* \"#utility.yul\":7068:7079   */\n      add\n        /* \"#utility.yul\":7062:7080   */\n      mload\n        /* \"#utility.yul\":7058:7059   */\n      dup2\n        /* \"#utility.yul\":7053:7056   */\n      dup5\n        /* \"#utility.yul\":7049:7060   */\n      add\n        /* \"#utility.yul\":7042:7081   */\n      mstore\n        /* \"#utility.yul\":7014:7016   */\n      0x20\n        /* \"#utility.yul\":7011:7012   */\n      dup2\n        /* \"#utility.yul\":7007:7017   */\n      add\n        /* \"#utility.yul\":7002:7017   */\n      swap1\n      pop\n        /* \"#utility.yul\":6978:7091   */\n      jump(tag_176)\n    tag_178:\n        /* \"#utility.yul\":7109:7115   */\n      dup4\n        /* \"#utility.yul\":7106:7107   */\n      dup2\n        /* \"#utility.yul\":7103:7116   */\n      gt\n        /* \"#utility.yul\":7100:7201   */\n      iszero\n      tag_179\n      jumpi\n        /* \"#utility.yul\":7189:7190   */\n      0x00\n        /* \"#utility.yul\":7180:7186   */\n      dup5\n        /* \"#utility.yul\":7175:7178   */\n      dup5\n        /* \"#utility.yul\":7171:7187   */\n      add\n        /* \"#utility.yul\":7164:7191   */\n      mstore\n        /* \"#utility.yul\":7100:7201   */\n    tag_179:\n        /* \"#utility.yul\":6949:7207   */\n      pop\n        /* \"#utility.yul\":6900:7207   */\n      pop\n      pop\n      pop\n      jump\t// out\n        /* \"#utility.yul\":7213:7533   */\n    tag_46:\n        /* \"#utility.yul\":7257:7263   */\n      0x00\n        /* \"#utility.yul\":7294:7295   */\n      0x02\n        /* \"#utility.yul\":7288:7292   */\n      dup3\n        /* \"#utility.yul\":7284:7296   */\n      div\n        /* \"#utility.yul\":7274:7296   */\n      swap1\n      pop\n        /* \"#utility.yul\":7341:7342   */\n      0x01\n        /* \"#utility.yul\":7335:7339   */\n      dup3\n        /* \"#utility.yul\":7331:7343   */\n      and\n        /* \"#utility.yul\":7362:7380   */\n      dup1\n        /* \"#utility.yul\":7352:7433   */\n      tag_181\n      jumpi\n        /* \"#utility.yul\":7418:7422   */\n      0x7f\n        /* \"#utility.yul\":7410:7416   */\n      dup3\n        /* \"#utility.yul\":7406:7423   */\n      and\n        /* \"#utility.yul\":7396:7423   */\n      swap2\n      pop\n        /* \"#utility.yul\":7352:7433   */\n    tag_181:\n        /* \"#utility.yul\":7480:7482   */\n      0x20\n        /* \"#utility.yul\":7472:7478   */\n      dup3\n        /* \"#utility.yul\":7469:7483   */\n      lt\n        /* \"#utility.yul\":7449:7467   */\n      dup2\n        /* \"#utility.yul\":7446:7484   */\n      eq\n        /* \"#utility.yul\":7443:7527   */\n      iszero\n      tag_182\n      jumpi\n        /* \"#utility.yul\":7499:7517   */\n      tag_183\n      tag_184\n      jump\t// in\n    tag_183:\n        /* \"#utility.yul\":7443:7527   */\n    tag_182:\n        /* \"#utility.yul\":7264:7533   */\n      pop\n        /* \"#utility.yul\":7213:7533   */\n      swap2\n      swap1\n      pop\n      jump\t// out\n        /* \"#utility.yul\":7539:7820   */\n    tag_155:\n        /* \"#utility.yul\":7622:7649   */\n      tag_186\n        /* \"#utility.yul\":7644:7648   */\n      dup3\n        /* \"#utility.yul\":7622:7649   */\n      tag_139\n      jump\t// in\n    tag_186:\n        /* \"#utility.yul\":7614:7620   */\n      dup2\n        /* \"#utility.yul\":7610:7650   */\n      add\n        /* \"#utility.yul\":7752:7758   */\n      dup2\n        /* \"#utility.yul\":7740:7750   */\n      dup2\n        /* \"#utility.yul\":7737:7759   */\n      lt\n        /* \"#utility.yul\":7716:7734   */\n      0xffffffffffffffff\n        /* \"#utility.yul\":7704:7714   */\n      dup3\n        /* \"#utility.yul\":7701:7735   */\n      gt\n        /* \"#utility.yul\":7698:7760   */\n      or\n        /* \"#utility.yul\":7695:7783   */\n      iszero\n      tag_187\n      jumpi\n        /* \"#utility.yul\":7763:7781   */\n      tag_188\n      tag_160\n      jump\t// in\n    tag_188:\n        /* \"#utility.yul\":7695:7783   */\n    tag_187:\n        /* \"#utility.yul\":7803:7813   */\n      dup1\n        /* \"#utility.yul\":7799:7801   */\n      0x40\n        /* \"#utility.yul\":7792:7814   */\n      mstore\n        /* \"#utility.yul\":7582:7820   */\n      pop\n        /* \"#utility.yul\":7539:7820   */\n      pop\n      pop\n      jump\t// out\n        /* \"#utility.yul\":7826:8059   */\n    tag_38:\n        /* \"#utility.yul\":7865:7868   */\n      0x00\n        /* \"#utility.yul\":7888:7912   */\n      tag_190\n        /* \"#utility.yul\":7906:7911   */\n      dup3\n        /* \"#utility.yul\":7888:7912   */\n      tag_167\n      jump\t// in\n    tag_190:\n        /* \"#utility.yul\":7879:7912   */\n      swap2\n      pop\n        /* \"#utility.yul\":7934:8000   */\n      0xffffffffffffffffffffffffffffffffffffffffffffffffffffffffffffffff\n        /* \"#utility.yul\":7927:7932   */\n      dup3\n        /* \"#utility.yul\":7924:8001   */\n      eq\n        /* \"#utility.yul\":7921:8024   */\n      iszero\n      tag_191\n      jumpi\n        /* \"#utility.yul\":8004:8022   */\n      tag_192\n      tag_171\n      jump\t// in\n    tag_192:\n        /* \"#utility.yul\":7921:8024   */\n    tag_191:\n        /* \"#utility.yul\":8051:8052   */\n      0x01\n        /* \"#utility.yul\":8044:8049   */\n      dup3\n        /* \"#utility.yul\":8040:8053   */\n      add\n        /* \"#utility.yul\":8033:8053   */\n      swap1\n      pop\n        /* \"#utility.yul\":7826:8059   */\n      swap2\n      swap1\n      pop\n      jump\t// out\n        /* \"#utility.yul\":8065:8245   */\n    tag_171:\n        /* \"#utility.yul\":8113:8190   */\n      0x4e487b7100000000000000000000000000000000000000000000000000000000\n        /* \"#utility.yul\":8110:8111   */\n      0x00\n        /* \"#utility.yul\":8103:8191   */\n      mstore\n        /* \"#utility.yul\":8210:8214   */\n      0x11\n        /* \"#utility.yul\":8207:8208   */\n      0x04\n        /* \"#utility.yul\":8200:8215   */\n      mstore\n        /* \"#utility.yul\":8234:8238   */\n      0x24\n        /* \"#utility.yul\":8231:8232   */\n      0x00\n        /* \"#utility.yul\":8224:8239   */\n      revert\n        /* \"#utility.yul\":8251:8431   */\n    tag_184:\n        /* \"#utility.yul\":8299:8376   */\n      0x4e487b7100000000000000000000000000000000000000000000000000000000\n        /* \"#utility.yul\":8296:8297   */\n      0x00\n        /* \"#utility.yul\":8289:8377   */\n      mstore\n        /* \"#utility.yul\":8396:8400   */\n      0x22\n        /* \"#utility.yul\":8393:8394   */\n      0x04\n        /* \"#utility.yul\":8386:8401   */\n      mstore\n        /* \"#utility.yul\":8420:8424   */\n      0x24\n        /* \"#utility.yul\":8417:8418   */\n      0x00\n        /* \"#utility.yul\":8410:8425   */\n      revert\n        /* \"#utility.yul\":8437:8617   */\n    tag_160:\n        /* \"#utility.yul\":8485:8562   */\n      0x4e487b7100000000000000000000000000000000000000000000000000000000\n        /* \"#utility.yul\":8482:8483   */\n      0x00\n        /* \"#utility.yul\":8475:8563   */\n      mstore\n        /* \"#utility.yul\":8582:8586   */\n      0x41\n        /* \"#utility.yul\":8579:8580   */\n      0x04\n        /* \"#utility.yul\":8572:8587   */\n      mstore\n        /* \"#utility.yul\":8606:8610   */\n      0x24\n        /* \"#utility.yul\":8603:8604   */\n      0x00\n        /* \"#utility.yul\":8596:8611   */\n      revert\n        /* \"#utility.yul\":8623:8740   */\n    tag_89:\n        /* \"#utility.yul\":8732:8733   */\n      0x00\n        /* \"#utility.yul\":8729:8730   */\n      dup1\n        /* \"#utility.yul\":8722:8734   */\n      revert\n        /* \"#utility.yul\":8746:8863   */\n    tag_78:\n        /* \"#utility.yul\":8855:8856   */\n      0x00\n        /* \"#utility.yul\":8852:8853   */\n      dup1\n        /* \"#utility.yul\":8845:8857   */\n      revert\n        /* \"#utility.yul\":8869:8986   */\n    tag_101:\n        /* \"#utility.yul\":8978:8979   */\n      0x00\n        /* \"#utility.yul\":8975:8976   */\n      dup1\n        /* \"#utility.yul\":8968:8980   */\n      revert\n        /* \"#utility.yul\":8992:9109   */\n    tag_98:\n        /* \"#utility.yul\":9101:9102   */\n      0x00\n        /* \"#utility.yul\":9098:9099   */\n      dup1\n        /* \"#utility.yul\":9091:9103   */\n      revert\n        /* \"#utility.yul\":9115:9217   */\n    tag_139:\n        /* \"#utility.yul\":9156:9162   */\n      0x00\n        /* \"#utility.yul\":9207:9209   */\n      0x1f\n        /* \"#utility.yul\":9203:9210   */\n      not\n        /* \"#utility.yul\":9198:9200   */\n      0x1f\n        /* \"#utility.yul\":9191:9196   */\n      dup4\n        /* \"#utility.yul\":9187:9201   */\n      add\n        /* \"#utility.yul\":9183:9211   */\n      and\n        /* \"#utility.yul\":9173:9211   */\n      swap1\n      pop\n        /* \"#utility.yul\":9115:9217   */\n      swap2\n      swap1\n      pop\n      jump\t// out\n        /* \"#utility.yul\":9223:9341   */\n    tag_84:\n        /* \"#utility.yul\":9294:9316   */\n      tag_202\n        /* \"#utility.yul\":9310:9315   */\n      dup2\n        /* \"#utility.yul\":9294:9316   */\n      tag_129\n      jump\t// in\n    tag_202:\n        /* \"#utility.yul\":9287:9292   */\n      dup2\n        /* \"#utility.yul\":9284:9317   */\n      eq\n        /* \"#utility.yul\":9274:9335   */\n      tag_203\n      jumpi\n        /* \"#utility.yul\":9331:9332   */\n      0x00\n        /* \"#utility.yul\":9328:9329   */\n      dup1\n        /* \"#utility.yul\":9321:9333   */\n      revert\n        /* \"#utility.yul\":9274:9335   */\n    tag_203:\n        /* \"#utility.yul\":9223:9341   */\n      pop\n      jump\t// out\n        /* \"#utility.yul\":9347:9469   */\n    tag_94:\n        /* \"#utility.yul\":9420:9444   */\n      tag_205\n        /* \"#utility.yul\":9438:9443   */\n      dup2\n        /* \"#utility.yul\":9420:9444   */\n      tag_167\n      jump\t// in\n    tag_205:\n        /* \"#utility.yul\":9413:9418   */\n      dup2\n        /* \"#utility.yul\":9410:9445   */\n      eq\n        /* \"#utility.yul\":9400:9463   */\n      tag_206\n      jumpi\n        /* \"#utility.yul\":9459:9460   */\n      0x00\n        /* \"#utility.yul\":9456:9457   */\n      dup1\n        /* \"#utility.yul\":9449:9461   */\n      revert\n        /* \"#utility.yul\":9400:9463   */\n    tag_206:\n        /* \"#utility.yul\":9347:9469   */\n      pop\n      jump\t// out\n\n    auxdata: 0xa26469706673582212203da3f844b43ba6f60827743c33f96e214561236c5f23db2b7edb0567ac40833764736f6c63430008070033\n}\n",
				"bytecode": {
					"linkReferences": {},
					"object": "6080604052600080553480156200001557600080fd5b506200005e6040518060400160405280600681526020017f62616e616e650000000000000000000000000000000000000000000000000000815250600a620000f460201b60201c565b620000a66040518060400160405280600681526020017f6672616973650000000000000000000000000000000000000000000000000000815250600f620000f460201b60201c565b620000ee6040518060400160405280600581526020017f706f6d6d650000000000000000000000000000000000000000000000000000008152506008620000f460201b60201c565b620004b8565b6000600160005462000107919062000339565b90506000808154809291906200011d906200040c565b9190505550600060405180606001604052808381526020018581526020018460010b815250905080600160008481526020019081526020016000206000820151816000015560208201518160010190805190602001906200018092919062000223565b5060408201518160020160006101000a81548161ffff021916908360010b61ffff16021790555090505080600285604051620001bd91906200030a565b9081526020016040518091039020600082015181600001556020820151816001019080519060200190620001f392919062000223565b5060408201518160020160006101000a81548161ffff021916908360010b61ffff16021790555090505050505050565b8280546200023190620003d6565b90600052602060002090601f016020900481019282620002555760008555620002a1565b82601f106200027057805160ff1916838001178555620002a1565b82800160010185558215620002a1579182015b82811115620002a057825182559160200191906001019062000283565b5b509050620002b09190620002b4565b5090565b5b80821115620002cf576000816000905550600101620002b5565b5090565b6000620002e08262000323565b620002ec81856200032e565b9350620002fe818560208601620003a0565b80840191505092915050565b6000620003188284620002d3565b915081905092915050565b600081519050919050565b600081905092915050565b6000620003468262000396565b9150620003538362000396565b9250827fffffffffffffffffffffffffffffffffffffffffffffffffffffffffffffffff038211156200038b576200038a6200045a565b5b828201905092915050565b6000819050919050565b60005b83811015620003c0578082015181840152602081019050620003a3565b83811115620003d0576000848401525b50505050565b60006002820490506001821680620003ef57607f821691505b6020821081141562000406576200040562000489565b5b50919050565b6000620004198262000396565b91507fffffffffffffffffffffffffffffffffffffffffffffffffffffffffffffffff8214156200044f576200044e6200045a565b5b600182019050919050565b7f4e487b7100000000000000000000000000000000000000000000000000000000600052601160045260246000fd5b7f4e487b7100000000000000000000000000000000000000000000000000000000600052602260045260246000fd5b610ab380620004c86000396000f3fe608060405234801561001057600080fd5b50600436106100575760003560e01c80633117b11c1461005c57806351401eef1461007857806362c2886b1461009457806365c3e805146100b0578063d7f4933c146100e1575b600080fd5b610076600480360381019061007191906106a9565b610112565b005b610092600480360381019061008d91906105e0565b610141565b005b6100ae60048036038101906100a99190610669565b610266565b005b6100ca60048036038101906100c5919061063c565b61029e565b6040516100d8929190610795565b60405180910390f35b6100fb60048036038101906100f69190610597565b610371565b604051610109929190610795565b60405180910390f35b8060016000848152602001908152602001600020600101908051906020019061013c92919061045a565b505050565b600060016000546101529190610842565b905060008081548092919061016690610954565b9190505550600060405180606001604052808381526020018581526020018460010b815250905080600160008481526020019081526020016000206000820151816000015560208201518160010190805190602001906101c792919061045a565b5060408201518160020160006101000a81548161ffff021916908360010b61ffff16021790555090505080600285604051610202919061077e565b908152602001604051809103902060008201518160000155602082015181600101908051906020019061023692919061045a565b5060408201518160020160006101000a81548161ffff021916908360010b61ffff16021790555090505050505050565b806001600084815260200190815260200160002060020160006101000a81548161ffff021916908360010b61ffff1602179055505050565b60606000600160008481526020019081526020016000206001016001600085815260200190815260200160002060020160009054906101000a900460010b8180546102e8906108f1565b80601f0160208091040260200160405190810160405280929190818152602001828054610314906108f1565b80156103615780601f1061033657610100808354040283529160200191610361565b820191906000526020600020905b81548152906001019060200180831161034457829003601f168201915b5050505050915091509150915091565b60606000600283604051610385919061077e565b90815260200160405180910390206001016002846040516103a6919061077e565b908152602001604051809103902060020160009054906101000a900460010b8180546103d1906108f1565b80601f01602080910402602001604051908101604052809291908181526020018280546103fd906108f1565b801561044a5780601f1061041f5761010080835404028352916020019161044a565b820191906000526020600020905b81548152906001019060200180831161042d57829003601f168201915b5050505050915091509150915091565b828054610466906108f1565b90600052602060002090601f01602090048101928261048857600085556104cf565b82601f106104a157805160ff19168380011785556104cf565b828001600101855582156104cf579182015b828111156104ce5782518255916020019190600101906104b3565b5b5090506104dc91906104e0565b5090565b5b808211156104f95760008160009055506001016104e1565b5090565b600061051061050b846107ea565b6107c5565b90508281526020810184848401111561052c5761052b610a2f565b5b6105378482856108af565b509392505050565b60008135905061054e81610a4f565b92915050565b600082601f83011261056957610568610a2a565b5b81356105798482602086016104fd565b91505092915050565b60008135905061059181610a66565b92915050565b6000602082840312156105ad576105ac610a39565b5b600082013567ffffffffffffffff8111156105cb576105ca610a34565b5b6105d784828501610554565b91505092915050565b600080604083850312156105f7576105f6610a39565b5b600083013567ffffffffffffffff81111561061557610614610a34565b5b61062185828601610554565b92505060206106328582860161053f565b9150509250929050565b60006020828403121561065257610651610a39565b5b600061066084828501610582565b91505092915050565b600080604083850312156106805761067f610a39565b5b600061068e85828601610582565b925050602061069f8582860161053f565b9150509250929050565b600080604083850312156106c0576106bf610a39565b5b60006106ce85828601610582565b925050602083013567ffffffffffffffff8111156106ef576106ee610a34565b5b6106fb85828601610554565b9150509250929050565b61070e81610898565b82525050565b600061071f8261081b565b6107298185610826565b93506107398185602086016108be565b61074281610a3e565b840191505092915050565b60006107588261081b565b6107628185610837565b93506107728185602086016108be565b80840191505092915050565b600061078a828461074d565b915081905092915050565b600060408201905081810360008301526107af8185610714565b90506107be6020830184610705565b9392505050565b60006107cf6107e0565b90506107db8282610923565b919050565b6000604051905090565b600067ffffffffffffffff821115610805576108046109fb565b5b61080e82610a3e565b9050602081019050919050565b600081519050919050565b600082825260208201905092915050565b600081905092915050565b600061084d826108a5565b9150610858836108a5565b9250827fffffffffffffffffffffffffffffffffffffffffffffffffffffffffffffffff0382111561088d5761088c61099d565b5b828201905092915050565b60008160010b9050919050565b6000819050919050565b82818337600083830152505050565b60005b838110156108dc5780820151818401526020810190506108c1565b838111156108eb576000848401525b50505050565b6000600282049050600182168061090957607f821691505b6020821081141561091d5761091c6109cc565b5b50919050565b61092c82610a3e565b810181811067ffffffffffffffff8211171561094b5761094a6109fb565b5b80604052505050565b600061095f826108a5565b91507fffffffffffffffffffffffffffffffffffffffffffffffffffffffffffffffff8214156109925761099161099d565b5b600182019050919050565b7f4e487b7100000000000000000000000000000000000000000000000000000000600052601160045260246000fd5b7f4e487b7100000000000000000000000000000000000000000000000000000000600052602260045260246000fd5b7f4e487b7100000000000000000000000000000000000000000000000000000000600052604160045260246000fd5b600080fd5b600080fd5b600080fd5b600080fd5b6000601f19601f8301169050919050565b610a5881610898565b8114610a6357600080fd5b50565b610a6f816108a5565b8114610a7a57600080fd5b5056fea26469706673582212203da3f844b43ba6f60827743c33f96e214561236c5f23db2b7edb0567ac40833764736f6c63430008070033",
					"opcodes": "PUSH1 0x80 PUSH1 0x40 MSTORE PUSH1 0x0 DUP1 SSTORE CALLVALUE DUP1 ISZERO PUSH3 0x15 JUMPI PUSH1 0x0 DUP1 REVERT JUMPDEST POP PUSH3 0x5E PUSH1 0x40 MLOAD DUP1 PUSH1 0x40 ADD PUSH1 0x40 MSTORE DUP1 PUSH1 0x6 DUP2 MSTORE PUSH1 0x20 ADD PUSH32 0x62616E616E650000000000000000000000000000000000000000000000000000 DUP2 MSTORE POP PUSH1 0xA PUSH3 0xF4 PUSH1 0x20 SHL PUSH1 0x20 SHR JUMP JUMPDEST PUSH3 0xA6 PUSH1 0x40 MLOAD DUP1 PUSH1 0x40 ADD PUSH1 0x40 MSTORE DUP1 PUSH1 0x6 DUP2 MSTORE PUSH1 0x20 ADD PUSH32 0x6672616973650000000000000000000000000000000000000000000000000000 DUP2 MSTORE POP PUSH1 0xF PUSH3 0xF4 PUSH1 0x20 SHL PUSH1 0x20 SHR JUMP JUMPDEST PUSH3 0xEE PUSH1 0x40 MLOAD DUP1 PUSH1 0x40 ADD PUSH1 0x40 MSTORE DUP1 PUSH1 0x5 DUP2 MSTORE PUSH1 0x20 ADD PUSH32 0x706F6D6D65000000000000000000000000000000000000000000000000000000 DUP2 MSTORE POP PUSH1 0x8 PUSH3 0xF4 PUSH1 0x20 SHL PUSH1 0x20 SHR JUMP JUMPDEST PUSH3 0x4B8 JUMP JUMPDEST PUSH1 0x0 PUSH1 0x1 PUSH1 0x0 SLOAD PUSH3 0x107 SWAP2 SWAP1 PUSH3 0x339 JUMP JUMPDEST SWAP1 POP PUSH1 0x0 DUP1 DUP2 SLOAD DUP1 SWAP3 SWAP2 SWAP1 PUSH3 0x11D SWAP1 PUSH3 0x40C JUMP JUMPDEST SWAP2 SWAP1 POP SSTORE POP PUSH1 0x0 PUSH1 0x40 MLOAD DUP1 PUSH1 0x60 ADD PUSH1 0x40 MSTORE DUP1 DUP4 DUP2 MSTORE PUSH1 0x20 ADD DUP6 DUP2 MSTORE PUSH1 0x20 ADD DUP5 PUSH1 0x1 SIGNEXTEND DUP2 MSTORE POP SWAP1 POP DUP1 PUSH1 0x1 PUSH1 0x0 DUP5 DUP2 MSTORE PUSH1 0x20 ADD SWAP1 DUP2 MSTORE PUSH1 0x20 ADD PUSH1 0x0 KECCAK256 PUSH1 0x0 DUP3 ADD MLOAD DUP2 PUSH1 0x0 ADD SSTORE PUSH1 0x20 DUP3 ADD MLOAD DUP2 PUSH1 0x1 ADD SWAP1 DUP1 MLOAD SWAP1 PUSH1 0x20 ADD SWAP1 PUSH3 0x180 SWAP3 SWAP2 SWAP1 PUSH3 0x223 JUMP JUMPDEST POP PUSH1 0x40 DUP3 ADD MLOAD DUP2 PUSH1 0x2 ADD PUSH1 0x0 PUSH2 0x100 EXP DUP2 SLOAD DUP2 PUSH2 0xFFFF MUL NOT AND SWAP1 DUP4 PUSH1 0x1 SIGNEXTEND PUSH2 0xFFFF AND MUL OR SWAP1 SSTORE POP SWAP1 POP POP DUP1 PUSH1 0x2 DUP6 PUSH1 0x40 MLOAD PUSH3 0x1BD SWAP2 SWAP1 PUSH3 0x30A JUMP JUMPDEST SWAP1 DUP2 MSTORE PUSH1 0x20 ADD PUSH1 0x40 MLOAD DUP1 SWAP2 SUB SWAP1 KECCAK256 PUSH1 0x0 DUP3 ADD MLOAD DUP2 PUSH1 0x0 ADD SSTORE PUSH1 0x20 DUP3 ADD MLOAD DUP2 PUSH1 0x1 ADD SWAP1 DUP1 MLOAD SWAP1 PUSH1 0x20 ADD SWAP1 PUSH3 0x1F3 SWAP3 SWAP2 SWAP1 PUSH3 0x223 JUMP JUMPDEST POP PUSH1 0x40 DUP3 ADD MLOAD DUP2 PUSH1 0x2 ADD PUSH1 0x0 PUSH2 0x100 EXP DUP2 SLOAD DUP2 PUSH2 0xFFFF MUL NOT AND SWAP1 DUP4 PUSH1 0x1 SIGNEXTEND PUSH2 0xFFFF AND MUL OR SWAP1 SSTORE POP SWAP1 POP POP POP POP POP POP JUMP JUMPDEST DUP3 DUP1 SLOAD PUSH3 0x231 SWAP1 PUSH3 0x3D6 JUMP JUMPDEST SWAP1 PUSH1 0x0 MSTORE PUSH1 0x20 PUSH1 0x0 KECCAK256 SWAP1 PUSH1 0x1F ADD PUSH1 0x20 SWAP1 DIV DUP2 ADD SWAP3 DUP3 PUSH3 0x255 JUMPI PUSH1 0x0 DUP6 SSTORE PUSH3 0x2A1 JUMP JUMPDEST DUP3 PUSH1 0x1F LT PUSH3 0x270 JUMPI DUP1 MLOAD PUSH1 0xFF NOT AND DUP4 DUP1 ADD OR DUP6 SSTORE PUSH3 0x2A1 JUMP JUMPDEST DUP3 DUP1 ADD PUSH1 0x1 ADD DUP6 SSTORE DUP3 ISZERO PUSH3 0x2A1 JUMPI SWAP2 DUP3 ADD JUMPDEST DUP3 DUP2 GT ISZERO PUSH3 0x2A0 JUMPI DUP3 MLOAD DUP3 SSTORE SWAP2 PUSH1 0x20 ADD SWAP2 SWAP1 PUSH1 0x1 ADD SWAP1 PUSH3 0x283 JUMP JUMPDEST JUMPDEST POP SWAP1 POP PUSH3 0x2B0 SWAP2 SWAP1 PUSH3 0x2B4 JUMP JUMPDEST POP SWAP1 JUMP JUMPDEST JUMPDEST DUP1 DUP3 GT ISZERO PUSH3 0x2CF JUMPI PUSH1 0x0 DUP2 PUSH1 0x0 SWAP1 SSTORE POP PUSH1 0x1 ADD PUSH3 0x2B5 JUMP JUMPDEST POP SWAP1 JUMP JUMPDEST PUSH1 0x0 PUSH3 0x2E0 DUP3 PUSH3 0x323 JUMP JUMPDEST PUSH3 0x2EC DUP2 DUP6 PUSH3 0x32E JUMP JUMPDEST SWAP4 POP PUSH3 0x2FE DUP2 DUP6 PUSH1 0x20 DUP7 ADD PUSH3 0x3A0 JUMP JUMPDEST DUP1 DUP5 ADD SWAP2 POP POP SWAP3 SWAP2 POP POP JUMP JUMPDEST PUSH1 0x0 PUSH3 0x318 DUP3 DUP5 PUSH3 0x2D3 JUMP JUMPDEST SWAP2 POP DUP2 SWAP1 POP SWAP3 SWAP2 POP POP JUMP JUMPDEST PUSH1 0x0 DUP2 MLOAD SWAP1 POP SWAP2 SWAP1 POP JUMP JUMPDEST PUSH1 0x0 DUP2 SWAP1 POP SWAP3 SWAP2 POP POP JUMP JUMPDEST PUSH1 0x0 PUSH3 0x346 DUP3 PUSH3 0x396 JUMP JUMPDEST SWAP2 POP PUSH3 0x353 DUP4 PUSH3 0x396 JUMP JUMPDEST SWAP3 POP DUP3 PUSH32 0xFFFFFFFFFFFFFFFFFFFFFFFFFFFFFFFFFFFFFFFFFFFFFFFFFFFFFFFFFFFFFFFF SUB DUP3 GT ISZERO PUSH3 0x38B JUMPI PUSH3 0x38A PUSH3 0x45A JUMP JUMPDEST JUMPDEST DUP3 DUP3 ADD SWAP1 POP SWAP3 SWAP2 POP POP JUMP JUMPDEST PUSH1 0x0 DUP2 SWAP1 POP SWAP2 SWAP1 POP JUMP JUMPDEST PUSH1 0x0 JUMPDEST DUP4 DUP2 LT ISZERO PUSH3 0x3C0 JUMPI DUP1 DUP3 ADD MLOAD DUP2 DUP5 ADD MSTORE PUSH1 0x20 DUP2 ADD SWAP1 POP PUSH3 0x3A3 JUMP JUMPDEST DUP4 DUP2 GT ISZERO PUSH3 0x3D0 JUMPI PUSH1 0x0 DUP5 DUP5 ADD MSTORE JUMPDEST POP POP POP POP JUMP JUMPDEST PUSH1 0x0 PUSH1 0x2 DUP3 DIV SWAP1 POP PUSH1 0x1 DUP3 AND DUP1 PUSH3 0x3EF JUMPI PUSH1 0x7F DUP3 AND SWAP2 POP JUMPDEST PUSH1 0x20 DUP3 LT DUP2 EQ ISZERO PUSH3 0x406 JUMPI PUSH3 0x405 PUSH3 0x489 JUMP JUMPDEST JUMPDEST POP SWAP2 SWAP1 POP JUMP JUMPDEST PUSH1 0x0 PUSH3 0x419 DUP3 PUSH3 0x396 JUMP JUMPDEST SWAP2 POP PUSH32 0xFFFFFFFFFFFFFFFFFFFFFFFFFFFFFFFFFFFFFFFFFFFFFFFFFFFFFFFFFFFFFFFF DUP3 EQ ISZERO PUSH3 0x44F JUMPI PUSH3 0x44E PUSH3 0x45A JUMP JUMPDEST JUMPDEST PUSH1 0x1 DUP3 ADD SWAP1 POP SWAP2 SWAP1 POP JUMP JUMPDEST PUSH32 0x4E487B7100000000000000000000000000000000000000000000000000000000 PUSH1 0x0 MSTORE PUSH1 0x11 PUSH1 0x4 MSTORE PUSH1 0x24 PUSH1 0x0 REVERT JUMPDEST PUSH32 0x4E487B7100000000000000000000000000000000000000000000000000000000 PUSH1 0x0 MSTORE PUSH1 0x22 PUSH1 0x4 MSTORE PUSH1 0x24 PUSH1 0x0 REVERT JUMPDEST PUSH2 0xAB3 DUP1 PUSH3 0x4C8 PUSH1 0x0 CODECOPY PUSH1 0x0 RETURN INVALID PUSH1 0x80 PUSH1 0x40 MSTORE CALLVALUE DUP1 ISZERO PUSH2 0x10 JUMPI PUSH1 0x0 DUP1 REVERT JUMPDEST POP PUSH1 0x4 CALLDATASIZE LT PUSH2 0x57 JUMPI PUSH1 0x0 CALLDATALOAD PUSH1 0xE0 SHR DUP1 PUSH4 0x3117B11C EQ PUSH2 0x5C JUMPI DUP1 PUSH4 0x51401EEF EQ PUSH2 0x78 JUMPI DUP1 PUSH4 0x62C2886B EQ PUSH2 0x94 JUMPI DUP1 PUSH4 0x65C3E805 EQ PUSH2 0xB0 JUMPI DUP1 PUSH4 0xD7F4933C EQ PUSH2 0xE1 JUMPI JUMPDEST PUSH1 0x0 DUP1 REVERT JUMPDEST PUSH2 0x76 PUSH1 0x4 DUP1 CALLDATASIZE SUB DUP2 ADD SWAP1 PUSH2 0x71 SWAP2 SWAP1 PUSH2 0x6A9 JUMP JUMPDEST PUSH2 0x112 JUMP JUMPDEST STOP JUMPDEST PUSH2 0x92 PUSH1 0x4 DUP1 CALLDATASIZE SUB DUP2 ADD SWAP1 PUSH2 0x8D SWAP2 SWAP1 PUSH2 0x5E0 JUMP JUMPDEST PUSH2 0x141 JUMP JUMPDEST STOP JUMPDEST PUSH2 0xAE PUSH1 0x4 DUP1 CALLDATASIZE SUB DUP2 ADD SWAP1 PUSH2 0xA9 SWAP2 SWAP1 PUSH2 0x669 JUMP JUMPDEST PUSH2 0x266 JUMP JUMPDEST STOP JUMPDEST PUSH2 0xCA PUSH1 0x4 DUP1 CALLDATASIZE SUB DUP2 ADD SWAP1 PUSH2 0xC5 SWAP2 SWAP1 PUSH2 0x63C JUMP JUMPDEST PUSH2 0x29E JUMP JUMPDEST PUSH1 0x40 MLOAD PUSH2 0xD8 SWAP3 SWAP2 SWAP1 PUSH2 0x795 JUMP JUMPDEST PUSH1 0x40 MLOAD DUP1 SWAP2 SUB SWAP1 RETURN JUMPDEST PUSH2 0xFB PUSH1 0x4 DUP1 CALLDATASIZE SUB DUP2 ADD SWAP1 PUSH2 0xF6 SWAP2 SWAP1 PUSH2 0x597 JUMP JUMPDEST PUSH2 0x371 JUMP JUMPDEST PUSH1 0x40 MLOAD PUSH2 0x109 SWAP3 SWAP2 SWAP1 PUSH2 0x795 JUMP JUMPDEST PUSH1 0x40 MLOAD DUP1 SWAP2 SUB SWAP1 RETURN JUMPDEST DUP1 PUSH1 0x1 PUSH1 0x0 DUP5 DUP2 MSTORE PUSH1 0x20 ADD SWAP1 DUP2 MSTORE PUSH1 0x20 ADD PUSH1 0x0 KECCAK256 PUSH1 0x1 ADD SWAP1 DUP1 MLOAD SWAP1 PUSH1 0x20 ADD SWAP1 PUSH2 0x13C SWAP3 SWAP2 SWAP1 PUSH2 0x45A JUMP JUMPDEST POP POP POP JUMP JUMPDEST PUSH1 0x0 PUSH1 0x1 PUSH1 0x0 SLOAD PUSH2 0x152 SWAP2 SWAP1 PUSH2 0x842 JUMP JUMPDEST SWAP1 POP PUSH1 0x0 DUP1 DUP2 SLOAD DUP1 SWAP3 SWAP2 SWAP1 PUSH2 0x166 SWAP1 PUSH2 0x954 JUMP JUMPDEST SWAP2 SWAP1 POP SSTORE POP PUSH1 0x0 PUSH1 0x40 MLOAD DUP1 PUSH1 0x60 ADD PUSH1 0x40 MSTORE DUP1 DUP4 DUP2 MSTORE PUSH1 0x20 ADD DUP6 DUP2 MSTORE PUSH1 0x20 ADD DUP5 PUSH1 0x1 SIGNEXTEND DUP2 MSTORE POP SWAP1 POP DUP1 PUSH1 0x1 PUSH1 0x0 DUP5 DUP2 MSTORE PUSH1 0x20 ADD SWAP1 DUP2 MSTORE PUSH1 0x20 ADD PUSH1 0x0 KECCAK256 PUSH1 0x0 DUP3 ADD MLOAD DUP2 PUSH1 0x0 ADD SSTORE PUSH1 0x20 DUP3 ADD MLOAD DUP2 PUSH1 0x1 ADD SWAP1 DUP1 MLOAD SWAP1 PUSH1 0x20 ADD SWAP1 PUSH2 0x1C7 SWAP3 SWAP2 SWAP1 PUSH2 0x45A JUMP JUMPDEST POP PUSH1 0x40 DUP3 ADD MLOAD DUP2 PUSH1 0x2 ADD PUSH1 0x0 PUSH2 0x100 EXP DUP2 SLOAD DUP2 PUSH2 0xFFFF MUL NOT AND SWAP1 DUP4 PUSH1 0x1 SIGNEXTEND PUSH2 0xFFFF AND MUL OR SWAP1 SSTORE POP SWAP1 POP POP DUP1 PUSH1 0x2 DUP6 PUSH1 0x40 MLOAD PUSH2 0x202 SWAP2 SWAP1 PUSH2 0x77E JUMP JUMPDEST SWAP1 DUP2 MSTORE PUSH1 0x20 ADD PUSH1 0x40 MLOAD DUP1 SWAP2 SUB SWAP1 KECCAK256 PUSH1 0x0 DUP3 ADD MLOAD DUP2 PUSH1 0x0 ADD SSTORE PUSH1 0x20 DUP3 ADD MLOAD DUP2 PUSH1 0x1 ADD SWAP1 DUP1 MLOAD SWAP1 PUSH1 0x20 ADD SWAP1 PUSH2 0x236 SWAP3 SWAP2 SWAP1 PUSH2 0x45A JUMP JUMPDEST POP PUSH1 0x40 DUP3 ADD MLOAD DUP2 PUSH1 0x2 ADD PUSH1 0x0 PUSH2 0x100 EXP DUP2 SLOAD DUP2 PUSH2 0xFFFF MUL NOT AND SWAP1 DUP4 PUSH1 0x1 SIGNEXTEND PUSH2 0xFFFF AND MUL OR SWAP1 SSTORE POP SWAP1 POP POP POP POP POP POP JUMP JUMPDEST DUP1 PUSH1 0x1 PUSH1 0x0 DUP5 DUP2 MSTORE PUSH1 0x20 ADD SWAP1 DUP2 MSTORE PUSH1 0x20 ADD PUSH1 0x0 KECCAK256 PUSH1 0x2 ADD PUSH1 0x0 PUSH2 0x100 EXP DUP2 SLOAD DUP2 PUSH2 0xFFFF MUL NOT AND SWAP1 DUP4 PUSH1 0x1 SIGNEXTEND PUSH2 0xFFFF AND MUL OR SWAP1 SSTORE POP POP POP JUMP JUMPDEST PUSH1 0x60 PUSH1 0x0 PUSH1 0x1 PUSH1 0x0 DUP5 DUP2 MSTORE PUSH1 0x20 ADD SWAP1 DUP2 MSTORE PUSH1 0x20 ADD PUSH1 0x0 KECCAK256 PUSH1 0x1 ADD PUSH1 0x1 PUSH1 0x0 DUP6 DUP2 MSTORE PUSH1 0x20 ADD SWAP1 DUP2 MSTORE PUSH1 0x20 ADD PUSH1 0x0 KECCAK256 PUSH1 0x2 ADD PUSH1 0x0 SWAP1 SLOAD SWAP1 PUSH2 0x100 EXP SWAP1 DIV PUSH1 0x1 SIGNEXTEND DUP2 DUP1 SLOAD PUSH2 0x2E8 SWAP1 PUSH2 0x8F1 JUMP JUMPDEST DUP1 PUSH1 0x1F ADD PUSH1 0x20 DUP1 SWAP2 DIV MUL PUSH1 0x20 ADD PUSH1 0x40 MLOAD SWAP1 DUP2 ADD PUSH1 0x40 MSTORE DUP1 SWAP3 SWAP2 SWAP1 DUP2 DUP2 MSTORE PUSH1 0x20 ADD DUP3 DUP1 SLOAD PUSH2 0x314 SWAP1 PUSH2 0x8F1 JUMP JUMPDEST DUP1 ISZERO PUSH2 0x361 JUMPI DUP1 PUSH1 0x1F LT PUSH2 0x336 JUMPI PUSH2 0x100 DUP1 DUP4 SLOAD DIV MUL DUP4 MSTORE SWAP2 PUSH1 0x20 ADD SWAP2 PUSH2 0x361 JUMP JUMPDEST DUP3 ADD SWAP2 SWAP1 PUSH1 0x0 MSTORE PUSH1 0x20 PUSH1 0x0 KECCAK256 SWAP1 JUMPDEST DUP2 SLOAD DUP2 MSTORE SWAP1 PUSH1 0x1 ADD SWAP1 PUSH1 0x20 ADD DUP1 DUP4 GT PUSH2 0x344 JUMPI DUP3 SWAP1 SUB PUSH1 0x1F AND DUP3 ADD SWAP2 JUMPDEST POP POP POP POP POP SWAP2 POP SWAP2 POP SWAP2 POP SWAP2 POP SWAP2 JUMP JUMPDEST PUSH1 0x60 PUSH1 0x0 PUSH1 0x2 DUP4 PUSH1 0x40 MLOAD PUSH2 0x385 SWAP2 SWAP1 PUSH2 0x77E JUMP JUMPDEST SWAP1 DUP2 MSTORE PUSH1 0x20 ADD PUSH1 0x40 MLOAD DUP1 SWAP2 SUB SWAP1 KECCAK256 PUSH1 0x1 ADD PUSH1 0x2 DUP5 PUSH1 0x40 MLOAD PUSH2 0x3A6 SWAP2 SWAP1 PUSH2 0x77E JUMP JUMPDEST SWAP1 DUP2 MSTORE PUSH1 0x20 ADD PUSH1 0x40 MLOAD DUP1 SWAP2 SUB SWAP1 KECCAK256 PUSH1 0x2 ADD PUSH1 0x0 SWAP1 SLOAD SWAP1 PUSH2 0x100 EXP SWAP1 DIV PUSH1 0x1 SIGNEXTEND DUP2 DUP1 SLOAD PUSH2 0x3D1 SWAP1 PUSH2 0x8F1 JUMP JUMPDEST DUP1 PUSH1 0x1F ADD PUSH1 0x20 DUP1 SWAP2 DIV MUL PUSH1 0x20 ADD PUSH1 0x40 MLOAD SWAP1 DUP2 ADD PUSH1 0x40 MSTORE DUP1 SWAP3 SWAP2 SWAP1 DUP2 DUP2 MSTORE PUSH1 0x20 ADD DUP3 DUP1 SLOAD PUSH2 0x3FD SWAP1 PUSH2 0x8F1 JUMP JUMPDEST DUP1 ISZERO PUSH2 0x44A JUMPI DUP1 PUSH1 0x1F LT PUSH2 0x41F JUMPI PUSH2 0x100 DUP1 DUP4 SLOAD DIV MUL DUP4 MSTORE SWAP2 PUSH1 0x20 ADD SWAP2 PUSH2 0x44A JUMP JUMPDEST DUP3 ADD SWAP2 SWAP1 PUSH1 0x0 MSTORE PUSH1 0x20 PUSH1 0x0 KECCAK256 SWAP1 JUMPDEST DUP2 SLOAD DUP2 MSTORE SWAP1 PUSH1 0x1 ADD SWAP1 PUSH1 0x20 ADD DUP1 DUP4 GT PUSH2 0x42D JUMPI DUP3 SWAP1 SUB PUSH1 0x1F AND DUP3 ADD SWAP2 JUMPDEST POP POP POP POP POP SWAP2 POP SWAP2 POP SWAP2 POP SWAP2 POP SWAP2 JUMP JUMPDEST DUP3 DUP1 SLOAD PUSH2 0x466 SWAP1 PUSH2 0x8F1 JUMP JUMPDEST SWAP1 PUSH1 0x0 MSTORE PUSH1 0x20 PUSH1 0x0 KECCAK256 SWAP1 PUSH1 0x1F ADD PUSH1 0x20 SWAP1 DIV DUP2 ADD SWAP3 DUP3 PUSH2 0x488 JUMPI PUSH1 0x0 DUP6 SSTORE PUSH2 0x4CF JUMP JUMPDEST DUP3 PUSH1 0x1F LT PUSH2 0x4A1 JUMPI DUP1 MLOAD PUSH1 0xFF NOT AND DUP4 DUP1 ADD OR DUP6 SSTORE PUSH2 0x4CF JUMP JUMPDEST DUP3 DUP1 ADD PUSH1 0x1 ADD DUP6 SSTORE DUP3 ISZERO PUSH2 0x4CF JUMPI SWAP2 DUP3 ADD JUMPDEST DUP3 DUP2 GT ISZERO PUSH2 0x4CE JUMPI DUP3 MLOAD DUP3 SSTORE SWAP2 PUSH1 0x20 ADD SWAP2 SWAP1 PUSH1 0x1 ADD SWAP1 PUSH2 0x4B3 JUMP JUMPDEST JUMPDEST POP SWAP1 POP PUSH2 0x4DC SWAP2 SWAP1 PUSH2 0x4E0 JUMP JUMPDEST POP SWAP1 JUMP JUMPDEST JUMPDEST DUP1 DUP3 GT ISZERO PUSH2 0x4F9 JUMPI PUSH1 0x0 DUP2 PUSH1 0x0 SWAP1 SSTORE POP PUSH1 0x1 ADD PUSH2 0x4E1 JUMP JUMPDEST POP SWAP1 JUMP JUMPDEST PUSH1 0x0 PUSH2 0x510 PUSH2 0x50B DUP5 PUSH2 0x7EA JUMP JUMPDEST PUSH2 0x7C5 JUMP JUMPDEST SWAP1 POP DUP3 DUP2 MSTORE PUSH1 0x20 DUP2 ADD DUP5 DUP5 DUP5 ADD GT ISZERO PUSH2 0x52C JUMPI PUSH2 0x52B PUSH2 0xA2F JUMP JUMPDEST JUMPDEST PUSH2 0x537 DUP5 DUP3 DUP6 PUSH2 0x8AF JUMP JUMPDEST POP SWAP4 SWAP3 POP POP POP JUMP JUMPDEST PUSH1 0x0 DUP2 CALLDATALOAD SWAP1 POP PUSH2 0x54E DUP2 PUSH2 0xA4F JUMP JUMPDEST SWAP3 SWAP2 POP POP JUMP JUMPDEST PUSH1 0x0 DUP3 PUSH1 0x1F DUP4 ADD SLT PUSH2 0x569 JUMPI PUSH2 0x568 PUSH2 0xA2A JUMP JUMPDEST JUMPDEST DUP2 CALLDATALOAD PUSH2 0x579 DUP5 DUP3 PUSH1 0x20 DUP7 ADD PUSH2 0x4FD JUMP JUMPDEST SWAP2 POP POP SWAP3 SWAP2 POP POP JUMP JUMPDEST PUSH1 0x0 DUP2 CALLDATALOAD SWAP1 POP PUSH2 0x591 DUP2 PUSH2 0xA66 JUMP JUMPDEST SWAP3 SWAP2 POP POP JUMP JUMPDEST PUSH1 0x0 PUSH1 0x20 DUP3 DUP5 SUB SLT ISZERO PUSH2 0x5AD JUMPI PUSH2 0x5AC PUSH2 0xA39 JUMP JUMPDEST JUMPDEST PUSH1 0x0 DUP3 ADD CALLDATALOAD PUSH8 0xFFFFFFFFFFFFFFFF DUP2 GT ISZERO PUSH2 0x5CB JUMPI PUSH2 0x5CA PUSH2 0xA34 JUMP JUMPDEST JUMPDEST PUSH2 0x5D7 DUP5 DUP3 DUP6 ADD PUSH2 0x554 JUMP JUMPDEST SWAP2 POP POP SWAP3 SWAP2 POP POP JUMP JUMPDEST PUSH1 0x0 DUP1 PUSH1 0x40 DUP4 DUP6 SUB SLT ISZERO PUSH2 0x5F7 JUMPI PUSH2 0x5F6 PUSH2 0xA39 JUMP JUMPDEST JUMPDEST PUSH1 0x0 DUP4 ADD CALLDATALOAD PUSH8 0xFFFFFFFFFFFFFFFF DUP2 GT ISZERO PUSH2 0x615 JUMPI PUSH2 0x614 PUSH2 0xA34 JUMP JUMPDEST JUMPDEST PUSH2 0x621 DUP6 DUP3 DUP7 ADD PUSH2 0x554 JUMP JUMPDEST SWAP3 POP POP PUSH1 0x20 PUSH2 0x632 DUP6 DUP3 DUP7 ADD PUSH2 0x53F JUMP JUMPDEST SWAP2 POP POP SWAP3 POP SWAP3 SWAP1 POP JUMP JUMPDEST PUSH1 0x0 PUSH1 0x20 DUP3 DUP5 SUB SLT ISZERO PUSH2 0x652 JUMPI PUSH2 0x651 PUSH2 0xA39 JUMP JUMPDEST JUMPDEST PUSH1 0x0 PUSH2 0x660 DUP5 DUP3 DUP6 ADD PUSH2 0x582 JUMP JUMPDEST SWAP2 POP POP SWAP3 SWAP2 POP POP JUMP JUMPDEST PUSH1 0x0 DUP1 PUSH1 0x40 DUP4 DUP6 SUB SLT ISZERO PUSH2 0x680 JUMPI PUSH2 0x67F PUSH2 0xA39 JUMP JUMPDEST JUMPDEST PUSH1 0x0 PUSH2 0x68E DUP6 DUP3 DUP7 ADD PUSH2 0x582 JUMP JUMPDEST SWAP3 POP POP PUSH1 0x20 PUSH2 0x69F DUP6 DUP3 DUP7 ADD PUSH2 0x53F JUMP JUMPDEST SWAP2 POP POP SWAP3 POP SWAP3 SWAP1 POP JUMP JUMPDEST PUSH1 0x0 DUP1 PUSH1 0x40 DUP4 DUP6 SUB SLT ISZERO PUSH2 0x6C0 JUMPI PUSH2 0x6BF PUSH2 0xA39 JUMP JUMPDEST JUMPDEST PUSH1 0x0 PUSH2 0x6CE DUP6 DUP3 DUP7 ADD PUSH2 0x582 JUMP JUMPDEST SWAP3 POP POP PUSH1 0x20 DUP4 ADD CALLDATALOAD PUSH8 0xFFFFFFFFFFFFFFFF DUP2 GT ISZERO PUSH2 0x6EF JUMPI PUSH2 0x6EE PUSH2 0xA34 JUMP JUMPDEST JUMPDEST PUSH2 0x6FB DUP6 DUP3 DUP7 ADD PUSH2 0x554 JUMP JUMPDEST SWAP2 POP POP SWAP3 POP SWAP3 SWAP1 POP JUMP JUMPDEST PUSH2 0x70E DUP2 PUSH2 0x898 JUMP JUMPDEST DUP3 MSTORE POP POP JUMP JUMPDEST PUSH1 0x0 PUSH2 0x71F DUP3 PUSH2 0x81B JUMP JUMPDEST PUSH2 0x729 DUP2 DUP6 PUSH2 0x826 JUMP JUMPDEST SWAP4 POP PUSH2 0x739 DUP2 DUP6 PUSH1 0x20 DUP7 ADD PUSH2 0x8BE JUMP JUMPDEST PUSH2 0x742 DUP2 PUSH2 0xA3E JUMP JUMPDEST DUP5 ADD SWAP2 POP POP SWAP3 SWAP2 POP POP JUMP JUMPDEST PUSH1 0x0 PUSH2 0x758 DUP3 PUSH2 0x81B JUMP JUMPDEST PUSH2 0x762 DUP2 DUP6 PUSH2 0x837 JUMP JUMPDEST SWAP4 POP PUSH2 0x772 DUP2 DUP6 PUSH1 0x20 DUP7 ADD PUSH2 0x8BE JUMP JUMPDEST DUP1 DUP5 ADD SWAP2 POP POP SWAP3 SWAP2 POP POP JUMP JUMPDEST PUSH1 0x0 PUSH2 0x78A DUP3 DUP5 PUSH2 0x74D JUMP JUMPDEST SWAP2 POP DUP2 SWAP1 POP SWAP3 SWAP2 POP POP JUMP JUMPDEST PUSH1 0x0 PUSH1 0x40 DUP3 ADD SWAP1 POP DUP2 DUP2 SUB PUSH1 0x0 DUP4 ADD MSTORE PUSH2 0x7AF DUP2 DUP6 PUSH2 0x714 JUMP JUMPDEST SWAP1 POP PUSH2 0x7BE PUSH1 0x20 DUP4 ADD DUP5 PUSH2 0x705 JUMP JUMPDEST SWAP4 SWAP3 POP POP POP JUMP JUMPDEST PUSH1 0x0 PUSH2 0x7CF PUSH2 0x7E0 JUMP JUMPDEST SWAP1 POP PUSH2 0x7DB DUP3 DUP3 PUSH2 0x923 JUMP JUMPDEST SWAP2 SWAP1 POP JUMP JUMPDEST PUSH1 0x0 PUSH1 0x40 MLOAD SWAP1 POP SWAP1 JUMP JUMPDEST PUSH1 0x0 PUSH8 0xFFFFFFFFFFFFFFFF DUP3 GT ISZERO PUSH2 0x805 JUMPI PUSH2 0x804 PUSH2 0x9FB JUMP JUMPDEST JUMPDEST PUSH2 0x80E DUP3 PUSH2 0xA3E JUMP JUMPDEST SWAP1 POP PUSH1 0x20 DUP2 ADD SWAP1 POP SWAP2 SWAP1 POP JUMP JUMPDEST PUSH1 0x0 DUP2 MLOAD SWAP1 POP SWAP2 SWAP1 POP JUMP JUMPDEST PUSH1 0x0 DUP3 DUP3 MSTORE PUSH1 0x20 DUP3 ADD SWAP1 POP SWAP3 SWAP2 POP POP JUMP JUMPDEST PUSH1 0x0 DUP2 SWAP1 POP SWAP3 SWAP2 POP POP JUMP JUMPDEST PUSH1 0x0 PUSH2 0x84D DUP3 PUSH2 0x8A5 JUMP JUMPDEST SWAP2 POP PUSH2 0x858 DUP4 PUSH2 0x8A5 JUMP JUMPDEST SWAP3 POP DUP3 PUSH32 0xFFFFFFFFFFFFFFFFFFFFFFFFFFFFFFFFFFFFFFFFFFFFFFFFFFFFFFFFFFFFFFFF SUB DUP3 GT ISZERO PUSH2 0x88D JUMPI PUSH2 0x88C PUSH2 0x99D JUMP JUMPDEST JUMPDEST DUP3 DUP3 ADD SWAP1 POP SWAP3 SWAP2 POP POP JUMP JUMPDEST PUSH1 0x0 DUP2 PUSH1 0x1 SIGNEXTEND SWAP1 POP SWAP2 SWAP1 POP JUMP JUMPDEST PUSH1 0x0 DUP2 SWAP1 POP SWAP2 SWAP1 POP JUMP JUMPDEST DUP3 DUP2 DUP4 CALLDATACOPY PUSH1 0x0 DUP4 DUP4 ADD MSTORE POP POP POP JUMP JUMPDEST PUSH1 0x0 JUMPDEST DUP4 DUP2 LT ISZERO PUSH2 0x8DC JUMPI DUP1 DUP3 ADD MLOAD DUP2 DUP5 ADD MSTORE PUSH1 0x20 DUP2 ADD SWAP1 POP PUSH2 0x8C1 JUMP JUMPDEST DUP4 DUP2 GT ISZERO PUSH2 0x8EB JUMPI PUSH1 0x0 DUP5 DUP5 ADD MSTORE JUMPDEST POP POP POP POP JUMP JUMPDEST PUSH1 0x0 PUSH1 0x2 DUP3 DIV SWAP1 POP PUSH1 0x1 DUP3 AND DUP1 PUSH2 0x909 JUMPI PUSH1 0x7F DUP3 AND SWAP2 POP JUMPDEST PUSH1 0x20 DUP3 LT DUP2 EQ ISZERO PUSH2 0x91D JUMPI PUSH2 0x91C PUSH2 0x9CC JUMP JUMPDEST JUMPDEST POP SWAP2 SWAP1 POP JUMP JUMPDEST PUSH2 0x92C DUP3 PUSH2 0xA3E JUMP JUMPDEST DUP2 ADD DUP2 DUP2 LT PUSH8 0xFFFFFFFFFFFFFFFF DUP3 GT OR ISZERO PUSH2 0x94B JUMPI PUSH2 0x94A PUSH2 0x9FB JUMP JUMPDEST JUMPDEST DUP1 PUSH1 0x40 MSTORE POP POP POP JUMP JUMPDEST PUSH1 0x0 PUSH2 0x95F DUP3 PUSH2 0x8A5 JUMP JUMPDEST SWAP2 POP PUSH32 0xFFFFFFFFFFFFFFFFFFFFFFFFFFFFFFFFFFFFFFFFFFFFFFFFFFFFFFFFFFFFFFFF DUP3 EQ ISZERO PUSH2 0x992 JUMPI PUSH2 0x991 PUSH2 0x99D JUMP JUMPDEST JUMPDEST PUSH1 0x1 DUP3 ADD SWAP1 POP SWAP2 SWAP1 POP JUMP JUMPDEST PUSH32 0x4E487B7100000000000000000000000000000000000000000000000000000000 PUSH1 0x0 MSTORE PUSH1 0x11 PUSH1 0x4 MSTORE PUSH1 0x24 PUSH1 0x0 REVERT JUMPDEST PUSH32 0x4E487B7100000000000000000000000000000000000000000000000000000000 PUSH1 0x0 MSTORE PUSH1 0x22 PUSH1 0x4 MSTORE PUSH1 0x24 PUSH1 0x0 REVERT JUMPDEST PUSH32 0x4E487B7100000000000000000000000000000000000000000000000000000000 PUSH1 0x0 MSTORE PUSH1 0x41 PUSH1 0x4 MSTORE PUSH1 0x24 PUSH1 0x0 REVERT JUMPDEST PUSH1 0x0 DUP1 REVERT JUMPDEST PUSH1 0x0 DUP1 REVERT JUMPDEST PUSH1 0x0 DUP1 REVERT JUMPDEST PUSH1 0x0 DUP1 REVERT JUMPDEST PUSH1 0x0 PUSH1 0x1F NOT PUSH1 0x1F DUP4 ADD AND SWAP1 POP SWAP2 SWAP1 POP JUMP JUMPDEST PUSH2 0xA58 DUP2 PUSH2 0x898 JUMP JUMPDEST DUP2 EQ PUSH2 0xA63 JUMPI PUSH1 0x0 DUP1 REVERT JUMPDEST POP JUMP JUMPDEST PUSH2 0xA6F DUP2 PUSH2 0x8A5 JUMP JUMPDEST DUP2 EQ PUSH2 0xA7A JUMPI PUSH1 0x0 DUP1 REVERT JUMPDEST POP JUMP INVALID LOG2 PUSH5 0x6970667358 0x22 SLT KECCAK256 RETURNDATASIZE LOG3 0xF8 DIFFICULTY 0xB4 EXTCODESIZE 0xA6 0xF6 ADDMOD 0x27 PUSH21 0x3C33F96E214561236C5F23DB2B7EDB0567AC408337 PUSH5 0x736F6C6343 STOP ADDMOD SMOD STOP CALLER "
				},
				"gasEstimates": {
					"creation": {
						"codeDepositCost": "547800",
						"executionCost": "infinite",
						"totalCost": "infinite"
					},
					"external": {
						"createProduit(string,int16)": "infinite",
						"getProductInfoById(uint256)": "infinite",
						"getProductInfoByName(string)": "infinite",
						"setProductInfoName(uint256,string)": "infinite",
						"setProductInfoPrice(uint256,int16)": "24968"
					}
				},
				"methodIdentifiers": {
					"createProduit(string,int16)": "51401eef",
					"getProductInfoById(uint256)": "65c3e805",
					"getProductInfoByName(string)": "d7f4933c",
					"setProductInfoName(uint256,string)": "3117b11c",
					"setProductInfoPrice(uint256,int16)": "62c2886b"
				}
			},
			"storageLayout": {
				"storage": [
					{
						"astId": 20,
						"contract": "contracts/ExoSupermarche.sol:supermarche",
						"label": "numberOfProduct",
						"offset": 0,
						"slot": "0",
						"type": "t_uint256"
					},
					{
						"astId": 25,
						"contract": "contracts/ExoSupermarche.sol:supermarche",
						"label": "productsById",
						"offset": 0,
						"slot": "1",
						"type": "t_mapping(t_uint256,t_struct(productData)17_storage)"
					},
					{
						"astId": 30,
						"contract": "contracts/ExoSupermarche.sol:supermarche",
						"label": "productsByName",
						"offset": 0,
						"slot": "2",
						"type": "t_mapping(t_string_memory_ptr,t_struct(productData)17_storage)"
					}
				],
				"types": {
					"t_int16": {
						"encoding": "inplace",
						"label": "int16",
						"numberOfBytes": "2"
					},
					"t_mapping(t_string_memory_ptr,t_struct(productData)17_storage)": {
						"encoding": "mapping",
						"key": "t_string_memory_ptr",
						"label": "mapping(string => struct supermarche.productData)",
						"numberOfBytes": "32",
						"value": "t_struct(productData)17_storage"
					},
					"t_mapping(t_uint256,t_struct(productData)17_storage)": {
						"encoding": "mapping",
						"key": "t_uint256",
						"label": "mapping(uint256 => struct supermarche.productData)",
						"numberOfBytes": "32",
						"value": "t_struct(productData)17_storage"
					},
					"t_string_memory_ptr": {
						"encoding": "bytes",
						"label": "string",
						"numberOfBytes": "32"
					},
					"t_string_storage": {
						"encoding": "bytes",
						"label": "string",
						"numberOfBytes": "32"
					},
					"t_struct(productData)17_storage": {
						"encoding": "inplace",
						"label": "struct supermarche.productData",
						"members": [
							{
								"astId": 12,
								"contract": "contracts/ExoSupermarche.sol:supermarche",
								"label": "id",
								"offset": 0,
								"slot": "0",
								"type": "t_uint256"
							},
							{
								"astId": 14,
								"contract": "contracts/ExoSupermarche.sol:supermarche",
								"label": "libelle",
								"offset": 0,
								"slot": "1",
								"type": "t_string_storage"
							},
							{
								"astId": 16,
								"contract": "contracts/ExoSupermarche.sol:supermarche",
								"label": "price",
								"offset": 0,
								"slot": "2",
								"type": "t_int16"
							}
						],
						"numberOfBytes": "96"
					},
					"t_uint256": {
						"encoding": "inplace",
						"label": "uint256",
						"numberOfBytes": "32"
					}
				}
			},
			"userdoc": {
				"kind": "user",
				"methods": {},
				"version": 1
			}
		}
	}
}