{
	"contracts/ExoSupermarche.sol": {
		"supermarche": {
			"abi": [
				{
					"inputs": [
						{
							"internalType": "string",
							"name": "_libelle",
							"type": "string"
						},
						{
							"internalType": "int16",
							"name": "_prix",
							"type": "int16"
						}
					],
					"name": "createProduit",
					"outputs": [],
					"stateMutability": "nonpayable",
					"type": "function"
				},
				{
					"inputs": [],
					"name": "getAllProducts",
					"outputs": [
						{
							"components": [
								{
									"internalType": "uint256",
									"name": "id",
									"type": "uint256"
								},
								{
									"internalType": "string",
									"name": "libelle",
									"type": "string"
								},
								{
									"internalType": "int16",
									"name": "prix",
									"type": "int16"
								}
							],
							"internalType": "struct supermarche.productData[]",
							"name": "",
							"type": "tuple[]"
						}
					],
					"stateMutability": "view",
					"type": "function"
				},
				{
					"inputs": [
						{
							"internalType": "uint256",
							"name": "_id",
							"type": "uint256"
						}
					],
					"name": "getProductInfo",
					"outputs": [
						{
							"internalType": "string",
							"name": "",
							"type": "string"
						},
						{
							"internalType": "int16",
							"name": "",
							"type": "int16"
						}
					],
					"stateMutability": "view",
					"type": "function"
				}
			],
			"devdoc": {
				"kind": "dev",
				"methods": {},
				"version": 1
			},
			"evm": {
				"assembly": "    /* \"contracts/ExoSupermarche.sol\":59:972  contract supermarche {\r... */\n  mstore(0x40, 0x80)\n  callvalue\n  dup1\n  iszero\n  tag_1\n  jumpi\n  0x00\n  dup1\n  revert\ntag_1:\n  pop\n  dataSize(sub_0)\n  dup1\n  dataOffset(sub_0)\n  0x00\n  codecopy\n  0x00\n  return\nstop\n\nsub_0: assembly {\n        /* \"contracts/ExoSupermarche.sol\":59:972  contract supermarche {\r... */\n      mstore(0x40, 0x80)\n      callvalue\n      dup1\n      iszero\n      tag_1\n      jumpi\n      0x00\n      dup1\n      revert\n    tag_1:\n      pop\n      jumpi(tag_2, lt(calldatasize, 0x04))\n      shr(0xe0, calldataload(0x00))\n      dup1\n      0x02ee3a52\n      eq\n      tag_3\n      jumpi\n      dup1\n      0x51401eef\n      eq\n      tag_4\n      jumpi\n      dup1\n      0x79a85e6c\n      eq\n      tag_5\n      jumpi\n    tag_2:\n      0x00\n      dup1\n      revert\n        /* \"contracts/ExoSupermarche.sol\":853:958  function getAllProducts() public view returns(productData[] memory) {\r... */\n    tag_3:\n      tag_6\n      tag_7\n      jump\t// in\n    tag_6:\n      mload(0x40)\n      tag_8\n      swap2\n      swap1\n      tag_9\n      jump\t// in\n    tag_8:\n      mload(0x40)\n      dup1\n      swap2\n      sub\n      swap1\n      return\n        /* \"contracts/ExoSupermarche.sol\":407:648  function createProduit(string memory _libelle, int16 _prix) public {\r... */\n    tag_4:\n      tag_10\n      0x04\n      dup1\n      calldatasize\n      sub\n      dup2\n      add\n      swap1\n      tag_11\n      swap2\n      swap1\n      tag_12\n      jump\t// in\n    tag_11:\n      tag_13\n      jump\t// in\n    tag_10:\n      stop\n        /* \"contracts/ExoSupermarche.sol\":661:843  function getProductInfo(uint _id) public view returns(string memory, int16) {\r... */\n    tag_5:\n      tag_14\n      0x04\n      dup1\n      calldatasize\n      sub\n      dup2\n      add\n      swap1\n      tag_15\n      swap2\n      swap1\n      tag_16\n      jump\t// in\n    tag_15:\n      tag_17\n      jump\t// in\n    tag_14:\n      mload(0x40)\n      tag_18\n      swap3\n      swap2\n      swap1\n      tag_19\n      jump\t// in\n    tag_18:\n      mload(0x40)\n      dup1\n      swap2\n      sub\n      swap1\n      return\n        /* \"contracts/ExoSupermarche.sol\":853:958  function getAllProducts() public view returns(productData[] memory) {\r... */\n    tag_7:\n        /* \"contracts/ExoSupermarche.sol\":899:919  productData[] memory */\n      0x60\n        /* \"contracts/ExoSupermarche.sol\":939:950  AllProduits */\n      0x00\n        /* \"contracts/ExoSupermarche.sol\":932:950  return AllProduits */\n      dup1\n      sload\n      dup1\n      0x20\n      mul\n      0x20\n      add\n      mload(0x40)\n      swap1\n      dup2\n      add\n      0x40\n      mstore\n      dup1\n      swap3\n      swap2\n      swap1\n      dup2\n      dup2\n      mstore\n      0x20\n      add\n      0x00\n      swap1\n    tag_21:\n      dup3\n      dup3\n      lt\n      iszero\n      tag_22\n      jumpi\n      dup4\n      dup3\n      swap1\n      0x00\n      mstore\n      keccak256(0x00, 0x20)\n      swap1\n      0x03\n      mul\n      add\n      mload(0x40)\n      dup1\n      0x60\n      add\n      0x40\n      mstore\n      swap1\n      dup2\n      0x00\n      dup3\n      add\n      sload\n      dup2\n      mstore\n      0x20\n      add\n      0x01\n      dup3\n      add\n      dup1\n      sload\n      tag_24\n      swap1\n      tag_25\n      jump\t// in\n    tag_24:\n      dup1\n      0x1f\n      add\n      0x20\n      dup1\n      swap2\n      div\n      mul\n      0x20\n      add\n      mload(0x40)\n      swap1\n      dup2\n      add\n      0x40\n      mstore\n      dup1\n      swap3\n      swap2\n      swap1\n      dup2\n      dup2\n      mstore\n      0x20\n      add\n      dup3\n      dup1\n      sload\n      tag_26\n      swap1\n      tag_25\n      jump\t// in\n    tag_26:\n      dup1\n      iszero\n      tag_27\n      jumpi\n      dup1\n      0x1f\n      lt\n      tag_28\n      jumpi\n      0x0100\n      dup1\n      dup4\n      sload\n      div\n      mul\n      dup4\n      mstore\n      swap2\n      0x20\n      add\n      swap2\n      jump(tag_27)\n    tag_28:\n      dup3\n      add\n      swap2\n      swap1\n      0x00\n      mstore\n      keccak256(0x00, 0x20)\n      swap1\n    tag_29:\n      dup2\n      sload\n      dup2\n      mstore\n      swap1\n      0x01\n      add\n      swap1\n      0x20\n      add\n      dup1\n      dup4\n      gt\n      tag_29\n      jumpi\n      dup3\n      swap1\n      sub\n      0x1f\n      and\n      dup3\n      add\n      swap2\n    tag_27:\n      pop\n      pop\n      pop\n      pop\n      pop\n      dup2\n      mstore\n      0x20\n      add\n      0x02\n      dup3\n      add\n      0x00\n      swap1\n      sload\n      swap1\n      0x0100\n      exp\n      swap1\n      div\n      0x01\n      signextend\n      0x01\n      signextend\n      0x01\n      signextend\n      dup2\n      mstore\n      pop\n      pop\n      dup2\n      mstore\n      0x20\n      add\n      swap1\n      0x01\n      add\n      swap1\n      jump(tag_21)\n    tag_22:\n      pop\n      pop\n      pop\n      pop\n      swap1\n      pop\n        /* \"contracts/ExoSupermarche.sol\":853:958  function getAllProducts() public view returns(productData[] memory) {\r... */\n      swap1\n      jump\t// out\n        /* \"contracts/ExoSupermarche.sol\":407:648  function createProduit(string memory _libelle, int16 _prix) public {\r... */\n    tag_13:\n        /* \"contracts/ExoSupermarche.sol\":485:492  uint id */\n      0x00\n        /* \"contracts/ExoSupermarche.sol\":516:517  1 */\n      0x01\n        /* \"contracts/ExoSupermarche.sol\":495:506  AllProduits */\n      0x00\n        /* \"contracts/ExoSupermarche.sol\":495:513  AllProduits.length */\n      dup1\n      sload\n      swap1\n      pop\n        /* \"contracts/ExoSupermarche.sol\":495:517  AllProduits.length + 1 */\n      tag_31\n      swap2\n      swap1\n      tag_32\n      jump\t// in\n    tag_31:\n        /* \"contracts/ExoSupermarche.sol\":485:517  uint id = AllProduits.length + 1 */\n      swap1\n      pop\n        /* \"contracts/ExoSupermarche.sol\":528:548  productData memory p */\n      0x00\n        /* \"contracts/ExoSupermarche.sol\":551:583  productData(id, _libelle, _prix) */\n      mload(0x40)\n      dup1\n      0x60\n      add\n      0x40\n      mstore\n      dup1\n        /* \"contracts/ExoSupermarche.sol\":563:565  id */\n      dup4\n        /* \"contracts/ExoSupermarche.sol\":551:583  productData(id, _libelle, _prix) */\n      dup2\n      mstore\n      0x20\n      add\n        /* \"contracts/ExoSupermarche.sol\":567:575  _libelle */\n      dup6\n        /* \"contracts/ExoSupermarche.sol\":551:583  productData(id, _libelle, _prix) */\n      dup2\n      mstore\n      0x20\n      add\n        /* \"contracts/ExoSupermarche.sol\":577:582  _prix */\n      dup5\n        /* \"contracts/ExoSupermarche.sol\":551:583  productData(id, _libelle, _prix) */\n      0x01\n      signextend\n      dup2\n      mstore\n      pop\n        /* \"contracts/ExoSupermarche.sol\":528:583  productData memory p = productData(id, _libelle, _prix) */\n      swap1\n      pop\n        /* \"contracts/ExoSupermarche.sol\":594:605  AllProduits */\n      0x00\n        /* \"contracts/ExoSupermarche.sol\":611:612  p */\n      dup2\n        /* \"contracts/ExoSupermarche.sol\":594:613  AllProduits.push(p) */\n      swap1\n      dup1\n      0x01\n      dup2\n      sload\n      add\n      dup1\n      dup3\n      sstore\n      dup1\n      swap2\n      pop\n      pop\n      0x01\n      swap1\n      sub\n      swap1\n      0x00\n      mstore\n      keccak256(0x00, 0x20)\n      swap1\n      0x03\n      mul\n      add\n      0x00\n      swap1\n      swap2\n      swap1\n      swap2\n      swap1\n      swap2\n      pop\n      0x00\n      dup3\n      add\n      mload\n      dup2\n      0x00\n      add\n      sstore\n      0x20\n      dup3\n      add\n      mload\n      dup2\n      0x01\n      add\n      swap1\n      dup1\n      mload\n      swap1\n      0x20\n      add\n      swap1\n      tag_34\n      swap3\n      swap2\n      swap1\n      tag_35\n      jump\t// in\n    tag_34:\n      pop\n      0x40\n      dup3\n      add\n      mload\n      dup2\n      0x02\n      add\n      exp(0x0100, 0x00)\n      dup2\n      sload\n      dup2\n      0xffff\n      mul\n      not\n      and\n      swap1\n      dup4\n      0x01\n      signextend\n      0xffff\n      and\n      mul\n      or\n      swap1\n      sstore\n      pop\n      pop\n      pop\n        /* \"contracts/ExoSupermarche.sol\":639:640  p */\n      dup1\n        /* \"contracts/ExoSupermarche.sol\":624:632  products */\n      0x02\n        /* \"contracts/ExoSupermarche.sol\":624:636  products[id] */\n      0x00\n        /* \"contracts/ExoSupermarche.sol\":633:635  id */\n      dup5\n        /* \"contracts/ExoSupermarche.sol\":624:636  products[id] */\n      dup2\n      mstore\n      0x20\n      add\n      swap1\n      dup2\n      mstore\n      0x20\n      add\n      0x00\n      keccak256\n        /* \"contracts/ExoSupermarche.sol\":624:640  products[id] = p */\n      0x00\n      dup3\n      add\n      mload\n      dup2\n      0x00\n      add\n      sstore\n      0x20\n      dup3\n      add\n      mload\n      dup2\n      0x01\n      add\n      swap1\n      dup1\n      mload\n      swap1\n      0x20\n      add\n      swap1\n      tag_36\n      swap3\n      swap2\n      swap1\n      tag_35\n      jump\t// in\n    tag_36:\n      pop\n      0x40\n      dup3\n      add\n      mload\n      dup2\n      0x02\n      add\n      exp(0x0100, 0x00)\n      dup2\n      sload\n      dup2\n      0xffff\n      mul\n      not\n      and\n      swap1\n      dup4\n      0x01\n      signextend\n      0xffff\n      and\n      mul\n      or\n      swap1\n      sstore\n      pop\n      swap1\n      pop\n      pop\n        /* \"contracts/ExoSupermarche.sol\":474:648  {\r... */\n      pop\n      pop\n        /* \"contracts/ExoSupermarche.sol\":407:648  function createProduit(string memory _libelle, int16 _prix) public {\r... */\n      pop\n      pop\n      jump\t// out\n        /* \"contracts/ExoSupermarche.sol\":661:843  function getProductInfo(uint _id) public view returns(string memory, int16) {\r... */\n    tag_17:\n        /* \"contracts/ExoSupermarche.sol\":715:728  string memory */\n      0x60\n        /* \"contracts/ExoSupermarche.sol\":730:735  int16 */\n      0x00\n        /* \"contracts/ExoSupermarche.sol\":770:778  products */\n      0x02\n        /* \"contracts/ExoSupermarche.sol\":770:783  products[_id] */\n      0x00\n        /* \"contracts/ExoSupermarche.sol\":779:782  _id */\n      dup5\n        /* \"contracts/ExoSupermarche.sol\":770:783  products[_id] */\n      dup2\n      mstore\n      0x20\n      add\n      swap1\n      dup2\n      mstore\n      0x20\n      add\n      0x00\n      keccak256\n        /* \"contracts/ExoSupermarche.sol\":770:791  products[_id].libelle */\n      0x01\n      add\n        /* \"contracts/ExoSupermarche.sol\":806:814  products */\n      0x02\n        /* \"contracts/ExoSupermarche.sol\":806:819  products[_id] */\n      0x00\n        /* \"contracts/ExoSupermarche.sol\":815:818  _id */\n      dup6\n        /* \"contracts/ExoSupermarche.sol\":806:819  products[_id] */\n      dup2\n      mstore\n      0x20\n      add\n      swap1\n      dup2\n      mstore\n      0x20\n      add\n      0x00\n      keccak256\n        /* \"contracts/ExoSupermarche.sol\":806:824  products[_id].prix */\n      0x02\n      add\n      0x00\n      swap1\n      sload\n      swap1\n      0x0100\n      exp\n      swap1\n      div\n      0x01\n      signextend\n        /* \"contracts/ExoSupermarche.sol\":748:835  return (\r... */\n      dup2\n      dup1\n      sload\n      tag_38\n      swap1\n      tag_25\n      jump\t// in\n    tag_38:\n      dup1\n      0x1f\n      add\n      0x20\n      dup1\n      swap2\n      div\n      mul\n      0x20\n      add\n      mload(0x40)\n      swap1\n      dup2\n      add\n      0x40\n      mstore\n      dup1\n      swap3\n      swap2\n      swap1\n      dup2\n      dup2\n      mstore\n      0x20\n      add\n      dup3\n      dup1\n      sload\n      tag_39\n      swap1\n      tag_25\n      jump\t// in\n    tag_39:\n      dup1\n      iszero\n      tag_40\n      jumpi\n      dup1\n      0x1f\n      lt\n      tag_41\n      jumpi\n      0x0100\n      dup1\n      dup4\n      sload\n      div\n      mul\n      dup4\n      mstore\n      swap2\n      0x20\n      add\n      swap2\n      jump(tag_40)\n    tag_41:\n      dup3\n      add\n      swap2\n      swap1\n      0x00\n      mstore\n      keccak256(0x00, 0x20)\n      swap1\n    tag_42:\n      dup2\n      sload\n      dup2\n      mstore\n      swap1\n      0x01\n      add\n      swap1\n      0x20\n      add\n      dup1\n      dup4\n      gt\n      tag_42\n      jumpi\n      dup3\n      swap1\n      sub\n      0x1f\n      and\n      dup3\n      add\n      swap2\n    tag_40:\n      pop\n      pop\n      pop\n      pop\n      pop\n      swap2\n      pop\n      swap2\n      pop\n      swap2\n      pop\n        /* \"contracts/ExoSupermarche.sol\":661:843  function getProductInfo(uint _id) public view returns(string memory, int16) {\r... */\n      swap2\n      pop\n      swap2\n      jump\t// out\n    tag_35:\n      dup3\n      dup1\n      sload\n      tag_43\n      swap1\n      tag_25\n      jump\t// in\n    tag_43:\n      swap1\n      0x00\n      mstore\n      keccak256(0x00, 0x20)\n      swap1\n      0x1f\n      add\n      0x20\n      swap1\n      div\n      dup2\n      add\n      swap3\n      dup3\n      tag_45\n      jumpi\n      0x00\n      dup6\n      sstore\n      jump(tag_44)\n    tag_45:\n      dup3\n      0x1f\n      lt\n      tag_46\n      jumpi\n      dup1\n      mload\n      not(0xff)\n      and\n      dup4\n      dup1\n      add\n      or\n      dup6\n      sstore\n      jump(tag_44)\n    tag_46:\n      dup3\n      dup1\n      add\n      0x01\n      add\n      dup6\n      sstore\n      dup3\n      iszero\n      tag_44\n      jumpi\n      swap2\n      dup3\n      add\n    tag_47:\n      dup3\n      dup2\n      gt\n      iszero\n      tag_48\n      jumpi\n      dup3\n      mload\n      dup3\n      sstore\n      swap2\n      0x20\n      add\n      swap2\n      swap1\n      0x01\n      add\n      swap1\n      jump(tag_47)\n    tag_48:\n    tag_44:\n      pop\n      swap1\n      pop\n      tag_49\n      swap2\n      swap1\n      tag_50\n      jump\t// in\n    tag_49:\n      pop\n      swap1\n      jump\t// out\n    tag_50:\n    tag_51:\n      dup1\n      dup3\n      gt\n      iszero\n      tag_52\n      jumpi\n      0x00\n      dup2\n      0x00\n      swap1\n      sstore\n      pop\n      0x01\n      add\n      jump(tag_51)\n    tag_52:\n      pop\n      swap1\n      jump\t// out\n        /* \"#utility.yul\":7:419   */\n    tag_54:\n        /* \"#utility.yul\":85:90   */\n      0x00\n        /* \"#utility.yul\":110:176   */\n      tag_56\n        /* \"#utility.yul\":126:175   */\n      tag_57\n        /* \"#utility.yul\":168:174   */\n      dup5\n        /* \"#utility.yul\":126:175   */\n      tag_58\n      jump\t// in\n    tag_57:\n        /* \"#utility.yul\":110:176   */\n      tag_59\n      jump\t// in\n    tag_56:\n        /* \"#utility.yul\":101:176   */\n      swap1\n      pop\n        /* \"#utility.yul\":199:205   */\n      dup3\n        /* \"#utility.yul\":192:197   */\n      dup2\n        /* \"#utility.yul\":185:206   */\n      mstore\n        /* \"#utility.yul\":237:241   */\n      0x20\n        /* \"#utility.yul\":230:235   */\n      dup2\n        /* \"#utility.yul\":226:242   */\n      add\n        /* \"#utility.yul\":275:278   */\n      dup5\n        /* \"#utility.yul\":266:272   */\n      dup5\n        /* \"#utility.yul\":261:264   */\n      dup5\n        /* \"#utility.yul\":257:273   */\n      add\n        /* \"#utility.yul\":254:279   */\n      gt\n        /* \"#utility.yul\":251:363   */\n      iszero\n      tag_60\n      jumpi\n        /* \"#utility.yul\":282:361   */\n      tag_61\n      tag_62\n      jump\t// in\n    tag_61:\n        /* \"#utility.yul\":251:363   */\n    tag_60:\n        /* \"#utility.yul\":372:413   */\n      tag_63\n        /* \"#utility.yul\":406:412   */\n      dup5\n        /* \"#utility.yul\":401:404   */\n      dup3\n        /* \"#utility.yul\":396:399   */\n      dup6\n        /* \"#utility.yul\":372:413   */\n      tag_64\n      jump\t// in\n    tag_63:\n        /* \"#utility.yul\":91:419   */\n      pop\n        /* \"#utility.yul\":7:419   */\n      swap4\n      swap3\n      pop\n      pop\n      pop\n      jump\t// out\n        /* \"#utility.yul\":425:560   */\n    tag_65:\n        /* \"#utility.yul\":469:474   */\n      0x00\n        /* \"#utility.yul\":507:513   */\n      dup2\n        /* \"#utility.yul\":494:514   */\n      calldataload\n        /* \"#utility.yul\":485:514   */\n      swap1\n      pop\n        /* \"#utility.yul\":523:554   */\n      tag_67\n        /* \"#utility.yul\":548:553   */\n      dup2\n        /* \"#utility.yul\":523:554   */\n      tag_68\n      jump\t// in\n    tag_67:\n        /* \"#utility.yul\":425:560   */\n      swap3\n      swap2\n      pop\n      pop\n      jump\t// out\n        /* \"#utility.yul\":580:920   */\n    tag_69:\n        /* \"#utility.yul\":636:641   */\n      0x00\n        /* \"#utility.yul\":685:688   */\n      dup3\n        /* \"#utility.yul\":678:682   */\n      0x1f\n        /* \"#utility.yul\":670:676   */\n      dup4\n        /* \"#utility.yul\":666:683   */\n      add\n        /* \"#utility.yul\":662:689   */\n      slt\n        /* \"#utility.yul\":652:774   */\n      tag_71\n      jumpi\n        /* \"#utility.yul\":693:772   */\n      tag_72\n      tag_73\n      jump\t// in\n    tag_72:\n        /* \"#utility.yul\":652:774   */\n    tag_71:\n        /* \"#utility.yul\":810:816   */\n      dup2\n        /* \"#utility.yul\":797:817   */\n      calldataload\n        /* \"#utility.yul\":835:914   */\n      tag_74\n        /* \"#utility.yul\":910:913   */\n      dup5\n        /* \"#utility.yul\":902:908   */\n      dup3\n        /* \"#utility.yul\":895:899   */\n      0x20\n        /* \"#utility.yul\":887:893   */\n      dup7\n        /* \"#utility.yul\":883:900   */\n      add\n        /* \"#utility.yul\":835:914   */\n      tag_54\n      jump\t// in\n    tag_74:\n        /* \"#utility.yul\":826:914   */\n      swap2\n      pop\n        /* \"#utility.yul\":642:920   */\n      pop\n        /* \"#utility.yul\":580:920   */\n      swap3\n      swap2\n      pop\n      pop\n      jump\t// out\n        /* \"#utility.yul\":926:1065   */\n    tag_75:\n        /* \"#utility.yul\":972:977   */\n      0x00\n        /* \"#utility.yul\":1010:1016   */\n      dup2\n        /* \"#utility.yul\":997:1017   */\n      calldataload\n        /* \"#utility.yul\":988:1017   */\n      swap1\n      pop\n        /* \"#utility.yul\":1026:1059   */\n      tag_77\n        /* \"#utility.yul\":1053:1058   */\n      dup2\n        /* \"#utility.yul\":1026:1059   */\n      tag_78\n      jump\t// in\n    tag_77:\n        /* \"#utility.yul\":926:1065   */\n      swap3\n      swap2\n      pop\n      pop\n      jump\t// out\n        /* \"#utility.yul\":1071:1721   */\n    tag_12:\n        /* \"#utility.yul\":1147:1153   */\n      0x00\n        /* \"#utility.yul\":1155:1161   */\n      dup1\n        /* \"#utility.yul\":1204:1206   */\n      0x40\n        /* \"#utility.yul\":1192:1201   */\n      dup4\n        /* \"#utility.yul\":1183:1190   */\n      dup6\n        /* \"#utility.yul\":1179:1202   */\n      sub\n        /* \"#utility.yul\":1175:1207   */\n      slt\n        /* \"#utility.yul\":1172:1291   */\n      iszero\n      tag_80\n      jumpi\n        /* \"#utility.yul\":1210:1289   */\n      tag_81\n      tag_82\n      jump\t// in\n    tag_81:\n        /* \"#utility.yul\":1172:1291   */\n    tag_80:\n        /* \"#utility.yul\":1358:1359   */\n      0x00\n        /* \"#utility.yul\":1347:1356   */\n      dup4\n        /* \"#utility.yul\":1343:1360   */\n      add\n        /* \"#utility.yul\":1330:1361   */\n      calldataload\n        /* \"#utility.yul\":1388:1406   */\n      0xffffffffffffffff\n        /* \"#utility.yul\":1380:1386   */\n      dup2\n        /* \"#utility.yul\":1377:1407   */\n      gt\n        /* \"#utility.yul\":1374:1491   */\n      iszero\n      tag_83\n      jumpi\n        /* \"#utility.yul\":1410:1489   */\n      tag_84\n      tag_85\n      jump\t// in\n    tag_84:\n        /* \"#utility.yul\":1374:1491   */\n    tag_83:\n        /* \"#utility.yul\":1515:1578   */\n      tag_86\n        /* \"#utility.yul\":1570:1577   */\n      dup6\n        /* \"#utility.yul\":1561:1567   */\n      dup3\n        /* \"#utility.yul\":1550:1559   */\n      dup7\n        /* \"#utility.yul\":1546:1568   */\n      add\n        /* \"#utility.yul\":1515:1578   */\n      tag_69\n      jump\t// in\n    tag_86:\n        /* \"#utility.yul\":1505:1578   */\n      swap3\n      pop\n        /* \"#utility.yul\":1301:1588   */\n      pop\n        /* \"#utility.yul\":1627:1629   */\n      0x20\n        /* \"#utility.yul\":1653:1704   */\n      tag_87\n        /* \"#utility.yul\":1696:1703   */\n      dup6\n        /* \"#utility.yul\":1687:1693   */\n      dup3\n        /* \"#utility.yul\":1676:1685   */\n      dup7\n        /* \"#utility.yul\":1672:1694   */\n      add\n        /* \"#utility.yul\":1653:1704   */\n      tag_65\n      jump\t// in\n    tag_87:\n        /* \"#utility.yul\":1643:1704   */\n      swap2\n      pop\n        /* \"#utility.yul\":1598:1714   */\n      pop\n        /* \"#utility.yul\":1071:1721   */\n      swap3\n      pop\n      swap3\n      swap1\n      pop\n      jump\t// out\n        /* \"#utility.yul\":1727:2056   */\n    tag_16:\n        /* \"#utility.yul\":1786:1792   */\n      0x00\n        /* \"#utility.yul\":1835:1837   */\n      0x20\n        /* \"#utility.yul\":1823:1832   */\n      dup3\n        /* \"#utility.yul\":1814:1821   */\n      dup5\n        /* \"#utility.yul\":1810:1833   */\n      sub\n        /* \"#utility.yul\":1806:1838   */\n      slt\n        /* \"#utility.yul\":1803:1922   */\n      iszero\n      tag_89\n      jumpi\n        /* \"#utility.yul\":1841:1920   */\n      tag_90\n      tag_82\n      jump\t// in\n    tag_90:\n        /* \"#utility.yul\":1803:1922   */\n    tag_89:\n        /* \"#utility.yul\":1961:1962   */\n      0x00\n        /* \"#utility.yul\":1986:2039   */\n      tag_91\n        /* \"#utility.yul\":2031:2038   */\n      dup5\n        /* \"#utility.yul\":2022:2028   */\n      dup3\n        /* \"#utility.yul\":2011:2020   */\n      dup6\n        /* \"#utility.yul\":2007:2029   */\n      add\n        /* \"#utility.yul\":1986:2039   */\n      tag_75\n      jump\t// in\n    tag_91:\n        /* \"#utility.yul\":1976:2039   */\n      swap2\n      pop\n        /* \"#utility.yul\":1932:2049   */\n      pop\n        /* \"#utility.yul\":1727:2056   */\n      swap3\n      swap2\n      pop\n      pop\n      jump\t// out\n        /* \"#utility.yul\":2062:2326   */\n    tag_92:\n        /* \"#utility.yul\":2185:2195   */\n      0x00\n        /* \"#utility.yul\":2220:2320   */\n      tag_94\n        /* \"#utility.yul\":2316:2319   */\n      dup4\n        /* \"#utility.yul\":2308:2314   */\n      dup4\n        /* \"#utility.yul\":2220:2320   */\n      tag_95\n      jump\t// in\n    tag_94:\n        /* \"#utility.yul\":2206:2320   */\n      swap1\n      pop\n        /* \"#utility.yul\":2062:2326   */\n      swap3\n      swap2\n      pop\n      pop\n      jump\t// out\n        /* \"#utility.yul\":2408:3535   */\n    tag_96:\n        /* \"#utility.yul\":2581:2584   */\n      0x00\n        /* \"#utility.yul\":2610:2691   */\n      tag_98\n        /* \"#utility.yul\":2685:2690   */\n      dup3\n        /* \"#utility.yul\":2610:2691   */\n      tag_99\n      jump\t// in\n    tag_98:\n        /* \"#utility.yul\":2707:2820   */\n      tag_100\n        /* \"#utility.yul\":2813:2819   */\n      dup2\n        /* \"#utility.yul\":2808:2811   */\n      dup6\n        /* \"#utility.yul\":2707:2820   */\n      tag_101\n      jump\t// in\n    tag_100:\n        /* \"#utility.yul\":2700:2820   */\n      swap4\n      pop\n        /* \"#utility.yul\":2846:2849   */\n      dup4\n        /* \"#utility.yul\":2891:2895   */\n      0x20\n        /* \"#utility.yul\":2883:2889   */\n      dup3\n        /* \"#utility.yul\":2879:2896   */\n      mul\n        /* \"#utility.yul\":2874:2877   */\n      dup6\n        /* \"#utility.yul\":2870:2897   */\n      add\n        /* \"#utility.yul\":2921:3004   */\n      tag_102\n        /* \"#utility.yul\":2998:3003   */\n      dup6\n        /* \"#utility.yul\":2921:3004   */\n      tag_103\n      jump\t// in\n    tag_102:\n        /* \"#utility.yul\":3027:3034   */\n      dup1\n        /* \"#utility.yul\":3058:3059   */\n      0x00\n        /* \"#utility.yul\":3043:3490   */\n    tag_104:\n        /* \"#utility.yul\":3068:3074   */\n      dup6\n        /* \"#utility.yul\":3065:3066   */\n      dup2\n        /* \"#utility.yul\":3062:3075   */\n      lt\n        /* \"#utility.yul\":3043:3490   */\n      iszero\n      tag_106\n      jumpi\n        /* \"#utility.yul\":3139:3148   */\n      dup5\n        /* \"#utility.yul\":3133:3137   */\n      dup5\n        /* \"#utility.yul\":3129:3149   */\n      sub\n        /* \"#utility.yul\":3124:3127   */\n      dup10\n        /* \"#utility.yul\":3117:3150   */\n      mstore\n        /* \"#utility.yul\":3190:3196   */\n      dup2\n        /* \"#utility.yul\":3184:3197   */\n      mload\n        /* \"#utility.yul\":3218:3336   */\n      tag_107\n        /* \"#utility.yul\":3331:3335   */\n      dup6\n        /* \"#utility.yul\":3316:3329   */\n      dup3\n        /* \"#utility.yul\":3218:3336   */\n      tag_92\n      jump\t// in\n    tag_107:\n        /* \"#utility.yul\":3210:3336   */\n      swap5\n      pop\n        /* \"#utility.yul\":3359:3446   */\n      tag_108\n        /* \"#utility.yul\":3439:3445   */\n      dup4\n        /* \"#utility.yul\":3359:3446   */\n      tag_109\n      jump\t// in\n    tag_108:\n        /* \"#utility.yul\":3349:3446   */\n      swap3\n      pop\n        /* \"#utility.yul\":3475:3479   */\n      0x20\n        /* \"#utility.yul\":3470:3473   */\n      dup11\n        /* \"#utility.yul\":3466:3480   */\n      add\n        /* \"#utility.yul\":3459:3480   */\n      swap10\n      pop\n        /* \"#utility.yul\":3103:3490   */\n      pop\n        /* \"#utility.yul\":3090:3091   */\n      0x01\n        /* \"#utility.yul\":3087:3088   */\n      dup2\n        /* \"#utility.yul\":3083:3092   */\n      add\n        /* \"#utility.yul\":3078:3092   */\n      swap1\n      pop\n        /* \"#utility.yul\":3043:3490   */\n      jump(tag_104)\n    tag_106:\n        /* \"#utility.yul\":3047:3061   */\n      pop\n        /* \"#utility.yul\":3506:3510   */\n      dup3\n        /* \"#utility.yul\":3499:3510   */\n      swap8\n      pop\n        /* \"#utility.yul\":3526:3529   */\n      dup8\n        /* \"#utility.yul\":3519:3529   */\n      swap6\n      pop\n        /* \"#utility.yul\":2586:3535   */\n      pop\n      pop\n      pop\n      pop\n      pop\n        /* \"#utility.yul\":2408:3535   */\n      swap3\n      swap2\n      pop\n      pop\n      jump\t// out\n        /* \"#utility.yul\":3541:3643   */\n    tag_110:\n        /* \"#utility.yul\":3614:3636   */\n      tag_112\n        /* \"#utility.yul\":3630:3635   */\n      dup2\n        /* \"#utility.yul\":3614:3636   */\n      tag_113\n      jump\t// in\n    tag_112:\n        /* \"#utility.yul\":3609:3612   */\n      dup3\n        /* \"#utility.yul\":3602:3637   */\n      mstore\n        /* \"#utility.yul\":3541:3643   */\n      pop\n      pop\n      jump\t// out\n        /* \"#utility.yul\":3649:3761   */\n    tag_114:\n        /* \"#utility.yul\":3732:3754   */\n      tag_116\n        /* \"#utility.yul\":3748:3753   */\n      dup2\n        /* \"#utility.yul\":3732:3754   */\n      tag_113\n      jump\t// in\n    tag_116:\n        /* \"#utility.yul\":3727:3730   */\n      dup3\n        /* \"#utility.yul\":3720:3755   */\n      mstore\n        /* \"#utility.yul\":3649:3761   */\n      pop\n      pop\n      jump\t// out\n        /* \"#utility.yul\":3767:4111   */\n    tag_117:\n        /* \"#utility.yul\":3845:3848   */\n      0x00\n        /* \"#utility.yul\":3873:3912   */\n      tag_119\n        /* \"#utility.yul\":3906:3911   */\n      dup3\n        /* \"#utility.yul\":3873:3912   */\n      tag_120\n      jump\t// in\n    tag_119:\n        /* \"#utility.yul\":3928:3989   */\n      tag_121\n        /* \"#utility.yul\":3982:3988   */\n      dup2\n        /* \"#utility.yul\":3977:3980   */\n      dup6\n        /* \"#utility.yul\":3928:3989   */\n      tag_122\n      jump\t// in\n    tag_121:\n        /* \"#utility.yul\":3921:3989   */\n      swap4\n      pop\n        /* \"#utility.yul\":3998:4050   */\n      tag_123\n        /* \"#utility.yul\":4043:4049   */\n      dup2\n        /* \"#utility.yul\":4038:4041   */\n      dup6\n        /* \"#utility.yul\":4031:4035   */\n      0x20\n        /* \"#utility.yul\":4024:4029   */\n      dup7\n        /* \"#utility.yul\":4020:4036   */\n      add\n        /* \"#utility.yul\":3998:4050   */\n      tag_124\n      jump\t// in\n    tag_123:\n        /* \"#utility.yul\":4075:4104   */\n      tag_125\n        /* \"#utility.yul\":4097:4103   */\n      dup2\n        /* \"#utility.yul\":4075:4104   */\n      tag_126\n      jump\t// in\n    tag_125:\n        /* \"#utility.yul\":4070:4073   */\n      dup5\n        /* \"#utility.yul\":4066:4105   */\n      add\n        /* \"#utility.yul\":4059:4105   */\n      swap2\n      pop\n        /* \"#utility.yul\":3849:4111   */\n      pop\n        /* \"#utility.yul\":3767:4111   */\n      swap3\n      swap2\n      pop\n      pop\n      jump\t// out\n        /* \"#utility.yul\":4117:4481   */\n    tag_127:\n        /* \"#utility.yul\":4205:4208   */\n      0x00\n        /* \"#utility.yul\":4233:4272   */\n      tag_129\n        /* \"#utility.yul\":4266:4271   */\n      dup3\n        /* \"#utility.yul\":4233:4272   */\n      tag_120\n      jump\t// in\n    tag_129:\n        /* \"#utility.yul\":4288:4359   */\n      tag_130\n        /* \"#utility.yul\":4352:4358   */\n      dup2\n        /* \"#utility.yul\":4347:4350   */\n      dup6\n        /* \"#utility.yul\":4288:4359   */\n      tag_131\n      jump\t// in\n    tag_130:\n        /* \"#utility.yul\":4281:4359   */\n      swap4\n      pop\n        /* \"#utility.yul\":4368:4420   */\n      tag_132\n        /* \"#utility.yul\":4413:4419   */\n      dup2\n        /* \"#utility.yul\":4408:4411   */\n      dup6\n        /* \"#utility.yul\":4401:4405   */\n      0x20\n        /* \"#utility.yul\":4394:4399   */\n      dup7\n        /* \"#utility.yul\":4390:4406   */\n      add\n        /* \"#utility.yul\":4368:4420   */\n      tag_124\n      jump\t// in\n    tag_132:\n        /* \"#utility.yul\":4445:4474   */\n      tag_133\n        /* \"#utility.yul\":4467:4473   */\n      dup2\n        /* \"#utility.yul\":4445:4474   */\n      tag_126\n      jump\t// in\n    tag_133:\n        /* \"#utility.yul\":4440:4443   */\n      dup5\n        /* \"#utility.yul\":4436:4475   */\n      add\n        /* \"#utility.yul\":4429:4475   */\n      swap2\n      pop\n        /* \"#utility.yul\":4209:4481   */\n      pop\n        /* \"#utility.yul\":4117:4481   */\n      swap3\n      swap2\n      pop\n      pop\n      jump\t// out\n        /* \"#utility.yul\":4559:5330   */\n    tag_95:\n        /* \"#utility.yul\":4672:4675   */\n      0x00\n        /* \"#utility.yul\":4708:4712   */\n      0x60\n        /* \"#utility.yul\":4703:4706   */\n      dup4\n        /* \"#utility.yul\":4699:4713   */\n      add\n        /* \"#utility.yul\":4793:4797   */\n      0x00\n        /* \"#utility.yul\":4786:4791   */\n      dup4\n        /* \"#utility.yul\":4782:4798   */\n      add\n        /* \"#utility.yul\":4776:4799   */\n      mload\n        /* \"#utility.yul\":4812:4875   */\n      tag_135\n        /* \"#utility.yul\":4869:4873   */\n      0x00\n        /* \"#utility.yul\":4864:4867   */\n      dup7\n        /* \"#utility.yul\":4860:4874   */\n      add\n        /* \"#utility.yul\":4846:4858   */\n      dup3\n        /* \"#utility.yul\":4812:4875   */\n      tag_136\n      jump\t// in\n    tag_135:\n        /* \"#utility.yul\":4723:4885   */\n      pop\n        /* \"#utility.yul\":4970:4974   */\n      0x20\n        /* \"#utility.yul\":4963:4968   */\n      dup4\n        /* \"#utility.yul\":4959:4975   */\n      add\n        /* \"#utility.yul\":4953:4976   */\n      mload\n        /* \"#utility.yul\":5023:5026   */\n      dup5\n        /* \"#utility.yul\":5017:5021   */\n      dup3\n        /* \"#utility.yul\":5013:5027   */\n      sub\n        /* \"#utility.yul\":5006:5010   */\n      0x20\n        /* \"#utility.yul\":5001:5004   */\n      dup7\n        /* \"#utility.yul\":4997:5011   */\n      add\n        /* \"#utility.yul\":4990:5028   */\n      mstore\n        /* \"#utility.yul\":5049:5122   */\n      tag_137\n        /* \"#utility.yul\":5117:5121   */\n      dup3\n        /* \"#utility.yul\":5103:5115   */\n      dup3\n        /* \"#utility.yul\":5049:5122   */\n      tag_117\n      jump\t// in\n    tag_137:\n        /* \"#utility.yul\":5041:5122   */\n      swap2\n      pop\n        /* \"#utility.yul\":4895:5133   */\n      pop\n        /* \"#utility.yul\":5215:5219   */\n      0x40\n        /* \"#utility.yul\":5208:5213   */\n      dup4\n        /* \"#utility.yul\":5204:5220   */\n      add\n        /* \"#utility.yul\":5198:5221   */\n      mload\n        /* \"#utility.yul\":5234:5293   */\n      tag_138\n        /* \"#utility.yul\":5287:5291   */\n      0x40\n        /* \"#utility.yul\":5282:5285   */\n      dup7\n        /* \"#utility.yul\":5278:5292   */\n      add\n        /* \"#utility.yul\":5264:5276   */\n      dup3\n        /* \"#utility.yul\":5234:5293   */\n      tag_110\n      jump\t// in\n    tag_138:\n        /* \"#utility.yul\":5143:5303   */\n      pop\n        /* \"#utility.yul\":5320:5324   */\n      dup1\n        /* \"#utility.yul\":5313:5324   */\n      swap2\n      pop\n        /* \"#utility.yul\":4677:5330   */\n      pop\n        /* \"#utility.yul\":4559:5330   */\n      swap3\n      swap2\n      pop\n      pop\n      jump\t// out\n        /* \"#utility.yul\":5336:5444   */\n    tag_136:\n        /* \"#utility.yul\":5413:5437   */\n      tag_140\n        /* \"#utility.yul\":5431:5436   */\n      dup2\n        /* \"#utility.yul\":5413:5437   */\n      tag_141\n      jump\t// in\n    tag_140:\n        /* \"#utility.yul\":5408:5411   */\n      dup3\n        /* \"#utility.yul\":5401:5438   */\n      mstore\n        /* \"#utility.yul\":5336:5444   */\n      pop\n      pop\n      jump\t// out\n        /* \"#utility.yul\":5450:5931   */\n    tag_9:\n        /* \"#utility.yul\":5647:5651   */\n      0x00\n        /* \"#utility.yul\":5685:5687   */\n      0x20\n        /* \"#utility.yul\":5674:5683   */\n      dup3\n        /* \"#utility.yul\":5670:5688   */\n      add\n        /* \"#utility.yul\":5662:5688   */\n      swap1\n      pop\n        /* \"#utility.yul\":5734:5743   */\n      dup2\n        /* \"#utility.yul\":5728:5732   */\n      dup2\n        /* \"#utility.yul\":5724:5744   */\n      sub\n        /* \"#utility.yul\":5720:5721   */\n      0x00\n        /* \"#utility.yul\":5709:5718   */\n      dup4\n        /* \"#utility.yul\":5705:5722   */\n      add\n        /* \"#utility.yul\":5698:5745   */\n      mstore\n        /* \"#utility.yul\":5762:5924   */\n      tag_143\n        /* \"#utility.yul\":5919:5923   */\n      dup2\n        /* \"#utility.yul\":5910:5916   */\n      dup5\n        /* \"#utility.yul\":5762:5924   */\n      tag_96\n      jump\t// in\n    tag_143:\n        /* \"#utility.yul\":5754:5924   */\n      swap1\n      pop\n        /* \"#utility.yul\":5450:5931   */\n      swap3\n      swap2\n      pop\n      pop\n      jump\t// out\n        /* \"#utility.yul\":5937:6352   */\n    tag_19:\n        /* \"#utility.yul\":6074:6078   */\n      0x00\n        /* \"#utility.yul\":6112:6114   */\n      0x40\n        /* \"#utility.yul\":6101:6110   */\n      dup3\n        /* \"#utility.yul\":6097:6115   */\n      add\n        /* \"#utility.yul\":6089:6115   */\n      swap1\n      pop\n        /* \"#utility.yul\":6161:6170   */\n      dup2\n        /* \"#utility.yul\":6155:6159   */\n      dup2\n        /* \"#utility.yul\":6151:6171   */\n      sub\n        /* \"#utility.yul\":6147:6148   */\n      0x00\n        /* \"#utility.yul\":6136:6145   */\n      dup4\n        /* \"#utility.yul\":6132:6149   */\n      add\n        /* \"#utility.yul\":6125:6172   */\n      mstore\n        /* \"#utility.yul\":6189:6267   */\n      tag_145\n        /* \"#utility.yul\":6262:6266   */\n      dup2\n        /* \"#utility.yul\":6253:6259   */\n      dup6\n        /* \"#utility.yul\":6189:6267   */\n      tag_127\n      jump\t// in\n    tag_145:\n        /* \"#utility.yul\":6181:6267   */\n      swap1\n      pop\n        /* \"#utility.yul\":6277:6345   */\n      tag_146\n        /* \"#utility.yul\":6341:6343   */\n      0x20\n        /* \"#utility.yul\":6330:6339   */\n      dup4\n        /* \"#utility.yul\":6326:6344   */\n      add\n        /* \"#utility.yul\":6317:6323   */\n      dup5\n        /* \"#utility.yul\":6277:6345   */\n      tag_114\n      jump\t// in\n    tag_146:\n        /* \"#utility.yul\":5937:6352   */\n      swap4\n      swap3\n      pop\n      pop\n      pop\n      jump\t// out\n        /* \"#utility.yul\":6358:6487   */\n    tag_59:\n        /* \"#utility.yul\":6392:6398   */\n      0x00\n        /* \"#utility.yul\":6419:6439   */\n      tag_148\n      tag_149\n      jump\t// in\n    tag_148:\n        /* \"#utility.yul\":6409:6439   */\n      swap1\n      pop\n        /* \"#utility.yul\":6448:6481   */\n      tag_150\n        /* \"#utility.yul\":6476:6480   */\n      dup3\n        /* \"#utility.yul\":6468:6474   */\n      dup3\n        /* \"#utility.yul\":6448:6481   */\n      tag_151\n      jump\t// in\n    tag_150:\n        /* \"#utility.yul\":6358:6487   */\n      swap2\n      swap1\n      pop\n      jump\t// out\n        /* \"#utility.yul\":6493:6568   */\n    tag_149:\n        /* \"#utility.yul\":6526:6532   */\n      0x00\n        /* \"#utility.yul\":6559:6561   */\n      0x40\n        /* \"#utility.yul\":6553:6562   */\n      mload\n        /* \"#utility.yul\":6543:6562   */\n      swap1\n      pop\n        /* \"#utility.yul\":6493:6568   */\n      swap1\n      jump\t// out\n        /* \"#utility.yul\":6574:6882   */\n    tag_58:\n        /* \"#utility.yul\":6636:6640   */\n      0x00\n        /* \"#utility.yul\":6726:6744   */\n      0xffffffffffffffff\n        /* \"#utility.yul\":6718:6724   */\n      dup3\n        /* \"#utility.yul\":6715:6745   */\n      gt\n        /* \"#utility.yul\":6712:6768   */\n      iszero\n      tag_154\n      jumpi\n        /* \"#utility.yul\":6748:6766   */\n      tag_155\n      tag_156\n      jump\t// in\n    tag_155:\n        /* \"#utility.yul\":6712:6768   */\n    tag_154:\n        /* \"#utility.yul\":6786:6815   */\n      tag_157\n        /* \"#utility.yul\":6808:6814   */\n      dup3\n        /* \"#utility.yul\":6786:6815   */\n      tag_126\n      jump\t// in\n    tag_157:\n        /* \"#utility.yul\":6778:6815   */\n      swap1\n      pop\n        /* \"#utility.yul\":6870:6874   */\n      0x20\n        /* \"#utility.yul\":6864:6868   */\n      dup2\n        /* \"#utility.yul\":6860:6875   */\n      add\n        /* \"#utility.yul\":6852:6875   */\n      swap1\n      pop\n        /* \"#utility.yul\":6574:6882   */\n      swap2\n      swap1\n      pop\n      jump\t// out\n        /* \"#utility.yul\":6888:7047   */\n    tag_103:\n        /* \"#utility.yul\":6982:6986   */\n      0x00\n        /* \"#utility.yul\":7005:7008   */\n      dup2\n        /* \"#utility.yul\":6997:7008   */\n      swap1\n      pop\n        /* \"#utility.yul\":7035:7039   */\n      0x20\n        /* \"#utility.yul\":7030:7033   */\n      dup3\n        /* \"#utility.yul\":7026:7040   */\n      add\n        /* \"#utility.yul\":7018:7040   */\n      swap1\n      pop\n        /* \"#utility.yul\":6888:7047   */\n      swap2\n      swap1\n      pop\n      jump\t// out\n        /* \"#utility.yul\":7053:7194   */\n    tag_99:\n        /* \"#utility.yul\":7147:7153   */\n      0x00\n        /* \"#utility.yul\":7181:7186   */\n      dup2\n        /* \"#utility.yul\":7175:7187   */\n      mload\n        /* \"#utility.yul\":7165:7187   */\n      swap1\n      pop\n        /* \"#utility.yul\":7053:7194   */\n      swap2\n      swap1\n      pop\n      jump\t// out\n        /* \"#utility.yul\":7200:7299   */\n    tag_120:\n        /* \"#utility.yul\":7252:7258   */\n      0x00\n        /* \"#utility.yul\":7286:7291   */\n      dup2\n        /* \"#utility.yul\":7280:7292   */\n      mload\n        /* \"#utility.yul\":7270:7292   */\n      swap1\n      pop\n        /* \"#utility.yul\":7200:7299   */\n      swap2\n      swap1\n      pop\n      jump\t// out\n        /* \"#utility.yul\":7305:7445   */\n    tag_109:\n        /* \"#utility.yul\":7402:7406   */\n      0x00\n        /* \"#utility.yul\":7434:7438   */\n      0x20\n        /* \"#utility.yul\":7429:7432   */\n      dup3\n        /* \"#utility.yul\":7425:7439   */\n      add\n        /* \"#utility.yul\":7417:7439   */\n      swap1\n      pop\n        /* \"#utility.yul\":7305:7445   */\n      swap2\n      swap1\n      pop\n      jump\t// out\n        /* \"#utility.yul\":7451:7662   */\n    tag_101:\n        /* \"#utility.yul\":7577:7588   */\n      0x00\n        /* \"#utility.yul\":7611:7617   */\n      dup3\n        /* \"#utility.yul\":7606:7609   */\n      dup3\n        /* \"#utility.yul\":7599:7618   */\n      mstore\n        /* \"#utility.yul\":7651:7655   */\n      0x20\n        /* \"#utility.yul\":7646:7649   */\n      dup3\n        /* \"#utility.yul\":7642:7656   */\n      add\n        /* \"#utility.yul\":7627:7656   */\n      swap1\n      pop\n        /* \"#utility.yul\":7451:7662   */\n      swap3\n      swap2\n      pop\n      pop\n      jump\t// out\n        /* \"#utility.yul\":7668:7827   */\n    tag_122:\n        /* \"#utility.yul\":7742:7753   */\n      0x00\n        /* \"#utility.yul\":7776:7782   */\n      dup3\n        /* \"#utility.yul\":7771:7774   */\n      dup3\n        /* \"#utility.yul\":7764:7783   */\n      mstore\n        /* \"#utility.yul\":7816:7820   */\n      0x20\n        /* \"#utility.yul\":7811:7814   */\n      dup3\n        /* \"#utility.yul\":7807:7821   */\n      add\n        /* \"#utility.yul\":7792:7821   */\n      swap1\n      pop\n        /* \"#utility.yul\":7668:7827   */\n      swap3\n      swap2\n      pop\n      pop\n      jump\t// out\n        /* \"#utility.yul\":7833:8002   */\n    tag_131:\n        /* \"#utility.yul\":7917:7928   */\n      0x00\n        /* \"#utility.yul\":7951:7957   */\n      dup3\n        /* \"#utility.yul\":7946:7949   */\n      dup3\n        /* \"#utility.yul\":7939:7958   */\n      mstore\n        /* \"#utility.yul\":7991:7995   */\n      0x20\n        /* \"#utility.yul\":7986:7989   */\n      dup3\n        /* \"#utility.yul\":7982:7996   */\n      add\n        /* \"#utility.yul\":7967:7996   */\n      swap1\n      pop\n        /* \"#utility.yul\":7833:8002   */\n      swap3\n      swap2\n      pop\n      pop\n      jump\t// out\n        /* \"#utility.yul\":8008:8313   */\n    tag_32:\n        /* \"#utility.yul\":8048:8051   */\n      0x00\n        /* \"#utility.yul\":8067:8087   */\n      tag_166\n        /* \"#utility.yul\":8085:8086   */\n      dup3\n        /* \"#utility.yul\":8067:8087   */\n      tag_141\n      jump\t// in\n    tag_166:\n        /* \"#utility.yul\":8062:8087   */\n      swap2\n      pop\n        /* \"#utility.yul\":8101:8121   */\n      tag_167\n        /* \"#utility.yul\":8119:8120   */\n      dup4\n        /* \"#utility.yul\":8101:8121   */\n      tag_141\n      jump\t// in\n    tag_167:\n        /* \"#utility.yul\":8096:8121   */\n      swap3\n      pop\n        /* \"#utility.yul\":8255:8256   */\n      dup3\n        /* \"#utility.yul\":8187:8253   */\n      0xffffffffffffffffffffffffffffffffffffffffffffffffffffffffffffffff\n        /* \"#utility.yul\":8183:8257   */\n      sub\n        /* \"#utility.yul\":8180:8181   */\n      dup3\n        /* \"#utility.yul\":8177:8258   */\n      gt\n        /* \"#utility.yul\":8174:8281   */\n      iszero\n      tag_168\n      jumpi\n        /* \"#utility.yul\":8261:8279   */\n      tag_169\n      tag_170\n      jump\t// in\n    tag_169:\n        /* \"#utility.yul\":8174:8281   */\n    tag_168:\n        /* \"#utility.yul\":8305:8306   */\n      dup3\n        /* \"#utility.yul\":8302:8303   */\n      dup3\n        /* \"#utility.yul\":8298:8307   */\n      add\n        /* \"#utility.yul\":8291:8307   */\n      swap1\n      pop\n        /* \"#utility.yul\":8008:8313   */\n      swap3\n      swap2\n      pop\n      pop\n      jump\t// out\n        /* \"#utility.yul\":8319:8409   */\n    tag_113:\n        /* \"#utility.yul\":8354:8361   */\n      0x00\n        /* \"#utility.yul\":8397:8402   */\n      dup2\n        /* \"#utility.yul\":8394:8395   */\n      0x01\n        /* \"#utility.yul\":8383:8403   */\n      signextend\n        /* \"#utility.yul\":8372:8403   */\n      swap1\n      pop\n        /* \"#utility.yul\":8319:8409   */\n      swap2\n      swap1\n      pop\n      jump\t// out\n        /* \"#utility.yul\":8415:8492   */\n    tag_141:\n        /* \"#utility.yul\":8452:8459   */\n      0x00\n        /* \"#utility.yul\":8481:8486   */\n      dup2\n        /* \"#utility.yul\":8470:8486   */\n      swap1\n      pop\n        /* \"#utility.yul\":8415:8492   */\n      swap2\n      swap1\n      pop\n      jump\t// out\n        /* \"#utility.yul\":8498:8652   */\n    tag_64:\n        /* \"#utility.yul\":8582:8588   */\n      dup3\n        /* \"#utility.yul\":8577:8580   */\n      dup2\n        /* \"#utility.yul\":8572:8575   */\n      dup4\n        /* \"#utility.yul\":8559:8589   */\n      calldatacopy\n        /* \"#utility.yul\":8644:8645   */\n      0x00\n        /* \"#utility.yul\":8635:8641   */\n      dup4\n        /* \"#utility.yul\":8630:8633   */\n      dup4\n        /* \"#utility.yul\":8626:8642   */\n      add\n        /* \"#utility.yul\":8619:8646   */\n      mstore\n        /* \"#utility.yul\":8498:8652   */\n      pop\n      pop\n      pop\n      jump\t// out\n        /* \"#utility.yul\":8658:8965   */\n    tag_124:\n        /* \"#utility.yul\":8726:8727   */\n      0x00\n        /* \"#utility.yul\":8736:8849   */\n    tag_175:\n        /* \"#utility.yul\":8750:8756   */\n      dup4\n        /* \"#utility.yul\":8747:8748   */\n      dup2\n        /* \"#utility.yul\":8744:8757   */\n      lt\n        /* \"#utility.yul\":8736:8849   */\n      iszero\n      tag_177\n      jumpi\n        /* \"#utility.yul\":8835:8836   */\n      dup1\n        /* \"#utility.yul\":8830:8833   */\n      dup3\n        /* \"#utility.yul\":8826:8837   */\n      add\n        /* \"#utility.yul\":8820:8838   */\n      mload\n        /* \"#utility.yul\":8816:8817   */\n      dup2\n        /* \"#utility.yul\":8811:8814   */\n      dup5\n        /* \"#utility.yul\":8807:8818   */\n      add\n        /* \"#utility.yul\":8800:8839   */\n      mstore\n        /* \"#utility.yul\":8772:8774   */\n      0x20\n        /* \"#utility.yul\":8769:8770   */\n      dup2\n        /* \"#utility.yul\":8765:8775   */\n      add\n        /* \"#utility.yul\":8760:8775   */\n      swap1\n      pop\n        /* \"#utility.yul\":8736:8849   */\n      jump(tag_175)\n    tag_177:\n        /* \"#utility.yul\":8867:8873   */\n      dup4\n        /* \"#utility.yul\":8864:8865   */\n      dup2\n        /* \"#utility.yul\":8861:8874   */\n      gt\n        /* \"#utility.yul\":8858:8959   */\n      iszero\n      tag_178\n      jumpi\n        /* \"#utility.yul\":8947:8948   */\n      0x00\n        /* \"#utility.yul\":8938:8944   */\n      dup5\n        /* \"#utility.yul\":8933:8936   */\n      dup5\n        /* \"#utility.yul\":8929:8945   */\n      add\n        /* \"#utility.yul\":8922:8949   */\n      mstore\n        /* \"#utility.yul\":8858:8959   */\n    tag_178:\n        /* \"#utility.yul\":8707:8965   */\n      pop\n        /* \"#utility.yul\":8658:8965   */\n      pop\n      pop\n      pop\n      jump\t// out\n        /* \"#utility.yul\":8971:9291   */\n    tag_25:\n        /* \"#utility.yul\":9015:9021   */\n      0x00\n        /* \"#utility.yul\":9052:9053   */\n      0x02\n        /* \"#utility.yul\":9046:9050   */\n      dup3\n        /* \"#utility.yul\":9042:9054   */\n      div\n        /* \"#utility.yul\":9032:9054   */\n      swap1\n      pop\n        /* \"#utility.yul\":9099:9100   */\n      0x01\n        /* \"#utility.yul\":9093:9097   */\n      dup3\n        /* \"#utility.yul\":9089:9101   */\n      and\n        /* \"#utility.yul\":9120:9138   */\n      dup1\n        /* \"#utility.yul\":9110:9191   */\n      tag_180\n      jumpi\n        /* \"#utility.yul\":9176:9180   */\n      0x7f\n        /* \"#utility.yul\":9168:9174   */\n      dup3\n        /* \"#utility.yul\":9164:9181   */\n      and\n        /* \"#utility.yul\":9154:9181   */\n      swap2\n      pop\n        /* \"#utility.yul\":9110:9191   */\n    tag_180:\n        /* \"#utility.yul\":9238:9240   */\n      0x20\n        /* \"#utility.yul\":9230:9236   */\n      dup3\n        /* \"#utility.yul\":9227:9241   */\n      lt\n        /* \"#utility.yul\":9207:9225   */\n      dup2\n        /* \"#utility.yul\":9204:9242   */\n      eq\n        /* \"#utility.yul\":9201:9285   */\n      iszero\n      tag_181\n      jumpi\n        /* \"#utility.yul\":9257:9275   */\n      tag_182\n      tag_183\n      jump\t// in\n    tag_182:\n        /* \"#utility.yul\":9201:9285   */\n    tag_181:\n        /* \"#utility.yul\":9022:9291   */\n      pop\n        /* \"#utility.yul\":8971:9291   */\n      swap2\n      swap1\n      pop\n      jump\t// out\n        /* \"#utility.yul\":9297:9578   */\n    tag_151:\n        /* \"#utility.yul\":9380:9407   */\n      tag_185\n        /* \"#utility.yul\":9402:9406   */\n      dup3\n        /* \"#utility.yul\":9380:9407   */\n      tag_126\n      jump\t// in\n    tag_185:\n        /* \"#utility.yul\":9372:9378   */\n      dup2\n        /* \"#utility.yul\":9368:9408   */\n      add\n        /* \"#utility.yul\":9510:9516   */\n      dup2\n        /* \"#utility.yul\":9498:9508   */\n      dup2\n        /* \"#utility.yul\":9495:9517   */\n      lt\n        /* \"#utility.yul\":9474:9492   */\n      0xffffffffffffffff\n        /* \"#utility.yul\":9462:9472   */\n      dup3\n        /* \"#utility.yul\":9459:9493   */\n      gt\n        /* \"#utility.yul\":9456:9518   */\n      or\n        /* \"#utility.yul\":9453:9541   */\n      iszero\n      tag_186\n      jumpi\n        /* \"#utility.yul\":9521:9539   */\n      tag_187\n      tag_156\n      jump\t// in\n    tag_187:\n        /* \"#utility.yul\":9453:9541   */\n    tag_186:\n        /* \"#utility.yul\":9561:9571   */\n      dup1\n        /* \"#utility.yul\":9557:9559   */\n      0x40\n        /* \"#utility.yul\":9550:9572   */\n      mstore\n        /* \"#utility.yul\":9340:9578   */\n      pop\n        /* \"#utility.yul\":9297:9578   */\n      pop\n      pop\n      jump\t// out\n        /* \"#utility.yul\":9584:9764   */\n    tag_170:\n        /* \"#utility.yul\":9632:9709   */\n      0x4e487b7100000000000000000000000000000000000000000000000000000000\n        /* \"#utility.yul\":9629:9630   */\n      0x00\n        /* \"#utility.yul\":9622:9710   */\n      mstore\n        /* \"#utility.yul\":9729:9733   */\n      0x11\n        /* \"#utility.yul\":9726:9727   */\n      0x04\n        /* \"#utility.yul\":9719:9734   */\n      mstore\n        /* \"#utility.yul\":9753:9757   */\n      0x24\n        /* \"#utility.yul\":9750:9751   */\n      0x00\n        /* \"#utility.yul\":9743:9758   */\n      revert\n        /* \"#utility.yul\":9770:9950   */\n    tag_183:\n        /* \"#utility.yul\":9818:9895   */\n      0x4e487b7100000000000000000000000000000000000000000000000000000000\n        /* \"#utility.yul\":9815:9816   */\n      0x00\n        /* \"#utility.yul\":9808:9896   */\n      mstore\n        /* \"#utility.yul\":9915:9919   */\n      0x22\n        /* \"#utility.yul\":9912:9913   */\n      0x04\n        /* \"#utility.yul\":9905:9920   */\n      mstore\n        /* \"#utility.yul\":9939:9943   */\n      0x24\n        /* \"#utility.yul\":9936:9937   */\n      0x00\n        /* \"#utility.yul\":9929:9944   */\n      revert\n        /* \"#utility.yul\":9956:10136   */\n    tag_156:\n        /* \"#utility.yul\":10004:10081   */\n      0x4e487b7100000000000000000000000000000000000000000000000000000000\n        /* \"#utility.yul\":10001:10002   */\n      0x00\n        /* \"#utility.yul\":9994:10082   */\n      mstore\n        /* \"#utility.yul\":10101:10105   */\n      0x41\n        /* \"#utility.yul\":10098:10099   */\n      0x04\n        /* \"#utility.yul\":10091:10106   */\n      mstore\n        /* \"#utility.yul\":10125:10129   */\n      0x24\n        /* \"#utility.yul\":10122:10123   */\n      0x00\n        /* \"#utility.yul\":10115:10130   */\n      revert\n        /* \"#utility.yul\":10142:10259   */\n    tag_73:\n        /* \"#utility.yul\":10251:10252   */\n      0x00\n        /* \"#utility.yul\":10248:10249   */\n      dup1\n        /* \"#utility.yul\":10241:10253   */\n      revert\n        /* \"#utility.yul\":10265:10382   */\n    tag_62:\n        /* \"#utility.yul\":10374:10375   */\n      0x00\n        /* \"#utility.yul\":10371:10372   */\n      dup1\n        /* \"#utility.yul\":10364:10376   */\n      revert\n        /* \"#utility.yul\":10388:10505   */\n    tag_85:\n        /* \"#utility.yul\":10497:10498   */\n      0x00\n        /* \"#utility.yul\":10494:10495   */\n      dup1\n        /* \"#utility.yul\":10487:10499   */\n      revert\n        /* \"#utility.yul\":10511:10628   */\n    tag_82:\n        /* \"#utility.yul\":10620:10621   */\n      0x00\n        /* \"#utility.yul\":10617:10618   */\n      dup1\n        /* \"#utility.yul\":10610:10622   */\n      revert\n        /* \"#utility.yul\":10634:10736   */\n    tag_126:\n        /* \"#utility.yul\":10675:10681   */\n      0x00\n        /* \"#utility.yul\":10726:10728   */\n      0x1f\n        /* \"#utility.yul\":10722:10729   */\n      not\n        /* \"#utility.yul\":10717:10719   */\n      0x1f\n        /* \"#utility.yul\":10710:10715   */\n      dup4\n        /* \"#utility.yul\":10706:10720   */\n      add\n        /* \"#utility.yul\":10702:10730   */\n      and\n        /* \"#utility.yul\":10692:10730   */\n      swap1\n      pop\n        /* \"#utility.yul\":10634:10736   */\n      swap2\n      swap1\n      pop\n      jump\t// out\n        /* \"#utility.yul\":10742:10860   */\n    tag_68:\n        /* \"#utility.yul\":10813:10835   */\n      tag_197\n        /* \"#utility.yul\":10829:10834   */\n      dup2\n        /* \"#utility.yul\":10813:10835   */\n      tag_113\n      jump\t// in\n    tag_197:\n        /* \"#utility.yul\":10806:10811   */\n      dup2\n        /* \"#utility.yul\":10803:10836   */\n      eq\n        /* \"#utility.yul\":10793:10854   */\n      tag_198\n      jumpi\n        /* \"#utility.yul\":10850:10851   */\n      0x00\n        /* \"#utility.yul\":10847:10848   */\n      dup1\n        /* \"#utility.yul\":10840:10852   */\n      revert\n        /* \"#utility.yul\":10793:10854   */\n    tag_198:\n        /* \"#utility.yul\":10742:10860   */\n      pop\n      jump\t// out\n        /* \"#utility.yul\":10866:10988   */\n    tag_78:\n        /* \"#utility.yul\":10939:10963   */\n      tag_200\n        /* \"#utility.yul\":10957:10962   */\n      dup2\n        /* \"#utility.yul\":10939:10963   */\n      tag_141\n      jump\t// in\n    tag_200:\n        /* \"#utility.yul\":10932:10937   */\n      dup2\n        /* \"#utility.yul\":10929:10964   */\n      eq\n        /* \"#utility.yul\":10919:10982   */\n      tag_201\n      jumpi\n        /* \"#utility.yul\":10978:10979   */\n      0x00\n        /* \"#utility.yul\":10975:10976   */\n      dup1\n        /* \"#utility.yul\":10968:10980   */\n      revert\n        /* \"#utility.yul\":10919:10982   */\n    tag_201:\n        /* \"#utility.yul\":10866:10988   */\n      pop\n      jump\t// out\n\n    auxdata: 0xa2646970667358221220e1db811f552579bc58c5345760b2c5d8bde73b7b7b5685a99581ea70e3c8d0f964736f6c63430008070033\n}\n",
				"bytecode": {
					"linkReferences": {},
					"object": "608060405234801561001057600080fd5b50610a2d806100206000396000f3fe608060405234801561001057600080fd5b50600436106100415760003560e01c806302ee3a521461004657806351401eef1461006457806379a85e6c14610080575b600080fd5b61004e6100b1565b60405161005b91906106f7565b60405180910390f35b61007e600480360381019061007991906104f6565b6101c9565b005b61009a60048036038101906100959190610552565b6102e6565b6040516100a8929190610719565b60405180910390f35b60606000805480602002602001604051908101604052809291908181526020016000905b828210156101c0578382906000526020600020906003020160405180606001604052908160008201548152602001600182018054610112906108b4565b80601f016020809104026020016040519081016040528092919081815260200182805461013e906108b4565b801561018b5780601f106101605761010080835404028352916020019161018b565b820191906000526020600020905b81548152906001019060200180831161016e57829003601f168201915b505050505081526020016002820160009054906101000a900460010b60010b60010b81525050815260200190600101906100d5565b50505050905090565b600060016000805490506101dd9190610805565b9050600060405180606001604052808381526020018581526020018460010b815250905060008190806001815401808255809150506001900390600052602060002090600302016000909190919091506000820151816000015560208201518160010190805190602001906102539291906103b9565b5060408201518160020160006101000a81548161ffff021916908360010b61ffff160217905550505080600260008481526020019081526020016000206000820151816000015560208201518160010190805190602001906102b69291906103b9565b5060408201518160020160006101000a81548161ffff021916908360010b61ffff16021790555090505050505050565b60606000600260008481526020019081526020016000206001016002600085815260200190815260200160002060020160009054906101000a900460010b818054610330906108b4565b80601f016020809104026020016040519081016040528092919081815260200182805461035c906108b4565b80156103a95780601f1061037e576101008083540402835291602001916103a9565b820191906000526020600020905b81548152906001019060200180831161038c57829003601f168201915b5050505050915091509150915091565b8280546103c5906108b4565b90600052602060002090601f0160209004810192826103e7576000855561042e565b82601f1061040057805160ff191683800117855561042e565b8280016001018555821561042e579182015b8281111561042d578251825591602001919060010190610412565b5b50905061043b919061043f565b5090565b5b80821115610458576000816000905550600101610440565b5090565b600061046f61046a8461076e565b610749565b90508281526020810184848401111561048b5761048a6109a9565b5b610496848285610872565b509392505050565b6000813590506104ad816109c9565b92915050565b600082601f8301126104c8576104c76109a4565b5b81356104d884826020860161045c565b91505092915050565b6000813590506104f0816109e0565b92915050565b6000806040838503121561050d5761050c6109b3565b5b600083013567ffffffffffffffff81111561052b5761052a6109ae565b5b610537858286016104b3565b92505060206105488582860161049e565b9150509250929050565b600060208284031215610568576105676109b3565b5b6000610576848285016104e1565b91505092915050565b600061058b8383610698565b905092915050565b600061059e826107af565b6105a881856107d2565b9350836020820285016105ba8561079f565b8060005b858110156105f657848403895281516105d7858261057f565b94506105e2836107c5565b925060208a019950506001810190506105be565b50829750879550505050505092915050565b6106118161085b565b82525050565b6106208161085b565b82525050565b6000610631826107ba565b61063b81856107e3565b935061064b818560208601610881565b610654816109b8565b840191505092915050565b600061066a826107ba565b61067481856107f4565b9350610684818560208601610881565b61068d816109b8565b840191505092915050565b60006060830160008301516106b060008601826106e8565b50602083015184820360208601526106c88282610626565b91505060408301516106dd6040860182610608565b508091505092915050565b6106f181610868565b82525050565b600060208201905081810360008301526107118184610593565b905092915050565b60006040820190508181036000830152610733818561065f565b90506107426020830184610617565b9392505050565b6000610753610764565b905061075f82826108e6565b919050565b6000604051905090565b600067ffffffffffffffff82111561078957610788610975565b5b610792826109b8565b9050602081019050919050565b6000819050602082019050919050565b600081519050919050565b600081519050919050565b6000602082019050919050565b600082825260208201905092915050565b600082825260208201905092915050565b600082825260208201905092915050565b600061081082610868565b915061081b83610868565b9250827fffffffffffffffffffffffffffffffffffffffffffffffffffffffffffffffff038211156108505761084f610917565b5b828201905092915050565b60008160010b9050919050565b6000819050919050565b82818337600083830152505050565b60005b8381101561089f578082015181840152602081019050610884565b838111156108ae576000848401525b50505050565b600060028204905060018216806108cc57607f821691505b602082108114156108e0576108df610946565b5b50919050565b6108ef826109b8565b810181811067ffffffffffffffff8211171561090e5761090d610975565b5b80604052505050565b7f4e487b7100000000000000000000000000000000000000000000000000000000600052601160045260246000fd5b7f4e487b7100000000000000000000000000000000000000000000000000000000600052602260045260246000fd5b7f4e487b7100000000000000000000000000000000000000000000000000000000600052604160045260246000fd5b600080fd5b600080fd5b600080fd5b600080fd5b6000601f19601f8301169050919050565b6109d28161085b565b81146109dd57600080fd5b50565b6109e981610868565b81146109f457600080fd5b5056fea2646970667358221220e1db811f552579bc58c5345760b2c5d8bde73b7b7b5685a99581ea70e3c8d0f964736f6c63430008070033",
					"opcodes": "PUSH1 0x80 PUSH1 0x40 MSTORE CALLVALUE DUP1 ISZERO PUSH2 0x10 JUMPI PUSH1 0x0 DUP1 REVERT JUMPDEST POP PUSH2 0xA2D DUP1 PUSH2 0x20 PUSH1 0x0 CODECOPY PUSH1 0x0 RETURN INVALID PUSH1 0x80 PUSH1 0x40 MSTORE CALLVALUE DUP1 ISZERO PUSH2 0x10 JUMPI PUSH1 0x0 DUP1 REVERT JUMPDEST POP PUSH1 0x4 CALLDATASIZE LT PUSH2 0x41 JUMPI PUSH1 0x0 CALLDATALOAD PUSH1 0xE0 SHR DUP1 PUSH4 0x2EE3A52 EQ PUSH2 0x46 JUMPI DUP1 PUSH4 0x51401EEF EQ PUSH2 0x64 JUMPI DUP1 PUSH4 0x79A85E6C EQ PUSH2 0x80 JUMPI JUMPDEST PUSH1 0x0 DUP1 REVERT JUMPDEST PUSH2 0x4E PUSH2 0xB1 JUMP JUMPDEST PUSH1 0x40 MLOAD PUSH2 0x5B SWAP2 SWAP1 PUSH2 0x6F7 JUMP JUMPDEST PUSH1 0x40 MLOAD DUP1 SWAP2 SUB SWAP1 RETURN JUMPDEST PUSH2 0x7E PUSH1 0x4 DUP1 CALLDATASIZE SUB DUP2 ADD SWAP1 PUSH2 0x79 SWAP2 SWAP1 PUSH2 0x4F6 JUMP JUMPDEST PUSH2 0x1C9 JUMP JUMPDEST STOP JUMPDEST PUSH2 0x9A PUSH1 0x4 DUP1 CALLDATASIZE SUB DUP2 ADD SWAP1 PUSH2 0x95 SWAP2 SWAP1 PUSH2 0x552 JUMP JUMPDEST PUSH2 0x2E6 JUMP JUMPDEST PUSH1 0x40 MLOAD PUSH2 0xA8 SWAP3 SWAP2 SWAP1 PUSH2 0x719 JUMP JUMPDEST PUSH1 0x40 MLOAD DUP1 SWAP2 SUB SWAP1 RETURN JUMPDEST PUSH1 0x60 PUSH1 0x0 DUP1 SLOAD DUP1 PUSH1 0x20 MUL PUSH1 0x20 ADD PUSH1 0x40 MLOAD SWAP1 DUP2 ADD PUSH1 0x40 MSTORE DUP1 SWAP3 SWAP2 SWAP1 DUP2 DUP2 MSTORE PUSH1 0x20 ADD PUSH1 0x0 SWAP1 JUMPDEST DUP3 DUP3 LT ISZERO PUSH2 0x1C0 JUMPI DUP4 DUP3 SWAP1 PUSH1 0x0 MSTORE PUSH1 0x20 PUSH1 0x0 KECCAK256 SWAP1 PUSH1 0x3 MUL ADD PUSH1 0x40 MLOAD DUP1 PUSH1 0x60 ADD PUSH1 0x40 MSTORE SWAP1 DUP2 PUSH1 0x0 DUP3 ADD SLOAD DUP2 MSTORE PUSH1 0x20 ADD PUSH1 0x1 DUP3 ADD DUP1 SLOAD PUSH2 0x112 SWAP1 PUSH2 0x8B4 JUMP JUMPDEST DUP1 PUSH1 0x1F ADD PUSH1 0x20 DUP1 SWAP2 DIV MUL PUSH1 0x20 ADD PUSH1 0x40 MLOAD SWAP1 DUP2 ADD PUSH1 0x40 MSTORE DUP1 SWAP3 SWAP2 SWAP1 DUP2 DUP2 MSTORE PUSH1 0x20 ADD DUP3 DUP1 SLOAD PUSH2 0x13E SWAP1 PUSH2 0x8B4 JUMP JUMPDEST DUP1 ISZERO PUSH2 0x18B JUMPI DUP1 PUSH1 0x1F LT PUSH2 0x160 JUMPI PUSH2 0x100 DUP1 DUP4 SLOAD DIV MUL DUP4 MSTORE SWAP2 PUSH1 0x20 ADD SWAP2 PUSH2 0x18B JUMP JUMPDEST DUP3 ADD SWAP2 SWAP1 PUSH1 0x0 MSTORE PUSH1 0x20 PUSH1 0x0 KECCAK256 SWAP1 JUMPDEST DUP2 SLOAD DUP2 MSTORE SWAP1 PUSH1 0x1 ADD SWAP1 PUSH1 0x20 ADD DUP1 DUP4 GT PUSH2 0x16E JUMPI DUP3 SWAP1 SUB PUSH1 0x1F AND DUP3 ADD SWAP2 JUMPDEST POP POP POP POP POP DUP2 MSTORE PUSH1 0x20 ADD PUSH1 0x2 DUP3 ADD PUSH1 0x0 SWAP1 SLOAD SWAP1 PUSH2 0x100 EXP SWAP1 DIV PUSH1 0x1 SIGNEXTEND PUSH1 0x1 SIGNEXTEND PUSH1 0x1 SIGNEXTEND DUP2 MSTORE POP POP DUP2 MSTORE PUSH1 0x20 ADD SWAP1 PUSH1 0x1 ADD SWAP1 PUSH2 0xD5 JUMP JUMPDEST POP POP POP POP SWAP1 POP SWAP1 JUMP JUMPDEST PUSH1 0x0 PUSH1 0x1 PUSH1 0x0 DUP1 SLOAD SWAP1 POP PUSH2 0x1DD SWAP2 SWAP1 PUSH2 0x805 JUMP JUMPDEST SWAP1 POP PUSH1 0x0 PUSH1 0x40 MLOAD DUP1 PUSH1 0x60 ADD PUSH1 0x40 MSTORE DUP1 DUP4 DUP2 MSTORE PUSH1 0x20 ADD DUP6 DUP2 MSTORE PUSH1 0x20 ADD DUP5 PUSH1 0x1 SIGNEXTEND DUP2 MSTORE POP SWAP1 POP PUSH1 0x0 DUP2 SWAP1 DUP1 PUSH1 0x1 DUP2 SLOAD ADD DUP1 DUP3 SSTORE DUP1 SWAP2 POP POP PUSH1 0x1 SWAP1 SUB SWAP1 PUSH1 0x0 MSTORE PUSH1 0x20 PUSH1 0x0 KECCAK256 SWAP1 PUSH1 0x3 MUL ADD PUSH1 0x0 SWAP1 SWAP2 SWAP1 SWAP2 SWAP1 SWAP2 POP PUSH1 0x0 DUP3 ADD MLOAD DUP2 PUSH1 0x0 ADD SSTORE PUSH1 0x20 DUP3 ADD MLOAD DUP2 PUSH1 0x1 ADD SWAP1 DUP1 MLOAD SWAP1 PUSH1 0x20 ADD SWAP1 PUSH2 0x253 SWAP3 SWAP2 SWAP1 PUSH2 0x3B9 JUMP JUMPDEST POP PUSH1 0x40 DUP3 ADD MLOAD DUP2 PUSH1 0x2 ADD PUSH1 0x0 PUSH2 0x100 EXP DUP2 SLOAD DUP2 PUSH2 0xFFFF MUL NOT AND SWAP1 DUP4 PUSH1 0x1 SIGNEXTEND PUSH2 0xFFFF AND MUL OR SWAP1 SSTORE POP POP POP DUP1 PUSH1 0x2 PUSH1 0x0 DUP5 DUP2 MSTORE PUSH1 0x20 ADD SWAP1 DUP2 MSTORE PUSH1 0x20 ADD PUSH1 0x0 KECCAK256 PUSH1 0x0 DUP3 ADD MLOAD DUP2 PUSH1 0x0 ADD SSTORE PUSH1 0x20 DUP3 ADD MLOAD DUP2 PUSH1 0x1 ADD SWAP1 DUP1 MLOAD SWAP1 PUSH1 0x20 ADD SWAP1 PUSH2 0x2B6 SWAP3 SWAP2 SWAP1 PUSH2 0x3B9 JUMP JUMPDEST POP PUSH1 0x40 DUP3 ADD MLOAD DUP2 PUSH1 0x2 ADD PUSH1 0x0 PUSH2 0x100 EXP DUP2 SLOAD DUP2 PUSH2 0xFFFF MUL NOT AND SWAP1 DUP4 PUSH1 0x1 SIGNEXTEND PUSH2 0xFFFF AND MUL OR SWAP1 SSTORE POP SWAP1 POP POP POP POP POP POP JUMP JUMPDEST PUSH1 0x60 PUSH1 0x0 PUSH1 0x2 PUSH1 0x0 DUP5 DUP2 MSTORE PUSH1 0x20 ADD SWAP1 DUP2 MSTORE PUSH1 0x20 ADD PUSH1 0x0 KECCAK256 PUSH1 0x1 ADD PUSH1 0x2 PUSH1 0x0 DUP6 DUP2 MSTORE PUSH1 0x20 ADD SWAP1 DUP2 MSTORE PUSH1 0x20 ADD PUSH1 0x0 KECCAK256 PUSH1 0x2 ADD PUSH1 0x0 SWAP1 SLOAD SWAP1 PUSH2 0x100 EXP SWAP1 DIV PUSH1 0x1 SIGNEXTEND DUP2 DUP1 SLOAD PUSH2 0x330 SWAP1 PUSH2 0x8B4 JUMP JUMPDEST DUP1 PUSH1 0x1F ADD PUSH1 0x20 DUP1 SWAP2 DIV MUL PUSH1 0x20 ADD PUSH1 0x40 MLOAD SWAP1 DUP2 ADD PUSH1 0x40 MSTORE DUP1 SWAP3 SWAP2 SWAP1 DUP2 DUP2 MSTORE PUSH1 0x20 ADD DUP3 DUP1 SLOAD PUSH2 0x35C SWAP1 PUSH2 0x8B4 JUMP JUMPDEST DUP1 ISZERO PUSH2 0x3A9 JUMPI DUP1 PUSH1 0x1F LT PUSH2 0x37E JUMPI PUSH2 0x100 DUP1 DUP4 SLOAD DIV MUL DUP4 MSTORE SWAP2 PUSH1 0x20 ADD SWAP2 PUSH2 0x3A9 JUMP JUMPDEST DUP3 ADD SWAP2 SWAP1 PUSH1 0x0 MSTORE PUSH1 0x20 PUSH1 0x0 KECCAK256 SWAP1 JUMPDEST DUP2 SLOAD DUP2 MSTORE SWAP1 PUSH1 0x1 ADD SWAP1 PUSH1 0x20 ADD DUP1 DUP4 GT PUSH2 0x38C JUMPI DUP3 SWAP1 SUB PUSH1 0x1F AND DUP3 ADD SWAP2 JUMPDEST POP POP POP POP POP SWAP2 POP SWAP2 POP SWAP2 POP SWAP2 POP SWAP2 JUMP JUMPDEST DUP3 DUP1 SLOAD PUSH2 0x3C5 SWAP1 PUSH2 0x8B4 JUMP JUMPDEST SWAP1 PUSH1 0x0 MSTORE PUSH1 0x20 PUSH1 0x0 KECCAK256 SWAP1 PUSH1 0x1F ADD PUSH1 0x20 SWAP1 DIV DUP2 ADD SWAP3 DUP3 PUSH2 0x3E7 JUMPI PUSH1 0x0 DUP6 SSTORE PUSH2 0x42E JUMP JUMPDEST DUP3 PUSH1 0x1F LT PUSH2 0x400 JUMPI DUP1 MLOAD PUSH1 0xFF NOT AND DUP4 DUP1 ADD OR DUP6 SSTORE PUSH2 0x42E JUMP JUMPDEST DUP3 DUP1 ADD PUSH1 0x1 ADD DUP6 SSTORE DUP3 ISZERO PUSH2 0x42E JUMPI SWAP2 DUP3 ADD JUMPDEST DUP3 DUP2 GT ISZERO PUSH2 0x42D JUMPI DUP3 MLOAD DUP3 SSTORE SWAP2 PUSH1 0x20 ADD SWAP2 SWAP1 PUSH1 0x1 ADD SWAP1 PUSH2 0x412 JUMP JUMPDEST JUMPDEST POP SWAP1 POP PUSH2 0x43B SWAP2 SWAP1 PUSH2 0x43F JUMP JUMPDEST POP SWAP1 JUMP JUMPDEST JUMPDEST DUP1 DUP3 GT ISZERO PUSH2 0x458 JUMPI PUSH1 0x0 DUP2 PUSH1 0x0 SWAP1 SSTORE POP PUSH1 0x1 ADD PUSH2 0x440 JUMP JUMPDEST POP SWAP1 JUMP JUMPDEST PUSH1 0x0 PUSH2 0x46F PUSH2 0x46A DUP5 PUSH2 0x76E JUMP JUMPDEST PUSH2 0x749 JUMP JUMPDEST SWAP1 POP DUP3 DUP2 MSTORE PUSH1 0x20 DUP2 ADD DUP5 DUP5 DUP5 ADD GT ISZERO PUSH2 0x48B JUMPI PUSH2 0x48A PUSH2 0x9A9 JUMP JUMPDEST JUMPDEST PUSH2 0x496 DUP5 DUP3 DUP6 PUSH2 0x872 JUMP JUMPDEST POP SWAP4 SWAP3 POP POP POP JUMP JUMPDEST PUSH1 0x0 DUP2 CALLDATALOAD SWAP1 POP PUSH2 0x4AD DUP2 PUSH2 0x9C9 JUMP JUMPDEST SWAP3 SWAP2 POP POP JUMP JUMPDEST PUSH1 0x0 DUP3 PUSH1 0x1F DUP4 ADD SLT PUSH2 0x4C8 JUMPI PUSH2 0x4C7 PUSH2 0x9A4 JUMP JUMPDEST JUMPDEST DUP2 CALLDATALOAD PUSH2 0x4D8 DUP5 DUP3 PUSH1 0x20 DUP7 ADD PUSH2 0x45C JUMP JUMPDEST SWAP2 POP POP SWAP3 SWAP2 POP POP JUMP JUMPDEST PUSH1 0x0 DUP2 CALLDATALOAD SWAP1 POP PUSH2 0x4F0 DUP2 PUSH2 0x9E0 JUMP JUMPDEST SWAP3 SWAP2 POP POP JUMP JUMPDEST PUSH1 0x0 DUP1 PUSH1 0x40 DUP4 DUP6 SUB SLT ISZERO PUSH2 0x50D JUMPI PUSH2 0x50C PUSH2 0x9B3 JUMP JUMPDEST JUMPDEST PUSH1 0x0 DUP4 ADD CALLDATALOAD PUSH8 0xFFFFFFFFFFFFFFFF DUP2 GT ISZERO PUSH2 0x52B JUMPI PUSH2 0x52A PUSH2 0x9AE JUMP JUMPDEST JUMPDEST PUSH2 0x537 DUP6 DUP3 DUP7 ADD PUSH2 0x4B3 JUMP JUMPDEST SWAP3 POP POP PUSH1 0x20 PUSH2 0x548 DUP6 DUP3 DUP7 ADD PUSH2 0x49E JUMP JUMPDEST SWAP2 POP POP SWAP3 POP SWAP3 SWAP1 POP JUMP JUMPDEST PUSH1 0x0 PUSH1 0x20 DUP3 DUP5 SUB SLT ISZERO PUSH2 0x568 JUMPI PUSH2 0x567 PUSH2 0x9B3 JUMP JUMPDEST JUMPDEST PUSH1 0x0 PUSH2 0x576 DUP5 DUP3 DUP6 ADD PUSH2 0x4E1 JUMP JUMPDEST SWAP2 POP POP SWAP3 SWAP2 POP POP JUMP JUMPDEST PUSH1 0x0 PUSH2 0x58B DUP4 DUP4 PUSH2 0x698 JUMP JUMPDEST SWAP1 POP SWAP3 SWAP2 POP POP JUMP JUMPDEST PUSH1 0x0 PUSH2 0x59E DUP3 PUSH2 0x7AF JUMP JUMPDEST PUSH2 0x5A8 DUP2 DUP6 PUSH2 0x7D2 JUMP JUMPDEST SWAP4 POP DUP4 PUSH1 0x20 DUP3 MUL DUP6 ADD PUSH2 0x5BA DUP6 PUSH2 0x79F JUMP JUMPDEST DUP1 PUSH1 0x0 JUMPDEST DUP6 DUP2 LT ISZERO PUSH2 0x5F6 JUMPI DUP5 DUP5 SUB DUP10 MSTORE DUP2 MLOAD PUSH2 0x5D7 DUP6 DUP3 PUSH2 0x57F JUMP JUMPDEST SWAP5 POP PUSH2 0x5E2 DUP4 PUSH2 0x7C5 JUMP JUMPDEST SWAP3 POP PUSH1 0x20 DUP11 ADD SWAP10 POP POP PUSH1 0x1 DUP2 ADD SWAP1 POP PUSH2 0x5BE JUMP JUMPDEST POP DUP3 SWAP8 POP DUP8 SWAP6 POP POP POP POP POP POP SWAP3 SWAP2 POP POP JUMP JUMPDEST PUSH2 0x611 DUP2 PUSH2 0x85B JUMP JUMPDEST DUP3 MSTORE POP POP JUMP JUMPDEST PUSH2 0x620 DUP2 PUSH2 0x85B JUMP JUMPDEST DUP3 MSTORE POP POP JUMP JUMPDEST PUSH1 0x0 PUSH2 0x631 DUP3 PUSH2 0x7BA JUMP JUMPDEST PUSH2 0x63B DUP2 DUP6 PUSH2 0x7E3 JUMP JUMPDEST SWAP4 POP PUSH2 0x64B DUP2 DUP6 PUSH1 0x20 DUP7 ADD PUSH2 0x881 JUMP JUMPDEST PUSH2 0x654 DUP2 PUSH2 0x9B8 JUMP JUMPDEST DUP5 ADD SWAP2 POP POP SWAP3 SWAP2 POP POP JUMP JUMPDEST PUSH1 0x0 PUSH2 0x66A DUP3 PUSH2 0x7BA JUMP JUMPDEST PUSH2 0x674 DUP2 DUP6 PUSH2 0x7F4 JUMP JUMPDEST SWAP4 POP PUSH2 0x684 DUP2 DUP6 PUSH1 0x20 DUP7 ADD PUSH2 0x881 JUMP JUMPDEST PUSH2 0x68D DUP2 PUSH2 0x9B8 JUMP JUMPDEST DUP5 ADD SWAP2 POP POP SWAP3 SWAP2 POP POP JUMP JUMPDEST PUSH1 0x0 PUSH1 0x60 DUP4 ADD PUSH1 0x0 DUP4 ADD MLOAD PUSH2 0x6B0 PUSH1 0x0 DUP7 ADD DUP3 PUSH2 0x6E8 JUMP JUMPDEST POP PUSH1 0x20 DUP4 ADD MLOAD DUP5 DUP3 SUB PUSH1 0x20 DUP7 ADD MSTORE PUSH2 0x6C8 DUP3 DUP3 PUSH2 0x626 JUMP JUMPDEST SWAP2 POP POP PUSH1 0x40 DUP4 ADD MLOAD PUSH2 0x6DD PUSH1 0x40 DUP7 ADD DUP3 PUSH2 0x608 JUMP JUMPDEST POP DUP1 SWAP2 POP POP SWAP3 SWAP2 POP POP JUMP JUMPDEST PUSH2 0x6F1 DUP2 PUSH2 0x868 JUMP JUMPDEST DUP3 MSTORE POP POP JUMP JUMPDEST PUSH1 0x0 PUSH1 0x20 DUP3 ADD SWAP1 POP DUP2 DUP2 SUB PUSH1 0x0 DUP4 ADD MSTORE PUSH2 0x711 DUP2 DUP5 PUSH2 0x593 JUMP JUMPDEST SWAP1 POP SWAP3 SWAP2 POP POP JUMP JUMPDEST PUSH1 0x0 PUSH1 0x40 DUP3 ADD SWAP1 POP DUP2 DUP2 SUB PUSH1 0x0 DUP4 ADD MSTORE PUSH2 0x733 DUP2 DUP6 PUSH2 0x65F JUMP JUMPDEST SWAP1 POP PUSH2 0x742 PUSH1 0x20 DUP4 ADD DUP5 PUSH2 0x617 JUMP JUMPDEST SWAP4 SWAP3 POP POP POP JUMP JUMPDEST PUSH1 0x0 PUSH2 0x753 PUSH2 0x764 JUMP JUMPDEST SWAP1 POP PUSH2 0x75F DUP3 DUP3 PUSH2 0x8E6 JUMP JUMPDEST SWAP2 SWAP1 POP JUMP JUMPDEST PUSH1 0x0 PUSH1 0x40 MLOAD SWAP1 POP SWAP1 JUMP JUMPDEST PUSH1 0x0 PUSH8 0xFFFFFFFFFFFFFFFF DUP3 GT ISZERO PUSH2 0x789 JUMPI PUSH2 0x788 PUSH2 0x975 JUMP JUMPDEST JUMPDEST PUSH2 0x792 DUP3 PUSH2 0x9B8 JUMP JUMPDEST SWAP1 POP PUSH1 0x20 DUP2 ADD SWAP1 POP SWAP2 SWAP1 POP JUMP JUMPDEST PUSH1 0x0 DUP2 SWAP1 POP PUSH1 0x20 DUP3 ADD SWAP1 POP SWAP2 SWAP1 POP JUMP JUMPDEST PUSH1 0x0 DUP2 MLOAD SWAP1 POP SWAP2 SWAP1 POP JUMP JUMPDEST PUSH1 0x0 DUP2 MLOAD SWAP1 POP SWAP2 SWAP1 POP JUMP JUMPDEST PUSH1 0x0 PUSH1 0x20 DUP3 ADD SWAP1 POP SWAP2 SWAP1 POP JUMP JUMPDEST PUSH1 0x0 DUP3 DUP3 MSTORE PUSH1 0x20 DUP3 ADD SWAP1 POP SWAP3 SWAP2 POP POP JUMP JUMPDEST PUSH1 0x0 DUP3 DUP3 MSTORE PUSH1 0x20 DUP3 ADD SWAP1 POP SWAP3 SWAP2 POP POP JUMP JUMPDEST PUSH1 0x0 DUP3 DUP3 MSTORE PUSH1 0x20 DUP3 ADD SWAP1 POP SWAP3 SWAP2 POP POP JUMP JUMPDEST PUSH1 0x0 PUSH2 0x810 DUP3 PUSH2 0x868 JUMP JUMPDEST SWAP2 POP PUSH2 0x81B DUP4 PUSH2 0x868 JUMP JUMPDEST SWAP3 POP DUP3 PUSH32 0xFFFFFFFFFFFFFFFFFFFFFFFFFFFFFFFFFFFFFFFFFFFFFFFFFFFFFFFFFFFFFFFF SUB DUP3 GT ISZERO PUSH2 0x850 JUMPI PUSH2 0x84F PUSH2 0x917 JUMP JUMPDEST JUMPDEST DUP3 DUP3 ADD SWAP1 POP SWAP3 SWAP2 POP POP JUMP JUMPDEST PUSH1 0x0 DUP2 PUSH1 0x1 SIGNEXTEND SWAP1 POP SWAP2 SWAP1 POP JUMP JUMPDEST PUSH1 0x0 DUP2 SWAP1 POP SWAP2 SWAP1 POP JUMP JUMPDEST DUP3 DUP2 DUP4 CALLDATACOPY PUSH1 0x0 DUP4 DUP4 ADD MSTORE POP POP POP JUMP JUMPDEST PUSH1 0x0 JUMPDEST DUP4 DUP2 LT ISZERO PUSH2 0x89F JUMPI DUP1 DUP3 ADD MLOAD DUP2 DUP5 ADD MSTORE PUSH1 0x20 DUP2 ADD SWAP1 POP PUSH2 0x884 JUMP JUMPDEST DUP4 DUP2 GT ISZERO PUSH2 0x8AE JUMPI PUSH1 0x0 DUP5 DUP5 ADD MSTORE JUMPDEST POP POP POP POP JUMP JUMPDEST PUSH1 0x0 PUSH1 0x2 DUP3 DIV SWAP1 POP PUSH1 0x1 DUP3 AND DUP1 PUSH2 0x8CC JUMPI PUSH1 0x7F DUP3 AND SWAP2 POP JUMPDEST PUSH1 0x20 DUP3 LT DUP2 EQ ISZERO PUSH2 0x8E0 JUMPI PUSH2 0x8DF PUSH2 0x946 JUMP JUMPDEST JUMPDEST POP SWAP2 SWAP1 POP JUMP JUMPDEST PUSH2 0x8EF DUP3 PUSH2 0x9B8 JUMP JUMPDEST DUP2 ADD DUP2 DUP2 LT PUSH8 0xFFFFFFFFFFFFFFFF DUP3 GT OR ISZERO PUSH2 0x90E JUMPI PUSH2 0x90D PUSH2 0x975 JUMP JUMPDEST JUMPDEST DUP1 PUSH1 0x40 MSTORE POP POP POP JUMP JUMPDEST PUSH32 0x4E487B7100000000000000000000000000000000000000000000000000000000 PUSH1 0x0 MSTORE PUSH1 0x11 PUSH1 0x4 MSTORE PUSH1 0x24 PUSH1 0x0 REVERT JUMPDEST PUSH32 0x4E487B7100000000000000000000000000000000000000000000000000000000 PUSH1 0x0 MSTORE PUSH1 0x22 PUSH1 0x4 MSTORE PUSH1 0x24 PUSH1 0x0 REVERT JUMPDEST PUSH32 0x4E487B7100000000000000000000000000000000000000000000000000000000 PUSH1 0x0 MSTORE PUSH1 0x41 PUSH1 0x4 MSTORE PUSH1 0x24 PUSH1 0x0 REVERT JUMPDEST PUSH1 0x0 DUP1 REVERT JUMPDEST PUSH1 0x0 DUP1 REVERT JUMPDEST PUSH1 0x0 DUP1 REVERT JUMPDEST PUSH1 0x0 DUP1 REVERT JUMPDEST PUSH1 0x0 PUSH1 0x1F NOT PUSH1 0x1F DUP4 ADD AND SWAP1 POP SWAP2 SWAP1 POP JUMP JUMPDEST PUSH2 0x9D2 DUP2 PUSH2 0x85B JUMP JUMPDEST DUP2 EQ PUSH2 0x9DD JUMPI PUSH1 0x0 DUP1 REVERT JUMPDEST POP JUMP JUMPDEST PUSH2 0x9E9 DUP2 PUSH2 0x868 JUMP JUMPDEST DUP2 EQ PUSH2 0x9F4 JUMPI PUSH1 0x0 DUP1 REVERT JUMPDEST POP JUMP INVALID LOG2 PUSH5 0x6970667358 0x22 SLT KECCAK256 0xE1 0xDB DUP2 0x1F SSTORE 0x25 PUSH26 0xBC58C5345760B2C5D8BDE73B7B7B5685A99581EA70E3C8D0F964 PUSH20 0x6F6C634300080700330000000000000000000000 "
				},
				"gasEstimates": {
					"creation": {
						"codeDepositCost": "521000",
						"executionCost": "556",
						"totalCost": "521556"
					},
					"external": {
						"createProduit(string,int16)": "infinite",
						"getAllProducts()": "infinite",
						"getProductInfo(uint256)": "infinite"
					}
				},
				"methodIdentifiers": {
					"createProduit(string,int16)": "51401eef",
					"getAllProducts()": "02ee3a52",
					"getProductInfo(uint256)": "79a85e6c"
				}
			},
			"storageLayout": {
				"storage": [
					{
						"astId": 21,
						"contract": "contracts/ExoSupermarche.sol:supermarche",
						"label": "AllProduits",
						"offset": 0,
						"slot": "0",
						"type": "t_array(t_struct(productData)17_storage)dyn_storage"
					},
					{
						"astId": 25,
						"contract": "contracts/ExoSupermarche.sol:supermarche",
						"label": "AllClients",
						"offset": 0,
						"slot": "1",
						"type": "t_array(t_struct(clientData)10_storage)dyn_storage"
					},
					{
						"astId": 30,
						"contract": "contracts/ExoSupermarche.sol:supermarche",
						"label": "products",
						"offset": 0,
						"slot": "2",
						"type": "t_mapping(t_uint256,t_struct(productData)17_storage)"
					}
				],
				"types": {
					"t_array(t_struct(clientData)10_storage)dyn_storage": {
						"base": "t_struct(clientData)10_storage",
						"encoding": "dynamic_array",
						"label": "struct supermarche.clientData[]",
						"numberOfBytes": "32"
					},
					"t_array(t_struct(productData)17_storage)dyn_storage": {
						"base": "t_struct(productData)17_storage",
						"encoding": "dynamic_array",
						"label": "struct supermarche.productData[]",
						"numberOfBytes": "32"
					},
					"t_int16": {
						"encoding": "inplace",
						"label": "int16",
						"numberOfBytes": "2"
					},
					"t_mapping(t_uint256,t_struct(productData)17_storage)": {
						"encoding": "mapping",
						"key": "t_uint256",
						"label": "mapping(uint256 => struct supermarche.productData)",
						"numberOfBytes": "32",
						"value": "t_struct(productData)17_storage"
					},
					"t_string_storage": {
						"encoding": "bytes",
						"label": "string",
						"numberOfBytes": "32"
					},
					"t_struct(clientData)10_storage": {
						"encoding": "inplace",
						"label": "struct supermarche.clientData",
						"members": [
							{
								"astId": 3,
								"contract": "contracts/ExoSupermarche.sol:supermarche",
								"label": "id",
								"offset": 0,
								"slot": "0",
								"type": "t_uint256"
							},
							{
								"astId": 5,
								"contract": "contracts/ExoSupermarche.sol:supermarche",
								"label": "nom",
								"offset": 0,
								"slot": "1",
								"type": "t_string_storage"
							},
							{
								"astId": 9,
								"contract": "contracts/ExoSupermarche.sol:supermarche",
								"label": "panier",
								"offset": 0,
								"slot": "2",
								"type": "t_array(t_struct(productData)17_storage)dyn_storage"
							}
						],
						"numberOfBytes": "96"
					},
					"t_struct(productData)17_storage": {
						"encoding": "inplace",
						"label": "struct supermarche.productData",
						"members": [
							{
								"astId": 12,
								"contract": "contracts/ExoSupermarche.sol:supermarche",
								"label": "id",
								"offset": 0,
								"slot": "0",
								"type": "t_uint256"
							},
							{
								"astId": 14,
								"contract": "contracts/ExoSupermarche.sol:supermarche",
								"label": "libelle",
								"offset": 0,
								"slot": "1",
								"type": "t_string_storage"
							},
							{
								"astId": 16,
								"contract": "contracts/ExoSupermarche.sol:supermarche",
								"label": "prix",
								"offset": 0,
								"slot": "2",
								"type": "t_int16"
							}
						],
						"numberOfBytes": "96"
					},
					"t_uint256": {
						"encoding": "inplace",
						"label": "uint256",
						"numberOfBytes": "32"
					}
				}
			},
			"userdoc": {
				"kind": "user",
				"methods": {},
				"version": 1
			}
		}
	}
}