{
	"contracts/ExoSupermarche.sol": {
		"supermarche": {
			"abi": [
				{
					"inputs": [],
					"stateMutability": "nonpayable",
					"type": "constructor"
				},
				{
					"inputs": [
						{
							"internalType": "string",
							"name": "_libelle",
							"type": "string"
						},
						{
							"internalType": "int16",
							"name": "_prix",
							"type": "int16"
						}
					],
					"name": "createProduit",
					"outputs": [],
					"stateMutability": "nonpayable",
					"type": "function"
				},
				{
					"inputs": [],
					"name": "getAllProductInfo",
					"outputs": [
						{
							"components": [
								{
									"internalType": "uint256",
									"name": "id",
									"type": "uint256"
								},
								{
									"internalType": "string",
									"name": "libelle",
									"type": "string"
								},
								{
									"internalType": "int16",
									"name": "price",
									"type": "int16"
								}
							],
							"internalType": "struct supermarche.productData[]",
							"name": "",
							"type": "tuple[]"
						}
					],
					"stateMutability": "view",
					"type": "function"
				},
				{
					"inputs": [
						{
							"internalType": "uint256",
							"name": "_id",
							"type": "uint256"
						}
					],
					"name": "getProductInfoById",
					"outputs": [
						{
							"internalType": "string",
							"name": "",
							"type": "string"
						},
						{
							"internalType": "int16",
							"name": "",
							"type": "int16"
						}
					],
					"stateMutability": "view",
					"type": "function"
				},
				{
					"inputs": [
						{
							"internalType": "string",
							"name": "_name",
							"type": "string"
						}
					],
					"name": "getProductInfoByName",
					"outputs": [
						{
							"internalType": "string",
							"name": "",
							"type": "string"
						},
						{
							"internalType": "int16",
							"name": "",
							"type": "int16"
						}
					],
					"stateMutability": "view",
					"type": "function"
				},
				{
					"inputs": [
						{
							"internalType": "uint256",
							"name": "_id",
							"type": "uint256"
						},
						{
							"internalType": "string",
							"name": "_libelle",
							"type": "string"
						}
					],
					"name": "setProductInfoName",
					"outputs": [],
					"stateMutability": "nonpayable",
					"type": "function"
				},
				{
					"inputs": [
						{
							"internalType": "uint256",
							"name": "_id",
							"type": "uint256"
						},
						{
							"internalType": "int16",
							"name": "_price",
							"type": "int16"
						}
					],
					"name": "setProductInfoPrice",
					"outputs": [],
					"stateMutability": "nonpayable",
					"type": "function"
				}
			],
			"devdoc": {
				"kind": "dev",
				"methods": {},
				"version": 1
			},
			"evm": {
				"assembly": "    /* \"contracts/ExoSupermarche.sol\":59:1861  contract supermarche {\r... */\n  mstore(0x40, 0x80)\n    /* \"contracts/ExoSupermarche.sol\":316:317  0 */\n  0x00\n    /* \"contracts/ExoSupermarche.sol\":293:317  uint numberOfProduct = 0 */\n  dup1\n  sstore\n    /* \"contracts/ExoSupermarche.sol\":430:564  constructor() {\r... */\n  callvalue\n  dup1\n  iszero\n  tag_1\n  jumpi\n  0x00\n  dup1\n  revert\ntag_1:\n  pop\n    /* \"contracts/ExoSupermarche.sol\":455:482  createProduit(\"banane\", 10) */\n  tag_4\n  mload(0x40)\n  dup1\n  0x40\n  add\n  0x40\n  mstore\n  dup1\n  0x06\n  dup2\n  mstore\n  0x20\n  add\n  0x62616e616e650000000000000000000000000000000000000000000000000000\n  dup2\n  mstore\n  pop\n    /* \"contracts/ExoSupermarche.sol\":479:481  10 */\n  0x0a\n    /* \"contracts/ExoSupermarche.sol\":455:468  createProduit */\n  shl(0x20, tag_5)\n    /* \"contracts/ExoSupermarche.sol\":455:482  createProduit(\"banane\", 10) */\n  0x20\n  shr\n  jump\t// in\ntag_4:\n    /* \"contracts/ExoSupermarche.sol\":493:520  createProduit(\"fraise\", 15) */\n  tag_6\n  mload(0x40)\n  dup1\n  0x40\n  add\n  0x40\n  mstore\n  dup1\n  0x06\n  dup2\n  mstore\n  0x20\n  add\n  0x6672616973650000000000000000000000000000000000000000000000000000\n  dup2\n  mstore\n  pop\n    /* \"contracts/ExoSupermarche.sol\":517:519  15 */\n  0x0f\n    /* \"contracts/ExoSupermarche.sol\":493:506  createProduit */\n  shl(0x20, tag_5)\n    /* \"contracts/ExoSupermarche.sol\":493:520  createProduit(\"fraise\", 15) */\n  0x20\n  shr\n  jump\t// in\ntag_6:\n    /* \"contracts/ExoSupermarche.sol\":531:556  createProduit(\"pomme\", 8) */\n  tag_7\n  mload(0x40)\n  dup1\n  0x40\n  add\n  0x40\n  mstore\n  dup1\n  0x05\n  dup2\n  mstore\n  0x20\n  add\n  0x706f6d6d65000000000000000000000000000000000000000000000000000000\n  dup2\n  mstore\n  pop\n    /* \"contracts/ExoSupermarche.sol\":554:555  8 */\n  0x08\n    /* \"contracts/ExoSupermarche.sol\":531:544  createProduit */\n  shl(0x20, tag_5)\n    /* \"contracts/ExoSupermarche.sol\":531:556  createProduit(\"pomme\", 8) */\n  0x20\n  shr\n  jump\t// in\ntag_7:\n    /* \"contracts/ExoSupermarche.sol\":59:1861  contract supermarche {\r... */\n  jump(tag_8)\n    /* \"contracts/ExoSupermarche.sol\":574:890  function createProduit(string memory _libelle, int16 _prix) public {\r... */\ntag_5:\n    /* \"contracts/ExoSupermarche.sol\":652:659  uint id */\n  0x00\n    /* \"contracts/ExoSupermarche.sol\":680:681  1 */\n  0x01\n    /* \"contracts/ExoSupermarche.sol\":662:677  numberOfProduct */\n  sload(0x00)\n    /* \"contracts/ExoSupermarche.sol\":662:681  numberOfProduct + 1 */\n  tag_10\n  swap2\n  swap1\n  tag_11\n  jump\t// in\ntag_10:\n    /* \"contracts/ExoSupermarche.sol\":652:681  uint id = numberOfProduct + 1 */\n  swap1\n  pop\n    /* \"contracts/ExoSupermarche.sol\":692:707  numberOfProduct */\n  0x00\n  dup1\n    /* \"contracts/ExoSupermarche.sol\":692:709  numberOfProduct++ */\n  dup2\n  sload\n  dup1\n  swap3\n  swap2\n  swap1\n  tag_12\n  swap1\n  tag_13\n  jump\t// in\ntag_12:\n  swap2\n  swap1\n  pop\n  sstore\n  pop\n    /* \"contracts/ExoSupermarche.sol\":720:740  productData memory p */\n  0x00\n    /* \"contracts/ExoSupermarche.sol\":743:775  productData(id, _libelle, _prix) */\n  mload(0x40)\n  dup1\n  0x60\n  add\n  0x40\n  mstore\n  dup1\n    /* \"contracts/ExoSupermarche.sol\":755:757  id */\n  dup4\n    /* \"contracts/ExoSupermarche.sol\":743:775  productData(id, _libelle, _prix) */\n  dup2\n  mstore\n  0x20\n  add\n    /* \"contracts/ExoSupermarche.sol\":759:767  _libelle */\n  dup6\n    /* \"contracts/ExoSupermarche.sol\":743:775  productData(id, _libelle, _prix) */\n  dup2\n  mstore\n  0x20\n  add\n    /* \"contracts/ExoSupermarche.sol\":769:774  _prix */\n  dup5\n    /* \"contracts/ExoSupermarche.sol\":743:775  productData(id, _libelle, _prix) */\n  0x01\n  signextend\n  dup2\n  mstore\n  pop\n    /* \"contracts/ExoSupermarche.sol\":720:775  productData memory p = productData(id, _libelle, _prix) */\n  swap1\n  pop\n    /* \"contracts/ExoSupermarche.sol\":842:843  p */\n  dup1\n    /* \"contracts/ExoSupermarche.sol\":823:835  productsById */\n  0x01\n    /* \"contracts/ExoSupermarche.sol\":823:839  productsById[id] */\n  0x00\n    /* \"contracts/ExoSupermarche.sol\":836:838  id */\n  dup5\n    /* \"contracts/ExoSupermarche.sol\":823:839  productsById[id] */\n  dup2\n  mstore\n  0x20\n  add\n  swap1\n  dup2\n  mstore\n  0x20\n  add\n  0x00\n  keccak256\n    /* \"contracts/ExoSupermarche.sol\":823:843  productsById[id] = p */\n  0x00\n  dup3\n  add\n  mload\n  dup2\n  0x00\n  add\n  sstore\n  0x20\n  dup3\n  add\n  mload\n  dup2\n  0x01\n  add\n  swap1\n  dup1\n  mload\n  swap1\n  0x20\n  add\n  swap1\n  tag_14\n  swap3\n  swap2\n  swap1\n  tag_15\n  jump\t// in\ntag_14:\n  pop\n  0x40\n  dup3\n  add\n  mload\n  dup2\n  0x02\n  add\n  exp(0x0100, 0x00)\n  dup2\n  sload\n  dup2\n  0xffff\n  mul\n  not\n  and\n  swap1\n  dup4\n  0x01\n  signextend\n  0xffff\n  and\n  mul\n  or\n  swap1\n  sstore\n  pop\n  swap1\n  pop\n  pop\n    /* \"contracts/ExoSupermarche.sol\":881:882  p */\n  dup1\n    /* \"contracts/ExoSupermarche.sol\":854:868  productsByName */\n  0x02\n    /* \"contracts/ExoSupermarche.sol\":869:877  _libelle */\n  dup6\n    /* \"contracts/ExoSupermarche.sol\":854:878  productsByName[_libelle] */\n  mload(0x40)\n  tag_16\n  swap2\n  swap1\n  tag_17\n  jump\t// in\ntag_16:\n  swap1\n  dup2\n  mstore\n  0x20\n  add\n  mload(0x40)\n  dup1\n  swap2\n  sub\n  swap1\n  keccak256\n    /* \"contracts/ExoSupermarche.sol\":854:882  productsByName[_libelle] = p */\n  0x00\n  dup3\n  add\n  mload\n  dup2\n  0x00\n  add\n  sstore\n  0x20\n  dup3\n  add\n  mload\n  dup2\n  0x01\n  add\n  swap1\n  dup1\n  mload\n  swap1\n  0x20\n  add\n  swap1\n  tag_18\n  swap3\n  swap2\n  swap1\n  tag_15\n  jump\t// in\ntag_18:\n  pop\n  0x40\n  dup3\n  add\n  mload\n  dup2\n  0x02\n  add\n  exp(0x0100, 0x00)\n  dup2\n  sload\n  dup2\n  0xffff\n  mul\n  not\n  and\n  swap1\n  dup4\n  0x01\n  signextend\n  0xffff\n  and\n  mul\n  or\n  swap1\n  sstore\n  pop\n  swap1\n  pop\n  pop\n    /* \"contracts/ExoSupermarche.sol\":641:890  {\r... */\n  pop\n  pop\n    /* \"contracts/ExoSupermarche.sol\":574:890  function createProduit(string memory _libelle, int16 _prix) public {\r... */\n  pop\n  pop\n  jump\t// out\n    /* \"contracts/ExoSupermarche.sol\":59:1861  contract supermarche {\r... */\ntag_15:\n  dup3\n  dup1\n  sload\n  tag_19\n  swap1\n  tag_20\n  jump\t// in\ntag_19:\n  swap1\n  0x00\n  mstore\n  keccak256(0x00, 0x20)\n  swap1\n  0x1f\n  add\n  0x20\n  swap1\n  div\n  dup2\n  add\n  swap3\n  dup3\n  tag_22\n  jumpi\n  0x00\n  dup6\n  sstore\n  jump(tag_21)\ntag_22:\n  dup3\n  0x1f\n  lt\n  tag_23\n  jumpi\n  dup1\n  mload\n  not(0xff)\n  and\n  dup4\n  dup1\n  add\n  or\n  dup6\n  sstore\n  jump(tag_21)\ntag_23:\n  dup3\n  dup1\n  add\n  0x01\n  add\n  dup6\n  sstore\n  dup3\n  iszero\n  tag_21\n  jumpi\n  swap2\n  dup3\n  add\ntag_24:\n  dup3\n  dup2\n  gt\n  iszero\n  tag_25\n  jumpi\n  dup3\n  mload\n  dup3\n  sstore\n  swap2\n  0x20\n  add\n  swap2\n  swap1\n  0x01\n  add\n  swap1\n  jump(tag_24)\ntag_25:\ntag_21:\n  pop\n  swap1\n  pop\n  tag_26\n  swap2\n  swap1\n  tag_27\n  jump\t// in\ntag_26:\n  pop\n  swap1\n  jump\t// out\ntag_27:\ntag_28:\n  dup1\n  dup3\n  gt\n  iszero\n  tag_29\n  jumpi\n  0x00\n  dup2\n  0x00\n  swap1\n  sstore\n  pop\n  0x01\n  add\n  jump(tag_28)\ntag_29:\n  pop\n  swap1\n  jump\t// out\n    /* \"#utility.yul\":7:384   */\ntag_31:\n    /* \"#utility.yul\":113:116   */\n  0x00\n    /* \"#utility.yul\":141:180   */\n  tag_33\n    /* \"#utility.yul\":174:179   */\n  dup3\n    /* \"#utility.yul\":141:180   */\n  tag_34\n  jump\t// in\ntag_33:\n    /* \"#utility.yul\":196:285   */\n  tag_35\n    /* \"#utility.yul\":278:284   */\n  dup2\n    /* \"#utility.yul\":273:276   */\n  dup6\n    /* \"#utility.yul\":196:285   */\n  tag_36\n  jump\t// in\ntag_35:\n    /* \"#utility.yul\":189:285   */\n  swap4\n  pop\n    /* \"#utility.yul\":294:346   */\n  tag_37\n    /* \"#utility.yul\":339:345   */\n  dup2\n    /* \"#utility.yul\":334:337   */\n  dup6\n    /* \"#utility.yul\":327:331   */\n  0x20\n    /* \"#utility.yul\":320:325   */\n  dup7\n    /* \"#utility.yul\":316:332   */\n  add\n    /* \"#utility.yul\":294:346   */\n  tag_38\n  jump\t// in\ntag_37:\n    /* \"#utility.yul\":371:377   */\n  dup1\n    /* \"#utility.yul\":366:369   */\n  dup5\n    /* \"#utility.yul\":362:378   */\n  add\n    /* \"#utility.yul\":355:378   */\n  swap2\n  pop\n    /* \"#utility.yul\":117:384   */\n  pop\n    /* \"#utility.yul\":7:384   */\n  swap3\n  swap2\n  pop\n  pop\n  jump\t// out\n    /* \"#utility.yul\":390:665   */\ntag_17:\n    /* \"#utility.yul\":522:525   */\n  0x00\n    /* \"#utility.yul\":544:639   */\n  tag_40\n    /* \"#utility.yul\":635:638   */\n  dup3\n    /* \"#utility.yul\":626:632   */\n  dup5\n    /* \"#utility.yul\":544:639   */\n  tag_31\n  jump\t// in\ntag_40:\n    /* \"#utility.yul\":537:639   */\n  swap2\n  pop\n    /* \"#utility.yul\":656:659   */\n  dup2\n    /* \"#utility.yul\":649:659   */\n  swap1\n  pop\n    /* \"#utility.yul\":390:665   */\n  swap3\n  swap2\n  pop\n  pop\n  jump\t// out\n    /* \"#utility.yul\":671:770   */\ntag_34:\n    /* \"#utility.yul\":723:729   */\n  0x00\n    /* \"#utility.yul\":757:762   */\n  dup2\n    /* \"#utility.yul\":751:763   */\n  mload\n    /* \"#utility.yul\":741:763   */\n  swap1\n  pop\n    /* \"#utility.yul\":671:770   */\n  swap2\n  swap1\n  pop\n  jump\t// out\n    /* \"#utility.yul\":776:924   */\ntag_36:\n    /* \"#utility.yul\":878:889   */\n  0x00\n    /* \"#utility.yul\":915:918   */\n  dup2\n    /* \"#utility.yul\":900:918   */\n  swap1\n  pop\n    /* \"#utility.yul\":776:924   */\n  swap3\n  swap2\n  pop\n  pop\n  jump\t// out\n    /* \"#utility.yul\":930:1235   */\ntag_11:\n    /* \"#utility.yul\":970:973   */\n  0x00\n    /* \"#utility.yul\":989:1009   */\n  tag_44\n    /* \"#utility.yul\":1007:1008   */\n  dup3\n    /* \"#utility.yul\":989:1009   */\n  tag_45\n  jump\t// in\ntag_44:\n    /* \"#utility.yul\":984:1009   */\n  swap2\n  pop\n    /* \"#utility.yul\":1023:1043   */\n  tag_46\n    /* \"#utility.yul\":1041:1042   */\n  dup4\n    /* \"#utility.yul\":1023:1043   */\n  tag_45\n  jump\t// in\ntag_46:\n    /* \"#utility.yul\":1018:1043   */\n  swap3\n  pop\n    /* \"#utility.yul\":1177:1178   */\n  dup3\n    /* \"#utility.yul\":1109:1175   */\n  0xffffffffffffffffffffffffffffffffffffffffffffffffffffffffffffffff\n    /* \"#utility.yul\":1105:1179   */\n  sub\n    /* \"#utility.yul\":1102:1103   */\n  dup3\n    /* \"#utility.yul\":1099:1180   */\n  gt\n    /* \"#utility.yul\":1096:1203   */\n  iszero\n  tag_47\n  jumpi\n    /* \"#utility.yul\":1183:1201   */\n  tag_48\n  tag_49\n  jump\t// in\ntag_48:\n    /* \"#utility.yul\":1096:1203   */\ntag_47:\n    /* \"#utility.yul\":1227:1228   */\n  dup3\n    /* \"#utility.yul\":1224:1225   */\n  dup3\n    /* \"#utility.yul\":1220:1229   */\n  add\n    /* \"#utility.yul\":1213:1229   */\n  swap1\n  pop\n    /* \"#utility.yul\":930:1235   */\n  swap3\n  swap2\n  pop\n  pop\n  jump\t// out\n    /* \"#utility.yul\":1241:1318   */\ntag_45:\n    /* \"#utility.yul\":1278:1285   */\n  0x00\n    /* \"#utility.yul\":1307:1312   */\n  dup2\n    /* \"#utility.yul\":1296:1312   */\n  swap1\n  pop\n    /* \"#utility.yul\":1241:1318   */\n  swap2\n  swap1\n  pop\n  jump\t// out\n    /* \"#utility.yul\":1324:1631   */\ntag_38:\n    /* \"#utility.yul\":1392:1393   */\n  0x00\n    /* \"#utility.yul\":1402:1515   */\ntag_52:\n    /* \"#utility.yul\":1416:1422   */\n  dup4\n    /* \"#utility.yul\":1413:1414   */\n  dup2\n    /* \"#utility.yul\":1410:1423   */\n  lt\n    /* \"#utility.yul\":1402:1515   */\n  iszero\n  tag_54\n  jumpi\n    /* \"#utility.yul\":1501:1502   */\n  dup1\n    /* \"#utility.yul\":1496:1499   */\n  dup3\n    /* \"#utility.yul\":1492:1503   */\n  add\n    /* \"#utility.yul\":1486:1504   */\n  mload\n    /* \"#utility.yul\":1482:1483   */\n  dup2\n    /* \"#utility.yul\":1477:1480   */\n  dup5\n    /* \"#utility.yul\":1473:1484   */\n  add\n    /* \"#utility.yul\":1466:1505   */\n  mstore\n    /* \"#utility.yul\":1438:1440   */\n  0x20\n    /* \"#utility.yul\":1435:1436   */\n  dup2\n    /* \"#utility.yul\":1431:1441   */\n  add\n    /* \"#utility.yul\":1426:1441   */\n  swap1\n  pop\n    /* \"#utility.yul\":1402:1515   */\n  jump(tag_52)\ntag_54:\n    /* \"#utility.yul\":1533:1539   */\n  dup4\n    /* \"#utility.yul\":1530:1531   */\n  dup2\n    /* \"#utility.yul\":1527:1540   */\n  gt\n    /* \"#utility.yul\":1524:1625   */\n  iszero\n  tag_55\n  jumpi\n    /* \"#utility.yul\":1613:1614   */\n  0x00\n    /* \"#utility.yul\":1604:1610   */\n  dup5\n    /* \"#utility.yul\":1599:1602   */\n  dup5\n    /* \"#utility.yul\":1595:1611   */\n  add\n    /* \"#utility.yul\":1588:1615   */\n  mstore\n    /* \"#utility.yul\":1524:1625   */\ntag_55:\n    /* \"#utility.yul\":1373:1631   */\n  pop\n    /* \"#utility.yul\":1324:1631   */\n  pop\n  pop\n  pop\n  jump\t// out\n    /* \"#utility.yul\":1637:1957   */\ntag_20:\n    /* \"#utility.yul\":1681:1687   */\n  0x00\n    /* \"#utility.yul\":1718:1719   */\n  0x02\n    /* \"#utility.yul\":1712:1716   */\n  dup3\n    /* \"#utility.yul\":1708:1720   */\n  div\n    /* \"#utility.yul\":1698:1720   */\n  swap1\n  pop\n    /* \"#utility.yul\":1765:1766   */\n  0x01\n    /* \"#utility.yul\":1759:1763   */\n  dup3\n    /* \"#utility.yul\":1755:1767   */\n  and\n    /* \"#utility.yul\":1786:1804   */\n  dup1\n    /* \"#utility.yul\":1776:1857   */\n  tag_57\n  jumpi\n    /* \"#utility.yul\":1842:1846   */\n  0x7f\n    /* \"#utility.yul\":1834:1840   */\n  dup3\n    /* \"#utility.yul\":1830:1847   */\n  and\n    /* \"#utility.yul\":1820:1847   */\n  swap2\n  pop\n    /* \"#utility.yul\":1776:1857   */\ntag_57:\n    /* \"#utility.yul\":1904:1906   */\n  0x20\n    /* \"#utility.yul\":1896:1902   */\n  dup3\n    /* \"#utility.yul\":1893:1907   */\n  lt\n    /* \"#utility.yul\":1873:1891   */\n  dup2\n    /* \"#utility.yul\":1870:1908   */\n  eq\n    /* \"#utility.yul\":1867:1951   */\n  iszero\n  tag_58\n  jumpi\n    /* \"#utility.yul\":1923:1941   */\n  tag_59\n  tag_60\n  jump\t// in\ntag_59:\n    /* \"#utility.yul\":1867:1951   */\ntag_58:\n    /* \"#utility.yul\":1688:1957   */\n  pop\n    /* \"#utility.yul\":1637:1957   */\n  swap2\n  swap1\n  pop\n  jump\t// out\n    /* \"#utility.yul\":1963:2196   */\ntag_13:\n    /* \"#utility.yul\":2002:2005   */\n  0x00\n    /* \"#utility.yul\":2025:2049   */\n  tag_62\n    /* \"#utility.yul\":2043:2048   */\n  dup3\n    /* \"#utility.yul\":2025:2049   */\n  tag_45\n  jump\t// in\ntag_62:\n    /* \"#utility.yul\":2016:2049   */\n  swap2\n  pop\n    /* \"#utility.yul\":2071:2137   */\n  0xffffffffffffffffffffffffffffffffffffffffffffffffffffffffffffffff\n    /* \"#utility.yul\":2064:2069   */\n  dup3\n    /* \"#utility.yul\":2061:2138   */\n  eq\n    /* \"#utility.yul\":2058:2161   */\n  iszero\n  tag_63\n  jumpi\n    /* \"#utility.yul\":2141:2159   */\n  tag_64\n  tag_49\n  jump\t// in\ntag_64:\n    /* \"#utility.yul\":2058:2161   */\ntag_63:\n    /* \"#utility.yul\":2188:2189   */\n  0x01\n    /* \"#utility.yul\":2181:2186   */\n  dup3\n    /* \"#utility.yul\":2177:2190   */\n  add\n    /* \"#utility.yul\":2170:2190   */\n  swap1\n  pop\n    /* \"#utility.yul\":1963:2196   */\n  swap2\n  swap1\n  pop\n  jump\t// out\n    /* \"#utility.yul\":2202:2382   */\ntag_49:\n    /* \"#utility.yul\":2250:2327   */\n  0x4e487b7100000000000000000000000000000000000000000000000000000000\n    /* \"#utility.yul\":2247:2248   */\n  0x00\n    /* \"#utility.yul\":2240:2328   */\n  mstore\n    /* \"#utility.yul\":2347:2351   */\n  0x11\n    /* \"#utility.yul\":2344:2345   */\n  0x04\n    /* \"#utility.yul\":2337:2352   */\n  mstore\n    /* \"#utility.yul\":2371:2375   */\n  0x24\n    /* \"#utility.yul\":2368:2369   */\n  0x00\n    /* \"#utility.yul\":2361:2376   */\n  revert\n    /* \"#utility.yul\":2388:2568   */\ntag_60:\n    /* \"#utility.yul\":2436:2513   */\n  0x4e487b7100000000000000000000000000000000000000000000000000000000\n    /* \"#utility.yul\":2433:2434   */\n  0x00\n    /* \"#utility.yul\":2426:2514   */\n  mstore\n    /* \"#utility.yul\":2533:2537   */\n  0x22\n    /* \"#utility.yul\":2530:2531   */\n  0x04\n    /* \"#utility.yul\":2523:2538   */\n  mstore\n    /* \"#utility.yul\":2557:2561   */\n  0x24\n    /* \"#utility.yul\":2554:2555   */\n  0x00\n    /* \"#utility.yul\":2547:2562   */\n  revert\n    /* \"contracts/ExoSupermarche.sol\":59:1861  contract supermarche {\r... */\ntag_8:\n  dataSize(sub_0)\n  dup1\n  dataOffset(sub_0)\n  0x00\n  codecopy\n  0x00\n  return\nstop\n\nsub_0: assembly {\n        /* \"contracts/ExoSupermarche.sol\":59:1861  contract supermarche {\r... */\n      mstore(0x40, 0x80)\n      callvalue\n      dup1\n      iszero\n      tag_1\n      jumpi\n      0x00\n      dup1\n      revert\n    tag_1:\n      pop\n      jumpi(tag_2, lt(calldatasize, 0x04))\n      shr(0xe0, calldataload(0x00))\n      dup1\n      0x3117b11c\n      eq\n      tag_3\n      jumpi\n      dup1\n      0x51401eef\n      eq\n      tag_4\n      jumpi\n      dup1\n      0x5b315089\n      eq\n      tag_5\n      jumpi\n      dup1\n      0x62c2886b\n      eq\n      tag_6\n      jumpi\n      dup1\n      0x65c3e805\n      eq\n      tag_7\n      jumpi\n      dup1\n      0xd7f4933c\n      eq\n      tag_8\n      jumpi\n    tag_2:\n      0x00\n      dup1\n      revert\n        /* \"contracts/ExoSupermarche.sol\":1329:1453  function setProductInfoName(uint _id, string memory _libelle) public {\r... */\n    tag_3:\n      tag_9\n      0x04\n      dup1\n      calldatasize\n      sub\n      dup2\n      add\n      swap1\n      tag_10\n      swap2\n      swap1\n      tag_11\n      jump\t// in\n    tag_10:\n      tag_12\n      jump\t// in\n    tag_9:\n      stop\n        /* \"contracts/ExoSupermarche.sol\":574:890  function createProduit(string memory _libelle, int16 _prix) public {\r... */\n    tag_4:\n      tag_13\n      0x04\n      dup1\n      calldatasize\n      sub\n      dup2\n      add\n      swap1\n      tag_14\n      swap2\n      swap1\n      tag_15\n      jump\t// in\n    tag_14:\n      tag_16\n      jump\t// in\n    tag_13:\n      stop\n        /* \"contracts/ExoSupermarche.sol\":1580:1856  function getAllProductInfo() public view returns(productData[] memory) {\r... */\n    tag_5:\n      tag_17\n      tag_18\n      jump\t// in\n    tag_17:\n      mload(0x40)\n      tag_19\n      swap2\n      swap1\n      tag_20\n      jump\t// in\n    tag_19:\n      mload(0x40)\n      dup1\n      swap2\n      sub\n      swap1\n      return\n        /* \"contracts/ExoSupermarche.sol\":1461:1572  function setProductInfoPrice(uint _id, int16 _price) public {\r... */\n    tag_6:\n      tag_21\n      0x04\n      dup1\n      calldatasize\n      sub\n      dup2\n      add\n      swap1\n      tag_22\n      swap2\n      swap1\n      tag_23\n      jump\t// in\n    tag_22:\n      tag_24\n      jump\t// in\n    tag_21:\n      stop\n        /* \"contracts/ExoSupermarche.sol\":901:1096  function getProductInfoById(uint _id) public view returns(string memory, int16) {\r... */\n    tag_7:\n      tag_25\n      0x04\n      dup1\n      calldatasize\n      sub\n      dup2\n      add\n      swap1\n      tag_26\n      swap2\n      swap1\n      tag_27\n      jump\t// in\n    tag_26:\n      tag_28\n      jump\t// in\n    tag_25:\n      mload(0x40)\n      tag_29\n      swap3\n      swap2\n      swap1\n      tag_30\n      jump\t// in\n    tag_29:\n      mload(0x40)\n      dup1\n      swap2\n      sub\n      swap1\n      return\n        /* \"contracts/ExoSupermarche.sol\":1105:1321  function getProductInfoByName(string memory _name) public view returns(string memory, int16) {\r... */\n    tag_8:\n      tag_31\n      0x04\n      dup1\n      calldatasize\n      sub\n      dup2\n      add\n      swap1\n      tag_32\n      swap2\n      swap1\n      tag_33\n      jump\t// in\n    tag_32:\n      tag_34\n      jump\t// in\n    tag_31:\n      mload(0x40)\n      tag_35\n      swap3\n      swap2\n      swap1\n      tag_30\n      jump\t// in\n    tag_35:\n      mload(0x40)\n      dup1\n      swap2\n      sub\n      swap1\n      return\n        /* \"contracts/ExoSupermarche.sol\":1329:1453  function setProductInfoName(uint _id, string memory _libelle) public {\r... */\n    tag_12:\n        /* \"contracts/ExoSupermarche.sol\":1437:1445  _libelle */\n      dup1\n        /* \"contracts/ExoSupermarche.sol\":1409:1421  productsById */\n      0x01\n        /* \"contracts/ExoSupermarche.sol\":1409:1426  productsById[_id] */\n      0x00\n        /* \"contracts/ExoSupermarche.sol\":1422:1425  _id */\n      dup5\n        /* \"contracts/ExoSupermarche.sol\":1409:1426  productsById[_id] */\n      dup2\n      mstore\n      0x20\n      add\n      swap1\n      dup2\n      mstore\n      0x20\n      add\n      0x00\n      keccak256\n        /* \"contracts/ExoSupermarche.sol\":1409:1434  productsById[_id].libelle */\n      0x01\n      add\n        /* \"contracts/ExoSupermarche.sol\":1409:1445  productsById[_id].libelle = _libelle */\n      swap1\n      dup1\n      mload\n      swap1\n      0x20\n      add\n      swap1\n      tag_37\n      swap3\n      swap2\n      swap1\n      tag_38\n      jump\t// in\n    tag_37:\n      pop\n        /* \"contracts/ExoSupermarche.sol\":1329:1453  function setProductInfoName(uint _id, string memory _libelle) public {\r... */\n      pop\n      pop\n      jump\t// out\n        /* \"contracts/ExoSupermarche.sol\":574:890  function createProduit(string memory _libelle, int16 _prix) public {\r... */\n    tag_16:\n        /* \"contracts/ExoSupermarche.sol\":652:659  uint id */\n      0x00\n        /* \"contracts/ExoSupermarche.sol\":680:681  1 */\n      0x01\n        /* \"contracts/ExoSupermarche.sol\":662:677  numberOfProduct */\n      sload(0x00)\n        /* \"contracts/ExoSupermarche.sol\":662:681  numberOfProduct + 1 */\n      tag_40\n      swap2\n      swap1\n      tag_41\n      jump\t// in\n    tag_40:\n        /* \"contracts/ExoSupermarche.sol\":652:681  uint id = numberOfProduct + 1 */\n      swap1\n      pop\n        /* \"contracts/ExoSupermarche.sol\":692:707  numberOfProduct */\n      0x00\n      dup1\n        /* \"contracts/ExoSupermarche.sol\":692:709  numberOfProduct++ */\n      dup2\n      sload\n      dup1\n      swap3\n      swap2\n      swap1\n      tag_42\n      swap1\n      tag_43\n      jump\t// in\n    tag_42:\n      swap2\n      swap1\n      pop\n      sstore\n      pop\n        /* \"contracts/ExoSupermarche.sol\":720:740  productData memory p */\n      0x00\n        /* \"contracts/ExoSupermarche.sol\":743:775  productData(id, _libelle, _prix) */\n      mload(0x40)\n      dup1\n      0x60\n      add\n      0x40\n      mstore\n      dup1\n        /* \"contracts/ExoSupermarche.sol\":755:757  id */\n      dup4\n        /* \"contracts/ExoSupermarche.sol\":743:775  productData(id, _libelle, _prix) */\n      dup2\n      mstore\n      0x20\n      add\n        /* \"contracts/ExoSupermarche.sol\":759:767  _libelle */\n      dup6\n        /* \"contracts/ExoSupermarche.sol\":743:775  productData(id, _libelle, _prix) */\n      dup2\n      mstore\n      0x20\n      add\n        /* \"contracts/ExoSupermarche.sol\":769:774  _prix */\n      dup5\n        /* \"contracts/ExoSupermarche.sol\":743:775  productData(id, _libelle, _prix) */\n      0x01\n      signextend\n      dup2\n      mstore\n      pop\n        /* \"contracts/ExoSupermarche.sol\":720:775  productData memory p = productData(id, _libelle, _prix) */\n      swap1\n      pop\n        /* \"contracts/ExoSupermarche.sol\":842:843  p */\n      dup1\n        /* \"contracts/ExoSupermarche.sol\":823:835  productsById */\n      0x01\n        /* \"contracts/ExoSupermarche.sol\":823:839  productsById[id] */\n      0x00\n        /* \"contracts/ExoSupermarche.sol\":836:838  id */\n      dup5\n        /* \"contracts/ExoSupermarche.sol\":823:839  productsById[id] */\n      dup2\n      mstore\n      0x20\n      add\n      swap1\n      dup2\n      mstore\n      0x20\n      add\n      0x00\n      keccak256\n        /* \"contracts/ExoSupermarche.sol\":823:843  productsById[id] = p */\n      0x00\n      dup3\n      add\n      mload\n      dup2\n      0x00\n      add\n      sstore\n      0x20\n      dup3\n      add\n      mload\n      dup2\n      0x01\n      add\n      swap1\n      dup1\n      mload\n      swap1\n      0x20\n      add\n      swap1\n      tag_44\n      swap3\n      swap2\n      swap1\n      tag_38\n      jump\t// in\n    tag_44:\n      pop\n      0x40\n      dup3\n      add\n      mload\n      dup2\n      0x02\n      add\n      exp(0x0100, 0x00)\n      dup2\n      sload\n      dup2\n      0xffff\n      mul\n      not\n      and\n      swap1\n      dup4\n      0x01\n      signextend\n      0xffff\n      and\n      mul\n      or\n      swap1\n      sstore\n      pop\n      swap1\n      pop\n      pop\n        /* \"contracts/ExoSupermarche.sol\":881:882  p */\n      dup1\n        /* \"contracts/ExoSupermarche.sol\":854:868  productsByName */\n      0x02\n        /* \"contracts/ExoSupermarche.sol\":869:877  _libelle */\n      dup6\n        /* \"contracts/ExoSupermarche.sol\":854:878  productsByName[_libelle] */\n      mload(0x40)\n      tag_45\n      swap2\n      swap1\n      tag_46\n      jump\t// in\n    tag_45:\n      swap1\n      dup2\n      mstore\n      0x20\n      add\n      mload(0x40)\n      dup1\n      swap2\n      sub\n      swap1\n      keccak256\n        /* \"contracts/ExoSupermarche.sol\":854:882  productsByName[_libelle] = p */\n      0x00\n      dup3\n      add\n      mload\n      dup2\n      0x00\n      add\n      sstore\n      0x20\n      dup3\n      add\n      mload\n      dup2\n      0x01\n      add\n      swap1\n      dup1\n      mload\n      swap1\n      0x20\n      add\n      swap1\n      tag_47\n      swap3\n      swap2\n      swap1\n      tag_38\n      jump\t// in\n    tag_47:\n      pop\n      0x40\n      dup3\n      add\n      mload\n      dup2\n      0x02\n      add\n      exp(0x0100, 0x00)\n      dup2\n      sload\n      dup2\n      0xffff\n      mul\n      not\n      and\n      swap1\n      dup4\n      0x01\n      signextend\n      0xffff\n      and\n      mul\n      or\n      swap1\n      sstore\n      pop\n      swap1\n      pop\n      pop\n        /* \"contracts/ExoSupermarche.sol\":641:890  {\r... */\n      pop\n      pop\n        /* \"contracts/ExoSupermarche.sol\":574:890  function createProduit(string memory _libelle, int16 _prix) public {\r... */\n      pop\n      pop\n      jump\t// out\n        /* \"contracts/ExoSupermarche.sol\":1580:1856  function getAllProductInfo() public view returns(productData[] memory) {\r... */\n    tag_18:\n        /* \"contracts/ExoSupermarche.sol\":1629:1649  productData[] memory */\n      0x60\n        /* \"contracts/ExoSupermarche.sol\":1662:1686  productData[] memory ret */\n      0x00\n        /* \"contracts/ExoSupermarche.sol\":1707:1722  numberOfProduct */\n      dup1\n      sload\n        /* \"contracts/ExoSupermarche.sol\":1689:1723  new productData[](numberOfProduct) */\n      0xffffffffffffffff\n      dup2\n      gt\n      iszero\n      tag_49\n      jumpi\n      tag_50\n      tag_51\n      jump\t// in\n    tag_50:\n    tag_49:\n      mload(0x40)\n      swap1\n      dup1\n      dup3\n      mstore\n      dup1\n      0x20\n      mul\n      0x20\n      add\n      dup3\n      add\n      0x40\n      mstore\n      dup1\n      iszero\n      tag_52\n      jumpi\n      dup2\n      0x20\n      add\n    tag_53:\n      tag_54\n      tag_55\n      jump\t// in\n    tag_54:\n      dup2\n      mstore\n      0x20\n      add\n      swap1\n      0x01\n      swap1\n      sub\n      swap1\n      dup2\n      tag_53\n      jumpi\n      swap1\n      pop\n    tag_52:\n      pop\n        /* \"contracts/ExoSupermarche.sol\":1662:1723  productData[] memory ret = new productData[](numberOfProduct) */\n      swap1\n      pop\n        /* \"contracts/ExoSupermarche.sol\":1739:1745  uint i */\n      0x00\n        /* \"contracts/ExoSupermarche.sol\":1734:1828  for (uint i = 0; i < numberOfProduct; i++) {\r... */\n    tag_56:\n        /* \"contracts/ExoSupermarche.sol\":1755:1770  numberOfProduct */\n      sload(0x00)\n        /* \"contracts/ExoSupermarche.sol\":1751:1752  i */\n      dup2\n        /* \"contracts/ExoSupermarche.sol\":1751:1770  i < numberOfProduct */\n      lt\n        /* \"contracts/ExoSupermarche.sol\":1734:1828  for (uint i = 0; i < numberOfProduct; i++) {\r... */\n      iszero\n      tag_57\n      jumpi\n        /* \"contracts/ExoSupermarche.sol\":1801:1813  productsById */\n      0x01\n        /* \"contracts/ExoSupermarche.sol\":1801:1816  productsById[i] */\n      0x00\n        /* \"contracts/ExoSupermarche.sol\":1814:1815  i */\n      dup3\n        /* \"contracts/ExoSupermarche.sol\":1801:1816  productsById[i] */\n      dup2\n      mstore\n      0x20\n      add\n      swap1\n      dup2\n      mstore\n      0x20\n      add\n      0x00\n      keccak256\n        /* \"contracts/ExoSupermarche.sol\":1792:1816  ret[i] = productsById[i] */\n      mload(0x40)\n      dup1\n      0x60\n      add\n      0x40\n      mstore\n      swap1\n      dup2\n      0x00\n      dup3\n      add\n      sload\n      dup2\n      mstore\n      0x20\n      add\n      0x01\n      dup3\n      add\n      dup1\n      sload\n      tag_59\n      swap1\n      tag_60\n      jump\t// in\n    tag_59:\n      dup1\n      0x1f\n      add\n      0x20\n      dup1\n      swap2\n      div\n      mul\n      0x20\n      add\n      mload(0x40)\n      swap1\n      dup2\n      add\n      0x40\n      mstore\n      dup1\n      swap3\n      swap2\n      swap1\n      dup2\n      dup2\n      mstore\n      0x20\n      add\n      dup3\n      dup1\n      sload\n      tag_61\n      swap1\n      tag_60\n      jump\t// in\n    tag_61:\n      dup1\n      iszero\n      tag_62\n      jumpi\n      dup1\n      0x1f\n      lt\n      tag_63\n      jumpi\n      0x0100\n      dup1\n      dup4\n      sload\n      div\n      mul\n      dup4\n      mstore\n      swap2\n      0x20\n      add\n      swap2\n      jump(tag_62)\n    tag_63:\n      dup3\n      add\n      swap2\n      swap1\n      0x00\n      mstore\n      keccak256(0x00, 0x20)\n      swap1\n    tag_64:\n      dup2\n      sload\n      dup2\n      mstore\n      swap1\n      0x01\n      add\n      swap1\n      0x20\n      add\n      dup1\n      dup4\n      gt\n      tag_64\n      jumpi\n      dup3\n      swap1\n      sub\n      0x1f\n      and\n      dup3\n      add\n      swap2\n    tag_62:\n      pop\n      pop\n      pop\n      pop\n      pop\n      dup2\n      mstore\n      0x20\n      add\n      0x02\n      dup3\n      add\n      0x00\n      swap1\n      sload\n      swap1\n      0x0100\n      exp\n      swap1\n      div\n      0x01\n      signextend\n      0x01\n      signextend\n      0x01\n      signextend\n      dup2\n      mstore\n      pop\n      pop\n        /* \"contracts/ExoSupermarche.sol\":1792:1795  ret */\n      dup3\n        /* \"contracts/ExoSupermarche.sol\":1796:1797  i */\n      dup3\n        /* \"contracts/ExoSupermarche.sol\":1792:1798  ret[i] */\n      dup2\n      mload\n      dup2\n      lt\n      tag_65\n      jumpi\n      tag_66\n      tag_67\n      jump\t// in\n    tag_66:\n    tag_65:\n      0x20\n      mul\n      0x20\n      add\n      add\n        /* \"contracts/ExoSupermarche.sol\":1792:1816  ret[i] = productsById[i] */\n      dup2\n      swap1\n      mstore\n      pop\n        /* \"contracts/ExoSupermarche.sol\":1772:1775  i++ */\n      dup1\n      dup1\n      tag_68\n      swap1\n      tag_43\n      jump\t// in\n    tag_68:\n      swap2\n      pop\n      pop\n        /* \"contracts/ExoSupermarche.sol\":1734:1828  for (uint i = 0; i < numberOfProduct; i++) {\r... */\n      jump(tag_56)\n    tag_57:\n      pop\n        /* \"contracts/ExoSupermarche.sol\":1845:1848  ret */\n      dup1\n        /* \"contracts/ExoSupermarche.sol\":1838:1848  return ret */\n      swap2\n      pop\n      pop\n        /* \"contracts/ExoSupermarche.sol\":1580:1856  function getAllProductInfo() public view returns(productData[] memory) {\r... */\n      swap1\n      jump\t// out\n        /* \"contracts/ExoSupermarche.sol\":1461:1572  function setProductInfoPrice(uint _id, int16 _price) public {\r... */\n    tag_24:\n        /* \"contracts/ExoSupermarche.sol\":1558:1564  _price */\n      dup1\n        /* \"contracts/ExoSupermarche.sol\":1532:1544  productsById */\n      0x01\n        /* \"contracts/ExoSupermarche.sol\":1532:1549  productsById[_id] */\n      0x00\n        /* \"contracts/ExoSupermarche.sol\":1545:1548  _id */\n      dup5\n        /* \"contracts/ExoSupermarche.sol\":1532:1549  productsById[_id] */\n      dup2\n      mstore\n      0x20\n      add\n      swap1\n      dup2\n      mstore\n      0x20\n      add\n      0x00\n      keccak256\n        /* \"contracts/ExoSupermarche.sol\":1532:1555  productsById[_id].price */\n      0x02\n      add\n      0x00\n        /* \"contracts/ExoSupermarche.sol\":1532:1564  productsById[_id].price = _price */\n      0x0100\n      exp\n      dup2\n      sload\n      dup2\n      0xffff\n      mul\n      not\n      and\n      swap1\n      dup4\n      0x01\n      signextend\n      0xffff\n      and\n      mul\n      or\n      swap1\n      sstore\n      pop\n        /* \"contracts/ExoSupermarche.sol\":1461:1572  function setProductInfoPrice(uint _id, int16 _price) public {\r... */\n      pop\n      pop\n      jump\t// out\n        /* \"contracts/ExoSupermarche.sol\":901:1096  function getProductInfoById(uint _id) public view returns(string memory, int16) {\r... */\n    tag_28:\n        /* \"contracts/ExoSupermarche.sol\":959:972  string memory */\n      0x60\n        /* \"contracts/ExoSupermarche.sol\":974:979  int16 */\n      0x00\n        /* \"contracts/ExoSupermarche.sol\":1014:1026  productsById */\n      0x01\n        /* \"contracts/ExoSupermarche.sol\":1014:1031  productsById[_id] */\n      0x00\n        /* \"contracts/ExoSupermarche.sol\":1027:1030  _id */\n      dup5\n        /* \"contracts/ExoSupermarche.sol\":1014:1031  productsById[_id] */\n      dup2\n      mstore\n      0x20\n      add\n      swap1\n      dup2\n      mstore\n      0x20\n      add\n      0x00\n      keccak256\n        /* \"contracts/ExoSupermarche.sol\":1014:1039  productsById[_id].libelle */\n      0x01\n      add\n        /* \"contracts/ExoSupermarche.sol\":1054:1066  productsById */\n      0x01\n        /* \"contracts/ExoSupermarche.sol\":1054:1071  productsById[_id] */\n      0x00\n        /* \"contracts/ExoSupermarche.sol\":1067:1070  _id */\n      dup6\n        /* \"contracts/ExoSupermarche.sol\":1054:1071  productsById[_id] */\n      dup2\n      mstore\n      0x20\n      add\n      swap1\n      dup2\n      mstore\n      0x20\n      add\n      0x00\n      keccak256\n        /* \"contracts/ExoSupermarche.sol\":1054:1077  productsById[_id].price */\n      0x02\n      add\n      0x00\n      swap1\n      sload\n      swap1\n      0x0100\n      exp\n      swap1\n      div\n      0x01\n      signextend\n        /* \"contracts/ExoSupermarche.sol\":992:1088  return (\r... */\n      dup2\n      dup1\n      sload\n      tag_71\n      swap1\n      tag_60\n      jump\t// in\n    tag_71:\n      dup1\n      0x1f\n      add\n      0x20\n      dup1\n      swap2\n      div\n      mul\n      0x20\n      add\n      mload(0x40)\n      swap1\n      dup2\n      add\n      0x40\n      mstore\n      dup1\n      swap3\n      swap2\n      swap1\n      dup2\n      dup2\n      mstore\n      0x20\n      add\n      dup3\n      dup1\n      sload\n      tag_72\n      swap1\n      tag_60\n      jump\t// in\n    tag_72:\n      dup1\n      iszero\n      tag_73\n      jumpi\n      dup1\n      0x1f\n      lt\n      tag_74\n      jumpi\n      0x0100\n      dup1\n      dup4\n      sload\n      div\n      mul\n      dup4\n      mstore\n      swap2\n      0x20\n      add\n      swap2\n      jump(tag_73)\n    tag_74:\n      dup3\n      add\n      swap2\n      swap1\n      0x00\n      mstore\n      keccak256(0x00, 0x20)\n      swap1\n    tag_75:\n      dup2\n      sload\n      dup2\n      mstore\n      swap1\n      0x01\n      add\n      swap1\n      0x20\n      add\n      dup1\n      dup4\n      gt\n      tag_75\n      jumpi\n      dup3\n      swap1\n      sub\n      0x1f\n      and\n      dup3\n      add\n      swap2\n    tag_73:\n      pop\n      pop\n      pop\n      pop\n      pop\n      swap2\n      pop\n      swap2\n      pop\n      swap2\n      pop\n        /* \"contracts/ExoSupermarche.sol\":901:1096  function getProductInfoById(uint _id) public view returns(string memory, int16) {\r... */\n      swap2\n      pop\n      swap2\n      jump\t// out\n        /* \"contracts/ExoSupermarche.sol\":1105:1321  function getProductInfoByName(string memory _name) public view returns(string memory, int16) {\r... */\n    tag_34:\n        /* \"contracts/ExoSupermarche.sol\":1176:1189  string memory */\n      0x60\n        /* \"contracts/ExoSupermarche.sol\":1191:1196  int16 */\n      0x00\n        /* \"contracts/ExoSupermarche.sol\":1231:1245  productsByName */\n      0x02\n        /* \"contracts/ExoSupermarche.sol\":1246:1251  _name */\n      dup4\n        /* \"contracts/ExoSupermarche.sol\":1231:1252  productsByName[_name] */\n      mload(0x40)\n      tag_77\n      swap2\n      swap1\n      tag_46\n      jump\t// in\n    tag_77:\n      swap1\n      dup2\n      mstore\n      0x20\n      add\n      mload(0x40)\n      dup1\n      swap2\n      sub\n      swap1\n      keccak256\n        /* \"contracts/ExoSupermarche.sol\":1231:1260  productsByName[_name].libelle */\n      0x01\n      add\n        /* \"contracts/ExoSupermarche.sol\":1275:1289  productsByName */\n      0x02\n        /* \"contracts/ExoSupermarche.sol\":1290:1295  _name */\n      dup5\n        /* \"contracts/ExoSupermarche.sol\":1275:1296  productsByName[_name] */\n      mload(0x40)\n      tag_78\n      swap2\n      swap1\n      tag_46\n      jump\t// in\n    tag_78:\n      swap1\n      dup2\n      mstore\n      0x20\n      add\n      mload(0x40)\n      dup1\n      swap2\n      sub\n      swap1\n      keccak256\n        /* \"contracts/ExoSupermarche.sol\":1275:1302  productsByName[_name].price */\n      0x02\n      add\n      0x00\n      swap1\n      sload\n      swap1\n      0x0100\n      exp\n      swap1\n      div\n      0x01\n      signextend\n        /* \"contracts/ExoSupermarche.sol\":1209:1313  return (\r... */\n      dup2\n      dup1\n      sload\n      tag_79\n      swap1\n      tag_60\n      jump\t// in\n    tag_79:\n      dup1\n      0x1f\n      add\n      0x20\n      dup1\n      swap2\n      div\n      mul\n      0x20\n      add\n      mload(0x40)\n      swap1\n      dup2\n      add\n      0x40\n      mstore\n      dup1\n      swap3\n      swap2\n      swap1\n      dup2\n      dup2\n      mstore\n      0x20\n      add\n      dup3\n      dup1\n      sload\n      tag_80\n      swap1\n      tag_60\n      jump\t// in\n    tag_80:\n      dup1\n      iszero\n      tag_81\n      jumpi\n      dup1\n      0x1f\n      lt\n      tag_82\n      jumpi\n      0x0100\n      dup1\n      dup4\n      sload\n      div\n      mul\n      dup4\n      mstore\n      swap2\n      0x20\n      add\n      swap2\n      jump(tag_81)\n    tag_82:\n      dup3\n      add\n      swap2\n      swap1\n      0x00\n      mstore\n      keccak256(0x00, 0x20)\n      swap1\n    tag_83:\n      dup2\n      sload\n      dup2\n      mstore\n      swap1\n      0x01\n      add\n      swap1\n      0x20\n      add\n      dup1\n      dup4\n      gt\n      tag_83\n      jumpi\n      dup3\n      swap1\n      sub\n      0x1f\n      and\n      dup3\n      add\n      swap2\n    tag_81:\n      pop\n      pop\n      pop\n      pop\n      pop\n      swap2\n      pop\n      swap2\n      pop\n      swap2\n      pop\n        /* \"contracts/ExoSupermarche.sol\":1105:1321  function getProductInfoByName(string memory _name) public view returns(string memory, int16) {\r... */\n      swap2\n      pop\n      swap2\n      jump\t// out\n    tag_38:\n      dup3\n      dup1\n      sload\n      tag_84\n      swap1\n      tag_60\n      jump\t// in\n    tag_84:\n      swap1\n      0x00\n      mstore\n      keccak256(0x00, 0x20)\n      swap1\n      0x1f\n      add\n      0x20\n      swap1\n      div\n      dup2\n      add\n      swap3\n      dup3\n      tag_86\n      jumpi\n      0x00\n      dup6\n      sstore\n      jump(tag_85)\n    tag_86:\n      dup3\n      0x1f\n      lt\n      tag_87\n      jumpi\n      dup1\n      mload\n      not(0xff)\n      and\n      dup4\n      dup1\n      add\n      or\n      dup6\n      sstore\n      jump(tag_85)\n    tag_87:\n      dup3\n      dup1\n      add\n      0x01\n      add\n      dup6\n      sstore\n      dup3\n      iszero\n      tag_85\n      jumpi\n      swap2\n      dup3\n      add\n    tag_88:\n      dup3\n      dup2\n      gt\n      iszero\n      tag_89\n      jumpi\n      dup3\n      mload\n      dup3\n      sstore\n      swap2\n      0x20\n      add\n      swap2\n      swap1\n      0x01\n      add\n      swap1\n      jump(tag_88)\n    tag_89:\n    tag_85:\n      pop\n      swap1\n      pop\n      tag_90\n      swap2\n      swap1\n      tag_91\n      jump\t// in\n    tag_90:\n      pop\n      swap1\n      jump\t// out\n    tag_55:\n      mload(0x40)\n      dup1\n      0x60\n      add\n      0x40\n      mstore\n      dup1\n      0x00\n      dup2\n      mstore\n      0x20\n      add\n      0x60\n      dup2\n      mstore\n      0x20\n      add\n      signextend(0x01, 0x00)\n      dup2\n      mstore\n      pop\n      swap1\n      jump\t// out\n    tag_91:\n    tag_92:\n      dup1\n      dup3\n      gt\n      iszero\n      tag_93\n      jumpi\n      0x00\n      dup2\n      0x00\n      swap1\n      sstore\n      pop\n      0x01\n      add\n      jump(tag_92)\n    tag_93:\n      pop\n      swap1\n      jump\t// out\n        /* \"#utility.yul\":7:419   */\n    tag_95:\n        /* \"#utility.yul\":85:90   */\n      0x00\n        /* \"#utility.yul\":110:176   */\n      tag_97\n        /* \"#utility.yul\":126:175   */\n      tag_98\n        /* \"#utility.yul\":168:174   */\n      dup5\n        /* \"#utility.yul\":126:175   */\n      tag_99\n      jump\t// in\n    tag_98:\n        /* \"#utility.yul\":110:176   */\n      tag_100\n      jump\t// in\n    tag_97:\n        /* \"#utility.yul\":101:176   */\n      swap1\n      pop\n        /* \"#utility.yul\":199:205   */\n      dup3\n        /* \"#utility.yul\":192:197   */\n      dup2\n        /* \"#utility.yul\":185:206   */\n      mstore\n        /* \"#utility.yul\":237:241   */\n      0x20\n        /* \"#utility.yul\":230:235   */\n      dup2\n        /* \"#utility.yul\":226:242   */\n      add\n        /* \"#utility.yul\":275:278   */\n      dup5\n        /* \"#utility.yul\":266:272   */\n      dup5\n        /* \"#utility.yul\":261:264   */\n      dup5\n        /* \"#utility.yul\":257:273   */\n      add\n        /* \"#utility.yul\":254:279   */\n      gt\n        /* \"#utility.yul\":251:363   */\n      iszero\n      tag_101\n      jumpi\n        /* \"#utility.yul\":282:361   */\n      tag_102\n      tag_103\n      jump\t// in\n    tag_102:\n        /* \"#utility.yul\":251:363   */\n    tag_101:\n        /* \"#utility.yul\":372:413   */\n      tag_104\n        /* \"#utility.yul\":406:412   */\n      dup5\n        /* \"#utility.yul\":401:404   */\n      dup3\n        /* \"#utility.yul\":396:399   */\n      dup6\n        /* \"#utility.yul\":372:413   */\n      tag_105\n      jump\t// in\n    tag_104:\n        /* \"#utility.yul\":91:419   */\n      pop\n        /* \"#utility.yul\":7:419   */\n      swap4\n      swap3\n      pop\n      pop\n      pop\n      jump\t// out\n        /* \"#utility.yul\":425:560   */\n    tag_106:\n        /* \"#utility.yul\":469:474   */\n      0x00\n        /* \"#utility.yul\":507:513   */\n      dup2\n        /* \"#utility.yul\":494:514   */\n      calldataload\n        /* \"#utility.yul\":485:514   */\n      swap1\n      pop\n        /* \"#utility.yul\":523:554   */\n      tag_108\n        /* \"#utility.yul\":548:553   */\n      dup2\n        /* \"#utility.yul\":523:554   */\n      tag_109\n      jump\t// in\n    tag_108:\n        /* \"#utility.yul\":425:560   */\n      swap3\n      swap2\n      pop\n      pop\n      jump\t// out\n        /* \"#utility.yul\":580:920   */\n    tag_110:\n        /* \"#utility.yul\":636:641   */\n      0x00\n        /* \"#utility.yul\":685:688   */\n      dup3\n        /* \"#utility.yul\":678:682   */\n      0x1f\n        /* \"#utility.yul\":670:676   */\n      dup4\n        /* \"#utility.yul\":666:683   */\n      add\n        /* \"#utility.yul\":662:689   */\n      slt\n        /* \"#utility.yul\":652:774   */\n      tag_112\n      jumpi\n        /* \"#utility.yul\":693:772   */\n      tag_113\n      tag_114\n      jump\t// in\n    tag_113:\n        /* \"#utility.yul\":652:774   */\n    tag_112:\n        /* \"#utility.yul\":810:816   */\n      dup2\n        /* \"#utility.yul\":797:817   */\n      calldataload\n        /* \"#utility.yul\":835:914   */\n      tag_115\n        /* \"#utility.yul\":910:913   */\n      dup5\n        /* \"#utility.yul\":902:908   */\n      dup3\n        /* \"#utility.yul\":895:899   */\n      0x20\n        /* \"#utility.yul\":887:893   */\n      dup7\n        /* \"#utility.yul\":883:900   */\n      add\n        /* \"#utility.yul\":835:914   */\n      tag_95\n      jump\t// in\n    tag_115:\n        /* \"#utility.yul\":826:914   */\n      swap2\n      pop\n        /* \"#utility.yul\":642:920   */\n      pop\n        /* \"#utility.yul\":580:920   */\n      swap3\n      swap2\n      pop\n      pop\n      jump\t// out\n        /* \"#utility.yul\":926:1065   */\n    tag_116:\n        /* \"#utility.yul\":972:977   */\n      0x00\n        /* \"#utility.yul\":1010:1016   */\n      dup2\n        /* \"#utility.yul\":997:1017   */\n      calldataload\n        /* \"#utility.yul\":988:1017   */\n      swap1\n      pop\n        /* \"#utility.yul\":1026:1059   */\n      tag_118\n        /* \"#utility.yul\":1053:1058   */\n      dup2\n        /* \"#utility.yul\":1026:1059   */\n      tag_119\n      jump\t// in\n    tag_118:\n        /* \"#utility.yul\":926:1065   */\n      swap3\n      swap2\n      pop\n      pop\n      jump\t// out\n        /* \"#utility.yul\":1071:1580   */\n    tag_33:\n        /* \"#utility.yul\":1140:1146   */\n      0x00\n        /* \"#utility.yul\":1189:1191   */\n      0x20\n        /* \"#utility.yul\":1177:1186   */\n      dup3\n        /* \"#utility.yul\":1168:1175   */\n      dup5\n        /* \"#utility.yul\":1164:1187   */\n      sub\n        /* \"#utility.yul\":1160:1192   */\n      slt\n        /* \"#utility.yul\":1157:1276   */\n      iszero\n      tag_121\n      jumpi\n        /* \"#utility.yul\":1195:1274   */\n      tag_122\n      tag_123\n      jump\t// in\n    tag_122:\n        /* \"#utility.yul\":1157:1276   */\n    tag_121:\n        /* \"#utility.yul\":1343:1344   */\n      0x00\n        /* \"#utility.yul\":1332:1341   */\n      dup3\n        /* \"#utility.yul\":1328:1345   */\n      add\n        /* \"#utility.yul\":1315:1346   */\n      calldataload\n        /* \"#utility.yul\":1373:1391   */\n      0xffffffffffffffff\n        /* \"#utility.yul\":1365:1371   */\n      dup2\n        /* \"#utility.yul\":1362:1392   */\n      gt\n        /* \"#utility.yul\":1359:1476   */\n      iszero\n      tag_124\n      jumpi\n        /* \"#utility.yul\":1395:1474   */\n      tag_125\n      tag_126\n      jump\t// in\n    tag_125:\n        /* \"#utility.yul\":1359:1476   */\n    tag_124:\n        /* \"#utility.yul\":1500:1563   */\n      tag_127\n        /* \"#utility.yul\":1555:1562   */\n      dup5\n        /* \"#utility.yul\":1546:1552   */\n      dup3\n        /* \"#utility.yul\":1535:1544   */\n      dup6\n        /* \"#utility.yul\":1531:1553   */\n      add\n        /* \"#utility.yul\":1500:1563   */\n      tag_110\n      jump\t// in\n    tag_127:\n        /* \"#utility.yul\":1490:1563   */\n      swap2\n      pop\n        /* \"#utility.yul\":1286:1573   */\n      pop\n        /* \"#utility.yul\":1071:1580   */\n      swap3\n      swap2\n      pop\n      pop\n      jump\t// out\n        /* \"#utility.yul\":1586:2236   */\n    tag_15:\n        /* \"#utility.yul\":1662:1668   */\n      0x00\n        /* \"#utility.yul\":1670:1676   */\n      dup1\n        /* \"#utility.yul\":1719:1721   */\n      0x40\n        /* \"#utility.yul\":1707:1716   */\n      dup4\n        /* \"#utility.yul\":1698:1705   */\n      dup6\n        /* \"#utility.yul\":1694:1717   */\n      sub\n        /* \"#utility.yul\":1690:1722   */\n      slt\n        /* \"#utility.yul\":1687:1806   */\n      iszero\n      tag_129\n      jumpi\n        /* \"#utility.yul\":1725:1804   */\n      tag_130\n      tag_123\n      jump\t// in\n    tag_130:\n        /* \"#utility.yul\":1687:1806   */\n    tag_129:\n        /* \"#utility.yul\":1873:1874   */\n      0x00\n        /* \"#utility.yul\":1862:1871   */\n      dup4\n        /* \"#utility.yul\":1858:1875   */\n      add\n        /* \"#utility.yul\":1845:1876   */\n      calldataload\n        /* \"#utility.yul\":1903:1921   */\n      0xffffffffffffffff\n        /* \"#utility.yul\":1895:1901   */\n      dup2\n        /* \"#utility.yul\":1892:1922   */\n      gt\n        /* \"#utility.yul\":1889:2006   */\n      iszero\n      tag_131\n      jumpi\n        /* \"#utility.yul\":1925:2004   */\n      tag_132\n      tag_126\n      jump\t// in\n    tag_132:\n        /* \"#utility.yul\":1889:2006   */\n    tag_131:\n        /* \"#utility.yul\":2030:2093   */\n      tag_133\n        /* \"#utility.yul\":2085:2092   */\n      dup6\n        /* \"#utility.yul\":2076:2082   */\n      dup3\n        /* \"#utility.yul\":2065:2074   */\n      dup7\n        /* \"#utility.yul\":2061:2083   */\n      add\n        /* \"#utility.yul\":2030:2093   */\n      tag_110\n      jump\t// in\n    tag_133:\n        /* \"#utility.yul\":2020:2093   */\n      swap3\n      pop\n        /* \"#utility.yul\":1816:2103   */\n      pop\n        /* \"#utility.yul\":2142:2144   */\n      0x20\n        /* \"#utility.yul\":2168:2219   */\n      tag_134\n        /* \"#utility.yul\":2211:2218   */\n      dup6\n        /* \"#utility.yul\":2202:2208   */\n      dup3\n        /* \"#utility.yul\":2191:2200   */\n      dup7\n        /* \"#utility.yul\":2187:2209   */\n      add\n        /* \"#utility.yul\":2168:2219   */\n      tag_106\n      jump\t// in\n    tag_134:\n        /* \"#utility.yul\":2158:2219   */\n      swap2\n      pop\n        /* \"#utility.yul\":2113:2229   */\n      pop\n        /* \"#utility.yul\":1586:2236   */\n      swap3\n      pop\n      swap3\n      swap1\n      pop\n      jump\t// out\n        /* \"#utility.yul\":2242:2571   */\n    tag_27:\n        /* \"#utility.yul\":2301:2307   */\n      0x00\n        /* \"#utility.yul\":2350:2352   */\n      0x20\n        /* \"#utility.yul\":2338:2347   */\n      dup3\n        /* \"#utility.yul\":2329:2336   */\n      dup5\n        /* \"#utility.yul\":2325:2348   */\n      sub\n        /* \"#utility.yul\":2321:2353   */\n      slt\n        /* \"#utility.yul\":2318:2437   */\n      iszero\n      tag_136\n      jumpi\n        /* \"#utility.yul\":2356:2435   */\n      tag_137\n      tag_123\n      jump\t// in\n    tag_137:\n        /* \"#utility.yul\":2318:2437   */\n    tag_136:\n        /* \"#utility.yul\":2476:2477   */\n      0x00\n        /* \"#utility.yul\":2501:2554   */\n      tag_138\n        /* \"#utility.yul\":2546:2553   */\n      dup5\n        /* \"#utility.yul\":2537:2543   */\n      dup3\n        /* \"#utility.yul\":2526:2535   */\n      dup6\n        /* \"#utility.yul\":2522:2544   */\n      add\n        /* \"#utility.yul\":2501:2554   */\n      tag_116\n      jump\t// in\n    tag_138:\n        /* \"#utility.yul\":2491:2554   */\n      swap2\n      pop\n        /* \"#utility.yul\":2447:2564   */\n      pop\n        /* \"#utility.yul\":2242:2571   */\n      swap3\n      swap2\n      pop\n      pop\n      jump\t// out\n        /* \"#utility.yul\":2577:3047   */\n    tag_23:\n        /* \"#utility.yul\":2643:2649   */\n      0x00\n        /* \"#utility.yul\":2651:2657   */\n      dup1\n        /* \"#utility.yul\":2700:2702   */\n      0x40\n        /* \"#utility.yul\":2688:2697   */\n      dup4\n        /* \"#utility.yul\":2679:2686   */\n      dup6\n        /* \"#utility.yul\":2675:2698   */\n      sub\n        /* \"#utility.yul\":2671:2703   */\n      slt\n        /* \"#utility.yul\":2668:2787   */\n      iszero\n      tag_140\n      jumpi\n        /* \"#utility.yul\":2706:2785   */\n      tag_141\n      tag_123\n      jump\t// in\n    tag_141:\n        /* \"#utility.yul\":2668:2787   */\n    tag_140:\n        /* \"#utility.yul\":2826:2827   */\n      0x00\n        /* \"#utility.yul\":2851:2904   */\n      tag_142\n        /* \"#utility.yul\":2896:2903   */\n      dup6\n        /* \"#utility.yul\":2887:2893   */\n      dup3\n        /* \"#utility.yul\":2876:2885   */\n      dup7\n        /* \"#utility.yul\":2872:2894   */\n      add\n        /* \"#utility.yul\":2851:2904   */\n      tag_116\n      jump\t// in\n    tag_142:\n        /* \"#utility.yul\":2841:2904   */\n      swap3\n      pop\n        /* \"#utility.yul\":2797:2914   */\n      pop\n        /* \"#utility.yul\":2953:2955   */\n      0x20\n        /* \"#utility.yul\":2979:3030   */\n      tag_143\n        /* \"#utility.yul\":3022:3029   */\n      dup6\n        /* \"#utility.yul\":3013:3019   */\n      dup3\n        /* \"#utility.yul\":3002:3011   */\n      dup7\n        /* \"#utility.yul\":2998:3020   */\n      add\n        /* \"#utility.yul\":2979:3030   */\n      tag_106\n      jump\t// in\n    tag_143:\n        /* \"#utility.yul\":2969:3030   */\n      swap2\n      pop\n        /* \"#utility.yul\":2924:3040   */\n      pop\n        /* \"#utility.yul\":2577:3047   */\n      swap3\n      pop\n      swap3\n      swap1\n      pop\n      jump\t// out\n        /* \"#utility.yul\":3053:3707   */\n    tag_11:\n        /* \"#utility.yul\":3131:3137   */\n      0x00\n        /* \"#utility.yul\":3139:3145   */\n      dup1\n        /* \"#utility.yul\":3188:3190   */\n      0x40\n        /* \"#utility.yul\":3176:3185   */\n      dup4\n        /* \"#utility.yul\":3167:3174   */\n      dup6\n        /* \"#utility.yul\":3163:3186   */\n      sub\n        /* \"#utility.yul\":3159:3191   */\n      slt\n        /* \"#utility.yul\":3156:3275   */\n      iszero\n      tag_145\n      jumpi\n        /* \"#utility.yul\":3194:3273   */\n      tag_146\n      tag_123\n      jump\t// in\n    tag_146:\n        /* \"#utility.yul\":3156:3275   */\n    tag_145:\n        /* \"#utility.yul\":3314:3315   */\n      0x00\n        /* \"#utility.yul\":3339:3392   */\n      tag_147\n        /* \"#utility.yul\":3384:3391   */\n      dup6\n        /* \"#utility.yul\":3375:3381   */\n      dup3\n        /* \"#utility.yul\":3364:3373   */\n      dup7\n        /* \"#utility.yul\":3360:3382   */\n      add\n        /* \"#utility.yul\":3339:3392   */\n      tag_116\n      jump\t// in\n    tag_147:\n        /* \"#utility.yul\":3329:3392   */\n      swap3\n      pop\n        /* \"#utility.yul\":3285:3402   */\n      pop\n        /* \"#utility.yul\":3469:3471   */\n      0x20\n        /* \"#utility.yul\":3458:3467   */\n      dup4\n        /* \"#utility.yul\":3454:3472   */\n      add\n        /* \"#utility.yul\":3441:3473   */\n      calldataload\n        /* \"#utility.yul\":3500:3518   */\n      0xffffffffffffffff\n        /* \"#utility.yul\":3492:3498   */\n      dup2\n        /* \"#utility.yul\":3489:3519   */\n      gt\n        /* \"#utility.yul\":3486:3603   */\n      iszero\n      tag_148\n      jumpi\n        /* \"#utility.yul\":3522:3601   */\n      tag_149\n      tag_126\n      jump\t// in\n    tag_149:\n        /* \"#utility.yul\":3486:3603   */\n    tag_148:\n        /* \"#utility.yul\":3627:3690   */\n      tag_150\n        /* \"#utility.yul\":3682:3689   */\n      dup6\n        /* \"#utility.yul\":3673:3679   */\n      dup3\n        /* \"#utility.yul\":3662:3671   */\n      dup7\n        /* \"#utility.yul\":3658:3680   */\n      add\n        /* \"#utility.yul\":3627:3690   */\n      tag_110\n      jump\t// in\n    tag_150:\n        /* \"#utility.yul\":3617:3690   */\n      swap2\n      pop\n        /* \"#utility.yul\":3412:3700   */\n      pop\n        /* \"#utility.yul\":3053:3707   */\n      swap3\n      pop\n      swap3\n      swap1\n      pop\n      jump\t// out\n        /* \"#utility.yul\":3713:3977   */\n    tag_151:\n        /* \"#utility.yul\":3836:3846   */\n      0x00\n        /* \"#utility.yul\":3871:3971   */\n      tag_153\n        /* \"#utility.yul\":3967:3970   */\n      dup4\n        /* \"#utility.yul\":3959:3965   */\n      dup4\n        /* \"#utility.yul\":3871:3971   */\n      tag_154\n      jump\t// in\n    tag_153:\n        /* \"#utility.yul\":3857:3971   */\n      swap1\n      pop\n        /* \"#utility.yul\":3713:3977   */\n      swap3\n      swap2\n      pop\n      pop\n      jump\t// out\n        /* \"#utility.yul\":4059:5186   */\n    tag_155:\n        /* \"#utility.yul\":4232:4235   */\n      0x00\n        /* \"#utility.yul\":4261:4342   */\n      tag_157\n        /* \"#utility.yul\":4336:4341   */\n      dup3\n        /* \"#utility.yul\":4261:4342   */\n      tag_158\n      jump\t// in\n    tag_157:\n        /* \"#utility.yul\":4358:4471   */\n      tag_159\n        /* \"#utility.yul\":4464:4470   */\n      dup2\n        /* \"#utility.yul\":4459:4462   */\n      dup6\n        /* \"#utility.yul\":4358:4471   */\n      tag_160\n      jump\t// in\n    tag_159:\n        /* \"#utility.yul\":4351:4471   */\n      swap4\n      pop\n        /* \"#utility.yul\":4497:4500   */\n      dup4\n        /* \"#utility.yul\":4542:4546   */\n      0x20\n        /* \"#utility.yul\":4534:4540   */\n      dup3\n        /* \"#utility.yul\":4530:4547   */\n      mul\n        /* \"#utility.yul\":4525:4528   */\n      dup6\n        /* \"#utility.yul\":4521:4548   */\n      add\n        /* \"#utility.yul\":4572:4655   */\n      tag_161\n        /* \"#utility.yul\":4649:4654   */\n      dup6\n        /* \"#utility.yul\":4572:4655   */\n      tag_162\n      jump\t// in\n    tag_161:\n        /* \"#utility.yul\":4678:4685   */\n      dup1\n        /* \"#utility.yul\":4709:4710   */\n      0x00\n        /* \"#utility.yul\":4694:5141   */\n    tag_163:\n        /* \"#utility.yul\":4719:4725   */\n      dup6\n        /* \"#utility.yul\":4716:4717   */\n      dup2\n        /* \"#utility.yul\":4713:4726   */\n      lt\n        /* \"#utility.yul\":4694:5141   */\n      iszero\n      tag_165\n      jumpi\n        /* \"#utility.yul\":4790:4799   */\n      dup5\n        /* \"#utility.yul\":4784:4788   */\n      dup5\n        /* \"#utility.yul\":4780:4800   */\n      sub\n        /* \"#utility.yul\":4775:4778   */\n      dup10\n        /* \"#utility.yul\":4768:4801   */\n      mstore\n        /* \"#utility.yul\":4841:4847   */\n      dup2\n        /* \"#utility.yul\":4835:4848   */\n      mload\n        /* \"#utility.yul\":4869:4987   */\n      tag_166\n        /* \"#utility.yul\":4982:4986   */\n      dup6\n        /* \"#utility.yul\":4967:4980   */\n      dup3\n        /* \"#utility.yul\":4869:4987   */\n      tag_151\n      jump\t// in\n    tag_166:\n        /* \"#utility.yul\":4861:4987   */\n      swap5\n      pop\n        /* \"#utility.yul\":5010:5097   */\n      tag_167\n        /* \"#utility.yul\":5090:5096   */\n      dup4\n        /* \"#utility.yul\":5010:5097   */\n      tag_168\n      jump\t// in\n    tag_167:\n        /* \"#utility.yul\":5000:5097   */\n      swap3\n      pop\n        /* \"#utility.yul\":5126:5130   */\n      0x20\n        /* \"#utility.yul\":5121:5124   */\n      dup11\n        /* \"#utility.yul\":5117:5131   */\n      add\n        /* \"#utility.yul\":5110:5131   */\n      swap10\n      pop\n        /* \"#utility.yul\":4754:5141   */\n      pop\n        /* \"#utility.yul\":4741:4742   */\n      0x01\n        /* \"#utility.yul\":4738:4739   */\n      dup2\n        /* \"#utility.yul\":4734:4743   */\n      add\n        /* \"#utility.yul\":4729:4743   */\n      swap1\n      pop\n        /* \"#utility.yul\":4694:5141   */\n      jump(tag_163)\n    tag_165:\n        /* \"#utility.yul\":4698:4712   */\n      pop\n        /* \"#utility.yul\":5157:5161   */\n      dup3\n        /* \"#utility.yul\":5150:5161   */\n      swap8\n      pop\n        /* \"#utility.yul\":5177:5180   */\n      dup8\n        /* \"#utility.yul\":5170:5180   */\n      swap6\n      pop\n        /* \"#utility.yul\":4237:5186   */\n      pop\n      pop\n      pop\n      pop\n      pop\n        /* \"#utility.yul\":4059:5186   */\n      swap3\n      swap2\n      pop\n      pop\n      jump\t// out\n        /* \"#utility.yul\":5192:5294   */\n    tag_169:\n        /* \"#utility.yul\":5265:5287   */\n      tag_171\n        /* \"#utility.yul\":5281:5286   */\n      dup2\n        /* \"#utility.yul\":5265:5287   */\n      tag_172\n      jump\t// in\n    tag_171:\n        /* \"#utility.yul\":5260:5263   */\n      dup3\n        /* \"#utility.yul\":5253:5288   */\n      mstore\n        /* \"#utility.yul\":5192:5294   */\n      pop\n      pop\n      jump\t// out\n        /* \"#utility.yul\":5300:5412   */\n    tag_173:\n        /* \"#utility.yul\":5383:5405   */\n      tag_175\n        /* \"#utility.yul\":5399:5404   */\n      dup2\n        /* \"#utility.yul\":5383:5405   */\n      tag_172\n      jump\t// in\n    tag_175:\n        /* \"#utility.yul\":5378:5381   */\n      dup3\n        /* \"#utility.yul\":5371:5406   */\n      mstore\n        /* \"#utility.yul\":5300:5412   */\n      pop\n      pop\n      jump\t// out\n        /* \"#utility.yul\":5418:5762   */\n    tag_176:\n        /* \"#utility.yul\":5496:5499   */\n      0x00\n        /* \"#utility.yul\":5524:5563   */\n      tag_178\n        /* \"#utility.yul\":5557:5562   */\n      dup3\n        /* \"#utility.yul\":5524:5563   */\n      tag_179\n      jump\t// in\n    tag_178:\n        /* \"#utility.yul\":5579:5640   */\n      tag_180\n        /* \"#utility.yul\":5633:5639   */\n      dup2\n        /* \"#utility.yul\":5628:5631   */\n      dup6\n        /* \"#utility.yul\":5579:5640   */\n      tag_181\n      jump\t// in\n    tag_180:\n        /* \"#utility.yul\":5572:5640   */\n      swap4\n      pop\n        /* \"#utility.yul\":5649:5701   */\n      tag_182\n        /* \"#utility.yul\":5694:5700   */\n      dup2\n        /* \"#utility.yul\":5689:5692   */\n      dup6\n        /* \"#utility.yul\":5682:5686   */\n      0x20\n        /* \"#utility.yul\":5675:5680   */\n      dup7\n        /* \"#utility.yul\":5671:5687   */\n      add\n        /* \"#utility.yul\":5649:5701   */\n      tag_183\n      jump\t// in\n    tag_182:\n        /* \"#utility.yul\":5726:5755   */\n      tag_184\n        /* \"#utility.yul\":5748:5754   */\n      dup2\n        /* \"#utility.yul\":5726:5755   */\n      tag_185\n      jump\t// in\n    tag_184:\n        /* \"#utility.yul\":5721:5724   */\n      dup5\n        /* \"#utility.yul\":5717:5756   */\n      add\n        /* \"#utility.yul\":5710:5756   */\n      swap2\n      pop\n        /* \"#utility.yul\":5500:5762   */\n      pop\n        /* \"#utility.yul\":5418:5762   */\n      swap3\n      swap2\n      pop\n      pop\n      jump\t// out\n        /* \"#utility.yul\":5768:6132   */\n    tag_186:\n        /* \"#utility.yul\":5856:5859   */\n      0x00\n        /* \"#utility.yul\":5884:5923   */\n      tag_188\n        /* \"#utility.yul\":5917:5922   */\n      dup3\n        /* \"#utility.yul\":5884:5923   */\n      tag_179\n      jump\t// in\n    tag_188:\n        /* \"#utility.yul\":5939:6010   */\n      tag_189\n        /* \"#utility.yul\":6003:6009   */\n      dup2\n        /* \"#utility.yul\":5998:6001   */\n      dup6\n        /* \"#utility.yul\":5939:6010   */\n      tag_190\n      jump\t// in\n    tag_189:\n        /* \"#utility.yul\":5932:6010   */\n      swap4\n      pop\n        /* \"#utility.yul\":6019:6071   */\n      tag_191\n        /* \"#utility.yul\":6064:6070   */\n      dup2\n        /* \"#utility.yul\":6059:6062   */\n      dup6\n        /* \"#utility.yul\":6052:6056   */\n      0x20\n        /* \"#utility.yul\":6045:6050   */\n      dup7\n        /* \"#utility.yul\":6041:6057   */\n      add\n        /* \"#utility.yul\":6019:6071   */\n      tag_183\n      jump\t// in\n    tag_191:\n        /* \"#utility.yul\":6096:6125   */\n      tag_192\n        /* \"#utility.yul\":6118:6124   */\n      dup2\n        /* \"#utility.yul\":6096:6125   */\n      tag_185\n      jump\t// in\n    tag_192:\n        /* \"#utility.yul\":6091:6094   */\n      dup5\n        /* \"#utility.yul\":6087:6126   */\n      add\n        /* \"#utility.yul\":6080:6126   */\n      swap2\n      pop\n        /* \"#utility.yul\":5860:6132   */\n      pop\n        /* \"#utility.yul\":5768:6132   */\n      swap3\n      swap2\n      pop\n      pop\n      jump\t// out\n        /* \"#utility.yul\":6138:6515   */\n    tag_193:\n        /* \"#utility.yul\":6244:6247   */\n      0x00\n        /* \"#utility.yul\":6272:6311   */\n      tag_195\n        /* \"#utility.yul\":6305:6310   */\n      dup3\n        /* \"#utility.yul\":6272:6311   */\n      tag_179\n      jump\t// in\n    tag_195:\n        /* \"#utility.yul\":6327:6416   */\n      tag_196\n        /* \"#utility.yul\":6409:6415   */\n      dup2\n        /* \"#utility.yul\":6404:6407   */\n      dup6\n        /* \"#utility.yul\":6327:6416   */\n      tag_197\n      jump\t// in\n    tag_196:\n        /* \"#utility.yul\":6320:6416   */\n      swap4\n      pop\n        /* \"#utility.yul\":6425:6477   */\n      tag_198\n        /* \"#utility.yul\":6470:6476   */\n      dup2\n        /* \"#utility.yul\":6465:6468   */\n      dup6\n        /* \"#utility.yul\":6458:6462   */\n      0x20\n        /* \"#utility.yul\":6451:6456   */\n      dup7\n        /* \"#utility.yul\":6447:6463   */\n      add\n        /* \"#utility.yul\":6425:6477   */\n      tag_183\n      jump\t// in\n    tag_198:\n        /* \"#utility.yul\":6502:6508   */\n      dup1\n        /* \"#utility.yul\":6497:6500   */\n      dup5\n        /* \"#utility.yul\":6493:6509   */\n      add\n        /* \"#utility.yul\":6486:6509   */\n      swap2\n      pop\n        /* \"#utility.yul\":6248:6515   */\n      pop\n        /* \"#utility.yul\":6138:6515   */\n      swap3\n      swap2\n      pop\n      pop\n      jump\t// out\n        /* \"#utility.yul\":6593:7365   */\n    tag_154:\n        /* \"#utility.yul\":6706:6709   */\n      0x00\n        /* \"#utility.yul\":6742:6746   */\n      0x60\n        /* \"#utility.yul\":6737:6740   */\n      dup4\n        /* \"#utility.yul\":6733:6747   */\n      add\n        /* \"#utility.yul\":6827:6831   */\n      0x00\n        /* \"#utility.yul\":6820:6825   */\n      dup4\n        /* \"#utility.yul\":6816:6832   */\n      add\n        /* \"#utility.yul\":6810:6833   */\n      mload\n        /* \"#utility.yul\":6846:6909   */\n      tag_200\n        /* \"#utility.yul\":6903:6907   */\n      0x00\n        /* \"#utility.yul\":6898:6901   */\n      dup7\n        /* \"#utility.yul\":6894:6908   */\n      add\n        /* \"#utility.yul\":6880:6892   */\n      dup3\n        /* \"#utility.yul\":6846:6909   */\n      tag_201\n      jump\t// in\n    tag_200:\n        /* \"#utility.yul\":6757:6919   */\n      pop\n        /* \"#utility.yul\":7004:7008   */\n      0x20\n        /* \"#utility.yul\":6997:7002   */\n      dup4\n        /* \"#utility.yul\":6993:7009   */\n      add\n        /* \"#utility.yul\":6987:7010   */\n      mload\n        /* \"#utility.yul\":7057:7060   */\n      dup5\n        /* \"#utility.yul\":7051:7055   */\n      dup3\n        /* \"#utility.yul\":7047:7061   */\n      sub\n        /* \"#utility.yul\":7040:7044   */\n      0x20\n        /* \"#utility.yul\":7035:7038   */\n      dup7\n        /* \"#utility.yul\":7031:7045   */\n      add\n        /* \"#utility.yul\":7024:7062   */\n      mstore\n        /* \"#utility.yul\":7083:7156   */\n      tag_202\n        /* \"#utility.yul\":7151:7155   */\n      dup3\n        /* \"#utility.yul\":7137:7149   */\n      dup3\n        /* \"#utility.yul\":7083:7156   */\n      tag_176\n      jump\t// in\n    tag_202:\n        /* \"#utility.yul\":7075:7156   */\n      swap2\n      pop\n        /* \"#utility.yul\":6929:7167   */\n      pop\n        /* \"#utility.yul\":7250:7254   */\n      0x40\n        /* \"#utility.yul\":7243:7248   */\n      dup4\n        /* \"#utility.yul\":7239:7255   */\n      add\n        /* \"#utility.yul\":7233:7256   */\n      mload\n        /* \"#utility.yul\":7269:7328   */\n      tag_203\n        /* \"#utility.yul\":7322:7326   */\n      0x40\n        /* \"#utility.yul\":7317:7320   */\n      dup7\n        /* \"#utility.yul\":7313:7327   */\n      add\n        /* \"#utility.yul\":7299:7311   */\n      dup3\n        /* \"#utility.yul\":7269:7328   */\n      tag_169\n      jump\t// in\n    tag_203:\n        /* \"#utility.yul\":7177:7338   */\n      pop\n        /* \"#utility.yul\":7355:7359   */\n      dup1\n        /* \"#utility.yul\":7348:7359   */\n      swap2\n      pop\n        /* \"#utility.yul\":6711:7365   */\n      pop\n        /* \"#utility.yul\":6593:7365   */\n      swap3\n      swap2\n      pop\n      pop\n      jump\t// out\n        /* \"#utility.yul\":7371:7479   */\n    tag_201:\n        /* \"#utility.yul\":7448:7472   */\n      tag_205\n        /* \"#utility.yul\":7466:7471   */\n      dup2\n        /* \"#utility.yul\":7448:7472   */\n      tag_206\n      jump\t// in\n    tag_205:\n        /* \"#utility.yul\":7443:7446   */\n      dup3\n        /* \"#utility.yul\":7436:7473   */\n      mstore\n        /* \"#utility.yul\":7371:7479   */\n      pop\n      pop\n      jump\t// out\n        /* \"#utility.yul\":7485:7760   */\n    tag_46:\n        /* \"#utility.yul\":7617:7620   */\n      0x00\n        /* \"#utility.yul\":7639:7734   */\n      tag_208\n        /* \"#utility.yul\":7730:7733   */\n      dup3\n        /* \"#utility.yul\":7721:7727   */\n      dup5\n        /* \"#utility.yul\":7639:7734   */\n      tag_193\n      jump\t// in\n    tag_208:\n        /* \"#utility.yul\":7632:7734   */\n      swap2\n      pop\n        /* \"#utility.yul\":7751:7754   */\n      dup2\n        /* \"#utility.yul\":7744:7754   */\n      swap1\n      pop\n        /* \"#utility.yul\":7485:7760   */\n      swap3\n      swap2\n      pop\n      pop\n      jump\t// out\n        /* \"#utility.yul\":7766:8247   */\n    tag_20:\n        /* \"#utility.yul\":7963:7967   */\n      0x00\n        /* \"#utility.yul\":8001:8003   */\n      0x20\n        /* \"#utility.yul\":7990:7999   */\n      dup3\n        /* \"#utility.yul\":7986:8004   */\n      add\n        /* \"#utility.yul\":7978:8004   */\n      swap1\n      pop\n        /* \"#utility.yul\":8050:8059   */\n      dup2\n        /* \"#utility.yul\":8044:8048   */\n      dup2\n        /* \"#utility.yul\":8040:8060   */\n      sub\n        /* \"#utility.yul\":8036:8037   */\n      0x00\n        /* \"#utility.yul\":8025:8034   */\n      dup4\n        /* \"#utility.yul\":8021:8038   */\n      add\n        /* \"#utility.yul\":8014:8061   */\n      mstore\n        /* \"#utility.yul\":8078:8240   */\n      tag_210\n        /* \"#utility.yul\":8235:8239   */\n      dup2\n        /* \"#utility.yul\":8226:8232   */\n      dup5\n        /* \"#utility.yul\":8078:8240   */\n      tag_155\n      jump\t// in\n    tag_210:\n        /* \"#utility.yul\":8070:8240   */\n      swap1\n      pop\n        /* \"#utility.yul\":7766:8247   */\n      swap3\n      swap2\n      pop\n      pop\n      jump\t// out\n        /* \"#utility.yul\":8253:8668   */\n    tag_30:\n        /* \"#utility.yul\":8390:8394   */\n      0x00\n        /* \"#utility.yul\":8428:8430   */\n      0x40\n        /* \"#utility.yul\":8417:8426   */\n      dup3\n        /* \"#utility.yul\":8413:8431   */\n      add\n        /* \"#utility.yul\":8405:8431   */\n      swap1\n      pop\n        /* \"#utility.yul\":8477:8486   */\n      dup2\n        /* \"#utility.yul\":8471:8475   */\n      dup2\n        /* \"#utility.yul\":8467:8487   */\n      sub\n        /* \"#utility.yul\":8463:8464   */\n      0x00\n        /* \"#utility.yul\":8452:8461   */\n      dup4\n        /* \"#utility.yul\":8448:8465   */\n      add\n        /* \"#utility.yul\":8441:8488   */\n      mstore\n        /* \"#utility.yul\":8505:8583   */\n      tag_212\n        /* \"#utility.yul\":8578:8582   */\n      dup2\n        /* \"#utility.yul\":8569:8575   */\n      dup6\n        /* \"#utility.yul\":8505:8583   */\n      tag_186\n      jump\t// in\n    tag_212:\n        /* \"#utility.yul\":8497:8583   */\n      swap1\n      pop\n        /* \"#utility.yul\":8593:8661   */\n      tag_213\n        /* \"#utility.yul\":8657:8659   */\n      0x20\n        /* \"#utility.yul\":8646:8655   */\n      dup4\n        /* \"#utility.yul\":8642:8660   */\n      add\n        /* \"#utility.yul\":8633:8639   */\n      dup5\n        /* \"#utility.yul\":8593:8661   */\n      tag_173\n      jump\t// in\n    tag_213:\n        /* \"#utility.yul\":8253:8668   */\n      swap4\n      swap3\n      pop\n      pop\n      pop\n      jump\t// out\n        /* \"#utility.yul\":8674:8803   */\n    tag_100:\n        /* \"#utility.yul\":8708:8714   */\n      0x00\n        /* \"#utility.yul\":8735:8755   */\n      tag_215\n      tag_216\n      jump\t// in\n    tag_215:\n        /* \"#utility.yul\":8725:8755   */\n      swap1\n      pop\n        /* \"#utility.yul\":8764:8797   */\n      tag_217\n        /* \"#utility.yul\":8792:8796   */\n      dup3\n        /* \"#utility.yul\":8784:8790   */\n      dup3\n        /* \"#utility.yul\":8764:8797   */\n      tag_218\n      jump\t// in\n    tag_217:\n        /* \"#utility.yul\":8674:8803   */\n      swap2\n      swap1\n      pop\n      jump\t// out\n        /* \"#utility.yul\":8809:8884   */\n    tag_216:\n        /* \"#utility.yul\":8842:8848   */\n      0x00\n        /* \"#utility.yul\":8875:8877   */\n      0x40\n        /* \"#utility.yul\":8869:8878   */\n      mload\n        /* \"#utility.yul\":8859:8878   */\n      swap1\n      pop\n        /* \"#utility.yul\":8809:8884   */\n      swap1\n      jump\t// out\n        /* \"#utility.yul\":8890:9198   */\n    tag_99:\n        /* \"#utility.yul\":8952:8956   */\n      0x00\n        /* \"#utility.yul\":9042:9060   */\n      0xffffffffffffffff\n        /* \"#utility.yul\":9034:9040   */\n      dup3\n        /* \"#utility.yul\":9031:9061   */\n      gt\n        /* \"#utility.yul\":9028:9084   */\n      iszero\n      tag_221\n      jumpi\n        /* \"#utility.yul\":9064:9082   */\n      tag_222\n      tag_51\n      jump\t// in\n    tag_222:\n        /* \"#utility.yul\":9028:9084   */\n    tag_221:\n        /* \"#utility.yul\":9102:9131   */\n      tag_223\n        /* \"#utility.yul\":9124:9130   */\n      dup3\n        /* \"#utility.yul\":9102:9131   */\n      tag_185\n      jump\t// in\n    tag_223:\n        /* \"#utility.yul\":9094:9131   */\n      swap1\n      pop\n        /* \"#utility.yul\":9186:9190   */\n      0x20\n        /* \"#utility.yul\":9180:9184   */\n      dup2\n        /* \"#utility.yul\":9176:9191   */\n      add\n        /* \"#utility.yul\":9168:9191   */\n      swap1\n      pop\n        /* \"#utility.yul\":8890:9198   */\n      swap2\n      swap1\n      pop\n      jump\t// out\n        /* \"#utility.yul\":9204:9363   */\n    tag_162:\n        /* \"#utility.yul\":9298:9302   */\n      0x00\n        /* \"#utility.yul\":9321:9324   */\n      dup2\n        /* \"#utility.yul\":9313:9324   */\n      swap1\n      pop\n        /* \"#utility.yul\":9351:9355   */\n      0x20\n        /* \"#utility.yul\":9346:9349   */\n      dup3\n        /* \"#utility.yul\":9342:9356   */\n      add\n        /* \"#utility.yul\":9334:9356   */\n      swap1\n      pop\n        /* \"#utility.yul\":9204:9363   */\n      swap2\n      swap1\n      pop\n      jump\t// out\n        /* \"#utility.yul\":9369:9510   */\n    tag_158:\n        /* \"#utility.yul\":9463:9469   */\n      0x00\n        /* \"#utility.yul\":9497:9502   */\n      dup2\n        /* \"#utility.yul\":9491:9503   */\n      mload\n        /* \"#utility.yul\":9481:9503   */\n      swap1\n      pop\n        /* \"#utility.yul\":9369:9510   */\n      swap2\n      swap1\n      pop\n      jump\t// out\n        /* \"#utility.yul\":9516:9615   */\n    tag_179:\n        /* \"#utility.yul\":9568:9574   */\n      0x00\n        /* \"#utility.yul\":9602:9607   */\n      dup2\n        /* \"#utility.yul\":9596:9608   */\n      mload\n        /* \"#utility.yul\":9586:9608   */\n      swap1\n      pop\n        /* \"#utility.yul\":9516:9615   */\n      swap2\n      swap1\n      pop\n      jump\t// out\n        /* \"#utility.yul\":9621:9761   */\n    tag_168:\n        /* \"#utility.yul\":9718:9722   */\n      0x00\n        /* \"#utility.yul\":9750:9754   */\n      0x20\n        /* \"#utility.yul\":9745:9748   */\n      dup3\n        /* \"#utility.yul\":9741:9755   */\n      add\n        /* \"#utility.yul\":9733:9755   */\n      swap1\n      pop\n        /* \"#utility.yul\":9621:9761   */\n      swap2\n      swap1\n      pop\n      jump\t// out\n        /* \"#utility.yul\":9767:9978   */\n    tag_160:\n        /* \"#utility.yul\":9893:9904   */\n      0x00\n        /* \"#utility.yul\":9927:9933   */\n      dup3\n        /* \"#utility.yul\":9922:9925   */\n      dup3\n        /* \"#utility.yul\":9915:9934   */\n      mstore\n        /* \"#utility.yul\":9967:9971   */\n      0x20\n        /* \"#utility.yul\":9962:9965   */\n      dup3\n        /* \"#utility.yul\":9958:9972   */\n      add\n        /* \"#utility.yul\":9943:9972   */\n      swap1\n      pop\n        /* \"#utility.yul\":9767:9978   */\n      swap3\n      swap2\n      pop\n      pop\n      jump\t// out\n        /* \"#utility.yul\":9984:10143   */\n    tag_181:\n        /* \"#utility.yul\":10058:10069   */\n      0x00\n        /* \"#utility.yul\":10092:10098   */\n      dup3\n        /* \"#utility.yul\":10087:10090   */\n      dup3\n        /* \"#utility.yul\":10080:10099   */\n      mstore\n        /* \"#utility.yul\":10132:10136   */\n      0x20\n        /* \"#utility.yul\":10127:10130   */\n      dup3\n        /* \"#utility.yul\":10123:10137   */\n      add\n        /* \"#utility.yul\":10108:10137   */\n      swap1\n      pop\n        /* \"#utility.yul\":9984:10143   */\n      swap3\n      swap2\n      pop\n      pop\n      jump\t// out\n        /* \"#utility.yul\":10149:10318   */\n    tag_190:\n        /* \"#utility.yul\":10233:10244   */\n      0x00\n        /* \"#utility.yul\":10267:10273   */\n      dup3\n        /* \"#utility.yul\":10262:10265   */\n      dup3\n        /* \"#utility.yul\":10255:10274   */\n      mstore\n        /* \"#utility.yul\":10307:10311   */\n      0x20\n        /* \"#utility.yul\":10302:10305   */\n      dup3\n        /* \"#utility.yul\":10298:10312   */\n      add\n        /* \"#utility.yul\":10283:10312   */\n      swap1\n      pop\n        /* \"#utility.yul\":10149:10318   */\n      swap3\n      swap2\n      pop\n      pop\n      jump\t// out\n        /* \"#utility.yul\":10324:10472   */\n    tag_197:\n        /* \"#utility.yul\":10426:10437   */\n      0x00\n        /* \"#utility.yul\":10463:10466   */\n      dup2\n        /* \"#utility.yul\":10448:10466   */\n      swap1\n      pop\n        /* \"#utility.yul\":10324:10472   */\n      swap3\n      swap2\n      pop\n      pop\n      jump\t// out\n        /* \"#utility.yul\":10478:10783   */\n    tag_41:\n        /* \"#utility.yul\":10518:10521   */\n      0x00\n        /* \"#utility.yul\":10537:10557   */\n      tag_233\n        /* \"#utility.yul\":10555:10556   */\n      dup3\n        /* \"#utility.yul\":10537:10557   */\n      tag_206\n      jump\t// in\n    tag_233:\n        /* \"#utility.yul\":10532:10557   */\n      swap2\n      pop\n        /* \"#utility.yul\":10571:10591   */\n      tag_234\n        /* \"#utility.yul\":10589:10590   */\n      dup4\n        /* \"#utility.yul\":10571:10591   */\n      tag_206\n      jump\t// in\n    tag_234:\n        /* \"#utility.yul\":10566:10591   */\n      swap3\n      pop\n        /* \"#utility.yul\":10725:10726   */\n      dup3\n        /* \"#utility.yul\":10657:10723   */\n      0xffffffffffffffffffffffffffffffffffffffffffffffffffffffffffffffff\n        /* \"#utility.yul\":10653:10727   */\n      sub\n        /* \"#utility.yul\":10650:10651   */\n      dup3\n        /* \"#utility.yul\":10647:10728   */\n      gt\n        /* \"#utility.yul\":10644:10751   */\n      iszero\n      tag_235\n      jumpi\n        /* \"#utility.yul\":10731:10749   */\n      tag_236\n      tag_237\n      jump\t// in\n    tag_236:\n        /* \"#utility.yul\":10644:10751   */\n    tag_235:\n        /* \"#utility.yul\":10775:10776   */\n      dup3\n        /* \"#utility.yul\":10772:10773   */\n      dup3\n        /* \"#utility.yul\":10768:10777   */\n      add\n        /* \"#utility.yul\":10761:10777   */\n      swap1\n      pop\n        /* \"#utility.yul\":10478:10783   */\n      swap3\n      swap2\n      pop\n      pop\n      jump\t// out\n        /* \"#utility.yul\":10789:10879   */\n    tag_172:\n        /* \"#utility.yul\":10824:10831   */\n      0x00\n        /* \"#utility.yul\":10867:10872   */\n      dup2\n        /* \"#utility.yul\":10864:10865   */\n      0x01\n        /* \"#utility.yul\":10853:10873   */\n      signextend\n        /* \"#utility.yul\":10842:10873   */\n      swap1\n      pop\n        /* \"#utility.yul\":10789:10879   */\n      swap2\n      swap1\n      pop\n      jump\t// out\n        /* \"#utility.yul\":10885:10962   */\n    tag_206:\n        /* \"#utility.yul\":10922:10929   */\n      0x00\n        /* \"#utility.yul\":10951:10956   */\n      dup2\n        /* \"#utility.yul\":10940:10956   */\n      swap1\n      pop\n        /* \"#utility.yul\":10885:10962   */\n      swap2\n      swap1\n      pop\n      jump\t// out\n        /* \"#utility.yul\":10968:11122   */\n    tag_105:\n        /* \"#utility.yul\":11052:11058   */\n      dup3\n        /* \"#utility.yul\":11047:11050   */\n      dup2\n        /* \"#utility.yul\":11042:11045   */\n      dup4\n        /* \"#utility.yul\":11029:11059   */\n      calldatacopy\n        /* \"#utility.yul\":11114:11115   */\n      0x00\n        /* \"#utility.yul\":11105:11111   */\n      dup4\n        /* \"#utility.yul\":11100:11103   */\n      dup4\n        /* \"#utility.yul\":11096:11112   */\n      add\n        /* \"#utility.yul\":11089:11116   */\n      mstore\n        /* \"#utility.yul\":10968:11122   */\n      pop\n      pop\n      pop\n      jump\t// out\n        /* \"#utility.yul\":11128:11435   */\n    tag_183:\n        /* \"#utility.yul\":11196:11197   */\n      0x00\n        /* \"#utility.yul\":11206:11319   */\n    tag_242:\n        /* \"#utility.yul\":11220:11226   */\n      dup4\n        /* \"#utility.yul\":11217:11218   */\n      dup2\n        /* \"#utility.yul\":11214:11227   */\n      lt\n        /* \"#utility.yul\":11206:11319   */\n      iszero\n      tag_244\n      jumpi\n        /* \"#utility.yul\":11305:11306   */\n      dup1\n        /* \"#utility.yul\":11300:11303   */\n      dup3\n        /* \"#utility.yul\":11296:11307   */\n      add\n        /* \"#utility.yul\":11290:11308   */\n      mload\n        /* \"#utility.yul\":11286:11287   */\n      dup2\n        /* \"#utility.yul\":11281:11284   */\n      dup5\n        /* \"#utility.yul\":11277:11288   */\n      add\n        /* \"#utility.yul\":11270:11309   */\n      mstore\n        /* \"#utility.yul\":11242:11244   */\n      0x20\n        /* \"#utility.yul\":11239:11240   */\n      dup2\n        /* \"#utility.yul\":11235:11245   */\n      add\n        /* \"#utility.yul\":11230:11245   */\n      swap1\n      pop\n        /* \"#utility.yul\":11206:11319   */\n      jump(tag_242)\n    tag_244:\n        /* \"#utility.yul\":11337:11343   */\n      dup4\n        /* \"#utility.yul\":11334:11335   */\n      dup2\n        /* \"#utility.yul\":11331:11344   */\n      gt\n        /* \"#utility.yul\":11328:11429   */\n      iszero\n      tag_245\n      jumpi\n        /* \"#utility.yul\":11417:11418   */\n      0x00\n        /* \"#utility.yul\":11408:11414   */\n      dup5\n        /* \"#utility.yul\":11403:11406   */\n      dup5\n        /* \"#utility.yul\":11399:11415   */\n      add\n        /* \"#utility.yul\":11392:11419   */\n      mstore\n        /* \"#utility.yul\":11328:11429   */\n    tag_245:\n        /* \"#utility.yul\":11177:11435   */\n      pop\n        /* \"#utility.yul\":11128:11435   */\n      pop\n      pop\n      pop\n      jump\t// out\n        /* \"#utility.yul\":11441:11761   */\n    tag_60:\n        /* \"#utility.yul\":11485:11491   */\n      0x00\n        /* \"#utility.yul\":11522:11523   */\n      0x02\n        /* \"#utility.yul\":11516:11520   */\n      dup3\n        /* \"#utility.yul\":11512:11524   */\n      div\n        /* \"#utility.yul\":11502:11524   */\n      swap1\n      pop\n        /* \"#utility.yul\":11569:11570   */\n      0x01\n        /* \"#utility.yul\":11563:11567   */\n      dup3\n        /* \"#utility.yul\":11559:11571   */\n      and\n        /* \"#utility.yul\":11590:11608   */\n      dup1\n        /* \"#utility.yul\":11580:11661   */\n      tag_247\n      jumpi\n        /* \"#utility.yul\":11646:11650   */\n      0x7f\n        /* \"#utility.yul\":11638:11644   */\n      dup3\n        /* \"#utility.yul\":11634:11651   */\n      and\n        /* \"#utility.yul\":11624:11651   */\n      swap2\n      pop\n        /* \"#utility.yul\":11580:11661   */\n    tag_247:\n        /* \"#utility.yul\":11708:11710   */\n      0x20\n        /* \"#utility.yul\":11700:11706   */\n      dup3\n        /* \"#utility.yul\":11697:11711   */\n      lt\n        /* \"#utility.yul\":11677:11695   */\n      dup2\n        /* \"#utility.yul\":11674:11712   */\n      eq\n        /* \"#utility.yul\":11671:11755   */\n      iszero\n      tag_248\n      jumpi\n        /* \"#utility.yul\":11727:11745   */\n      tag_249\n      tag_250\n      jump\t// in\n    tag_249:\n        /* \"#utility.yul\":11671:11755   */\n    tag_248:\n        /* \"#utility.yul\":11492:11761   */\n      pop\n        /* \"#utility.yul\":11441:11761   */\n      swap2\n      swap1\n      pop\n      jump\t// out\n        /* \"#utility.yul\":11767:12048   */\n    tag_218:\n        /* \"#utility.yul\":11850:11877   */\n      tag_252\n        /* \"#utility.yul\":11872:11876   */\n      dup3\n        /* \"#utility.yul\":11850:11877   */\n      tag_185\n      jump\t// in\n    tag_252:\n        /* \"#utility.yul\":11842:11848   */\n      dup2\n        /* \"#utility.yul\":11838:11878   */\n      add\n        /* \"#utility.yul\":11980:11986   */\n      dup2\n        /* \"#utility.yul\":11968:11978   */\n      dup2\n        /* \"#utility.yul\":11965:11987   */\n      lt\n        /* \"#utility.yul\":11944:11962   */\n      0xffffffffffffffff\n        /* \"#utility.yul\":11932:11942   */\n      dup3\n        /* \"#utility.yul\":11929:11963   */\n      gt\n        /* \"#utility.yul\":11926:11988   */\n      or\n        /* \"#utility.yul\":11923:12011   */\n      iszero\n      tag_253\n      jumpi\n        /* \"#utility.yul\":11991:12009   */\n      tag_254\n      tag_51\n      jump\t// in\n    tag_254:\n        /* \"#utility.yul\":11923:12011   */\n    tag_253:\n        /* \"#utility.yul\":12031:12041   */\n      dup1\n        /* \"#utility.yul\":12027:12029   */\n      0x40\n        /* \"#utility.yul\":12020:12042   */\n      mstore\n        /* \"#utility.yul\":11810:12048   */\n      pop\n        /* \"#utility.yul\":11767:12048   */\n      pop\n      pop\n      jump\t// out\n        /* \"#utility.yul\":12054:12287   */\n    tag_43:\n        /* \"#utility.yul\":12093:12096   */\n      0x00\n        /* \"#utility.yul\":12116:12140   */\n      tag_256\n        /* \"#utility.yul\":12134:12139   */\n      dup3\n        /* \"#utility.yul\":12116:12140   */\n      tag_206\n      jump\t// in\n    tag_256:\n        /* \"#utility.yul\":12107:12140   */\n      swap2\n      pop\n        /* \"#utility.yul\":12162:12228   */\n      0xffffffffffffffffffffffffffffffffffffffffffffffffffffffffffffffff\n        /* \"#utility.yul\":12155:12160   */\n      dup3\n        /* \"#utility.yul\":12152:12229   */\n      eq\n        /* \"#utility.yul\":12149:12252   */\n      iszero\n      tag_257\n      jumpi\n        /* \"#utility.yul\":12232:12250   */\n      tag_258\n      tag_237\n      jump\t// in\n    tag_258:\n        /* \"#utility.yul\":12149:12252   */\n    tag_257:\n        /* \"#utility.yul\":12279:12280   */\n      0x01\n        /* \"#utility.yul\":12272:12277   */\n      dup3\n        /* \"#utility.yul\":12268:12281   */\n      add\n        /* \"#utility.yul\":12261:12281   */\n      swap1\n      pop\n        /* \"#utility.yul\":12054:12287   */\n      swap2\n      swap1\n      pop\n      jump\t// out\n        /* \"#utility.yul\":12293:12473   */\n    tag_237:\n        /* \"#utility.yul\":12341:12418   */\n      0x4e487b7100000000000000000000000000000000000000000000000000000000\n        /* \"#utility.yul\":12338:12339   */\n      0x00\n        /* \"#utility.yul\":12331:12419   */\n      mstore\n        /* \"#utility.yul\":12438:12442   */\n      0x11\n        /* \"#utility.yul\":12435:12436   */\n      0x04\n        /* \"#utility.yul\":12428:12443   */\n      mstore\n        /* \"#utility.yul\":12462:12466   */\n      0x24\n        /* \"#utility.yul\":12459:12460   */\n      0x00\n        /* \"#utility.yul\":12452:12467   */\n      revert\n        /* \"#utility.yul\":12479:12659   */\n    tag_250:\n        /* \"#utility.yul\":12527:12604   */\n      0x4e487b7100000000000000000000000000000000000000000000000000000000\n        /* \"#utility.yul\":12524:12525   */\n      0x00\n        /* \"#utility.yul\":12517:12605   */\n      mstore\n        /* \"#utility.yul\":12624:12628   */\n      0x22\n        /* \"#utility.yul\":12621:12622   */\n      0x04\n        /* \"#utility.yul\":12614:12629   */\n      mstore\n        /* \"#utility.yul\":12648:12652   */\n      0x24\n        /* \"#utility.yul\":12645:12646   */\n      0x00\n        /* \"#utility.yul\":12638:12653   */\n      revert\n        /* \"#utility.yul\":12665:12845   */\n    tag_67:\n        /* \"#utility.yul\":12713:12790   */\n      0x4e487b7100000000000000000000000000000000000000000000000000000000\n        /* \"#utility.yul\":12710:12711   */\n      0x00\n        /* \"#utility.yul\":12703:12791   */\n      mstore\n        /* \"#utility.yul\":12810:12814   */\n      0x32\n        /* \"#utility.yul\":12807:12808   */\n      0x04\n        /* \"#utility.yul\":12800:12815   */\n      mstore\n        /* \"#utility.yul\":12834:12838   */\n      0x24\n        /* \"#utility.yul\":12831:12832   */\n      0x00\n        /* \"#utility.yul\":12824:12839   */\n      revert\n        /* \"#utility.yul\":12851:13031   */\n    tag_51:\n        /* \"#utility.yul\":12899:12976   */\n      0x4e487b7100000000000000000000000000000000000000000000000000000000\n        /* \"#utility.yul\":12896:12897   */\n      0x00\n        /* \"#utility.yul\":12889:12977   */\n      mstore\n        /* \"#utility.yul\":12996:13000   */\n      0x41\n        /* \"#utility.yul\":12993:12994   */\n      0x04\n        /* \"#utility.yul\":12986:13001   */\n      mstore\n        /* \"#utility.yul\":13020:13024   */\n      0x24\n        /* \"#utility.yul\":13017:13018   */\n      0x00\n        /* \"#utility.yul\":13010:13025   */\n      revert\n        /* \"#utility.yul\":13037:13154   */\n    tag_114:\n        /* \"#utility.yul\":13146:13147   */\n      0x00\n        /* \"#utility.yul\":13143:13144   */\n      dup1\n        /* \"#utility.yul\":13136:13148   */\n      revert\n        /* \"#utility.yul\":13160:13277   */\n    tag_103:\n        /* \"#utility.yul\":13269:13270   */\n      0x00\n        /* \"#utility.yul\":13266:13267   */\n      dup1\n        /* \"#utility.yul\":13259:13271   */\n      revert\n        /* \"#utility.yul\":13283:13400   */\n    tag_126:\n        /* \"#utility.yul\":13392:13393   */\n      0x00\n        /* \"#utility.yul\":13389:13390   */\n      dup1\n        /* \"#utility.yul\":13382:13394   */\n      revert\n        /* \"#utility.yul\":13406:13523   */\n    tag_123:\n        /* \"#utility.yul\":13515:13516   */\n      0x00\n        /* \"#utility.yul\":13512:13513   */\n      dup1\n        /* \"#utility.yul\":13505:13517   */\n      revert\n        /* \"#utility.yul\":13529:13631   */\n    tag_185:\n        /* \"#utility.yul\":13570:13576   */\n      0x00\n        /* \"#utility.yul\":13621:13623   */\n      0x1f\n        /* \"#utility.yul\":13617:13624   */\n      not\n        /* \"#utility.yul\":13612:13614   */\n      0x1f\n        /* \"#utility.yul\":13605:13610   */\n      dup4\n        /* \"#utility.yul\":13601:13615   */\n      add\n        /* \"#utility.yul\":13597:13625   */\n      and\n        /* \"#utility.yul\":13587:13625   */\n      swap1\n      pop\n        /* \"#utility.yul\":13529:13631   */\n      swap2\n      swap1\n      pop\n      jump\t// out\n        /* \"#utility.yul\":13637:13755   */\n    tag_109:\n        /* \"#utility.yul\":13708:13730   */\n      tag_269\n        /* \"#utility.yul\":13724:13729   */\n      dup2\n        /* \"#utility.yul\":13708:13730   */\n      tag_172\n      jump\t// in\n    tag_269:\n        /* \"#utility.yul\":13701:13706   */\n      dup2\n        /* \"#utility.yul\":13698:13731   */\n      eq\n        /* \"#utility.yul\":13688:13749   */\n      tag_270\n      jumpi\n        /* \"#utility.yul\":13745:13746   */\n      0x00\n        /* \"#utility.yul\":13742:13743   */\n      dup1\n        /* \"#utility.yul\":13735:13747   */\n      revert\n        /* \"#utility.yul\":13688:13749   */\n    tag_270:\n        /* \"#utility.yul\":13637:13755   */\n      pop\n      jump\t// out\n        /* \"#utility.yul\":13761:13883   */\n    tag_119:\n        /* \"#utility.yul\":13834:13858   */\n      tag_272\n        /* \"#utility.yul\":13852:13857   */\n      dup2\n        /* \"#utility.yul\":13834:13858   */\n      tag_206\n      jump\t// in\n    tag_272:\n        /* \"#utility.yul\":13827:13832   */\n      dup2\n        /* \"#utility.yul\":13824:13859   */\n      eq\n        /* \"#utility.yul\":13814:13877   */\n      tag_273\n      jumpi\n        /* \"#utility.yul\":13873:13874   */\n      0x00\n        /* \"#utility.yul\":13870:13871   */\n      dup1\n        /* \"#utility.yul\":13863:13875   */\n      revert\n        /* \"#utility.yul\":13814:13877   */\n    tag_273:\n        /* \"#utility.yul\":13761:13883   */\n      pop\n      jump\t// out\n\n    auxdata: 0xa2646970667358221220d4f34fcda53daf9dc72112aa5f6d20d78e95b1c1ce4268f4700cb8f46cbd601664736f6c63430008070033\n}\n",
				"bytecode": {
					"linkReferences": {},
					"object": "6080604052600080553480156200001557600080fd5b506200005e6040518060400160405280600681526020017f62616e616e650000000000000000000000000000000000000000000000000000815250600a620000f460201b60201c565b620000a66040518060400160405280600681526020017f6672616973650000000000000000000000000000000000000000000000000000815250600f620000f460201b60201c565b620000ee6040518060400160405280600581526020017f706f6d6d650000000000000000000000000000000000000000000000000000008152506008620000f460201b60201c565b620004b8565b6000600160005462000107919062000339565b90506000808154809291906200011d906200040c565b9190505550600060405180606001604052808381526020018581526020018460010b815250905080600160008481526020019081526020016000206000820151816000015560208201518160010190805190602001906200018092919062000223565b5060408201518160020160006101000a81548161ffff021916908360010b61ffff16021790555090505080600285604051620001bd91906200030a565b9081526020016040518091039020600082015181600001556020820151816001019080519060200190620001f392919062000223565b5060408201518160020160006101000a81548161ffff021916908360010b61ffff16021790555090505050505050565b8280546200023190620003d6565b90600052602060002090601f016020900481019282620002555760008555620002a1565b82601f106200027057805160ff1916838001178555620002a1565b82800160010185558215620002a1579182015b82811115620002a057825182559160200191906001019062000283565b5b509050620002b09190620002b4565b5090565b5b80821115620002cf576000816000905550600101620002b5565b5090565b6000620002e08262000323565b620002ec81856200032e565b9350620002fe818560208601620003a0565b80840191505092915050565b6000620003188284620002d3565b915081905092915050565b600081519050919050565b600081905092915050565b6000620003468262000396565b9150620003538362000396565b9250827fffffffffffffffffffffffffffffffffffffffffffffffffffffffffffffffff038211156200038b576200038a6200045a565b5b828201905092915050565b6000819050919050565b60005b83811015620003c0578082015181840152602081019050620003a3565b83811115620003d0576000848401525b50505050565b60006002820490506001821680620003ef57607f821691505b6020821081141562000406576200040562000489565b5b50919050565b6000620004198262000396565b91507fffffffffffffffffffffffffffffffffffffffffffffffffffffffffffffffff8214156200044f576200044e6200045a565b5b600182019050919050565b7f4e487b7100000000000000000000000000000000000000000000000000000000600052601160045260246000fd5b7f4e487b7100000000000000000000000000000000000000000000000000000000600052602260045260246000fd5b610e4380620004c86000396000f3fe608060405234801561001057600080fd5b50600436106100625760003560e01c80633117b11c1461006757806351401eef146100835780635b3150891461009f57806362c2886b146100bd57806365c3e805146100d9578063d7f4933c1461010a575b600080fd5b610081600480360381019061007c919061086e565b61013b565b005b61009d600480360381019061009891906107a5565b61016a565b005b6100a761028f565b6040516100b49190610a8a565b60405180910390f35b6100d760048036038101906100d2919061082e565b610407565b005b6100f360048036038101906100ee9190610801565b61043f565b604051610101929190610aac565b60405180910390f35b610124600480360381019061011f919061075c565b610512565b604051610132929190610aac565b60405180910390f35b806001600084815260200190815260200160002060010190805190602001906101659291906105fb565b505050565b6000600160005461017b9190610ba3565b905060008081548092919061018f90610cb5565b9190505550600060405180606001604052808381526020018581526020018460010b815250905080600160008481526020019081526020016000206000820151816000015560208201518160010190805190602001906101f09291906105fb565b5060408201518160020160006101000a81548161ffff021916908360010b61ffff1602179055509050508060028560405161022b9190610a73565b908152602001604051809103902060008201518160000155602082015181600101908051906020019061025f9291906105fb565b5060408201518160020160006101000a81548161ffff021916908360010b61ffff16021790555090505050505050565b60606000805467ffffffffffffffff8111156102ae576102ad610d8b565b5b6040519080825280602002602001820160405280156102e757816020015b6102d4610681565b8152602001906001900390816102cc5790505b50905060005b6000548110156103ff57600160008281526020019081526020016000206040518060600160405290816000820154815260200160018201805461032f90610c52565b80601f016020809104026020016040519081016040528092919081815260200182805461035b90610c52565b80156103a85780601f1061037d576101008083540402835291602001916103a8565b820191906000526020600020905b81548152906001019060200180831161038b57829003601f168201915b505050505081526020016002820160009054906101000a900460010b60010b60010b815250508282815181106103e1576103e0610d5c565b5b602002602001018190525080806103f790610cb5565b9150506102ed565b508091505090565b806001600084815260200190815260200160002060020160006101000a81548161ffff021916908360010b61ffff1602179055505050565b60606000600160008481526020019081526020016000206001016001600085815260200190815260200160002060020160009054906101000a900460010b81805461048990610c52565b80601f01602080910402602001604051908101604052809291908181526020018280546104b590610c52565b80156105025780601f106104d757610100808354040283529160200191610502565b820191906000526020600020905b8154815290600101906020018083116104e557829003601f168201915b5050505050915091509150915091565b606060006002836040516105269190610a73565b90815260200160405180910390206001016002846040516105479190610a73565b908152602001604051809103902060020160009054906101000a900460010b81805461057290610c52565b80601f016020809104026020016040519081016040528092919081815260200182805461059e90610c52565b80156105eb5780601f106105c0576101008083540402835291602001916105eb565b820191906000526020600020905b8154815290600101906020018083116105ce57829003601f168201915b5050505050915091509150915091565b82805461060790610c52565b90600052602060002090601f0160209004810192826106295760008555610670565b82601f1061064257805160ff1916838001178555610670565b82800160010185558215610670579182015b8281111561066f578251825591602001919060010190610654565b5b50905061067d91906106a5565b5090565b60405180606001604052806000815260200160608152602001600060010b81525090565b5b808211156106be5760008160009055506001016106a6565b5090565b60006106d56106d084610b01565b610adc565b9050828152602081018484840111156106f1576106f0610dbf565b5b6106fc848285610c10565b509392505050565b60008135905061071381610ddf565b92915050565b600082601f83011261072e5761072d610dba565b5b813561073e8482602086016106c2565b91505092915050565b60008135905061075681610df6565b92915050565b60006020828403121561077257610771610dc9565b5b600082013567ffffffffffffffff8111156107905761078f610dc4565b5b61079c84828501610719565b91505092915050565b600080604083850312156107bc576107bb610dc9565b5b600083013567ffffffffffffffff8111156107da576107d9610dc4565b5b6107e685828601610719565b92505060206107f785828601610704565b9150509250929050565b60006020828403121561081757610816610dc9565b5b600061082584828501610747565b91505092915050565b6000806040838503121561084557610844610dc9565b5b600061085385828601610747565b925050602061086485828601610704565b9150509250929050565b6000806040838503121561088557610884610dc9565b5b600061089385828601610747565b925050602083013567ffffffffffffffff8111156108b4576108b3610dc4565b5b6108c085828601610719565b9150509250929050565b60006108d68383610a14565b905092915050565b60006108e982610b42565b6108f38185610b65565b93508360208202850161090585610b32565b8060005b85811015610941578484038952815161092285826108ca565b945061092d83610b58565b925060208a01995050600181019050610909565b50829750879550505050505092915050565b61095c81610bf9565b82525050565b61096b81610bf9565b82525050565b600061097c82610b4d565b6109868185610b76565b9350610996818560208601610c1f565b61099f81610dce565b840191505092915050565b60006109b582610b4d565b6109bf8185610b87565b93506109cf818560208601610c1f565b6109d881610dce565b840191505092915050565b60006109ee82610b4d565b6109f88185610b98565b9350610a08818560208601610c1f565b80840191505092915050565b6000606083016000830151610a2c6000860182610a64565b5060208301518482036020860152610a448282610971565b9150506040830151610a596040860182610953565b508091505092915050565b610a6d81610c06565b82525050565b6000610a7f82846109e3565b915081905092915050565b60006020820190508181036000830152610aa481846108de565b905092915050565b60006040820190508181036000830152610ac681856109aa565b9050610ad56020830184610962565b9392505050565b6000610ae6610af7565b9050610af28282610c84565b919050565b6000604051905090565b600067ffffffffffffffff821115610b1c57610b1b610d8b565b5b610b2582610dce565b9050602081019050919050565b6000819050602082019050919050565b600081519050919050565b600081519050919050565b6000602082019050919050565b600082825260208201905092915050565b600082825260208201905092915050565b600082825260208201905092915050565b600081905092915050565b6000610bae82610c06565b9150610bb983610c06565b9250827fffffffffffffffffffffffffffffffffffffffffffffffffffffffffffffffff03821115610bee57610bed610cfe565b5b828201905092915050565b60008160010b9050919050565b6000819050919050565b82818337600083830152505050565b60005b83811015610c3d578082015181840152602081019050610c22565b83811115610c4c576000848401525b50505050565b60006002820490506001821680610c6a57607f821691505b60208210811415610c7e57610c7d610d2d565b5b50919050565b610c8d82610dce565b810181811067ffffffffffffffff82111715610cac57610cab610d8b565b5b80604052505050565b6000610cc082610c06565b91507fffffffffffffffffffffffffffffffffffffffffffffffffffffffffffffffff821415610cf357610cf2610cfe565b5b600182019050919050565b7f4e487b7100000000000000000000000000000000000000000000000000000000600052601160045260246000fd5b7f4e487b7100000000000000000000000000000000000000000000000000000000600052602260045260246000fd5b7f4e487b7100000000000000000000000000000000000000000000000000000000600052603260045260246000fd5b7f4e487b7100000000000000000000000000000000000000000000000000000000600052604160045260246000fd5b600080fd5b600080fd5b600080fd5b600080fd5b6000601f19601f8301169050919050565b610de881610bf9565b8114610df357600080fd5b50565b610dff81610c06565b8114610e0a57600080fd5b5056fea2646970667358221220d4f34fcda53daf9dc72112aa5f6d20d78e95b1c1ce4268f4700cb8f46cbd601664736f6c63430008070033",
					"opcodes": "PUSH1 0x80 PUSH1 0x40 MSTORE PUSH1 0x0 DUP1 SSTORE CALLVALUE DUP1 ISZERO PUSH3 0x15 JUMPI PUSH1 0x0 DUP1 REVERT JUMPDEST POP PUSH3 0x5E PUSH1 0x40 MLOAD DUP1 PUSH1 0x40 ADD PUSH1 0x40 MSTORE DUP1 PUSH1 0x6 DUP2 MSTORE PUSH1 0x20 ADD PUSH32 0x62616E616E650000000000000000000000000000000000000000000000000000 DUP2 MSTORE POP PUSH1 0xA PUSH3 0xF4 PUSH1 0x20 SHL PUSH1 0x20 SHR JUMP JUMPDEST PUSH3 0xA6 PUSH1 0x40 MLOAD DUP1 PUSH1 0x40 ADD PUSH1 0x40 MSTORE DUP1 PUSH1 0x6 DUP2 MSTORE PUSH1 0x20 ADD PUSH32 0x6672616973650000000000000000000000000000000000000000000000000000 DUP2 MSTORE POP PUSH1 0xF PUSH3 0xF4 PUSH1 0x20 SHL PUSH1 0x20 SHR JUMP JUMPDEST PUSH3 0xEE PUSH1 0x40 MLOAD DUP1 PUSH1 0x40 ADD PUSH1 0x40 MSTORE DUP1 PUSH1 0x5 DUP2 MSTORE PUSH1 0x20 ADD PUSH32 0x706F6D6D65000000000000000000000000000000000000000000000000000000 DUP2 MSTORE POP PUSH1 0x8 PUSH3 0xF4 PUSH1 0x20 SHL PUSH1 0x20 SHR JUMP JUMPDEST PUSH3 0x4B8 JUMP JUMPDEST PUSH1 0x0 PUSH1 0x1 PUSH1 0x0 SLOAD PUSH3 0x107 SWAP2 SWAP1 PUSH3 0x339 JUMP JUMPDEST SWAP1 POP PUSH1 0x0 DUP1 DUP2 SLOAD DUP1 SWAP3 SWAP2 SWAP1 PUSH3 0x11D SWAP1 PUSH3 0x40C JUMP JUMPDEST SWAP2 SWAP1 POP SSTORE POP PUSH1 0x0 PUSH1 0x40 MLOAD DUP1 PUSH1 0x60 ADD PUSH1 0x40 MSTORE DUP1 DUP4 DUP2 MSTORE PUSH1 0x20 ADD DUP6 DUP2 MSTORE PUSH1 0x20 ADD DUP5 PUSH1 0x1 SIGNEXTEND DUP2 MSTORE POP SWAP1 POP DUP1 PUSH1 0x1 PUSH1 0x0 DUP5 DUP2 MSTORE PUSH1 0x20 ADD SWAP1 DUP2 MSTORE PUSH1 0x20 ADD PUSH1 0x0 KECCAK256 PUSH1 0x0 DUP3 ADD MLOAD DUP2 PUSH1 0x0 ADD SSTORE PUSH1 0x20 DUP3 ADD MLOAD DUP2 PUSH1 0x1 ADD SWAP1 DUP1 MLOAD SWAP1 PUSH1 0x20 ADD SWAP1 PUSH3 0x180 SWAP3 SWAP2 SWAP1 PUSH3 0x223 JUMP JUMPDEST POP PUSH1 0x40 DUP3 ADD MLOAD DUP2 PUSH1 0x2 ADD PUSH1 0x0 PUSH2 0x100 EXP DUP2 SLOAD DUP2 PUSH2 0xFFFF MUL NOT AND SWAP1 DUP4 PUSH1 0x1 SIGNEXTEND PUSH2 0xFFFF AND MUL OR SWAP1 SSTORE POP SWAP1 POP POP DUP1 PUSH1 0x2 DUP6 PUSH1 0x40 MLOAD PUSH3 0x1BD SWAP2 SWAP1 PUSH3 0x30A JUMP JUMPDEST SWAP1 DUP2 MSTORE PUSH1 0x20 ADD PUSH1 0x40 MLOAD DUP1 SWAP2 SUB SWAP1 KECCAK256 PUSH1 0x0 DUP3 ADD MLOAD DUP2 PUSH1 0x0 ADD SSTORE PUSH1 0x20 DUP3 ADD MLOAD DUP2 PUSH1 0x1 ADD SWAP1 DUP1 MLOAD SWAP1 PUSH1 0x20 ADD SWAP1 PUSH3 0x1F3 SWAP3 SWAP2 SWAP1 PUSH3 0x223 JUMP JUMPDEST POP PUSH1 0x40 DUP3 ADD MLOAD DUP2 PUSH1 0x2 ADD PUSH1 0x0 PUSH2 0x100 EXP DUP2 SLOAD DUP2 PUSH2 0xFFFF MUL NOT AND SWAP1 DUP4 PUSH1 0x1 SIGNEXTEND PUSH2 0xFFFF AND MUL OR SWAP1 SSTORE POP SWAP1 POP POP POP POP POP POP JUMP JUMPDEST DUP3 DUP1 SLOAD PUSH3 0x231 SWAP1 PUSH3 0x3D6 JUMP JUMPDEST SWAP1 PUSH1 0x0 MSTORE PUSH1 0x20 PUSH1 0x0 KECCAK256 SWAP1 PUSH1 0x1F ADD PUSH1 0x20 SWAP1 DIV DUP2 ADD SWAP3 DUP3 PUSH3 0x255 JUMPI PUSH1 0x0 DUP6 SSTORE PUSH3 0x2A1 JUMP JUMPDEST DUP3 PUSH1 0x1F LT PUSH3 0x270 JUMPI DUP1 MLOAD PUSH1 0xFF NOT AND DUP4 DUP1 ADD OR DUP6 SSTORE PUSH3 0x2A1 JUMP JUMPDEST DUP3 DUP1 ADD PUSH1 0x1 ADD DUP6 SSTORE DUP3 ISZERO PUSH3 0x2A1 JUMPI SWAP2 DUP3 ADD JUMPDEST DUP3 DUP2 GT ISZERO PUSH3 0x2A0 JUMPI DUP3 MLOAD DUP3 SSTORE SWAP2 PUSH1 0x20 ADD SWAP2 SWAP1 PUSH1 0x1 ADD SWAP1 PUSH3 0x283 JUMP JUMPDEST JUMPDEST POP SWAP1 POP PUSH3 0x2B0 SWAP2 SWAP1 PUSH3 0x2B4 JUMP JUMPDEST POP SWAP1 JUMP JUMPDEST JUMPDEST DUP1 DUP3 GT ISZERO PUSH3 0x2CF JUMPI PUSH1 0x0 DUP2 PUSH1 0x0 SWAP1 SSTORE POP PUSH1 0x1 ADD PUSH3 0x2B5 JUMP JUMPDEST POP SWAP1 JUMP JUMPDEST PUSH1 0x0 PUSH3 0x2E0 DUP3 PUSH3 0x323 JUMP JUMPDEST PUSH3 0x2EC DUP2 DUP6 PUSH3 0x32E JUMP JUMPDEST SWAP4 POP PUSH3 0x2FE DUP2 DUP6 PUSH1 0x20 DUP7 ADD PUSH3 0x3A0 JUMP JUMPDEST DUP1 DUP5 ADD SWAP2 POP POP SWAP3 SWAP2 POP POP JUMP JUMPDEST PUSH1 0x0 PUSH3 0x318 DUP3 DUP5 PUSH3 0x2D3 JUMP JUMPDEST SWAP2 POP DUP2 SWAP1 POP SWAP3 SWAP2 POP POP JUMP JUMPDEST PUSH1 0x0 DUP2 MLOAD SWAP1 POP SWAP2 SWAP1 POP JUMP JUMPDEST PUSH1 0x0 DUP2 SWAP1 POP SWAP3 SWAP2 POP POP JUMP JUMPDEST PUSH1 0x0 PUSH3 0x346 DUP3 PUSH3 0x396 JUMP JUMPDEST SWAP2 POP PUSH3 0x353 DUP4 PUSH3 0x396 JUMP JUMPDEST SWAP3 POP DUP3 PUSH32 0xFFFFFFFFFFFFFFFFFFFFFFFFFFFFFFFFFFFFFFFFFFFFFFFFFFFFFFFFFFFFFFFF SUB DUP3 GT ISZERO PUSH3 0x38B JUMPI PUSH3 0x38A PUSH3 0x45A JUMP JUMPDEST JUMPDEST DUP3 DUP3 ADD SWAP1 POP SWAP3 SWAP2 POP POP JUMP JUMPDEST PUSH1 0x0 DUP2 SWAP1 POP SWAP2 SWAP1 POP JUMP JUMPDEST PUSH1 0x0 JUMPDEST DUP4 DUP2 LT ISZERO PUSH3 0x3C0 JUMPI DUP1 DUP3 ADD MLOAD DUP2 DUP5 ADD MSTORE PUSH1 0x20 DUP2 ADD SWAP1 POP PUSH3 0x3A3 JUMP JUMPDEST DUP4 DUP2 GT ISZERO PUSH3 0x3D0 JUMPI PUSH1 0x0 DUP5 DUP5 ADD MSTORE JUMPDEST POP POP POP POP JUMP JUMPDEST PUSH1 0x0 PUSH1 0x2 DUP3 DIV SWAP1 POP PUSH1 0x1 DUP3 AND DUP1 PUSH3 0x3EF JUMPI PUSH1 0x7F DUP3 AND SWAP2 POP JUMPDEST PUSH1 0x20 DUP3 LT DUP2 EQ ISZERO PUSH3 0x406 JUMPI PUSH3 0x405 PUSH3 0x489 JUMP JUMPDEST JUMPDEST POP SWAP2 SWAP1 POP JUMP JUMPDEST PUSH1 0x0 PUSH3 0x419 DUP3 PUSH3 0x396 JUMP JUMPDEST SWAP2 POP PUSH32 0xFFFFFFFFFFFFFFFFFFFFFFFFFFFFFFFFFFFFFFFFFFFFFFFFFFFFFFFFFFFFFFFF DUP3 EQ ISZERO PUSH3 0x44F JUMPI PUSH3 0x44E PUSH3 0x45A JUMP JUMPDEST JUMPDEST PUSH1 0x1 DUP3 ADD SWAP1 POP SWAP2 SWAP1 POP JUMP JUMPDEST PUSH32 0x4E487B7100000000000000000000000000000000000000000000000000000000 PUSH1 0x0 MSTORE PUSH1 0x11 PUSH1 0x4 MSTORE PUSH1 0x24 PUSH1 0x0 REVERT JUMPDEST PUSH32 0x4E487B7100000000000000000000000000000000000000000000000000000000 PUSH1 0x0 MSTORE PUSH1 0x22 PUSH1 0x4 MSTORE PUSH1 0x24 PUSH1 0x0 REVERT JUMPDEST PUSH2 0xE43 DUP1 PUSH3 0x4C8 PUSH1 0x0 CODECOPY PUSH1 0x0 RETURN INVALID PUSH1 0x80 PUSH1 0x40 MSTORE CALLVALUE DUP1 ISZERO PUSH2 0x10 JUMPI PUSH1 0x0 DUP1 REVERT JUMPDEST POP PUSH1 0x4 CALLDATASIZE LT PUSH2 0x62 JUMPI PUSH1 0x0 CALLDATALOAD PUSH1 0xE0 SHR DUP1 PUSH4 0x3117B11C EQ PUSH2 0x67 JUMPI DUP1 PUSH4 0x51401EEF EQ PUSH2 0x83 JUMPI DUP1 PUSH4 0x5B315089 EQ PUSH2 0x9F JUMPI DUP1 PUSH4 0x62C2886B EQ PUSH2 0xBD JUMPI DUP1 PUSH4 0x65C3E805 EQ PUSH2 0xD9 JUMPI DUP1 PUSH4 0xD7F4933C EQ PUSH2 0x10A JUMPI JUMPDEST PUSH1 0x0 DUP1 REVERT JUMPDEST PUSH2 0x81 PUSH1 0x4 DUP1 CALLDATASIZE SUB DUP2 ADD SWAP1 PUSH2 0x7C SWAP2 SWAP1 PUSH2 0x86E JUMP JUMPDEST PUSH2 0x13B JUMP JUMPDEST STOP JUMPDEST PUSH2 0x9D PUSH1 0x4 DUP1 CALLDATASIZE SUB DUP2 ADD SWAP1 PUSH2 0x98 SWAP2 SWAP1 PUSH2 0x7A5 JUMP JUMPDEST PUSH2 0x16A JUMP JUMPDEST STOP JUMPDEST PUSH2 0xA7 PUSH2 0x28F JUMP JUMPDEST PUSH1 0x40 MLOAD PUSH2 0xB4 SWAP2 SWAP1 PUSH2 0xA8A JUMP JUMPDEST PUSH1 0x40 MLOAD DUP1 SWAP2 SUB SWAP1 RETURN JUMPDEST PUSH2 0xD7 PUSH1 0x4 DUP1 CALLDATASIZE SUB DUP2 ADD SWAP1 PUSH2 0xD2 SWAP2 SWAP1 PUSH2 0x82E JUMP JUMPDEST PUSH2 0x407 JUMP JUMPDEST STOP JUMPDEST PUSH2 0xF3 PUSH1 0x4 DUP1 CALLDATASIZE SUB DUP2 ADD SWAP1 PUSH2 0xEE SWAP2 SWAP1 PUSH2 0x801 JUMP JUMPDEST PUSH2 0x43F JUMP JUMPDEST PUSH1 0x40 MLOAD PUSH2 0x101 SWAP3 SWAP2 SWAP1 PUSH2 0xAAC JUMP JUMPDEST PUSH1 0x40 MLOAD DUP1 SWAP2 SUB SWAP1 RETURN JUMPDEST PUSH2 0x124 PUSH1 0x4 DUP1 CALLDATASIZE SUB DUP2 ADD SWAP1 PUSH2 0x11F SWAP2 SWAP1 PUSH2 0x75C JUMP JUMPDEST PUSH2 0x512 JUMP JUMPDEST PUSH1 0x40 MLOAD PUSH2 0x132 SWAP3 SWAP2 SWAP1 PUSH2 0xAAC JUMP JUMPDEST PUSH1 0x40 MLOAD DUP1 SWAP2 SUB SWAP1 RETURN JUMPDEST DUP1 PUSH1 0x1 PUSH1 0x0 DUP5 DUP2 MSTORE PUSH1 0x20 ADD SWAP1 DUP2 MSTORE PUSH1 0x20 ADD PUSH1 0x0 KECCAK256 PUSH1 0x1 ADD SWAP1 DUP1 MLOAD SWAP1 PUSH1 0x20 ADD SWAP1 PUSH2 0x165 SWAP3 SWAP2 SWAP1 PUSH2 0x5FB JUMP JUMPDEST POP POP POP JUMP JUMPDEST PUSH1 0x0 PUSH1 0x1 PUSH1 0x0 SLOAD PUSH2 0x17B SWAP2 SWAP1 PUSH2 0xBA3 JUMP JUMPDEST SWAP1 POP PUSH1 0x0 DUP1 DUP2 SLOAD DUP1 SWAP3 SWAP2 SWAP1 PUSH2 0x18F SWAP1 PUSH2 0xCB5 JUMP JUMPDEST SWAP2 SWAP1 POP SSTORE POP PUSH1 0x0 PUSH1 0x40 MLOAD DUP1 PUSH1 0x60 ADD PUSH1 0x40 MSTORE DUP1 DUP4 DUP2 MSTORE PUSH1 0x20 ADD DUP6 DUP2 MSTORE PUSH1 0x20 ADD DUP5 PUSH1 0x1 SIGNEXTEND DUP2 MSTORE POP SWAP1 POP DUP1 PUSH1 0x1 PUSH1 0x0 DUP5 DUP2 MSTORE PUSH1 0x20 ADD SWAP1 DUP2 MSTORE PUSH1 0x20 ADD PUSH1 0x0 KECCAK256 PUSH1 0x0 DUP3 ADD MLOAD DUP2 PUSH1 0x0 ADD SSTORE PUSH1 0x20 DUP3 ADD MLOAD DUP2 PUSH1 0x1 ADD SWAP1 DUP1 MLOAD SWAP1 PUSH1 0x20 ADD SWAP1 PUSH2 0x1F0 SWAP3 SWAP2 SWAP1 PUSH2 0x5FB JUMP JUMPDEST POP PUSH1 0x40 DUP3 ADD MLOAD DUP2 PUSH1 0x2 ADD PUSH1 0x0 PUSH2 0x100 EXP DUP2 SLOAD DUP2 PUSH2 0xFFFF MUL NOT AND SWAP1 DUP4 PUSH1 0x1 SIGNEXTEND PUSH2 0xFFFF AND MUL OR SWAP1 SSTORE POP SWAP1 POP POP DUP1 PUSH1 0x2 DUP6 PUSH1 0x40 MLOAD PUSH2 0x22B SWAP2 SWAP1 PUSH2 0xA73 JUMP JUMPDEST SWAP1 DUP2 MSTORE PUSH1 0x20 ADD PUSH1 0x40 MLOAD DUP1 SWAP2 SUB SWAP1 KECCAK256 PUSH1 0x0 DUP3 ADD MLOAD DUP2 PUSH1 0x0 ADD SSTORE PUSH1 0x20 DUP3 ADD MLOAD DUP2 PUSH1 0x1 ADD SWAP1 DUP1 MLOAD SWAP1 PUSH1 0x20 ADD SWAP1 PUSH2 0x25F SWAP3 SWAP2 SWAP1 PUSH2 0x5FB JUMP JUMPDEST POP PUSH1 0x40 DUP3 ADD MLOAD DUP2 PUSH1 0x2 ADD PUSH1 0x0 PUSH2 0x100 EXP DUP2 SLOAD DUP2 PUSH2 0xFFFF MUL NOT AND SWAP1 DUP4 PUSH1 0x1 SIGNEXTEND PUSH2 0xFFFF AND MUL OR SWAP1 SSTORE POP SWAP1 POP POP POP POP POP POP JUMP JUMPDEST PUSH1 0x60 PUSH1 0x0 DUP1 SLOAD PUSH8 0xFFFFFFFFFFFFFFFF DUP2 GT ISZERO PUSH2 0x2AE JUMPI PUSH2 0x2AD PUSH2 0xD8B JUMP JUMPDEST JUMPDEST PUSH1 0x40 MLOAD SWAP1 DUP1 DUP3 MSTORE DUP1 PUSH1 0x20 MUL PUSH1 0x20 ADD DUP3 ADD PUSH1 0x40 MSTORE DUP1 ISZERO PUSH2 0x2E7 JUMPI DUP2 PUSH1 0x20 ADD JUMPDEST PUSH2 0x2D4 PUSH2 0x681 JUMP JUMPDEST DUP2 MSTORE PUSH1 0x20 ADD SWAP1 PUSH1 0x1 SWAP1 SUB SWAP1 DUP2 PUSH2 0x2CC JUMPI SWAP1 POP JUMPDEST POP SWAP1 POP PUSH1 0x0 JUMPDEST PUSH1 0x0 SLOAD DUP2 LT ISZERO PUSH2 0x3FF JUMPI PUSH1 0x1 PUSH1 0x0 DUP3 DUP2 MSTORE PUSH1 0x20 ADD SWAP1 DUP2 MSTORE PUSH1 0x20 ADD PUSH1 0x0 KECCAK256 PUSH1 0x40 MLOAD DUP1 PUSH1 0x60 ADD PUSH1 0x40 MSTORE SWAP1 DUP2 PUSH1 0x0 DUP3 ADD SLOAD DUP2 MSTORE PUSH1 0x20 ADD PUSH1 0x1 DUP3 ADD DUP1 SLOAD PUSH2 0x32F SWAP1 PUSH2 0xC52 JUMP JUMPDEST DUP1 PUSH1 0x1F ADD PUSH1 0x20 DUP1 SWAP2 DIV MUL PUSH1 0x20 ADD PUSH1 0x40 MLOAD SWAP1 DUP2 ADD PUSH1 0x40 MSTORE DUP1 SWAP3 SWAP2 SWAP1 DUP2 DUP2 MSTORE PUSH1 0x20 ADD DUP3 DUP1 SLOAD PUSH2 0x35B SWAP1 PUSH2 0xC52 JUMP JUMPDEST DUP1 ISZERO PUSH2 0x3A8 JUMPI DUP1 PUSH1 0x1F LT PUSH2 0x37D JUMPI PUSH2 0x100 DUP1 DUP4 SLOAD DIV MUL DUP4 MSTORE SWAP2 PUSH1 0x20 ADD SWAP2 PUSH2 0x3A8 JUMP JUMPDEST DUP3 ADD SWAP2 SWAP1 PUSH1 0x0 MSTORE PUSH1 0x20 PUSH1 0x0 KECCAK256 SWAP1 JUMPDEST DUP2 SLOAD DUP2 MSTORE SWAP1 PUSH1 0x1 ADD SWAP1 PUSH1 0x20 ADD DUP1 DUP4 GT PUSH2 0x38B JUMPI DUP3 SWAP1 SUB PUSH1 0x1F AND DUP3 ADD SWAP2 JUMPDEST POP POP POP POP POP DUP2 MSTORE PUSH1 0x20 ADD PUSH1 0x2 DUP3 ADD PUSH1 0x0 SWAP1 SLOAD SWAP1 PUSH2 0x100 EXP SWAP1 DIV PUSH1 0x1 SIGNEXTEND PUSH1 0x1 SIGNEXTEND PUSH1 0x1 SIGNEXTEND DUP2 MSTORE POP POP DUP3 DUP3 DUP2 MLOAD DUP2 LT PUSH2 0x3E1 JUMPI PUSH2 0x3E0 PUSH2 0xD5C JUMP JUMPDEST JUMPDEST PUSH1 0x20 MUL PUSH1 0x20 ADD ADD DUP2 SWAP1 MSTORE POP DUP1 DUP1 PUSH2 0x3F7 SWAP1 PUSH2 0xCB5 JUMP JUMPDEST SWAP2 POP POP PUSH2 0x2ED JUMP JUMPDEST POP DUP1 SWAP2 POP POP SWAP1 JUMP JUMPDEST DUP1 PUSH1 0x1 PUSH1 0x0 DUP5 DUP2 MSTORE PUSH1 0x20 ADD SWAP1 DUP2 MSTORE PUSH1 0x20 ADD PUSH1 0x0 KECCAK256 PUSH1 0x2 ADD PUSH1 0x0 PUSH2 0x100 EXP DUP2 SLOAD DUP2 PUSH2 0xFFFF MUL NOT AND SWAP1 DUP4 PUSH1 0x1 SIGNEXTEND PUSH2 0xFFFF AND MUL OR SWAP1 SSTORE POP POP POP JUMP JUMPDEST PUSH1 0x60 PUSH1 0x0 PUSH1 0x1 PUSH1 0x0 DUP5 DUP2 MSTORE PUSH1 0x20 ADD SWAP1 DUP2 MSTORE PUSH1 0x20 ADD PUSH1 0x0 KECCAK256 PUSH1 0x1 ADD PUSH1 0x1 PUSH1 0x0 DUP6 DUP2 MSTORE PUSH1 0x20 ADD SWAP1 DUP2 MSTORE PUSH1 0x20 ADD PUSH1 0x0 KECCAK256 PUSH1 0x2 ADD PUSH1 0x0 SWAP1 SLOAD SWAP1 PUSH2 0x100 EXP SWAP1 DIV PUSH1 0x1 SIGNEXTEND DUP2 DUP1 SLOAD PUSH2 0x489 SWAP1 PUSH2 0xC52 JUMP JUMPDEST DUP1 PUSH1 0x1F ADD PUSH1 0x20 DUP1 SWAP2 DIV MUL PUSH1 0x20 ADD PUSH1 0x40 MLOAD SWAP1 DUP2 ADD PUSH1 0x40 MSTORE DUP1 SWAP3 SWAP2 SWAP1 DUP2 DUP2 MSTORE PUSH1 0x20 ADD DUP3 DUP1 SLOAD PUSH2 0x4B5 SWAP1 PUSH2 0xC52 JUMP JUMPDEST DUP1 ISZERO PUSH2 0x502 JUMPI DUP1 PUSH1 0x1F LT PUSH2 0x4D7 JUMPI PUSH2 0x100 DUP1 DUP4 SLOAD DIV MUL DUP4 MSTORE SWAP2 PUSH1 0x20 ADD SWAP2 PUSH2 0x502 JUMP JUMPDEST DUP3 ADD SWAP2 SWAP1 PUSH1 0x0 MSTORE PUSH1 0x20 PUSH1 0x0 KECCAK256 SWAP1 JUMPDEST DUP2 SLOAD DUP2 MSTORE SWAP1 PUSH1 0x1 ADD SWAP1 PUSH1 0x20 ADD DUP1 DUP4 GT PUSH2 0x4E5 JUMPI DUP3 SWAP1 SUB PUSH1 0x1F AND DUP3 ADD SWAP2 JUMPDEST POP POP POP POP POP SWAP2 POP SWAP2 POP SWAP2 POP SWAP2 POP SWAP2 JUMP JUMPDEST PUSH1 0x60 PUSH1 0x0 PUSH1 0x2 DUP4 PUSH1 0x40 MLOAD PUSH2 0x526 SWAP2 SWAP1 PUSH2 0xA73 JUMP JUMPDEST SWAP1 DUP2 MSTORE PUSH1 0x20 ADD PUSH1 0x40 MLOAD DUP1 SWAP2 SUB SWAP1 KECCAK256 PUSH1 0x1 ADD PUSH1 0x2 DUP5 PUSH1 0x40 MLOAD PUSH2 0x547 SWAP2 SWAP1 PUSH2 0xA73 JUMP JUMPDEST SWAP1 DUP2 MSTORE PUSH1 0x20 ADD PUSH1 0x40 MLOAD DUP1 SWAP2 SUB SWAP1 KECCAK256 PUSH1 0x2 ADD PUSH1 0x0 SWAP1 SLOAD SWAP1 PUSH2 0x100 EXP SWAP1 DIV PUSH1 0x1 SIGNEXTEND DUP2 DUP1 SLOAD PUSH2 0x572 SWAP1 PUSH2 0xC52 JUMP JUMPDEST DUP1 PUSH1 0x1F ADD PUSH1 0x20 DUP1 SWAP2 DIV MUL PUSH1 0x20 ADD PUSH1 0x40 MLOAD SWAP1 DUP2 ADD PUSH1 0x40 MSTORE DUP1 SWAP3 SWAP2 SWAP1 DUP2 DUP2 MSTORE PUSH1 0x20 ADD DUP3 DUP1 SLOAD PUSH2 0x59E SWAP1 PUSH2 0xC52 JUMP JUMPDEST DUP1 ISZERO PUSH2 0x5EB JUMPI DUP1 PUSH1 0x1F LT PUSH2 0x5C0 JUMPI PUSH2 0x100 DUP1 DUP4 SLOAD DIV MUL DUP4 MSTORE SWAP2 PUSH1 0x20 ADD SWAP2 PUSH2 0x5EB JUMP JUMPDEST DUP3 ADD SWAP2 SWAP1 PUSH1 0x0 MSTORE PUSH1 0x20 PUSH1 0x0 KECCAK256 SWAP1 JUMPDEST DUP2 SLOAD DUP2 MSTORE SWAP1 PUSH1 0x1 ADD SWAP1 PUSH1 0x20 ADD DUP1 DUP4 GT PUSH2 0x5CE JUMPI DUP3 SWAP1 SUB PUSH1 0x1F AND DUP3 ADD SWAP2 JUMPDEST POP POP POP POP POP SWAP2 POP SWAP2 POP SWAP2 POP SWAP2 POP SWAP2 JUMP JUMPDEST DUP3 DUP1 SLOAD PUSH2 0x607 SWAP1 PUSH2 0xC52 JUMP JUMPDEST SWAP1 PUSH1 0x0 MSTORE PUSH1 0x20 PUSH1 0x0 KECCAK256 SWAP1 PUSH1 0x1F ADD PUSH1 0x20 SWAP1 DIV DUP2 ADD SWAP3 DUP3 PUSH2 0x629 JUMPI PUSH1 0x0 DUP6 SSTORE PUSH2 0x670 JUMP JUMPDEST DUP3 PUSH1 0x1F LT PUSH2 0x642 JUMPI DUP1 MLOAD PUSH1 0xFF NOT AND DUP4 DUP1 ADD OR DUP6 SSTORE PUSH2 0x670 JUMP JUMPDEST DUP3 DUP1 ADD PUSH1 0x1 ADD DUP6 SSTORE DUP3 ISZERO PUSH2 0x670 JUMPI SWAP2 DUP3 ADD JUMPDEST DUP3 DUP2 GT ISZERO PUSH2 0x66F JUMPI DUP3 MLOAD DUP3 SSTORE SWAP2 PUSH1 0x20 ADD SWAP2 SWAP1 PUSH1 0x1 ADD SWAP1 PUSH2 0x654 JUMP JUMPDEST JUMPDEST POP SWAP1 POP PUSH2 0x67D SWAP2 SWAP1 PUSH2 0x6A5 JUMP JUMPDEST POP SWAP1 JUMP JUMPDEST PUSH1 0x40 MLOAD DUP1 PUSH1 0x60 ADD PUSH1 0x40 MSTORE DUP1 PUSH1 0x0 DUP2 MSTORE PUSH1 0x20 ADD PUSH1 0x60 DUP2 MSTORE PUSH1 0x20 ADD PUSH1 0x0 PUSH1 0x1 SIGNEXTEND DUP2 MSTORE POP SWAP1 JUMP JUMPDEST JUMPDEST DUP1 DUP3 GT ISZERO PUSH2 0x6BE JUMPI PUSH1 0x0 DUP2 PUSH1 0x0 SWAP1 SSTORE POP PUSH1 0x1 ADD PUSH2 0x6A6 JUMP JUMPDEST POP SWAP1 JUMP JUMPDEST PUSH1 0x0 PUSH2 0x6D5 PUSH2 0x6D0 DUP5 PUSH2 0xB01 JUMP JUMPDEST PUSH2 0xADC JUMP JUMPDEST SWAP1 POP DUP3 DUP2 MSTORE PUSH1 0x20 DUP2 ADD DUP5 DUP5 DUP5 ADD GT ISZERO PUSH2 0x6F1 JUMPI PUSH2 0x6F0 PUSH2 0xDBF JUMP JUMPDEST JUMPDEST PUSH2 0x6FC DUP5 DUP3 DUP6 PUSH2 0xC10 JUMP JUMPDEST POP SWAP4 SWAP3 POP POP POP JUMP JUMPDEST PUSH1 0x0 DUP2 CALLDATALOAD SWAP1 POP PUSH2 0x713 DUP2 PUSH2 0xDDF JUMP JUMPDEST SWAP3 SWAP2 POP POP JUMP JUMPDEST PUSH1 0x0 DUP3 PUSH1 0x1F DUP4 ADD SLT PUSH2 0x72E JUMPI PUSH2 0x72D PUSH2 0xDBA JUMP JUMPDEST JUMPDEST DUP2 CALLDATALOAD PUSH2 0x73E DUP5 DUP3 PUSH1 0x20 DUP7 ADD PUSH2 0x6C2 JUMP JUMPDEST SWAP2 POP POP SWAP3 SWAP2 POP POP JUMP JUMPDEST PUSH1 0x0 DUP2 CALLDATALOAD SWAP1 POP PUSH2 0x756 DUP2 PUSH2 0xDF6 JUMP JUMPDEST SWAP3 SWAP2 POP POP JUMP JUMPDEST PUSH1 0x0 PUSH1 0x20 DUP3 DUP5 SUB SLT ISZERO PUSH2 0x772 JUMPI PUSH2 0x771 PUSH2 0xDC9 JUMP JUMPDEST JUMPDEST PUSH1 0x0 DUP3 ADD CALLDATALOAD PUSH8 0xFFFFFFFFFFFFFFFF DUP2 GT ISZERO PUSH2 0x790 JUMPI PUSH2 0x78F PUSH2 0xDC4 JUMP JUMPDEST JUMPDEST PUSH2 0x79C DUP5 DUP3 DUP6 ADD PUSH2 0x719 JUMP JUMPDEST SWAP2 POP POP SWAP3 SWAP2 POP POP JUMP JUMPDEST PUSH1 0x0 DUP1 PUSH1 0x40 DUP4 DUP6 SUB SLT ISZERO PUSH2 0x7BC JUMPI PUSH2 0x7BB PUSH2 0xDC9 JUMP JUMPDEST JUMPDEST PUSH1 0x0 DUP4 ADD CALLDATALOAD PUSH8 0xFFFFFFFFFFFFFFFF DUP2 GT ISZERO PUSH2 0x7DA JUMPI PUSH2 0x7D9 PUSH2 0xDC4 JUMP JUMPDEST JUMPDEST PUSH2 0x7E6 DUP6 DUP3 DUP7 ADD PUSH2 0x719 JUMP JUMPDEST SWAP3 POP POP PUSH1 0x20 PUSH2 0x7F7 DUP6 DUP3 DUP7 ADD PUSH2 0x704 JUMP JUMPDEST SWAP2 POP POP SWAP3 POP SWAP3 SWAP1 POP JUMP JUMPDEST PUSH1 0x0 PUSH1 0x20 DUP3 DUP5 SUB SLT ISZERO PUSH2 0x817 JUMPI PUSH2 0x816 PUSH2 0xDC9 JUMP JUMPDEST JUMPDEST PUSH1 0x0 PUSH2 0x825 DUP5 DUP3 DUP6 ADD PUSH2 0x747 JUMP JUMPDEST SWAP2 POP POP SWAP3 SWAP2 POP POP JUMP JUMPDEST PUSH1 0x0 DUP1 PUSH1 0x40 DUP4 DUP6 SUB SLT ISZERO PUSH2 0x845 JUMPI PUSH2 0x844 PUSH2 0xDC9 JUMP JUMPDEST JUMPDEST PUSH1 0x0 PUSH2 0x853 DUP6 DUP3 DUP7 ADD PUSH2 0x747 JUMP JUMPDEST SWAP3 POP POP PUSH1 0x20 PUSH2 0x864 DUP6 DUP3 DUP7 ADD PUSH2 0x704 JUMP JUMPDEST SWAP2 POP POP SWAP3 POP SWAP3 SWAP1 POP JUMP JUMPDEST PUSH1 0x0 DUP1 PUSH1 0x40 DUP4 DUP6 SUB SLT ISZERO PUSH2 0x885 JUMPI PUSH2 0x884 PUSH2 0xDC9 JUMP JUMPDEST JUMPDEST PUSH1 0x0 PUSH2 0x893 DUP6 DUP3 DUP7 ADD PUSH2 0x747 JUMP JUMPDEST SWAP3 POP POP PUSH1 0x20 DUP4 ADD CALLDATALOAD PUSH8 0xFFFFFFFFFFFFFFFF DUP2 GT ISZERO PUSH2 0x8B4 JUMPI PUSH2 0x8B3 PUSH2 0xDC4 JUMP JUMPDEST JUMPDEST PUSH2 0x8C0 DUP6 DUP3 DUP7 ADD PUSH2 0x719 JUMP JUMPDEST SWAP2 POP POP SWAP3 POP SWAP3 SWAP1 POP JUMP JUMPDEST PUSH1 0x0 PUSH2 0x8D6 DUP4 DUP4 PUSH2 0xA14 JUMP JUMPDEST SWAP1 POP SWAP3 SWAP2 POP POP JUMP JUMPDEST PUSH1 0x0 PUSH2 0x8E9 DUP3 PUSH2 0xB42 JUMP JUMPDEST PUSH2 0x8F3 DUP2 DUP6 PUSH2 0xB65 JUMP JUMPDEST SWAP4 POP DUP4 PUSH1 0x20 DUP3 MUL DUP6 ADD PUSH2 0x905 DUP6 PUSH2 0xB32 JUMP JUMPDEST DUP1 PUSH1 0x0 JUMPDEST DUP6 DUP2 LT ISZERO PUSH2 0x941 JUMPI DUP5 DUP5 SUB DUP10 MSTORE DUP2 MLOAD PUSH2 0x922 DUP6 DUP3 PUSH2 0x8CA JUMP JUMPDEST SWAP5 POP PUSH2 0x92D DUP4 PUSH2 0xB58 JUMP JUMPDEST SWAP3 POP PUSH1 0x20 DUP11 ADD SWAP10 POP POP PUSH1 0x1 DUP2 ADD SWAP1 POP PUSH2 0x909 JUMP JUMPDEST POP DUP3 SWAP8 POP DUP8 SWAP6 POP POP POP POP POP POP SWAP3 SWAP2 POP POP JUMP JUMPDEST PUSH2 0x95C DUP2 PUSH2 0xBF9 JUMP JUMPDEST DUP3 MSTORE POP POP JUMP JUMPDEST PUSH2 0x96B DUP2 PUSH2 0xBF9 JUMP JUMPDEST DUP3 MSTORE POP POP JUMP JUMPDEST PUSH1 0x0 PUSH2 0x97C DUP3 PUSH2 0xB4D JUMP JUMPDEST PUSH2 0x986 DUP2 DUP6 PUSH2 0xB76 JUMP JUMPDEST SWAP4 POP PUSH2 0x996 DUP2 DUP6 PUSH1 0x20 DUP7 ADD PUSH2 0xC1F JUMP JUMPDEST PUSH2 0x99F DUP2 PUSH2 0xDCE JUMP JUMPDEST DUP5 ADD SWAP2 POP POP SWAP3 SWAP2 POP POP JUMP JUMPDEST PUSH1 0x0 PUSH2 0x9B5 DUP3 PUSH2 0xB4D JUMP JUMPDEST PUSH2 0x9BF DUP2 DUP6 PUSH2 0xB87 JUMP JUMPDEST SWAP4 POP PUSH2 0x9CF DUP2 DUP6 PUSH1 0x20 DUP7 ADD PUSH2 0xC1F JUMP JUMPDEST PUSH2 0x9D8 DUP2 PUSH2 0xDCE JUMP JUMPDEST DUP5 ADD SWAP2 POP POP SWAP3 SWAP2 POP POP JUMP JUMPDEST PUSH1 0x0 PUSH2 0x9EE DUP3 PUSH2 0xB4D JUMP JUMPDEST PUSH2 0x9F8 DUP2 DUP6 PUSH2 0xB98 JUMP JUMPDEST SWAP4 POP PUSH2 0xA08 DUP2 DUP6 PUSH1 0x20 DUP7 ADD PUSH2 0xC1F JUMP JUMPDEST DUP1 DUP5 ADD SWAP2 POP POP SWAP3 SWAP2 POP POP JUMP JUMPDEST PUSH1 0x0 PUSH1 0x60 DUP4 ADD PUSH1 0x0 DUP4 ADD MLOAD PUSH2 0xA2C PUSH1 0x0 DUP7 ADD DUP3 PUSH2 0xA64 JUMP JUMPDEST POP PUSH1 0x20 DUP4 ADD MLOAD DUP5 DUP3 SUB PUSH1 0x20 DUP7 ADD MSTORE PUSH2 0xA44 DUP3 DUP3 PUSH2 0x971 JUMP JUMPDEST SWAP2 POP POP PUSH1 0x40 DUP4 ADD MLOAD PUSH2 0xA59 PUSH1 0x40 DUP7 ADD DUP3 PUSH2 0x953 JUMP JUMPDEST POP DUP1 SWAP2 POP POP SWAP3 SWAP2 POP POP JUMP JUMPDEST PUSH2 0xA6D DUP2 PUSH2 0xC06 JUMP JUMPDEST DUP3 MSTORE POP POP JUMP JUMPDEST PUSH1 0x0 PUSH2 0xA7F DUP3 DUP5 PUSH2 0x9E3 JUMP JUMPDEST SWAP2 POP DUP2 SWAP1 POP SWAP3 SWAP2 POP POP JUMP JUMPDEST PUSH1 0x0 PUSH1 0x20 DUP3 ADD SWAP1 POP DUP2 DUP2 SUB PUSH1 0x0 DUP4 ADD MSTORE PUSH2 0xAA4 DUP2 DUP5 PUSH2 0x8DE JUMP JUMPDEST SWAP1 POP SWAP3 SWAP2 POP POP JUMP JUMPDEST PUSH1 0x0 PUSH1 0x40 DUP3 ADD SWAP1 POP DUP2 DUP2 SUB PUSH1 0x0 DUP4 ADD MSTORE PUSH2 0xAC6 DUP2 DUP6 PUSH2 0x9AA JUMP JUMPDEST SWAP1 POP PUSH2 0xAD5 PUSH1 0x20 DUP4 ADD DUP5 PUSH2 0x962 JUMP JUMPDEST SWAP4 SWAP3 POP POP POP JUMP JUMPDEST PUSH1 0x0 PUSH2 0xAE6 PUSH2 0xAF7 JUMP JUMPDEST SWAP1 POP PUSH2 0xAF2 DUP3 DUP3 PUSH2 0xC84 JUMP JUMPDEST SWAP2 SWAP1 POP JUMP JUMPDEST PUSH1 0x0 PUSH1 0x40 MLOAD SWAP1 POP SWAP1 JUMP JUMPDEST PUSH1 0x0 PUSH8 0xFFFFFFFFFFFFFFFF DUP3 GT ISZERO PUSH2 0xB1C JUMPI PUSH2 0xB1B PUSH2 0xD8B JUMP JUMPDEST JUMPDEST PUSH2 0xB25 DUP3 PUSH2 0xDCE JUMP JUMPDEST SWAP1 POP PUSH1 0x20 DUP2 ADD SWAP1 POP SWAP2 SWAP1 POP JUMP JUMPDEST PUSH1 0x0 DUP2 SWAP1 POP PUSH1 0x20 DUP3 ADD SWAP1 POP SWAP2 SWAP1 POP JUMP JUMPDEST PUSH1 0x0 DUP2 MLOAD SWAP1 POP SWAP2 SWAP1 POP JUMP JUMPDEST PUSH1 0x0 DUP2 MLOAD SWAP1 POP SWAP2 SWAP1 POP JUMP JUMPDEST PUSH1 0x0 PUSH1 0x20 DUP3 ADD SWAP1 POP SWAP2 SWAP1 POP JUMP JUMPDEST PUSH1 0x0 DUP3 DUP3 MSTORE PUSH1 0x20 DUP3 ADD SWAP1 POP SWAP3 SWAP2 POP POP JUMP JUMPDEST PUSH1 0x0 DUP3 DUP3 MSTORE PUSH1 0x20 DUP3 ADD SWAP1 POP SWAP3 SWAP2 POP POP JUMP JUMPDEST PUSH1 0x0 DUP3 DUP3 MSTORE PUSH1 0x20 DUP3 ADD SWAP1 POP SWAP3 SWAP2 POP POP JUMP JUMPDEST PUSH1 0x0 DUP2 SWAP1 POP SWAP3 SWAP2 POP POP JUMP JUMPDEST PUSH1 0x0 PUSH2 0xBAE DUP3 PUSH2 0xC06 JUMP JUMPDEST SWAP2 POP PUSH2 0xBB9 DUP4 PUSH2 0xC06 JUMP JUMPDEST SWAP3 POP DUP3 PUSH32 0xFFFFFFFFFFFFFFFFFFFFFFFFFFFFFFFFFFFFFFFFFFFFFFFFFFFFFFFFFFFFFFFF SUB DUP3 GT ISZERO PUSH2 0xBEE JUMPI PUSH2 0xBED PUSH2 0xCFE JUMP JUMPDEST JUMPDEST DUP3 DUP3 ADD SWAP1 POP SWAP3 SWAP2 POP POP JUMP JUMPDEST PUSH1 0x0 DUP2 PUSH1 0x1 SIGNEXTEND SWAP1 POP SWAP2 SWAP1 POP JUMP JUMPDEST PUSH1 0x0 DUP2 SWAP1 POP SWAP2 SWAP1 POP JUMP JUMPDEST DUP3 DUP2 DUP4 CALLDATACOPY PUSH1 0x0 DUP4 DUP4 ADD MSTORE POP POP POP JUMP JUMPDEST PUSH1 0x0 JUMPDEST DUP4 DUP2 LT ISZERO PUSH2 0xC3D JUMPI DUP1 DUP3 ADD MLOAD DUP2 DUP5 ADD MSTORE PUSH1 0x20 DUP2 ADD SWAP1 POP PUSH2 0xC22 JUMP JUMPDEST DUP4 DUP2 GT ISZERO PUSH2 0xC4C JUMPI PUSH1 0x0 DUP5 DUP5 ADD MSTORE JUMPDEST POP POP POP POP JUMP JUMPDEST PUSH1 0x0 PUSH1 0x2 DUP3 DIV SWAP1 POP PUSH1 0x1 DUP3 AND DUP1 PUSH2 0xC6A JUMPI PUSH1 0x7F DUP3 AND SWAP2 POP JUMPDEST PUSH1 0x20 DUP3 LT DUP2 EQ ISZERO PUSH2 0xC7E JUMPI PUSH2 0xC7D PUSH2 0xD2D JUMP JUMPDEST JUMPDEST POP SWAP2 SWAP1 POP JUMP JUMPDEST PUSH2 0xC8D DUP3 PUSH2 0xDCE JUMP JUMPDEST DUP2 ADD DUP2 DUP2 LT PUSH8 0xFFFFFFFFFFFFFFFF DUP3 GT OR ISZERO PUSH2 0xCAC JUMPI PUSH2 0xCAB PUSH2 0xD8B JUMP JUMPDEST JUMPDEST DUP1 PUSH1 0x40 MSTORE POP POP POP JUMP JUMPDEST PUSH1 0x0 PUSH2 0xCC0 DUP3 PUSH2 0xC06 JUMP JUMPDEST SWAP2 POP PUSH32 0xFFFFFFFFFFFFFFFFFFFFFFFFFFFFFFFFFFFFFFFFFFFFFFFFFFFFFFFFFFFFFFFF DUP3 EQ ISZERO PUSH2 0xCF3 JUMPI PUSH2 0xCF2 PUSH2 0xCFE JUMP JUMPDEST JUMPDEST PUSH1 0x1 DUP3 ADD SWAP1 POP SWAP2 SWAP1 POP JUMP JUMPDEST PUSH32 0x4E487B7100000000000000000000000000000000000000000000000000000000 PUSH1 0x0 MSTORE PUSH1 0x11 PUSH1 0x4 MSTORE PUSH1 0x24 PUSH1 0x0 REVERT JUMPDEST PUSH32 0x4E487B7100000000000000000000000000000000000000000000000000000000 PUSH1 0x0 MSTORE PUSH1 0x22 PUSH1 0x4 MSTORE PUSH1 0x24 PUSH1 0x0 REVERT JUMPDEST PUSH32 0x4E487B7100000000000000000000000000000000000000000000000000000000 PUSH1 0x0 MSTORE PUSH1 0x32 PUSH1 0x4 MSTORE PUSH1 0x24 PUSH1 0x0 REVERT JUMPDEST PUSH32 0x4E487B7100000000000000000000000000000000000000000000000000000000 PUSH1 0x0 MSTORE PUSH1 0x41 PUSH1 0x4 MSTORE PUSH1 0x24 PUSH1 0x0 REVERT JUMPDEST PUSH1 0x0 DUP1 REVERT JUMPDEST PUSH1 0x0 DUP1 REVERT JUMPDEST PUSH1 0x0 DUP1 REVERT JUMPDEST PUSH1 0x0 DUP1 REVERT JUMPDEST PUSH1 0x0 PUSH1 0x1F NOT PUSH1 0x1F DUP4 ADD AND SWAP1 POP SWAP2 SWAP1 POP JUMP JUMPDEST PUSH2 0xDE8 DUP2 PUSH2 0xBF9 JUMP JUMPDEST DUP2 EQ PUSH2 0xDF3 JUMPI PUSH1 0x0 DUP1 REVERT JUMPDEST POP JUMP JUMPDEST PUSH2 0xDFF DUP2 PUSH2 0xC06 JUMP JUMPDEST DUP2 EQ PUSH2 0xE0A JUMPI PUSH1 0x0 DUP1 REVERT JUMPDEST POP JUMP INVALID LOG2 PUSH5 0x6970667358 0x22 SLT KECCAK256 0xD4 RETURN 0x4F 0xCD 0xA5 RETURNDATASIZE 0xAF SWAP14 0xC7 0x21 SLT 0xAA 0x5F PUSH14 0x20D78E95B1C1CE4268F4700CB8F4 PUSH13 0xBD601664736F6C634300080700 CALLER "
				},
				"gasEstimates": {
					"creation": {
						"codeDepositCost": "730200",
						"executionCost": "infinite",
						"totalCost": "infinite"
					},
					"external": {
						"createProduit(string,int16)": "infinite",
						"getAllProductInfo()": "infinite",
						"getProductInfoById(uint256)": "infinite",
						"getProductInfoByName(string)": "infinite",
						"setProductInfoName(uint256,string)": "infinite",
						"setProductInfoPrice(uint256,int16)": "24990"
					}
				},
				"methodIdentifiers": {
					"createProduit(string,int16)": "51401eef",
					"getAllProductInfo()": "5b315089",
					"getProductInfoById(uint256)": "65c3e805",
					"getProductInfoByName(string)": "d7f4933c",
					"setProductInfoName(uint256,string)": "3117b11c",
					"setProductInfoPrice(uint256,int16)": "62c2886b"
				}
			},
			"storageLayout": {
				"storage": [
					{
						"astId": 20,
						"contract": "contracts/ExoSupermarche.sol:supermarche",
						"label": "numberOfProduct",
						"offset": 0,
						"slot": "0",
						"type": "t_uint256"
					},
					{
						"astId": 25,
						"contract": "contracts/ExoSupermarche.sol:supermarche",
						"label": "productsById",
						"offset": 0,
						"slot": "1",
						"type": "t_mapping(t_uint256,t_struct(productData)17_storage)"
					},
					{
						"astId": 30,
						"contract": "contracts/ExoSupermarche.sol:supermarche",
						"label": "productsByName",
						"offset": 0,
						"slot": "2",
						"type": "t_mapping(t_string_memory_ptr,t_struct(productData)17_storage)"
					}
				],
				"types": {
					"t_int16": {
						"encoding": "inplace",
						"label": "int16",
						"numberOfBytes": "2"
					},
					"t_mapping(t_string_memory_ptr,t_struct(productData)17_storage)": {
						"encoding": "mapping",
						"key": "t_string_memory_ptr",
						"label": "mapping(string => struct supermarche.productData)",
						"numberOfBytes": "32",
						"value": "t_struct(productData)17_storage"
					},
					"t_mapping(t_uint256,t_struct(productData)17_storage)": {
						"encoding": "mapping",
						"key": "t_uint256",
						"label": "mapping(uint256 => struct supermarche.productData)",
						"numberOfBytes": "32",
						"value": "t_struct(productData)17_storage"
					},
					"t_string_memory_ptr": {
						"encoding": "bytes",
						"label": "string",
						"numberOfBytes": "32"
					},
					"t_string_storage": {
						"encoding": "bytes",
						"label": "string",
						"numberOfBytes": "32"
					},
					"t_struct(productData)17_storage": {
						"encoding": "inplace",
						"label": "struct supermarche.productData",
						"members": [
							{
								"astId": 12,
								"contract": "contracts/ExoSupermarche.sol:supermarche",
								"label": "id",
								"offset": 0,
								"slot": "0",
								"type": "t_uint256"
							},
							{
								"astId": 14,
								"contract": "contracts/ExoSupermarche.sol:supermarche",
								"label": "libelle",
								"offset": 0,
								"slot": "1",
								"type": "t_string_storage"
							},
							{
								"astId": 16,
								"contract": "contracts/ExoSupermarche.sol:supermarche",
								"label": "price",
								"offset": 0,
								"slot": "2",
								"type": "t_int16"
							}
						],
						"numberOfBytes": "96"
					},
					"t_uint256": {
						"encoding": "inplace",
						"label": "uint256",
						"numberOfBytes": "32"
					}
				}
			},
			"userdoc": {
				"kind": "user",
				"methods": {},
				"version": 1
			}
		}
	}
}