{
	"contracts/ExoSupermarche.sol": {
		"supermarche": {
			"abi": [
				{
					"inputs": [
						{
							"internalType": "string",
							"name": "_libelle",
							"type": "string"
						},
						{
							"internalType": "int16",
							"name": "_prix",
							"type": "int16"
						}
					],
					"name": "createProduit",
					"outputs": [],
					"stateMutability": "nonpayable",
					"type": "function"
				},
				{
					"inputs": [],
					"name": "getAllProducts",
					"outputs": [
						{
							"components": [
								{
									"internalType": "uint256",
									"name": "id",
									"type": "uint256"
								},
								{
									"internalType": "string",
									"name": "libelle",
									"type": "string"
								},
								{
									"internalType": "int16",
									"name": "price",
									"type": "int16"
								}
							],
							"internalType": "struct supermarche.productData[]",
							"name": "",
							"type": "tuple[]"
						}
					],
					"stateMutability": "view",
					"type": "function"
				},
				{
					"inputs": [
						{
							"internalType": "uint256",
							"name": "_id",
							"type": "uint256"
						}
					],
					"name": "getProductInfoById",
					"outputs": [
						{
							"internalType": "string",
							"name": "",
							"type": "string"
						},
						{
							"internalType": "int16",
							"name": "",
							"type": "int16"
						}
					],
					"stateMutability": "view",
					"type": "function"
				},
				{
					"inputs": [
						{
							"internalType": "uint256",
							"name": "_id",
							"type": "uint256"
						}
					],
					"name": "getProductInfoByName",
					"outputs": [
						{
							"internalType": "string",
							"name": "",
							"type": "string"
						},
						{
							"internalType": "int16",
							"name": "",
							"type": "int16"
						}
					],
					"stateMutability": "view",
					"type": "function"
				}
			],
			"devdoc": {
				"kind": "dev",
				"methods": {},
				"version": 1
			},
			"evm": {
				"assembly": "    /* \"contracts/ExoSupermarche.sol\":59:1292  contract supermarche {\r... */\n  mstore(0x40, 0x80)\n  callvalue\n  dup1\n  iszero\n  tag_1\n  jumpi\n  0x00\n  dup1\n  revert\ntag_1:\n  pop\n  dataSize(sub_0)\n  dup1\n  dataOffset(sub_0)\n  0x00\n  codecopy\n  0x00\n  return\nstop\n\nsub_0: assembly {\n        /* \"contracts/ExoSupermarche.sol\":59:1292  contract supermarche {\r... */\n      mstore(0x40, 0x80)\n      callvalue\n      dup1\n      iszero\n      tag_1\n      jumpi\n      0x00\n      dup1\n      revert\n    tag_1:\n      pop\n      jumpi(tag_2, lt(calldatasize, 0x04))\n      shr(0xe0, calldataload(0x00))\n      dup1\n      0x02ee3a52\n      eq\n      tag_3\n      jumpi\n      dup1\n      0x51401eef\n      eq\n      tag_4\n      jumpi\n      dup1\n      0x65c3e805\n      eq\n      tag_5\n      jumpi\n      dup1\n      0xc44031ab\n      eq\n      tag_6\n      jumpi\n    tag_2:\n      0x00\n      dup1\n      revert\n        /* \"contracts/ExoSupermarche.sol\":1173:1278  function getAllProducts() public view returns(productData[] memory) {\r... */\n    tag_3:\n      tag_7\n      tag_8\n      jump\t// in\n    tag_7:\n      mload(0x40)\n      tag_9\n      swap2\n      swap1\n      tag_10\n      jump\t// in\n    tag_9:\n      mload(0x40)\n      dup1\n      swap2\n      sub\n      swap1\n      return\n        /* \"contracts/ExoSupermarche.sol\":465:749  function createProduit(string memory _libelle, int16 _prix) public {\r... */\n    tag_4:\n      tag_11\n      0x04\n      dup1\n      calldatasize\n      sub\n      dup2\n      add\n      swap1\n      tag_12\n      swap2\n      swap1\n      tag_13\n      jump\t// in\n    tag_12:\n      tag_14\n      jump\t// in\n    tag_11:\n      stop\n        /* \"contracts/ExoSupermarche.sol\":762:957  function getProductInfoById(uint _id) public view returns(string memory, int16) {\r... */\n    tag_5:\n      tag_15\n      0x04\n      dup1\n      calldatasize\n      sub\n      dup2\n      add\n      swap1\n      tag_16\n      swap2\n      swap1\n      tag_17\n      jump\t// in\n    tag_16:\n      tag_18\n      jump\t// in\n    tag_15:\n      mload(0x40)\n      tag_19\n      swap3\n      swap2\n      swap1\n      tag_20\n      jump\t// in\n    tag_19:\n      mload(0x40)\n      dup1\n      swap2\n      sub\n      swap1\n      return\n        /* \"contracts/ExoSupermarche.sol\":966:1163  function getProductInfoByName(uint _id) public view returns(string memory, int16) {\r... */\n    tag_6:\n      tag_21\n      0x04\n      dup1\n      calldatasize\n      sub\n      dup2\n      add\n      swap1\n      tag_22\n      swap2\n      swap1\n      tag_17\n      jump\t// in\n    tag_22:\n      tag_23\n      jump\t// in\n    tag_21:\n      mload(0x40)\n      tag_24\n      swap3\n      swap2\n      swap1\n      tag_20\n      jump\t// in\n    tag_24:\n      mload(0x40)\n      dup1\n      swap2\n      sub\n      swap1\n      return\n        /* \"contracts/ExoSupermarche.sol\":1173:1278  function getAllProducts() public view returns(productData[] memory) {\r... */\n    tag_8:\n        /* \"contracts/ExoSupermarche.sol\":1219:1239  productData[] memory */\n      0x60\n        /* \"contracts/ExoSupermarche.sol\":1259:1270  AllProduits */\n      0x00\n        /* \"contracts/ExoSupermarche.sol\":1252:1270  return AllProduits */\n      dup1\n      sload\n      dup1\n      0x20\n      mul\n      0x20\n      add\n      mload(0x40)\n      swap1\n      dup2\n      add\n      0x40\n      mstore\n      dup1\n      swap3\n      swap2\n      swap1\n      dup2\n      dup2\n      mstore\n      0x20\n      add\n      0x00\n      swap1\n    tag_26:\n      dup3\n      dup3\n      lt\n      iszero\n      tag_27\n      jumpi\n      dup4\n      dup3\n      swap1\n      0x00\n      mstore\n      keccak256(0x00, 0x20)\n      swap1\n      0x03\n      mul\n      add\n      mload(0x40)\n      dup1\n      0x60\n      add\n      0x40\n      mstore\n      swap1\n      dup2\n      0x00\n      dup3\n      add\n      sload\n      dup2\n      mstore\n      0x20\n      add\n      0x01\n      dup3\n      add\n      dup1\n      sload\n      tag_29\n      swap1\n      tag_30\n      jump\t// in\n    tag_29:\n      dup1\n      0x1f\n      add\n      0x20\n      dup1\n      swap2\n      div\n      mul\n      0x20\n      add\n      mload(0x40)\n      swap1\n      dup2\n      add\n      0x40\n      mstore\n      dup1\n      swap3\n      swap2\n      swap1\n      dup2\n      dup2\n      mstore\n      0x20\n      add\n      dup3\n      dup1\n      sload\n      tag_31\n      swap1\n      tag_30\n      jump\t// in\n    tag_31:\n      dup1\n      iszero\n      tag_32\n      jumpi\n      dup1\n      0x1f\n      lt\n      tag_33\n      jumpi\n      0x0100\n      dup1\n      dup4\n      sload\n      div\n      mul\n      dup4\n      mstore\n      swap2\n      0x20\n      add\n      swap2\n      jump(tag_32)\n    tag_33:\n      dup3\n      add\n      swap2\n      swap1\n      0x00\n      mstore\n      keccak256(0x00, 0x20)\n      swap1\n    tag_34:\n      dup2\n      sload\n      dup2\n      mstore\n      swap1\n      0x01\n      add\n      swap1\n      0x20\n      add\n      dup1\n      dup4\n      gt\n      tag_34\n      jumpi\n      dup3\n      swap1\n      sub\n      0x1f\n      and\n      dup3\n      add\n      swap2\n    tag_32:\n      pop\n      pop\n      pop\n      pop\n      pop\n      dup2\n      mstore\n      0x20\n      add\n      0x02\n      dup3\n      add\n      0x00\n      swap1\n      sload\n      swap1\n      0x0100\n      exp\n      swap1\n      div\n      0x01\n      signextend\n      0x01\n      signextend\n      0x01\n      signextend\n      dup2\n      mstore\n      pop\n      pop\n      dup2\n      mstore\n      0x20\n      add\n      swap1\n      0x01\n      add\n      swap1\n      jump(tag_26)\n    tag_27:\n      pop\n      pop\n      pop\n      pop\n      swap1\n      pop\n        /* \"contracts/ExoSupermarche.sol\":1173:1278  function getAllProducts() public view returns(productData[] memory) {\r... */\n      swap1\n      jump\t// out\n        /* \"contracts/ExoSupermarche.sol\":465:749  function createProduit(string memory _libelle, int16 _prix) public {\r... */\n    tag_14:\n        /* \"contracts/ExoSupermarche.sol\":543:550  uint id */\n      0x00\n        /* \"contracts/ExoSupermarche.sol\":574:575  1 */\n      0x01\n        /* \"contracts/ExoSupermarche.sol\":553:564  AllProduits */\n      0x00\n        /* \"contracts/ExoSupermarche.sol\":553:571  AllProduits.length */\n      dup1\n      sload\n      swap1\n      pop\n        /* \"contracts/ExoSupermarche.sol\":553:575  AllProduits.length + 1 */\n      tag_36\n      swap2\n      swap1\n      tag_37\n      jump\t// in\n    tag_36:\n        /* \"contracts/ExoSupermarche.sol\":543:575  uint id = AllProduits.length + 1 */\n      swap1\n      pop\n        /* \"contracts/ExoSupermarche.sol\":586:606  productData memory p */\n      0x00\n        /* \"contracts/ExoSupermarche.sol\":609:641  productData(id, _libelle, _prix) */\n      mload(0x40)\n      dup1\n      0x60\n      add\n      0x40\n      mstore\n      dup1\n        /* \"contracts/ExoSupermarche.sol\":621:623  id */\n      dup4\n        /* \"contracts/ExoSupermarche.sol\":609:641  productData(id, _libelle, _prix) */\n      dup2\n      mstore\n      0x20\n      add\n        /* \"contracts/ExoSupermarche.sol\":625:633  _libelle */\n      dup6\n        /* \"contracts/ExoSupermarche.sol\":609:641  productData(id, _libelle, _prix) */\n      dup2\n      mstore\n      0x20\n      add\n        /* \"contracts/ExoSupermarche.sol\":635:640  _prix */\n      dup5\n        /* \"contracts/ExoSupermarche.sol\":609:641  productData(id, _libelle, _prix) */\n      0x01\n      signextend\n      dup2\n      mstore\n      pop\n        /* \"contracts/ExoSupermarche.sol\":586:641  productData memory p = productData(id, _libelle, _prix) */\n      swap1\n      pop\n        /* \"contracts/ExoSupermarche.sol\":652:663  AllProduits */\n      0x00\n        /* \"contracts/ExoSupermarche.sol\":669:670  p */\n      dup2\n        /* \"contracts/ExoSupermarche.sol\":652:671  AllProduits.push(p) */\n      swap1\n      dup1\n      0x01\n      dup2\n      sload\n      add\n      dup1\n      dup3\n      sstore\n      dup1\n      swap2\n      pop\n      pop\n      0x01\n      swap1\n      sub\n      swap1\n      0x00\n      mstore\n      keccak256(0x00, 0x20)\n      swap1\n      0x03\n      mul\n      add\n      0x00\n      swap1\n      swap2\n      swap1\n      swap2\n      swap1\n      swap2\n      pop\n      0x00\n      dup3\n      add\n      mload\n      dup2\n      0x00\n      add\n      sstore\n      0x20\n      dup3\n      add\n      mload\n      dup2\n      0x01\n      add\n      swap1\n      dup1\n      mload\n      swap1\n      0x20\n      add\n      swap1\n      tag_39\n      swap3\n      swap2\n      swap1\n      tag_40\n      jump\t// in\n    tag_39:\n      pop\n      0x40\n      dup3\n      add\n      mload\n      dup2\n      0x02\n      add\n      exp(0x0100, 0x00)\n      dup2\n      sload\n      dup2\n      0xffff\n      mul\n      not\n      and\n      swap1\n      dup4\n      0x01\n      signextend\n      0xffff\n      and\n      mul\n      or\n      swap1\n      sstore\n      pop\n      pop\n      pop\n        /* \"contracts/ExoSupermarche.sol\":701:702  p */\n      dup1\n        /* \"contracts/ExoSupermarche.sol\":682:694  productsById */\n      0x02\n        /* \"contracts/ExoSupermarche.sol\":682:698  productsById[id] */\n      0x00\n        /* \"contracts/ExoSupermarche.sol\":695:697  id */\n      dup5\n        /* \"contracts/ExoSupermarche.sol\":682:698  productsById[id] */\n      dup2\n      mstore\n      0x20\n      add\n      swap1\n      dup2\n      mstore\n      0x20\n      add\n      0x00\n      keccak256\n        /* \"contracts/ExoSupermarche.sol\":682:702  productsById[id] = p */\n      0x00\n      dup3\n      add\n      mload\n      dup2\n      0x00\n      add\n      sstore\n      0x20\n      dup3\n      add\n      mload\n      dup2\n      0x01\n      add\n      swap1\n      dup1\n      mload\n      swap1\n      0x20\n      add\n      swap1\n      tag_41\n      swap3\n      swap2\n      swap1\n      tag_40\n      jump\t// in\n    tag_41:\n      pop\n      0x40\n      dup3\n      add\n      mload\n      dup2\n      0x02\n      add\n      exp(0x0100, 0x00)\n      dup2\n      sload\n      dup2\n      0xffff\n      mul\n      not\n      and\n      swap1\n      dup4\n      0x01\n      signextend\n      0xffff\n      and\n      mul\n      or\n      swap1\n      sstore\n      pop\n      swap1\n      pop\n      pop\n        /* \"contracts/ExoSupermarche.sol\":740:741  p */\n      dup1\n        /* \"contracts/ExoSupermarche.sol\":713:727  productsByName */\n      0x03\n        /* \"contracts/ExoSupermarche.sol\":728:736  _libelle */\n      dup6\n        /* \"contracts/ExoSupermarche.sol\":713:737  productsByName[_libelle] */\n      mload(0x40)\n      tag_42\n      swap2\n      swap1\n      tag_43\n      jump\t// in\n    tag_42:\n      swap1\n      dup2\n      mstore\n      0x20\n      add\n      mload(0x40)\n      dup1\n      swap2\n      sub\n      swap1\n      keccak256\n        /* \"contracts/ExoSupermarche.sol\":713:741  productsByName[_libelle] = p */\n      0x00\n      dup3\n      add\n      mload\n      dup2\n      0x00\n      add\n      sstore\n      0x20\n      dup3\n      add\n      mload\n      dup2\n      0x01\n      add\n      swap1\n      dup1\n      mload\n      swap1\n      0x20\n      add\n      swap1\n      tag_44\n      swap3\n      swap2\n      swap1\n      tag_40\n      jump\t// in\n    tag_44:\n      pop\n      0x40\n      dup3\n      add\n      mload\n      dup2\n      0x02\n      add\n      exp(0x0100, 0x00)\n      dup2\n      sload\n      dup2\n      0xffff\n      mul\n      not\n      and\n      swap1\n      dup4\n      0x01\n      signextend\n      0xffff\n      and\n      mul\n      or\n      swap1\n      sstore\n      pop\n      swap1\n      pop\n      pop\n        /* \"contracts/ExoSupermarche.sol\":532:749  {\r... */\n      pop\n      pop\n        /* \"contracts/ExoSupermarche.sol\":465:749  function createProduit(string memory _libelle, int16 _prix) public {\r... */\n      pop\n      pop\n      jump\t// out\n        /* \"contracts/ExoSupermarche.sol\":762:957  function getProductInfoById(uint _id) public view returns(string memory, int16) {\r... */\n    tag_18:\n        /* \"contracts/ExoSupermarche.sol\":820:833  string memory */\n      0x60\n        /* \"contracts/ExoSupermarche.sol\":835:840  int16 */\n      0x00\n        /* \"contracts/ExoSupermarche.sol\":875:887  productsById */\n      0x02\n        /* \"contracts/ExoSupermarche.sol\":875:892  productsById[_id] */\n      0x00\n        /* \"contracts/ExoSupermarche.sol\":888:891  _id */\n      dup5\n        /* \"contracts/ExoSupermarche.sol\":875:892  productsById[_id] */\n      dup2\n      mstore\n      0x20\n      add\n      swap1\n      dup2\n      mstore\n      0x20\n      add\n      0x00\n      keccak256\n        /* \"contracts/ExoSupermarche.sol\":875:900  productsById[_id].libelle */\n      0x01\n      add\n        /* \"contracts/ExoSupermarche.sol\":915:927  productsById */\n      0x02\n        /* \"contracts/ExoSupermarche.sol\":915:932  productsById[_id] */\n      0x00\n        /* \"contracts/ExoSupermarche.sol\":928:931  _id */\n      dup6\n        /* \"contracts/ExoSupermarche.sol\":915:932  productsById[_id] */\n      dup2\n      mstore\n      0x20\n      add\n      swap1\n      dup2\n      mstore\n      0x20\n      add\n      0x00\n      keccak256\n        /* \"contracts/ExoSupermarche.sol\":915:938  productsById[_id].price */\n      0x02\n      add\n      0x00\n      swap1\n      sload\n      swap1\n      0x0100\n      exp\n      swap1\n      div\n      0x01\n      signextend\n        /* \"contracts/ExoSupermarche.sol\":853:949  return (\r... */\n      dup2\n      dup1\n      sload\n      tag_46\n      swap1\n      tag_30\n      jump\t// in\n    tag_46:\n      dup1\n      0x1f\n      add\n      0x20\n      dup1\n      swap2\n      div\n      mul\n      0x20\n      add\n      mload(0x40)\n      swap1\n      dup2\n      add\n      0x40\n      mstore\n      dup1\n      swap3\n      swap2\n      swap1\n      dup2\n      dup2\n      mstore\n      0x20\n      add\n      dup3\n      dup1\n      sload\n      tag_47\n      swap1\n      tag_30\n      jump\t// in\n    tag_47:\n      dup1\n      iszero\n      tag_48\n      jumpi\n      dup1\n      0x1f\n      lt\n      tag_49\n      jumpi\n      0x0100\n      dup1\n      dup4\n      sload\n      div\n      mul\n      dup4\n      mstore\n      swap2\n      0x20\n      add\n      swap2\n      jump(tag_48)\n    tag_49:\n      dup3\n      add\n      swap2\n      swap1\n      0x00\n      mstore\n      keccak256(0x00, 0x20)\n      swap1\n    tag_50:\n      dup2\n      sload\n      dup2\n      mstore\n      swap1\n      0x01\n      add\n      swap1\n      0x20\n      add\n      dup1\n      dup4\n      gt\n      tag_50\n      jumpi\n      dup3\n      swap1\n      sub\n      0x1f\n      and\n      dup3\n      add\n      swap2\n    tag_48:\n      pop\n      pop\n      pop\n      pop\n      pop\n      swap2\n      pop\n      swap2\n      pop\n      swap2\n      pop\n        /* \"contracts/ExoSupermarche.sol\":762:957  function getProductInfoById(uint _id) public view returns(string memory, int16) {\r... */\n      swap2\n      pop\n      swap2\n      jump\t// out\n        /* \"contracts/ExoSupermarche.sol\":966:1163  function getProductInfoByName(uint _id) public view returns(string memory, int16) {\r... */\n    tag_23:\n        /* \"contracts/ExoSupermarche.sol\":1026:1039  string memory */\n      0x60\n        /* \"contracts/ExoSupermarche.sol\":1041:1046  int16 */\n      0x00\n        /* \"contracts/ExoSupermarche.sol\":1081:1093  productsById */\n      0x02\n        /* \"contracts/ExoSupermarche.sol\":1081:1098  productsById[_id] */\n      0x00\n        /* \"contracts/ExoSupermarche.sol\":1094:1097  _id */\n      dup5\n        /* \"contracts/ExoSupermarche.sol\":1081:1098  productsById[_id] */\n      dup2\n      mstore\n      0x20\n      add\n      swap1\n      dup2\n      mstore\n      0x20\n      add\n      0x00\n      keccak256\n        /* \"contracts/ExoSupermarche.sol\":1081:1106  productsById[_id].libelle */\n      0x01\n      add\n        /* \"contracts/ExoSupermarche.sol\":1121:1133  productsById */\n      0x02\n        /* \"contracts/ExoSupermarche.sol\":1121:1138  productsById[_id] */\n      0x00\n        /* \"contracts/ExoSupermarche.sol\":1134:1137  _id */\n      dup6\n        /* \"contracts/ExoSupermarche.sol\":1121:1138  productsById[_id] */\n      dup2\n      mstore\n      0x20\n      add\n      swap1\n      dup2\n      mstore\n      0x20\n      add\n      0x00\n      keccak256\n        /* \"contracts/ExoSupermarche.sol\":1121:1144  productsById[_id].price */\n      0x02\n      add\n      0x00\n      swap1\n      sload\n      swap1\n      0x0100\n      exp\n      swap1\n      div\n      0x01\n      signextend\n        /* \"contracts/ExoSupermarche.sol\":1059:1155  return (\r... */\n      dup2\n      dup1\n      sload\n      tag_52\n      swap1\n      tag_30\n      jump\t// in\n    tag_52:\n      dup1\n      0x1f\n      add\n      0x20\n      dup1\n      swap2\n      div\n      mul\n      0x20\n      add\n      mload(0x40)\n      swap1\n      dup2\n      add\n      0x40\n      mstore\n      dup1\n      swap3\n      swap2\n      swap1\n      dup2\n      dup2\n      mstore\n      0x20\n      add\n      dup3\n      dup1\n      sload\n      tag_53\n      swap1\n      tag_30\n      jump\t// in\n    tag_53:\n      dup1\n      iszero\n      tag_54\n      jumpi\n      dup1\n      0x1f\n      lt\n      tag_55\n      jumpi\n      0x0100\n      dup1\n      dup4\n      sload\n      div\n      mul\n      dup4\n      mstore\n      swap2\n      0x20\n      add\n      swap2\n      jump(tag_54)\n    tag_55:\n      dup3\n      add\n      swap2\n      swap1\n      0x00\n      mstore\n      keccak256(0x00, 0x20)\n      swap1\n    tag_56:\n      dup2\n      sload\n      dup2\n      mstore\n      swap1\n      0x01\n      add\n      swap1\n      0x20\n      add\n      dup1\n      dup4\n      gt\n      tag_56\n      jumpi\n      dup3\n      swap1\n      sub\n      0x1f\n      and\n      dup3\n      add\n      swap2\n    tag_54:\n      pop\n      pop\n      pop\n      pop\n      pop\n      swap2\n      pop\n      swap2\n      pop\n      swap2\n      pop\n        /* \"contracts/ExoSupermarche.sol\":966:1163  function getProductInfoByName(uint _id) public view returns(string memory, int16) {\r... */\n      swap2\n      pop\n      swap2\n      jump\t// out\n    tag_40:\n      dup3\n      dup1\n      sload\n      tag_57\n      swap1\n      tag_30\n      jump\t// in\n    tag_57:\n      swap1\n      0x00\n      mstore\n      keccak256(0x00, 0x20)\n      swap1\n      0x1f\n      add\n      0x20\n      swap1\n      div\n      dup2\n      add\n      swap3\n      dup3\n      tag_59\n      jumpi\n      0x00\n      dup6\n      sstore\n      jump(tag_58)\n    tag_59:\n      dup3\n      0x1f\n      lt\n      tag_60\n      jumpi\n      dup1\n      mload\n      not(0xff)\n      and\n      dup4\n      dup1\n      add\n      or\n      dup6\n      sstore\n      jump(tag_58)\n    tag_60:\n      dup3\n      dup1\n      add\n      0x01\n      add\n      dup6\n      sstore\n      dup3\n      iszero\n      tag_58\n      jumpi\n      swap2\n      dup3\n      add\n    tag_61:\n      dup3\n      dup2\n      gt\n      iszero\n      tag_62\n      jumpi\n      dup3\n      mload\n      dup3\n      sstore\n      swap2\n      0x20\n      add\n      swap2\n      swap1\n      0x01\n      add\n      swap1\n      jump(tag_61)\n    tag_62:\n    tag_58:\n      pop\n      swap1\n      pop\n      tag_63\n      swap2\n      swap1\n      tag_64\n      jump\t// in\n    tag_63:\n      pop\n      swap1\n      jump\t// out\n    tag_64:\n    tag_65:\n      dup1\n      dup3\n      gt\n      iszero\n      tag_66\n      jumpi\n      0x00\n      dup2\n      0x00\n      swap1\n      sstore\n      pop\n      0x01\n      add\n      jump(tag_65)\n    tag_66:\n      pop\n      swap1\n      jump\t// out\n        /* \"#utility.yul\":7:419   */\n    tag_68:\n        /* \"#utility.yul\":85:90   */\n      0x00\n        /* \"#utility.yul\":110:176   */\n      tag_70\n        /* \"#utility.yul\":126:175   */\n      tag_71\n        /* \"#utility.yul\":168:174   */\n      dup5\n        /* \"#utility.yul\":126:175   */\n      tag_72\n      jump\t// in\n    tag_71:\n        /* \"#utility.yul\":110:176   */\n      tag_73\n      jump\t// in\n    tag_70:\n        /* \"#utility.yul\":101:176   */\n      swap1\n      pop\n        /* \"#utility.yul\":199:205   */\n      dup3\n        /* \"#utility.yul\":192:197   */\n      dup2\n        /* \"#utility.yul\":185:206   */\n      mstore\n        /* \"#utility.yul\":237:241   */\n      0x20\n        /* \"#utility.yul\":230:235   */\n      dup2\n        /* \"#utility.yul\":226:242   */\n      add\n        /* \"#utility.yul\":275:278   */\n      dup5\n        /* \"#utility.yul\":266:272   */\n      dup5\n        /* \"#utility.yul\":261:264   */\n      dup5\n        /* \"#utility.yul\":257:273   */\n      add\n        /* \"#utility.yul\":254:279   */\n      gt\n        /* \"#utility.yul\":251:363   */\n      iszero\n      tag_74\n      jumpi\n        /* \"#utility.yul\":282:361   */\n      tag_75\n      tag_76\n      jump\t// in\n    tag_75:\n        /* \"#utility.yul\":251:363   */\n    tag_74:\n        /* \"#utility.yul\":372:413   */\n      tag_77\n        /* \"#utility.yul\":406:412   */\n      dup5\n        /* \"#utility.yul\":401:404   */\n      dup3\n        /* \"#utility.yul\":396:399   */\n      dup6\n        /* \"#utility.yul\":372:413   */\n      tag_78\n      jump\t// in\n    tag_77:\n        /* \"#utility.yul\":91:419   */\n      pop\n        /* \"#utility.yul\":7:419   */\n      swap4\n      swap3\n      pop\n      pop\n      pop\n      jump\t// out\n        /* \"#utility.yul\":425:560   */\n    tag_79:\n        /* \"#utility.yul\":469:474   */\n      0x00\n        /* \"#utility.yul\":507:513   */\n      dup2\n        /* \"#utility.yul\":494:514   */\n      calldataload\n        /* \"#utility.yul\":485:514   */\n      swap1\n      pop\n        /* \"#utility.yul\":523:554   */\n      tag_81\n        /* \"#utility.yul\":548:553   */\n      dup2\n        /* \"#utility.yul\":523:554   */\n      tag_82\n      jump\t// in\n    tag_81:\n        /* \"#utility.yul\":425:560   */\n      swap3\n      swap2\n      pop\n      pop\n      jump\t// out\n        /* \"#utility.yul\":580:920   */\n    tag_83:\n        /* \"#utility.yul\":636:641   */\n      0x00\n        /* \"#utility.yul\":685:688   */\n      dup3\n        /* \"#utility.yul\":678:682   */\n      0x1f\n        /* \"#utility.yul\":670:676   */\n      dup4\n        /* \"#utility.yul\":666:683   */\n      add\n        /* \"#utility.yul\":662:689   */\n      slt\n        /* \"#utility.yul\":652:774   */\n      tag_85\n      jumpi\n        /* \"#utility.yul\":693:772   */\n      tag_86\n      tag_87\n      jump\t// in\n    tag_86:\n        /* \"#utility.yul\":652:774   */\n    tag_85:\n        /* \"#utility.yul\":810:816   */\n      dup2\n        /* \"#utility.yul\":797:817   */\n      calldataload\n        /* \"#utility.yul\":835:914   */\n      tag_88\n        /* \"#utility.yul\":910:913   */\n      dup5\n        /* \"#utility.yul\":902:908   */\n      dup3\n        /* \"#utility.yul\":895:899   */\n      0x20\n        /* \"#utility.yul\":887:893   */\n      dup7\n        /* \"#utility.yul\":883:900   */\n      add\n        /* \"#utility.yul\":835:914   */\n      tag_68\n      jump\t// in\n    tag_88:\n        /* \"#utility.yul\":826:914   */\n      swap2\n      pop\n        /* \"#utility.yul\":642:920   */\n      pop\n        /* \"#utility.yul\":580:920   */\n      swap3\n      swap2\n      pop\n      pop\n      jump\t// out\n        /* \"#utility.yul\":926:1065   */\n    tag_89:\n        /* \"#utility.yul\":972:977   */\n      0x00\n        /* \"#utility.yul\":1010:1016   */\n      dup2\n        /* \"#utility.yul\":997:1017   */\n      calldataload\n        /* \"#utility.yul\":988:1017   */\n      swap1\n      pop\n        /* \"#utility.yul\":1026:1059   */\n      tag_91\n        /* \"#utility.yul\":1053:1058   */\n      dup2\n        /* \"#utility.yul\":1026:1059   */\n      tag_92\n      jump\t// in\n    tag_91:\n        /* \"#utility.yul\":926:1065   */\n      swap3\n      swap2\n      pop\n      pop\n      jump\t// out\n        /* \"#utility.yul\":1071:1721   */\n    tag_13:\n        /* \"#utility.yul\":1147:1153   */\n      0x00\n        /* \"#utility.yul\":1155:1161   */\n      dup1\n        /* \"#utility.yul\":1204:1206   */\n      0x40\n        /* \"#utility.yul\":1192:1201   */\n      dup4\n        /* \"#utility.yul\":1183:1190   */\n      dup6\n        /* \"#utility.yul\":1179:1202   */\n      sub\n        /* \"#utility.yul\":1175:1207   */\n      slt\n        /* \"#utility.yul\":1172:1291   */\n      iszero\n      tag_94\n      jumpi\n        /* \"#utility.yul\":1210:1289   */\n      tag_95\n      tag_96\n      jump\t// in\n    tag_95:\n        /* \"#utility.yul\":1172:1291   */\n    tag_94:\n        /* \"#utility.yul\":1358:1359   */\n      0x00\n        /* \"#utility.yul\":1347:1356   */\n      dup4\n        /* \"#utility.yul\":1343:1360   */\n      add\n        /* \"#utility.yul\":1330:1361   */\n      calldataload\n        /* \"#utility.yul\":1388:1406   */\n      0xffffffffffffffff\n        /* \"#utility.yul\":1380:1386   */\n      dup2\n        /* \"#utility.yul\":1377:1407   */\n      gt\n        /* \"#utility.yul\":1374:1491   */\n      iszero\n      tag_97\n      jumpi\n        /* \"#utility.yul\":1410:1489   */\n      tag_98\n      tag_99\n      jump\t// in\n    tag_98:\n        /* \"#utility.yul\":1374:1491   */\n    tag_97:\n        /* \"#utility.yul\":1515:1578   */\n      tag_100\n        /* \"#utility.yul\":1570:1577   */\n      dup6\n        /* \"#utility.yul\":1561:1567   */\n      dup3\n        /* \"#utility.yul\":1550:1559   */\n      dup7\n        /* \"#utility.yul\":1546:1568   */\n      add\n        /* \"#utility.yul\":1515:1578   */\n      tag_83\n      jump\t// in\n    tag_100:\n        /* \"#utility.yul\":1505:1578   */\n      swap3\n      pop\n        /* \"#utility.yul\":1301:1588   */\n      pop\n        /* \"#utility.yul\":1627:1629   */\n      0x20\n        /* \"#utility.yul\":1653:1704   */\n      tag_101\n        /* \"#utility.yul\":1696:1703   */\n      dup6\n        /* \"#utility.yul\":1687:1693   */\n      dup3\n        /* \"#utility.yul\":1676:1685   */\n      dup7\n        /* \"#utility.yul\":1672:1694   */\n      add\n        /* \"#utility.yul\":1653:1704   */\n      tag_79\n      jump\t// in\n    tag_101:\n        /* \"#utility.yul\":1643:1704   */\n      swap2\n      pop\n        /* \"#utility.yul\":1598:1714   */\n      pop\n        /* \"#utility.yul\":1071:1721   */\n      swap3\n      pop\n      swap3\n      swap1\n      pop\n      jump\t// out\n        /* \"#utility.yul\":1727:2056   */\n    tag_17:\n        /* \"#utility.yul\":1786:1792   */\n      0x00\n        /* \"#utility.yul\":1835:1837   */\n      0x20\n        /* \"#utility.yul\":1823:1832   */\n      dup3\n        /* \"#utility.yul\":1814:1821   */\n      dup5\n        /* \"#utility.yul\":1810:1833   */\n      sub\n        /* \"#utility.yul\":1806:1838   */\n      slt\n        /* \"#utility.yul\":1803:1922   */\n      iszero\n      tag_103\n      jumpi\n        /* \"#utility.yul\":1841:1920   */\n      tag_104\n      tag_96\n      jump\t// in\n    tag_104:\n        /* \"#utility.yul\":1803:1922   */\n    tag_103:\n        /* \"#utility.yul\":1961:1962   */\n      0x00\n        /* \"#utility.yul\":1986:2039   */\n      tag_105\n        /* \"#utility.yul\":2031:2038   */\n      dup5\n        /* \"#utility.yul\":2022:2028   */\n      dup3\n        /* \"#utility.yul\":2011:2020   */\n      dup6\n        /* \"#utility.yul\":2007:2029   */\n      add\n        /* \"#utility.yul\":1986:2039   */\n      tag_89\n      jump\t// in\n    tag_105:\n        /* \"#utility.yul\":1976:2039   */\n      swap2\n      pop\n        /* \"#utility.yul\":1932:2049   */\n      pop\n        /* \"#utility.yul\":1727:2056   */\n      swap3\n      swap2\n      pop\n      pop\n      jump\t// out\n        /* \"#utility.yul\":2062:2326   */\n    tag_106:\n        /* \"#utility.yul\":2185:2195   */\n      0x00\n        /* \"#utility.yul\":2220:2320   */\n      tag_108\n        /* \"#utility.yul\":2316:2319   */\n      dup4\n        /* \"#utility.yul\":2308:2314   */\n      dup4\n        /* \"#utility.yul\":2220:2320   */\n      tag_109\n      jump\t// in\n    tag_108:\n        /* \"#utility.yul\":2206:2320   */\n      swap1\n      pop\n        /* \"#utility.yul\":2062:2326   */\n      swap3\n      swap2\n      pop\n      pop\n      jump\t// out\n        /* \"#utility.yul\":2408:3535   */\n    tag_110:\n        /* \"#utility.yul\":2581:2584   */\n      0x00\n        /* \"#utility.yul\":2610:2691   */\n      tag_112\n        /* \"#utility.yul\":2685:2690   */\n      dup3\n        /* \"#utility.yul\":2610:2691   */\n      tag_113\n      jump\t// in\n    tag_112:\n        /* \"#utility.yul\":2707:2820   */\n      tag_114\n        /* \"#utility.yul\":2813:2819   */\n      dup2\n        /* \"#utility.yul\":2808:2811   */\n      dup6\n        /* \"#utility.yul\":2707:2820   */\n      tag_115\n      jump\t// in\n    tag_114:\n        /* \"#utility.yul\":2700:2820   */\n      swap4\n      pop\n        /* \"#utility.yul\":2846:2849   */\n      dup4\n        /* \"#utility.yul\":2891:2895   */\n      0x20\n        /* \"#utility.yul\":2883:2889   */\n      dup3\n        /* \"#utility.yul\":2879:2896   */\n      mul\n        /* \"#utility.yul\":2874:2877   */\n      dup6\n        /* \"#utility.yul\":2870:2897   */\n      add\n        /* \"#utility.yul\":2921:3004   */\n      tag_116\n        /* \"#utility.yul\":2998:3003   */\n      dup6\n        /* \"#utility.yul\":2921:3004   */\n      tag_117\n      jump\t// in\n    tag_116:\n        /* \"#utility.yul\":3027:3034   */\n      dup1\n        /* \"#utility.yul\":3058:3059   */\n      0x00\n        /* \"#utility.yul\":3043:3490   */\n    tag_118:\n        /* \"#utility.yul\":3068:3074   */\n      dup6\n        /* \"#utility.yul\":3065:3066   */\n      dup2\n        /* \"#utility.yul\":3062:3075   */\n      lt\n        /* \"#utility.yul\":3043:3490   */\n      iszero\n      tag_120\n      jumpi\n        /* \"#utility.yul\":3139:3148   */\n      dup5\n        /* \"#utility.yul\":3133:3137   */\n      dup5\n        /* \"#utility.yul\":3129:3149   */\n      sub\n        /* \"#utility.yul\":3124:3127   */\n      dup10\n        /* \"#utility.yul\":3117:3150   */\n      mstore\n        /* \"#utility.yul\":3190:3196   */\n      dup2\n        /* \"#utility.yul\":3184:3197   */\n      mload\n        /* \"#utility.yul\":3218:3336   */\n      tag_121\n        /* \"#utility.yul\":3331:3335   */\n      dup6\n        /* \"#utility.yul\":3316:3329   */\n      dup3\n        /* \"#utility.yul\":3218:3336   */\n      tag_106\n      jump\t// in\n    tag_121:\n        /* \"#utility.yul\":3210:3336   */\n      swap5\n      pop\n        /* \"#utility.yul\":3359:3446   */\n      tag_122\n        /* \"#utility.yul\":3439:3445   */\n      dup4\n        /* \"#utility.yul\":3359:3446   */\n      tag_123\n      jump\t// in\n    tag_122:\n        /* \"#utility.yul\":3349:3446   */\n      swap3\n      pop\n        /* \"#utility.yul\":3475:3479   */\n      0x20\n        /* \"#utility.yul\":3470:3473   */\n      dup11\n        /* \"#utility.yul\":3466:3480   */\n      add\n        /* \"#utility.yul\":3459:3480   */\n      swap10\n      pop\n        /* \"#utility.yul\":3103:3490   */\n      pop\n        /* \"#utility.yul\":3090:3091   */\n      0x01\n        /* \"#utility.yul\":3087:3088   */\n      dup2\n        /* \"#utility.yul\":3083:3092   */\n      add\n        /* \"#utility.yul\":3078:3092   */\n      swap1\n      pop\n        /* \"#utility.yul\":3043:3490   */\n      jump(tag_118)\n    tag_120:\n        /* \"#utility.yul\":3047:3061   */\n      pop\n        /* \"#utility.yul\":3506:3510   */\n      dup3\n        /* \"#utility.yul\":3499:3510   */\n      swap8\n      pop\n        /* \"#utility.yul\":3526:3529   */\n      dup8\n        /* \"#utility.yul\":3519:3529   */\n      swap6\n      pop\n        /* \"#utility.yul\":2586:3535   */\n      pop\n      pop\n      pop\n      pop\n      pop\n        /* \"#utility.yul\":2408:3535   */\n      swap3\n      swap2\n      pop\n      pop\n      jump\t// out\n        /* \"#utility.yul\":3541:3643   */\n    tag_124:\n        /* \"#utility.yul\":3614:3636   */\n      tag_126\n        /* \"#utility.yul\":3630:3635   */\n      dup2\n        /* \"#utility.yul\":3614:3636   */\n      tag_127\n      jump\t// in\n    tag_126:\n        /* \"#utility.yul\":3609:3612   */\n      dup3\n        /* \"#utility.yul\":3602:3637   */\n      mstore\n        /* \"#utility.yul\":3541:3643   */\n      pop\n      pop\n      jump\t// out\n        /* \"#utility.yul\":3649:3761   */\n    tag_128:\n        /* \"#utility.yul\":3732:3754   */\n      tag_130\n        /* \"#utility.yul\":3748:3753   */\n      dup2\n        /* \"#utility.yul\":3732:3754   */\n      tag_127\n      jump\t// in\n    tag_130:\n        /* \"#utility.yul\":3727:3730   */\n      dup3\n        /* \"#utility.yul\":3720:3755   */\n      mstore\n        /* \"#utility.yul\":3649:3761   */\n      pop\n      pop\n      jump\t// out\n        /* \"#utility.yul\":3767:4111   */\n    tag_131:\n        /* \"#utility.yul\":3845:3848   */\n      0x00\n        /* \"#utility.yul\":3873:3912   */\n      tag_133\n        /* \"#utility.yul\":3906:3911   */\n      dup3\n        /* \"#utility.yul\":3873:3912   */\n      tag_134\n      jump\t// in\n    tag_133:\n        /* \"#utility.yul\":3928:3989   */\n      tag_135\n        /* \"#utility.yul\":3982:3988   */\n      dup2\n        /* \"#utility.yul\":3977:3980   */\n      dup6\n        /* \"#utility.yul\":3928:3989   */\n      tag_136\n      jump\t// in\n    tag_135:\n        /* \"#utility.yul\":3921:3989   */\n      swap4\n      pop\n        /* \"#utility.yul\":3998:4050   */\n      tag_137\n        /* \"#utility.yul\":4043:4049   */\n      dup2\n        /* \"#utility.yul\":4038:4041   */\n      dup6\n        /* \"#utility.yul\":4031:4035   */\n      0x20\n        /* \"#utility.yul\":4024:4029   */\n      dup7\n        /* \"#utility.yul\":4020:4036   */\n      add\n        /* \"#utility.yul\":3998:4050   */\n      tag_138\n      jump\t// in\n    tag_137:\n        /* \"#utility.yul\":4075:4104   */\n      tag_139\n        /* \"#utility.yul\":4097:4103   */\n      dup2\n        /* \"#utility.yul\":4075:4104   */\n      tag_140\n      jump\t// in\n    tag_139:\n        /* \"#utility.yul\":4070:4073   */\n      dup5\n        /* \"#utility.yul\":4066:4105   */\n      add\n        /* \"#utility.yul\":4059:4105   */\n      swap2\n      pop\n        /* \"#utility.yul\":3849:4111   */\n      pop\n        /* \"#utility.yul\":3767:4111   */\n      swap3\n      swap2\n      pop\n      pop\n      jump\t// out\n        /* \"#utility.yul\":4117:4481   */\n    tag_141:\n        /* \"#utility.yul\":4205:4208   */\n      0x00\n        /* \"#utility.yul\":4233:4272   */\n      tag_143\n        /* \"#utility.yul\":4266:4271   */\n      dup3\n        /* \"#utility.yul\":4233:4272   */\n      tag_134\n      jump\t// in\n    tag_143:\n        /* \"#utility.yul\":4288:4359   */\n      tag_144\n        /* \"#utility.yul\":4352:4358   */\n      dup2\n        /* \"#utility.yul\":4347:4350   */\n      dup6\n        /* \"#utility.yul\":4288:4359   */\n      tag_145\n      jump\t// in\n    tag_144:\n        /* \"#utility.yul\":4281:4359   */\n      swap4\n      pop\n        /* \"#utility.yul\":4368:4420   */\n      tag_146\n        /* \"#utility.yul\":4413:4419   */\n      dup2\n        /* \"#utility.yul\":4408:4411   */\n      dup6\n        /* \"#utility.yul\":4401:4405   */\n      0x20\n        /* \"#utility.yul\":4394:4399   */\n      dup7\n        /* \"#utility.yul\":4390:4406   */\n      add\n        /* \"#utility.yul\":4368:4420   */\n      tag_138\n      jump\t// in\n    tag_146:\n        /* \"#utility.yul\":4445:4474   */\n      tag_147\n        /* \"#utility.yul\":4467:4473   */\n      dup2\n        /* \"#utility.yul\":4445:4474   */\n      tag_140\n      jump\t// in\n    tag_147:\n        /* \"#utility.yul\":4440:4443   */\n      dup5\n        /* \"#utility.yul\":4436:4475   */\n      add\n        /* \"#utility.yul\":4429:4475   */\n      swap2\n      pop\n        /* \"#utility.yul\":4209:4481   */\n      pop\n        /* \"#utility.yul\":4117:4481   */\n      swap3\n      swap2\n      pop\n      pop\n      jump\t// out\n        /* \"#utility.yul\":4487:4864   */\n    tag_148:\n        /* \"#utility.yul\":4593:4596   */\n      0x00\n        /* \"#utility.yul\":4621:4660   */\n      tag_150\n        /* \"#utility.yul\":4654:4659   */\n      dup3\n        /* \"#utility.yul\":4621:4660   */\n      tag_134\n      jump\t// in\n    tag_150:\n        /* \"#utility.yul\":4676:4765   */\n      tag_151\n        /* \"#utility.yul\":4758:4764   */\n      dup2\n        /* \"#utility.yul\":4753:4756   */\n      dup6\n        /* \"#utility.yul\":4676:4765   */\n      tag_152\n      jump\t// in\n    tag_151:\n        /* \"#utility.yul\":4669:4765   */\n      swap4\n      pop\n        /* \"#utility.yul\":4774:4826   */\n      tag_153\n        /* \"#utility.yul\":4819:4825   */\n      dup2\n        /* \"#utility.yul\":4814:4817   */\n      dup6\n        /* \"#utility.yul\":4807:4811   */\n      0x20\n        /* \"#utility.yul\":4800:4805   */\n      dup7\n        /* \"#utility.yul\":4796:4812   */\n      add\n        /* \"#utility.yul\":4774:4826   */\n      tag_138\n      jump\t// in\n    tag_153:\n        /* \"#utility.yul\":4851:4857   */\n      dup1\n        /* \"#utility.yul\":4846:4849   */\n      dup5\n        /* \"#utility.yul\":4842:4858   */\n      add\n        /* \"#utility.yul\":4835:4858   */\n      swap2\n      pop\n        /* \"#utility.yul\":4597:4864   */\n      pop\n        /* \"#utility.yul\":4487:4864   */\n      swap3\n      swap2\n      pop\n      pop\n      jump\t// out\n        /* \"#utility.yul\":4942:5714   */\n    tag_109:\n        /* \"#utility.yul\":5055:5058   */\n      0x00\n        /* \"#utility.yul\":5091:5095   */\n      0x60\n        /* \"#utility.yul\":5086:5089   */\n      dup4\n        /* \"#utility.yul\":5082:5096   */\n      add\n        /* \"#utility.yul\":5176:5180   */\n      0x00\n        /* \"#utility.yul\":5169:5174   */\n      dup4\n        /* \"#utility.yul\":5165:5181   */\n      add\n        /* \"#utility.yul\":5159:5182   */\n      mload\n        /* \"#utility.yul\":5195:5258   */\n      tag_155\n        /* \"#utility.yul\":5252:5256   */\n      0x00\n        /* \"#utility.yul\":5247:5250   */\n      dup7\n        /* \"#utility.yul\":5243:5257   */\n      add\n        /* \"#utility.yul\":5229:5241   */\n      dup3\n        /* \"#utility.yul\":5195:5258   */\n      tag_156\n      jump\t// in\n    tag_155:\n        /* \"#utility.yul\":5106:5268   */\n      pop\n        /* \"#utility.yul\":5353:5357   */\n      0x20\n        /* \"#utility.yul\":5346:5351   */\n      dup4\n        /* \"#utility.yul\":5342:5358   */\n      add\n        /* \"#utility.yul\":5336:5359   */\n      mload\n        /* \"#utility.yul\":5406:5409   */\n      dup5\n        /* \"#utility.yul\":5400:5404   */\n      dup3\n        /* \"#utility.yul\":5396:5410   */\n      sub\n        /* \"#utility.yul\":5389:5393   */\n      0x20\n        /* \"#utility.yul\":5384:5387   */\n      dup7\n        /* \"#utility.yul\":5380:5394   */\n      add\n        /* \"#utility.yul\":5373:5411   */\n      mstore\n        /* \"#utility.yul\":5432:5505   */\n      tag_157\n        /* \"#utility.yul\":5500:5504   */\n      dup3\n        /* \"#utility.yul\":5486:5498   */\n      dup3\n        /* \"#utility.yul\":5432:5505   */\n      tag_131\n      jump\t// in\n    tag_157:\n        /* \"#utility.yul\":5424:5505   */\n      swap2\n      pop\n        /* \"#utility.yul\":5278:5516   */\n      pop\n        /* \"#utility.yul\":5599:5603   */\n      0x40\n        /* \"#utility.yul\":5592:5597   */\n      dup4\n        /* \"#utility.yul\":5588:5604   */\n      add\n        /* \"#utility.yul\":5582:5605   */\n      mload\n        /* \"#utility.yul\":5618:5677   */\n      tag_158\n        /* \"#utility.yul\":5671:5675   */\n      0x40\n        /* \"#utility.yul\":5666:5669   */\n      dup7\n        /* \"#utility.yul\":5662:5676   */\n      add\n        /* \"#utility.yul\":5648:5660   */\n      dup3\n        /* \"#utility.yul\":5618:5677   */\n      tag_124\n      jump\t// in\n    tag_158:\n        /* \"#utility.yul\":5526:5687   */\n      pop\n        /* \"#utility.yul\":5704:5708   */\n      dup1\n        /* \"#utility.yul\":5697:5708   */\n      swap2\n      pop\n        /* \"#utility.yul\":5060:5714   */\n      pop\n        /* \"#utility.yul\":4942:5714   */\n      swap3\n      swap2\n      pop\n      pop\n      jump\t// out\n        /* \"#utility.yul\":5720:5828   */\n    tag_156:\n        /* \"#utility.yul\":5797:5821   */\n      tag_160\n        /* \"#utility.yul\":5815:5820   */\n      dup2\n        /* \"#utility.yul\":5797:5821   */\n      tag_161\n      jump\t// in\n    tag_160:\n        /* \"#utility.yul\":5792:5795   */\n      dup3\n        /* \"#utility.yul\":5785:5822   */\n      mstore\n        /* \"#utility.yul\":5720:5828   */\n      pop\n      pop\n      jump\t// out\n        /* \"#utility.yul\":5834:6109   */\n    tag_43:\n        /* \"#utility.yul\":5966:5969   */\n      0x00\n        /* \"#utility.yul\":5988:6083   */\n      tag_163\n        /* \"#utility.yul\":6079:6082   */\n      dup3\n        /* \"#utility.yul\":6070:6076   */\n      dup5\n        /* \"#utility.yul\":5988:6083   */\n      tag_148\n      jump\t// in\n    tag_163:\n        /* \"#utility.yul\":5981:6083   */\n      swap2\n      pop\n        /* \"#utility.yul\":6100:6103   */\n      dup2\n        /* \"#utility.yul\":6093:6103   */\n      swap1\n      pop\n        /* \"#utility.yul\":5834:6109   */\n      swap3\n      swap2\n      pop\n      pop\n      jump\t// out\n        /* \"#utility.yul\":6115:6596   */\n    tag_10:\n        /* \"#utility.yul\":6312:6316   */\n      0x00\n        /* \"#utility.yul\":6350:6352   */\n      0x20\n        /* \"#utility.yul\":6339:6348   */\n      dup3\n        /* \"#utility.yul\":6335:6353   */\n      add\n        /* \"#utility.yul\":6327:6353   */\n      swap1\n      pop\n        /* \"#utility.yul\":6399:6408   */\n      dup2\n        /* \"#utility.yul\":6393:6397   */\n      dup2\n        /* \"#utility.yul\":6389:6409   */\n      sub\n        /* \"#utility.yul\":6385:6386   */\n      0x00\n        /* \"#utility.yul\":6374:6383   */\n      dup4\n        /* \"#utility.yul\":6370:6387   */\n      add\n        /* \"#utility.yul\":6363:6410   */\n      mstore\n        /* \"#utility.yul\":6427:6589   */\n      tag_165\n        /* \"#utility.yul\":6584:6588   */\n      dup2\n        /* \"#utility.yul\":6575:6581   */\n      dup5\n        /* \"#utility.yul\":6427:6589   */\n      tag_110\n      jump\t// in\n    tag_165:\n        /* \"#utility.yul\":6419:6589   */\n      swap1\n      pop\n        /* \"#utility.yul\":6115:6596   */\n      swap3\n      swap2\n      pop\n      pop\n      jump\t// out\n        /* \"#utility.yul\":6602:7017   */\n    tag_20:\n        /* \"#utility.yul\":6739:6743   */\n      0x00\n        /* \"#utility.yul\":6777:6779   */\n      0x40\n        /* \"#utility.yul\":6766:6775   */\n      dup3\n        /* \"#utility.yul\":6762:6780   */\n      add\n        /* \"#utility.yul\":6754:6780   */\n      swap1\n      pop\n        /* \"#utility.yul\":6826:6835   */\n      dup2\n        /* \"#utility.yul\":6820:6824   */\n      dup2\n        /* \"#utility.yul\":6816:6836   */\n      sub\n        /* \"#utility.yul\":6812:6813   */\n      0x00\n        /* \"#utility.yul\":6801:6810   */\n      dup4\n        /* \"#utility.yul\":6797:6814   */\n      add\n        /* \"#utility.yul\":6790:6837   */\n      mstore\n        /* \"#utility.yul\":6854:6932   */\n      tag_167\n        /* \"#utility.yul\":6927:6931   */\n      dup2\n        /* \"#utility.yul\":6918:6924   */\n      dup6\n        /* \"#utility.yul\":6854:6932   */\n      tag_141\n      jump\t// in\n    tag_167:\n        /* \"#utility.yul\":6846:6932   */\n      swap1\n      pop\n        /* \"#utility.yul\":6942:7010   */\n      tag_168\n        /* \"#utility.yul\":7006:7008   */\n      0x20\n        /* \"#utility.yul\":6995:7004   */\n      dup4\n        /* \"#utility.yul\":6991:7009   */\n      add\n        /* \"#utility.yul\":6982:6988   */\n      dup5\n        /* \"#utility.yul\":6942:7010   */\n      tag_128\n      jump\t// in\n    tag_168:\n        /* \"#utility.yul\":6602:7017   */\n      swap4\n      swap3\n      pop\n      pop\n      pop\n      jump\t// out\n        /* \"#utility.yul\":7023:7152   */\n    tag_73:\n        /* \"#utility.yul\":7057:7063   */\n      0x00\n        /* \"#utility.yul\":7084:7104   */\n      tag_170\n      tag_171\n      jump\t// in\n    tag_170:\n        /* \"#utility.yul\":7074:7104   */\n      swap1\n      pop\n        /* \"#utility.yul\":7113:7146   */\n      tag_172\n        /* \"#utility.yul\":7141:7145   */\n      dup3\n        /* \"#utility.yul\":7133:7139   */\n      dup3\n        /* \"#utility.yul\":7113:7146   */\n      tag_173\n      jump\t// in\n    tag_172:\n        /* \"#utility.yul\":7023:7152   */\n      swap2\n      swap1\n      pop\n      jump\t// out\n        /* \"#utility.yul\":7158:7233   */\n    tag_171:\n        /* \"#utility.yul\":7191:7197   */\n      0x00\n        /* \"#utility.yul\":7224:7226   */\n      0x40\n        /* \"#utility.yul\":7218:7227   */\n      mload\n        /* \"#utility.yul\":7208:7227   */\n      swap1\n      pop\n        /* \"#utility.yul\":7158:7233   */\n      swap1\n      jump\t// out\n        /* \"#utility.yul\":7239:7547   */\n    tag_72:\n        /* \"#utility.yul\":7301:7305   */\n      0x00\n        /* \"#utility.yul\":7391:7409   */\n      0xffffffffffffffff\n        /* \"#utility.yul\":7383:7389   */\n      dup3\n        /* \"#utility.yul\":7380:7410   */\n      gt\n        /* \"#utility.yul\":7377:7433   */\n      iszero\n      tag_176\n      jumpi\n        /* \"#utility.yul\":7413:7431   */\n      tag_177\n      tag_178\n      jump\t// in\n    tag_177:\n        /* \"#utility.yul\":7377:7433   */\n    tag_176:\n        /* \"#utility.yul\":7451:7480   */\n      tag_179\n        /* \"#utility.yul\":7473:7479   */\n      dup3\n        /* \"#utility.yul\":7451:7480   */\n      tag_140\n      jump\t// in\n    tag_179:\n        /* \"#utility.yul\":7443:7480   */\n      swap1\n      pop\n        /* \"#utility.yul\":7535:7539   */\n      0x20\n        /* \"#utility.yul\":7529:7533   */\n      dup2\n        /* \"#utility.yul\":7525:7540   */\n      add\n        /* \"#utility.yul\":7517:7540   */\n      swap1\n      pop\n        /* \"#utility.yul\":7239:7547   */\n      swap2\n      swap1\n      pop\n      jump\t// out\n        /* \"#utility.yul\":7553:7712   */\n    tag_117:\n        /* \"#utility.yul\":7647:7651   */\n      0x00\n        /* \"#utility.yul\":7670:7673   */\n      dup2\n        /* \"#utility.yul\":7662:7673   */\n      swap1\n      pop\n        /* \"#utility.yul\":7700:7704   */\n      0x20\n        /* \"#utility.yul\":7695:7698   */\n      dup3\n        /* \"#utility.yul\":7691:7705   */\n      add\n        /* \"#utility.yul\":7683:7705   */\n      swap1\n      pop\n        /* \"#utility.yul\":7553:7712   */\n      swap2\n      swap1\n      pop\n      jump\t// out\n        /* \"#utility.yul\":7718:7859   */\n    tag_113:\n        /* \"#utility.yul\":7812:7818   */\n      0x00\n        /* \"#utility.yul\":7846:7851   */\n      dup2\n        /* \"#utility.yul\":7840:7852   */\n      mload\n        /* \"#utility.yul\":7830:7852   */\n      swap1\n      pop\n        /* \"#utility.yul\":7718:7859   */\n      swap2\n      swap1\n      pop\n      jump\t// out\n        /* \"#utility.yul\":7865:7964   */\n    tag_134:\n        /* \"#utility.yul\":7917:7923   */\n      0x00\n        /* \"#utility.yul\":7951:7956   */\n      dup2\n        /* \"#utility.yul\":7945:7957   */\n      mload\n        /* \"#utility.yul\":7935:7957   */\n      swap1\n      pop\n        /* \"#utility.yul\":7865:7964   */\n      swap2\n      swap1\n      pop\n      jump\t// out\n        /* \"#utility.yul\":7970:8110   */\n    tag_123:\n        /* \"#utility.yul\":8067:8071   */\n      0x00\n        /* \"#utility.yul\":8099:8103   */\n      0x20\n        /* \"#utility.yul\":8094:8097   */\n      dup3\n        /* \"#utility.yul\":8090:8104   */\n      add\n        /* \"#utility.yul\":8082:8104   */\n      swap1\n      pop\n        /* \"#utility.yul\":7970:8110   */\n      swap2\n      swap1\n      pop\n      jump\t// out\n        /* \"#utility.yul\":8116:8327   */\n    tag_115:\n        /* \"#utility.yul\":8242:8253   */\n      0x00\n        /* \"#utility.yul\":8276:8282   */\n      dup3\n        /* \"#utility.yul\":8271:8274   */\n      dup3\n        /* \"#utility.yul\":8264:8283   */\n      mstore\n        /* \"#utility.yul\":8316:8320   */\n      0x20\n        /* \"#utility.yul\":8311:8314   */\n      dup3\n        /* \"#utility.yul\":8307:8321   */\n      add\n        /* \"#utility.yul\":8292:8321   */\n      swap1\n      pop\n        /* \"#utility.yul\":8116:8327   */\n      swap3\n      swap2\n      pop\n      pop\n      jump\t// out\n        /* \"#utility.yul\":8333:8492   */\n    tag_136:\n        /* \"#utility.yul\":8407:8418   */\n      0x00\n        /* \"#utility.yul\":8441:8447   */\n      dup3\n        /* \"#utility.yul\":8436:8439   */\n      dup3\n        /* \"#utility.yul\":8429:8448   */\n      mstore\n        /* \"#utility.yul\":8481:8485   */\n      0x20\n        /* \"#utility.yul\":8476:8479   */\n      dup3\n        /* \"#utility.yul\":8472:8486   */\n      add\n        /* \"#utility.yul\":8457:8486   */\n      swap1\n      pop\n        /* \"#utility.yul\":8333:8492   */\n      swap3\n      swap2\n      pop\n      pop\n      jump\t// out\n        /* \"#utility.yul\":8498:8667   */\n    tag_145:\n        /* \"#utility.yul\":8582:8593   */\n      0x00\n        /* \"#utility.yul\":8616:8622   */\n      dup3\n        /* \"#utility.yul\":8611:8614   */\n      dup3\n        /* \"#utility.yul\":8604:8623   */\n      mstore\n        /* \"#utility.yul\":8656:8660   */\n      0x20\n        /* \"#utility.yul\":8651:8654   */\n      dup3\n        /* \"#utility.yul\":8647:8661   */\n      add\n        /* \"#utility.yul\":8632:8661   */\n      swap1\n      pop\n        /* \"#utility.yul\":8498:8667   */\n      swap3\n      swap2\n      pop\n      pop\n      jump\t// out\n        /* \"#utility.yul\":8673:8821   */\n    tag_152:\n        /* \"#utility.yul\":8775:8786   */\n      0x00\n        /* \"#utility.yul\":8812:8815   */\n      dup2\n        /* \"#utility.yul\":8797:8815   */\n      swap1\n      pop\n        /* \"#utility.yul\":8673:8821   */\n      swap3\n      swap2\n      pop\n      pop\n      jump\t// out\n        /* \"#utility.yul\":8827:9132   */\n    tag_37:\n        /* \"#utility.yul\":8867:8870   */\n      0x00\n        /* \"#utility.yul\":8886:8906   */\n      tag_189\n        /* \"#utility.yul\":8904:8905   */\n      dup3\n        /* \"#utility.yul\":8886:8906   */\n      tag_161\n      jump\t// in\n    tag_189:\n        /* \"#utility.yul\":8881:8906   */\n      swap2\n      pop\n        /* \"#utility.yul\":8920:8940   */\n      tag_190\n        /* \"#utility.yul\":8938:8939   */\n      dup4\n        /* \"#utility.yul\":8920:8940   */\n      tag_161\n      jump\t// in\n    tag_190:\n        /* \"#utility.yul\":8915:8940   */\n      swap3\n      pop\n        /* \"#utility.yul\":9074:9075   */\n      dup3\n        /* \"#utility.yul\":9006:9072   */\n      0xffffffffffffffffffffffffffffffffffffffffffffffffffffffffffffffff\n        /* \"#utility.yul\":9002:9076   */\n      sub\n        /* \"#utility.yul\":8999:9000   */\n      dup3\n        /* \"#utility.yul\":8996:9077   */\n      gt\n        /* \"#utility.yul\":8993:9100   */\n      iszero\n      tag_191\n      jumpi\n        /* \"#utility.yul\":9080:9098   */\n      tag_192\n      tag_193\n      jump\t// in\n    tag_192:\n        /* \"#utility.yul\":8993:9100   */\n    tag_191:\n        /* \"#utility.yul\":9124:9125   */\n      dup3\n        /* \"#utility.yul\":9121:9122   */\n      dup3\n        /* \"#utility.yul\":9117:9126   */\n      add\n        /* \"#utility.yul\":9110:9126   */\n      swap1\n      pop\n        /* \"#utility.yul\":8827:9132   */\n      swap3\n      swap2\n      pop\n      pop\n      jump\t// out\n        /* \"#utility.yul\":9138:9228   */\n    tag_127:\n        /* \"#utility.yul\":9173:9180   */\n      0x00\n        /* \"#utility.yul\":9216:9221   */\n      dup2\n        /* \"#utility.yul\":9213:9214   */\n      0x01\n        /* \"#utility.yul\":9202:9222   */\n      signextend\n        /* \"#utility.yul\":9191:9222   */\n      swap1\n      pop\n        /* \"#utility.yul\":9138:9228   */\n      swap2\n      swap1\n      pop\n      jump\t// out\n        /* \"#utility.yul\":9234:9311   */\n    tag_161:\n        /* \"#utility.yul\":9271:9278   */\n      0x00\n        /* \"#utility.yul\":9300:9305   */\n      dup2\n        /* \"#utility.yul\":9289:9305   */\n      swap1\n      pop\n        /* \"#utility.yul\":9234:9311   */\n      swap2\n      swap1\n      pop\n      jump\t// out\n        /* \"#utility.yul\":9317:9471   */\n    tag_78:\n        /* \"#utility.yul\":9401:9407   */\n      dup3\n        /* \"#utility.yul\":9396:9399   */\n      dup2\n        /* \"#utility.yul\":9391:9394   */\n      dup4\n        /* \"#utility.yul\":9378:9408   */\n      calldatacopy\n        /* \"#utility.yul\":9463:9464   */\n      0x00\n        /* \"#utility.yul\":9454:9460   */\n      dup4\n        /* \"#utility.yul\":9449:9452   */\n      dup4\n        /* \"#utility.yul\":9445:9461   */\n      add\n        /* \"#utility.yul\":9438:9465   */\n      mstore\n        /* \"#utility.yul\":9317:9471   */\n      pop\n      pop\n      pop\n      jump\t// out\n        /* \"#utility.yul\":9477:9784   */\n    tag_138:\n        /* \"#utility.yul\":9545:9546   */\n      0x00\n        /* \"#utility.yul\":9555:9668   */\n    tag_198:\n        /* \"#utility.yul\":9569:9575   */\n      dup4\n        /* \"#utility.yul\":9566:9567   */\n      dup2\n        /* \"#utility.yul\":9563:9576   */\n      lt\n        /* \"#utility.yul\":9555:9668   */\n      iszero\n      tag_200\n      jumpi\n        /* \"#utility.yul\":9654:9655   */\n      dup1\n        /* \"#utility.yul\":9649:9652   */\n      dup3\n        /* \"#utility.yul\":9645:9656   */\n      add\n        /* \"#utility.yul\":9639:9657   */\n      mload\n        /* \"#utility.yul\":9635:9636   */\n      dup2\n        /* \"#utility.yul\":9630:9633   */\n      dup5\n        /* \"#utility.yul\":9626:9637   */\n      add\n        /* \"#utility.yul\":9619:9658   */\n      mstore\n        /* \"#utility.yul\":9591:9593   */\n      0x20\n        /* \"#utility.yul\":9588:9589   */\n      dup2\n        /* \"#utility.yul\":9584:9594   */\n      add\n        /* \"#utility.yul\":9579:9594   */\n      swap1\n      pop\n        /* \"#utility.yul\":9555:9668   */\n      jump(tag_198)\n    tag_200:\n        /* \"#utility.yul\":9686:9692   */\n      dup4\n        /* \"#utility.yul\":9683:9684   */\n      dup2\n        /* \"#utility.yul\":9680:9693   */\n      gt\n        /* \"#utility.yul\":9677:9778   */\n      iszero\n      tag_201\n      jumpi\n        /* \"#utility.yul\":9766:9767   */\n      0x00\n        /* \"#utility.yul\":9757:9763   */\n      dup5\n        /* \"#utility.yul\":9752:9755   */\n      dup5\n        /* \"#utility.yul\":9748:9764   */\n      add\n        /* \"#utility.yul\":9741:9768   */\n      mstore\n        /* \"#utility.yul\":9677:9778   */\n    tag_201:\n        /* \"#utility.yul\":9526:9784   */\n      pop\n        /* \"#utility.yul\":9477:9784   */\n      pop\n      pop\n      pop\n      jump\t// out\n        /* \"#utility.yul\":9790:10110   */\n    tag_30:\n        /* \"#utility.yul\":9834:9840   */\n      0x00\n        /* \"#utility.yul\":9871:9872   */\n      0x02\n        /* \"#utility.yul\":9865:9869   */\n      dup3\n        /* \"#utility.yul\":9861:9873   */\n      div\n        /* \"#utility.yul\":9851:9873   */\n      swap1\n      pop\n        /* \"#utility.yul\":9918:9919   */\n      0x01\n        /* \"#utility.yul\":9912:9916   */\n      dup3\n        /* \"#utility.yul\":9908:9920   */\n      and\n        /* \"#utility.yul\":9939:9957   */\n      dup1\n        /* \"#utility.yul\":9929:10010   */\n      tag_203\n      jumpi\n        /* \"#utility.yul\":9995:9999   */\n      0x7f\n        /* \"#utility.yul\":9987:9993   */\n      dup3\n        /* \"#utility.yul\":9983:10000   */\n      and\n        /* \"#utility.yul\":9973:10000   */\n      swap2\n      pop\n        /* \"#utility.yul\":9929:10010   */\n    tag_203:\n        /* \"#utility.yul\":10057:10059   */\n      0x20\n        /* \"#utility.yul\":10049:10055   */\n      dup3\n        /* \"#utility.yul\":10046:10060   */\n      lt\n        /* \"#utility.yul\":10026:10044   */\n      dup2\n        /* \"#utility.yul\":10023:10061   */\n      eq\n        /* \"#utility.yul\":10020:10104   */\n      iszero\n      tag_204\n      jumpi\n        /* \"#utility.yul\":10076:10094   */\n      tag_205\n      tag_206\n      jump\t// in\n    tag_205:\n        /* \"#utility.yul\":10020:10104   */\n    tag_204:\n        /* \"#utility.yul\":9841:10110   */\n      pop\n        /* \"#utility.yul\":9790:10110   */\n      swap2\n      swap1\n      pop\n      jump\t// out\n        /* \"#utility.yul\":10116:10397   */\n    tag_173:\n        /* \"#utility.yul\":10199:10226   */\n      tag_208\n        /* \"#utility.yul\":10221:10225   */\n      dup3\n        /* \"#utility.yul\":10199:10226   */\n      tag_140\n      jump\t// in\n    tag_208:\n        /* \"#utility.yul\":10191:10197   */\n      dup2\n        /* \"#utility.yul\":10187:10227   */\n      add\n        /* \"#utility.yul\":10329:10335   */\n      dup2\n        /* \"#utility.yul\":10317:10327   */\n      dup2\n        /* \"#utility.yul\":10314:10336   */\n      lt\n        /* \"#utility.yul\":10293:10311   */\n      0xffffffffffffffff\n        /* \"#utility.yul\":10281:10291   */\n      dup3\n        /* \"#utility.yul\":10278:10312   */\n      gt\n        /* \"#utility.yul\":10275:10337   */\n      or\n        /* \"#utility.yul\":10272:10360   */\n      iszero\n      tag_209\n      jumpi\n        /* \"#utility.yul\":10340:10358   */\n      tag_210\n      tag_178\n      jump\t// in\n    tag_210:\n        /* \"#utility.yul\":10272:10360   */\n    tag_209:\n        /* \"#utility.yul\":10380:10390   */\n      dup1\n        /* \"#utility.yul\":10376:10378   */\n      0x40\n        /* \"#utility.yul\":10369:10391   */\n      mstore\n        /* \"#utility.yul\":10159:10397   */\n      pop\n        /* \"#utility.yul\":10116:10397   */\n      pop\n      pop\n      jump\t// out\n        /* \"#utility.yul\":10403:10583   */\n    tag_193:\n        /* \"#utility.yul\":10451:10528   */\n      0x4e487b7100000000000000000000000000000000000000000000000000000000\n        /* \"#utility.yul\":10448:10449   */\n      0x00\n        /* \"#utility.yul\":10441:10529   */\n      mstore\n        /* \"#utility.yul\":10548:10552   */\n      0x11\n        /* \"#utility.yul\":10545:10546   */\n      0x04\n        /* \"#utility.yul\":10538:10553   */\n      mstore\n        /* \"#utility.yul\":10572:10576   */\n      0x24\n        /* \"#utility.yul\":10569:10570   */\n      0x00\n        /* \"#utility.yul\":10562:10577   */\n      revert\n        /* \"#utility.yul\":10589:10769   */\n    tag_206:\n        /* \"#utility.yul\":10637:10714   */\n      0x4e487b7100000000000000000000000000000000000000000000000000000000\n        /* \"#utility.yul\":10634:10635   */\n      0x00\n        /* \"#utility.yul\":10627:10715   */\n      mstore\n        /* \"#utility.yul\":10734:10738   */\n      0x22\n        /* \"#utility.yul\":10731:10732   */\n      0x04\n        /* \"#utility.yul\":10724:10739   */\n      mstore\n        /* \"#utility.yul\":10758:10762   */\n      0x24\n        /* \"#utility.yul\":10755:10756   */\n      0x00\n        /* \"#utility.yul\":10748:10763   */\n      revert\n        /* \"#utility.yul\":10775:10955   */\n    tag_178:\n        /* \"#utility.yul\":10823:10900   */\n      0x4e487b7100000000000000000000000000000000000000000000000000000000\n        /* \"#utility.yul\":10820:10821   */\n      0x00\n        /* \"#utility.yul\":10813:10901   */\n      mstore\n        /* \"#utility.yul\":10920:10924   */\n      0x41\n        /* \"#utility.yul\":10917:10918   */\n      0x04\n        /* \"#utility.yul\":10910:10925   */\n      mstore\n        /* \"#utility.yul\":10944:10948   */\n      0x24\n        /* \"#utility.yul\":10941:10942   */\n      0x00\n        /* \"#utility.yul\":10934:10949   */\n      revert\n        /* \"#utility.yul\":10961:11078   */\n    tag_87:\n        /* \"#utility.yul\":11070:11071   */\n      0x00\n        /* \"#utility.yul\":11067:11068   */\n      dup1\n        /* \"#utility.yul\":11060:11072   */\n      revert\n        /* \"#utility.yul\":11084:11201   */\n    tag_76:\n        /* \"#utility.yul\":11193:11194   */\n      0x00\n        /* \"#utility.yul\":11190:11191   */\n      dup1\n        /* \"#utility.yul\":11183:11195   */\n      revert\n        /* \"#utility.yul\":11207:11324   */\n    tag_99:\n        /* \"#utility.yul\":11316:11317   */\n      0x00\n        /* \"#utility.yul\":11313:11314   */\n      dup1\n        /* \"#utility.yul\":11306:11318   */\n      revert\n        /* \"#utility.yul\":11330:11447   */\n    tag_96:\n        /* \"#utility.yul\":11439:11440   */\n      0x00\n        /* \"#utility.yul\":11436:11437   */\n      dup1\n        /* \"#utility.yul\":11429:11441   */\n      revert\n        /* \"#utility.yul\":11453:11555   */\n    tag_140:\n        /* \"#utility.yul\":11494:11500   */\n      0x00\n        /* \"#utility.yul\":11545:11547   */\n      0x1f\n        /* \"#utility.yul\":11541:11548   */\n      not\n        /* \"#utility.yul\":11536:11538   */\n      0x1f\n        /* \"#utility.yul\":11529:11534   */\n      dup4\n        /* \"#utility.yul\":11525:11539   */\n      add\n        /* \"#utility.yul\":11521:11549   */\n      and\n        /* \"#utility.yul\":11511:11549   */\n      swap1\n      pop\n        /* \"#utility.yul\":11453:11555   */\n      swap2\n      swap1\n      pop\n      jump\t// out\n        /* \"#utility.yul\":11561:11679   */\n    tag_82:\n        /* \"#utility.yul\":11632:11654   */\n      tag_220\n        /* \"#utility.yul\":11648:11653   */\n      dup2\n        /* \"#utility.yul\":11632:11654   */\n      tag_127\n      jump\t// in\n    tag_220:\n        /* \"#utility.yul\":11625:11630   */\n      dup2\n        /* \"#utility.yul\":11622:11655   */\n      eq\n        /* \"#utility.yul\":11612:11673   */\n      tag_221\n      jumpi\n        /* \"#utility.yul\":11669:11670   */\n      0x00\n        /* \"#utility.yul\":11666:11667   */\n      dup1\n        /* \"#utility.yul\":11659:11671   */\n      revert\n        /* \"#utility.yul\":11612:11673   */\n    tag_221:\n        /* \"#utility.yul\":11561:11679   */\n      pop\n      jump\t// out\n        /* \"#utility.yul\":11685:11807   */\n    tag_92:\n        /* \"#utility.yul\":11758:11782   */\n      tag_223\n        /* \"#utility.yul\":11776:11781   */\n      dup2\n        /* \"#utility.yul\":11758:11782   */\n      tag_161\n      jump\t// in\n    tag_223:\n        /* \"#utility.yul\":11751:11756   */\n      dup2\n        /* \"#utility.yul\":11748:11783   */\n      eq\n        /* \"#utility.yul\":11738:11801   */\n      tag_224\n      jumpi\n        /* \"#utility.yul\":11797:11798   */\n      0x00\n        /* \"#utility.yul\":11794:11795   */\n      dup1\n        /* \"#utility.yul\":11787:11799   */\n      revert\n        /* \"#utility.yul\":11738:11801   */\n    tag_224:\n        /* \"#utility.yul\":11685:11807   */\n      pop\n      jump\t// out\n\n    auxdata: 0xa2646970667358221220cc65f5e688404e36f7e7c23730aa006bf42e9d0debec142be84bf9e173d8be7464736f6c63430008070033\n}\n",
				"bytecode": {
					"linkReferences": {},
					"object": "608060405234801561001057600080fd5b50610bfe806100206000396000f3fe608060405234801561001057600080fd5b506004361061004c5760003560e01c806302ee3a521461005157806351401eef1461006f57806365c3e8051461008b578063c44031ab146100bc575b600080fd5b6100596100ed565b60405161006691906108bd565b60405180910390f35b61008960048036038101906100849190610674565b610205565b005b6100a560048036038101906100a091906106d0565b610391565b6040516100b39291906108df565b60405180910390f35b6100d660048036038101906100d191906106d0565b610464565b6040516100e49291906108df565b60405180910390f35b60606000805480602002602001604051908101604052809291908181526020016000905b828210156101fc57838290600052602060002090600302016040518060600160405290816000820154815260200160018201805461014e90610a85565b80601f016020809104026020016040519081016040528092919081815260200182805461017a90610a85565b80156101c75780601f1061019c576101008083540402835291602001916101c7565b820191906000526020600020905b8154815290600101906020018083116101aa57829003601f168201915b505050505081526020016002820160009054906101000a900460010b60010b60010b8152505081526020019060010190610111565b50505050905090565b6000600160008054905061021991906109d6565b9050600060405180606001604052808381526020018581526020018460010b8152509050600081908060018154018082558091505060019003906000526020600020906003020160009091909190915060008201518160000155602082015181600101908051906020019061028f929190610537565b5060408201518160020160006101000a81548161ffff021916908360010b61ffff160217905550505080600260008481526020019081526020016000206000820151816000015560208201518160010190805190602001906102f2929190610537565b5060408201518160020160006101000a81548161ffff021916908360010b61ffff1602179055509050508060038560405161032d91906108a6565b9081526020016040518091039020600082015181600001556020820151816001019080519060200190610361929190610537565b5060408201518160020160006101000a81548161ffff021916908360010b61ffff16021790555090505050505050565b60606000600260008481526020019081526020016000206001016002600085815260200190815260200160002060020160009054906101000a900460010b8180546103db90610a85565b80601f016020809104026020016040519081016040528092919081815260200182805461040790610a85565b80156104545780601f1061042957610100808354040283529160200191610454565b820191906000526020600020905b81548152906001019060200180831161043757829003601f168201915b5050505050915091509150915091565b60606000600260008481526020019081526020016000206001016002600085815260200190815260200160002060020160009054906101000a900460010b8180546104ae90610a85565b80601f01602080910402602001604051908101604052809291908181526020018280546104da90610a85565b80156105275780601f106104fc57610100808354040283529160200191610527565b820191906000526020600020905b81548152906001019060200180831161050a57829003601f168201915b5050505050915091509150915091565b82805461054390610a85565b90600052602060002090601f01602090048101928261056557600085556105ac565b82601f1061057e57805160ff19168380011785556105ac565b828001600101855582156105ac579182015b828111156105ab578251825591602001919060010190610590565b5b5090506105b991906105bd565b5090565b5b808211156105d65760008160009055506001016105be565b5090565b60006105ed6105e884610934565b61090f565b90508281526020810184848401111561060957610608610b7a565b5b610614848285610a43565b509392505050565b60008135905061062b81610b9a565b92915050565b600082601f83011261064657610645610b75565b5b81356106568482602086016105da565b91505092915050565b60008135905061066e81610bb1565b92915050565b6000806040838503121561068b5761068a610b84565b5b600083013567ffffffffffffffff8111156106a9576106a8610b7f565b5b6106b585828601610631565b92505060206106c68582860161061c565b9150509250929050565b6000602082840312156106e6576106e5610b84565b5b60006106f48482850161065f565b91505092915050565b60006107098383610847565b905092915050565b600061071c82610975565b6107268185610998565b93508360208202850161073885610965565b8060005b85811015610774578484038952815161075585826106fd565b94506107608361098b565b925060208a0199505060018101905061073c565b50829750879550505050505092915050565b61078f81610a2c565b82525050565b61079e81610a2c565b82525050565b60006107af82610980565b6107b981856109a9565b93506107c9818560208601610a52565b6107d281610b89565b840191505092915050565b60006107e882610980565b6107f281856109ba565b9350610802818560208601610a52565b61080b81610b89565b840191505092915050565b600061082182610980565b61082b81856109cb565b935061083b818560208601610a52565b80840191505092915050565b600060608301600083015161085f6000860182610897565b506020830151848203602086015261087782826107a4565b915050604083015161088c6040860182610786565b508091505092915050565b6108a081610a39565b82525050565b60006108b28284610816565b915081905092915050565b600060208201905081810360008301526108d78184610711565b905092915050565b600060408201905081810360008301526108f981856107dd565b90506109086020830184610795565b9392505050565b600061091961092a565b90506109258282610ab7565b919050565b6000604051905090565b600067ffffffffffffffff82111561094f5761094e610b46565b5b61095882610b89565b9050602081019050919050565b6000819050602082019050919050565b600081519050919050565b600081519050919050565b6000602082019050919050565b600082825260208201905092915050565b600082825260208201905092915050565b600082825260208201905092915050565b600081905092915050565b60006109e182610a39565b91506109ec83610a39565b9250827fffffffffffffffffffffffffffffffffffffffffffffffffffffffffffffffff03821115610a2157610a20610ae8565b5b828201905092915050565b60008160010b9050919050565b6000819050919050565b82818337600083830152505050565b60005b83811015610a70578082015181840152602081019050610a55565b83811115610a7f576000848401525b50505050565b60006002820490506001821680610a9d57607f821691505b60208210811415610ab157610ab0610b17565b5b50919050565b610ac082610b89565b810181811067ffffffffffffffff82111715610adf57610ade610b46565b5b80604052505050565b7f4e487b7100000000000000000000000000000000000000000000000000000000600052601160045260246000fd5b7f4e487b7100000000000000000000000000000000000000000000000000000000600052602260045260246000fd5b7f4e487b7100000000000000000000000000000000000000000000000000000000600052604160045260246000fd5b600080fd5b600080fd5b600080fd5b600080fd5b6000601f19601f8301169050919050565b610ba381610a2c565b8114610bae57600080fd5b50565b610bba81610a39565b8114610bc557600080fd5b5056fea2646970667358221220cc65f5e688404e36f7e7c23730aa006bf42e9d0debec142be84bf9e173d8be7464736f6c63430008070033",
					"opcodes": "PUSH1 0x80 PUSH1 0x40 MSTORE CALLVALUE DUP1 ISZERO PUSH2 0x10 JUMPI PUSH1 0x0 DUP1 REVERT JUMPDEST POP PUSH2 0xBFE DUP1 PUSH2 0x20 PUSH1 0x0 CODECOPY PUSH1 0x0 RETURN INVALID PUSH1 0x80 PUSH1 0x40 MSTORE CALLVALUE DUP1 ISZERO PUSH2 0x10 JUMPI PUSH1 0x0 DUP1 REVERT JUMPDEST POP PUSH1 0x4 CALLDATASIZE LT PUSH2 0x4C JUMPI PUSH1 0x0 CALLDATALOAD PUSH1 0xE0 SHR DUP1 PUSH4 0x2EE3A52 EQ PUSH2 0x51 JUMPI DUP1 PUSH4 0x51401EEF EQ PUSH2 0x6F JUMPI DUP1 PUSH4 0x65C3E805 EQ PUSH2 0x8B JUMPI DUP1 PUSH4 0xC44031AB EQ PUSH2 0xBC JUMPI JUMPDEST PUSH1 0x0 DUP1 REVERT JUMPDEST PUSH2 0x59 PUSH2 0xED JUMP JUMPDEST PUSH1 0x40 MLOAD PUSH2 0x66 SWAP2 SWAP1 PUSH2 0x8BD JUMP JUMPDEST PUSH1 0x40 MLOAD DUP1 SWAP2 SUB SWAP1 RETURN JUMPDEST PUSH2 0x89 PUSH1 0x4 DUP1 CALLDATASIZE SUB DUP2 ADD SWAP1 PUSH2 0x84 SWAP2 SWAP1 PUSH2 0x674 JUMP JUMPDEST PUSH2 0x205 JUMP JUMPDEST STOP JUMPDEST PUSH2 0xA5 PUSH1 0x4 DUP1 CALLDATASIZE SUB DUP2 ADD SWAP1 PUSH2 0xA0 SWAP2 SWAP1 PUSH2 0x6D0 JUMP JUMPDEST PUSH2 0x391 JUMP JUMPDEST PUSH1 0x40 MLOAD PUSH2 0xB3 SWAP3 SWAP2 SWAP1 PUSH2 0x8DF JUMP JUMPDEST PUSH1 0x40 MLOAD DUP1 SWAP2 SUB SWAP1 RETURN JUMPDEST PUSH2 0xD6 PUSH1 0x4 DUP1 CALLDATASIZE SUB DUP2 ADD SWAP1 PUSH2 0xD1 SWAP2 SWAP1 PUSH2 0x6D0 JUMP JUMPDEST PUSH2 0x464 JUMP JUMPDEST PUSH1 0x40 MLOAD PUSH2 0xE4 SWAP3 SWAP2 SWAP1 PUSH2 0x8DF JUMP JUMPDEST PUSH1 0x40 MLOAD DUP1 SWAP2 SUB SWAP1 RETURN JUMPDEST PUSH1 0x60 PUSH1 0x0 DUP1 SLOAD DUP1 PUSH1 0x20 MUL PUSH1 0x20 ADD PUSH1 0x40 MLOAD SWAP1 DUP2 ADD PUSH1 0x40 MSTORE DUP1 SWAP3 SWAP2 SWAP1 DUP2 DUP2 MSTORE PUSH1 0x20 ADD PUSH1 0x0 SWAP1 JUMPDEST DUP3 DUP3 LT ISZERO PUSH2 0x1FC JUMPI DUP4 DUP3 SWAP1 PUSH1 0x0 MSTORE PUSH1 0x20 PUSH1 0x0 KECCAK256 SWAP1 PUSH1 0x3 MUL ADD PUSH1 0x40 MLOAD DUP1 PUSH1 0x60 ADD PUSH1 0x40 MSTORE SWAP1 DUP2 PUSH1 0x0 DUP3 ADD SLOAD DUP2 MSTORE PUSH1 0x20 ADD PUSH1 0x1 DUP3 ADD DUP1 SLOAD PUSH2 0x14E SWAP1 PUSH2 0xA85 JUMP JUMPDEST DUP1 PUSH1 0x1F ADD PUSH1 0x20 DUP1 SWAP2 DIV MUL PUSH1 0x20 ADD PUSH1 0x40 MLOAD SWAP1 DUP2 ADD PUSH1 0x40 MSTORE DUP1 SWAP3 SWAP2 SWAP1 DUP2 DUP2 MSTORE PUSH1 0x20 ADD DUP3 DUP1 SLOAD PUSH2 0x17A SWAP1 PUSH2 0xA85 JUMP JUMPDEST DUP1 ISZERO PUSH2 0x1C7 JUMPI DUP1 PUSH1 0x1F LT PUSH2 0x19C JUMPI PUSH2 0x100 DUP1 DUP4 SLOAD DIV MUL DUP4 MSTORE SWAP2 PUSH1 0x20 ADD SWAP2 PUSH2 0x1C7 JUMP JUMPDEST DUP3 ADD SWAP2 SWAP1 PUSH1 0x0 MSTORE PUSH1 0x20 PUSH1 0x0 KECCAK256 SWAP1 JUMPDEST DUP2 SLOAD DUP2 MSTORE SWAP1 PUSH1 0x1 ADD SWAP1 PUSH1 0x20 ADD DUP1 DUP4 GT PUSH2 0x1AA JUMPI DUP3 SWAP1 SUB PUSH1 0x1F AND DUP3 ADD SWAP2 JUMPDEST POP POP POP POP POP DUP2 MSTORE PUSH1 0x20 ADD PUSH1 0x2 DUP3 ADD PUSH1 0x0 SWAP1 SLOAD SWAP1 PUSH2 0x100 EXP SWAP1 DIV PUSH1 0x1 SIGNEXTEND PUSH1 0x1 SIGNEXTEND PUSH1 0x1 SIGNEXTEND DUP2 MSTORE POP POP DUP2 MSTORE PUSH1 0x20 ADD SWAP1 PUSH1 0x1 ADD SWAP1 PUSH2 0x111 JUMP JUMPDEST POP POP POP POP SWAP1 POP SWAP1 JUMP JUMPDEST PUSH1 0x0 PUSH1 0x1 PUSH1 0x0 DUP1 SLOAD SWAP1 POP PUSH2 0x219 SWAP2 SWAP1 PUSH2 0x9D6 JUMP JUMPDEST SWAP1 POP PUSH1 0x0 PUSH1 0x40 MLOAD DUP1 PUSH1 0x60 ADD PUSH1 0x40 MSTORE DUP1 DUP4 DUP2 MSTORE PUSH1 0x20 ADD DUP6 DUP2 MSTORE PUSH1 0x20 ADD DUP5 PUSH1 0x1 SIGNEXTEND DUP2 MSTORE POP SWAP1 POP PUSH1 0x0 DUP2 SWAP1 DUP1 PUSH1 0x1 DUP2 SLOAD ADD DUP1 DUP3 SSTORE DUP1 SWAP2 POP POP PUSH1 0x1 SWAP1 SUB SWAP1 PUSH1 0x0 MSTORE PUSH1 0x20 PUSH1 0x0 KECCAK256 SWAP1 PUSH1 0x3 MUL ADD PUSH1 0x0 SWAP1 SWAP2 SWAP1 SWAP2 SWAP1 SWAP2 POP PUSH1 0x0 DUP3 ADD MLOAD DUP2 PUSH1 0x0 ADD SSTORE PUSH1 0x20 DUP3 ADD MLOAD DUP2 PUSH1 0x1 ADD SWAP1 DUP1 MLOAD SWAP1 PUSH1 0x20 ADD SWAP1 PUSH2 0x28F SWAP3 SWAP2 SWAP1 PUSH2 0x537 JUMP JUMPDEST POP PUSH1 0x40 DUP3 ADD MLOAD DUP2 PUSH1 0x2 ADD PUSH1 0x0 PUSH2 0x100 EXP DUP2 SLOAD DUP2 PUSH2 0xFFFF MUL NOT AND SWAP1 DUP4 PUSH1 0x1 SIGNEXTEND PUSH2 0xFFFF AND MUL OR SWAP1 SSTORE POP POP POP DUP1 PUSH1 0x2 PUSH1 0x0 DUP5 DUP2 MSTORE PUSH1 0x20 ADD SWAP1 DUP2 MSTORE PUSH1 0x20 ADD PUSH1 0x0 KECCAK256 PUSH1 0x0 DUP3 ADD MLOAD DUP2 PUSH1 0x0 ADD SSTORE PUSH1 0x20 DUP3 ADD MLOAD DUP2 PUSH1 0x1 ADD SWAP1 DUP1 MLOAD SWAP1 PUSH1 0x20 ADD SWAP1 PUSH2 0x2F2 SWAP3 SWAP2 SWAP1 PUSH2 0x537 JUMP JUMPDEST POP PUSH1 0x40 DUP3 ADD MLOAD DUP2 PUSH1 0x2 ADD PUSH1 0x0 PUSH2 0x100 EXP DUP2 SLOAD DUP2 PUSH2 0xFFFF MUL NOT AND SWAP1 DUP4 PUSH1 0x1 SIGNEXTEND PUSH2 0xFFFF AND MUL OR SWAP1 SSTORE POP SWAP1 POP POP DUP1 PUSH1 0x3 DUP6 PUSH1 0x40 MLOAD PUSH2 0x32D SWAP2 SWAP1 PUSH2 0x8A6 JUMP JUMPDEST SWAP1 DUP2 MSTORE PUSH1 0x20 ADD PUSH1 0x40 MLOAD DUP1 SWAP2 SUB SWAP1 KECCAK256 PUSH1 0x0 DUP3 ADD MLOAD DUP2 PUSH1 0x0 ADD SSTORE PUSH1 0x20 DUP3 ADD MLOAD DUP2 PUSH1 0x1 ADD SWAP1 DUP1 MLOAD SWAP1 PUSH1 0x20 ADD SWAP1 PUSH2 0x361 SWAP3 SWAP2 SWAP1 PUSH2 0x537 JUMP JUMPDEST POP PUSH1 0x40 DUP3 ADD MLOAD DUP2 PUSH1 0x2 ADD PUSH1 0x0 PUSH2 0x100 EXP DUP2 SLOAD DUP2 PUSH2 0xFFFF MUL NOT AND SWAP1 DUP4 PUSH1 0x1 SIGNEXTEND PUSH2 0xFFFF AND MUL OR SWAP1 SSTORE POP SWAP1 POP POP POP POP POP POP JUMP JUMPDEST PUSH1 0x60 PUSH1 0x0 PUSH1 0x2 PUSH1 0x0 DUP5 DUP2 MSTORE PUSH1 0x20 ADD SWAP1 DUP2 MSTORE PUSH1 0x20 ADD PUSH1 0x0 KECCAK256 PUSH1 0x1 ADD PUSH1 0x2 PUSH1 0x0 DUP6 DUP2 MSTORE PUSH1 0x20 ADD SWAP1 DUP2 MSTORE PUSH1 0x20 ADD PUSH1 0x0 KECCAK256 PUSH1 0x2 ADD PUSH1 0x0 SWAP1 SLOAD SWAP1 PUSH2 0x100 EXP SWAP1 DIV PUSH1 0x1 SIGNEXTEND DUP2 DUP1 SLOAD PUSH2 0x3DB SWAP1 PUSH2 0xA85 JUMP JUMPDEST DUP1 PUSH1 0x1F ADD PUSH1 0x20 DUP1 SWAP2 DIV MUL PUSH1 0x20 ADD PUSH1 0x40 MLOAD SWAP1 DUP2 ADD PUSH1 0x40 MSTORE DUP1 SWAP3 SWAP2 SWAP1 DUP2 DUP2 MSTORE PUSH1 0x20 ADD DUP3 DUP1 SLOAD PUSH2 0x407 SWAP1 PUSH2 0xA85 JUMP JUMPDEST DUP1 ISZERO PUSH2 0x454 JUMPI DUP1 PUSH1 0x1F LT PUSH2 0x429 JUMPI PUSH2 0x100 DUP1 DUP4 SLOAD DIV MUL DUP4 MSTORE SWAP2 PUSH1 0x20 ADD SWAP2 PUSH2 0x454 JUMP JUMPDEST DUP3 ADD SWAP2 SWAP1 PUSH1 0x0 MSTORE PUSH1 0x20 PUSH1 0x0 KECCAK256 SWAP1 JUMPDEST DUP2 SLOAD DUP2 MSTORE SWAP1 PUSH1 0x1 ADD SWAP1 PUSH1 0x20 ADD DUP1 DUP4 GT PUSH2 0x437 JUMPI DUP3 SWAP1 SUB PUSH1 0x1F AND DUP3 ADD SWAP2 JUMPDEST POP POP POP POP POP SWAP2 POP SWAP2 POP SWAP2 POP SWAP2 POP SWAP2 JUMP JUMPDEST PUSH1 0x60 PUSH1 0x0 PUSH1 0x2 PUSH1 0x0 DUP5 DUP2 MSTORE PUSH1 0x20 ADD SWAP1 DUP2 MSTORE PUSH1 0x20 ADD PUSH1 0x0 KECCAK256 PUSH1 0x1 ADD PUSH1 0x2 PUSH1 0x0 DUP6 DUP2 MSTORE PUSH1 0x20 ADD SWAP1 DUP2 MSTORE PUSH1 0x20 ADD PUSH1 0x0 KECCAK256 PUSH1 0x2 ADD PUSH1 0x0 SWAP1 SLOAD SWAP1 PUSH2 0x100 EXP SWAP1 DIV PUSH1 0x1 SIGNEXTEND DUP2 DUP1 SLOAD PUSH2 0x4AE SWAP1 PUSH2 0xA85 JUMP JUMPDEST DUP1 PUSH1 0x1F ADD PUSH1 0x20 DUP1 SWAP2 DIV MUL PUSH1 0x20 ADD PUSH1 0x40 MLOAD SWAP1 DUP2 ADD PUSH1 0x40 MSTORE DUP1 SWAP3 SWAP2 SWAP1 DUP2 DUP2 MSTORE PUSH1 0x20 ADD DUP3 DUP1 SLOAD PUSH2 0x4DA SWAP1 PUSH2 0xA85 JUMP JUMPDEST DUP1 ISZERO PUSH2 0x527 JUMPI DUP1 PUSH1 0x1F LT PUSH2 0x4FC JUMPI PUSH2 0x100 DUP1 DUP4 SLOAD DIV MUL DUP4 MSTORE SWAP2 PUSH1 0x20 ADD SWAP2 PUSH2 0x527 JUMP JUMPDEST DUP3 ADD SWAP2 SWAP1 PUSH1 0x0 MSTORE PUSH1 0x20 PUSH1 0x0 KECCAK256 SWAP1 JUMPDEST DUP2 SLOAD DUP2 MSTORE SWAP1 PUSH1 0x1 ADD SWAP1 PUSH1 0x20 ADD DUP1 DUP4 GT PUSH2 0x50A JUMPI DUP3 SWAP1 SUB PUSH1 0x1F AND DUP3 ADD SWAP2 JUMPDEST POP POP POP POP POP SWAP2 POP SWAP2 POP SWAP2 POP SWAP2 POP SWAP2 JUMP JUMPDEST DUP3 DUP1 SLOAD PUSH2 0x543 SWAP1 PUSH2 0xA85 JUMP JUMPDEST SWAP1 PUSH1 0x0 MSTORE PUSH1 0x20 PUSH1 0x0 KECCAK256 SWAP1 PUSH1 0x1F ADD PUSH1 0x20 SWAP1 DIV DUP2 ADD SWAP3 DUP3 PUSH2 0x565 JUMPI PUSH1 0x0 DUP6 SSTORE PUSH2 0x5AC JUMP JUMPDEST DUP3 PUSH1 0x1F LT PUSH2 0x57E JUMPI DUP1 MLOAD PUSH1 0xFF NOT AND DUP4 DUP1 ADD OR DUP6 SSTORE PUSH2 0x5AC JUMP JUMPDEST DUP3 DUP1 ADD PUSH1 0x1 ADD DUP6 SSTORE DUP3 ISZERO PUSH2 0x5AC JUMPI SWAP2 DUP3 ADD JUMPDEST DUP3 DUP2 GT ISZERO PUSH2 0x5AB JUMPI DUP3 MLOAD DUP3 SSTORE SWAP2 PUSH1 0x20 ADD SWAP2 SWAP1 PUSH1 0x1 ADD SWAP1 PUSH2 0x590 JUMP JUMPDEST JUMPDEST POP SWAP1 POP PUSH2 0x5B9 SWAP2 SWAP1 PUSH2 0x5BD JUMP JUMPDEST POP SWAP1 JUMP JUMPDEST JUMPDEST DUP1 DUP3 GT ISZERO PUSH2 0x5D6 JUMPI PUSH1 0x0 DUP2 PUSH1 0x0 SWAP1 SSTORE POP PUSH1 0x1 ADD PUSH2 0x5BE JUMP JUMPDEST POP SWAP1 JUMP JUMPDEST PUSH1 0x0 PUSH2 0x5ED PUSH2 0x5E8 DUP5 PUSH2 0x934 JUMP JUMPDEST PUSH2 0x90F JUMP JUMPDEST SWAP1 POP DUP3 DUP2 MSTORE PUSH1 0x20 DUP2 ADD DUP5 DUP5 DUP5 ADD GT ISZERO PUSH2 0x609 JUMPI PUSH2 0x608 PUSH2 0xB7A JUMP JUMPDEST JUMPDEST PUSH2 0x614 DUP5 DUP3 DUP6 PUSH2 0xA43 JUMP JUMPDEST POP SWAP4 SWAP3 POP POP POP JUMP JUMPDEST PUSH1 0x0 DUP2 CALLDATALOAD SWAP1 POP PUSH2 0x62B DUP2 PUSH2 0xB9A JUMP JUMPDEST SWAP3 SWAP2 POP POP JUMP JUMPDEST PUSH1 0x0 DUP3 PUSH1 0x1F DUP4 ADD SLT PUSH2 0x646 JUMPI PUSH2 0x645 PUSH2 0xB75 JUMP JUMPDEST JUMPDEST DUP2 CALLDATALOAD PUSH2 0x656 DUP5 DUP3 PUSH1 0x20 DUP7 ADD PUSH2 0x5DA JUMP JUMPDEST SWAP2 POP POP SWAP3 SWAP2 POP POP JUMP JUMPDEST PUSH1 0x0 DUP2 CALLDATALOAD SWAP1 POP PUSH2 0x66E DUP2 PUSH2 0xBB1 JUMP JUMPDEST SWAP3 SWAP2 POP POP JUMP JUMPDEST PUSH1 0x0 DUP1 PUSH1 0x40 DUP4 DUP6 SUB SLT ISZERO PUSH2 0x68B JUMPI PUSH2 0x68A PUSH2 0xB84 JUMP JUMPDEST JUMPDEST PUSH1 0x0 DUP4 ADD CALLDATALOAD PUSH8 0xFFFFFFFFFFFFFFFF DUP2 GT ISZERO PUSH2 0x6A9 JUMPI PUSH2 0x6A8 PUSH2 0xB7F JUMP JUMPDEST JUMPDEST PUSH2 0x6B5 DUP6 DUP3 DUP7 ADD PUSH2 0x631 JUMP JUMPDEST SWAP3 POP POP PUSH1 0x20 PUSH2 0x6C6 DUP6 DUP3 DUP7 ADD PUSH2 0x61C JUMP JUMPDEST SWAP2 POP POP SWAP3 POP SWAP3 SWAP1 POP JUMP JUMPDEST PUSH1 0x0 PUSH1 0x20 DUP3 DUP5 SUB SLT ISZERO PUSH2 0x6E6 JUMPI PUSH2 0x6E5 PUSH2 0xB84 JUMP JUMPDEST JUMPDEST PUSH1 0x0 PUSH2 0x6F4 DUP5 DUP3 DUP6 ADD PUSH2 0x65F JUMP JUMPDEST SWAP2 POP POP SWAP3 SWAP2 POP POP JUMP JUMPDEST PUSH1 0x0 PUSH2 0x709 DUP4 DUP4 PUSH2 0x847 JUMP JUMPDEST SWAP1 POP SWAP3 SWAP2 POP POP JUMP JUMPDEST PUSH1 0x0 PUSH2 0x71C DUP3 PUSH2 0x975 JUMP JUMPDEST PUSH2 0x726 DUP2 DUP6 PUSH2 0x998 JUMP JUMPDEST SWAP4 POP DUP4 PUSH1 0x20 DUP3 MUL DUP6 ADD PUSH2 0x738 DUP6 PUSH2 0x965 JUMP JUMPDEST DUP1 PUSH1 0x0 JUMPDEST DUP6 DUP2 LT ISZERO PUSH2 0x774 JUMPI DUP5 DUP5 SUB DUP10 MSTORE DUP2 MLOAD PUSH2 0x755 DUP6 DUP3 PUSH2 0x6FD JUMP JUMPDEST SWAP5 POP PUSH2 0x760 DUP4 PUSH2 0x98B JUMP JUMPDEST SWAP3 POP PUSH1 0x20 DUP11 ADD SWAP10 POP POP PUSH1 0x1 DUP2 ADD SWAP1 POP PUSH2 0x73C JUMP JUMPDEST POP DUP3 SWAP8 POP DUP8 SWAP6 POP POP POP POP POP POP SWAP3 SWAP2 POP POP JUMP JUMPDEST PUSH2 0x78F DUP2 PUSH2 0xA2C JUMP JUMPDEST DUP3 MSTORE POP POP JUMP JUMPDEST PUSH2 0x79E DUP2 PUSH2 0xA2C JUMP JUMPDEST DUP3 MSTORE POP POP JUMP JUMPDEST PUSH1 0x0 PUSH2 0x7AF DUP3 PUSH2 0x980 JUMP JUMPDEST PUSH2 0x7B9 DUP2 DUP6 PUSH2 0x9A9 JUMP JUMPDEST SWAP4 POP PUSH2 0x7C9 DUP2 DUP6 PUSH1 0x20 DUP7 ADD PUSH2 0xA52 JUMP JUMPDEST PUSH2 0x7D2 DUP2 PUSH2 0xB89 JUMP JUMPDEST DUP5 ADD SWAP2 POP POP SWAP3 SWAP2 POP POP JUMP JUMPDEST PUSH1 0x0 PUSH2 0x7E8 DUP3 PUSH2 0x980 JUMP JUMPDEST PUSH2 0x7F2 DUP2 DUP6 PUSH2 0x9BA JUMP JUMPDEST SWAP4 POP PUSH2 0x802 DUP2 DUP6 PUSH1 0x20 DUP7 ADD PUSH2 0xA52 JUMP JUMPDEST PUSH2 0x80B DUP2 PUSH2 0xB89 JUMP JUMPDEST DUP5 ADD SWAP2 POP POP SWAP3 SWAP2 POP POP JUMP JUMPDEST PUSH1 0x0 PUSH2 0x821 DUP3 PUSH2 0x980 JUMP JUMPDEST PUSH2 0x82B DUP2 DUP6 PUSH2 0x9CB JUMP JUMPDEST SWAP4 POP PUSH2 0x83B DUP2 DUP6 PUSH1 0x20 DUP7 ADD PUSH2 0xA52 JUMP JUMPDEST DUP1 DUP5 ADD SWAP2 POP POP SWAP3 SWAP2 POP POP JUMP JUMPDEST PUSH1 0x0 PUSH1 0x60 DUP4 ADD PUSH1 0x0 DUP4 ADD MLOAD PUSH2 0x85F PUSH1 0x0 DUP7 ADD DUP3 PUSH2 0x897 JUMP JUMPDEST POP PUSH1 0x20 DUP4 ADD MLOAD DUP5 DUP3 SUB PUSH1 0x20 DUP7 ADD MSTORE PUSH2 0x877 DUP3 DUP3 PUSH2 0x7A4 JUMP JUMPDEST SWAP2 POP POP PUSH1 0x40 DUP4 ADD MLOAD PUSH2 0x88C PUSH1 0x40 DUP7 ADD DUP3 PUSH2 0x786 JUMP JUMPDEST POP DUP1 SWAP2 POP POP SWAP3 SWAP2 POP POP JUMP JUMPDEST PUSH2 0x8A0 DUP2 PUSH2 0xA39 JUMP JUMPDEST DUP3 MSTORE POP POP JUMP JUMPDEST PUSH1 0x0 PUSH2 0x8B2 DUP3 DUP5 PUSH2 0x816 JUMP JUMPDEST SWAP2 POP DUP2 SWAP1 POP SWAP3 SWAP2 POP POP JUMP JUMPDEST PUSH1 0x0 PUSH1 0x20 DUP3 ADD SWAP1 POP DUP2 DUP2 SUB PUSH1 0x0 DUP4 ADD MSTORE PUSH2 0x8D7 DUP2 DUP5 PUSH2 0x711 JUMP JUMPDEST SWAP1 POP SWAP3 SWAP2 POP POP JUMP JUMPDEST PUSH1 0x0 PUSH1 0x40 DUP3 ADD SWAP1 POP DUP2 DUP2 SUB PUSH1 0x0 DUP4 ADD MSTORE PUSH2 0x8F9 DUP2 DUP6 PUSH2 0x7DD JUMP JUMPDEST SWAP1 POP PUSH2 0x908 PUSH1 0x20 DUP4 ADD DUP5 PUSH2 0x795 JUMP JUMPDEST SWAP4 SWAP3 POP POP POP JUMP JUMPDEST PUSH1 0x0 PUSH2 0x919 PUSH2 0x92A JUMP JUMPDEST SWAP1 POP PUSH2 0x925 DUP3 DUP3 PUSH2 0xAB7 JUMP JUMPDEST SWAP2 SWAP1 POP JUMP JUMPDEST PUSH1 0x0 PUSH1 0x40 MLOAD SWAP1 POP SWAP1 JUMP JUMPDEST PUSH1 0x0 PUSH8 0xFFFFFFFFFFFFFFFF DUP3 GT ISZERO PUSH2 0x94F JUMPI PUSH2 0x94E PUSH2 0xB46 JUMP JUMPDEST JUMPDEST PUSH2 0x958 DUP3 PUSH2 0xB89 JUMP JUMPDEST SWAP1 POP PUSH1 0x20 DUP2 ADD SWAP1 POP SWAP2 SWAP1 POP JUMP JUMPDEST PUSH1 0x0 DUP2 SWAP1 POP PUSH1 0x20 DUP3 ADD SWAP1 POP SWAP2 SWAP1 POP JUMP JUMPDEST PUSH1 0x0 DUP2 MLOAD SWAP1 POP SWAP2 SWAP1 POP JUMP JUMPDEST PUSH1 0x0 DUP2 MLOAD SWAP1 POP SWAP2 SWAP1 POP JUMP JUMPDEST PUSH1 0x0 PUSH1 0x20 DUP3 ADD SWAP1 POP SWAP2 SWAP1 POP JUMP JUMPDEST PUSH1 0x0 DUP3 DUP3 MSTORE PUSH1 0x20 DUP3 ADD SWAP1 POP SWAP3 SWAP2 POP POP JUMP JUMPDEST PUSH1 0x0 DUP3 DUP3 MSTORE PUSH1 0x20 DUP3 ADD SWAP1 POP SWAP3 SWAP2 POP POP JUMP JUMPDEST PUSH1 0x0 DUP3 DUP3 MSTORE PUSH1 0x20 DUP3 ADD SWAP1 POP SWAP3 SWAP2 POP POP JUMP JUMPDEST PUSH1 0x0 DUP2 SWAP1 POP SWAP3 SWAP2 POP POP JUMP JUMPDEST PUSH1 0x0 PUSH2 0x9E1 DUP3 PUSH2 0xA39 JUMP JUMPDEST SWAP2 POP PUSH2 0x9EC DUP4 PUSH2 0xA39 JUMP JUMPDEST SWAP3 POP DUP3 PUSH32 0xFFFFFFFFFFFFFFFFFFFFFFFFFFFFFFFFFFFFFFFFFFFFFFFFFFFFFFFFFFFFFFFF SUB DUP3 GT ISZERO PUSH2 0xA21 JUMPI PUSH2 0xA20 PUSH2 0xAE8 JUMP JUMPDEST JUMPDEST DUP3 DUP3 ADD SWAP1 POP SWAP3 SWAP2 POP POP JUMP JUMPDEST PUSH1 0x0 DUP2 PUSH1 0x1 SIGNEXTEND SWAP1 POP SWAP2 SWAP1 POP JUMP JUMPDEST PUSH1 0x0 DUP2 SWAP1 POP SWAP2 SWAP1 POP JUMP JUMPDEST DUP3 DUP2 DUP4 CALLDATACOPY PUSH1 0x0 DUP4 DUP4 ADD MSTORE POP POP POP JUMP JUMPDEST PUSH1 0x0 JUMPDEST DUP4 DUP2 LT ISZERO PUSH2 0xA70 JUMPI DUP1 DUP3 ADD MLOAD DUP2 DUP5 ADD MSTORE PUSH1 0x20 DUP2 ADD SWAP1 POP PUSH2 0xA55 JUMP JUMPDEST DUP4 DUP2 GT ISZERO PUSH2 0xA7F JUMPI PUSH1 0x0 DUP5 DUP5 ADD MSTORE JUMPDEST POP POP POP POP JUMP JUMPDEST PUSH1 0x0 PUSH1 0x2 DUP3 DIV SWAP1 POP PUSH1 0x1 DUP3 AND DUP1 PUSH2 0xA9D JUMPI PUSH1 0x7F DUP3 AND SWAP2 POP JUMPDEST PUSH1 0x20 DUP3 LT DUP2 EQ ISZERO PUSH2 0xAB1 JUMPI PUSH2 0xAB0 PUSH2 0xB17 JUMP JUMPDEST JUMPDEST POP SWAP2 SWAP1 POP JUMP JUMPDEST PUSH2 0xAC0 DUP3 PUSH2 0xB89 JUMP JUMPDEST DUP2 ADD DUP2 DUP2 LT PUSH8 0xFFFFFFFFFFFFFFFF DUP3 GT OR ISZERO PUSH2 0xADF JUMPI PUSH2 0xADE PUSH2 0xB46 JUMP JUMPDEST JUMPDEST DUP1 PUSH1 0x40 MSTORE POP POP POP JUMP JUMPDEST PUSH32 0x4E487B7100000000000000000000000000000000000000000000000000000000 PUSH1 0x0 MSTORE PUSH1 0x11 PUSH1 0x4 MSTORE PUSH1 0x24 PUSH1 0x0 REVERT JUMPDEST PUSH32 0x4E487B7100000000000000000000000000000000000000000000000000000000 PUSH1 0x0 MSTORE PUSH1 0x22 PUSH1 0x4 MSTORE PUSH1 0x24 PUSH1 0x0 REVERT JUMPDEST PUSH32 0x4E487B7100000000000000000000000000000000000000000000000000000000 PUSH1 0x0 MSTORE PUSH1 0x41 PUSH1 0x4 MSTORE PUSH1 0x24 PUSH1 0x0 REVERT JUMPDEST PUSH1 0x0 DUP1 REVERT JUMPDEST PUSH1 0x0 DUP1 REVERT JUMPDEST PUSH1 0x0 DUP1 REVERT JUMPDEST PUSH1 0x0 DUP1 REVERT JUMPDEST PUSH1 0x0 PUSH1 0x1F NOT PUSH1 0x1F DUP4 ADD AND SWAP1 POP SWAP2 SWAP1 POP JUMP JUMPDEST PUSH2 0xBA3 DUP2 PUSH2 0xA2C JUMP JUMPDEST DUP2 EQ PUSH2 0xBAE JUMPI PUSH1 0x0 DUP1 REVERT JUMPDEST POP JUMP JUMPDEST PUSH2 0xBBA DUP2 PUSH2 0xA39 JUMP JUMPDEST DUP2 EQ PUSH2 0xBC5 JUMPI PUSH1 0x0 DUP1 REVERT JUMPDEST POP JUMP INVALID LOG2 PUSH5 0x6970667358 0x22 SLT KECCAK256 0xCC PUSH6 0xF5E688404E36 0xF7 0xE7 0xC2 CALLDATACOPY ADDRESS 0xAA STOP PUSH12 0xF42E9D0DEBEC142BE84BF9E1 PUSH20 0xD8BE7464736F6C63430008070033000000000000 "
				},
				"gasEstimates": {
					"creation": {
						"codeDepositCost": "614000",
						"executionCost": "645",
						"totalCost": "614645"
					},
					"external": {
						"createProduit(string,int16)": "infinite",
						"getAllProducts()": "infinite",
						"getProductInfoById(uint256)": "infinite",
						"getProductInfoByName(uint256)": "infinite"
					}
				},
				"methodIdentifiers": {
					"createProduit(string,int16)": "51401eef",
					"getAllProducts()": "02ee3a52",
					"getProductInfoById(uint256)": "65c3e805",
					"getProductInfoByName(uint256)": "c44031ab"
				}
			},
			"storageLayout": {
				"storage": [
					{
						"astId": 21,
						"contract": "contracts/ExoSupermarche.sol:supermarche",
						"label": "AllProduits",
						"offset": 0,
						"slot": "0",
						"type": "t_array(t_struct(productData)17_storage)dyn_storage"
					},
					{
						"astId": 25,
						"contract": "contracts/ExoSupermarche.sol:supermarche",
						"label": "AllClients",
						"offset": 0,
						"slot": "1",
						"type": "t_array(t_struct(clientData)10_storage)dyn_storage"
					},
					{
						"astId": 30,
						"contract": "contracts/ExoSupermarche.sol:supermarche",
						"label": "productsById",
						"offset": 0,
						"slot": "2",
						"type": "t_mapping(t_uint256,t_struct(productData)17_storage)"
					},
					{
						"astId": 35,
						"contract": "contracts/ExoSupermarche.sol:supermarche",
						"label": "productsByName",
						"offset": 0,
						"slot": "3",
						"type": "t_mapping(t_string_memory_ptr,t_struct(productData)17_storage)"
					}
				],
				"types": {
					"t_array(t_struct(clientData)10_storage)dyn_storage": {
						"base": "t_struct(clientData)10_storage",
						"encoding": "dynamic_array",
						"label": "struct supermarche.clientData[]",
						"numberOfBytes": "32"
					},
					"t_array(t_struct(productData)17_storage)dyn_storage": {
						"base": "t_struct(productData)17_storage",
						"encoding": "dynamic_array",
						"label": "struct supermarche.productData[]",
						"numberOfBytes": "32"
					},
					"t_int16": {
						"encoding": "inplace",
						"label": "int16",
						"numberOfBytes": "2"
					},
					"t_mapping(t_string_memory_ptr,t_struct(productData)17_storage)": {
						"encoding": "mapping",
						"key": "t_string_memory_ptr",
						"label": "mapping(string => struct supermarche.productData)",
						"numberOfBytes": "32",
						"value": "t_struct(productData)17_storage"
					},
					"t_mapping(t_uint256,t_struct(productData)17_storage)": {
						"encoding": "mapping",
						"key": "t_uint256",
						"label": "mapping(uint256 => struct supermarche.productData)",
						"numberOfBytes": "32",
						"value": "t_struct(productData)17_storage"
					},
					"t_string_memory_ptr": {
						"encoding": "bytes",
						"label": "string",
						"numberOfBytes": "32"
					},
					"t_string_storage": {
						"encoding": "bytes",
						"label": "string",
						"numberOfBytes": "32"
					},
					"t_struct(clientData)10_storage": {
						"encoding": "inplace",
						"label": "struct supermarche.clientData",
						"members": [
							{
								"astId": 3,
								"contract": "contracts/ExoSupermarche.sol:supermarche",
								"label": "id",
								"offset": 0,
								"slot": "0",
								"type": "t_uint256"
							},
							{
								"astId": 5,
								"contract": "contracts/ExoSupermarche.sol:supermarche",
								"label": "nom",
								"offset": 0,
								"slot": "1",
								"type": "t_string_storage"
							},
							{
								"astId": 9,
								"contract": "contracts/ExoSupermarche.sol:supermarche",
								"label": "panier",
								"offset": 0,
								"slot": "2",
								"type": "t_array(t_struct(productData)17_storage)dyn_storage"
							}
						],
						"numberOfBytes": "96"
					},
					"t_struct(productData)17_storage": {
						"encoding": "inplace",
						"label": "struct supermarche.productData",
						"members": [
							{
								"astId": 12,
								"contract": "contracts/ExoSupermarche.sol:supermarche",
								"label": "id",
								"offset": 0,
								"slot": "0",
								"type": "t_uint256"
							},
							{
								"astId": 14,
								"contract": "contracts/ExoSupermarche.sol:supermarche",
								"label": "libelle",
								"offset": 0,
								"slot": "1",
								"type": "t_string_storage"
							},
							{
								"astId": 16,
								"contract": "contracts/ExoSupermarche.sol:supermarche",
								"label": "price",
								"offset": 0,
								"slot": "2",
								"type": "t_int16"
							}
						],
						"numberOfBytes": "96"
					},
					"t_uint256": {
						"encoding": "inplace",
						"label": "uint256",
						"numberOfBytes": "32"
					}
				}
			},
			"userdoc": {
				"kind": "user",
				"methods": {},
				"version": 1
			}
		}
	}
}