{
	"contracts/enumeration.sol": {
		"exoEnum": {
			"abi": [
				{
					"inputs": [
						{
							"internalType": "address",
							"name": "_client",
							"type": "address"
						},
						{
							"internalType": "uint256",
							"name": "_sku",
							"type": "uint256"
						}
					],
					"name": "commander",
					"outputs": [],
					"stateMutability": "nonpayable",
					"type": "function"
				}
			],
			"devdoc": {
				"kind": "dev",
				"methods": {},
				"version": 1
			},
			"evm": {
				"assembly": "    /* \"contracts/enumeration.sol\":59:373  contract exoEnum {\r... */\n  mstore(0x40, 0x80)\n  callvalue\n  dup1\n  iszero\n  tag_1\n  jumpi\n  0x00\n  dup1\n  revert\ntag_1:\n  pop\n  dataSize(sub_0)\n  dup1\n  dataOffset(sub_0)\n  0x00\n  codecopy\n  0x00\n  return\nstop\n\nsub_0: assembly {\n        /* \"contracts/enumeration.sol\":59:373  contract exoEnum {\r... */\n      mstore(0x40, 0x80)\n      callvalue\n      dup1\n      iszero\n      tag_1\n      jumpi\n      0x00\n      dup1\n      revert\n    tag_1:\n      pop\n      jumpi(tag_2, lt(calldatasize, 0x04))\n      shr(0xe0, calldataload(0x00))\n      dup1\n      0x178d2a7b\n      eq\n      tag_3\n      jumpi\n    tag_2:\n      0x00\n      dup1\n      revert\n        /* \"contracts/enumeration.sol\":298:370  function commander(address _client, uint _sku) public {\r... */\n    tag_3:\n      tag_4\n      0x04\n      dup1\n      calldatasize\n      sub\n      dup2\n      add\n      swap1\n      tag_5\n      swap2\n      swap1\n      tag_6\n      jump\t// in\n    tag_5:\n      tag_7\n      jump\t// in\n    tag_4:\n      stop\n    tag_7:\n      pop\n      pop\n      jump\t// out\n        /* \"#utility.yul\":7:146   */\n    tag_10:\n        /* \"#utility.yul\":53:58   */\n      0x00\n        /* \"#utility.yul\":91:97   */\n      dup2\n        /* \"#utility.yul\":78:98   */\n      calldataload\n        /* \"#utility.yul\":69:98   */\n      swap1\n      pop\n        /* \"#utility.yul\":107:140   */\n      tag_12\n        /* \"#utility.yul\":134:139   */\n      dup2\n        /* \"#utility.yul\":107:140   */\n      tag_13\n      jump\t// in\n    tag_12:\n        /* \"#utility.yul\":7:146   */\n      swap3\n      swap2\n      pop\n      pop\n      jump\t// out\n        /* \"#utility.yul\":152:291   */\n    tag_14:\n        /* \"#utility.yul\":198:203   */\n      0x00\n        /* \"#utility.yul\":236:242   */\n      dup2\n        /* \"#utility.yul\":223:243   */\n      calldataload\n        /* \"#utility.yul\":214:243   */\n      swap1\n      pop\n        /* \"#utility.yul\":252:285   */\n      tag_16\n        /* \"#utility.yul\":279:284   */\n      dup2\n        /* \"#utility.yul\":252:285   */\n      tag_17\n      jump\t// in\n    tag_16:\n        /* \"#utility.yul\":152:291   */\n      swap3\n      swap2\n      pop\n      pop\n      jump\t// out\n        /* \"#utility.yul\":297:771   */\n    tag_6:\n        /* \"#utility.yul\":365:371   */\n      0x00\n        /* \"#utility.yul\":373:379   */\n      dup1\n        /* \"#utility.yul\":422:424   */\n      0x40\n        /* \"#utility.yul\":410:419   */\n      dup4\n        /* \"#utility.yul\":401:408   */\n      dup6\n        /* \"#utility.yul\":397:420   */\n      sub\n        /* \"#utility.yul\":393:425   */\n      slt\n        /* \"#utility.yul\":390:509   */\n      iszero\n      tag_19\n      jumpi\n        /* \"#utility.yul\":428:507   */\n      tag_20\n      tag_21\n      jump\t// in\n    tag_20:\n        /* \"#utility.yul\":390:509   */\n    tag_19:\n        /* \"#utility.yul\":548:549   */\n      0x00\n        /* \"#utility.yul\":573:626   */\n      tag_22\n        /* \"#utility.yul\":618:625   */\n      dup6\n        /* \"#utility.yul\":609:615   */\n      dup3\n        /* \"#utility.yul\":598:607   */\n      dup7\n        /* \"#utility.yul\":594:616   */\n      add\n        /* \"#utility.yul\":573:626   */\n      tag_10\n      jump\t// in\n    tag_22:\n        /* \"#utility.yul\":563:626   */\n      swap3\n      pop\n        /* \"#utility.yul\":519:636   */\n      pop\n        /* \"#utility.yul\":675:677   */\n      0x20\n        /* \"#utility.yul\":701:754   */\n      tag_23\n        /* \"#utility.yul\":746:753   */\n      dup6\n        /* \"#utility.yul\":737:743   */\n      dup3\n        /* \"#utility.yul\":726:735   */\n      dup7\n        /* \"#utility.yul\":722:744   */\n      add\n        /* \"#utility.yul\":701:754   */\n      tag_14\n      jump\t// in\n    tag_23:\n        /* \"#utility.yul\":691:754   */\n      swap2\n      pop\n        /* \"#utility.yul\":646:764   */\n      pop\n        /* \"#utility.yul\":297:771   */\n      swap3\n      pop\n      swap3\n      swap1\n      pop\n      jump\t// out\n        /* \"#utility.yul\":858:954   */\n    tag_26:\n        /* \"#utility.yul\":895:902   */\n      0x00\n        /* \"#utility.yul\":924:948   */\n      tag_28\n        /* \"#utility.yul\":942:947   */\n      dup3\n        /* \"#utility.yul\":924:948   */\n      tag_29\n      jump\t// in\n    tag_28:\n        /* \"#utility.yul\":913:948   */\n      swap1\n      pop\n        /* \"#utility.yul\":858:954   */\n      swap2\n      swap1\n      pop\n      jump\t// out\n        /* \"#utility.yul\":960:1086   */\n    tag_29:\n        /* \"#utility.yul\":997:1004   */\n      0x00\n        /* \"#utility.yul\":1037:1079   */\n      0xffffffffffffffffffffffffffffffffffffffff\n        /* \"#utility.yul\":1030:1035   */\n      dup3\n        /* \"#utility.yul\":1026:1080   */\n      and\n        /* \"#utility.yul\":1015:1080   */\n      swap1\n      pop\n        /* \"#utility.yul\":960:1086   */\n      swap2\n      swap1\n      pop\n      jump\t// out\n        /* \"#utility.yul\":1092:1169   */\n    tag_31:\n        /* \"#utility.yul\":1129:1136   */\n      0x00\n        /* \"#utility.yul\":1158:1163   */\n      dup2\n        /* \"#utility.yul\":1147:1163   */\n      swap1\n      pop\n        /* \"#utility.yul\":1092:1169   */\n      swap2\n      swap1\n      pop\n      jump\t// out\n        /* \"#utility.yul\":1298:1415   */\n    tag_21:\n        /* \"#utility.yul\":1407:1408   */\n      0x00\n        /* \"#utility.yul\":1404:1405   */\n      dup1\n        /* \"#utility.yul\":1397:1409   */\n      revert\n        /* \"#utility.yul\":1421:1543   */\n    tag_13:\n        /* \"#utility.yul\":1494:1518   */\n      tag_37\n        /* \"#utility.yul\":1512:1517   */\n      dup2\n        /* \"#utility.yul\":1494:1518   */\n      tag_26\n      jump\t// in\n    tag_37:\n        /* \"#utility.yul\":1487:1492   */\n      dup2\n        /* \"#utility.yul\":1484:1519   */\n      eq\n        /* \"#utility.yul\":1474:1537   */\n      tag_38\n      jumpi\n        /* \"#utility.yul\":1533:1534   */\n      0x00\n        /* \"#utility.yul\":1530:1531   */\n      dup1\n        /* \"#utility.yul\":1523:1535   */\n      revert\n        /* \"#utility.yul\":1474:1537   */\n    tag_38:\n        /* \"#utility.yul\":1421:1543   */\n      pop\n      jump\t// out\n        /* \"#utility.yul\":1549:1671   */\n    tag_17:\n        /* \"#utility.yul\":1622:1646   */\n      tag_40\n        /* \"#utility.yul\":1640:1645   */\n      dup2\n        /* \"#utility.yul\":1622:1646   */\n      tag_31\n      jump\t// in\n    tag_40:\n        /* \"#utility.yul\":1615:1620   */\n      dup2\n        /* \"#utility.yul\":1612:1647   */\n      eq\n        /* \"#utility.yul\":1602:1665   */\n      tag_41\n      jumpi\n        /* \"#utility.yul\":1661:1662   */\n      0x00\n        /* \"#utility.yul\":1658:1659   */\n      dup1\n        /* \"#utility.yul\":1651:1663   */\n      revert\n        /* \"#utility.yul\":1602:1665   */\n    tag_41:\n        /* \"#utility.yul\":1549:1671   */\n      pop\n      jump\t// out\n\n    auxdata: 0xa2646970667358221220cb946a758585984b6567deb2cb0b9bd319b83a0b1a810a86cd6c606e15fefc1f64736f6c63430008070033\n}\n",
				"bytecode": {
					"linkReferences": {},
					"object": "608060405234801561001057600080fd5b5061015f806100206000396000f3fe608060405234801561001057600080fd5b506004361061002b5760003560e01c8063178d2a7b14610030575b600080fd5b61004a6004803603810190610045919061007a565b61004c565b005b5050565b60008135905061005f816100fb565b92915050565b60008135905061007481610112565b92915050565b60008060408385031215610091576100906100f6565b5b600061009f85828601610050565b92505060206100b085828601610065565b9150509250929050565b60006100c5826100cc565b9050919050565b600073ffffffffffffffffffffffffffffffffffffffff82169050919050565b6000819050919050565b600080fd5b610104816100ba565b811461010f57600080fd5b50565b61011b816100ec565b811461012657600080fd5b5056fea2646970667358221220cb946a758585984b6567deb2cb0b9bd319b83a0b1a810a86cd6c606e15fefc1f64736f6c63430008070033",
					"opcodes": "PUSH1 0x80 PUSH1 0x40 MSTORE CALLVALUE DUP1 ISZERO PUSH2 0x10 JUMPI PUSH1 0x0 DUP1 REVERT JUMPDEST POP PUSH2 0x15F DUP1 PUSH2 0x20 PUSH1 0x0 CODECOPY PUSH1 0x0 RETURN INVALID PUSH1 0x80 PUSH1 0x40 MSTORE CALLVALUE DUP1 ISZERO PUSH2 0x10 JUMPI PUSH1 0x0 DUP1 REVERT JUMPDEST POP PUSH1 0x4 CALLDATASIZE LT PUSH2 0x2B JUMPI PUSH1 0x0 CALLDATALOAD PUSH1 0xE0 SHR DUP1 PUSH4 0x178D2A7B EQ PUSH2 0x30 JUMPI JUMPDEST PUSH1 0x0 DUP1 REVERT JUMPDEST PUSH2 0x4A PUSH1 0x4 DUP1 CALLDATASIZE SUB DUP2 ADD SWAP1 PUSH2 0x45 SWAP2 SWAP1 PUSH2 0x7A JUMP JUMPDEST PUSH2 0x4C JUMP JUMPDEST STOP JUMPDEST POP POP JUMP JUMPDEST PUSH1 0x0 DUP2 CALLDATALOAD SWAP1 POP PUSH2 0x5F DUP2 PUSH2 0xFB JUMP JUMPDEST SWAP3 SWAP2 POP POP JUMP JUMPDEST PUSH1 0x0 DUP2 CALLDATALOAD SWAP1 POP PUSH2 0x74 DUP2 PUSH2 0x112 JUMP JUMPDEST SWAP3 SWAP2 POP POP JUMP JUMPDEST PUSH1 0x0 DUP1 PUSH1 0x40 DUP4 DUP6 SUB SLT ISZERO PUSH2 0x91 JUMPI PUSH2 0x90 PUSH2 0xF6 JUMP JUMPDEST JUMPDEST PUSH1 0x0 PUSH2 0x9F DUP6 DUP3 DUP7 ADD PUSH2 0x50 JUMP JUMPDEST SWAP3 POP POP PUSH1 0x20 PUSH2 0xB0 DUP6 DUP3 DUP7 ADD PUSH2 0x65 JUMP JUMPDEST SWAP2 POP POP SWAP3 POP SWAP3 SWAP1 POP JUMP JUMPDEST PUSH1 0x0 PUSH2 0xC5 DUP3 PUSH2 0xCC JUMP JUMPDEST SWAP1 POP SWAP2 SWAP1 POP JUMP JUMPDEST PUSH1 0x0 PUSH20 0xFFFFFFFFFFFFFFFFFFFFFFFFFFFFFFFFFFFFFFFF DUP3 AND SWAP1 POP SWAP2 SWAP1 POP JUMP JUMPDEST PUSH1 0x0 DUP2 SWAP1 POP SWAP2 SWAP1 POP JUMP JUMPDEST PUSH1 0x0 DUP1 REVERT JUMPDEST PUSH2 0x104 DUP2 PUSH2 0xBA JUMP JUMPDEST DUP2 EQ PUSH2 0x10F JUMPI PUSH1 0x0 DUP1 REVERT JUMPDEST POP JUMP JUMPDEST PUSH2 0x11B DUP2 PUSH2 0xEC JUMP JUMPDEST DUP2 EQ PUSH2 0x126 JUMPI PUSH1 0x0 DUP1 REVERT JUMPDEST POP JUMP INVALID LOG2 PUSH5 0x6970667358 0x22 SLT KECCAK256 0xCB SWAP5 PUSH11 0x758585984B6567DEB2CB0B SWAP12 0xD3 NOT 0xB8 GASPRICE SIGNEXTEND BYTE DUP2 EXP DUP7 0xCD PUSH13 0x606E15FEFC1F64736F6C634300 ADDMOD SMOD STOP CALLER "
				},
				"gasEstimates": {
					"creation": {
						"codeDepositCost": "70200",
						"executionCost": "117",
						"totalCost": "70317"
					},
					"external": {
						"commander(address,uint256)": "606"
					}
				},
				"methodIdentifiers": {
					"commander(address,uint256)": "178d2a7b"
				}
			},
			"storageLayout": {
				"storage": [
					{
						"astId": 16,
						"contract": "contracts/enumeration.sol:exoEnum",
						"label": "CommandesClient",
						"offset": 0,
						"slot": "0",
						"type": "t_mapping(t_address,t_struct(produit)11_storage)"
					}
				],
				"types": {
					"t_address": {
						"encoding": "inplace",
						"label": "address",
						"numberOfBytes": "20"
					},
					"t_enum(etape)5": {
						"encoding": "inplace",
						"label": "enum exoEnum.etape",
						"numberOfBytes": "1"
					},
					"t_mapping(t_address,t_struct(produit)11_storage)": {
						"encoding": "mapping",
						"key": "t_address",
						"label": "mapping(address => struct exoEnum.produit)",
						"numberOfBytes": "32",
						"value": "t_struct(produit)11_storage"
					},
					"t_struct(produit)11_storage": {
						"encoding": "inplace",
						"label": "struct exoEnum.produit",
						"members": [
							{
								"astId": 7,
								"contract": "contracts/enumeration.sol:exoEnum",
								"label": "_SKU",
								"offset": 0,
								"slot": "0",
								"type": "t_uint256"
							},
							{
								"astId": 10,
								"contract": "contracts/enumeration.sol:exoEnum",
								"label": "_etape",
								"offset": 0,
								"slot": "1",
								"type": "t_enum(etape)5"
							}
						],
						"numberOfBytes": "64"
					},
					"t_uint256": {
						"encoding": "inplace",
						"label": "uint256",
						"numberOfBytes": "32"
					}
				}
			},
			"userdoc": {
				"kind": "user",
				"methods": {},
				"version": 1
			}
		}
	}
}