{
	"contracts/test.sol": {
		"test": {
			"abi": [
				{
					"inputs": [],
					"name": "getBalance",
					"outputs": [
						{
							"internalType": "uint256",
							"name": "",
							"type": "uint256"
						}
					],
					"stateMutability": "view",
					"type": "function"
				},
				{
					"inputs": [],
					"name": "getLastPerson",
					"outputs": [
						{
							"internalType": "address",
							"name": "",
							"type": "address"
						}
					],
					"stateMutability": "view",
					"type": "function"
				},
				{
					"stateMutability": "payable",
					"type": "receive"
				}
			],
			"devdoc": {
				"kind": "dev",
				"methods": {},
				"version": 1
			},
			"evm": {
				"assembly": "    /* \"contracts/test.sol\":59:445  contract test {\r... */\n  mstore(0x40, 0x80)\n  callvalue\n  dup1\n  iszero\n  tag_1\n  jumpi\n  0x00\n  dup1\n  revert\ntag_1:\n  pop\n  dataSize(sub_0)\n  dup1\n  dataOffset(sub_0)\n  0x00\n  codecopy\n  0x00\n  return\nstop\n\nsub_0: assembly {\n        /* \"contracts/test.sol\":59:445  contract test {\r... */\n      mstore(0x40, 0x80)\n      jumpi(tag_1, lt(calldatasize, 0x04))\n      shr(0xe0, calldataload(0x00))\n      dup1\n      0x12065fe0\n      eq\n      tag_3\n      jumpi\n      dup1\n      0x1a6f5456\n      eq\n      tag_4\n      jumpi\n      jump(tag_2)\n    tag_1:\n      jumpi(tag_2, calldatasize)\n        /* \"contracts/test.sol\":185:195  msg.sender */\n      caller\n        /* \"contracts/test.sol\":172:182  lastPerson */\n      0x01\n      0x00\n        /* \"contracts/test.sol\":172:195  lastPerson = msg.sender */\n      0x0100\n      exp\n      dup2\n      sload\n      dup2\n      0xffffffffffffffffffffffffffffffffffffffff\n      mul\n      not\n      and\n      swap1\n      dup4\n      0xffffffffffffffffffffffffffffffffffffffff\n      and\n      mul\n      or\n      swap1\n      sstore\n      pop\n        /* \"contracts/test.sol\":225:234  msg.value */\n      callvalue\n        /* \"contracts/test.sol\":206:221  contractBalance */\n      0x00\n      dup1\n        /* \"contracts/test.sol\":206:234  contractBalance += msg.value */\n      dup3\n      dup3\n      sload\n      tag_7\n      swap2\n      swap1\n      tag_8\n      jump\t// in\n    tag_7:\n      swap3\n      pop\n      pop\n      dup2\n      swap1\n      sstore\n      pop\n        /* \"contracts/test.sol\":59:445  contract test {\r... */\n      stop\n    tag_2:\n      0x00\n      dup1\n      revert\n        /* \"contracts/test.sol\":254:343  function getBalance() public view returns(uint) {\r... */\n    tag_3:\n      callvalue\n      dup1\n      iszero\n      tag_9\n      jumpi\n      0x00\n      dup1\n      revert\n    tag_9:\n      pop\n      tag_10\n      tag_11\n      jump\t// in\n    tag_10:\n      mload(0x40)\n      tag_12\n      swap2\n      swap1\n      tag_13\n      jump\t// in\n    tag_12:\n      mload(0x40)\n      dup1\n      swap2\n      sub\n      swap1\n      return\n        /* \"contracts/test.sol\":351:442  function getLastPerson() public view returns (address) {\r... */\n    tag_4:\n      callvalue\n      dup1\n      iszero\n      tag_14\n      jumpi\n      0x00\n      dup1\n      revert\n    tag_14:\n      pop\n      tag_15\n      tag_16\n      jump\t// in\n    tag_15:\n      mload(0x40)\n      tag_17\n      swap2\n      swap1\n      tag_18\n      jump\t// in\n    tag_17:\n      mload(0x40)\n      dup1\n      swap2\n      sub\n      swap1\n      return\n        /* \"contracts/test.sol\":254:343  function getBalance() public view returns(uint) {\r... */\n    tag_11:\n        /* \"contracts/test.sol\":296:300  uint */\n      0x00\n        /* \"contracts/test.sol\":320:335  contractBalance */\n      dup1\n      sload\n        /* \"contracts/test.sol\":313:335  return contractBalance */\n      swap1\n      pop\n        /* \"contracts/test.sol\":254:343  function getBalance() public view returns(uint) {\r... */\n      swap1\n      jump\t// out\n        /* \"contracts/test.sol\":351:442  function getLastPerson() public view returns (address) {\r... */\n    tag_16:\n        /* \"contracts/test.sol\":397:404  address */\n      0x00\n        /* \"contracts/test.sol\":424:434  lastPerson */\n      0x01\n      0x00\n      swap1\n      sload\n      swap1\n      0x0100\n      exp\n      swap1\n      div\n      0xffffffffffffffffffffffffffffffffffffffff\n      and\n        /* \"contracts/test.sol\":417:434  return lastPerson */\n      swap1\n      pop\n        /* \"contracts/test.sol\":351:442  function getLastPerson() public view returns (address) {\r... */\n      swap1\n      jump\t// out\n        /* \"#utility.yul\":7:125   */\n    tag_22:\n        /* \"#utility.yul\":94:118   */\n      tag_24\n        /* \"#utility.yul\":112:117   */\n      dup2\n        /* \"#utility.yul\":94:118   */\n      tag_25\n      jump\t// in\n    tag_24:\n        /* \"#utility.yul\":89:92   */\n      dup3\n        /* \"#utility.yul\":82:119   */\n      mstore\n        /* \"#utility.yul\":7:125   */\n      pop\n      pop\n      jump\t// out\n        /* \"#utility.yul\":131:249   */\n    tag_26:\n        /* \"#utility.yul\":218:242   */\n      tag_28\n        /* \"#utility.yul\":236:241   */\n      dup2\n        /* \"#utility.yul\":218:242   */\n      tag_29\n      jump\t// in\n    tag_28:\n        /* \"#utility.yul\":213:216   */\n      dup3\n        /* \"#utility.yul\":206:243   */\n      mstore\n        /* \"#utility.yul\":131:249   */\n      pop\n      pop\n      jump\t// out\n        /* \"#utility.yul\":255:477   */\n    tag_18:\n        /* \"#utility.yul\":348:352   */\n      0x00\n        /* \"#utility.yul\":386:388   */\n      0x20\n        /* \"#utility.yul\":375:384   */\n      dup3\n        /* \"#utility.yul\":371:389   */\n      add\n        /* \"#utility.yul\":363:389   */\n      swap1\n      pop\n        /* \"#utility.yul\":399:470   */\n      tag_31\n        /* \"#utility.yul\":467:468   */\n      0x00\n        /* \"#utility.yul\":456:465   */\n      dup4\n        /* \"#utility.yul\":452:469   */\n      add\n        /* \"#utility.yul\":443:449   */\n      dup5\n        /* \"#utility.yul\":399:470   */\n      tag_22\n      jump\t// in\n    tag_31:\n        /* \"#utility.yul\":255:477   */\n      swap3\n      swap2\n      pop\n      pop\n      jump\t// out\n        /* \"#utility.yul\":483:705   */\n    tag_13:\n        /* \"#utility.yul\":576:580   */\n      0x00\n        /* \"#utility.yul\":614:616   */\n      0x20\n        /* \"#utility.yul\":603:612   */\n      dup3\n        /* \"#utility.yul\":599:617   */\n      add\n        /* \"#utility.yul\":591:617   */\n      swap1\n      pop\n        /* \"#utility.yul\":627:698   */\n      tag_33\n        /* \"#utility.yul\":695:696   */\n      0x00\n        /* \"#utility.yul\":684:693   */\n      dup4\n        /* \"#utility.yul\":680:697   */\n      add\n        /* \"#utility.yul\":671:677   */\n      dup5\n        /* \"#utility.yul\":627:698   */\n      tag_26\n      jump\t// in\n    tag_33:\n        /* \"#utility.yul\":483:705   */\n      swap3\n      swap2\n      pop\n      pop\n      jump\t// out\n        /* \"#utility.yul\":711:1016   */\n    tag_8:\n        /* \"#utility.yul\":751:754   */\n      0x00\n        /* \"#utility.yul\":770:790   */\n      tag_35\n        /* \"#utility.yul\":788:789   */\n      dup3\n        /* \"#utility.yul\":770:790   */\n      tag_29\n      jump\t// in\n    tag_35:\n        /* \"#utility.yul\":765:790   */\n      swap2\n      pop\n        /* \"#utility.yul\":804:824   */\n      tag_36\n        /* \"#utility.yul\":822:823   */\n      dup4\n        /* \"#utility.yul\":804:824   */\n      tag_29\n      jump\t// in\n    tag_36:\n        /* \"#utility.yul\":799:824   */\n      swap3\n      pop\n        /* \"#utility.yul\":958:959   */\n      dup3\n        /* \"#utility.yul\":890:956   */\n      0xffffffffffffffffffffffffffffffffffffffffffffffffffffffffffffffff\n        /* \"#utility.yul\":886:960   */\n      sub\n        /* \"#utility.yul\":883:884   */\n      dup3\n        /* \"#utility.yul\":880:961   */\n      gt\n        /* \"#utility.yul\":877:984   */\n      iszero\n      tag_37\n      jumpi\n        /* \"#utility.yul\":964:982   */\n      tag_38\n      tag_39\n      jump\t// in\n    tag_38:\n        /* \"#utility.yul\":877:984   */\n    tag_37:\n        /* \"#utility.yul\":1008:1009   */\n      dup3\n        /* \"#utility.yul\":1005:1006   */\n      dup3\n        /* \"#utility.yul\":1001:1010   */\n      add\n        /* \"#utility.yul\":994:1010   */\n      swap1\n      pop\n        /* \"#utility.yul\":711:1016   */\n      swap3\n      swap2\n      pop\n      pop\n      jump\t// out\n        /* \"#utility.yul\":1022:1118   */\n    tag_25:\n        /* \"#utility.yul\":1059:1066   */\n      0x00\n        /* \"#utility.yul\":1088:1112   */\n      tag_41\n        /* \"#utility.yul\":1106:1111   */\n      dup3\n        /* \"#utility.yul\":1088:1112   */\n      tag_42\n      jump\t// in\n    tag_41:\n        /* \"#utility.yul\":1077:1112   */\n      swap1\n      pop\n        /* \"#utility.yul\":1022:1118   */\n      swap2\n      swap1\n      pop\n      jump\t// out\n        /* \"#utility.yul\":1124:1250   */\n    tag_42:\n        /* \"#utility.yul\":1161:1168   */\n      0x00\n        /* \"#utility.yul\":1201:1243   */\n      0xffffffffffffffffffffffffffffffffffffffff\n        /* \"#utility.yul\":1194:1199   */\n      dup3\n        /* \"#utility.yul\":1190:1244   */\n      and\n        /* \"#utility.yul\":1179:1244   */\n      swap1\n      pop\n        /* \"#utility.yul\":1124:1250   */\n      swap2\n      swap1\n      pop\n      jump\t// out\n        /* \"#utility.yul\":1256:1333   */\n    tag_29:\n        /* \"#utility.yul\":1293:1300   */\n      0x00\n        /* \"#utility.yul\":1322:1327   */\n      dup2\n        /* \"#utility.yul\":1311:1327   */\n      swap1\n      pop\n        /* \"#utility.yul\":1256:1333   */\n      swap2\n      swap1\n      pop\n      jump\t// out\n        /* \"#utility.yul\":1339:1519   */\n    tag_39:\n        /* \"#utility.yul\":1387:1464   */\n      0x4e487b7100000000000000000000000000000000000000000000000000000000\n        /* \"#utility.yul\":1384:1385   */\n      0x00\n        /* \"#utility.yul\":1377:1465   */\n      mstore\n        /* \"#utility.yul\":1484:1488   */\n      0x11\n        /* \"#utility.yul\":1481:1482   */\n      0x04\n        /* \"#utility.yul\":1474:1489   */\n      mstore\n        /* \"#utility.yul\":1508:1512   */\n      0x24\n        /* \"#utility.yul\":1505:1506   */\n      0x00\n        /* \"#utility.yul\":1498:1513   */\n      revert\n\n    auxdata: 0xa2646970667358221220d340d79a51b704f72dc8abd3afe43776c80e0a1809e48c5640689a8fe5c165e564736f6c63430008070033\n}\n",
				"bytecode": {
					"linkReferences": {},
					"object": "608060405234801561001057600080fd5b50610266806100206000396000f3fe60806040526004361061002d5760003560e01c806312065fe0146100925780631a6f5456146100bd5761008d565b3661008d5733600160006101000a81548173ffffffffffffffffffffffffffffffffffffffff021916908373ffffffffffffffffffffffffffffffffffffffff16021790555034600080828254610084919061016f565b92505081905550005b600080fd5b34801561009e57600080fd5b506100a76100e8565b6040516100b49190610154565b60405180910390f35b3480156100c957600080fd5b506100d26100f1565b6040516100df9190610139565b60405180910390f35b60008054905090565b6000600160009054906101000a900473ffffffffffffffffffffffffffffffffffffffff16905090565b610124816101c5565b82525050565b610133816101f7565b82525050565b600060208201905061014e600083018461011b565b92915050565b6000602082019050610169600083018461012a565b92915050565b600061017a826101f7565b9150610185836101f7565b9250827fffffffffffffffffffffffffffffffffffffffffffffffffffffffffffffffff038211156101ba576101b9610201565b5b828201905092915050565b60006101d0826101d7565b9050919050565b600073ffffffffffffffffffffffffffffffffffffffff82169050919050565b6000819050919050565b7f4e487b7100000000000000000000000000000000000000000000000000000000600052601160045260246000fdfea2646970667358221220d340d79a51b704f72dc8abd3afe43776c80e0a1809e48c5640689a8fe5c165e564736f6c63430008070033",
					"opcodes": "PUSH1 0x80 PUSH1 0x40 MSTORE CALLVALUE DUP1 ISZERO PUSH2 0x10 JUMPI PUSH1 0x0 DUP1 REVERT JUMPDEST POP PUSH2 0x266 DUP1 PUSH2 0x20 PUSH1 0x0 CODECOPY PUSH1 0x0 RETURN INVALID PUSH1 0x80 PUSH1 0x40 MSTORE PUSH1 0x4 CALLDATASIZE LT PUSH2 0x2D JUMPI PUSH1 0x0 CALLDATALOAD PUSH1 0xE0 SHR DUP1 PUSH4 0x12065FE0 EQ PUSH2 0x92 JUMPI DUP1 PUSH4 0x1A6F5456 EQ PUSH2 0xBD JUMPI PUSH2 0x8D JUMP JUMPDEST CALLDATASIZE PUSH2 0x8D JUMPI CALLER PUSH1 0x1 PUSH1 0x0 PUSH2 0x100 EXP DUP2 SLOAD DUP2 PUSH20 0xFFFFFFFFFFFFFFFFFFFFFFFFFFFFFFFFFFFFFFFF MUL NOT AND SWAP1 DUP4 PUSH20 0xFFFFFFFFFFFFFFFFFFFFFFFFFFFFFFFFFFFFFFFF AND MUL OR SWAP1 SSTORE POP CALLVALUE PUSH1 0x0 DUP1 DUP3 DUP3 SLOAD PUSH2 0x84 SWAP2 SWAP1 PUSH2 0x16F JUMP JUMPDEST SWAP3 POP POP DUP2 SWAP1 SSTORE POP STOP JUMPDEST PUSH1 0x0 DUP1 REVERT JUMPDEST CALLVALUE DUP1 ISZERO PUSH2 0x9E JUMPI PUSH1 0x0 DUP1 REVERT JUMPDEST POP PUSH2 0xA7 PUSH2 0xE8 JUMP JUMPDEST PUSH1 0x40 MLOAD PUSH2 0xB4 SWAP2 SWAP1 PUSH2 0x154 JUMP JUMPDEST PUSH1 0x40 MLOAD DUP1 SWAP2 SUB SWAP1 RETURN JUMPDEST CALLVALUE DUP1 ISZERO PUSH2 0xC9 JUMPI PUSH1 0x0 DUP1 REVERT JUMPDEST POP PUSH2 0xD2 PUSH2 0xF1 JUMP JUMPDEST PUSH1 0x40 MLOAD PUSH2 0xDF SWAP2 SWAP1 PUSH2 0x139 JUMP JUMPDEST PUSH1 0x40 MLOAD DUP1 SWAP2 SUB SWAP1 RETURN JUMPDEST PUSH1 0x0 DUP1 SLOAD SWAP1 POP SWAP1 JUMP JUMPDEST PUSH1 0x0 PUSH1 0x1 PUSH1 0x0 SWAP1 SLOAD SWAP1 PUSH2 0x100 EXP SWAP1 DIV PUSH20 0xFFFFFFFFFFFFFFFFFFFFFFFFFFFFFFFFFFFFFFFF AND SWAP1 POP SWAP1 JUMP JUMPDEST PUSH2 0x124 DUP2 PUSH2 0x1C5 JUMP JUMPDEST DUP3 MSTORE POP POP JUMP JUMPDEST PUSH2 0x133 DUP2 PUSH2 0x1F7 JUMP JUMPDEST DUP3 MSTORE POP POP JUMP JUMPDEST PUSH1 0x0 PUSH1 0x20 DUP3 ADD SWAP1 POP PUSH2 0x14E PUSH1 0x0 DUP4 ADD DUP5 PUSH2 0x11B JUMP JUMPDEST SWAP3 SWAP2 POP POP JUMP JUMPDEST PUSH1 0x0 PUSH1 0x20 DUP3 ADD SWAP1 POP PUSH2 0x169 PUSH1 0x0 DUP4 ADD DUP5 PUSH2 0x12A JUMP JUMPDEST SWAP3 SWAP2 POP POP JUMP JUMPDEST PUSH1 0x0 PUSH2 0x17A DUP3 PUSH2 0x1F7 JUMP JUMPDEST SWAP2 POP PUSH2 0x185 DUP4 PUSH2 0x1F7 JUMP JUMPDEST SWAP3 POP DUP3 PUSH32 0xFFFFFFFFFFFFFFFFFFFFFFFFFFFFFFFFFFFFFFFFFFFFFFFFFFFFFFFFFFFFFFFF SUB DUP3 GT ISZERO PUSH2 0x1BA JUMPI PUSH2 0x1B9 PUSH2 0x201 JUMP JUMPDEST JUMPDEST DUP3 DUP3 ADD SWAP1 POP SWAP3 SWAP2 POP POP JUMP JUMPDEST PUSH1 0x0 PUSH2 0x1D0 DUP3 PUSH2 0x1D7 JUMP JUMPDEST SWAP1 POP SWAP2 SWAP1 POP JUMP JUMPDEST PUSH1 0x0 PUSH20 0xFFFFFFFFFFFFFFFFFFFFFFFFFFFFFFFFFFFFFFFF DUP3 AND SWAP1 POP SWAP2 SWAP1 POP JUMP JUMPDEST PUSH1 0x0 DUP2 SWAP1 POP SWAP2 SWAP1 POP JUMP JUMPDEST PUSH32 0x4E487B7100000000000000000000000000000000000000000000000000000000 PUSH1 0x0 MSTORE PUSH1 0x11 PUSH1 0x4 MSTORE PUSH1 0x24 PUSH1 0x0 REVERT INVALID LOG2 PUSH5 0x6970667358 0x22 SLT KECCAK256 0xD3 BLOCKHASH 0xD7 SWAP11 MLOAD 0xB7 DIV 0xF7 0x2D 0xC8 0xAB 0xD3 0xAF 0xE4 CALLDATACOPY PUSH23 0xC80E0A1809E48C5640689A8FE5C165E564736F6C634300 ADDMOD SMOD STOP CALLER "
				},
				"gasEstimates": {
					"creation": {
						"codeDepositCost": "122800",
						"executionCost": "171",
						"totalCost": "122971"
					},
					"external": {
						"getBalance()": "2415",
						"getLastPerson()": "2522"
					}
				},
				"methodIdentifiers": {
					"getBalance()": "12065fe0",
					"getLastPerson()": "1a6f5456"
				}
			},
			"storageLayout": {
				"storage": [
					{
						"astId": 3,
						"contract": "contracts/test.sol:test",
						"label": "contractBalance",
						"offset": 0,
						"slot": "0",
						"type": "t_uint256"
					},
					{
						"astId": 5,
						"contract": "contracts/test.sol:test",
						"label": "lastPerson",
						"offset": 0,
						"slot": "1",
						"type": "t_address"
					}
				],
				"types": {
					"t_address": {
						"encoding": "inplace",
						"label": "address",
						"numberOfBytes": "20"
					},
					"t_uint256": {
						"encoding": "inplace",
						"label": "uint256",
						"numberOfBytes": "32"
					}
				}
			},
			"userdoc": {
				"kind": "user",
				"methods": {},
				"version": 1
			}
		}
	}
}