{
	"contracts/enumeration.sol": {
		"exoEnum": {
			"abi": [
				{
					"inputs": [
						{
							"internalType": "address",
							"name": "_client",
							"type": "address"
						},
						{
							"internalType": "uint256",
							"name": "_sku",
							"type": "uint256"
						}
					],
					"name": "commander",
					"outputs": [],
					"stateMutability": "nonpayable",
					"type": "function"
				},
				{
					"inputs": [
						{
							"internalType": "address",
							"name": "_client",
							"type": "address"
						}
					],
					"name": "expedier",
					"outputs": [],
					"stateMutability": "nonpayable",
					"type": "function"
				}
			],
			"devdoc": {
				"kind": "dev",
				"methods": {},
				"version": 1
			},
			"evm": {
				"assembly": "    /* \"contracts/enumeration.sol\":59:529  contract exoEnum {\r... */\n  mstore(0x40, 0x80)\n  callvalue\n  dup1\n  iszero\n  tag_1\n  jumpi\n  0x00\n  dup1\n  revert\ntag_1:\n  pop\n  dataSize(sub_0)\n  dup1\n  dataOffset(sub_0)\n  0x00\n  codecopy\n  0x00\n  return\nstop\n\nsub_0: assembly {\n        /* \"contracts/enumeration.sol\":59:529  contract exoEnum {\r... */\n      mstore(0x40, 0x80)\n      callvalue\n      dup1\n      iszero\n      tag_1\n      jumpi\n      0x00\n      dup1\n      revert\n    tag_1:\n      pop\n      jumpi(tag_2, lt(calldatasize, 0x04))\n      shr(0xe0, calldataload(0x00))\n      dup1\n      0x178d2a7b\n      eq\n      tag_3\n      jumpi\n      dup1\n      0xec1b521e\n      eq\n      tag_4\n      jumpi\n    tag_2:\n      0x00\n      dup1\n      revert\n        /* \"contracts/enumeration.sol\":298:458  function commander(address _client, uint _sku) public {\r... */\n    tag_3:\n      tag_5\n      0x04\n      dup1\n      calldatasize\n      sub\n      dup2\n      add\n      swap1\n      tag_6\n      swap2\n      swap1\n      tag_7\n      jump\t// in\n    tag_6:\n      tag_8\n      jump\t// in\n    tag_5:\n      stop\n        /* \"contracts/enumeration.sol\":466:526  function expedier(address _client) public {\r... */\n    tag_4:\n      tag_9\n      0x04\n      dup1\n      calldatasize\n      sub\n      dup2\n      add\n      swap1\n      tag_10\n      swap2\n      swap1\n      tag_11\n      jump\t// in\n    tag_10:\n      tag_12\n      jump\t// in\n    tag_9:\n      stop\n        /* \"contracts/enumeration.sol\":298:458  function commander(address _client, uint _sku) public {\r... */\n    tag_8:\n        /* \"contracts/enumeration.sol\":363:379  produit memory p */\n      0x00\n        /* \"contracts/enumeration.sol\":382:411  produit(_sku, etape.commande) */\n      mload(0x40)\n      dup1\n      0x40\n      add\n      0x40\n      mstore\n      dup1\n        /* \"contracts/enumeration.sol\":390:394  _sku */\n      dup4\n        /* \"contracts/enumeration.sol\":382:411  produit(_sku, etape.commande) */\n      dup2\n      mstore\n      0x20\n      add\n        /* \"contracts/enumeration.sol\":396:410  etape.commande */\n      0x00\n        /* \"contracts/enumeration.sol\":382:411  produit(_sku, etape.commande) */\n      0x02\n      dup2\n      gt\n      iszero\n      tag_14\n      jumpi\n      tag_15\n      tag_16\n      jump\t// in\n    tag_15:\n    tag_14:\n      dup2\n      mstore\n      pop\n        /* \"contracts/enumeration.sol\":363:411  produit memory p = produit(_sku, etape.commande) */\n      swap1\n      pop\n        /* \"contracts/enumeration.sol\":449:450  p */\n      dup1\n        /* \"contracts/enumeration.sol\":422:437  CommandesClient */\n      0x00\n        /* \"contracts/enumeration.sol\":422:446  CommandesClient[_client] */\n      dup1\n        /* \"contracts/enumeration.sol\":438:445  _client */\n      dup6\n        /* \"contracts/enumeration.sol\":422:446  CommandesClient[_client] */\n      0xffffffffffffffffffffffffffffffffffffffff\n      and\n      0xffffffffffffffffffffffffffffffffffffffff\n      and\n      dup2\n      mstore\n      0x20\n      add\n      swap1\n      dup2\n      mstore\n      0x20\n      add\n      0x00\n      keccak256\n        /* \"contracts/enumeration.sol\":422:450  CommandesClient[_client] = p */\n      0x00\n      dup3\n      add\n      mload\n      dup2\n      0x00\n      add\n      sstore\n      0x20\n      dup3\n      add\n      mload\n      dup2\n      0x01\n      add\n      exp(0x0100, 0x00)\n      dup2\n      sload\n      dup2\n      0xff\n      mul\n      not\n      and\n      swap1\n      dup4\n      0x02\n      dup2\n      gt\n      iszero\n      tag_17\n      jumpi\n      tag_18\n      tag_16\n      jump\t// in\n    tag_18:\n    tag_17:\n      mul\n      or\n      swap1\n      sstore\n      pop\n      swap1\n      pop\n      pop\n        /* \"contracts/enumeration.sol\":352:458  {\r... */\n      pop\n        /* \"contracts/enumeration.sol\":298:458  function commander(address _client, uint _sku) public {\r... */\n      pop\n      pop\n      jump\t// out\n        /* \"contracts/enumeration.sol\":466:526  function expedier(address _client) public {\r... */\n    tag_12:\n      pop\n      jump\t// out\n        /* \"#utility.yul\":7:146   */\n    tag_21:\n        /* \"#utility.yul\":53:58   */\n      0x00\n        /* \"#utility.yul\":91:97   */\n      dup2\n        /* \"#utility.yul\":78:98   */\n      calldataload\n        /* \"#utility.yul\":69:98   */\n      swap1\n      pop\n        /* \"#utility.yul\":107:140   */\n      tag_23\n        /* \"#utility.yul\":134:139   */\n      dup2\n        /* \"#utility.yul\":107:140   */\n      tag_24\n      jump\t// in\n    tag_23:\n        /* \"#utility.yul\":7:146   */\n      swap3\n      swap2\n      pop\n      pop\n      jump\t// out\n        /* \"#utility.yul\":152:291   */\n    tag_25:\n        /* \"#utility.yul\":198:203   */\n      0x00\n        /* \"#utility.yul\":236:242   */\n      dup2\n        /* \"#utility.yul\":223:243   */\n      calldataload\n        /* \"#utility.yul\":214:243   */\n      swap1\n      pop\n        /* \"#utility.yul\":252:285   */\n      tag_27\n        /* \"#utility.yul\":279:284   */\n      dup2\n        /* \"#utility.yul\":252:285   */\n      tag_28\n      jump\t// in\n    tag_27:\n        /* \"#utility.yul\":152:291   */\n      swap3\n      swap2\n      pop\n      pop\n      jump\t// out\n        /* \"#utility.yul\":297:626   */\n    tag_11:\n        /* \"#utility.yul\":356:362   */\n      0x00\n        /* \"#utility.yul\":405:407   */\n      0x20\n        /* \"#utility.yul\":393:402   */\n      dup3\n        /* \"#utility.yul\":384:391   */\n      dup5\n        /* \"#utility.yul\":380:403   */\n      sub\n        /* \"#utility.yul\":376:408   */\n      slt\n        /* \"#utility.yul\":373:492   */\n      iszero\n      tag_30\n      jumpi\n        /* \"#utility.yul\":411:490   */\n      tag_31\n      tag_32\n      jump\t// in\n    tag_31:\n        /* \"#utility.yul\":373:492   */\n    tag_30:\n        /* \"#utility.yul\":531:532   */\n      0x00\n        /* \"#utility.yul\":556:609   */\n      tag_33\n        /* \"#utility.yul\":601:608   */\n      dup5\n        /* \"#utility.yul\":592:598   */\n      dup3\n        /* \"#utility.yul\":581:590   */\n      dup6\n        /* \"#utility.yul\":577:599   */\n      add\n        /* \"#utility.yul\":556:609   */\n      tag_21\n      jump\t// in\n    tag_33:\n        /* \"#utility.yul\":546:609   */\n      swap2\n      pop\n        /* \"#utility.yul\":502:619   */\n      pop\n        /* \"#utility.yul\":297:626   */\n      swap3\n      swap2\n      pop\n      pop\n      jump\t// out\n        /* \"#utility.yul\":632:1106   */\n    tag_7:\n        /* \"#utility.yul\":700:706   */\n      0x00\n        /* \"#utility.yul\":708:714   */\n      dup1\n        /* \"#utility.yul\":757:759   */\n      0x40\n        /* \"#utility.yul\":745:754   */\n      dup4\n        /* \"#utility.yul\":736:743   */\n      dup6\n        /* \"#utility.yul\":732:755   */\n      sub\n        /* \"#utility.yul\":728:760   */\n      slt\n        /* \"#utility.yul\":725:844   */\n      iszero\n      tag_35\n      jumpi\n        /* \"#utility.yul\":763:842   */\n      tag_36\n      tag_32\n      jump\t// in\n    tag_36:\n        /* \"#utility.yul\":725:844   */\n    tag_35:\n        /* \"#utility.yul\":883:884   */\n      0x00\n        /* \"#utility.yul\":908:961   */\n      tag_37\n        /* \"#utility.yul\":953:960   */\n      dup6\n        /* \"#utility.yul\":944:950   */\n      dup3\n        /* \"#utility.yul\":933:942   */\n      dup7\n        /* \"#utility.yul\":929:951   */\n      add\n        /* \"#utility.yul\":908:961   */\n      tag_21\n      jump\t// in\n    tag_37:\n        /* \"#utility.yul\":898:961   */\n      swap3\n      pop\n        /* \"#utility.yul\":854:971   */\n      pop\n        /* \"#utility.yul\":1010:1012   */\n      0x20\n        /* \"#utility.yul\":1036:1089   */\n      tag_38\n        /* \"#utility.yul\":1081:1088   */\n      dup6\n        /* \"#utility.yul\":1072:1078   */\n      dup3\n        /* \"#utility.yul\":1061:1070   */\n      dup7\n        /* \"#utility.yul\":1057:1079   */\n      add\n        /* \"#utility.yul\":1036:1089   */\n      tag_25\n      jump\t// in\n    tag_38:\n        /* \"#utility.yul\":1026:1089   */\n      swap2\n      pop\n        /* \"#utility.yul\":981:1099   */\n      pop\n        /* \"#utility.yul\":632:1106   */\n      swap3\n      pop\n      swap3\n      swap1\n      pop\n      jump\t// out\n        /* \"#utility.yul\":1193:1289   */\n    tag_41:\n        /* \"#utility.yul\":1230:1237   */\n      0x00\n        /* \"#utility.yul\":1259:1283   */\n      tag_43\n        /* \"#utility.yul\":1277:1282   */\n      dup3\n        /* \"#utility.yul\":1259:1283   */\n      tag_44\n      jump\t// in\n    tag_43:\n        /* \"#utility.yul\":1248:1283   */\n      swap1\n      pop\n        /* \"#utility.yul\":1193:1289   */\n      swap2\n      swap1\n      pop\n      jump\t// out\n        /* \"#utility.yul\":1295:1421   */\n    tag_44:\n        /* \"#utility.yul\":1332:1339   */\n      0x00\n        /* \"#utility.yul\":1372:1414   */\n      0xffffffffffffffffffffffffffffffffffffffff\n        /* \"#utility.yul\":1365:1370   */\n      dup3\n        /* \"#utility.yul\":1361:1415   */\n      and\n        /* \"#utility.yul\":1350:1415   */\n      swap1\n      pop\n        /* \"#utility.yul\":1295:1421   */\n      swap2\n      swap1\n      pop\n      jump\t// out\n        /* \"#utility.yul\":1427:1504   */\n    tag_46:\n        /* \"#utility.yul\":1464:1471   */\n      0x00\n        /* \"#utility.yul\":1493:1498   */\n      dup2\n        /* \"#utility.yul\":1482:1498   */\n      swap1\n      pop\n        /* \"#utility.yul\":1427:1504   */\n      swap2\n      swap1\n      pop\n      jump\t// out\n        /* \"#utility.yul\":1510:1690   */\n    tag_16:\n        /* \"#utility.yul\":1558:1635   */\n      0x4e487b7100000000000000000000000000000000000000000000000000000000\n        /* \"#utility.yul\":1555:1556   */\n      0x00\n        /* \"#utility.yul\":1548:1636   */\n      mstore\n        /* \"#utility.yul\":1655:1659   */\n      0x21\n        /* \"#utility.yul\":1652:1653   */\n      0x04\n        /* \"#utility.yul\":1645:1660   */\n      mstore\n        /* \"#utility.yul\":1679:1683   */\n      0x24\n        /* \"#utility.yul\":1676:1677   */\n      0x00\n        /* \"#utility.yul\":1669:1684   */\n      revert\n        /* \"#utility.yul\":1819:1936   */\n    tag_32:\n        /* \"#utility.yul\":1928:1929   */\n      0x00\n        /* \"#utility.yul\":1925:1926   */\n      dup1\n        /* \"#utility.yul\":1918:1930   */\n      revert\n        /* \"#utility.yul\":1942:2064   */\n    tag_24:\n        /* \"#utility.yul\":2015:2039   */\n      tag_53\n        /* \"#utility.yul\":2033:2038   */\n      dup2\n        /* \"#utility.yul\":2015:2039   */\n      tag_41\n      jump\t// in\n    tag_53:\n        /* \"#utility.yul\":2008:2013   */\n      dup2\n        /* \"#utility.yul\":2005:2040   */\n      eq\n        /* \"#utility.yul\":1995:2058   */\n      tag_54\n      jumpi\n        /* \"#utility.yul\":2054:2055   */\n      0x00\n        /* \"#utility.yul\":2051:2052   */\n      dup1\n        /* \"#utility.yul\":2044:2056   */\n      revert\n        /* \"#utility.yul\":1995:2058   */\n    tag_54:\n        /* \"#utility.yul\":1942:2064   */\n      pop\n      jump\t// out\n        /* \"#utility.yul\":2070:2192   */\n    tag_28:\n        /* \"#utility.yul\":2143:2167   */\n      tag_56\n        /* \"#utility.yul\":2161:2166   */\n      dup2\n        /* \"#utility.yul\":2143:2167   */\n      tag_46\n      jump\t// in\n    tag_56:\n        /* \"#utility.yul\":2136:2141   */\n      dup2\n        /* \"#utility.yul\":2133:2168   */\n      eq\n        /* \"#utility.yul\":2123:2186   */\n      tag_57\n      jumpi\n        /* \"#utility.yul\":2182:2183   */\n      0x00\n        /* \"#utility.yul\":2179:2180   */\n      dup1\n        /* \"#utility.yul\":2172:2184   */\n      revert\n        /* \"#utility.yul\":2123:2186   */\n    tag_57:\n        /* \"#utility.yul\":2070:2192   */\n      pop\n      jump\t// out\n\n    auxdata: 0xa264697066735822122050d8a1ff8facd7cae3f4eba19c830a67f6da5bbaa1ef3ca798d1c64ee0212c6e64736f6c63430008070033\n}\n",
				"bytecode": {
					"linkReferences": {},
					"object": "608060405234801561001057600080fd5b5061028e806100206000396000f3fe608060405234801561001057600080fd5b50600436106100365760003560e01c8063178d2a7b1461003b578063ec1b521e14610057575b600080fd5b6100556004803603810190610050919061017a565b610073565b005b610071600480360381019061006c919061014d565b610120565b005b600060405180604001604052808381526020016000600281111561009a576100996101f6565b5b8152509050806000808573ffffffffffffffffffffffffffffffffffffffff1673ffffffffffffffffffffffffffffffffffffffff1681526020019081526020016000206000820151816000015560208201518160010160006101000a81548160ff02191690836002811115610113576101126101f6565b5b0217905550905050505050565b50565b6000813590506101328161022a565b92915050565b60008135905061014781610241565b92915050565b60006020828403121561016357610162610225565b5b600061017184828501610123565b91505092915050565b6000806040838503121561019157610190610225565b5b600061019f85828601610123565b92505060206101b085828601610138565b9150509250929050565b60006101c5826101cc565b9050919050565b600073ffffffffffffffffffffffffffffffffffffffff82169050919050565b6000819050919050565b7f4e487b7100000000000000000000000000000000000000000000000000000000600052602160045260246000fd5b600080fd5b610233816101ba565b811461023e57600080fd5b50565b61024a816101ec565b811461025557600080fd5b5056fea264697066735822122050d8a1ff8facd7cae3f4eba19c830a67f6da5bbaa1ef3ca798d1c64ee0212c6e64736f6c63430008070033",
					"opcodes": "PUSH1 0x80 PUSH1 0x40 MSTORE CALLVALUE DUP1 ISZERO PUSH2 0x10 JUMPI PUSH1 0x0 DUP1 REVERT JUMPDEST POP PUSH2 0x28E DUP1 PUSH2 0x20 PUSH1 0x0 CODECOPY PUSH1 0x0 RETURN INVALID PUSH1 0x80 PUSH1 0x40 MSTORE CALLVALUE DUP1 ISZERO PUSH2 0x10 JUMPI PUSH1 0x0 DUP1 REVERT JUMPDEST POP PUSH1 0x4 CALLDATASIZE LT PUSH2 0x36 JUMPI PUSH1 0x0 CALLDATALOAD PUSH1 0xE0 SHR DUP1 PUSH4 0x178D2A7B EQ PUSH2 0x3B JUMPI DUP1 PUSH4 0xEC1B521E EQ PUSH2 0x57 JUMPI JUMPDEST PUSH1 0x0 DUP1 REVERT JUMPDEST PUSH2 0x55 PUSH1 0x4 DUP1 CALLDATASIZE SUB DUP2 ADD SWAP1 PUSH2 0x50 SWAP2 SWAP1 PUSH2 0x17A JUMP JUMPDEST PUSH2 0x73 JUMP JUMPDEST STOP JUMPDEST PUSH2 0x71 PUSH1 0x4 DUP1 CALLDATASIZE SUB DUP2 ADD SWAP1 PUSH2 0x6C SWAP2 SWAP1 PUSH2 0x14D JUMP JUMPDEST PUSH2 0x120 JUMP JUMPDEST STOP JUMPDEST PUSH1 0x0 PUSH1 0x40 MLOAD DUP1 PUSH1 0x40 ADD PUSH1 0x40 MSTORE DUP1 DUP4 DUP2 MSTORE PUSH1 0x20 ADD PUSH1 0x0 PUSH1 0x2 DUP2 GT ISZERO PUSH2 0x9A JUMPI PUSH2 0x99 PUSH2 0x1F6 JUMP JUMPDEST JUMPDEST DUP2 MSTORE POP SWAP1 POP DUP1 PUSH1 0x0 DUP1 DUP6 PUSH20 0xFFFFFFFFFFFFFFFFFFFFFFFFFFFFFFFFFFFFFFFF AND PUSH20 0xFFFFFFFFFFFFFFFFFFFFFFFFFFFFFFFFFFFFFFFF AND DUP2 MSTORE PUSH1 0x20 ADD SWAP1 DUP2 MSTORE PUSH1 0x20 ADD PUSH1 0x0 KECCAK256 PUSH1 0x0 DUP3 ADD MLOAD DUP2 PUSH1 0x0 ADD SSTORE PUSH1 0x20 DUP3 ADD MLOAD DUP2 PUSH1 0x1 ADD PUSH1 0x0 PUSH2 0x100 EXP DUP2 SLOAD DUP2 PUSH1 0xFF MUL NOT AND SWAP1 DUP4 PUSH1 0x2 DUP2 GT ISZERO PUSH2 0x113 JUMPI PUSH2 0x112 PUSH2 0x1F6 JUMP JUMPDEST JUMPDEST MUL OR SWAP1 SSTORE POP SWAP1 POP POP POP POP POP JUMP JUMPDEST POP JUMP JUMPDEST PUSH1 0x0 DUP2 CALLDATALOAD SWAP1 POP PUSH2 0x132 DUP2 PUSH2 0x22A JUMP JUMPDEST SWAP3 SWAP2 POP POP JUMP JUMPDEST PUSH1 0x0 DUP2 CALLDATALOAD SWAP1 POP PUSH2 0x147 DUP2 PUSH2 0x241 JUMP JUMPDEST SWAP3 SWAP2 POP POP JUMP JUMPDEST PUSH1 0x0 PUSH1 0x20 DUP3 DUP5 SUB SLT ISZERO PUSH2 0x163 JUMPI PUSH2 0x162 PUSH2 0x225 JUMP JUMPDEST JUMPDEST PUSH1 0x0 PUSH2 0x171 DUP5 DUP3 DUP6 ADD PUSH2 0x123 JUMP JUMPDEST SWAP2 POP POP SWAP3 SWAP2 POP POP JUMP JUMPDEST PUSH1 0x0 DUP1 PUSH1 0x40 DUP4 DUP6 SUB SLT ISZERO PUSH2 0x191 JUMPI PUSH2 0x190 PUSH2 0x225 JUMP JUMPDEST JUMPDEST PUSH1 0x0 PUSH2 0x19F DUP6 DUP3 DUP7 ADD PUSH2 0x123 JUMP JUMPDEST SWAP3 POP POP PUSH1 0x20 PUSH2 0x1B0 DUP6 DUP3 DUP7 ADD PUSH2 0x138 JUMP JUMPDEST SWAP2 POP POP SWAP3 POP SWAP3 SWAP1 POP JUMP JUMPDEST PUSH1 0x0 PUSH2 0x1C5 DUP3 PUSH2 0x1CC JUMP JUMPDEST SWAP1 POP SWAP2 SWAP1 POP JUMP JUMPDEST PUSH1 0x0 PUSH20 0xFFFFFFFFFFFFFFFFFFFFFFFFFFFFFFFFFFFFFFFF DUP3 AND SWAP1 POP SWAP2 SWAP1 POP JUMP JUMPDEST PUSH1 0x0 DUP2 SWAP1 POP SWAP2 SWAP1 POP JUMP JUMPDEST PUSH32 0x4E487B7100000000000000000000000000000000000000000000000000000000 PUSH1 0x0 MSTORE PUSH1 0x21 PUSH1 0x4 MSTORE PUSH1 0x24 PUSH1 0x0 REVERT JUMPDEST PUSH1 0x0 DUP1 REVERT JUMPDEST PUSH2 0x233 DUP2 PUSH2 0x1BA JUMP JUMPDEST DUP2 EQ PUSH2 0x23E JUMPI PUSH1 0x0 DUP1 REVERT JUMPDEST POP JUMP JUMPDEST PUSH2 0x24A DUP2 PUSH2 0x1EC JUMP JUMPDEST DUP2 EQ PUSH2 0x255 JUMPI PUSH1 0x0 DUP1 REVERT JUMPDEST POP JUMP INVALID LOG2 PUSH5 0x6970667358 0x22 SLT KECCAK256 POP 0xD8 LOG1 SELFDESTRUCT DUP16 0xAC 0xD7 0xCA 0xE3 DELEGATECALL 0xEB LOG1 SWAP13 DUP4 EXP PUSH8 0xF6DA5BBAA1EF3CA7 SWAP9 0xD1 0xC6 0x4E 0xE0 0x21 0x2C PUSH15 0x64736F6C6343000807003300000000 "
				},
				"gasEstimates": {
					"creation": {
						"codeDepositCost": "130800",
						"executionCost": "177",
						"totalCost": "130977"
					},
					"external": {
						"commander(address,uint256)": "47227",
						"expedier(address)": "455"
					}
				},
				"methodIdentifiers": {
					"commander(address,uint256)": "178d2a7b",
					"expedier(address)": "ec1b521e"
				}
			},
			"storageLayout": {
				"storage": [
					{
						"astId": 16,
						"contract": "contracts/enumeration.sol:exoEnum",
						"label": "CommandesClient",
						"offset": 0,
						"slot": "0",
						"type": "t_mapping(t_address,t_struct(produit)11_storage)"
					}
				],
				"types": {
					"t_address": {
						"encoding": "inplace",
						"label": "address",
						"numberOfBytes": "20"
					},
					"t_enum(etape)5": {
						"encoding": "inplace",
						"label": "enum exoEnum.etape",
						"numberOfBytes": "1"
					},
					"t_mapping(t_address,t_struct(produit)11_storage)": {
						"encoding": "mapping",
						"key": "t_address",
						"label": "mapping(address => struct exoEnum.produit)",
						"numberOfBytes": "32",
						"value": "t_struct(produit)11_storage"
					},
					"t_struct(produit)11_storage": {
						"encoding": "inplace",
						"label": "struct exoEnum.produit",
						"members": [
							{
								"astId": 7,
								"contract": "contracts/enumeration.sol:exoEnum",
								"label": "_SKU",
								"offset": 0,
								"slot": "0",
								"type": "t_uint256"
							},
							{
								"astId": 10,
								"contract": "contracts/enumeration.sol:exoEnum",
								"label": "_etape",
								"offset": 0,
								"slot": "1",
								"type": "t_enum(etape)5"
							}
						],
						"numberOfBytes": "64"
					},
					"t_uint256": {
						"encoding": "inplace",
						"label": "uint256",
						"numberOfBytes": "32"
					}
				}
			},
			"userdoc": {
				"kind": "user",
				"methods": {},
				"version": 1
			}
		}
	}
}