{
	"contracts/ExoSupermarche.sol": {
		"supermarche": {
			"abi": [
				{
					"inputs": [
						{
							"internalType": "string",
							"name": "_nom",
							"type": "string"
						}
					],
					"name": "createClient",
					"outputs": [],
					"stateMutability": "nonpayable",
					"type": "function"
				},
				{
					"inputs": [
						{
							"internalType": "string",
							"name": "_libelle",
							"type": "string"
						},
						{
							"internalType": "int16",
							"name": "_prix",
							"type": "int16"
						}
					],
					"name": "createProduit",
					"outputs": [],
					"stateMutability": "nonpayable",
					"type": "function"
				},
				{
					"inputs": [],
					"name": "getAllClients",
					"outputs": [
						{
							"components": [
								{
									"internalType": "uint256",
									"name": "_id",
									"type": "uint256"
								},
								{
									"internalType": "string",
									"name": "_nom",
									"type": "string"
								},
								{
									"components": [
										{
											"internalType": "uint256",
											"name": "_id",
											"type": "uint256"
										},
										{
											"internalType": "string",
											"name": "_libelle",
											"type": "string"
										},
										{
											"internalType": "int16",
											"name": "_prix",
											"type": "int16"
										}
									],
									"internalType": "struct supermarche.productData[]",
									"name": "panier",
									"type": "tuple[]"
								}
							],
							"internalType": "struct supermarche.clientData[]",
							"name": "",
							"type": "tuple[]"
						}
					],
					"stateMutability": "view",
					"type": "function"
				},
				{
					"inputs": [],
					"name": "getAllProducts",
					"outputs": [
						{
							"components": [
								{
									"internalType": "uint256",
									"name": "_id",
									"type": "uint256"
								},
								{
									"internalType": "string",
									"name": "_libelle",
									"type": "string"
								},
								{
									"internalType": "int16",
									"name": "_prix",
									"type": "int16"
								}
							],
							"internalType": "struct supermarche.productData[]",
							"name": "",
							"type": "tuple[]"
						}
					],
					"stateMutability": "view",
					"type": "function"
				},
				{
					"inputs": [
						{
							"internalType": "uint256",
							"name": "_id",
							"type": "uint256"
						}
					],
					"name": "getProductById",
					"outputs": [
						{
							"components": [
								{
									"internalType": "uint256",
									"name": "_id",
									"type": "uint256"
								},
								{
									"internalType": "string",
									"name": "_libelle",
									"type": "string"
								},
								{
									"internalType": "int16",
									"name": "_prix",
									"type": "int16"
								}
							],
							"internalType": "struct supermarche.productData",
							"name": "",
							"type": "tuple"
						}
					],
					"stateMutability": "view",
					"type": "function"
				},
				{
					"inputs": [
						{
							"internalType": "string",
							"name": "_name",
							"type": "string"
						}
					],
					"name": "getProductByName",
					"outputs": [
						{
							"components": [
								{
									"internalType": "uint256",
									"name": "_id",
									"type": "uint256"
								},
								{
									"internalType": "string",
									"name": "_libelle",
									"type": "string"
								},
								{
									"internalType": "int16",
									"name": "_prix",
									"type": "int16"
								}
							],
							"internalType": "struct supermarche.productData",
							"name": "",
							"type": "tuple"
						}
					],
					"stateMutability": "view",
					"type": "function"
				},
				{
					"inputs": [
						{
							"internalType": "uint256",
							"name": "",
							"type": "uint256"
						}
					],
					"name": "produitById",
					"outputs": [
						{
							"internalType": "uint256",
							"name": "_id",
							"type": "uint256"
						},
						{
							"internalType": "string",
							"name": "_libelle",
							"type": "string"
						},
						{
							"internalType": "int16",
							"name": "_prix",
							"type": "int16"
						}
					],
					"stateMutability": "view",
					"type": "function"
				}
			],
			"devdoc": {
				"kind": "dev",
				"methods": {},
				"version": 1
			},
			"evm": {
				"assembly": "    /* \"contracts/ExoSupermarche.sol\":59:1346  contract supermarche {\r... */\n  mstore(0x40, 0x80)\n  callvalue\n  dup1\n  iszero\n  tag_1\n  jumpi\n  0x00\n  dup1\n  revert\ntag_1:\n  pop\n  dataSize(sub_0)\n  dup1\n  dataOffset(sub_0)\n  0x00\n  codecopy\n  0x00\n  return\nstop\n\nsub_0: assembly {\n        /* \"contracts/ExoSupermarche.sol\":59:1346  contract supermarche {\r... */\n      mstore(0x40, 0x80)\n      callvalue\n      dup1\n      iszero\n      tag_1\n      jumpi\n      0x00\n      dup1\n      revert\n    tag_1:\n      pop\n      jumpi(tag_2, lt(calldatasize, 0x04))\n      shr(0xe0, calldataload(0x00))\n      dup1\n      0x51401eef\n      gt\n      tag_10\n      jumpi\n      dup1\n      0x51401eef\n      eq\n      tag_6\n      jumpi\n      dup1\n      0xd4290f83\n      eq\n      tag_7\n      jumpi\n      dup1\n      0xe4d7a3d4\n      eq\n      tag_8\n      jumpi\n      dup1\n      0xe88e9f0f\n      eq\n      tag_9\n      jumpi\n      jump(tag_2)\n    tag_10:\n      dup1\n      0x02ee3a52\n      eq\n      tag_3\n      jumpi\n      dup1\n      0x3f48d969\n      eq\n      tag_4\n      jumpi\n      dup1\n      0x3f70c2b4\n      eq\n      tag_5\n      jumpi\n    tag_2:\n      0x00\n      dup1\n      revert\n        /* \"contracts/ExoSupermarche.sol\":1047:1152  function getAllProducts() public view returns(productData[] memory) {\r... */\n    tag_3:\n      tag_11\n      tag_12\n      jump\t// in\n    tag_11:\n      mload(0x40)\n      tag_13\n      swap2\n      swap1\n      tag_14\n      jump\t// in\n    tag_13:\n      mload(0x40)\n      dup1\n      swap2\n      sub\n      swap1\n      return\n        /* \"contracts/ExoSupermarche.sol\":417:464  mapping(uint => productData) public produitById */\n    tag_4:\n      tag_15\n      0x04\n      dup1\n      calldatasize\n      sub\n      dup2\n      add\n      swap1\n      tag_16\n      swap2\n      swap1\n      tag_17\n      jump\t// in\n    tag_16:\n      tag_18\n      jump\t// in\n    tag_15:\n      mload(0x40)\n      tag_19\n      swap4\n      swap3\n      swap2\n      swap1\n      tag_20\n      jump\t// in\n    tag_19:\n      mload(0x40)\n      dup1\n      swap2\n      sub\n      swap1\n      return\n        /* \"contracts/ExoSupermarche.sol\":782:898  function getProductById(uint _id) public view returns(productData memory) {\r... */\n    tag_5:\n      tag_21\n      0x04\n      dup1\n      calldatasize\n      sub\n      dup2\n      add\n      swap1\n      tag_22\n      swap2\n      swap1\n      tag_17\n      jump\t// in\n    tag_22:\n      tag_23\n      jump\t// in\n    tag_21:\n      mload(0x40)\n      tag_24\n      swap2\n      swap1\n      tag_25\n      jump\t// in\n    tag_24:\n      mload(0x40)\n      dup1\n      swap2\n      sub\n      swap1\n      return\n        /* \"contracts/ExoSupermarche.sol\":560:774  function createProduit(string memory _libelle, int16 _prix) public {\r... */\n    tag_6:\n      tag_26\n      0x04\n      dup1\n      calldatasize\n      sub\n      dup2\n      add\n      swap1\n      tag_27\n      swap2\n      swap1\n      tag_28\n      jump\t// in\n    tag_27:\n      tag_29\n      jump\t// in\n    tag_26:\n      stop\n        /* \"contracts/ExoSupermarche.sol\":906:1039  function getProductByName(string memory _name) public view returns(productData memory) {\r... */\n    tag_7:\n      tag_30\n      0x04\n      dup1\n      calldatasize\n      sub\n      dup2\n      add\n      swap1\n      tag_31\n      swap2\n      swap1\n      tag_32\n      jump\t// in\n    tag_31:\n      tag_33\n      jump\t// in\n    tag_30:\n      mload(0x40)\n      tag_34\n      swap2\n      swap1\n      tag_25\n      jump\t// in\n    tag_34:\n      mload(0x40)\n      dup1\n      swap2\n      sub\n      swap1\n      return\n        /* \"contracts/ExoSupermarche.sol\":1237:1339  function getAllClients() public view returns(clientData[] memory) {\r... */\n    tag_8:\n      tag_35\n      tag_36\n      jump\t// in\n    tag_35:\n      mload(0x40)\n      tag_37\n      swap2\n      swap1\n      tag_38\n      jump\t// in\n    tag_37:\n      mload(0x40)\n      dup1\n      swap2\n      sub\n      swap1\n      return\n        /* \"contracts/ExoSupermarche.sol\":1160:1229  function createClient(string memory _nom) public {\r... */\n    tag_9:\n      tag_39\n      0x04\n      dup1\n      calldatasize\n      sub\n      dup2\n      add\n      swap1\n      tag_40\n      swap2\n      swap1\n      tag_32\n      jump\t// in\n    tag_40:\n      tag_41\n      jump\t// in\n    tag_39:\n      stop\n        /* \"contracts/ExoSupermarche.sol\":1047:1152  function getAllProducts() public view returns(productData[] memory) {\r... */\n    tag_12:\n        /* \"contracts/ExoSupermarche.sol\":1093:1113  productData[] memory */\n      0x60\n        /* \"contracts/ExoSupermarche.sol\":1133:1144  AllProduits */\n      0x00\n        /* \"contracts/ExoSupermarche.sol\":1126:1144  return AllProduits */\n      dup1\n      sload\n      dup1\n      0x20\n      mul\n      0x20\n      add\n      mload(0x40)\n      swap1\n      dup2\n      add\n      0x40\n      mstore\n      dup1\n      swap3\n      swap2\n      swap1\n      dup2\n      dup2\n      mstore\n      0x20\n      add\n      0x00\n      swap1\n    tag_43:\n      dup3\n      dup3\n      lt\n      iszero\n      tag_44\n      jumpi\n      dup4\n      dup3\n      swap1\n      0x00\n      mstore\n      keccak256(0x00, 0x20)\n      swap1\n      0x03\n      mul\n      add\n      mload(0x40)\n      dup1\n      0x60\n      add\n      0x40\n      mstore\n      swap1\n      dup2\n      0x00\n      dup3\n      add\n      sload\n      dup2\n      mstore\n      0x20\n      add\n      0x01\n      dup3\n      add\n      dup1\n      sload\n      tag_46\n      swap1\n      tag_47\n      jump\t// in\n    tag_46:\n      dup1\n      0x1f\n      add\n      0x20\n      dup1\n      swap2\n      div\n      mul\n      0x20\n      add\n      mload(0x40)\n      swap1\n      dup2\n      add\n      0x40\n      mstore\n      dup1\n      swap3\n      swap2\n      swap1\n      dup2\n      dup2\n      mstore\n      0x20\n      add\n      dup3\n      dup1\n      sload\n      tag_48\n      swap1\n      tag_47\n      jump\t// in\n    tag_48:\n      dup1\n      iszero\n      tag_49\n      jumpi\n      dup1\n      0x1f\n      lt\n      tag_50\n      jumpi\n      0x0100\n      dup1\n      dup4\n      sload\n      div\n      mul\n      dup4\n      mstore\n      swap2\n      0x20\n      add\n      swap2\n      jump(tag_49)\n    tag_50:\n      dup3\n      add\n      swap2\n      swap1\n      0x00\n      mstore\n      keccak256(0x00, 0x20)\n      swap1\n    tag_51:\n      dup2\n      sload\n      dup2\n      mstore\n      swap1\n      0x01\n      add\n      swap1\n      0x20\n      add\n      dup1\n      dup4\n      gt\n      tag_51\n      jumpi\n      dup3\n      swap1\n      sub\n      0x1f\n      and\n      dup3\n      add\n      swap2\n    tag_49:\n      pop\n      pop\n      pop\n      pop\n      pop\n      dup2\n      mstore\n      0x20\n      add\n      0x02\n      dup3\n      add\n      0x00\n      swap1\n      sload\n      swap1\n      0x0100\n      exp\n      swap1\n      div\n      0x01\n      signextend\n      0x01\n      signextend\n      0x01\n      signextend\n      dup2\n      mstore\n      pop\n      pop\n      dup2\n      mstore\n      0x20\n      add\n      swap1\n      0x01\n      add\n      swap1\n      jump(tag_43)\n    tag_44:\n      pop\n      pop\n      pop\n      pop\n      swap1\n      pop\n        /* \"contracts/ExoSupermarche.sol\":1047:1152  function getAllProducts() public view returns(productData[] memory) {\r... */\n      swap1\n      jump\t// out\n        /* \"contracts/ExoSupermarche.sol\":417:464  mapping(uint => productData) public produitById */\n    tag_18:\n      mstore(0x20, 0x03)\n      dup1\n      0x00\n      mstore\n      keccak256(0x00, 0x40)\n      0x00\n      swap2\n      pop\n      swap1\n      pop\n      dup1\n      0x00\n      add\n      sload\n      swap1\n      dup1\n      0x01\n      add\n      dup1\n      sload\n      tag_52\n      swap1\n      tag_47\n      jump\t// in\n    tag_52:\n      dup1\n      0x1f\n      add\n      0x20\n      dup1\n      swap2\n      div\n      mul\n      0x20\n      add\n      mload(0x40)\n      swap1\n      dup2\n      add\n      0x40\n      mstore\n      dup1\n      swap3\n      swap2\n      swap1\n      dup2\n      dup2\n      mstore\n      0x20\n      add\n      dup3\n      dup1\n      sload\n      tag_53\n      swap1\n      tag_47\n      jump\t// in\n    tag_53:\n      dup1\n      iszero\n      tag_54\n      jumpi\n      dup1\n      0x1f\n      lt\n      tag_55\n      jumpi\n      0x0100\n      dup1\n      dup4\n      sload\n      div\n      mul\n      dup4\n      mstore\n      swap2\n      0x20\n      add\n      swap2\n      jump(tag_54)\n    tag_55:\n      dup3\n      add\n      swap2\n      swap1\n      0x00\n      mstore\n      keccak256(0x00, 0x20)\n      swap1\n    tag_56:\n      dup2\n      sload\n      dup2\n      mstore\n      swap1\n      0x01\n      add\n      swap1\n      0x20\n      add\n      dup1\n      dup4\n      gt\n      tag_56\n      jumpi\n      dup3\n      swap1\n      sub\n      0x1f\n      and\n      dup3\n      add\n      swap2\n    tag_54:\n      pop\n      pop\n      pop\n      pop\n      pop\n      swap1\n      dup1\n      0x02\n      add\n      0x00\n      swap1\n      sload\n      swap1\n      0x0100\n      exp\n      swap1\n      div\n      0x01\n      signextend\n      swap1\n      pop\n      dup4\n      jump\t// out\n        /* \"contracts/ExoSupermarche.sol\":782:898  function getProductById(uint _id) public view returns(productData memory) {\r... */\n    tag_23:\n        /* \"contracts/ExoSupermarche.sol\":836:854  productData memory */\n      tag_57\n      tag_58\n      jump\t// in\n    tag_57:\n        /* \"contracts/ExoSupermarche.sol\":874:885  produitById */\n      0x03\n        /* \"contracts/ExoSupermarche.sol\":874:890  produitById[_id] */\n      0x00\n        /* \"contracts/ExoSupermarche.sol\":886:889  _id */\n      dup4\n        /* \"contracts/ExoSupermarche.sol\":874:890  produitById[_id] */\n      dup2\n      mstore\n      0x20\n      add\n      swap1\n      dup2\n      mstore\n      0x20\n      add\n      0x00\n      keccak256\n        /* \"contracts/ExoSupermarche.sol\":867:890  return produitById[_id] */\n      mload(0x40)\n      dup1\n      0x60\n      add\n      0x40\n      mstore\n      swap1\n      dup2\n      0x00\n      dup3\n      add\n      sload\n      dup2\n      mstore\n      0x20\n      add\n      0x01\n      dup3\n      add\n      dup1\n      sload\n      tag_60\n      swap1\n      tag_47\n      jump\t// in\n    tag_60:\n      dup1\n      0x1f\n      add\n      0x20\n      dup1\n      swap2\n      div\n      mul\n      0x20\n      add\n      mload(0x40)\n      swap1\n      dup2\n      add\n      0x40\n      mstore\n      dup1\n      swap3\n      swap2\n      swap1\n      dup2\n      dup2\n      mstore\n      0x20\n      add\n      dup3\n      dup1\n      sload\n      tag_61\n      swap1\n      tag_47\n      jump\t// in\n    tag_61:\n      dup1\n      iszero\n      tag_62\n      jumpi\n      dup1\n      0x1f\n      lt\n      tag_63\n      jumpi\n      0x0100\n      dup1\n      dup4\n      sload\n      div\n      mul\n      dup4\n      mstore\n      swap2\n      0x20\n      add\n      swap2\n      jump(tag_62)\n    tag_63:\n      dup3\n      add\n      swap2\n      swap1\n      0x00\n      mstore\n      keccak256(0x00, 0x20)\n      swap1\n    tag_64:\n      dup2\n      sload\n      dup2\n      mstore\n      swap1\n      0x01\n      add\n      swap1\n      0x20\n      add\n      dup1\n      dup4\n      gt\n      tag_64\n      jumpi\n      dup3\n      swap1\n      sub\n      0x1f\n      and\n      dup3\n      add\n      swap2\n    tag_62:\n      pop\n      pop\n      pop\n      pop\n      pop\n      dup2\n      mstore\n      0x20\n      add\n      0x02\n      dup3\n      add\n      0x00\n      swap1\n      sload\n      swap1\n      0x0100\n      exp\n      swap1\n      div\n      0x01\n      signextend\n      0x01\n      signextend\n      0x01\n      signextend\n      dup2\n      mstore\n      pop\n      pop\n      swap1\n      pop\n        /* \"contracts/ExoSupermarche.sol\":782:898  function getProductById(uint _id) public view returns(productData memory) {\r... */\n      swap2\n      swap1\n      pop\n      jump\t// out\n        /* \"contracts/ExoSupermarche.sol\":560:774  function createProduit(string memory _libelle, int16 _prix) public {\r... */\n    tag_29:\n        /* \"contracts/ExoSupermarche.sol\":638:645  uint id */\n      0x00\n        /* \"contracts/ExoSupermarche.sol\":669:670  1 */\n      0x01\n        /* \"contracts/ExoSupermarche.sol\":648:659  AllProduits */\n      0x00\n        /* \"contracts/ExoSupermarche.sol\":648:666  AllProduits.length */\n      dup1\n      sload\n      swap1\n      pop\n        /* \"contracts/ExoSupermarche.sol\":648:670  AllProduits.length + 1 */\n      tag_66\n      swap2\n      swap1\n      tag_67\n      jump\t// in\n    tag_66:\n        /* \"contracts/ExoSupermarche.sol\":638:670  uint id = AllProduits.length + 1 */\n      swap1\n      pop\n        /* \"contracts/ExoSupermarche.sol\":681:701  productData memory p */\n      0x00\n        /* \"contracts/ExoSupermarche.sol\":704:736  productData(id, _libelle, _prix) */\n      mload(0x40)\n      dup1\n      0x60\n      add\n      0x40\n      mstore\n      dup1\n        /* \"contracts/ExoSupermarche.sol\":716:718  id */\n      dup4\n        /* \"contracts/ExoSupermarche.sol\":704:736  productData(id, _libelle, _prix) */\n      dup2\n      mstore\n      0x20\n      add\n        /* \"contracts/ExoSupermarche.sol\":720:728  _libelle */\n      dup6\n        /* \"contracts/ExoSupermarche.sol\":704:736  productData(id, _libelle, _prix) */\n      dup2\n      mstore\n      0x20\n      add\n        /* \"contracts/ExoSupermarche.sol\":730:735  _prix */\n      dup5\n        /* \"contracts/ExoSupermarche.sol\":704:736  productData(id, _libelle, _prix) */\n      0x01\n      signextend\n      dup2\n      mstore\n      pop\n        /* \"contracts/ExoSupermarche.sol\":681:736  productData memory p = productData(id, _libelle, _prix) */\n      swap1\n      pop\n        /* \"contracts/ExoSupermarche.sol\":747:758  AllProduits */\n      0x00\n        /* \"contracts/ExoSupermarche.sol\":764:765  p */\n      dup2\n        /* \"contracts/ExoSupermarche.sol\":747:766  AllProduits.push(p) */\n      swap1\n      dup1\n      0x01\n      dup2\n      sload\n      add\n      dup1\n      dup3\n      sstore\n      dup1\n      swap2\n      pop\n      pop\n      0x01\n      swap1\n      sub\n      swap1\n      0x00\n      mstore\n      keccak256(0x00, 0x20)\n      swap1\n      0x03\n      mul\n      add\n      0x00\n      swap1\n      swap2\n      swap1\n      swap2\n      swap1\n      swap2\n      pop\n      0x00\n      dup3\n      add\n      mload\n      dup2\n      0x00\n      add\n      sstore\n      0x20\n      dup3\n      add\n      mload\n      dup2\n      0x01\n      add\n      swap1\n      dup1\n      mload\n      swap1\n      0x20\n      add\n      swap1\n      tag_69\n      swap3\n      swap2\n      swap1\n      tag_70\n      jump\t// in\n    tag_69:\n      pop\n      0x40\n      dup3\n      add\n      mload\n      dup2\n      0x02\n      add\n      exp(0x0100, 0x00)\n      dup2\n      sload\n      dup2\n      0xffff\n      mul\n      not\n      and\n      swap1\n      dup4\n      0x01\n      signextend\n      0xffff\n      and\n      mul\n      or\n      swap1\n      sstore\n      pop\n      pop\n      pop\n        /* \"contracts/ExoSupermarche.sol\":627:774  {\r... */\n      pop\n      pop\n        /* \"contracts/ExoSupermarche.sol\":560:774  function createProduit(string memory _libelle, int16 _prix) public {\r... */\n      pop\n      pop\n      jump\t// out\n        /* \"contracts/ExoSupermarche.sol\":906:1039  function getProductByName(string memory _name) public view returns(productData memory) {\r... */\n    tag_33:\n        /* \"contracts/ExoSupermarche.sol\":973:991  productData memory */\n      tag_71\n      tag_58\n      jump\t// in\n    tag_71:\n        /* \"contracts/ExoSupermarche.sol\":1011:1024  produitByName */\n      0x04\n        /* \"contracts/ExoSupermarche.sol\":1025:1030  _name */\n      dup3\n        /* \"contracts/ExoSupermarche.sol\":1011:1031  produitByName[_name] */\n      mload(0x40)\n      tag_73\n      swap2\n      swap1\n      tag_74\n      jump\t// in\n    tag_73:\n      swap1\n      dup2\n      mstore\n      0x20\n      add\n      mload(0x40)\n      dup1\n      swap2\n      sub\n      swap1\n      keccak256\n        /* \"contracts/ExoSupermarche.sol\":1004:1031  return produitByName[_name] */\n      mload(0x40)\n      dup1\n      0x60\n      add\n      0x40\n      mstore\n      swap1\n      dup2\n      0x00\n      dup3\n      add\n      sload\n      dup2\n      mstore\n      0x20\n      add\n      0x01\n      dup3\n      add\n      dup1\n      sload\n      tag_75\n      swap1\n      tag_47\n      jump\t// in\n    tag_75:\n      dup1\n      0x1f\n      add\n      0x20\n      dup1\n      swap2\n      div\n      mul\n      0x20\n      add\n      mload(0x40)\n      swap1\n      dup2\n      add\n      0x40\n      mstore\n      dup1\n      swap3\n      swap2\n      swap1\n      dup2\n      dup2\n      mstore\n      0x20\n      add\n      dup3\n      dup1\n      sload\n      tag_76\n      swap1\n      tag_47\n      jump\t// in\n    tag_76:\n      dup1\n      iszero\n      tag_77\n      jumpi\n      dup1\n      0x1f\n      lt\n      tag_78\n      jumpi\n      0x0100\n      dup1\n      dup4\n      sload\n      div\n      mul\n      dup4\n      mstore\n      swap2\n      0x20\n      add\n      swap2\n      jump(tag_77)\n    tag_78:\n      dup3\n      add\n      swap2\n      swap1\n      0x00\n      mstore\n      keccak256(0x00, 0x20)\n      swap1\n    tag_79:\n      dup2\n      sload\n      dup2\n      mstore\n      swap1\n      0x01\n      add\n      swap1\n      0x20\n      add\n      dup1\n      dup4\n      gt\n      tag_79\n      jumpi\n      dup3\n      swap1\n      sub\n      0x1f\n      and\n      dup3\n      add\n      swap2\n    tag_77:\n      pop\n      pop\n      pop\n      pop\n      pop\n      dup2\n      mstore\n      0x20\n      add\n      0x02\n      dup3\n      add\n      0x00\n      swap1\n      sload\n      swap1\n      0x0100\n      exp\n      swap1\n      div\n      0x01\n      signextend\n      0x01\n      signextend\n      0x01\n      signextend\n      dup2\n      mstore\n      pop\n      pop\n      swap1\n      pop\n        /* \"contracts/ExoSupermarche.sol\":906:1039  function getProductByName(string memory _name) public view returns(productData memory) {\r... */\n      swap2\n      swap1\n      pop\n      jump\t// out\n        /* \"contracts/ExoSupermarche.sol\":1237:1339  function getAllClients() public view returns(clientData[] memory) {\r... */\n    tag_36:\n        /* \"contracts/ExoSupermarche.sol\":1282:1301  clientData[] memory */\n      0x60\n        /* \"contracts/ExoSupermarche.sol\":1321:1331  AllClients */\n      0x01\n        /* \"contracts/ExoSupermarche.sol\":1314:1331  return AllClients */\n      dup1\n      sload\n      dup1\n      0x20\n      mul\n      0x20\n      add\n      mload(0x40)\n      swap1\n      dup2\n      add\n      0x40\n      mstore\n      dup1\n      swap3\n      swap2\n      swap1\n      dup2\n      dup2\n      mstore\n      0x20\n      add\n      0x00\n      swap1\n    tag_81:\n      dup3\n      dup3\n      lt\n      iszero\n      tag_82\n      jumpi\n      dup4\n      dup3\n      swap1\n      0x00\n      mstore\n      keccak256(0x00, 0x20)\n      swap1\n      0x03\n      mul\n      add\n      mload(0x40)\n      dup1\n      0x60\n      add\n      0x40\n      mstore\n      swap1\n      dup2\n      0x00\n      dup3\n      add\n      sload\n      dup2\n      mstore\n      0x20\n      add\n      0x01\n      dup3\n      add\n      dup1\n      sload\n      tag_84\n      swap1\n      tag_47\n      jump\t// in\n    tag_84:\n      dup1\n      0x1f\n      add\n      0x20\n      dup1\n      swap2\n      div\n      mul\n      0x20\n      add\n      mload(0x40)\n      swap1\n      dup2\n      add\n      0x40\n      mstore\n      dup1\n      swap3\n      swap2\n      swap1\n      dup2\n      dup2\n      mstore\n      0x20\n      add\n      dup3\n      dup1\n      sload\n      tag_85\n      swap1\n      tag_47\n      jump\t// in\n    tag_85:\n      dup1\n      iszero\n      tag_86\n      jumpi\n      dup1\n      0x1f\n      lt\n      tag_87\n      jumpi\n      0x0100\n      dup1\n      dup4\n      sload\n      div\n      mul\n      dup4\n      mstore\n      swap2\n      0x20\n      add\n      swap2\n      jump(tag_86)\n    tag_87:\n      dup3\n      add\n      swap2\n      swap1\n      0x00\n      mstore\n      keccak256(0x00, 0x20)\n      swap1\n    tag_88:\n      dup2\n      sload\n      dup2\n      mstore\n      swap1\n      0x01\n      add\n      swap1\n      0x20\n      add\n      dup1\n      dup4\n      gt\n      tag_88\n      jumpi\n      dup3\n      swap1\n      sub\n      0x1f\n      and\n      dup3\n      add\n      swap2\n    tag_86:\n      pop\n      pop\n      pop\n      pop\n      pop\n      dup2\n      mstore\n      0x20\n      add\n      0x02\n      dup3\n      add\n      dup1\n      sload\n      dup1\n      0x20\n      mul\n      0x20\n      add\n      mload(0x40)\n      swap1\n      dup2\n      add\n      0x40\n      mstore\n      dup1\n      swap3\n      swap2\n      swap1\n      dup2\n      dup2\n      mstore\n      0x20\n      add\n      0x00\n      swap1\n    tag_89:\n      dup3\n      dup3\n      lt\n      iszero\n      tag_90\n      jumpi\n      dup4\n      dup3\n      swap1\n      0x00\n      mstore\n      keccak256(0x00, 0x20)\n      swap1\n      0x03\n      mul\n      add\n      mload(0x40)\n      dup1\n      0x60\n      add\n      0x40\n      mstore\n      swap1\n      dup2\n      0x00\n      dup3\n      add\n      sload\n      dup2\n      mstore\n      0x20\n      add\n      0x01\n      dup3\n      add\n      dup1\n      sload\n      tag_92\n      swap1\n      tag_47\n      jump\t// in\n    tag_92:\n      dup1\n      0x1f\n      add\n      0x20\n      dup1\n      swap2\n      div\n      mul\n      0x20\n      add\n      mload(0x40)\n      swap1\n      dup2\n      add\n      0x40\n      mstore\n      dup1\n      swap3\n      swap2\n      swap1\n      dup2\n      dup2\n      mstore\n      0x20\n      add\n      dup3\n      dup1\n      sload\n      tag_93\n      swap1\n      tag_47\n      jump\t// in\n    tag_93:\n      dup1\n      iszero\n      tag_94\n      jumpi\n      dup1\n      0x1f\n      lt\n      tag_95\n      jumpi\n      0x0100\n      dup1\n      dup4\n      sload\n      div\n      mul\n      dup4\n      mstore\n      swap2\n      0x20\n      add\n      swap2\n      jump(tag_94)\n    tag_95:\n      dup3\n      add\n      swap2\n      swap1\n      0x00\n      mstore\n      keccak256(0x00, 0x20)\n      swap1\n    tag_96:\n      dup2\n      sload\n      dup2\n      mstore\n      swap1\n      0x01\n      add\n      swap1\n      0x20\n      add\n      dup1\n      dup4\n      gt\n      tag_96\n      jumpi\n      dup3\n      swap1\n      sub\n      0x1f\n      and\n      dup3\n      add\n      swap2\n    tag_94:\n      pop\n      pop\n      pop\n      pop\n      pop\n      dup2\n      mstore\n      0x20\n      add\n      0x02\n      dup3\n      add\n      0x00\n      swap1\n      sload\n      swap1\n      0x0100\n      exp\n      swap1\n      div\n      0x01\n      signextend\n      0x01\n      signextend\n      0x01\n      signextend\n      dup2\n      mstore\n      pop\n      pop\n      dup2\n      mstore\n      0x20\n      add\n      swap1\n      0x01\n      add\n      swap1\n      jump(tag_89)\n    tag_90:\n      pop\n      pop\n      pop\n      pop\n      dup2\n      mstore\n      pop\n      pop\n      dup2\n      mstore\n      0x20\n      add\n      swap1\n      0x01\n      add\n      swap1\n      jump(tag_81)\n    tag_82:\n      pop\n      pop\n      pop\n      pop\n      swap1\n      pop\n        /* \"contracts/ExoSupermarche.sol\":1237:1339  function getAllClients() public view returns(clientData[] memory) {\r... */\n      swap1\n      jump\t// out\n        /* \"contracts/ExoSupermarche.sol\":1160:1229  function createClient(string memory _nom) public {\r... */\n    tag_41:\n      pop\n      jump\t// out\n    tag_58:\n      mload(0x40)\n      dup1\n      0x60\n      add\n      0x40\n      mstore\n      dup1\n      0x00\n      dup2\n      mstore\n      0x20\n      add\n      0x60\n      dup2\n      mstore\n      0x20\n      add\n      signextend(0x01, 0x00)\n      dup2\n      mstore\n      pop\n      swap1\n      jump\t// out\n    tag_70:\n      dup3\n      dup1\n      sload\n      tag_98\n      swap1\n      tag_47\n      jump\t// in\n    tag_98:\n      swap1\n      0x00\n      mstore\n      keccak256(0x00, 0x20)\n      swap1\n      0x1f\n      add\n      0x20\n      swap1\n      div\n      dup2\n      add\n      swap3\n      dup3\n      tag_100\n      jumpi\n      0x00\n      dup6\n      sstore\n      jump(tag_99)\n    tag_100:\n      dup3\n      0x1f\n      lt\n      tag_101\n      jumpi\n      dup1\n      mload\n      not(0xff)\n      and\n      dup4\n      dup1\n      add\n      or\n      dup6\n      sstore\n      jump(tag_99)\n    tag_101:\n      dup3\n      dup1\n      add\n      0x01\n      add\n      dup6\n      sstore\n      dup3\n      iszero\n      tag_99\n      jumpi\n      swap2\n      dup3\n      add\n    tag_102:\n      dup3\n      dup2\n      gt\n      iszero\n      tag_103\n      jumpi\n      dup3\n      mload\n      dup3\n      sstore\n      swap2\n      0x20\n      add\n      swap2\n      swap1\n      0x01\n      add\n      swap1\n      jump(tag_102)\n    tag_103:\n    tag_99:\n      pop\n      swap1\n      pop\n      tag_104\n      swap2\n      swap1\n      tag_105\n      jump\t// in\n    tag_104:\n      pop\n      swap1\n      jump\t// out\n    tag_105:\n    tag_106:\n      dup1\n      dup3\n      gt\n      iszero\n      tag_107\n      jumpi\n      0x00\n      dup2\n      0x00\n      swap1\n      sstore\n      pop\n      0x01\n      add\n      jump(tag_106)\n    tag_107:\n      pop\n      swap1\n      jump\t// out\n        /* \"#utility.yul\":7:419   */\n    tag_109:\n        /* \"#utility.yul\":85:90   */\n      0x00\n        /* \"#utility.yul\":110:176   */\n      tag_111\n        /* \"#utility.yul\":126:175   */\n      tag_112\n        /* \"#utility.yul\":168:174   */\n      dup5\n        /* \"#utility.yul\":126:175   */\n      tag_113\n      jump\t// in\n    tag_112:\n        /* \"#utility.yul\":110:176   */\n      tag_114\n      jump\t// in\n    tag_111:\n        /* \"#utility.yul\":101:176   */\n      swap1\n      pop\n        /* \"#utility.yul\":199:205   */\n      dup3\n        /* \"#utility.yul\":192:197   */\n      dup2\n        /* \"#utility.yul\":185:206   */\n      mstore\n        /* \"#utility.yul\":237:241   */\n      0x20\n        /* \"#utility.yul\":230:235   */\n      dup2\n        /* \"#utility.yul\":226:242   */\n      add\n        /* \"#utility.yul\":275:278   */\n      dup5\n        /* \"#utility.yul\":266:272   */\n      dup5\n        /* \"#utility.yul\":261:264   */\n      dup5\n        /* \"#utility.yul\":257:273   */\n      add\n        /* \"#utility.yul\":254:279   */\n      gt\n        /* \"#utility.yul\":251:363   */\n      iszero\n      tag_115\n      jumpi\n        /* \"#utility.yul\":282:361   */\n      tag_116\n      tag_117\n      jump\t// in\n    tag_116:\n        /* \"#utility.yul\":251:363   */\n    tag_115:\n        /* \"#utility.yul\":372:413   */\n      tag_118\n        /* \"#utility.yul\":406:412   */\n      dup5\n        /* \"#utility.yul\":401:404   */\n      dup3\n        /* \"#utility.yul\":396:399   */\n      dup6\n        /* \"#utility.yul\":372:413   */\n      tag_119\n      jump\t// in\n    tag_118:\n        /* \"#utility.yul\":91:419   */\n      pop\n        /* \"#utility.yul\":7:419   */\n      swap4\n      swap3\n      pop\n      pop\n      pop\n      jump\t// out\n        /* \"#utility.yul\":425:560   */\n    tag_120:\n        /* \"#utility.yul\":469:474   */\n      0x00\n        /* \"#utility.yul\":507:513   */\n      dup2\n        /* \"#utility.yul\":494:514   */\n      calldataload\n        /* \"#utility.yul\":485:514   */\n      swap1\n      pop\n        /* \"#utility.yul\":523:554   */\n      tag_122\n        /* \"#utility.yul\":548:553   */\n      dup2\n        /* \"#utility.yul\":523:554   */\n      tag_123\n      jump\t// in\n    tag_122:\n        /* \"#utility.yul\":425:560   */\n      swap3\n      swap2\n      pop\n      pop\n      jump\t// out\n        /* \"#utility.yul\":580:920   */\n    tag_124:\n        /* \"#utility.yul\":636:641   */\n      0x00\n        /* \"#utility.yul\":685:688   */\n      dup3\n        /* \"#utility.yul\":678:682   */\n      0x1f\n        /* \"#utility.yul\":670:676   */\n      dup4\n        /* \"#utility.yul\":666:683   */\n      add\n        /* \"#utility.yul\":662:689   */\n      slt\n        /* \"#utility.yul\":652:774   */\n      tag_126\n      jumpi\n        /* \"#utility.yul\":693:772   */\n      tag_127\n      tag_128\n      jump\t// in\n    tag_127:\n        /* \"#utility.yul\":652:774   */\n    tag_126:\n        /* \"#utility.yul\":810:816   */\n      dup2\n        /* \"#utility.yul\":797:817   */\n      calldataload\n        /* \"#utility.yul\":835:914   */\n      tag_129\n        /* \"#utility.yul\":910:913   */\n      dup5\n        /* \"#utility.yul\":902:908   */\n      dup3\n        /* \"#utility.yul\":895:899   */\n      0x20\n        /* \"#utility.yul\":887:893   */\n      dup7\n        /* \"#utility.yul\":883:900   */\n      add\n        /* \"#utility.yul\":835:914   */\n      tag_109\n      jump\t// in\n    tag_129:\n        /* \"#utility.yul\":826:914   */\n      swap2\n      pop\n        /* \"#utility.yul\":642:920   */\n      pop\n        /* \"#utility.yul\":580:920   */\n      swap3\n      swap2\n      pop\n      pop\n      jump\t// out\n        /* \"#utility.yul\":926:1065   */\n    tag_130:\n        /* \"#utility.yul\":972:977   */\n      0x00\n        /* \"#utility.yul\":1010:1016   */\n      dup2\n        /* \"#utility.yul\":997:1017   */\n      calldataload\n        /* \"#utility.yul\":988:1017   */\n      swap1\n      pop\n        /* \"#utility.yul\":1026:1059   */\n      tag_132\n        /* \"#utility.yul\":1053:1058   */\n      dup2\n        /* \"#utility.yul\":1026:1059   */\n      tag_133\n      jump\t// in\n    tag_132:\n        /* \"#utility.yul\":926:1065   */\n      swap3\n      swap2\n      pop\n      pop\n      jump\t// out\n        /* \"#utility.yul\":1071:1580   */\n    tag_32:\n        /* \"#utility.yul\":1140:1146   */\n      0x00\n        /* \"#utility.yul\":1189:1191   */\n      0x20\n        /* \"#utility.yul\":1177:1186   */\n      dup3\n        /* \"#utility.yul\":1168:1175   */\n      dup5\n        /* \"#utility.yul\":1164:1187   */\n      sub\n        /* \"#utility.yul\":1160:1192   */\n      slt\n        /* \"#utility.yul\":1157:1276   */\n      iszero\n      tag_135\n      jumpi\n        /* \"#utility.yul\":1195:1274   */\n      tag_136\n      tag_137\n      jump\t// in\n    tag_136:\n        /* \"#utility.yul\":1157:1276   */\n    tag_135:\n        /* \"#utility.yul\":1343:1344   */\n      0x00\n        /* \"#utility.yul\":1332:1341   */\n      dup3\n        /* \"#utility.yul\":1328:1345   */\n      add\n        /* \"#utility.yul\":1315:1346   */\n      calldataload\n        /* \"#utility.yul\":1373:1391   */\n      0xffffffffffffffff\n        /* \"#utility.yul\":1365:1371   */\n      dup2\n        /* \"#utility.yul\":1362:1392   */\n      gt\n        /* \"#utility.yul\":1359:1476   */\n      iszero\n      tag_138\n      jumpi\n        /* \"#utility.yul\":1395:1474   */\n      tag_139\n      tag_140\n      jump\t// in\n    tag_139:\n        /* \"#utility.yul\":1359:1476   */\n    tag_138:\n        /* \"#utility.yul\":1500:1563   */\n      tag_141\n        /* \"#utility.yul\":1555:1562   */\n      dup5\n        /* \"#utility.yul\":1546:1552   */\n      dup3\n        /* \"#utility.yul\":1535:1544   */\n      dup6\n        /* \"#utility.yul\":1531:1553   */\n      add\n        /* \"#utility.yul\":1500:1563   */\n      tag_124\n      jump\t// in\n    tag_141:\n        /* \"#utility.yul\":1490:1563   */\n      swap2\n      pop\n        /* \"#utility.yul\":1286:1573   */\n      pop\n        /* \"#utility.yul\":1071:1580   */\n      swap3\n      swap2\n      pop\n      pop\n      jump\t// out\n        /* \"#utility.yul\":1586:2236   */\n    tag_28:\n        /* \"#utility.yul\":1662:1668   */\n      0x00\n        /* \"#utility.yul\":1670:1676   */\n      dup1\n        /* \"#utility.yul\":1719:1721   */\n      0x40\n        /* \"#utility.yul\":1707:1716   */\n      dup4\n        /* \"#utility.yul\":1698:1705   */\n      dup6\n        /* \"#utility.yul\":1694:1717   */\n      sub\n        /* \"#utility.yul\":1690:1722   */\n      slt\n        /* \"#utility.yul\":1687:1806   */\n      iszero\n      tag_143\n      jumpi\n        /* \"#utility.yul\":1725:1804   */\n      tag_144\n      tag_137\n      jump\t// in\n    tag_144:\n        /* \"#utility.yul\":1687:1806   */\n    tag_143:\n        /* \"#utility.yul\":1873:1874   */\n      0x00\n        /* \"#utility.yul\":1862:1871   */\n      dup4\n        /* \"#utility.yul\":1858:1875   */\n      add\n        /* \"#utility.yul\":1845:1876   */\n      calldataload\n        /* \"#utility.yul\":1903:1921   */\n      0xffffffffffffffff\n        /* \"#utility.yul\":1895:1901   */\n      dup2\n        /* \"#utility.yul\":1892:1922   */\n      gt\n        /* \"#utility.yul\":1889:2006   */\n      iszero\n      tag_145\n      jumpi\n        /* \"#utility.yul\":1925:2004   */\n      tag_146\n      tag_140\n      jump\t// in\n    tag_146:\n        /* \"#utility.yul\":1889:2006   */\n    tag_145:\n        /* \"#utility.yul\":2030:2093   */\n      tag_147\n        /* \"#utility.yul\":2085:2092   */\n      dup6\n        /* \"#utility.yul\":2076:2082   */\n      dup3\n        /* \"#utility.yul\":2065:2074   */\n      dup7\n        /* \"#utility.yul\":2061:2083   */\n      add\n        /* \"#utility.yul\":2030:2093   */\n      tag_124\n      jump\t// in\n    tag_147:\n        /* \"#utility.yul\":2020:2093   */\n      swap3\n      pop\n        /* \"#utility.yul\":1816:2103   */\n      pop\n        /* \"#utility.yul\":2142:2144   */\n      0x20\n        /* \"#utility.yul\":2168:2219   */\n      tag_148\n        /* \"#utility.yul\":2211:2218   */\n      dup6\n        /* \"#utility.yul\":2202:2208   */\n      dup3\n        /* \"#utility.yul\":2191:2200   */\n      dup7\n        /* \"#utility.yul\":2187:2209   */\n      add\n        /* \"#utility.yul\":2168:2219   */\n      tag_120\n      jump\t// in\n    tag_148:\n        /* \"#utility.yul\":2158:2219   */\n      swap2\n      pop\n        /* \"#utility.yul\":2113:2229   */\n      pop\n        /* \"#utility.yul\":1586:2236   */\n      swap3\n      pop\n      swap3\n      swap1\n      pop\n      jump\t// out\n        /* \"#utility.yul\":2242:2571   */\n    tag_17:\n        /* \"#utility.yul\":2301:2307   */\n      0x00\n        /* \"#utility.yul\":2350:2352   */\n      0x20\n        /* \"#utility.yul\":2338:2347   */\n      dup3\n        /* \"#utility.yul\":2329:2336   */\n      dup5\n        /* \"#utility.yul\":2325:2348   */\n      sub\n        /* \"#utility.yul\":2321:2353   */\n      slt\n        /* \"#utility.yul\":2318:2437   */\n      iszero\n      tag_150\n      jumpi\n        /* \"#utility.yul\":2356:2435   */\n      tag_151\n      tag_137\n      jump\t// in\n    tag_151:\n        /* \"#utility.yul\":2318:2437   */\n    tag_150:\n        /* \"#utility.yul\":2476:2477   */\n      0x00\n        /* \"#utility.yul\":2501:2554   */\n      tag_152\n        /* \"#utility.yul\":2546:2553   */\n      dup5\n        /* \"#utility.yul\":2537:2543   */\n      dup3\n        /* \"#utility.yul\":2526:2535   */\n      dup6\n        /* \"#utility.yul\":2522:2544   */\n      add\n        /* \"#utility.yul\":2501:2554   */\n      tag_130\n      jump\t// in\n    tag_152:\n        /* \"#utility.yul\":2491:2554   */\n      swap2\n      pop\n        /* \"#utility.yul\":2447:2564   */\n      pop\n        /* \"#utility.yul\":2242:2571   */\n      swap3\n      swap2\n      pop\n      pop\n      jump\t// out\n        /* \"#utility.yul\":2577:2837   */\n    tag_153:\n        /* \"#utility.yul\":2698:2708   */\n      0x00\n        /* \"#utility.yul\":2733:2831   */\n      tag_155\n        /* \"#utility.yul\":2827:2830   */\n      dup4\n        /* \"#utility.yul\":2819:2825   */\n      dup4\n        /* \"#utility.yul\":2733:2831   */\n      tag_156\n      jump\t// in\n    tag_155:\n        /* \"#utility.yul\":2719:2831   */\n      swap1\n      pop\n        /* \"#utility.yul\":2577:2837   */\n      swap3\n      swap2\n      pop\n      pop\n      jump\t// out\n        /* \"#utility.yul\":2843:3103   */\n    tag_157:\n        /* \"#utility.yul\":2964:2974   */\n      0x00\n        /* \"#utility.yul\":2999:3097   */\n      tag_159\n        /* \"#utility.yul\":3093:3096   */\n      dup4\n        /* \"#utility.yul\":3085:3091   */\n      dup4\n        /* \"#utility.yul\":2999:3097   */\n      tag_160\n      jump\t// in\n    tag_159:\n        /* \"#utility.yul\":2985:3097   */\n      swap1\n      pop\n        /* \"#utility.yul\":2843:3103   */\n      swap3\n      swap2\n      pop\n      pop\n      jump\t// out\n        /* \"#utility.yul\":3183:4302   */\n    tag_161:\n        /* \"#utility.yul\":3354:3357   */\n      0x00\n        /* \"#utility.yul\":3383:3463   */\n      tag_163\n        /* \"#utility.yul\":3457:3462   */\n      dup3\n        /* \"#utility.yul\":3383:3463   */\n      tag_164\n      jump\t// in\n    tag_163:\n        /* \"#utility.yul\":3479:3591   */\n      tag_165\n        /* \"#utility.yul\":3584:3590   */\n      dup2\n        /* \"#utility.yul\":3579:3582   */\n      dup6\n        /* \"#utility.yul\":3479:3591   */\n      tag_166\n      jump\t// in\n    tag_165:\n        /* \"#utility.yul\":3472:3591   */\n      swap4\n      pop\n        /* \"#utility.yul\":3617:3620   */\n      dup4\n        /* \"#utility.yul\":3662:3666   */\n      0x20\n        /* \"#utility.yul\":3654:3660   */\n      dup3\n        /* \"#utility.yul\":3650:3667   */\n      mul\n        /* \"#utility.yul\":3645:3648   */\n      dup6\n        /* \"#utility.yul\":3641:3668   */\n      add\n        /* \"#utility.yul\":3692:3774   */\n      tag_167\n        /* \"#utility.yul\":3768:3773   */\n      dup6\n        /* \"#utility.yul\":3692:3774   */\n      tag_168\n      jump\t// in\n    tag_167:\n        /* \"#utility.yul\":3797:3804   */\n      dup1\n        /* \"#utility.yul\":3828:3829   */\n      0x00\n        /* \"#utility.yul\":3813:4257   */\n    tag_169:\n        /* \"#utility.yul\":3838:3844   */\n      dup6\n        /* \"#utility.yul\":3835:3836   */\n      dup2\n        /* \"#utility.yul\":3832:3845   */\n      lt\n        /* \"#utility.yul\":3813:4257   */\n      iszero\n      tag_171\n      jumpi\n        /* \"#utility.yul\":3909:3918   */\n      dup5\n        /* \"#utility.yul\":3903:3907   */\n      dup5\n        /* \"#utility.yul\":3899:3919   */\n      sub\n        /* \"#utility.yul\":3894:3897   */\n      dup10\n        /* \"#utility.yul\":3887:3920   */\n      mstore\n        /* \"#utility.yul\":3960:3966   */\n      dup2\n        /* \"#utility.yul\":3954:3967   */\n      mload\n        /* \"#utility.yul\":3988:4104   */\n      tag_172\n        /* \"#utility.yul\":4099:4103   */\n      dup6\n        /* \"#utility.yul\":4084:4097   */\n      dup3\n        /* \"#utility.yul\":3988:4104   */\n      tag_153\n      jump\t// in\n    tag_172:\n        /* \"#utility.yul\":3980:4104   */\n      swap5\n      pop\n        /* \"#utility.yul\":4127:4213   */\n      tag_173\n        /* \"#utility.yul\":4206:4212   */\n      dup4\n        /* \"#utility.yul\":4127:4213   */\n      tag_174\n      jump\t// in\n    tag_173:\n        /* \"#utility.yul\":4117:4213   */\n      swap3\n      pop\n        /* \"#utility.yul\":4242:4246   */\n      0x20\n        /* \"#utility.yul\":4237:4240   */\n      dup11\n        /* \"#utility.yul\":4233:4247   */\n      add\n        /* \"#utility.yul\":4226:4247   */\n      swap10\n      pop\n        /* \"#utility.yul\":3873:4257   */\n      pop\n        /* \"#utility.yul\":3860:3861   */\n      0x01\n        /* \"#utility.yul\":3857:3858   */\n      dup2\n        /* \"#utility.yul\":3853:3862   */\n      add\n        /* \"#utility.yul\":3848:3862   */\n      swap1\n      pop\n        /* \"#utility.yul\":3813:4257   */\n      jump(tag_169)\n    tag_171:\n        /* \"#utility.yul\":3817:3831   */\n      pop\n        /* \"#utility.yul\":4273:4277   */\n      dup3\n        /* \"#utility.yul\":4266:4277   */\n      swap8\n      pop\n        /* \"#utility.yul\":4293:4296   */\n      dup8\n        /* \"#utility.yul\":4286:4296   */\n      swap6\n      pop\n        /* \"#utility.yul\":3359:4302   */\n      pop\n      pop\n      pop\n      pop\n      pop\n        /* \"#utility.yul\":3183:4302   */\n      swap3\n      swap2\n      pop\n      pop\n      jump\t// out\n        /* \"#utility.yul\":4384:5483   */\n    tag_175:\n        /* \"#utility.yul\":4545:4548   */\n      0x00\n        /* \"#utility.yul\":4574:4654   */\n      tag_177\n        /* \"#utility.yul\":4648:4653   */\n      dup3\n        /* \"#utility.yul\":4574:4654   */\n      tag_178\n      jump\t// in\n    tag_177:\n        /* \"#utility.yul\":4670:4772   */\n      tag_179\n        /* \"#utility.yul\":4765:4771   */\n      dup2\n        /* \"#utility.yul\":4760:4763   */\n      dup6\n        /* \"#utility.yul\":4670:4772   */\n      tag_180\n      jump\t// in\n    tag_179:\n        /* \"#utility.yul\":4663:4772   */\n      swap4\n      pop\n        /* \"#utility.yul\":4798:4801   */\n      dup4\n        /* \"#utility.yul\":4843:4847   */\n      0x20\n        /* \"#utility.yul\":4835:4841   */\n      dup3\n        /* \"#utility.yul\":4831:4848   */\n      mul\n        /* \"#utility.yul\":4826:4829   */\n      dup6\n        /* \"#utility.yul\":4822:4849   */\n      add\n        /* \"#utility.yul\":4873:4955   */\n      tag_181\n        /* \"#utility.yul\":4949:4954   */\n      dup6\n        /* \"#utility.yul\":4873:4955   */\n      tag_182\n      jump\t// in\n    tag_181:\n        /* \"#utility.yul\":4978:4985   */\n      dup1\n        /* \"#utility.yul\":5009:5010   */\n      0x00\n        /* \"#utility.yul\":4994:5438   */\n    tag_183:\n        /* \"#utility.yul\":5019:5025   */\n      dup6\n        /* \"#utility.yul\":5016:5017   */\n      dup2\n        /* \"#utility.yul\":5013:5026   */\n      lt\n        /* \"#utility.yul\":4994:5438   */\n      iszero\n      tag_185\n      jumpi\n        /* \"#utility.yul\":5090:5099   */\n      dup5\n        /* \"#utility.yul\":5084:5088   */\n      dup5\n        /* \"#utility.yul\":5080:5100   */\n      sub\n        /* \"#utility.yul\":5075:5078   */\n      dup10\n        /* \"#utility.yul\":5068:5101   */\n      mstore\n        /* \"#utility.yul\":5141:5147   */\n      dup2\n        /* \"#utility.yul\":5135:5148   */\n      mload\n        /* \"#utility.yul\":5169:5285   */\n      tag_186\n        /* \"#utility.yul\":5280:5284   */\n      dup6\n        /* \"#utility.yul\":5265:5278   */\n      dup3\n        /* \"#utility.yul\":5169:5285   */\n      tag_157\n      jump\t// in\n    tag_186:\n        /* \"#utility.yul\":5161:5285   */\n      swap5\n      pop\n        /* \"#utility.yul\":5308:5394   */\n      tag_187\n        /* \"#utility.yul\":5387:5393   */\n      dup4\n        /* \"#utility.yul\":5308:5394   */\n      tag_188\n      jump\t// in\n    tag_187:\n        /* \"#utility.yul\":5298:5394   */\n      swap3\n      pop\n        /* \"#utility.yul\":5423:5427   */\n      0x20\n        /* \"#utility.yul\":5418:5421   */\n      dup11\n        /* \"#utility.yul\":5414:5428   */\n      add\n        /* \"#utility.yul\":5407:5428   */\n      swap10\n      pop\n        /* \"#utility.yul\":5054:5438   */\n      pop\n        /* \"#utility.yul\":5041:5042   */\n      0x01\n        /* \"#utility.yul\":5038:5039   */\n      dup2\n        /* \"#utility.yul\":5034:5043   */\n      add\n        /* \"#utility.yul\":5029:5043   */\n      swap1\n      pop\n        /* \"#utility.yul\":4994:5438   */\n      jump(tag_183)\n    tag_185:\n        /* \"#utility.yul\":4998:5012   */\n      pop\n        /* \"#utility.yul\":5454:5458   */\n      dup3\n        /* \"#utility.yul\":5447:5458   */\n      swap8\n      pop\n        /* \"#utility.yul\":5474:5477   */\n      dup8\n        /* \"#utility.yul\":5467:5477   */\n      swap6\n      pop\n        /* \"#utility.yul\":4550:5483   */\n      pop\n      pop\n      pop\n      pop\n      pop\n        /* \"#utility.yul\":4384:5483   */\n      swap3\n      swap2\n      pop\n      pop\n      jump\t// out\n        /* \"#utility.yul\":5565:6684   */\n    tag_189:\n        /* \"#utility.yul\":5736:5739   */\n      0x00\n        /* \"#utility.yul\":5765:5845   */\n      tag_191\n        /* \"#utility.yul\":5839:5844   */\n      dup3\n        /* \"#utility.yul\":5765:5845   */\n      tag_178\n      jump\t// in\n    tag_191:\n        /* \"#utility.yul\":5861:5973   */\n      tag_192\n        /* \"#utility.yul\":5966:5972   */\n      dup2\n        /* \"#utility.yul\":5961:5964   */\n      dup6\n        /* \"#utility.yul\":5861:5973   */\n      tag_193\n      jump\t// in\n    tag_192:\n        /* \"#utility.yul\":5854:5973   */\n      swap4\n      pop\n        /* \"#utility.yul\":5999:6002   */\n      dup4\n        /* \"#utility.yul\":6044:6048   */\n      0x20\n        /* \"#utility.yul\":6036:6042   */\n      dup3\n        /* \"#utility.yul\":6032:6049   */\n      mul\n        /* \"#utility.yul\":6027:6030   */\n      dup6\n        /* \"#utility.yul\":6023:6050   */\n      add\n        /* \"#utility.yul\":6074:6156   */\n      tag_194\n        /* \"#utility.yul\":6150:6155   */\n      dup6\n        /* \"#utility.yul\":6074:6156   */\n      tag_182\n      jump\t// in\n    tag_194:\n        /* \"#utility.yul\":6179:6186   */\n      dup1\n        /* \"#utility.yul\":6210:6211   */\n      0x00\n        /* \"#utility.yul\":6195:6639   */\n    tag_195:\n        /* \"#utility.yul\":6220:6226   */\n      dup6\n        /* \"#utility.yul\":6217:6218   */\n      dup2\n        /* \"#utility.yul\":6214:6227   */\n      lt\n        /* \"#utility.yul\":6195:6639   */\n      iszero\n      tag_197\n      jumpi\n        /* \"#utility.yul\":6291:6300   */\n      dup5\n        /* \"#utility.yul\":6285:6289   */\n      dup5\n        /* \"#utility.yul\":6281:6301   */\n      sub\n        /* \"#utility.yul\":6276:6279   */\n      dup10\n        /* \"#utility.yul\":6269:6302   */\n      mstore\n        /* \"#utility.yul\":6342:6348   */\n      dup2\n        /* \"#utility.yul\":6336:6349   */\n      mload\n        /* \"#utility.yul\":6370:6486   */\n      tag_198\n        /* \"#utility.yul\":6481:6485   */\n      dup6\n        /* \"#utility.yul\":6466:6479   */\n      dup3\n        /* \"#utility.yul\":6370:6486   */\n      tag_157\n      jump\t// in\n    tag_198:\n        /* \"#utility.yul\":6362:6486   */\n      swap5\n      pop\n        /* \"#utility.yul\":6509:6595   */\n      tag_199\n        /* \"#utility.yul\":6588:6594   */\n      dup4\n        /* \"#utility.yul\":6509:6595   */\n      tag_188\n      jump\t// in\n    tag_199:\n        /* \"#utility.yul\":6499:6595   */\n      swap3\n      pop\n        /* \"#utility.yul\":6624:6628   */\n      0x20\n        /* \"#utility.yul\":6619:6622   */\n      dup11\n        /* \"#utility.yul\":6615:6629   */\n      add\n        /* \"#utility.yul\":6608:6629   */\n      swap10\n      pop\n        /* \"#utility.yul\":6255:6639   */\n      pop\n        /* \"#utility.yul\":6242:6243   */\n      0x01\n        /* \"#utility.yul\":6239:6240   */\n      dup2\n        /* \"#utility.yul\":6235:6244   */\n      add\n        /* \"#utility.yul\":6230:6244   */\n      swap1\n      pop\n        /* \"#utility.yul\":6195:6639   */\n      jump(tag_195)\n    tag_197:\n        /* \"#utility.yul\":6199:6213   */\n      pop\n        /* \"#utility.yul\":6655:6659   */\n      dup3\n        /* \"#utility.yul\":6648:6659   */\n      swap8\n      pop\n        /* \"#utility.yul\":6675:6678   */\n      dup8\n        /* \"#utility.yul\":6668:6678   */\n      swap6\n      pop\n        /* \"#utility.yul\":5741:6684   */\n      pop\n      pop\n      pop\n      pop\n      pop\n        /* \"#utility.yul\":5565:6684   */\n      swap3\n      swap2\n      pop\n      pop\n      jump\t// out\n        /* \"#utility.yul\":6690:6792   */\n    tag_200:\n        /* \"#utility.yul\":6763:6785   */\n      tag_202\n        /* \"#utility.yul\":6779:6784   */\n      dup2\n        /* \"#utility.yul\":6763:6785   */\n      tag_203\n      jump\t// in\n    tag_202:\n        /* \"#utility.yul\":6758:6761   */\n      dup3\n        /* \"#utility.yul\":6751:6786   */\n      mstore\n        /* \"#utility.yul\":6690:6792   */\n      pop\n      pop\n      jump\t// out\n        /* \"#utility.yul\":6798:6910   */\n    tag_204:\n        /* \"#utility.yul\":6881:6903   */\n      tag_206\n        /* \"#utility.yul\":6897:6902   */\n      dup2\n        /* \"#utility.yul\":6881:6903   */\n      tag_203\n      jump\t// in\n    tag_206:\n        /* \"#utility.yul\":6876:6879   */\n      dup3\n        /* \"#utility.yul\":6869:6904   */\n      mstore\n        /* \"#utility.yul\":6798:6910   */\n      pop\n      pop\n      jump\t// out\n        /* \"#utility.yul\":6916:7260   */\n    tag_207:\n        /* \"#utility.yul\":6994:6997   */\n      0x00\n        /* \"#utility.yul\":7022:7061   */\n      tag_209\n        /* \"#utility.yul\":7055:7060   */\n      dup3\n        /* \"#utility.yul\":7022:7061   */\n      tag_210\n      jump\t// in\n    tag_209:\n        /* \"#utility.yul\":7077:7138   */\n      tag_211\n        /* \"#utility.yul\":7131:7137   */\n      dup2\n        /* \"#utility.yul\":7126:7129   */\n      dup6\n        /* \"#utility.yul\":7077:7138   */\n      tag_212\n      jump\t// in\n    tag_211:\n        /* \"#utility.yul\":7070:7138   */\n      swap4\n      pop\n        /* \"#utility.yul\":7147:7199   */\n      tag_213\n        /* \"#utility.yul\":7192:7198   */\n      dup2\n        /* \"#utility.yul\":7187:7190   */\n      dup6\n        /* \"#utility.yul\":7180:7184   */\n      0x20\n        /* \"#utility.yul\":7173:7178   */\n      dup7\n        /* \"#utility.yul\":7169:7185   */\n      add\n        /* \"#utility.yul\":7147:7199   */\n      tag_214\n      jump\t// in\n    tag_213:\n        /* \"#utility.yul\":7224:7253   */\n      tag_215\n        /* \"#utility.yul\":7246:7252   */\n      dup2\n        /* \"#utility.yul\":7224:7253   */\n      tag_216\n      jump\t// in\n    tag_215:\n        /* \"#utility.yul\":7219:7222   */\n      dup5\n        /* \"#utility.yul\":7215:7254   */\n      add\n        /* \"#utility.yul\":7208:7254   */\n      swap2\n      pop\n        /* \"#utility.yul\":6998:7260   */\n      pop\n        /* \"#utility.yul\":6916:7260   */\n      swap3\n      swap2\n      pop\n      pop\n      jump\t// out\n        /* \"#utility.yul\":7266:7630   */\n    tag_217:\n        /* \"#utility.yul\":7354:7357   */\n      0x00\n        /* \"#utility.yul\":7382:7421   */\n      tag_219\n        /* \"#utility.yul\":7415:7420   */\n      dup3\n        /* \"#utility.yul\":7382:7421   */\n      tag_210\n      jump\t// in\n    tag_219:\n        /* \"#utility.yul\":7437:7508   */\n      tag_220\n        /* \"#utility.yul\":7501:7507   */\n      dup2\n        /* \"#utility.yul\":7496:7499   */\n      dup6\n        /* \"#utility.yul\":7437:7508   */\n      tag_221\n      jump\t// in\n    tag_220:\n        /* \"#utility.yul\":7430:7508   */\n      swap4\n      pop\n        /* \"#utility.yul\":7517:7569   */\n      tag_222\n        /* \"#utility.yul\":7562:7568   */\n      dup2\n        /* \"#utility.yul\":7557:7560   */\n      dup6\n        /* \"#utility.yul\":7550:7554   */\n      0x20\n        /* \"#utility.yul\":7543:7548   */\n      dup7\n        /* \"#utility.yul\":7539:7555   */\n      add\n        /* \"#utility.yul\":7517:7569   */\n      tag_214\n      jump\t// in\n    tag_222:\n        /* \"#utility.yul\":7594:7623   */\n      tag_223\n        /* \"#utility.yul\":7616:7622   */\n      dup2\n        /* \"#utility.yul\":7594:7623   */\n      tag_216\n      jump\t// in\n    tag_223:\n        /* \"#utility.yul\":7589:7592   */\n      dup5\n        /* \"#utility.yul\":7585:7624   */\n      add\n        /* \"#utility.yul\":7578:7624   */\n      swap2\n      pop\n        /* \"#utility.yul\":7358:7630   */\n      pop\n        /* \"#utility.yul\":7266:7630   */\n      swap3\n      swap2\n      pop\n      pop\n      jump\t// out\n        /* \"#utility.yul\":7636:8013   */\n    tag_224:\n        /* \"#utility.yul\":7742:7745   */\n      0x00\n        /* \"#utility.yul\":7770:7809   */\n      tag_226\n        /* \"#utility.yul\":7803:7808   */\n      dup3\n        /* \"#utility.yul\":7770:7809   */\n      tag_210\n      jump\t// in\n    tag_226:\n        /* \"#utility.yul\":7825:7914   */\n      tag_227\n        /* \"#utility.yul\":7907:7913   */\n      dup2\n        /* \"#utility.yul\":7902:7905   */\n      dup6\n        /* \"#utility.yul\":7825:7914   */\n      tag_228\n      jump\t// in\n    tag_227:\n        /* \"#utility.yul\":7818:7914   */\n      swap4\n      pop\n        /* \"#utility.yul\":7923:7975   */\n      tag_229\n        /* \"#utility.yul\":7968:7974   */\n      dup2\n        /* \"#utility.yul\":7963:7966   */\n      dup6\n        /* \"#utility.yul\":7956:7960   */\n      0x20\n        /* \"#utility.yul\":7949:7954   */\n      dup7\n        /* \"#utility.yul\":7945:7961   */\n      add\n        /* \"#utility.yul\":7923:7975   */\n      tag_214\n      jump\t// in\n    tag_229:\n        /* \"#utility.yul\":8000:8006   */\n      dup1\n        /* \"#utility.yul\":7995:7998   */\n      dup5\n        /* \"#utility.yul\":7991:8007   */\n      add\n        /* \"#utility.yul\":7984:8007   */\n      swap2\n      pop\n        /* \"#utility.yul\":7746:8013   */\n      pop\n        /* \"#utility.yul\":7636:8013   */\n      swap3\n      swap2\n      pop\n      pop\n      jump\t// out\n        /* \"#utility.yul\":8089:9015   */\n    tag_156:\n        /* \"#utility.yul\":8200:8203   */\n      0x00\n        /* \"#utility.yul\":8236:8240   */\n      0x60\n        /* \"#utility.yul\":8231:8234   */\n      dup4\n        /* \"#utility.yul\":8227:8241   */\n      add\n        /* \"#utility.yul\":8322:8326   */\n      0x00\n        /* \"#utility.yul\":8315:8320   */\n      dup4\n        /* \"#utility.yul\":8311:8327   */\n      add\n        /* \"#utility.yul\":8305:8328   */\n      mload\n        /* \"#utility.yul\":8341:8404   */\n      tag_231\n        /* \"#utility.yul\":8398:8402   */\n      0x00\n        /* \"#utility.yul\":8393:8396   */\n      dup7\n        /* \"#utility.yul\":8389:8403   */\n      add\n        /* \"#utility.yul\":8375:8387   */\n      dup3\n        /* \"#utility.yul\":8341:8404   */\n      tag_232\n      jump\t// in\n    tag_231:\n        /* \"#utility.yul\":8251:8414   */\n      pop\n        /* \"#utility.yul\":8496:8500   */\n      0x20\n        /* \"#utility.yul\":8489:8494   */\n      dup4\n        /* \"#utility.yul\":8485:8501   */\n      add\n        /* \"#utility.yul\":8479:8502   */\n      mload\n        /* \"#utility.yul\":8549:8552   */\n      dup5\n        /* \"#utility.yul\":8543:8547   */\n      dup3\n        /* \"#utility.yul\":8539:8553   */\n      sub\n        /* \"#utility.yul\":8532:8536   */\n      0x20\n        /* \"#utility.yul\":8527:8530   */\n      dup7\n        /* \"#utility.yul\":8523:8537   */\n      add\n        /* \"#utility.yul\":8516:8554   */\n      mstore\n        /* \"#utility.yul\":8575:8648   */\n      tag_233\n        /* \"#utility.yul\":8643:8647   */\n      dup3\n        /* \"#utility.yul\":8629:8641   */\n      dup3\n        /* \"#utility.yul\":8575:8648   */\n      tag_207\n      jump\t// in\n    tag_233:\n        /* \"#utility.yul\":8567:8648   */\n      swap2\n      pop\n        /* \"#utility.yul\":8424:8659   */\n      pop\n        /* \"#utility.yul\":8743:8747   */\n      0x40\n        /* \"#utility.yul\":8736:8741   */\n      dup4\n        /* \"#utility.yul\":8732:8748   */\n      add\n        /* \"#utility.yul\":8726:8749   */\n      mload\n        /* \"#utility.yul\":8796:8799   */\n      dup5\n        /* \"#utility.yul\":8790:8794   */\n      dup3\n        /* \"#utility.yul\":8786:8800   */\n      sub\n        /* \"#utility.yul\":8779:8783   */\n      0x40\n        /* \"#utility.yul\":8774:8777   */\n      dup7\n        /* \"#utility.yul\":8770:8784   */\n      add\n        /* \"#utility.yul\":8763:8801   */\n      mstore\n        /* \"#utility.yul\":8822:8977   */\n      tag_234\n        /* \"#utility.yul\":8972:8976   */\n      dup3\n        /* \"#utility.yul\":8958:8970   */\n      dup3\n        /* \"#utility.yul\":8822:8977   */\n      tag_175\n      jump\t// in\n    tag_234:\n        /* \"#utility.yul\":8814:8977   */\n      swap2\n      pop\n        /* \"#utility.yul\":8669:8988   */\n      pop\n        /* \"#utility.yul\":9005:9009   */\n      dup1\n        /* \"#utility.yul\":8998:9009   */\n      swap2\n      pop\n        /* \"#utility.yul\":8205:9015   */\n      pop\n        /* \"#utility.yul\":8089:9015   */\n      swap3\n      swap2\n      pop\n      pop\n      jump\t// out\n        /* \"#utility.yul\":9093:9865   */\n    tag_160:\n        /* \"#utility.yul\":9204:9207   */\n      0x00\n        /* \"#utility.yul\":9240:9244   */\n      0x60\n        /* \"#utility.yul\":9235:9238   */\n      dup4\n        /* \"#utility.yul\":9231:9245   */\n      add\n        /* \"#utility.yul\":9326:9330   */\n      0x00\n        /* \"#utility.yul\":9319:9324   */\n      dup4\n        /* \"#utility.yul\":9315:9331   */\n      add\n        /* \"#utility.yul\":9309:9332   */\n      mload\n        /* \"#utility.yul\":9345:9408   */\n      tag_236\n        /* \"#utility.yul\":9402:9406   */\n      0x00\n        /* \"#utility.yul\":9397:9400   */\n      dup7\n        /* \"#utility.yul\":9393:9407   */\n      add\n        /* \"#utility.yul\":9379:9391   */\n      dup3\n        /* \"#utility.yul\":9345:9408   */\n      tag_232\n      jump\t// in\n    tag_236:\n        /* \"#utility.yul\":9255:9418   */\n      pop\n        /* \"#utility.yul\":9504:9508   */\n      0x20\n        /* \"#utility.yul\":9497:9502   */\n      dup4\n        /* \"#utility.yul\":9493:9509   */\n      add\n        /* \"#utility.yul\":9487:9510   */\n      mload\n        /* \"#utility.yul\":9557:9560   */\n      dup5\n        /* \"#utility.yul\":9551:9555   */\n      dup3\n        /* \"#utility.yul\":9547:9561   */\n      sub\n        /* \"#utility.yul\":9540:9544   */\n      0x20\n        /* \"#utility.yul\":9535:9538   */\n      dup7\n        /* \"#utility.yul\":9531:9545   */\n      add\n        /* \"#utility.yul\":9524:9562   */\n      mstore\n        /* \"#utility.yul\":9583:9656   */\n      tag_237\n        /* \"#utility.yul\":9651:9655   */\n      dup3\n        /* \"#utility.yul\":9637:9649   */\n      dup3\n        /* \"#utility.yul\":9583:9656   */\n      tag_207\n      jump\t// in\n    tag_237:\n        /* \"#utility.yul\":9575:9656   */\n      swap2\n      pop\n        /* \"#utility.yul\":9428:9667   */\n      pop\n        /* \"#utility.yul\":9750:9754   */\n      0x40\n        /* \"#utility.yul\":9743:9748   */\n      dup4\n        /* \"#utility.yul\":9739:9755   */\n      add\n        /* \"#utility.yul\":9733:9756   */\n      mload\n        /* \"#utility.yul\":9769:9828   */\n      tag_238\n        /* \"#utility.yul\":9822:9826   */\n      0x40\n        /* \"#utility.yul\":9817:9820   */\n      dup7\n        /* \"#utility.yul\":9813:9827   */\n      add\n        /* \"#utility.yul\":9799:9811   */\n      dup3\n        /* \"#utility.yul\":9769:9828   */\n      tag_200\n      jump\t// in\n    tag_238:\n        /* \"#utility.yul\":9677:9838   */\n      pop\n        /* \"#utility.yul\":9855:9859   */\n      dup1\n        /* \"#utility.yul\":9848:9859   */\n      swap2\n      pop\n        /* \"#utility.yul\":9209:9865   */\n      pop\n        /* \"#utility.yul\":9093:9865   */\n      swap3\n      swap2\n      pop\n      pop\n      jump\t// out\n        /* \"#utility.yul\":9943:10725   */\n    tag_239:\n        /* \"#utility.yul\":10064:10067   */\n      0x00\n        /* \"#utility.yul\":10100:10104   */\n      0x60\n        /* \"#utility.yul\":10095:10098   */\n      dup4\n        /* \"#utility.yul\":10091:10105   */\n      add\n        /* \"#utility.yul\":10186:10190   */\n      0x00\n        /* \"#utility.yul\":10179:10184   */\n      dup4\n        /* \"#utility.yul\":10175:10191   */\n      add\n        /* \"#utility.yul\":10169:10192   */\n      mload\n        /* \"#utility.yul\":10205:10268   */\n      tag_241\n        /* \"#utility.yul\":10262:10266   */\n      0x00\n        /* \"#utility.yul\":10257:10260   */\n      dup7\n        /* \"#utility.yul\":10253:10267   */\n      add\n        /* \"#utility.yul\":10239:10251   */\n      dup3\n        /* \"#utility.yul\":10205:10268   */\n      tag_232\n      jump\t// in\n    tag_241:\n        /* \"#utility.yul\":10115:10278   */\n      pop\n        /* \"#utility.yul\":10364:10368   */\n      0x20\n        /* \"#utility.yul\":10357:10362   */\n      dup4\n        /* \"#utility.yul\":10353:10369   */\n      add\n        /* \"#utility.yul\":10347:10370   */\n      mload\n        /* \"#utility.yul\":10417:10420   */\n      dup5\n        /* \"#utility.yul\":10411:10415   */\n      dup3\n        /* \"#utility.yul\":10407:10421   */\n      sub\n        /* \"#utility.yul\":10400:10404   */\n      0x20\n        /* \"#utility.yul\":10395:10398   */\n      dup7\n        /* \"#utility.yul\":10391:10405   */\n      add\n        /* \"#utility.yul\":10384:10422   */\n      mstore\n        /* \"#utility.yul\":10443:10516   */\n      tag_242\n        /* \"#utility.yul\":10511:10515   */\n      dup3\n        /* \"#utility.yul\":10497:10509   */\n      dup3\n        /* \"#utility.yul\":10443:10516   */\n      tag_207\n      jump\t// in\n    tag_242:\n        /* \"#utility.yul\":10435:10516   */\n      swap2\n      pop\n        /* \"#utility.yul\":10288:10527   */\n      pop\n        /* \"#utility.yul\":10610:10614   */\n      0x40\n        /* \"#utility.yul\":10603:10608   */\n      dup4\n        /* \"#utility.yul\":10599:10615   */\n      add\n        /* \"#utility.yul\":10593:10616   */\n      mload\n        /* \"#utility.yul\":10629:10688   */\n      tag_243\n        /* \"#utility.yul\":10682:10686   */\n      0x40\n        /* \"#utility.yul\":10677:10680   */\n      dup7\n        /* \"#utility.yul\":10673:10687   */\n      add\n        /* \"#utility.yul\":10659:10671   */\n      dup3\n        /* \"#utility.yul\":10629:10688   */\n      tag_200\n      jump\t// in\n    tag_243:\n        /* \"#utility.yul\":10537:10698   */\n      pop\n        /* \"#utility.yul\":10715:10719   */\n      dup1\n        /* \"#utility.yul\":10708:10719   */\n      swap2\n      pop\n        /* \"#utility.yul\":10069:10725   */\n      pop\n        /* \"#utility.yul\":9943:10725   */\n      swap3\n      swap2\n      pop\n      pop\n      jump\t// out\n        /* \"#utility.yul\":10731:10839   */\n    tag_232:\n        /* \"#utility.yul\":10808:10832   */\n      tag_245\n        /* \"#utility.yul\":10826:10831   */\n      dup2\n        /* \"#utility.yul\":10808:10832   */\n      tag_246\n      jump\t// in\n    tag_245:\n        /* \"#utility.yul\":10803:10806   */\n      dup3\n        /* \"#utility.yul\":10796:10833   */\n      mstore\n        /* \"#utility.yul\":10731:10839   */\n      pop\n      pop\n      jump\t// out\n        /* \"#utility.yul\":10845:10963   */\n    tag_247:\n        /* \"#utility.yul\":10932:10956   */\n      tag_249\n        /* \"#utility.yul\":10950:10955   */\n      dup2\n        /* \"#utility.yul\":10932:10956   */\n      tag_246\n      jump\t// in\n    tag_249:\n        /* \"#utility.yul\":10927:10930   */\n      dup3\n        /* \"#utility.yul\":10920:10957   */\n      mstore\n        /* \"#utility.yul\":10845:10963   */\n      pop\n      pop\n      jump\t// out\n        /* \"#utility.yul\":10969:11244   */\n    tag_74:\n        /* \"#utility.yul\":11101:11104   */\n      0x00\n        /* \"#utility.yul\":11123:11218   */\n      tag_251\n        /* \"#utility.yul\":11214:11217   */\n      dup3\n        /* \"#utility.yul\":11205:11211   */\n      dup5\n        /* \"#utility.yul\":11123:11218   */\n      tag_224\n      jump\t// in\n    tag_251:\n        /* \"#utility.yul\":11116:11218   */\n      swap2\n      pop\n        /* \"#utility.yul\":11235:11238   */\n      dup2\n        /* \"#utility.yul\":11228:11238   */\n      swap1\n      pop\n        /* \"#utility.yul\":10969:11244   */\n      swap3\n      swap2\n      pop\n      pop\n      jump\t// out\n        /* \"#utility.yul\":11250:11727   */\n    tag_38:\n        /* \"#utility.yul\":11445:11449   */\n      0x00\n        /* \"#utility.yul\":11483:11485   */\n      0x20\n        /* \"#utility.yul\":11472:11481   */\n      dup3\n        /* \"#utility.yul\":11468:11486   */\n      add\n        /* \"#utility.yul\":11460:11486   */\n      swap1\n      pop\n        /* \"#utility.yul\":11532:11541   */\n      dup2\n        /* \"#utility.yul\":11526:11530   */\n      dup2\n        /* \"#utility.yul\":11522:11542   */\n      sub\n        /* \"#utility.yul\":11518:11519   */\n      0x00\n        /* \"#utility.yul\":11507:11516   */\n      dup4\n        /* \"#utility.yul\":11503:11520   */\n      add\n        /* \"#utility.yul\":11496:11543   */\n      mstore\n        /* \"#utility.yul\":11560:11720   */\n      tag_253\n        /* \"#utility.yul\":11715:11719   */\n      dup2\n        /* \"#utility.yul\":11706:11712   */\n      dup5\n        /* \"#utility.yul\":11560:11720   */\n      tag_161\n      jump\t// in\n    tag_253:\n        /* \"#utility.yul\":11552:11720   */\n      swap1\n      pop\n        /* \"#utility.yul\":11250:11727   */\n      swap3\n      swap2\n      pop\n      pop\n      jump\t// out\n        /* \"#utility.yul\":11733:12210   */\n    tag_14:\n        /* \"#utility.yul\":11928:11932   */\n      0x00\n        /* \"#utility.yul\":11966:11968   */\n      0x20\n        /* \"#utility.yul\":11955:11964   */\n      dup3\n        /* \"#utility.yul\":11951:11969   */\n      add\n        /* \"#utility.yul\":11943:11969   */\n      swap1\n      pop\n        /* \"#utility.yul\":12015:12024   */\n      dup2\n        /* \"#utility.yul\":12009:12013   */\n      dup2\n        /* \"#utility.yul\":12005:12025   */\n      sub\n        /* \"#utility.yul\":12001:12002   */\n      0x00\n        /* \"#utility.yul\":11990:11999   */\n      dup4\n        /* \"#utility.yul\":11986:12003   */\n      add\n        /* \"#utility.yul\":11979:12026   */\n      mstore\n        /* \"#utility.yul\":12043:12203   */\n      tag_255\n        /* \"#utility.yul\":12198:12202   */\n      dup2\n        /* \"#utility.yul\":12189:12195   */\n      dup5\n        /* \"#utility.yul\":12043:12203   */\n      tag_189\n      jump\t// in\n    tag_255:\n        /* \"#utility.yul\":12035:12203   */\n      swap1\n      pop\n        /* \"#utility.yul\":11733:12210   */\n      swap3\n      swap2\n      pop\n      pop\n      jump\t// out\n        /* \"#utility.yul\":12216:12593   */\n    tag_25:\n        /* \"#utility.yul\":12361:12365   */\n      0x00\n        /* \"#utility.yul\":12399:12401   */\n      0x20\n        /* \"#utility.yul\":12388:12397   */\n      dup3\n        /* \"#utility.yul\":12384:12402   */\n      add\n        /* \"#utility.yul\":12376:12402   */\n      swap1\n      pop\n        /* \"#utility.yul\":12448:12457   */\n      dup2\n        /* \"#utility.yul\":12442:12446   */\n      dup2\n        /* \"#utility.yul\":12438:12458   */\n      sub\n        /* \"#utility.yul\":12434:12435   */\n      0x00\n        /* \"#utility.yul\":12423:12432   */\n      dup4\n        /* \"#utility.yul\":12419:12436   */\n      add\n        /* \"#utility.yul\":12412:12459   */\n      mstore\n        /* \"#utility.yul\":12476:12586   */\n      tag_257\n        /* \"#utility.yul\":12581:12585   */\n      dup2\n        /* \"#utility.yul\":12572:12578   */\n      dup5\n        /* \"#utility.yul\":12476:12586   */\n      tag_239\n      jump\t// in\n    tag_257:\n        /* \"#utility.yul\":12468:12586   */\n      swap1\n      pop\n        /* \"#utility.yul\":12216:12593   */\n      swap3\n      swap2\n      pop\n      pop\n      jump\t// out\n        /* \"#utility.yul\":12599:13124   */\n    tag_20:\n        /* \"#utility.yul\":12764:12768   */\n      0x00\n        /* \"#utility.yul\":12802:12804   */\n      0x60\n        /* \"#utility.yul\":12791:12800   */\n      dup3\n        /* \"#utility.yul\":12787:12805   */\n      add\n        /* \"#utility.yul\":12779:12805   */\n      swap1\n      pop\n        /* \"#utility.yul\":12815:12886   */\n      tag_259\n        /* \"#utility.yul\":12883:12884   */\n      0x00\n        /* \"#utility.yul\":12872:12881   */\n      dup4\n        /* \"#utility.yul\":12868:12885   */\n      add\n        /* \"#utility.yul\":12859:12865   */\n      dup7\n        /* \"#utility.yul\":12815:12886   */\n      tag_247\n      jump\t// in\n    tag_259:\n        /* \"#utility.yul\":12933:12942   */\n      dup2\n        /* \"#utility.yul\":12927:12931   */\n      dup2\n        /* \"#utility.yul\":12923:12943   */\n      sub\n        /* \"#utility.yul\":12918:12920   */\n      0x20\n        /* \"#utility.yul\":12907:12916   */\n      dup4\n        /* \"#utility.yul\":12903:12921   */\n      add\n        /* \"#utility.yul\":12896:12944   */\n      mstore\n        /* \"#utility.yul\":12961:13039   */\n      tag_260\n        /* \"#utility.yul\":13034:13038   */\n      dup2\n        /* \"#utility.yul\":13025:13031   */\n      dup6\n        /* \"#utility.yul\":12961:13039   */\n      tag_217\n      jump\t// in\n    tag_260:\n        /* \"#utility.yul\":12953:13039   */\n      swap1\n      pop\n        /* \"#utility.yul\":13049:13117   */\n      tag_261\n        /* \"#utility.yul\":13113:13115   */\n      0x40\n        /* \"#utility.yul\":13102:13111   */\n      dup4\n        /* \"#utility.yul\":13098:13116   */\n      add\n        /* \"#utility.yul\":13089:13095   */\n      dup5\n        /* \"#utility.yul\":13049:13117   */\n      tag_204\n      jump\t// in\n    tag_261:\n        /* \"#utility.yul\":12599:13124   */\n      swap5\n      swap4\n      pop\n      pop\n      pop\n      pop\n      jump\t// out\n        /* \"#utility.yul\":13130:13259   */\n    tag_114:\n        /* \"#utility.yul\":13164:13170   */\n      0x00\n        /* \"#utility.yul\":13191:13211   */\n      tag_263\n      tag_264\n      jump\t// in\n    tag_263:\n        /* \"#utility.yul\":13181:13211   */\n      swap1\n      pop\n        /* \"#utility.yul\":13220:13253   */\n      tag_265\n        /* \"#utility.yul\":13248:13252   */\n      dup3\n        /* \"#utility.yul\":13240:13246   */\n      dup3\n        /* \"#utility.yul\":13220:13253   */\n      tag_266\n      jump\t// in\n    tag_265:\n        /* \"#utility.yul\":13130:13259   */\n      swap2\n      swap1\n      pop\n      jump\t// out\n        /* \"#utility.yul\":13265:13340   */\n    tag_264:\n        /* \"#utility.yul\":13298:13304   */\n      0x00\n        /* \"#utility.yul\":13331:13333   */\n      0x40\n        /* \"#utility.yul\":13325:13334   */\n      mload\n        /* \"#utility.yul\":13315:13334   */\n      swap1\n      pop\n        /* \"#utility.yul\":13265:13340   */\n      swap1\n      jump\t// out\n        /* \"#utility.yul\":13346:13654   */\n    tag_113:\n        /* \"#utility.yul\":13408:13412   */\n      0x00\n        /* \"#utility.yul\":13498:13516   */\n      0xffffffffffffffff\n        /* \"#utility.yul\":13490:13496   */\n      dup3\n        /* \"#utility.yul\":13487:13517   */\n      gt\n        /* \"#utility.yul\":13484:13540   */\n      iszero\n      tag_269\n      jumpi\n        /* \"#utility.yul\":13520:13538   */\n      tag_270\n      tag_271\n      jump\t// in\n    tag_270:\n        /* \"#utility.yul\":13484:13540   */\n    tag_269:\n        /* \"#utility.yul\":13558:13587   */\n      tag_272\n        /* \"#utility.yul\":13580:13586   */\n      dup3\n        /* \"#utility.yul\":13558:13587   */\n      tag_216\n      jump\t// in\n    tag_272:\n        /* \"#utility.yul\":13550:13587   */\n      swap1\n      pop\n        /* \"#utility.yul\":13642:13646   */\n      0x20\n        /* \"#utility.yul\":13636:13640   */\n      dup2\n        /* \"#utility.yul\":13632:13647   */\n      add\n        /* \"#utility.yul\":13624:13647   */\n      swap1\n      pop\n        /* \"#utility.yul\":13346:13654   */\n      swap2\n      swap1\n      pop\n      jump\t// out\n        /* \"#utility.yul\":13660:13818   */\n    tag_168:\n        /* \"#utility.yul\":13753:13757   */\n      0x00\n        /* \"#utility.yul\":13776:13779   */\n      dup2\n        /* \"#utility.yul\":13768:13779   */\n      swap1\n      pop\n        /* \"#utility.yul\":13806:13810   */\n      0x20\n        /* \"#utility.yul\":13801:13804   */\n      dup3\n        /* \"#utility.yul\":13797:13811   */\n      add\n        /* \"#utility.yul\":13789:13811   */\n      swap1\n      pop\n        /* \"#utility.yul\":13660:13818   */\n      swap2\n      swap1\n      pop\n      jump\t// out\n        /* \"#utility.yul\":13824:13982   */\n    tag_182:\n        /* \"#utility.yul\":13917:13921   */\n      0x00\n        /* \"#utility.yul\":13940:13943   */\n      dup2\n        /* \"#utility.yul\":13932:13943   */\n      swap1\n      pop\n        /* \"#utility.yul\":13970:13974   */\n      0x20\n        /* \"#utility.yul\":13965:13968   */\n      dup3\n        /* \"#utility.yul\":13961:13975   */\n      add\n        /* \"#utility.yul\":13953:13975   */\n      swap1\n      pop\n        /* \"#utility.yul\":13824:13982   */\n      swap2\n      swap1\n      pop\n      jump\t// out\n        /* \"#utility.yul\":13988:14128   */\n    tag_164:\n        /* \"#utility.yul\":14081:14087   */\n      0x00\n        /* \"#utility.yul\":14115:14120   */\n      dup2\n        /* \"#utility.yul\":14109:14121   */\n      mload\n        /* \"#utility.yul\":14099:14121   */\n      swap1\n      pop\n        /* \"#utility.yul\":13988:14128   */\n      swap2\n      swap1\n      pop\n      jump\t// out\n        /* \"#utility.yul\":14134:14274   */\n    tag_178:\n        /* \"#utility.yul\":14227:14233   */\n      0x00\n        /* \"#utility.yul\":14261:14266   */\n      dup2\n        /* \"#utility.yul\":14255:14267   */\n      mload\n        /* \"#utility.yul\":14245:14267   */\n      swap1\n      pop\n        /* \"#utility.yul\":14134:14274   */\n      swap2\n      swap1\n      pop\n      jump\t// out\n        /* \"#utility.yul\":14280:14379   */\n    tag_210:\n        /* \"#utility.yul\":14332:14338   */\n      0x00\n        /* \"#utility.yul\":14366:14371   */\n      dup2\n        /* \"#utility.yul\":14360:14372   */\n      mload\n        /* \"#utility.yul\":14350:14372   */\n      swap1\n      pop\n        /* \"#utility.yul\":14280:14379   */\n      swap2\n      swap1\n      pop\n      jump\t// out\n        /* \"#utility.yul\":14385:14524   */\n    tag_174:\n        /* \"#utility.yul\":14481:14485   */\n      0x00\n        /* \"#utility.yul\":14513:14517   */\n      0x20\n        /* \"#utility.yul\":14508:14511   */\n      dup3\n        /* \"#utility.yul\":14504:14518   */\n      add\n        /* \"#utility.yul\":14496:14518   */\n      swap1\n      pop\n        /* \"#utility.yul\":14385:14524   */\n      swap2\n      swap1\n      pop\n      jump\t// out\n        /* \"#utility.yul\":14530:14669   */\n    tag_188:\n        /* \"#utility.yul\":14626:14630   */\n      0x00\n        /* \"#utility.yul\":14658:14662   */\n      0x20\n        /* \"#utility.yul\":14653:14656   */\n      dup3\n        /* \"#utility.yul\":14649:14663   */\n      add\n        /* \"#utility.yul\":14641:14663   */\n      swap1\n      pop\n        /* \"#utility.yul\":14530:14669   */\n      swap2\n      swap1\n      pop\n      jump\t// out\n        /* \"#utility.yul\":14675:14885   */\n    tag_166:\n        /* \"#utility.yul\":14800:14811   */\n      0x00\n        /* \"#utility.yul\":14834:14840   */\n      dup3\n        /* \"#utility.yul\":14829:14832   */\n      dup3\n        /* \"#utility.yul\":14822:14841   */\n      mstore\n        /* \"#utility.yul\":14874:14878   */\n      0x20\n        /* \"#utility.yul\":14869:14872   */\n      dup3\n        /* \"#utility.yul\":14865:14879   */\n      add\n        /* \"#utility.yul\":14850:14879   */\n      swap1\n      pop\n        /* \"#utility.yul\":14675:14885   */\n      swap3\n      swap2\n      pop\n      pop\n      jump\t// out\n        /* \"#utility.yul\":14891:15091   */\n    tag_180:\n        /* \"#utility.yul\":15006:15017   */\n      0x00\n        /* \"#utility.yul\":15040:15046   */\n      dup3\n        /* \"#utility.yul\":15035:15038   */\n      dup3\n        /* \"#utility.yul\":15028:15047   */\n      mstore\n        /* \"#utility.yul\":15080:15084   */\n      0x20\n        /* \"#utility.yul\":15075:15078   */\n      dup3\n        /* \"#utility.yul\":15071:15085   */\n      add\n        /* \"#utility.yul\":15056:15085   */\n      swap1\n      pop\n        /* \"#utility.yul\":14891:15091   */\n      swap3\n      swap2\n      pop\n      pop\n      jump\t// out\n        /* \"#utility.yul\":15097:15307   */\n    tag_193:\n        /* \"#utility.yul\":15222:15233   */\n      0x00\n        /* \"#utility.yul\":15256:15262   */\n      dup3\n        /* \"#utility.yul\":15251:15254   */\n      dup3\n        /* \"#utility.yul\":15244:15263   */\n      mstore\n        /* \"#utility.yul\":15296:15300   */\n      0x20\n        /* \"#utility.yul\":15291:15294   */\n      dup3\n        /* \"#utility.yul\":15287:15301   */\n      add\n        /* \"#utility.yul\":15272:15301   */\n      swap1\n      pop\n        /* \"#utility.yul\":15097:15307   */\n      swap3\n      swap2\n      pop\n      pop\n      jump\t// out\n        /* \"#utility.yul\":15313:15472   */\n    tag_212:\n        /* \"#utility.yul\":15387:15398   */\n      0x00\n        /* \"#utility.yul\":15421:15427   */\n      dup3\n        /* \"#utility.yul\":15416:15419   */\n      dup3\n        /* \"#utility.yul\":15409:15428   */\n      mstore\n        /* \"#utility.yul\":15461:15465   */\n      0x20\n        /* \"#utility.yul\":15456:15459   */\n      dup3\n        /* \"#utility.yul\":15452:15466   */\n      add\n        /* \"#utility.yul\":15437:15466   */\n      swap1\n      pop\n        /* \"#utility.yul\":15313:15472   */\n      swap3\n      swap2\n      pop\n      pop\n      jump\t// out\n        /* \"#utility.yul\":15478:15647   */\n    tag_221:\n        /* \"#utility.yul\":15562:15573   */\n      0x00\n        /* \"#utility.yul\":15596:15602   */\n      dup3\n        /* \"#utility.yul\":15591:15594   */\n      dup3\n        /* \"#utility.yul\":15584:15603   */\n      mstore\n        /* \"#utility.yul\":15636:15640   */\n      0x20\n        /* \"#utility.yul\":15631:15634   */\n      dup3\n        /* \"#utility.yul\":15627:15641   */\n      add\n        /* \"#utility.yul\":15612:15641   */\n      swap1\n      pop\n        /* \"#utility.yul\":15478:15647   */\n      swap3\n      swap2\n      pop\n      pop\n      jump\t// out\n        /* \"#utility.yul\":15653:15801   */\n    tag_228:\n        /* \"#utility.yul\":15755:15766   */\n      0x00\n        /* \"#utility.yul\":15792:15795   */\n      dup2\n        /* \"#utility.yul\":15777:15795   */\n      swap1\n      pop\n        /* \"#utility.yul\":15653:15801   */\n      swap3\n      swap2\n      pop\n      pop\n      jump\t// out\n        /* \"#utility.yul\":15807:16112   */\n    tag_67:\n        /* \"#utility.yul\":15847:15850   */\n      0x00\n        /* \"#utility.yul\":15866:15886   */\n      tag_287\n        /* \"#utility.yul\":15884:15885   */\n      dup3\n        /* \"#utility.yul\":15866:15886   */\n      tag_246\n      jump\t// in\n    tag_287:\n        /* \"#utility.yul\":15861:15886   */\n      swap2\n      pop\n        /* \"#utility.yul\":15900:15920   */\n      tag_288\n        /* \"#utility.yul\":15918:15919   */\n      dup4\n        /* \"#utility.yul\":15900:15920   */\n      tag_246\n      jump\t// in\n    tag_288:\n        /* \"#utility.yul\":15895:15920   */\n      swap3\n      pop\n        /* \"#utility.yul\":16054:16055   */\n      dup3\n        /* \"#utility.yul\":15986:16052   */\n      0xffffffffffffffffffffffffffffffffffffffffffffffffffffffffffffffff\n        /* \"#utility.yul\":15982:16056   */\n      sub\n        /* \"#utility.yul\":15979:15980   */\n      dup3\n        /* \"#utility.yul\":15976:16057   */\n      gt\n        /* \"#utility.yul\":15973:16080   */\n      iszero\n      tag_289\n      jumpi\n        /* \"#utility.yul\":16060:16078   */\n      tag_290\n      tag_291\n      jump\t// in\n    tag_290:\n        /* \"#utility.yul\":15973:16080   */\n    tag_289:\n        /* \"#utility.yul\":16104:16105   */\n      dup3\n        /* \"#utility.yul\":16101:16102   */\n      dup3\n        /* \"#utility.yul\":16097:16106   */\n      add\n        /* \"#utility.yul\":16090:16106   */\n      swap1\n      pop\n        /* \"#utility.yul\":15807:16112   */\n      swap3\n      swap2\n      pop\n      pop\n      jump\t// out\n        /* \"#utility.yul\":16118:16208   */\n    tag_203:\n        /* \"#utility.yul\":16153:16160   */\n      0x00\n        /* \"#utility.yul\":16196:16201   */\n      dup2\n        /* \"#utility.yul\":16193:16194   */\n      0x01\n        /* \"#utility.yul\":16182:16202   */\n      signextend\n        /* \"#utility.yul\":16171:16202   */\n      swap1\n      pop\n        /* \"#utility.yul\":16118:16208   */\n      swap2\n      swap1\n      pop\n      jump\t// out\n        /* \"#utility.yul\":16214:16291   */\n    tag_246:\n        /* \"#utility.yul\":16251:16258   */\n      0x00\n        /* \"#utility.yul\":16280:16285   */\n      dup2\n        /* \"#utility.yul\":16269:16285   */\n      swap1\n      pop\n        /* \"#utility.yul\":16214:16291   */\n      swap2\n      swap1\n      pop\n      jump\t// out\n        /* \"#utility.yul\":16297:16451   */\n    tag_119:\n        /* \"#utility.yul\":16381:16387   */\n      dup3\n        /* \"#utility.yul\":16376:16379   */\n      dup2\n        /* \"#utility.yul\":16371:16374   */\n      dup4\n        /* \"#utility.yul\":16358:16388   */\n      calldatacopy\n        /* \"#utility.yul\":16443:16444   */\n      0x00\n        /* \"#utility.yul\":16434:16440   */\n      dup4\n        /* \"#utility.yul\":16429:16432   */\n      dup4\n        /* \"#utility.yul\":16425:16441   */\n      add\n        /* \"#utility.yul\":16418:16445   */\n      mstore\n        /* \"#utility.yul\":16297:16451   */\n      pop\n      pop\n      pop\n      jump\t// out\n        /* \"#utility.yul\":16457:16764   */\n    tag_214:\n        /* \"#utility.yul\":16525:16526   */\n      0x00\n        /* \"#utility.yul\":16535:16648   */\n    tag_296:\n        /* \"#utility.yul\":16549:16555   */\n      dup4\n        /* \"#utility.yul\":16546:16547   */\n      dup2\n        /* \"#utility.yul\":16543:16556   */\n      lt\n        /* \"#utility.yul\":16535:16648   */\n      iszero\n      tag_298\n      jumpi\n        /* \"#utility.yul\":16634:16635   */\n      dup1\n        /* \"#utility.yul\":16629:16632   */\n      dup3\n        /* \"#utility.yul\":16625:16636   */\n      add\n        /* \"#utility.yul\":16619:16637   */\n      mload\n        /* \"#utility.yul\":16615:16616   */\n      dup2\n        /* \"#utility.yul\":16610:16613   */\n      dup5\n        /* \"#utility.yul\":16606:16617   */\n      add\n        /* \"#utility.yul\":16599:16638   */\n      mstore\n        /* \"#utility.yul\":16571:16573   */\n      0x20\n        /* \"#utility.yul\":16568:16569   */\n      dup2\n        /* \"#utility.yul\":16564:16574   */\n      add\n        /* \"#utility.yul\":16559:16574   */\n      swap1\n      pop\n        /* \"#utility.yul\":16535:16648   */\n      jump(tag_296)\n    tag_298:\n        /* \"#utility.yul\":16666:16672   */\n      dup4\n        /* \"#utility.yul\":16663:16664   */\n      dup2\n        /* \"#utility.yul\":16660:16673   */\n      gt\n        /* \"#utility.yul\":16657:16758   */\n      iszero\n      tag_299\n      jumpi\n        /* \"#utility.yul\":16746:16747   */\n      0x00\n        /* \"#utility.yul\":16737:16743   */\n      dup5\n        /* \"#utility.yul\":16732:16735   */\n      dup5\n        /* \"#utility.yul\":16728:16744   */\n      add\n        /* \"#utility.yul\":16721:16748   */\n      mstore\n        /* \"#utility.yul\":16657:16758   */\n    tag_299:\n        /* \"#utility.yul\":16506:16764   */\n      pop\n        /* \"#utility.yul\":16457:16764   */\n      pop\n      pop\n      pop\n      jump\t// out\n        /* \"#utility.yul\":16770:17090   */\n    tag_47:\n        /* \"#utility.yul\":16814:16820   */\n      0x00\n        /* \"#utility.yul\":16851:16852   */\n      0x02\n        /* \"#utility.yul\":16845:16849   */\n      dup3\n        /* \"#utility.yul\":16841:16853   */\n      div\n        /* \"#utility.yul\":16831:16853   */\n      swap1\n      pop\n        /* \"#utility.yul\":16898:16899   */\n      0x01\n        /* \"#utility.yul\":16892:16896   */\n      dup3\n        /* \"#utility.yul\":16888:16900   */\n      and\n        /* \"#utility.yul\":16919:16937   */\n      dup1\n        /* \"#utility.yul\":16909:16990   */\n      tag_301\n      jumpi\n        /* \"#utility.yul\":16975:16979   */\n      0x7f\n        /* \"#utility.yul\":16967:16973   */\n      dup3\n        /* \"#utility.yul\":16963:16980   */\n      and\n        /* \"#utility.yul\":16953:16980   */\n      swap2\n      pop\n        /* \"#utility.yul\":16909:16990   */\n    tag_301:\n        /* \"#utility.yul\":17037:17039   */\n      0x20\n        /* \"#utility.yul\":17029:17035   */\n      dup3\n        /* \"#utility.yul\":17026:17040   */\n      lt\n        /* \"#utility.yul\":17006:17024   */\n      dup2\n        /* \"#utility.yul\":17003:17041   */\n      eq\n        /* \"#utility.yul\":17000:17084   */\n      iszero\n      tag_302\n      jumpi\n        /* \"#utility.yul\":17056:17074   */\n      tag_303\n      tag_304\n      jump\t// in\n    tag_303:\n        /* \"#utility.yul\":17000:17084   */\n    tag_302:\n        /* \"#utility.yul\":16821:17090   */\n      pop\n        /* \"#utility.yul\":16770:17090   */\n      swap2\n      swap1\n      pop\n      jump\t// out\n        /* \"#utility.yul\":17096:17377   */\n    tag_266:\n        /* \"#utility.yul\":17179:17206   */\n      tag_306\n        /* \"#utility.yul\":17201:17205   */\n      dup3\n        /* \"#utility.yul\":17179:17206   */\n      tag_216\n      jump\t// in\n    tag_306:\n        /* \"#utility.yul\":17171:17177   */\n      dup2\n        /* \"#utility.yul\":17167:17207   */\n      add\n        /* \"#utility.yul\":17309:17315   */\n      dup2\n        /* \"#utility.yul\":17297:17307   */\n      dup2\n        /* \"#utility.yul\":17294:17316   */\n      lt\n        /* \"#utility.yul\":17273:17291   */\n      0xffffffffffffffff\n        /* \"#utility.yul\":17261:17271   */\n      dup3\n        /* \"#utility.yul\":17258:17292   */\n      gt\n        /* \"#utility.yul\":17255:17317   */\n      or\n        /* \"#utility.yul\":17252:17340   */\n      iszero\n      tag_307\n      jumpi\n        /* \"#utility.yul\":17320:17338   */\n      tag_308\n      tag_271\n      jump\t// in\n    tag_308:\n        /* \"#utility.yul\":17252:17340   */\n    tag_307:\n        /* \"#utility.yul\":17360:17370   */\n      dup1\n        /* \"#utility.yul\":17356:17358   */\n      0x40\n        /* \"#utility.yul\":17349:17371   */\n      mstore\n        /* \"#utility.yul\":17139:17377   */\n      pop\n        /* \"#utility.yul\":17096:17377   */\n      pop\n      pop\n      jump\t// out\n        /* \"#utility.yul\":17383:17563   */\n    tag_291:\n        /* \"#utility.yul\":17431:17508   */\n      0x4e487b7100000000000000000000000000000000000000000000000000000000\n        /* \"#utility.yul\":17428:17429   */\n      0x00\n        /* \"#utility.yul\":17421:17509   */\n      mstore\n        /* \"#utility.yul\":17528:17532   */\n      0x11\n        /* \"#utility.yul\":17525:17526   */\n      0x04\n        /* \"#utility.yul\":17518:17533   */\n      mstore\n        /* \"#utility.yul\":17552:17556   */\n      0x24\n        /* \"#utility.yul\":17549:17550   */\n      0x00\n        /* \"#utility.yul\":17542:17557   */\n      revert\n        /* \"#utility.yul\":17569:17749   */\n    tag_304:\n        /* \"#utility.yul\":17617:17694   */\n      0x4e487b7100000000000000000000000000000000000000000000000000000000\n        /* \"#utility.yul\":17614:17615   */\n      0x00\n        /* \"#utility.yul\":17607:17695   */\n      mstore\n        /* \"#utility.yul\":17714:17718   */\n      0x22\n        /* \"#utility.yul\":17711:17712   */\n      0x04\n        /* \"#utility.yul\":17704:17719   */\n      mstore\n        /* \"#utility.yul\":17738:17742   */\n      0x24\n        /* \"#utility.yul\":17735:17736   */\n      0x00\n        /* \"#utility.yul\":17728:17743   */\n      revert\n        /* \"#utility.yul\":17755:17935   */\n    tag_271:\n        /* \"#utility.yul\":17803:17880   */\n      0x4e487b7100000000000000000000000000000000000000000000000000000000\n        /* \"#utility.yul\":17800:17801   */\n      0x00\n        /* \"#utility.yul\":17793:17881   */\n      mstore\n        /* \"#utility.yul\":17900:17904   */\n      0x41\n        /* \"#utility.yul\":17897:17898   */\n      0x04\n        /* \"#utility.yul\":17890:17905   */\n      mstore\n        /* \"#utility.yul\":17924:17928   */\n      0x24\n        /* \"#utility.yul\":17921:17922   */\n      0x00\n        /* \"#utility.yul\":17914:17929   */\n      revert\n        /* \"#utility.yul\":17941:18058   */\n    tag_128:\n        /* \"#utility.yul\":18050:18051   */\n      0x00\n        /* \"#utility.yul\":18047:18048   */\n      dup1\n        /* \"#utility.yul\":18040:18052   */\n      revert\n        /* \"#utility.yul\":18064:18181   */\n    tag_117:\n        /* \"#utility.yul\":18173:18174   */\n      0x00\n        /* \"#utility.yul\":18170:18171   */\n      dup1\n        /* \"#utility.yul\":18163:18175   */\n      revert\n        /* \"#utility.yul\":18187:18304   */\n    tag_140:\n        /* \"#utility.yul\":18296:18297   */\n      0x00\n        /* \"#utility.yul\":18293:18294   */\n      dup1\n        /* \"#utility.yul\":18286:18298   */\n      revert\n        /* \"#utility.yul\":18310:18427   */\n    tag_137:\n        /* \"#utility.yul\":18419:18420   */\n      0x00\n        /* \"#utility.yul\":18416:18417   */\n      dup1\n        /* \"#utility.yul\":18409:18421   */\n      revert\n        /* \"#utility.yul\":18433:18535   */\n    tag_216:\n        /* \"#utility.yul\":18474:18480   */\n      0x00\n        /* \"#utility.yul\":18525:18527   */\n      0x1f\n        /* \"#utility.yul\":18521:18528   */\n      not\n        /* \"#utility.yul\":18516:18518   */\n      0x1f\n        /* \"#utility.yul\":18509:18514   */\n      dup4\n        /* \"#utility.yul\":18505:18519   */\n      add\n        /* \"#utility.yul\":18501:18529   */\n      and\n        /* \"#utility.yul\":18491:18529   */\n      swap1\n      pop\n        /* \"#utility.yul\":18433:18535   */\n      swap2\n      swap1\n      pop\n      jump\t// out\n        /* \"#utility.yul\":18541:18659   */\n    tag_123:\n        /* \"#utility.yul\":18612:18634   */\n      tag_318\n        /* \"#utility.yul\":18628:18633   */\n      dup2\n        /* \"#utility.yul\":18612:18634   */\n      tag_203\n      jump\t// in\n    tag_318:\n        /* \"#utility.yul\":18605:18610   */\n      dup2\n        /* \"#utility.yul\":18602:18635   */\n      eq\n        /* \"#utility.yul\":18592:18653   */\n      tag_319\n      jumpi\n        /* \"#utility.yul\":18649:18650   */\n      0x00\n        /* \"#utility.yul\":18646:18647   */\n      dup1\n        /* \"#utility.yul\":18639:18651   */\n      revert\n        /* \"#utility.yul\":18592:18653   */\n    tag_319:\n        /* \"#utility.yul\":18541:18659   */\n      pop\n      jump\t// out\n        /* \"#utility.yul\":18665:18787   */\n    tag_133:\n        /* \"#utility.yul\":18738:18762   */\n      tag_321\n        /* \"#utility.yul\":18756:18761   */\n      dup2\n        /* \"#utility.yul\":18738:18762   */\n      tag_246\n      jump\t// in\n    tag_321:\n        /* \"#utility.yul\":18731:18736   */\n      dup2\n        /* \"#utility.yul\":18728:18763   */\n      eq\n        /* \"#utility.yul\":18718:18781   */\n      tag_322\n      jumpi\n        /* \"#utility.yul\":18777:18778   */\n      0x00\n        /* \"#utility.yul\":18774:18775   */\n      dup1\n        /* \"#utility.yul\":18767:18779   */\n      revert\n        /* \"#utility.yul\":18718:18781   */\n    tag_322:\n        /* \"#utility.yul\":18665:18787   */\n      pop\n      jump\t// out\n\n    auxdata: 0xa26469706673582212200774b1b9fd9f76469363ccb537f7190fedec0af6fe2a25e2e5cb68e6c46096d564736f6c63430008070033\n}\n",
				"bytecode": {
					"linkReferences": {},
					"object": "608060405234801561001057600080fd5b50611189806100206000396000f3fe608060405234801561001057600080fd5b506004361061007d5760003560e01c806351401eef1161005b57806351401eef14610102578063d4290f831461011e578063e4d7a3d41461014e578063e88e9f0f1461016c5761007d565b806302ee3a52146100825780633f48d969146100a05780633f70c2b4146100d2575b600080fd5b61008a610188565b6040516100979190610dce565b60405180910390f35b6100ba60048036038101906100b59190610a0b565b6102a0565b6040516100c993929190610e12565b60405180910390f35b6100ec60048036038101906100e79190610a0b565b61035f565b6040516100f99190610df0565b60405180910390f35b61011c600480360381019061011791906109af565b610445565b005b61013860048036038101906101339190610966565b6104fe565b6040516101459190610df0565b60405180910390f35b6101566105ef565b6040516101639190610dac565b60405180910390f35b61018660048036038101906101819190610966565b610802565b005b60606000805480602002602001604051908101604052809291908181526020016000905b828210156102975783829060005260206000209060030201604051806060016040529081600082015481526020016001820180546101e990611010565b80601f016020809104026020016040519081016040528092919081815260200182805461021590611010565b80156102625780601f1061023757610100808354040283529160200191610262565b820191906000526020600020905b81548152906001019060200180831161024557829003601f168201915b505050505081526020016002820160009054906101000a900460010b60010b60010b81525050815260200190600101906101ac565b50505050905090565b60036020528060005260406000206000915090508060000154908060010180546102c990611010565b80601f01602080910402602001604051908101604052809291908181526020018280546102f590611010565b80156103425780601f1061031757610100808354040283529160200191610342565b820191906000526020600020905b81548152906001019060200180831161032557829003601f168201915b5050505050908060020160009054906101000a900460010b905083565b610367610805565b600360008381526020019081526020016000206040518060600160405290816000820154815260200160018201805461039f90611010565b80601f01602080910402602001604051908101604052809291908181526020018280546103cb90611010565b80156104185780601f106103ed57610100808354040283529160200191610418565b820191906000526020600020905b8154815290600101906020018083116103fb57829003601f168201915b505050505081526020016002820160009054906101000a900460010b60010b60010b815250509050919050565b600060016000805490506104599190610f61565b9050600060405180606001604052808381526020018581526020018460010b815250905060008190806001815401808255809150506001900390600052602060002090600302016000909190919091506000820151816000015560208201518160010190805190602001906104cf929190610829565b5060408201518160020160006101000a81548161ffff021916908360010b61ffff160217905550505050505050565b610506610805565b6004826040516105169190610d95565b90815260200160405180910390206040518060600160405290816000820154815260200160018201805461054990611010565b80601f016020809104026020016040519081016040528092919081815260200182805461057590611010565b80156105c25780601f10610597576101008083540402835291602001916105c2565b820191906000526020600020905b8154815290600101906020018083116105a557829003601f168201915b505050505081526020016002820160009054906101000a900460010b60010b60010b815250509050919050565b60606001805480602002602001604051908101604052809291908181526020016000905b828210156107f957838290600052602060002090600302016040518060600160405290816000820154815260200160018201805461065090611010565b80601f016020809104026020016040519081016040528092919081815260200182805461067c90611010565b80156106c95780601f1061069e576101008083540402835291602001916106c9565b820191906000526020600020905b8154815290600101906020018083116106ac57829003601f168201915b5050505050815260200160028201805480602002602001604051908101604052809291908181526020016000905b828210156107e257838290600052602060002090600302016040518060600160405290816000820154815260200160018201805461073490611010565b80601f016020809104026020016040519081016040528092919081815260200182805461076090611010565b80156107ad5780601f10610782576101008083540402835291602001916107ad565b820191906000526020600020905b81548152906001019060200180831161079057829003601f168201915b505050505081526020016002820160009054906101000a900460010b60010b60010b81525050815260200190600101906106f7565b505050508152505081526020019060010190610613565b50505050905090565b50565b60405180606001604052806000815260200160608152602001600060010b81525090565b82805461083590611010565b90600052602060002090601f016020900481019282610857576000855561089e565b82601f1061087057805160ff191683800117855561089e565b8280016001018555821561089e579182015b8281111561089d578251825591602001919060010190610882565b5b5090506108ab91906108af565b5090565b5b808211156108c85760008160009055506001016108b0565b5090565b60006108df6108da84610e75565b610e50565b9050828152602081018484840111156108fb576108fa611105565b5b610906848285610fce565b509392505050565b60008135905061091d81611125565b92915050565b600082601f83011261093857610937611100565b5b81356109488482602086016108cc565b91505092915050565b6000813590506109608161113c565b92915050565b60006020828403121561097c5761097b61110f565b5b600082013567ffffffffffffffff81111561099a5761099961110a565b5b6109a684828501610923565b91505092915050565b600080604083850312156109c6576109c561110f565b5b600083013567ffffffffffffffff8111156109e4576109e361110a565b5b6109f085828601610923565b9250506020610a018582860161090e565b9150509250929050565b600060208284031215610a2157610a2061110f565b5b6000610a2f84828501610951565b91505092915050565b6000610a448383610c80565b905092915050565b6000610a588383610cd7565b905092915050565b6000610a6b82610ec6565b610a758185610f01565b935083602082028501610a8785610ea6565b8060005b85811015610ac35784840389528151610aa48582610a38565b9450610aaf83610ee7565b925060208a01995050600181019050610a8b565b50829750879550505050505092915050565b6000610ae082610ed1565b610aea8185610f12565b935083602082028501610afc85610eb6565b8060005b85811015610b385784840389528151610b198582610a4c565b9450610b2483610ef4565b925060208a01995050600181019050610b00565b50829750879550505050505092915050565b6000610b5582610ed1565b610b5f8185610f23565b935083602082028501610b7185610eb6565b8060005b85811015610bad5784840389528151610b8e8582610a4c565b9450610b9983610ef4565b925060208a01995050600181019050610b75565b50829750879550505050505092915050565b610bc881610fb7565b82525050565b610bd781610fb7565b82525050565b6000610be882610edc565b610bf28185610f34565b9350610c02818560208601610fdd565b610c0b81611114565b840191505092915050565b6000610c2182610edc565b610c2b8185610f45565b9350610c3b818560208601610fdd565b610c4481611114565b840191505092915050565b6000610c5a82610edc565b610c648185610f56565b9350610c74818560208601610fdd565b80840191505092915050565b6000606083016000830151610c986000860182610d77565b5060208301518482036020860152610cb08282610bdd565b91505060408301518482036040860152610cca8282610ad5565b9150508091505092915050565b6000606083016000830151610cef6000860182610d77565b5060208301518482036020860152610d078282610bdd565b9150506040830151610d1c6040860182610bbf565b508091505092915050565b6000606083016000830151610d3f6000860182610d77565b5060208301518482036020860152610d578282610bdd565b9150506040830151610d6c6040860182610bbf565b508091505092915050565b610d8081610fc4565b82525050565b610d8f81610fc4565b82525050565b6000610da18284610c4f565b915081905092915050565b60006020820190508181036000830152610dc68184610a60565b905092915050565b60006020820190508181036000830152610de88184610b4a565b905092915050565b60006020820190508181036000830152610e0a8184610d27565b905092915050565b6000606082019050610e276000830186610d86565b8181036020830152610e398185610c16565b9050610e486040830184610bce565b949350505050565b6000610e5a610e6b565b9050610e668282611042565b919050565b6000604051905090565b600067ffffffffffffffff821115610e9057610e8f6110d1565b5b610e9982611114565b9050602081019050919050565b6000819050602082019050919050565b6000819050602082019050919050565b600081519050919050565b600081519050919050565b600081519050919050565b6000602082019050919050565b6000602082019050919050565b600082825260208201905092915050565b600082825260208201905092915050565b600082825260208201905092915050565b600082825260208201905092915050565b600082825260208201905092915050565b600081905092915050565b6000610f6c82610fc4565b9150610f7783610fc4565b9250827fffffffffffffffffffffffffffffffffffffffffffffffffffffffffffffffff03821115610fac57610fab611073565b5b828201905092915050565b60008160010b9050919050565b6000819050919050565b82818337600083830152505050565b60005b83811015610ffb578082015181840152602081019050610fe0565b8381111561100a576000848401525b50505050565b6000600282049050600182168061102857607f821691505b6020821081141561103c5761103b6110a2565b5b50919050565b61104b82611114565b810181811067ffffffffffffffff8211171561106a576110696110d1565b5b80604052505050565b7f4e487b7100000000000000000000000000000000000000000000000000000000600052601160045260246000fd5b7f4e487b7100000000000000000000000000000000000000000000000000000000600052602260045260246000fd5b7f4e487b7100000000000000000000000000000000000000000000000000000000600052604160045260246000fd5b600080fd5b600080fd5b600080fd5b600080fd5b6000601f19601f8301169050919050565b61112e81610fb7565b811461113957600080fd5b50565b61114581610fc4565b811461115057600080fd5b5056fea26469706673582212200774b1b9fd9f76469363ccb537f7190fedec0af6fe2a25e2e5cb68e6c46096d564736f6c63430008070033",
					"opcodes": "PUSH1 0x80 PUSH1 0x40 MSTORE CALLVALUE DUP1 ISZERO PUSH2 0x10 JUMPI PUSH1 0x0 DUP1 REVERT JUMPDEST POP PUSH2 0x1189 DUP1 PUSH2 0x20 PUSH1 0x0 CODECOPY PUSH1 0x0 RETURN INVALID PUSH1 0x80 PUSH1 0x40 MSTORE CALLVALUE DUP1 ISZERO PUSH2 0x10 JUMPI PUSH1 0x0 DUP1 REVERT JUMPDEST POP PUSH1 0x4 CALLDATASIZE LT PUSH2 0x7D JUMPI PUSH1 0x0 CALLDATALOAD PUSH1 0xE0 SHR DUP1 PUSH4 0x51401EEF GT PUSH2 0x5B JUMPI DUP1 PUSH4 0x51401EEF EQ PUSH2 0x102 JUMPI DUP1 PUSH4 0xD4290F83 EQ PUSH2 0x11E JUMPI DUP1 PUSH4 0xE4D7A3D4 EQ PUSH2 0x14E JUMPI DUP1 PUSH4 0xE88E9F0F EQ PUSH2 0x16C JUMPI PUSH2 0x7D JUMP JUMPDEST DUP1 PUSH4 0x2EE3A52 EQ PUSH2 0x82 JUMPI DUP1 PUSH4 0x3F48D969 EQ PUSH2 0xA0 JUMPI DUP1 PUSH4 0x3F70C2B4 EQ PUSH2 0xD2 JUMPI JUMPDEST PUSH1 0x0 DUP1 REVERT JUMPDEST PUSH2 0x8A PUSH2 0x188 JUMP JUMPDEST PUSH1 0x40 MLOAD PUSH2 0x97 SWAP2 SWAP1 PUSH2 0xDCE JUMP JUMPDEST PUSH1 0x40 MLOAD DUP1 SWAP2 SUB SWAP1 RETURN JUMPDEST PUSH2 0xBA PUSH1 0x4 DUP1 CALLDATASIZE SUB DUP2 ADD SWAP1 PUSH2 0xB5 SWAP2 SWAP1 PUSH2 0xA0B JUMP JUMPDEST PUSH2 0x2A0 JUMP JUMPDEST PUSH1 0x40 MLOAD PUSH2 0xC9 SWAP4 SWAP3 SWAP2 SWAP1 PUSH2 0xE12 JUMP JUMPDEST PUSH1 0x40 MLOAD DUP1 SWAP2 SUB SWAP1 RETURN JUMPDEST PUSH2 0xEC PUSH1 0x4 DUP1 CALLDATASIZE SUB DUP2 ADD SWAP1 PUSH2 0xE7 SWAP2 SWAP1 PUSH2 0xA0B JUMP JUMPDEST PUSH2 0x35F JUMP JUMPDEST PUSH1 0x40 MLOAD PUSH2 0xF9 SWAP2 SWAP1 PUSH2 0xDF0 JUMP JUMPDEST PUSH1 0x40 MLOAD DUP1 SWAP2 SUB SWAP1 RETURN JUMPDEST PUSH2 0x11C PUSH1 0x4 DUP1 CALLDATASIZE SUB DUP2 ADD SWAP1 PUSH2 0x117 SWAP2 SWAP1 PUSH2 0x9AF JUMP JUMPDEST PUSH2 0x445 JUMP JUMPDEST STOP JUMPDEST PUSH2 0x138 PUSH1 0x4 DUP1 CALLDATASIZE SUB DUP2 ADD SWAP1 PUSH2 0x133 SWAP2 SWAP1 PUSH2 0x966 JUMP JUMPDEST PUSH2 0x4FE JUMP JUMPDEST PUSH1 0x40 MLOAD PUSH2 0x145 SWAP2 SWAP1 PUSH2 0xDF0 JUMP JUMPDEST PUSH1 0x40 MLOAD DUP1 SWAP2 SUB SWAP1 RETURN JUMPDEST PUSH2 0x156 PUSH2 0x5EF JUMP JUMPDEST PUSH1 0x40 MLOAD PUSH2 0x163 SWAP2 SWAP1 PUSH2 0xDAC JUMP JUMPDEST PUSH1 0x40 MLOAD DUP1 SWAP2 SUB SWAP1 RETURN JUMPDEST PUSH2 0x186 PUSH1 0x4 DUP1 CALLDATASIZE SUB DUP2 ADD SWAP1 PUSH2 0x181 SWAP2 SWAP1 PUSH2 0x966 JUMP JUMPDEST PUSH2 0x802 JUMP JUMPDEST STOP JUMPDEST PUSH1 0x60 PUSH1 0x0 DUP1 SLOAD DUP1 PUSH1 0x20 MUL PUSH1 0x20 ADD PUSH1 0x40 MLOAD SWAP1 DUP2 ADD PUSH1 0x40 MSTORE DUP1 SWAP3 SWAP2 SWAP1 DUP2 DUP2 MSTORE PUSH1 0x20 ADD PUSH1 0x0 SWAP1 JUMPDEST DUP3 DUP3 LT ISZERO PUSH2 0x297 JUMPI DUP4 DUP3 SWAP1 PUSH1 0x0 MSTORE PUSH1 0x20 PUSH1 0x0 KECCAK256 SWAP1 PUSH1 0x3 MUL ADD PUSH1 0x40 MLOAD DUP1 PUSH1 0x60 ADD PUSH1 0x40 MSTORE SWAP1 DUP2 PUSH1 0x0 DUP3 ADD SLOAD DUP2 MSTORE PUSH1 0x20 ADD PUSH1 0x1 DUP3 ADD DUP1 SLOAD PUSH2 0x1E9 SWAP1 PUSH2 0x1010 JUMP JUMPDEST DUP1 PUSH1 0x1F ADD PUSH1 0x20 DUP1 SWAP2 DIV MUL PUSH1 0x20 ADD PUSH1 0x40 MLOAD SWAP1 DUP2 ADD PUSH1 0x40 MSTORE DUP1 SWAP3 SWAP2 SWAP1 DUP2 DUP2 MSTORE PUSH1 0x20 ADD DUP3 DUP1 SLOAD PUSH2 0x215 SWAP1 PUSH2 0x1010 JUMP JUMPDEST DUP1 ISZERO PUSH2 0x262 JUMPI DUP1 PUSH1 0x1F LT PUSH2 0x237 JUMPI PUSH2 0x100 DUP1 DUP4 SLOAD DIV MUL DUP4 MSTORE SWAP2 PUSH1 0x20 ADD SWAP2 PUSH2 0x262 JUMP JUMPDEST DUP3 ADD SWAP2 SWAP1 PUSH1 0x0 MSTORE PUSH1 0x20 PUSH1 0x0 KECCAK256 SWAP1 JUMPDEST DUP2 SLOAD DUP2 MSTORE SWAP1 PUSH1 0x1 ADD SWAP1 PUSH1 0x20 ADD DUP1 DUP4 GT PUSH2 0x245 JUMPI DUP3 SWAP1 SUB PUSH1 0x1F AND DUP3 ADD SWAP2 JUMPDEST POP POP POP POP POP DUP2 MSTORE PUSH1 0x20 ADD PUSH1 0x2 DUP3 ADD PUSH1 0x0 SWAP1 SLOAD SWAP1 PUSH2 0x100 EXP SWAP1 DIV PUSH1 0x1 SIGNEXTEND PUSH1 0x1 SIGNEXTEND PUSH1 0x1 SIGNEXTEND DUP2 MSTORE POP POP DUP2 MSTORE PUSH1 0x20 ADD SWAP1 PUSH1 0x1 ADD SWAP1 PUSH2 0x1AC JUMP JUMPDEST POP POP POP POP SWAP1 POP SWAP1 JUMP JUMPDEST PUSH1 0x3 PUSH1 0x20 MSTORE DUP1 PUSH1 0x0 MSTORE PUSH1 0x40 PUSH1 0x0 KECCAK256 PUSH1 0x0 SWAP2 POP SWAP1 POP DUP1 PUSH1 0x0 ADD SLOAD SWAP1 DUP1 PUSH1 0x1 ADD DUP1 SLOAD PUSH2 0x2C9 SWAP1 PUSH2 0x1010 JUMP JUMPDEST DUP1 PUSH1 0x1F ADD PUSH1 0x20 DUP1 SWAP2 DIV MUL PUSH1 0x20 ADD PUSH1 0x40 MLOAD SWAP1 DUP2 ADD PUSH1 0x40 MSTORE DUP1 SWAP3 SWAP2 SWAP1 DUP2 DUP2 MSTORE PUSH1 0x20 ADD DUP3 DUP1 SLOAD PUSH2 0x2F5 SWAP1 PUSH2 0x1010 JUMP JUMPDEST DUP1 ISZERO PUSH2 0x342 JUMPI DUP1 PUSH1 0x1F LT PUSH2 0x317 JUMPI PUSH2 0x100 DUP1 DUP4 SLOAD DIV MUL DUP4 MSTORE SWAP2 PUSH1 0x20 ADD SWAP2 PUSH2 0x342 JUMP JUMPDEST DUP3 ADD SWAP2 SWAP1 PUSH1 0x0 MSTORE PUSH1 0x20 PUSH1 0x0 KECCAK256 SWAP1 JUMPDEST DUP2 SLOAD DUP2 MSTORE SWAP1 PUSH1 0x1 ADD SWAP1 PUSH1 0x20 ADD DUP1 DUP4 GT PUSH2 0x325 JUMPI DUP3 SWAP1 SUB PUSH1 0x1F AND DUP3 ADD SWAP2 JUMPDEST POP POP POP POP POP SWAP1 DUP1 PUSH1 0x2 ADD PUSH1 0x0 SWAP1 SLOAD SWAP1 PUSH2 0x100 EXP SWAP1 DIV PUSH1 0x1 SIGNEXTEND SWAP1 POP DUP4 JUMP JUMPDEST PUSH2 0x367 PUSH2 0x805 JUMP JUMPDEST PUSH1 0x3 PUSH1 0x0 DUP4 DUP2 MSTORE PUSH1 0x20 ADD SWAP1 DUP2 MSTORE PUSH1 0x20 ADD PUSH1 0x0 KECCAK256 PUSH1 0x40 MLOAD DUP1 PUSH1 0x60 ADD PUSH1 0x40 MSTORE SWAP1 DUP2 PUSH1 0x0 DUP3 ADD SLOAD DUP2 MSTORE PUSH1 0x20 ADD PUSH1 0x1 DUP3 ADD DUP1 SLOAD PUSH2 0x39F SWAP1 PUSH2 0x1010 JUMP JUMPDEST DUP1 PUSH1 0x1F ADD PUSH1 0x20 DUP1 SWAP2 DIV MUL PUSH1 0x20 ADD PUSH1 0x40 MLOAD SWAP1 DUP2 ADD PUSH1 0x40 MSTORE DUP1 SWAP3 SWAP2 SWAP1 DUP2 DUP2 MSTORE PUSH1 0x20 ADD DUP3 DUP1 SLOAD PUSH2 0x3CB SWAP1 PUSH2 0x1010 JUMP JUMPDEST DUP1 ISZERO PUSH2 0x418 JUMPI DUP1 PUSH1 0x1F LT PUSH2 0x3ED JUMPI PUSH2 0x100 DUP1 DUP4 SLOAD DIV MUL DUP4 MSTORE SWAP2 PUSH1 0x20 ADD SWAP2 PUSH2 0x418 JUMP JUMPDEST DUP3 ADD SWAP2 SWAP1 PUSH1 0x0 MSTORE PUSH1 0x20 PUSH1 0x0 KECCAK256 SWAP1 JUMPDEST DUP2 SLOAD DUP2 MSTORE SWAP1 PUSH1 0x1 ADD SWAP1 PUSH1 0x20 ADD DUP1 DUP4 GT PUSH2 0x3FB JUMPI DUP3 SWAP1 SUB PUSH1 0x1F AND DUP3 ADD SWAP2 JUMPDEST POP POP POP POP POP DUP2 MSTORE PUSH1 0x20 ADD PUSH1 0x2 DUP3 ADD PUSH1 0x0 SWAP1 SLOAD SWAP1 PUSH2 0x100 EXP SWAP1 DIV PUSH1 0x1 SIGNEXTEND PUSH1 0x1 SIGNEXTEND PUSH1 0x1 SIGNEXTEND DUP2 MSTORE POP POP SWAP1 POP SWAP2 SWAP1 POP JUMP JUMPDEST PUSH1 0x0 PUSH1 0x1 PUSH1 0x0 DUP1 SLOAD SWAP1 POP PUSH2 0x459 SWAP2 SWAP1 PUSH2 0xF61 JUMP JUMPDEST SWAP1 POP PUSH1 0x0 PUSH1 0x40 MLOAD DUP1 PUSH1 0x60 ADD PUSH1 0x40 MSTORE DUP1 DUP4 DUP2 MSTORE PUSH1 0x20 ADD DUP6 DUP2 MSTORE PUSH1 0x20 ADD DUP5 PUSH1 0x1 SIGNEXTEND DUP2 MSTORE POP SWAP1 POP PUSH1 0x0 DUP2 SWAP1 DUP1 PUSH1 0x1 DUP2 SLOAD ADD DUP1 DUP3 SSTORE DUP1 SWAP2 POP POP PUSH1 0x1 SWAP1 SUB SWAP1 PUSH1 0x0 MSTORE PUSH1 0x20 PUSH1 0x0 KECCAK256 SWAP1 PUSH1 0x3 MUL ADD PUSH1 0x0 SWAP1 SWAP2 SWAP1 SWAP2 SWAP1 SWAP2 POP PUSH1 0x0 DUP3 ADD MLOAD DUP2 PUSH1 0x0 ADD SSTORE PUSH1 0x20 DUP3 ADD MLOAD DUP2 PUSH1 0x1 ADD SWAP1 DUP1 MLOAD SWAP1 PUSH1 0x20 ADD SWAP1 PUSH2 0x4CF SWAP3 SWAP2 SWAP1 PUSH2 0x829 JUMP JUMPDEST POP PUSH1 0x40 DUP3 ADD MLOAD DUP2 PUSH1 0x2 ADD PUSH1 0x0 PUSH2 0x100 EXP DUP2 SLOAD DUP2 PUSH2 0xFFFF MUL NOT AND SWAP1 DUP4 PUSH1 0x1 SIGNEXTEND PUSH2 0xFFFF AND MUL OR SWAP1 SSTORE POP POP POP POP POP POP POP JUMP JUMPDEST PUSH2 0x506 PUSH2 0x805 JUMP JUMPDEST PUSH1 0x4 DUP3 PUSH1 0x40 MLOAD PUSH2 0x516 SWAP2 SWAP1 PUSH2 0xD95 JUMP JUMPDEST SWAP1 DUP2 MSTORE PUSH1 0x20 ADD PUSH1 0x40 MLOAD DUP1 SWAP2 SUB SWAP1 KECCAK256 PUSH1 0x40 MLOAD DUP1 PUSH1 0x60 ADD PUSH1 0x40 MSTORE SWAP1 DUP2 PUSH1 0x0 DUP3 ADD SLOAD DUP2 MSTORE PUSH1 0x20 ADD PUSH1 0x1 DUP3 ADD DUP1 SLOAD PUSH2 0x549 SWAP1 PUSH2 0x1010 JUMP JUMPDEST DUP1 PUSH1 0x1F ADD PUSH1 0x20 DUP1 SWAP2 DIV MUL PUSH1 0x20 ADD PUSH1 0x40 MLOAD SWAP1 DUP2 ADD PUSH1 0x40 MSTORE DUP1 SWAP3 SWAP2 SWAP1 DUP2 DUP2 MSTORE PUSH1 0x20 ADD DUP3 DUP1 SLOAD PUSH2 0x575 SWAP1 PUSH2 0x1010 JUMP JUMPDEST DUP1 ISZERO PUSH2 0x5C2 JUMPI DUP1 PUSH1 0x1F LT PUSH2 0x597 JUMPI PUSH2 0x100 DUP1 DUP4 SLOAD DIV MUL DUP4 MSTORE SWAP2 PUSH1 0x20 ADD SWAP2 PUSH2 0x5C2 JUMP JUMPDEST DUP3 ADD SWAP2 SWAP1 PUSH1 0x0 MSTORE PUSH1 0x20 PUSH1 0x0 KECCAK256 SWAP1 JUMPDEST DUP2 SLOAD DUP2 MSTORE SWAP1 PUSH1 0x1 ADD SWAP1 PUSH1 0x20 ADD DUP1 DUP4 GT PUSH2 0x5A5 JUMPI DUP3 SWAP1 SUB PUSH1 0x1F AND DUP3 ADD SWAP2 JUMPDEST POP POP POP POP POP DUP2 MSTORE PUSH1 0x20 ADD PUSH1 0x2 DUP3 ADD PUSH1 0x0 SWAP1 SLOAD SWAP1 PUSH2 0x100 EXP SWAP1 DIV PUSH1 0x1 SIGNEXTEND PUSH1 0x1 SIGNEXTEND PUSH1 0x1 SIGNEXTEND DUP2 MSTORE POP POP SWAP1 POP SWAP2 SWAP1 POP JUMP JUMPDEST PUSH1 0x60 PUSH1 0x1 DUP1 SLOAD DUP1 PUSH1 0x20 MUL PUSH1 0x20 ADD PUSH1 0x40 MLOAD SWAP1 DUP2 ADD PUSH1 0x40 MSTORE DUP1 SWAP3 SWAP2 SWAP1 DUP2 DUP2 MSTORE PUSH1 0x20 ADD PUSH1 0x0 SWAP1 JUMPDEST DUP3 DUP3 LT ISZERO PUSH2 0x7F9 JUMPI DUP4 DUP3 SWAP1 PUSH1 0x0 MSTORE PUSH1 0x20 PUSH1 0x0 KECCAK256 SWAP1 PUSH1 0x3 MUL ADD PUSH1 0x40 MLOAD DUP1 PUSH1 0x60 ADD PUSH1 0x40 MSTORE SWAP1 DUP2 PUSH1 0x0 DUP3 ADD SLOAD DUP2 MSTORE PUSH1 0x20 ADD PUSH1 0x1 DUP3 ADD DUP1 SLOAD PUSH2 0x650 SWAP1 PUSH2 0x1010 JUMP JUMPDEST DUP1 PUSH1 0x1F ADD PUSH1 0x20 DUP1 SWAP2 DIV MUL PUSH1 0x20 ADD PUSH1 0x40 MLOAD SWAP1 DUP2 ADD PUSH1 0x40 MSTORE DUP1 SWAP3 SWAP2 SWAP1 DUP2 DUP2 MSTORE PUSH1 0x20 ADD DUP3 DUP1 SLOAD PUSH2 0x67C SWAP1 PUSH2 0x1010 JUMP JUMPDEST DUP1 ISZERO PUSH2 0x6C9 JUMPI DUP1 PUSH1 0x1F LT PUSH2 0x69E JUMPI PUSH2 0x100 DUP1 DUP4 SLOAD DIV MUL DUP4 MSTORE SWAP2 PUSH1 0x20 ADD SWAP2 PUSH2 0x6C9 JUMP JUMPDEST DUP3 ADD SWAP2 SWAP1 PUSH1 0x0 MSTORE PUSH1 0x20 PUSH1 0x0 KECCAK256 SWAP1 JUMPDEST DUP2 SLOAD DUP2 MSTORE SWAP1 PUSH1 0x1 ADD SWAP1 PUSH1 0x20 ADD DUP1 DUP4 GT PUSH2 0x6AC JUMPI DUP3 SWAP1 SUB PUSH1 0x1F AND DUP3 ADD SWAP2 JUMPDEST POP POP POP POP POP DUP2 MSTORE PUSH1 0x20 ADD PUSH1 0x2 DUP3 ADD DUP1 SLOAD DUP1 PUSH1 0x20 MUL PUSH1 0x20 ADD PUSH1 0x40 MLOAD SWAP1 DUP2 ADD PUSH1 0x40 MSTORE DUP1 SWAP3 SWAP2 SWAP1 DUP2 DUP2 MSTORE PUSH1 0x20 ADD PUSH1 0x0 SWAP1 JUMPDEST DUP3 DUP3 LT ISZERO PUSH2 0x7E2 JUMPI DUP4 DUP3 SWAP1 PUSH1 0x0 MSTORE PUSH1 0x20 PUSH1 0x0 KECCAK256 SWAP1 PUSH1 0x3 MUL ADD PUSH1 0x40 MLOAD DUP1 PUSH1 0x60 ADD PUSH1 0x40 MSTORE SWAP1 DUP2 PUSH1 0x0 DUP3 ADD SLOAD DUP2 MSTORE PUSH1 0x20 ADD PUSH1 0x1 DUP3 ADD DUP1 SLOAD PUSH2 0x734 SWAP1 PUSH2 0x1010 JUMP JUMPDEST DUP1 PUSH1 0x1F ADD PUSH1 0x20 DUP1 SWAP2 DIV MUL PUSH1 0x20 ADD PUSH1 0x40 MLOAD SWAP1 DUP2 ADD PUSH1 0x40 MSTORE DUP1 SWAP3 SWAP2 SWAP1 DUP2 DUP2 MSTORE PUSH1 0x20 ADD DUP3 DUP1 SLOAD PUSH2 0x760 SWAP1 PUSH2 0x1010 JUMP JUMPDEST DUP1 ISZERO PUSH2 0x7AD JUMPI DUP1 PUSH1 0x1F LT PUSH2 0x782 JUMPI PUSH2 0x100 DUP1 DUP4 SLOAD DIV MUL DUP4 MSTORE SWAP2 PUSH1 0x20 ADD SWAP2 PUSH2 0x7AD JUMP JUMPDEST DUP3 ADD SWAP2 SWAP1 PUSH1 0x0 MSTORE PUSH1 0x20 PUSH1 0x0 KECCAK256 SWAP1 JUMPDEST DUP2 SLOAD DUP2 MSTORE SWAP1 PUSH1 0x1 ADD SWAP1 PUSH1 0x20 ADD DUP1 DUP4 GT PUSH2 0x790 JUMPI DUP3 SWAP1 SUB PUSH1 0x1F AND DUP3 ADD SWAP2 JUMPDEST POP POP POP POP POP DUP2 MSTORE PUSH1 0x20 ADD PUSH1 0x2 DUP3 ADD PUSH1 0x0 SWAP1 SLOAD SWAP1 PUSH2 0x100 EXP SWAP1 DIV PUSH1 0x1 SIGNEXTEND PUSH1 0x1 SIGNEXTEND PUSH1 0x1 SIGNEXTEND DUP2 MSTORE POP POP DUP2 MSTORE PUSH1 0x20 ADD SWAP1 PUSH1 0x1 ADD SWAP1 PUSH2 0x6F7 JUMP JUMPDEST POP POP POP POP DUP2 MSTORE POP POP DUP2 MSTORE PUSH1 0x20 ADD SWAP1 PUSH1 0x1 ADD SWAP1 PUSH2 0x613 JUMP JUMPDEST POP POP POP POP SWAP1 POP SWAP1 JUMP JUMPDEST POP JUMP JUMPDEST PUSH1 0x40 MLOAD DUP1 PUSH1 0x60 ADD PUSH1 0x40 MSTORE DUP1 PUSH1 0x0 DUP2 MSTORE PUSH1 0x20 ADD PUSH1 0x60 DUP2 MSTORE PUSH1 0x20 ADD PUSH1 0x0 PUSH1 0x1 SIGNEXTEND DUP2 MSTORE POP SWAP1 JUMP JUMPDEST DUP3 DUP1 SLOAD PUSH2 0x835 SWAP1 PUSH2 0x1010 JUMP JUMPDEST SWAP1 PUSH1 0x0 MSTORE PUSH1 0x20 PUSH1 0x0 KECCAK256 SWAP1 PUSH1 0x1F ADD PUSH1 0x20 SWAP1 DIV DUP2 ADD SWAP3 DUP3 PUSH2 0x857 JUMPI PUSH1 0x0 DUP6 SSTORE PUSH2 0x89E JUMP JUMPDEST DUP3 PUSH1 0x1F LT PUSH2 0x870 JUMPI DUP1 MLOAD PUSH1 0xFF NOT AND DUP4 DUP1 ADD OR DUP6 SSTORE PUSH2 0x89E JUMP JUMPDEST DUP3 DUP1 ADD PUSH1 0x1 ADD DUP6 SSTORE DUP3 ISZERO PUSH2 0x89E JUMPI SWAP2 DUP3 ADD JUMPDEST DUP3 DUP2 GT ISZERO PUSH2 0x89D JUMPI DUP3 MLOAD DUP3 SSTORE SWAP2 PUSH1 0x20 ADD SWAP2 SWAP1 PUSH1 0x1 ADD SWAP1 PUSH2 0x882 JUMP JUMPDEST JUMPDEST POP SWAP1 POP PUSH2 0x8AB SWAP2 SWAP1 PUSH2 0x8AF JUMP JUMPDEST POP SWAP1 JUMP JUMPDEST JUMPDEST DUP1 DUP3 GT ISZERO PUSH2 0x8C8 JUMPI PUSH1 0x0 DUP2 PUSH1 0x0 SWAP1 SSTORE POP PUSH1 0x1 ADD PUSH2 0x8B0 JUMP JUMPDEST POP SWAP1 JUMP JUMPDEST PUSH1 0x0 PUSH2 0x8DF PUSH2 0x8DA DUP5 PUSH2 0xE75 JUMP JUMPDEST PUSH2 0xE50 JUMP JUMPDEST SWAP1 POP DUP3 DUP2 MSTORE PUSH1 0x20 DUP2 ADD DUP5 DUP5 DUP5 ADD GT ISZERO PUSH2 0x8FB JUMPI PUSH2 0x8FA PUSH2 0x1105 JUMP JUMPDEST JUMPDEST PUSH2 0x906 DUP5 DUP3 DUP6 PUSH2 0xFCE JUMP JUMPDEST POP SWAP4 SWAP3 POP POP POP JUMP JUMPDEST PUSH1 0x0 DUP2 CALLDATALOAD SWAP1 POP PUSH2 0x91D DUP2 PUSH2 0x1125 JUMP JUMPDEST SWAP3 SWAP2 POP POP JUMP JUMPDEST PUSH1 0x0 DUP3 PUSH1 0x1F DUP4 ADD SLT PUSH2 0x938 JUMPI PUSH2 0x937 PUSH2 0x1100 JUMP JUMPDEST JUMPDEST DUP2 CALLDATALOAD PUSH2 0x948 DUP5 DUP3 PUSH1 0x20 DUP7 ADD PUSH2 0x8CC JUMP JUMPDEST SWAP2 POP POP SWAP3 SWAP2 POP POP JUMP JUMPDEST PUSH1 0x0 DUP2 CALLDATALOAD SWAP1 POP PUSH2 0x960 DUP2 PUSH2 0x113C JUMP JUMPDEST SWAP3 SWAP2 POP POP JUMP JUMPDEST PUSH1 0x0 PUSH1 0x20 DUP3 DUP5 SUB SLT ISZERO PUSH2 0x97C JUMPI PUSH2 0x97B PUSH2 0x110F JUMP JUMPDEST JUMPDEST PUSH1 0x0 DUP3 ADD CALLDATALOAD PUSH8 0xFFFFFFFFFFFFFFFF DUP2 GT ISZERO PUSH2 0x99A JUMPI PUSH2 0x999 PUSH2 0x110A JUMP JUMPDEST JUMPDEST PUSH2 0x9A6 DUP5 DUP3 DUP6 ADD PUSH2 0x923 JUMP JUMPDEST SWAP2 POP POP SWAP3 SWAP2 POP POP JUMP JUMPDEST PUSH1 0x0 DUP1 PUSH1 0x40 DUP4 DUP6 SUB SLT ISZERO PUSH2 0x9C6 JUMPI PUSH2 0x9C5 PUSH2 0x110F JUMP JUMPDEST JUMPDEST PUSH1 0x0 DUP4 ADD CALLDATALOAD PUSH8 0xFFFFFFFFFFFFFFFF DUP2 GT ISZERO PUSH2 0x9E4 JUMPI PUSH2 0x9E3 PUSH2 0x110A JUMP JUMPDEST JUMPDEST PUSH2 0x9F0 DUP6 DUP3 DUP7 ADD PUSH2 0x923 JUMP JUMPDEST SWAP3 POP POP PUSH1 0x20 PUSH2 0xA01 DUP6 DUP3 DUP7 ADD PUSH2 0x90E JUMP JUMPDEST SWAP2 POP POP SWAP3 POP SWAP3 SWAP1 POP JUMP JUMPDEST PUSH1 0x0 PUSH1 0x20 DUP3 DUP5 SUB SLT ISZERO PUSH2 0xA21 JUMPI PUSH2 0xA20 PUSH2 0x110F JUMP JUMPDEST JUMPDEST PUSH1 0x0 PUSH2 0xA2F DUP5 DUP3 DUP6 ADD PUSH2 0x951 JUMP JUMPDEST SWAP2 POP POP SWAP3 SWAP2 POP POP JUMP JUMPDEST PUSH1 0x0 PUSH2 0xA44 DUP4 DUP4 PUSH2 0xC80 JUMP JUMPDEST SWAP1 POP SWAP3 SWAP2 POP POP JUMP JUMPDEST PUSH1 0x0 PUSH2 0xA58 DUP4 DUP4 PUSH2 0xCD7 JUMP JUMPDEST SWAP1 POP SWAP3 SWAP2 POP POP JUMP JUMPDEST PUSH1 0x0 PUSH2 0xA6B DUP3 PUSH2 0xEC6 JUMP JUMPDEST PUSH2 0xA75 DUP2 DUP6 PUSH2 0xF01 JUMP JUMPDEST SWAP4 POP DUP4 PUSH1 0x20 DUP3 MUL DUP6 ADD PUSH2 0xA87 DUP6 PUSH2 0xEA6 JUMP JUMPDEST DUP1 PUSH1 0x0 JUMPDEST DUP6 DUP2 LT ISZERO PUSH2 0xAC3 JUMPI DUP5 DUP5 SUB DUP10 MSTORE DUP2 MLOAD PUSH2 0xAA4 DUP6 DUP3 PUSH2 0xA38 JUMP JUMPDEST SWAP5 POP PUSH2 0xAAF DUP4 PUSH2 0xEE7 JUMP JUMPDEST SWAP3 POP PUSH1 0x20 DUP11 ADD SWAP10 POP POP PUSH1 0x1 DUP2 ADD SWAP1 POP PUSH2 0xA8B JUMP JUMPDEST POP DUP3 SWAP8 POP DUP8 SWAP6 POP POP POP POP POP POP SWAP3 SWAP2 POP POP JUMP JUMPDEST PUSH1 0x0 PUSH2 0xAE0 DUP3 PUSH2 0xED1 JUMP JUMPDEST PUSH2 0xAEA DUP2 DUP6 PUSH2 0xF12 JUMP JUMPDEST SWAP4 POP DUP4 PUSH1 0x20 DUP3 MUL DUP6 ADD PUSH2 0xAFC DUP6 PUSH2 0xEB6 JUMP JUMPDEST DUP1 PUSH1 0x0 JUMPDEST DUP6 DUP2 LT ISZERO PUSH2 0xB38 JUMPI DUP5 DUP5 SUB DUP10 MSTORE DUP2 MLOAD PUSH2 0xB19 DUP6 DUP3 PUSH2 0xA4C JUMP JUMPDEST SWAP5 POP PUSH2 0xB24 DUP4 PUSH2 0xEF4 JUMP JUMPDEST SWAP3 POP PUSH1 0x20 DUP11 ADD SWAP10 POP POP PUSH1 0x1 DUP2 ADD SWAP1 POP PUSH2 0xB00 JUMP JUMPDEST POP DUP3 SWAP8 POP DUP8 SWAP6 POP POP POP POP POP POP SWAP3 SWAP2 POP POP JUMP JUMPDEST PUSH1 0x0 PUSH2 0xB55 DUP3 PUSH2 0xED1 JUMP JUMPDEST PUSH2 0xB5F DUP2 DUP6 PUSH2 0xF23 JUMP JUMPDEST SWAP4 POP DUP4 PUSH1 0x20 DUP3 MUL DUP6 ADD PUSH2 0xB71 DUP6 PUSH2 0xEB6 JUMP JUMPDEST DUP1 PUSH1 0x0 JUMPDEST DUP6 DUP2 LT ISZERO PUSH2 0xBAD JUMPI DUP5 DUP5 SUB DUP10 MSTORE DUP2 MLOAD PUSH2 0xB8E DUP6 DUP3 PUSH2 0xA4C JUMP JUMPDEST SWAP5 POP PUSH2 0xB99 DUP4 PUSH2 0xEF4 JUMP JUMPDEST SWAP3 POP PUSH1 0x20 DUP11 ADD SWAP10 POP POP PUSH1 0x1 DUP2 ADD SWAP1 POP PUSH2 0xB75 JUMP JUMPDEST POP DUP3 SWAP8 POP DUP8 SWAP6 POP POP POP POP POP POP SWAP3 SWAP2 POP POP JUMP JUMPDEST PUSH2 0xBC8 DUP2 PUSH2 0xFB7 JUMP JUMPDEST DUP3 MSTORE POP POP JUMP JUMPDEST PUSH2 0xBD7 DUP2 PUSH2 0xFB7 JUMP JUMPDEST DUP3 MSTORE POP POP JUMP JUMPDEST PUSH1 0x0 PUSH2 0xBE8 DUP3 PUSH2 0xEDC JUMP JUMPDEST PUSH2 0xBF2 DUP2 DUP6 PUSH2 0xF34 JUMP JUMPDEST SWAP4 POP PUSH2 0xC02 DUP2 DUP6 PUSH1 0x20 DUP7 ADD PUSH2 0xFDD JUMP JUMPDEST PUSH2 0xC0B DUP2 PUSH2 0x1114 JUMP JUMPDEST DUP5 ADD SWAP2 POP POP SWAP3 SWAP2 POP POP JUMP JUMPDEST PUSH1 0x0 PUSH2 0xC21 DUP3 PUSH2 0xEDC JUMP JUMPDEST PUSH2 0xC2B DUP2 DUP6 PUSH2 0xF45 JUMP JUMPDEST SWAP4 POP PUSH2 0xC3B DUP2 DUP6 PUSH1 0x20 DUP7 ADD PUSH2 0xFDD JUMP JUMPDEST PUSH2 0xC44 DUP2 PUSH2 0x1114 JUMP JUMPDEST DUP5 ADD SWAP2 POP POP SWAP3 SWAP2 POP POP JUMP JUMPDEST PUSH1 0x0 PUSH2 0xC5A DUP3 PUSH2 0xEDC JUMP JUMPDEST PUSH2 0xC64 DUP2 DUP6 PUSH2 0xF56 JUMP JUMPDEST SWAP4 POP PUSH2 0xC74 DUP2 DUP6 PUSH1 0x20 DUP7 ADD PUSH2 0xFDD JUMP JUMPDEST DUP1 DUP5 ADD SWAP2 POP POP SWAP3 SWAP2 POP POP JUMP JUMPDEST PUSH1 0x0 PUSH1 0x60 DUP4 ADD PUSH1 0x0 DUP4 ADD MLOAD PUSH2 0xC98 PUSH1 0x0 DUP7 ADD DUP3 PUSH2 0xD77 JUMP JUMPDEST POP PUSH1 0x20 DUP4 ADD MLOAD DUP5 DUP3 SUB PUSH1 0x20 DUP7 ADD MSTORE PUSH2 0xCB0 DUP3 DUP3 PUSH2 0xBDD JUMP JUMPDEST SWAP2 POP POP PUSH1 0x40 DUP4 ADD MLOAD DUP5 DUP3 SUB PUSH1 0x40 DUP7 ADD MSTORE PUSH2 0xCCA DUP3 DUP3 PUSH2 0xAD5 JUMP JUMPDEST SWAP2 POP POP DUP1 SWAP2 POP POP SWAP3 SWAP2 POP POP JUMP JUMPDEST PUSH1 0x0 PUSH1 0x60 DUP4 ADD PUSH1 0x0 DUP4 ADD MLOAD PUSH2 0xCEF PUSH1 0x0 DUP7 ADD DUP3 PUSH2 0xD77 JUMP JUMPDEST POP PUSH1 0x20 DUP4 ADD MLOAD DUP5 DUP3 SUB PUSH1 0x20 DUP7 ADD MSTORE PUSH2 0xD07 DUP3 DUP3 PUSH2 0xBDD JUMP JUMPDEST SWAP2 POP POP PUSH1 0x40 DUP4 ADD MLOAD PUSH2 0xD1C PUSH1 0x40 DUP7 ADD DUP3 PUSH2 0xBBF JUMP JUMPDEST POP DUP1 SWAP2 POP POP SWAP3 SWAP2 POP POP JUMP JUMPDEST PUSH1 0x0 PUSH1 0x60 DUP4 ADD PUSH1 0x0 DUP4 ADD MLOAD PUSH2 0xD3F PUSH1 0x0 DUP7 ADD DUP3 PUSH2 0xD77 JUMP JUMPDEST POP PUSH1 0x20 DUP4 ADD MLOAD DUP5 DUP3 SUB PUSH1 0x20 DUP7 ADD MSTORE PUSH2 0xD57 DUP3 DUP3 PUSH2 0xBDD JUMP JUMPDEST SWAP2 POP POP PUSH1 0x40 DUP4 ADD MLOAD PUSH2 0xD6C PUSH1 0x40 DUP7 ADD DUP3 PUSH2 0xBBF JUMP JUMPDEST POP DUP1 SWAP2 POP POP SWAP3 SWAP2 POP POP JUMP JUMPDEST PUSH2 0xD80 DUP2 PUSH2 0xFC4 JUMP JUMPDEST DUP3 MSTORE POP POP JUMP JUMPDEST PUSH2 0xD8F DUP2 PUSH2 0xFC4 JUMP JUMPDEST DUP3 MSTORE POP POP JUMP JUMPDEST PUSH1 0x0 PUSH2 0xDA1 DUP3 DUP5 PUSH2 0xC4F JUMP JUMPDEST SWAP2 POP DUP2 SWAP1 POP SWAP3 SWAP2 POP POP JUMP JUMPDEST PUSH1 0x0 PUSH1 0x20 DUP3 ADD SWAP1 POP DUP2 DUP2 SUB PUSH1 0x0 DUP4 ADD MSTORE PUSH2 0xDC6 DUP2 DUP5 PUSH2 0xA60 JUMP JUMPDEST SWAP1 POP SWAP3 SWAP2 POP POP JUMP JUMPDEST PUSH1 0x0 PUSH1 0x20 DUP3 ADD SWAP1 POP DUP2 DUP2 SUB PUSH1 0x0 DUP4 ADD MSTORE PUSH2 0xDE8 DUP2 DUP5 PUSH2 0xB4A JUMP JUMPDEST SWAP1 POP SWAP3 SWAP2 POP POP JUMP JUMPDEST PUSH1 0x0 PUSH1 0x20 DUP3 ADD SWAP1 POP DUP2 DUP2 SUB PUSH1 0x0 DUP4 ADD MSTORE PUSH2 0xE0A DUP2 DUP5 PUSH2 0xD27 JUMP JUMPDEST SWAP1 POP SWAP3 SWAP2 POP POP JUMP JUMPDEST PUSH1 0x0 PUSH1 0x60 DUP3 ADD SWAP1 POP PUSH2 0xE27 PUSH1 0x0 DUP4 ADD DUP7 PUSH2 0xD86 JUMP JUMPDEST DUP2 DUP2 SUB PUSH1 0x20 DUP4 ADD MSTORE PUSH2 0xE39 DUP2 DUP6 PUSH2 0xC16 JUMP JUMPDEST SWAP1 POP PUSH2 0xE48 PUSH1 0x40 DUP4 ADD DUP5 PUSH2 0xBCE JUMP JUMPDEST SWAP5 SWAP4 POP POP POP POP JUMP JUMPDEST PUSH1 0x0 PUSH2 0xE5A PUSH2 0xE6B JUMP JUMPDEST SWAP1 POP PUSH2 0xE66 DUP3 DUP3 PUSH2 0x1042 JUMP JUMPDEST SWAP2 SWAP1 POP JUMP JUMPDEST PUSH1 0x0 PUSH1 0x40 MLOAD SWAP1 POP SWAP1 JUMP JUMPDEST PUSH1 0x0 PUSH8 0xFFFFFFFFFFFFFFFF DUP3 GT ISZERO PUSH2 0xE90 JUMPI PUSH2 0xE8F PUSH2 0x10D1 JUMP JUMPDEST JUMPDEST PUSH2 0xE99 DUP3 PUSH2 0x1114 JUMP JUMPDEST SWAP1 POP PUSH1 0x20 DUP2 ADD SWAP1 POP SWAP2 SWAP1 POP JUMP JUMPDEST PUSH1 0x0 DUP2 SWAP1 POP PUSH1 0x20 DUP3 ADD SWAP1 POP SWAP2 SWAP1 POP JUMP JUMPDEST PUSH1 0x0 DUP2 SWAP1 POP PUSH1 0x20 DUP3 ADD SWAP1 POP SWAP2 SWAP1 POP JUMP JUMPDEST PUSH1 0x0 DUP2 MLOAD SWAP1 POP SWAP2 SWAP1 POP JUMP JUMPDEST PUSH1 0x0 DUP2 MLOAD SWAP1 POP SWAP2 SWAP1 POP JUMP JUMPDEST PUSH1 0x0 DUP2 MLOAD SWAP1 POP SWAP2 SWAP1 POP JUMP JUMPDEST PUSH1 0x0 PUSH1 0x20 DUP3 ADD SWAP1 POP SWAP2 SWAP1 POP JUMP JUMPDEST PUSH1 0x0 PUSH1 0x20 DUP3 ADD SWAP1 POP SWAP2 SWAP1 POP JUMP JUMPDEST PUSH1 0x0 DUP3 DUP3 MSTORE PUSH1 0x20 DUP3 ADD SWAP1 POP SWAP3 SWAP2 POP POP JUMP JUMPDEST PUSH1 0x0 DUP3 DUP3 MSTORE PUSH1 0x20 DUP3 ADD SWAP1 POP SWAP3 SWAP2 POP POP JUMP JUMPDEST PUSH1 0x0 DUP3 DUP3 MSTORE PUSH1 0x20 DUP3 ADD SWAP1 POP SWAP3 SWAP2 POP POP JUMP JUMPDEST PUSH1 0x0 DUP3 DUP3 MSTORE PUSH1 0x20 DUP3 ADD SWAP1 POP SWAP3 SWAP2 POP POP JUMP JUMPDEST PUSH1 0x0 DUP3 DUP3 MSTORE PUSH1 0x20 DUP3 ADD SWAP1 POP SWAP3 SWAP2 POP POP JUMP JUMPDEST PUSH1 0x0 DUP2 SWAP1 POP SWAP3 SWAP2 POP POP JUMP JUMPDEST PUSH1 0x0 PUSH2 0xF6C DUP3 PUSH2 0xFC4 JUMP JUMPDEST SWAP2 POP PUSH2 0xF77 DUP4 PUSH2 0xFC4 JUMP JUMPDEST SWAP3 POP DUP3 PUSH32 0xFFFFFFFFFFFFFFFFFFFFFFFFFFFFFFFFFFFFFFFFFFFFFFFFFFFFFFFFFFFFFFFF SUB DUP3 GT ISZERO PUSH2 0xFAC JUMPI PUSH2 0xFAB PUSH2 0x1073 JUMP JUMPDEST JUMPDEST DUP3 DUP3 ADD SWAP1 POP SWAP3 SWAP2 POP POP JUMP JUMPDEST PUSH1 0x0 DUP2 PUSH1 0x1 SIGNEXTEND SWAP1 POP SWAP2 SWAP1 POP JUMP JUMPDEST PUSH1 0x0 DUP2 SWAP1 POP SWAP2 SWAP1 POP JUMP JUMPDEST DUP3 DUP2 DUP4 CALLDATACOPY PUSH1 0x0 DUP4 DUP4 ADD MSTORE POP POP POP JUMP JUMPDEST PUSH1 0x0 JUMPDEST DUP4 DUP2 LT ISZERO PUSH2 0xFFB JUMPI DUP1 DUP3 ADD MLOAD DUP2 DUP5 ADD MSTORE PUSH1 0x20 DUP2 ADD SWAP1 POP PUSH2 0xFE0 JUMP JUMPDEST DUP4 DUP2 GT ISZERO PUSH2 0x100A JUMPI PUSH1 0x0 DUP5 DUP5 ADD MSTORE JUMPDEST POP POP POP POP JUMP JUMPDEST PUSH1 0x0 PUSH1 0x2 DUP3 DIV SWAP1 POP PUSH1 0x1 DUP3 AND DUP1 PUSH2 0x1028 JUMPI PUSH1 0x7F DUP3 AND SWAP2 POP JUMPDEST PUSH1 0x20 DUP3 LT DUP2 EQ ISZERO PUSH2 0x103C JUMPI PUSH2 0x103B PUSH2 0x10A2 JUMP JUMPDEST JUMPDEST POP SWAP2 SWAP1 POP JUMP JUMPDEST PUSH2 0x104B DUP3 PUSH2 0x1114 JUMP JUMPDEST DUP2 ADD DUP2 DUP2 LT PUSH8 0xFFFFFFFFFFFFFFFF DUP3 GT OR ISZERO PUSH2 0x106A JUMPI PUSH2 0x1069 PUSH2 0x10D1 JUMP JUMPDEST JUMPDEST DUP1 PUSH1 0x40 MSTORE POP POP POP JUMP JUMPDEST PUSH32 0x4E487B7100000000000000000000000000000000000000000000000000000000 PUSH1 0x0 MSTORE PUSH1 0x11 PUSH1 0x4 MSTORE PUSH1 0x24 PUSH1 0x0 REVERT JUMPDEST PUSH32 0x4E487B7100000000000000000000000000000000000000000000000000000000 PUSH1 0x0 MSTORE PUSH1 0x22 PUSH1 0x4 MSTORE PUSH1 0x24 PUSH1 0x0 REVERT JUMPDEST PUSH32 0x4E487B7100000000000000000000000000000000000000000000000000000000 PUSH1 0x0 MSTORE PUSH1 0x41 PUSH1 0x4 MSTORE PUSH1 0x24 PUSH1 0x0 REVERT JUMPDEST PUSH1 0x0 DUP1 REVERT JUMPDEST PUSH1 0x0 DUP1 REVERT JUMPDEST PUSH1 0x0 DUP1 REVERT JUMPDEST PUSH1 0x0 DUP1 REVERT JUMPDEST PUSH1 0x0 PUSH1 0x1F NOT PUSH1 0x1F DUP4 ADD AND SWAP1 POP SWAP2 SWAP1 POP JUMP JUMPDEST PUSH2 0x112E DUP2 PUSH2 0xFB7 JUMP JUMPDEST DUP2 EQ PUSH2 0x1139 JUMPI PUSH1 0x0 DUP1 REVERT JUMPDEST POP JUMP JUMPDEST PUSH2 0x1145 DUP2 PUSH2 0xFC4 JUMP JUMPDEST DUP2 EQ PUSH2 0x1150 JUMPI PUSH1 0x0 DUP1 REVERT JUMPDEST POP JUMP INVALID LOG2 PUSH5 0x6970667358 0x22 SLT KECCAK256 SMOD PUSH21 0xB1B9FD9F76469363CCB537F7190FEDEC0AF6FE2A25 0xE2 0xE5 0xCB PUSH9 0xE6C46096D564736F6C PUSH4 0x43000807 STOP CALLER "
				},
				"gasEstimates": {
					"creation": {
						"codeDepositCost": "897800",
						"executionCost": "935",
						"totalCost": "898735"
					},
					"external": {
						"createClient(string)": "infinite",
						"createProduit(string,int16)": "infinite",
						"getAllClients()": "infinite",
						"getAllProducts()": "infinite",
						"getProductById(uint256)": "infinite",
						"getProductByName(string)": "infinite",
						"produitById(uint256)": "infinite"
					}
				},
				"methodIdentifiers": {
					"createClient(string)": "e88e9f0f",
					"createProduit(string,int16)": "51401eef",
					"getAllClients()": "e4d7a3d4",
					"getAllProducts()": "02ee3a52",
					"getProductById(uint256)": "3f70c2b4",
					"getProductByName(string)": "d4290f83",
					"produitById(uint256)": "3f48d969"
				}
			},
			"storageLayout": {
				"storage": [
					{
						"astId": 21,
						"contract": "contracts/ExoSupermarche.sol:supermarche",
						"label": "AllProduits",
						"offset": 0,
						"slot": "0",
						"type": "t_array(t_struct(productData)8_storage)dyn_storage"
					},
					{
						"astId": 25,
						"contract": "contracts/ExoSupermarche.sol:supermarche",
						"label": "AllClients",
						"offset": 0,
						"slot": "1",
						"type": "t_array(t_struct(clientData)17_storage)dyn_storage"
					},
					{
						"astId": 30,
						"contract": "contracts/ExoSupermarche.sol:supermarche",
						"label": "client",
						"offset": 0,
						"slot": "2",
						"type": "t_mapping(t_uint256,t_struct(clientData)17_storage)"
					},
					{
						"astId": 35,
						"contract": "contracts/ExoSupermarche.sol:supermarche",
						"label": "produitById",
						"offset": 0,
						"slot": "3",
						"type": "t_mapping(t_uint256,t_struct(productData)8_storage)"
					},
					{
						"astId": 40,
						"contract": "contracts/ExoSupermarche.sol:supermarche",
						"label": "produitByName",
						"offset": 0,
						"slot": "4",
						"type": "t_mapping(t_string_memory_ptr,t_struct(productData)8_storage)"
					}
				],
				"types": {
					"t_array(t_struct(clientData)17_storage)dyn_storage": {
						"base": "t_struct(clientData)17_storage",
						"encoding": "dynamic_array",
						"label": "struct supermarche.clientData[]",
						"numberOfBytes": "32"
					},
					"t_array(t_struct(productData)8_storage)dyn_storage": {
						"base": "t_struct(productData)8_storage",
						"encoding": "dynamic_array",
						"label": "struct supermarche.productData[]",
						"numberOfBytes": "32"
					},
					"t_int16": {
						"encoding": "inplace",
						"label": "int16",
						"numberOfBytes": "2"
					},
					"t_mapping(t_string_memory_ptr,t_struct(productData)8_storage)": {
						"encoding": "mapping",
						"key": "t_string_memory_ptr",
						"label": "mapping(string => struct supermarche.productData)",
						"numberOfBytes": "32",
						"value": "t_struct(productData)8_storage"
					},
					"t_mapping(t_uint256,t_struct(clientData)17_storage)": {
						"encoding": "mapping",
						"key": "t_uint256",
						"label": "mapping(uint256 => struct supermarche.clientData)",
						"numberOfBytes": "32",
						"value": "t_struct(clientData)17_storage"
					},
					"t_mapping(t_uint256,t_struct(productData)8_storage)": {
						"encoding": "mapping",
						"key": "t_uint256",
						"label": "mapping(uint256 => struct supermarche.productData)",
						"numberOfBytes": "32",
						"value": "t_struct(productData)8_storage"
					},
					"t_string_memory_ptr": {
						"encoding": "bytes",
						"label": "string",
						"numberOfBytes": "32"
					},
					"t_string_storage": {
						"encoding": "bytes",
						"label": "string",
						"numberOfBytes": "32"
					},
					"t_struct(clientData)17_storage": {
						"encoding": "inplace",
						"label": "struct supermarche.clientData",
						"members": [
							{
								"astId": 10,
								"contract": "contracts/ExoSupermarche.sol:supermarche",
								"label": "_id",
								"offset": 0,
								"slot": "0",
								"type": "t_uint256"
							},
							{
								"astId": 12,
								"contract": "contracts/ExoSupermarche.sol:supermarche",
								"label": "_nom",
								"offset": 0,
								"slot": "1",
								"type": "t_string_storage"
							},
							{
								"astId": 16,
								"contract": "contracts/ExoSupermarche.sol:supermarche",
								"label": "panier",
								"offset": 0,
								"slot": "2",
								"type": "t_array(t_struct(productData)8_storage)dyn_storage"
							}
						],
						"numberOfBytes": "96"
					},
					"t_struct(productData)8_storage": {
						"encoding": "inplace",
						"label": "struct supermarche.productData",
						"members": [
							{
								"astId": 3,
								"contract": "contracts/ExoSupermarche.sol:supermarche",
								"label": "_id",
								"offset": 0,
								"slot": "0",
								"type": "t_uint256"
							},
							{
								"astId": 5,
								"contract": "contracts/ExoSupermarche.sol:supermarche",
								"label": "_libelle",
								"offset": 0,
								"slot": "1",
								"type": "t_string_storage"
							},
							{
								"astId": 7,
								"contract": "contracts/ExoSupermarche.sol:supermarche",
								"label": "_prix",
								"offset": 0,
								"slot": "2",
								"type": "t_int16"
							}
						],
						"numberOfBytes": "96"
					},
					"t_uint256": {
						"encoding": "inplace",
						"label": "uint256",
						"numberOfBytes": "32"
					}
				}
			},
			"userdoc": {
				"kind": "user",
				"methods": {},
				"version": 1
			}
		}
	}
}